{
  "_format": "hh-sol-artifact-1",
  "contractName": "WikiMakerRewards",
  "sourceName": "src/WikiMakerRewards.sol",
  "abi": [
    {
      "inputs": [
        {
          "internalType": "address",
          "name": "_wik",
          "type": "address"
        },
        {
          "internalType": "address",
          "name": "_owner",
          "type": "address"
        }
      ],
      "stateMutability": "nonpayable",
      "type": "constructor"
    },
    {
      "inputs": [
        {
          "internalType": "address",
          "name": "owner",
          "type": "address"
        }
      ],
      "name": "OwnableInvalidOwner",
      "type": "error"
    },
    {
      "inputs": [
        {
          "internalType": "address",
          "name": "account",
          "type": "address"
        }
      ],
      "name": "OwnableUnauthorizedAccount",
      "type": "error"
    },
    {
      "inputs": [],
      "name": "ReentrancyGuardReentrantCall",
      "type": "error"
    },
    {
      "inputs": [
        {
          "internalType": "address",
          "name": "token",
          "type": "address"
        }
      ],
      "name": "SafeERC20FailedOperation",
      "type": "error"
    },
    {
      "anonymous": false,
      "inputs": [
        {
          "indexed": true,
          "internalType": "uint256",
          "name": "epoch",
          "type": "uint256"
        },
        {
          "indexed": false,
          "internalType": "uint256",
          "name": "totalWIK",
          "type": "uint256"
        },
        {
          "indexed": false,
          "internalType": "uint256",
          "name": "makers",
          "type": "uint256"
        }
      ],
      "name": "EpochDistributed",
      "type": "event"
    },
    {
      "anonymous": false,
      "inputs": [
        {
          "indexed": true,
          "internalType": "address",
          "name": "maker",
          "type": "address"
        }
      ],
      "name": "MakerRegistered",
      "type": "event"
    },
    {
      "anonymous": false,
      "inputs": [
        {
          "indexed": true,
          "internalType": "address",
          "name": "previousOwner",
          "type": "address"
        },
        {
          "indexed": true,
          "internalType": "address",
          "name": "newOwner",
          "type": "address"
        }
      ],
      "name": "OwnershipTransferStarted",
      "type": "event"
    },
    {
      "anonymous": false,
      "inputs": [
        {
          "indexed": true,
          "internalType": "address",
          "name": "previousOwner",
          "type": "address"
        },
        {
          "indexed": true,
          "internalType": "address",
          "name": "newOwner",
          "type": "address"
        }
      ],
      "name": "OwnershipTransferred",
      "type": "event"
    },
    {
      "anonymous": false,
      "inputs": [
        {
          "indexed": true,
          "internalType": "address",
          "name": "maker",
          "type": "address"
        },
        {
          "indexed": false,
          "internalType": "uint256",
          "name": "amount",
          "type": "uint256"
        }
      ],
      "name": "RewardsClaimed",
      "type": "event"
    },
    {
      "anonymous": false,
      "inputs": [
        {
          "indexed": true,
          "internalType": "uint256",
          "name": "epoch",
          "type": "uint256"
        },
        {
          "indexed": false,
          "internalType": "address",
          "name": "maker",
          "type": "address"
        },
        {
          "indexed": false,
          "internalType": "uint256",
          "name": "score",
          "type": "uint256"
        }
      ],
      "name": "ScoreSubmitted",
      "type": "event"
    },
    {
      "inputs": [],
      "name": "BPS",
      "outputs": [
        {
          "internalType": "uint256",
          "name": "",
          "type": "uint256"
        }
      ],
      "stateMutability": "view",
      "type": "function"
    },
    {
      "inputs": [],
      "name": "EPOCH_DURATION",
      "outputs": [
        {
          "internalType": "uint256",
          "name": "",
          "type": "uint256"
        }
      ],
      "stateMutability": "view",
      "type": "function"
    },
    {
      "inputs": [],
      "name": "PRECISION",
      "outputs": [
        {
          "internalType": "uint256",
          "name": "",
          "type": "uint256"
        }
      ],
      "stateMutability": "view",
      "type": "function"
    },
    {
      "inputs": [],
      "name": "WIK",
      "outputs": [
        {
          "internalType": "contract IERC20",
          "name": "",
          "type": "address"
        }
      ],
      "stateMutability": "view",
      "type": "function"
    },
    {
      "inputs": [],
      "name": "acceptOwnership",
      "outputs": [],
      "stateMutability": "nonpayable",
      "type": "function"
    },
    {
      "inputs": [],
      "name": "claimRewards",
      "outputs": [],
      "stateMutability": "nonpayable",
      "type": "function"
    },
    {
      "inputs": [],
      "name": "currentEpochId",
      "outputs": [
        {
          "internalType": "uint256",
          "name": "",
          "type": "uint256"
        }
      ],
      "stateMutability": "view",
      "type": "function"
    },
    {
      "inputs": [],
      "name": "dailyWIKPool",
      "outputs": [
        {
          "internalType": "uint256",
          "name": "",
          "type": "uint256"
        }
      ],
      "stateMutability": "view",
      "type": "function"
    },
    {
      "inputs": [
        {
          "internalType": "uint256",
          "name": "epochIdx",
          "type": "uint256"
        }
      ],
      "name": "distributeEpoch",
      "outputs": [],
      "stateMutability": "nonpayable",
      "type": "function"
    },
    {
      "inputs": [],
      "name": "epochCount",
      "outputs": [
        {
          "internalType": "uint256",
          "name": "",
          "type": "uint256"
        }
      ],
      "stateMutability": "view",
      "type": "function"
    },
    {
      "inputs": [
        {
          "internalType": "uint256",
          "name": "",
          "type": "uint256"
        }
      ],
      "name": "epochs",
      "outputs": [
        {
          "internalType": "uint256",
          "name": "id",
          "type": "uint256"
        },
        {
          "internalType": "uint256",
          "name": "totalScore",
          "type": "uint256"
        },
        {
          "internalType": "uint256",
          "name": "wikAllocated",
          "type": "uint256"
        },
        {
          "internalType": "uint256",
          "name": "startTime",
          "type": "uint256"
        },
        {
          "internalType": "bool",
          "name": "distributed",
          "type": "bool"
        }
      ],
      "stateMutability": "view",
      "type": "function"
    },
    {
      "inputs": [
        {
          "internalType": "uint256",
          "name": "amount",
          "type": "uint256"
        }
      ],
      "name": "fundPool",
      "outputs": [],
      "stateMutability": "nonpayable",
      "type": "function"
    },
    {
      "inputs": [
        {
          "internalType": "uint256",
          "name": "i",
          "type": "uint256"
        }
      ],
      "name": "getEpoch",
      "outputs": [
        {
          "components": [
            {
              "internalType": "uint256",
              "name": "id",
              "type": "uint256"
            },
            {
              "internalType": "uint256",
              "name": "totalScore",
              "type": "uint256"
            },
            {
              "internalType": "uint256",
              "name": "wikAllocated",
              "type": "uint256"
            },
            {
              "internalType": "uint256",
              "name": "startTime",
              "type": "uint256"
            },
            {
              "internalType": "bool",
              "name": "distributed",
              "type": "bool"
            }
          ],
          "internalType": "struct WikiMakerRewards.Epoch",
          "name": "",
          "type": "tuple"
        }
      ],
      "stateMutability": "view",
      "type": "function"
    },
    {
      "inputs": [
        {
          "internalType": "address",
          "name": "m",
          "type": "address"
        }
      ],
      "name": "getMaker",
      "outputs": [
        {
          "components": [
            {
              "internalType": "uint256",
              "name": "epochScore",
              "type": "uint256"
            },
            {
              "internalType": "uint256",
              "name": "pendingRewards",
              "type": "uint256"
            },
            {
              "internalType": "uint256",
              "name": "totalEarned",
              "type": "uint256"
            },
            {
              "internalType": "uint256",
              "name": "lastEpoch",
              "type": "uint256"
            },
            {
              "internalType": "bool",
              "name": "registered",
              "type": "bool"
            }
          ],
          "internalType": "struct WikiMakerRewards.MakerStats",
          "name": "",
          "type": "tuple"
        }
      ],
      "stateMutability": "view",
      "type": "function"
    },
    {
      "inputs": [],
      "name": "makerCount",
      "outputs": [
        {
          "internalType": "uint256",
          "name": "",
          "type": "uint256"
        }
      ],
      "stateMutability": "view",
      "type": "function"
    },
    {
      "inputs": [
        {
          "internalType": "uint256",
          "name": "",
          "type": "uint256"
        }
      ],
      "name": "makerList",
      "outputs": [
        {
          "internalType": "address",
          "name": "",
          "type": "address"
        }
      ],
      "stateMutability": "view",
      "type": "function"
    },
    {
      "inputs": [
        {
          "internalType": "address",
          "name": "",
          "type": "address"
        }
      ],
      "name": "makers",
      "outputs": [
        {
          "internalType": "uint256",
          "name": "epochScore",
          "type": "uint256"
        },
        {
          "internalType": "uint256",
          "name": "pendingRewards",
          "type": "uint256"
        },
        {
          "internalType": "uint256",
          "name": "totalEarned",
          "type": "uint256"
        },
        {
          "internalType": "uint256",
          "name": "lastEpoch",
          "type": "uint256"
        },
        {
          "internalType": "bool",
          "name": "registered",
          "type": "bool"
        }
      ],
      "stateMutability": "view",
      "type": "function"
    },
    {
      "inputs": [],
      "name": "owner",
      "outputs": [
        {
          "internalType": "address",
          "name": "",
          "type": "address"
        }
      ],
      "stateMutability": "view",
      "type": "function"
    },
    {
      "inputs": [],
      "name": "pendingOwner",
      "outputs": [
        {
          "internalType": "address",
          "name": "",
          "type": "address"
        }
      ],
      "stateMutability": "view",
      "type": "function"
    },
    {
      "inputs": [],
      "name": "pendingPool",
      "outputs": [
        {
          "internalType": "uint256",
          "name": "",
          "type": "uint256"
        }
      ],
      "stateMutability": "view",
      "type": "function"
    },
    {
      "inputs": [
        {
          "internalType": "address",
          "name": "maker",
          "type": "address"
        }
      ],
      "name": "registerMaker",
      "outputs": [],
      "stateMutability": "nonpayable",
      "type": "function"
    },
    {
      "inputs": [],
      "name": "renounceOwnership",
      "outputs": [],
      "stateMutability": "nonpayable",
      "type": "function"
    },
    {
      "inputs": [
        {
          "internalType": "address",
          "name": "",
          "type": "address"
        }
      ],
      "name": "scorers",
      "outputs": [
        {
          "internalType": "bool",
          "name": "",
          "type": "bool"
        }
      ],
      "stateMutability": "view",
      "type": "function"
    },
    {
      "inputs": [
        {
          "internalType": "uint256",
          "name": "wik",
          "type": "uint256"
        }
      ],
      "name": "setDailyPool",
      "outputs": [],
      "stateMutability": "nonpayable",
      "type": "function"
    },
    {
      "inputs": [
        {
          "internalType": "address",
          "name": "s",
          "type": "address"
        },
        {
          "internalType": "bool",
          "name": "e",
          "type": "bool"
        }
      ],
      "name": "setScorer",
      "outputs": [],
      "stateMutability": "nonpayable",
      "type": "function"
    },
    {
      "inputs": [
        {
          "internalType": "address",
          "name": "maker",
          "type": "address"
        },
        {
          "internalType": "uint256",
          "name": "score",
          "type": "uint256"
        }
      ],
      "name": "submitScore",
      "outputs": [],
      "stateMutability": "nonpayable",
      "type": "function"
    },
    {
      "inputs": [],
      "name": "totalWIKDistributed",
      "outputs": [
        {
          "internalType": "uint256",
          "name": "",
          "type": "uint256"
        }
      ],
      "stateMutability": "view",
      "type": "function"
    },
    {
      "inputs": [
        {
          "internalType": "address",
          "name": "newOwner",
          "type": "address"
        }
      ],
      "name": "transferOwnership",
      "outputs": [],
      "stateMutability": "nonpayable",
      "type": "function"
    }
  ],
  "bytecode": "0x60a03461017557601f61138638819003918201601f19168301916001600160401b03831184841017610179578084926040948552833981010312610175576100468161018d565b906001600160a01b039061005c9060200161018d565b1690811561016257600180546001600160a01b03199081169091555f80549182168417815560405193916001600160a01b0316907f8be0079c531659141344cd1fd0a4f28419497f9722a3daafe3b4186f6b6457e09080a360017f9b779b17422d0df92223018b32b4d1fa46e071723d6817e2486d003becc55f005569021e19e0c9bab24000006005556001600160a01b031690811561012e57506080526040516111e490816101a2823960805181818161021b0152818161052c0152818161086d01528181610bab0152610c1b0152f35b62461bcd60e51b815260206004820152600f60248201526e57696b693a207a65726f205f77696b60881b6044820152606490fd5b631e4fbdf760e01b5f525f60045260245ffd5b5f80fd5b634e487b7160e01b5f52604160045260245ffd5b51906001600160a01b03821682036101755756fe60806040526004361015610011575f80fd5b5f3560e01c806314f4152c14610fd15780631db544c014610d9d578063249d39e914610d81578063362aecb114610d08578063372500ab14610bda57806340b0229e14610b96578063471e241414610b795780634d7fc70914610b3c5780635535fe7b146107e9578063715018a61461078657806375b3366a1461074457806379ba5097146106bf578063829965cc146106a25780638a5d0182146106855780638da5cb5b1461065e578063941baa3714610641578063a70b9f0c14610625578063aaf5eb6814610603578063ad3c981a146105ac578063af9840e514610501578063baf167fa146103cc578063bc0bc6ba1461039c578063c318330b14610324578063c6b61e4c146102b5578063da3a5f7214610208578063e30c3978146101e0578063eacdc5ff146101c35763f2fde38b1461014d575f80fd5b346101bf5760203660031901126101bf57610166610ff2565b61016e611143565b60018060a01b0316806bffffffffffffffffffffffff60a01b600154161760015560018060a01b035f54167f38d16b8cac22d99fc7c124b9cd0de2d3fa1faef420bfe791d8c362d765e227005f80a3005b5f80fd5b346101bf575f3660031901126101bf576020600654604051908152f35b346101bf575f3660031901126101bf576001546040516001600160a01b039091168152602090f35b346101bf5760203660031901126101bf577f00000000000000000000000000000000000000000000000000000000000000006040516323b872dd60e01b5f52336004523060245260043560445260205f60648180865af19060015f5114821615610295575b501561027557005b635274afe760e01b5f9081526001600160a01b0391909116600452602490fd5b60018215166102ad5750813b15153d1516168261026d565b3d5f823e3d90fd5b346101bf5760203660031901126101bf576004356004548110156101bf576102dc90611034565b50805460018201546002830154600384015460049094015460408051948552602085019390935291830152606082019290925260ff9091161515608082015260a090f35b0390f35b346101bf5760203660031901126101bf5761033d610ff2565b6103456110d8565b5060018060a01b03165f52600260205260a061036360405f20611102565b61039a6040518092608080918051845260208101516020850152604081015160408501526060810151606085015201511515910152565bf35b346101bf5760203660031901126101bf576103b56110d8565b5060a06103636103c6600435611034565b50611102565b346101bf5760203660031901126101bf576103e5610ff2565b335f52600860205260ff60405f20541680156104ee575b156104b4576001600160a01b03165f8181526002602052604090206004015460ff161561042557005b805f526002602052600460405f2001600160ff19825416179055600354600160401b8110156104a05780600161045e9201600355611008565b81546001600160a01b0360039290921b91821b19169083901b1790557fc293f2ffcf57bc8386bbfba0e77c30e986317c45fe3d7501cfa85887fef9e9255f80a2005b634e487b7160e01b5f52604160045260245ffd5b60405162461bcd60e51b815260206004820152601260248201527113548e881b9bdd08185d5d1a1bdc9a5e995960721b6044820152606490fd5b505f546001600160a01b031633146103fc565b346101bf575f3660031901126101bf576040516370a0823160e01b81523060048201526020816024817f00000000000000000000000000000000000000000000000000000000000000006001600160a01b03165afa80156105a1575f9061056e575b602090604051908152f35b506020813d602011610599575b81610588602093836110b6565b810103126101bf5760209051610563565b3d915061057b565b6040513d5f823e3d90fd5b346101bf5760403660031901126101bf576105c5610ff2565b60243580151581036101bf57610601916105dd611143565b60018060a01b03165f52600860205260405f209060ff801983541691151516179055565b005b346101bf575f3660031901126101bf576020604051670de0b6b3a76400008152f35b346101bf575f3660031901126101bf576020604051610e108152f35b346101bf575f3660031901126101bf576020600554604051908152f35b346101bf575f3660031901126101bf575f546040516001600160a01b039091168152602090f35b346101bf575f3660031901126101bf576020600754604051908152f35b346101bf575f3660031901126101bf576020600454604051908152f35b346101bf575f3660031901126101bf57600154336001600160a01b039091160361073157600180546001600160a01b03199081169091555f805433928116831782556001600160a01b0316907f8be0079c531659141344cd1fd0a4f28419497f9722a3daafe3b4186f6b6457e09080a3005b63118cdaa760e01b5f523360045260245ffd5b346101bf5760203660031901126101bf576004356003548110156101bf5761076d602091611008565b905460405160039290921b1c6001600160a01b03168152f35b346101bf575f3660031901126101bf5761079e611143565b600180546001600160a01b03199081169091555f80549182168155906001600160a01b03167f8be0079c531659141344cd1fd0a4f28419497f9722a3daafe3b4186f6b6457e08280a3005b346101bf5760203660031901126101bf57610802611156565b335f52600860205260ff60405f2054168015610b29575b61082290611050565b61082d600435611034565b506004810180549160ff83161580610afe575b15610ac9576001810191825415610a94576040516370a0823160e01b8152306004820152936020856024817f00000000000000000000000000000000000000000000000000000000000000006001600160a01b03165afa9485156105a1575f95610a60575b506002830194855411610a245760ff191660011790555f92835b6003548110156109ce576108d281611008565b9054600391821b1c6001600160a01b03165f81815260026020526040902090910154845414806109b9575b610918575b5f908152600260205260408120556001016108bf565b9490855f52600260205260405f20548354908181029181830414901517156109a557855492831561099157600193610988920490885f5260026020528460405f200161096583825461108d565b9055885f526002602052600260405f200161098183825461108d565b905561108d565b95909150610902565b634e487b7160e01b5f52601260045260245ffd5b634e487b7160e01b5f52601160045260245ffd5b50805f52600260205260405f205415156108fd565b847efef0383cc8c130ab79e3917bd5d847a12414e11b95bf25e1579dc3b80493126040856109fe8460075461108d565b600755549260035482519182526020820152a260015f8051602061118f83398151915255005b60405162461bcd60e51b81526020600482015260146024820152734d523a20696e73756666696369656e742057494b60601b6044820152606490fd5b9094506020813d602011610a8c575b81610a7c602093836110b6565b810103126101bf575193856108a5565b3d9150610a6f565b60405162461bcd60e51b815260206004820152600d60248201526c4d523a206e6f2073636f72657360981b6044820152606490fd5b60405162461bcd60e51b815260206004820152600d60248201526c4d523a206e6f7420726561647960981b6044820152606490fd5b508054600181018091116109a557610e10810290808204610e1014901517156109a557421015610840565b505f546001600160a01b03163314610819565b346101bf5760203660031901126101bf576001600160a01b03610b5d610ff2565b165f526008602052602060ff60405f2054166040519015158152f35b346101bf575f3660031901126101bf576020600354604051908152f35b346101bf575f3660031901126101bf576040517f00000000000000000000000000000000000000000000000000000000000000006001600160a01b03168152602090f35b346101bf575f3660031901126101bf57610bf2611156565b335f526002602052600160405f2001548015610ccc57335f5260026020525f60016040822001557f0000000000000000000000000000000000000000000000000000000000000000906040519163a9059cbb60e01b5f52336004528160245260205f60448180855af160015f5114811615610cad575b8360405215610275575081527ffc30cddea38e2bf4d6ea7d3f9ed3b6ad7f176419f4963bd81318067a4aee73fe60203392a260015f8051602061118f83398151915255005b6001811516610cc357813b15153d151616610c68565b833d5f823e3d90fd5b60405162461bcd60e51b81526020600482015260146024820152734d523a206e6f7468696e6720746f20636c61696d60601b6044820152606490fd5b346101bf5760203660031901126101bf576001600160a01b03610d29610ff2565b165f52600260205260405f20805461032060018301549260028101549060ff6004600383015492015416916040519586958693909594919260809360a086019786526020860152604085015260608401521515910152565b346101bf575f3660031901126101bf5760206040516127108152f35b346101bf5760403660031901126101bf57610db6610ff2565b60243590335f52600860205260ff60405f2054168015610fbe575b610dda90611050565b6001600160a01b03165f8181526002602052604090206004015490919060ff1615610f8457610e104204916006548311610f7b575b805f52600260205260405f20610e2683825461108d565b9055805f52600260205282600360405f20015560045480158015610f5c575b610ea5575b506004545f198101919082116109a5577ffdeaad9f62c24dd107d87ba2c0b144114dec62d178cad522394390f1d233a62c926001610e89604094611034565b5001610e9682825461108d565b905582519182526020820152a2005b601860055404610e10850291858304610e1014861517156109a55760405190610ecd8261109a565b86825260208201935f8552604083019384526060830190815260808301915f8352600160401b8110156104a057806001610f0a9201600455611034565b949094610f4957610f439560049451865551600186015551600285015551600384015551151591019060ff801983541691151516179055565b83610e4a565b634e487b7160e01b5f525f60045260245ffd5b505f1981018181116109a557610f728591611034565b50541415610e45565b82600655610e0f565b60405162461bcd60e51b815260206004820152601260248201527113548e881b9bdd081c9959da5cdd195c995960721b6044820152606490fd5b505f546001600160a01b03163314610dd1565b346101bf5760203660031901126101bf57610fea611143565b600435600555005b600435906001600160a01b03821682036101bf57565b6003548110156110205760035f5260205f2001905f90565b634e487b7160e01b5f52603260045260245ffd5b6004548110156110205760045f52600560205f20910201905f90565b1561105757565b60405162461bcd60e51b815260206004820152600e60248201526d26a91d103737ba1039b1b7b932b960911b6044820152606490fd5b919082018092116109a557565b60a0810190811067ffffffffffffffff8211176104a057604052565b90601f8019910116810190811067ffffffffffffffff8211176104a057604052565b604051906110e58261109a565b5f6080838281528260208201528260408201528260608201520152565b9060405161110f8161109a565b608060ff60048395805485526001810154602086015260028101546040860152600381015460608601520154161515910152565b5f546001600160a01b0316330361073157565b60025f8051602061118f833981519152541461117f5760025f8051602061118f83398151915255565b633ee5aeb560e01b5f5260045ffdfe9b779b17422d0df92223018b32b4d1fa46e071723d6817e2486d003becc55f00a264697066735822122079e91f6cdedc2e74a20666d4544cab5a56a31bc93e8917695b93d8968e800a7564736f6c634300081a0033",
  "linkReferences": {},
  "deployedLinkReferences": {}
}