{
  "_format": "hh-sol-artifact-1",
  "contractName": "WikiMultiCollateral",
  "sourceName": "src/WikiMultiCollateral.sol",
  "abi": [
    {
      "inputs": [
        {
          "internalType": "address",
          "name": "_owner",
          "type": "address"
        },
        {
          "internalType": "address",
          "name": "_oracle",
          "type": "address"
        },
        {
          "internalType": "address",
          "name": "_revenueSplitter",
          "type": "address"
        }
      ],
      "stateMutability": "nonpayable",
      "type": "constructor"
    },
    {
      "inputs": [],
      "name": "EnforcedPause",
      "type": "error"
    },
    {
      "inputs": [],
      "name": "ExpectedPause",
      "type": "error"
    },
    {
      "inputs": [
        {
          "internalType": "address",
          "name": "owner",
          "type": "address"
        }
      ],
      "name": "OwnableInvalidOwner",
      "type": "error"
    },
    {
      "inputs": [
        {
          "internalType": "address",
          "name": "account",
          "type": "address"
        }
      ],
      "name": "OwnableUnauthorizedAccount",
      "type": "error"
    },
    {
      "inputs": [],
      "name": "ReentrancyGuardReentrantCall",
      "type": "error"
    },
    {
      "inputs": [
        {
          "internalType": "address",
          "name": "token",
          "type": "address"
        }
      ],
      "name": "SafeERC20FailedOperation",
      "type": "error"
    },
    {
      "anonymous": false,
      "inputs": [
        {
          "indexed": false,
          "internalType": "uint256",
          "name": "assetId",
          "type": "uint256"
        },
        {
          "indexed": false,
          "internalType": "address",
          "name": "token",
          "type": "address"
        },
        {
          "indexed": false,
          "internalType": "string",
          "name": "symbol",
          "type": "string"
        },
        {
          "indexed": false,
          "internalType": "uint256",
          "name": "ltvBps",
          "type": "uint256"
        }
      ],
      "name": "AssetAdded",
      "type": "event"
    },
    {
      "anonymous": false,
      "inputs": [
        {
          "indexed": true,
          "internalType": "address",
          "name": "trader",
          "type": "address"
        },
        {
          "indexed": false,
          "internalType": "address",
          "name": "token",
          "type": "address"
        },
        {
          "indexed": false,
          "internalType": "uint256",
          "name": "amount",
          "type": "uint256"
        },
        {
          "indexed": false,
          "internalType": "uint256",
          "name": "valueUsd",
          "type": "uint256"
        }
      ],
      "name": "CollateralDeposited",
      "type": "event"
    },
    {
      "anonymous": false,
      "inputs": [
        {
          "indexed": true,
          "internalType": "address",
          "name": "trader",
          "type": "address"
        },
        {
          "indexed": false,
          "internalType": "address",
          "name": "token",
          "type": "address"
        },
        {
          "indexed": false,
          "internalType": "uint256",
          "name": "amount",
          "type": "uint256"
        },
        {
          "indexed": false,
          "internalType": "uint256",
          "name": "fee",
          "type": "uint256"
        }
      ],
      "name": "CollateralLiquidated",
      "type": "event"
    },
    {
      "anonymous": false,
      "inputs": [
        {
          "indexed": true,
          "internalType": "address",
          "name": "trader",
          "type": "address"
        },
        {
          "indexed": false,
          "internalType": "address",
          "name": "token",
          "type": "address"
        },
        {
          "indexed": false,
          "internalType": "uint256",
          "name": "amount",
          "type": "uint256"
        }
      ],
      "name": "CollateralWithdrawn",
      "type": "event"
    },
    {
      "anonymous": false,
      "inputs": [
        {
          "indexed": true,
          "internalType": "address",
          "name": "trader",
          "type": "address"
        },
        {
          "indexed": false,
          "internalType": "uint256",
          "name": "healthFactor",
          "type": "uint256"
        }
      ],
      "name": "HealthUpdated",
      "type": "event"
    },
    {
      "anonymous": false,
      "inputs": [
        {
          "indexed": true,
          "internalType": "address",
          "name": "previousOwner",
          "type": "address"
        },
        {
          "indexed": true,
          "internalType": "address",
          "name": "newOwner",
          "type": "address"
        }
      ],
      "name": "OwnershipTransferStarted",
      "type": "event"
    },
    {
      "anonymous": false,
      "inputs": [
        {
          "indexed": true,
          "internalType": "address",
          "name": "previousOwner",
          "type": "address"
        },
        {
          "indexed": true,
          "internalType": "address",
          "name": "newOwner",
          "type": "address"
        }
      ],
      "name": "OwnershipTransferred",
      "type": "event"
    },
    {
      "anonymous": false,
      "inputs": [
        {
          "indexed": false,
          "internalType": "address",
          "name": "account",
          "type": "address"
        }
      ],
      "name": "Paused",
      "type": "event"
    },
    {
      "anonymous": false,
      "inputs": [
        {
          "indexed": false,
          "internalType": "address",
          "name": "account",
          "type": "address"
        }
      ],
      "name": "Unpaused",
      "type": "event"
    },
    {
      "inputs": [],
      "name": "BPS",
      "outputs": [
        {
          "internalType": "uint256",
          "name": "",
          "type": "uint256"
        }
      ],
      "stateMutability": "view",
      "type": "function"
    },
    {
      "inputs": [],
      "name": "MIN_HEALTH",
      "outputs": [
        {
          "internalType": "uint256",
          "name": "",
          "type": "uint256"
        }
      ],
      "stateMutability": "view",
      "type": "function"
    },
    {
      "inputs": [],
      "name": "WARN_HEALTH",
      "outputs": [
        {
          "internalType": "uint256",
          "name": "",
          "type": "uint256"
        }
      ],
      "stateMutability": "view",
      "type": "function"
    },
    {
      "inputs": [],
      "name": "acceptOwnership",
      "outputs": [],
      "stateMutability": "nonpayable",
      "type": "function"
    },
    {
      "inputs": [
        {
          "internalType": "address",
          "name": "",
          "type": "address"
        }
      ],
      "name": "accounts",
      "outputs": [
        {
          "internalType": "address",
          "name": "trader",
          "type": "address"
        },
        {
          "internalType": "uint256",
          "name": "totalCollateralUsd",
          "type": "uint256"
        },
        {
          "internalType": "uint256",
          "name": "marginUsed",
          "type": "uint256"
        },
        {
          "internalType": "uint256",
          "name": "lastHealthUpdate",
          "type": "uint256"
        }
      ],
      "stateMutability": "view",
      "type": "function"
    },
    {
      "inputs": [
        {
          "internalType": "address",
          "name": "token",
          "type": "address"
        },
        {
          "internalType": "string",
          "name": "symbol",
          "type": "string"
        },
        {
          "internalType": "uint256",
          "name": "ltv",
          "type": "uint256"
        },
        {
          "internalType": "uint256",
          "name": "liqThresh",
          "type": "uint256"
        },
        {
          "internalType": "uint256",
          "name": "liqFee",
          "type": "uint256"
        },
        {
          "internalType": "uint256",
          "name": "feedId",
          "type": "uint256"
        },
        {
          "internalType": "uint256",
          "name": "cap",
          "type": "uint256"
        }
      ],
      "name": "addAsset",
      "outputs": [],
      "stateMutability": "nonpayable",
      "type": "function"
    },
    {
      "inputs": [
        {
          "internalType": "uint256",
          "name": "",
          "type": "uint256"
        }
      ],
      "name": "assets",
      "outputs": [
        {
          "internalType": "address",
          "name": "token",
          "type": "address"
        },
        {
          "internalType": "string",
          "name": "symbol",
          "type": "string"
        },
        {
          "internalType": "uint256",
          "name": "ltvBps",
          "type": "uint256"
        },
        {
          "internalType": "uint256",
          "name": "liquidationBps",
          "type": "uint256"
        },
        {
          "internalType": "uint256",
          "name": "liquidationFeeBps",
          "type": "uint256"
        },
        {
          "internalType": "uint256",
          "name": "priceFeedId",
          "type": "uint256"
        },
        {
          "internalType": "bool",
          "name": "enabled",
          "type": "bool"
        },
        {
          "internalType": "uint256",
          "name": "totalDeposited",
          "type": "uint256"
        },
        {
          "internalType": "uint256",
          "name": "depositCap",
          "type": "uint256"
        }
      ],
      "stateMutability": "view",
      "type": "function"
    },
    {
      "inputs": [
        {
          "internalType": "address",
          "name": "token",
          "type": "address"
        },
        {
          "internalType": "uint256",
          "name": "amount",
          "type": "uint256"
        }
      ],
      "name": "depositCollateral",
      "outputs": [],
      "stateMutability": "nonpayable",
      "type": "function"
    },
    {
      "inputs": [
        {
          "internalType": "address",
          "name": "trader",
          "type": "address"
        }
      ],
      "name": "getAccountSummary",
      "outputs": [
        {
          "internalType": "uint256",
          "name": "totalCollateralUsd",
          "type": "uint256"
        },
        {
          "internalType": "uint256",
          "name": "marginUsed",
          "type": "uint256"
        },
        {
          "internalType": "uint256",
          "name": "availableMargin",
          "type": "uint256"
        },
        {
          "internalType": "uint256",
          "name": "healthFactor",
          "type": "uint256"
        },
        {
          "components": [
            {
              "internalType": "address",
              "name": "token",
              "type": "address"
            },
            {
              "internalType": "uint256",
              "name": "amount",
              "type": "uint256"
            },
            {
              "internalType": "uint256",
              "name": "valueUsd",
              "type": "uint256"
            },
            {
              "internalType": "uint256",
              "name": "lastUpdate",
              "type": "uint256"
            }
          ],
          "internalType": "struct WikiMultiCollateral.UserCollateral[]",
          "name": "collaterals",
          "type": "tuple[]"
        }
      ],
      "stateMutability": "view",
      "type": "function"
    },
    {
      "inputs": [
        {
          "internalType": "address",
          "name": "trader",
          "type": "address"
        }
      ],
      "name": "getAvailableMargin",
      "outputs": [
        {
          "internalType": "uint256",
          "name": "availableUsd",
          "type": "uint256"
        }
      ],
      "stateMutability": "view",
      "type": "function"
    },
    {
      "inputs": [
        {
          "internalType": "address",
          "name": "trader",
          "type": "address"
        }
      ],
      "name": "getHealthFactor",
      "outputs": [
        {
          "internalType": "uint256",
          "name": "",
          "type": "uint256"
        }
      ],
      "stateMutability": "view",
      "type": "function"
    },
    {
      "inputs": [
        {
          "internalType": "address",
          "name": "trader",
          "type": "address"
        },
        {
          "internalType": "address",
          "name": "token",
          "type": "address"
        }
      ],
      "name": "liquidate",
      "outputs": [],
      "stateMutability": "nonpayable",
      "type": "function"
    },
    {
      "inputs": [
        {
          "internalType": "address",
          "name": "",
          "type": "address"
        }
      ],
      "name": "liquidators",
      "outputs": [
        {
          "internalType": "bool",
          "name": "",
          "type": "bool"
        }
      ],
      "stateMutability": "view",
      "type": "function"
    },
    {
      "inputs": [],
      "name": "nextAssetId",
      "outputs": [
        {
          "internalType": "uint256",
          "name": "",
          "type": "uint256"
        }
      ],
      "stateMutability": "view",
      "type": "function"
    },
    {
      "inputs": [],
      "name": "oracle",
      "outputs": [
        {
          "internalType": "contract IOracle",
          "name": "",
          "type": "address"
        }
      ],
      "stateMutability": "view",
      "type": "function"
    },
    {
      "inputs": [],
      "name": "owner",
      "outputs": [
        {
          "internalType": "address",
          "name": "",
          "type": "address"
        }
      ],
      "stateMutability": "view",
      "type": "function"
    },
    {
      "inputs": [],
      "name": "pause",
      "outputs": [],
      "stateMutability": "nonpayable",
      "type": "function"
    },
    {
      "inputs": [],
      "name": "paused",
      "outputs": [
        {
          "internalType": "bool",
          "name": "",
          "type": "bool"
        }
      ],
      "stateMutability": "view",
      "type": "function"
    },
    {
      "inputs": [],
      "name": "pendingOwner",
      "outputs": [
        {
          "internalType": "address",
          "name": "",
          "type": "address"
        }
      ],
      "stateMutability": "view",
      "type": "function"
    },
    {
      "inputs": [],
      "name": "renounceOwnership",
      "outputs": [],
      "stateMutability": "nonpayable",
      "type": "function"
    },
    {
      "inputs": [],
      "name": "revenueSplitter",
      "outputs": [
        {
          "internalType": "address",
          "name": "",
          "type": "address"
        }
      ],
      "stateMutability": "view",
      "type": "function"
    },
    {
      "inputs": [
        {
          "internalType": "uint256",
          "name": "assetId",
          "type": "uint256"
        },
        {
          "internalType": "bool",
          "name": "enabled",
          "type": "bool"
        }
      ],
      "name": "setAssetEnabled",
      "outputs": [],
      "stateMutability": "nonpayable",
      "type": "function"
    },
    {
      "inputs": [
        {
          "internalType": "address",
          "name": "liq",
          "type": "address"
        },
        {
          "internalType": "bool",
          "name": "on",
          "type": "bool"
        }
      ],
      "name": "setLiquidator",
      "outputs": [],
      "stateMutability": "nonpayable",
      "type": "function"
    },
    {
      "inputs": [
        {
          "internalType": "address",
          "name": "",
          "type": "address"
        }
      ],
      "name": "tokenToAsset",
      "outputs": [
        {
          "internalType": "uint256",
          "name": "",
          "type": "uint256"
        }
      ],
      "stateMutability": "view",
      "type": "function"
    },
    {
      "inputs": [
        {
          "internalType": "address",
          "name": "newOwner",
          "type": "address"
        }
      ],
      "name": "transferOwnership",
      "outputs": [],
      "stateMutability": "nonpayable",
      "type": "function"
    },
    {
      "inputs": [],
      "name": "unpause",
      "outputs": [],
      "stateMutability": "nonpayable",
      "type": "function"
    },
    {
      "inputs": [
        {
          "internalType": "address",
          "name": "token",
          "type": "address"
        },
        {
          "internalType": "uint256",
          "name": "amount",
          "type": "uint256"
        }
      ],
      "name": "withdrawCollateral",
      "outputs": [],
      "stateMutability": "nonpayable",
      "type": "function"
    }
  ],
  "bytecode": "0x608060405234610d2b576126296060813803918261001c81610d4f565b938492833981010312610d2b5761003281610d74565b61004a604061004360208501610d74565b9301610d74565b6001600160a01b03909116918215610d1857600180546001600160a01b03199081169091555f80549182168517815584916001600160a01b0316907f8be0079c531659141344cd1fd0a4f28419497f9722a3daafe3b4186f6b6457e09080a360017f9b779b17422d0df92223018b32b4d1fa46e071723d6817e2486d003becc55f005560018060a01b031660018060a01b0319600654161760065560018060a01b031660018060a01b031960075416176007555f52600560205260405f20600160ff1982541617905561011d6040610d4f565b60048152635553444360e01b6020820152600854905f198214610a645760018201600855610149610d2f565b73af88d065e77c8cc2239327c5edb3a432268e583181526020808201838152612710604080850182905260608501919091525f6080850181905260a08501819052600160c086015260e085018190525f196101008601528681526003909352909120825181546001600160a01b0319166001600160a01b039190911617815590518051919291906001600160401b038211610a50576001840154600181811c91168015610d0e575b6020821014610a3257601f8111610cc6575b50602090601f8311600114610c43575f8051602061260983398151915296938360a09694600894610100945f92610c38575b50508160011b915f199060031b1c19161760018501555b60408101516002850155606081015160038501556080810151600485015585810151600585015561029260c08201511515600686019060ff801983541691151516179055565b60e08101516007850155015191015573af88d065e77c8cc2239327c5edb3a432268e58315f5260046020528060405f20556020604051938492835273af88d065e77c8cc2239327c5edb3a432268e583182840152608060408401528051918291826080860152018484015e5f8282018401526127106060830152601f01601f19168101030190a16103236040610d4f565b60078152661155120bd554d160ca1b6020820152600854905f198214610a645760018201600855610352610d2f565b7382af49447d8a07e3bd95bd0d56f35241523fbab181526020808201838152612134604080850191909152612328606085015260326080850152600160a0850181905260c08501525f60e0850181905269152d02c7e14af68000006101008601528681526003909352909120825181546001600160a01b0319166001600160a01b039190911617815590518051919291906001600160401b038211610a50576001840154600181811c91168015610c2e575b6020821014610a3257601f8111610be6575b50602090601f8311600114610b63575f8051602061260983398151915296938360a09694600894610100945f92610b58575b50508160011b915f199060031b1c19161760018501555b6040810151600285015560608101516003850155608081015160048501558581015160058501556104a560c08201511515600686019060ff801983541691151516179055565b60e0810151600785015501519101557382af49447d8a07e3bd95bd0d56f35241523fbab15f5260046020528060405f2055602060405193849283527382af49447d8a07e3bd95bd0d56f35241523fbab182840152608060408401528051918291826080860152018484015e5f8282018401526121346060830152601f01601f19168101030190a16105366040610d4f565b6007815266109510cbd554d160ca1b6020820152600854905f198214610a645760018201600855610565610d2f565b732f2a2543b76a4166549f7aab2e75bef0aefc5b0f81526020808201838152611f40604080850191909152612134606085015260326080850152600260a0850152600160c08501525f60e0850181905264174876e8006101008601528681526003909352909120825181546001600160a01b0319166001600160a01b039190911617815590518051919291906001600160401b038211610a50576001840154600181811c91168015610b4e575b6020821014610a3257601f8111610b06575b50602090601f8311600114610a83575f8051602061260983398151915296938360a09694600894610100945f92610a78575b50508160011b915f199060031b1c19161760018501555b6040810151600285015560608101516003850155608081015160048501558581015160058501556106b360c08201511515600686019060ff801983541691151516179055565b60e081015160078501550151910155732f2a2543b76a4166549f7aab2e75bef0aefc5b0f5f5260046020528060405f205560206040519384928352732f2a2543b76a4166549f7aab2e75bef0aefc5b0f82840152608060408401528051918291826080860152018484015e5f828201840152611f406060830152601f01601f19168101030190a16107446040610d4f565b60078152661054908bd554d160ca1b6020820152600854905f198214610a645760018201600855610773610d2f565b73912ce59144191c1204e64559fe8253a0e49e654881526020808201838152611b58604080850191909152611d4c606085015260646080850152600360a08501819052600160c08601525f60e086018190526a0422ca8b0a00a4250000006101008701528781529352909120825181546001600160a01b0319166001600160a01b039190911617815590518051919291906001600160401b038211610a50576001840154600181811c91168015610a46575b6020821014610a3257601f81116109ea575b50602090601f8311600114610967575f8051602061260983398151915296938360a09694600894610100945f9261095c575b50508160011b915f199060031b1c19161760018501555b6040810151600285015560608101516003850155608081015160048501558581015160058501556108c660c08201511515600686019060ff801983541691151516179055565b60e08101516007850155015191015573912ce59144191c1204e64559fe8253a0e49e65485f5260046020528060405f20556020604051938492835273912ce59144191c1204e64559fe8253a0e49e654882840152608060408401528051918291826080860152018484015e5f828201840152611b586060830152601f01601f19168101030190a16040516118809081610d898239f35b015190505f80610869565b90600185015f52805f20915f5b601f19851681106109d2575093600184600894610100945f805160206126098339815191529b9860a09a98601f198116106109ba575b505050811b016001850155610880565b01515f1960f88460031b161c191690555f80806109aa565b91926020600181928685015181550194019201610974565b600185015f5260205f20601f840160051c81019160208510610a28575b601f0160051c01905b818110610a1d5750610837565b5f8155600101610a10565b9091508190610a07565b634e487b7160e01b5f52602260045260245ffd5b90607f1690610825565b634e487b7160e01b5f52604160045260245ffd5b634e487b7160e01b5f52601160045260245ffd5b015190505f80610656565b90600185015f52805f20915f5b601f1985168110610aee575093600184600894610100945f805160206126098339815191529b9860a09a98601f19811610610ad6575b505050811b01600185015561066d565b01515f1960f88460031b161c191690555f8080610ac6565b91926020600181928685015181550194019201610a90565b600185015f5260205f20601f840160051c81019160208510610b44575b601f0160051c01905b818110610b395750610624565b5f8155600101610b2c565b9091508190610b23565b90607f1690610612565b015190505f80610448565b90600185015f52805f20915f5b601f1985168110610bce575093600184600894610100945f805160206126098339815191529b9860a09a98601f19811610610bb6575b505050811b01600185015561045f565b01515f1960f88460031b161c191690555f8080610ba6565b91926020600181928685015181550194019201610b70565b600185015f5260205f20601f840160051c81019160208510610c24575b601f0160051c01905b818110610c195750610416565b5f8155600101610c0c565b9091508190610c03565b90607f1690610404565b015190505f80610235565b90600185015f52805f20915f5b601f1985168110610cae575093600184600894610100945f805160206126098339815191529b9860a09a98601f19811610610c96575b505050811b01600185015561024c565b01515f1960f88460031b161c191690555f8080610c86565b91926020600181928685015181550194019201610c50565b600185015f5260205f20601f840160051c81019160208510610d04575b601f0160051c01905b818110610cf95750610203565b5f8155600101610cec565b9091508190610ce3565b90607f16906101f1565b631e4fbdf760e01b5f525f60045260245ffd5b5f80fd5b6040519061012082016001600160401b03811183821017610a5057604052565b6040519190601f01601f191682016001600160401b03811183821017610a5057604052565b51906001600160a01b0382168203610d2b5756fe60806040526004361015610011575f80fd5b5f3560e01c8063249d39e914610fbb578063350c35e914610f8e57806335c544a714610f485780633f4ba83a14610eda57806343ad297714610d535780634453a37414610d0057806346d5c155146109a55780635c975abb146109805780635e5c06e21461091e57806368cf06e414610919578063715018a6146108b657806379ba5097146108315780637dc0d1d0146108095780638456cb59146107a857806385dd3a111461077057806386b9d81f146107335780638da5cb5b1461070c5780638ed91318146106ef5780638f82b8a1146106d35780639d2b86f6146106ab578063a5d5db0c1461035a578063c1c7c9dd14610300578063cf35bdd014610248578063e30c397814610220578063f2fde38b146101ae578063f90cdb36146101715763fe6bcd7c14610142575f80fd5b3461016d57602036600319011261016d576020610165610160610fd7565b611602565b604051908152f35b5f80fd5b3461016d57602036600319011261016d576001600160a01b03610192610fd7565b165f526005602052602060ff60405f2054166040519015158152f35b3461016d57602036600319011261016d576101c7610fd7565b6101cf6116c5565b60018060a01b0316806bffffffffffffffffffffffff60a01b600154161760015560018060a01b035f54167f38d16b8cac22d99fc7c124b9cd0de2d3fa1faef420bfe791d8c362d765e227005f80a3005b3461016d575f36600319011261016d576001546040516001600160a01b039091168152602090f35b3461016d57602036600319011261016d576004355f52600360205260405f2060018060a01b038154166040519161028d836102868160018501611034565b03846110d1565b6002810154906003810154906004810154600582015460ff6006840154169160086007850154940154946102d5604051998a998a5261012060208b01526101208a01906110f3565b9660408901526060880152608087015260a0860152151560c085015260e08401526101008301520390f35b3461016d57602036600319011261016d57610319610fd7565b60018060a01b0381165f526002602052600361033860405f20926116d8565b91015490818111156103505760209161016591611144565b505060205f610165565b3461016d57604036600319011261016d57610373610fd7565b60243561037e61153d565b610386611771565b60018060a01b03821690815f52600460205260405f205490815f52600360205260405f2060ff6006820154161561066657600781019060086103c9848454611530565b91015410610621576040516323b872dd60e01b5f5233600452306024528260445260205f60648180895af19060015f5114821615610600575b6040525f606052156105ed57610419828254611530565b9055335f52600260205260405f209260018060a01b03845416156105d8575b5f9360010190845b82548110156105ce57816104548285611117565b50546001600160a01b03161461046c57600101610440565b829394955061047e9060019293611117565b500161048b848254611530565b905560015b15610516575b50506104c3817f95d16db8c4932fcf5d6de67364791e7178ec505c7d3829a8b34d18959c01552c9361178f565b604080516001600160a01b039590951685526020850192909252908301523391606090a26104f03361159b565b60017f9b779b17422d0df92223018b32b4d1fa46e071723d6817e2486d003becc55f0055005b909260405191610525836110b5565b8252602082019083825260408301925f845260608101955f87528054680100000000000000008110156105ba5761056191600182018155611117565b9190916105a7575181546001600160a01b0319166001600160a01b039190911617815591516001830155915160028201559251600393909301929092556104c381610496565b634e487b7160e01b5f525f60045260245ffd5b634e487b7160e01b5f52604160045260245ffd5b5090919293610490565b83546001600160a01b03191633178455610438565b83635274afe760e01b5f5260045260245ffd5b90600181151661061857853b15153d15161690610402565b503d5f823e3d90fd5b60405162461bcd60e51b815260206004820152601760248201527f4d433a206465706f7369742063617020726561636865640000000000000000006044820152606490fd5b60405162461bcd60e51b815260206004820152601760248201527f4d433a206173736574206e6f7420737570706f727465640000000000000000006044820152606490fd5b3461016d575f36600319011261016d576007546040516001600160a01b039091168152602090f35b3461016d575f36600319011261016d576020604051612af88152f35b3461016d575f36600319011261016d576020600854604051908152f35b3461016d575f36600319011261016d575f546040516001600160a01b039091168152602090f35b3461016d57604036600319011261016d5761074c610fd7565b6024356001600160a01b038116810361016d576104f09161076b61153d565b61132d565b3461016d57602036600319011261016d576001600160a01b03610791610fd7565b165f526004602052602060405f2054604051908152f35b3461016d575f36600319011261016d576107c06116c5565b6107c8611771565b6001805460ff60a01b1916600160a01b1790556040513381527f62e78cea01bee320cd4e420270b5ea74000d11b0c9f74754ebdbfc544b05a25890602090a1005b3461016d575f36600319011261016d576006546040516001600160a01b039091168152602090f35b3461016d575f36600319011261016d57600154336001600160a01b03909116036108a357600180546001600160a01b03199081169091555f805433928116831782556001600160a01b0316907f8be0079c531659141344cd1fd0a4f28419497f9722a3daafe3b4186f6b6457e09080a3005b63118cdaa760e01b5f523360045260245ffd5b3461016d575f36600319011261016d576108ce6116c5565b600180546001600160a01b03199081169091555f80549182168155906001600160a01b03167f8be0079c531659141344cd1fd0a4f28419497f9722a3daafe3b4186f6b6457e08280a3005b610fbb565b3461016d57602036600319011261016d576001600160a01b0361093f610fd7565b165f526002602052608060405f2060018060a01b03815416906002810154906004600382015491015491604051938452602084015260408301526060820152f35b3461016d575f36600319011261016d57602060ff60015460a01c166040519015158152f35b3461016d5760e036600319011261016d576109be610fd7565b6024359067ffffffffffffffff821161016d573660238301121561016d57816004013567ffffffffffffffff811161016d57366024828501011161016d5760205f91610a086116c5565b80602460405196610a2285601f19601f86011601896110d1565b8288520183870137840101526008545f198114610cec576001810160085560405192610120840184811067ffffffffffffffff8211176105ba5760405260018060a01b03831684526020840193818552604081016044358152606082016064358152608435608084015260a0830160a435815260c08401916001835260e08501935f855260c435610100870152875f52600360205260405f209960018060a01b0360018060a01b03885116166bffffffffffffffffffffffff60a01b8c5416178b555180519067ffffffffffffffff82116105ba57610b0460018d0154610ffc565b601f8111610ca4575b50602090601f8311600114610c055794610bed9998947ff053f3fa3b2abc3be01406bdb058fdd4174e0c7ce4f6d5f122d6603ebdb653a79d989484610ba69560089a956101009a5f92610bfa575b50508160011b915f199060031b1c19161760018b01555b5160028a015551600389015560808501516004890155516005880155511515600687019060ff801983541691151516179055565b516007850155015191015560018060a01b0384165f5260046020528260405f2055604051938493845260018060a01b031660208401526080604084015260808301906110f3565b60443560608301520390a1005b015190505f80610b5b565b9060018d015f52805f20915f5b601f1985168110610c8c5750947ff053f3fa3b2abc3be01406bdb058fdd4174e0c7ce4f6d5f122d6603ebdb653a79d989460018560089a956101009a95610bed9f9e9a610ba699601f19811610610c74575b505050811b0160018b0155610b72565b01515f1960f88460031b161c191690555f8080610c64565b91926020600181928685015181550194019201610c12565b60018d015f5260205f20601f840160051c81019160208510610ce2575b601f0160051c01905b818110610cd75750610b0d565b5f8155600101610cca565b9091508190610cc1565b634e487b7160e01b5f52601160045260245ffd5b3461016d57604036600319011261016d57610d51610d1c610fd7565b610d24610fed565b90610d2d6116c5565b60018060a01b03165f52600560205260405f209060ff801983541691151516179055565b005b3461016d57602036600319011261016d57610d6c610fd7565b6001600160a01b0381165f908152600260205260409020610d8c826116d8565b60038201549283821115610ece576001610daf610da98685611144565b92611602565b93019283549167ffffffffffffffff83116105ba57949392919060405191610ddd60208260051b01846110d1565b8083526020830180955f5260205f205f915b838310610e78575050505060405195869560a0870194875260208701526040860152606085015260a060808501525180915260c0830191905f5b818110610e37575050500390f35b919350916020608060019260608751858060a01b03815116835284810151858401526040810151604084015201516060820152019401910191849392610e29565b6004602060019260409c9798999a9b9c51610e92816110b5565b848060a01b0386541681528486015483820152600286015460408201526003860154606082015281520192019201919098979695949398610def565b6001610daf5f92611602565b3461016d575f36600319011261016d57610ef26116c5565b60015460ff8160a01c1615610f395760ff60a01b19166001556040513381527f5db9ee0a495bf2e6ff9c91a7834c1ba4fdd244a5e8aa4e537bd38aeae4b073aa90602090a1005b638dfc202b60e01b5f5260045ffd5b3461016d57604036600319011261016d57610d51610f64610fed565b610f6c6116c5565b6004355f526003602052600660405f20019060ff801983541691151516179055565b3461016d57604036600319011261016d576104f0610faa610fd7565b610fb261153d565b60243590611164565b3461016d575f36600319011261016d5760206040516127108152f35b600435906001600160a01b038216820361016d57565b60243590811515820361016d57565b90600182811c9216801561102a575b602083101461101657565b634e487b7160e01b5f52602260045260245ffd5b91607f169161100b565b5f929181549161104383610ffc565b8083529260018116908115611098575060011461105f57505050565b5f9081526020812093945091925b83831061107e575060209250010190565b60018160209294939454838587010152019101919061106d565b915050602093945060ff929192191683830152151560051b010190565b6080810190811067ffffffffffffffff8211176105ba57604052565b90601f8019910116810190811067ffffffffffffffff8211176105ba57604052565b805180835260209291819084018484015e5f828201840152601f01601f1916010190565b8054821015611130575f5260205f209060021b01905f90565b634e487b7160e01b5f52603260045260245ffd5b91908203918211610cec57565b81810292918115918404141715610cec57565b335f52600260205260405f209160015f9301925b83548110156112e85761118b8185611117565b50546001600160a01b03848116911681146111a95750600101611178565b93909180935060016111bb8484611117565b500154106112a3576001916111cf91611117565b50016111dc828254611144565b9055815f52600460205260405f20545f526003602052600760405f2001611204828254611144565b905561120f3361159b565b612ee061121b33611602565b1061125e5761122b81338461164d565b60405191825260208201527f45892a46e6cef329bb642da6d69846d324db43d19008edc141ed82382eda1bee60403392a2565b60405162461bcd60e51b815260206004820152601e60248201527f4d433a20776f756c6420676f2062656c6f772073616665206865616c746800006044820152606490fd5b60405162461bcd60e51b815260206004820152601b60248201527f4d433a20696e73756666696369656e7420636f6c6c61746572616c00000000006044820152606490fd5b60405162461bcd60e51b815260206004820152601f60248201527f4d433a206e6f20636f6c6c61746572616c206f66207468697320746f6b656e006044820152606490fd5b335f52600560205260ff60405f205416156114f65761134b8161159b565b61271061135782611602565b10156114bb576001600160a01b03165f818152600260205260408120600101905b81548110156114b55761138b8183611117565b50546001600160a01b03858116911681148061149e575b6113af5750600101611378565b91816114578260016113e77f6d3fed3a61f45cd8e1a6360f6d9cd10e11f89e88ee16c1fd6e1e4005e81ea6e098999661147c96611117565b50015495805f52600460205260405f2054805f5260036020525f600161142c61271061141a60046040862001548d611151565b0497611426898d611144565b96611117565b5001555f526003602052600760405f2001611448888254611144565b905583611481575b339061164d565b60405193849384604091949392606082019560018060a01b0316825260208201520152565b0390a2565b6007546114999085906001600160a01b03168361164d565b611450565b5060016114ab8385611117565b50015415156113a2565b50505050565b60405162461bcd60e51b81526020600482015260136024820152724d433a206163636f756e74206865616c74687960681b6044820152606490fd5b60405162461bcd60e51b815260206004820152601260248201527126a19d103737ba103634b8bab4b230ba37b960711b6044820152606490fd5b91908201809211610cec57565b60027f9b779b17422d0df92223018b32b4d1fa46e071723d6817e2486d003becc55f00541461158c5760027f9b779b17422d0df92223018b32b4d1fa46e071723d6817e2486d003becc55f0055565b633ee5aeb560e01b5f5260045ffd5b7fed648c43be297bff1707fe804a13477d1ae1b86a2124f0f34b063d943baf442a60206115c783611602565b6115d0846116d8565b9360018060a01b031693845f5260028352600260405f200155835f526002825242600460405f200155604051908152a2565b6001600160a01b0381165f908152600260205260409020600301549081156116465761162d906116d8565b6127108102908082046127101490151715610cec570490565b50505f1990565b916040519163a9059cbb60e01b5f5260018060a01b031660045260245260205f60448180865af19060015f51148216156116ad575b6040521561168d5750565b635274afe760e01b5f9081526001600160a01b0391909116600452602490fd5b90600181151661061857823b15153d15161690611682565b5f546001600160a01b031633036108a357565b6001600160a01b03165f908152600260205260408120600101805491929183915b81831061170557505050565b9091936117686001916117188785611117565b50838060a01b039054165f52600460205261271061176160405f205461174b866117428c8a611117565b5001548261178f565b905f526003602052600260405f20015490611151565b0490611530565b940191906116f9565b60ff60015460a01c1661178057565b63d93c066560e01b5f5260045ffd5b5f52600360205260405f209060058201541561183e5760406117db9260018060a01b03600654168251808096819463524f388960e01b8352602060048401526001602484019101611034565b03915afa5f928161180a575b506117f25750505f90565b68056bc75e2d631000009161180691611151565b0490565b9092506040813d604011611836575b81611826604093836110d1565b8101031261016d5751915f6117e7565b3d9150611819565b64e8d4a510009150049056fea2646970667358221220891185a83f16365f9fb636655d2da8d388f84dea3dbdd64da5b27982d0ef773f64736f6c634300081a0033f053f3fa3b2abc3be01406bdb058fdd4174e0c7ce4f6d5f122d6603ebdb653a7",
  "linkReferences": {},
  "deployedLinkReferences": {}
}