{
  "_format": "hh-sol-artifact-1",
  "contractName": "WikiDeltaNeutralVault",
  "sourceName": "src/WikiDeltaNeutralVault.sol",
  "abi": [
    {
      "inputs": [
        {
          "internalType": "address",
          "name": "_owner",
          "type": "address"
        },
        {
          "internalType": "address",
          "name": "_usdc",
          "type": "address"
        },
        {
          "internalType": "address",
          "name": "_perp",
          "type": "address"
        },
        {
          "internalType": "address",
          "name": "_lending",
          "type": "address"
        },
        {
          "internalType": "uint256",
          "name": "_hedgeMarketId",
          "type": "uint256"
        },
        {
          "internalType": "uint256",
          "name": "_lendingMarketId",
          "type": "uint256"
        }
      ],
      "stateMutability": "nonpayable",
      "type": "constructor"
    },
    {
      "inputs": [
        {
          "internalType": "address",
          "name": "spender",
          "type": "address"
        },
        {
          "internalType": "uint256",
          "name": "allowance",
          "type": "uint256"
        },
        {
          "internalType": "uint256",
          "name": "needed",
          "type": "uint256"
        }
      ],
      "name": "ERC20InsufficientAllowance",
      "type": "error"
    },
    {
      "inputs": [
        {
          "internalType": "address",
          "name": "sender",
          "type": "address"
        },
        {
          "internalType": "uint256",
          "name": "balance",
          "type": "uint256"
        },
        {
          "internalType": "uint256",
          "name": "needed",
          "type": "uint256"
        }
      ],
      "name": "ERC20InsufficientBalance",
      "type": "error"
    },
    {
      "inputs": [
        {
          "internalType": "address",
          "name": "approver",
          "type": "address"
        }
      ],
      "name": "ERC20InvalidApprover",
      "type": "error"
    },
    {
      "inputs": [
        {
          "internalType": "address",
          "name": "receiver",
          "type": "address"
        }
      ],
      "name": "ERC20InvalidReceiver",
      "type": "error"
    },
    {
      "inputs": [
        {
          "internalType": "address",
          "name": "sender",
          "type": "address"
        }
      ],
      "name": "ERC20InvalidSender",
      "type": "error"
    },
    {
      "inputs": [
        {
          "internalType": "address",
          "name": "spender",
          "type": "address"
        }
      ],
      "name": "ERC20InvalidSpender",
      "type": "error"
    },
    {
      "inputs": [],
      "name": "EnforcedPause",
      "type": "error"
    },
    {
      "inputs": [],
      "name": "ExpectedPause",
      "type": "error"
    },
    {
      "inputs": [
        {
          "internalType": "address",
          "name": "owner",
          "type": "address"
        }
      ],
      "name": "OwnableInvalidOwner",
      "type": "error"
    },
    {
      "inputs": [
        {
          "internalType": "address",
          "name": "account",
          "type": "address"
        }
      ],
      "name": "OwnableUnauthorizedAccount",
      "type": "error"
    },
    {
      "inputs": [],
      "name": "ReentrancyGuardReentrantCall",
      "type": "error"
    },
    {
      "inputs": [
        {
          "internalType": "address",
          "name": "token",
          "type": "address"
        }
      ],
      "name": "SafeERC20FailedOperation",
      "type": "error"
    },
    {
      "anonymous": false,
      "inputs": [
        {
          "indexed": true,
          "internalType": "address",
          "name": "owner",
          "type": "address"
        },
        {
          "indexed": true,
          "internalType": "address",
          "name": "spender",
          "type": "address"
        },
        {
          "indexed": false,
          "internalType": "uint256",
          "name": "value",
          "type": "uint256"
        }
      ],
      "name": "Approval",
      "type": "event"
    },
    {
      "anonymous": false,
      "inputs": [
        {
          "indexed": true,
          "internalType": "address",
          "name": "user",
          "type": "address"
        },
        {
          "indexed": false,
          "internalType": "uint256",
          "name": "usdc",
          "type": "uint256"
        },
        {
          "indexed": false,
          "internalType": "uint256",
          "name": "dnUSDC",
          "type": "uint256"
        }
      ],
      "name": "Deposited",
      "type": "event"
    },
    {
      "anonymous": false,
      "inputs": [
        {
          "indexed": false,
          "internalType": "uint256",
          "name": "totalReturned",
          "type": "uint256"
        }
      ],
      "name": "EmergencyUnwind",
      "type": "event"
    },
    {
      "anonymous": false,
      "inputs": [
        {
          "indexed": false,
          "internalType": "uint256",
          "name": "oldPositionId",
          "type": "uint256"
        },
        {
          "indexed": false,
          "internalType": "uint256",
          "name": "newPositionId",
          "type": "uint256"
        },
        {
          "indexed": false,
          "internalType": "int256",
          "name": "pnl",
          "type": "int256"
        }
      ],
      "name": "HedgeRebalanced",
      "type": "event"
    },
    {
      "anonymous": false,
      "inputs": [
        {
          "indexed": true,
          "internalType": "address",
          "name": "previousOwner",
          "type": "address"
        },
        {
          "indexed": true,
          "internalType": "address",
          "name": "newOwner",
          "type": "address"
        }
      ],
      "name": "OwnershipTransferStarted",
      "type": "event"
    },
    {
      "anonymous": false,
      "inputs": [
        {
          "indexed": true,
          "internalType": "address",
          "name": "previousOwner",
          "type": "address"
        },
        {
          "indexed": true,
          "internalType": "address",
          "name": "newOwner",
          "type": "address"
        }
      ],
      "name": "OwnershipTransferred",
      "type": "event"
    },
    {
      "anonymous": false,
      "inputs": [
        {
          "indexed": false,
          "internalType": "address",
          "name": "account",
          "type": "address"
        }
      ],
      "name": "Paused",
      "type": "event"
    },
    {
      "anonymous": false,
      "inputs": [
        {
          "indexed": true,
          "internalType": "address",
          "name": "from",
          "type": "address"
        },
        {
          "indexed": true,
          "internalType": "address",
          "name": "to",
          "type": "address"
        },
        {
          "indexed": false,
          "internalType": "uint256",
          "name": "value",
          "type": "uint256"
        }
      ],
      "name": "Transfer",
      "type": "event"
    },
    {
      "anonymous": false,
      "inputs": [
        {
          "indexed": false,
          "internalType": "address",
          "name": "account",
          "type": "address"
        }
      ],
      "name": "Unpaused",
      "type": "event"
    },
    {
      "anonymous": false,
      "inputs": [
        {
          "indexed": true,
          "internalType": "address",
          "name": "user",
          "type": "address"
        },
        {
          "indexed": false,
          "internalType": "uint256",
          "name": "shares",
          "type": "uint256"
        },
        {
          "indexed": false,
          "internalType": "uint256",
          "name": "unlockTime",
          "type": "uint256"
        },
        {
          "indexed": false,
          "internalType": "uint256",
          "name": "requestId",
          "type": "uint256"
        }
      ],
      "name": "WithdrawRequested",
      "type": "event"
    },
    {
      "anonymous": false,
      "inputs": [
        {
          "indexed": true,
          "internalType": "address",
          "name": "user",
          "type": "address"
        },
        {
          "indexed": false,
          "internalType": "uint256",
          "name": "usdc",
          "type": "uint256"
        },
        {
          "indexed": false,
          "internalType": "uint256",
          "name": "dnUSDC",
          "type": "uint256"
        }
      ],
      "name": "Withdrawn",
      "type": "event"
    },
    {
      "inputs": [],
      "name": "BPS",
      "outputs": [
        {
          "internalType": "uint256",
          "name": "",
          "type": "uint256"
        }
      ],
      "stateMutability": "view",
      "type": "function"
    },
    {
      "inputs": [],
      "name": "MIN_DEPOSIT",
      "outputs": [
        {
          "internalType": "uint256",
          "name": "",
          "type": "uint256"
        }
      ],
      "stateMutability": "view",
      "type": "function"
    },
    {
      "inputs": [],
      "name": "USDC",
      "outputs": [
        {
          "internalType": "contract IERC20",
          "name": "",
          "type": "address"
        }
      ],
      "stateMutability": "view",
      "type": "function"
    },
    {
      "inputs": [],
      "name": "acceptOwnership",
      "outputs": [],
      "stateMutability": "nonpayable",
      "type": "function"
    },
    {
      "inputs": [],
      "name": "activeHedgePositionId",
      "outputs": [
        {
          "internalType": "uint256",
          "name": "",
          "type": "uint256"
        }
      ],
      "stateMutability": "view",
      "type": "function"
    },
    {
      "inputs": [
        {
          "internalType": "address",
          "name": "owner",
          "type": "address"
        },
        {
          "internalType": "address",
          "name": "spender",
          "type": "address"
        }
      ],
      "name": "allowance",
      "outputs": [
        {
          "internalType": "uint256",
          "name": "",
          "type": "uint256"
        }
      ],
      "stateMutability": "view",
      "type": "function"
    },
    {
      "inputs": [
        {
          "internalType": "address",
          "name": "spender",
          "type": "address"
        },
        {
          "internalType": "uint256",
          "name": "value",
          "type": "uint256"
        }
      ],
      "name": "approve",
      "outputs": [
        {
          "internalType": "bool",
          "name": "",
          "type": "bool"
        }
      ],
      "stateMutability": "nonpayable",
      "type": "function"
    },
    {
      "inputs": [
        {
          "internalType": "address",
          "name": "account",
          "type": "address"
        }
      ],
      "name": "balanceOf",
      "outputs": [
        {
          "internalType": "uint256",
          "name": "",
          "type": "uint256"
        }
      ],
      "stateMutability": "view",
      "type": "function"
    },
    {
      "inputs": [],
      "name": "decimals",
      "outputs": [
        {
          "internalType": "uint8",
          "name": "",
          "type": "uint8"
        }
      ],
      "stateMutability": "view",
      "type": "function"
    },
    {
      "inputs": [
        {
          "internalType": "uint256",
          "name": "amount",
          "type": "uint256"
        }
      ],
      "name": "deposit",
      "outputs": [],
      "stateMutability": "nonpayable",
      "type": "function"
    },
    {
      "inputs": [],
      "name": "emergencyUnwind",
      "outputs": [],
      "stateMutability": "nonpayable",
      "type": "function"
    },
    {
      "inputs": [
        {
          "internalType": "uint256",
          "name": "requestId",
          "type": "uint256"
        }
      ],
      "name": "executeWithdraw",
      "outputs": [],
      "stateMutability": "nonpayable",
      "type": "function"
    },
    {
      "inputs": [],
      "name": "hedgeMarketId",
      "outputs": [
        {
          "internalType": "uint256",
          "name": "",
          "type": "uint256"
        }
      ],
      "stateMutability": "view",
      "type": "function"
    },
    {
      "inputs": [],
      "name": "hedgeRatioBps",
      "outputs": [
        {
          "internalType": "uint256",
          "name": "",
          "type": "uint256"
        }
      ],
      "stateMutability": "view",
      "type": "function"
    },
    {
      "inputs": [],
      "name": "keeper",
      "outputs": [
        {
          "internalType": "address",
          "name": "",
          "type": "address"
        }
      ],
      "stateMutability": "view",
      "type": "function"
    },
    {
      "inputs": [],
      "name": "lastRebalance",
      "outputs": [
        {
          "internalType": "uint256",
          "name": "",
          "type": "uint256"
        }
      ],
      "stateMutability": "view",
      "type": "function"
    },
    {
      "inputs": [],
      "name": "lending",
      "outputs": [
        {
          "internalType": "contract IWikiLending",
          "name": "",
          "type": "address"
        }
      ],
      "stateMutability": "view",
      "type": "function"
    },
    {
      "inputs": [],
      "name": "lendingMarketId",
      "outputs": [
        {
          "internalType": "uint256",
          "name": "",
          "type": "uint256"
        }
      ],
      "stateMutability": "view",
      "type": "function"
    },
    {
      "inputs": [],
      "name": "maxDriftBps",
      "outputs": [
        {
          "internalType": "uint256",
          "name": "",
          "type": "uint256"
        }
      ],
      "stateMutability": "view",
      "type": "function"
    },
    {
      "inputs": [],
      "name": "name",
      "outputs": [
        {
          "internalType": "string",
          "name": "",
          "type": "string"
        }
      ],
      "stateMutability": "view",
      "type": "function"
    },
    {
      "inputs": [],
      "name": "navPerShare",
      "outputs": [
        {
          "internalType": "uint256",
          "name": "",
          "type": "uint256"
        }
      ],
      "stateMutability": "view",
      "type": "function"
    },
    {
      "inputs": [],
      "name": "nextRequestId",
      "outputs": [
        {
          "internalType": "uint256",
          "name": "",
          "type": "uint256"
        }
      ],
      "stateMutability": "view",
      "type": "function"
    },
    {
      "inputs": [],
      "name": "owner",
      "outputs": [
        {
          "internalType": "address",
          "name": "",
          "type": "address"
        }
      ],
      "stateMutability": "view",
      "type": "function"
    },
    {
      "inputs": [],
      "name": "pause",
      "outputs": [],
      "stateMutability": "nonpayable",
      "type": "function"
    },
    {
      "inputs": [],
      "name": "paused",
      "outputs": [
        {
          "internalType": "bool",
          "name": "",
          "type": "bool"
        }
      ],
      "stateMutability": "view",
      "type": "function"
    },
    {
      "inputs": [],
      "name": "pendingOwner",
      "outputs": [
        {
          "internalType": "address",
          "name": "",
          "type": "address"
        }
      ],
      "stateMutability": "view",
      "type": "function"
    },
    {
      "inputs": [
        {
          "internalType": "address",
          "name": "",
          "type": "address"
        }
      ],
      "name": "pendingWithdrawShares",
      "outputs": [
        {
          "internalType": "uint256",
          "name": "",
          "type": "uint256"
        }
      ],
      "stateMutability": "view",
      "type": "function"
    },
    {
      "inputs": [],
      "name": "perp",
      "outputs": [
        {
          "internalType": "contract IWikiPerp",
          "name": "",
          "type": "address"
        }
      ],
      "stateMutability": "view",
      "type": "function"
    },
    {
      "inputs": [],
      "name": "rebalance",
      "outputs": [],
      "stateMutability": "nonpayable",
      "type": "function"
    },
    {
      "inputs": [],
      "name": "renounceOwnership",
      "outputs": [],
      "stateMutability": "nonpayable",
      "type": "function"
    },
    {
      "inputs": [
        {
          "internalType": "uint256",
          "name": "shares",
          "type": "uint256"
        }
      ],
      "name": "requestWithdraw",
      "outputs": [],
      "stateMutability": "nonpayable",
      "type": "function"
    },
    {
      "inputs": [
        {
          "internalType": "address",
          "name": "_perp",
          "type": "address"
        },
        {
          "internalType": "address",
          "name": "_lending",
          "type": "address"
        }
      ],
      "name": "setContracts",
      "outputs": [],
      "stateMutability": "nonpayable",
      "type": "function"
    },
    {
      "inputs": [
        {
          "internalType": "uint256",
          "name": "bps",
          "type": "uint256"
        }
      ],
      "name": "setHedgeRatio",
      "outputs": [],
      "stateMutability": "nonpayable",
      "type": "function"
    },
    {
      "inputs": [
        {
          "internalType": "address",
          "name": "_k",
          "type": "address"
        }
      ],
      "name": "setKeeper",
      "outputs": [],
      "stateMutability": "nonpayable",
      "type": "function"
    },
    {
      "inputs": [
        {
          "internalType": "uint256",
          "name": "delay",
          "type": "uint256"
        }
      ],
      "name": "setWithdrawDelay",
      "outputs": [],
      "stateMutability": "nonpayable",
      "type": "function"
    },
    {
      "inputs": [],
      "name": "symbol",
      "outputs": [
        {
          "internalType": "string",
          "name": "",
          "type": "string"
        }
      ],
      "stateMutability": "view",
      "type": "function"
    },
    {
      "inputs": [],
      "name": "totalDeposited",
      "outputs": [
        {
          "internalType": "uint256",
          "name": "",
          "type": "uint256"
        }
      ],
      "stateMutability": "view",
      "type": "function"
    },
    {
      "inputs": [],
      "name": "totalSupply",
      "outputs": [
        {
          "internalType": "uint256",
          "name": "",
          "type": "uint256"
        }
      ],
      "stateMutability": "view",
      "type": "function"
    },
    {
      "inputs": [],
      "name": "totalValue",
      "outputs": [
        {
          "internalType": "uint256",
          "name": "",
          "type": "uint256"
        }
      ],
      "stateMutability": "view",
      "type": "function"
    },
    {
      "inputs": [
        {
          "internalType": "address",
          "name": "to",
          "type": "address"
        },
        {
          "internalType": "uint256",
          "name": "value",
          "type": "uint256"
        }
      ],
      "name": "transfer",
      "outputs": [
        {
          "internalType": "bool",
          "name": "",
          "type": "bool"
        }
      ],
      "stateMutability": "nonpayable",
      "type": "function"
    },
    {
      "inputs": [
        {
          "internalType": "address",
          "name": "from",
          "type": "address"
        },
        {
          "internalType": "address",
          "name": "to",
          "type": "address"
        },
        {
          "internalType": "uint256",
          "name": "value",
          "type": "uint256"
        }
      ],
      "name": "transferFrom",
      "outputs": [
        {
          "internalType": "bool",
          "name": "",
          "type": "bool"
        }
      ],
      "stateMutability": "nonpayable",
      "type": "function"
    },
    {
      "inputs": [
        {
          "internalType": "address",
          "name": "newOwner",
          "type": "address"
        }
      ],
      "name": "transferOwnership",
      "outputs": [],
      "stateMutability": "nonpayable",
      "type": "function"
    },
    {
      "inputs": [],
      "name": "unpause",
      "outputs": [],
      "stateMutability": "nonpayable",
      "type": "function"
    },
    {
      "inputs": [],
      "name": "withdrawDelay",
      "outputs": [
        {
          "internalType": "uint256",
          "name": "",
          "type": "uint256"
        }
      ],
      "stateMutability": "view",
      "type": "function"
    },
    {
      "inputs": [
        {
          "internalType": "uint256",
          "name": "",
          "type": "uint256"
        }
      ],
      "name": "withdrawRequests",
      "outputs": [
        {
          "internalType": "address",
          "name": "user",
          "type": "address"
        },
        {
          "internalType": "uint256",
          "name": "shares",
          "type": "uint256"
        },
        {
          "internalType": "uint256",
          "name": "unlockTime",
          "type": "uint256"
        },
        {
          "internalType": "bool",
          "name": "executed",
          "type": "bool"
        }
      ],
      "stateMutability": "view",
      "type": "function"
    }
  ],
  "bytecode": "0x60a06040523461049e5761267160c0813803918261001c816104a2565b93849283398101031261049e57610032816104c7565b9061003f602082016104c7565b9161004c604083016104c7565b91610059606082016104c7565b60a060808301519201519261006e60406104a2565b601281527144656c7461204e65757472616c205553444360701b602082015261009760406104a2565b6006815265646e5553444360d01b6020820152815190916001600160401b0382116103a15760035490600182811c92168015610494575b60208310146103835781601f849311610426575b50602090601f83116001146103c0575f926103b5575b50508160011b915f199060031b1c1916176003555b8051906001600160401b0382116103a15760045490600182811c92168015610397575b60208310146103835781601f849311610315575b50602090601f83116001146102af575f926102a4575b50508160011b915f199060031b1c1916176004555b6001600160a01b031693841561029157600680546001600160a01b03199081169091556005805491821687179055604051969086906001600160a01b03167f8be0079c531659141344cd1fd0a4f28419497f9722a3daafe3b4186f6b6457e05f80a360017f9b779b17422d0df92223018b32b4d1fa46e071723d6817e2486d003becc55f0055611388600b556101f4600c5562093a80600d5560018060a01b031660805260018060a01b031660018060a01b0319600754161760075560018060a01b031660018060a01b03196008541617600855600a5560095560018060a01b0319600e541617600e5561219590816104dc82396080518181816104c60152818161070101528181610c7501528181610dfc015281816117810152611d840152f35b631e4fbdf760e01b5f525f60045260245ffd5b015190505f8061015a565b60045f9081528281209350601f198516905b8181106102fd57509084600195949392106102e5575b505050811b0160045561016f565b01515f1960f88460031b161c191690555f80806102d7565b929360206001819287860151815501950193016102c1565b60045f529091507f8a35acfbc15ff81a39ae7d344fd709f28e8600b4aa8c65c6b64bfe7fe36bd19b601f840160051c81019160208510610379575b90601f859493920160051c01905b81811061036b5750610144565b5f815584935060010161035e565b9091508190610350565b634e487b7160e01b5f52602260045260245ffd5b91607f1691610130565b634e487b7160e01b5f52604160045260245ffd5b015190505f806100f8565b60035f9081528281209350601f198516905b81811061040e57509084600195949392106103f6575b505050811b0160035561010d565b01515f1960f88460031b161c191690555f80806103e8565b929360206001819287860151815501950193016103d2565b60035f529091507fc2575a0e9e593c00f959f8c92f12db2869c3395a3b0502d05e2516446f71f85b601f840160051c8101916020851061048a575b90601f859493920160051c01905b81811061047c57506100e2565b5f815584935060010161046f565b9091508190610461565b91607f16916100ce565b5f80fd5b6040519190601f01601f191682016001600160401b038111838210176103a157604052565b51906001600160a01b038216820361049e5756fe6080806040526004361015610012575f80fd5b5f905f3560e01c9081630288a39c14611c275750806306fdde0314611b33578063095ea7b314611a8b578063106b9ca114611a6e578063146a356314611a5157806318160ddd14611a345780632104ebf11461165557806323b872dd14611573578063249d39e914611556578063313ce5671461153a5780633f4ba83a146114ca57806348dcb743146114915780635c975abb1461146b57806360fbd0c51461144d57806366b5a1e51461142f5780636a84a9851461141157806370a08231146113d9578063715018a61461137257806372f0cb3014611345578063745400c91461111c578063748747e6146110dc57806379ba5097146110545780637d7c2a1c14610d075780638456cb5914610ca457806389a3027114610c5f5780638da5cb5b14610c3657806393f4f29114610c1857806395d89b4114610b0f57806395e97eee14610ae6578063992a7dfb14610a8c578063a9059cbb14610a5a578063aced166114610a31578063ae09722314610a16578063b6b55f25146106c6578063bfa4c00c1461069d578063cd61dd8214610423578063d4c3eea014610400578063d8952a4914610384578063dd62ed3e14610331578063e1e158a514610312578063e21ef117146102f4578063e30c3978146102cb578063e6be326a1461029b578063f2fde38b1461022d5763ff50abdc1461020d575f80fd5b3461022a578060031936011261022a576020600f54604051908152f35b80fd5b503461022a57602036600319011261022a57610247611c6b565b61024f611f9b565b600680546001600160a01b0319166001600160a01b039283169081179091556005549091167f38d16b8cac22d99fc7c124b9cd0de2d3fa1faef420bfe791d8c362d765e227008380a380f35b503461022a57602036600319011261022a576004356102b8611f9b565b611f4081116102c757600b5580f35b5080fd5b503461022a578060031936011261022a576006546040516001600160a01b039091168152602090f35b503461022a578060031936011261022a576020600c54604051908152f35b503461022a578060031936011261022a5760206040516305f5e1008152f35b503461022a57604036600319011261022a57604061034d611c6b565b91610356611c81565b9260018060a01b031681526001602052209060018060a01b03165f52602052602060405f2054604051908152f35b503461022a57604036600319011261022a5761039e611c6b565b6103a6611c81565b906103af611f9b565b6001600160a01b0316806103e7575b506001600160a01b0316806103d1575080f35b6001600160601b0360a01b600854161760085580f35b6001600160601b0360a01b60075416176007555f6103be565b503461022a578060031936011261022a57602061041b611d69565b604051908152f35b503461022a578060031936011261022a5761043c611f9b565b610444611e90565b8060105480151580610689575b610619575b506008546001600160a01b031680156106135760095460405163eb5a4fd760e01b81526004810191909152306024820152602081604481855afa9081156106085783916105d3575b505b80610580575b5050600d556040516370a0823160e01b81523060048201526020816024817f00000000000000000000000000000000000000000000000000000000000000006001600160a01b03165afa90811561057557829161053e575b5060207f42db2bef7a3390eca7fc9070040b2804b6c703c8fc8c3714413da6e077af131191604051908152a160015f805160206121408339815191525580f35b90506020813d60201161056d575b8161055960209383611c97565b81010312610569575160206104fe565b5f80fd5b3d915061054c565b6040513d84823e3d90fd5b60095490823b156105ce5760448492836040519586948593630441a3e760e41b8552600485015260248401525af16105b9575b806104a6565b816105c391611c97565b61022a57805f6105b3565b505050fd5b9250506020823d602011610600575b816105ef60209383611c97565b81010312610569578291515f61049e565b3d91506105e2565b6040513d85823e3d90fd5b816104a0565b60075460405163a126d60160e01b81526004810192909252909160209183916024918391906001600160a01b03165af161065a575b5080601055805f610456565b6020813d602011610681575b8161067360209383611c97565b81010312610569575161064e565b3d9150610666565b506007546001600160a01b03161515610451565b503461022a578060031936011261022a576007546040516001600160a01b039091168152602090f35b503461022a57602036600319011261022a576004356106e3611e90565b6106eb6120f9565b6305f5e10081106109dc576106ff81612117565b7f00000000000000000000000000000000000000000000000000000000000000006040516323b872dd60e01b855233600452306024528360445260208560648180865af19060018651148216156109bb575b60405284606052156109a05761076983600f54611d1f565b600f5561271061077b600b5485611cee565b0490846107888386611ccd565b6008549093906001600160a01b031680151580610997575b610928575b50506007546001600160a01b03169190508115158061091f575b80610915575b610879575b5050503315610865576107df81600254611d1f565b6002553383528260205260408320818154019055604051818152837fddf252ad1be2c89b69c2b068fc378daa952ba7f163c4a11628f55a4df523b3ef60203393a360405191825260208201527f73a19dd210f1a7f902193214c0ee91dd35ee5b4d920cba8d519eca65a7b488ca60403392a260015f805160206121408339815191525580f35b63ec442f0560e01b83526004839052602483fd5b610884918391611fc2565b602060018060a01b0360075416916084600a5487604051958694859363aeae799560e01b855260048501528260248501526044840152600160648401525af18491816108e1575b506108d8575b80806107ca565b6010555f6108d1565b9091506020813d60201161090d575b816108fd60209383611c97565b810103126105695751905f6108cb565b3d91506108f0565b50601054156107c5565b508215156107bf565b816109339185611fc2565b6008546009546001600160a01b0390911691823b1561099357604484928360405195869485936336bb3e9b60e21b8552600485015260248401525af161097a575b806107a5565b8161098491611c97565b61098f57845f610974565b8480fd5b8380fd5b508115156107a0565b635274afe760e01b84526001600160a01b0316600452602483fd5b9060018115166109d357823b15153d15161690610751565b503d85823e3d90fd5b60405162461bcd60e51b8152602060048201526012602482015271444e563a2062656c6f77206d696e696d756d60701b6044820152606490fd5b503461022a578060031936011261022a57602061041b611d2c565b503461022a578060031936011261022a57600e546040516001600160a01b039091168152602090f35b503461022a57604036600319011261022a57610a81610a77611c6b565b6024359033611ef1565b602060405160018152f35b503461022a57602036600319011261022a576040608091600435815260126020522060018060a01b038154169060018101549060ff6003600283015492015416916040519384526020840152604083015215156060820152f35b503461022a578060031936011261022a576008546040516001600160a01b039091168152602090f35b503461022a578060031936011261022a576040519080600454908160011c91600181168015610c0e575b602084108114610bfa57838652908115610bd35750600114610b76575b610b7284610b6681860382611c97565b60405191829182611c41565b0390f35b600481527f8a35acfbc15ff81a39ae7d344fd709f28e8600b4aa8c65c6b64bfe7fe36bd19b939250905b808210610bb957509091508101602001610b6682610b56565b919260018160209254838588010152019101909291610ba0565b60ff191660208087019190915292151560051b85019092019250610b669150839050610b56565b634e487b7160e01b83526022600452602483fd5b92607f1692610b39565b503461022a578060031936011261022a576020600a54604051908152f35b503461022a578060031936011261022a576005546040516001600160a01b039091168152602090f35b503461022a578060031936011261022a576040517f00000000000000000000000000000000000000000000000000000000000000006001600160a01b03168152602090f35b503461022a578060031936011261022a57610cbd611f9b565b610cc56120f9565b6006805460ff60a01b1916600160a01b1790556040513381527f62e78cea01bee320cd4e420270b5ea74000d11b0c9f74754ebdbfc544b05a25890602090a180f35b503461022a578060031936011261022a57610d20611e90565b600e546001600160a01b031633148015611040575b1561100957601154610e108101809111610ff5574210610fc0578060105480151580610fac575b610f28575b610d69611d69565b600b5461271003906127108211610f145761271091610d8791611cee565b0480151580610f00575b610de8575b506060907fe70f7384c554829d56b6e543ebeb03ef3de2c54ecb48ed1d66759ef3759fd6e1924260115560105460405192835260208301526040820152a160015f805160206121408339815191525580f35b600754610e209082906001600160a01b03167f0000000000000000000000000000000000000000000000000000000000000000611fc2565b602060018060a01b0360075416916084600a5487604051958694859363aeae799560e01b855260048501528260248501526044840152600160648401525af1849181610ea6575b5092606092917fe70f7384c554829d56b6e543ebeb03ef3de2c54ecb48ed1d66759ef3759fd6e194610e9d575b50925090610d96565b6010555f610e94565b929150926020833d602011610ef8575b81610ec360209383611c97565b8101031261056957915191929091907fe70f7384c554829d56b6e543ebeb03ef3de2c54ecb48ed1d66759ef3759fd6e1610e67565b3d9150610eb6565b506007546001600160a01b03161515610d91565b634e487b7160e01b85526011600452602485fd5b60075460405163a126d60160e01b815260048101839052906020908290602490829088906001600160a01b03165af1849181610f78575b50610f6b575b50610d61565b601084905591505f610f65565b9091506020813d602011610fa4575b81610f9460209383611c97565b810103126105695751905f610f5f565b3d9150610f87565b506007546001600160a01b03161515610d5c565b60405162461bcd60e51b815260206004820152600d60248201526c22272b1d103a37b79039b7b7b760991b6044820152606490fd5b634e487b7160e01b82526011600452602482fd5b60405162461bcd60e51b815260206004820152600f60248201526e22272b1d103737ba1035b2b2b832b960891b6044820152606490fd5b506005546001600160a01b03163314610d35565b503461022a578060031936011261022a57600654336001600160a01b03909116036110c957600680546001600160a01b0319908116909155600580543392811683179091556001600160a01b03167f8be0079c531659141344cd1fd0a4f28419497f9722a3daafe3b4186f6b6457e08380a380f35b63118cdaa760e01b815233600452602490fd5b503461022a57602036600319011261022a576110f6611c6b565b6110fe611f9b565b60018060a01b03166001600160601b0360a01b600e541617600e5580f35b503461022a57602036600319011261022a57600435611139611e90565b33825281602052806040832054106113005780156112c8573382526014602052604082205461128c5733825260146020528060408320556013545f198114611278576001810160135561118e600d5442611d1f565b6040516080810181811067ffffffffffffffff821117611264579060039160405233815260208101928584526040820190815260608201938785528588526012602052604088209260018060a01b039051166001600160601b0360a01b845416178355516001830155516002820155019051151560ff8019835416911617905561121a600d5442611d1f565b604051928352602083015260408201527f7a64d79878509820925daa6339976afdd4e1c50dc32bfae6820dd5792bd306a760603392a260015f805160206121408339815191525580f35b634e487b7160e01b86526041600452602486fd5b634e487b7160e01b83526011600452602483fd5b60405162461bcd60e51b8152602060048201526014602482015273444e563a20726571756573742070656e64696e6760601b6044820152606490fd5b60405162461bcd60e51b815260206004820152601060248201526f444e563a207a65726f2073686172657360801b6044820152606490fd5b60405162461bcd60e51b815260206004820152601860248201527f444e563a20696e73756666696369656e742073686172657300000000000000006044820152606490fd5b503461022a57602036600319011261022a57600435611362611f9b565b62278d0081116102c757600d5580f35b503461022a578060031936011261022a5761138b611f9b565b600680546001600160a01b031990811690915560058054918216905581906001600160a01b03167f8be0079c531659141344cd1fd0a4f28419497f9722a3daafe3b4186f6b6457e08280a380f35b503461022a57602036600319011261022a576020906040906001600160a01b03611401611c6b565b1681528083522054604051908152f35b503461022a578060031936011261022a576020601354604051908152f35b503461022a578060031936011261022a576020601054604051908152f35b503461022a578060031936011261022a576020600954604051908152f35b503461022a578060031936011261022a57602060ff60065460a01c166040519015158152f35b503461022a57602036600319011261022a576020906040906001600160a01b036114b9611c6b565b168152601483522054604051908152f35b503461022a578060031936011261022a576114e3611f9b565b60065460ff8160a01c161561152b5760ff60a01b19166006556040513381527f5db9ee0a495bf2e6ff9c91a7834c1ba4fdd244a5e8aa4e537bd38aeae4b073aa90602090a180f35b638dfc202b60e01b8252600482fd5b503461022a578060031936011261022a57602060405160128152f35b503461022a578060031936011261022a5760206040516127108152f35b503461022a57606036600319011261022a5761158d611c6b565b611595611c81565b6001600160a01b038216808452600160209081526040808620335f908152925290205460443593915f1982106115d2575b5050610a819350611ef1565b84821061163a5780156116265733156116125785604091610a81975260016020522060018060a01b0333165f526020528360405f20910390555f806115c6565b634a1406b160e11b86526004869052602486fd5b63e602df0560e01b86526004869052602486fd5b6064868684637dc7a0d960e11b835233600452602452604452fd5b50346105695760203660031901126105695761166f611e90565b6004355f90815260126020526040902080546001600160a01b031633036119f757600281015442106119be57600381019081549160ff8316611981576001809360ff1916179055335f5260146020525f60408120550180546116d081611ec8565b90331561196e57335f525f60205260405f20548181106119555790805f923384528360205203604083205580600254036002556040519081527fddf252ad1be2c89b69c2b068fc378daa952ba7f163c4a11628f55a4df523b3ef60203392a361173b81600f54611ccd565b600f5561271061174d600b5483611cee565b6008546001600160a01b03169190048115158061194c575b6118fe575b50506040516370a0823160e01b81523060048201527f000000000000000000000000000000000000000000000000000000000000000092906001600160a01b03841690602081602481855afa80156118f357849187916118be575b50106118795760405163a9059cbb60e01b86523360045260248490529360208660448180855af190600187511482161561185a575b50846040521561184857505490825260208201527f92ccf450a286a957af52509bc1c9939d1a6a481783e142e41e2499f0bb66ebc660403392a260015f805160206121408339815191525580f35b635274afe760e01b8552600452602484fd5b6001821516611870573b15153d1516165f6117fa565b853d88823e3d90fd5b60405162461bcd60e51b815260206004820152601860248201527f444e563a20696e73756666696369656e74206c697175696400000000000000006044820152606490fd5b9150506020813d6020116118eb575b816118da60209383611c97565b81010312610569578390515f6117c5565b3d91506118cd565b6040513d88823e3d90fd5b60095490823b156105695760445f92836040519586948593630441a3e760e41b8552600485015260248401525af1611937575b8061176a565b6119449193505f90611c97565b5f915f611931565b50801515611765565b63391434e360e21b5f523360045260245260445260645ffd5b634b637e8f60e11b5f525f60045260245ffd5b60405162461bcd60e51b81526020600482015260156024820152741113958e88185b1c9958591e48195e1958dd5d1959605a1b6044820152606490fd5b60405162461bcd60e51b81526020600482015260116024820152701113958e881cdd1a5b1b081b1bd8dad959607a1b6044820152606490fd5b60405162461bcd60e51b81526020600482015260156024820152741113958e881b9bdd081e5bdd5c881c995c5d595cdd605a1b6044820152606490fd5b34610569575f366003190112610569576020600254604051908152f35b34610569575f366003190112610569576020600b54604051908152f35b34610569575f366003190112610569576020601154604051908152f35b3461056957604036600319011261056957611aa4611c6b565b602435903315611b20576001600160a01b0316908115611b0d57335f52600160205260405f20825f526020528060405f20556040519081527f8c5be1e5ebec7d5bd14f71427d1e84f3dd0314c0f7b2291e5b200ac8c7c3b92560203392a3602060405160018152f35b634a1406b160e11b5f525f60045260245ffd5b63e602df0560e01b5f525f60045260245ffd5b34610569575f366003190112610569576040515f6003548060011c90600181168015611c1d575b602083108114611c0957828552908115611be55750600114611b87575b610b7283610b6681850382611c97565b91905060035f527fc2575a0e9e593c00f959f8c92f12db2869c3395a3b0502d05e2516446f71f85b915f905b808210611bcb57509091508101602001610b66611b77565b919260018160209254838588010152019101909291611bb3565b60ff191660208086019190915291151560051b84019091019150610b669050611b77565b634e487b7160e01b5f52602260045260245ffd5b91607f1691611b5a565b34610569575f36600319011261056957602090600d548152f35b602060409281835280519182918282860152018484015e5f828201840152601f01601f1916010190565b600435906001600160a01b038216820361056957565b602435906001600160a01b038216820361056957565b90601f8019910116810190811067ffffffffffffffff821117611cb957604052565b634e487b7160e01b5f52604160045260245ffd5b91908203918211611cda57565b634e487b7160e01b5f52601160045260245ffd5b81810292918115918404141715611cda57565b8115611d0b570490565b634e487b7160e01b5f52601260045260245ffd5b91908201809211611cda57565b6002548015611d6157611d3d611d69565b90620f4240820291808304620f42401490151715611cda57611d5e91611d01565b90565b50620f424090565b6040516370a0823160e01b81523060048201526020816024817f00000000000000000000000000000000000000000000000000000000000000006001600160a01b03165afa908115611e47575f91611e5e575b506008546001600160a01b0316908115611e525760095460405163eb5a4fd760e01b8152600481019190915230602482015291602090839060449082905afa8015611e47575f90611e13575b611d5e925090611d1f565b506020823d602011611e3f575b81611e2d60209383611c97565b8101031261056957611d5e9151611e08565b3d9150611e20565b6040513d5f823e3d90fd5b611d5e91505f90611d1f565b90506020813d602011611e88575b81611e7960209383611c97565b8101031261056957515f611dbc565b3d9150611e6c565b60025f805160206121408339815191525414611eb95760025f8051602061214083398151915255565b633ee5aeb560e01b5f5260045ffd5b6002548015611eeb57611ee6611d5e92611ee0611d69565b90611cee565b611d01565b50505f90565b6001600160a01b031690811561196e576001600160a01b0316918215611f8857815f525f60205260405f2054818110611f6f57817fddf252ad1be2c89b69c2b068fc378daa952ba7f163c4a11628f55a4df523b3ef92602092855f525f84520360405f2055845f525f825260405f20818154019055604051908152a3565b8263391434e360e21b5f5260045260245260445260645ffd5b63ec442f0560e01b5f525f60045260245ffd5b6005546001600160a01b03163303611faf57565b63118cdaa760e01b5f523360045260245ffd5b916040519163095ea7b360e01b5f5260018060a01b031691826004528160245260205f60448180885af19060015f51148216156120ea575b6040521561200757505050565b60405163095ea7b360e01b5f52826004525f60245260205f60448180885af19060015f51148216156120d2575b604052156120b4576040519163095ea7b360e01b5f5260045260245260205f60448180865af19060015f5114821615612093575b604052156120735750565b635274afe760e01b5f9081526001600160a01b0391909116600452602490fd5b9060018115166120ab57823b15153d15161690612068565b503d5f823e3d90fd5b635274afe760e01b5f9081526001600160a01b038416600452602490fd5b9060018115166120ab57843b15153d15161690612034565b90843b15153d15161690611ffa565b60ff60065460a01c1661210857565b63d93c066560e01b5f5260045ffd5b600254801561213b5761212d90611d5e92611cee565b612135611d69565b90611d01565b509056fe9b779b17422d0df92223018b32b4d1fa46e071723d6817e2486d003becc55f00a2646970667358221220e3b35b88b4411b761a95ebd8aae0caf17d88fe32e01624bb769d29332e190bd464736f6c634300081a0033",
  "linkReferences": {},
  "deployedLinkReferences": {}
}