{
  "_format": "hh-sol-artifact-1",
  "contractName": "WikiLaunchPool",
  "sourceName": "src/WikiLaunchPool.sol",
  "abi": [
    {
      "inputs": [
        {
          "internalType": "address",
          "name": "usdc",
          "type": "address"
        },
        {
          "internalType": "address",
          "name": "owner",
          "type": "address"
        }
      ],
      "stateMutability": "nonpayable",
      "type": "constructor"
    },
    {
      "inputs": [
        {
          "internalType": "address",
          "name": "owner",
          "type": "address"
        }
      ],
      "name": "OwnableInvalidOwner",
      "type": "error"
    },
    {
      "inputs": [
        {
          "internalType": "address",
          "name": "account",
          "type": "address"
        }
      ],
      "name": "OwnableUnauthorizedAccount",
      "type": "error"
    },
    {
      "inputs": [],
      "name": "ReentrancyGuardReentrantCall",
      "type": "error"
    },
    {
      "inputs": [
        {
          "internalType": "address",
          "name": "token",
          "type": "address"
        }
      ],
      "name": "SafeERC20FailedOperation",
      "type": "error"
    },
    {
      "anonymous": false,
      "inputs": [
        {
          "indexed": true,
          "internalType": "uint256",
          "name": "pid",
          "type": "uint256"
        },
        {
          "indexed": true,
          "internalType": "address",
          "name": "user",
          "type": "address"
        },
        {
          "indexed": false,
          "internalType": "uint256",
          "name": "amount",
          "type": "uint256"
        }
      ],
      "name": "Harvested",
      "type": "event"
    },
    {
      "anonymous": false,
      "inputs": [
        {
          "indexed": true,
          "internalType": "address",
          "name": "previousOwner",
          "type": "address"
        },
        {
          "indexed": true,
          "internalType": "address",
          "name": "newOwner",
          "type": "address"
        }
      ],
      "name": "OwnershipTransferStarted",
      "type": "event"
    },
    {
      "anonymous": false,
      "inputs": [
        {
          "indexed": true,
          "internalType": "address",
          "name": "previousOwner",
          "type": "address"
        },
        {
          "indexed": true,
          "internalType": "address",
          "name": "newOwner",
          "type": "address"
        }
      ],
      "name": "OwnershipTransferred",
      "type": "event"
    },
    {
      "anonymous": false,
      "inputs": [
        {
          "indexed": true,
          "internalType": "uint256",
          "name": "pid",
          "type": "uint256"
        },
        {
          "indexed": false,
          "internalType": "string",
          "name": "name",
          "type": "string"
        },
        {
          "indexed": false,
          "internalType": "address",
          "name": "stakeToken",
          "type": "address"
        },
        {
          "indexed": false,
          "internalType": "address",
          "name": "rewardToken",
          "type": "address"
        },
        {
          "indexed": false,
          "internalType": "uint256",
          "name": "startTime",
          "type": "uint256"
        },
        {
          "indexed": false,
          "internalType": "uint256",
          "name": "endTime",
          "type": "uint256"
        }
      ],
      "name": "PoolCreated",
      "type": "event"
    },
    {
      "anonymous": false,
      "inputs": [
        {
          "indexed": true,
          "internalType": "uint256",
          "name": "pid",
          "type": "uint256"
        }
      ],
      "name": "PoolDeactivated",
      "type": "event"
    },
    {
      "anonymous": false,
      "inputs": [
        {
          "indexed": true,
          "internalType": "address",
          "name": "to",
          "type": "address"
        },
        {
          "indexed": false,
          "internalType": "uint256",
          "name": "amount",
          "type": "uint256"
        }
      ],
      "name": "ProtocolFeesWithdrawn",
      "type": "event"
    },
    {
      "anonymous": false,
      "inputs": [
        {
          "indexed": true,
          "internalType": "uint256",
          "name": "pid",
          "type": "uint256"
        },
        {
          "indexed": false,
          "internalType": "uint256",
          "name": "amount",
          "type": "uint256"
        }
      ],
      "name": "RewardTopUp",
      "type": "event"
    },
    {
      "anonymous": false,
      "inputs": [
        {
          "indexed": true,
          "internalType": "uint256",
          "name": "pid",
          "type": "uint256"
        },
        {
          "indexed": true,
          "internalType": "address",
          "name": "user",
          "type": "address"
        },
        {
          "indexed": false,
          "internalType": "uint256",
          "name": "amount",
          "type": "uint256"
        }
      ],
      "name": "Staked",
      "type": "event"
    },
    {
      "anonymous": false,
      "inputs": [
        {
          "indexed": true,
          "internalType": "uint256",
          "name": "pid",
          "type": "uint256"
        },
        {
          "indexed": true,
          "internalType": "address",
          "name": "user",
          "type": "address"
        },
        {
          "indexed": false,
          "internalType": "uint256",
          "name": "amount",
          "type": "uint256"
        }
      ],
      "name": "Unstaked",
      "type": "event"
    },
    {
      "inputs": [],
      "name": "LISTING_FEE",
      "outputs": [
        {
          "internalType": "uint256",
          "name": "",
          "type": "uint256"
        }
      ],
      "stateMutability": "view",
      "type": "function"
    },
    {
      "inputs": [],
      "name": "MAX_POOLS",
      "outputs": [
        {
          "internalType": "uint256",
          "name": "",
          "type": "uint256"
        }
      ],
      "stateMutability": "view",
      "type": "function"
    },
    {
      "inputs": [],
      "name": "PRECISION",
      "outputs": [
        {
          "internalType": "uint256",
          "name": "",
          "type": "uint256"
        }
      ],
      "stateMutability": "view",
      "type": "function"
    },
    {
      "inputs": [],
      "name": "USDC",
      "outputs": [
        {
          "internalType": "contract IERC20",
          "name": "",
          "type": "address"
        }
      ],
      "stateMutability": "view",
      "type": "function"
    },
    {
      "inputs": [],
      "name": "acceptOwnership",
      "outputs": [],
      "stateMutability": "nonpayable",
      "type": "function"
    },
    {
      "inputs": [
        {
          "internalType": "address",
          "name": "",
          "type": "address"
        }
      ],
      "name": "allowedStakeTokens",
      "outputs": [
        {
          "internalType": "bool",
          "name": "",
          "type": "bool"
        }
      ],
      "stateMutability": "view",
      "type": "function"
    },
    {
      "inputs": [
        {
          "internalType": "string",
          "name": "projectName",
          "type": "string"
        },
        {
          "internalType": "string",
          "name": "projectURL",
          "type": "string"
        },
        {
          "internalType": "address",
          "name": "stakeToken",
          "type": "address"
        },
        {
          "internalType": "address",
          "name": "rewardToken",
          "type": "address"
        },
        {
          "internalType": "uint256",
          "name": "rewardBudget",
          "type": "uint256"
        },
        {
          "internalType": "uint256",
          "name": "startTime",
          "type": "uint256"
        },
        {
          "internalType": "uint256",
          "name": "endTime",
          "type": "uint256"
        },
        {
          "internalType": "uint256",
          "name": "maxStakePerUser",
          "type": "uint256"
        },
        {
          "internalType": "uint256",
          "name": "minStakeDuration",
          "type": "uint256"
        }
      ],
      "name": "createPool",
      "outputs": [
        {
          "internalType": "uint256",
          "name": "pid",
          "type": "uint256"
        }
      ],
      "stateMutability": "nonpayable",
      "type": "function"
    },
    {
      "inputs": [
        {
          "internalType": "uint256",
          "name": "pid",
          "type": "uint256"
        }
      ],
      "name": "deactivatePool",
      "outputs": [],
      "stateMutability": "nonpayable",
      "type": "function"
    },
    {
      "inputs": [
        {
          "internalType": "uint256",
          "name": "amount",
          "type": "uint256"
        }
      ],
      "name": "deployIdle",
      "outputs": [],
      "stateMutability": "nonpayable",
      "type": "function"
    },
    {
      "inputs": [
        {
          "internalType": "uint256",
          "name": "pid",
          "type": "uint256"
        }
      ],
      "name": "getPool",
      "outputs": [
        {
          "components": [
            {
              "internalType": "uint256",
              "name": "id",
              "type": "uint256"
            },
            {
              "internalType": "string",
              "name": "projectName",
              "type": "string"
            },
            {
              "internalType": "string",
              "name": "projectURL",
              "type": "string"
            },
            {
              "internalType": "address",
              "name": "stakeToken",
              "type": "address"
            },
            {
              "internalType": "address",
              "name": "rewardToken",
              "type": "address"
            },
            {
              "internalType": "address",
              "name": "projectOwner",
              "type": "address"
            },
            {
              "internalType": "uint256",
              "name": "rewardPerSecond",
              "type": "uint256"
            },
            {
              "internalType": "uint256",
              "name": "startTime",
              "type": "uint256"
            },
            {
              "internalType": "uint256",
              "name": "endTime",
              "type": "uint256"
            },
            {
              "internalType": "uint256",
              "name": "rewardBudget",
              "type": "uint256"
            },
            {
              "internalType": "uint256",
              "name": "rewardPaid",
              "type": "uint256"
            },
            {
              "internalType": "uint256",
              "name": "totalStaked",
              "type": "uint256"
            },
            {
              "internalType": "uint256",
              "name": "accRewardPerShare",
              "type": "uint256"
            },
            {
              "internalType": "uint256",
              "name": "lastRewardTime",
              "type": "uint256"
            },
            {
              "internalType": "uint256",
              "name": "maxStakePerUser",
              "type": "uint256"
            },
            {
              "internalType": "uint256",
              "name": "minStakeDuration",
              "type": "uint256"
            },
            {
              "internalType": "bool",
              "name": "active",
              "type": "bool"
            }
          ],
          "internalType": "struct WikiLaunchPool.Pool",
          "name": "",
          "type": "tuple"
        }
      ],
      "stateMutability": "view",
      "type": "function"
    },
    {
      "inputs": [
        {
          "internalType": "uint256",
          "name": "pid",
          "type": "uint256"
        },
        {
          "internalType": "address",
          "name": "user",
          "type": "address"
        }
      ],
      "name": "getUserInfo",
      "outputs": [
        {
          "components": [
            {
              "internalType": "uint256",
              "name": "staked",
              "type": "uint256"
            },
            {
              "internalType": "uint256",
              "name": "rewardDebt",
              "type": "uint256"
            },
            {
              "internalType": "uint256",
              "name": "pendingHarvest",
              "type": "uint256"
            },
            {
              "internalType": "uint256",
              "name": "stakedAt",
              "type": "uint256"
            }
          ],
          "internalType": "struct WikiLaunchPool.UserInfo",
          "name": "",
          "type": "tuple"
        }
      ],
      "stateMutability": "view",
      "type": "function"
    },
    {
      "inputs": [
        {
          "internalType": "uint256",
          "name": "pid",
          "type": "uint256"
        }
      ],
      "name": "harvest",
      "outputs": [],
      "stateMutability": "nonpayable",
      "type": "function"
    },
    {
      "inputs": [],
      "name": "idleYieldRouter",
      "outputs": [
        {
          "internalType": "contract IIdleYieldRouter",
          "name": "",
          "type": "address"
        }
      ],
      "stateMutability": "view",
      "type": "function"
    },
    {
      "inputs": [],
      "name": "owner",
      "outputs": [
        {
          "internalType": "address",
          "name": "",
          "type": "address"
        }
      ],
      "stateMutability": "view",
      "type": "function"
    },
    {
      "inputs": [],
      "name": "pendingOwner",
      "outputs": [
        {
          "internalType": "address",
          "name": "",
          "type": "address"
        }
      ],
      "stateMutability": "view",
      "type": "function"
    },
    {
      "inputs": [
        {
          "internalType": "uint256",
          "name": "pid",
          "type": "uint256"
        },
        {
          "internalType": "address",
          "name": "user",
          "type": "address"
        }
      ],
      "name": "pendingReward",
      "outputs": [
        {
          "internalType": "uint256",
          "name": "",
          "type": "uint256"
        }
      ],
      "stateMutability": "view",
      "type": "function"
    },
    {
      "inputs": [
        {
          "internalType": "uint256",
          "name": "pid",
          "type": "uint256"
        },
        {
          "internalType": "uint256",
          "name": "rewardPriceUSD",
          "type": "uint256"
        },
        {
          "internalType": "uint256",
          "name": "stakePriceUSD",
          "type": "uint256"
        }
      ],
      "name": "poolAPR",
      "outputs": [
        {
          "internalType": "uint256",
          "name": "aprBps",
          "type": "uint256"
        }
      ],
      "stateMutability": "view",
      "type": "function"
    },
    {
      "inputs": [],
      "name": "poolCount",
      "outputs": [
        {
          "internalType": "uint256",
          "name": "",
          "type": "uint256"
        }
      ],
      "stateMutability": "view",
      "type": "function"
    },
    {
      "inputs": [
        {
          "internalType": "uint256",
          "name": "",
          "type": "uint256"
        }
      ],
      "name": "pools",
      "outputs": [
        {
          "internalType": "uint256",
          "name": "id",
          "type": "uint256"
        },
        {
          "internalType": "string",
          "name": "projectName",
          "type": "string"
        },
        {
          "internalType": "string",
          "name": "projectURL",
          "type": "string"
        },
        {
          "internalType": "address",
          "name": "stakeToken",
          "type": "address"
        },
        {
          "internalType": "address",
          "name": "rewardToken",
          "type": "address"
        },
        {
          "internalType": "address",
          "name": "projectOwner",
          "type": "address"
        },
        {
          "internalType": "uint256",
          "name": "rewardPerSecond",
          "type": "uint256"
        },
        {
          "internalType": "uint256",
          "name": "startTime",
          "type": "uint256"
        },
        {
          "internalType": "uint256",
          "name": "endTime",
          "type": "uint256"
        },
        {
          "internalType": "uint256",
          "name": "rewardBudget",
          "type": "uint256"
        },
        {
          "internalType": "uint256",
          "name": "rewardPaid",
          "type": "uint256"
        },
        {
          "internalType": "uint256",
          "name": "totalStaked",
          "type": "uint256"
        },
        {
          "internalType": "uint256",
          "name": "accRewardPerShare",
          "type": "uint256"
        },
        {
          "internalType": "uint256",
          "name": "lastRewardTime",
          "type": "uint256"
        },
        {
          "internalType": "uint256",
          "name": "maxStakePerUser",
          "type": "uint256"
        },
        {
          "internalType": "uint256",
          "name": "minStakeDuration",
          "type": "uint256"
        },
        {
          "internalType": "bool",
          "name": "active",
          "type": "bool"
        }
      ],
      "stateMutability": "view",
      "type": "function"
    },
    {
      "inputs": [],
      "name": "protocolFees",
      "outputs": [
        {
          "internalType": "uint256",
          "name": "",
          "type": "uint256"
        }
      ],
      "stateMutability": "view",
      "type": "function"
    },
    {
      "inputs": [
        {
          "internalType": "uint256",
          "name": "amount",
          "type": "uint256"
        },
        {
          "internalType": "string",
          "name": "reason",
          "type": "string"
        }
      ],
      "name": "recallIdle",
      "outputs": [],
      "stateMutability": "nonpayable",
      "type": "function"
    },
    {
      "inputs": [],
      "name": "renounceOwnership",
      "outputs": [],
      "stateMutability": "nonpayable",
      "type": "function"
    },
    {
      "inputs": [
        {
          "internalType": "address",
          "name": "token",
          "type": "address"
        },
        {
          "internalType": "bool",
          "name": "allowed",
          "type": "bool"
        }
      ],
      "name": "setAllowedStakeToken",
      "outputs": [],
      "stateMutability": "nonpayable",
      "type": "function"
    },
    {
      "inputs": [
        {
          "internalType": "address",
          "name": "router",
          "type": "address"
        }
      ],
      "name": "setIdleYieldRouter",
      "outputs": [],
      "stateMutability": "nonpayable",
      "type": "function"
    },
    {
      "inputs": [
        {
          "internalType": "address",
          "name": "_tl",
          "type": "address"
        }
      ],
      "name": "setTimelock",
      "outputs": [],
      "stateMutability": "nonpayable",
      "type": "function"
    },
    {
      "inputs": [
        {
          "internalType": "uint256",
          "name": "pid",
          "type": "uint256"
        },
        {
          "internalType": "uint256",
          "name": "amount",
          "type": "uint256"
        }
      ],
      "name": "stake",
      "outputs": [],
      "stateMutability": "nonpayable",
      "type": "function"
    },
    {
      "inputs": [],
      "name": "timelock",
      "outputs": [
        {
          "internalType": "address",
          "name": "",
          "type": "address"
        }
      ],
      "stateMutability": "view",
      "type": "function"
    },
    {
      "inputs": [
        {
          "internalType": "uint256",
          "name": "pid",
          "type": "uint256"
        },
        {
          "internalType": "uint256",
          "name": "amount",
          "type": "uint256"
        }
      ],
      "name": "topUpRewards",
      "outputs": [],
      "stateMutability": "nonpayable",
      "type": "function"
    },
    {
      "inputs": [
        {
          "internalType": "address",
          "name": "newOwner",
          "type": "address"
        }
      ],
      "name": "transferOwnership",
      "outputs": [],
      "stateMutability": "nonpayable",
      "type": "function"
    },
    {
      "inputs": [
        {
          "internalType": "uint256",
          "name": "pid",
          "type": "uint256"
        },
        {
          "internalType": "uint256",
          "name": "amount",
          "type": "uint256"
        }
      ],
      "name": "unstake",
      "outputs": [],
      "stateMutability": "nonpayable",
      "type": "function"
    },
    {
      "inputs": [
        {
          "internalType": "uint256",
          "name": "",
          "type": "uint256"
        },
        {
          "internalType": "address",
          "name": "",
          "type": "address"
        }
      ],
      "name": "userInfo",
      "outputs": [
        {
          "internalType": "uint256",
          "name": "staked",
          "type": "uint256"
        },
        {
          "internalType": "uint256",
          "name": "rewardDebt",
          "type": "uint256"
        },
        {
          "internalType": "uint256",
          "name": "pendingHarvest",
          "type": "uint256"
        },
        {
          "internalType": "uint256",
          "name": "stakedAt",
          "type": "uint256"
        }
      ],
      "stateMutability": "view",
      "type": "function"
    },
    {
      "inputs": [
        {
          "internalType": "address",
          "name": "to",
          "type": "address"
        }
      ],
      "name": "withdrawProtocolFees",
      "outputs": [],
      "stateMutability": "nonpayable",
      "type": "function"
    }
  ],
  "bytecode": "0x60a03461016057601f61269a38819003918201601f19168301916001600160401b038311848410176101645780849260409485528339810103126101605761004681610178565b906001600160a01b039061005c90602001610178565b1690811561014d57600180546001600160a01b03199081169091555f80549182168417815560405193916001600160a01b0316907f8be0079c531659141344cd1fd0a4f28419497f9722a3daafe3b4186f6b6457e09080a360017f9b779b17422d0df92223018b32b4d1fa46e071723d6817e2486d003becc55f00556001600160a01b0316908115610119575060805260405161250d908161018d82396080518181816105f001528181610b510152818161112601526113700152f35b62461bcd60e51b815260206004820152600f60248201526e57696b693a207a65726f207573646360881b6044820152606490fd5b631e4fbdf760e01b5f525f60045260245ffd5b5f80fd5b634e487b7160e01b5f52604160045260245ffd5b51906001600160a01b03821682036101605756fe610100806040526004361015610013575f80fd5b5f905f3560e01c908163068bcd8d14611a94575080630aaad38d146112875780631069f3b5146111dc5780631ad8b03b146111bf5780632b86ae38146111a15780632d80caa5146110c45780633c34ab301461108757806360af4668146110325780636cb0a87a14610ee1578063715018a614610e7e57806379ba509714610df95780637b0472f014610c065780637be613ca14610bc35780637e3fef0214610b9b5780638135849814610b8057806389a3027114610b3c5780638da5cb5b14610b1557806393f1a40b14610aaf57806398969e8214610a895780639abd9b0514610a325780639e2c8a5b14610891578063aaf5eb681461086f578063ac4afa3814610705578063b58e431614610588578063bdacb30314610501578063c80bb1c0146104d4578063d33219b4146104ab578063ddc632621461031f578063e30c3978146102f6578063e6bc01a21461020c578063f2fde38b1461019f5763f525cb681461017f575f80fd5b3461019c578060031936011261019c576020600354604051908152f35b80fd5b503461019c57602036600319011261019c576101b9611d73565b6101c16122f0565b600180546001600160a01b0319166001600160a01b0392831690811790915582549091167f38d16b8cac22d99fc7c124b9cd0de2d3fa1faef420bfe791d8c362d765e227008380a380f35b503461019c57604036600319011261019c578060243567ffffffffffffffff81116102f35761023f903690600401611d2f565b82546001600160a01b0316331480156102df575b61025c90612189565b6007546001600160a01b0316918261027357505050f35b823b156102da576102ad928492836040518096819582946338d44ad560e01b84526004356004850152604060248501526044840191611f80565b03925af180156102cf576102be5750f35b816102c891611e40565b61019c5780f35b6040513d84823e3d90fd5b505050fd5b506007546001600160a01b03163314610253565b50fd5b503461019c578060031936011261019c576001546040516001600160a01b039091168152602090f35b503461019c57602036600319011261019c5760043561033c61224f565b6103458161235b565b61034f338261242e565b808252600460209081526040808420335f9081529252902060020180549190821561046d5783905561038081611d9f565b50600a8101610390848254611f02565b90556004908101546040516370a0823160e01b815230928101929092526001600160a01b0316602082602481845afa801561046257859061042a575b6103e292508085111561042257905b3390612303565b6040519182527ffae7973a4b456cb2afdf150c596368bc5c1c550500720a551fd7993bbef16bb960203393a360015f805160206124b88339815191525580f35b5083906103db565b506020823d60201161045a575b8161044460209383611e40565b81010312610456576103e291516103cc565b8480fd5b3d9150610437565b6040513d87823e3d90fd5b60405162461bcd60e51b815260206004820152601660248201527513140e881b9bdd1a1a5b99c81d1bc81a185c9d995cdd60521b6044820152606490fd5b503461019c578060031936011261019c576002546040516001600160a01b039091168152602090f35b503461019c57606036600319011261019c5760206104f96044356024356004356121c6565b604051908152f35b503461019c57602036600319011261019c5761051b611d73565b6105236122f0565b6001600160a01b0316801561054d576bffffffffffffffffffffffff60a01b600254161760025580f35b60405162461bcd60e51b815260206004820152601360248201527257696b693a207a65726f2074696d656c6f636b60681b6044820152606490fd5b50346106805760203660031901126106805760043560018060a01b035f5416331480156106f1575b6105b990612189565b6007546001600160a01b031680156106bb5760405163095ea7b360e01b81526004810191909152602481018290526020816044815f7f00000000000000000000000000000000000000000000000000000000000000006001600160a01b03165af1801561067557610684575b506007546001600160a01b031690813b15610680575f91602483926040519485938492630f6baa0f60e21b845260048401525af1801561067557610667575080f35b61067391505f90611e40565b005b6040513d5f823e3d90fd5b5f80fd5b6020813d6020116106b3575b8161069d60209383611e40565b8101031261068057518015158114610625575f80fd5b3d9150610690565b60405162461bcd60e51b815260206004820152600e60248201526d149bdd5d195c881b9bdd081cd95d60921b6044820152606490fd5b506007546001600160a01b031633146105b0565b34610680576020366003190112610680576004356003548110156106805761072c90611d9f565b50805461073b60018301611e62565b60a05261074a60028301611e62565b60e05260018060a01b0360038301541660805260018060a01b036004830154169160018060a01b036005820154166006820154600783015460088401546009850154600a86015490600b87015492600c88015494600d89015496600e8a01549860ff6010600f8d01549c0154169b60405160c05260c05152610220602060c05101526107f56107e161022060c0510160a051611d0b565b60c0518103604060c051015260e051611d0b565b9c608051606060c0510152608060c051015260a060c051015260c08051015260e060c051015261010060c051015261012060c051015261014060c051015261016060c051015261018060c05101526101a060c05101526101c060c05101526101e060c0510152151561020060c051015260c051900360c051f35b34610680575f366003190112610680576020604051670de0b6b3a76400008152f35b346106805761089f36611d89565b906108a861224f565b6108b181611d9f565b505f8281526004602090815260408083203384529091529020805484116109ed57600f82015480159081156109d5575b5015610990576109519184916108f68561235b565b610900338661242e565b61090b838254611f0f565b8155600b820161091c848254611f0f565b90556001670de0b6b3a76400006109398354600c8601549061201b565b049101556003015433906001600160a01b0316612303565b6040519182527f37375b03d8924bd8f076f11f8411b9962aa5c02fb489021507bc6bb6f850e36560203393a360015f805160206124b883398151915255005b60405162461bcd60e51b815260206004820152601860248201527f4c503a206d696e206475726174696f6e206e6f74206d657400000000000000006044820152606490fd5b6109e491506003830154611f02565b421015856108e1565b60405162461bcd60e51b815260206004820152601860248201527f4c503a20696e73756666696369656e742062616c616e636500000000000000006044820152606490fd5b3461068057602036600319011261068057600435610a4e6122f0565b6010610a5982611d9f565b5001805460ff191690557ff924dd04accfc1837d0eeddb10bc7732e2057f5d916c0b5a21e8372393b244a25f80a2005b346106805760403660031901126106805760206104f9610aa7611d5d565b60043561202e565b3461068057604036600319011261068057610ac8611d5d565b6004355f52600460205260405f209060018060a01b03165f52602052608060405f208054906001810154906003600282015491015491604051938452602084015260408301526060820152f35b34610680575f366003190112610680575f546040516001600160a01b039091168152602090f35b34610680575f366003190112610680576040517f00000000000000000000000000000000000000000000000000000000000000006001600160a01b03168152602090f35b34610680575f36600319011261068057602060405160328152f35b34610680575f366003190112610680576007546040516001600160a01b039091168152602090f35b3461068057602036600319011261068057610bdc611d73565b610be46122f0565b600780546001600160a01b0319166001600160a01b0392909216919091179055005b3461068057610c1436611d89565b90610c1d61224f565b610c2681611d9f565b505f8281526004602090815260408083203384529091529020601082015460ff1615610dc05760078201544210610d8957610c6660088301544210611fa0565b610c71841515611fdd565b600e8201548015908115610d74575b5015610d3757610cf8918491610c958561235b565b610c9f338661242e565b610caa838254611f02565b8155426003820155600b8201610cc1848254611f02565b90556001670de0b6b3a7640000610cde8354600c8601549061201b565b0491015560030154309033906001600160a01b0316612287565b6040519182527f18dcd430020e4d4899772fd94a8b40451dc5044dfb70bc46b532eeae431c864f60203393a360015f805160206124b883398151915255005b60405162461bcd60e51b81526020600482015260156024820152744c503a2065786365656473206d6178207374616b6560581b6044820152606490fd5b9050610d81858354611f02565b111585610c80565b60405162461bcd60e51b815260206004820152600f60248201526e13140e881b9bdd081cdd185c9d1959608a1b6044820152606490fd5b60405162461bcd60e51b81526020600482015260116024820152704c503a20706f6f6c20696e61637469766560781b6044820152606490fd5b34610680575f36600319011261068057600154336001600160a01b0390911603610e6b57600180546001600160a01b03199081169091555f805433928116831782556001600160a01b0316907f8be0079c531659141344cd1fd0a4f28419497f9722a3daafe3b4186f6b6457e09080a3005b63118cdaa760e01b5f523360045260245ffd5b34610680575f36600319011261068057610e966122f0565b600180546001600160a01b03199081169091555f80549182168155906001600160a01b03167f8be0079c531659141344cd1fd0a4f28419497f9722a3daafe3b4186f6b6457e08280a3005b3461068057610eef36611d89565b610ef761224f565b610f0082611d9f565b5060058101546001600160a01b03163314801561101f575b15610fe85781610fc17f1331499127d7b0108f5e36fd3fc3193539aea0c06f0c3b9b3688e2fd4491f2b6938360ff601060209601541680610fdb575b610f5d90611fa0565b610f68821515611fdd565b610f718761235b565b610f89610f8360088301544290611f0f565b83611f1c565b60098201610f98848254611f02565b9055610fa960068301918254611f02565b905560040154309033906001600160a01b0316612287565b604051908152a260015f805160206124b883398151915255005b5060088101544210610f54565b60405162461bcd60e51b815260206004820152600f60248201526e13140e881b9bdd081c1c9bda9958dd608a1b6044820152606490fd5b505f546001600160a01b03163314610f18565b346106805760403660031901126106805761104b611d73565b602435801515810361068057610673916110636122f0565b60018060a01b03165f52600660205260405f209060ff801983541691151516179055565b34610680576020366003190112610680576001600160a01b036110a8611d73565b165f526006602052602060ff60405f2054166040519015158152f35b34610680576020366003190112610680576110dd611d73565b6110e56122f0565b6110ed61224f565b60055490811561116e5760207fa087657e3d85162090ffd700fbfdf5070d816f63aa5da00063f6ffd369c8a6db915f60055561114a84827f0000000000000000000000000000000000000000000000000000000000000000612303565b6040519384526001600160a01b031692a260015f805160206124b883398151915255005b60405162461bcd60e51b815260206004820152600b60248201526a4c503a206e6f206665657360a81b6044820152606490fd5b34610680575f366003190112610680576020604051633b9aca008152f35b34610680575f366003190112610680576020600554604051908152f35b34610680576040366003190112610680576111f5611d5d565b5f606060405161120481611e24565b82815282602082015282604082015201526004355f52600460205260405f209060018060a01b03165f52602052608060405f2060405161124381611e24565b815491828252600181015460208301908152606060036002840154936040860194855201549301928352604051938452516020840152516040830152516060820152f35b34610680576101203660031901126106805760043567ffffffffffffffff8111610680576112b9903690600401611d2f565b60243567ffffffffffffffff8111610680576112d9903690600401611d2f565b90916044356001600160a01b0381168103610680576064356001600160a01b03811681036106805761130961224f565b60326003541015611a5f576001600160a01b0382165f9081526006602052604090205460ff1615611a1a576001600160a01b038116156119dd574260a435106119a4576201518060a435018060a435116118de5760c435111561196a5760843515611933577f00000000000000000000000000000000000000000000000000000000000000006040516323b872dd60e01b5f523360045230602452633b9aca0060445260205f60648180865af19060015f5114821615611912575b6040525f606052156118f25750600554633b9aca0081018091116118de576005556113fe6113f660a43560c435611f0f565b608435611f1c565b61142c600354966040519661141288611e07565b88885261142036888c611f3a565b60208901523691611f3a565b60408601526001600160a01b038381166060870152821660808601523360a086015260c085015260a43560e0850181905260c4356101008601526084356101208601525f610140860181905261016086018190526101808601526101a085015260e4356101c0850152610104356101e08501526001610200850152680100000000000000008510156117ef57600185016003556114c885611d9f565b6118cb5784518155602085015180519067ffffffffffffffff82116117ef5781906114f66001850154611dcf565b601f811161187b575b50602090601f831160011461180e575f92611803575b50508160011b915f199060031b1c19161760018201555b604085015180519067ffffffffffffffff82116117ef576115506002840154611dcf565b601f81116117ab575b50918795939160209995938a90601f831160011461170f577f3e2717971a8555db7d73153b0928822c16b9416010e1be2aef9df4907a261ab89899836116949594601094610200945f92611704575b50508160011b915f199060031b1c19161760028501555b60608101516003850180546001600160a01b039283166001600160a01b031991821617909155608083015160048701805491841691831691909117905560a083015160058701805491909316911617905560c0810151600685015560e0810151600785015561010081015160088501556101208101516009850155610140810151600a850155610160810151600b850155610180810151600c8501556101a0810151600d8501556101c0810151600e8501556101e0810151600f85015501519101805460ff191691151560ff16919091179055565b6116ab60843530336001600160a01b038516612287565b6116c260405194859460a0865260a0860191611f80565b6001600160a01b03928316848a01529116604083015260a435606083015260c43560808301520390a260015f805160206124b883398151915255604051908152f35b015190508f806115a8565b6002849a93929a015f52895f20905f5b601f1984168110611791575092600183610200937f3e2717971a8555db7d73153b0928822c16b9416010e1be2aef9df4907a261ab89c9d6116949897601097601f19811610611779575b505050811b0160028501556115bf565b01515f1960f88460031b161c191690558f8080611769565b818c015183559a8d019a8c9a506001909201918d0161171f565b600284015f5260205f20601f840160051c8101602085106117e8575b601f830160051c820181106117dd575050611559565b5f81556001016117c7565b50806117c7565b634e487b7160e01b5f52604160045260245ffd5b015190508980611515565b9250600184015f52805f20905f935b601f1984168510611860576001945083601f19811610611848575b505050811b01600182015561152c565b01515f1960f88460031b161c19169055898080611838565b8181015183556020948501946001909301929091019061181d565b909150600184015f5260205f20601f840160051c8101602085106118c4575b90849392915b601f830160051c820181106118b65750506114ff565b5f81558594506001016118a0565b508061189a565b634e487b7160e01b5f525f60045260245ffd5b634e487b7160e01b5f52601160045260245ffd5b635274afe760e01b5f9081526001600160a01b0391909116600452602490fd5b90600181151661192a57823b15153d151616906113c4565b503d5f823e3d90fd5b60405162461bcd60e51b815260206004820152600f60248201526e13140e881e995c9bc8189d5919d95d608a1b6044820152606490fd5b60405162461bcd60e51b815260206004820152601260248201527113140e881c1bdbdb081d1bdbc81cda1bdc9d60721b6044820152606490fd5b60405162461bcd60e51b815260206004820152601160248201527013140e881cdd185c9d081a5b881c185cdd607a1b6044820152606490fd5b60405162461bcd60e51b815260206004820152601560248201527426281d103d32b937903932bbb0b932103a37b5b2b760591b6044820152606490fd5b60405162461bcd60e51b815260206004820152601b60248201527f4c503a207374616b6520746f6b656e206e6f7420616c6c6f77656400000000006044820152606490fd5b60405162461bcd60e51b815260206004820152600d60248201526c4c503a206d617820706f6f6c7360981b6044820152606490fd5b346106805760203660031901126106805761020081611ab35f93611e07565b82815260606020820152606060408201528260608201528260808201528260a08201528260c08201528260e08201528261010082015282610120820152826101408201528261016082015282610180820152826101a0820152826101c0820152826101e08201520152611b27600435611d9f565b5060ff601060405192611b3984611e07565b80548452611b4960018201611e62565b6020850152611b5a60028201611e62565b604085015260018060a01b03600382015416606085015260018060a01b03600482015416608085015260018060a01b0360058201541660a0850152600681015460c0850152600781015460e085015260088101546101008501526009810154610120850152600a810154610140850152600b810154610160850152600c810154610180850152600d8101546101a0850152600e8101546101c0850152600f8101546101e0850152015416151561020082015260405180916020825280516020830152610200611c53611c3d60208401516102206040870152610240860190611d0b565b6040840151858203601f19016060870152611d0b565b9160018060a01b03606082015116608085015260018060a01b0360808201511660a085015260018060a01b0360a08201511660c085015260c081015160e085015260e08101516101008501526101008101516101208501526101208101516101408501526101408101516101608501526101608101516101808501526101808101516101a08501526101a08101516101c08501526101c08101516101e08501526101e081015182850152015115156102208301520390f35b805180835260209291819084018484015e5f828201840152601f01601f1916010190565b9181601f840112156106805782359167ffffffffffffffff8311610680576020838186019501011161068057565b602435906001600160a01b038216820361068057565b600435906001600160a01b038216820361068057565b6040906003190112610680576004359060243590565b600354811015611dbb5760035f52601160205f20910201905f90565b634e487b7160e01b5f52603260045260245ffd5b90600182811c92168015611dfd575b6020831014611de957565b634e487b7160e01b5f52602260045260245ffd5b91607f1691611dde565b610220810190811067ffffffffffffffff8211176117ef57604052565b6080810190811067ffffffffffffffff8211176117ef57604052565b90601f8019910116810190811067ffffffffffffffff8211176117ef57604052565b9060405191825f825492611e7584611dcf565b8084529360018116908115611ee05750600114611e9c575b50611e9a92500383611e40565b565b90505f9291925260205f20905f915b818310611ec4575050906020611e9a928201015f611e8d565b6020919350806001915483858901015201910190918492611eab565b905060209250611e9a94915060ff191682840152151560051b8201015f611e8d565b919082018092116118de57565b919082039182116118de57565b8115611f26570490565b634e487b7160e01b5f52601260045260245ffd5b92919267ffffffffffffffff82116117ef5760405191611f64601f8201601f191660200184611e40565b829481845281830111610680578281602093845f960137010152565b908060209392818452848401375f828201840152601f01601f1916010190565b15611fa757565b60405162461bcd60e51b815260206004820152600e60248201526d13140e881c1bdbdb08195b99195960921b6044820152606490fd5b15611fe457565b60405162461bcd60e51b815260206004820152600f60248201526e13140e881e995c9bc8185b5bdd5b9d608a1b6044820152606490fd5b818102929181159184041417156118de57565b9061203882611d9f565b50915f52600460205260405f209060018060a01b03165f5260205260405f20805491821561217f57600c8101549060088101548042105f1461217a5750425b600d820154908181118061216d575b6120d3575b5050506120a4670de0b6b3a7640000916120c79461201b565b04600160028301549201548082115f146120ca576120c191611f0f565b90611f02565b90565b50505f90611f02565b6120eb916120e091611f0f565b60068301549061201b565b936009820154600a8301548082115f146121655761210891611f0f565b80861161215d575b50670de0b6b3a7640000850294808604670de0b6b3a764000014901517156118de57612154670de0b6b3a7640000936120c16120c797600b6120a496015490611f1c565b9281955061208b565b94505f612110565b50505f612108565b50600b8301541515612086565b612077565b5060029150015490565b1561219057565b60405162461bcd60e51b815260206004820152600e60248201526d139bdd08185d5d1a1bdc9a5e995960921b6044820152606490fd5b6121cf90611d9f565b5091600b8301549283158015612247575b61223f5760060154906301e133808202918083046301e1338014901517156118de57670de0b6b3a764000061221981946122209461201b565b049361201b565b0461271082029180830461271014901517156118de576120c791611f1c565b505050505f90565b5081156121e0565b60025f805160206124b883398151915254146122785760025f805160206124b883398151915255565b633ee5aeb560e01b5f5260045ffd5b6040516323b872dd60e01b5f9081526001600160a01b039384166004529290931660245260449390935260209060648180865af19060015f51148216156122d8575b6040525f606052156118f25750565b90600181151661192a57823b15153d151616906122c9565b5f546001600160a01b03163303610e6b57565b916040519163a9059cbb60e01b5f5260018060a01b031660045260245260205f60448180865af19060015f5114821615612343575b604052156118f25750565b90600181151661192a57823b15153d15161690612338565b61236490611d9f565b5060088101548042105f14612428575042905b600d810190815483111561242357600b810154801561241e576123a961239e845486611f0f565b60068401549061201b565b906009830154600a8401548082115f14612416576123c691611f0f565b80831161240e575b50670de0b6b3a7640000820291808304670de0b6b3a764000014901517156118de576123ff600c9161240993611f1c565b9201918254611f02565b905555565b91505f6123ce565b50505f6123c6565b505055565b505050565b90612377565b9061243882611d9f565b50915f52600460205260405f209060018060a01b03165f5260205260405f2090815490811561242357670de0b6b3a764000091600c61249992018361247e82548461201b565b04946001810195865480821161249e575b505050549061201b565b049055565b6123ff6002916124ad93611f0f565b90555f808061248f56fe9b779b17422d0df92223018b32b4d1fa46e071723d6817e2486d003becc55f00a2646970667358221220701122df3e73f26ad0fb1e5027902dba05b10c98425fcedd881449210fb1d43e64736f6c634300081a0033",
  "linkReferences": {},
  "deployedLinkReferences": {}
}