{
  "_format": "hh-sol-artifact-1",
  "contractName": "WikiKeeperService",
  "sourceName": "src/WikiKeeperService.sol",
  "abi": [
    {
      "inputs": [
        {
          "internalType": "address",
          "name": "usdc",
          "type": "address"
        },
        {
          "internalType": "address",
          "name": "owner",
          "type": "address"
        }
      ],
      "stateMutability": "nonpayable",
      "type": "constructor"
    },
    {
      "inputs": [
        {
          "internalType": "address",
          "name": "owner",
          "type": "address"
        }
      ],
      "name": "OwnableInvalidOwner",
      "type": "error"
    },
    {
      "inputs": [
        {
          "internalType": "address",
          "name": "account",
          "type": "address"
        }
      ],
      "name": "OwnableUnauthorizedAccount",
      "type": "error"
    },
    {
      "inputs": [],
      "name": "ReentrancyGuardReentrantCall",
      "type": "error"
    },
    {
      "inputs": [
        {
          "internalType": "address",
          "name": "token",
          "type": "address"
        }
      ],
      "name": "SafeERC20FailedOperation",
      "type": "error"
    },
    {
      "anonymous": false,
      "inputs": [
        {
          "indexed": true,
          "internalType": "uint256",
          "name": "clientId",
          "type": "uint256"
        },
        {
          "indexed": false,
          "internalType": "address",
          "name": "owner",
          "type": "address"
        },
        {
          "indexed": false,
          "internalType": "string",
          "name": "name",
          "type": "string"
        },
        {
          "indexed": false,
          "internalType": "enum WikiKeeperService.Tier",
          "name": "tier",
          "type": "uint8"
        }
      ],
      "name": "ClientRegistered",
      "type": "event"
    },
    {
      "anonymous": false,
      "inputs": [
        {
          "indexed": true,
          "internalType": "uint256",
          "name": "clientId",
          "type": "uint256"
        },
        {
          "indexed": false,
          "internalType": "address",
          "name": "target",
          "type": "address"
        },
        {
          "indexed": false,
          "internalType": "address",
          "name": "executor",
          "type": "address"
        },
        {
          "indexed": false,
          "internalType": "bool",
          "name": "success",
          "type": "bool"
        }
      ],
      "name": "ExecutionRecorded",
      "type": "event"
    },
    {
      "anonymous": false,
      "inputs": [
        {
          "indexed": true,
          "internalType": "address",
          "name": "keeper",
          "type": "address"
        },
        {
          "indexed": false,
          "internalType": "uint256",
          "name": "amount",
          "type": "uint256"
        }
      ],
      "name": "KeeperRewarded",
      "type": "event"
    },
    {
      "anonymous": false,
      "inputs": [
        {
          "indexed": true,
          "internalType": "address",
          "name": "previousOwner",
          "type": "address"
        },
        {
          "indexed": true,
          "internalType": "address",
          "name": "newOwner",
          "type": "address"
        }
      ],
      "name": "OwnershipTransferStarted",
      "type": "event"
    },
    {
      "anonymous": false,
      "inputs": [
        {
          "indexed": true,
          "internalType": "address",
          "name": "previousOwner",
          "type": "address"
        },
        {
          "indexed": true,
          "internalType": "address",
          "name": "newOwner",
          "type": "address"
        }
      ],
      "name": "OwnershipTransferred",
      "type": "event"
    },
    {
      "anonymous": false,
      "inputs": [
        {
          "indexed": false,
          "internalType": "address",
          "name": "to",
          "type": "address"
        },
        {
          "indexed": false,
          "internalType": "uint256",
          "name": "amount",
          "type": "uint256"
        }
      ],
      "name": "ProtocolFeesWithdrawn",
      "type": "event"
    },
    {
      "anonymous": false,
      "inputs": [
        {
          "indexed": true,
          "internalType": "uint256",
          "name": "clientId",
          "type": "uint256"
        },
        {
          "indexed": false,
          "internalType": "enum WikiKeeperService.Tier",
          "name": "tier",
          "type": "uint8"
        },
        {
          "indexed": false,
          "internalType": "uint256",
          "name": "paidUntil",
          "type": "uint256"
        },
        {
          "indexed": false,
          "internalType": "uint256",
          "name": "amount",
          "type": "uint256"
        }
      ],
      "name": "SubscriptionRenewed",
      "type": "event"
    },
    {
      "inputs": [],
      "name": "BPS",
      "outputs": [
        {
          "internalType": "uint256",
          "name": "",
          "type": "uint256"
        }
      ],
      "stateMutability": "view",
      "type": "function"
    },
    {
      "inputs": [],
      "name": "KEEPER_SHARE_BPS",
      "outputs": [
        {
          "internalType": "uint256",
          "name": "",
          "type": "uint256"
        }
      ],
      "stateMutability": "view",
      "type": "function"
    },
    {
      "inputs": [],
      "name": "PRICE_BASIC",
      "outputs": [
        {
          "internalType": "uint256",
          "name": "",
          "type": "uint256"
        }
      ],
      "stateMutability": "view",
      "type": "function"
    },
    {
      "inputs": [],
      "name": "PRICE_ENTERPRISE",
      "outputs": [
        {
          "internalType": "uint256",
          "name": "",
          "type": "uint256"
        }
      ],
      "stateMutability": "view",
      "type": "function"
    },
    {
      "inputs": [],
      "name": "PRICE_PRO",
      "outputs": [
        {
          "internalType": "uint256",
          "name": "",
          "type": "uint256"
        }
      ],
      "stateMutability": "view",
      "type": "function"
    },
    {
      "inputs": [],
      "name": "PROTOCOL_SHARE",
      "outputs": [
        {
          "internalType": "uint256",
          "name": "",
          "type": "uint256"
        }
      ],
      "stateMutability": "view",
      "type": "function"
    },
    {
      "inputs": [],
      "name": "USDC",
      "outputs": [
        {
          "internalType": "contract IERC20",
          "name": "",
          "type": "address"
        }
      ],
      "stateMutability": "view",
      "type": "function"
    },
    {
      "inputs": [],
      "name": "acceptOwnership",
      "outputs": [],
      "stateMutability": "nonpayable",
      "type": "function"
    },
    {
      "inputs": [],
      "name": "clientCount",
      "outputs": [
        {
          "internalType": "uint256",
          "name": "",
          "type": "uint256"
        }
      ],
      "stateMutability": "view",
      "type": "function"
    },
    {
      "inputs": [
        {
          "internalType": "uint256",
          "name": "",
          "type": "uint256"
        }
      ],
      "name": "clients",
      "outputs": [
        {
          "internalType": "address",
          "name": "owner",
          "type": "address"
        },
        {
          "internalType": "string",
          "name": "name",
          "type": "string"
        },
        {
          "internalType": "string",
          "name": "website",
          "type": "string"
        },
        {
          "internalType": "enum WikiKeeperService.Tier",
          "name": "tier",
          "type": "uint8"
        },
        {
          "internalType": "uint256",
          "name": "paidUntil",
          "type": "uint256"
        },
        {
          "internalType": "uint256",
          "name": "executionsToday",
          "type": "uint256"
        },
        {
          "internalType": "uint256",
          "name": "lastExecutionReset",
          "type": "uint256"
        },
        {
          "internalType": "uint256",
          "name": "totalExecutions",
          "type": "uint256"
        },
        {
          "internalType": "uint256",
          "name": "totalPaid",
          "type": "uint256"
        },
        {
          "internalType": "bool",
          "name": "active",
          "type": "bool"
        }
      ],
      "stateMutability": "view",
      "type": "function"
    },
    {
      "inputs": [
        {
          "internalType": "uint256",
          "name": "clientId",
          "type": "uint256"
        }
      ],
      "name": "deactivateClient",
      "outputs": [],
      "stateMutability": "nonpayable",
      "type": "function"
    },
    {
      "inputs": [
        {
          "internalType": "uint256",
          "name": "",
          "type": "uint256"
        }
      ],
      "name": "executions",
      "outputs": [
        {
          "internalType": "uint256",
          "name": "clientId",
          "type": "uint256"
        },
        {
          "internalType": "address",
          "name": "target",
          "type": "address"
        },
        {
          "internalType": "bytes4",
          "name": "selector",
          "type": "bytes4"
        },
        {
          "internalType": "address",
          "name": "executor",
          "type": "address"
        },
        {
          "internalType": "uint256",
          "name": "gasUsed",
          "type": "uint256"
        },
        {
          "internalType": "bool",
          "name": "success",
          "type": "bool"
        },
        {
          "internalType": "uint256",
          "name": "timestamp",
          "type": "uint256"
        }
      ],
      "stateMutability": "view",
      "type": "function"
    },
    {
      "inputs": [
        {
          "internalType": "uint256",
          "name": "clientId",
          "type": "uint256"
        }
      ],
      "name": "getClient",
      "outputs": [
        {
          "components": [
            {
              "internalType": "address",
              "name": "owner",
              "type": "address"
            },
            {
              "internalType": "string",
              "name": "name",
              "type": "string"
            },
            {
              "internalType": "string",
              "name": "website",
              "type": "string"
            },
            {
              "internalType": "enum WikiKeeperService.Tier",
              "name": "tier",
              "type": "uint8"
            },
            {
              "internalType": "uint256",
              "name": "paidUntil",
              "type": "uint256"
            },
            {
              "internalType": "uint256",
              "name": "executionsToday",
              "type": "uint256"
            },
            {
              "internalType": "uint256",
              "name": "lastExecutionReset",
              "type": "uint256"
            },
            {
              "internalType": "uint256",
              "name": "totalExecutions",
              "type": "uint256"
            },
            {
              "internalType": "uint256",
              "name": "totalPaid",
              "type": "uint256"
            },
            {
              "internalType": "bool",
              "name": "active",
              "type": "bool"
            }
          ],
          "internalType": "struct WikiKeeperService.Client",
          "name": "",
          "type": "tuple"
        }
      ],
      "stateMutability": "view",
      "type": "function"
    },
    {
      "inputs": [
        {
          "internalType": "uint256",
          "name": "limit",
          "type": "uint256"
        }
      ],
      "name": "getRecentExecutions",
      "outputs": [
        {
          "components": [
            {
              "internalType": "uint256",
              "name": "clientId",
              "type": "uint256"
            },
            {
              "internalType": "address",
              "name": "target",
              "type": "address"
            },
            {
              "internalType": "bytes4",
              "name": "selector",
              "type": "bytes4"
            },
            {
              "internalType": "address",
              "name": "executor",
              "type": "address"
            },
            {
              "internalType": "uint256",
              "name": "gasUsed",
              "type": "uint256"
            },
            {
              "internalType": "bool",
              "name": "success",
              "type": "bool"
            },
            {
              "internalType": "uint256",
              "name": "timestamp",
              "type": "uint256"
            }
          ],
          "internalType": "struct WikiKeeperService.Execution[]",
          "name": "out",
          "type": "tuple[]"
        }
      ],
      "stateMutability": "view",
      "type": "function"
    },
    {
      "inputs": [
        {
          "internalType": "uint256",
          "name": "clientId",
          "type": "uint256"
        }
      ],
      "name": "isSubscriptionActive",
      "outputs": [
        {
          "internalType": "bool",
          "name": "",
          "type": "bool"
        }
      ],
      "stateMutability": "view",
      "type": "function"
    },
    {
      "inputs": [],
      "name": "keeperRewardPool",
      "outputs": [
        {
          "internalType": "uint256",
          "name": "",
          "type": "uint256"
        }
      ],
      "stateMutability": "view",
      "type": "function"
    },
    {
      "inputs": [
        {
          "internalType": "address",
          "name": "",
          "type": "address"
        }
      ],
      "name": "keepers",
      "outputs": [
        {
          "internalType": "bool",
          "name": "",
          "type": "bool"
        }
      ],
      "stateMutability": "view",
      "type": "function"
    },
    {
      "inputs": [],
      "name": "monthlyRunRate",
      "outputs": [
        {
          "internalType": "uint256",
          "name": "",
          "type": "uint256"
        }
      ],
      "stateMutability": "view",
      "type": "function"
    },
    {
      "inputs": [],
      "name": "owner",
      "outputs": [
        {
          "internalType": "address",
          "name": "",
          "type": "address"
        }
      ],
      "stateMutability": "view",
      "type": "function"
    },
    {
      "inputs": [],
      "name": "pendingOwner",
      "outputs": [
        {
          "internalType": "address",
          "name": "",
          "type": "address"
        }
      ],
      "stateMutability": "view",
      "type": "function"
    },
    {
      "inputs": [],
      "name": "protocolRevenue",
      "outputs": [
        {
          "internalType": "uint256",
          "name": "",
          "type": "uint256"
        }
      ],
      "stateMutability": "view",
      "type": "function"
    },
    {
      "inputs": [
        {
          "internalType": "uint256",
          "name": "clientId",
          "type": "uint256"
        },
        {
          "internalType": "address",
          "name": "target",
          "type": "address"
        },
        {
          "internalType": "bytes4",
          "name": "selector",
          "type": "bytes4"
        },
        {
          "internalType": "bool",
          "name": "success",
          "type": "bool"
        },
        {
          "internalType": "uint256",
          "name": "gasUsed",
          "type": "uint256"
        }
      ],
      "name": "recordExecution",
      "outputs": [],
      "stateMutability": "nonpayable",
      "type": "function"
    },
    {
      "inputs": [
        {
          "internalType": "string",
          "name": "name",
          "type": "string"
        },
        {
          "internalType": "string",
          "name": "website",
          "type": "string"
        },
        {
          "internalType": "enum WikiKeeperService.Tier",
          "name": "tier",
          "type": "uint8"
        }
      ],
      "name": "register",
      "outputs": [
        {
          "internalType": "uint256",
          "name": "clientId",
          "type": "uint256"
        }
      ],
      "stateMutability": "nonpayable",
      "type": "function"
    },
    {
      "inputs": [
        {
          "internalType": "uint256",
          "name": "clientId",
          "type": "uint256"
        },
        {
          "internalType": "enum WikiKeeperService.Tier",
          "name": "newTier",
          "type": "uint8"
        }
      ],
      "name": "renewSubscription",
      "outputs": [],
      "stateMutability": "nonpayable",
      "type": "function"
    },
    {
      "inputs": [],
      "name": "renounceOwnership",
      "outputs": [],
      "stateMutability": "nonpayable",
      "type": "function"
    },
    {
      "inputs": [
        {
          "internalType": "address",
          "name": "keeper",
          "type": "address"
        },
        {
          "internalType": "bool",
          "name": "enabled",
          "type": "bool"
        }
      ],
      "name": "setKeeper",
      "outputs": [],
      "stateMutability": "nonpayable",
      "type": "function"
    },
    {
      "inputs": [
        {
          "internalType": "address",
          "name": "_tl",
          "type": "address"
        }
      ],
      "name": "setTimelock",
      "outputs": [],
      "stateMutability": "nonpayable",
      "type": "function"
    },
    {
      "inputs": [],
      "name": "timelock",
      "outputs": [
        {
          "internalType": "address",
          "name": "",
          "type": "address"
        }
      ],
      "stateMutability": "view",
      "type": "function"
    },
    {
      "inputs": [],
      "name": "totalRevenue",
      "outputs": [
        {
          "internalType": "uint256",
          "name": "",
          "type": "uint256"
        }
      ],
      "stateMutability": "view",
      "type": "function"
    },
    {
      "inputs": [
        {
          "internalType": "address",
          "name": "newOwner",
          "type": "address"
        }
      ],
      "name": "transferOwnership",
      "outputs": [],
      "stateMutability": "nonpayable",
      "type": "function"
    },
    {
      "inputs": [
        {
          "internalType": "address",
          "name": "to",
          "type": "address"
        }
      ],
      "name": "withdrawProtocolRevenue",
      "outputs": [],
      "stateMutability": "nonpayable",
      "type": "function"
    }
  ],
  "bytecode": "0x60a03461016757601f611d2238819003918201601f19168301916001600160401b0383118484101761016b578084926040948552833981010312610167576100468161017f565b906001600160a01b039061005c9060200161017f565b1690811561015457600180546001600160a01b03199081169091555f80549182168417815560405193916001600160a01b0316907f8be0079c531659141344cd1fd0a4f28419497f9722a3daafe3b4186f6b6457e09080a360017f9b779b17422d0df92223018b32b4d1fa46e071723d6817e2486d003becc55f00556001600160a01b03169081156101205750608052604051611b8e9081610194823960805181818161078801528181610c1d01528181610da70152818161115b01526115d00152f35b62461bcd60e51b815260206004820152600f60248201526e57696b693a207a65726f207573646360881b6044820152606490fd5b631e4fbdf760e01b5f525f60045260245ffd5b5f80fd5b634e487b7160e01b5f52604160045260245ffd5b51906001600160a01b03821682036101675756fe6080806040526004361015610012575f80fd5b5f3560e01c90816308a3fa2c1461170f5750806319d8b3871461157b57806321a55c1814611549578063249d39e91461152d5780633bbd64bc146114f0578063490b5be51461130e578063497fa5dd14610f2557806351adc76114610f0957806357e2c0f514610ec15780635d0b420714610d6f578063715018a614610d0c57806379ba509714610c875780637af3816c14610c6a5780637c3bc86e14610c4c57806389a3027114610c085780638da5cb5b14610be1578063a715977a14610bc4578063b3f90e0a1461070d578063b597393e146106ef578063bdacb30314610668578063bf2d9e0b1461064b578063cc91dc13146105ca578063d0068f8014610439578063d1b9e853146103e2578063d33219b4146103ba578063db3ec3bc1461039b578063e30c397814610373578063e541c71e14610356578063f2fde38b146102e4578063f76c9229146102535763f88af21d14610171575f80fd5b3461024f57602036600319011261024f5760043560035481101561024f5761019a6020916117ce565b5080546001600160a01b0316906101b36001820161187d565b6101bf6002830161187d565b9160ff600382015416926004820154600583015460068401549161022961021e60078701549561021060ff600960088b01549a015416996101406040519e8f9e8f90815201526101408d019061176d565b908b820360408d015261176d565b9760608a0190611791565b608088015260a087015260c086015260e085015261010084015215156101208301520390f35b5f80fd5b3461024f57602036600319011261024f5760043560045481101561024f5761027c60e09161179e565b5080549060018101549060018060a01b03600282015416600382015490600560ff6004850154169301549360405195865260018060a01b038116602087015263ffffffff871b9060401b16604086015260608501526080840152151560a083015260c0820152f35b3461024f57602036600319011261024f576102fd611729565b610305611afd565b60018060a01b0316806bffffffffffffffffffffffff60a01b600154161760015560018060a01b035f54167f38d16b8cac22d99fc7c124b9cd0de2d3fa1faef420bfe791d8c362d765e227005f80a3005b3461024f575f36600319011261024f576020600354604051908152f35b3461024f575f36600319011261024f576001546040516001600160a01b039091168152602090f35b3461024f575f36600319011261024f57602060405164012a05f2008152f35b3461024f575f36600319011261024f576002546040516001600160a01b039091168152602090f35b3461024f57604036600319011261024f576103fb611729565b602435801515810361024f5761043791610413611afd565b60018060a01b03165f52600560205260405f209060ff801983541691151516179055565b005b3461024f57602036600319011261024f575f61012060405161045a8161183e565b82815260606020820152606060408201528260608201528260808201528260a08201528260c08201528260e0820152826101008201520152604061049f6004356117ce565b508151906104ac8261183e565b80546001600160a01b031682526104c56001820161187d565b91602081019283526104d96002830161187d565b9184820192835260ff600382015416926104f76060840194856119cf565b600482015460808401908152600583015460a0850190815260068401549160c0860192835261059d61059160078701549560e0890196875261057e60ff600960088b01549a6101008d019b8c520154169961012081019a15158b526101408e519e8f9e8f936020855260018060a01b039051166020850152519201526101608d019061176d565b90518b8203601f190160608d015261176d565b975160808a0190611791565b5160a08801525160c08701525160e086015251610100850152516101208401525115156101408301520390f35b3461024f575f36600319011261024f575f80600354905b8181106105f357602083604051908152f35b6105fc816117ce565b5060ff6009820154168061063d575b610619575b506001016105e1565b6001919361063060ff600361063694015416611a13565b90611935565b9290610610565b50600481015442111561060b565b3461024f575f36600319011261024f576020600854604051908152f35b3461024f57602036600319011261024f57610681611729565b610689611afd565b6001600160a01b031680156106b4576bffffffffffffffffffffffff60a01b60025416176002555f80f35b60405162461bcd60e51b815260206004820152601360248201527257696b693a207a65726f2074696d656c6f636b60681b6044820152606490fd5b3461024f575f36600319011261024f5760206040516359682f008152f35b3461024f57606036600319011261024f5760043567ffffffffffffffff811161024f5761073e90369060040161173f565b9060243567ffffffffffffffff811161024f5761075f90369060040161173f565b909260443590600382101561024f576107766119db565b61077f82611a13565b916107ac8330337f0000000000000000000000000000000000000000000000000000000000000000611a43565b6107b583611aac565b6003549462278d00420191824211610bb0576107f4604051986107d78a61183e565b338a526107e5368786611989565b9760208b019889523691611989565b9260408901938452606089019161080b81846119cf565b60808a0191825260a08a01915f835260c08b019342855260e08c01965f88526101008d01998a526101208d019a60018c52600160401b8d1015610acb5760018d016003556108588d6117ce565b9e909e610b9d57518e546001600160a01b0319166001600160a01b0391909116178e5551805160018f019167ffffffffffffffff8211610acb57819061089e84546117ea565b601f8111610b4d575b50602090601f8311600114610aea575f92610adf575b50508160011b915f199060031b1c19161790555b51805160028e019167ffffffffffffffff8211610acb5781906108f484546117ea565b601f8111610a7b575b50602090601f8311600114610a18575f92610a0d575b50508160011b915f199060031b1c19161790555b519a60038c10156109f95760098b9a7f91f6d045242b4f2fd1e35125f347cd9f300f531d3b3e7e25ef362c5e18391f1c9a60809960209f986109d3986109a9976109758f9c60038a0161191d565b51600488015551600587015551600686015551600785015551600884015551151591019060ff801983541691151516179055565b60405195869433865260608c870152816060870152868601375f8584860101526040840190611791565b601f01601f19168101030190a260015f80516020611b3983398151915255604051908152f35b634e487b7160e01b5f52602160045260245ffd5b015190508f80610913565b5f8581528281209350601f198516905b818110610a635750908460019594939210610a4b575b505050811b019055610927565b01515f1960f88460031b161c191690558f8080610a3e565b92936020600181928786015181550195019301610a28565b909150835f5260205f20601f840160051c81019160208510610ac1575b90601f859493920160051c01905b818110610ab357506108fd565b5f8155849350600101610aa6565b9091508190610a98565b634e487b7160e01b5f52604160045260245ffd5b015190505f806108bd565b5f8581528281209350601f198516905b818110610b355750908460019594939210610b1d575b505050811b0190556108d1565b01515f1960f88460031b161c191690555f8080610b10565b92936020600181928786015181550195019301610afa565b909150835f5260205f20601f840160051c81019160208510610b93575b90601f859493920160051c01905b818110610b8557506108a7565b5f8155849350600101610b78565b9091508190610b6a565b634e487b7160e01b5f525f60045260245ffd5b634e487b7160e01b5f52601160045260245ffd5b3461024f575f36600319011261024f576020600654604051908152f35b3461024f575f36600319011261024f575f546040516001600160a01b039091168152602090f35b3461024f575f36600319011261024f576040517f00000000000000000000000000000000000000000000000000000000000000006001600160a01b03168152602090f35b3461024f575f36600319011261024f576020604051631dcd65008152f35b3461024f575f36600319011261024f576020600754604051908152f35b3461024f575f36600319011261024f57600154336001600160a01b0390911603610cf957600180546001600160a01b03199081169091555f805433928116831782556001600160a01b0316907f8be0079c531659141344cd1fd0a4f28419497f9722a3daafe3b4186f6b6457e09080a3005b63118cdaa760e01b5f523360045260245ffd5b3461024f575f36600319011261024f57610d24611afd565b600180546001600160a01b03199081169091555f80549182168155906001600160a01b03167f8be0079c531659141344cd1fd0a4f28419497f9722a3daafe3b4186f6b6457e08280a3005b3461024f57602036600319011261024f57610d88611729565b610d90611afd565b610d986119db565b6007548015610e89575f6007557f00000000000000000000000000000000000000000000000000000000000000006040519263a9059cbb60e01b5f5260018060a01b031692836004528260245260205f60448180865af19060015f5114821615610e68575b60405215610e48577fa087657e3d85162090ffd700fbfdf5070d816f63aa5da00063f6ffd369c8a6db6040848482519182526020820152a160015f80516020611b3983398151915255005b635274afe760e01b5f9081526001600160a01b0391909116600452602490fd5b906001811516610e8057823b15153d15161690610dfd565b503d5f823e3d90fd5b60405162461bcd60e51b815260206004820152601060248201526f4b6161533a206e6f20726576656e756560801b6044820152606490fd5b3461024f57602036600319011261024f576020610edf6004356117ce565b5060ff6009820154169081610efa575b506040519015158152f35b60049150015442111582610eef565b3461024f575f36600319011261024f576020604051610bb88152f35b3461024f5760a036600319011261024f576004356024356001600160a01b0381169081900361024f5760443563ffffffff60e01b811680910361024f576064358015159182820361024f57610f786119db565b335f52600560205260ff60405f205416156112d657610f96856117ce565b5060ff600982015416806112c8575b1561128357600681018054620151808101809111610bb057421015611274575b50610fd660ff600383015416611b10565b906005810180549283101561122f57610ff060079361197b565b905501610ffd815461197b565b90556040519061100c82611822565b858252602082019185835260408101918252606081019033825260808101608435815260a082019087825260c0830193428552600454600160401b811015610acb5780600161105e920160045561179e565b979097610b9d57935187559251600187018054965163ffffffff60a01b60409190911c166001600160a01b039283166001600160c01b031990981697909717969096179095559151600286018054919095166001600160a01b031990911617909355516003840155905160048301805460ff191691151560ff169190911790556005905191015560065490620186a08210159081611227575b50611148575b507fa43445bbbece5e6f8e650a27b4ecb1b416d4dd0ef89e386664bb6c5f15cdb079916060916040519182523360208301526040820152a260015f80516020611b3983398151915255005b6201869f198101908111610bb0576006557f000000000000000000000000000000000000000000000000000000000000000060405163a9059cbb60e01b5f5233600452620186a060245260205f60448180865af19060015f511482161561120f575b60405215610e4857507fa43445bbbece5e6f8e650a27b4ecb1b416d4dd0ef89e386664bb6c5f15cdb07991606091604051620186a081527fa580017b40329841439c48706c338a7113c2b5547abf99307b2d4e8d369cb81d60203392a29150916110fd565b906001811516610e8057823b15153d151616906111aa565b9050856110f7565b60405162461bcd60e51b815260206004820152601960248201527f4b6161533a206461696c79206c696d69742072656163686564000000000000006044820152606490fd5b5f600583015542905586610fc5565b60405162461bcd60e51b815260206004820152601a60248201527f4b6161533a20737562736372697074696f6e20657870697265640000000000006044820152606490fd5b506004810154421115610fa5565b60405162461bcd60e51b815260206004820152601060248201526f25b0b0a99d103737ba1035b2b2b832b960811b6044820152606490fd5b3461024f57602036600319011261024f57600480549035818110156114e957905b61133882611942565b91611346604051938461185b565b808352601f1961135582611942565b015f5b8181106114a85750505f5b81811061140657836040518091602082016020835281518091526020604084019201905f5b818110611396575050500390f35b91935091602060e060019260c0875180518352858060a01b0385820151168584015263ffffffff841b6040820151166040840152858060a01b0360608201511660608401526080810151608084015260a0810151151560a0840152015160c0820152019401910191849392611388565b8061142461141f60019361141a868861195a565b611935565b61179e565b5060056040519161143483611822565b8054835284810154858060a01b038116602085015263ffffffff60e01b9060401b166040840152848060a01b0360028201541660608401526003810154608084015260ff600482015416151560a0840152015460c08201526114968287611967565b526114a18186611967565b5001611363565b6020906040516114b781611822565b5f81525f838201525f60408201525f60608201525f60808201525f60a08201525f60c082015282828801015201611358565b508061132f565b3461024f57602036600319011261024f576001600160a01b03611511611729565b165f526005602052602060ff60405f2054166040519015158152f35b3461024f575f36600319011261024f5760206040516127108152f35b3461024f57602036600319011261024f57611562611afd565b600961156f6004356117ce565b5001805460ff19169055005b3461024f57604036600319011261024f57600435602435600381101561024f576115a36119db565b6115ac826117ce565b5080546001600160a01b031633036116d8576115c782611a13565b916115f48330337f0000000000000000000000000000000000000000000000000000000000000000611a43565b6115fd83611aac565b61160a816003840161191d565b600482019283548042115f1461169c575062278d00420193844211610bb05760096060947f8c81a0719707d285299a87efac4e6d6d724061e5159b8094026b3f0c85e2c8c49680935b5560088101611663858254611935565b905501600160ff1982541617905561167e6040518094611791565b60208301526040820152a260015f80516020611b3983398151915255005b9362278d008501809511610bb05760096060947f8c81a0719707d285299a87efac4e6d6d724061e5159b8094026b3f0c85e2c8c4968093611653565b60405162461bcd60e51b815260206004820152600f60248201526e25b0b0a99d103737ba1037bbb732b960891b6044820152606490fd5b3461024f575f36600319011261024f5780611b5860209252f35b600435906001600160a01b038216820361024f57565b9181601f8401121561024f5782359167ffffffffffffffff831161024f576020838186019501011161024f57565b805180835260209291819084018484015e5f828201840152601f01601f1916010190565b9060038210156109f95752565b6004548110156117ba5760045f52600660205f20910201905f90565b634e487b7160e01b5f52603260045260245ffd5b6003548110156117ba5760035f52600a60205f20910201905f90565b90600182811c92168015611818575b602083101461180457565b634e487b7160e01b5f52602260045260245ffd5b91607f16916117f9565b60e0810190811067ffffffffffffffff821117610acb57604052565b610140810190811067ffffffffffffffff821117610acb57604052565b90601f8019910116810190811067ffffffffffffffff821117610acb57604052565b9060405191825f825492611890846117ea565b80845293600181169081156118fb57506001146118b7575b506118b59250038361185b565b565b90505f9291925260205f20905f915b8183106118df5750509060206118b5928201015f6118a8565b60209193508060019154838589010152019101909184926118c6565b9050602092506118b594915060ff191682840152151560051b8201015f6118a8565b9060038110156109f95760ff80198354169116179055565b91908201809211610bb057565b67ffffffffffffffff8111610acb5760051b60200190565b91908203918211610bb057565b80518210156117ba5760209160051b010190565b5f198114610bb05760010190565b92919267ffffffffffffffff8211610acb57604051916119b3601f8201601f19166020018461185b565b82948184528183011161024f578281602093845f960137010152565b60038210156109f95752565b60025f80516020611b398339815191525414611a045760025f80516020611b3983398151915255565b633ee5aeb560e01b5f5260045ffd5b60038110156109f9578015611a3a57600114611a325764012a05f20090565b6359682f0090565b50631dcd650090565b6040516323b872dd60e01b5f9081526001600160a01b039384166004529290931660245260449390935260209060648180865af19060015f5114821615611a94575b6040525f60605215610e485750565b906001811516610e8057823b15153d15161690611a85565b611b58810290808204611b581481151715610bb057611aed612710611af89304611ae2611ad9828561195a565b91600654611935565b600655600754611935565b600755600854611935565b600855565b5f546001600160a01b03163303610cf957565b60038110156109f9578015611b3157600114611b2b575f1990565b61138890565b506103e89056fe9b779b17422d0df92223018b32b4d1fa46e071723d6817e2486d003becc55f00a26469706673582212205d3278fee85bb6c11747eeb55095acdb73dbac5ecc8783ab957a5c76687bc35364736f6c634300081a0033",
  "linkReferences": {},
  "deployedLinkReferences": {}
}