{
  "_format": "hh-sol-artifact-1",
  "contractName": "WikiMarketRegistry",
  "sourceName": "src/WikiMarketRegistry.sol",
  "abi": [
    {
      "inputs": [
        {
          "internalType": "address",
          "name": "owner",
          "type": "address"
        }
      ],
      "stateMutability": "nonpayable",
      "type": "constructor"
    },
    {
      "inputs": [
        {
          "internalType": "address",
          "name": "owner",
          "type": "address"
        }
      ],
      "name": "OwnableInvalidOwner",
      "type": "error"
    },
    {
      "inputs": [
        {
          "internalType": "address",
          "name": "account",
          "type": "address"
        }
      ],
      "name": "OwnableUnauthorizedAccount",
      "type": "error"
    },
    {
      "anonymous": false,
      "inputs": [
        {
          "indexed": true,
          "internalType": "uint256",
          "name": "id",
          "type": "uint256"
        },
        {
          "indexed": false,
          "internalType": "string",
          "name": "symbol",
          "type": "string"
        },
        {
          "indexed": false,
          "internalType": "uint8",
          "name": "category",
          "type": "uint8"
        }
      ],
      "name": "MarketAdded",
      "type": "event"
    },
    {
      "anonymous": false,
      "inputs": [
        {
          "indexed": true,
          "internalType": "uint256",
          "name": "id",
          "type": "uint256"
        },
        {
          "indexed": false,
          "internalType": "string",
          "name": "symbol",
          "type": "string"
        }
      ],
      "name": "MarketPaused",
      "type": "event"
    },
    {
      "anonymous": false,
      "inputs": [
        {
          "indexed": true,
          "internalType": "uint256",
          "name": "id",
          "type": "uint256"
        },
        {
          "indexed": false,
          "internalType": "string",
          "name": "symbol",
          "type": "string"
        }
      ],
      "name": "MarketResumed",
      "type": "event"
    },
    {
      "anonymous": false,
      "inputs": [
        {
          "indexed": true,
          "internalType": "uint256",
          "name": "id",
          "type": "uint256"
        },
        {
          "indexed": false,
          "internalType": "string",
          "name": "symbol",
          "type": "string"
        }
      ],
      "name": "MarketUpdated",
      "type": "event"
    },
    {
      "anonymous": false,
      "inputs": [
        {
          "indexed": true,
          "internalType": "address",
          "name": "previousOwner",
          "type": "address"
        },
        {
          "indexed": true,
          "internalType": "address",
          "name": "newOwner",
          "type": "address"
        }
      ],
      "name": "OwnershipTransferStarted",
      "type": "event"
    },
    {
      "anonymous": false,
      "inputs": [
        {
          "indexed": true,
          "internalType": "address",
          "name": "previousOwner",
          "type": "address"
        },
        {
          "indexed": true,
          "internalType": "address",
          "name": "newOwner",
          "type": "address"
        }
      ],
      "name": "OwnershipTransferred",
      "type": "event"
    },
    {
      "inputs": [],
      "name": "CAT_COMMODITIES",
      "outputs": [
        {
          "internalType": "uint8",
          "name": "",
          "type": "uint8"
        }
      ],
      "stateMutability": "view",
      "type": "function"
    },
    {
      "inputs": [],
      "name": "CAT_CRYPTO",
      "outputs": [
        {
          "internalType": "uint8",
          "name": "",
          "type": "uint8"
        }
      ],
      "stateMutability": "view",
      "type": "function"
    },
    {
      "inputs": [],
      "name": "CAT_FOREX_EXOTIC",
      "outputs": [
        {
          "internalType": "uint8",
          "name": "",
          "type": "uint8"
        }
      ],
      "stateMutability": "view",
      "type": "function"
    },
    {
      "inputs": [],
      "name": "CAT_FOREX_MAJOR",
      "outputs": [
        {
          "internalType": "uint8",
          "name": "",
          "type": "uint8"
        }
      ],
      "stateMutability": "view",
      "type": "function"
    },
    {
      "inputs": [],
      "name": "CAT_FOREX_MINOR",
      "outputs": [
        {
          "internalType": "uint8",
          "name": "",
          "type": "uint8"
        }
      ],
      "stateMutability": "view",
      "type": "function"
    },
    {
      "inputs": [],
      "name": "CAT_METALS",
      "outputs": [
        {
          "internalType": "uint8",
          "name": "",
          "type": "uint8"
        }
      ],
      "stateMutability": "view",
      "type": "function"
    },
    {
      "inputs": [],
      "name": "MAX_BATCH_ADD",
      "outputs": [
        {
          "internalType": "uint256",
          "name": "",
          "type": "uint256"
        }
      ],
      "stateMutability": "view",
      "type": "function"
    },
    {
      "inputs": [],
      "name": "SRC_CHAINLINK",
      "outputs": [
        {
          "internalType": "uint8",
          "name": "",
          "type": "uint8"
        }
      ],
      "stateMutability": "view",
      "type": "function"
    },
    {
      "inputs": [],
      "name": "SRC_DERIVED",
      "outputs": [
        {
          "internalType": "uint8",
          "name": "",
          "type": "uint8"
        }
      ],
      "stateMutability": "view",
      "type": "function"
    },
    {
      "inputs": [],
      "name": "SRC_GUARDIAN",
      "outputs": [
        {
          "internalType": "uint8",
          "name": "",
          "type": "uint8"
        }
      ],
      "stateMutability": "view",
      "type": "function"
    },
    {
      "inputs": [],
      "name": "SRC_PYTH",
      "outputs": [
        {
          "internalType": "uint8",
          "name": "",
          "type": "uint8"
        }
      ],
      "stateMutability": "view",
      "type": "function"
    },
    {
      "inputs": [],
      "name": "acceptOwnership",
      "outputs": [],
      "stateMutability": "nonpayable",
      "type": "function"
    },
    {
      "inputs": [
        {
          "internalType": "uint256",
          "name": "",
          "type": "uint256"
        }
      ],
      "name": "activeMarketIds",
      "outputs": [
        {
          "internalType": "uint256",
          "name": "",
          "type": "uint256"
        }
      ],
      "stateMutability": "view",
      "type": "function"
    },
    {
      "inputs": [
        {
          "internalType": "string",
          "name": "symbol",
          "type": "string"
        },
        {
          "internalType": "string",
          "name": "baseAsset",
          "type": "string"
        },
        {
          "internalType": "string",
          "name": "quoteAsset",
          "type": "string"
        },
        {
          "internalType": "uint8",
          "name": "category",
          "type": "uint8"
        },
        {
          "internalType": "uint8",
          "name": "oracleSource",
          "type": "uint8"
        },
        {
          "internalType": "address",
          "name": "oracleFeed",
          "type": "address"
        },
        {
          "internalType": "bytes32",
          "name": "pythPriceId",
          "type": "bytes32"
        },
        {
          "internalType": "uint256",
          "name": "baseMarketId",
          "type": "uint256"
        },
        {
          "internalType": "uint256",
          "name": "quoteMarketId",
          "type": "uint256"
        },
        {
          "internalType": "uint256",
          "name": "maxLeverageBps",
          "type": "uint256"
        },
        {
          "internalType": "uint256",
          "name": "maintenanceMarginBps",
          "type": "uint256"
        },
        {
          "internalType": "uint256",
          "name": "takerFeeBps",
          "type": "uint256"
        },
        {
          "internalType": "uint256",
          "name": "makerFeeBps",
          "type": "uint256"
        },
        {
          "internalType": "uint256",
          "name": "maxOILong",
          "type": "uint256"
        },
        {
          "internalType": "uint256",
          "name": "maxOIShort",
          "type": "uint256"
        },
        {
          "internalType": "uint256",
          "name": "minPositionSize",
          "type": "uint256"
        },
        {
          "internalType": "uint256",
          "name": "maxPositionSize",
          "type": "uint256"
        },
        {
          "internalType": "uint256",
          "name": "spreadBps",
          "type": "uint256"
        },
        {
          "internalType": "uint256",
          "name": "offHoursSpreadBps",
          "type": "uint256"
        },
        {
          "internalType": "uint256",
          "name": "pricePrecision",
          "type": "uint256"
        }
      ],
      "name": "addMarket",
      "outputs": [],
      "stateMutability": "nonpayable",
      "type": "function"
    },
    {
      "inputs": [
        {
          "components": [
            {
              "internalType": "string",
              "name": "symbol",
              "type": "string"
            },
            {
              "internalType": "string",
              "name": "base",
              "type": "string"
            },
            {
              "internalType": "string",
              "name": "quote",
              "type": "string"
            },
            {
              "internalType": "uint8",
              "name": "category",
              "type": "uint8"
            },
            {
              "internalType": "uint8",
              "name": "oracleSrc",
              "type": "uint8"
            },
            {
              "internalType": "address",
              "name": "feed",
              "type": "address"
            },
            {
              "internalType": "bytes32",
              "name": "pythId",
              "type": "bytes32"
            },
            {
              "internalType": "uint256",
              "name": "baseM",
              "type": "uint256"
            },
            {
              "internalType": "uint256",
              "name": "quoteM",
              "type": "uint256"
            },
            {
              "internalType": "uint256",
              "name": "maxLev",
              "type": "uint256"
            },
            {
              "internalType": "uint256",
              "name": "maint",
              "type": "uint256"
            },
            {
              "internalType": "uint256",
              "name": "taker",
              "type": "uint256"
            },
            {
              "internalType": "uint256",
              "name": "maker",
              "type": "uint256"
            },
            {
              "internalType": "uint256",
              "name": "oiL",
              "type": "uint256"
            },
            {
              "internalType": "uint256",
              "name": "oiS",
              "type": "uint256"
            },
            {
              "internalType": "uint256",
              "name": "minP",
              "type": "uint256"
            },
            {
              "internalType": "uint256",
              "name": "maxP",
              "type": "uint256"
            },
            {
              "internalType": "uint256",
              "name": "spread",
              "type": "uint256"
            },
            {
              "internalType": "uint256",
              "name": "offH",
              "type": "uint256"
            },
            {
              "internalType": "uint256",
              "name": "prec",
              "type": "uint256"
            }
          ],
          "internalType": "struct WikiMarketRegistry.MarketInput",
          "name": "inp",
          "type": "tuple"
        }
      ],
      "name": "addMarket",
      "outputs": [],
      "stateMutability": "nonpayable",
      "type": "function"
    },
    {
      "inputs": [
        {
          "components": [
            {
              "internalType": "string",
              "name": "symbol",
              "type": "string"
            },
            {
              "internalType": "string",
              "name": "base",
              "type": "string"
            },
            {
              "internalType": "string",
              "name": "quote",
              "type": "string"
            },
            {
              "internalType": "uint8",
              "name": "category",
              "type": "uint8"
            },
            {
              "internalType": "uint8",
              "name": "oracleSrc",
              "type": "uint8"
            },
            {
              "internalType": "address",
              "name": "feed",
              "type": "address"
            },
            {
              "internalType": "bytes32",
              "name": "pythId",
              "type": "bytes32"
            },
            {
              "internalType": "uint256",
              "name": "baseM",
              "type": "uint256"
            },
            {
              "internalType": "uint256",
              "name": "quoteM",
              "type": "uint256"
            },
            {
              "internalType": "uint256",
              "name": "maxLev",
              "type": "uint256"
            },
            {
              "internalType": "uint256",
              "name": "maint",
              "type": "uint256"
            },
            {
              "internalType": "uint256",
              "name": "taker",
              "type": "uint256"
            },
            {
              "internalType": "uint256",
              "name": "maker",
              "type": "uint256"
            },
            {
              "internalType": "uint256",
              "name": "oiL",
              "type": "uint256"
            },
            {
              "internalType": "uint256",
              "name": "oiS",
              "type": "uint256"
            },
            {
              "internalType": "uint256",
              "name": "minP",
              "type": "uint256"
            },
            {
              "internalType": "uint256",
              "name": "maxP",
              "type": "uint256"
            },
            {
              "internalType": "uint256",
              "name": "spread",
              "type": "uint256"
            },
            {
              "internalType": "uint256",
              "name": "offH",
              "type": "uint256"
            },
            {
              "internalType": "uint256",
              "name": "prec",
              "type": "uint256"
            }
          ],
          "internalType": "struct WikiMarketRegistry.MarketInput[]",
          "name": "batch",
          "type": "tuple[]"
        }
      ],
      "name": "addMarkets",
      "outputs": [],
      "stateMutability": "nonpayable",
      "type": "function"
    },
    {
      "inputs": [
        {
          "internalType": "uint256",
          "name": "id",
          "type": "uint256"
        }
      ],
      "name": "deactivateMarket",
      "outputs": [],
      "stateMutability": "nonpayable",
      "type": "function"
    },
    {
      "inputs": [],
      "name": "getAllMarkets",
      "outputs": [
        {
          "internalType": "uint256[]",
          "name": "",
          "type": "uint256[]"
        }
      ],
      "stateMutability": "view",
      "type": "function"
    },
    {
      "inputs": [
        {
          "internalType": "uint256",
          "name": "id",
          "type": "uint256"
        }
      ],
      "name": "getMarket",
      "outputs": [
        {
          "components": [
            {
              "internalType": "uint256",
              "name": "id",
              "type": "uint256"
            },
            {
              "internalType": "string",
              "name": "symbol",
              "type": "string"
            },
            {
              "internalType": "string",
              "name": "baseAsset",
              "type": "string"
            },
            {
              "internalType": "string",
              "name": "quoteAsset",
              "type": "string"
            },
            {
              "internalType": "uint8",
              "name": "category",
              "type": "uint8"
            },
            {
              "internalType": "uint8",
              "name": "oracleSource",
              "type": "uint8"
            },
            {
              "internalType": "address",
              "name": "oracleFeed",
              "type": "address"
            },
            {
              "internalType": "bytes32",
              "name": "pythPriceId",
              "type": "bytes32"
            },
            {
              "internalType": "uint256",
              "name": "baseMarketId",
              "type": "uint256"
            },
            {
              "internalType": "uint256",
              "name": "quoteMarketId",
              "type": "uint256"
            },
            {
              "internalType": "uint256",
              "name": "maxLeverageBps",
              "type": "uint256"
            },
            {
              "internalType": "uint256",
              "name": "maintenanceMarginBps",
              "type": "uint256"
            },
            {
              "internalType": "uint256",
              "name": "takerFeeBps",
              "type": "uint256"
            },
            {
              "internalType": "uint256",
              "name": "makerFeeBps",
              "type": "uint256"
            },
            {
              "internalType": "uint256",
              "name": "maxOILong",
              "type": "uint256"
            },
            {
              "internalType": "uint256",
              "name": "maxOIShort",
              "type": "uint256"
            },
            {
              "internalType": "uint256",
              "name": "minPositionSize",
              "type": "uint256"
            },
            {
              "internalType": "uint256",
              "name": "maxPositionSize",
              "type": "uint256"
            },
            {
              "internalType": "uint256",
              "name": "spreadBps",
              "type": "uint256"
            },
            {
              "internalType": "uint256",
              "name": "offHoursSpreadBps",
              "type": "uint256"
            },
            {
              "internalType": "bool",
              "name": "active",
              "type": "bool"
            },
            {
              "internalType": "bool",
              "name": "reduceOnly",
              "type": "bool"
            },
            {
              "internalType": "uint256",
              "name": "pricePrecision",
              "type": "uint256"
            }
          ],
          "internalType": "struct WikiMarketRegistry.Market",
          "name": "",
          "type": "tuple"
        }
      ],
      "stateMutability": "view",
      "type": "function"
    },
    {
      "inputs": [
        {
          "internalType": "string",
          "name": "s",
          "type": "string"
        }
      ],
      "name": "getMarketBySymbol",
      "outputs": [
        {
          "components": [
            {
              "internalType": "uint256",
              "name": "id",
              "type": "uint256"
            },
            {
              "internalType": "string",
              "name": "symbol",
              "type": "string"
            },
            {
              "internalType": "string",
              "name": "baseAsset",
              "type": "string"
            },
            {
              "internalType": "string",
              "name": "quoteAsset",
              "type": "string"
            },
            {
              "internalType": "uint8",
              "name": "category",
              "type": "uint8"
            },
            {
              "internalType": "uint8",
              "name": "oracleSource",
              "type": "uint8"
            },
            {
              "internalType": "address",
              "name": "oracleFeed",
              "type": "address"
            },
            {
              "internalType": "bytes32",
              "name": "pythPriceId",
              "type": "bytes32"
            },
            {
              "internalType": "uint256",
              "name": "baseMarketId",
              "type": "uint256"
            },
            {
              "internalType": "uint256",
              "name": "quoteMarketId",
              "type": "uint256"
            },
            {
              "internalType": "uint256",
              "name": "maxLeverageBps",
              "type": "uint256"
            },
            {
              "internalType": "uint256",
              "name": "maintenanceMarginBps",
              "type": "uint256"
            },
            {
              "internalType": "uint256",
              "name": "takerFeeBps",
              "type": "uint256"
            },
            {
              "internalType": "uint256",
              "name": "makerFeeBps",
              "type": "uint256"
            },
            {
              "internalType": "uint256",
              "name": "maxOILong",
              "type": "uint256"
            },
            {
              "internalType": "uint256",
              "name": "maxOIShort",
              "type": "uint256"
            },
            {
              "internalType": "uint256",
              "name": "minPositionSize",
              "type": "uint256"
            },
            {
              "internalType": "uint256",
              "name": "maxPositionSize",
              "type": "uint256"
            },
            {
              "internalType": "uint256",
              "name": "spreadBps",
              "type": "uint256"
            },
            {
              "internalType": "uint256",
              "name": "offHoursSpreadBps",
              "type": "uint256"
            },
            {
              "internalType": "bool",
              "name": "active",
              "type": "bool"
            },
            {
              "internalType": "bool",
              "name": "reduceOnly",
              "type": "bool"
            },
            {
              "internalType": "uint256",
              "name": "pricePrecision",
              "type": "uint256"
            }
          ],
          "internalType": "struct WikiMarketRegistry.Market",
          "name": "",
          "type": "tuple"
        }
      ],
      "stateMutability": "view",
      "type": "function"
    },
    {
      "inputs": [
        {
          "internalType": "uint8",
          "name": "category",
          "type": "uint8"
        }
      ],
      "name": "getMarketsByCategory",
      "outputs": [
        {
          "internalType": "uint256[]",
          "name": "",
          "type": "uint256[]"
        }
      ],
      "stateMutability": "view",
      "type": "function"
    },
    {
      "inputs": [
        {
          "internalType": "uint256",
          "name": "id",
          "type": "uint256"
        }
      ],
      "name": "isActive",
      "outputs": [
        {
          "internalType": "bool",
          "name": "",
          "type": "bool"
        }
      ],
      "stateMutability": "view",
      "type": "function"
    },
    {
      "inputs": [
        {
          "internalType": "uint256",
          "name": "",
          "type": "uint256"
        }
      ],
      "name": "markets",
      "outputs": [
        {
          "internalType": "uint256",
          "name": "id",
          "type": "uint256"
        },
        {
          "internalType": "string",
          "name": "symbol",
          "type": "string"
        },
        {
          "internalType": "string",
          "name": "baseAsset",
          "type": "string"
        },
        {
          "internalType": "string",
          "name": "quoteAsset",
          "type": "string"
        },
        {
          "internalType": "uint8",
          "name": "category",
          "type": "uint8"
        },
        {
          "internalType": "uint8",
          "name": "oracleSource",
          "type": "uint8"
        },
        {
          "internalType": "address",
          "name": "oracleFeed",
          "type": "address"
        },
        {
          "internalType": "bytes32",
          "name": "pythPriceId",
          "type": "bytes32"
        },
        {
          "internalType": "uint256",
          "name": "baseMarketId",
          "type": "uint256"
        },
        {
          "internalType": "uint256",
          "name": "quoteMarketId",
          "type": "uint256"
        },
        {
          "internalType": "uint256",
          "name": "maxLeverageBps",
          "type": "uint256"
        },
        {
          "internalType": "uint256",
          "name": "maintenanceMarginBps",
          "type": "uint256"
        },
        {
          "internalType": "uint256",
          "name": "takerFeeBps",
          "type": "uint256"
        },
        {
          "internalType": "uint256",
          "name": "makerFeeBps",
          "type": "uint256"
        },
        {
          "internalType": "uint256",
          "name": "maxOILong",
          "type": "uint256"
        },
        {
          "internalType": "uint256",
          "name": "maxOIShort",
          "type": "uint256"
        },
        {
          "internalType": "uint256",
          "name": "minPositionSize",
          "type": "uint256"
        },
        {
          "internalType": "uint256",
          "name": "maxPositionSize",
          "type": "uint256"
        },
        {
          "internalType": "uint256",
          "name": "spreadBps",
          "type": "uint256"
        },
        {
          "internalType": "uint256",
          "name": "offHoursSpreadBps",
          "type": "uint256"
        },
        {
          "internalType": "bool",
          "name": "active",
          "type": "bool"
        },
        {
          "internalType": "bool",
          "name": "reduceOnly",
          "type": "bool"
        },
        {
          "internalType": "uint256",
          "name": "pricePrecision",
          "type": "uint256"
        }
      ],
      "stateMutability": "view",
      "type": "function"
    },
    {
      "inputs": [
        {
          "internalType": "uint256",
          "name": "id",
          "type": "uint256"
        }
      ],
      "name": "maxLeverage",
      "outputs": [
        {
          "internalType": "uint256",
          "name": "",
          "type": "uint256"
        }
      ],
      "stateMutability": "view",
      "type": "function"
    },
    {
      "inputs": [],
      "name": "owner",
      "outputs": [
        {
          "internalType": "address",
          "name": "",
          "type": "address"
        }
      ],
      "stateMutability": "view",
      "type": "function"
    },
    {
      "inputs": [
        {
          "internalType": "uint256",
          "name": "id",
          "type": "uint256"
        }
      ],
      "name": "pauseMarket",
      "outputs": [],
      "stateMutability": "nonpayable",
      "type": "function"
    },
    {
      "inputs": [],
      "name": "pendingOwner",
      "outputs": [
        {
          "internalType": "address",
          "name": "",
          "type": "address"
        }
      ],
      "stateMutability": "view",
      "type": "function"
    },
    {
      "inputs": [],
      "name": "renounceOwnership",
      "outputs": [],
      "stateMutability": "nonpayable",
      "type": "function"
    },
    {
      "inputs": [
        {
          "internalType": "uint256",
          "name": "id",
          "type": "uint256"
        }
      ],
      "name": "resumeMarket",
      "outputs": [],
      "stateMutability": "nonpayable",
      "type": "function"
    },
    {
      "inputs": [
        {
          "internalType": "string",
          "name": "",
          "type": "string"
        }
      ],
      "name": "symbolToId",
      "outputs": [
        {
          "internalType": "uint256",
          "name": "",
          "type": "uint256"
        }
      ],
      "stateMutability": "view",
      "type": "function"
    },
    {
      "inputs": [],
      "name": "totalMarkets",
      "outputs": [
        {
          "internalType": "uint256",
          "name": "",
          "type": "uint256"
        }
      ],
      "stateMutability": "view",
      "type": "function"
    },
    {
      "inputs": [
        {
          "internalType": "address",
          "name": "newOwner",
          "type": "address"
        }
      ],
      "name": "transferOwnership",
      "outputs": [],
      "stateMutability": "nonpayable",
      "type": "function"
    },
    {
      "inputs": [
        {
          "internalType": "uint256",
          "name": "id",
          "type": "uint256"
        },
        {
          "internalType": "uint256",
          "name": "taker",
          "type": "uint256"
        },
        {
          "internalType": "uint256",
          "name": "maker",
          "type": "uint256"
        }
      ],
      "name": "updateFees",
      "outputs": [],
      "stateMutability": "nonpayable",
      "type": "function"
    },
    {
      "inputs": [
        {
          "internalType": "uint256",
          "name": "id",
          "type": "uint256"
        },
        {
          "internalType": "uint256",
          "name": "maxL",
          "type": "uint256"
        },
        {
          "internalType": "uint256",
          "name": "maxS",
          "type": "uint256"
        }
      ],
      "name": "updateOILimits",
      "outputs": [],
      "stateMutability": "nonpayable",
      "type": "function"
    },
    {
      "inputs": [
        {
          "internalType": "uint256",
          "name": "id",
          "type": "uint256"
        },
        {
          "internalType": "uint8",
          "name": "src",
          "type": "uint8"
        },
        {
          "internalType": "address",
          "name": "feed",
          "type": "address"
        },
        {
          "internalType": "bytes32",
          "name": "pythId",
          "type": "bytes32"
        }
      ],
      "name": "updateOracle",
      "outputs": [],
      "stateMutability": "nonpayable",
      "type": "function"
    },
    {
      "inputs": [
        {
          "internalType": "uint256",
          "name": "id",
          "type": "uint256"
        },
        {
          "internalType": "uint256",
          "name": "spread",
          "type": "uint256"
        },
        {
          "internalType": "uint256",
          "name": "offH",
          "type": "uint256"
        }
      ],
      "name": "updateSpread",
      "outputs": [],
      "stateMutability": "nonpayable",
      "type": "function"
    }
  ],
  "bytecode": "0x60803460c157601f611ce138819003918201601f19168301916001600160401b0383118484101760c55780849260209460405283398101031260c157516001600160a01b0381169081900360c157801560ae57600180546001600160a01b03199081169091555f8054918216831781556001600160a01b03909116907f8be0079c531659141344cd1fd0a4f28419497f9722a3daafe3b4186f6b6457e09080a3604051611c0790816100da8239f35b631e4fbdf760e01b5f525f60045260245ffd5b5f80fd5b634e487b7160e01b5f52604160045260245ffdfe6101606040526004361015610012575f80fd5b5f3560e01c806316c6e681146110035780631e05575414610fca5780632242908514610fcf5780632d38377914610fca5780632f54f85214610f5c57806336ce9e2e14610e3d578063508058cf14610e3857806352491ee614610dbf578063700a451b14610d6a578063715018a614610d0757806378b2829d14610cd357806379ba509714610c4e5780637c4fc09014610b995780638162486b14610b7c57806382afd23b14610b4a5780638da5cb5b14610b235780639254182b14610b0857806394c4bc69146106d45780639e8f2cb61461048f578063a890385914610980578063b0772d0b14610900578063b1283e77146106d9578063b15f7764146106d4578063b54d632a1461059e578063ba16028814610583578063c8f5e28b1461054d578063c9a8c2a314610515578063cc9e7139146104e5578063cd3904d414610494578063d08ade5d1461048f578063dd7d34221461045b578063e30c397814610433578063eb44fdd3146102b5578063f2fde38b14610242578063f3f2cc80146102275763fc12524c146101a6575f80fd5b34610223576020366003190112610223576004356101c261166a565b5f8181526002602090815260409182902060128101805461ffff191661010017905591518181527ff321577882d856bcbcd6b32660c2bfd249db59803f63a57faf5e34ba3831ac48929091829161021e9183019060010161138d565b0390a2005b5f80fd5b34610223575f36600319011261022357602060405160058152f35b34610223576020366003190112610223576004356001600160a01b038116908190036102235761027061166a565b600180546001600160a01b031916821790555f80546001600160a01b0316907f38d16b8cac22d99fc7c124b9cd0de2d3fa1faef420bfe791d8c362d765e227009080a3005b34610223576020366003190112610223576102ce611426565b506004355f52600260205261042f60405f206013604051916102ef836111ea565b8054835260405161030e81610307816001860161138d565b0382611236565b602084015260405161032781610307816002860161138d565b604084015260405161034081610307816003860161138d565b6060840152600481015460ff8082166080860152600882811c821660a0870152601092831c6001600160a01b031660c0870152600584015460e087015260068401546101008701526007840154610120870152808401546101408701526009840154610160870152600a840154610180870152600b8401546101a0870152600c8401546101c0870152600d8401546101e0870152600e840154610200870152600f8401546102208701529183015461024086015260118301546102608601526012830154808216151561028087015290911c1615156102a084015201546102c0820152604051918291826110a4565b0390f35b34610223575f366003190112610223576001546040516001600160a01b039091168152602090f35b346102235761046936611039565b919061047361166a565b5f91825260026020526040909120601081019190915560110155005b611302565b34610223576020366003190112610223576004356001600160401b038111610223576102806003198236030112610223576104de6104e3916104d461166a565b36906004016114cd565b61167d565b005b34610223576020366003190112610223576004355f52600260205260206064600860405f20015404604051908152f35b34610223576020366003190112610223576004356004548110156102235761053e60209161140e565b90549060031b1c604051908152f35b346102235760203660031901126102235761056661166a565b6004355f908152600260205260409020601201805460ff19169055005b34610223575f36600319011261022357602060405160328152f35b346102235760203660031901126102235760043560ff8116809103610223576004545f91825b82811061068f57506105d583611653565b926105e36040519485611236565b8084526105f2601f1991611653565b013660208501375f905f5b838110610612576040518061042f878261131c565b61061b8161140e565b90549060031b1c5f5260026020528160ff600460405f2001541614610643575b6001016105fd565b9161064d8361140e565b90549060031b1c9261065e82611631565b93865183101561067b57602060019360051b88010152905061063b565b634e487b7160e01b5f52603260045260245ffd5b6106988161140e565b90549060031b1c5f5260026020528160ff600460405f20015416146106c0575b6001016105c4565b926106cc600191611631565b9390506106b8565b6112e7565b34610223576020366003190112610223576004355f52600260205260405f2080549060405161012052610120516101205160018301906107189161138d565b03610120519061072791611236565b60405161014081905261073d816002840161138d565b03610140519061074c91611236565b604051918261075e816003850161138d565b036107699084611236565b6004820154610100526005820154926006830154600784015460088501546009860154600a87015490600b88015492600c89015494600d8a015496600e8b015498600f8c01549a60108d01549c6011810154608052601281015460a0526013015460e05260405160c05260c0515260c0516020016102e0905260c0516102e00161012051906107f791611080565b60c051810360c05160400152610140519061081191611080565b60c051810360c0516060015261082691611080565b9b6101005160ff1660c051608001526101005160081c60ff1660c05160a00152600160a01b600190036101005160101c1660c05160c0015260c05160e0015260c051610100015260c051610120015260c051610140015260c051610160015260c051610180015260c0516101a0015260c0516101c0015260c0516101e0015260c051610200015260c051610220015260c051610240015260805160c051610260015260a05160ff16151560c051610280015260a05160081c60ff16151560c0516102a0015260e05160c0516102c0015260c051900360c051f35b34610223575f3660031901126102235760405180602060045491828152019060045f527f8a35acfbc15ff81a39ae7d344fd709f28e8600b4aa8c65c6b64bfe7fe36bd19b905f5b81811061096a5761042f8561095e81870382611236565b6040519182918261131c565b8254845260209093019260019283019201610947565b3461022357610280366003190112610223576004356001600160401b038111610223576109b1903690600401611053565b6024356001600160401b038111610223576109d0903690600401611053565b6044939193356001600160401b038111610223576109f2903690600401611053565b916064359160ff8316809303610223576084359360ff85168095036102235760a4356001600160a01b0381169690879003610223576104e398610a6794610a52610a5b93610a3e61166a565b6040519b610a4b8d61121a565b3691611257565b8a523691611257565b60208801523691611257565b60408501526060840152608083015260a082015260c43560c082015260e43560e082015261010435610100820152610124356101208201526101443561014082015261016435610160820152610184356101808201526101a4356101a08201526101c4356101c08201526101e4356101e08201526102043561020082015261022435610220820152610244356102408201526102643561026082015261167d565b34610223575f36600319011261022357602060405160048152f35b34610223575f366003190112610223575f546040516001600160a01b039091168152602090f35b34610223576020366003190112610223576004355f526002602052602060ff601260405f200154166040519015158152f35b34610223575f366003190112610223576020600554604051908152f35b346102235760803660031901126102235760043560243560ff81168103610223576044356001600160a01b038116810361022357610c01610c3892610bdc61166a565b845f526002602052600460405f20019061ff0082549160081b169061ff001916179055565b5f838152600260205260409020600401805462010000600160b01b03191660109290921b62010000600160b01b0316919091179055565b5f526002602052606435600560405f2001555f80f35b34610223575f36600319011261022357600154336001600160a01b0390911603610cc057600180546001600160a01b03199081169091555f805433928116831782556001600160a01b0316907f8be0079c531659141344cd1fd0a4f28419497f9722a3daafe3b4186f6b6457e09080a3005b63118cdaa760e01b5f523360045260245ffd5b3461022357610ce136611039565b9190610ceb61166a565b5f91825260026020526040909120600c810191909155600d0155005b34610223575f36600319011261022357610d1f61166a565b600180546001600160a01b03199081169091555f80549182168155906001600160a01b03167f8be0079c531659141344cd1fd0a4f28419497f9722a3daafe3b4186f6b6457e08280a3005b34610223576020366003190112610223576004356001600160401b03811161022357602080610d9e8193369060040161129c565b604051928184925191829101835e8101600381520301902054604051908152f35b3461022357602036600319011261022357600435610ddb61166a565b5f8181526002602090815260409182902060128101805461ffff1916600190811790915592518281527f2fd3f29ad1896d3f1173fab6db6fdc980e9fd301843bd0af793d1196c760c049939092839261021e92918401910161138d565b611003565b34610223576020366003190112610223576004356001600160401b0381116102235736602382011215610223578060040135906001600160401b038211610223573660248360051b8301011161022357610e9561166a565b8115610f235760328211610ee657368190036102a2190191905f5b828110156104e35760248160051b83010135908482121561022357610ee06104de600193602436918701016114cd565b01610eb0565b60405162461bcd60e51b815260206004820152601560248201527457696b693a20626174636820746f6f206c6172676560581b6044820152606490fd5b60405162461bcd60e51b81526020600482015260116024820152700aed2d6d27440cadae0e8f240c4c2e8c6d607b1b6044820152606490fd5b34610223576020366003190112610223576004356001600160401b03811161022357610f8e6020913690600401611053565b9190610f98611426565b5082604051938492833781016003815203019020545f52600260205261042f60405f206013604051916102ef836111ea565b61101e565b3461022357610fdd36611039565b9190610fe761166a565b5f91825260026020526040909120600a810191909155600b0155005b34610223575f36600319011261022357602060405160028152f35b34610223575f36600319011261022357602060405160018152f35b606090600319011261022357600435906024359060443590565b9181601f84011215610223578235916001600160401b038311610223576020838186019501011161022357565b805180835260209291819084018484015e5f828201840152601f01601f1916010190565b60208152815160208201526102e06102c06111006110ea6110d46020870151856040880152610300870190611080565b6040870151868203601f19016060880152611080565b6060860151858203601f19016080870152611080565b9360ff60808201511660a085015260ff60a08201511660c085015260018060a01b0360c08201511660e085015260e08101516101008501526101008101516101208501526101208101516101408501526101408101516101608501526101608101516101808501526101808101516101a08501526101a08101516101c08501526101c08101516101e08501526101e081015161020085015261020081015161022085015261022081015161024085015261024081015161026085015261026081015161028085015261028081015115156102a08501526102a0810151151582850152015191015290565b6102e081019081106001600160401b0382111761120657604052565b634e487b7160e01b5f52604160045260245ffd5b61028081019081106001600160401b0382111761120657604052565b90601f801991011681019081106001600160401b0382111761120657604052565b9291926001600160401b0382116112065760405191611280601f8201601f191660200184611236565b829481845281830111610223578281602093845f960137010152565b9080601f83011215610223578160206112b793359101611257565b90565b60208091604051928184925191829101835e8101600381520301902090565b359060ff8216820361022357565b34610223575f36600319011261022357602060405160038152f35b34610223575f3660031901126102235760206040515f8152f35b60206040818301928281528451809452019201905f5b81811061133f5750505090565b8251845260209384019390920191600101611332565b90600182811c92168015611383575b602083101461136f57565b634e487b7160e01b5f52602260045260245ffd5b91607f1691611364565b5f929181549161139c83611355565b80835292600181169081156113f157506001146113b857505050565b5f9081526020812093945091925b8383106113d7575060209250010190565b6001816020929493945483858701015201910191906113c6565b915050602093945060ff929192191683830152151560051b010190565b60045481101561067b5760045f5260205f2001905f90565b60405190611433826111ea565b5f6102c08382815260606020820152606060408201526060808201528260808201528260a08201528260c08201528260e08201528261010082015282610120820152826101408201528261016082015282610180820152826101a0820152826101c0820152826101e08201528261020082015282610220820152826102408201528261026082015282610280820152826102a08201520152565b9190916102808184031261022357604051906114e88261121a565b819381356001600160401b038111610223578161150691840161129c565b835260208201356001600160401b038111610223578161152791840161129c565b60208401526040820135906001600160401b0382116102235761154b91830161129c565b604083015261155c606082016112d9565b606083015261156d608082016112d9565b608083015260a08101356001600160a01b03811681036102235761026091829160a085015260c081013560c085015260e081013560e08501526101008101356101008501526101208101356101208501526101408101356101408501526101608101356101608501526101808101356101808501526101a08101356101a08501526101c08101356101c08501526101e08101356101e08501526102008101356102008501526102208101356102208501526102408101356102408501520135910152565b5f19811461163f5760010190565b634e487b7160e01b5f52601160045260245ffd5b6001600160401b0381116112065760051b60200190565b5f546001600160a01b03163303610cc057565b61168781516112ba565b54611b8c57611697600554611631565b9081600555815f52600260205260405f2090828255805160018301908051906001600160401b0382116112065781906116d08454611355565b601f8111611b3c575b50602090601f8311600114611ad9575f92611ace575b50508160011b915f199060031b1c19161790555b6020810151805160028401916001600160401b0382116112065781906117298454611355565b601f8111611a7e575b50602090601f8311600114611a1b575f92611a10575b50508160011b915f199060031b1c19161790555b6040810151805160038401916001600160401b0382116112065781906117828454611355565b601f81116119c0575b50602090601f831160011461195d575f92611952575b50508160011b915f199060031b1c19161790555b606081019161181b60ff845116600483019060ff198254161781556117f260ff608086015116829061ff0082549160081b169061ff001916179055565b60a0840151815462010000600160b01b03191660109190911b62010000600160b01b0316179055565b60c0820151600582015560e08201516006820155610100820151600782015561012082015160088201556101408201516009820155610160820151600a820155610180820151600b8201556101a0820151600c8201556101c0820151600d8201556101e0820151600e820155610200820151600f8201556102208201516010820155610240820151601182015560128101600161ffff198254161790556013610260830151910155826118ce82516112ba565b5560045491680100000000000000008310156112065760ff6119479261191b8560017f27e4e78ba5c2d60e8eebc7697fcf2d76a748b7bb7db335d99f702cf56767056d970160045561140e565b81549060031b9088821b915f19901b191617905551915116604051928392604084526040840190611080565b9060208301520390a2565b015190505f806117a1565b5f8581528281209350601f198516905b8181106119a85750908460019594939210611990575b505050811b0190556117b5565b01515f1960f88460031b161c191690555f8080611983565b9293602060018192878601518155019501930161196d565b909150835f5260205f20601f840160051c81019160208510611a06575b90601f859493920160051c01905b8181106119f8575061178b565b5f81558493506001016119eb565b90915081906119dd565b015190505f80611748565b5f8581528281209350601f198516905b818110611a665750908460019594939210611a4e575b505050811b01905561175c565b01515f1960f88460031b161c191690555f8080611a41565b92936020600181928786015181550195019301611a2b565b909150835f5260205f20601f840160051c81019160208510611ac4575b90601f859493920160051c01905b818110611ab65750611732565b5f8155849350600101611aa9565b9091508190611a9b565b015190505f806116ef565b5f8581528281209350601f198516905b818110611b245750908460019594939210611b0c575b505050811b019055611703565b01515f1960f88460031b161c191690555f8080611aff565b92936020600181928786015181550195019301611ae9565b909150835f5260205f20601f840160051c81019160208510611b82575b90601f859493920160051c01905b818110611b7457506116d9565b5f8155849350600101611b67565b9091508190611b59565b60405162461bcd60e51b815260206004820152601760248201527f52656769737472793a2073796d626f6c206578697374730000000000000000006044820152606490fdfea2646970667358221220c6363b9d933b14b862c37a2ce6a166980e7b81ef947119c51b5e74ad0e6a4e8164736f6c634300081a0033",
  "linkReferences": {},
  "deployedLinkReferences": {}
}