{
  "_format": "hh-sol-artifact-1",
  "contractName": "WikiPaymaster",
  "sourceName": "src/WikiPaymaster.sol",
  "abi": [
    {
      "inputs": [
        {
          "internalType": "address",
          "name": "_entryPoint",
          "type": "address"
        },
        {
          "internalType": "address",
          "name": "_owner",
          "type": "address"
        }
      ],
      "stateMutability": "nonpayable",
      "type": "constructor"
    },
    {
      "inputs": [
        {
          "internalType": "address",
          "name": "owner",
          "type": "address"
        }
      ],
      "name": "OwnableInvalidOwner",
      "type": "error"
    },
    {
      "inputs": [
        {
          "internalType": "address",
          "name": "account",
          "type": "address"
        }
      ],
      "name": "OwnableUnauthorizedAccount",
      "type": "error"
    },
    {
      "inputs": [],
      "name": "ReentrancyGuardReentrantCall",
      "type": "error"
    },
    {
      "inputs": [
        {
          "internalType": "address",
          "name": "token",
          "type": "address"
        }
      ],
      "name": "SafeERC20FailedOperation",
      "type": "error"
    },
    {
      "anonymous": false,
      "inputs": [
        {
          "indexed": true,
          "internalType": "address",
          "name": "user",
          "type": "address"
        },
        {
          "indexed": false,
          "internalType": "address",
          "name": "token",
          "type": "address"
        },
        {
          "indexed": false,
          "internalType": "uint256",
          "name": "tokenAmount",
          "type": "uint256"
        },
        {
          "indexed": false,
          "internalType": "uint256",
          "name": "ethAmount",
          "type": "uint256"
        },
        {
          "indexed": false,
          "internalType": "uint256",
          "name": "markup",
          "type": "uint256"
        }
      ],
      "name": "GasPaidInToken",
      "type": "event"
    },
    {
      "anonymous": false,
      "inputs": [
        {
          "indexed": true,
          "internalType": "address",
          "name": "previousOwner",
          "type": "address"
        },
        {
          "indexed": true,
          "internalType": "address",
          "name": "newOwner",
          "type": "address"
        }
      ],
      "name": "OwnershipTransferStarted",
      "type": "event"
    },
    {
      "anonymous": false,
      "inputs": [
        {
          "indexed": true,
          "internalType": "address",
          "name": "previousOwner",
          "type": "address"
        },
        {
          "indexed": true,
          "internalType": "address",
          "name": "newOwner",
          "type": "address"
        }
      ],
      "name": "OwnershipTransferred",
      "type": "event"
    },
    {
      "anonymous": false,
      "inputs": [
        {
          "indexed": false,
          "internalType": "address",
          "name": "token",
          "type": "address"
        },
        {
          "indexed": false,
          "internalType": "address",
          "name": "priceFeed",
          "type": "address"
        }
      ],
      "name": "TokenAdded",
      "type": "event"
    },
    {
      "anonymous": false,
      "inputs": [
        {
          "indexed": false,
          "internalType": "address",
          "name": "user",
          "type": "address"
        },
        {
          "indexed": false,
          "internalType": "bool",
          "name": "enabled",
          "type": "bool"
        }
      ],
      "name": "VIPGranted",
      "type": "event"
    },
    {
      "inputs": [],
      "name": "BPS",
      "outputs": [
        {
          "internalType": "uint256",
          "name": "",
          "type": "uint256"
        }
      ],
      "stateMutability": "view",
      "type": "function"
    },
    {
      "inputs": [],
      "name": "ETH_DECIMALS",
      "outputs": [
        {
          "internalType": "uint256",
          "name": "",
          "type": "uint256"
        }
      ],
      "stateMutability": "view",
      "type": "function"
    },
    {
      "inputs": [],
      "name": "GAS_MARKUP_BPS",
      "outputs": [
        {
          "internalType": "uint256",
          "name": "",
          "type": "uint256"
        }
      ],
      "stateMutability": "view",
      "type": "function"
    },
    {
      "inputs": [],
      "name": "SWAP_ROUTER",
      "outputs": [
        {
          "internalType": "contract IUniswapV3SwapRouter",
          "name": "",
          "type": "address"
        }
      ],
      "stateMutability": "view",
      "type": "function"
    },
    {
      "inputs": [],
      "name": "acceptOwnership",
      "outputs": [],
      "stateMutability": "nonpayable",
      "type": "function"
    },
    {
      "inputs": [
        {
          "internalType": "address",
          "name": "token",
          "type": "address"
        },
        {
          "internalType": "address",
          "name": "priceFeed",
          "type": "address"
        },
        {
          "internalType": "uint8",
          "name": "decimals",
          "type": "uint8"
        },
        {
          "internalType": "uint24",
          "name": "poolFee",
          "type": "uint24"
        }
      ],
      "name": "addToken",
      "outputs": [],
      "stateMutability": "nonpayable",
      "type": "function"
    },
    {
      "inputs": [],
      "name": "depositToEntryPoint",
      "outputs": [],
      "stateMutability": "payable",
      "type": "function"
    },
    {
      "inputs": [],
      "name": "entryPoint",
      "outputs": [
        {
          "internalType": "contract IEntryPoint",
          "name": "",
          "type": "address"
        }
      ],
      "stateMutability": "view",
      "type": "function"
    },
    {
      "inputs": [
        {
          "internalType": "address",
          "name": "",
          "type": "address"
        }
      ],
      "name": "freeGasUsers",
      "outputs": [
        {
          "internalType": "bool",
          "name": "",
          "type": "bool"
        }
      ],
      "stateMutability": "view",
      "type": "function"
    },
    {
      "inputs": [],
      "name": "owner",
      "outputs": [
        {
          "internalType": "address",
          "name": "",
          "type": "address"
        }
      ],
      "stateMutability": "view",
      "type": "function"
    },
    {
      "inputs": [],
      "name": "pendingOwner",
      "outputs": [
        {
          "internalType": "address",
          "name": "",
          "type": "address"
        }
      ],
      "stateMutability": "view",
      "type": "function"
    },
    {
      "inputs": [
        {
          "internalType": "uint8",
          "name": "",
          "type": "uint8"
        },
        {
          "internalType": "bytes",
          "name": "context",
          "type": "bytes"
        },
        {
          "internalType": "uint256",
          "name": "actualGasCost",
          "type": "uint256"
        },
        {
          "internalType": "uint256",
          "name": "",
          "type": "uint256"
        }
      ],
      "name": "postOp",
      "outputs": [],
      "stateMutability": "nonpayable",
      "type": "function"
    },
    {
      "inputs": [],
      "name": "protocolRevenue",
      "outputs": [
        {
          "internalType": "uint256",
          "name": "",
          "type": "uint256"
        }
      ],
      "stateMutability": "view",
      "type": "function"
    },
    {
      "inputs": [],
      "name": "renounceOwnership",
      "outputs": [],
      "stateMutability": "nonpayable",
      "type": "function"
    },
    {
      "inputs": [
        {
          "internalType": "address",
          "name": "user",
          "type": "address"
        },
        {
          "internalType": "bool",
          "name": "enabled",
          "type": "bool"
        }
      ],
      "name": "setVIPAccess",
      "outputs": [],
      "stateMutability": "nonpayable",
      "type": "function"
    },
    {
      "inputs": [
        {
          "internalType": "address",
          "name": "",
          "type": "address"
        }
      ],
      "name": "supportedTokens",
      "outputs": [
        {
          "internalType": "bool",
          "name": "enabled",
          "type": "bool"
        },
        {
          "internalType": "address",
          "name": "priceFeed",
          "type": "address"
        },
        {
          "internalType": "uint8",
          "name": "decimals",
          "type": "uint8"
        },
        {
          "internalType": "uint24",
          "name": "poolFee",
          "type": "uint24"
        }
      ],
      "stateMutability": "view",
      "type": "function"
    },
    {
      "inputs": [],
      "name": "totalGasSponsored",
      "outputs": [
        {
          "internalType": "uint256",
          "name": "",
          "type": "uint256"
        }
      ],
      "stateMutability": "view",
      "type": "function"
    },
    {
      "inputs": [
        {
          "internalType": "address",
          "name": "newOwner",
          "type": "address"
        }
      ],
      "name": "transferOwnership",
      "outputs": [],
      "stateMutability": "nonpayable",
      "type": "function"
    },
    {
      "inputs": [
        {
          "internalType": "address",
          "name": "",
          "type": "address"
        }
      ],
      "name": "userTokenDeposits",
      "outputs": [
        {
          "internalType": "uint256",
          "name": "",
          "type": "uint256"
        }
      ],
      "stateMutability": "view",
      "type": "function"
    },
    {
      "inputs": [
        {
          "components": [
            {
              "internalType": "address",
              "name": "sender",
              "type": "address"
            },
            {
              "internalType": "uint256",
              "name": "nonce",
              "type": "uint256"
            },
            {
              "internalType": "bytes",
              "name": "initCode",
              "type": "bytes"
            },
            {
              "internalType": "bytes",
              "name": "callData",
              "type": "bytes"
            },
            {
              "internalType": "bytes32",
              "name": "accountGasLimits",
              "type": "bytes32"
            },
            {
              "internalType": "uint256",
              "name": "preVerificationGas",
              "type": "uint256"
            },
            {
              "internalType": "bytes32",
              "name": "gasFees",
              "type": "bytes32"
            },
            {
              "internalType": "bytes",
              "name": "paymasterAndData",
              "type": "bytes"
            },
            {
              "internalType": "bytes",
              "name": "signature",
              "type": "bytes"
            }
          ],
          "internalType": "struct PackedUserOperation",
          "name": "userOp",
          "type": "tuple"
        },
        {
          "internalType": "bytes32",
          "name": "",
          "type": "bytes32"
        },
        {
          "internalType": "uint256",
          "name": "maxCost",
          "type": "uint256"
        }
      ],
      "name": "validatePaymasterUserOp",
      "outputs": [
        {
          "internalType": "bytes",
          "name": "context",
          "type": "bytes"
        },
        {
          "internalType": "uint256",
          "name": "validationData",
          "type": "uint256"
        }
      ],
      "stateMutability": "view",
      "type": "function"
    },
    {
      "inputs": [],
      "name": "withdrawRevenue",
      "outputs": [],
      "stateMutability": "nonpayable",
      "type": "function"
    },
    {
      "stateMutability": "payable",
      "type": "receive"
    }
  ],
  "bytecode": "0x60a03461016e57601f61133438819003918201601f19168301916001600160401b0383118484101761017257808492604094855283398101031261016e5761004681610186565b906001600160a01b039061005c90602001610186565b1690811561015b57600180546001600160a01b03199081169091555f80549182168417815560405193916001600160a01b0316907f8be0079c531659141344cd1fd0a4f28419497f9722a3daafe3b4186f6b6457e09080a360017f9b779b17422d0df92223018b32b4d1fa46e071723d6817e2486d003becc55f00556001600160a01b03169081156101195750608052604051611199908161019b8239608051818181610297015281816108190152818161098c0152610c430152f35b62461bcd60e51b815260206004820152601660248201527f57696b693a207a65726f205f656e747279506f696e74000000000000000000006044820152606490fd5b631e4fbdf760e01b5f525f60045260245ffd5b5f80fd5b634e487b7160e01b5f52604160045260245ffd5b51906001600160a01b038216820361016e5756fe6080604052600436101561001a575b3615610018575f80fd5b005b5f803560e01c80631b3ba10114610803578063249d39e9146107e65780632ecfbb47146107ad5780633ffbc25f1461064e5780634f573cb2146105e157806352b7512c1461056457806368c4ac26146104fa5780636d58d2e8146104dd578063715018a61461047857806379ba5097146103f35780637af3816c146103d55780637c627b21146103485780638da5cb5b1461032157806392cd1ff214610305578063a46e9282146102c6578063b0d691fe14610281578063c600589314610252578063e0f6dfca14610234578063e30c39781461020b578063f2fde38b1461019e5763f618347d1461010c575061000e565b3461019b57604036600319011261019b57610125610890565b6024359081151591828103610197577ff87ae1339fa7208f9f02db53e078f548e251047c7c6e384567d3191d0f97246f92610189604093610164610f68565b60018060a01b03169283875260046020528487209060ff801983541691151516179055565b82519182526020820152a180f35b8380fd5b80fd5b503461019b57602036600319011261019b576101b8610890565b6101c0610f68565b600180546001600160a01b0319166001600160a01b0392831690811790915582549091167f38d16b8cac22d99fc7c124b9cd0de2d3fa1faef420bfe791d8c362d765e227008380a380f35b503461019b578060031936011261019b576001546040516001600160a01b039091168152602090f35b503461019b578060031936011261019b576020600654604051908152f35b503461019b578060031936011261019b57602060405173e592427a0aece92de3edee1f18e0157c058615648152f35b503461019b578060031936011261019b576040517f00000000000000000000000000000000000000000000000000000000000000006001600160a01b03168152602090f35b503461019b57602036600319011261019b5760209060ff906040906001600160a01b036102f1610890565b168152600484522054166040519015158152f35b503461019b578060031936011261019b57602060405160128152f35b503461019b578060031936011261019b57546040516001600160a01b039091168152602090f35b503461019b57608036600319011261019b576103626108a6565b5060243567ffffffffffffffff81116103d157366023820112156103d15780600401359067ffffffffffffffff82116103cd5736602483830101116103cd576103b9916103ad610f8e565b60246044359201610c36565b60015f805160206111448339815191525580f35b8280fd5b5080fd5b503461019b578060031936011261019b576020600554604051908152f35b503461019b578060031936011261019b57600154336001600160a01b039091160361046557600180546001600160a01b0319908116909155815433918116821783556001600160a01b03167f8be0079c531659141344cd1fd0a4f28419497f9722a3daafe3b4186f6b6457e08380a380f35b63118cdaa760e01b815233600452602490fd5b503461019b578060031936011261019b57610491610f68565b600180546001600160a01b03199081169091558154908116825581906001600160a01b03167f8be0079c531659141344cd1fd0a4f28419497f9722a3daafe3b4186f6b6457e08280a380f35b503461019b578060031936011261019b5760206040516104b08152f35b503461019b57602036600319011261019b576080906040906001600160a01b03610522610890565b1681526002602052205462ffffff6040519160ff81161515835260018060a01b038160081c16602084015260ff8160a81c16604084015260b01c166060820152f35b503461019b57606036600319011261019b5760043567ffffffffffffffff81116103d15761012060031982360301126103d15760206105ab60609260443590600401610985565b604092919251948593604085528051938491826040880152018686015e8383018501526020830152601f01601f19168101030190f35b503461019b578060031936011261019b576105fa610f68565b610602610f8e565b808080806005548160055560018060a01b03825416828215610645575bf1156106395760015f805160206111448339815191525580f35b604051903d90823e3d90fd5b506108fc61061f565b503461019b57608036600319011261019b57610668610890565b6024356001600160a01b03811692918382036103cd5760443560ff8116809103610197576064359062ffffff82168092036107a9576106a5610f68565b60405191608083019683881067ffffffffffffffff891117610795577fdffbd9ded1c09446f09377de547142dcce7dc541c8b0b028142b1eba7026b9e796976040526001845260208401908152604084019283526060840191825260018060a01b0385168852600260205261072d6040892094511515859060ff801983541691151516179055565b51835492519151610100600160c81b031990931660089190911b610100600160a81b03161760a89190911b60ff60a81b161760b09190911b62ffffff60b01b16179055604080516001600160a01b03928316815291909216602082015290819081010390a180f35b634e487b7160e01b87526041600452602487fd5b8480fd5b503461019b57602036600319011261019b576020906040906001600160a01b036107d5610890565b168152600383522054604051908152f35b503461019b578060031936011261019b5760206040516127108152f35b505f36600319011261088c57610817610f68565b7f00000000000000000000000000000000000000000000000000000000000000006001600160a01b0316803b1561088c575f6024916040519283809263b760faf960e01b825230600483015234905af1801561088157610875575080f35b61001891505f906108b6565b6040513d5f823e3d90fd5b5f80fd5b600435906001600160a01b038216820361088c57565b6004359060ff8216820361088c57565b90601f8019910116810190811067ffffffffffffffff8211176108d857604052565b634e487b7160e01b5f52604160045260245ffd5b156108f357565b60405162461bcd60e51b815260206004820152601960248201527f5061796d61737465723a206e6f7420456e747279506f696e74000000000000006044820152606490fd5b356001600160a01b038116810361088c5790565b9190820180921161095957565b634e487b7160e01b5f52601160045260245ffd5b90612bc0820291808304612bc0149015171561095957565b906109ba337f00000000000000000000000000000000000000000000000000000000000000006001600160a01b0316146108ec565b5f9160e0810135601e198236030181121561088c578101803567ffffffffffffffff811161088c57803603602083011361088c576034811015610bfb575b506001600160a01b039050610a0c82610938565b165f52600460205260ff60405f205416610bc0576001600160a01b0383169283151580610baa575b15610b6557610a5090612710610a498561096d565b0490610fdd565b610a8d6020610a5e84610938565b604051636eb1769f60e11b81526001600160a01b03909116600482015230602482015291829081906044820190565b0381885afa908115610881575f91610b33575b5010610ae457610aaf90610938565b604080516001600160a01b0390921660208301528101929092526060808301919091528152610adf6080826108b6565b905f90565b60405162461bcd60e51b815260206004820152602160248201527f5061796d61737465723a20696e73756666696369656e7420616c6c6f77616e636044820152606560f81b6064820152608490fd5b90506020813d602011610b5d575b81610b4e602093836108b6565b8101031261088c57515f610aa0565b3d9150610b41565b60405162461bcd60e51b815260206004820152601e60248201527f5061796d61737465723a20746f6b656e206e6f7420737570706f7274656400006044820152606490fd5b50835f52600260205260ff60405f205416610a34565b610bcb919250610938565b604080516001600160a01b0390921660208301525f90820152606080820192909252908152610adf6080826108b6565b9091935060341161088c576040013560601c915f806109f8565b35906001600160a01b038216820361088c57565b9190820391821161095957565b91906060908390610c71337f00000000000000000000000000000000000000000000000000000000000000006001600160a01b0316146108ec565b8101031261088c57610c8e6020610c8784610c15565b9301610c15565b6001600160a01b0392831692168015610f5557612710610cad8361096d565b04610cc2610cbb8483610c29565b9183610fdd565b926040516323b872dd60e01b5f5285600452306024528460445260205f60648180885af160015f5114811615610f36575b816040525f60605215610f235763095ea7b360e01b815273e592427a0aece92de3edee1f18e0157c058615646004820152602481018590526020816044815f885af1801561088157610eec575b50825f52600260205262ffffff60405f205460b01c16603c420180421161095957605a8302838104605a14841517156109595760405192610100840184811067ffffffffffffffff8211176108d85760409081528785527382af49447d8a07e3bd95bd0d56f35241523fbab1602080870191825286830193845230606088019081526080880196875260a088018c815260649687900460c08a019081525f60e08b01818152965163414bf38960e01b81529a516001600160a01b0390811660048d01529551861660248c0152965162ffffff1660448b0152915184169689019690965295516084880152935160a4870152935160c48601525190921660e484015290829061010490829073e592427a0aece92de3edee1f18e0157c058615645af1610eb5575b5090608092917fa66f3c40c8c72519f87691047df07b7135e699add9b5feeac29fc2982a8a12a594610e9a8360055461094c565b600555604051938452602084015260408301526060820152a2565b9291906020843d602011610ee4575b81610ed1602093836108b6565b8101031261088c57919250906080610e66565b3d9150610ec4565b6020813d602011610f1b575b81610f05602093836108b6565b8101031261088c57518015158114610d40575f80fd5b3d9150610ef8565b83635274afe760e01b5f5260045260245ffd5b6001811516610f4c57843b15153d151616610cf3565b503d5f823e3d90fd5b50610f63915060065461094c565b600655565b5f546001600160a01b03163303610f7b57565b63118cdaa760e01b5f523360045260245ffd5b60025f805160206111448339815191525414610fb75760025f8051602061114483398151915255565b633ee5aeb560e01b5f5260045ffd5b519069ffffffffffffffffffff8216820361088c57565b60018060a01b03165f52600260205260405f205490604051633fabe5a360e21b815260a081600481600180851b038760081c165afa8015610881575f915f916110ef575b505f8213156110e757611037610e109142610c29565b116110a2576305f5e1008202918083046305f5e100149015171561095957801561108e5760ff91049160a81c16604d811161095957600a0a9081810291818304149015171561095957670de0b6b3a7640000900490565b634e487b7160e01b5f52601260045260245ffd5b60405162461bcd60e51b815260206004820152601b60248201527f5061796d61737465723a207374616c65207072696365206665656400000000006044820152606490fd5b505050505f90565b91505060a0813d60a01161113b575b8161110b60a093836108b6565b8101031261088c5761111c81610fc6565b506020810151611133608060608401519301610fc6565b50905f611021565b3d91506110fe56fe9b779b17422d0df92223018b32b4d1fa46e071723d6817e2486d003becc55f00a26469706673582212202d3510f2415f62fd20f7714d7205cb4342c9ebd86700c88d43e524379f88653c64736f6c634300081a0033",
  "linkReferences": {},
  "deployedLinkReferences": {}
}