{
  "_format": "hh-sol-artifact-1",
  "contractName": "WikiInternalArb",
  "sourceName": "src/WikiInternalArb.sol",
  "abi": [
    {
      "inputs": [
        {
          "internalType": "address",
          "name": "_owner",
          "type": "address"
        },
        {
          "internalType": "address",
          "name": "_flashLoan",
          "type": "address"
        },
        {
          "internalType": "address",
          "name": "_vault",
          "type": "address"
        },
        {
          "internalType": "address",
          "name": "_spot",
          "type": "address"
        },
        {
          "internalType": "address",
          "name": "_vamm",
          "type": "address"
        },
        {
          "internalType": "address",
          "name": "_oracle",
          "type": "address"
        },
        {
          "internalType": "address",
          "name": "_splitter",
          "type": "address"
        },
        {
          "internalType": "address",
          "name": "_usdc",
          "type": "address"
        }
      ],
      "stateMutability": "nonpayable",
      "type": "constructor"
    },
    {
      "inputs": [],
      "name": "EnforcedPause",
      "type": "error"
    },
    {
      "inputs": [],
      "name": "ExpectedPause",
      "type": "error"
    },
    {
      "inputs": [
        {
          "internalType": "address",
          "name": "owner",
          "type": "address"
        }
      ],
      "name": "OwnableInvalidOwner",
      "type": "error"
    },
    {
      "inputs": [
        {
          "internalType": "address",
          "name": "account",
          "type": "address"
        }
      ],
      "name": "OwnableUnauthorizedAccount",
      "type": "error"
    },
    {
      "inputs": [],
      "name": "ReentrancyGuardReentrantCall",
      "type": "error"
    },
    {
      "inputs": [
        {
          "internalType": "address",
          "name": "token",
          "type": "address"
        }
      ],
      "name": "SafeERC20FailedOperation",
      "type": "error"
    },
    {
      "anonymous": false,
      "inputs": [
        {
          "indexed": true,
          "internalType": "uint256",
          "name": "arbId",
          "type": "uint256"
        },
        {
          "indexed": false,
          "internalType": "uint8",
          "name": "arbType",
          "type": "uint8"
        },
        {
          "indexed": true,
          "internalType": "bytes32",
          "name": "marketId",
          "type": "bytes32"
        },
        {
          "indexed": false,
          "internalType": "uint256",
          "name": "arbSize",
          "type": "uint256"
        },
        {
          "indexed": false,
          "internalType": "uint256",
          "name": "netProfit",
          "type": "uint256"
        },
        {
          "indexed": false,
          "internalType": "uint256",
          "name": "toSplitter",
          "type": "uint256"
        },
        {
          "indexed": false,
          "internalType": "uint256",
          "name": "toInsurance",
          "type": "uint256"
        },
        {
          "indexed": false,
          "internalType": "uint256",
          "name": "toKeeper",
          "type": "uint256"
        },
        {
          "indexed": true,
          "internalType": "address",
          "name": "keeper",
          "type": "address"
        }
      ],
      "name": "ArbExecuted",
      "type": "event"
    },
    {
      "anonymous": false,
      "inputs": [
        {
          "indexed": true,
          "internalType": "bytes32",
          "name": "marketId",
          "type": "bytes32"
        },
        {
          "indexed": false,
          "internalType": "string",
          "name": "reason",
          "type": "string"
        }
      ],
      "name": "ArbSkipped",
      "type": "event"
    },
    {
      "anonymous": false,
      "inputs": [],
      "name": "ContractsUpdated",
      "type": "event"
    },
    {
      "anonymous": false,
      "inputs": [
        {
          "indexed": true,
          "internalType": "bytes32",
          "name": "marketId",
          "type": "bytes32"
        },
        {
          "indexed": false,
          "internalType": "uint256",
          "name": "gapBps",
          "type": "uint256"
        },
        {
          "indexed": false,
          "internalType": "bool",
          "name": "vammCheaper",
          "type": "bool"
        }
      ],
      "name": "GapDetected",
      "type": "event"
    },
    {
      "anonymous": false,
      "inputs": [
        {
          "indexed": true,
          "internalType": "address",
          "name": "previousOwner",
          "type": "address"
        },
        {
          "indexed": true,
          "internalType": "address",
          "name": "newOwner",
          "type": "address"
        }
      ],
      "name": "OwnershipTransferStarted",
      "type": "event"
    },
    {
      "anonymous": false,
      "inputs": [
        {
          "indexed": true,
          "internalType": "address",
          "name": "previousOwner",
          "type": "address"
        },
        {
          "indexed": true,
          "internalType": "address",
          "name": "newOwner",
          "type": "address"
        }
      ],
      "name": "OwnershipTransferred",
      "type": "event"
    },
    {
      "anonymous": false,
      "inputs": [
        {
          "indexed": false,
          "internalType": "address",
          "name": "account",
          "type": "address"
        }
      ],
      "name": "Paused",
      "type": "event"
    },
    {
      "anonymous": false,
      "inputs": [
        {
          "indexed": false,
          "internalType": "address",
          "name": "account",
          "type": "address"
        }
      ],
      "name": "Unpaused",
      "type": "event"
    },
    {
      "inputs": [],
      "name": "ARB_SPOT_VS_VAMM",
      "outputs": [
        {
          "internalType": "uint8",
          "name": "",
          "type": "uint8"
        }
      ],
      "stateMutability": "view",
      "type": "function"
    },
    {
      "inputs": [],
      "name": "ARB_VAMM_VS_ORACLE",
      "outputs": [
        {
          "internalType": "uint8",
          "name": "",
          "type": "uint8"
        }
      ],
      "stateMutability": "view",
      "type": "function"
    },
    {
      "inputs": [],
      "name": "BPS",
      "outputs": [
        {
          "internalType": "uint256",
          "name": "",
          "type": "uint256"
        }
      ],
      "stateMutability": "view",
      "type": "function"
    },
    {
      "inputs": [],
      "name": "INSURANCE_SHARE",
      "outputs": [
        {
          "internalType": "uint256",
          "name": "",
          "type": "uint256"
        }
      ],
      "stateMutability": "view",
      "type": "function"
    },
    {
      "inputs": [],
      "name": "KEEPER_SHARE",
      "outputs": [
        {
          "internalType": "uint256",
          "name": "",
          "type": "uint256"
        }
      ],
      "stateMutability": "view",
      "type": "function"
    },
    {
      "inputs": [],
      "name": "MARKET_COOLDOWN",
      "outputs": [
        {
          "internalType": "uint256",
          "name": "",
          "type": "uint256"
        }
      ],
      "stateMutability": "view",
      "type": "function"
    },
    {
      "inputs": [],
      "name": "MAX_ARB_USDC",
      "outputs": [
        {
          "internalType": "uint256",
          "name": "",
          "type": "uint256"
        }
      ],
      "stateMutability": "view",
      "type": "function"
    },
    {
      "inputs": [],
      "name": "MAX_PRICE_AGE",
      "outputs": [
        {
          "internalType": "uint256",
          "name": "",
          "type": "uint256"
        }
      ],
      "stateMutability": "view",
      "type": "function"
    },
    {
      "inputs": [],
      "name": "MIN_GAP_BPS",
      "outputs": [
        {
          "internalType": "uint256",
          "name": "",
          "type": "uint256"
        }
      ],
      "stateMutability": "view",
      "type": "function"
    },
    {
      "inputs": [],
      "name": "MIN_PROFIT_USDC",
      "outputs": [
        {
          "internalType": "uint256",
          "name": "",
          "type": "uint256"
        }
      ],
      "stateMutability": "view",
      "type": "function"
    },
    {
      "inputs": [],
      "name": "PRECISION",
      "outputs": [
        {
          "internalType": "uint256",
          "name": "",
          "type": "uint256"
        }
      ],
      "stateMutability": "view",
      "type": "function"
    },
    {
      "inputs": [],
      "name": "SPLITTER_SHARE",
      "outputs": [
        {
          "internalType": "uint256",
          "name": "",
          "type": "uint256"
        }
      ],
      "stateMutability": "view",
      "type": "function"
    },
    {
      "inputs": [],
      "name": "USDC",
      "outputs": [
        {
          "internalType": "contract IERC20",
          "name": "",
          "type": "address"
        }
      ],
      "stateMutability": "view",
      "type": "function"
    },
    {
      "inputs": [],
      "name": "acceptOwnership",
      "outputs": [],
      "stateMutability": "nonpayable",
      "type": "function"
    },
    {
      "inputs": [],
      "name": "arbCount",
      "outputs": [
        {
          "internalType": "uint256",
          "name": "",
          "type": "uint256"
        }
      ],
      "stateMutability": "view",
      "type": "function"
    },
    {
      "inputs": [
        {
          "internalType": "uint256",
          "name": "",
          "type": "uint256"
        }
      ],
      "name": "arbHistory",
      "outputs": [
        {
          "internalType": "uint8",
          "name": "arbType",
          "type": "uint8"
        },
        {
          "internalType": "bytes32",
          "name": "marketId",
          "type": "bytes32"
        },
        {
          "internalType": "uint256",
          "name": "arbSize",
          "type": "uint256"
        },
        {
          "internalType": "uint256",
          "name": "grossProfit",
          "type": "uint256"
        },
        {
          "internalType": "uint256",
          "name": "flashFee",
          "type": "uint256"
        },
        {
          "internalType": "uint256",
          "name": "netProfit",
          "type": "uint256"
        },
        {
          "internalType": "uint256",
          "name": "toSplitter",
          "type": "uint256"
        },
        {
          "internalType": "uint256",
          "name": "toInsurance",
          "type": "uint256"
        },
        {
          "internalType": "uint256",
          "name": "toKeeper",
          "type": "uint256"
        },
        {
          "internalType": "address",
          "name": "keeper",
          "type": "address"
        },
        {
          "internalType": "uint256",
          "name": "timestamp",
          "type": "uint256"
        },
        {
          "internalType": "uint256",
          "name": "blockNumber",
          "type": "uint256"
        }
      ],
      "stateMutability": "view",
      "type": "function"
    },
    {
      "inputs": [
        {
          "internalType": "uint8",
          "name": "arbType",
          "type": "uint8"
        },
        {
          "internalType": "bytes32",
          "name": "marketId",
          "type": "bytes32"
        },
        {
          "internalType": "uint256",
          "name": "poolId",
          "type": "uint256"
        }
      ],
      "name": "checkGap",
      "outputs": [
        {
          "internalType": "uint256",
          "name": "gapBps",
          "type": "uint256"
        },
        {
          "internalType": "bool",
          "name": "vammCheaper",
          "type": "bool"
        }
      ],
      "stateMutability": "view",
      "type": "function"
    },
    {
      "inputs": [],
      "name": "emergencySweep",
      "outputs": [],
      "stateMutability": "nonpayable",
      "type": "function"
    },
    {
      "inputs": [
        {
          "internalType": "uint8",
          "name": "arbType",
          "type": "uint8"
        },
        {
          "internalType": "bytes32",
          "name": "marketId",
          "type": "bytes32"
        },
        {
          "internalType": "uint256",
          "name": "poolId",
          "type": "uint256"
        },
        {
          "internalType": "uint256",
          "name": "arbSize",
          "type": "uint256"
        }
      ],
      "name": "estimateProfit",
      "outputs": [
        {
          "internalType": "bool",
          "name": "profitable",
          "type": "bool"
        },
        {
          "internalType": "uint256",
          "name": "estNetProfit",
          "type": "uint256"
        },
        {
          "internalType": "uint256",
          "name": "estGapBps",
          "type": "uint256"
        },
        {
          "internalType": "uint256",
          "name": "maxSafe",
          "type": "uint256"
        }
      ],
      "stateMutability": "view",
      "type": "function"
    },
    {
      "inputs": [
        {
          "internalType": "uint8",
          "name": "arbType",
          "type": "uint8"
        },
        {
          "internalType": "bytes32",
          "name": "marketId",
          "type": "bytes32"
        },
        {
          "internalType": "uint256",
          "name": "poolId",
          "type": "uint256"
        },
        {
          "internalType": "uint256",
          "name": "arbSize",
          "type": "uint256"
        },
        {
          "internalType": "uint256",
          "name": "minProfit",
          "type": "uint256"
        }
      ],
      "name": "executeArb",
      "outputs": [],
      "stateMutability": "nonpayable",
      "type": "function"
    },
    {
      "inputs": [],
      "name": "flashLoan",
      "outputs": [
        {
          "internalType": "contract IWikiFlashLoan",
          "name": "",
          "type": "address"
        }
      ],
      "stateMutability": "view",
      "type": "function"
    },
    {
      "inputs": [
        {
          "internalType": "uint256",
          "name": "id",
          "type": "uint256"
        }
      ],
      "name": "getArbRecord",
      "outputs": [
        {
          "components": [
            {
              "internalType": "uint8",
              "name": "arbType",
              "type": "uint8"
            },
            {
              "internalType": "bytes32",
              "name": "marketId",
              "type": "bytes32"
            },
            {
              "internalType": "uint256",
              "name": "arbSize",
              "type": "uint256"
            },
            {
              "internalType": "uint256",
              "name": "grossProfit",
              "type": "uint256"
            },
            {
              "internalType": "uint256",
              "name": "flashFee",
              "type": "uint256"
            },
            {
              "internalType": "uint256",
              "name": "netProfit",
              "type": "uint256"
            },
            {
              "internalType": "uint256",
              "name": "toSplitter",
              "type": "uint256"
            },
            {
              "internalType": "uint256",
              "name": "toInsurance",
              "type": "uint256"
            },
            {
              "internalType": "uint256",
              "name": "toKeeper",
              "type": "uint256"
            },
            {
              "internalType": "address",
              "name": "keeper",
              "type": "address"
            },
            {
              "internalType": "uint256",
              "name": "timestamp",
              "type": "uint256"
            },
            {
              "internalType": "uint256",
              "name": "blockNumber",
              "type": "uint256"
            }
          ],
          "internalType": "struct WikiInternalArb.ArbRecord",
          "name": "",
          "type": "tuple"
        }
      ],
      "stateMutability": "view",
      "type": "function"
    },
    {
      "inputs": [
        {
          "internalType": "address",
          "name": "",
          "type": "address"
        }
      ],
      "name": "keepers",
      "outputs": [
        {
          "internalType": "bool",
          "name": "",
          "type": "bool"
        }
      ],
      "stateMutability": "view",
      "type": "function"
    },
    {
      "inputs": [
        {
          "internalType": "bytes32",
          "name": "",
          "type": "bytes32"
        }
      ],
      "name": "lastArbTime",
      "outputs": [
        {
          "internalType": "uint256",
          "name": "",
          "type": "uint256"
        }
      ],
      "stateMutability": "view",
      "type": "function"
    },
    {
      "inputs": [
        {
          "internalType": "address",
          "name": "initiator",
          "type": "address"
        },
        {
          "internalType": "address",
          "name": "token",
          "type": "address"
        },
        {
          "internalType": "uint256",
          "name": "amount",
          "type": "uint256"
        },
        {
          "internalType": "uint256",
          "name": "fee",
          "type": "uint256"
        },
        {
          "internalType": "bytes",
          "name": "data",
          "type": "bytes"
        }
      ],
      "name": "onFlashLoan",
      "outputs": [
        {
          "internalType": "bytes32",
          "name": "",
          "type": "bytes32"
        }
      ],
      "stateMutability": "nonpayable",
      "type": "function"
    },
    {
      "inputs": [],
      "name": "openToAll",
      "outputs": [
        {
          "internalType": "bool",
          "name": "",
          "type": "bool"
        }
      ],
      "stateMutability": "view",
      "type": "function"
    },
    {
      "inputs": [],
      "name": "oracle",
      "outputs": [
        {
          "internalType": "contract IWikiOracle",
          "name": "",
          "type": "address"
        }
      ],
      "stateMutability": "view",
      "type": "function"
    },
    {
      "inputs": [],
      "name": "owner",
      "outputs": [
        {
          "internalType": "address",
          "name": "",
          "type": "address"
        }
      ],
      "stateMutability": "view",
      "type": "function"
    },
    {
      "inputs": [],
      "name": "pause",
      "outputs": [],
      "stateMutability": "nonpayable",
      "type": "function"
    },
    {
      "inputs": [],
      "name": "paused",
      "outputs": [
        {
          "internalType": "bool",
          "name": "",
          "type": "bool"
        }
      ],
      "stateMutability": "view",
      "type": "function"
    },
    {
      "inputs": [],
      "name": "pendingOwner",
      "outputs": [
        {
          "internalType": "address",
          "name": "",
          "type": "address"
        }
      ],
      "stateMutability": "view",
      "type": "function"
    },
    {
      "inputs": [],
      "name": "renounceOwnership",
      "outputs": [],
      "stateMutability": "nonpayable",
      "type": "function"
    },
    {
      "inputs": [
        {
          "internalType": "address",
          "name": "_flashLoan",
          "type": "address"
        },
        {
          "internalType": "address",
          "name": "_vault",
          "type": "address"
        },
        {
          "internalType": "address",
          "name": "_spot",
          "type": "address"
        },
        {
          "internalType": "address",
          "name": "_vamm",
          "type": "address"
        },
        {
          "internalType": "address",
          "name": "_oracle",
          "type": "address"
        },
        {
          "internalType": "address",
          "name": "_splitter",
          "type": "address"
        }
      ],
      "name": "setContracts",
      "outputs": [],
      "stateMutability": "nonpayable",
      "type": "function"
    },
    {
      "inputs": [
        {
          "internalType": "address",
          "name": "keeper",
          "type": "address"
        },
        {
          "internalType": "bool",
          "name": "enabled",
          "type": "bool"
        }
      ],
      "name": "setKeeper",
      "outputs": [],
      "stateMutability": "nonpayable",
      "type": "function"
    },
    {
      "inputs": [
        {
          "internalType": "bool",
          "name": "enabled",
          "type": "bool"
        }
      ],
      "name": "setOpenToAll",
      "outputs": [],
      "stateMutability": "nonpayable",
      "type": "function"
    },
    {
      "inputs": [
        {
          "internalType": "address",
          "name": "_tl",
          "type": "address"
        }
      ],
      "name": "setTimelock",
      "outputs": [],
      "stateMutability": "nonpayable",
      "type": "function"
    },
    {
      "inputs": [],
      "name": "splitter",
      "outputs": [
        {
          "internalType": "contract IWikiRevenueSplitter",
          "name": "",
          "type": "address"
        }
      ],
      "stateMutability": "view",
      "type": "function"
    },
    {
      "inputs": [],
      "name": "spot",
      "outputs": [
        {
          "internalType": "contract IWikiSpot",
          "name": "",
          "type": "address"
        }
      ],
      "stateMutability": "view",
      "type": "function"
    },
    {
      "inputs": [],
      "name": "stats",
      "outputs": [
        {
          "internalType": "uint256",
          "name": "totalProfit",
          "type": "uint256"
        },
        {
          "internalType": "uint256",
          "name": "totalArbs",
          "type": "uint256"
        },
        {
          "internalType": "uint256",
          "name": "toStakers",
          "type": "uint256"
        },
        {
          "internalType": "uint256",
          "name": "toInsurance",
          "type": "uint256"
        },
        {
          "internalType": "uint256",
          "name": "toKeepers",
          "type": "uint256"
        },
        {
          "internalType": "uint256",
          "name": "lastArbTimestamp",
          "type": "uint256"
        }
      ],
      "stateMutability": "view",
      "type": "function"
    },
    {
      "inputs": [],
      "name": "timelock",
      "outputs": [
        {
          "internalType": "address",
          "name": "",
          "type": "address"
        }
      ],
      "stateMutability": "view",
      "type": "function"
    },
    {
      "inputs": [],
      "name": "totalArbCount",
      "outputs": [
        {
          "internalType": "uint256",
          "name": "",
          "type": "uint256"
        }
      ],
      "stateMutability": "view",
      "type": "function"
    },
    {
      "inputs": [],
      "name": "totalNetProfit",
      "outputs": [
        {
          "internalType": "uint256",
          "name": "",
          "type": "uint256"
        }
      ],
      "stateMutability": "view",
      "type": "function"
    },
    {
      "inputs": [],
      "name": "totalToInsurance",
      "outputs": [
        {
          "internalType": "uint256",
          "name": "",
          "type": "uint256"
        }
      ],
      "stateMutability": "view",
      "type": "function"
    },
    {
      "inputs": [],
      "name": "totalToKeepers",
      "outputs": [
        {
          "internalType": "uint256",
          "name": "",
          "type": "uint256"
        }
      ],
      "stateMutability": "view",
      "type": "function"
    },
    {
      "inputs": [],
      "name": "totalToSplitter",
      "outputs": [
        {
          "internalType": "uint256",
          "name": "",
          "type": "uint256"
        }
      ],
      "stateMutability": "view",
      "type": "function"
    },
    {
      "inputs": [
        {
          "internalType": "address",
          "name": "newOwner",
          "type": "address"
        }
      ],
      "name": "transferOwnership",
      "outputs": [],
      "stateMutability": "nonpayable",
      "type": "function"
    },
    {
      "inputs": [],
      "name": "unpause",
      "outputs": [],
      "stateMutability": "nonpayable",
      "type": "function"
    },
    {
      "inputs": [],
      "name": "vamm",
      "outputs": [
        {
          "internalType": "contract IWikiVirtualAMM",
          "name": "",
          "type": "address"
        }
      ],
      "stateMutability": "view",
      "type": "function"
    },
    {
      "inputs": [],
      "name": "vault",
      "outputs": [
        {
          "internalType": "contract IWikiVault",
          "name": "",
          "type": "address"
        }
      ],
      "stateMutability": "view",
      "type": "function"
    }
  ],
  "bytecode": "0x60a03461040257601f612e8438819003918201601f19168301916001600160401b038311848410176104065780849261010094604052833981010312610402576100488161041a565b6100546020830161041a565b916100616040820161041a565b61006d6060830161041a565b9061007a6080840161041a565b9161008760a0850161041a565b916100a060e061009960c0880161041a565b960161041a565b6001600160a01b039096169687156103ef57600180546001600160a01b03199081169091555f80549182168a17815560405199916001600160a01b0316907f8be0079c531659141344cd1fd0a4f28419497f9722a3daafe3b4186f6b6457e09080a360017f9b779b17422d0df92223018b32b4d1fa46e071723d6817e2486d003becc55f00556001600160a01b03169687156103ad57506001600160a01b0316908115610368576001600160a01b0316918215610323576001600160a01b03169384156102de576001600160a01b0316948515610299576001600160a01b031695861561025457600380546001600160a01b031990811692909217905560048054821692909217909155600580549091169190911790556001600160a01b03168061023a575b5060018060a01b0319600754161760075560018060a01b03196008541617600855608052604051612a55908161042f82396080518181816106470152818161086e01528181610e2d0152818161106f015281816115e401528181611ef10152818161245e0152818161251301526128510152f35b600680546001600160a01b0319169190911790555f6101c6565b60405162461bcd60e51b815260206004820152601660248201527f496e7465726e616c4172623a207a65726f2075736463000000000000000000006044820152606490fd5b60405162461bcd60e51b815260206004820152601a60248201527f496e7465726e616c4172623a207a65726f2073706c69747465720000000000006044820152606490fd5b60405162461bcd60e51b815260206004820152601860248201527f496e7465726e616c4172623a207a65726f206f7261636c6500000000000000006044820152606490fd5b60405162461bcd60e51b815260206004820152601660248201527f496e7465726e616c4172623a207a65726f2073706f74000000000000000000006044820152606490fd5b60405162461bcd60e51b815260206004820152601760248201527f496e7465726e616c4172623a207a65726f207661756c740000000000000000006044820152606490fd5b62461bcd60e51b815260206004820152601b60248201527f496e7465726e616c4172623a207a65726f20666c6173684c6f616e00000000006044820152606490fd5b631e4fbdf760e01b5f525f60045260245ffd5b5f80fd5b634e487b7160e01b5f52604160045260245ffd5b51906001600160a01b03821682036104025756fe6080806040526004361015610012575f80fd5b5f3560e01c908163112d0df714611d485750806323e30c8b1461154f5780632463a55a146113d8578063249d39e9146113bc578063253f77f01461139f57806327805c5c14611382578063383412f3146113655780633bbd64bc146113285780633cd8045e146113005780633f4ba83a146112925780634170afc21461127657806348f898e414611259578063522779791461123e57806356b30703146112225780635c975abb146111fd57806363aa7cd0146111e157806365104a8b14610c35578063673a8c1214610a705780636b0a743314610a515780636f265b9314610a29578063715018a6146109c657806379ba5097146109415780637be3685d146109265780637dc0d1d0146108fe5780638456cb591461089d57806389a30271146108595780638da5cb5b146108325780639746fe2d14610808578063990fdeb9146107ed5780639ad5981e146107c55780639d7f7e86146107aa578063aaf5eb6814610788578063bdacb303146106fc578063cb5d791514610612578063ce245aed146105da578063d0c2827214610521578063d1b9e853146104ce578063d32a8636146104b1578063d33219b414610489578063d80528ae146103fe578063d904d29b146103b5578063dda610511461037a578063e098372c14610352578063e30c39781461032a578063edf13e9a1461030f578063ee88d8f2146102ed578063f2fde38b14610280578063fb88d136146102635763fbfa77cf14610237575f80fd5b3461025f575f36600319011261025f576004546040516001600160a01b039091168152602090f35b5f80fd5b3461025f575f36600319011261025f576020600e54604051908152f35b3461025f57602036600319011261025f57610299611d62565b6102a1612590565b60018060a01b0316806001600160601b0360a01b600154161760015560018060a01b035f54167f38d16b8cac22d99fc7c124b9cd0de2d3fa1faef420bfe791d8c362d765e227005f80a3005b3461025f575f36600319011261025f57602060ff600a54166040519015158152f35b3461025f575f36600319011261025f576020604051601e8152f35b3461025f575f36600319011261025f576001546040516001600160a01b039091168152602090f35b3461025f575f36600319011261025f576006546040516001600160a01b039091168152602090f35b3461025f57606036600319011261025f576103a3610396611d8e565b60443590602435906125f9565b60408051928352901515602083015290f35b3461025f57608036600319011261025f5760806103e46103d3611d8e565b606435906044359060243590611eac565b916040519315158452602084015260408301526060820152f35b3461025f575f36600319011261025f57600d54600e54600f54601054601154600c54949392909190851561047e575f19860195861161046a57600a61044460c097611d9e565b500154935b604051958652602086015260408501526060840152608083015260a0820152f35b634e487b7160e01b5f52601160045260245ffd5b60c095505f93610449565b3461025f575f36600319011261025f576002546040516001600160a01b039091168152602090f35b3461025f575f36600319011261025f576020601054604051908152f35b3461025f57604036600319011261025f576104e7611d62565b6024359081151580920361025f576104fd612590565b60018060a01b03165f52600960205260405f209060ff801983541691161790555f80f35b3461025f57602036600319011261025f57600435600c5481101561025f5761054b61018091611d9e565b5060ff81541690600181015490600281015460038201546004830154600584015460068501549060078601549260088701549460018060a01b0360098901541696600b600a8a0154990154996040519b8c5260208c015260408b015260608a0152608089015260a088015260c087015260e0860152610100850152610120840152610140830152610160820152f35b3461025f57602036600319011261025f5760043580151580910361025f57610600612590565b60ff8019600a5416911617600a555f80f35b3461025f575f36600319011261025f5761062a612590565b6106326125a3565b6040516370a0823160e01b81523060048201527f0000000000000000000000000000000000000000000000000000000000000000906020816024816001600160a01b0386165afa9081156106f1575f916106bf575b50806106a1575b60015f80516020612a0083398151915255005b5f546106b8926001600160a01b0390911690612953565b808061068e565b90506020813d6020116106e9575b816106da60209383611e36565b8101031261025f575182610687565b3d91506106cd565b6040513d5f823e3d90fd5b3461025f57602036600319011261025f57610715611d62565b61071d612590565b6001600160a01b03168015610743576001600160601b0360a01b60025416176002555f80f35b60405162461bcd60e51b815260206004820152601a60248201527f496e7465726e616c4172623a207a65726f2074696d656c6f636b0000000000006044820152606490fd5b3461025f575f36600319011261025f576020604051670de0b6b3a76400008152f35b3461025f575f36600319011261025f576020604051603c8152f35b3461025f575f36600319011261025f576003546040516001600160a01b039091168152602090f35b3461025f575f36600319011261025f576020604051600f8152f35b3461025f57602036600319011261025f576004355f52600b602052602060405f2054604051908152f35b3461025f575f36600319011261025f575f546040516001600160a01b039091168152602090f35b3461025f575f36600319011261025f576040517f00000000000000000000000000000000000000000000000000000000000000006001600160a01b03168152602090f35b3461025f575f36600319011261025f576108b5612590565b6108bd6125db565b6001805460ff60a01b1916600160a01b1790556040513381527f62e78cea01bee320cd4e420270b5ea74000d11b0c9f74754ebdbfc544b05a25890602090a1005b3461025f575f36600319011261025f576007546040516001600160a01b039091168152602090f35b3461025f575f36600319011261025f57602060405160018152f35b3461025f575f36600319011261025f57600154336001600160a01b03909116036109b357600180546001600160a01b03199081169091555f805433928116831782556001600160a01b0316907f8be0079c531659141344cd1fd0a4f28419497f9722a3daafe3b4186f6b6457e09080a3005b63118cdaa760e01b5f523360045260245ffd5b3461025f575f36600319011261025f576109de612590565b600180546001600160a01b03199081169091555f80549182168155906001600160a01b03167f8be0079c531659141344cd1fd0a4f28419497f9722a3daafe3b4186f6b6457e08280a3005b3461025f575f36600319011261025f576005546040516001600160a01b039091168152602090f35b3461025f575f36600319011261025f57602060405164174876e8008152f35b3461025f57602036600319011261025f576004355f610160604051610a9481611e19565b8281528260208201528260408201528260608201528260808201528260a08201528260c08201528260e08201528261010082015282610120820152826101408201520152600c54811015610bf057610aee61018091611d9e565b50604051610afb81611e19565b8060ff8354169283825260018101546020830190815260028201546040840190815260038301546060850190815260048401546080860190815260058501549060a0870191825260068601549260c0880193845260078701549460e089019586526008880154966101008a01978852610160600b60018060a01b0360098c0154169a6101208d019b8c52610140600a8201549d019c8d5201549b019a8b526040519b8c525160208c01525160408b01525160608a01525160808901525160a08801525160c08701525160e08601525161010085015260018060a01b039051166101208401525161014083015251610160820152f35b60405162461bcd60e51b815260206004820152601960248201527f496e7465726e616c4172623a206f7574206f662072616e6765000000000000006044820152606490fd5b3461025f5760a036600319011261025f57610c4e611d8e565b602435604435906064359160843593610c656125a3565b610c6d6125db565b8390335f52600960205260ff60405f20541680156111d5575b156111905760ff811694600186148015611186575b1561114957845f52600b60205260405f2054601e810180911161046a57421061110c5715611055575b81156110175764174876e8008211610fd2578284610ce1926125f9565b939095600f8710610f4557817fb2654c8ba65e26c575593e8f2443119d150f6e6f9f40d0a239971f93734cf7908660209899610d3160405192839283909291602090604083019483521515910152565b0390a28015610f3b575b60405196610d4888611de9565b875285870194828652604088019485526060880184815260808901911515825260a0890192835260c0890193338552805f52600b89524260405f205560016012546101008260a81b033060081b16906affffffffffffffffffffff60a81b16171760125560135560018060a01b0360035416956040519760ff8a8a019b51168b5251604089015251606088015251608087015251151560a08601525160c085015260018060a01b0390511660e084015260e08352610e0861010084611e36565b5f60a4604051809781968295632e7ff4ef60e11b845230600485015260018060a01b037f00000000000000000000000000000000000000000000000000000000000000001660248501526044840152608060648401525180918160848501528484015e8181018301849052601f01601f191681010301925af19081156106f1575f91610f01575b50601280546001600160a81b03191690555f60135515610ebc5760015f80516020612a0083398151915255005b60405162461bcd60e51b815260206004820152601e60248201527f496e7465726e616c4172623a20666c617368206c6f616e206661696c656400006044820152606490fd5b90506020813d602011610f33575b81610f1c60209383611e36565b8101031261025f57610f2d90611e9f565b81610e8f565b3d9150610f0f565b50620f4240610d3b565b507f92467c393f1b51bd8f064a34a47fa670ce38715e817a495deef805815e19a83d606060405160208152600d60208201526c19d85c081d1bdbc81cdb585b1b609a1b6040820152a2606460405162461bcd60e51b815260206004820152602060248201527f496e7465726e616c4172623a206761702062656c6f77207468726573686f6c646044820152fd5b60405162461bcd60e51b815260206004820152601b60248201527f496e7465726e616c4172623a2073697a6520746f6f206c6172676500000000006044820152606490fd5b60405162461bcd60e51b8152602060048201526016602482015275496e7465726e616c4172623a207a65726f2073697a6560501b6044820152606490fd5b60035460405163613255ab60e01b81526001600160a01b037f0000000000000000000000000000000000000000000000000000000000000000811660048301529293509160209183916024918391165afa80156106f1575f906110d9575b600a91500464174876e80081105f146110cd575b90610cc4565b5064174876e8006110c7565b506020813d602011611104575b816110f360209383611e36565b8101031261025f57600a90516110b3565b3d91506110e6565b60405162461bcd60e51b815260206004820152601560248201527424b73a32b93730b620b9311d1031b7b7b63237bbb760591b6044820152606490fd5b60405162461bcd60e51b8152602060048201526015602482015274496e7465726e616c4172623a20626164207479706560581b6044820152606490fd5b5060028614610c9b565b60405162461bcd60e51b815260206004820152601760248201527f496e7465726e616c4172623a206e6f74206b65657065720000000000000000006044820152606490fd5b5060ff600a5416610c86565b3461025f575f36600319011261025f576020604051611b588152f35b3461025f575f36600319011261025f57602060ff60015460a01c166040519015158152f35b3461025f575f36600319011261025f5760206040516107d08152f35b3461025f575f36600319011261025f57602060405160028152f35b3461025f575f36600319011261025f576020601154604051908152f35b3461025f575f36600319011261025f5760206040516103e88152f35b3461025f575f36600319011261025f576112aa612590565b60015460ff8160a01c16156112f15760ff60a01b19166001556040513381527f5db9ee0a495bf2e6ff9c91a7834c1ba4fdd244a5e8aa4e537bd38aeae4b073aa90602090a1005b638dfc202b60e01b5f5260045ffd5b3461025f575f36600319011261025f576008546040516001600160a01b039091168152602090f35b3461025f57602036600319011261025f576001600160a01b03611349611d62565b165f526009602052602060ff60405f2054166040519015158152f35b3461025f575f36600319011261025f576020600d54604051908152f35b3461025f575f36600319011261025f576020604051620f42408152f35b3461025f575f36600319011261025f576020600c54604051908152f35b3461025f575f36600319011261025f5760206040516127108152f35b3461025f5760c036600319011261025f576113f1611d62565b6113f9611d78565b6044356001600160a01b0381169081900361025f576064356001600160a01b038116919082900361025f576084356001600160a01b038116939084900361025f5760a4356001600160a01b038116959086900361025f57611458612590565b6001600160a01b031680611536575b506001600160a01b03168061151d575b5080611504575b50806114eb575b50806114d2575b50806114b9575b7f4d274ff815272560691f96e4e8e2b1815fe0ed5cf51a48378867924c0e3623e05f80a1005b6001600160601b0360a01b600854161760085580611493565b6001600160601b0360a01b60075416176007558161148c565b6001600160601b0360a01b600654161760065582611485565b6001600160601b0360a01b60055416176005558361147e565b6001600160601b0360a01b600454161760045584611477565b6001600160601b0360a01b600354161760035585611467565b3461025f5760a036600319011261025f57611568611d62565b611570611d78565b90604435606435906084359267ffffffffffffffff841161025f573660238501121561025f57836004013567ffffffffffffffff811161025f5784019036602483011161025f576003546001600160a01b03163303611d0357306001600160a01b0390911603611cbe576001600160a01b037f00000000000000000000000000000000000000000000000000000000000000008181169690929116869003611c815760ff6012541615611c325760e0908590031261025f576040519161163583611de9565b602485013560ff8116810361025f5783526044850135602084015260408301606486013581526084860135606085015260a4860135801515810361025f576080850190815260c487013560a086019081529660e401356001600160a01b038116810361025f5760c08601526116aa8684611e58565b97604051916370a0823160e01b8352306004840152602083602481855afa9283156106f1575f93611bfe575b50865160ff16600103611a8e5760055484516040805163d8a8d90160e01b815260048101929092526001600160a01b038581166024840152600189901c6044840181905294929316919083606481855afa9283156106f1575f93611a5c575b508215611a175751611960575b505050602492506020905b6040516370a0823160e01b815230600482015293849182905afa9182156106f1575f9261192c575b508082106118e75761178b611792918993611e74565b9283611e58565b106118a2578084151580611898575b1561184a5750836117b191611e74565b935b518410611805576003546117db956117d69290916001600160a01b031690612069565b6121a0565b60206040517f439148f0bbc682ca079e46d6e2c2f0c1e3b820f1a291b069d8882abf8cf18dd98152f35b60405162461bcd60e51b815260206004820152601d60248201527f496e7465726e616c4172623a2062656c6f77206d696e2070726f6669740000006044820152606490fd5b94908411156117b35760405162461bcd60e51b815260206004820152601f60248201527f496e7465726e616c4172623a2066656520657863656564732070726f666974006044820152606490fd5b50848210156117a1565b60405162461bcd60e51b815260206004820152601960248201527f496e7465726e616c4172623a2063616e6e6f74207265706179000000000000006044820152606490fd5b60405162461bcd60e51b815260206004820152601b60248201527f496e7465726e616c4172623a20617262206c6f7374206d6f6e657900000000006044820152606490fd5b9091506020813d602011611958575b8161194860209383611e36565b8101031261025f57519088611775565b3d915061193b565b8261196b9189612069565b60018060a01b03600554169451946063820291820460630361046a576040516327af72e760e11b815260048101969096526001600160a01b0384166024870152604486019290925260649081900490850152306084850152602090849060a49082905f905af19081156106f1576024936020926119ea575b8192611742565b611a0990833d8511611a10575b611a018183611e36565b810190611e65565b508a6119e3565b503d6119f7565b60405162461bcd60e51b815260206004820152601e60248201527f496e7465726e616c4172623a206e6f2073706f74206c697175696469747900006044820152606490fd5b611a7f91935060403d604011611a87575b611a778183611e36565b810190612053565b50918d611735565b503d611a6d565b5091516005546040805163d8a8d90160e01b8152600481018490526001600160a01b0380871660248301526044820188905290959392169085606481845afa9485156106f1575f95611bdc575b508415611b875785611aed9188612069565b6005546001600160a01b0316936062808202918204900361046a576040516327af72e760e11b815260048101929092526001600160a01b0383166024830152604482018690526064908190049082015230608482015292602090849060a49082905f905af19081156106f157602493602092611b6a575b5061174d565b611b8090833d8511611a1057611a018183611e36565b508a611b64565b60405162461bcd60e51b815260206004820152602760248201527f496e7465726e616c4172623a206e6f206c697175696469747920696e20636865604482015266185c081c1bdbdb60ca1b6064820152608490fd5b611bf691955060403d604011611a8757611a778183611e36565b50938b611adb565b9092506020813d602011611c2a575b81611c1a60209383611e36565b8101031261025f5751918a6116d6565b3d9150611c0d565b60405162461bcd60e51b815260206004820152602160248201527f496e7465726e616c4172623a206e6f7420696e20666c61736820636f6e7465786044820152601d60fa1b6064820152608490fd5b60405162461bcd60e51b8152602060048201526015602482015274496e7465726e616c4172623a206e6f74205553444360581b6044820152606490fd5b60405162461bcd60e51b815260206004820152601a60248201527f496e7465726e616c4172623a2062616420696e69746961746f720000000000006044820152606490fd5b60405162461bcd60e51b815260206004820152601d60248201527f496e7465726e616c4172623a206e6f7420666c617368206c656e6465720000006044820152606490fd5b3461025f575f36600319011261025f57602090600f548152f35b600435906001600160a01b038216820361025f57565b602435906001600160a01b038216820361025f57565b6004359060ff8216820361025f57565b600c54811015611dd557600c5f81815291027fdf6966c971051c3d54ec59162606531493a51404a002842f56009d7e5cf4a8c70191565b634e487b7160e01b5f52603260045260245ffd5b60e0810190811067ffffffffffffffff821117611e0557604052565b634e487b7160e01b5f52604160045260245ffd5b610180810190811067ffffffffffffffff821117611e0557604052565b90601f8019910116810190811067ffffffffffffffff821117611e0557604052565b9190820180921161046a57565b9081602091031261025f575190565b9190820391821161046a57565b8115611e8b570490565b634e487b7160e01b5f52601260045260245ffd5b5190811515820361025f57565b90611eba92919493946125f9565b5080600f81106120475750821591838202848104831484171561046a57600354604051633676633960e21b81526001600160a01b037f00000000000000000000000000000000000000000000000000000000000000008116600483018190526024830189905297921695612710909304929091906020836044818a5afa9283156106f1575f93612013575b50600a8202918204600a14171561046a57612710900491611f668383611e58565b81111561200557611f809291611f7b91611e74565b611e74565b926020620f42408510159560246040518094819363613255ab60e01b835260048301525afa80156106f1575f90611fd2575b600a91500464174876e80081105f14611fc85790565b5064174876e80090565b506020813d602011611ffd575b81611fec60209383611e36565b8101031261025f57600a9051611fb2565b3d9150611fdf565b505f95508594508492915050565b9092506020813d60201161203f575b8161202f60209383611e36565b8101031261025f5751915f611f45565b3d9150612022565b5f935083929091508290565b919082604091031261025f576020825192015190565b916040519163095ea7b360e01b5f5260018060a01b031691826004528160245260205f60448180885af19060015f5114821615612191575b604052156120ae57505050565b60405163095ea7b360e01b5f52826004525f60245260205f60448180885af19060015f5114821615612179575b6040521561215b576040519163095ea7b360e01b5f5260045260245260205f60448180865af19060015f511482161561213a575b6040521561211a5750565b635274afe760e01b5f9081526001600160a01b0391909116600452602490fd5b90600181151661215257823b15153d1516169061210f565b503d5f823e3d90fd5b635274afe760e01b5f9081526001600160a01b038416600452602490fd5b90600181151661215257843b15153d151616906120db565b90843b15153d151616906120a1565b91905f821561258a57611b58830290838204611b580361046a576107d084028481046107d00361046a576121e06127108204611f7b612710860488611e74565b9161271084046124fb575b612710820461249d575b82151580612487575b612448575b61220f86600d54611e58565b600d55600e546001810180911161243457600e556122336127108504600f54611e58565b600f556122466127108304601054611e58565b60105561225583601154611e58565b601155600c549460ff8851169060208901519060608a0151612277828b611e58565b9060018060a01b0360c08d015116936040519561229387611e19565b865260208601526040850152606084015260808301528760a0830152612710860460c0830152612710840460e0830152846101008301526101208201524261014082015243610160820152680100000000000000008610156124205760018601600c556122ff86611d9e565b92909261240c57507f44c41a49d5c804231cbe9da15068d2690a55c9afb5c0607a5971e2d87dc4f631949260c09492600b6101608460ff61271096511660ff198554161784556020810151600185015560408101516002850155606081015160038501556080810151600485015560a0810151600585015588810151600685015560e0810151600785015561010081015160088501556009840160018060a01b03610120830151166001600160601b0360a01b825416179055610140810151600a85015501519101558160ff8a51169460208b01519960608c01519b8860018060a01b03910151169b6040519788526020880152604087015204606085015204608083015260a0820152a4565b634e487b7160e01b81526004819052602490fd5b634e487b7160e01b82526041600452602482fd5b634e487b7160e01b82526011600452602482fd5b60c08701516124829084906001600160a01b03167f0000000000000000000000000000000000000000000000000000000000000000612953565b612203565b5060c08701516001600160a01b031615156121fe565b6004546001600160a01b0316803b156124f757818080926024604051809481936352ac183b60e01b83526127108a0460048401525af16124df575b50506121f5565b816124e991611e36565b6124f457805f6124d8565b80fd5b5080fd5b600854612537906127108604906001600160a01b03167f0000000000000000000000000000000000000000000000000000000000000000612069565b6008546001600160a01b0316803b1561025f575f80916024604051809481936302102c9760e11b83526127108b0460048401525af1612577575b506121eb565b61258391505f90611e36565b5f80612571565b50505050565b5f546001600160a01b031633036109b357565b60025f80516020612a0083398151915254146125cc5760025f80516020612a0083398151915255565b633ee5aeb560e01b5f5260045ffd5b60ff60015460a01c166125ea57565b63d93c066560e01b5f5260045ffd5b91929160ff1660010361282e57600754604080516331d98b3f60e01b815260048101849052945090849060249082906001600160a01b03165afa80156106f1575f935f91612803575b5061264f603c9142611e74565b116127be576006546001600160a01b0316908115612782575f90602460405180948193637564912b60e01b835260048301525afa9081156106f1575f905f926126de575b5080156126d457670de0b6b3a7640000820291808304670de0b6b3a7640000149015171561046a576126c491611e81565b916126cf8382612992565b921090565b505090505f905f90565b9150503d805f833e6126f08183611e36565b81016101808282031261025f57602082015167ffffffffffffffff811161025f57820181601f8201121561025f57805167ffffffffffffffff8111611e055760405192612747601f8301601f191660200185611e36565b8184526020828401011161025f575f928160208094018483015e010152604081015161277b61016060608401519301611e9f565b505f612693565b60405162461bcd60e51b8152602060048201526014602482015273496e7465726e616c4172623a206e6f2076414d4d60601b6044820152606490fd5b60405162461bcd60e51b815260206004820152601960248201527f496e7465726e616c4172623a207374616c65206f7261636c65000000000000006044820152606490fd5b61264f9450603c91506128249060403d604011611a8757611a778183611e36565b9490949150612642565b506005546040805163d8a8d90160e01b8152600481018590526001600160a01b037f0000000000000000000000000000000000000000000000000000000000000000811660248301819052633b9aca00604484015291959316929185606481865afa9485156106f1575f95612931575b506001820180921161046a5760646040928351948593849263d8a8d90160e01b845260048401526024830152633b9aca0060448301525afa9081156106f1575f91612911575b5082158015612909575b612901576128fc8184612992565b921190565b505f91508190565b5080156128ee565b61292a915060403d604011611a8757611a778183611e36565b505f6128e4565b61294b91955060403d604011611a8757611a778183611e36565b50935f61289e565b916040519163a9059cbb60e01b5f5260018060a01b031660045260245260205f60448180865af19060015f511482161561213a576040521561211a5750565b90811580156129f7575b6129f157806129bf91831192835f146129ea5780935b156129e157508092611e74565b90612710820291808304612710149015171561046a576129de91611e81565b90565b90508092611e74565b81936129b2565b50505f90565b50801561299c56fe9b779b17422d0df92223018b32b4d1fa46e071723d6817e2486d003becc55f00a2646970667358221220d810ff85bf20a36b64f2a55a02fbdb383cbf4e90025b24bb0cdd2252f47618f664736f6c634300081a0033",
  "linkReferences": {},
  "deployedLinkReferences": {}
}