{
  "_format": "hh-sol-artifact-1",
  "contractName": "WikiPermissionlessMarkets",
  "sourceName": "src/WikiPermissionlessMarkets.sol",
  "abi": [
    {
      "inputs": [
        {
          "internalType": "address",
          "name": "_usdc",
          "type": "address"
        },
        {
          "internalType": "address",
          "name": "_owner",
          "type": "address"
        }
      ],
      "stateMutability": "nonpayable",
      "type": "constructor"
    },
    {
      "inputs": [
        {
          "internalType": "address",
          "name": "owner",
          "type": "address"
        }
      ],
      "name": "OwnableInvalidOwner",
      "type": "error"
    },
    {
      "inputs": [
        {
          "internalType": "address",
          "name": "account",
          "type": "address"
        }
      ],
      "name": "OwnableUnauthorizedAccount",
      "type": "error"
    },
    {
      "inputs": [],
      "name": "ReentrancyGuardReentrantCall",
      "type": "error"
    },
    {
      "inputs": [
        {
          "internalType": "address",
          "name": "token",
          "type": "address"
        }
      ],
      "name": "SafeERC20FailedOperation",
      "type": "error"
    },
    {
      "anonymous": false,
      "inputs": [
        {
          "indexed": true,
          "internalType": "uint256",
          "name": "id",
          "type": "uint256"
        },
        {
          "indexed": false,
          "internalType": "address",
          "name": "creator",
          "type": "address"
        },
        {
          "indexed": false,
          "internalType": "uint256",
          "name": "bondReturned",
          "type": "uint256"
        }
      ],
      "name": "MarketClosed",
      "type": "event"
    },
    {
      "anonymous": false,
      "inputs": [
        {
          "indexed": true,
          "internalType": "uint256",
          "name": "id",
          "type": "uint256"
        },
        {
          "indexed": true,
          "internalType": "address",
          "name": "creator",
          "type": "address"
        },
        {
          "indexed": false,
          "internalType": "string",
          "name": "symbol",
          "type": "string"
        },
        {
          "indexed": false,
          "internalType": "uint256",
          "name": "bond",
          "type": "uint256"
        }
      ],
      "name": "MarketListed",
      "type": "event"
    },
    {
      "anonymous": false,
      "inputs": [
        {
          "indexed": true,
          "internalType": "uint256",
          "name": "id",
          "type": "uint256"
        },
        {
          "indexed": false,
          "internalType": "uint256",
          "name": "slashAmount",
          "type": "uint256"
        }
      ],
      "name": "MarketSlashed",
      "type": "event"
    },
    {
      "anonymous": false,
      "inputs": [
        {
          "indexed": true,
          "internalType": "address",
          "name": "previousOwner",
          "type": "address"
        },
        {
          "indexed": true,
          "internalType": "address",
          "name": "newOwner",
          "type": "address"
        }
      ],
      "name": "OwnershipTransferStarted",
      "type": "event"
    },
    {
      "anonymous": false,
      "inputs": [
        {
          "indexed": true,
          "internalType": "address",
          "name": "previousOwner",
          "type": "address"
        },
        {
          "indexed": true,
          "internalType": "address",
          "name": "newOwner",
          "type": "address"
        }
      ],
      "name": "OwnershipTransferred",
      "type": "event"
    },
    {
      "anonymous": false,
      "inputs": [
        {
          "indexed": true,
          "internalType": "uint256",
          "name": "id",
          "type": "uint256"
        },
        {
          "indexed": false,
          "internalType": "uint256",
          "name": "amount",
          "type": "uint256"
        }
      ],
      "name": "ProtocolFeesCollected",
      "type": "event"
    },
    {
      "anonymous": false,
      "inputs": [
        {
          "indexed": true,
          "internalType": "uint256",
          "name": "id",
          "type": "uint256"
        },
        {
          "indexed": false,
          "internalType": "uint256",
          "name": "amount",
          "type": "uint256"
        },
        {
          "indexed": false,
          "internalType": "uint256",
          "name": "total30d",
          "type": "uint256"
        }
      ],
      "name": "VolumeRecorded",
      "type": "event"
    },
    {
      "inputs": [],
      "name": "BOND_AMOUNT",
      "outputs": [
        {
          "internalType": "uint256",
          "name": "",
          "type": "uint256"
        }
      ],
      "stateMutability": "view",
      "type": "function"
    },
    {
      "inputs": [],
      "name": "BPS",
      "outputs": [
        {
          "internalType": "uint256",
          "name": "",
          "type": "uint256"
        }
      ],
      "stateMutability": "view",
      "type": "function"
    },
    {
      "inputs": [],
      "name": "MIN_CLOSE_DELAY",
      "outputs": [
        {
          "internalType": "uint256",
          "name": "",
          "type": "uint256"
        }
      ],
      "stateMutability": "view",
      "type": "function"
    },
    {
      "inputs": [],
      "name": "MIN_VOLUME_30D",
      "outputs": [
        {
          "internalType": "uint256",
          "name": "",
          "type": "uint256"
        }
      ],
      "stateMutability": "view",
      "type": "function"
    },
    {
      "inputs": [],
      "name": "PROTOCOL_FEE_BPS",
      "outputs": [
        {
          "internalType": "uint256",
          "name": "",
          "type": "uint256"
        }
      ],
      "stateMutability": "view",
      "type": "function"
    },
    {
      "inputs": [],
      "name": "SLASH_BPS",
      "outputs": [
        {
          "internalType": "uint256",
          "name": "",
          "type": "uint256"
        }
      ],
      "stateMutability": "view",
      "type": "function"
    },
    {
      "inputs": [],
      "name": "USDC",
      "outputs": [
        {
          "internalType": "contract IERC20",
          "name": "",
          "type": "address"
        }
      ],
      "stateMutability": "view",
      "type": "function"
    },
    {
      "inputs": [],
      "name": "VOLUME_CHECK_DELAY",
      "outputs": [
        {
          "internalType": "uint256",
          "name": "",
          "type": "uint256"
        }
      ],
      "stateMutability": "view",
      "type": "function"
    },
    {
      "inputs": [],
      "name": "acceptOwnership",
      "outputs": [],
      "stateMutability": "nonpayable",
      "type": "function"
    },
    {
      "inputs": [
        {
          "internalType": "uint256",
          "name": "marketId",
          "type": "uint256"
        }
      ],
      "name": "checkAndSlash",
      "outputs": [],
      "stateMutability": "nonpayable",
      "type": "function"
    },
    {
      "inputs": [
        {
          "internalType": "uint256",
          "name": "marketId",
          "type": "uint256"
        }
      ],
      "name": "closeMarket",
      "outputs": [],
      "stateMutability": "nonpayable",
      "type": "function"
    },
    {
      "inputs": [
        {
          "internalType": "address",
          "name": "",
          "type": "address"
        },
        {
          "internalType": "uint256",
          "name": "",
          "type": "uint256"
        }
      ],
      "name": "creatorMarkets",
      "outputs": [
        {
          "internalType": "uint256",
          "name": "",
          "type": "uint256"
        }
      ],
      "stateMutability": "view",
      "type": "function"
    },
    {
      "inputs": [
        {
          "internalType": "uint256",
          "name": "amount",
          "type": "uint256"
        }
      ],
      "name": "deployIdle",
      "outputs": [],
      "stateMutability": "nonpayable",
      "type": "function"
    },
    {
      "inputs": [
        {
          "internalType": "address",
          "name": "creator",
          "type": "address"
        }
      ],
      "name": "getCreatorMarkets",
      "outputs": [
        {
          "internalType": "uint256[]",
          "name": "",
          "type": "uint256[]"
        }
      ],
      "stateMutability": "view",
      "type": "function"
    },
    {
      "inputs": [
        {
          "internalType": "uint256",
          "name": "id",
          "type": "uint256"
        }
      ],
      "name": "getMarket",
      "outputs": [
        {
          "components": [
            {
              "internalType": "address",
              "name": "creator",
              "type": "address"
            },
            {
              "internalType": "string",
              "name": "symbol",
              "type": "string"
            },
            {
              "internalType": "string",
              "name": "name",
              "type": "string"
            },
            {
              "internalType": "bytes32",
              "name": "oracleId",
              "type": "bytes32"
            },
            {
              "internalType": "address",
              "name": "oracleProvider",
              "type": "address"
            },
            {
              "internalType": "uint256",
              "name": "bondPaid",
              "type": "uint256"
            },
            {
              "internalType": "uint256",
              "name": "createdAt",
              "type": "uint256"
            },
            {
              "internalType": "uint256",
              "name": "volume30d",
              "type": "uint256"
            },
            {
              "internalType": "uint256",
              "name": "totalVolume",
              "type": "uint256"
            },
            {
              "internalType": "uint256",
              "name": "totalFeesEarned",
              "type": "uint256"
            },
            {
              "internalType": "uint256",
              "name": "protocolFees",
              "type": "uint256"
            },
            {
              "internalType": "uint256",
              "name": "maxLeverage",
              "type": "uint256"
            },
            {
              "internalType": "uint256",
              "name": "takerFeeBps",
              "type": "uint256"
            },
            {
              "internalType": "enum WikiPermissionlessMarkets.MarketStatus",
              "name": "status",
              "type": "uint8"
            },
            {
              "internalType": "bool",
              "name": "volumeChecked",
              "type": "bool"
            }
          ],
          "internalType": "struct WikiPermissionlessMarkets.CreatorMarket",
          "name": "",
          "type": "tuple"
        }
      ],
      "stateMutability": "view",
      "type": "function"
    },
    {
      "inputs": [],
      "name": "idleYieldRouter",
      "outputs": [
        {
          "internalType": "contract IIdleYieldRouter",
          "name": "",
          "type": "address"
        }
      ],
      "stateMutability": "view",
      "type": "function"
    },
    {
      "inputs": [
        {
          "internalType": "string",
          "name": "symbol",
          "type": "string"
        },
        {
          "internalType": "string",
          "name": "name",
          "type": "string"
        },
        {
          "internalType": "bytes32",
          "name": "oracleId",
          "type": "bytes32"
        },
        {
          "internalType": "address",
          "name": "oracleProvider",
          "type": "address"
        },
        {
          "internalType": "uint256",
          "name": "maxLeverage",
          "type": "uint256"
        },
        {
          "internalType": "uint256",
          "name": "takerFeeBps",
          "type": "uint256"
        }
      ],
      "name": "listMarket",
      "outputs": [
        {
          "internalType": "uint256",
          "name": "id",
          "type": "uint256"
        }
      ],
      "stateMutability": "nonpayable",
      "type": "function"
    },
    {
      "inputs": [],
      "name": "marketCount",
      "outputs": [
        {
          "internalType": "uint256",
          "name": "",
          "type": "uint256"
        }
      ],
      "stateMutability": "view",
      "type": "function"
    },
    {
      "inputs": [
        {
          "internalType": "uint256",
          "name": "",
          "type": "uint256"
        }
      ],
      "name": "markets",
      "outputs": [
        {
          "internalType": "address",
          "name": "creator",
          "type": "address"
        },
        {
          "internalType": "string",
          "name": "symbol",
          "type": "string"
        },
        {
          "internalType": "string",
          "name": "name",
          "type": "string"
        },
        {
          "internalType": "bytes32",
          "name": "oracleId",
          "type": "bytes32"
        },
        {
          "internalType": "address",
          "name": "oracleProvider",
          "type": "address"
        },
        {
          "internalType": "uint256",
          "name": "bondPaid",
          "type": "uint256"
        },
        {
          "internalType": "uint256",
          "name": "createdAt",
          "type": "uint256"
        },
        {
          "internalType": "uint256",
          "name": "volume30d",
          "type": "uint256"
        },
        {
          "internalType": "uint256",
          "name": "totalVolume",
          "type": "uint256"
        },
        {
          "internalType": "uint256",
          "name": "totalFeesEarned",
          "type": "uint256"
        },
        {
          "internalType": "uint256",
          "name": "protocolFees",
          "type": "uint256"
        },
        {
          "internalType": "uint256",
          "name": "maxLeverage",
          "type": "uint256"
        },
        {
          "internalType": "uint256",
          "name": "takerFeeBps",
          "type": "uint256"
        },
        {
          "internalType": "enum WikiPermissionlessMarkets.MarketStatus",
          "name": "status",
          "type": "uint8"
        },
        {
          "internalType": "bool",
          "name": "volumeChecked",
          "type": "bool"
        }
      ],
      "stateMutability": "view",
      "type": "function"
    },
    {
      "inputs": [],
      "name": "owner",
      "outputs": [
        {
          "internalType": "address",
          "name": "",
          "type": "address"
        }
      ],
      "stateMutability": "view",
      "type": "function"
    },
    {
      "inputs": [],
      "name": "pendingOwner",
      "outputs": [
        {
          "internalType": "address",
          "name": "",
          "type": "address"
        }
      ],
      "stateMutability": "view",
      "type": "function"
    },
    {
      "inputs": [
        {
          "internalType": "uint256",
          "name": "amount",
          "type": "uint256"
        },
        {
          "internalType": "string",
          "name": "reason",
          "type": "string"
        }
      ],
      "name": "recallIdle",
      "outputs": [],
      "stateMutability": "nonpayable",
      "type": "function"
    },
    {
      "inputs": [
        {
          "internalType": "uint256",
          "name": "marketId",
          "type": "uint256"
        },
        {
          "internalType": "uint256",
          "name": "notional",
          "type": "uint256"
        },
        {
          "internalType": "uint256",
          "name": "feeCollected",
          "type": "uint256"
        }
      ],
      "name": "recordTrade",
      "outputs": [],
      "stateMutability": "nonpayable",
      "type": "function"
    },
    {
      "inputs": [],
      "name": "renounceOwnership",
      "outputs": [],
      "stateMutability": "nonpayable",
      "type": "function"
    },
    {
      "inputs": [
        {
          "internalType": "address",
          "name": "router",
          "type": "address"
        }
      ],
      "name": "setIdleYieldRouter",
      "outputs": [],
      "stateMutability": "nonpayable",
      "type": "function"
    },
    {
      "inputs": [
        {
          "internalType": "address",
          "name": "_tl",
          "type": "address"
        }
      ],
      "name": "setTimelock",
      "outputs": [],
      "stateMutability": "nonpayable",
      "type": "function"
    },
    {
      "inputs": [],
      "name": "timelock",
      "outputs": [
        {
          "internalType": "address",
          "name": "",
          "type": "address"
        }
      ],
      "stateMutability": "view",
      "type": "function"
    },
    {
      "inputs": [],
      "name": "totalBondRevenue",
      "outputs": [
        {
          "internalType": "uint256",
          "name": "",
          "type": "uint256"
        }
      ],
      "stateMutability": "view",
      "type": "function"
    },
    {
      "inputs": [],
      "name": "totalProtocolFeeRevenue",
      "outputs": [
        {
          "internalType": "uint256",
          "name": "",
          "type": "uint256"
        }
      ],
      "stateMutability": "view",
      "type": "function"
    },
    {
      "inputs": [],
      "name": "totalSlashRevenue",
      "outputs": [
        {
          "internalType": "uint256",
          "name": "",
          "type": "uint256"
        }
      ],
      "stateMutability": "view",
      "type": "function"
    },
    {
      "inputs": [
        {
          "internalType": "address",
          "name": "newOwner",
          "type": "address"
        }
      ],
      "name": "transferOwnership",
      "outputs": [],
      "stateMutability": "nonpayable",
      "type": "function"
    },
    {
      "inputs": [
        {
          "internalType": "address",
          "name": "to",
          "type": "address"
        }
      ],
      "name": "withdrawRevenue",
      "outputs": [],
      "stateMutability": "nonpayable",
      "type": "function"
    }
  ],
  "bytecode": "0x60a03461016857601f611ebf38819003918201601f19168301916001600160401b0383118484101761016c5780849260409485528339810103126101685761004681610180565b906001600160a01b039061005c90602001610180565b1690811561015557600180546001600160a01b03199081169091555f80549182168417815560405193916001600160a01b0316907f8be0079c531659141344cd1fd0a4f28419497f9722a3daafe3b4186f6b6457e09080a360017f9b779b17422d0df92223018b32b4d1fa46e071723d6817e2486d003becc55f00556001600160a01b03169081156101205750608052604051611d2a9081610195823960805181818161069a01528181610e6d015281816111570152818161138e01526117590152f35b62461bcd60e51b815260206004820152601060248201526f57696b693a207a65726f205f7573646360801b6044820152606490fd5b631e4fbdf760e01b5f525f60045260245ffd5b5f80fd5b634e487b7160e01b5f52604160045260245ffd5b51906001600160a01b03821682036101685756fe6080806040526004361015610012575f80fd5b5f905f3560e01c908163087f41341461191c57508063249d39e91461190057806341bf472b146118e35780634d6de4b6146117ea5780635a333b6c146117cd5780635e420f4c146116af57806360b6221e14611690578063715018a61461162d57806379ba5097146115a85780637be613ca146115655780637e3fef021461153d57806385eb2972146113bd57806389a30271146113795780638da5cb5b14611352578063933cd8de1461133657806396dcf74e14611282578063ae418095146110a2578063b1283e7714610f82578063b58e431614610df9578063ba1f519514610da2578063bcacc70a14610d82578063bdacb30314610cfb578063be37822814610cde578063c3be2fe1146105cf578063d33219b4146105a6578063dcf13a9614610588578063e30c39781461055f578063e6bc01a214610475578063eb44fdd314610229578063ec9790821461020b578063ecbb7784146101ed5763f2fde38b1461017e575f80fd5b346101ea5760203660031901126101ea57610197611936565b61019f611c40565b600180546001600160a01b0319166001600160a01b0392831690811790915582549091167f38d16b8cac22d99fc7c124b9cd0de2d3fa1faef420bfe791d8c362d765e227008380a380f35b80fd5b50346101ea57806003193601126101ea5760206040516276a7008152f35b50346101ea57806003193601126101ea576020600354604051908152f35b50346101ea5760203660031901126101ea57806101c060405161024b816119b4565b82815260606020820152606060408201528260608201528260808201528260a08201528260c08201528260e08201528261010082015282610120820152826101408201528261016082015282610180820152826101a082015201526102b160043561194c565b50604051906102bf826119b4565b80546001600160a01b031682526102d860018201611a07565b91602081019283526102ec60028301611a07565b93604082019485526003830154926060830193845260018060a01b0360048201541660808401908152600582015460a08501908152600683015460c08601908152600784015460e0870190815260088501549061010088019182526009860154926101208901938452600a870154946101408a01958652600b880154966101608b01978852600d600c8a0154996101808d019a8b5201549a60ff8c166101a082019b600482101561046157508b526101c081019b60081c60ff1615158c526040519e8f9e8f9260208452600160a01b60019003905116602084015251604083016101e0905261020083016103df91611aa7565b9051828203601f190160608401526103f79190611aa7565b9c51608090910152516001600160a01b031660a08d01525160c08c01525160e08b0152516101008a015251610120890152516101408801525161016087015251610180860152516101a085015251610454906101c0850190611acb565b5115156101e08301520390f35b634e487b7160e01b81526021600452602490fd5b50346101ea5760403660031901126101ea578060243567ffffffffffffffff811161055c576104a8903690600401611aed565b82546001600160a01b031633148015610548575b6104c590611b65565b6008546001600160a01b031691826104dc57505050f35b823b1561054357610516928492836040518096819582946338d44ad560e01b84526004356004850152604060248501526044840191611be8565b03925af18015610538576105275750f35b81610531916119e5565b6101ea5780f35b6040513d84823e3d90fd5b505050fd5b506008546001600160a01b031633146104bc565b50fd5b50346101ea57806003193601126101ea576001546040516001600160a01b039091168152602090f35b50346101ea57806003193601126101ea576020600554604051908152f35b50346101ea57806003193601126101ea576002546040516001600160a01b039091168152602090f35b50346101ea5760c03660031901126101ea5760043567ffffffffffffffff8111610cda57610601903690600401611aed565b60249291923567ffffffffffffffff8111610cd657610624903690600401611aed565b9092906064356001600160a01b0381169190829003610cd65760a43560843561064b611c08565b85151580610ccb575b15610c9557600181101580610c89575b15610c4457600582101580610c39575b15610c06576040516323b872dd60e01b865233600452306024526402540be400604452937f000000000000000000000000000000000000000000000000000000000000000060208760648180855af16001885114811615610be7575b866040528760605215610bcc57506005546402540be4008101809111610bb85760055561072060035498610703876119b4565b338752610711368a8d611ba2565b95602088019687523691611ba2565b6040860152604435606086015260808501526402540be40060a08501524260c08501528460e085015284610100850152846101208501528461014085015261016084015261018083015260016101a0830152826101c0830152600160401b851015610ba457600185016003556107958561194c565b919091610b9057825182546001600160a01b0319166001600160a01b03919091161782555180519067ffffffffffffffff8211610ab95781906107db600185015461197c565b601f8111610b40575b50602090601f8311600114610ad8578692610acd575b50508160011b915f199060031b1c19161760018201555b604082015180519067ffffffffffffffff8211610ab957610835600284015461197c565b601f8111610a75575b50602090601f8311600114610a0757600d9392918691836109fc575b50508160011b915f199060031b1c19161760028201555b606083015160038201556080830151600480830180546001600160a01b0319166001600160a01b03939093169290921790915560a0840151600583015560c0840151600683015560e0840151600783015561010084015160088301556101208401516009830155610140840151600a830155610160840151600b830155610180840151600c8301556101a0840151929091019291908110156109e85782546101c09092015161ffff1990921660ff9091161790151560081b61ff0016179055338152600460205260408120805491600160401b8310156109d457506109aa602095610984847f5f7e4013aa74a5d86483db4c0cbdf0c239840d164c404cf1cb9919b8fa701a2d9460018997018155611ad8565b81549060031b9086821b915f19901b191617905560405194604086526040860191611be8565b926402540be400868201528033940390a360015f80516020611cd583398151915255604051908152f35b634e487b7160e01b81526041600452602490fd5b634e487b7160e01b84526021600452602484fd5b015190505f8061085a565b9060028401865280862091865b601f1985168110610a5d5750918391600193600d9695601f19811610610a45575b505050811b016002820155610871565b01515f1960f88460031b161c191690555f8080610a35565b91926020600181928685015181550194019201610a14565b60028401865260208620601f840160051c810160208510610ab2575b601f830160051c82018110610aa757505061083e565b878155600101610a91565b5080610a91565b634e487b7160e01b85526041600452602485fd5b015190505f806107fa565b6001850187528187209250601f198416875b818110610b285750908460019594939210610b10575b505050811b016001820155610811565b01515f1960f88460031b161c191690555f8080610b00565b92936020600181928786015181550195019301610aea565b90915060018401865260208620601f840160051c810160208510610b89575b90849392915b601f830160051c82018110610b7b5750506107e4565b888155859450600101610b65565b5080610b5f565b634e487b7160e01b84526004849052602484fd5b634e487b7160e01b83526041600452602483fd5b634e487b7160e01b87526011600452602487fd5b635274afe760e01b87526001600160a01b0316600452602486fd5b6001811516610bfd57813b15153d1516166106d0565b863d89823e3d90fd5b60405162461bcd60e51b815260206004820152600b60248201526a504d3a206261642066656560a81b6044820152606490fd5b506014821115610674565b60405162461bcd60e51b815260206004820152601960248201527f504d3a206d6178206c65766572616765206973203230303078000000000000006044820152606490fd5b506107d0811115610664565b60405162461bcd60e51b815260206004820152600e60248201526d14134e88189859081cde5b589bdb60921b6044820152606490fd5b506014861115610654565b8280fd5b5080fd5b50346101ea57806003193601126101ea5760206040516107d08152f35b50346101ea5760203660031901126101ea57610d15611936565b610d1d611c40565b6001600160a01b03168015610d47576bffffffffffffffffffffffff60a01b600254161760025580f35b60405162461bcd60e51b815260206004820152601360248201527257696b693a207a65726f2074696d656c6f636b60681b6044820152606490fd5b50346101ea57806003193601126101ea5760206040516402540be4008152f35b50346101ea5760403660031901126101ea57610dbc611936565b6001600160a01b03168152600460205260408120805460243592908310156101ea576020610dea8484611ad8565b90549060031b1c604051908152f35b5034610efd576020366003190112610efd5760043560018060a01b035f541633148015610f6e575b610e2a90611b65565b6008546001600160a01b03168015610f385760405163095ea7b360e01b81526001600160a01b03909116600482015260248101829052602081806044810103815f7f00000000000000000000000000000000000000000000000000000000000000006001600160a01b03165af18015610ef257610f01575b506008546001600160a01b031690813b15610efd575f91602483926040519485938492630f6baa0f60e21b845260048401525af18015610ef257610ee4575080f35b610ef091505f906119e5565b005b6040513d5f823e3d90fd5b5f80fd5b6020813d602011610f30575b81610f1a602093836119e5565b81010312610efd57518015158114610ea2575f80fd5b3d9150610f0d565b60405162461bcd60e51b815260206004820152600e60248201526d149bdd5d195c881b9bdd081cd95d60921b6044820152606490fd5b506008546001600160a01b03163314610e21565b34610efd576020366003190112610efd57600435600354811015610efd57610fa99061194c565b5080546001600160a01b0316610fc160018301611a07565b91610fce60028201611a07565b600382015491600160a01b60019003600482015416600582015460068301546007840154600885015490600986015492600a87015494600b88015496600c89015498600d0154996040519d8e9d8e528d602081016101e090526101e00161103491611aa7565b8d810360408f015261104591611aa7565b9a60608d015260808c015260a08b015260c08a015260e08901526101008801526101208701526101408601526101608501526101808401526101a0830160ff82169061109091611acb565b60081c60ff1615156101c08301520390f35b34610efd576020366003190112610efd576004356110be611c08565b6110c78161194c565b5080546001600160a01b0316330361124b57600d81019060ff8254166004811015611237576001811490811561122c575b50156111f25760068101546276a70081018091116111de5742106111a9577f4ab37aa3ad083d23b752ad5c299611fc1049dfda4039018b43b851f8648050599160056111939201905f82549255600360ff1982541617905561117b81337f0000000000000000000000000000000000000000000000000000000000000000611c53565b60408051338152602081019290925290918291820190565b0390a260015f80516020611cd583398151915255005b60405162461bcd60e51b815260206004820152600d60248201526c504d3a20746f6f206561726c7960981b6044820152606490fd5b634e487b7160e01b5f52601160045260245ffd5b60405162461bcd60e51b815260206004820152601260248201527114134e88185b1c9958591e4818db1bdcd95960721b6044820152606490fd5b6002915014846110f8565b634e487b7160e01b5f52602160045260245ffd5b60405162461bcd60e51b815260206004820152600f60248201526e28269d103737ba1031b932b0ba37b960891b6044820152606490fd5b34610efd576020366003190112610efd576001600160a01b036112a3611936565b165f52600460205260405f20604051806020835491828152019081935f5260205f20905f5b81811061132057505050816112de9103826119e5565b604051918291602083019060208452518091526040830191905f5b818110611307575050500390f35b82518452859450602093840193909201916001016112f9565b82548452602090930192600192830192016112c8565b34610efd575f366003190112610efd5760206040516113888152f35b34610efd575f366003190112610efd575f546040516001600160a01b039091168152602090f35b34610efd575f366003190112610efd576040517f00000000000000000000000000000000000000000000000000000000000000006001600160a01b03168152602090f35b34610efd576020366003190112610efd576004356113d9611c08565b6113e28161194c565b50600d810190815460ff811660048110156112375760016114039114611b1b565b60ff8160081c1661150257600682015462278d0081018091116111de5742106114ce5761ff001916610100178255600881015464746a52880011611455575b60015f80516020611cd583398151915255005b600501805491611388830283810461138814841517156111de576127109004908184039384116111de577fd9907e573c6f453026aee12678a80e7c22327a8a4093b649fd9dc1e324b970ca93602093556114b182600754611b58565b600755805460ff19166002179055604051908152a2808080611442565b60405162461bcd60e51b815260206004820152600c60248201526b28269d103a37b79039b7b7b760a11b6044820152606490fd5b60405162461bcd60e51b815260206004820152601360248201527214134e88185b1c9958591e4818da1958dad959606a1b6044820152606490fd5b34610efd575f366003190112610efd576008546040516001600160a01b039091168152602090f35b34610efd576020366003190112610efd5761157e611936565b611586611c40565b600880546001600160a01b0319166001600160a01b0392909216919091179055005b34610efd575f366003190112610efd57600154336001600160a01b039091160361161a57600180546001600160a01b03199081169091555f805433928116831782556001600160a01b0316907f8be0079c531659141344cd1fd0a4f28419497f9722a3daafe3b4186f6b6457e09080a3005b63118cdaa760e01b5f523360045260245ffd5b34610efd575f366003190112610efd57611645611c40565b600180546001600160a01b03199081169091555f80549182168155906001600160a01b03167f8be0079c531659141344cd1fd0a4f28419497f9722a3daafe3b4186f6b6457e08280a3005b34610efd575f366003190112610efd57602060405164746a5288008152f35b34610efd576020366003190112610efd576116c8611936565b6116d0611c40565b6116d8611c08565b5f90815b60035483101561171757611700600191600a6116f78661194c565b50015490611b58565b925f600a61170d8361194c565b50015501916116dc565b60075461172391611b58565b5f60075580156117975760208161177d7f010e71fd89bb93d973685092824ea357641f86cd93dc504320a69ae4ca3bccd6935f957f0000000000000000000000000000000000000000000000000000000000000000611c53565b604051908152a260015f80516020611cd583398151915255005b60405162461bcd60e51b815260206004820152600e60248201526d504d3a206e6f20726576656e756560901b6044820152606490fd5b34610efd575f366003190112610efd576020600754604051908152f35b34610efd576060366003190112610efd5760043560443560243561180c611c08565b6118158361194c565b509060ff600d8301541660048110156112375760016118349114611b1b565b60088201611843828254611b58565b905560078201611854828254611b58565b815560098301611865858254611b58565b90556107d08402938085046107d014901517156111de576118c1604093600a6127107f781ba4817afcaa38d6f8630f43d02cadd63e54ff37cede8606142233f48b88e2970491016118b7828254611b58565b9055600654611b58565b6006555482519182526020820152a260015f80516020611cd583398151915255005b34610efd575f366003190112610efd57602060405162278d008152f35b34610efd575f366003190112610efd5760206040516127108152f35b34610efd575f366003190112610efd576020906006548152f35b600435906001600160a01b0382168203610efd57565b6003548110156119685760035f52600e60205f20910201905f90565b634e487b7160e01b5f52603260045260245ffd5b90600182811c921680156119aa575b602083101461199657565b634e487b7160e01b5f52602260045260245ffd5b91607f169161198b565b6101e0810190811067ffffffffffffffff8211176119d157604052565b634e487b7160e01b5f52604160045260245ffd5b90601f8019910116810190811067ffffffffffffffff8211176119d157604052565b9060405191825f825492611a1a8461197c565b8084529360018116908115611a855750600114611a41575b50611a3f925003836119e5565b565b90505f9291925260205f20905f915b818310611a69575050906020611a3f928201015f611a32565b6020919350806001915483858901015201910190918492611a50565b905060209250611a3f94915060ff191682840152151560051b8201015f611a32565b805180835260209291819084018484015e5f828201840152601f01601f1916010190565b9060048210156112375752565b8054821015611968575f5260205f2001905f90565b9181601f84011215610efd5782359167ffffffffffffffff8311610efd5760208381860195010111610efd57565b15611b2257565b60405162461bcd60e51b815260206004820152600e60248201526d504d3a206e6f742061637469766560901b6044820152606490fd5b919082018092116111de57565b15611b6c57565b60405162461bcd60e51b815260206004820152600e60248201526d139bdd08185d5d1a1bdc9a5e995960921b6044820152606490fd5b92919267ffffffffffffffff82116119d15760405191611bcc601f8201601f1916602001846119e5565b829481845281830111610efd578281602093845f960137010152565b908060209392818452848401375f828201840152601f01601f1916010190565b60025f80516020611cd58339815191525414611c315760025f80516020611cd583398151915255565b633ee5aeb560e01b5f5260045ffd5b5f546001600160a01b0316330361161a57565b916040519163a9059cbb60e01b5f5260018060a01b031660045260245260205f60448180865af19060015f5114821615611cb3575b60405215611c935750565b635274afe760e01b5f9081526001600160a01b0391909116600452602490fd5b906001811516611ccb57823b15153d15161690611c88565b503d5f823e3d90fdfe9b779b17422d0df92223018b32b4d1fa46e071723d6817e2486d003becc55f00a2646970667358221220b92952ae518802365ced4da9dc5d5135303e0c6f3ba3b225c600cafd719abdad64736f6c634300081a0033",
  "linkReferences": {},
  "deployedLinkReferences": {}
}