{
  "_format": "hh-sol-artifact-1",
  "contractName": "WikiIdleYieldRouter",
  "sourceName": "src/WikiIdleYieldRouter.sol",
  "abi": [
    {
      "inputs": [
        {
          "internalType": "address",
          "name": "_usdc",
          "type": "address"
        },
        {
          "internalType": "address",
          "name": "_aave",
          "type": "address"
        },
        {
          "internalType": "address",
          "name": "_lending",
          "type": "address"
        },
        {
          "internalType": "address",
          "name": "_revSplitter",
          "type": "address"
        },
        {
          "internalType": "address",
          "name": "_owner",
          "type": "address"
        }
      ],
      "stateMutability": "nonpayable",
      "type": "constructor"
    },
    {
      "inputs": [],
      "name": "EnforcedPause",
      "type": "error"
    },
    {
      "inputs": [],
      "name": "ExpectedPause",
      "type": "error"
    },
    {
      "inputs": [
        {
          "internalType": "address",
          "name": "owner",
          "type": "address"
        }
      ],
      "name": "OwnableInvalidOwner",
      "type": "error"
    },
    {
      "inputs": [
        {
          "internalType": "address",
          "name": "account",
          "type": "address"
        }
      ],
      "name": "OwnableUnauthorizedAccount",
      "type": "error"
    },
    {
      "inputs": [],
      "name": "ReentrancyGuardReentrantCall",
      "type": "error"
    },
    {
      "inputs": [
        {
          "internalType": "address",
          "name": "token",
          "type": "address"
        }
      ],
      "name": "SafeERC20FailedOperation",
      "type": "error"
    },
    {
      "anonymous": false,
      "inputs": [
        {
          "indexed": true,
          "internalType": "address",
          "name": "source",
          "type": "address"
        },
        {
          "indexed": false,
          "internalType": "uint256",
          "name": "amount",
          "type": "uint256"
        },
        {
          "indexed": false,
          "internalType": "string",
          "name": "reason",
          "type": "string"
        }
      ],
      "name": "CapitalRecalled",
      "type": "event"
    },
    {
      "anonymous": false,
      "inputs": [
        {
          "indexed": true,
          "internalType": "address",
          "name": "source",
          "type": "address"
        },
        {
          "indexed": false,
          "internalType": "uint256",
          "name": "amount",
          "type": "uint256"
        }
      ],
      "name": "EmergencyRecall",
      "type": "event"
    },
    {
      "anonymous": false,
      "inputs": [
        {
          "indexed": true,
          "internalType": "address",
          "name": "source",
          "type": "address"
        },
        {
          "indexed": false,
          "internalType": "uint256",
          "name": "toAave",
          "type": "uint256"
        },
        {
          "indexed": false,
          "internalType": "uint256",
          "name": "toLending",
          "type": "uint256"
        }
      ],
      "name": "IdleDeployed",
      "type": "event"
    },
    {
      "anonymous": false,
      "inputs": [
        {
          "indexed": true,
          "internalType": "address",
          "name": "previousOwner",
          "type": "address"
        },
        {
          "indexed": true,
          "internalType": "address",
          "name": "newOwner",
          "type": "address"
        }
      ],
      "name": "OwnershipTransferStarted",
      "type": "event"
    },
    {
      "anonymous": false,
      "inputs": [
        {
          "indexed": true,
          "internalType": "address",
          "name": "previousOwner",
          "type": "address"
        },
        {
          "indexed": true,
          "internalType": "address",
          "name": "newOwner",
          "type": "address"
        }
      ],
      "name": "OwnershipTransferred",
      "type": "event"
    },
    {
      "anonymous": false,
      "inputs": [
        {
          "indexed": false,
          "internalType": "address",
          "name": "account",
          "type": "address"
        }
      ],
      "name": "Paused",
      "type": "event"
    },
    {
      "anonymous": false,
      "inputs": [
        {
          "indexed": true,
          "internalType": "address",
          "name": "source",
          "type": "address"
        },
        {
          "indexed": false,
          "internalType": "string",
          "name": "name",
          "type": "string"
        }
      ],
      "name": "SourceRegistered",
      "type": "event"
    },
    {
      "anonymous": false,
      "inputs": [
        {
          "indexed": false,
          "internalType": "address",
          "name": "account",
          "type": "address"
        }
      ],
      "name": "Unpaused",
      "type": "event"
    },
    {
      "anonymous": false,
      "inputs": [
        {
          "indexed": false,
          "internalType": "uint256",
          "name": "amount",
          "type": "uint256"
        },
        {
          "indexed": false,
          "internalType": "uint256",
          "name": "timestamp",
          "type": "uint256"
        }
      ],
      "name": "YieldHarvested",
      "type": "event"
    },
    {
      "inputs": [],
      "name": "AAVE_SPLIT_BPS",
      "outputs": [
        {
          "internalType": "uint256",
          "name": "",
          "type": "uint256"
        }
      ],
      "stateMutability": "view",
      "type": "function"
    },
    {
      "inputs": [],
      "name": "BPS",
      "outputs": [
        {
          "internalType": "uint256",
          "name": "",
          "type": "uint256"
        }
      ],
      "stateMutability": "view",
      "type": "function"
    },
    {
      "inputs": [],
      "name": "HARVEST_INTERVAL",
      "outputs": [
        {
          "internalType": "uint256",
          "name": "",
          "type": "uint256"
        }
      ],
      "stateMutability": "view",
      "type": "function"
    },
    {
      "inputs": [],
      "name": "LENDING_SPLIT_BPS",
      "outputs": [
        {
          "internalType": "uint256",
          "name": "",
          "type": "uint256"
        }
      ],
      "stateMutability": "view",
      "type": "function"
    },
    {
      "inputs": [],
      "name": "MAX_DEPLOY_BPS",
      "outputs": [
        {
          "internalType": "uint256",
          "name": "",
          "type": "uint256"
        }
      ],
      "stateMutability": "view",
      "type": "function"
    },
    {
      "inputs": [],
      "name": "MIN_DEPLOY_USDC",
      "outputs": [
        {
          "internalType": "uint256",
          "name": "",
          "type": "uint256"
        }
      ],
      "stateMutability": "view",
      "type": "function"
    },
    {
      "inputs": [],
      "name": "USDC",
      "outputs": [
        {
          "internalType": "contract IERC20",
          "name": "",
          "type": "address"
        }
      ],
      "stateMutability": "view",
      "type": "function"
    },
    {
      "inputs": [],
      "name": "aavePool",
      "outputs": [
        {
          "internalType": "contract IAavePool",
          "name": "",
          "type": "address"
        }
      ],
      "stateMutability": "view",
      "type": "function"
    },
    {
      "inputs": [],
      "name": "acceptOwnership",
      "outputs": [],
      "stateMutability": "nonpayable",
      "type": "function"
    },
    {
      "inputs": [
        {
          "internalType": "uint256",
          "name": "amount",
          "type": "uint256"
        }
      ],
      "name": "depositIdle",
      "outputs": [],
      "stateMutability": "nonpayable",
      "type": "function"
    },
    {
      "inputs": [],
      "name": "emergencyRecallAll",
      "outputs": [],
      "stateMutability": "nonpayable",
      "type": "function"
    },
    {
      "inputs": [],
      "name": "estimatedBlendedAPY",
      "outputs": [
        {
          "internalType": "uint256",
          "name": "bps",
          "type": "uint256"
        }
      ],
      "stateMutability": "view",
      "type": "function"
    },
    {
      "inputs": [],
      "name": "getAllSources",
      "outputs": [
        {
          "internalType": "address[]",
          "name": "addrs",
          "type": "address[]"
        },
        {
          "internalType": "string[]",
          "name": "names",
          "type": "string[]"
        },
        {
          "internalType": "uint256[]",
          "name": "deployed",
          "type": "uint256[]"
        }
      ],
      "stateMutability": "view",
      "type": "function"
    },
    {
      "inputs": [
        {
          "internalType": "address",
          "name": "source",
          "type": "address"
        }
      ],
      "name": "getSourceInfo",
      "outputs": [
        {
          "components": [
            {
              "internalType": "bool",
              "name": "registered",
              "type": "bool"
            },
            {
              "internalType": "string",
              "name": "name",
              "type": "string"
            },
            {
              "internalType": "uint256",
              "name": "totalDeposited",
              "type": "uint256"
            },
            {
              "internalType": "uint256",
              "name": "totalWithdrawn",
              "type": "uint256"
            },
            {
              "internalType": "uint256",
              "name": "currentDeployed",
              "type": "uint256"
            },
            {
              "internalType": "uint256",
              "name": "yieldEarned",
              "type": "uint256"
            },
            {
              "internalType": "uint256",
              "name": "lastDeployTime",
              "type": "uint256"
            }
          ],
          "internalType": "struct WikiIdleYieldRouter.SourceInfo",
          "name": "",
          "type": "tuple"
        }
      ],
      "stateMutability": "view",
      "type": "function"
    },
    {
      "inputs": [],
      "name": "harvestAll",
      "outputs": [],
      "stateMutability": "nonpayable",
      "type": "function"
    },
    {
      "inputs": [],
      "name": "keeper",
      "outputs": [
        {
          "internalType": "address",
          "name": "",
          "type": "address"
        }
      ],
      "stateMutability": "view",
      "type": "function"
    },
    {
      "inputs": [],
      "name": "lastHarvestTime",
      "outputs": [
        {
          "internalType": "uint256",
          "name": "",
          "type": "uint256"
        }
      ],
      "stateMutability": "view",
      "type": "function"
    },
    {
      "inputs": [],
      "name": "owner",
      "outputs": [
        {
          "internalType": "address",
          "name": "",
          "type": "address"
        }
      ],
      "stateMutability": "view",
      "type": "function"
    },
    {
      "inputs": [],
      "name": "pause",
      "outputs": [],
      "stateMutability": "nonpayable",
      "type": "function"
    },
    {
      "inputs": [],
      "name": "paused",
      "outputs": [
        {
          "internalType": "bool",
          "name": "",
          "type": "bool"
        }
      ],
      "stateMutability": "view",
      "type": "function"
    },
    {
      "inputs": [],
      "name": "pendingOwner",
      "outputs": [
        {
          "internalType": "address",
          "name": "",
          "type": "address"
        }
      ],
      "stateMutability": "view",
      "type": "function"
    },
    {
      "inputs": [
        {
          "internalType": "uint256",
          "name": "amount",
          "type": "uint256"
        },
        {
          "internalType": "string",
          "name": "reason",
          "type": "string"
        }
      ],
      "name": "recall",
      "outputs": [],
      "stateMutability": "nonpayable",
      "type": "function"
    },
    {
      "inputs": [
        {
          "internalType": "address",
          "name": "source",
          "type": "address"
        },
        {
          "internalType": "string",
          "name": "name",
          "type": "string"
        }
      ],
      "name": "registerSource",
      "outputs": [],
      "stateMutability": "nonpayable",
      "type": "function"
    },
    {
      "inputs": [],
      "name": "renounceOwnership",
      "outputs": [],
      "stateMutability": "nonpayable",
      "type": "function"
    },
    {
      "inputs": [],
      "name": "revenueSplitter",
      "outputs": [
        {
          "internalType": "address",
          "name": "",
          "type": "address"
        }
      ],
      "stateMutability": "view",
      "type": "function"
    },
    {
      "inputs": [
        {
          "internalType": "address",
          "name": "_aave",
          "type": "address"
        },
        {
          "internalType": "address",
          "name": "_lending",
          "type": "address"
        },
        {
          "internalType": "address",
          "name": "_rev",
          "type": "address"
        }
      ],
      "name": "setContracts",
      "outputs": [],
      "stateMutability": "nonpayable",
      "type": "function"
    },
    {
      "inputs": [
        {
          "internalType": "address",
          "name": "_keeper",
          "type": "address"
        }
      ],
      "name": "setKeeper",
      "outputs": [],
      "stateMutability": "nonpayable",
      "type": "function"
    },
    {
      "inputs": [
        {
          "internalType": "uint256",
          "name": "",
          "type": "uint256"
        }
      ],
      "name": "sourceList",
      "outputs": [
        {
          "internalType": "address",
          "name": "",
          "type": "address"
        }
      ],
      "stateMutability": "view",
      "type": "function"
    },
    {
      "inputs": [
        {
          "internalType": "address",
          "name": "",
          "type": "address"
        }
      ],
      "name": "sources",
      "outputs": [
        {
          "internalType": "bool",
          "name": "registered",
          "type": "bool"
        },
        {
          "internalType": "string",
          "name": "name",
          "type": "string"
        },
        {
          "internalType": "uint256",
          "name": "totalDeposited",
          "type": "uint256"
        },
        {
          "internalType": "uint256",
          "name": "totalWithdrawn",
          "type": "uint256"
        },
        {
          "internalType": "uint256",
          "name": "currentDeployed",
          "type": "uint256"
        },
        {
          "internalType": "uint256",
          "name": "yieldEarned",
          "type": "uint256"
        },
        {
          "internalType": "uint256",
          "name": "lastDeployTime",
          "type": "uint256"
        }
      ],
      "stateMutability": "view",
      "type": "function"
    },
    {
      "inputs": [],
      "name": "totalDeployed",
      "outputs": [
        {
          "internalType": "uint256",
          "name": "",
          "type": "uint256"
        }
      ],
      "stateMutability": "view",
      "type": "function"
    },
    {
      "inputs": [],
      "name": "totalDeployedToAave",
      "outputs": [
        {
          "internalType": "uint256",
          "name": "",
          "type": "uint256"
        }
      ],
      "stateMutability": "view",
      "type": "function"
    },
    {
      "inputs": [],
      "name": "totalDeployedToLending",
      "outputs": [
        {
          "internalType": "uint256",
          "name": "",
          "type": "uint256"
        }
      ],
      "stateMutability": "view",
      "type": "function"
    },
    {
      "inputs": [],
      "name": "totalYieldGenerated",
      "outputs": [
        {
          "internalType": "uint256",
          "name": "",
          "type": "uint256"
        }
      ],
      "stateMutability": "view",
      "type": "function"
    },
    {
      "inputs": [
        {
          "internalType": "address",
          "name": "newOwner",
          "type": "address"
        }
      ],
      "name": "transferOwnership",
      "outputs": [],
      "stateMutability": "nonpayable",
      "type": "function"
    },
    {
      "inputs": [],
      "name": "unpause",
      "outputs": [],
      "stateMutability": "nonpayable",
      "type": "function"
    },
    {
      "inputs": [],
      "name": "wikiLending",
      "outputs": [
        {
          "internalType": "contract IWikiLending",
          "name": "",
          "type": "address"
        }
      ],
      "stateMutability": "view",
      "type": "function"
    }
  ],
  "bytecode": "0x60a0346101a957601f6122d338819003918201601f19168301916001600160401b038311848410176101ad5780849260a0946040528339810103126101a957610047816101c1565b90610054602082016101c1565b610060604083016101c1565b906100796080610072606086016101c1565b94016101c1565b60017f9b779b17422d0df92223018b32b4d1fa46e071723d6817e2486d003becc55f00556001600160a01b031693841561019657600180546001600160a01b03199081169091555f80549182168717815560405196916001600160a01b0316907f8be0079c531659141344cd1fd0a4f28419497f9722a3daafe3b4186f6b6457e09080a36001600160a01b03908116608052600280549282166001600160a01b03199384161790556003805493821693831693909317909255600480549390921692169190911790556120fd90816101d6823960805181818161076801528181610a8401528181610ba301528181610c2001528181610cfd01528181610ee401528181611329015281816117e80152818161184701526119490152f35b631e4fbdf760e01b5f525f60045260245ffd5b5f80fd5b634e487b7160e01b5f52604160045260245ffd5b51906001600160a01b03821682036101a95756fe60806040526004361015610011575f80fd5b5f803560e01c80630cfb14b014611bce5780630d9a34a214611bb15780631633f51514611a9f5780631dd9c26b14611a82578063249d39e914611a6657806338d44ad5146116a75780633daea83c146112d35780633f4ba83a1461126357806345ac704b14611245578063568306a5146105845780635c975abb1461121f5780636b0ecc7e14610fc45780637023c17014610eb9578063715018a614610e54578063748747e614610e1457806379ba509714610d8f5780638456cb5914610d2c57806389a3027114610ce75780638c82505614610cc95780638da5cb5b14610ca25780638db8a154146109f55780638ed955b91461071d57806396b5ac6e146106fe5780639d2b86f6146106d5578063a03e4bc3146106ac578063aced166114610683578063ad88631214610666578063aec0be1314610622578063b3066d4914610589578063b49fb5bd14610584578063b750bdde146104ec578063be3b078c14610285578063ceb0f62614610267578063d820b20b1461023e578063e30c3978146102155763f2fde38b146101a6575f80fd5b34610212576020366003190112610212576101bf611bf7565b6101c7611f7c565b600180546001600160a01b0319166001600160a01b0392831690811790915582549091167f38d16b8cac22d99fc7c124b9cd0de2d3fa1faef420bfe791d8c362d765e227008380a380f35b80fd5b50346102125780600319360112610212576001546040516001600160a01b039091168152602090f35b50346102125780600319360112610212576003546040516001600160a01b039091168152602090f35b50346102125780600319360112610212576020600b54604051908152f35b503461021257806003193601126102125760405180602060075491828152019283600782527fa66cc928b5edb82af9bd49922954155ab7b0942694bea4ce44661d9a8736c688825b8481106104cd575050836102e2910384611d0f565b6102eb82611e79565b6102f86040519182611d0f565b828152601f1961030784611e79565b01825b8181106104ba57505061031c83611e79565b6103296040519182611d0f565b83815261033584611e79565b602082019490601f1901368637835b81811061043257505060405195869560608701906060885251809152608087019190855b818110610410575050508581036020870152825180825260208201916020808360051b83010195019286915b8383106103db575050505050602090858303604087015251918281520192915b8181106103c2575050500390f35b82518452859450602093840193909201916001016103b4565b91939798509193946020806103fc600193601f198682030187528b51611c0d565b990193019301909289989795949293610394565b82516001600160a01b0316845289985060209384019390920191600101610368565b80610444600192999495979899611c7b565b838060a01b0391549060031b1c1686526006602052610467826040882001611d31565b6104718289611e91565b5261047c8188611e91565b5061048681611c7b565b838060a01b0391549060031b1c168652600660205260046040872001546104ad8287611e91565b5201969594929196610344565b606060208285018101919091520161030a565b81546001600160a01b03168352602090920191600191820191016102cd565b5034610212576020366003190112610212576040906001600160a01b03610511611bf7565b16815260066020522060ff81541661052b60018301611d31565b91600281015490600381015490600481015460066005830154920154926105666040519788971515885260e0602089015260e0880190611c0d565b9460408701526060860152608085015260a084015260c08301520390f35b611c5f565b5034610212576060366003190112610212576105a3611bf7565b6024356001600160a01b0381169081900361061e576044356001600160a01b038116929083900361061a576105d6611f7c565b60018060a01b03166001600160601b0360a01b60025416176002556001600160601b0360a01b60035416176003556001600160601b0360a01b600454161760045580f35b8380fd5b8280fd5b5034610212576020366003190112610212576004359060075482101561021257602061064d83611c7b565b905460405160039290921b1c6001600160a01b03168152f35b50346102125780600319360112610212576020604051611f408152f35b50346102125780600319360112610212576005546040516001600160a01b039091168152602090f35b50346102125780600319360112610212576002546040516001600160a01b039091168152602090f35b50346102125780600319360112610212576004546040516001600160a01b039091168152602090f35b50346102125780600319360112610212576020604051631dcd65008152f35b50346102125780600319360112610212576005546001600160a01b0316331480156109e2575b156109a457610750611ea5565b60035460405163ba37773160e01b81523060048201527f00000000000000000000000000000000000000000000000000000000000000006001600160a01b0381811660248401819052859492939092909116908490602081604481865afa90811561096057829161096f575b50600954908181116108d8575b505050506020602491604051928380926370a0823160e01b82523060048301525afa9081156108cd578491610897575b5080610886575b508161081c575b8260015f805160206120a88339815191525580f35b81610873816040936108517f3fb12fb590bb295327f3bfc48158ada0b1147f8f823e0c7a09b98b301d18677496600a54611dd1565b600a5542600b5561086182611fa2565b6004546001600160a01b031690611edd565b8151908152426020820152a15f80610807565b6108909192611dd1565b905f610800565b90506020813d6020116108c5575b816108b260209383611d0f565b810103126108c157515f6107f9565b5f80fd5b3d91506108a5565b6040513d86823e3d90fd5b906108e291611e34565b91620f42408310156108f5575b806107c9565b8091929395503b1561096b5760405163f3fef3a360e01b81526001600160a01b0386166004820152602481018490529082908290604490829084905af180156109605761094b575b50909290506020845f6108ef565b8161095591611d0f565b61061a57835f61093d565b6040513d84823e3d90fd5b5080fd5b9150506020813d60201161099c575b8161098b60209383611d0f565b810103126108c1578590515f6107bc565b3d915061097e565b60405162461bcd60e51b815260206004820152601660248201527524b23632a937baba32b91d103737ba1035b2b2b832b960511b6044820152606490fd5b5080546001600160a01b03163314610743565b5034610212578060031936011261021257610a0e611f7c565b610a16611ea5565b600854610c06575b8060095480610b79575b5050805b600754811015610a665780610a42600192611c7b565b838060a01b0391549060031b1c168352600660205282600460408220015501610a2c565b506040516370a0823160e01b815230600482015281906020816024817f00000000000000000000000000000000000000000000000000000000000000006001600160a01b03165afa908115610960578291610b43575b5060207fd44651ed3294a02802b0024ced90cd6912d908ef8426b7e52833664ba5de660791604051908152a2610af0611f5e565b6001805460ff60a01b1916600160a01b1790556040513381527f62e78cea01bee320cd4e420270b5ea74000d11b0c9f74754ebdbfc544b05a25890602090a160015f805160206120a88339815191525580f35b9150506020813d602011610b71575b81610b5f60209383611d0f565b810103126108c1575181906020610abc565b3d9150610b52565b6003546001600160a01b0316803b15610c025760405163f3fef3a360e01b81526001600160a01b037f0000000000000000000000000000000000000000000000000000000000000000166004820152602481019290925282908290604490829084905af1610bed575b50600955805f610a28565b81610bf791611d0f565b61021257805f610be2565b5050fd5b600254604051631a4ca37b60e21b81526001600160a01b037f0000000000000000000000000000000000000000000000000000000000000000811660048301525f1960248301523060448301529091602091839160649183918791165af1610c73575b5080600855610a1e565b6020813d602011610c9a575b81610c8c60209383611d0f565b810103126108c15751610c69565b3d9150610c7f565b5034610212578060031936011261021257546040516001600160a01b039091168152602090f35b50346102125780600319360112610212576020600a54604051908152f35b50346102125780600319360112610212576040517f00000000000000000000000000000000000000000000000000000000000000006001600160a01b03168152602090f35b5034610212578060031936011261021257610d45611f7c565b610d4d611f5e565b6001805460ff60a01b1916600160a01b1790556040513381527f62e78cea01bee320cd4e420270b5ea74000d11b0c9f74754ebdbfc544b05a25890602090a180f35b5034610212578060031936011261021257600154336001600160a01b0390911603610e0157600180546001600160a01b0319908116909155815433918116821783556001600160a01b03167f8be0079c531659141344cd1fd0a4f28419497f9722a3daafe3b4186f6b6457e08380a380f35b63118cdaa760e01b815233600452602490fd5b503461021257602036600319011261021257610e2e611bf7565b610e36611f7c565b60018060a01b03166001600160601b0360a01b600554161760055580f35b5034610212578060031936011261021257610e6d611f7c565b600180546001600160a01b03199081169091558154908116825581906001600160a01b03167f8be0079c531659141344cd1fd0a4f28419497f9722a3daafe3b4186f6b6457e08280a380f35b5034610212578060031936011261021257600354604051631c21752160e11b81526001600160a01b037f000000000000000000000000000000000000000000000000000000000000000081166004830152909160209183916024918391165afa8015610960578290610f8c575b655af3107a40009150046113888102908082046113881490151715610f7857622dc6c0019081622dc6c011610f645760208261271060405191048152f35b634e487b7160e01b81526011600452602490fd5b634e487b7160e01b82526011600452602482fd5b506020813d602011610fbc575b81610fa660209383611d0f565b810103126108c157655af3107a40009051610f26565b3d9150610f99565b503461021257604036600319011261021257610fde611bf7565b60243567ffffffffffffffff811161061e57610ffe903690600401611c31565b91611007611f7c565b6001600160a01b03168084526006602052604084205490929060ff166111da57828452600660205260408420600160ff1982541617905582845260066020526001604085200167ffffffffffffffff8211611114576110668154611ca7565b601f8111611195575b508185601f8211600114611133578691611128575b508260011b905f198460031b1c19161790555b6007546801000000000000000081101561111457906110de8260017fe16f60a7435e40b40b1e3aaaab298052814ed8928184f68c638cb1707470b84e959401600755611c7b565b81549060031b9086821b9160018060a01b03901b191617905561110e604051928392602084526020840191611e41565b0390a280f35b634e487b7160e01b85526041600452602485fd5b90508301355f611084565b82875260208720915083601f198116885b81811061117a575010611161575b5050600182811b019055611097565b8401355f19600385901b60f8161c191690555f80611152565b87840135855560019094019360209384019387935001611144565b81865260208620601f840160051c810191602085106111d0575b601f0160051c01905b8181106111c5575061106f565b8681556001016111b8565b90915081906111af565b60405162461bcd60e51b815260206004820152601e60248201527f49646c65526f757465723a20616c7265616479207265676973746572656400006044820152606490fd5b5034610212578060031936011261021257602060ff60015460a01c166040519015158152f35b50346102125780600319360112610212576020600954604051908152f35b503461021257806003193601126102125761127c611f7c565b60015460ff8160a01c16156112c45760ff60a01b19166001556040513381527f5db9ee0a495bf2e6ff9c91a7834c1ba4fdd244a5e8aa4e537bd38aeae4b073aa90602090a180f35b638dfc202b60e01b8252600482fd5b503461021257602036600319011261021257600435338252600660205261130060ff604084205416611dde565b611308611ea5565b611310611f5e565b631dcd65008110611662573382526006602052604082207f0000000000000000000000000000000000000000000000000000000000000000916040516323b872dd60e01b855233600452306024528160445260208560648180885af1906001865114821615611641575b60405284606052156116255760028201611395828254611dd1565b90556113888102908082046113881490151715611611576127108491049283151580611515575b61140f575b50506006429101556040519080825260208201527f7273246e58f7d4cec4d1a00ad5cd8aaff8139a036b902fffc7e7d82cbb6c645d60403392a260015f805160206120a88339815191525580f35b60035460405163095ea7b360e01b81526001600160a01b0391821660048201526024810186905291169060208160448186865af1801561150a576114dd575b506003546001600160a01b0316803b1561061e57604051631e573fb760e31b81526001600160a01b039290921660048301526024820185905282908290604490829084905af18015610960576114c8575b50506114ad82600954611dd1565b600955600481016114bf838254611dd1565b9055825f6113c1565b816114d291611d0f565b61061e57825f61149f565b6114fe9060203d602011611503575b6114f68183611d0f565b810190611e61565b61144e565b503d6114ec565b6040513d85823e3d90fd5b60025460405163095ea7b360e01b81526001600160a01b039182166004820152602481018790529083169060208160448188865af18015611606576115e9575b506002546001600160a01b031690813b156115e557849160848392604051948593849263617ba03760e01b845260048401528b60248401523060448401528160648401525af19081156108cd5784916115d0575b50506115b785600854611dd1565b600855600484016115c9868254611dd1565b90556113bc565b816115da91611d0f565b61061e57825f6115a9565b8480fd5b6116019060203d602011611503576114f68183611d0f565b611555565b6040513d87823e3d90fd5b634e487b7160e01b84526011600452602484fd5b635274afe760e01b84526001600160a01b038316600452602484fd5b90600181151661165957843b15153d1516169061137a565b503d85823e3d90fd5b60405162461bcd60e51b815260206004820152601e60248201527f49646c65526f757465723a2062656c6f77206d696e696d756d202435303000006044820152606490fd5b50346108c15760403660031901126108c1576004359060243567ffffffffffffffff81116108c1576116dd903690600401611c31565b90335f5260066020526116f660ff60405f205416611dde565b6116fe611ea5565b335f52600660205260405f209380155f14611a4a57506004840154935b8415611a05576113888502858104611388036119f1575f9190612710900480151580806119e5575b61192f575b80611923575b61181a575b50807fe0ab2b6649fe287850bffe31ac985307e5b2d8a49aabc386327fd2ea190abf26949596600460039301908154908082115f146118115761179591611e34565b905b55016117a4828254611dd1565b9055806117e1575b6117ca60405192839283526040602084015233956040840191611e41565b0390a260015f805160206120a88339815191525580f35b61180c81337f0000000000000000000000000000000000000000000000000000000000000000611edd565b6117ac565b50508790611797565b6003549296926001600160a01b0316803b156108c15760405163f3fef3a360e01b81526001600160a01b037f000000000000000000000000000000000000000000000000000000000000000016600482015260248101839052905f908290604490829084905af18015611918576118d7575b50906118cc827fe0ab2b6649fe287850bffe31ac985307e5b2d8a49aabc386327fd2ea190abf269697986118c4600395600954611e34565b600955611dd1565b929695945090611753565b7fe0ab2b6649fe287850bffe31ac985307e5b2d8a49aabc386327fd2ea190abf269596506003929161190c5f6118cc93611d0f565b5f97965091925061188c565b6040513d5f823e3d90fd5b5080600954101561174e565b600254604051631a4ca37b60e21b81526001600160a01b037f0000000000000000000000000000000000000000000000000000000000000000811660048301526024820185905230604483015292955091602091839160649183915f91165af1908115611918575f916119b3575b506119aa82600854611e34565b60085592611748565b90506020813d6020116119dd575b816119ce60209383611d0f565b810103126108c157515f61199d565b3d91506119c1565b50816008541015611743565b634e487b7160e01b5f52601160045260245ffd5b60405162461bcd60e51b815260206004820152601d60248201527f49646c65526f757465723a206e6f7468696e6720746f20726563616c6c0000006044820152606490fd5b600485015480821015611a5f57505b9361171b565b9050611a59565b346108c1575f3660031901126108c15760206040516127108152f35b346108c1575f3660031901126108c1576020600854604051908152f35b346108c15760203660031901126108c157611ab8611bf7565b5f60c0604051611ac781611cdf565b828152606060208201528260408201528260608201528260808201528260a0820152015260018060a01b03165f52600660205260405f20604051611b0a81611cdf565b60ff82541615158152611b1f60018301611d31565b91602082019283526002810154906040830191825260038101549060608401918252600481015460808501908152600660058301549260a0870193845201549260c08601938452611b8e6040519788976020895251151560208901525160e06040890152610100880190611c0d565b945160608701525160808601525160a08501525160c08401525160e08301520390f35b346108c1575f3660031901126108c1576020604051620151808152f35b346108c1575f3660031901126108c1576020611bef60085460095490611dd1565b604051908152f35b600435906001600160a01b03821682036108c157565b805180835260209291819084018484015e5f828201840152601f01601f1916010190565b9181601f840112156108c15782359167ffffffffffffffff83116108c157602083818601950101116108c157565b346108c1575f3660031901126108c15760206040516113888152f35b600754811015611c935760075f5260205f2001905f90565b634e487b7160e01b5f52603260045260245ffd5b90600182811c92168015611cd5575b6020831014611cc157565b634e487b7160e01b5f52602260045260245ffd5b91607f1691611cb6565b60e0810190811067ffffffffffffffff821117611cfb57604052565b634e487b7160e01b5f52604160045260245ffd5b90601f8019910116810190811067ffffffffffffffff821117611cfb57604052565b9060405191825f825492611d4484611ca7565b8084529360018116908115611daf5750600114611d6b575b50611d6992500383611d0f565b565b90505f9291925260205f20905f915b818310611d93575050906020611d69928201015f611d5c565b6020919350806001915483858901015201910190918492611d7a565b905060209250611d6994915060ff191682840152151560051b8201015f611d5c565b919082018092116119f157565b15611de557565b60405162461bcd60e51b815260206004820152602160248201527f49646c65526f757465723a20736f75726365206e6f74207265676973746572656044820152601960fa1b6064820152608490fd5b919082039182116119f157565b908060209392818452848401375f828201840152601f01601f1916010190565b908160209103126108c1575180151581036108c15790565b67ffffffffffffffff8111611cfb5760051b60200190565b8051821015611c935760209160051b010190565b60025f805160206120a88339815191525414611ece5760025f805160206120a883398151915255565b633ee5aeb560e01b5f5260045ffd5b916040519163a9059cbb60e01b5f5260018060a01b031660045260245260205f60448180865af19060015f5114821615611f3d575b60405215611f1d5750565b635274afe760e01b5f9081526001600160a01b0391909116600452602490fd5b906001811516611f5557823b15153d15161690611f12565b503d5f823e3d90fd5b60ff60015460a01c16611f6d57565b63d93c066560e01b5f5260045ffd5b5f546001600160a01b03163303611f8f57565b63118cdaa760e01b5f523360045260245ffd5b905f806007545b80821061206b57505080159081612065575f5b60075481101561205e57611fcf81611c7b565b60018060a01b0391549060031b1c1690815f526006602052600460405f200154611ffe575b6001915001611fbc565b815f526006602052600460405f200154918287029287840414871517156119f1578461204a578360019304905f526006602052612043600560405f2001918254611dd1565b9055611ff4565b634e487b7160e01b5f52601260045260245ffd5b5050509050565b50509050565b909161209f60019161207c85611c7b565b848060a01b0391549060031b1c165f526006602052600460405f20015490611dd1565b920190611fa956fe9b779b17422d0df92223018b32b4d1fa46e071723d6817e2486d003becc55f00a2646970667358221220b08ca2a7eace506dbcd9cd14a9a0ccdcbd87f1c933800c5324a084dca1e254dc64736f6c634300081a0033",
  "linkReferences": {},
  "deployedLinkReferences": {}
}