{
  "_format": "hh-sol-artifact-1",
  "contractName": "WikiLaunchpad",
  "sourceName": "src/WikiLaunchpad.sol",
  "abi": [
    {
      "inputs": [
        {
          "internalType": "address",
          "name": "usdc",
          "type": "address"
        },
        {
          "internalType": "address",
          "name": "_staking",
          "type": "address"
        },
        {
          "internalType": "address",
          "name": "owner",
          "type": "address"
        }
      ],
      "stateMutability": "nonpayable",
      "type": "constructor"
    },
    {
      "inputs": [
        {
          "internalType": "address",
          "name": "owner",
          "type": "address"
        }
      ],
      "name": "OwnableInvalidOwner",
      "type": "error"
    },
    {
      "inputs": [
        {
          "internalType": "address",
          "name": "account",
          "type": "address"
        }
      ],
      "name": "OwnableUnauthorizedAccount",
      "type": "error"
    },
    {
      "inputs": [],
      "name": "ReentrancyGuardReentrantCall",
      "type": "error"
    },
    {
      "inputs": [
        {
          "internalType": "address",
          "name": "token",
          "type": "address"
        }
      ],
      "name": "SafeERC20FailedOperation",
      "type": "error"
    },
    {
      "anonymous": false,
      "inputs": [
        {
          "indexed": true,
          "internalType": "uint256",
          "name": "saleId",
          "type": "uint256"
        },
        {
          "indexed": true,
          "internalType": "address",
          "name": "user",
          "type": "address"
        },
        {
          "indexed": false,
          "internalType": "uint256",
          "name": "amount",
          "type": "uint256"
        },
        {
          "indexed": false,
          "internalType": "uint8",
          "name": "tier",
          "type": "uint8"
        }
      ],
      "name": "Committed",
      "type": "event"
    },
    {
      "anonymous": false,
      "inputs": [
        {
          "indexed": true,
          "internalType": "address",
          "name": "previousOwner",
          "type": "address"
        },
        {
          "indexed": true,
          "internalType": "address",
          "name": "newOwner",
          "type": "address"
        }
      ],
      "name": "OwnershipTransferStarted",
      "type": "event"
    },
    {
      "anonymous": false,
      "inputs": [
        {
          "indexed": true,
          "internalType": "address",
          "name": "previousOwner",
          "type": "address"
        },
        {
          "indexed": true,
          "internalType": "address",
          "name": "newOwner",
          "type": "address"
        }
      ],
      "name": "OwnershipTransferred",
      "type": "event"
    },
    {
      "anonymous": false,
      "inputs": [
        {
          "indexed": true,
          "internalType": "address",
          "name": "to",
          "type": "address"
        },
        {
          "indexed": false,
          "internalType": "uint256",
          "name": "amount",
          "type": "uint256"
        }
      ],
      "name": "ProtocolFeesWithdrawn",
      "type": "event"
    },
    {
      "anonymous": false,
      "inputs": [
        {
          "indexed": true,
          "internalType": "uint256",
          "name": "saleId",
          "type": "uint256"
        },
        {
          "indexed": true,
          "internalType": "address",
          "name": "user",
          "type": "address"
        },
        {
          "indexed": false,
          "internalType": "uint256",
          "name": "amount",
          "type": "uint256"
        }
      ],
      "name": "Refunded",
      "type": "event"
    },
    {
      "anonymous": false,
      "inputs": [
        {
          "indexed": true,
          "internalType": "uint256",
          "name": "saleId",
          "type": "uint256"
        },
        {
          "indexed": true,
          "internalType": "address",
          "name": "project",
          "type": "address"
        },
        {
          "indexed": false,
          "internalType": "string",
          "name": "name",
          "type": "string"
        },
        {
          "indexed": false,
          "internalType": "uint256",
          "name": "hardcap",
          "type": "uint256"
        }
      ],
      "name": "SaleCreated",
      "type": "event"
    },
    {
      "anonymous": false,
      "inputs": [
        {
          "indexed": true,
          "internalType": "uint256",
          "name": "saleId",
          "type": "uint256"
        }
      ],
      "name": "SaleFailed",
      "type": "event"
    },
    {
      "anonymous": false,
      "inputs": [
        {
          "indexed": true,
          "internalType": "uint256",
          "name": "saleId",
          "type": "uint256"
        },
        {
          "indexed": false,
          "internalType": "uint256",
          "name": "raised",
          "type": "uint256"
        },
        {
          "indexed": false,
          "internalType": "uint256",
          "name": "fee",
          "type": "uint256"
        }
      ],
      "name": "SaleFinalized",
      "type": "event"
    },
    {
      "anonymous": false,
      "inputs": [
        {
          "indexed": true,
          "internalType": "uint256",
          "name": "saleId",
          "type": "uint256"
        },
        {
          "indexed": true,
          "internalType": "address",
          "name": "user",
          "type": "address"
        },
        {
          "indexed": false,
          "internalType": "uint256",
          "name": "amount",
          "type": "uint256"
        }
      ],
      "name": "TokensClaimed",
      "type": "event"
    },
    {
      "anonymous": false,
      "inputs": [
        {
          "indexed": true,
          "internalType": "uint256",
          "name": "saleId",
          "type": "uint256"
        },
        {
          "indexed": false,
          "internalType": "uint256",
          "name": "amount",
          "type": "uint256"
        }
      ],
      "name": "TokensDeposited",
      "type": "event"
    },
    {
      "inputs": [],
      "name": "BPS",
      "outputs": [
        {
          "internalType": "uint256",
          "name": "",
          "type": "uint256"
        }
      ],
      "stateMutability": "view",
      "type": "function"
    },
    {
      "inputs": [],
      "name": "DEFAULT_LAUNCH_FEE",
      "outputs": [
        {
          "internalType": "uint256",
          "name": "",
          "type": "uint256"
        }
      ],
      "stateMutability": "view",
      "type": "function"
    },
    {
      "inputs": [],
      "name": "EMERGENCY_PENALTY",
      "outputs": [
        {
          "internalType": "uint256",
          "name": "",
          "type": "uint256"
        }
      ],
      "stateMutability": "view",
      "type": "function"
    },
    {
      "inputs": [],
      "name": "MAX_LAUNCH_FEE",
      "outputs": [
        {
          "internalType": "uint256",
          "name": "",
          "type": "uint256"
        }
      ],
      "stateMutability": "view",
      "type": "function"
    },
    {
      "inputs": [],
      "name": "TIER_BRONZE_MIN",
      "outputs": [
        {
          "internalType": "uint256",
          "name": "",
          "type": "uint256"
        }
      ],
      "stateMutability": "view",
      "type": "function"
    },
    {
      "inputs": [],
      "name": "TIER_GOLD_MIN",
      "outputs": [
        {
          "internalType": "uint256",
          "name": "",
          "type": "uint256"
        }
      ],
      "stateMutability": "view",
      "type": "function"
    },
    {
      "inputs": [],
      "name": "TIER_SILVER_MIN",
      "outputs": [
        {
          "internalType": "uint256",
          "name": "",
          "type": "uint256"
        }
      ],
      "stateMutability": "view",
      "type": "function"
    },
    {
      "inputs": [],
      "name": "USDC",
      "outputs": [
        {
          "internalType": "contract IERC20",
          "name": "",
          "type": "address"
        }
      ],
      "stateMutability": "view",
      "type": "function"
    },
    {
      "inputs": [],
      "name": "acceptOwnership",
      "outputs": [],
      "stateMutability": "nonpayable",
      "type": "function"
    },
    {
      "inputs": [
        {
          "internalType": "uint256",
          "name": "saleId",
          "type": "uint256"
        },
        {
          "internalType": "address",
          "name": "user",
          "type": "address"
        }
      ],
      "name": "allocationFor",
      "outputs": [
        {
          "internalType": "uint256",
          "name": "",
          "type": "uint256"
        }
      ],
      "stateMutability": "view",
      "type": "function"
    },
    {
      "inputs": [
        {
          "internalType": "uint256",
          "name": "saleId",
          "type": "uint256"
        }
      ],
      "name": "claimTokens",
      "outputs": [],
      "stateMutability": "nonpayable",
      "type": "function"
    },
    {
      "inputs": [
        {
          "internalType": "uint256",
          "name": "saleId",
          "type": "uint256"
        },
        {
          "internalType": "address",
          "name": "user",
          "type": "address"
        }
      ],
      "name": "claimableView",
      "outputs": [
        {
          "internalType": "uint256",
          "name": "",
          "type": "uint256"
        }
      ],
      "stateMutability": "view",
      "type": "function"
    },
    {
      "inputs": [
        {
          "internalType": "uint256",
          "name": "saleId",
          "type": "uint256"
        },
        {
          "internalType": "uint256",
          "name": "amount",
          "type": "uint256"
        }
      ],
      "name": "commit",
      "outputs": [],
      "stateMutability": "nonpayable",
      "type": "function"
    },
    {
      "inputs": [
        {
          "internalType": "uint256",
          "name": "",
          "type": "uint256"
        },
        {
          "internalType": "address",
          "name": "",
          "type": "address"
        }
      ],
      "name": "commits",
      "outputs": [
        {
          "internalType": "uint256",
          "name": "committed",
          "type": "uint256"
        },
        {
          "internalType": "uint256",
          "name": "tokensClaimed",
          "type": "uint256"
        },
        {
          "internalType": "bool",
          "name": "refunded",
          "type": "bool"
        }
      ],
      "stateMutability": "view",
      "type": "function"
    },
    {
      "inputs": [
        {
          "internalType": "address",
          "name": "projectOwner",
          "type": "address"
        },
        {
          "internalType": "address",
          "name": "saleToken",
          "type": "address"
        },
        {
          "internalType": "string",
          "name": "name",
          "type": "string"
        },
        {
          "internalType": "string",
          "name": "metaURI",
          "type": "string"
        },
        {
          "internalType": "uint256",
          "name": "pricePerToken",
          "type": "uint256"
        },
        {
          "internalType": "uint256",
          "name": "hardcap",
          "type": "uint256"
        },
        {
          "internalType": "uint256",
          "name": "softcap",
          "type": "uint256"
        },
        {
          "internalType": "uint256",
          "name": "totalTokens",
          "type": "uint256"
        },
        {
          "internalType": "uint256[4]",
          "name": "allocations",
          "type": "uint256[4]"
        },
        {
          "internalType": "uint256[3]",
          "name": "timeline",
          "type": "uint256[3]"
        },
        {
          "internalType": "uint256",
          "name": "cliffDuration",
          "type": "uint256"
        },
        {
          "internalType": "uint256",
          "name": "vestDuration",
          "type": "uint256"
        },
        {
          "internalType": "uint256",
          "name": "launchFeeBps",
          "type": "uint256"
        }
      ],
      "name": "createSale",
      "outputs": [
        {
          "internalType": "uint256",
          "name": "saleId",
          "type": "uint256"
        }
      ],
      "stateMutability": "nonpayable",
      "type": "function"
    },
    {
      "inputs": [
        {
          "internalType": "uint256",
          "name": "amount",
          "type": "uint256"
        }
      ],
      "name": "deployIdle",
      "outputs": [],
      "stateMutability": "nonpayable",
      "type": "function"
    },
    {
      "inputs": [
        {
          "internalType": "uint256",
          "name": "saleId",
          "type": "uint256"
        }
      ],
      "name": "depositSaleTokens",
      "outputs": [],
      "stateMutability": "nonpayable",
      "type": "function"
    },
    {
      "inputs": [
        {
          "internalType": "uint256",
          "name": "saleId",
          "type": "uint256"
        }
      ],
      "name": "finalizeSale",
      "outputs": [],
      "stateMutability": "nonpayable",
      "type": "function"
    },
    {
      "inputs": [
        {
          "internalType": "uint256",
          "name": "saleId",
          "type": "uint256"
        }
      ],
      "name": "getSale",
      "outputs": [
        {
          "components": [
            {
              "internalType": "address",
              "name": "projectOwner",
              "type": "address"
            },
            {
              "internalType": "address",
              "name": "saleToken",
              "type": "address"
            },
            {
              "internalType": "address",
              "name": "raiseToken",
              "type": "address"
            },
            {
              "internalType": "string",
              "name": "name",
              "type": "string"
            },
            {
              "internalType": "string",
              "name": "metaURI",
              "type": "string"
            },
            {
              "internalType": "uint256",
              "name": "pricePerToken",
              "type": "uint256"
            },
            {
              "internalType": "uint256",
              "name": "hardcap",
              "type": "uint256"
            },
            {
              "internalType": "uint256",
              "name": "softcap",
              "type": "uint256"
            },
            {
              "internalType": "uint256",
              "name": "totalTokens",
              "type": "uint256"
            },
            {
              "internalType": "uint256",
              "name": "goldAlloc",
              "type": "uint256"
            },
            {
              "internalType": "uint256",
              "name": "silverAlloc",
              "type": "uint256"
            },
            {
              "internalType": "uint256",
              "name": "bronzeAlloc",
              "type": "uint256"
            },
            {
              "internalType": "uint256",
              "name": "publicAlloc",
              "type": "uint256"
            },
            {
              "internalType": "uint256",
              "name": "startTime",
              "type": "uint256"
            },
            {
              "internalType": "uint256",
              "name": "endTime",
              "type": "uint256"
            },
            {
              "internalType": "uint256",
              "name": "tgeTime",
              "type": "uint256"
            },
            {
              "internalType": "uint256",
              "name": "cliffDuration",
              "type": "uint256"
            },
            {
              "internalType": "uint256",
              "name": "vestDuration",
              "type": "uint256"
            },
            {
              "internalType": "uint256",
              "name": "totalRaised",
              "type": "uint256"
            },
            {
              "internalType": "uint256",
              "name": "launchFeeBps",
              "type": "uint256"
            },
            {
              "internalType": "enum WikiLaunchpad.SaleStatus",
              "name": "status",
              "type": "uint8"
            },
            {
              "internalType": "bool",
              "name": "tokensDeposited",
              "type": "bool"
            }
          ],
          "internalType": "struct WikiLaunchpad.Sale",
          "name": "",
          "type": "tuple"
        }
      ],
      "stateMutability": "view",
      "type": "function"
    },
    {
      "inputs": [
        {
          "internalType": "uint256",
          "name": "saleId",
          "type": "uint256"
        },
        {
          "internalType": "address",
          "name": "user",
          "type": "address"
        }
      ],
      "name": "getUserCommit",
      "outputs": [
        {
          "components": [
            {
              "internalType": "uint256",
              "name": "committed",
              "type": "uint256"
            },
            {
              "internalType": "uint256",
              "name": "tokensClaimed",
              "type": "uint256"
            },
            {
              "internalType": "bool",
              "name": "refunded",
              "type": "bool"
            }
          ],
          "internalType": "struct WikiLaunchpad.UserCommit",
          "name": "",
          "type": "tuple"
        }
      ],
      "stateMutability": "view",
      "type": "function"
    },
    {
      "inputs": [],
      "name": "idleYieldRouter",
      "outputs": [
        {
          "internalType": "contract IIdleYieldRouter",
          "name": "",
          "type": "address"
        }
      ],
      "stateMutability": "view",
      "type": "function"
    },
    {
      "inputs": [],
      "name": "owner",
      "outputs": [
        {
          "internalType": "address",
          "name": "",
          "type": "address"
        }
      ],
      "stateMutability": "view",
      "type": "function"
    },
    {
      "inputs": [],
      "name": "pendingOwner",
      "outputs": [
        {
          "internalType": "address",
          "name": "",
          "type": "address"
        }
      ],
      "stateMutability": "view",
      "type": "function"
    },
    {
      "inputs": [],
      "name": "protocolFees",
      "outputs": [
        {
          "internalType": "uint256",
          "name": "",
          "type": "uint256"
        }
      ],
      "stateMutability": "view",
      "type": "function"
    },
    {
      "inputs": [
        {
          "internalType": "uint256",
          "name": "amount",
          "type": "uint256"
        },
        {
          "internalType": "string",
          "name": "reason",
          "type": "string"
        }
      ],
      "name": "recallIdle",
      "outputs": [],
      "stateMutability": "nonpayable",
      "type": "function"
    },
    {
      "inputs": [
        {
          "internalType": "uint256",
          "name": "saleId",
          "type": "uint256"
        }
      ],
      "name": "refund",
      "outputs": [],
      "stateMutability": "nonpayable",
      "type": "function"
    },
    {
      "inputs": [],
      "name": "renounceOwnership",
      "outputs": [],
      "stateMutability": "nonpayable",
      "type": "function"
    },
    {
      "inputs": [],
      "name": "saleCount",
      "outputs": [
        {
          "internalType": "uint256",
          "name": "",
          "type": "uint256"
        }
      ],
      "stateMutability": "view",
      "type": "function"
    },
    {
      "inputs": [
        {
          "internalType": "uint256",
          "name": "",
          "type": "uint256"
        }
      ],
      "name": "sales",
      "outputs": [
        {
          "internalType": "address",
          "name": "projectOwner",
          "type": "address"
        },
        {
          "internalType": "address",
          "name": "saleToken",
          "type": "address"
        },
        {
          "internalType": "address",
          "name": "raiseToken",
          "type": "address"
        },
        {
          "internalType": "string",
          "name": "name",
          "type": "string"
        },
        {
          "internalType": "string",
          "name": "metaURI",
          "type": "string"
        },
        {
          "internalType": "uint256",
          "name": "pricePerToken",
          "type": "uint256"
        },
        {
          "internalType": "uint256",
          "name": "hardcap",
          "type": "uint256"
        },
        {
          "internalType": "uint256",
          "name": "softcap",
          "type": "uint256"
        },
        {
          "internalType": "uint256",
          "name": "totalTokens",
          "type": "uint256"
        },
        {
          "internalType": "uint256",
          "name": "goldAlloc",
          "type": "uint256"
        },
        {
          "internalType": "uint256",
          "name": "silverAlloc",
          "type": "uint256"
        },
        {
          "internalType": "uint256",
          "name": "bronzeAlloc",
          "type": "uint256"
        },
        {
          "internalType": "uint256",
          "name": "publicAlloc",
          "type": "uint256"
        },
        {
          "internalType": "uint256",
          "name": "startTime",
          "type": "uint256"
        },
        {
          "internalType": "uint256",
          "name": "endTime",
          "type": "uint256"
        },
        {
          "internalType": "uint256",
          "name": "tgeTime",
          "type": "uint256"
        },
        {
          "internalType": "uint256",
          "name": "cliffDuration",
          "type": "uint256"
        },
        {
          "internalType": "uint256",
          "name": "vestDuration",
          "type": "uint256"
        },
        {
          "internalType": "uint256",
          "name": "totalRaised",
          "type": "uint256"
        },
        {
          "internalType": "uint256",
          "name": "launchFeeBps",
          "type": "uint256"
        },
        {
          "internalType": "enum WikiLaunchpad.SaleStatus",
          "name": "status",
          "type": "uint8"
        },
        {
          "internalType": "bool",
          "name": "tokensDeposited",
          "type": "bool"
        }
      ],
      "stateMutability": "view",
      "type": "function"
    },
    {
      "inputs": [
        {
          "internalType": "address",
          "name": "router",
          "type": "address"
        }
      ],
      "name": "setIdleYieldRouter",
      "outputs": [],
      "stateMutability": "nonpayable",
      "type": "function"
    },
    {
      "inputs": [
        {
          "internalType": "uint256",
          "name": "saleId",
          "type": "uint256"
        },
        {
          "internalType": "address",
          "name": "token",
          "type": "address"
        }
      ],
      "name": "setSaleToken",
      "outputs": [],
      "stateMutability": "nonpayable",
      "type": "function"
    },
    {
      "inputs": [
        {
          "internalType": "address",
          "name": "_staking",
          "type": "address"
        }
      ],
      "name": "setStaking",
      "outputs": [],
      "stateMutability": "nonpayable",
      "type": "function"
    },
    {
      "inputs": [
        {
          "internalType": "address",
          "name": "_tl",
          "type": "address"
        }
      ],
      "name": "setTimelock",
      "outputs": [],
      "stateMutability": "nonpayable",
      "type": "function"
    },
    {
      "inputs": [],
      "name": "staking",
      "outputs": [
        {
          "internalType": "contract IWikiStaking",
          "name": "",
          "type": "address"
        }
      ],
      "stateMutability": "view",
      "type": "function"
    },
    {
      "inputs": [
        {
          "internalType": "address",
          "name": "user",
          "type": "address"
        }
      ],
      "name": "tierOf",
      "outputs": [
        {
          "internalType": "uint8",
          "name": "",
          "type": "uint8"
        }
      ],
      "stateMutability": "view",
      "type": "function"
    },
    {
      "inputs": [],
      "name": "timelock",
      "outputs": [
        {
          "internalType": "address",
          "name": "",
          "type": "address"
        }
      ],
      "stateMutability": "view",
      "type": "function"
    },
    {
      "inputs": [
        {
          "internalType": "address",
          "name": "newOwner",
          "type": "address"
        }
      ],
      "name": "transferOwnership",
      "outputs": [],
      "stateMutability": "nonpayable",
      "type": "function"
    },
    {
      "inputs": [
        {
          "internalType": "address",
          "name": "to",
          "type": "address"
        }
      ],
      "name": "withdrawProtocolFees",
      "outputs": [],
      "stateMutability": "nonpayable",
      "type": "function"
    }
  ],
  "bytecode": "0x60a0346101ec57601f612b4b38819003918201601f19168301916001600160401b038311848410176101f0578084926060946040528339810103126101ec5761004781610204565b9061005460208201610204565b906001600160a01b039061006a90604001610204565b169182156101d957600180546001600160a01b03199081169091555f80549182168517815560405194916001600160a01b0316907f8be0079c531659141344cd1fd0a4f28419497f9722a3daafe3b4186f6b6457e09080a360017f9b779b17422d0df92223018b32b4d1fa46e071723d6817e2486d003becc55f00556001600160a01b03169182156101a557506001600160a01b031690811561016057608052600380546001600160a01b031916919091179055604051612932908161021982396080518181816109b701528181610c2801528181610d9c01528181610f93015281816119ee01528181611f8b01526120c60152f35b60405162461bcd60e51b815260206004820152601360248201527f57696b693a207a65726f205f7374616b696e67000000000000000000000000006044820152606490fd5b62461bcd60e51b815260206004820152600f60248201526e57696b693a207a65726f207573646360881b6044820152606490fd5b631e4fbdf760e01b5f525f60045260245ffd5b5f80fd5b634e487b7160e01b5f52604160045260245ffd5b51906001600160a01b03821682036101ec5756fe6101a06040526004361015610012575f80fd5b5f803560e01c806318b998df146121d45780631ad8b03b146121b7578063249d39e91461219b578063278ecde11461203e57806328ff1d4c146120225780632a16e0a9146120065780632d80caa514611f295780632de5357d14611f0657806346e04a2f14611d0f578063484cb5aa14611c985780634cf088d914611c7057806353ae75ba14611c4d57806354bd1bdd14611bb45780635bf56bc4146118eb5780636a26fe47146118c7578063715018a61461186457806371ca45f1146116df57806379ba50971461165a5780637be613ca146116175780637e3fef02146115ef578063847350a014610e59578063885d68a814610df9578063899aabe114610dcb57806389a3027114610d875780638da5cb5b14610d605780638ff3909914610d1d578063a1e89aec14610d00578063aa92938014610acc578063b58e43161461094f578063b5f522f71461076d578063bdacb303146106e6578063c8f74bb8146106b7578063d33219b41461068e578063d8f6d5961461035c578063e056504f1461033f578063e30c397814610316578063e6bc01a21461022c5763f2fde38b146101bd575f80fd5b34610229576020366003190112610229576101d6612239565b6101de6125ac565b600180546001600160a01b0319166001600160a01b0392831690811790915582549091167f38d16b8cac22d99fc7c124b9cd0de2d3fa1faef420bfe791d8c362d765e227008380a380f35b80fd5b5034610229576040366003190112610229578060243567ffffffffffffffff81116103135761025f90369060040161224f565b82546001600160a01b0316331480156102ff575b61027c9061256f565b6007546001600160a01b0316918261029357505050f35b823b156102fa576102cd928492836040518096819582946338d44ad560e01b845260043560048501526040602485015260448401916124c9565b03925af180156102ef576102de5750f35b816102e89161231e565b6102295780f35b6040513d84823e3d90fd5b505050fd5b506007546001600160a01b03163314610273565b50fd5b50346102295780600319360112610229576001546040516001600160a01b039091168152602090f35b5034610229578060031936011261022957602060405161012c8152f35b503461022957602036600319011261022957806102a060405161037e81612301565b828152826020820152826040820152606080820152606060808201528260a08201528260c08201528260e08201528261010082015282610120820152826101408201528261016082015282610180820152826101a0820152826101c0820152826101e08201528261020082015282610220820152826102408201528261026082015282610280820152015261041460043561227d565b509060146040519261042584612301565b80546001600160a01b039081168552600182015481166020860152600282015416604085015261045760038201612340565b606085015261046860048201612340565b6080850152600581015460a0850152600681015460c0850152600781015460e085015260088101546101008501526009810154610120850152600a810154610140850152600b810154610160850152600c810154610180850152600d8101546101a0850152600e8101546101c0850152600f8101546101e08501526010810154610200850152601181015461022085015260128101546102408501526013810154610260850152015490600560ff8316101561067a57508060ff80921661028084015260081c1615156102a082015260405180916020825260018060a01b03815116602083015260018060a01b03602082015116604083015260018060a01b0360408201511660608301526102a06105aa61059460608401516102c060808701526102e08601906123e0565b6080840151858203601f190160a08701526123e0565b9160a081015160c085015260c081015160e085015260e08101516101008501526101008101516101208501526101208101516101408501526101408101516101608501526101608101516101808501526101808101516101a08501526101a08101516101c08501526101c08101516101e08501526101e081015161020085015261020081015161022085015261022081015161024085015261024081015161026085015261026081015161028085015261066c61028082015183860190612404565b015115156102c08301520390f35b634e487b7160e01b81526021600452602490fd5b50346102295780600319360112610229576002546040516001600160a01b039091168152602090f35b50346102295760203660031901126102295760206106db6106d6612239565b61273b565b60ff60405191168152f35b503461022957602036600319011261022957610700612239565b6107086125ac565b6001600160a01b03168015610732576bffffffffffffffffffffffff60a01b600254161760025580f35b60405162461bcd60e51b815260206004820152601360248201527257696b693a207a65726f2074696d656c6f636b60681b6044820152606490fd5b50346102295760203660031901126102295760043560045481101561094b576107959061227d565b50805460018201546001600160a01b0390811661014052600283015481166101605216906107c560038201612340565b610180526107d560048201612340565b91600582015461012052600682015492600783015460088401546009850154600a860154600b87015491600c88015493600d89015495600e8a015497600f8b01549960108c01549b6011810154608052601281015460a052601381015460e052601401546101005260405160c05260c051526101405160c051602001526101605160c0516040015260c0516060016102c0905260c0516102c001610180519061087d916123e0565b60c051810360c05160800152610892916123e0565b9a6101205160c05160a0015260c05160c0015260c05160e0015260c051610100015260c051610120015260c051610140015260c051610160015260c051610180015260c0516101a0015260c0516101c0015260c0516101e0015260c051610200015260805160c051610220015260a05160c051610240015260e05160c051610260015260c051610280016101005160ff169061092d91612404565b6101005160081c60ff16151560c0516102a0015260c051900360c051f35b5080fd5b5034610a47576020366003190112610a475760043560018060a01b035f541633148015610ab8575b6109809061256f565b6007546001600160a01b03168015610a825760405163095ea7b360e01b81526004810191909152602481018290526020816044815f7f00000000000000000000000000000000000000000000000000000000000000006001600160a01b03165af18015610a3c57610a4b575b506007546001600160a01b031690813b15610a47575f91602483926040519485938492630f6baa0f60e21b845260048401525af18015610a3c57610a2e575080f35b610a3a91505f9061231e565b005b6040513d5f823e3d90fd5b5f80fd5b6020813d602011610a7a575b81610a646020938361231e565b81010312610a47575180151581146109ec575f80fd5b3d9150610a57565b60405162461bcd60e51b815260206004820152600e60248201526d149bdd5d195c881b9bdd081cd95d60921b6044820152606490fd5b506007546001600160a01b03163314610977565b34610a47576020366003190112610a4757600435610ae86125bf565b610af18161227d565b50600e8101544210610ccb576014810160ff81541660058110159081610caa5760018114918215610cbe575b8215610c9b575b505015610c5e5760128201805460078401541115610bb95750805460ff19166003179081905560081c60ff16610b8e575b507f8840f1746403527ca19d75881d5a2dd1d2fa4245b660d73c422ca827465cb9b25f80a25b60015f805160206128dd83398151915255005b60018101548154600890920154610bb39290916001600160a01b0391821691166125f7565b81610b55565b917f52c66055cf7320a956274f218515348b0138fe56ed320fef5d3d13e1f120dbef92604092600460ff19825416179055610c4c815492610c0c612710610c0460138401548761253e565b048095612476565b90610c1985600654612455565b600655546001600160a01b03167f00000000000000000000000000000000000000000000000000000000000000006125f7565b549082519182526020820152a2610b7b565b60405162461bcd60e51b815260206004820152601560248201527413140e88185b1c9958591e48199a5b985b1a5e9959605a1b6044820152606490fd5b909150610caa57158480610b24565b634e487b7160e01b5f52602160045260245ffd5b506002811491505f610b1d565b60405162461bcd60e51b815260206004820152600d60248201526c13140e881b9bdd08195b991959609a1b6044820152606490fd5b34610a47575f366003190112610a47576020600454604051908152f35b34610a47576020366003190112610a4757610d36612239565b610d3e6125ac565b600380546001600160a01b0319166001600160a01b0392909216919091179055005b34610a47575f366003190112610a47575f546040516001600160a01b039091168152602090f35b34610a47575f366003190112610a47576040517f00000000000000000000000000000000000000000000000000000000000000006001600160a01b03168152602090f35b34610a47576040366003190112610a47576020610df1610de9612223565b6004356124e9565b604051908152f35b34610a47576040366003190112610a4757610e12612223565b6004355f52600560205260405f209060018060a01b03165f52602052606060405f2080549060ff600260018301549201541690604051928352602083015215156040820152f35b34610a4757610240366003190112610a4757610e73612239565b610e7b612223565b60443567ffffffffffffffff8111610a4757610e9b90369060040161224f565b60649391933567ffffffffffffffff8111610a4757610ebe90369060040161224f565b9390933661018411610a4757366101e411610a4757610edb6125ac565b60c43560a4351015806115e4575b156115b0576101a435610184351015611578576101c4356101a4351161153e57608435151580611533575b156114f6576103e861022435116114be57610f42610f386101243561010435612455565b6101443590612455565b610f5360a435916101643590612455565b0361148457610fcf6004549561022435155f1461147a5761012c925b60405194610f7c86612301565b6001600160a01b03888116875290811660208701527f0000000000000000000000000000000000000000000000000000000000000000166040860152610fc336878b612483565b60608601523691612483565b608083015260843560a083015260a43560c083015260c43560e083015260e43561010083015261010435610120830152610124356101408301526101443561016083015261016435610180830152610184356101a08301526101a4356101c08301526101c4356101e08301526101e435610200830152610204356102208301525f6102408301526102608201525f6102808201525f6102a08201526801000000000000000084101561138b576001840160045561108b8461227d565b61146757815181546001600160a01b039182166001600160a01b031991821617835560208401516001840180549184169183169190911790556040840151600284018054919093169116179055606082015180519067ffffffffffffffff821161138b5781906110fe60038501546122ad565b601f8111611417575b50602090601f83116001146113aa575f9261139f575b50508160011b915f199060031b1c19161760038201555b608082015180519067ffffffffffffffff821161138b5761115860048401546122ad565b601f8111611343575b50602090601f83116001146112d55760149392915f91836112ca575b50508160011b915f199060031b1c19161760048201555b60a0830151600582015560c0830151600682015560e0830151600782015561010083015160088201556101208301516009820155610140830151600a820155610160830151600b820155610180830151600c8201556101a0830151600d8201556101c0830151600e8201556101e0830151600f82015561020083015160108201556102208301516011820155610240830151601282015561026083015160138201550194610280820151926005841015610caa576020966102a07ff7e85a44d4f9a6a0daaaf57eacc588a94d8479a09b5f1a8eec6f7633b251313594889660ff801985541691161783550151151561ff0082549160081b169061ff0019161790556112ac6040519283926040845260408401916124c9565b60a435828901526001600160a01b03909516940390a3604051908152f35b01519050898061117d565b90600484015f52805f20915f5b601f198516811061132b575091839160019360149695601f19811610611313575b505050811b016004820155611194565b01515f1960f88460031b161c19169055898080611303565b919260206001819286850151815501940192016112e2565b600484015f5260205f20601f840160051c81019160208510611381575b601f0160051c01905b8181106113765750611161565b5f8155600101611369565b9091508190611360565b634e487b7160e01b5f52604160045260245ffd5b01519050888061111d565b9250600384015f52805f20905f935b601f19841685106113fc576001945083601f198116106113e4575b505050811b016003820155611134565b01515f1960f88460031b161c191690558880806113d4565b818101518355602094850194600190930192909101906113b9565b909150600384015f5260205f20601f840160051c810160208510611460575b90849392915b601f830160051c82018110611452575050611107565b5f815585945060010161143c565b5080611436565b634e487b7160e01b5f525f60045260245ffd5b6102243592610f6f565b60405162461bcd60e51b8152602060048201526012602482015271098a07440c2d8d8dec640dad2e6dac2e8c6d60731b6044820152606490fd5b60405162461bcd60e51b815260206004820152601060248201526f098a07440cccaca40e8dede40d0d2ced60831b6044820152606490fd5b60405162461bcd60e51b81526020600482015260156024820152744c503a207a65726f2070726963652f746f6b656e7360581b6044820152606490fd5b5060e4351515610f14565b60405162461bcd60e51b815260206004820152601260248201527113140e881511d1481899599bdc9948195b9960721b6044820152606490fd5b60405162461bcd60e51b815260206004820152601060248201526f4c503a206261642074696d656c696e6560801b6044820152606490fd5b60405162461bcd60e51b815260206004820152600c60248201526b4c503a20626164206361707360a01b6044820152606490fd5b5060c4351515610ee9565b34610a47575f366003190112610a47576007546040516001600160a01b039091168152602090f35b34610a47576020366003190112610a4757611630612239565b6116386125ac565b600780546001600160a01b0319166001600160a01b0392909216919091179055005b34610a47575f366003190112610a4757600154336001600160a01b03909116036116cc57600180546001600160a01b03199081169091555f805433928116831782556001600160a01b0316907f8be0079c531659141344cd1fd0a4f28419497f9722a3daafe3b4186f6b6457e09080a3005b63118cdaa760e01b5f523360045260245ffd5b34610a47576020366003190112610a47576004356116fb6125bf565b6117048161227d565b5080546001600160a01b031633148015611851575b1561181a57601481019081549160ff8360081c166117dd5760018201546001600160a01b03169081156117a557600860209361178a926101007f41fb7ad419fc7623dde1142cd095a12727aa6965ab1d484a6d0d9327403d98ba9761ff001916179055019182549030903390612873565b54604051908152a260015f805160206128dd83398151915255005b60405162461bcd60e51b815260206004820152601060248201526f13140e881b9bc81d1bdad95b881cd95d60821b6044820152606490fd5b60405162461bcd60e51b815260206004820152601560248201527413140e88185b1c9958591e4819195c1bdcda5d1959605a1b6044820152606490fd5b60405162461bcd60e51b815260206004820152600f60248201526e13140e881b9bdd081c1c9bda9958dd608a1b6044820152606490fd5b505f546001600160a01b03163314611719565b34610a47575f366003190112610a475761187c6125ac565b600180546001600160a01b03199081169091555f80549182168155906001600160a01b03167f8be0079c531659141344cd1fd0a4f28419497f9722a3daafe3b4186f6b6457e08280a3005b34610a47575f366003190112610a4757602060405169021e19e0c9bab24000008152f35b34610a47576040366003190112610a475760243560043561190a6125bf565b6119138161227d565b50600d81015442101580611ba7575b15611b6c576014810160ff8154166005811015610caa578015908115611b61575b5015611b2d578315611af6576119583361273b565b9061196382846127f2565b5f8581526005602090815260408083203384529091529020805494916119898887612455565b11611ab157601282019460066119a0898854612455565b930192835410611a7657876119b491612455565b90556119c1868554612455565b845560ff825416936005851015610caa5760ff9415611a67575b5490541115611a57575b50611a128430337f0000000000000000000000000000000000000000000000000000000000000000612873565b6040519384521660208301527fb35c5f4931d5b721aea086d86be3a70d28ebed09474914d68e0596d89c64e0a160403393a360015f805160206128dd83398151915255005b60028319825416179055846119e5565b600185198454161783556119db565b60405162461bcd60e51b815260206004820152601360248201527213140e881a185c9918d85c081c995858da1959606a1b6044820152606490fd5b60405162461bcd60e51b815260206004820152601b60248201527f4c503a2065786365656473207469657220616c6c6f636174696f6e00000000006044820152606490fd5b60405162461bcd60e51b815260206004820152600f60248201526e13140e881e995c9bc8185b5bdd5b9d608a1b6044820152606490fd5b60405162461bcd60e51b815260206004820152600c60248201526b26281d103737ba1037b832b760a11b6044820152606490fd5b600191501485611943565b60405162461bcd60e51b81526020600482015260136024820152724c503a2073616c65206e6f742061637469766560681b6044820152606490fd5b50600e8101544210611922565b34610a47576040366003190112610a4757611bcd612223565b5f60408051611bdb816122e5565b82815282602082015201526004355f52600560205260405f209060018060a01b03165f52602052606060405f20604051611c14816122e5565b815491828252604060ff600260018401549360208601948552015416920191151582526040519283525160208301525115156040820152f35b34610a47575f366003190112610a47576020604051686c6b935b8bbd4000008152f35b34610a47575f366003190112610a47576003546040516001600160a01b039091168152602090f35b34610a47576040366003190112610a4757600435611cb4612223565b611cd0611cc08361227d565b50611cca8361273b565b906127f2565b915f52600560205260405f209060018060a01b03165f5260205260405f2054908181115f14611d0557602091610df191612476565b505060205f610df1565b34610a47576020366003190112610a4757600435611d2b6125bf565b611d348161227d565b5090805f52600560205260405f2060018060a01b0333165f5260205260405f209160ff6014820154166005811015610caa57600403611ecd57611d7983541515612411565b6001810180549091906001600160a01b031615611e9957611da3600f820154601083015490612455565b4210611e5d5783611db391612678565b928315611e2057611de1916001859201611dce838254612455565b90555433906001600160a01b03166125f7565b6040519182527f880f2ef2613b092f1a0a819f294155c98667eb294b7e6bf7a3810278142c1a1c60203393a360015f805160206128dd83398151915255005b60405162461bcd60e51b81526020600482015260156024820152744c503a206e6f7468696e6720636c61696d61626c6560581b6044820152606490fd5b60405162461bcd60e51b815260206004820152601460248201527313140e8818db1a5999881b9bdd081c185cdcd95960621b6044820152606490fd5b60405162461bcd60e51b815260206004820152600c60248201526b26281d103737903a37b5b2b760a11b6044820152606490fd5b60405162461bcd60e51b815260206004820152601160248201527013140e881b9bdd08199a5b985b1a5e9959607a1b6044820152606490fd5b34610a47575f366003190112610a47576020604051681b1ae4d6e2ef5000008152f35b34610a47576020366003190112610a4757611f42612239565b611f4a6125ac565b611f526125bf565b600654908115611fd35760207fa087657e3d85162090ffd700fbfdf5070d816f63aa5da00063f6ffd369c8a6db915f600655611faf84827f00000000000000000000000000000000000000000000000000000000000000006125f7565b6040519384526001600160a01b031692a260015f805160206128dd83398151915255005b60405162461bcd60e51b815260206004820152600b60248201526a4c503a206e6f206665657360a81b6044820152606490fd5b34610a47575f366003190112610a475760206040516101f48152f35b34610a47575f366003190112610a475760206040516103e88152f35b34610a47576020366003190112610a475760043561205a6125bf565b6120638161227d565b5090805f52600560205260405f2060018060a01b0333165f5260205260ff601460405f20930154166005811015610caa576003036121655760028254926120ab841515612411565b01805460ff81166121295760ff191660011790556120ea82337f00000000000000000000000000000000000000000000000000000000000000006125f7565b6040519182527f7ca5472b7ea78c2c0141c5a12ee6d170cf4ce8ed06be3d22c8252ddfc7a6a2c460203393a360015f805160206128dd83398151915255005b60405162461bcd60e51b815260206004820152601460248201527313140e88185b1c9958591e481c99599d5b99195960621b6044820152606490fd5b60405162461bcd60e51b815260206004820152600e60248201526d13140e881b9bdd0819985a5b195960921b6044820152606490fd5b34610a47575f366003190112610a475760206040516127108152f35b34610a47575f366003190112610a47576020600654604051908152f35b34610a47576040366003190112610a47576121ed612223565b6121f56125ac565b600161220260043561227d565b500180546001600160a01b0319166001600160a01b03909216919091179055005b602435906001600160a01b0382168203610a4757565b600435906001600160a01b0382168203610a4757565b9181601f84011215610a475782359167ffffffffffffffff8311610a475760208381860195010111610a4757565b6004548110156122995760045f52601560205f20910201905f90565b634e487b7160e01b5f52603260045260245ffd5b90600182811c921680156122db575b60208310146122c757565b634e487b7160e01b5f52602260045260245ffd5b91607f16916122bc565b6060810190811067ffffffffffffffff82111761138b57604052565b6102c0810190811067ffffffffffffffff82111761138b57604052565b90601f8019910116810190811067ffffffffffffffff82111761138b57604052565b9060405191825f825492612353846122ad565b80845293600181169081156123be575060011461237a575b506123789250038361231e565b565b90505f9291925260205f20905f915b8183106123a2575050906020612378928201015f61236b565b6020919350806001915483858901015201910190918492612389565b90506020925061237894915060ff191682840152151560051b8201015f61236b565b805180835260209291819084018484015e5f828201840152601f01601f1916010190565b906005821015610caa5752565b1561241857565b60405162461bcd60e51b815260206004820152601560248201527413140e881b9bdd1a1a5b99c818dbdb5b5a5d1d1959605a1b6044820152606490fd5b9190820180921161246257565b634e487b7160e01b5f52601160045260245ffd5b9190820391821161246257565b92919267ffffffffffffffff821161138b57604051916124ad601f8201601f19166020018461231e565b829481845281830111610a47578281602093845f960137010152565b908060209392818452848401375f828201840152601f01601f1916010190565b906124f38261227d565b509060ff6014830154166005811015610caa5760040361253757612534925f52600560205260405f209060018060a01b03165f5260205260405f2090612678565b90565b5050505f90565b8181029291811591840414171561246257565b811561255b570490565b634e487b7160e01b5f52601260045260245ffd5b1561257657565b60405162461bcd60e51b815260206004820152600e60248201526d139bdd08185d5d1a1bdc9a5e995960921b6044820152606490fd5b5f546001600160a01b031633036116cc57565b60025f805160206128dd83398151915254146125e85760025f805160206128dd83398151915255565b633ee5aeb560e01b5f5260045ffd5b916040519163a9059cbb60e01b5f5260018060a01b031660045260245260205f60448180865af19060015f5114821615612657575b604052156126375750565b635274afe760e01b5f9081526001600160a01b0391909116600452602490fd5b90600181151661266f57823b15153d1516169061262c565b503d5f823e3d90fd5b8154670de0b6b3a7640000810290808204670de0b6b3a764000014901517156124625760058201546126a991612551565b6126bc600f830154601084015490612455565b918242106127335760110154918215612722576126d99042612476565b908282101561271157916126f26126f79260019461253e565b612551565b9101548082111561270b5761253491612476565b50505f90565b915050600161253492015490612476565b509050600161253492015490612476565b505050505f90565b6003546040516336b1df4f60e01b81526001600160a01b0392831660048201529160209183916024918391165afa908115610a3c575f916127c0575b5069021e19e0c9bab24000008110156127ba57686c6b935b8bbd4000008110156127b457681b1ae4d6e2ef50000011156127af575f90565b600190565b50600290565b50600390565b90506020813d6020116127ea575b816127db6020938361231e565b81010312610a4757515f612777565b3d91506127ce565b9060ff166003811461284b57600281146128285760011461281457600c015490565b80600c600b61253493015491015490612455565b5080600c612842600a612534940154600b84015490612455565b91015490612455565b5080600c6128426128686009612534950154600a85015490612455565b600b84015490612455565b6040516323b872dd60e01b5f9081526001600160a01b039384166004529290931660245260449390935260209060648180865af19060015f51148216156128c4575b6040525f606052156126375750565b90600181151661266f57823b15153d151616906128b556fe9b779b17422d0df92223018b32b4d1fa46e071723d6817e2486d003becc55f00a264697066735822122085cbd79bfc697f42b1125cb61af8527cd5c2729dd9e459754c9350965de5183a64736f6c634300081a0033",
  "linkReferences": {},
  "deployedLinkReferences": {}
}