{
  "_format": "hh-sol-artifact-1",
  "contractName": "WikiSmartAccount",
  "sourceName": "src/WikiSmartAccount.sol",
  "abi": [
    {
      "inputs": [
        {
          "internalType": "address",
          "name": "_owner",
          "type": "address"
        },
        {
          "internalType": "address[]",
          "name": "_guardians",
          "type": "address[]"
        },
        {
          "internalType": "uint256",
          "name": "_threshold",
          "type": "uint256"
        }
      ],
      "stateMutability": "nonpayable",
      "type": "constructor"
    },
    {
      "inputs": [],
      "name": "ECDSAInvalidSignature",
      "type": "error"
    },
    {
      "inputs": [
        {
          "internalType": "uint256",
          "name": "length",
          "type": "uint256"
        }
      ],
      "name": "ECDSAInvalidSignatureLength",
      "type": "error"
    },
    {
      "inputs": [
        {
          "internalType": "bytes32",
          "name": "s",
          "type": "bytes32"
        }
      ],
      "name": "ECDSAInvalidSignatureS",
      "type": "error"
    },
    {
      "inputs": [],
      "name": "ReentrancyGuardReentrantCall",
      "type": "error"
    },
    {
      "inputs": [
        {
          "internalType": "address",
          "name": "token",
          "type": "address"
        }
      ],
      "name": "SafeERC20FailedOperation",
      "type": "error"
    },
    {
      "anonymous": false,
      "inputs": [
        {
          "indexed": false,
          "internalType": "uint256",
          "name": "callCount",
          "type": "uint256"
        }
      ],
      "name": "BatchExecuted",
      "type": "event"
    },
    {
      "anonymous": false,
      "inputs": [
        {
          "indexed": false,
          "internalType": "address",
          "name": "guardian",
          "type": "address"
        }
      ],
      "name": "GuardianAdded",
      "type": "event"
    },
    {
      "anonymous": false,
      "inputs": [
        {
          "indexed": false,
          "internalType": "address",
          "name": "newOwner",
          "type": "address"
        }
      ],
      "name": "OwnershipTransferred",
      "type": "event"
    },
    {
      "anonymous": false,
      "inputs": [
        {
          "indexed": true,
          "internalType": "address",
          "name": "key",
          "type": "address"
        },
        {
          "indexed": false,
          "internalType": "uint256",
          "name": "expiresAt",
          "type": "uint256"
        },
        {
          "indexed": false,
          "internalType": "uint256",
          "name": "maxSpend",
          "type": "uint256"
        }
      ],
      "name": "SessionKeyAdded",
      "type": "event"
    },
    {
      "anonymous": false,
      "inputs": [
        {
          "indexed": true,
          "internalType": "address",
          "name": "key",
          "type": "address"
        }
      ],
      "name": "SessionKeyRevoked",
      "type": "event"
    },
    {
      "stateMutability": "payable",
      "type": "fallback"
    },
    {
      "inputs": [],
      "name": "ENTRY_POINT",
      "outputs": [
        {
          "internalType": "address",
          "name": "",
          "type": "address"
        }
      ],
      "stateMutability": "view",
      "type": "function"
    },
    {
      "inputs": [
        {
          "internalType": "address",
          "name": "",
          "type": "address"
        }
      ],
      "name": "acceptedPaymentTokens",
      "outputs": [
        {
          "internalType": "bool",
          "name": "",
          "type": "bool"
        }
      ],
      "stateMutability": "view",
      "type": "function"
    },
    {
      "inputs": [
        {
          "internalType": "address",
          "name": "key",
          "type": "address"
        },
        {
          "internalType": "uint256",
          "name": "durationSeconds",
          "type": "uint256"
        },
        {
          "internalType": "uint256",
          "name": "maxSpendPerTx",
          "type": "uint256"
        },
        {
          "internalType": "uint256",
          "name": "maxTotalSpend",
          "type": "uint256"
        }
      ],
      "name": "addSessionKey",
      "outputs": [],
      "stateMutability": "nonpayable",
      "type": "function"
    },
    {
      "inputs": [
        {
          "internalType": "address",
          "name": "token",
          "type": "address"
        }
      ],
      "name": "addToken",
      "outputs": [],
      "stateMutability": "nonpayable",
      "type": "function"
    },
    {
      "inputs": [
        {
          "internalType": "address",
          "name": "token",
          "type": "address"
        },
        {
          "internalType": "address",
          "name": "spender",
          "type": "address"
        },
        {
          "internalType": "uint256",
          "name": "amount",
          "type": "uint256"
        }
      ],
      "name": "approveToken",
      "outputs": [],
      "stateMutability": "nonpayable",
      "type": "function"
    },
    {
      "inputs": [
        {
          "internalType": "uint256",
          "name": "amount",
          "type": "uint256"
        }
      ],
      "name": "depositToEntryPoint",
      "outputs": [],
      "stateMutability": "payable",
      "type": "function"
    },
    {
      "inputs": [],
      "name": "entryPointAddr",
      "outputs": [
        {
          "internalType": "address",
          "name": "",
          "type": "address"
        }
      ],
      "stateMutability": "view",
      "type": "function"
    },
    {
      "inputs": [
        {
          "internalType": "address",
          "name": "target",
          "type": "address"
        },
        {
          "internalType": "uint256",
          "name": "value",
          "type": "uint256"
        },
        {
          "internalType": "bytes",
          "name": "data",
          "type": "bytes"
        }
      ],
      "name": "execute",
      "outputs": [],
      "stateMutability": "nonpayable",
      "type": "function"
    },
    {
      "inputs": [
        {
          "internalType": "address[]",
          "name": "targets",
          "type": "address[]"
        },
        {
          "internalType": "uint256[]",
          "name": "values",
          "type": "uint256[]"
        },
        {
          "internalType": "bytes[]",
          "name": "datas",
          "type": "bytes[]"
        }
      ],
      "name": "executeBatch",
      "outputs": [],
      "stateMutability": "nonpayable",
      "type": "function"
    },
    {
      "inputs": [],
      "name": "factory",
      "outputs": [
        {
          "internalType": "address",
          "name": "",
          "type": "address"
        }
      ],
      "stateMutability": "view",
      "type": "function"
    },
    {
      "inputs": [],
      "name": "guardianThreshold",
      "outputs": [
        {
          "internalType": "uint256",
          "name": "",
          "type": "uint256"
        }
      ],
      "stateMutability": "view",
      "type": "function"
    },
    {
      "inputs": [
        {
          "internalType": "uint256",
          "name": "",
          "type": "uint256"
        }
      ],
      "name": "guardians",
      "outputs": [
        {
          "internalType": "address",
          "name": "",
          "type": "address"
        }
      ],
      "stateMutability": "view",
      "type": "function"
    },
    {
      "inputs": [],
      "name": "nonce",
      "outputs": [
        {
          "internalType": "uint256",
          "name": "",
          "type": "uint256"
        }
      ],
      "stateMutability": "view",
      "type": "function"
    },
    {
      "inputs": [],
      "name": "owner",
      "outputs": [
        {
          "internalType": "address",
          "name": "",
          "type": "address"
        }
      ],
      "stateMutability": "view",
      "type": "function"
    },
    {
      "inputs": [],
      "name": "pendingOwner",
      "outputs": [
        {
          "internalType": "address",
          "name": "",
          "type": "address"
        }
      ],
      "stateMutability": "view",
      "type": "function"
    },
    {
      "inputs": [
        {
          "internalType": "address",
          "name": "newOwner",
          "type": "address"
        },
        {
          "internalType": "bytes[]",
          "name": "signatures",
          "type": "bytes[]"
        }
      ],
      "name": "recoverOwnership",
      "outputs": [],
      "stateMutability": "nonpayable",
      "type": "function"
    },
    {
      "inputs": [
        {
          "internalType": "address",
          "name": "key",
          "type": "address"
        }
      ],
      "name": "revokeSessionKey",
      "outputs": [],
      "stateMutability": "nonpayable",
      "type": "function"
    },
    {
      "inputs": [
        {
          "internalType": "address",
          "name": "",
          "type": "address"
        }
      ],
      "name": "sessionKeys",
      "outputs": [
        {
          "internalType": "address",
          "name": "key",
          "type": "address"
        },
        {
          "internalType": "uint256",
          "name": "expiresAt",
          "type": "uint256"
        },
        {
          "internalType": "uint256",
          "name": "maxSpendPerTx",
          "type": "uint256"
        },
        {
          "internalType": "uint256",
          "name": "totalSpent",
          "type": "uint256"
        },
        {
          "internalType": "uint256",
          "name": "maxTotalSpend",
          "type": "uint256"
        },
        {
          "internalType": "bool",
          "name": "active",
          "type": "bool"
        }
      ],
      "stateMutability": "view",
      "type": "function"
    },
    {
      "inputs": [
        {
          "internalType": "address",
          "name": "token",
          "type": "address"
        },
        {
          "internalType": "uint256",
          "name": "amount",
          "type": "uint256"
        }
      ],
      "name": "setDailyLimit",
      "outputs": [],
      "stateMutability": "nonpayable",
      "type": "function"
    },
    {
      "inputs": [
        {
          "internalType": "address",
          "name": "ep",
          "type": "address"
        }
      ],
      "name": "setEntryPoint",
      "outputs": [],
      "stateMutability": "nonpayable",
      "type": "function"
    },
    {
      "inputs": [
        {
          "internalType": "address",
          "name": "f",
          "type": "address"
        }
      ],
      "name": "setFactory",
      "outputs": [],
      "stateMutability": "nonpayable",
      "type": "function"
    },
    {
      "inputs": [
        {
          "internalType": "address",
          "name": "",
          "type": "address"
        }
      ],
      "name": "tokenDailyLimit",
      "outputs": [
        {
          "internalType": "uint256",
          "name": "",
          "type": "uint256"
        }
      ],
      "stateMutability": "view",
      "type": "function"
    },
    {
      "inputs": [
        {
          "internalType": "address",
          "name": "",
          "type": "address"
        },
        {
          "internalType": "uint256",
          "name": "",
          "type": "uint256"
        }
      ],
      "name": "tokenDailySpent",
      "outputs": [
        {
          "internalType": "uint256",
          "name": "",
          "type": "uint256"
        }
      ],
      "stateMutability": "view",
      "type": "function"
    },
    {
      "inputs": [
        {
          "components": [
            {
              "internalType": "address",
              "name": "sender",
              "type": "address"
            },
            {
              "internalType": "uint256",
              "name": "nonce",
              "type": "uint256"
            },
            {
              "internalType": "bytes",
              "name": "initCode",
              "type": "bytes"
            },
            {
              "internalType": "bytes",
              "name": "callData",
              "type": "bytes"
            },
            {
              "internalType": "bytes32",
              "name": "accountGasLimits",
              "type": "bytes32"
            },
            {
              "internalType": "uint256",
              "name": "preVerificationGas",
              "type": "uint256"
            },
            {
              "internalType": "bytes32",
              "name": "gasFees",
              "type": "bytes32"
            },
            {
              "internalType": "bytes",
              "name": "paymasterAndData",
              "type": "bytes"
            },
            {
              "internalType": "bytes",
              "name": "signature",
              "type": "bytes"
            }
          ],
          "internalType": "struct PackedUserOperation",
          "name": "userOp",
          "type": "tuple"
        },
        {
          "internalType": "bytes32",
          "name": "userOpHash",
          "type": "bytes32"
        },
        {
          "internalType": "uint256",
          "name": "missingAccountFunds",
          "type": "uint256"
        }
      ],
      "name": "validateUserOp",
      "outputs": [
        {
          "internalType": "uint256",
          "name": "validationData",
          "type": "uint256"
        }
      ],
      "stateMutability": "nonpayable",
      "type": "function"
    },
    {
      "inputs": [
        {
          "internalType": "address payable",
          "name": "to",
          "type": "address"
        },
        {
          "internalType": "uint256",
          "name": "amount",
          "type": "uint256"
        }
      ],
      "name": "withdrawETH",
      "outputs": [],
      "stateMutability": "nonpayable",
      "type": "function"
    },
    {
      "inputs": [
        {
          "internalType": "address",
          "name": "token",
          "type": "address"
        },
        {
          "internalType": "address",
          "name": "to",
          "type": "address"
        },
        {
          "internalType": "uint256",
          "name": "amount",
          "type": "uint256"
        }
      ],
      "name": "withdrawToken",
      "outputs": [],
      "stateMutability": "nonpayable",
      "type": "function"
    },
    {
      "stateMutability": "payable",
      "type": "receive"
    }
  ],
  "bytecode": "0x608060405234610201576118f68038038061001981610205565b928339810190606081830312610201576100328161022a565b60208201519092906001600160401b0381116102015782019181601f84011215610201578251916001600160401b03831161019c578260051b936020610079818701610205565b8095815201906020829682010192831161020157602001905b8282106101e9575050506040015160017f9b779b17422d0df92223018b32b4d1fa46e071723d6817e2486d003becc55f0055926001600160a01b031680156101b0575f80546001600160a01b03191691909117905551906001600160401b03821161019c5768010000000000000000821161019c5760045482600455808310610158575b5060045f5260205f205f5b83811061013b57846005556040516116b7908161023f8239f35b82516001600160a01b031681830155602090920191600101610121565b60045f527f8a35acfbc15ff81a39ae7d344fd709f28e8600b4aa8c65c6b64bfe7fe36bd19b9081019083015b8181106101915750610116565b5f8155600101610184565b634e487b7160e01b5f52604160045260245ffd5b60405162461bcd60e51b81526020600482015260116024820152702bb4b5b49d103d32b937902fb7bbb732b960791b6044820152606490fd5b602080916101f68461022a565b815201910190610092565b5f80fd5b6040519190601f01601f191682016001600160401b0381118382101761019c57604052565b51906001600160a01b03821682036102015756fe60806040526004361015610018575b361561001657005b005b5f3560e01c806301e33667146101b757806319822f7c146101b25780631d6fbd9c146101ad57806323ab159b146101a85780632803212f146101a35780634782f7791461019e57806347e1da2a14610199578063484bb24414610194578063584465f21461018f5780635bb478081461018a57806384f4fc6a146101855780638da5cb5b1461018057806394430fa51461017b578063a55e593d14610176578063a8a839ed14610171578063affed0e01461016c578063b61d27f614610167578063b7b8d60414610162578063c45a01551461015d578063c5ee986214610158578063d48bfca714610153578063d5af4e201461014e578063da3e339714610149578063e30c397814610144578063e3940c281461013f5763f560c7340361000e57610edf565b610e86565b610e5e565b610d8c565b610d6f565b610cfe565b610cb5565b610c8d565b610c0b565b610b9f565b610b82565b610b47565b610aa0565b610a72565b610a4b565b6109d3565b610985565b610937565b6108f7565b610749565b6106cd565b61067f565b610499565b61031a565b6102ca565b6101fd565b6001600160a01b038116036101cd57565b5f80fd5b60609060031901126101cd576004356101e9816101bc565b906024356101f6816101bc565b9060443590565b346101cd5761020b366101d1565b916102146113fb565b61022860018060a01b035f54163314610f39565b610232838261147f565b60405163a9059cbb60e01b5f9081526001600160a01b0393841660045260249490945291169160209060448180865af160015f51148116156102ab575b604091909152156102905761001660015f8051602061166283398151915255565b635274afe760e01b5f526001600160a01b031660045260245ffd5b60018115166102c1573d15833b1515161661026f565b503d5f823e3d90fd5b346101cd5760603660031901126101cd5760043567ffffffffffffffff81116101cd5761012060031982360301126101cd576103126020916044359060243590600401611102565b604051908152f35b346101cd5760803660031901126101cd57600435610337816101bc565b602435604435906064359061035660018060a01b035f54163314610f39565b804201908142116104635761043e610444927f30478d28be29dd278930ac735051673ecaeff378c6a4763b30c935fe097c46f595610392610ff1565b6001600160a01b038916815291602083015260408201525f60608201528460808201526103c260a0820160019052565b6001600160a01b0387165f908152600360205260409020815181546001600160a01b039091166001600160a01b03199091161781556020820151600182015560408201516002820155606082015160038201556080820151600482015560a0909101516005909101805460ff191691151560ff16919091179055565b42611226565b6040805191825260208201929092526001600160a01b039390931692a2005b611212565b9181601f840112156101cd5782359167ffffffffffffffff83116101cd576020808501948460051b0101116101cd57565b346101cd5760403660031901126101cd576004356104b6816101bc565b60243567ffffffffffffffff81116101cd576104d6903690600401610468565b6104e7600593929354821015611233565b6105736002546104fe6104f982611275565b600255565b604051663932b1b7bb32b960c91b602082019081526bffffffffffffffffffffffff19606087901b166027830152603b80830193909352918152610543605b82610fca565b5190207f19457468657265756d205369676e6564204d6573736167653a0a3332000000005f52601c52603c5f2090565b925f935f92600454935b8181106105f0577f04dba622d284ed0014ee4b9a6a68386be1a4c08a4913ae272de89199cc6861636105eb876105b78a600554111561129e565b5f80546001600160a01b0319166001600160a01b0383161790556040516001600160a01b0390911681529081906020820190565b0390a1005b61060e610608610601838588611283565b36916110cc565b846114f5565b6001600160a01b03165f5b86811061062b575b505060010161057d565b8161065c61065061063b84610ec2565b905460039190911b1c6001600160a01b031690565b6001600160a01b031690565b1461066957600101610619565b505095610677600191611275565b96905f610621565b346101cd5760403660031901126101cd5760043561069c816101bc565b602435906106b460018060a01b035f54163314610f39565b6001600160a01b03165f90815260066020526040902055005b346101cd5760403660031901126101cd575f8080806004356106ee816101bc565b602435906106fa6113fb565b61070e60018060a01b038454163314610f39565b8290821561073f575b6001600160a01b031690f11561073a5760015f8051602061166283398151915255005b6112f6565b6108fc9150610717565b346101cd5760603660031901126101cd5760043567ffffffffffffffff81116101cd5761077a903690600401610468565b60243567ffffffffffffffff81116101cd5761079a903690600401610468565b929060443567ffffffffffffffff81116101cd576107bc903690600401610468565b94735ff137d4b0fdcd49dca30c7cf57e578a026d278933036108de575b6107e16113fb565b808514806108d5575b1561089a575f5b85811061083a576040518681527fe9cc9bbe7de1cbb097a6357ca3182909488efe8d793e25665befc064a02d10a790602090a161001660015f8051602061166283398151915255565b5f8061084f61084a848a8a611301565b611311565b61085a848689611301565b35610866858c89611283565b91906108776040518094819361131e565b03925af161088361101e565b901561089257506001016107f1565b602081519101fd5b60405162461bcd60e51b81526020600482015260136024820152720a6827440d8cadccee8d040dad2e6dac2e8c6d606b1b6044820152606490fd5b508581146107ea565b6108f260018060a01b035f54163314610f39565b6107d9565b346101cd5760203660031901126101cd57600435610914816101bc565b60018060a01b03165f526008602052602060ff60405f2054166040519015158152f35b346101cd5760203660031901126101cd57600435610954816101bc565b600a54906001600160a01b0382161561096957005b6001600160a01b03166001600160a01b03199190911617600a55005b346101cd5760203660031901126101cd576004356109a2816101bc565b600954906001600160a01b038216156109b757005b6001600160a01b03166001600160a01b03199190911617600955005b346101cd5760203660031901126101cd576004356109f0816101bc565b610a0460018060a01b035f54163314610f39565b6001600160a01b03165f818152600360205260408120600501805460ff191690557f17c796fb82086b3c9effaec517342e5ca9ed8fd78c339137ec082f748ab60cbe9080a2005b346101cd575f3660031901126101cd575f546040516001600160a01b039091168152602090f35b346101cd575f3660031901126101cd576020604051735ff137d4b0fdcd49dca30c7cf57e578a026d27898152f35b60203660031901126101cd575f80600435610ac560018060a01b038354163314610f39565b60018060a01b03600a54169060405190602082019163b760faf960e01b835230602482015260248152610af9604482610fca565b51925af1610b0561101e565b5015610b0d57005b60405162461bcd60e51b815260206004820152601260248201527114d04e8819195c1bdcda5d0819985a5b195960721b6044820152606490fd5b346101cd5760203660031901126101cd57600435610b64816101bc565b60018060a01b03165f526006602052602060405f2054604051908152f35b346101cd575f3660031901126101cd576020600254604051908152f35b346101cd5760603660031901126101cd57600435610bbc816101bc565b6024356044359167ffffffffffffffff83116101cd57366023840112156101cd5782600401359167ffffffffffffffff83116101cd5736602484860101116101cd57602461001694019161132b565b346101cd5760203660031901126101cd57600435610c28816101bc565b6001600160a01b039081165f90815260036020818152604092839020805460018201546002830154948301546004840154600590940154875193909816835293820152938401929092526060830152608082015260ff909116151560a082015260c090f35b346101cd575f3660031901126101cd576009546040516001600160a01b039091168152602090f35b346101cd5760403660031901126101cd57600435610cd2816101bc565b6024359060018060a01b03165f52600760205260405f20905f52602052602060405f2054604051908152f35b346101cd5760203660031901126101cd57600435610d1b816101bc565b5f546001600160a01b031633148015610d5b575b610d38906113a2565b6001600160a01b03165f908152600860205260409020805460ff19166001179055005b506009546001600160a01b03163314610d2f565b346101cd575f3660031901126101cd576020600554604051908152f35b346101cd57610e006020610d9f366101d1565b5f5490929190610db7906001600160a01b0316610650565b33148015610e41575b610dc9906113a2565b60405163095ea7b360e01b81526001600160a01b0390911660048201526024810192909252909283919082905f9082906044820190565b03926001600160a01b03165af1801561073a57610e1957005b6100169060203d602011610e3a575b610e328183610fca565b8101906113e3565b503d610e28565b5033735ff137d4b0fdcd49dca30c7cf57e578a026d278914610dc0565b346101cd575f3660031901126101cd576001546040516001600160a01b039091168152602090f35b346101cd575f3660031901126101cd57600a546040516001600160a01b039091168152602090f35b634e487b7160e01b5f52603260045260245ffd5b600454811015610eda5760045f5260205f2001905f90565b610eae565b346101cd5760203660031901126101cd576004356004548110156101cd5760045f527f8a35acfbc15ff81a39ae7d344fd709f28e8600b4aa8c65c6b64bfe7fe36bd19b01546040516001600160a01b039091168152602090f35b15610f4057565b60405162461bcd60e51b815260206004820152600d60248201526c29a09d103737ba1037bbb732b960991b6044820152606490fd5b15610f7c57565b60405162461bcd60e51b815260206004820152601260248201527114d04e881b9bdd08115b9d1c9e541bda5b9d60721b6044820152606490fd5b634e487b7160e01b5f52604160045260245ffd5b90601f8019910116810190811067ffffffffffffffff821117610fec57604052565b610fb6565b6040519061100060c083610fca565b565b67ffffffffffffffff8111610fec57601f01601f191660200190565b3d15611048573d9061102f82611002565b9161103d6040519384610fca565b82523d5f602084013e565b606090565b1561105457565b60405162461bcd60e51b815260206004820152601860248201527f53413a2066756e64207472616e73666572206661696c656400000000000000006044820152606490fd5b903590601e19813603018212156101cd570180359067ffffffffffffffff82116101cd576020019181360383136101cd57565b9291926110d882611002565b916110e66040519384610fca565b8294818452818301116101cd578281602093845f960137010152565b906106016111646111709261117695611130735ff137d4b0fdcd49dca30c7cf57e578a026d27893314610f75565b806111df575b507f19457468657265756d205369676e6564204d6573736167653a0a3332000000005f52601c52603c5f2090565b92610100810190611099565b906114f5565b5f5461118a906001600160a01b0316610650565b6001600160a01b038216146111da576001600160a01b03165f908152600360205260409020600581015460ff1690816111cc575b506111c857600190565b5f90565b60019150015442105f6111be565b505f90565b5f80808061120c94735ff137d4b0fdcd49dca30c7cf57e578a026d27895af161120661101e565b5061104d565b5f611136565b634e487b7160e01b5f52601160045260245ffd5b9190820180921161046357565b1561123a57565b60405162461bcd60e51b815260206004820152601360248201527253413a206e6f7420656e6f756768207369677360681b6044820152606490fd5b5f1981146104635760010190565b90821015610eda5761129a9160051b810190611099565b9091565b156112a557565b60405162461bcd60e51b815260206004820152602360248201527f53413a20696e73756666696369656e7420677561726469616e20617070726f76604482015262616c7360e81b6064820152608490fd5b6040513d5f823e3d90fd5b9190811015610eda5760051b0190565b3561131b816101bc565b90565b908092918237015f815290565b90925f938493735ff137d4b0fdcd49dca30c7cf57e578a026d27893303611389575b6113556113fb565b826040519384928337810185815203925af161136f61101e565b9015610892575060015f8051602061166283398151915255565b61139d60018060a01b038654163314610f39565b61134d565b156113a957565b60405162461bcd60e51b815260206004820152601260248201527114d04e881b9bdd08185d5d1a1bdc9a5cd95960721b6044820152606490fd5b908160209103126101cd575180151581036101cd5790565b60025f8051602061166283398151915254146114245760025f8051602061166283398151915255565b633ee5aeb560e01b5f5260045ffd5b1561143a57565b60405162461bcd60e51b815260206004820152601860248201527f53413a206461696c79206c696d697420657863656564656400000000000000006044820152606490fd5b6001600160a01b03165f818152600660205260409020549062015180420482156114ef57815f52600760205260405f20815f5260205260405f2091825494850180951161046357611000946114e793555f52600760205260405f20905f5260205260405f2090565b541115611433565b50505050565b61131b916115029161150b565b90929192611563565b815191906041830361153b576115349250602082015190606060408401519301515f1a906115df565b9192909190565b50505f9160029190565b6004111561154f57565b634e487b7160e01b5f52602160045260245ffd5b61156c81611545565b80611575575050565b61157e81611545565b600181036115955763f645eedf60e01b5f5260045ffd5b61159e81611545565b600281036115b9575063fce698f760e01b5f5260045260245ffd5b806115c5600392611545565b146115cd5750565b6335e2f38360e21b5f5260045260245ffd5b91907f7fffffffffffffffffffffffffffffff5d576e7357a4501ddfe92f46681b20a08411611656579160209360809260ff5f9560405194855216868401526040830152606082015282805260015afa1561073a575f516001600160a01b0381161561164c57905f905f90565b505f906001905f90565b5050505f916003919056fe9b779b17422d0df92223018b32b4d1fa46e071723d6817e2486d003becc55f00a2646970667358221220d978edbc2df1b38e290d5e451b75b2233ce97ac49cba22920c63c09b2ca66eaf64736f6c634300081a0033",
  "linkReferences": {},
  "deployedLinkReferences": {}
}