{
  "_format": "hh-sol-artifact-1",
  "contractName": "WikiRateLimiter",
  "sourceName": "src/WikiRateLimiter.sol",
  "abi": [
    {
      "inputs": [
        {
          "internalType": "address",
          "name": "_owner",
          "type": "address"
        }
      ],
      "stateMutability": "nonpayable",
      "type": "constructor"
    },
    {
      "inputs": [
        {
          "internalType": "address",
          "name": "owner",
          "type": "address"
        }
      ],
      "name": "OwnableInvalidOwner",
      "type": "error"
    },
    {
      "inputs": [
        {
          "internalType": "address",
          "name": "account",
          "type": "address"
        }
      ],
      "name": "OwnableUnauthorizedAccount",
      "type": "error"
    },
    {
      "anonymous": false,
      "inputs": [
        {
          "indexed": true,
          "internalType": "bytes32",
          "name": "action",
          "type": "bytes32"
        },
        {
          "indexed": false,
          "internalType": "uint256",
          "name": "maxPerHour",
          "type": "uint256"
        }
      ],
      "name": "FlowLimitUpdated",
      "type": "event"
    },
    {
      "anonymous": false,
      "inputs": [
        {
          "indexed": true,
          "internalType": "address",
          "name": "previousOwner",
          "type": "address"
        },
        {
          "indexed": true,
          "internalType": "address",
          "name": "newOwner",
          "type": "address"
        }
      ],
      "name": "OwnershipTransferStarted",
      "type": "event"
    },
    {
      "anonymous": false,
      "inputs": [
        {
          "indexed": true,
          "internalType": "address",
          "name": "previousOwner",
          "type": "address"
        },
        {
          "indexed": true,
          "internalType": "address",
          "name": "newOwner",
          "type": "address"
        }
      ],
      "name": "OwnershipTransferred",
      "type": "event"
    },
    {
      "anonymous": false,
      "inputs": [
        {
          "indexed": true,
          "internalType": "address",
          "name": "user",
          "type": "address"
        },
        {
          "indexed": false,
          "internalType": "bytes32",
          "name": "action",
          "type": "bytes32"
        },
        {
          "indexed": false,
          "internalType": "string",
          "name": "reason",
          "type": "string"
        }
      ],
      "name": "RateLimitHit",
      "type": "event"
    },
    {
      "inputs": [
        {
          "internalType": "string",
          "name": "name",
          "type": "string"
        }
      ],
      "name": "ACTION",
      "outputs": [
        {
          "internalType": "bytes32",
          "name": "",
          "type": "bytes32"
        }
      ],
      "stateMutability": "pure",
      "type": "function"
    },
    {
      "inputs": [],
      "name": "acceptOwnership",
      "outputs": [],
      "stateMutability": "nonpayable",
      "type": "function"
    },
    {
      "inputs": [
        {
          "internalType": "address",
          "name": "user",
          "type": "address"
        },
        {
          "internalType": "bytes32",
          "name": "action",
          "type": "bytes32"
        },
        {
          "internalType": "uint256",
          "name": "amount",
          "type": "uint256"
        }
      ],
      "name": "checkAndRecord",
      "outputs": [],
      "stateMutability": "nonpayable",
      "type": "function"
    },
    {
      "inputs": [
        {
          "internalType": "address",
          "name": "user",
          "type": "address"
        },
        {
          "internalType": "bytes32",
          "name": "action",
          "type": "bytes32"
        },
        {
          "internalType": "uint256",
          "name": "amount",
          "type": "uint256"
        }
      ],
      "name": "checkOnly",
      "outputs": [
        {
          "internalType": "bool",
          "name": "allowed",
          "type": "bool"
        },
        {
          "internalType": "string",
          "name": "reason",
          "type": "string"
        }
      ],
      "stateMutability": "view",
      "type": "function"
    },
    {
      "inputs": [
        {
          "internalType": "bytes32",
          "name": "",
          "type": "bytes32"
        }
      ],
      "name": "flowLimits",
      "outputs": [
        {
          "internalType": "uint256",
          "name": "maxPerHour",
          "type": "uint256"
        },
        {
          "internalType": "uint256",
          "name": "currentHour",
          "type": "uint256"
        },
        {
          "internalType": "uint256",
          "name": "hourStart",
          "type": "uint256"
        },
        {
          "internalType": "uint256",
          "name": "maxPerBlock",
          "type": "uint256"
        },
        {
          "internalType": "uint256",
          "name": "blockVolume",
          "type": "uint256"
        },
        {
          "internalType": "uint256",
          "name": "lastBlock",
          "type": "uint256"
        }
      ],
      "stateMutability": "view",
      "type": "function"
    },
    {
      "inputs": [],
      "name": "largeOpCooldownSeconds",
      "outputs": [
        {
          "internalType": "uint256",
          "name": "",
          "type": "uint256"
        }
      ],
      "stateMutability": "view",
      "type": "function"
    },
    {
      "inputs": [],
      "name": "largeOpThreshold",
      "outputs": [
        {
          "internalType": "uint256",
          "name": "",
          "type": "uint256"
        }
      ],
      "stateMutability": "view",
      "type": "function"
    },
    {
      "inputs": [],
      "name": "maxOpsPerBlock",
      "outputs": [
        {
          "internalType": "uint256",
          "name": "",
          "type": "uint256"
        }
      ],
      "stateMutability": "view",
      "type": "function"
    },
    {
      "inputs": [],
      "name": "maxUserHourlyVolume",
      "outputs": [
        {
          "internalType": "uint256",
          "name": "",
          "type": "uint256"
        }
      ],
      "stateMutability": "view",
      "type": "function"
    },
    {
      "inputs": [],
      "name": "owner",
      "outputs": [
        {
          "internalType": "address",
          "name": "",
          "type": "address"
        }
      ],
      "stateMutability": "view",
      "type": "function"
    },
    {
      "inputs": [],
      "name": "pendingOwner",
      "outputs": [
        {
          "internalType": "address",
          "name": "",
          "type": "address"
        }
      ],
      "stateMutability": "view",
      "type": "function"
    },
    {
      "inputs": [],
      "name": "renounceOwnership",
      "outputs": [],
      "stateMutability": "nonpayable",
      "type": "function"
    },
    {
      "inputs": [
        {
          "internalType": "bytes32",
          "name": "action",
          "type": "bytes32"
        },
        {
          "internalType": "uint256",
          "name": "maxPerHour",
          "type": "uint256"
        },
        {
          "internalType": "uint256",
          "name": "maxPerBlock",
          "type": "uint256"
        }
      ],
      "name": "setFlowLimit",
      "outputs": [],
      "stateMutability": "nonpayable",
      "type": "function"
    },
    {
      "inputs": [
        {
          "internalType": "uint256",
          "name": "_maxOpsPerBlock",
          "type": "uint256"
        },
        {
          "internalType": "uint256",
          "name": "_cooldown",
          "type": "uint256"
        },
        {
          "internalType": "uint256",
          "name": "_threshold",
          "type": "uint256"
        },
        {
          "internalType": "uint256",
          "name": "_maxHourly",
          "type": "uint256"
        }
      ],
      "name": "setUserLimits",
      "outputs": [],
      "stateMutability": "nonpayable",
      "type": "function"
    },
    {
      "inputs": [
        {
          "internalType": "address",
          "name": "newOwner",
          "type": "address"
        }
      ],
      "name": "transferOwnership",
      "outputs": [],
      "stateMutability": "nonpayable",
      "type": "function"
    },
    {
      "inputs": [
        {
          "internalType": "address",
          "name": "",
          "type": "address"
        }
      ],
      "name": "userLimits",
      "outputs": [
        {
          "internalType": "uint256",
          "name": "lastOpBlock",
          "type": "uint256"
        },
        {
          "internalType": "uint256",
          "name": "opsThisBlock",
          "type": "uint256"
        },
        {
          "internalType": "uint256",
          "name": "lastLargeOpTime",
          "type": "uint256"
        },
        {
          "internalType": "uint256",
          "name": "volumeThisHour",
          "type": "uint256"
        },
        {
          "internalType": "uint256",
          "name": "hourWindowStart",
          "type": "uint256"
        }
      ],
      "stateMutability": "view",
      "type": "function"
    }
  ],
  "bytecode": "0x60806040523461038f57610fa26020813803918261001c816103c6565b93849283398101031261038f57516001600160a01b0381169081900361038f57801561037c57600180546001600160a01b03199081169091555f8054918216831781556001600160a01b03909116907f8be0079c531659141344cd1fd0a4f28419497f9722a3daafe3b4186f6b6457e09080a36003600455601e6005556402540be40060065564174876e8006007556100b560406103c6565b600e81526d5641554c545f574954484452415760901b6020909101527f1c6e63c580bd75a801dfddc4496cc54af960faccdbdcba328620f1acf6ffb3e260056100fc610393565b916509184e72a0008352602083015f815260408401428152606085019064e8d4a51000825260808601925f845260a08701944386525f52600360205260405f20965187555160018701555160028601555160038501555160048401555191015561016660406103c6565b600f81526e212924a223a2afaa2920a729a322a960891b6020909101527f86467029bb0e871c3ae789b645f0c0bbecb98f56765e566e316340348e5290dc60056101ae610393565b9165048c273950008352602083015f815260408401428152606085019064746a528800825260808601925f845260a08701944386525f52600360205260405f20965187555160018701555160028601555160038501555160048401555191015561021860406103c6565b600e81526d4c454e44494e475f424f52524f5760901b6020909101527f08ef431c43a470a0e8c0552955022813b08046d4814a53b6d7ebebf945f422fe600561025f610393565b916512309ce540008352602083015f81526040840142815260608501906501d1a94a2000825260808601925f845260a08701944386525f52600360205260405f2096518755516001870155516002860155516003850155516004840155519101556102ca60406103c6565b60098152682822a9282fa7a822a760b91b6020909101527fa25e0f5b6fb8e1471b5389f9e3d75b82d968564d76c2b61e821fa49262dd22f7600561030c610393565b91652d79883d20008352602083015f815260408401428152606085019065048c27395000825260808601925f845260a08701944386525f52600360205260405f209651875551600187015551600286015551600385015551600484015551910155604051610bb690816103ec8239f35b631e4fbdf760e01b5f525f60045260245ffd5b5f80fd5b6040519060c082016001600160401b038111838210176103b257604052565b634e487b7160e01b5f52604160045260245ffd5b6040519190601f01601f191682016001600160401b038111838210176103b25760405256fe6080806040526004361015610012575f80fd5b5f3560e01c908163025c0458146107b7575080631ec58da0146104c3578063260e0117146104a65780632c1bc2b21461044257806335e9c08114610425578063419ed6a914610408578063715018a6146103a557806379ba5097146103205780638da5cb5b146102f9578063b727b2e9146102a7578063c4efd24f1461028a578063d1216df014610257578063da77d1b7146101d4578063e30c3978146101ac578063f2fde38b1461013a5763fad6d624146100cc575f80fd5b34610136576060366003190112610136576004357f096f2ac9761e9ef3d156f101f37fdc650051a5d1f73d98e5d88b445b4dd90685602060243561010e610b6d565b835f52600382528060405f2055835f5260038252604435600360405f200155604051908152a2005b5f80fd5b3461013657602036600319011261013657610153610814565b61015b610b6d565b60018060a01b0316806bffffffffffffffffffffffff60a01b600154161760015560018060a01b035f54167f38d16b8cac22d99fc7c124b9cd0de2d3fa1faef420bfe791d8c362d765e227005f80a3005b34610136575f366003190112610136576001546040516001600160a01b039091168152602090f35b346101365760203660031901126101365760043567ffffffffffffffff811161013657366023820112156101365780600401359067ffffffffffffffff8211610136573660248383010111610136576020915f8361023a601f8401601f19168201610854565b928084528060248386019601863783010152519020604051908152f35b3461013657608036600319011261013657610270610b6d565b600480359055602435600555604435600655606435600755005b34610136575f366003190112610136576020600554604051908152f35b346101365760606102c06102ba3661082a565b916108a8565b91906020604051938492151583526040828401528051918291826040860152018484015e5f828201840152601f01601f19168101030190f35b34610136575f366003190112610136575f546040516001600160a01b039091168152602090f35b34610136575f36600319011261013657600154336001600160a01b039091160361039257600180546001600160a01b03199081169091555f805433928116831782556001600160a01b0316907f8be0079c531659141344cd1fd0a4f28419497f9722a3daafe3b4186f6b6457e09080a3005b63118cdaa760e01b5f523360045260245ffd5b34610136575f366003190112610136576103bd610b6d565b600180546001600160a01b03199081169091555f80549182168155906001600160a01b03167f8be0079c531659141344cd1fd0a4f28419497f9722a3daafe3b4186f6b6457e08280a3005b34610136575f366003190112610136576020600654604051908152f35b34610136575f366003190112610136576020600454604051908152f35b34610136576020366003190112610136576001600160a01b03610463610814565b165f52600260205260a060405f20805490600181015490600281015460046003830154920154926040519485526020850152604084015260608301526080820152f35b34610136575f366003190112610136576020600754604051908152f35b34610136576104d13661082a565b6001600160a01b039092165f818152600260205260409020805443146106f4575b5060065483101561066c575b6105088383610a1a565b805f52600260205260405f20610e0f1942014281116105e957600482015485911161066157600361053a92015461089b565b6007541061060b575f52600260205260405f20438154145f146105fd576001810180545f1981146105e95760010190555b6006548310156105de575b826004820191610e1061058a84544261088e565b106105c557600301554290555b5f5260036020526105c1600460405f20600181016105b685825461089b565b90550191825461089b565b9055005b905060039150016105d783825461089b565b9055610597565b426002820155610576565b634e487b7160e01b5f52601160045260245ffd5b43815560018082015561056b565b60405162461bcd60e51b815260206004820152602860248201527f526174654c696d697465723a207573657220686f75726c7920766f6c756d6520604482015267195e18d95959195960c21b6064820152608490fd5b61053a91505f61089b565b805f526002602052600260405f20015480151590816106df575b50156104fe5760405162461bcd60e51b815260206004820152602560248201527f526174654c696d697465723a206c61726765206f7020636f6f6c646f776e2061604482015264637469766560d81b6064820152608490fd5b6106ea91504261088e565b6005541184610686565b60010154600454111561070757836104f2565b7f5f2c2afbb47df26d14b0f3e5d9c6ad826f4944fce9d6c1679bfa478cc43f442360808360405190815260406020820152601760408201527f746f6f206d616e79206f7073207468697320626c6f636b0000000000000000006060820152a260405162461bcd60e51b815260206004820152602360248201527f526174654c696d697465723a207065722d626c6f636b206f707320657863656560448201526219195960ea1b6064820152608490fd5b346101365760203660031901126101365760c0906004355f52600360205260405f208054906001810154600282015460038301549160056004850154940154948652602086015260408501526060840152608083015260a0820152f35b600435906001600160a01b038216820361013657565b6060906003190112610136576004356001600160a01b038116810361013657906024359060443590565b6040519190601f01601f1916820167ffffffffffffffff81118382101761087a57604052565b634e487b7160e01b5f52604160045260245ffd5b919082039182116105e957565b919082018092116105e957565b6001600160a01b03165f9081526002602052604090208054431480610a0a575b6109ce5760065483101590816109b5575b5061097a575f52600360205260405f2080549182610908575b5050506001906109026020610854565b5f815290565b600282015491610e1083018093116105e95761092d924211610973576001015461089b565b1161093a575f80806108f2565b5f906109466040610854565b601781527f726174653a20676c6f62616c20686f75726c7920636170000000000000000000602082015290565b505f61089b565b50505f906109886040610854565b601781527f726174653a206c61726765206f7020636f6f6c646f776e000000000000000000602082015290565b6109c49150600201544261088e565b600554115f6108d9565b5050505f906109dd6040610854565b601d81527f726174653a20746f6f206d616e79206f7073207468697320626c6f636b000000602082015290565b50600181015460045411156108c8565b5f52600360205260405f209081548015610b6857600283018054610e1081018091116105e957421015610b59575b506005830180544311610b4a575b50610a6582600185015461089b565b11610af4576003820154908115159283610adc575b505050610a8357565b60405162461bcd60e51b815260206004820152602b60248201527f526174654c696d697465723a20676c6f62616c207065722d626c6f636b20666c60448201526a1bddc8195e18d95959195960aa1b6064820152608490fd5b610aeb9293506004015461089b565b115f8080610a7a565b60405162461bcd60e51b815260206004820152602860248201527f526174654c696d697465723a20676c6f62616c20686f75726c7920666c6f7720604482015267195e18d95959195960c21b6064820152608490fd5b5f60048501554390555f610a56565b5f60018501554290555f610a48565b505050565b5f546001600160a01b031633036103925756fea2646970667358221220353cc51f6900a2b6bd9f4c0409551ae1de5400b7abadfa3403ae3f87d40c1eb264736f6c634300081a0033",
  "linkReferences": {},
  "deployedLinkReferences": {}
}