{
  "_format": "hh-sol-artifact-1",
  "contractName": "WikiAPIGateway",
  "sourceName": "src/WikiAPIGateway.sol",
  "abi": [
    {
      "inputs": [
        {
          "internalType": "address",
          "name": "_owner",
          "type": "address"
        },
        {
          "internalType": "address",
          "name": "_usdc",
          "type": "address"
        },
        {
          "internalType": "address",
          "name": "_treasury",
          "type": "address"
        }
      ],
      "stateMutability": "nonpayable",
      "type": "constructor"
    },
    {
      "inputs": [
        {
          "internalType": "address",
          "name": "owner",
          "type": "address"
        }
      ],
      "name": "OwnableInvalidOwner",
      "type": "error"
    },
    {
      "inputs": [
        {
          "internalType": "address",
          "name": "account",
          "type": "address"
        }
      ],
      "name": "OwnableUnauthorizedAccount",
      "type": "error"
    },
    {
      "inputs": [],
      "name": "ReentrancyGuardReentrantCall",
      "type": "error"
    },
    {
      "inputs": [
        {
          "internalType": "address",
          "name": "token",
          "type": "address"
        }
      ],
      "name": "SafeERC20FailedOperation",
      "type": "error"
    },
    {
      "anonymous": false,
      "inputs": [
        {
          "indexed": true,
          "internalType": "address",
          "name": "owner",
          "type": "address"
        },
        {
          "indexed": false,
          "internalType": "bytes32",
          "name": "keyHash",
          "type": "bytes32"
        },
        {
          "indexed": false,
          "internalType": "enum WikiAPIGateway.KeyTier",
          "name": "tier",
          "type": "uint8"
        },
        {
          "indexed": false,
          "internalType": "string",
          "name": "label",
          "type": "string"
        }
      ],
      "name": "APIKeyCreated",
      "type": "event"
    },
    {
      "anonymous": false,
      "inputs": [
        {
          "indexed": false,
          "internalType": "bytes32",
          "name": "keyHash",
          "type": "bytes32"
        }
      ],
      "name": "APIKeyRevoked",
      "type": "event"
    },
    {
      "anonymous": false,
      "inputs": [
        {
          "indexed": false,
          "internalType": "bytes32",
          "name": "keyHash",
          "type": "bytes32"
        },
        {
          "indexed": false,
          "internalType": "uint256",
          "name": "notional",
          "type": "uint256"
        }
      ],
      "name": "OrderExecuted",
      "type": "event"
    },
    {
      "anonymous": false,
      "inputs": [
        {
          "indexed": true,
          "internalType": "address",
          "name": "previousOwner",
          "type": "address"
        },
        {
          "indexed": true,
          "internalType": "address",
          "name": "newOwner",
          "type": "address"
        }
      ],
      "name": "OwnershipTransferStarted",
      "type": "event"
    },
    {
      "anonymous": false,
      "inputs": [
        {
          "indexed": true,
          "internalType": "address",
          "name": "previousOwner",
          "type": "address"
        },
        {
          "indexed": true,
          "internalType": "address",
          "name": "newOwner",
          "type": "address"
        }
      ],
      "name": "OwnershipTransferred",
      "type": "event"
    },
    {
      "anonymous": false,
      "inputs": [
        {
          "indexed": false,
          "internalType": "bytes32",
          "name": "keyHash",
          "type": "bytes32"
        },
        {
          "indexed": false,
          "internalType": "enum WikiAPIGateway.KeyTier",
          "name": "newTier",
          "type": "uint8"
        }
      ],
      "name": "TierUpgraded",
      "type": "event"
    },
    {
      "inputs": [],
      "name": "USDC",
      "outputs": [
        {
          "internalType": "contract IERC20",
          "name": "",
          "type": "address"
        }
      ],
      "stateMutability": "view",
      "type": "function"
    },
    {
      "inputs": [],
      "name": "acceptOwnership",
      "outputs": [],
      "stateMutability": "nonpayable",
      "type": "function"
    },
    {
      "inputs": [
        {
          "internalType": "bytes32",
          "name": "",
          "type": "bytes32"
        }
      ],
      "name": "apiKeys",
      "outputs": [
        {
          "internalType": "address",
          "name": "owner",
          "type": "address"
        },
        {
          "internalType": "bytes32",
          "name": "keyHash",
          "type": "bytes32"
        },
        {
          "internalType": "enum WikiAPIGateway.KeyTier",
          "name": "tier",
          "type": "uint8"
        },
        {
          "internalType": "bool",
          "name": "canTrade",
          "type": "bool"
        },
        {
          "internalType": "bool",
          "name": "canWithdraw",
          "type": "bool"
        },
        {
          "internalType": "uint256",
          "name": "maxOrderSize",
          "type": "uint256"
        },
        {
          "internalType": "uint256",
          "name": "dailyVolLimit",
          "type": "uint256"
        },
        {
          "internalType": "uint256",
          "name": "rateLimit",
          "type": "uint256"
        },
        {
          "internalType": "uint256",
          "name": "expiryTs",
          "type": "uint256"
        },
        {
          "internalType": "uint256",
          "name": "ordersToday",
          "type": "uint256"
        },
        {
          "internalType": "uint256",
          "name": "volumeToday",
          "type": "uint256"
        },
        {
          "internalType": "uint256",
          "name": "lastReset",
          "type": "uint256"
        },
        {
          "internalType": "uint256",
          "name": "createdAt",
          "type": "uint256"
        },
        {
          "internalType": "bool",
          "name": "active",
          "type": "bool"
        },
        {
          "internalType": "string",
          "name": "label",
          "type": "string"
        }
      ],
      "stateMutability": "view",
      "type": "function"
    },
    {
      "inputs": [
        {
          "internalType": "bytes32",
          "name": "keyHash",
          "type": "bytes32"
        },
        {
          "internalType": "enum WikiAPIGateway.KeyTier",
          "name": "tier",
          "type": "uint8"
        },
        {
          "internalType": "string",
          "name": "label",
          "type": "string"
        },
        {
          "internalType": "uint256",
          "name": "expiryDays",
          "type": "uint256"
        }
      ],
      "name": "createAPIKey",
      "outputs": [
        {
          "internalType": "bytes32",
          "name": "",
          "type": "bytes32"
        }
      ],
      "stateMutability": "nonpayable",
      "type": "function"
    },
    {
      "inputs": [
        {
          "internalType": "bytes32",
          "name": "keyHash",
          "type": "bytes32"
        },
        {
          "internalType": "bool",
          "name": "enabled",
          "type": "bool"
        }
      ],
      "name": "enableWithdrawals",
      "outputs": [],
      "stateMutability": "nonpayable",
      "type": "function"
    },
    {
      "inputs": [
        {
          "internalType": "bytes32",
          "name": "keyHash",
          "type": "bytes32"
        }
      ],
      "name": "getKeyStatus",
      "outputs": [
        {
          "internalType": "bool",
          "name": "active",
          "type": "bool"
        },
        {
          "internalType": "enum WikiAPIGateway.KeyTier",
          "name": "tier",
          "type": "uint8"
        },
        {
          "internalType": "uint256",
          "name": "remainingDailyVol",
          "type": "uint256"
        },
        {
          "internalType": "uint256",
          "name": "ordersToday",
          "type": "uint256"
        },
        {
          "internalType": "uint256",
          "name": "expiresAt",
          "type": "uint256"
        },
        {
          "internalType": "bool",
          "name": "canWithdraw",
          "type": "bool"
        }
      ],
      "stateMutability": "view",
      "type": "function"
    },
    {
      "inputs": [
        {
          "internalType": "address",
          "name": "wallet",
          "type": "address"
        }
      ],
      "name": "getWalletKeys",
      "outputs": [
        {
          "internalType": "bytes32[]",
          "name": "",
          "type": "bytes32[]"
        }
      ],
      "stateMutability": "view",
      "type": "function"
    },
    {
      "inputs": [
        {
          "internalType": "address",
          "name": "",
          "type": "address"
        }
      ],
      "name": "monthlyFeesPaid",
      "outputs": [
        {
          "internalType": "uint256",
          "name": "",
          "type": "uint256"
        }
      ],
      "stateMutability": "view",
      "type": "function"
    },
    {
      "inputs": [],
      "name": "owner",
      "outputs": [
        {
          "internalType": "address",
          "name": "",
          "type": "address"
        }
      ],
      "stateMutability": "view",
      "type": "function"
    },
    {
      "inputs": [],
      "name": "pendingOwner",
      "outputs": [
        {
          "internalType": "address",
          "name": "",
          "type": "address"
        }
      ],
      "stateMutability": "view",
      "type": "function"
    },
    {
      "inputs": [],
      "name": "renounceOwnership",
      "outputs": [],
      "stateMutability": "nonpayable",
      "type": "function"
    },
    {
      "inputs": [
        {
          "internalType": "bytes32",
          "name": "keyHash",
          "type": "bytes32"
        }
      ],
      "name": "revokeKey",
      "outputs": [],
      "stateMutability": "nonpayable",
      "type": "function"
    },
    {
      "inputs": [
        {
          "internalType": "enum WikiAPIGateway.KeyTier",
          "name": "tier",
          "type": "uint8"
        },
        {
          "internalType": "uint256",
          "name": "fee",
          "type": "uint256"
        }
      ],
      "name": "setTierFee",
      "outputs": [],
      "stateMutability": "nonpayable",
      "type": "function"
    },
    {
      "inputs": [
        {
          "internalType": "address",
          "name": "t",
          "type": "address"
        }
      ],
      "name": "setTreasury",
      "outputs": [],
      "stateMutability": "nonpayable",
      "type": "function"
    },
    {
      "inputs": [
        {
          "internalType": "enum WikiAPIGateway.KeyTier",
          "name": "",
          "type": "uint8"
        }
      ],
      "name": "tierConfigs",
      "outputs": [
        {
          "internalType": "uint256",
          "name": "monthlyFeeUsdc",
          "type": "uint256"
        },
        {
          "internalType": "uint256",
          "name": "maxOrderSize",
          "type": "uint256"
        },
        {
          "internalType": "uint256",
          "name": "dailyVolLimit",
          "type": "uint256"
        },
        {
          "internalType": "uint256",
          "name": "rateLimit",
          "type": "uint256"
        },
        {
          "internalType": "uint256",
          "name": "maxKeys",
          "type": "uint256"
        }
      ],
      "stateMutability": "view",
      "type": "function"
    },
    {
      "inputs": [
        {
          "internalType": "address",
          "name": "newOwner",
          "type": "address"
        }
      ],
      "name": "transferOwnership",
      "outputs": [],
      "stateMutability": "nonpayable",
      "type": "function"
    },
    {
      "inputs": [],
      "name": "treasury",
      "outputs": [
        {
          "internalType": "address",
          "name": "",
          "type": "address"
        }
      ],
      "stateMutability": "view",
      "type": "function"
    },
    {
      "inputs": [
        {
          "internalType": "bytes32",
          "name": "keyHash",
          "type": "bytes32"
        },
        {
          "internalType": "uint256",
          "name": "orderSize",
          "type": "uint256"
        },
        {
          "internalType": "bool",
          "name": "isTrade",
          "type": "bool"
        }
      ],
      "name": "validateAndRecord",
      "outputs": [
        {
          "internalType": "bool",
          "name": "valid",
          "type": "bool"
        },
        {
          "internalType": "string",
          "name": "reason",
          "type": "string"
        }
      ],
      "stateMutability": "nonpayable",
      "type": "function"
    },
    {
      "inputs": [
        {
          "internalType": "address",
          "name": "",
          "type": "address"
        },
        {
          "internalType": "uint256",
          "name": "",
          "type": "uint256"
        }
      ],
      "name": "walletKeys",
      "outputs": [
        {
          "internalType": "bytes32",
          "name": "",
          "type": "bytes32"
        }
      ],
      "stateMutability": "view",
      "type": "function"
    }
  ],
  "bytecode": "0x60a06040523461041b57604051601f61171638819003918201601f19168301916001600160401b0383118484101761041f5780849260609460405283398101031261041b5761004d81610452565b90610066604061005f60208401610452565b9201610452565b916001600160a01b0316801561040857600180546001600160a01b03199081169091555f8054918216831781556001600160a01b03909116907f8be0079c531659141344cd1fd0a4f28419497f9722a3daafe3b4186f6b6457e09080a360017f9b779b17422d0df92223018b32b4d1fa46e071723d6817e2486d003becc55f00556001600160a01b03908116608052600680546001600160a01b03191692909116919091179055610115610433565b5f8082526402540be400602080840191825264174876e80060408501908152600a60608601908152600260808701908152948052600490925293517f17ef568e3e12ab5b9c7254a8d58478811de00f9e6eb34345acd53bf8fd09d3ec5590517f17ef568e3e12ab5b9c7254a8d58478811de00f9e6eb34345acd53bf8fd09d3ed5591517f17ef568e3e12ab5b9c7254a8d58478811de00f9e6eb34345acd53bf8fd09d3ee5590517f17ef568e3e12ab5b9c7254a8d58478811de00f9e6eb34345acd53bf8fd09d3ef55517f17ef568e3e12ab5b9c7254a8d58478811de00f9e6eb34345acd53bf8fd09d3f055610209610433565b6302faf080815264746a52880060208083019182526509184e72a00060408401908152606460608501908152600a6080860190815260015f52600490935293517fabd6e7cb50984ff9c2f3e18a2660c3353dadf4e3291deeb275dae2cd1e44fe055591517fabd6e7cb50984ff9c2f3e18a2660c3353dadf4e3291deeb275dae2cd1e44fe065590517fabd6e7cb50984ff9c2f3e18a2660c3353dadf4e3291deeb275dae2cd1e44fe075590517fabd6e7cb50984ff9c2f3e18a2660c3353dadf4e3291deeb275dae2cd1e44fe0855517fabd6e7cb50984ff9c2f3e18a2660c3353dadf4e3291deeb275dae2cd1e44fe0955610302610433565b631dcd650081525f19602080830182815260408085019384526103e86060860190815260326080870190815260025f52600490945294517f91da3fd0782e51c6b3986e9e672fd566868e71f3dbc2d6c2cd6fbb3e361af2a75590517f91da3fd0782e51c6b3986e9e672fd566868e71f3dbc2d6c2cd6fbb3e361af2a85591517f91da3fd0782e51c6b3986e9e672fd566868e71f3dbc2d6c2cd6fbb3e361af2a95591517f91da3fd0782e51c6b3986e9e672fd566868e71f3dbc2d6c2cd6fbb3e361af2aa5590517f91da3fd0782e51c6b3986e9e672fd566868e71f3dbc2d6c2cd6fbb3e361af2ab55516112af9081610467823960805181818161056d0152610d8e0152f35b631e4fbdf760e01b5f525f60045260245ffd5b5f80fd5b634e487b7160e01b5f52604160045260245ffd5b6040519060a082016001600160401b0381118382101761041f57604052565b51906001600160a01b038216820361041b5756fe60806040526004361015610011575f80fd5b5f3560e01c80630bfde0da14610ed957806318ac35f81461087f57806319cf4a3e1461082757806352efefec14610773578063572f2210146106e45780635c7b5732146106ac57806361d027b314610684578063715018a61461062157806379ba50971461059c57806389a30271146105585780638da5cb5b146105315780639da9db2a146104d4578063a2c88ee114610489578063c52d62c4146103c3578063c6c3ad6814610238578063e30c397814610210578063f0f44260146101cd578063f2fde38b1461015b5763ff9058bd146100ea575f80fd5b346101575760403660031901126101575760043560243580151581036101575781610155925f52600260205261012d60018060a01b0360405f2054163314610ffb565b5f526002602052600260405f20019062ff0000825491151560101b169062ff00001916179055565b005b5f80fd5b3461015757602036600319011261015757610174610f0d565b61017c611266565b60018060a01b0316806bffffffffffffffffffffffff60a01b600154161760015560018060a01b035f54167f38d16b8cac22d99fc7c124b9cd0de2d3fa1faef420bfe791d8c362d765e227005f80a3005b34610157576020366003190112610157576101e6610f0d565b6101ee611266565b600680546001600160a01b0319166001600160a01b0392909216919091179055005b34610157575f366003190112610157576001546040516001600160a01b039091168152602090f35b34610157576020366003190112610157576004355f52600260205260405f2060018060a01b038154166001820154916002810154906003810154600482015460058301546006840154600785015490600886015492600987015494600a88015496600c60ff600b8b015416990199604051809b5f908054906102b982610f94565b80855291600181169081156103a55750600114610369575b5050036102de908c610fcc565b6040519c8d9c8d5260208d015260408c0160ff8216906102fd91610f87565b8060081c60ff16151560608d015260101c60ff16151560808c015260a08b015260c08a015260e089015261010088015261012087015261014086015261016085015261018084015215156101a08301526101c082016101e090526101e0820161036591610f63565b0390f35b5f908152602081209092505b81831061038a57505081016020018f806102d1565b80602092948385600194549201015201910190918d92610375565b9150506020925060ff191682840152151560051b8201018f806102d1565b34610157576020366003190112610157576004355f52600260205260405f2060ff600b820154168061047b575b600282015460048301549060088401548083115f1461046c5782039182116104585760c09360ff92905b6006600782015491015491604051951515865261043c60208701868616610f87565b60408601526060850152608084015260101c16151560a0820152f35b634e487b7160e01b5f52601160045260245ffd5b5060ff915060c0935f9061041a565b5060068101544211156103f0565b34610157576060366003190112610157576044358015158103610157576104b590602435600435611038565b9061036560405192839215158352604060208401526040830190610f63565b34610157576020366003190112610157576004356003811015610157576104fc60a091610f4c565b805490600181015490600281015460046003830154920154926040519485526020850152604084015260608301526080820152f35b34610157575f366003190112610157575f546040516001600160a01b039091168152602090f35b34610157575f366003190112610157576040517f00000000000000000000000000000000000000000000000000000000000000006001600160a01b03168152602090f35b34610157575f36600319011261015757600154336001600160a01b039091160361060e57600180546001600160a01b03199081169091555f805433928116831782556001600160a01b0316907f8be0079c531659141344cd1fd0a4f28419497f9722a3daafe3b4186f6b6457e09080a3005b63118cdaa760e01b5f523360045260245ffd5b34610157575f36600319011261015757610639611266565b600180546001600160a01b03199081169091555f80549182168155906001600160a01b03167f8be0079c531659141344cd1fd0a4f28419497f9722a3daafe3b4186f6b6457e08280a3005b34610157575f366003190112610157576006546040516001600160a01b039091168152602090f35b34610157576020366003190112610157576001600160a01b036106cd610f0d565b165f526005602052602060405f2054604051908152f35b34610157576020366003190112610157577f3f76aac01ca9e85fbdd401cb154d36db1cef779fa6d1ae807916b65d5fe434436020600435805f526002825260018060a01b0360405f20541633148015610760575b61074190610ffb565b805f5260028252600b60405f200160ff198154169055604051908152a1005b505f546001600160a01b03163314610738565b34610157576020366003190112610157576001600160a01b03610794610f0d565b165f52600360205260405f20604051806020835491828152019081935f5260205f20905f5b81811061081157505050816107cf910382610fcc565b604051918291602083019060208452518091526040830191905f5b8181106107f8575050500390f35b82518452859450602093840193909201916001016107ea565b82548452602090930192600192830192016107b9565b3461015757604036600319011261015757610840610f0d565b6001600160a01b03165f908152600360205260409020805460243591908210156101575760209161087091610f23565b90549060031b1c604051908152f35b3461015757608036600319011261015757600360243510156101575760443567ffffffffffffffff811161015757366023820112156101575767ffffffffffffffff81600401351161015757366024826004013583010111610157576064359060027f9b779b17422d0df92223018b32b4d1fa46e071723d6817e2486d003becc55f005414610eca5760027f9b779b17422d0df92223018b32b4d1fa46e071723d6817e2486d003becc55f0055610937602435610f4c565b335f52600360205260405f205460048201541115610e90576004355f908152600260205260409020546001600160a01b0316610e5957805480610d8c575b50600181015460028201546003909201549093801580610d825762015180820291820462015180141715610458576109ad9042610fee565b915b604051946101e0860186811067ffffffffffffffff821117610ca95760405233865260043560208701526024356040870152600160608701525f608087015260a086015260c085015260e08401526101008301525f6101208301525f610140830152426101608301524261018083015260016101a08301526020601f19601f8360040135011601610a436040519182610fcc565b60048201358082526024830160208301375f60208360040135830101526101c08301526004355f52600260205260405f2060018060a01b038351166bffffffffffffffffffffffff60a01b82541617815560208301516001820155600281016040840151916003831015610d6e57610af9600c926101c094815460ff61ff0060608b0151151560081b1692169061ffff1916171781556080870151151562ff0000825491151560101b169062ff00001916179055565b60a0850151600382015560c0850151600482015560e085015160058201556101008501516006820155610120850151600782015561014085015160088201556101608501516009820155610180850151600a820155600b81016101a0860151151560ff801983541691161790550192015191825167ffffffffffffffff8111610ca957610b868254610f94565b601f8111610d29575b506020601f8211600114610cc857819293945f92610cbd575b50508160011b915f199060031b1c19161790555b335f52600360205260405f20805468010000000000000000811015610ca957610bea91600182018155610f23565b81549060031b90600435821b915f19901b19161790557f113ccfb8f5c0c36f9693cd8b3a21c14df95040d2f35cdb7a598cc407223f72906040516004358152610c3860208201602435610f87565b606060408201528260040135606082015282600401356024840160808301375f60808460040135830101526080813394601f8019916004013501168101030190a260017f9b779b17422d0df92223018b32b4d1fa46e071723d6817e2486d003becc55f005560206040516004358152f35b634e487b7160e01b5f52604160045260245ffd5b015190508480610ba8565b601f19821690835f52805f20915f5b818110610d1157509583600195969710610cf9575b505050811b019055610bbc565b01515f1960f88460031b161c19169055848080610cec565b9192602060018192868b015181550194019201610cd7565b825f5260205f20601f830160051c81019160208410610d64575b601f0160051c01905b818110610d595750610b8f565b5f8155600101610d4c565b9091508190610d43565b634e487b7160e01b5f52602160045260245ffd5b50505f19916109af565b7f00000000000000000000000000000000000000000000000000000000000000009060018060a01b036006541690604051916323b872dd60e01b5f523360045260245260445260205f60648180865af19060015f5114821615610e38575b6040525f60605215610e1857508054335f526005602052610e1060405f20918254610fee565b905583610975565b635274afe760e01b5f9081526001600160a01b0391909116600452602490fd5b906001811516610e5057823b15153d15161690610dea565b503d5f823e3d90fd5b60405162461bcd60e51b815260206004820152600f60248201526e4150493a206b65792065786973747360881b6044820152606490fd5b60405162461bcd60e51b81526020600482015260126024820152714150493a20746f6f206d616e79206b65797360701b6044820152606490fd5b633ee5aeb560e01b5f5260045ffd5b3461015757604036600319011261015757600435600381101561015757610efe611266565b610f0a60243591610f4c565b55005b600435906001600160a01b038216820361015757565b8054821015610f38575f5260205f2001905f90565b634e487b7160e01b5f52603260045260245ffd5b6003811015610d6e575f52600460205260405f2090565b805180835260209291819084018484015e5f828201840152601f01601f1916010190565b906003821015610d6e5752565b90600182811c92168015610fc2575b6020831014610fae57565b634e487b7160e01b5f52602260045260245ffd5b91607f1691610fa3565b90601f8019910116810190811067ffffffffffffffff821117610ca957604052565b9190820180921161045857565b1561100257565b60405162461bcd60e51b815260206004820152600e60248201526d20a8249d103737ba1037bbb732b960911b6044820152606490fd5b919091805f52600260205260405f209160ff600b840154161561123157600683015442116111fd57806111eb575b6111ab576003820154831161116b5760098201805462015180810180911161045857421015611156575b5060088201928354926110a38285610fee565b60048201541061111457600701805494905f19861461045857826040956110f09260017fe8ade2685198c6bfe966dce5f0f784436b665f282482334786c7b49516b98aa699019055610fee565b905582519182526020820152a160019060405161110e602082610fcc565b5f815290565b50505050505f90604051611129604082610fcc565b601781527f4150493a206461696c7920766f6c756d65206c696d6974000000000000000000602082015290565b5f60078401555f60088401554290555f611090565b5050505f9060405161117e604082610fcc565b601b81527f4150493a2065786365656473206d6178206f726465722073697a650000000000602082015290565b5050505f906040516111be604082610fcc565b601a81527f4150493a2074726164696e67206e6f74207065726d6974746564000000000000602082015290565b5060ff600283015460081c1615611066565b505050505f90604051611211604082610fcc565b601081526f1054124e881ad95e48195e1c1a5c995960821b602082015290565b505050505f90604051611245604082610fcc565b60118152704150493a206b657920696e61637469766560781b602082015290565b5f546001600160a01b0316330361060e5756fea2646970667358221220f0656029be837834e7631c9c72812f3384ccfe05e58f3aa3da452e45103b2a6e64736f6c634300081a0033",
  "linkReferences": {},
  "deployedLinkReferences": {}
}