{
  "_format": "hh-sol-artifact-1",
  "contractName": "WikiYieldAggregator",
  "sourceName": "src/WikiYieldAggregator.sol",
  "abi": [
    {
      "inputs": [
        {
          "internalType": "address",
          "name": "_owner",
          "type": "address"
        },
        {
          "internalType": "address",
          "name": "_usdc",
          "type": "address"
        }
      ],
      "stateMutability": "nonpayable",
      "type": "constructor"
    },
    {
      "inputs": [
        {
          "internalType": "address",
          "name": "owner",
          "type": "address"
        }
      ],
      "name": "OwnableInvalidOwner",
      "type": "error"
    },
    {
      "inputs": [
        {
          "internalType": "address",
          "name": "account",
          "type": "address"
        }
      ],
      "name": "OwnableUnauthorizedAccount",
      "type": "error"
    },
    {
      "inputs": [],
      "name": "ReentrancyGuardReentrantCall",
      "type": "error"
    },
    {
      "inputs": [
        {
          "internalType": "address",
          "name": "token",
          "type": "address"
        }
      ],
      "name": "SafeERC20FailedOperation",
      "type": "error"
    },
    {
      "anonymous": false,
      "inputs": [
        {
          "indexed": true,
          "internalType": "address",
          "name": "user",
          "type": "address"
        },
        {
          "indexed": false,
          "internalType": "uint256",
          "name": "strategyId",
          "type": "uint256"
        },
        {
          "indexed": false,
          "internalType": "string",
          "name": "name",
          "type": "string"
        },
        {
          "indexed": false,
          "internalType": "uint256",
          "name": "amount",
          "type": "uint256"
        },
        {
          "indexed": false,
          "internalType": "uint256",
          "name": "apyBps",
          "type": "uint256"
        }
      ],
      "name": "DepositRouted",
      "type": "event"
    },
    {
      "anonymous": false,
      "inputs": [
        {
          "indexed": true,
          "internalType": "address",
          "name": "previousOwner",
          "type": "address"
        },
        {
          "indexed": true,
          "internalType": "address",
          "name": "newOwner",
          "type": "address"
        }
      ],
      "name": "OwnershipTransferStarted",
      "type": "event"
    },
    {
      "anonymous": false,
      "inputs": [
        {
          "indexed": true,
          "internalType": "address",
          "name": "previousOwner",
          "type": "address"
        },
        {
          "indexed": true,
          "internalType": "address",
          "name": "newOwner",
          "type": "address"
        }
      ],
      "name": "OwnershipTransferred",
      "type": "event"
    },
    {
      "anonymous": false,
      "inputs": [
        {
          "indexed": false,
          "internalType": "uint256",
          "name": "id",
          "type": "uint256"
        },
        {
          "indexed": false,
          "internalType": "string",
          "name": "name",
          "type": "string"
        },
        {
          "indexed": false,
          "internalType": "address",
          "name": "vault",
          "type": "address"
        }
      ],
      "name": "StrategyAdded",
      "type": "event"
    },
    {
      "inputs": [],
      "name": "APY_CACHE_TTL",
      "outputs": [
        {
          "internalType": "uint256",
          "name": "",
          "type": "uint256"
        }
      ],
      "stateMutability": "view",
      "type": "function"
    },
    {
      "inputs": [],
      "name": "USDC",
      "outputs": [
        {
          "internalType": "contract IERC20",
          "name": "",
          "type": "address"
        }
      ],
      "stateMutability": "view",
      "type": "function"
    },
    {
      "inputs": [],
      "name": "acceptOwnership",
      "outputs": [],
      "stateMutability": "nonpayable",
      "type": "function"
    },
    {
      "inputs": [
        {
          "internalType": "string",
          "name": "name",
          "type": "string"
        },
        {
          "internalType": "address",
          "name": "vault",
          "type": "address"
        },
        {
          "internalType": "uint256",
          "name": "risk",
          "type": "uint256"
        },
        {
          "internalType": "uint256",
          "name": "minDep",
          "type": "uint256"
        },
        {
          "internalType": "uint256",
          "name": "exitDays",
          "type": "uint256"
        }
      ],
      "name": "addStrategy",
      "outputs": [],
      "stateMutability": "nonpayable",
      "type": "function"
    },
    {
      "inputs": [
        {
          "internalType": "uint256",
          "name": "amount",
          "type": "uint256"
        },
        {
          "internalType": "uint256",
          "name": "maxRisk",
          "type": "uint256"
        }
      ],
      "name": "depositBest",
      "outputs": [],
      "stateMutability": "nonpayable",
      "type": "function"
    },
    {
      "inputs": [
        {
          "internalType": "uint256",
          "name": "strategyId",
          "type": "uint256"
        },
        {
          "internalType": "uint256",
          "name": "amount",
          "type": "uint256"
        }
      ],
      "name": "depositTo",
      "outputs": [],
      "stateMutability": "nonpayable",
      "type": "function"
    },
    {
      "inputs": [],
      "name": "getAllStrategies",
      "outputs": [
        {
          "internalType": "string[]",
          "name": "names",
          "type": "string[]"
        },
        {
          "internalType": "uint256[]",
          "name": "apyBps",
          "type": "uint256[]"
        },
        {
          "internalType": "uint256[]",
          "name": "riskLevels",
          "type": "uint256[]"
        },
        {
          "internalType": "uint256[]",
          "name": "exitDays",
          "type": "uint256[]"
        },
        {
          "internalType": "uint256[]",
          "name": "minDeposits",
          "type": "uint256[]"
        },
        {
          "internalType": "bool[]",
          "name": "active",
          "type": "bool[]"
        }
      ],
      "stateMutability": "view",
      "type": "function"
    },
    {
      "inputs": [
        {
          "internalType": "uint256",
          "name": "maxRisk",
          "type": "uint256"
        }
      ],
      "name": "getBestAPY",
      "outputs": [
        {
          "internalType": "uint256",
          "name": "strategyId",
          "type": "uint256"
        },
        {
          "internalType": "string",
          "name": "name",
          "type": "string"
        },
        {
          "internalType": "uint256",
          "name": "apyBps",
          "type": "uint256"
        },
        {
          "internalType": "uint256",
          "name": "exitDays",
          "type": "uint256"
        }
      ],
      "stateMutability": "view",
      "type": "function"
    },
    {
      "inputs": [],
      "name": "owner",
      "outputs": [
        {
          "internalType": "address",
          "name": "",
          "type": "address"
        }
      ],
      "stateMutability": "view",
      "type": "function"
    },
    {
      "inputs": [],
      "name": "pendingOwner",
      "outputs": [
        {
          "internalType": "address",
          "name": "",
          "type": "address"
        }
      ],
      "stateMutability": "view",
      "type": "function"
    },
    {
      "inputs": [
        {
          "internalType": "uint256",
          "name": "stratId",
          "type": "uint256"
        }
      ],
      "name": "refreshAPYCache",
      "outputs": [],
      "stateMutability": "nonpayable",
      "type": "function"
    },
    {
      "inputs": [],
      "name": "renounceOwnership",
      "outputs": [],
      "stateMutability": "nonpayable",
      "type": "function"
    },
    {
      "inputs": [
        {
          "internalType": "uint256",
          "name": "id",
          "type": "uint256"
        },
        {
          "internalType": "bool",
          "name": "on",
          "type": "bool"
        }
      ],
      "name": "setStrategyActive",
      "outputs": [],
      "stateMutability": "nonpayable",
      "type": "function"
    },
    {
      "inputs": [
        {
          "internalType": "uint256",
          "name": "",
          "type": "uint256"
        }
      ],
      "name": "strategies",
      "outputs": [
        {
          "internalType": "string",
          "name": "name",
          "type": "string"
        },
        {
          "internalType": "address",
          "name": "vault",
          "type": "address"
        },
        {
          "internalType": "uint256",
          "name": "riskLevel",
          "type": "uint256"
        },
        {
          "internalType": "uint256",
          "name": "minDeposit",
          "type": "uint256"
        },
        {
          "internalType": "uint256",
          "name": "exitDelayDays",
          "type": "uint256"
        },
        {
          "internalType": "bool",
          "name": "active",
          "type": "bool"
        },
        {
          "internalType": "uint256",
          "name": "cachedAPYBps",
          "type": "uint256"
        },
        {
          "internalType": "uint256",
          "name": "apyCacheTs",
          "type": "uint256"
        }
      ],
      "stateMutability": "view",
      "type": "function"
    },
    {
      "inputs": [
        {
          "internalType": "address",
          "name": "newOwner",
          "type": "address"
        }
      ],
      "name": "transferOwnership",
      "outputs": [],
      "stateMutability": "nonpayable",
      "type": "function"
    }
  ],
  "bytecode": "0x60a03461011357601f6114d538819003918201601f19168301916001600160401b0383118484101761011757808492604094855283398101031261011357610052602061004b8361012b565b920161012b565b6001600160a01b0390911690811561010057600180546001600160a01b03199081169091555f80549182168417815560405193916001600160a01b0316907f8be0079c531659141344cd1fd0a4f28419497f9722a3daafe3b4186f6b6457e09080a360017f9b779b17422d0df92223018b32b4d1fa46e071723d6817e2486d003becc55f00556001600160a01b0316608052611395908161014082396080518181816107a90152610fbd0152f35b631e4fbdf760e01b5f525f60045260245ffd5b5f80fd5b634e487b7160e01b5f52604160045260245ffd5b51906001600160a01b03821682036101135756fe60806040526004361015610011575f80fd5b5f3560e01c8063200193d2146109e2578063715018a61461097f578063783685f11461096357806379ba5097146108de57806389933cdc146107d857806389a30271146107945780638da5cb5b1461076d578063a066b9a514610623578063a96ad74b1461054b578063bf7d3538146104b5578063c3b288641461025e578063d574ea3d146101a8578063e30c397814610180578063e74c0d76146101355763f2fde38b146100be575f80fd5b34610131576020366003190112610131576004356001600160a01b03811690819003610131576100ec610f0e565b600180546001600160a01b031916821790555f80546001600160a01b0316907f38d16b8cac22d99fc7c124b9cd0de2d3fa1faef420bfe791d8c362d765e227009080a3005b5f80fd5b346101315760403660031901126101315760243580151581036101315761017e9061015e610f0e565b600561016b600435610d89565b50019060ff801983541691151516179055565b005b34610131575f366003190112610131576001546040516001600160a01b039091168152602090f35b3461013157602036600319011261013157600435600254811015610131576101d261023491610d89565b50604051906101ec826101e58184610df1565b0383610e72565b60018060a01b03600182015416906002810154906003810154600482015460ff6005840154169160076006850154940154946040519889986101008a526101008a0190610d32565b966020890152604088015260608701526080860152151560a085015260c084015260e08301520390f35b34610131575f3660031901126101315760025461027a81610eb0565b906102886040519283610e72565b808252601f1961029782610eb0565b015f5b8181106104a45750506102ac81610ec8565b906102b681610ec8565b6102bf82610ec8565b6102c883610ec8565b906102d284610eb0565b926102e06040519485610e72565b8484526102ec85610eb0565b602085019590601f19013687375f5b8181106103f857505060405196879660c0880160c08952825180915260e0890190602060e08260051b8c01019401915f905b8282106103be5750505050926103666020959361035884610382978c8a816103749903910152610d56565b908a820360408c0152610d56565b9088820360608a0152610d56565b908682036080880152610d56565b9184830360a086015251918281520191905f5b8181106103a3575050500390f35b82511515845285945060209384019390920191600101610395565b91939460206103e2819260019496999a9b9c9d9e60df199082030186528951610d32565b9701920192018b9a99989796959493919261032d565b8060ff60056104106001949c969798999a9b9c610d89565b50604051610429816104228185610df1565b0382610e72565b6104338589610efa565b5261043e8488610efa565b508c6104538561044d816112ad565b92610efa565b526002810154610463858a610efa565b526004810154610473858b610efa565b526003810154610483858c610efa565b52015416610491828a610efa565b90151590520197969594939291976102fb565b80606060208093870101520161029a565b34610131576020366003190112610131576104d1600435610d89565b5060018101546040516332cff1c760e11b815290602090829060049082906001600160a01b03165afa5f9181610517575b5061050957005b600682015542600790910155005b9091506020813d602011610543575b8161053360209383610e72565b8101031261013157519083610502565b3d9150610526565b34610131576020366003190112610131576002546060905f908190819081600435815b8381106105a457505050506105956040519485948552608060208601526080850190610d32565b91604084015260608301520390f35b6105ad81610d89565b5060ff600582015416158015610616575b61060d576105cb826112ad565b908482116105e0575b50506001905b0161056e565b9650975093509450508482946001600460405161060181610422818b610df1565b989601549490896105d4565b506001906105da565b50826002820154116105be565b346101315761063136610d1c565b9061063a610f21565b8015610736576002545f19925f90815b8381106106d05785855f19821461068b576106659133610fae565b60017f9b779b17422d0df92223018b32b4d1fa46e071723d6817e2486d003becc55f0055005b60405162461bcd60e51b815260206004820152601860248201527f59413a206e6f207375697461626c6520737472617465677900000000000000006044820152606490fd5b6106d981610d89565b5060ff6005820154161561072d578260028201541161072d5760030154851061072557610705816112ad565b838111610718575b506001905b0161064a565b909550915084600161070d565b600190610712565b50600190610712565b60405162461bcd60e51b815260206004820152600f60248201526e16504e881e995c9bc8185b5bdd5b9d608a1b6044820152606490fd5b34610131575f366003190112610131575f546040516001600160a01b039091168152602090f35b34610131575f366003190112610131576040517f00000000000000000000000000000000000000000000000000000000000000006001600160a01b03168152602090f35b34610131576107e636610d1c565b6107ee610f21565b6002548210156108a25760ff600561080584610d89565b500154161561086557600361081983610d89565b500154811061082c576106659133610fae565b60405162461bcd60e51b815260206004820152601160248201527059413a2062656c6f77206d696e696d756d60781b6044820152606490fd5b60405162461bcd60e51b815260206004820152601560248201527459413a20737472617465677920696e61637469766560581b6044820152606490fd5b60405162461bcd60e51b815260206004820152601460248201527359413a20696e76616c696420737472617465677960601b6044820152606490fd5b34610131575f36600319011261013157600154336001600160a01b039091160361095057600180546001600160a01b03199081169091555f805433928116831782556001600160a01b0316907f8be0079c531659141344cd1fd0a4f28419497f9722a3daafe3b4186f6b6457e09080a3005b63118cdaa760e01b5f523360045260245ffd5b34610131575f366003190112610131576020604051610e108152f35b34610131575f36600319011261013157610997610f0e565b600180546001600160a01b03199081169091555f80549182168155906001600160a01b03167f8be0079c531659141344cd1fd0a4f28419497f9722a3daafe3b4186f6b6457e08280a3005b346101315760a03660031901126101315760043567ffffffffffffffff811161013157366023820112156101315780600401359067ffffffffffffffff82116101315760248101906024833692010111610131576024356001600160a01b0381169081900361013157610a53610f0e565b604051610100810181811067ffffffffffffffff821117610cf557604052610a7a84610e94565b610a876040519182610e72565b848152848460208301375f6020868301015281526020810182815260408201604435815260608301606435815260808401608435815260a08501916001835260c08601935f855260e08701955f875260025468010000000000000000811015610cf557806001610afa9201600255610d89565b989098610d09575180519067ffffffffffffffff8211610cf557610b1e8a54610db9565b601f8111610cb0575b50602090601f8311600114610c4157918060079a9998969492610bb09896945f92610c36575b50508160011b915f199060031b1c1916178a555b60018a019060018060a01b039051166bffffffffffffffffffffffff60a01b825416179055516002890155516003880155516004870155511515600586019060ff801983541691151516179055565b516006840155519101556002545f198101908111610c2257836080927fb4f6e79b3a86f44f9532f08d9c5499ea9db5b25208bdf0c145a0d9164a041af495604051958694855260606020860152816060860152858501375f8383018501526040830152601f01601f19168101030190a1005b634e487b7160e01b5f52601160045260245ffd5b015190508f80610b4d565b90601f198316918b5f52815f20925f5b818110610c985750926001928592610bb09a989660079e9d9c9a989610610c80575b505050811b018a55610b61565b01515f1960f88460031b161c191690558f8080610c73565b92936020600181928786015181550195019301610c51565b8a5f5260205f20601f840160051c81019160208510610ceb575b601f0160051c01905b818110610ce05750610b27565b5f8155600101610cd3565b9091508190610cca565b634e487b7160e01b5f52604160045260245ffd5b634e487b7160e01b5f525f60045260245ffd5b6040906003190112610131576004359060243590565b805180835260209291819084018484015e5f828201840152601f01601f1916010190565b90602080835192838152019201905f5b818110610d735750505090565b8251845260209384019390920191600101610d66565b600254811015610da55760025f5260205f209060031b01905f90565b634e487b7160e01b5f52603260045260245ffd5b90600182811c92168015610de7575b6020831014610dd357565b634e487b7160e01b5f52602260045260245ffd5b91607f1691610dc8565b5f9291815491610e0083610db9565b8083529260018116908115610e555750600114610e1c57505050565b5f9081526020812093945091925b838310610e3b575060209250010190565b600181602092949394548385870101520191019190610e2a565b915050602093945060ff929192191683830152151560051b010190565b90601f8019910116810190811067ffffffffffffffff821117610cf557604052565b67ffffffffffffffff8111610cf557601f01601f191660200190565b67ffffffffffffffff8111610cf55760051b60200190565b90610ed282610eb0565b610edf6040519182610e72565b8281528092610ef0601f1991610eb0565b0190602036910137565b8051821015610da55760209160051b010190565b5f546001600160a01b0316330361095057565b60027f9b779b17422d0df92223018b32b4d1fa46e071723d6817e2486d003becc55f005414610f705760027f9b779b17422d0df92223018b32b4d1fa46e071723d6817e2486d003becc55f0055565b633ee5aeb560e01b5f5260045ffd5b3d15610fa9573d90610f9082610e94565b91610f9e6040519384610e72565b82523d5f602084013e565b606090565b9190610fb981610d89565b50907f0000000000000000000000000000000000000000000000000000000000000000604051946323b872dd60e01b5f5260018060a01b03169485600452306024528460445260205f60648180865af19060015f5114821615611295575b6040525f6060521561120c57600183019060018060a01b0382541660405163095ea7b360e01b5f52816004528660245260205f60448180875af19060015f5114821615611286575b6040521561119c575b50505f8060018060a01b03835416604051826020820191631c57762b60e31b8352896024820152816044820152604481526110a4606482610e72565b51925af1906110b1610f7f565b508115611150575b5015611116577f30907959e4e3b20c8d1ee2173c680e741aef0a9276e82010bb5c3ece608704ba926110ea826112ad565b6111066040519485948552608060208601526080850190610df1565b91604084015260608301520390a2565b60405162461bcd60e51b815260206004820152601260248201527116504e8819195c1bdcda5d0819985a5b195960721b6044820152606490fd5b5460405163b6b55f2560e01b60208201908152602480830188905282525f935083926001600160a01b0316918390611189604482610e72565b51925af1611195610f7f565b505f6110b9565b60405163095ea7b360e01b5f52816004525f60245260205f60448180875af19060015f511482161561126e575b6040521561124d576040519063095ea7b360e01b5f526004528560245260205f60448180865af19060015f511482161561122c575b6040521561120c5780611068565b635274afe760e01b5f9081526001600160a01b0391909116600452602490fd5b90600181151661124457823b15153d151616906111fe565b503d5f823e3d90fd5b50635274afe760e01b5f9081526001600160a01b0391909116600452602490fd5b90600181151661124457833b15153d151616906111c9565b90833b15153d1516169061105f565b90600181151661124457823b15153d15161690611017565b6112b690610d89565b506007810154610e108101809111610c2257421080611352575b61134b5760018101546040516332cff1c760e11b81529190602090839060049082906001600160a01b03165afa5f9281611317575b506113135760069150015490565b5090565b9092506020813d602011611343575b8161133360209383610e72565b810103126101315751915f611305565b3d9150611326565b6006015490565b50600681015415156112d056fea26469706673582212204939781eed7acb441bfb89219f0dfe35becd59f9f80d79676d96990583e9702264736f6c634300081a0033",
  "linkReferences": {},
  "deployedLinkReferences": {}
}