{
  "_format": "hh-sol-artifact-1",
  "contractName": "WikiConditionalOrder",
  "sourceName": "src/WikiConditionalOrder.sol",
  "abi": [
    {
      "inputs": [
        {
          "internalType": "address",
          "name": "_owner",
          "type": "address"
        },
        {
          "internalType": "address",
          "name": "_usdc",
          "type": "address"
        },
        {
          "internalType": "address",
          "name": "_oracle",
          "type": "address"
        },
        {
          "internalType": "address",
          "name": "_perp",
          "type": "address"
        }
      ],
      "stateMutability": "nonpayable",
      "type": "constructor"
    },
    {
      "inputs": [
        {
          "internalType": "address",
          "name": "owner",
          "type": "address"
        }
      ],
      "name": "OwnableInvalidOwner",
      "type": "error"
    },
    {
      "inputs": [
        {
          "internalType": "address",
          "name": "account",
          "type": "address"
        }
      ],
      "name": "OwnableUnauthorizedAccount",
      "type": "error"
    },
    {
      "inputs": [],
      "name": "ReentrancyGuardReentrantCall",
      "type": "error"
    },
    {
      "inputs": [
        {
          "internalType": "address",
          "name": "token",
          "type": "address"
        }
      ],
      "name": "SafeERC20FailedOperation",
      "type": "error"
    },
    {
      "anonymous": false,
      "inputs": [
        {
          "indexed": false,
          "internalType": "uint256",
          "name": "orderId",
          "type": "uint256"
        },
        {
          "indexed": false,
          "internalType": "address",
          "name": "owner",
          "type": "address"
        }
      ],
      "name": "OrderCancelled",
      "type": "event"
    },
    {
      "anonymous": false,
      "inputs": [
        {
          "indexed": false,
          "internalType": "uint256",
          "name": "orderId",
          "type": "uint256"
        },
        {
          "indexed": false,
          "internalType": "address",
          "name": "owner",
          "type": "address"
        },
        {
          "indexed": false,
          "internalType": "enum WikiConditionalOrder.ConditionType",
          "name": "cType",
          "type": "uint8"
        },
        {
          "indexed": false,
          "internalType": "enum WikiConditionalOrder.ActionType",
          "name": "aType",
          "type": "uint8"
        }
      ],
      "name": "OrderCreated",
      "type": "event"
    },
    {
      "anonymous": false,
      "inputs": [
        {
          "indexed": false,
          "internalType": "uint256",
          "name": "orderId",
          "type": "uint256"
        },
        {
          "indexed": false,
          "internalType": "address",
          "name": "owner",
          "type": "address"
        },
        {
          "indexed": false,
          "internalType": "uint256",
          "name": "timestamp",
          "type": "uint256"
        }
      ],
      "name": "OrderTriggered",
      "type": "event"
    },
    {
      "anonymous": false,
      "inputs": [
        {
          "indexed": true,
          "internalType": "address",
          "name": "previousOwner",
          "type": "address"
        },
        {
          "indexed": true,
          "internalType": "address",
          "name": "newOwner",
          "type": "address"
        }
      ],
      "name": "OwnershipTransferStarted",
      "type": "event"
    },
    {
      "anonymous": false,
      "inputs": [
        {
          "indexed": true,
          "internalType": "address",
          "name": "previousOwner",
          "type": "address"
        },
        {
          "indexed": true,
          "internalType": "address",
          "name": "newOwner",
          "type": "address"
        }
      ],
      "name": "OwnershipTransferred",
      "type": "event"
    },
    {
      "inputs": [],
      "name": "USDC",
      "outputs": [
        {
          "internalType": "contract IERC20",
          "name": "",
          "type": "address"
        }
      ],
      "stateMutability": "view",
      "type": "function"
    },
    {
      "inputs": [],
      "name": "acceptOwnership",
      "outputs": [],
      "stateMutability": "nonpayable",
      "type": "function"
    },
    {
      "inputs": [
        {
          "internalType": "uint256[]",
          "name": "orderIds",
          "type": "uint256[]"
        }
      ],
      "name": "batchCheck",
      "outputs": [],
      "stateMutability": "nonpayable",
      "type": "function"
    },
    {
      "inputs": [
        {
          "internalType": "uint256",
          "name": "orderId",
          "type": "uint256"
        }
      ],
      "name": "cancelOrder",
      "outputs": [],
      "stateMutability": "nonpayable",
      "type": "function"
    },
    {
      "inputs": [
        {
          "internalType": "uint256",
          "name": "orderId",
          "type": "uint256"
        }
      ],
      "name": "checkAndExecute",
      "outputs": [],
      "stateMutability": "nonpayable",
      "type": "function"
    },
    {
      "inputs": [
        {
          "components": [
            {
              "internalType": "enum WikiConditionalOrder.ConditionType",
              "name": "condType",
              "type": "uint8"
            },
            {
              "internalType": "uint256",
              "name": "marketId",
              "type": "uint256"
            },
            {
              "internalType": "uint256",
              "name": "targetValue",
              "type": "uint256"
            },
            {
              "internalType": "uint256",
              "name": "positionId",
              "type": "uint256"
            }
          ],
          "internalType": "struct WikiConditionalOrder.Condition",
          "name": "condition",
          "type": "tuple"
        },
        {
          "components": [
            {
              "internalType": "enum WikiConditionalOrder.ActionType",
              "name": "actionType",
              "type": "uint8"
            },
            {
              "internalType": "uint256",
              "name": "marketId",
              "type": "uint256"
            },
            {
              "internalType": "uint256",
              "name": "positionId",
              "type": "uint256"
            },
            {
              "internalType": "uint256",
              "name": "amount",
              "type": "uint256"
            },
            {
              "internalType": "uint256",
              "name": "leverage",
              "type": "uint256"
            },
            {
              "internalType": "uint256",
              "name": "newPrice",
              "type": "uint256"
            }
          ],
          "internalType": "struct WikiConditionalOrder.Action",
          "name": "action",
          "type": "tuple"
        },
        {
          "internalType": "uint256",
          "name": "expiryDays",
          "type": "uint256"
        },
        {
          "internalType": "bool",
          "name": "repeating",
          "type": "bool"
        }
      ],
      "name": "createOrder",
      "outputs": [
        {
          "internalType": "uint256",
          "name": "orderId",
          "type": "uint256"
        }
      ],
      "stateMutability": "nonpayable",
      "type": "function"
    },
    {
      "inputs": [
        {
          "internalType": "address",
          "name": "user",
          "type": "address"
        }
      ],
      "name": "getActiveOrders",
      "outputs": [
        {
          "internalType": "uint256[]",
          "name": "active",
          "type": "uint256[]"
        }
      ],
      "stateMutability": "view",
      "type": "function"
    },
    {
      "inputs": [
        {
          "internalType": "uint256",
          "name": "id",
          "type": "uint256"
        }
      ],
      "name": "getOrder",
      "outputs": [
        {
          "components": [
            {
              "internalType": "address",
              "name": "owner",
              "type": "address"
            },
            {
              "components": [
                {
                  "internalType": "enum WikiConditionalOrder.ConditionType",
                  "name": "condType",
                  "type": "uint8"
                },
                {
                  "internalType": "uint256",
                  "name": "marketId",
                  "type": "uint256"
                },
                {
                  "internalType": "uint256",
                  "name": "targetValue",
                  "type": "uint256"
                },
                {
                  "internalType": "uint256",
                  "name": "positionId",
                  "type": "uint256"
                }
              ],
              "internalType": "struct WikiConditionalOrder.Condition",
              "name": "condition",
              "type": "tuple"
            },
            {
              "components": [
                {
                  "internalType": "enum WikiConditionalOrder.ActionType",
                  "name": "actionType",
                  "type": "uint8"
                },
                {
                  "internalType": "uint256",
                  "name": "marketId",
                  "type": "uint256"
                },
                {
                  "internalType": "uint256",
                  "name": "positionId",
                  "type": "uint256"
                },
                {
                  "internalType": "uint256",
                  "name": "amount",
                  "type": "uint256"
                },
                {
                  "internalType": "uint256",
                  "name": "leverage",
                  "type": "uint256"
                },
                {
                  "internalType": "uint256",
                  "name": "newPrice",
                  "type": "uint256"
                }
              ],
              "internalType": "struct WikiConditionalOrder.Action",
              "name": "action",
              "type": "tuple"
            },
            {
              "internalType": "enum WikiConditionalOrder.OrderStatus",
              "name": "status",
              "type": "uint8"
            },
            {
              "internalType": "uint256",
              "name": "createdAt",
              "type": "uint256"
            },
            {
              "internalType": "uint256",
              "name": "expiresAt",
              "type": "uint256"
            },
            {
              "internalType": "uint256",
              "name": "triggeredAt",
              "type": "uint256"
            },
            {
              "internalType": "bool",
              "name": "repeating",
              "type": "bool"
            },
            {
              "internalType": "uint256",
              "name": "triggerCount",
              "type": "uint256"
            }
          ],
          "internalType": "struct WikiConditionalOrder.ConditionalOrder",
          "name": "",
          "type": "tuple"
        }
      ],
      "stateMutability": "view",
      "type": "function"
    },
    {
      "inputs": [
        {
          "internalType": "address",
          "name": "user",
          "type": "address"
        }
      ],
      "name": "getUserOrders",
      "outputs": [
        {
          "internalType": "uint256[]",
          "name": "",
          "type": "uint256[]"
        }
      ],
      "stateMutability": "view",
      "type": "function"
    },
    {
      "inputs": [
        {
          "internalType": "address",
          "name": "",
          "type": "address"
        }
      ],
      "name": "keepers",
      "outputs": [
        {
          "internalType": "bool",
          "name": "",
          "type": "bool"
        }
      ],
      "stateMutability": "view",
      "type": "function"
    },
    {
      "inputs": [],
      "name": "maxOrdersPerUser",
      "outputs": [
        {
          "internalType": "uint256",
          "name": "",
          "type": "uint256"
        }
      ],
      "stateMutability": "view",
      "type": "function"
    },
    {
      "inputs": [],
      "name": "nextOrderId",
      "outputs": [
        {
          "internalType": "uint256",
          "name": "",
          "type": "uint256"
        }
      ],
      "stateMutability": "view",
      "type": "function"
    },
    {
      "inputs": [],
      "name": "oracle",
      "outputs": [
        {
          "internalType": "contract IOracle",
          "name": "",
          "type": "address"
        }
      ],
      "stateMutability": "view",
      "type": "function"
    },
    {
      "inputs": [],
      "name": "orderFeeUsdc",
      "outputs": [
        {
          "internalType": "uint256",
          "name": "",
          "type": "uint256"
        }
      ],
      "stateMutability": "view",
      "type": "function"
    },
    {
      "inputs": [
        {
          "internalType": "uint256",
          "name": "",
          "type": "uint256"
        }
      ],
      "name": "orders",
      "outputs": [
        {
          "internalType": "address",
          "name": "owner",
          "type": "address"
        },
        {
          "components": [
            {
              "internalType": "enum WikiConditionalOrder.ConditionType",
              "name": "condType",
              "type": "uint8"
            },
            {
              "internalType": "uint256",
              "name": "marketId",
              "type": "uint256"
            },
            {
              "internalType": "uint256",
              "name": "targetValue",
              "type": "uint256"
            },
            {
              "internalType": "uint256",
              "name": "positionId",
              "type": "uint256"
            }
          ],
          "internalType": "struct WikiConditionalOrder.Condition",
          "name": "condition",
          "type": "tuple"
        },
        {
          "components": [
            {
              "internalType": "enum WikiConditionalOrder.ActionType",
              "name": "actionType",
              "type": "uint8"
            },
            {
              "internalType": "uint256",
              "name": "marketId",
              "type": "uint256"
            },
            {
              "internalType": "uint256",
              "name": "positionId",
              "type": "uint256"
            },
            {
              "internalType": "uint256",
              "name": "amount",
              "type": "uint256"
            },
            {
              "internalType": "uint256",
              "name": "leverage",
              "type": "uint256"
            },
            {
              "internalType": "uint256",
              "name": "newPrice",
              "type": "uint256"
            }
          ],
          "internalType": "struct WikiConditionalOrder.Action",
          "name": "action",
          "type": "tuple"
        },
        {
          "internalType": "enum WikiConditionalOrder.OrderStatus",
          "name": "status",
          "type": "uint8"
        },
        {
          "internalType": "uint256",
          "name": "createdAt",
          "type": "uint256"
        },
        {
          "internalType": "uint256",
          "name": "expiresAt",
          "type": "uint256"
        },
        {
          "internalType": "uint256",
          "name": "triggeredAt",
          "type": "uint256"
        },
        {
          "internalType": "bool",
          "name": "repeating",
          "type": "bool"
        },
        {
          "internalType": "uint256",
          "name": "triggerCount",
          "type": "uint256"
        }
      ],
      "stateMutability": "view",
      "type": "function"
    },
    {
      "inputs": [],
      "name": "owner",
      "outputs": [
        {
          "internalType": "address",
          "name": "",
          "type": "address"
        }
      ],
      "stateMutability": "view",
      "type": "function"
    },
    {
      "inputs": [],
      "name": "pendingOwner",
      "outputs": [
        {
          "internalType": "address",
          "name": "",
          "type": "address"
        }
      ],
      "stateMutability": "view",
      "type": "function"
    },
    {
      "inputs": [],
      "name": "perp",
      "outputs": [
        {
          "internalType": "contract IPerp",
          "name": "",
          "type": "address"
        }
      ],
      "stateMutability": "view",
      "type": "function"
    },
    {
      "inputs": [],
      "name": "renounceOwnership",
      "outputs": [],
      "stateMutability": "nonpayable",
      "type": "function"
    },
    {
      "inputs": [
        {
          "internalType": "address",
          "name": "k",
          "type": "address"
        },
        {
          "internalType": "bool",
          "name": "on",
          "type": "bool"
        }
      ],
      "name": "setKeeper",
      "outputs": [],
      "stateMutability": "nonpayable",
      "type": "function"
    },
    {
      "inputs": [
        {
          "internalType": "uint256",
          "name": "fee",
          "type": "uint256"
        }
      ],
      "name": "setOrderFee",
      "outputs": [],
      "stateMutability": "nonpayable",
      "type": "function"
    },
    {
      "inputs": [
        {
          "internalType": "address",
          "name": "newOwner",
          "type": "address"
        }
      ],
      "name": "transferOwnership",
      "outputs": [],
      "stateMutability": "nonpayable",
      "type": "function"
    },
    {
      "inputs": [
        {
          "internalType": "address",
          "name": "",
          "type": "address"
        },
        {
          "internalType": "uint256",
          "name": "",
          "type": "uint256"
        }
      ],
      "name": "userOrders",
      "outputs": [
        {
          "internalType": "uint256",
          "name": "",
          "type": "uint256"
        }
      ],
      "stateMutability": "view",
      "type": "function"
    },
    {
      "inputs": [
        {
          "internalType": "address",
          "name": "to",
          "type": "address"
        }
      ],
      "name": "withdrawFees",
      "outputs": [],
      "stateMutability": "nonpayable",
      "type": "function"
    }
  ],
  "bytecode": "0x60a0346101a757601f611d8638819003918201601f19168301916001600160401b038311848410176101ab578084926080946040528339810103126101a757610047816101bf565b90610054602082016101bf565b9161006d6060610066604085016101bf565b93016101bf565b6001600160a01b0390911691821561019457600180546001600160a01b03199081169091555f805491821685178155604051959185916001600160a01b03909116907f8be0079c531659141344cd1fd0a4f28419497f9722a3daafe3b4186f6b6457e09080a360017f9b779b17422d0df92223018b32b4d1fa46e071723d6817e2486d003becc55f008190556014600855620f42406009556001600160a01b03918216608052600580549383166001600160a01b0319948516179055600680549490921693909216929092179091555f91825260046020526040909120805460ff19169091179055611bb290816101d482396080518181816106a701528181610d090152818161101301528181611704015281816117ee015281816118fd01526119a00152f35b631e4fbdf760e01b5f525f60045260245ffd5b5f80fd5b634e487b7160e01b5f52604160045260245ffd5b51906001600160a01b03821682036101a75756fe60806040526004361015610011575f80fd5b5f3560e01c80631325f9d01461109e578063164e68de14610fdc5780632a58b33014610fbf5780633bbd64bc14610f825780633efdcc1714610de2578063450dbd1d146109b3578063514fcac7146108d95780635d830dd1146108bc57806363c69f081461083e578063715018a6146107db57806379ba5097146107565780637dc0d1d01461072e578063856652e9146106d657806389a30271146106925780638da5cb5b1461066b57806390749c221461064e578063a85c38ef14610591578063bfa4c00c14610569578063c014930f14610548578063c53a490a146103d7578063d09ef24114610216578063d1b9e853146101bf578063e30c3978146101975763f2fde38b14610121575f80fd5b346101935760203660031901126101935761013a611236565b6101426119c4565b60018060a01b0316806bffffffffffffffffffffffff60a01b600154161760015560018060a01b035f54167f38d16b8cac22d99fc7c124b9cd0de2d3fa1faef420bfe791d8c362d765e227005f80a3005b5f80fd5b34610193575f366003190112610193576001546040516001600160a01b039091168152602090f35b34610193576040366003190112610193576101d8611236565b602435801515810361019357610214916101f06119c4565b60018060a01b03165f52600460205260405f209060ff801983541691151516179055565b005b34610193576020366003190112610193575f610100604051610237816112b8565b828152604051610246816112d5565b838152836020820152836040820152836060820152602082015260405161026c816112f1565b8381528360208201528360408201528360608201528360808201528360a082015260408201528260608201528260808201528260a08201528260c08201528260e082015201526004355f52600260205260405f206040516102cc816112b8565b81546001600160a01b031681526102e56001830161132f565b602082019081526102f86005840161136d565b926040830193845260ff600b82015416936060840160048610156103c357610220958152600c8301546080860190815261039c600d8501549260a08801938452610390600e8701549560c08a01968752610385601060ff600f8b0154169960e08d019a15158b520154996101008c019a8b526040519b60018060a01b039051168c525160208c01906113bf565b5160a08a01906113eb565b5161016088019061142b565b51610180860152516101a0850152516101c08401525115156101e083015251610200820152f35b634e487b7160e01b5f52602160045260245ffd5b34610193576020366003190112610193576001600160a01b036103f8611236565b165f52600360205260405f20604051808260208294549384815201905f5260205f20925f5b81811061052f5750506104329250038261130d565b5f905f5b81518110156104875761044981836114df565b515f52600260205260ff600b60405f2001541660048110156103c35715610473575b600101610436565b9161047f600191611485565b92905061046b565b5090610492816114f3565b906104a0604051928361130d565b8082526104af601f19916114f3565b013660208301375f905f5b835181101561051d576104cd81856114df565b515f52600260205260ff600b60405f200154169060048210156103c357600191156104f9575b016104ba565b61050381866114df565b5161051761051086611485565b95856114df565b526104f3565b6040518061052b848261124c565b0390f35b845483526001948501948694506020909301920161041d565b34610193576020366003190112610193576105616119c4565b600435600955005b34610193575f366003190112610193576006546040516001600160a01b039091168152602090f35b34610193576020366003190112610193576004355f52600260205261022060405f2060018060a01b03815416906105ca6001820161132f565b906105d76005820161136d565b60ff600b83015416600c83015461062c600d85015492610621600e87015495610617601060ff600f8b015416990154996040519b8c5260208c01906113bf565b60a08a01906113eb565b61016088019061142b565b6101808601526101a08501526101c084015215156101e0830152610200820152f35b34610193575f366003190112610193576020600954604051908152f35b34610193575f366003190112610193575f546040516001600160a01b039091168152602090f35b34610193575f366003190112610193576040517f00000000000000000000000000000000000000000000000000000000000000006001600160a01b03168152602090f35b34610193576040366003190112610193576106ef611236565b6001600160a01b03165f908152600360205260409020805460243591908210156101935760209161071f91611285565b90549060031b1c604051908152f35b34610193575f366003190112610193576005546040516001600160a01b039091168152602090f35b34610193575f36600319011261019357600154336001600160a01b03909116036107c857600180546001600160a01b03199081169091555f805433928116831782556001600160a01b0316907f8be0079c531659141344cd1fd0a4f28419497f9722a3daafe3b4186f6b6457e09080a3005b63118cdaa760e01b5f523360045260245ffd5b34610193575f366003190112610193576107f36119c4565b600180546001600160a01b03199081169091555f80549182168155906001600160a01b03167f8be0079c531659141344cd1fd0a4f28419497f9722a3daafe3b4186f6b6457e08280a3005b34610193576020366003190112610193576001600160a01b0361085f611236565b165f52600360205260405f206040519081602082549182815201915f5260205f20905f5b8181106108a65761052b8561089a8187038261130d565b6040519182918261124c565b8254845260209093019260019283019201610883565b34610193575f366003190112610193576020600854604051908152f35b3461019357602036600319011261019357600435805f52600260205260405f2060018060a01b03815416331480156109a0575b1561096b57600b019060ff8254169060048210156103c3577fc0362da6f2ff36b382b34aec0814f6b3cdf89f5ef282a1d1f114d0c0b036d59692610952604093156114a2565b805460ff191660021790558151908152336020820152a1005b60405162461bcd60e51b815260206004820152600d60248201526c21a79d103737ba1037bbb732b960991b6044820152606490fd5b505f546001600160a01b0316331461090c565b346101935736600319016101808112610193576080136101935760c036608319011261019357610144356101643590811515809203610193576109f4611a2f565b335f52600360205260405f20546008541115610da75760095480610d07575b5060075490610a2182611485565b600755801580610cfe5762015180820291820462015180141715610cea574201804211610cea575b604051610a55816112b8565b33815260405191610a65836112d5565b600435926006841015610193578381526024356020820152604435604082015260643560608201526020830190815260405191610aa1836112f1565b6084359660068810156101935787845260a435602085015260c435604085015260e43560608501526101043560808501526101243560a08501526040850193845260608501935f8552608086019242845260a0870190815260a060c08801925f845260e0890194855260606101008a01975f89528c5f52600260205260405f209a600180861b039051166bffffffffffffffffffffffff851b8c5416178b5560018b019051908151610b52816112ae565b610b5b816112ae565b60ff80198354169116179055602081015160028c0155604081015160038c0155015160048a0155600589019051908151610b94816112ae565b610b9d816112ae565b60ff80198354169116179055602081015160068a0155604081015160078a0155606081015160088a0155608081015160098a01550151600a880155600b870195519360048510156103c357601096610c259560ff8019835416911617905551600c88015551600d87015551600e860155511515600f85019060ff801983541691151516179055565b51910155335f52600360205260405f209081549068010000000000000000821015610cd657602094610c80837fd657913cc24420cfd57eb8a0b42caafe88c91eae11bf09f7f221b7a48c2214f8956001608096018155611285565b81549060031b9087821b915f19901b1916179055604051918583523387840152610ca9816112ae565b6040830152610cb7816112ae565b6060820152a160015f80516020611b5d83398151915255604051908152f35b634e487b7160e01b5f52604160045260245ffd5b634e487b7160e01b5f52601160045260245ffd5b50505f19610a49565b7f000000000000000000000000000000000000000000000000000000000000000090604051906323b872dd60e01b5f52336004523060245260445260205f60648180865af19060015f5114821615610d86575b6040525f606052610a13575b635274afe760e01b5f9081526001600160a01b0391909116600452602490fd5b906001811516610d9e57823b15153d15161690610d5a565b503d5f823e3d90fd5b60405162461bcd60e51b8152602060048201526013602482015272434f3a20746f6f206d616e79206f726465727360681b6044820152606490fd5b3461019357602036600319011261019357600435610dfe611a2f565b335f526004602052610e1660ff60405f205416611438565b805f52600260205260405f2090600b82019160ff83541660048110156103c357610e4090156114a2565b600d8101544211610f4f57610e5f610e5a6001830161132f565b61150b565b15610f125780547f5c19a95581a0b0441d82a84b9945ce301f43ca879614bbe9b52390945160e3929390610ea8906001600160a01b0316610ea26005850161136d565b906116c9565b42600e83015560108201610ebc8154611485565b905560ff600f8301541615610f01575b5054604080519283526001600160a01b0390911660208301524290820152606090a160015f80516020611b5d83398151915255005b805460ff1916600117905583610ecc565b60405162461bcd60e51b815260206004820152601560248201527410d3ce8818dbdb991a5d1a5bdb881b9bdd081b595d605a1b6044820152606490fd5b60405162461bcd60e51b815260206004820152600b60248201526a10d3ce88195e1c1a5c995960aa1b6044820152606490fd5b34610193576020366003190112610193576001600160a01b03610fa3611236565b165f526004602052602060ff60405f2054166040519015158152f35b34610193575f366003190112610193576020600754604051908152f35b3461019357602036600319011261019357610ff5611236565b610ffd6119c4565b6040516370a0823160e01b8152306004820152907f0000000000000000000000000000000000000000000000000000000000000000906020836024816001600160a01b0386165afa918215611093575f9261105d575b61021493506119d7565b91506020833d60201161108b575b816110786020938361130d565b8101031261019357610214925191611053565b3d915061106b565b6040513d5f823e3d90fd5b346101935760203660031901126101935760043567ffffffffffffffff811161019357366023820112156101935780600401359067ffffffffffffffff8211610193576024810190602436918460051b01011161019357335f52600460205261110d60ff60405f205416611438565b5f5b82811061111857005b611123818484611475565b355f52600260205260405f2090600b820160ff8154169260048410156103c35760019361122f57600d810154421161121e57611163610e5a85830161132f565b611171575b50505b0161110f565b7f5c19a95581a0b0441d82a84b9945ce301f43ca879614bbe9b52390945160e392916111ab858060a01b03835416610ea26005850161136d565b42600e830155601082016111bf8154611485565b905560ff600f830154161561120e575b506111db838787611475565b9054604080519235835260a086901b8690039091166001600160a01b031660208301524290820152606090a18480611168565b805460ff191685179055866111cf565b50805460ff1916600317905561116b565b505061116b565b600435906001600160a01b038216820361019357565b60206040818301928281528451809452019201905f5b81811061126f5750505090565b8251845260209384019390920191600101611262565b805482101561129a575f5260205f2001905f90565b634e487b7160e01b5f52603260045260245ffd5b600611156103c357565b610120810190811067ffffffffffffffff821117610cd657604052565b6080810190811067ffffffffffffffff821117610cd657604052565b60c0810190811067ffffffffffffffff821117610cd657604052565b90601f8019910116810190811067ffffffffffffffff821117610cd657604052565b9060405161133c816112d5565b60606003829460ff815416611350816112ae565b845260018101546020850152600281015460408501520154910152565b9060405161137a816112f1565b60a06005829460ff81541661138e816112ae565b8452600181015460208501526002810154604085015260038101546060850152600481015460808501520154910152565b6060809180516113ce816112ae565b845260208101516020850152604081015160408501520151910152565b60a0809180516113fa816112ae565b8452602081015160208501526040810151604085015260608101516060850152608081015160808501520151910152565b9060048210156103c35752565b1561143f57565b60405162461bcd60e51b815260206004820152600e60248201526d21a79d103737ba1035b2b2b832b960911b6044820152606490fd5b919081101561129a5760051b0190565b5f198114610cea5760010190565b90816020910312610193575190565b156114a957565b60405162461bcd60e51b815260206004820152600e60248201526d434f3a206e6f742061637469766560901b6044820152606490fd5b805182101561129a5760209160051b010190565b67ffffffffffffffff8111610cd65760051b60200190565b8051611516816112ae565b61151f816112ae565b1580156116ac575b6116a65760048151611538816112ae565b611541816112ae565b1461169c5760028151611553816112ae565b61155c816112ae565b14611616576003815161156e816112ae565b611577816112ae565b1461158157505f90565b60018060a01b03600654166020606083015160246040518094819363bc6e624360e01b835260048301525afa908115611093575f916115e4575b505f811291826115ca57505090565b909150600160ff1b8214610cea5760400151905f03101590565b90506020813d60201161160e575b816115ff6020938361130d565b8101031261019357515f6115bb565b3d91506115f2565b60018060a01b03600654166020606083015160246040518094819363bc6e624360e01b835260048301525afa908115611093575f9161166a575b505f8113918261165f57505090565b604001511115919050565b90506020813d602011611694575b816116856020938361130d565b8101031261019357515f611650565b3d9150611678565b6040015142101590565b50600190565b50600181516116ba816112ae565b6116c3816112ae565b14611527565b8151905f916116d7816112ae565b6116e0816112ae565b6117b3575060065460608301805190936020929091611728916001600160a01b03167f0000000000000000000000000000000000000000000000000000000000000000611a67565b608460018060a01b03600654169484608085850151925194015196604051978895869463aeae799560e01b8652600486015260016024860152604485015260648401525af19081156117a7575061177c5750565b61179d9060203d6020116117a0575b611795818361130d565b810190611493565b50565b503d61178b565b604051903d90823e3d90fd5b600183516117c0816112ae565b6117c9816112ae565b03611865575060065460608301805190936020929091611812916001600160a01b03167f0000000000000000000000000000000000000000000000000000000000000000611a67565b608460018060a01b03600654169484608085850151925194015196604051978895869463aeae799560e01b86526004860152836024860152604485015260648401525af19081156117a7575061177c5750565b60028351611872816112ae565b61187b816112ae565b036118c45750600654604092830151925163a126d60160e01b815260048101939093526020908390602490829085906001600160a01b03165af19081156117a7575061177c5750565b9050600382516118d3816112ae565b6118dc816112ae565b036119765750600654606082018051909161192191906001600160a01b03167f0000000000000000000000000000000000000000000000000000000000000000611a67565b604060018060a01b03600654169201519051823b156101935760445f92836040519586948593631a82329760e31b8552600485015260248401525af180156110935761196a5750565b5f6119749161130d565b565b60058251611983816112ae565b61198c816112ae565b14611995575050565b6060611974920151907f00000000000000000000000000000000000000000000000000000000000000006119d7565b5f546001600160a01b031633036107c857565b916040519163a9059cbb60e01b5f5260018060a01b031660045260245260205f60448180865af19060015f5114821615611a17575b60405215610d665750565b906001811516610d9e57823b15153d15161690611a0c565b60025f80516020611b5d8339815191525414611a585760025f80516020611b5d83398151915255565b633ee5aeb560e01b5f5260045ffd5b916040519163095ea7b360e01b5f5260018060a01b031691826004528160245260205f60448180885af19060015f5114821615611b4d575b60405215611aac57505050565b60405163095ea7b360e01b5f52826004525f60245260205f60448180885af19060015f5114821615611b35575b60405215611b17576040519163095ea7b360e01b5f5260045260245260205f60448180865af19060015f5114821615611a175760405215610d665750565b635274afe760e01b5f9081526001600160a01b038416600452602490fd5b906001811516610d9e57843b15153d15161690611ad9565b90843b15153d15161690611a9f56fe9b779b17422d0df92223018b32b4d1fa46e071723d6817e2486d003becc55f00a2646970667358221220f711e4c80490866395c56f5baa629d52471903123522a7f56dea12508effb77664736f6c634300081a0033",
  "linkReferences": {},
  "deployedLinkReferences": {}
}