{
  "_format": "hh-sol-artifact-1",
  "contractName": "WikiLeveragedYield",
  "sourceName": "src/WikiLeveragedYield.sol",
  "abi": [
    {
      "inputs": [
        {
          "internalType": "address",
          "name": "_owner",
          "type": "address"
        },
        {
          "internalType": "address",
          "name": "_lending",
          "type": "address"
        },
        {
          "internalType": "address",
          "name": "_revenueSplitter",
          "type": "address"
        },
        {
          "internalType": "address",
          "name": "_keeper",
          "type": "address"
        }
      ],
      "stateMutability": "nonpayable",
      "type": "constructor"
    },
    {
      "inputs": [],
      "name": "EnforcedPause",
      "type": "error"
    },
    {
      "inputs": [],
      "name": "ExpectedPause",
      "type": "error"
    },
    {
      "inputs": [
        {
          "internalType": "address",
          "name": "owner",
          "type": "address"
        }
      ],
      "name": "OwnableInvalidOwner",
      "type": "error"
    },
    {
      "inputs": [
        {
          "internalType": "address",
          "name": "account",
          "type": "address"
        }
      ],
      "name": "OwnableUnauthorizedAccount",
      "type": "error"
    },
    {
      "inputs": [],
      "name": "ReentrancyGuardReentrantCall",
      "type": "error"
    },
    {
      "inputs": [
        {
          "internalType": "address",
          "name": "token",
          "type": "address"
        }
      ],
      "name": "SafeERC20FailedOperation",
      "type": "error"
    },
    {
      "anonymous": false,
      "inputs": [
        {
          "indexed": false,
          "internalType": "uint256",
          "name": "vaultId",
          "type": "uint256"
        },
        {
          "indexed": false,
          "internalType": "address",
          "name": "user",
          "type": "address"
        },
        {
          "indexed": false,
          "internalType": "uint256",
          "name": "reason",
          "type": "uint256"
        }
      ],
      "name": "Deleveraged",
      "type": "event"
    },
    {
      "anonymous": false,
      "inputs": [
        {
          "indexed": false,
          "internalType": "uint256",
          "name": "vaultId",
          "type": "uint256"
        },
        {
          "indexed": false,
          "internalType": "address",
          "name": "user",
          "type": "address"
        },
        {
          "indexed": false,
          "internalType": "uint256",
          "name": "amount",
          "type": "uint256"
        },
        {
          "indexed": false,
          "internalType": "uint256",
          "name": "shares",
          "type": "uint256"
        }
      ],
      "name": "Deposited",
      "type": "event"
    },
    {
      "anonymous": false,
      "inputs": [
        {
          "indexed": false,
          "internalType": "uint256",
          "name": "vaultId",
          "type": "uint256"
        },
        {
          "indexed": false,
          "internalType": "address",
          "name": "user",
          "type": "address"
        },
        {
          "indexed": false,
          "internalType": "uint256",
          "name": "loopCount",
          "type": "uint256"
        },
        {
          "indexed": false,
          "internalType": "uint256",
          "name": "totalBorrowed",
          "type": "uint256"
        }
      ],
      "name": "Looped",
      "type": "event"
    },
    {
      "anonymous": false,
      "inputs": [
        {
          "indexed": true,
          "internalType": "address",
          "name": "previousOwner",
          "type": "address"
        },
        {
          "indexed": true,
          "internalType": "address",
          "name": "newOwner",
          "type": "address"
        }
      ],
      "name": "OwnershipTransferStarted",
      "type": "event"
    },
    {
      "anonymous": false,
      "inputs": [
        {
          "indexed": true,
          "internalType": "address",
          "name": "previousOwner",
          "type": "address"
        },
        {
          "indexed": true,
          "internalType": "address",
          "name": "newOwner",
          "type": "address"
        }
      ],
      "name": "OwnershipTransferred",
      "type": "event"
    },
    {
      "anonymous": false,
      "inputs": [
        {
          "indexed": false,
          "internalType": "address",
          "name": "account",
          "type": "address"
        }
      ],
      "name": "Paused",
      "type": "event"
    },
    {
      "anonymous": false,
      "inputs": [
        {
          "indexed": false,
          "internalType": "address",
          "name": "account",
          "type": "address"
        }
      ],
      "name": "Unpaused",
      "type": "event"
    },
    {
      "anonymous": false,
      "inputs": [
        {
          "indexed": false,
          "internalType": "uint256",
          "name": "vaultId",
          "type": "uint256"
        },
        {
          "indexed": false,
          "internalType": "address",
          "name": "user",
          "type": "address"
        },
        {
          "indexed": false,
          "internalType": "uint256",
          "name": "amount",
          "type": "uint256"
        },
        {
          "indexed": false,
          "internalType": "uint256",
          "name": "fee",
          "type": "uint256"
        }
      ],
      "name": "Withdrawn",
      "type": "event"
    },
    {
      "inputs": [],
      "name": "BPS",
      "outputs": [
        {
          "internalType": "uint256",
          "name": "",
          "type": "uint256"
        }
      ],
      "stateMutability": "view",
      "type": "function"
    },
    {
      "inputs": [],
      "name": "MIN_DEPOSIT",
      "outputs": [
        {
          "internalType": "uint256",
          "name": "",
          "type": "uint256"
        }
      ],
      "stateMutability": "view",
      "type": "function"
    },
    {
      "inputs": [],
      "name": "SECONDS_PER_YEAR",
      "outputs": [
        {
          "internalType": "uint256",
          "name": "",
          "type": "uint256"
        }
      ],
      "stateMutability": "view",
      "type": "function"
    },
    {
      "inputs": [],
      "name": "acceptOwnership",
      "outputs": [],
      "stateMutability": "nonpayable",
      "type": "function"
    },
    {
      "inputs": [
        {
          "internalType": "uint256",
          "name": "vaultId",
          "type": "uint256"
        },
        {
          "internalType": "address",
          "name": "user",
          "type": "address"
        }
      ],
      "name": "deleverageIfNeeded",
      "outputs": [],
      "stateMutability": "nonpayable",
      "type": "function"
    },
    {
      "inputs": [
        {
          "internalType": "uint256",
          "name": "vaultId",
          "type": "uint256"
        },
        {
          "internalType": "uint256",
          "name": "amount",
          "type": "uint256"
        }
      ],
      "name": "deposit",
      "outputs": [],
      "stateMutability": "nonpayable",
      "type": "function"
    },
    {
      "inputs": [
        {
          "internalType": "uint256",
          "name": "vaultId",
          "type": "uint256"
        },
        {
          "internalType": "address",
          "name": "user",
          "type": "address"
        }
      ],
      "name": "getPosition",
      "outputs": [
        {
          "internalType": "uint256",
          "name": "shares",
          "type": "uint256"
        },
        {
          "internalType": "uint256",
          "name": "currentValue",
          "type": "uint256"
        },
        {
          "internalType": "uint256",
          "name": "deposited",
          "type": "uint256"
        },
        {
          "internalType": "int256",
          "name": "pnl",
          "type": "int256"
        },
        {
          "internalType": "uint256",
          "name": "loops",
          "type": "uint256"
        },
        {
          "internalType": "uint256",
          "name": "borrowed",
          "type": "uint256"
        },
        {
          "internalType": "uint256",
          "name": "estimatedAPY",
          "type": "uint256"
        }
      ],
      "stateMutability": "view",
      "type": "function"
    },
    {
      "inputs": [],
      "name": "keeper",
      "outputs": [
        {
          "internalType": "address",
          "name": "",
          "type": "address"
        }
      ],
      "stateMutability": "view",
      "type": "function"
    },
    {
      "inputs": [],
      "name": "lending",
      "outputs": [
        {
          "internalType": "contract IWikiLending",
          "name": "",
          "type": "address"
        }
      ],
      "stateMutability": "view",
      "type": "function"
    },
    {
      "inputs": [],
      "name": "nextVaultId",
      "outputs": [
        {
          "internalType": "uint256",
          "name": "",
          "type": "uint256"
        }
      ],
      "stateMutability": "view",
      "type": "function"
    },
    {
      "inputs": [],
      "name": "owner",
      "outputs": [
        {
          "internalType": "address",
          "name": "",
          "type": "address"
        }
      ],
      "stateMutability": "view",
      "type": "function"
    },
    {
      "inputs": [],
      "name": "pause",
      "outputs": [],
      "stateMutability": "nonpayable",
      "type": "function"
    },
    {
      "inputs": [],
      "name": "paused",
      "outputs": [
        {
          "internalType": "bool",
          "name": "",
          "type": "bool"
        }
      ],
      "stateMutability": "view",
      "type": "function"
    },
    {
      "inputs": [],
      "name": "pendingOwner",
      "outputs": [
        {
          "internalType": "address",
          "name": "",
          "type": "address"
        }
      ],
      "stateMutability": "view",
      "type": "function"
    },
    {
      "inputs": [
        {
          "internalType": "uint256",
          "name": "",
          "type": "uint256"
        },
        {
          "internalType": "address",
          "name": "",
          "type": "address"
        }
      ],
      "name": "positions",
      "outputs": [
        {
          "internalType": "uint256",
          "name": "depositAmount",
          "type": "uint256"
        },
        {
          "internalType": "uint256",
          "name": "shares",
          "type": "uint256"
        },
        {
          "internalType": "uint256",
          "name": "loops",
          "type": "uint256"
        },
        {
          "internalType": "uint256",
          "name": "borrowedTotal",
          "type": "uint256"
        },
        {
          "internalType": "uint256",
          "name": "depositTime",
          "type": "uint256"
        },
        {
          "internalType": "uint256",
          "name": "lastFeeAccrual",
          "type": "uint256"
        }
      ],
      "stateMutability": "view",
      "type": "function"
    },
    {
      "inputs": [],
      "name": "renounceOwnership",
      "outputs": [],
      "stateMutability": "nonpayable",
      "type": "function"
    },
    {
      "inputs": [],
      "name": "revenueSplitter",
      "outputs": [
        {
          "internalType": "address",
          "name": "",
          "type": "address"
        }
      ],
      "stateMutability": "view",
      "type": "function"
    },
    {
      "inputs": [
        {
          "internalType": "address",
          "name": "k",
          "type": "address"
        }
      ],
      "name": "setKeeper",
      "outputs": [],
      "stateMutability": "nonpayable",
      "type": "function"
    },
    {
      "inputs": [
        {
          "internalType": "uint256",
          "name": "id",
          "type": "uint256"
        },
        {
          "internalType": "bool",
          "name": "on",
          "type": "bool"
        }
      ],
      "name": "setVaultActive",
      "outputs": [],
      "stateMutability": "nonpayable",
      "type": "function"
    },
    {
      "inputs": [
        {
          "internalType": "uint256",
          "name": "",
          "type": "uint256"
        }
      ],
      "name": "totalNAV",
      "outputs": [
        {
          "internalType": "uint256",
          "name": "",
          "type": "uint256"
        }
      ],
      "stateMutability": "view",
      "type": "function"
    },
    {
      "inputs": [
        {
          "internalType": "uint256",
          "name": "",
          "type": "uint256"
        }
      ],
      "name": "totalShares",
      "outputs": [
        {
          "internalType": "uint256",
          "name": "",
          "type": "uint256"
        }
      ],
      "stateMutability": "view",
      "type": "function"
    },
    {
      "inputs": [
        {
          "internalType": "address",
          "name": "newOwner",
          "type": "address"
        }
      ],
      "name": "transferOwnership",
      "outputs": [],
      "stateMutability": "nonpayable",
      "type": "function"
    },
    {
      "inputs": [],
      "name": "unpause",
      "outputs": [],
      "stateMutability": "nonpayable",
      "type": "function"
    },
    {
      "inputs": [
        {
          "internalType": "uint256",
          "name": "",
          "type": "uint256"
        }
      ],
      "name": "vaults",
      "outputs": [
        {
          "internalType": "enum WikiLeveragedYield.Strategy",
          "name": "strategy",
          "type": "uint8"
        },
        {
          "internalType": "string",
          "name": "name",
          "type": "string"
        },
        {
          "internalType": "address",
          "name": "depositToken",
          "type": "address"
        },
        {
          "internalType": "address",
          "name": "yieldToken",
          "type": "address"
        },
        {
          "internalType": "uint256",
          "name": "lendingMarketId",
          "type": "uint256"
        },
        {
          "internalType": "uint256",
          "name": "targetLoops",
          "type": "uint256"
        },
        {
          "internalType": "uint256",
          "name": "targetLTV",
          "type": "uint256"
        },
        {
          "internalType": "uint256",
          "name": "safeHealthBps",
          "type": "uint256"
        },
        {
          "internalType": "uint256",
          "name": "mgmtFeeBps",
          "type": "uint256"
        },
        {
          "internalType": "uint256",
          "name": "perfFeeBps",
          "type": "uint256"
        },
        {
          "internalType": "bool",
          "name": "active",
          "type": "bool"
        }
      ],
      "stateMutability": "view",
      "type": "function"
    },
    {
      "inputs": [
        {
          "internalType": "uint256",
          "name": "vaultId",
          "type": "uint256"
        },
        {
          "internalType": "uint256",
          "name": "shares",
          "type": "uint256"
        }
      ],
      "name": "withdraw",
      "outputs": [],
      "stateMutability": "nonpayable",
      "type": "function"
    }
  ],
  "bytecode": "0x6080604052346106d457611ba06080813803918261001c816106f8565b9384928339810103126106d4576100328161071d565b9061003f6020820161071d565b61005760606100506040850161071d565b930161071d565b926001600160a01b031680156106c157600180546001600160a01b03199081169091555f8054918216831781556001600160a01b03909116907f8be0079c531659141344cd1fd0a4f28419497f9722a3daafe3b4186f6b6457e09080a360017f9b779b17422d0df92223018b32b4d1fa46e071723d6817e2486d003becc55f0055600680546001600160a01b03199081166001600160a01b03938416179091556007805482169383169390931790925560088054909216921691909117905561011e6106d8565b5f815261012b60406106f8565b601981527f4554482033c397205969656c64204c6f6f70756e69636f646500000000000000602082015260208201908152604082017382af49447d8a07e3bd95bd0d56f35241523fbab18152606083017382af49447d8a07e3bd95bd0d56f35241523fbab18152608084016001815260a08501916003835260c08601936117708552612ee060e088015260646101008801526103e861012088015260016101408801526009546101da81610731565b6009555f52600260205260405f2095875160038110156105da5760ff801989541691161787555180519060018060401b0382116105c6576001880154600181811c911680156106b7575b60208210146105a857601f811161066f575b50602090601f83116001146105f9579180600a989694926101409a9896945f926105ee575b50508160011b915f199060031b1c19161760018701555b516002860180546001600160a01b039283166001600160a01b031991821617909155915160038701805491909216921691909117905551600484015551600583015551600682015560e084015160078201556101008401516008820155610120840151600982015591909201519101805460ff191691151560ff169190911790556102fb6106d8565b6002815261030960406106f8565b601a81527f5553444320327820537461626c65204c6f6f70756e69636f64650000000000006020820152602082019081526040820173af88d065e77c8cc2239327c5edb3a432268e583181526060830173af88d065e77c8cc2239327c5edb3a432268e58318152608084015f815260a08501916002835260c0860193611d4c8552612af860e088015260646101008801526103e861012088015260016101408801526009546103b781610731565b6009555f52600260205260405f2095875160038110156105da5760ff801989541691161787555180519060018060401b0382116105c6576001880154600181811c911680156105bc575b60208210146105a857601f8111610560575b50602090601f83116001146104ea579180600a989694926101409a9896945f926104df575b50508160011b915f199060031b1c19161760018701555b516002860180546001600160a01b039283166001600160a01b031991821617909155915160038701805491909216921691909117905551600484015551600583015551600682015560e084015160078201556101008401516008820155610120840151600982015591909201519101805460ff191691151560ff1691909117905560405161144c90816107548239f35b015190505f80610438565b90600189015f52805f20915f5b601f1985168110610548575092600a989694926001926101409b99979583601f19811610610530575b505050811b01600187015561044f565b01515f1960f88460031b161c191690555f8080610520565b919260206001819286850151815501940192016104f7565b600189015f5260205f20601f840160051c8101916020851061059e575b601f0160051c01905b8181106105935750610413565b5f8155600101610586565b909150819061057d565b634e487b7160e01b5f52602260045260245ffd5b90607f1690610401565b634e487b7160e01b5f52604160045260245ffd5b634e487b7160e01b5f52602160045260245ffd5b015190505f8061025b565b90600189015f52805f20915f5b601f1985168110610657575092600a989694926001926101409b99979583601f1981161061063f575b505050811b016001870155610272565b01515f1960f88460031b161c191690555f808061062f565b91926020600181928685015181550194019201610606565b600189015f5260205f20601f840160051c810191602085106106ad575b601f0160051c01905b8181106106a25750610236565b5f8155600101610695565b909150819061068c565b90607f1690610224565b631e4fbdf760e01b5f525f60045260245ffd5b5f80fd5b6040519061016082016001600160401b038111838210176105c657604052565b6040519190601f01601f191682016001600160401b038111838210176105c657604052565b51906001600160a01b03821682036106d457565b5f19811461073f5760010190565b634e487b7160e01b5f52601160045260245ffdfe6080806040526004361015610012575f80fd5b5f3560e01c90816312ac1763146110c25750806313f2dad014611098578063249d39e91461107c578063359060fe14611034578063359e832e14610ead5780633f4ba83a14610e3f578063441a3e7014610c1357806349c03d5114610be95780635c975abb14610bc4578063715018a614610b61578063748747e614610b1e57806379ba509714610a995780638456cb5914610a385780638c64ea4a1461087d5780638da5cb5b1461085657806395e97eee1461082e5780639d2b86f614610806578063aced1661146107de578063d29f541d146106de578063e1e158a5146106c0578063e2bbb15814610266578063e30c39781461023e578063e684d718146101c3578063e6a69ab8146101a55763f2fde38b1461012f575f80fd5b346101a15760203660031901126101a1576101486110f2565b61015061119f565b60018060a01b0316806bffffffffffffffffffffffff60a01b600154161760015560018060a01b035f54167f38d16b8cac22d99fc7c124b9cd0de2d3fa1faef420bfe791d8c362d765e227005f80a3005b5f80fd5b346101a1575f3660031901126101a15760206040516301e133808152f35b346101a15760403660031901126101a1576101dc6110dc565b6004355f52600360205260405f209060018060a01b03165f5260205260c060405f2080549060018101549060028101546003820154906005600484015493015493604051958652602086015260408501526060840152608083015260a0820152f35b346101a1575f3660031901126101a1576001546040516001600160a01b039091168152602090f35b346101a15761027436611108565b61027c611216565b6102846113f8565b815f52600260205260405f2060ff600a8201541615610686576305f5e100821061064d57600260018060a01b03910154166040516323b872dd60e01b5f5233600452306024528260445260205f60648180865af19060015f511482161561062c575b6040525f6060521561061a57506102fc82611274565b815f52600460205260405f2054155f146105e85780915b805f52600360205260405f2060018060a01b0333165f5260205260405f2061033c838254611192565b9055805f52600360205260405f2060018060a01b0333165f52602052600160405f200161036a848254611192565b90555f8181526003602090815260408083203384528252808320426004808301829055600590920155848452909152902080546103a8908590611192565b9055805f52600560205260405f206103c1838254611192565b90555f818152600260205260408120909390600581019085906006810190600401865b84545f1981019081116105d4578410156105835761040761271091845490611172565b049260018060a01b03600654168254813b156101a1575f91604483926040519485938492630ecbcdab60e01b845260048401528a60248401525af19081610573575b506105585750505050907ff989df7b94ee872ce2dd78af6f704dffcb86c255b4b6d986236bea3356e5f4217fad5b4075b97dbf75ad5c78f7afac948e4ae611c4fdf2825e2ce3c6c96925bf3b9561052f935b855f52600360205260405f2060018060a01b0333165f52602052600360405f20016104c7838254611192565b9055545f8681526003602090815260408083203380855290835292819020600201849055805189815291820192909252908101919091526060810191909152608090a16040805193845233602085015283019390935260608201929092529081906080820190565b0390a160017f9b779b17422d0df92223018b32b4d1fa46e071723d6817e2486d003becc55f0055005b9091929761056889600192611192565b9891019291906103e4565b5f61057d9161111e565b8a610449565b50505050907ff989df7b94ee872ce2dd78af6f704dffcb86c255b4b6d986236bea3356e5f4217fad5b4075b97dbf75ad5c78f7afac948e4ae611c4fdf2825e2ce3c6c96925bf3b9561052f9361049b565b634e487b7160e01b5f52601160045260245ffd5b815f52600460205261061461060160405f205483611172565b835f52600560205260405f205490611154565b91610313565b635274afe760e01b5f5260045260245ffd5b90600181151661064457823b15153d151616906102e6565b503d5f823e3d90fd5b60405162461bcd60e51b81526020600482015260116024820152704c593a2062656c6f77206d696e696d756d60781b6044820152606490fd5b60405162461bcd60e51b81526020600482015260126024820152714c593a207661756c7420696e61637469766560701b6044820152606490fd5b346101a1575f3660031901126101a15760206040516305f5e1008152f35b346101a15760403660031901126101a1576004356106fa6110dc565b5f8281526003602090815260408083206001600160a01b0390941683529281528282208483526002825283832060018201546004909352939092205492939092156107d6578061076c915f52600560205261075960405f205485611172565b905f52600460205260405f205490611154565b925b8154918285035f8412868212811690878313901516176105d4576005600360028401549301549301549361019085029480860461019014901517156105d45760e096604051968752602087015260408601526060850152608084015260a083015260c0820152f35b505f9261076e565b346101a1575f3660031901126101a1576008546040516001600160a01b039091168152602090f35b346101a1575f3660031901126101a1576007546040516001600160a01b039091168152602090f35b346101a1575f3660031901126101a1576006546040516001600160a01b039091168152602090f35b346101a1575f3660031901126101a1575f546040516001600160a01b039091168152602090f35b346101a15760203660031901126101a1576004355f52600260205260405f2060ff815416600182016040515f82548060011c9160018216948515610a2e575b602084108614610a1a578385526020850195859381156109fb57506001146109b7575b506108ec9250038261111e565b60018060a01b036002850154169360018060a01b036003820154169060048101546005820154600683015460078401549160088501549360ff600a600988015497015416966040519b60038c10156109a3578c809b6101609b6101809e83528c602084015251809c819301528d8d015e5f8b8b018d015260408b015260608a0152608089015260a088015260c087015260e08601526101008501526101208401521515610140830152601f01601f19168101030190f35b634e487b7160e01b5f52602160045260245ffd5b90505f9291925260205f20905f915b8183106109df5750509060206108ec92820101876108df565b60209193508060019154838588010152019101909183926109c6565b60ff19168752506108ec93151560051b830160200191508890506108df565b634e487b7160e01b5f52602260045260245ffd5b92607f16926108bc565b346101a1575f3660031901126101a157610a5061119f565b610a586113f8565b6001805460ff60a01b1916600160a01b1790556040513381527f62e78cea01bee320cd4e420270b5ea74000d11b0c9f74754ebdbfc544b05a25890602090a1005b346101a1575f3660031901126101a157600154336001600160a01b0390911603610b0b57600180546001600160a01b03199081169091555f805433928116831782556001600160a01b0316907f8be0079c531659141344cd1fd0a4f28419497f9722a3daafe3b4186f6b6457e09080a3005b63118cdaa760e01b5f523360045260245ffd5b346101a15760203660031901126101a157610b376110f2565b610b3f61119f565b600880546001600160a01b0319166001600160a01b0392909216919091179055005b346101a1575f3660031901126101a157610b7961119f565b600180546001600160a01b03199081169091555f80549182168155906001600160a01b03167f8be0079c531659141344cd1fd0a4f28419497f9722a3daafe3b4186f6b6457e08280a3005b346101a1575f3660031901126101a157602060ff60015460a01c166040519015158152f35b346101a15760203660031901126101a1576004355f526005602052602060405f2054604051908152f35b346101a157610c2136611108565b610c29611216565b815f52600360205260405f2060018060a01b0333165f5260205260405f2091805f52600260205260405f20600184019383855410610dfa57610c6a83611274565b612710840284810461271014851517156105d4577f1c84cc0f96161bdafea718a9094dd21c21d1fb2f9ca2ebb9bd4e39918efbaace9561052f93610cbe610da493875f52600460205260405f205490611154565b96865f526005602052612710610cd88960405f2054611172565b0490612710610ce88a8854611172565b0498898981851115610dee57612710610d12610d07610d569488611185565b600989015490611172565b04985b610d4d610d228b88611185565b9d8e99610d42612710610d3a60038701998a54611172565b0480966111b2565b610d4d888254611185565b90558254611185565b9055875f526004602052610d6f60405f20918254611185565b9055865f526005602052610d8860405f20918254611185565b905583610dc9575b6002015433906001600160a01b0316611380565b6040805193845233602085015283019390935260608201929092529081906080820190565b6002810154600754610de99186916001600160a01b039081169116611380565b610d90565b610d5691505f98610d15565b60405162461bcd60e51b815260206004820152601760248201527f4c593a20696e73756666696369656e74207368617265730000000000000000006044820152606490fd5b346101a1575f3660031901126101a157610e5761119f565b60015460ff8160a01c1615610e9e5760ff60a01b19166001556040513381527f5db9ee0a495bf2e6ff9c91a7834c1ba4fdd244a5e8aa4e537bd38aeae4b073aa90602090a1005b638dfc202b60e01b5f5260045ffd5b346101a15760403660031901126101a157600435610ec96110dc565b6008546001600160a01b031633148015611021575b15610fe457816024925f52600260205260405f20602060018060a01b036006541660405195868092633f9af35f60e21b82523060048301525afa938415610fd9575f94610fa4575b50600701548310610f3357005b7f0bec3ca3f1a5691ebbab3d4e95b68c2b339f9d12ca46c33ef72e4883d8baa04d92606092825f52600360205260405f2060018060a01b0382165f52602052610f86600360405f20015460011c846111b2565b604080519384526001600160a01b03919091166020840152820152a1005b9093506020813d602011610fd1575b81610fc06020938361111e565b810103126101a15751926007610f26565b3d9150610fb3565b6040513d5f823e3d90fd5b60405162461bcd60e51b81526020600482015260156024820152744c593a206e6f74206b6565706572756e69636f646560581b6044820152606490fd5b505f546001600160a01b03163314610ede565b346101a15760403660031901126101a1576024358015158091036101a15761105a61119f565b6004355f526002602052600a60405f20019060ff801983541691161790555f80f35b346101a1575f3660031901126101a15760206040516127108152f35b346101a15760203660031901126101a1576004355f526004602052602060405f2054604051908152f35b346101a1575f3660031901126101a1576020906009548152f35b602435906001600160a01b03821682036101a157565b600435906001600160a01b03821682036101a157565b60409060031901126101a1576004359060243590565b90601f8019910116810190811067ffffffffffffffff82111761114057604052565b634e487b7160e01b5f52604160045260245ffd5b811561115e570490565b634e487b7160e01b5f52601260045260245ffd5b818102929181159184041417156105d457565b919082039182116105d457565b919082018092116105d457565b5f546001600160a01b03163303610b0b57565b5f52600260205260405f2090801561121257600460018060a01b036006541692015490823b156101a15760445f9283604051958694859363d8aed14560e01b8552600485015260248401525af16112065750565b5f6112109161111e565b565b5050565b60027f9b779b17422d0df92223018b32b4d1fa46e071723d6817e2486d003becc55f0054146112655760027f9b779b17422d0df92223018b32b4d1fa46e071723d6817e2486d003becc55f0055565b633ee5aeb560e01b5f5260045ffd5b805f52600260205260405f20815f52600560205260405f20541561121257815f52600360205260405f205f8052602052600560405f200154155f14611353575f1942014281116105d4576127106112f46112d46301e13380935b42611185565b855f5260056020526112ef60405f2054600887015490611172565b611172565b0404908115158061133e575b61130957505050565b611210925f52600560205260405f20611323838254611185565b9055600201546007546001600160a01b039081169116611380565b50825f52600560205260405f20548210611300565b815f52600360205260405f205f80526020526301e133806127106112f46112d4600560405f2001546112ce565b916040519163a9059cbb60e01b5f5260018060a01b031660045260245260205f60448180865af19060015f51148216156113e0575b604052156113c05750565b635274afe760e01b5f9081526001600160a01b0391909116600452602490fd5b90600181151661064457823b15153d151616906113b5565b60ff60015460a01c1661140757565b63d93c066560e01b5f5260045ffdfea26469706673582212202232752515632efcd4c88b986c44040dae6f4f52949ce632161cc4a1867db74964736f6c634300081a0033",
  "linkReferences": {},
  "deployedLinkReferences": {}
}