{
  "_format": "hh-sol-artifact-1",
  "contractName": "WikiOracle",
  "sourceName": "src/WikiOracle.sol",
  "abi": [
    {
      "inputs": [
        {
          "internalType": "address",
          "name": "owner",
          "type": "address"
        },
        {
          "internalType": "address",
          "name": "_seqFeed",
          "type": "address"
        },
        {
          "internalType": "address",
          "name": "_pyth",
          "type": "address"
        }
      ],
      "stateMutability": "nonpayable",
      "type": "constructor"
    },
    {
      "inputs": [],
      "name": "EnforcedPause",
      "type": "error"
    },
    {
      "inputs": [],
      "name": "ExpectedPause",
      "type": "error"
    },
    {
      "inputs": [
        {
          "internalType": "address",
          "name": "owner",
          "type": "address"
        }
      ],
      "name": "OwnableInvalidOwner",
      "type": "error"
    },
    {
      "inputs": [
        {
          "internalType": "address",
          "name": "account",
          "type": "address"
        }
      ],
      "name": "OwnableUnauthorizedAccount",
      "type": "error"
    },
    {
      "anonymous": false,
      "inputs": [
        {
          "indexed": true,
          "internalType": "bytes32",
          "name": "id",
          "type": "bytes32"
        },
        {
          "indexed": false,
          "internalType": "address",
          "name": "feed",
          "type": "address"
        }
      ],
      "name": "ChainlinkFeedSet",
      "type": "event"
    },
    {
      "anonymous": false,
      "inputs": [
        {
          "indexed": true,
          "internalType": "bytes32",
          "name": "id",
          "type": "bytes32"
        },
        {
          "indexed": false,
          "internalType": "uint256",
          "name": "price",
          "type": "uint256"
        },
        {
          "indexed": false,
          "internalType": "address",
          "name": "by",
          "type": "address"
        }
      ],
      "name": "GuardianPriceSet",
      "type": "event"
    },
    {
      "anonymous": false,
      "inputs": [
        {
          "indexed": true,
          "internalType": "address",
          "name": "g",
          "type": "address"
        },
        {
          "indexed": false,
          "internalType": "bool",
          "name": "active",
          "type": "bool"
        }
      ],
      "name": "GuardianUpdated",
      "type": "event"
    },
    {
      "anonymous": false,
      "inputs": [
        {
          "indexed": true,
          "internalType": "bytes32",
          "name": "id",
          "type": "bytes32"
        },
        {
          "indexed": false,
          "internalType": "bool",
          "name": "paused",
          "type": "bool"
        }
      ],
      "name": "MarketPausedSet",
      "type": "event"
    },
    {
      "anonymous": false,
      "inputs": [
        {
          "indexed": true,
          "internalType": "address",
          "name": "previousOwner",
          "type": "address"
        },
        {
          "indexed": true,
          "internalType": "address",
          "name": "newOwner",
          "type": "address"
        }
      ],
      "name": "OwnershipTransferStarted",
      "type": "event"
    },
    {
      "anonymous": false,
      "inputs": [
        {
          "indexed": true,
          "internalType": "address",
          "name": "previousOwner",
          "type": "address"
        },
        {
          "indexed": true,
          "internalType": "address",
          "name": "newOwner",
          "type": "address"
        }
      ],
      "name": "OwnershipTransferred",
      "type": "event"
    },
    {
      "anonymous": false,
      "inputs": [
        {
          "indexed": false,
          "internalType": "address",
          "name": "account",
          "type": "address"
        }
      ],
      "name": "Paused",
      "type": "event"
    },
    {
      "anonymous": false,
      "inputs": [
        {
          "indexed": true,
          "internalType": "bytes32",
          "name": "id",
          "type": "bytes32"
        },
        {
          "indexed": false,
          "internalType": "bytes32",
          "name": "pythId",
          "type": "bytes32"
        }
      ],
      "name": "PythFeedSet",
      "type": "event"
    },
    {
      "anonymous": false,
      "inputs": [
        {
          "indexed": false,
          "internalType": "address",
          "name": "account",
          "type": "address"
        }
      ],
      "name": "Unpaused",
      "type": "event"
    },
    {
      "inputs": [],
      "name": "BPS",
      "outputs": [
        {
          "internalType": "uint256",
          "name": "",
          "type": "uint256"
        }
      ],
      "stateMutability": "view",
      "type": "function"
    },
    {
      "inputs": [],
      "name": "GUARDIAN_TTL",
      "outputs": [
        {
          "internalType": "uint256",
          "name": "",
          "type": "uint256"
        }
      ],
      "stateMutability": "view",
      "type": "function"
    },
    {
      "inputs": [],
      "name": "MAX_DEVIATION_BPS",
      "outputs": [
        {
          "internalType": "uint256",
          "name": "",
          "type": "uint256"
        }
      ],
      "stateMutability": "view",
      "type": "function"
    },
    {
      "inputs": [],
      "name": "MAX_PYTH_AGE",
      "outputs": [
        {
          "internalType": "uint256",
          "name": "",
          "type": "uint256"
        }
      ],
      "stateMutability": "view",
      "type": "function"
    },
    {
      "inputs": [],
      "name": "MAX_PYTH_CONF_BPS",
      "outputs": [
        {
          "internalType": "uint256",
          "name": "",
          "type": "uint256"
        }
      ],
      "stateMutability": "view",
      "type": "function"
    },
    {
      "inputs": [],
      "name": "PRECISION",
      "outputs": [
        {
          "internalType": "uint256",
          "name": "",
          "type": "uint256"
        }
      ],
      "stateMutability": "view",
      "type": "function"
    },
    {
      "inputs": [],
      "name": "SEQ_GRACE_PERIOD",
      "outputs": [
        {
          "internalType": "uint256",
          "name": "",
          "type": "uint256"
        }
      ],
      "stateMutability": "view",
      "type": "function"
    },
    {
      "inputs": [],
      "name": "TWAP_WINDOW",
      "outputs": [
        {
          "internalType": "uint256",
          "name": "",
          "type": "uint256"
        }
      ],
      "stateMutability": "view",
      "type": "function"
    },
    {
      "inputs": [],
      "name": "acceptOwnership",
      "outputs": [],
      "stateMutability": "nonpayable",
      "type": "function"
    },
    {
      "inputs": [
        {
          "internalType": "bytes32[]",
          "name": "ids",
          "type": "bytes32[]"
        },
        {
          "internalType": "bytes32[]",
          "name": "pythIds",
          "type": "bytes32[]"
        }
      ],
      "name": "batchSetPythFeeds",
      "outputs": [],
      "stateMutability": "nonpayable",
      "type": "function"
    },
    {
      "inputs": [
        {
          "internalType": "bytes32",
          "name": "",
          "type": "bytes32"
        }
      ],
      "name": "chainlinkFeeds",
      "outputs": [
        {
          "internalType": "contract AggregatorV3Interface",
          "name": "feed",
          "type": "address"
        },
        {
          "internalType": "uint32",
          "name": "heartbeat",
          "type": "uint32"
        },
        {
          "internalType": "uint8",
          "name": "decimals",
          "type": "uint8"
        },
        {
          "internalType": "uint256",
          "name": "minPrice",
          "type": "uint256"
        },
        {
          "internalType": "uint256",
          "name": "maxPrice",
          "type": "uint256"
        },
        {
          "internalType": "bool",
          "name": "active",
          "type": "bool"
        }
      ],
      "stateMutability": "view",
      "type": "function"
    },
    {
      "inputs": [
        {
          "internalType": "bytes32",
          "name": "id",
          "type": "bytes32"
        }
      ],
      "name": "getPrice",
      "outputs": [
        {
          "internalType": "uint256",
          "name": "price",
          "type": "uint256"
        },
        {
          "internalType": "uint256",
          "name": "updatedAt",
          "type": "uint256"
        }
      ],
      "stateMutability": "view",
      "type": "function"
    },
    {
      "inputs": [
        {
          "internalType": "string",
          "name": "symbol",
          "type": "string"
        }
      ],
      "name": "getPriceBySymbol",
      "outputs": [
        {
          "internalType": "uint256",
          "name": "",
          "type": "uint256"
        },
        {
          "internalType": "uint256",
          "name": "",
          "type": "uint256"
        }
      ],
      "stateMutability": "view",
      "type": "function"
    },
    {
      "inputs": [
        {
          "internalType": "bytes32",
          "name": "",
          "type": "bytes32"
        }
      ],
      "name": "guardianPrices",
      "outputs": [
        {
          "internalType": "uint256",
          "name": "price",
          "type": "uint256"
        },
        {
          "internalType": "uint256",
          "name": "submittedAt",
          "type": "uint256"
        }
      ],
      "stateMutability": "view",
      "type": "function"
    },
    {
      "inputs": [
        {
          "internalType": "address",
          "name": "",
          "type": "address"
        }
      ],
      "name": "guardians",
      "outputs": [
        {
          "internalType": "bool",
          "name": "",
          "type": "bool"
        }
      ],
      "stateMutability": "view",
      "type": "function"
    },
    {
      "inputs": [
        {
          "internalType": "bytes32",
          "name": "",
          "type": "bytes32"
        }
      ],
      "name": "marketPaused",
      "outputs": [
        {
          "internalType": "bool",
          "name": "",
          "type": "bool"
        }
      ],
      "stateMutability": "view",
      "type": "function"
    },
    {
      "inputs": [],
      "name": "owner",
      "outputs": [
        {
          "internalType": "address",
          "name": "",
          "type": "address"
        }
      ],
      "stateMutability": "view",
      "type": "function"
    },
    {
      "inputs": [],
      "name": "pause",
      "outputs": [],
      "stateMutability": "nonpayable",
      "type": "function"
    },
    {
      "inputs": [],
      "name": "paused",
      "outputs": [
        {
          "internalType": "bool",
          "name": "",
          "type": "bool"
        }
      ],
      "stateMutability": "view",
      "type": "function"
    },
    {
      "inputs": [],
      "name": "pendingOwner",
      "outputs": [
        {
          "internalType": "address",
          "name": "",
          "type": "address"
        }
      ],
      "stateMutability": "view",
      "type": "function"
    },
    {
      "inputs": [
        {
          "internalType": "bytes[]",
          "name": "updateData",
          "type": "bytes[]"
        }
      ],
      "name": "pushPythUpdates",
      "outputs": [],
      "stateMutability": "payable",
      "type": "function"
    },
    {
      "inputs": [
        {
          "internalType": "bytes[]",
          "name": "updateData",
          "type": "bytes[]"
        },
        {
          "internalType": "bytes32[]",
          "name": "priceIds",
          "type": "bytes32[]"
        },
        {
          "internalType": "uint64[]",
          "name": "publishTimes",
          "type": "uint64[]"
        }
      ],
      "name": "pushPythUpdatesIfStale",
      "outputs": [],
      "stateMutability": "payable",
      "type": "function"
    },
    {
      "inputs": [],
      "name": "pyth",
      "outputs": [
        {
          "internalType": "contract IPyth",
          "name": "",
          "type": "address"
        }
      ],
      "stateMutability": "view",
      "type": "function"
    },
    {
      "inputs": [
        {
          "internalType": "bytes32",
          "name": "",
          "type": "bytes32"
        }
      ],
      "name": "pythFeeds",
      "outputs": [
        {
          "internalType": "bytes32",
          "name": "id",
          "type": "bytes32"
        },
        {
          "internalType": "bool",
          "name": "active",
          "type": "bool"
        }
      ],
      "stateMutability": "view",
      "type": "function"
    },
    {
      "inputs": [],
      "name": "renounceOwnership",
      "outputs": [],
      "stateMutability": "nonpayable",
      "type": "function"
    },
    {
      "inputs": [],
      "name": "sequencerFeed",
      "outputs": [
        {
          "internalType": "contract ISequencerUptimeFeed",
          "name": "",
          "type": "address"
        }
      ],
      "stateMutability": "view",
      "type": "function"
    },
    {
      "inputs": [
        {
          "internalType": "bytes32",
          "name": "id",
          "type": "bytes32"
        },
        {
          "internalType": "address",
          "name": "feed",
          "type": "address"
        },
        {
          "internalType": "uint32",
          "name": "heartbeat",
          "type": "uint32"
        },
        {
          "internalType": "uint8",
          "name": "decimals",
          "type": "uint8"
        },
        {
          "internalType": "uint256",
          "name": "minPrice",
          "type": "uint256"
        },
        {
          "internalType": "uint256",
          "name": "maxPrice",
          "type": "uint256"
        }
      ],
      "name": "setChainlinkFeed",
      "outputs": [],
      "stateMutability": "nonpayable",
      "type": "function"
    },
    {
      "inputs": [
        {
          "internalType": "address",
          "name": "g",
          "type": "address"
        },
        {
          "internalType": "bool",
          "name": "active",
          "type": "bool"
        }
      ],
      "name": "setGuardian",
      "outputs": [],
      "stateMutability": "nonpayable",
      "type": "function"
    },
    {
      "inputs": [
        {
          "internalType": "bytes32",
          "name": "id",
          "type": "bytes32"
        },
        {
          "internalType": "bool",
          "name": "paused",
          "type": "bool"
        }
      ],
      "name": "setMarketPaused",
      "outputs": [],
      "stateMutability": "nonpayable",
      "type": "function"
    },
    {
      "inputs": [
        {
          "internalType": "bytes32",
          "name": "id",
          "type": "bytes32"
        },
        {
          "internalType": "bytes32",
          "name": "pythId",
          "type": "bytes32"
        }
      ],
      "name": "setPythFeed",
      "outputs": [],
      "stateMutability": "nonpayable",
      "type": "function"
    },
    {
      "inputs": [
        {
          "internalType": "bytes32",
          "name": "id",
          "type": "bytes32"
        },
        {
          "internalType": "uint256",
          "name": "price",
          "type": "uint256"
        }
      ],
      "name": "submitGuardianPrice",
      "outputs": [],
      "stateMutability": "nonpayable",
      "type": "function"
    },
    {
      "inputs": [
        {
          "internalType": "address",
          "name": "newOwner",
          "type": "address"
        }
      ],
      "name": "transferOwnership",
      "outputs": [],
      "stateMutability": "nonpayable",
      "type": "function"
    },
    {
      "inputs": [],
      "name": "unpause",
      "outputs": [],
      "stateMutability": "nonpayable",
      "type": "function"
    },
    {
      "stateMutability": "payable",
      "type": "receive"
    }
  ],
  "bytecode": "0x60c0346101c757601f611e7538819003918201601f19168301916001600160401b038311848410176101cb578084926060946040528339810103126101c757610047816101df565b61005f6040610058602085016101df565b93016101df565b6001600160a01b039091169182156101b457600180546001600160a01b03199081169091555f80549182168517815584916001600160a01b0316907f8be0079c531659141344cd1fd0a4f28419497f9722a3daafe3b4186f6b6457e09080a36001600160a01b031690811561016f576001600160a01b03169081156101375760a0526080525f52600860205260405f20600160ff19825416179055604051611c8190816101f482396080518181816101a4015281816108b801528181610b67015261198e015260a05181818161105701526112ae0152f35b60405162461bcd60e51b815260206004820152601060248201526f0aed2d6d27440f4cae4de40bee0f2e8d60831b6044820152606490fd5b60405162461bcd60e51b815260206004820152601360248201527f57696b693a207a65726f205f73657146656564000000000000000000000000006044820152606490fd5b631e4fbdf760e01b5f525f60045260245ffd5b5f80fd5b634e487b7160e01b5f52604160045260245ffd5b51906001600160a01b03821682036101c75756fe608080604052600436101561001c575b50361561001a575f80fd5b005b5f905f3560e01c9081630633b14a14611188575080631e8826661461116d578063249d39e91461115157806325c68403146111355780632b8a1c5a146110b857806331d98b3f146110865780633b521cb6146110425780633f4ba83a14610fd45780634f47780a14610e8f5780635c975abb14610e6a57806361a6404014610df7578063715018a614610d9457806379ba509714610d0f5780638456cb5914610cae57806385afc16d14610c7b57806386f5820f14610c435780638870982e14610b1f5780638da5cb5b14610af857806393f5ce47146106c2578063a263210e14610a76578063aaf5eb6814610a53578063abc7aa3f14610a24578063b88006a914610831578063bdc11ac5146106c7578063c5625461146106c2578063c9d1219e1461064e578063dbb0ae1814610632578063e2c1d1d114610615578063e30c3978146105ec578063ef57e2d114610348578063f2fde38b146102db578063f86f3593146101d65763f98d06f00361000f57346101d357806003193601126101d3576040517f00000000000000000000000000000000000000000000000000000000000000006001600160a01b03168152602090f35b80fd5b50346101d35760203660031901126101d3576004356001600160401b0381116102c057366023820112156102c05780600401356001600160401b0381116102d75736602482840101116102d75761024d6020604051838194602484840197018737810186838201520301601f1981018352826116d2565b519020604051906331d98b3f60e01b82526004820152604081602481305afa80156102cc578291839161028b575b6040838382519182526020820152f35b9150506040813d6040116102c4575b816102a7604093836116d2565b810103126102c05760409150602081519101515f61027b565b5080fd5b3d915061029a565b6040513d84823e3d90fd5b8280fd5b50346101d35760203660031901126101d3576102f56111c1565b6102fd61178a565b600180546001600160a01b0319166001600160a01b0392831690811790915582549091167f38d16b8cac22d99fc7c124b9cd0de2d3fa1faef420bfe791d8c362d765e227008380a380f35b50346101d35760403660031901126101d357600435602435338352600860205260ff604084205416156105b05780156105765761038482611b8a565b806104cf575b506103c060405161039a816116a3565b828152426020820152838552600460205260408520906020600191805184550151910155565b818352600660205260ff6040842054166040516103dc816116a3565b82815242602082015283855260056020526103fa8260408720611b66565b6104bb57815181556020909101516001918201550160ff81116104a7577f54810cefb40729bb6fa90adac01bc8a79757c5e8d38f74192706789a2e62cc8a91604091848652600660205260ff600a818589209316061660ff198254161790558385526007602052600a60ff83872054161061047f575b8151908152336020820152a280f35b838552600760205281852060ff61049881835416611b79565b1660ff19825416179055610470565b634e487b7160e01b84526011600452602484fd5b634e487b7160e01b86526004869052602486fd5b80821115610567576104e18183611232565b6127108102908082046127101490151715610553576101f49161050391611266565b1161050e575f61038a565b60405162461bcd60e51b815260206004820152601a60248201527f4f7261636c653a20677561726469616e20646576696174696f6e0000000000006044820152606490fd5b634e487b7160e01b85526011600452602485fd5b6105718282611232565b6104e1565b60405162461bcd60e51b81526020600482015260126024820152714f7261636c653a207a65726f20707269636560701b6044820152606490fd5b60405162461bcd60e51b815260206004820152601460248201527327b930b1b6329d103737ba1033bab0b93234b0b760611b6044820152606490fd5b50346101d357806003193601126101d3576001546040516001600160a01b039091168152602090f35b50346101d357806003193601126101d357602060405161012c8152f35b50346101d357806003193601126101d357602060405160788152f35b50346101d35760403660031901126101d3576004357f381718e1eceffe4d1d10f682c9a32584b00d0d44792d386b7dc696ccba48e60b602061068e6111d7565b61069661178a565b838552600982526106b681604087209060ff801983541691151516179055565b6040519015158152a280f35b611216565b50346101d35760c03660031901126101d3576004356024356001600160a01b038116908190036102d75760443563ffffffff811680910361082d576064359060ff82168092036108295761071961178a565b6040519160c083018381106001600160401b03821117610815579260037fe4aaba68ac730637fec80feec4ab17638cd34ba39f9c879ca8bb436b2c5fc444959361080b9360209660405285845286840191825260408401908152606084016084358152608085019160a435835260a0860193600185528b8d5260028a5260408d209660018060a01b039051166bffffffffffffffffffffffff60a01b885416178755519086549060ff60c01b905160c01b169163ffffffff60a01b9060a01b169064ffffffffff60a01b19161717855551600185015551600284015551151591019060ff801983541691151516179055565b604051908152a280f35b634e487b7160e01b87526041600452602487fd5b8480fd5b8380fd5b5060603660031901126101d3576004356001600160401b0381116102c05761085d9036906004016111e6565b6024929192356001600160401b0381116102d75761087f9036906004016111e6565b93906044356001600160401b038111610829576108a09036906004016111e6565b60405163d47eed4560e01b81526020600482018190527f00000000000000000000000000000000000000000000000000000000000000006001600160a01b0316989195939492939086806108f8602482018b866116f3565b03818c5afa958615610a195788966109e1575b50883b156109dd57604051631724ada560e31b81526060600482015296610937916064890191906116f3565b868103600319016024880152818152906001600160fb1b0381116109dd57906040929160051b809260208301370182602082016003196020898503010160448901525201919085905b8082106109b457505050839483859381809403925af180156102cc576109a35750f35b816109ad916116d2565b6101d35780f35b90919283356001600160401b0381168091036109dd578152602090810193019160010190610980565b8780fd5b9095506020813d602011610a11575b816109fd602093836116d2565b81010312610a0d5751945f61090b565b5f80fd5b3d91506109f0565b6040513d8a823e3d90fd5b50346101d35760203660031901126101d35760ff60406020926004358152600984522054166040519015158152f35b50346101d357806003193601126101d3576020604051670de0b6b3a76400008152f35b50346101d35760403660031901126101d3576004357f2d47874a909fa48fdef26ac0b05f0ed24b5b9322c1b978f5f3d947ea0e6f7c536020602435610ab961178a565b61080b604051610ac8816116a3565b828152600184820181815287895260038652604089209251835551151591019060ff801983541691151516179055565b50346101d357806003193601126101d357546040516001600160a01b039091168152602090f35b506020366003190112610a0d576004356001600160401b038111610a0d57610b4b9036906004016111e6565b60405163d47eed4560e01b8152602060048201819052919290917f00000000000000000000000000000000000000000000000000000000000000006001600160a01b0316908380610ba06024820188876116f3565b0381845afa928315610c04575f93610c0f575b50803b15610a0d57604051631df3cbc560e31b815260206004820152935f93859384928391610be69160248401916116f3565b03925af18015610c0457610bf8575080f35b61001a91505f906116d2565b6040513d5f823e3d90fd5b9092506020813d602011610c3b575b81610c2b602093836116d2565b81010312610a0d5751915f610bb3565b3d9150610c1e565b34610a0d576020366003190112610a0d576004355f5260036020526040805f2060ff6001825492015416825191825215156020820152f35b34610a0d576020366003190112610a0d576004355f5260046020526040805f206001815491015482519182526020820152f35b34610a0d575f366003190112610a0d57610cc661178a565b610cce61179d565b6001805460ff60a01b1916600160a01b1790556040513381527f62e78cea01bee320cd4e420270b5ea74000d11b0c9f74754ebdbfc544b05a25890602090a1005b34610a0d575f366003190112610a0d57600154336001600160a01b0390911603610d8157600180546001600160a01b03199081169091555f805433928116831782556001600160a01b0316907f8be0079c531659141344cd1fd0a4f28419497f9722a3daafe3b4186f6b6457e09080a3005b63118cdaa760e01b5f523360045260245ffd5b34610a0d575f366003190112610a0d57610dac61178a565b600180546001600160a01b03199081169091555f80549182168155906001600160a01b03167f8be0079c531659141344cd1fd0a4f28419497f9722a3daafe3b4186f6b6457e08280a3005b34610a0d576020366003190112610a0d576004355f52600260205260c060405f2080549060018101549060ff60036002830154920154169160ff6040519460018060a01b038116865263ffffffff8160a01c166020870152861c16604085015260608401526080830152151560a0820152f35b34610a0d575f366003190112610a0d57602060ff60015460a01c166040519015158152f35b34610a0d576040366003190112610a0d576004356001600160401b038111610a0d57610ebf9036906004016111e6565b906024356001600160401b038111610a0d57610edf9036906004016111e6565b91610ee861178a565b828403610f9c575f5b848110610efa57005b80610f54610f0b600193878761167f565b3560405190610f19826116a3565b81528360208201818152610f2e858b8961167f565b355f52600360205260405f209251835551151591019060ff801983541691151516179055565b610f5f81878561167f565b357f2d47874a909fa48fdef26ac0b05f0ed24b5b9322c1b978f5f3d947ea0e6f7c536020610f8e84898961167f565b35604051908152a201610ef1565b60405162461bcd60e51b815260206004820152601060248201526f09ee4c2c6d8ca7440dad2e6dac2e8c6d60831b6044820152606490fd5b34610a0d575f366003190112610a0d57610fec61178a565b60015460ff8160a01c16156110335760ff60a01b19166001556040513381527f5db9ee0a495bf2e6ff9c91a7834c1ba4fdd244a5e8aa4e537bd38aeae4b073aa90602090a1005b638dfc202b60e01b5f5260045ffd5b34610a0d575f366003190112610a0d576040517f00000000000000000000000000000000000000000000000000000000000000006001600160a01b03168152602090f35b34610a0d576020366003190112610a0d5761109f61179d565b60406110ac600435611284565b82519182526020820152f35b34610a0d576040366003190112610a0d576110d16111c1565b7f6fff6b51fc7f6641dd270e7981bc5cfcdf76fef18faa559aef714e9934c3874360206110fc6111d7565b9261110561178a565b6001600160a01b03165f8181526008835260409020805460ff191660ff86151516179055926040519015158152a2005b34610a0d575f366003190112610a0d5760206040516101f48152f35b34610a0d575f366003190112610a0d5760206040516127108152f35b34610a0d575f366003190112610a0d57602060405160c88152f35b34610a0d576020366003190112610a0d576020906001600160a01b036111ac6111c1565b165f526008825260ff60405f20541615158152f35b600435906001600160a01b0382168203610a0d57565b602435908115158203610a0d57565b9181601f84011215610a0d578235916001600160401b038311610a0d576020808501948460051b010111610a0d57565b34610a0d575f366003190112610a0d576020604051610e108152f35b9190820391821161123f57565b634e487b7160e01b5f52601160045260245ffd5b8181029291811591840414171561123f57565b8115611270570490565b634e487b7160e01b5f52601260045260245ffd5b90815f52600960205260ff60405f20541661164257604051633fabe5a360e21b815260a0816004817f00000000000000000000000000000000000000000000000000000000000000006001600160a01b03165afa908115610c04575f905f9261160d575b506115cf576112fa610e109142611232565b10611593575f805f905f92855f52600260205260405f2060ff60038201541680611580575b61156d575b50855f52600360205260405f2060ff60018201541680611563575b61154b575b508015158080611542575b6114ab576114a35750508061149e575050815f52600460205260405f208054908115611466576001015492610e106113878542611232565b116114285761139590611b8a565b8061139f57509190565b80821115611419576113b18183611232565b612710810290808204612710149015171561123f576101f4916113d391611266565b116113dc579190565b60405162461bcd60e51b815260206004820152601560248201527404f7261636c653a20677561726469616e205457415605c1b6044820152606490fd5b6114238282611232565b6113b1565b60405162461bcd60e51b81526020600482015260166024820152754f7261636c653a20677561726469616e207374616c6560501b6044820152606490fd5b60405162461bcd60e51b815260206004820152601060248201526f4f7261636c653a206e6f20707269636560801b6044820152606490fd5b925090565b945092915050565b5092509350818181115f1461153457906114c491611232565b612710810290808204612710149015171561123f576114e6826103e892611266565b116114ef579190565b60405162461bcd60e51b815260206004820152601860248201527f4f7261636c653a20434c2f50797468206d69736d6174636800000000000000006044820152606490fd5b61153d91611232565b6114c4565b5083151561134f565b90925061155a91935054611971565b9290915f611344565b508054151561133f565b90506115799150611818565b905f611324565b5080546001600160a01b0316151561131f565b60405162461bcd60e51b815260206004820152601460248201527313dc9858db194e8819dc9858d9481c195c9a5bd960621b6044820152606490fd5b60405162461bcd60e51b815260206004820152601660248201527527b930b1b6329d1039b2b8bab2b731b2b9103237bbb760511b6044820152606490fd5b9050611631915060a03d60a01161163b575b61162981836116d2565b8101906117d2565b505091505f6112e8565b503d61161f565b60405162461bcd60e51b815260206004820152601560248201527413dc9858db194e881b585c9ad95d081c185d5cd959605a1b6044820152606490fd5b919081101561168f5760051b0190565b634e487b7160e01b5f52603260045260245ffd5b604081019081106001600160401b038211176116be57604052565b634e487b7160e01b5f52604160045260245ffd5b90601f801991011681019081106001600160401b038211176116be57604052565b90602083828152019060208160051b85010193835f915b83831061171a5750505050505090565b909192939495601f198282030186528635601e1984360301811215610a0d57830190602082359201916001600160401b038111610a0d578036038313610a0d576020828280600196849695859652848401375f828201840152601f01601f1916010198019601949301919061170a565b5f546001600160a01b03163303610d8157565b60ff60015460a01c166117ac57565b63d93c066560e01b5f5260045ffd5b519069ffffffffffffffffffff82168203610a0d57565b908160a0910312610a0d576117e6816117bb565b916020820151916040810151916118046080606084015193016117bb565b90565b60ff16604d811161123f57600a0a90565b8054604051633fabe5a360e21b815292919060a0846004816001600160a01b0385165afa905f915f92815f975f9361192d575b5061185d57505050505090505f905f90565b5f8413156119205761186f8742611232565b63ffffffff8460a01c16106119205769ffffffffffffffffffff8091169116106119155760c01c60ff1660128110156118f0576012039060ff821161123f576118ba6118c092611807565b90611253565b905b600181015482109081156118e2575b506118da579190565b505f91508190565b60029150015481115f6118d1565b601119019060ff821161123f5761190961190f92611807565b90611266565b906118c2565b50505090505f905f90565b505050505090505f905f90565b925093505061194c91955060a03d60a01161163b5761162981836116d2565b97939094929150909396915f61184b565b63ffffffff16604d811161123f57600a0a90565b6040516396834ad360e01b815260048101919091526080816024817f00000000000000000000000000000000000000000000000000000000000000006001600160a01b03165afa5f9181611acf575b506119cc57505f905f90565b905f825160070b1315611ac857606082019160786119eb845142611232565b116118da576001600160401b038151169081151580611a92575b611a885760400151600381900b5f8112611a325750906118ba611a2d9263ffffffff1661195d565b915190565b9050637fffffff19811461123f575f0363ffffffff166012811015611a6c576012039063ffffffff821161123f576118ba611a2d9261195d565b601119019063ffffffff821161123f57611909611a2d9261195d565b505090505f905f90565b506001600160401b03602082015116612710810290808204612710149015171561123f57611ac28360c892611266565b11611a05565b5f91508190565b9091506080813d608011611b5e575b81611aeb608093836116d2565b81010312610a0d5760405190608082018281106001600160401b038211176116be5760405280518060070b8103610a0d57825260208101516001600160401b0381168103610a0d5760208301526040810151908160030b8203610a0d57606091604084015201516060820152905f6119c0565b3d9150611ade565b90600a81101561168f5760011b01905f90565b60ff1660ff811461123f5760010190565b805f52600760205260ff60405f205416908115611c45575f9161012b19420142811161123f575f925f5b8360ff821610611bdc575050505060ff1680155f14611bd35750505f90565b61180491611266565b815f526005602052611bf18160405f20611b66565b50836020604051611c01816116a3565b6001845494858352015491829101521015611c23575b5060010160ff16611bb4565b869195960180911161123f576001611c3d60ff9297611b79565b959150611c17565b50505f9056fea26469706673582212202251d9c332d84f56970617187fa7524b052e973bba0c0700a81fdb9342da5abe64736f6c634300081a0033",
  "linkReferences": {},
  "deployedLinkReferences": {}
}