{
  "_format": "hh-sol-artifact-1",
  "contractName": "WikiOracle",
  "sourceName": "src/WikiOracle.sol",
  "abi": [
    {
      "inputs": [
        {
          "internalType": "address",
          "name": "owner",
          "type": "address"
        },
        {
          "internalType": "address",
          "name": "_seqFeed",
          "type": "address"
        },
        {
          "internalType": "address",
          "name": "_pyth",
          "type": "address"
        }
      ],
      "stateMutability": "nonpayable",
      "type": "constructor"
    },
    {
      "inputs": [],
      "name": "EnforcedPause",
      "type": "error"
    },
    {
      "inputs": [],
      "name": "ExpectedPause",
      "type": "error"
    },
    {
      "inputs": [
        {
          "internalType": "address",
          "name": "owner",
          "type": "address"
        }
      ],
      "name": "OwnableInvalidOwner",
      "type": "error"
    },
    {
      "inputs": [
        {
          "internalType": "address",
          "name": "account",
          "type": "address"
        }
      ],
      "name": "OwnableUnauthorizedAccount",
      "type": "error"
    },
    {
      "anonymous": false,
      "inputs": [
        {
          "indexed": true,
          "internalType": "bytes32",
          "name": "id",
          "type": "bytes32"
        },
        {
          "indexed": false,
          "internalType": "address",
          "name": "feed",
          "type": "address"
        }
      ],
      "name": "ChainlinkFeedSet",
      "type": "event"
    },
    {
      "anonymous": false,
      "inputs": [
        {
          "indexed": true,
          "internalType": "bytes32",
          "name": "id",
          "type": "bytes32"
        },
        {
          "indexed": false,
          "internalType": "address",
          "name": "feed",
          "type": "address"
        }
      ],
      "name": "FeedConfigured",
      "type": "event"
    },
    {
      "anonymous": false,
      "inputs": [
        {
          "indexed": true,
          "internalType": "bytes32",
          "name": "id",
          "type": "bytes32"
        },
        {
          "indexed": false,
          "internalType": "uint256",
          "name": "price",
          "type": "uint256"
        },
        {
          "indexed": false,
          "internalType": "address",
          "name": "by",
          "type": "address"
        }
      ],
      "name": "GuardianPriceSet",
      "type": "event"
    },
    {
      "anonymous": false,
      "inputs": [
        {
          "indexed": true,
          "internalType": "address",
          "name": "g",
          "type": "address"
        },
        {
          "indexed": false,
          "internalType": "bool",
          "name": "active",
          "type": "bool"
        }
      ],
      "name": "GuardianUpdated",
      "type": "event"
    },
    {
      "anonymous": false,
      "inputs": [
        {
          "indexed": true,
          "internalType": "bytes32",
          "name": "id",
          "type": "bytes32"
        },
        {
          "indexed": false,
          "internalType": "bool",
          "name": "paused",
          "type": "bool"
        }
      ],
      "name": "MarketPausedSet",
      "type": "event"
    },
    {
      "anonymous": false,
      "inputs": [
        {
          "indexed": true,
          "internalType": "address",
          "name": "previousOwner",
          "type": "address"
        },
        {
          "indexed": true,
          "internalType": "address",
          "name": "newOwner",
          "type": "address"
        }
      ],
      "name": "OwnershipTransferStarted",
      "type": "event"
    },
    {
      "anonymous": false,
      "inputs": [
        {
          "indexed": true,
          "internalType": "address",
          "name": "previousOwner",
          "type": "address"
        },
        {
          "indexed": true,
          "internalType": "address",
          "name": "newOwner",
          "type": "address"
        }
      ],
      "name": "OwnershipTransferred",
      "type": "event"
    },
    {
      "anonymous": false,
      "inputs": [
        {
          "indexed": false,
          "internalType": "address",
          "name": "account",
          "type": "address"
        }
      ],
      "name": "Paused",
      "type": "event"
    },
    {
      "anonymous": false,
      "inputs": [
        {
          "indexed": true,
          "internalType": "bytes32",
          "name": "id",
          "type": "bytes32"
        },
        {
          "indexed": false,
          "internalType": "bytes32",
          "name": "pythId",
          "type": "bytes32"
        }
      ],
      "name": "PythFeedSet",
      "type": "event"
    },
    {
      "anonymous": false,
      "inputs": [
        {
          "indexed": false,
          "internalType": "address",
          "name": "account",
          "type": "address"
        }
      ],
      "name": "Unpaused",
      "type": "event"
    },
    {
      "inputs": [],
      "name": "BPS",
      "outputs": [
        {
          "internalType": "uint256",
          "name": "",
          "type": "uint256"
        }
      ],
      "stateMutability": "view",
      "type": "function"
    },
    {
      "inputs": [],
      "name": "GUARDIAN_TTL",
      "outputs": [
        {
          "internalType": "uint256",
          "name": "",
          "type": "uint256"
        }
      ],
      "stateMutability": "view",
      "type": "function"
    },
    {
      "inputs": [],
      "name": "MAX_DEVIATION_BPS",
      "outputs": [
        {
          "internalType": "uint256",
          "name": "",
          "type": "uint256"
        }
      ],
      "stateMutability": "view",
      "type": "function"
    },
    {
      "inputs": [],
      "name": "MAX_PYTH_AGE",
      "outputs": [
        {
          "internalType": "uint256",
          "name": "",
          "type": "uint256"
        }
      ],
      "stateMutability": "view",
      "type": "function"
    },
    {
      "inputs": [],
      "name": "MAX_PYTH_CONF_BPS",
      "outputs": [
        {
          "internalType": "uint256",
          "name": "",
          "type": "uint256"
        }
      ],
      "stateMutability": "view",
      "type": "function"
    },
    {
      "inputs": [],
      "name": "PRECISION",
      "outputs": [
        {
          "internalType": "uint256",
          "name": "",
          "type": "uint256"
        }
      ],
      "stateMutability": "view",
      "type": "function"
    },
    {
      "inputs": [],
      "name": "SEQ_GRACE_PERIOD",
      "outputs": [
        {
          "internalType": "uint256",
          "name": "",
          "type": "uint256"
        }
      ],
      "stateMutability": "view",
      "type": "function"
    },
    {
      "inputs": [],
      "name": "TWAP_WINDOW",
      "outputs": [
        {
          "internalType": "uint256",
          "name": "",
          "type": "uint256"
        }
      ],
      "stateMutability": "view",
      "type": "function"
    },
    {
      "inputs": [],
      "name": "acceptOwnership",
      "outputs": [],
      "stateMutability": "nonpayable",
      "type": "function"
    },
    {
      "inputs": [
        {
          "internalType": "bytes32[]",
          "name": "ids",
          "type": "bytes32[]"
        },
        {
          "internalType": "bytes32[]",
          "name": "pythIds",
          "type": "bytes32[]"
        }
      ],
      "name": "batchSetPythFeeds",
      "outputs": [],
      "stateMutability": "nonpayable",
      "type": "function"
    },
    {
      "inputs": [
        {
          "internalType": "bytes32",
          "name": "",
          "type": "bytes32"
        }
      ],
      "name": "chainlinkFeeds",
      "outputs": [
        {
          "internalType": "contract AggregatorV3Interface",
          "name": "feed",
          "type": "address"
        },
        {
          "internalType": "uint32",
          "name": "heartbeat",
          "type": "uint32"
        },
        {
          "internalType": "uint8",
          "name": "decimals",
          "type": "uint8"
        },
        {
          "internalType": "uint256",
          "name": "minPrice",
          "type": "uint256"
        },
        {
          "internalType": "uint256",
          "name": "maxPrice",
          "type": "uint256"
        },
        {
          "internalType": "bool",
          "name": "active",
          "type": "bool"
        }
      ],
      "stateMutability": "view",
      "type": "function"
    },
    {
      "inputs": [
        {
          "internalType": "bytes32",
          "name": "id",
          "type": "bytes32"
        }
      ],
      "name": "getPrice",
      "outputs": [
        {
          "internalType": "uint256",
          "name": "price",
          "type": "uint256"
        },
        {
          "internalType": "uint256",
          "name": "updatedAt",
          "type": "uint256"
        }
      ],
      "stateMutability": "view",
      "type": "function"
    },
    {
      "inputs": [
        {
          "internalType": "string",
          "name": "symbol",
          "type": "string"
        }
      ],
      "name": "getPriceBySymbol",
      "outputs": [
        {
          "internalType": "uint256",
          "name": "",
          "type": "uint256"
        },
        {
          "internalType": "uint256",
          "name": "",
          "type": "uint256"
        }
      ],
      "stateMutability": "view",
      "type": "function"
    },
    {
      "inputs": [
        {
          "internalType": "bytes32",
          "name": "id",
          "type": "bytes32"
        }
      ],
      "name": "getPriceSafe",
      "outputs": [
        {
          "internalType": "uint256",
          "name": "price",
          "type": "uint256"
        },
        {
          "internalType": "bool",
          "name": "valid",
          "type": "bool"
        }
      ],
      "stateMutability": "view",
      "type": "function"
    },
    {
      "inputs": [
        {
          "internalType": "bytes32",
          "name": "id",
          "type": "bytes32"
        }
      ],
      "name": "getTWAP",
      "outputs": [
        {
          "internalType": "uint256",
          "name": "",
          "type": "uint256"
        }
      ],
      "stateMutability": "view",
      "type": "function"
    },
    {
      "inputs": [
        {
          "internalType": "bytes32",
          "name": "",
          "type": "bytes32"
        }
      ],
      "name": "guardianPrices",
      "outputs": [
        {
          "internalType": "uint256",
          "name": "price",
          "type": "uint256"
        },
        {
          "internalType": "uint256",
          "name": "submittedAt",
          "type": "uint256"
        }
      ],
      "stateMutability": "view",
      "type": "function"
    },
    {
      "inputs": [
        {
          "internalType": "address",
          "name": "",
          "type": "address"
        }
      ],
      "name": "guardians",
      "outputs": [
        {
          "internalType": "bool",
          "name": "",
          "type": "bool"
        }
      ],
      "stateMutability": "view",
      "type": "function"
    },
    {
      "inputs": [
        {
          "internalType": "bytes32",
          "name": "",
          "type": "bytes32"
        }
      ],
      "name": "marketPaused",
      "outputs": [
        {
          "internalType": "bool",
          "name": "",
          "type": "bool"
        }
      ],
      "stateMutability": "view",
      "type": "function"
    },
    {
      "inputs": [],
      "name": "owner",
      "outputs": [
        {
          "internalType": "address",
          "name": "",
          "type": "address"
        }
      ],
      "stateMutability": "view",
      "type": "function"
    },
    {
      "inputs": [],
      "name": "pause",
      "outputs": [],
      "stateMutability": "nonpayable",
      "type": "function"
    },
    {
      "inputs": [
        {
          "internalType": "bytes32",
          "name": "id",
          "type": "bytes32"
        },
        {
          "internalType": "bool",
          "name": "paused",
          "type": "bool"
        }
      ],
      "name": "pauseMarket",
      "outputs": [],
      "stateMutability": "nonpayable",
      "type": "function"
    },
    {
      "inputs": [],
      "name": "paused",
      "outputs": [
        {
          "internalType": "bool",
          "name": "",
          "type": "bool"
        }
      ],
      "stateMutability": "view",
      "type": "function"
    },
    {
      "inputs": [],
      "name": "pendingOwner",
      "outputs": [
        {
          "internalType": "address",
          "name": "",
          "type": "address"
        }
      ],
      "stateMutability": "view",
      "type": "function"
    },
    {
      "inputs": [
        {
          "internalType": "bytes[]",
          "name": "updateData",
          "type": "bytes[]"
        }
      ],
      "name": "pushPythUpdates",
      "outputs": [],
      "stateMutability": "payable",
      "type": "function"
    },
    {
      "inputs": [
        {
          "internalType": "bytes[]",
          "name": "updateData",
          "type": "bytes[]"
        },
        {
          "internalType": "bytes32[]",
          "name": "priceIds",
          "type": "bytes32[]"
        },
        {
          "internalType": "uint64[]",
          "name": "publishTimes",
          "type": "uint64[]"
        }
      ],
      "name": "pushPythUpdatesIfStale",
      "outputs": [],
      "stateMutability": "payable",
      "type": "function"
    },
    {
      "inputs": [],
      "name": "pyth",
      "outputs": [
        {
          "internalType": "contract IPyth",
          "name": "",
          "type": "address"
        }
      ],
      "stateMutability": "view",
      "type": "function"
    },
    {
      "inputs": [
        {
          "internalType": "bytes32",
          "name": "",
          "type": "bytes32"
        }
      ],
      "name": "pythFeeds",
      "outputs": [
        {
          "internalType": "bytes32",
          "name": "id",
          "type": "bytes32"
        },
        {
          "internalType": "bool",
          "name": "active",
          "type": "bool"
        }
      ],
      "stateMutability": "view",
      "type": "function"
    },
    {
      "inputs": [],
      "name": "renounceOwnership",
      "outputs": [],
      "stateMutability": "nonpayable",
      "type": "function"
    },
    {
      "inputs": [],
      "name": "sequencerFeed",
      "outputs": [
        {
          "internalType": "contract ISequencerUptimeFeed",
          "name": "",
          "type": "address"
        }
      ],
      "stateMutability": "view",
      "type": "function"
    },
    {
      "inputs": [
        {
          "internalType": "bytes32",
          "name": "id",
          "type": "bytes32"
        },
        {
          "internalType": "address",
          "name": "feed",
          "type": "address"
        },
        {
          "internalType": "uint32",
          "name": "heartbeat",
          "type": "uint32"
        },
        {
          "internalType": "uint8",
          "name": "decimals",
          "type": "uint8"
        },
        {
          "internalType": "uint256",
          "name": "minPrice",
          "type": "uint256"
        },
        {
          "internalType": "uint256",
          "name": "maxPrice",
          "type": "uint256"
        }
      ],
      "name": "setChainlinkFeed",
      "outputs": [],
      "stateMutability": "nonpayable",
      "type": "function"
    },
    {
      "inputs": [
        {
          "internalType": "bytes32",
          "name": "id",
          "type": "bytes32"
        },
        {
          "internalType": "address",
          "name": "feed",
          "type": "address"
        },
        {
          "internalType": "uint32",
          "name": "heartbeat",
          "type": "uint32"
        },
        {
          "internalType": "uint8",
          "name": "decimals",
          "type": "uint8"
        },
        {
          "internalType": "uint256",
          "name": "minPrice",
          "type": "uint256"
        },
        {
          "internalType": "uint256",
          "name": "maxPrice",
          "type": "uint256"
        }
      ],
      "name": "setFeed",
      "outputs": [],
      "stateMutability": "nonpayable",
      "type": "function"
    },
    {
      "inputs": [
        {
          "internalType": "address",
          "name": "g",
          "type": "address"
        },
        {
          "internalType": "bool",
          "name": "active",
          "type": "bool"
        }
      ],
      "name": "setGuardian",
      "outputs": [],
      "stateMutability": "nonpayable",
      "type": "function"
    },
    {
      "inputs": [
        {
          "internalType": "bytes32",
          "name": "id",
          "type": "bytes32"
        },
        {
          "internalType": "bool",
          "name": "paused",
          "type": "bool"
        }
      ],
      "name": "setMarketPaused",
      "outputs": [],
      "stateMutability": "nonpayable",
      "type": "function"
    },
    {
      "inputs": [
        {
          "internalType": "bytes32",
          "name": "id",
          "type": "bytes32"
        },
        {
          "internalType": "bytes32",
          "name": "pythId",
          "type": "bytes32"
        }
      ],
      "name": "setPythFeed",
      "outputs": [],
      "stateMutability": "nonpayable",
      "type": "function"
    },
    {
      "inputs": [
        {
          "internalType": "bytes32",
          "name": "id",
          "type": "bytes32"
        },
        {
          "internalType": "uint256",
          "name": "price",
          "type": "uint256"
        }
      ],
      "name": "submitGuardianPrice",
      "outputs": [],
      "stateMutability": "nonpayable",
      "type": "function"
    },
    {
      "inputs": [
        {
          "internalType": "address",
          "name": "newOwner",
          "type": "address"
        }
      ],
      "name": "transferOwnership",
      "outputs": [],
      "stateMutability": "nonpayable",
      "type": "function"
    },
    {
      "inputs": [],
      "name": "unpause",
      "outputs": [],
      "stateMutability": "nonpayable",
      "type": "function"
    },
    {
      "stateMutability": "payable",
      "type": "receive"
    }
  ],
  "bytecode": "0x60c0346101c757601f6122aa38819003918201601f19168301916001600160401b038311848410176101cb578084926060946040528339810103126101c757610047816101df565b61005f6040610058602085016101df565b93016101df565b6001600160a01b039091169182156101b457600180546001600160a01b03199081169091555f80549182168517815584916001600160a01b0316907f8be0079c531659141344cd1fd0a4f28419497f9722a3daafe3b4186f6b6457e09080a36001600160a01b031690811561016f576001600160a01b03169081156101375760a0526080525f52600860205260405f20600160ff198254161790556040516120b690816101f482396080518181816101d00152818161098a01528181610c480152611dc3015260a05181818161131a01526117330152f35b60405162461bcd60e51b815260206004820152601060248201526f0aed2d6d27440f4cae4de40bee0f2e8d60831b6044820152606490fd5b60405162461bcd60e51b815260206004820152601360248201527f57696b693a207a65726f205f73657146656564000000000000000000000000006044820152606490fd5b631e4fbdf760e01b5f525f60045260245ffd5b5f80fd5b634e487b7160e01b5f52604160045260245ffd5b51906001600160a01b03821682036101c75756fe608080604052600436101561001c575b50361561001a575f80fd5b005b5f905f3560e01c9081630633b14a146114e75750806313fa5292146114785780631e6df6bb1461144c5780631e88266614611431578063249d39e91461141557806325c68403146113f95780632b8a1c5a1461137b57806331d98b3f146113495780633b521cb6146113055780633f4ba83a146112975780634f47780a146111525780635c975abb1461112d57806361a64040146110ba57806365e724f414610ed8578063715018a614610e7557806379ba509714610df05780638456cb5914610d8f57806385afc16d14610d5c57806386f5820f14610d245780638870982e14610c005780638da5cb5b14610bd957806393f5ce47146107e3578063a263210e14610b57578063aaf5eb6814610b34578063abc7aa3f14610b05578063b88006a914610903578063bdc11ac5146107e8578063c5625461146107e3578063c9d1219e1461076f578063dbb0ae1814610753578063e2c1d1d114610736578063e30c39781461070d578063ef57e2d11461038e578063f2fde38b14610321578063f67bffe1146102fa578063f86f3593146102025763f98d06f00361000f57346101ff57806003193601126101ff576040517f00000000000000000000000000000000000000000000000000000000000000006001600160a01b03168152602090f35b80fd5b50346101ff5760203660031901126101ff576004356001600160401b0381116102f657366023820112156102f65780600401356001600160401b0381116102f25736602482840101116102f2576102796020604051838194602484840197018737810186838201520301601f198101835282611628565b51902090604051916331d98b3f60e01b83526004830152604082602481305afa80156102e55760409282916102b6575b5082519182526020820152f35b90506102d89150823d84116102de575b6102d08183611628565b810190611649565b5f6102a9565b503d6102c6565b50604051903d90823e3d90fd5b8280fd5b5080fd5b50346101ff5760203660031901126101ff576020610319600435611fbf565b604051908152f35b50346101ff5760203660031901126101ff5761033b611520565b610343611bbf565b600180546001600160a01b0319166001600160a01b0392831690811790915582549091167f38d16b8cac22d99fc7c124b9cd0de2d3fa1faef420bfe791d8c362d765e227008380a380f35b50346101ff5760403660031901126101ff576004356024356103ae611bd2565b338352600860205260ff604084205416156106d15780156106975781835260026020526040832060ff6003820154168061068a575b8061067d575b6105ea575b506103f882611fbf565b80610543575b5061043460405161040e816115de565b828152426020820152838552600460205260408520906020600191805184550151910155565b818352600660205260ff604084205416604051610450816115de565b828152426020820152838552600560205261046e8260408720611f9b565b61052f57815181556020909101516001918201550160ff811161051b577f54810cefb40729bb6fa90adac01bc8a79757c5e8d38f74192706789a2e62cc8a91604091848652600660205260ff600a818589209316061660ff198254161790558385526007602052600a60ff8387205416106104f3575b8151908152336020820152a280f35b838552600760205281852060ff61050c81835416611fae565b1660ff198254161790556104e4565b634e487b7160e01b84526011600452602484fd5b634e487b7160e01b86526004869052602486fd5b808211156105db5761055581836116b7565b61271081029080820461271014901517156105c7576101f491610577916116eb565b11610582575f6103fe565b60405162461bcd60e51b815260206004820152601a60248201527f4f7261636c653a20677561726469616e20646576696174696f6e0000000000006044820152606490fd5b634e487b7160e01b85526011600452602485fd5b6105e582826116b7565b610555565b6001810154821061064257600201548111610605575f6103ee565b60405162461bcd60e51b81526020600482015260156024820152744f7261636c653a2061626f7665206365696c696e6760581b6044820152606490fd5b60405162461bcd60e51b815260206004820152601360248201527227b930b1b6329d103132b637bb90333637b7b960691b6044820152606490fd5b50600281015415156103e9565b50600181015415156103e3565b60405162461bcd60e51b81526020600482015260126024820152714f7261636c653a207a65726f20707269636560701b6044820152606490fd5b60405162461bcd60e51b815260206004820152601460248201527327b930b1b6329d103737ba1033bab0b93234b0b760611b6044820152606490fd5b50346101ff57806003193601126101ff576001546040516001600160a01b039091168152602090f35b50346101ff57806003193601126101ff57602060405161012c8152f35b50346101ff57806003193601126101ff57602060405160788152f35b50346101ff5760403660031901126101ff576004357f381718e1eceffe4d1d10f682c9a32584b00d0d44792d386b7dc696ccba48e60b60206107af611536565b6107b7611bbf565b838552600982526107d781604087209060ff801983541691151516179055565b6040519015158152a280f35b6115c2565b50346101ff5760037fe4aaba68ac730637fec80feec4ab17638cd34ba39f9c879ca8bb436b2c5fc44460206108f961081f36611575565b9095949892919361082e611bbf565b60018060a01b031695604051946108448661160d565b87865263ffffffff8987019416845260ff6040870191168152606086019182526080860192835260a0860193600185528b8d5260028a5260408d209660018060a01b039060018060a01b03905116166bffffffffffffffffffffffff60a01b885416178755519086549060ff60c01b905160c01b169163ffffffff60a01b9060a01b169064ffffffffff60a01b19161717855551600185015551600284015551151591019060ff801983541691151516179055565b604051908152a280f35b5060603660031901126101ff576004356001600160401b0381116102f65761092f903690600401611545565b6024929192356001600160401b0381116102f257610951903690600401611545565b93906044356001600160401b038111610b0157610972903690600401611545565b60405163d47eed4560e01b81526020600482018190527f00000000000000000000000000000000000000000000000000000000000000006001600160a01b0316989195939492939086806109ca602482018b86611b28565b03818c5afa958615610af6578896610abe575b50883b15610aba57604051631724ada560e31b81526060600482015296610a0991606489019190611b28565b868103600319016024880152818152906001600160fb1b038111610aba57906040929160051b809260208301370182602082016003196020898503010160448901525201919085905b808210610a9157505050839483859381809403925af18015610a8657610a755750f35b81610a7f91611628565b6101ff5780f35b6040513d84823e3d90fd5b90919283356001600160401b038116809103610aba578152602090810193019160010190610a52565b8780fd5b9095506020813d602011610aee575b81610ada60209383611628565b81010312610aea5751945f6109dd565b5f80fd5b3d9150610acd565b6040513d8a823e3d90fd5b8480fd5b50346101ff5760203660031901126101ff5760ff60406020926004358152600984522054166040519015158152f35b50346101ff57806003193601126101ff576020604051670de0b6b3a76400008152f35b50346101ff5760403660031901126101ff576004357f2d47874a909fa48fdef26ac0b05f0ed24b5b9322c1b978f5f3d947ea0e6f7c536020602435610b9a611bbf565b6108f9604051610ba9816115de565b828152600184820181815287895260038652604089209251835551151591019060ff801983541691151516179055565b50346101ff57806003193601126101ff57546040516001600160a01b039091168152602090f35b506020366003190112610aea576004356001600160401b038111610aea57610c2c903690600401611545565b60405163d47eed4560e01b8152602060048201819052919290917f00000000000000000000000000000000000000000000000000000000000000006001600160a01b0316908380610c81602482018887611b28565b0381845afa928315610ce5575f93610cf0575b50803b15610aea57604051631df3cbc560e31b815260206004820152935f93859384928391610cc7916024840191611b28565b03925af18015610ce557610cd9575080f35b61001a91505f90611628565b6040513d5f823e3d90fd5b9092506020813d602011610d1c575b81610d0c60209383611628565b81010312610aea5751915f610c94565b3d9150610cff565b34610aea576020366003190112610aea576004355f5260036020526040805f2060ff6001825492015416825191825215156020820152f35b34610aea576020366003190112610aea576004355f5260046020526040805f206001815491015482519182526020820152f35b34610aea575f366003190112610aea57610da7611bbf565b610daf611bd2565b6001805460ff60a01b1916600160a01b1790556040513381527f62e78cea01bee320cd4e420270b5ea74000d11b0c9f74754ebdbfc544b05a25890602090a1005b34610aea575f366003190112610aea57600154336001600160a01b0390911603610e6257600180546001600160a01b03199081169091555f805433928116831782556001600160a01b0316907f8be0079c531659141344cd1fd0a4f28419497f9722a3daafe3b4186f6b6457e09080a3005b63118cdaa760e01b5f523360045260245ffd5b34610aea575f366003190112610aea57610e8d611bbf565b600180546001600160a01b03199081169091555f80549182168155906001600160a01b03167f8be0079c531659141344cd1fd0a4f28419497f9722a3daafe3b4186f6b6457e08280a3005b34610aea5763ffffffff610eeb36611575565b919394959092610ef9611bbf565b1692831561107d5782151580611074575b1561103a576003602094611007937f2f2abe54368524e8f054985f3340fceb4bbe2bf8c945e37cfacff5abc05c6ab097610f42611bbf565b60018060a01b03169560405194610f588661160d565b87865288860193845260ff6040870191168152606086019182526080860192835260a0860193600185528b5f5260028a5260405f209660018060a01b039060018060a01b03905116166bffffffffffffffffffffffff60a01b885416178755519086549060ff60c01b905160c01b169163ffffffff60a01b9060a01b169064ffffffffff60a01b19161717855551600185015551600284015551151591019060ff801983541691151516179055565b837fe4aaba68ac730637fec80feec4ab17638cd34ba39f9c879ca8bb436b2c5fc44483604051848152a2604051908152a2005b60405162461bcd60e51b81526020600482015260126024820152714f7261636c653a2062616420626f756e647360701b6044820152606490fd5b50818310610f0a565b60405162461bcd60e51b815260206004820152601560248201527413dc9858db194e88189859081a19585c9d1899585d605a1b6044820152606490fd5b34610aea576020366003190112610aea576004355f52600260205260c060405f2080549060018101549060ff60036002830154920154169160ff6040519460018060a01b038116865263ffffffff8160a01c166020870152861c16604085015260608401526080830152151560a0820152f35b34610aea575f366003190112610aea57602060ff60015460a01c166040519015158152f35b34610aea576040366003190112610aea576004356001600160401b038111610aea57611182903690600401611545565b906024356001600160401b038111610aea576111a2903690600401611545565b916111ab611bbf565b82840361125f575f5b8481106111bd57005b806112176111ce6001938787611b04565b35604051906111dc826115de565b815283602082018181526111f1858b89611b04565b355f52600360205260405f209251835551151591019060ff801983541691151516179055565b611222818785611b04565b357f2d47874a909fa48fdef26ac0b05f0ed24b5b9322c1b978f5f3d947ea0e6f7c536020611251848989611b04565b35604051908152a2016111b4565b60405162461bcd60e51b815260206004820152601060248201526f09ee4c2c6d8ca7440dad2e6dac2e8c6d60831b6044820152606490fd5b34610aea575f366003190112610aea576112af611bbf565b60015460ff8160a01c16156112f65760ff60a01b19166001556040513381527f5db9ee0a495bf2e6ff9c91a7834c1ba4fdd244a5e8aa4e537bd38aeae4b073aa90602090a1005b638dfc202b60e01b5f5260045ffd5b34610aea575f366003190112610aea576040517f00000000000000000000000000000000000000000000000000000000000000006001600160a01b03168152602090f35b34610aea576020366003190112610aea57611362611bd2565b604061136f600435611709565b82519182526020820152f35b34610aea576040366003190112610aea57611394611520565b7f6fff6b51fc7f6641dd270e7981bc5cfcdf76fef18faa559aef714e9934c3874360206113bf611536565b926113c8611bbf565b6001600160a01b03165f8181526008835260409020805460ff191660ff86151516179055925b6040519015158152a2005b34610aea575f366003190112610aea5760206040516101f48152f35b34610aea575f366003190112610aea5760206040516127108152f35b34610aea575f366003190112610aea57602060405160c88152f35b34610aea576020366003190112610aea57604061146a60043561165f565b825191825215156020820152f35b34610aea576040366003190112610aea576004357f381718e1eceffe4d1d10f682c9a32584b00d0d44792d386b7dc696ccba48e60b60206114b7611536565b6114bf611bbf565b6114c7611bbf565b835f52600982526113ee8160405f209060ff801983541691151516179055565b34610aea576020366003190112610aea576020906001600160a01b0361150b611520565b165f526008825260ff60405f20541615158152f35b600435906001600160a01b0382168203610aea57565b602435908115158203610aea57565b9181601f84011215610aea578235916001600160401b038311610aea576020808501948460051b010111610aea57565b60c0906003190112610aea57600435906024356001600160a01b0381168103610aea579060443563ffffffff81168103610aea579060643560ff81168103610aea57906084359060a43590565b34610aea575f366003190112610aea576020604051610e108152f35b604081019081106001600160401b038211176115f957604052565b634e487b7160e01b5f52604160045260245ffd5b60c081019081106001600160401b038211176115f957604052565b90601f801991011681019081106001600160401b038211176115f957604052565b9190826040910312610aea576020825192015190565b604051906331d98b3f60e01b82526004820152604081602481305afa5f9181611695575b5061168f57505f905f90565b90600190565b6116af91925060403d6040116102de576102d08183611628565b50905f611683565b919082039182116116c457565b634e487b7160e01b5f52601160045260245ffd5b818102929181159184041417156116c457565b81156116f5570490565b634e487b7160e01b5f52601260045260245ffd5b90815f52600960205260ff60405f205416611ac757604051633fabe5a360e21b815260a0816004817f00000000000000000000000000000000000000000000000000000000000000006001600160a01b03165afa908115610ce5575f905f92611a92575b50611a545761177f610e1091426116b7565b10611a18575f805f905f92855f52600260205260405f2060ff60038201541680611a05575b6119f2575b50855f52600360205260405f2060ff600182015416806119e8575b6119d0575b5080151580806119c7575b6119305761192857505080611923575050815f52600460205260405f2080549081156118eb576001015492610e1061180c85426116b7565b116118ad5761181a90611fbf565b8061182457509190565b8082111561189e5761183681836116b7565b61271081029080820461271014901517156116c4576101f491611858916116eb565b11611861579190565b60405162461bcd60e51b815260206004820152601560248201527404f7261636c653a20677561726469616e205457415605c1b6044820152606490fd5b6118a882826116b7565b611836565b60405162461bcd60e51b81526020600482015260166024820152754f7261636c653a20677561726469616e207374616c6560501b6044820152606490fd5b60405162461bcd60e51b815260206004820152601060248201526f4f7261636c653a206e6f20707269636560801b6044820152606490fd5b925090565b945092915050565b5092509350818181115f146119b95790611949916116b7565b61271081029080820461271014901517156116c45761196b826103e8926116eb565b11611974579190565b60405162461bcd60e51b815260206004820152601860248201527f4f7261636c653a20434c2f50797468206d69736d6174636800000000000000006044820152606490fd5b6119c2916116b7565b611949565b508315156117d4565b9092506119df91935054611da6565b9290915f6117c9565b50805415156117c4565b90506119fe9150611c4d565b905f6117a9565b5080546001600160a01b031615156117a4565b60405162461bcd60e51b815260206004820152601460248201527313dc9858db194e8819dc9858d9481c195c9a5bd960621b6044820152606490fd5b60405162461bcd60e51b815260206004820152601660248201527527b930b1b6329d1039b2b8bab2b731b2b9103237bbb760511b6044820152606490fd5b9050611ab6915060a03d60a011611ac0575b611aae8183611628565b810190611c07565b505091505f61176d565b503d611aa4565b60405162461bcd60e51b815260206004820152601560248201527413dc9858db194e881b585c9ad95d081c185d5cd959605a1b6044820152606490fd5b9190811015611b145760051b0190565b634e487b7160e01b5f52603260045260245ffd5b90602083828152019060208160051b85010193835f915b838310611b4f5750505050505090565b909192939495601f198282030186528635601e1984360301811215610aea57830190602082359201916001600160401b038111610aea578036038313610aea576020828280600196849695859652848401375f828201840152601f01601f19160101980196019493019190611b3f565b5f546001600160a01b03163303610e6257565b60ff60015460a01c16611be157565b63d93c066560e01b5f5260045ffd5b519069ffffffffffffffffffff82168203610aea57565b908160a0910312610aea57611c1b81611bf0565b91602082015191604081015191611c39608060608401519301611bf0565b90565b60ff16604d81116116c457600a0a90565b8054604051633fabe5a360e21b815292919060a0846004816001600160a01b0385165afa905f915f92815f975f93611d62575b50611c9257505050505090505f905f90565b5f841315611d5557611ca487426116b7565b63ffffffff8460a01c1610611d555769ffffffffffffffffffff809116911610611d4a5760c01c60ff166012811015611d25576012039060ff82116116c457611cef611cf592611c3c565b906116d8565b905b60018101548210908115611d17575b50611d0f579190565b505f91508190565b60029150015481115f611d06565b601119019060ff82116116c457611d3e611d4492611c3c565b906116eb565b90611cf7565b50505090505f905f90565b505050505090505f905f90565b9250935050611d8191955060a03d60a011611ac057611aae8183611628565b97939094929150909396915f611c80565b63ffffffff16604d81116116c457600a0a90565b6040516396834ad360e01b815260048101919091526080816024817f00000000000000000000000000000000000000000000000000000000000000006001600160a01b03165afa5f9181611f04575b50611e0157505f905f90565b905f825160070b1315611efd5760608201916078611e208451426116b7565b11611d0f576001600160401b038151169081151580611ec7575b611ebd5760400151600381900b5f8112611e67575090611cef611e629263ffffffff16611d92565b915190565b9050637fffffff1981146116c4575f0363ffffffff166012811015611ea1576012039063ffffffff82116116c457611cef611e6292611d92565b601119019063ffffffff82116116c457611d3e611e6292611d92565b505090505f905f90565b506001600160401b0360208201511661271081029080820461271014901517156116c457611ef78360c8926116eb565b11611e3a565b5f91508190565b9091506080813d608011611f93575b81611f2060809383611628565b81010312610aea5760405190608082018281106001600160401b038211176115f95760405280518060070b8103610aea57825260208101516001600160401b0381168103610aea5760208301526040810151908160030b8203610aea57606091604084015201516060820152905f611df5565b3d9150611f13565b90600a811015611b145760011b01905f90565b60ff1660ff81146116c45760010190565b805f52600760205260ff60405f20541690811561207a575f9161012b1942014281116116c4575f925f5b8360ff821610612011575050505060ff1680155f146120085750505f90565b611c39916116eb565b815f5260056020526120268160405f20611f9b565b50836020604051612036816115de565b6001845494858352015491829101521015612058575b5060010160ff16611fe9565b86919596018091116116c457600161207260ff9297611fae565b95915061204c565b50505f9056fea2646970667358221220e29d25605e414fe14c534a61b4b43aed74b3abd0086e94bd414d0e37f2b7b5ce64736f6c634300081a0033",
  "linkReferences": {},
  "deployedLinkReferences": {}
}