{
  "_format": "hh-sol-artifact-1",
  "contractName": "WikiIEOPlatform",
  "sourceName": "src/WikiIEOPlatform.sol",
  "abi": [
    {
      "inputs": [
        {
          "internalType": "address",
          "name": "_usdc",
          "type": "address"
        },
        {
          "internalType": "address",
          "name": "_wik",
          "type": "address"
        },
        {
          "internalType": "address",
          "name": "_treasury",
          "type": "address"
        },
        {
          "internalType": "address",
          "name": "_owner",
          "type": "address"
        }
      ],
      "stateMutability": "nonpayable",
      "type": "constructor"
    },
    {
      "inputs": [
        {
          "internalType": "address",
          "name": "owner",
          "type": "address"
        }
      ],
      "name": "OwnableInvalidOwner",
      "type": "error"
    },
    {
      "inputs": [
        {
          "internalType": "address",
          "name": "account",
          "type": "address"
        }
      ],
      "name": "OwnableUnauthorizedAccount",
      "type": "error"
    },
    {
      "inputs": [],
      "name": "ReentrancyGuardReentrantCall",
      "type": "error"
    },
    {
      "inputs": [
        {
          "internalType": "address",
          "name": "token",
          "type": "address"
        }
      ],
      "name": "SafeERC20FailedOperation",
      "type": "error"
    },
    {
      "anonymous": false,
      "inputs": [
        {
          "indexed": true,
          "internalType": "uint256",
          "name": "id",
          "type": "uint256"
        },
        {
          "indexed": false,
          "internalType": "address",
          "name": "contributor",
          "type": "address"
        },
        {
          "indexed": false,
          "internalType": "uint256",
          "name": "usdc",
          "type": "uint256"
        },
        {
          "indexed": false,
          "internalType": "uint256",
          "name": "tokens",
          "type": "uint256"
        }
      ],
      "name": "Contributed",
      "type": "event"
    },
    {
      "anonymous": false,
      "inputs": [
        {
          "indexed": true,
          "internalType": "uint256",
          "name": "id",
          "type": "uint256"
        },
        {
          "indexed": false,
          "internalType": "uint256",
          "name": "wikSlashed",
          "type": "uint256"
        }
      ],
      "name": "ExclusivitySlashed",
      "type": "event"
    },
    {
      "anonymous": false,
      "inputs": [
        {
          "indexed": true,
          "internalType": "address",
          "name": "previousOwner",
          "type": "address"
        },
        {
          "indexed": true,
          "internalType": "address",
          "name": "newOwner",
          "type": "address"
        }
      ],
      "name": "OwnershipTransferStarted",
      "type": "event"
    },
    {
      "anonymous": false,
      "inputs": [
        {
          "indexed": true,
          "internalType": "address",
          "name": "previousOwner",
          "type": "address"
        },
        {
          "indexed": true,
          "internalType": "address",
          "name": "newOwner",
          "type": "address"
        }
      ],
      "name": "OwnershipTransferred",
      "type": "event"
    },
    {
      "anonymous": false,
      "inputs": [
        {
          "indexed": true,
          "internalType": "uint256",
          "name": "id",
          "type": "uint256"
        }
      ],
      "name": "ProjectApproved",
      "type": "event"
    },
    {
      "anonymous": false,
      "inputs": [
        {
          "indexed": true,
          "internalType": "uint256",
          "name": "id",
          "type": "uint256"
        },
        {
          "indexed": false,
          "internalType": "address",
          "name": "owner",
          "type": "address"
        },
        {
          "indexed": false,
          "internalType": "string",
          "name": "name",
          "type": "string"
        },
        {
          "indexed": false,
          "internalType": "uint256",
          "name": "hardcap",
          "type": "uint256"
        }
      ],
      "name": "ProjectRegistered",
      "type": "event"
    },
    {
      "anonymous": false,
      "inputs": [
        {
          "indexed": true,
          "internalType": "uint256",
          "name": "id",
          "type": "uint256"
        },
        {
          "indexed": false,
          "internalType": "uint256",
          "name": "raised",
          "type": "uint256"
        },
        {
          "indexed": false,
          "internalType": "uint256",
          "name": "protocolFee",
          "type": "uint256"
        }
      ],
      "name": "SaleFinalized",
      "type": "event"
    },
    {
      "anonymous": false,
      "inputs": [
        {
          "indexed": true,
          "internalType": "uint256",
          "name": "id",
          "type": "uint256"
        },
        {
          "indexed": false,
          "internalType": "address",
          "name": "contributor",
          "type": "address"
        },
        {
          "indexed": false,
          "internalType": "uint256",
          "name": "amount",
          "type": "uint256"
        }
      ],
      "name": "TokensClaimed",
      "type": "event"
    },
    {
      "inputs": [],
      "name": "BPS",
      "outputs": [
        {
          "internalType": "uint256",
          "name": "",
          "type": "uint256"
        }
      ],
      "stateMutability": "view",
      "type": "function"
    },
    {
      "inputs": [],
      "name": "EXCLUSIVITY_DAYS",
      "outputs": [
        {
          "internalType": "uint256",
          "name": "",
          "type": "uint256"
        }
      ],
      "stateMutability": "view",
      "type": "function"
    },
    {
      "inputs": [],
      "name": "LISTING_FEE",
      "outputs": [
        {
          "internalType": "uint256",
          "name": "",
          "type": "uint256"
        }
      ],
      "stateMutability": "view",
      "type": "function"
    },
    {
      "inputs": [],
      "name": "PROTOCOL_FEE_BPS",
      "outputs": [
        {
          "internalType": "uint256",
          "name": "",
          "type": "uint256"
        }
      ],
      "stateMutability": "view",
      "type": "function"
    },
    {
      "inputs": [],
      "name": "TOKEN_ALLOC_BPS",
      "outputs": [
        {
          "internalType": "uint256",
          "name": "",
          "type": "uint256"
        }
      ],
      "stateMutability": "view",
      "type": "function"
    },
    {
      "inputs": [],
      "name": "USDC",
      "outputs": [
        {
          "internalType": "contract IERC20",
          "name": "",
          "type": "address"
        }
      ],
      "stateMutability": "view",
      "type": "function"
    },
    {
      "inputs": [],
      "name": "VESTING_MONTHS",
      "outputs": [
        {
          "internalType": "uint256",
          "name": "",
          "type": "uint256"
        }
      ],
      "stateMutability": "view",
      "type": "function"
    },
    {
      "inputs": [],
      "name": "WIK",
      "outputs": [
        {
          "internalType": "contract IERC20",
          "name": "",
          "type": "address"
        }
      ],
      "stateMutability": "view",
      "type": "function"
    },
    {
      "inputs": [],
      "name": "WIK_BOND",
      "outputs": [
        {
          "internalType": "uint256",
          "name": "",
          "type": "uint256"
        }
      ],
      "stateMutability": "view",
      "type": "function"
    },
    {
      "inputs": [],
      "name": "acceptOwnership",
      "outputs": [],
      "stateMutability": "nonpayable",
      "type": "function"
    },
    {
      "inputs": [
        {
          "internalType": "uint256",
          "name": "id",
          "type": "uint256"
        }
      ],
      "name": "approveProject",
      "outputs": [],
      "stateMutability": "nonpayable",
      "type": "function"
    },
    {
      "inputs": [
        {
          "internalType": "uint256",
          "name": "id",
          "type": "uint256"
        }
      ],
      "name": "claimTokens",
      "outputs": [],
      "stateMutability": "nonpayable",
      "type": "function"
    },
    {
      "inputs": [
        {
          "internalType": "uint256",
          "name": "id",
          "type": "uint256"
        },
        {
          "internalType": "uint256",
          "name": "usdcAmount",
          "type": "uint256"
        }
      ],
      "name": "contribute",
      "outputs": [],
      "stateMutability": "nonpayable",
      "type": "function"
    },
    {
      "inputs": [
        {
          "internalType": "uint256",
          "name": "",
          "type": "uint256"
        },
        {
          "internalType": "address",
          "name": "",
          "type": "address"
        }
      ],
      "name": "contributions",
      "outputs": [
        {
          "internalType": "uint256",
          "name": "usdcAmount",
          "type": "uint256"
        },
        {
          "internalType": "uint256",
          "name": "tokenAmount",
          "type": "uint256"
        },
        {
          "internalType": "bool",
          "name": "claimed",
          "type": "bool"
        }
      ],
      "stateMutability": "view",
      "type": "function"
    },
    {
      "inputs": [
        {
          "internalType": "uint256",
          "name": "amount",
          "type": "uint256"
        }
      ],
      "name": "deployIdle",
      "outputs": [],
      "stateMutability": "nonpayable",
      "type": "function"
    },
    {
      "inputs": [
        {
          "internalType": "uint256",
          "name": "id",
          "type": "uint256"
        }
      ],
      "name": "finalizeSale",
      "outputs": [],
      "stateMutability": "nonpayable",
      "type": "function"
    },
    {
      "inputs": [
        {
          "internalType": "uint256",
          "name": "id",
          "type": "uint256"
        },
        {
          "internalType": "address",
          "name": "user",
          "type": "address"
        }
      ],
      "name": "getContribution",
      "outputs": [
        {
          "components": [
            {
              "internalType": "uint256",
              "name": "usdcAmount",
              "type": "uint256"
            },
            {
              "internalType": "uint256",
              "name": "tokenAmount",
              "type": "uint256"
            },
            {
              "internalType": "bool",
              "name": "claimed",
              "type": "bool"
            }
          ],
          "internalType": "struct WikiIEOPlatform.Contribution",
          "name": "",
          "type": "tuple"
        }
      ],
      "stateMutability": "view",
      "type": "function"
    },
    {
      "inputs": [
        {
          "internalType": "uint256",
          "name": "id",
          "type": "uint256"
        }
      ],
      "name": "getProject",
      "outputs": [
        {
          "components": [
            {
              "internalType": "address",
              "name": "projectOwner",
              "type": "address"
            },
            {
              "internalType": "string",
              "name": "name",
              "type": "string"
            },
            {
              "internalType": "string",
              "name": "tokenSymbol",
              "type": "string"
            },
            {
              "internalType": "address",
              "name": "saleToken",
              "type": "address"
            },
            {
              "internalType": "uint256",
              "name": "totalSupply",
              "type": "uint256"
            },
            {
              "internalType": "uint256",
              "name": "hardcap",
              "type": "uint256"
            },
            {
              "internalType": "uint256",
              "name": "softcap",
              "type": "uint256"
            },
            {
              "internalType": "uint256",
              "name": "tokenPrice",
              "type": "uint256"
            },
            {
              "internalType": "uint256",
              "name": "startTime",
              "type": "uint256"
            },
            {
              "internalType": "uint256",
              "name": "endTime",
              "type": "uint256"
            },
            {
              "internalType": "uint256",
              "name": "raised",
              "type": "uint256"
            },
            {
              "internalType": "uint256",
              "name": "protocolFee",
              "type": "uint256"
            },
            {
              "internalType": "uint256",
              "name": "protocolTokens",
              "type": "uint256"
            },
            {
              "internalType": "uint256",
              "name": "protocolTokensVested",
              "type": "uint256"
            },
            {
              "internalType": "uint256",
              "name": "vestingStart",
              "type": "uint256"
            },
            {
              "internalType": "uint256",
              "name": "wikBond",
              "type": "uint256"
            },
            {
              "internalType": "enum WikiIEOPlatform.SaleStatus",
              "name": "status",
              "type": "uint8"
            },
            {
              "internalType": "bool",
              "name": "exclusivityActive",
              "type": "bool"
            },
            {
              "internalType": "uint256",
              "name": "exclusivityExpiry",
              "type": "uint256"
            }
          ],
          "internalType": "struct WikiIEOPlatform.IEOProject",
          "name": "",
          "type": "tuple"
        }
      ],
      "stateMutability": "view",
      "type": "function"
    },
    {
      "inputs": [],
      "name": "idleYieldRouter",
      "outputs": [
        {
          "internalType": "contract IIdleYieldRouter",
          "name": "",
          "type": "address"
        }
      ],
      "stateMutability": "view",
      "type": "function"
    },
    {
      "inputs": [],
      "name": "owner",
      "outputs": [
        {
          "internalType": "address",
          "name": "",
          "type": "address"
        }
      ],
      "stateMutability": "view",
      "type": "function"
    },
    {
      "inputs": [],
      "name": "pendingOwner",
      "outputs": [
        {
          "internalType": "address",
          "name": "",
          "type": "address"
        }
      ],
      "stateMutability": "view",
      "type": "function"
    },
    {
      "inputs": [],
      "name": "projectCount",
      "outputs": [
        {
          "internalType": "uint256",
          "name": "",
          "type": "uint256"
        }
      ],
      "stateMutability": "view",
      "type": "function"
    },
    {
      "inputs": [
        {
          "internalType": "uint256",
          "name": "",
          "type": "uint256"
        }
      ],
      "name": "projects",
      "outputs": [
        {
          "internalType": "address",
          "name": "projectOwner",
          "type": "address"
        },
        {
          "internalType": "string",
          "name": "name",
          "type": "string"
        },
        {
          "internalType": "string",
          "name": "tokenSymbol",
          "type": "string"
        },
        {
          "internalType": "address",
          "name": "saleToken",
          "type": "address"
        },
        {
          "internalType": "uint256",
          "name": "totalSupply",
          "type": "uint256"
        },
        {
          "internalType": "uint256",
          "name": "hardcap",
          "type": "uint256"
        },
        {
          "internalType": "uint256",
          "name": "softcap",
          "type": "uint256"
        },
        {
          "internalType": "uint256",
          "name": "tokenPrice",
          "type": "uint256"
        },
        {
          "internalType": "uint256",
          "name": "startTime",
          "type": "uint256"
        },
        {
          "internalType": "uint256",
          "name": "endTime",
          "type": "uint256"
        },
        {
          "internalType": "uint256",
          "name": "raised",
          "type": "uint256"
        },
        {
          "internalType": "uint256",
          "name": "protocolFee",
          "type": "uint256"
        },
        {
          "internalType": "uint256",
          "name": "protocolTokens",
          "type": "uint256"
        },
        {
          "internalType": "uint256",
          "name": "protocolTokensVested",
          "type": "uint256"
        },
        {
          "internalType": "uint256",
          "name": "vestingStart",
          "type": "uint256"
        },
        {
          "internalType": "uint256",
          "name": "wikBond",
          "type": "uint256"
        },
        {
          "internalType": "enum WikiIEOPlatform.SaleStatus",
          "name": "status",
          "type": "uint8"
        },
        {
          "internalType": "bool",
          "name": "exclusivityActive",
          "type": "bool"
        },
        {
          "internalType": "uint256",
          "name": "exclusivityExpiry",
          "type": "uint256"
        }
      ],
      "stateMutability": "view",
      "type": "function"
    },
    {
      "inputs": [
        {
          "internalType": "address",
          "name": "",
          "type": "address"
        },
        {
          "internalType": "uint256",
          "name": "",
          "type": "uint256"
        }
      ],
      "name": "projectsByOwner",
      "outputs": [
        {
          "internalType": "uint256",
          "name": "",
          "type": "uint256"
        }
      ],
      "stateMutability": "view",
      "type": "function"
    },
    {
      "inputs": [
        {
          "internalType": "uint256",
          "name": "amount",
          "type": "uint256"
        },
        {
          "internalType": "string",
          "name": "reason",
          "type": "string"
        }
      ],
      "name": "recallIdle",
      "outputs": [],
      "stateMutability": "nonpayable",
      "type": "function"
    },
    {
      "inputs": [
        {
          "internalType": "string",
          "name": "name",
          "type": "string"
        },
        {
          "internalType": "string",
          "name": "symbol",
          "type": "string"
        },
        {
          "internalType": "address",
          "name": "saleToken",
          "type": "address"
        },
        {
          "internalType": "uint256",
          "name": "totalSupply",
          "type": "uint256"
        },
        {
          "internalType": "uint256",
          "name": "hardcap",
          "type": "uint256"
        },
        {
          "internalType": "uint256",
          "name": "softcap",
          "type": "uint256"
        },
        {
          "internalType": "uint256",
          "name": "tokenPrice",
          "type": "uint256"
        },
        {
          "internalType": "uint256",
          "name": "startTime",
          "type": "uint256"
        },
        {
          "internalType": "uint256",
          "name": "endTime",
          "type": "uint256"
        }
      ],
      "name": "registerProject",
      "outputs": [
        {
          "internalType": "uint256",
          "name": "id",
          "type": "uint256"
        }
      ],
      "stateMutability": "nonpayable",
      "type": "function"
    },
    {
      "inputs": [],
      "name": "renounceOwnership",
      "outputs": [],
      "stateMutability": "nonpayable",
      "type": "function"
    },
    {
      "inputs": [
        {
          "internalType": "address",
          "name": "router",
          "type": "address"
        }
      ],
      "name": "setIdleYieldRouter",
      "outputs": [],
      "stateMutability": "nonpayable",
      "type": "function"
    },
    {
      "inputs": [
        {
          "internalType": "address",
          "name": "_tl",
          "type": "address"
        }
      ],
      "name": "setTimelock",
      "outputs": [],
      "stateMutability": "nonpayable",
      "type": "function"
    },
    {
      "inputs": [
        {
          "internalType": "uint256",
          "name": "id",
          "type": "uint256"
        }
      ],
      "name": "slashExclusivity",
      "outputs": [],
      "stateMutability": "nonpayable",
      "type": "function"
    },
    {
      "inputs": [],
      "name": "timelock",
      "outputs": [
        {
          "internalType": "address",
          "name": "",
          "type": "address"
        }
      ],
      "stateMutability": "view",
      "type": "function"
    },
    {
      "inputs": [],
      "name": "totalProtocolFees",
      "outputs": [
        {
          "internalType": "uint256",
          "name": "",
          "type": "uint256"
        }
      ],
      "stateMutability": "view",
      "type": "function"
    },
    {
      "inputs": [],
      "name": "totalRaised",
      "outputs": [
        {
          "internalType": "uint256",
          "name": "",
          "type": "uint256"
        }
      ],
      "stateMutability": "view",
      "type": "function"
    },
    {
      "inputs": [
        {
          "internalType": "address",
          "name": "newOwner",
          "type": "address"
        }
      ],
      "name": "transferOwnership",
      "outputs": [],
      "stateMutability": "nonpayable",
      "type": "function"
    },
    {
      "inputs": [],
      "name": "treasury",
      "outputs": [
        {
          "internalType": "address",
          "name": "",
          "type": "address"
        }
      ],
      "stateMutability": "view",
      "type": "function"
    }
  ],
  "bytecode": "0x60c03461024c57601f61247538819003918201601f19168301916001600160401b038311848410176102505780849260809460405283398101031261024c5761004781610264565b9061005460208201610264565b61006060408301610264565b916001600160a01b039061007690606001610264565b1692831561023957600180546001600160a01b03199081169091555f80549182168617815560405195916001600160a01b0316907f8be0079c531659141344cd1fd0a4f28419497f9722a3daafe3b4186f6b6457e09080a360017f9b779b17422d0df92223018b32b4d1fa46e071723d6817e2486d003becc55f00556001600160a01b031692831561020457506001600160a01b03169081156101cd576001600160a01b03169182156101885760805260a052600680546001600160a01b0319169190911790556040516121fc908161027982396080518181816108d701528181610b0b01528181610cfa01528181610f370152611132015260a05181818161117901528181611a4e0152611bbf0152f35b60405162461bcd60e51b815260206004820152601460248201527f57696b693a207a65726f205f74726561737572790000000000000000000000006044820152606490fd5b60405162461bcd60e51b815260206004820152600f60248201526e57696b693a207a65726f205f77696b60881b6044820152606490fd5b62461bcd60e51b815260206004820152601060248201526f57696b693a207a65726f205f7573646360801b6044820152606490fd5b631e4fbdf760e01b5f525f60045260245ffd5b5f80fd5b634e487b7160e01b5f52604160045260245ffd5b51906001600160a01b038216820361024c5756fe6101206040526004361015610012575f80fd5b5f803560e01c8063107046bd14611c77578063249d39e914611c5b57806327a1ede114611b355780632b86ae3814611b16578063366a839614611afa57806336fbad2614611add5780633d891f5914611a7d57806340b0229e14611a3957806346e04a2f1461187f57806361d027b3146118575780636f9d016e1461183c578063715018a6146117d95780637684a9901461105657806379ba509714610fd15780637be613ca14610f8e5780637e3fef0214610f6657806389a3027114610f225780638c59091714610c4d5780638da5cb5b14610c26578063aa92938014610a10578063ae0bac35146109ec578063b58e431614610863578063bdacb303146107dc578063be378228146107bf578063c5c4744c146107a1578063d33219b414610778578063e081dbf9146106df578063e30c3978146106b6578063e6bc01a2146105cc578063e9d916e2146105b0578063f0f3f2c8146102dc578063f2fde38b1461026f578063f482086814610218578063f526e39a146101fa5763fc69d8361461019c575f80fd5b346101f75760203660031901126101f7576004356101b8612103565b60106101c382611e10565b5001805460ff191660011790557ffc534544f8ed1b516bf078b4ae88509d8f81f4fafefb10e9aad53e3e1fbce9bb8280a280f35b80fd5b50346101f757806003193601126101f7576020600854604051908152f35b50346101f75760403660031901126101f757610232611fba565b6001600160a01b03168152600560205260408120805460243592908310156101f75760206102608484611ffe565b90549060031b1c604051908152f35b50346101f75760203660031901126101f757610289611fba565b610291612103565b600180546001600160a01b0319166001600160a01b0392831690811790915582549091167f38d16b8cac22d99fc7c124b9cd0de2d3fa1faef420bfe791d8c362d765e227008380a380f35b50346101f75760203660031901126101f757806102406040516102fe81611e78565b82815260606020820152606060408201528260608201528260808201528260a08201528260c08201528260e08201528261010082015282610120820152826101408201528261016082015282610180820152826101a0820152826101c0820152826101e082015282610200820152826102208201520152610380600435611e10565b506040519161038e83611e78565b81546001600160a01b031683526103a760018301611ed3565b60208401526103b860028301611ed3565b604084015260038201546001600160a01b031660608401526004820154608084015260058083015460a0850152600683015460c0850152600783015460e085015260088301546101008501526009830154610120850152600a830154610140850152600b830154610160850152600c830154610180850152600d8301546101a0850152600e8301546101c0850152600f8301546101e085015260108301549160ff83169182101561059c57506011929160ff9161020086015260081c161515610220840152015461024082015260405180916020825260018060a01b0381511660208301526102406104d46104be60208401516102606040870152610280860190611f73565b6040840151858203601f19016060870152611f73565b9160018060a01b036060820151166080850152608081015160a085015260a081015160c085015260c081015160e085015260e08101516101008501526101008101516101208501526101208101516101408501526101408101516101608501526101608101516101808501526101808101516101a08501526101a08101516101c08501526101c08101516101e08501526101e0810151610200850152610584610200820151610220860190611f97565b61022081015115158285015201516102608301520390f35b634e487b7160e01b81526021600452602490fd5b50346101f757806003193601126101f757602060405160c88152f35b50346101f75760403660031901126101f7578060243567ffffffffffffffff81116106b3576105ff903690600401611fd0565b82546001600160a01b03163314801561069f575b61061c906120c6565b6009546001600160a01b0316918261063357505050f35b823b1561069a5761066d928492836040518096819582946338d44ad560e01b84526004356004850152604060248501526044840191612066565b03925af1801561068f5761067e5750f35b8161068891611eb1565b6101f75780f35b6040513d84823e3d90fd5b505050fd5b506009546001600160a01b03163314610613565b50fd5b50346101f757806003193601126101f7576001546040516001600160a01b039091168152602090f35b50346101f75760403660031901126101f75760406106fb611fa4565b918082805161070981611e95565b828152826020820152015260043581526004602052209060018060a01b03165f52602052606060405f2060405161073f81611e95565b815491828252604060ff600260018401549360208601948552015416920191151582526040519283525160208301525115156040820152f35b50346101f757806003193601126101f7576002546040516001600160a01b039091168152602090f35b50346101f757806003193601126101f7576020600754604051908152f35b50346101f757806003193601126101f757602060405161012c8152f35b50346101f75760203660031901126101f7576107f6611fba565b6107fe612103565b6001600160a01b03168015610828576bffffffffffffffffffffffff60a01b600254161760025580f35b60405162461bcd60e51b815260206004820152601360248201527257696b693a207a65726f2074696d656c6f636b60681b6044820152606490fd5b50346109675760203660031901126109675760043560018060a01b035f5416331480156109d8575b610894906120c6565b6009546001600160a01b031680156109a25760405163095ea7b360e01b81526001600160a01b03909116600482015260248101829052602081806044810103815f7f00000000000000000000000000000000000000000000000000000000000000006001600160a01b03165af1801561095c5761096b575b506009546001600160a01b031690813b15610967575f91602483926040519485938492630f6baa0f60e21b845260048401525af1801561095c5761094e575080f35b61095a91505f90611eb1565b005b6040513d5f823e3d90fd5b5f80fd5b6020813d60201161099a575b8161098460209383611eb1565b810103126109675751801515811461090c575f80fd5b3d9150610977565b60405162461bcd60e51b815260206004820152600e60248201526d149bdd5d195c881b9bdd081cd95d60921b6044820152606490fd5b506009546001600160a01b0316331461088b565b34610967575f366003190112610967576020604051690a968163f0a57b4000008152f35b3461096757602036600319011261096757600435610a2c61216e565b610a3581611e10565b50601081019060ff8254166005811015610c12576001610a559114612086565b600981015442118015610c00575b15610bca57600a81019182549260068301548410610b855761012c840284810461012c1485151715610b7157612710900491828503948511610b7157600b8401839055805461ffff19166101031790556301e1338042908101908110610b71577f52c66055cf7320a956274f218515348b0138fe56ed320fef5d3d13e1f120dbef9484610b51926011604097015542600e820155610b0385600854612013565b6008556006547f00000000000000000000000000000000000000000000000000000000000000009190610b419087906001600160a01b031684612116565b546001600160a01b031690612116565b549082519182526020820152a260015f805160206121a783398151915255005b634e487b7160e01b5f52601160045260245ffd5b60405162461bcd60e51b815260206004820152601860248201527f49454f3a20736f6674636170206e6f74207265616368656400000000000000006044820152606490fd5b60405162461bcd60e51b815260206004820152600e60248201526d125153ce881b9bdd08195b99195960921b6044820152606490fd5b50600a81015460058201541115610a63565b634e487b7160e01b5f52602160045260245ffd5b34610967575f366003190112610967575f546040516001600160a01b039091168152602090f35b3461096757604036600319011261096757600435602435610c6c61216e565b610c7582611e10565b5060ff6010820154166005811015610c12576001610c939114612086565b600881015442101580610f14575b15610edd57600a810190610cb6838354612013565b600582015410610ea057629896808310610e6c57670de0b6b3a7640000830290838204670de0b6b3a76400001484151715610b715760070154908115610e585704907f00000000000000000000000000000000000000000000000000000000000000006040516323b872dd60e01b5f5233600452306024528460445260205f60648180865af19060015f5114821615610e37575b6040525f60605215610e1757509160609183610d88837fdcfa71ee125a676f843733d9d39dce2c918ecf9e92f96db4f24bdb5244ed68a09654612013565b9055845f52600460205260405f2060018060a01b0333165f5260205260405f20610db3838254612013565b9055845f52600460205260405f2060018060a01b0333165f52602052600160405f2001610de1828254612013565b9055610def82600754612013565b6007556040519133835260208301526040820152a260015f805160206121a783398151915255005b635274afe760e01b5f9081526001600160a01b0391909116600452602490fd5b906001811516610e4f57823b15153d15161690610d4a565b503d5f823e3d90fd5b634e487b7160e01b5f52601260045260245ffd5b60405162461bcd60e51b815260206004820152600c60248201526b049454f3a206d696e202431360a41b6044820152606490fd5b60405162461bcd60e51b8152602060048201526015602482015274125153ce881a185c9918d85c08195e18d959591959605a1b6044820152606490fd5b60405162461bcd60e51b815260206004820152600f60248201526e49454f3a206e6f742061637469766560881b6044820152606490fd5b506009810154421115610ca1565b34610967575f366003190112610967576040517f00000000000000000000000000000000000000000000000000000000000000006001600160a01b03168152602090f35b34610967575f366003190112610967576009546040516001600160a01b039091168152602090f35b3461096757602036600319011261096757610fa7611fba565b610faf612103565b600980546001600160a01b0319166001600160a01b0392909216919091179055005b34610967575f36600319011261096757600154336001600160a01b039091160361104357600180546001600160a01b03199081169091555f805433928116831782556001600160a01b0316907f8be0079c531659141344cd1fd0a4f28419497f9722a3daafe3b4186f6b6457e09080a3005b63118cdaa760e01b5f523360045260245ffd5b34610967576101203660031901126109675760043567ffffffffffffffff811161096757611088903690600401611fd0565b9060243567ffffffffffffffff8111610967576110a9903690600401611fd0565b90926044356001600160a01b03811693929084900361096757608435946064359461010435919060e43560c43560a4356110e161216e565b808b11806117d0575b1561179b5742831180611792575b1561175c578115611725576006546040516323b872dd60e01b5f908152336004526001600160a01b0390921660245264012a05f2006044527f00000000000000000000000000000000000000000000000000000000000000009160209060648180865af19060015f511482161561170d575b6040525f60605215610e1757507f00000000000000000000000000000000000000000000000000000000000000006040516323b872dd60e01b5f523360045230602452690a968163f0a57b40000060445260205f60648180865af19060015f51148216156116f5575b6040525f60605215610e17575060085464012a05f2008101809111610b71576008556003549960c881029481860460c81482151715610b715761123d612710978b9a6112318e6040519d8e61122781611e78565b3390523691612020565b60208d01523691612020565b60408a0152606089015260808801528a60a088015260c087015260e0860152610100850152826101208501525f6101408501525f610160850152046101808301525f6101a08301526101c0820152690a968163f0a57b4000006101e08201525f6102008201525f6102208201525f610240820152600160401b84101561153e57600184016003556112cd84611e10565b9190916116e257805182546001600160a01b0319166001600160a01b0391909116178255602081015180519067ffffffffffffffff821161153e5781906113176001860154611e40565b601f8111611692575b50602090601f8311600114611625575f9261161a575b50508160011b915f199060031b1c19161760018301555b604081015180519067ffffffffffffffff821161153e5781906113736002860154611e40565b601f81116115ca575b50602090601f831160011461155d575f92611552575b50508160011b915f199060031b1c19161760028301555b60608101516003830180546001600160a01b0319166001600160a01b03929092169190911790556080810151600483015560a081015160058084019190915560c0820151600684015560e0820151600784015561010082015160088401556101208201516009840155610140820151600a840155610160820151600b840155610180820151600c8401556101a0820151600d8401556101c0820151600e8401556101e0820151600f84015561020082015160108401929091821015610c12576011926102409260ff80198354169116178155610220820151151561ff0082549160081b169061ff0019161790550151910155335f52600560205260405f2091825491600160401b83101561153e576020956114ec84879660017f88d5a06eeeeefac9232ac3078802eb4038765e211f0985f4fdfcad50cf5b359a97018155611ffe565b81549060031b9087821b915f19901b191617905561151c60405193849333855260608a8601526060850191612066565b9060408301520390a260015f805160206121a783398151915255604051908152f35b634e487b7160e01b5f52604160045260245ffd5b015190508880611392565b9250600285015f52805f20905f935b601f19841685106115af576001945083601f19811610611597575b505050811b0160028301556113a9565b01515f1960f88460031b161c19169055888080611587565b8181015183556020948501946001909301929091019061156c565b909150600285015f5260205f20601f840160051c810160208510611613575b90849392915b601f830160051c8201811061160557505061137c565b5f81558594506001016115ef565b50806115e9565b015190508880611336565b9250600185015f52805f20905f935b601f1984168510611677576001945083601f1981161061165f575b505050811b01600183015561134d565b01515f1960f88460031b161c1916905588808061164f565b81810151835560209485019460019093019290910190611634565b909150600185015f5260205f20601f840160051c8101602085106116db575b90849392915b601f830160051c820181106116cd575050611320565b5f81558594506001016116b7565b50806116b1565b634e487b7160e01b5f525f60045260245ffd5b906001811516610e4f57823b15153d151616906111d3565b906001811516610e4f57823b15153d1516169061116a565b60405162461bcd60e51b815260206004820152600f60248201526e49454f3a207a65726f20707269636560881b6044820152606490fd5b60405162461bcd60e51b815260206004820152600e60248201526d49454f3a206261642074696d657360901b6044820152606490fd5b508286116110f8565b60405162461bcd60e51b815260206004820152600d60248201526c49454f3a20626164206361707360981b6044820152606490fd5b508015156110ea565b34610967575f366003190112610967576117f1612103565b600180546001600160a01b03199081169091555f80549182168155906001600160a01b03167f8be0079c531659141344cd1fd0a4f28419497f9722a3daafe3b4186f6b6457e08280a3005b34610967575f366003190112610967576020604051600c8152f35b34610967575f366003190112610967576006546040516001600160a01b039091168152602090f35b346109675760203660031901126109675760043561189b61216e565b6118a481611e10565b5060ff6010820154166005811015610c12576003036119ff5760030180546001600160a01b0316156119c5575f82815260046020908152604080832033845290915290206001810180549291831515806119b6575b1561197957600201805460ff1916600117905590547f880f2ef2613b092f1a0a819f294155c98667eb294b7e6bf7a3810278142c1a1c92611963929161194a919033906001600160a01b0316612116565b5460408051338152602081019290925290918291820190565b0390a260015f805160206121a783398151915255005b60405162461bcd60e51b815260206004820152601560248201527449454f3a206e6f7468696e6720746f20636c61696d60581b6044820152606490fd5b5060ff600282015416156118f9565b60405162461bcd60e51b8152602060048201526012602482015271125153ce881d1bdad95b881b9bdd081cd95d60721b6044820152606490fd5b60405162461bcd60e51b8152602060048201526012602482015271125153ce881b9bdd08199a5b985b1a5e995960721b6044820152606490fd5b34610967575f366003190112610967576040517f00000000000000000000000000000000000000000000000000000000000000006001600160a01b03168152602090f35b3461096757604036600319011261096757611a96611fa4565b6004355f52600460205260405f209060018060a01b03165f52602052606060405f2080549060ff600260018301549201541690604051928352602083015215156040820152f35b34610967575f366003190112610967576020600354604051908152f35b34610967575f36600319011261096757602060405161016d8152f35b34610967575f36600319011261096757602060405164012a05f2008152f35b3461096757602036600319011261096757600435611b51612103565b611b5a81611e10565b506010810190815460ff8160081c1615611c205760118201544211611bec577f557ceb77bc72cf307c6e478dc0770427a6bc211a9db6a7be547a037ad5ea913a92600f60209301915f8354935561ff0019169055611be38160018060a01b03600654167f0000000000000000000000000000000000000000000000000000000000000000612116565b604051908152a2005b60405162461bcd60e51b815260206004820152600c60248201526b125153ce88195e1c1a5c995960a21b6044820152606490fd5b60405162461bcd60e51b815260206004820152601360248201527249454f3a206e6f206578636c7573697669747960681b6044820152606490fd5b34610967575f3660031901126109675760206040516127108152f35b346109675760203660031901126109675760043560035481101561096757611c9e90611e10565b5080546001600160a01b031690611cb760018201611ed3565b60e052611cc660028201611ed3565b61010052600160a01b6001900360038201541660a05260048101549160058201546006830154600784015460088501546009860154600a87015490600b88015492600c89015494600d8a015496600e8b015498600f8c01549a60108d01549c6011015460805260405160c05260c0515260c051602001610260905260c0516102600160e05190611d5591611f73565b60c051810360c051604001526101005190611d6f91611f73565b9c60a05160c0516060015260c0516080015260c05160a0015260c05160c0015260c05160e0015260c051610100015260c051610120015260c051610140015260c051610160015260c051610180015260c0516101a0015260c0516101c0015260c0516101e0015260c0516102000160ff821690611deb91611f97565b60081c60ff16151560c051610220015260805160c051610240015260c051900360c051f35b600354811015611e2c5760035f52601260205f20910201905f90565b634e487b7160e01b5f52603260045260245ffd5b90600182811c92168015611e6e575b6020831014611e5a57565b634e487b7160e01b5f52602260045260245ffd5b91607f1691611e4f565b610260810190811067ffffffffffffffff82111761153e57604052565b6060810190811067ffffffffffffffff82111761153e57604052565b90601f8019910116810190811067ffffffffffffffff82111761153e57604052565b9060405191825f825492611ee684611e40565b8084529360018116908115611f515750600114611f0d575b50611f0b92500383611eb1565b565b90505f9291925260205f20905f915b818310611f35575050906020611f0b928201015f611efe565b6020919350806001915483858901015201910190918492611f1c565b905060209250611f0b94915060ff191682840152151560051b8201015f611efe565b805180835260209291819084018484015e5f828201840152601f01601f1916010190565b906005821015610c125752565b602435906001600160a01b038216820361096757565b600435906001600160a01b038216820361096757565b9181601f840112156109675782359167ffffffffffffffff8311610967576020838186019501011161096757565b8054821015611e2c575f5260205f2001905f90565b91908201809211610b7157565b92919267ffffffffffffffff821161153e576040519161204a601f8201601f191660200184611eb1565b829481845281830111610967578281602093845f960137010152565b908060209392818452848401375f828201840152601f01601f1916010190565b1561208d57565b60405162461bcd60e51b8152602060048201526011602482015270125153ce881b9bdd08185c1c1c9bdd9959607a1b6044820152606490fd5b156120cd57565b60405162461bcd60e51b815260206004820152600e60248201526d139bdd08185d5d1a1bdc9a5e995960921b6044820152606490fd5b5f546001600160a01b0316330361104357565b916040519163a9059cbb60e01b5f5260018060a01b031660045260245260205f60448180865af19060015f5114821615612156575b60405215610e175750565b906001811516610e4f57823b15153d1516169061214b565b60025f805160206121a783398151915254146121975760025f805160206121a783398151915255565b633ee5aeb560e01b5f5260045ffdfe9b779b17422d0df92223018b32b4d1fa46e071723d6817e2486d003becc55f00a26469706673582212208dda76be0baea49ce1d431d63c37fd87e7826eaf3ab337420c616e5ccfe882d264736f6c634300081a0033",
  "linkReferences": {},
  "deployedLinkReferences": {}
}