{
  "_format": "hh-sol-artifact-1",
  "contractName": "WikiDAOTreasury",
  "sourceName": "src/WikiDAOTreasury.sol",
  "abi": [
    {
      "inputs": [
        {
          "internalType": "address",
          "name": "_owner",
          "type": "address"
        },
        {
          "internalType": "address",
          "name": "_usdc",
          "type": "address"
        },
        {
          "internalType": "address",
          "name": "_wik",
          "type": "address"
        }
      ],
      "stateMutability": "nonpayable",
      "type": "constructor"
    },
    {
      "inputs": [],
      "name": "EnforcedPause",
      "type": "error"
    },
    {
      "inputs": [],
      "name": "ExpectedPause",
      "type": "error"
    },
    {
      "inputs": [
        {
          "internalType": "address",
          "name": "owner",
          "type": "address"
        }
      ],
      "name": "OwnableInvalidOwner",
      "type": "error"
    },
    {
      "inputs": [
        {
          "internalType": "address",
          "name": "account",
          "type": "address"
        }
      ],
      "name": "OwnableUnauthorizedAccount",
      "type": "error"
    },
    {
      "inputs": [],
      "name": "ReentrancyGuardReentrantCall",
      "type": "error"
    },
    {
      "inputs": [
        {
          "internalType": "address",
          "name": "token",
          "type": "address"
        }
      ],
      "name": "SafeERC20FailedOperation",
      "type": "error"
    },
    {
      "anonymous": false,
      "inputs": [
        {
          "indexed": true,
          "internalType": "address",
          "name": "wallet",
          "type": "address"
        },
        {
          "indexed": false,
          "internalType": "string",
          "name": "role",
          "type": "string"
        },
        {
          "indexed": false,
          "internalType": "uint256",
          "name": "salary",
          "type": "uint256"
        },
        {
          "indexed": false,
          "internalType": "uint256",
          "name": "frequency",
          "type": "uint256"
        }
      ],
      "name": "ContributorAdded",
      "type": "event"
    },
    {
      "anonymous": false,
      "inputs": [
        {
          "indexed": true,
          "internalType": "address",
          "name": "wallet",
          "type": "address"
        }
      ],
      "name": "ContributorRemoved",
      "type": "event"
    },
    {
      "anonymous": false,
      "inputs": [
        {
          "indexed": true,
          "internalType": "address",
          "name": "wallet",
          "type": "address"
        },
        {
          "indexed": false,
          "internalType": "uint256",
          "name": "newSalary",
          "type": "uint256"
        }
      ],
      "name": "ContributorUpdated",
      "type": "event"
    },
    {
      "anonymous": false,
      "inputs": [
        {
          "indexed": true,
          "internalType": "address",
          "name": "previousOwner",
          "type": "address"
        },
        {
          "indexed": true,
          "internalType": "address",
          "name": "newOwner",
          "type": "address"
        }
      ],
      "name": "OwnershipTransferStarted",
      "type": "event"
    },
    {
      "anonymous": false,
      "inputs": [
        {
          "indexed": true,
          "internalType": "address",
          "name": "previousOwner",
          "type": "address"
        },
        {
          "indexed": true,
          "internalType": "address",
          "name": "newOwner",
          "type": "address"
        }
      ],
      "name": "OwnershipTransferred",
      "type": "event"
    },
    {
      "anonymous": false,
      "inputs": [
        {
          "indexed": false,
          "internalType": "address",
          "name": "account",
          "type": "address"
        }
      ],
      "name": "Paused",
      "type": "event"
    },
    {
      "anonymous": false,
      "inputs": [
        {
          "indexed": true,
          "internalType": "uint256",
          "name": "id",
          "type": "uint256"
        }
      ],
      "name": "PaymentCancelled",
      "type": "event"
    },
    {
      "anonymous": false,
      "inputs": [
        {
          "indexed": true,
          "internalType": "uint256",
          "name": "id",
          "type": "uint256"
        },
        {
          "indexed": true,
          "internalType": "address",
          "name": "recipient",
          "type": "address"
        },
        {
          "indexed": false,
          "internalType": "uint256",
          "name": "amount",
          "type": "uint256"
        }
      ],
      "name": "PaymentExecuted",
      "type": "event"
    },
    {
      "anonymous": false,
      "inputs": [
        {
          "indexed": true,
          "internalType": "uint256",
          "name": "id",
          "type": "uint256"
        },
        {
          "indexed": true,
          "internalType": "address",
          "name": "recipient",
          "type": "address"
        },
        {
          "indexed": false,
          "internalType": "uint256",
          "name": "amount",
          "type": "uint256"
        },
        {
          "indexed": false,
          "internalType": "string",
          "name": "reason",
          "type": "string"
        }
      ],
      "name": "PaymentProposed",
      "type": "event"
    },
    {
      "anonymous": false,
      "inputs": [
        {
          "indexed": true,
          "internalType": "address",
          "name": "wallet",
          "type": "address"
        },
        {
          "indexed": false,
          "internalType": "string",
          "name": "role",
          "type": "string"
        },
        {
          "indexed": false,
          "internalType": "uint256",
          "name": "amount",
          "type": "uint256"
        },
        {
          "indexed": false,
          "internalType": "uint256",
          "name": "periods",
          "type": "uint256"
        }
      ],
      "name": "SalaryClaimed",
      "type": "event"
    },
    {
      "anonymous": false,
      "inputs": [
        {
          "indexed": true,
          "internalType": "address",
          "name": "from",
          "type": "address"
        },
        {
          "indexed": false,
          "internalType": "uint256",
          "name": "amount",
          "type": "uint256"
        },
        {
          "indexed": false,
          "internalType": "string",
          "name": "source",
          "type": "string"
        }
      ],
      "name": "TreasuryReceived",
      "type": "event"
    },
    {
      "anonymous": false,
      "inputs": [
        {
          "indexed": false,
          "internalType": "address",
          "name": "account",
          "type": "address"
        }
      ],
      "name": "Unpaused",
      "type": "event"
    },
    {
      "inputs": [],
      "name": "BPS",
      "outputs": [
        {
          "internalType": "uint256",
          "name": "",
          "type": "uint256"
        }
      ],
      "stateMutability": "view",
      "type": "function"
    },
    {
      "inputs": [],
      "name": "MAX_MONTHLY_SALARY",
      "outputs": [
        {
          "internalType": "uint256",
          "name": "",
          "type": "uint256"
        }
      ],
      "stateMutability": "view",
      "type": "function"
    },
    {
      "inputs": [],
      "name": "PAYMENT_TIMELOCK",
      "outputs": [
        {
          "internalType": "uint256",
          "name": "",
          "type": "uint256"
        }
      ],
      "stateMutability": "view",
      "type": "function"
    },
    {
      "inputs": [],
      "name": "SALARY_PERIOD",
      "outputs": [
        {
          "internalType": "uint256",
          "name": "",
          "type": "uint256"
        }
      ],
      "stateMutability": "view",
      "type": "function"
    },
    {
      "inputs": [],
      "name": "USDC",
      "outputs": [
        {
          "internalType": "contract IERC20",
          "name": "",
          "type": "address"
        }
      ],
      "stateMutability": "view",
      "type": "function"
    },
    {
      "inputs": [],
      "name": "WIK",
      "outputs": [
        {
          "internalType": "contract IERC20",
          "name": "",
          "type": "address"
        }
      ],
      "stateMutability": "view",
      "type": "function"
    },
    {
      "inputs": [],
      "name": "acceptOwnership",
      "outputs": [],
      "stateMutability": "nonpayable",
      "type": "function"
    },
    {
      "inputs": [
        {
          "internalType": "address",
          "name": "wallet",
          "type": "address"
        },
        {
          "internalType": "string",
          "name": "role",
          "type": "string"
        },
        {
          "internalType": "uint256",
          "name": "salary",
          "type": "uint256"
        },
        {
          "internalType": "enum WikiDAOTreasury.PayFrequency",
          "name": "frequency",
          "type": "uint8"
        }
      ],
      "name": "addContributor",
      "outputs": [],
      "stateMutability": "nonpayable",
      "type": "function"
    },
    {
      "inputs": [
        {
          "internalType": "address",
          "name": "",
          "type": "address"
        },
        {
          "internalType": "address",
          "name": "",
          "type": "address"
        }
      ],
      "name": "agents",
      "outputs": [
        {
          "internalType": "bool",
          "name": "",
          "type": "bool"
        }
      ],
      "stateMutability": "view",
      "type": "function"
    },
    {
      "inputs": [],
      "name": "allContributors",
      "outputs": [
        {
          "components": [
            {
              "internalType": "address",
              "name": "wallet",
              "type": "address"
            },
            {
              "internalType": "string",
              "name": "role",
              "type": "string"
            },
            {
              "internalType": "uint256",
              "name": "salaryPerPeriod",
              "type": "uint256"
            },
            {
              "internalType": "enum WikiDAOTreasury.PayFrequency",
              "name": "frequency",
              "type": "uint8"
            },
            {
              "internalType": "uint256",
              "name": "lastClaimTime",
              "type": "uint256"
            },
            {
              "internalType": "uint256",
              "name": "totalPaid",
              "type": "uint256"
            },
            {
              "internalType": "bool",
              "name": "active",
              "type": "bool"
            },
            {
              "internalType": "uint256",
              "name": "addedAt",
              "type": "uint256"
            }
          ],
          "internalType": "struct WikiDAOTreasury.Contributor[]",
          "name": "",
          "type": "tuple[]"
        }
      ],
      "stateMutability": "view",
      "type": "function"
    },
    {
      "inputs": [
        {
          "internalType": "address",
          "name": "agent",
          "type": "address"
        },
        {
          "internalType": "bool",
          "name": "enabled",
          "type": "bool"
        }
      ],
      "name": "authoriseAgent",
      "outputs": [],
      "stateMutability": "nonpayable",
      "type": "function"
    },
    {
      "inputs": [
        {
          "internalType": "uint256",
          "name": "",
          "type": "uint256"
        }
      ],
      "name": "budgetCategories",
      "outputs": [
        {
          "internalType": "string",
          "name": "name",
          "type": "string"
        },
        {
          "internalType": "uint256",
          "name": "monthlyBudget",
          "type": "uint256"
        },
        {
          "internalType": "uint256",
          "name": "spent",
          "type": "uint256"
        },
        {
          "internalType": "bool",
          "name": "active",
          "type": "bool"
        }
      ],
      "stateMutability": "view",
      "type": "function"
    },
    {
      "inputs": [
        {
          "internalType": "uint256",
          "name": "paymentId",
          "type": "uint256"
        }
      ],
      "name": "cancelPayment",
      "outputs": [],
      "stateMutability": "nonpayable",
      "type": "function"
    },
    {
      "inputs": [],
      "name": "claimSalary",
      "outputs": [],
      "stateMutability": "nonpayable",
      "type": "function"
    },
    {
      "inputs": [
        {
          "internalType": "address",
          "name": "contributor",
          "type": "address"
        }
      ],
      "name": "claimSalaryFor",
      "outputs": [
        {
          "internalType": "uint256",
          "name": "amount",
          "type": "uint256"
        }
      ],
      "stateMutability": "nonpayable",
      "type": "function"
    },
    {
      "inputs": [
        {
          "internalType": "address",
          "name": "wallet",
          "type": "address"
        }
      ],
      "name": "claimableAmount",
      "outputs": [
        {
          "internalType": "uint256",
          "name": "amount",
          "type": "uint256"
        },
        {
          "internalType": "uint256",
          "name": "periods",
          "type": "uint256"
        },
        {
          "internalType": "uint256",
          "name": "nextClaimAt",
          "type": "uint256"
        }
      ],
      "stateMutability": "view",
      "type": "function"
    },
    {
      "inputs": [
        {
          "internalType": "address",
          "name": "",
          "type": "address"
        }
      ],
      "name": "contributorIndex",
      "outputs": [
        {
          "internalType": "uint256",
          "name": "",
          "type": "uint256"
        }
      ],
      "stateMutability": "view",
      "type": "function"
    },
    {
      "inputs": [
        {
          "internalType": "uint256",
          "name": "",
          "type": "uint256"
        }
      ],
      "name": "contributors",
      "outputs": [
        {
          "internalType": "address",
          "name": "wallet",
          "type": "address"
        },
        {
          "internalType": "string",
          "name": "role",
          "type": "string"
        },
        {
          "internalType": "uint256",
          "name": "salaryPerPeriod",
          "type": "uint256"
        },
        {
          "internalType": "enum WikiDAOTreasury.PayFrequency",
          "name": "frequency",
          "type": "uint8"
        },
        {
          "internalType": "uint256",
          "name": "lastClaimTime",
          "type": "uint256"
        },
        {
          "internalType": "uint256",
          "name": "totalPaid",
          "type": "uint256"
        },
        {
          "internalType": "bool",
          "name": "active",
          "type": "bool"
        },
        {
          "internalType": "uint256",
          "name": "addedAt",
          "type": "uint256"
        }
      ],
      "stateMutability": "view",
      "type": "function"
    },
    {
      "inputs": [],
      "name": "dashboard",
      "outputs": [
        {
          "internalType": "uint256",
          "name": "usdcBalance",
          "type": "uint256"
        },
        {
          "internalType": "uint256",
          "name": "wikBalance",
          "type": "uint256"
        },
        {
          "internalType": "uint256",
          "name": "monthlyBurn",
          "type": "uint256"
        },
        {
          "internalType": "uint256",
          "name": "runwayMonths",
          "type": "uint256"
        },
        {
          "internalType": "uint256",
          "name": "totalSalaryPaid_",
          "type": "uint256"
        },
        {
          "internalType": "uint256",
          "name": "totalGrantsPaid_",
          "type": "uint256"
        },
        {
          "internalType": "uint256",
          "name": "contributorCount",
          "type": "uint256"
        },
        {
          "internalType": "uint256",
          "name": "activeContributors",
          "type": "uint256"
        }
      ],
      "stateMutability": "view",
      "type": "function"
    },
    {
      "inputs": [
        {
          "internalType": "uint256",
          "name": "paymentId",
          "type": "uint256"
        }
      ],
      "name": "executePayment",
      "outputs": [],
      "stateMutability": "nonpayable",
      "type": "function"
    },
    {
      "inputs": [],
      "name": "owner",
      "outputs": [
        {
          "internalType": "address",
          "name": "",
          "type": "address"
        }
      ],
      "stateMutability": "view",
      "type": "function"
    },
    {
      "inputs": [],
      "name": "pause",
      "outputs": [],
      "stateMutability": "nonpayable",
      "type": "function"
    },
    {
      "inputs": [],
      "name": "paused",
      "outputs": [
        {
          "internalType": "bool",
          "name": "",
          "type": "bool"
        }
      ],
      "stateMutability": "view",
      "type": "function"
    },
    {
      "inputs": [
        {
          "internalType": "uint256",
          "name": "",
          "type": "uint256"
        }
      ],
      "name": "payments",
      "outputs": [
        {
          "internalType": "address",
          "name": "recipient",
          "type": "address"
        },
        {
          "internalType": "uint256",
          "name": "amount",
          "type": "uint256"
        },
        {
          "internalType": "string",
          "name": "reason",
          "type": "string"
        },
        {
          "internalType": "uint256",
          "name": "proposedAt",
          "type": "uint256"
        },
        {
          "internalType": "bool",
          "name": "executed",
          "type": "bool"
        },
        {
          "internalType": "bool",
          "name": "cancelled",
          "type": "bool"
        },
        {
          "internalType": "address",
          "name": "proposedBy",
          "type": "address"
        }
      ],
      "stateMutability": "view",
      "type": "function"
    },
    {
      "inputs": [],
      "name": "pendingOwner",
      "outputs": [
        {
          "internalType": "address",
          "name": "",
          "type": "address"
        }
      ],
      "stateMutability": "view",
      "type": "function"
    },
    {
      "inputs": [
        {
          "internalType": "uint256",
          "name": "monthlyIncome",
          "type": "uint256"
        }
      ],
      "name": "projectedRunway",
      "outputs": [
        {
          "internalType": "uint256",
          "name": "currentBalance",
          "type": "uint256"
        },
        {
          "internalType": "uint256",
          "name": "monthlyBurn",
          "type": "uint256"
        },
        {
          "internalType": "uint256",
          "name": "monthlyNet",
          "type": "uint256"
        },
        {
          "internalType": "uint256",
          "name": "runwayMonths",
          "type": "uint256"
        }
      ],
      "stateMutability": "view",
      "type": "function"
    },
    {
      "inputs": [
        {
          "internalType": "address",
          "name": "recipient",
          "type": "address"
        },
        {
          "internalType": "uint256",
          "name": "amount",
          "type": "uint256"
        },
        {
          "internalType": "string",
          "name": "reason",
          "type": "string"
        }
      ],
      "name": "proposePayment",
      "outputs": [
        {
          "internalType": "uint256",
          "name": "paymentId",
          "type": "uint256"
        }
      ],
      "stateMutability": "nonpayable",
      "type": "function"
    },
    {
      "inputs": [
        {
          "internalType": "uint256",
          "name": "amount",
          "type": "uint256"
        },
        {
          "internalType": "string",
          "name": "source",
          "type": "string"
        }
      ],
      "name": "receiveIncome",
      "outputs": [],
      "stateMutability": "nonpayable",
      "type": "function"
    },
    {
      "inputs": [
        {
          "internalType": "address",
          "name": "wallet",
          "type": "address"
        }
      ],
      "name": "removeContributor",
      "outputs": [],
      "stateMutability": "nonpayable",
      "type": "function"
    },
    {
      "inputs": [],
      "name": "renounceOwnership",
      "outputs": [],
      "stateMutability": "nonpayable",
      "type": "function"
    },
    {
      "inputs": [
        {
          "internalType": "address",
          "name": "_tl",
          "type": "address"
        }
      ],
      "name": "setTimelock",
      "outputs": [],
      "stateMutability": "nonpayable",
      "type": "function"
    },
    {
      "inputs": [],
      "name": "timelock",
      "outputs": [
        {
          "internalType": "address",
          "name": "",
          "type": "address"
        }
      ],
      "stateMutability": "view",
      "type": "function"
    },
    {
      "inputs": [],
      "name": "totalAuditsPaid",
      "outputs": [
        {
          "internalType": "uint256",
          "name": "",
          "type": "uint256"
        }
      ],
      "stateMutability": "view",
      "type": "function"
    },
    {
      "inputs": [],
      "name": "totalGrantsPaid",
      "outputs": [
        {
          "internalType": "uint256",
          "name": "",
          "type": "uint256"
        }
      ],
      "stateMutability": "view",
      "type": "function"
    },
    {
      "inputs": [],
      "name": "totalReceived",
      "outputs": [
        {
          "internalType": "uint256",
          "name": "",
          "type": "uint256"
        }
      ],
      "stateMutability": "view",
      "type": "function"
    },
    {
      "inputs": [],
      "name": "totalSalaryPaid",
      "outputs": [
        {
          "internalType": "uint256",
          "name": "",
          "type": "uint256"
        }
      ],
      "stateMutability": "view",
      "type": "function"
    },
    {
      "inputs": [
        {
          "internalType": "address",
          "name": "newOwner",
          "type": "address"
        }
      ],
      "name": "transferOwnership",
      "outputs": [],
      "stateMutability": "nonpayable",
      "type": "function"
    },
    {
      "inputs": [],
      "name": "unpause",
      "outputs": [],
      "stateMutability": "nonpayable",
      "type": "function"
    },
    {
      "inputs": [
        {
          "internalType": "address",
          "name": "wallet",
          "type": "address"
        },
        {
          "internalType": "uint256",
          "name": "newSalary",
          "type": "uint256"
        }
      ],
      "name": "updateContributorSalary",
      "outputs": [],
      "stateMutability": "nonpayable",
      "type": "function"
    }
  ],
  "bytecode": "0x60c06040523461040857612ea96060813803918261001c8161043f565b9384928339810103126104085761003281610464565b61004a604061004360208501610464565b9301610464565b6001600160a01b039091169182156103f557600180546001600160a01b03199081169091555f80549182168517815560405194916001600160a01b0316907f8be0079c531659141344cd1fd0a4f28419497f9722a3daafe3b4186f6b6457e09080a360017f9b779b17422d0df92223018b32b4d1fa46e071723d6817e2486d003becc55f00556001600160a01b03169182156103c057506001600160a01b03169081156103895760805260a05261014061010261040c565b61010c604061043f565b600d81526c5465616d2053616c617269657360981b602082015281525f60208201525f604082015260016060820152610478565b61018b61014b61040c565b610155604061043f565b600f81526e53656375726974792041756469747360881b602082015281525f60208201525f604082015260016060820152610478565b6101d261019661040c565b6101a0604061043f565b600b81526a11195d995b1bdc1b595b9d60aa1b602082015281525f60208201525f604082015260016060820152610478565b6102176101dd61040c565b6101e7604061043f565b60098152684d61726b6574696e6760b81b602082015281525f60208201525f604082015260016060820152610478565b61026161022261040c565b61022c604061043f565b600e81526d496e66726173747275637475726560901b602082015281525f60208201525f604082015260016060820152610478565b6102ad61026c61040c565b610276604061043f565b601081526f436f6d6d756e697479204772616e747360801b602082015281525f60208201525f604082015260016060820152610478565b6102fb6102b861040c565b6102c2604061043f565b60128152714c6567616c202620436f6d706c69616e636560701b602082015281525f60208201525f604082015260016060820152610478565b61033e61030661040c565b610310604061043f565b60078152665265736572766560c81b602082015281525f60208201525f604082015260016060820152610478565b6040516128689081610641823960805181818161032a01528181610a5801528181610d69015281816110aa0152818161137c0152611e23015260a051818181610aad0152611b060152f35b60405162461bcd60e51b815260206004820152600f60248201526e54726561733a207a65726f2057494b60881b6044820152606490fd5b62461bcd60e51b815260206004820152601060248201526f54726561733a207a65726f205553444360801b6044820152606490fd5b631e4fbdf760e01b5f525f60045260245ffd5b5f80fd5b60405190608082016001600160401b0381118382101761042b57604052565b634e487b7160e01b5f52604160045260245ffd5b6040519190601f01601f191682016001600160401b0381118382101761042b57604052565b51906001600160a01b038216820361040857565b6006546801000000000000000081101561042b57600181018060065581101561062c5760065f528151805160029290921b7ff652222313e28459528d920b65115c16c04f3efc82aaedc97be59f3f377c0d3f0191906001600160401b03821161042b578254600181811c91168015610622575b602082101461060e57601f81116105c9575b50602090601f8311600114610562579180606094926003945f92610557575b50508160011b915f1990851b1c19161781555b602084015160018201556040840151600282015501910151151560ff80198354169116179055565b015190505f8061051c565b90601f19831691845f52815f20925f5b8181106105b15750926001928592600396606098961061059a575b505050811b01815561052f565b01515f1983871b60f8161c191690555f808061058d565b92936020600181928786015181550195019301610572565b835f5260205f20601f840160051c81019160208510610604575b601f0160051c01905b8181106105f957506104fd565b5f81556001016105ec565b90915081906105e3565b634e487b7160e01b5f52602260045260245ffd5b90607f16906104eb565b634e487b7160e01b5f52603260045260245ffdfe60806040526004361015610011575f80fd5b5f3560e01c80631071626a14611fbe578063162a0cf814611da857806316306fd514611d4e5780631953ccb214611d31578063249d39e914611d1557806328c1f70114611cf8578063332467f314611c565780633cb5d10014611ba35780633f4ba83a14611b3557806340b0229e14611af15780634c1ac7881461199d57806353234eb4146115be57806354c8e5881461155c57806355ca5a881461152457806358afbf55146115075780635a2e3be4146112995780635c975abb146112745780636116c74914611076578063715018a61461101357806379ba509714610f8e5780638422927d14610ed55780638456cb5914610e7457806387d8178914610dce5780638988504914610d9857806389a3027114610d545780638da5cb5b14610d2d57806391ed7e3314610cb2578063a2c9409914610a2d578063a3c2c46214610a10578063b3f3ab5c14610987578063b9488b6d146105a8578063bc4c3e8d1461058b578063bdacb30314610548578063ca59cab814610529578063d33219b414610501578063d4915732146104e4578063d7b92d4514610264578063e30c39781461023c5763f2fde38b146101c6575f80fd5b34610238576020366003190112610238576101df6121e9565b6101e76127d3565b60018060a01b0316806bffffffffffffffffffffffff60a01b600154161760015560018060a01b035f54167f38d16b8cac22d99fc7c124b9cd0de2d3fa1faef420bfe791d8c362d765e227005f80a3005b5f80fd5b34610238575f366003190112610238576001546040516001600160a01b039091168152602090f35b34610238575f3660031901126102385761027c6126fc565b610284612734565b335f52600460205260405f205461029c8115156124e1565b5f1981019081116104d0576102b0906121ff565b506102c160ff60068301541661252d565b8054336001600160a01b0390911603610495576102e460ff6003830154166127e6565b600482019081546102fe826102f983426123e6565b612579565b91821561045057610313600286015484612597565b6040516370a0823160e01b815230600482015290927f00000000000000000000000000000000000000000000000000000000000000009290916020816024816001600160a01b0388165afa908115610445575f91610407575b50956103b485936103ae6103dd96946103a8877f791b34300978f24fbcf212710f232e2711573dcbc70aa316c38fcccabcafc0009c1015612316565b89612597565b90612309565b9055600587016103c5838254612309565b90556103d382600754612309565b6007553390612752565b6103f16040519283926001339701846125aa565b0390a260015f8051602061281383398151915255005b9293919690506020833d60201161043d575b8161042660209383612103565b8101031261023857915191959092916103b461036c565b3d9150610419565b6040513d5f823e3d90fd5b60405162461bcd60e51b815260206004820152601860248201527f54726561733a206e6f2073616c617279206475652079657400000000000000006044820152606490fd5b60405162461bcd60e51b8152602060048201526013602482015272151c99585cce881ddc9bdb99c81dd85b1b195d606a1b6044820152606490fd5b634e487b7160e01b5f52601160045260245ffd5b34610238575f366003190112610238576020600854604051908152f35b34610238575f366003190112610238576002546040516001600160a01b039091168152602090f35b34610238575f36600319011261023857602060405164174876e8008152f35b34610238576020366003190112610238576105616121e9565b6105696127d3565b600280546001600160a01b0319166001600160a01b0392909216919091179055005b34610238575f366003190112610238576020600754604051908152f35b34610238576060366003190112610238576105c16121e9565b60443567ffffffffffffffff8111610238576105e1903690600401612258565b91906105eb6127d3565b6001600160a01b0382161561094a57602435156109105782156108d557600554916040519060e0820182811067ffffffffffffffff8211176108ae576040526001600160a01b0381168252602435602083019081529161064c36878661247b565b60408201908152606082014281525f608084015260a08301905f825260c0840192338452600160401b8910156108ae576001890160055561068c89612286565b9790976108c257855188546001600160a01b0319166001600160a01b03919091161788555160018801555180519067ffffffffffffffff82116108ae576106d660028901546120ae565b601f8111610866575b509160209a9593918a9795938c90601f83116001146107cb579961076393836080946004947fb4a8b996e13b7e0203f65195659a81899054517b0f1c502ba0f57ae2c889aba79d9e5f926107c0575b50508160011b915f199060031b1c19161760028301555b516003820155019401511515849060ff801983541691151516179055565b5182549151610100600160b01b031990921690151560081b61ff00161760109190911b62010000600160b01b03161790556040516001600160a01b0390911694909182916107b59190602435846126e5565b0390a3604051908152f35b015190505f8061072e565b99929190600284015f52805f209a5f5b601f198416811061084c5750926001837fb4a8b996e13b7e0203f65195659a81899054517b0f1c502ba0f57ae2c889aba79c9d6107639794608097600497601f19811610610834575b505050811b016002830155610745565b01515f1960f88460031b161c191690555f8080610824565b828201518d556001909c019b8e9b50918f01918f016107db565b600289015f5260205f20601f840160051c810191602085106108a4575b601f0160051c01905b81811061089957506106df565b5f815560010161088c565b9091508190610883565b634e487b7160e01b5f52604160045260245ffd5b634e487b7160e01b5f525f60045260245ffd5b60405162461bcd60e51b81526020600482015260136024820152722a3932b0b99d1032b6b83a3c903932b0b9b7b760691b6044820152606490fd5b60405162461bcd60e51b8152602060048201526012602482015271151c99585cce881e995c9bc8185b5bdd5b9d60721b6044820152606490fd5b60405162461bcd60e51b8152602060048201526015602482015274151c99585cce881e995c9bc81c9958da5c1a595b9d605a1b6044820152606490fd5b34610238576020366003190112610238576109a06121e9565b6109a86127d3565b6001600160a01b03165f818152600460205260409020546109ca8115156123a7565b5f1981019081116104d0576109e06006916121ff565b5001805460ff191690557f665b9b7911d6a3e5a789e2be1ed4f9ffa84c1259e3b8967523471952111221915f80a2005b34610238575f366003190112610238576020600a54604051908152f35b34610238575f366003190112610238576040516370a0823160e01b81523060048201526020816024817f00000000000000000000000000000000000000000000000000000000000000006001600160a01b03165afa908115610445575f91610c80575b506040516370a0823160e01b8152306004820152906020826024817f00000000000000000000000000000000000000000000000000000000000000006001600160a01b03165afa918215610445575f92610c4c575b5060075491600854600354905f945f935f5b848110610b485750610100968015610b4057610b138188612579565b915b604051978852602088015260408701526060860152608085015260a084015260c083015260e0820152f35b5f1991610b15565b60ff6006610b55836121ff565b50015416610b66575b600101610af7565b96945f1981146104d0576001019460ff6003610b818a6121ff565b500154166003811015610c3857610bb557610bac6001916002610ba38b6121ff565b50015490612309565b975b9050610b5e565b60ff6003610bc28a6121ff565b500154166003811015610c3857600103610c0a576002610be1896121ff565b500154908160011b91808304600214901517156104d057600191610c0491612309565b97610bae565b6002610c15896121ff565b500154908160021b91808304600414901517156104d057600191610c0491612309565b634e487b7160e01b5f52602160045260245ffd5b9091506020813d602011610c78575b81610c6860209383612103565b8101031261023857519082610ae5565b3d9150610c5b565b90506020813d602011610caa575b81610c9b60209383612103565b81010312610238575181610a90565b3d9150610c8e565b346102385760403660031901126102385760043560243567ffffffffffffffff811161023857610d077f1b4ba317a873905b76e75466cd27685f2b0582e017762f6bb58cf10a0ed2d479913690600401612258565b90610d1484600a54612309565b600a55610d286040519283923396846126e5565b0390a2005b34610238575f366003190112610238575f546040516001600160a01b039091168152602090f35b34610238575f366003190112610238576040517f00000000000000000000000000000000000000000000000000000000000000006001600160a01b03168152602090f35b34610238576020366003190112610238576060610dbb610db66121e9565b612651565b9060405192835260208301526040820152f35b346102385760203660031901126102385760043560055481101561023857610df590612286565b5060018060a01b03815416600182015491610e1260028201612125565b610e3e60046003840154930154916040519586958652602086015260e0604086015260e08501906121c5565b606084019290925260ff81811615156080850152600882901c16151560a084015260101c6001600160a01b031660c08301520390f35b34610238575f36600319011261023857610e8c6127d3565b610e94612734565b6001805460ff60a01b1916600160a01b1790556040513381527f62e78cea01bee320cd4e420270b5ea74000d11b0c9f74754ebdbfc544b05a25890602090a1005b3461023857602036600319011261023857600435610ef16127d3565b6004610efc82612286565b50018054610f0d60ff8216156122bd565b60ff8160081c16610f495761ff0019166101001790557fb85e553db1cc947378f2f2d6071d3e64a20a8d3896fee3d15a5087372164e97c5f80a2005b60405162461bcd60e51b815260206004820152601860248201527f54726561733a20616c72656164792063616e63656c6c656400000000000000006044820152606490fd5b34610238575f36600319011261023857600154336001600160a01b039091160361100057600180546001600160a01b03199081169091555f805433928116831782556001600160a01b0316907f8be0079c531659141344cd1fd0a4f28419497f9722a3daafe3b4186f6b6457e09080a3005b63118cdaa760e01b5f523360045260245ffd5b34610238575f3660031901126102385761102b6127d3565b600180546001600160a01b03199081169091555f80549182168155906001600160a01b03167f8be0079c531659141344cd1fd0a4f28419497f9722a3daafe3b4186f6b6457e08280a3005b34610238576020366003190112610238576040516370a0823160e01b8152306004828101919091525f9190356020826024817f00000000000000000000000000000000000000000000000000000000000000006001600160a01b03165afa918215610445575f92611240575b506003545f5b818110611166575050828082115f1461115d57611104916123e6565b915b8015611152576111168183612579565b92600c8102818104600c14821517156104d0576080946103ae8461113993612579565b915b604051938452602084015260408301526060820152f35b6080925f199161113b565b50505f91611106565b60ff6006611173836121ff565b50015416611184575b6001016110e8565b9360ff6003611192876121ff565b500154166003811015610c38576111bd576111b46001916002610ba3886121ff565b945b905061117c565b60ff60036111ca876121ff565b500154166003811015610c38576001036112125760026111e9866121ff565b500154908160011b91808304600214901517156104d05760019161120c91612309565b946111b6565b600261121d866121ff565b500154908160021b91808304600414901517156104d05760019161120c91612309565b9091506020813d60201161126c575b8161125c60209383612103565b81010312610238575190836110e2565b3d915061124f565b34610238575f36600319011261023857602060ff60015460a01c166040519015158152f35b34610238576020366003190112610238576112b26121e9565b6112ba6126fc565b6112c2612734565b6001600160a01b03165f818152600b6020908152604080832033845290915290205460ff16156114c257805f52600460205260405f20546113048115156124e1565b5f1981019081116104d057611318906121ff565b509061132a60ff60068401541661252d565b61133a60ff6003840154166127e6565b9060048301805492611350816102f986426123e6565b91821561148657611365600287015484612597565b6040516370a0823160e01b815230600482015290957f00000000000000000000000000000000000000000000000000000000000000009390916020816024816001600160a01b0389165afa908115610445575f91611444575b508760019560209a95611409611428966103ae7f791b34300978f24fbcf212710f232e2711573dcbc70aa316c38fcccabcafc0009b976114038761141a991015612316565b88612597565b9055600586016103c5838254612309565b8660405194859401846125aa565b0390a260015f8051602061281383398151915255604051908152f35b98939495919290506020893d60201161147e575b8161146560209383612103565b81010312610238579751929790949392909190876113be565b3d9150611458565b60405162461bcd60e51b815260206004820152601460248201527354726561733a206e6f2073616c6172792064756560601b6044820152606490fd5b60405162461bcd60e51b815260206004820152601b60248201527f54726561733a206167656e74206e6f7420617574686f726973656400000000006044820152606490fd5b34610238575f36600319011261023857602060405162278d008152f35b34610238576020366003190112610238576001600160a01b036115456121e9565b165f526004602052602060405f2054604051908152f35b34610238576040366003190112610238576115756121e9565b602435906001600160a01b03821682036102385760018060a01b03165f52600b60205260405f209060018060a01b03165f52602052602060ff60405f2054166040519015158152f35b34610238576080366003190112610238576115d76121e9565b60243567ffffffffffffffff8111610238576115f7903690600401612258565b919060443592606435926003841015610238576116126127d3565b6001600160a01b031693841561196357811561192a5780156118f05761163f64174876e800821115612362565b845f52600460205260405f20546118ab576040519361165d856120e6565b85855261166b36848661247b565b94602081019586526040810195838752606082019061168a84836123f3565b608083019742895260a08401905f825260c08501906001825260e0860193428552600354600160401b8110156108ae578060016116ca92016003556121ff565b9790976108c2575187546001600160a01b0319166001600160a01b0391909116178755518051600188019167ffffffffffffffff82116108ae57819061171084546120ae565b601f811161185b575b50602090601f83116001146117f8575f926117ed575b50508160011b915f199060031b1c19161790555b516002860155600385019351916003831015610c38577ff70d52dca08a0cc985895979b3f5a9dfe81f3d1ac8eddc5a992df3f9943442019a6007956117b29460ff80198354169116179055516004870155516005860155511515600685019060ff801983541691151516179055565b51910155600354865f52600460205260405f20556117dd6040519485946060865260608601916124c1565b91602084015260408301520390a2005b015190508f8061172f565b5f8581528281209350601f198516905b818110611843575090846001959493921061182b575b505050811b019055611743565b01515f1960f88460031b161c191690558f808061181e565b92936020600181928786015181550195019301611808565b909150835f5260205f20601f840160051c810191602085106118a1575b90601f859493920160051c01905b8181106118935750611719565b5f8155849350600101611886565b9091508190611878565b60405162461bcd60e51b815260206004820152601a60248201527f54726561733a20616c726561647920636f6e7472696275746f720000000000006044820152606490fd5b60405162461bcd60e51b815260206004820152601260248201527154726561733a207a65726f2073616c61727960701b6044820152606490fd5b60405162461bcd60e51b815260206004820152601160248201527054726561733a20656d70747920726f6c6560781b6044820152606490fd5b60405162461bcd60e51b8152602060048201526012602482015271151c99585cce881e995c9bc81dd85b1b195d60721b6044820152606490fd5b34610238575f3660031901126102385760035467ffffffffffffffff81116108ae57604051906119d360208260051b0183612103565b80825260208201908160035f527fc2575a0e9e593c00f959f8c92f12db2869c3395a3b0502d05e2516446f71f85b5f915b838310611ad357848660405191829160208301906020845251809152604083019060408160051b85010192915f905b828210611a4257505050500390f35b919360019193955060208091603f19898203018552875190848060a01b03825116815260e080611a8185850151610100878601526101008501906121c5565b9360408101516040850152611a9e6060820151606086019061224b565b6080810151608085015260a081015160a085015260c0810151151560c085015201519101529601920192018594939192611a33565b60086020600192611ae3856123ff565b815201920192019190611a04565b34610238575f366003190112610238576040517f00000000000000000000000000000000000000000000000000000000000000006001600160a01b03168152602090f35b34610238575f36600319011261023857611b4d6127d3565b60015460ff8160a01c1615611b945760ff60a01b19166001556040513381527f5db9ee0a495bf2e6ff9c91a7834c1ba4fdd244a5e8aa4e537bd38aeae4b073aa90602090a1005b638dfc202b60e01b5f5260045ffd5b346102385760203660031901126102385760043560035481101561023857611bca906121ff565b5080546001600160a01b0316611be260018301612125565b9160028101549060ff600382015416906004810154600582015490611c3c600760ff60068601541694015494611c2c604051998a998a5261010060208b01526101008a01906121c5565b966040890152606088019061224b565b608086015260a0850152151560c084015260e08301520390f35b3461023857604036600319011261023857611c6f6121e9565b60243590611c7b6127d3565b611c8c64174876e800831115612362565b6001600160a01b03165f81815260046020526040902054909190611cb18115156123a7565b5f1981019081116104d057817fcbcd64fde20d833ef206aa67496324a9bcc2b75977ddb6aa49353f893e37cbdd926002611cec6020946121ff565b500155604051908152a2005b34610238575f3660031901126102385760206040516202a3008152f35b34610238575f3660031901126102385760206040516127108152f35b34610238575f366003190112610238576020600954604051908152f35b3461023857604036600319011261023857611d676121e9565b602435801515810361023857611da691335f52600b60205260405f209060018060a01b03165f5260205260405f209060ff801983541691151516179055565b005b3461023857602036600319011261023857600435611dc46126fc565b611dcc612734565b611dd581612286565b509060048201805492611deb60ff8516156122bd565b60ff8460081c16611f865760038101546202a30081018091116104d0574210611f48576040516370a0823160e01b81523060048201527f0000000000000000000000000000000000000000000000000000000000000000926020826024816001600160a01b0388165afa918215610445575f92611ef2575b507f7f5bfe3018715b26a7067888a5c42912fbb3485170b8154ea9a448661f2f0de293611eb48493611ec993600180602098019a611ea58c5480951015612316565b60ff1916179055600854612309565b60085560018060a01b03835416875491612752565b5493546040519081526001600160a01b0390941693a360015f8051602061281383398151915255005b9291506020833d602011611f40575b81611f0e60209383612103565b8101031261023857915190917f7f5bfe3018715b26a7067888a5c42912fbb3485170b8154ea9a448661f2f0de2611e63565b3d9150611f01565b60405162461bcd60e51b815260206004820152601660248201527554726561733a2074696d656c6f636b2061637469766560501b6044820152606490fd5b60405162461bcd60e51b815260206004820152601060248201526f151c99585cce8818d85b98d95b1b195960821b6044820152606490fd5b3461023857602036600319011261023857600435600654811015610238576120989060065f5260021b612012817ff652222313e28459528d920b65115c16c04f3efc82aaedc97be59f3f377c0d3f01612125565b907ff652222313e28459528d920b65115c16c04f3efc82aaedc97be59f3f377c0d408101549060ff7ff652222313e28459528d920b65115c16c04f3efc82aaedc97be59f3f377c0d427ff652222313e28459528d920b65115c16c04f3efc82aaedc97be59f3f377c0d4183015492015416906040519485946080865260808601906121c5565b9260208501526040840152151560608301520390f35b90600182811c921680156120dc575b60208310146120c857565b634e487b7160e01b5f52602260045260245ffd5b91607f16916120bd565b610100810190811067ffffffffffffffff8211176108ae57604052565b90601f8019910116810190811067ffffffffffffffff8211176108ae57604052565b9060405191825f825492612138846120ae565b80845293600181169081156121a3575060011461215f575b5061215d92500383612103565b565b90505f9291925260205f20905f915b81831061218757505090602061215d928201015f612150565b602091935080600191548385890101520191019091849261216e565b90506020925061215d94915060ff191682840152151560051b8201015f612150565b805180835260209291819084018484015e5f828201840152601f01601f1916010190565b600435906001600160a01b038216820361023857565b6003548110156122375760035f81815291901b7fc2575a0e9e593c00f959f8c92f12db2869c3395a3b0502d05e2516446f71f85b0191565b634e487b7160e01b5f52603260045260245ffd5b906003821015610c385752565b9181601f840112156102385782359167ffffffffffffffff8311610238576020838186019501011161023857565b6005548110156122375760055f81815291027f036b6384b5eca791c62761152d0c79bb0604c104a5fb6f4eb0703f3154bb3db00191565b156122c457565b60405162461bcd60e51b815260206004820152601760248201527f54726561733a20616c72656164792065786563757465640000000000000000006044820152606490fd5b919082018092116104d057565b1561231d57565b60405162461bcd60e51b815260206004820152601960248201527f54726561733a20696e73756666696369656e742066756e6473000000000000006044820152606490fd5b1561236957565b60405162461bcd60e51b81526020600482015260166024820152750a8e4cac2e67440e6c2d8c2e4f240e8dede40d0d2ced60531b6044820152606490fd5b156123ae57565b60405162461bcd60e51b815260206004820152601060248201526f151c99585cce881b9bdd08199bdd5b9960821b6044820152606490fd5b919082039182116104d057565b6003821015610c385752565b9060405161240c816120e6565b82546001600160a01b0316815291829060e09060079061242e60018201612125565b60208501526002810154604085015261245160ff600383015416606086016123f3565b60048101546080850152600581015460a085015260ff600682015416151560c08501520154910152565b92919267ffffffffffffffff82116108ae57604051916124a5601f8201601f191660200184612103565b829481845281830111610238578281602093845f960137010152565b908060209392818452848401375f828201840152601f01601f1916010190565b156124e857565b60405162461bcd60e51b815260206004820152601860248201527f54726561733a206e6f74206120636f6e7472696275746f7200000000000000006044820152606490fd5b1561253457565b60405162461bcd60e51b815260206004820152601b60248201527f54726561733a20636f6e7472696275746f7220696e61637469766500000000006044820152606490fd5b8115612583570490565b634e487b7160e01b5f52601260045260245ffd5b818102929181159184041417156104d057565b9093929193606082525f908054906125c1826120ae565b918260608601526001811690815f1461262d57506001146125ed575b5050906040919460208201520152565b5f90815260208120939250905b8082106126125750909150810160800160405f6125dd565b919260018160209254608085880101520191019092916125fa565b90506040949350608092915060ff191682840152151560051b82010190915f6125dd565b6001600160a01b03165f9081526004602052604090205480156126dc575f1981019081116104d05761268561268b916121ff565b506123ff565b60c0810151156126dc5760608101516003811015610c38576126ac906127e6565b916126d960808301936126d260406126c9836102f98951426123e6565b95015185612597565b9451612309565b90565b505f905f905f90565b6040906126d99492815281602082015201916124c1565b60025f8051602061281383398151915254146127255760025f8051602061281383398151915255565b633ee5aeb560e01b5f5260045ffd5b60ff60015460a01c1661274357565b63d93c066560e01b5f5260045ffd5b916040519163a9059cbb60e01b5f5260018060a01b031660045260245260205f60448180865af19060015f51148216156127b2575b604052156127925750565b635274afe760e01b5f9081526001600160a01b0391909116600452602490fd5b9060018115166127ca57823b15153d15161690612787565b503d5f823e3d90fd5b5f546001600160a01b0316330361100057565b6003811015610c3857801561280a576001146128035762093a8090565b6212750090565b5062278d009056fe9b779b17422d0df92223018b32b4d1fa46e071723d6817e2486d003becc55f00a26469706673582212205f8afb416453157acf659a5c733d2d1f891c9e567d343dd26c1369685bd7afce64736f6c634300081a0033",
  "linkReferences": {},
  "deployedLinkReferences": {}
}