{
  "_format": "hh-sol-artifact-1",
  "contractName": "WikiForexOracle",
  "sourceName": "src/WikiForexOracle.sol",
  "abi": [
    {
      "inputs": [
        {
          "internalType": "address",
          "name": "_pyth",
          "type": "address"
        },
        {
          "internalType": "address",
          "name": "_guardian",
          "type": "address"
        },
        {
          "internalType": "address",
          "name": "_registry",
          "type": "address"
        },
        {
          "internalType": "address",
          "name": "owner",
          "type": "address"
        }
      ],
      "stateMutability": "nonpayable",
      "type": "constructor"
    },
    {
      "inputs": [],
      "name": "EnforcedPause",
      "type": "error"
    },
    {
      "inputs": [],
      "name": "ExpectedPause",
      "type": "error"
    },
    {
      "inputs": [
        {
          "internalType": "address",
          "name": "owner",
          "type": "address"
        }
      ],
      "name": "OwnableInvalidOwner",
      "type": "error"
    },
    {
      "inputs": [
        {
          "internalType": "address",
          "name": "account",
          "type": "address"
        }
      ],
      "name": "OwnableUnauthorizedAccount",
      "type": "error"
    },
    {
      "anonymous": false,
      "inputs": [
        {
          "indexed": true,
          "internalType": "uint256",
          "name": "marketId",
          "type": "uint256"
        },
        {
          "indexed": false,
          "internalType": "uint256",
          "name": "price",
          "type": "uint256"
        },
        {
          "indexed": false,
          "internalType": "uint256",
          "name": "confidence",
          "type": "uint256"
        }
      ],
      "name": "GuardianPriceUpdated",
      "type": "event"
    },
    {
      "anonymous": false,
      "inputs": [
        {
          "indexed": true,
          "internalType": "uint256",
          "name": "marketId",
          "type": "uint256"
        },
        {
          "indexed": false,
          "internalType": "bool",
          "name": "forceOpen",
          "type": "bool"
        }
      ],
      "name": "MarketHoursOverride",
      "type": "event"
    },
    {
      "anonymous": false,
      "inputs": [
        {
          "indexed": true,
          "internalType": "address",
          "name": "previousOwner",
          "type": "address"
        },
        {
          "indexed": true,
          "internalType": "address",
          "name": "newOwner",
          "type": "address"
        }
      ],
      "name": "OwnershipTransferStarted",
      "type": "event"
    },
    {
      "anonymous": false,
      "inputs": [
        {
          "indexed": true,
          "internalType": "address",
          "name": "previousOwner",
          "type": "address"
        },
        {
          "indexed": true,
          "internalType": "address",
          "name": "newOwner",
          "type": "address"
        }
      ],
      "name": "OwnershipTransferred",
      "type": "event"
    },
    {
      "anonymous": false,
      "inputs": [
        {
          "indexed": false,
          "internalType": "address",
          "name": "account",
          "type": "address"
        }
      ],
      "name": "Paused",
      "type": "event"
    },
    {
      "anonymous": false,
      "inputs": [
        {
          "indexed": false,
          "internalType": "address",
          "name": "account",
          "type": "address"
        }
      ],
      "name": "Unpaused",
      "type": "event"
    },
    {
      "inputs": [],
      "name": "CAT_COMMODITIES",
      "outputs": [
        {
          "internalType": "uint8",
          "name": "",
          "type": "uint8"
        }
      ],
      "stateMutability": "view",
      "type": "function"
    },
    {
      "inputs": [],
      "name": "CAT_CRYPTO",
      "outputs": [
        {
          "internalType": "uint8",
          "name": "",
          "type": "uint8"
        }
      ],
      "stateMutability": "view",
      "type": "function"
    },
    {
      "inputs": [],
      "name": "CAT_FOREX_EXOTIC",
      "outputs": [
        {
          "internalType": "uint8",
          "name": "",
          "type": "uint8"
        }
      ],
      "stateMutability": "view",
      "type": "function"
    },
    {
      "inputs": [],
      "name": "CAT_FOREX_MAJOR",
      "outputs": [
        {
          "internalType": "uint8",
          "name": "",
          "type": "uint8"
        }
      ],
      "stateMutability": "view",
      "type": "function"
    },
    {
      "inputs": [],
      "name": "CAT_FOREX_MINOR",
      "outputs": [
        {
          "internalType": "uint8",
          "name": "",
          "type": "uint8"
        }
      ],
      "stateMutability": "view",
      "type": "function"
    },
    {
      "inputs": [],
      "name": "CAT_METALS",
      "outputs": [
        {
          "internalType": "uint8",
          "name": "",
          "type": "uint8"
        }
      ],
      "stateMutability": "view",
      "type": "function"
    },
    {
      "inputs": [],
      "name": "CHAINLINK_STALE",
      "outputs": [
        {
          "internalType": "uint256",
          "name": "",
          "type": "uint256"
        }
      ],
      "stateMutability": "view",
      "type": "function"
    },
    {
      "inputs": [],
      "name": "GUARDIAN_STALE",
      "outputs": [
        {
          "internalType": "uint256",
          "name": "",
          "type": "uint256"
        }
      ],
      "stateMutability": "view",
      "type": "function"
    },
    {
      "inputs": [],
      "name": "PYTH_STALE",
      "outputs": [
        {
          "internalType": "uint256",
          "name": "",
          "type": "uint256"
        }
      ],
      "stateMutability": "view",
      "type": "function"
    },
    {
      "inputs": [],
      "name": "SEQUENCER_FEED",
      "outputs": [
        {
          "internalType": "address",
          "name": "",
          "type": "address"
        }
      ],
      "stateMutability": "view",
      "type": "function"
    },
    {
      "inputs": [],
      "name": "SEQUENCER_GRACE",
      "outputs": [
        {
          "internalType": "uint256",
          "name": "",
          "type": "uint256"
        }
      ],
      "stateMutability": "view",
      "type": "function"
    },
    {
      "inputs": [],
      "name": "SRC_CHAINLINK",
      "outputs": [
        {
          "internalType": "uint8",
          "name": "",
          "type": "uint8"
        }
      ],
      "stateMutability": "view",
      "type": "function"
    },
    {
      "inputs": [],
      "name": "SRC_DERIVED",
      "outputs": [
        {
          "internalType": "uint8",
          "name": "",
          "type": "uint8"
        }
      ],
      "stateMutability": "view",
      "type": "function"
    },
    {
      "inputs": [],
      "name": "SRC_GUARDIAN",
      "outputs": [
        {
          "internalType": "uint8",
          "name": "",
          "type": "uint8"
        }
      ],
      "stateMutability": "view",
      "type": "function"
    },
    {
      "inputs": [],
      "name": "SRC_PYTH",
      "outputs": [
        {
          "internalType": "uint8",
          "name": "",
          "type": "uint8"
        }
      ],
      "stateMutability": "view",
      "type": "function"
    },
    {
      "inputs": [],
      "name": "acceptOwnership",
      "outputs": [],
      "stateMutability": "nonpayable",
      "type": "function"
    },
    {
      "inputs": [
        {
          "internalType": "uint256[]",
          "name": "marketIds",
          "type": "uint256[]"
        },
        {
          "internalType": "uint256[]",
          "name": "prices",
          "type": "uint256[]"
        },
        {
          "internalType": "uint256[]",
          "name": "confidences",
          "type": "uint256[]"
        },
        {
          "internalType": "bytes",
          "name": "signature",
          "type": "bytes"
        }
      ],
      "name": "batchUpdateGuardian",
      "outputs": [],
      "stateMutability": "nonpayable",
      "type": "function"
    },
    {
      "inputs": [
        {
          "internalType": "uint256",
          "name": "baseId",
          "type": "uint256"
        },
        {
          "internalType": "uint256",
          "name": "quoteId",
          "type": "uint256"
        }
      ],
      "name": "getDerivedPrice",
      "outputs": [
        {
          "internalType": "uint256",
          "name": "price",
          "type": "uint256"
        },
        {
          "internalType": "uint256",
          "name": "timestamp",
          "type": "uint256"
        }
      ],
      "stateMutability": "view",
      "type": "function"
    },
    {
      "inputs": [
        {
          "internalType": "uint256",
          "name": "marketId",
          "type": "uint256"
        }
      ],
      "name": "getPrice",
      "outputs": [
        {
          "components": [
            {
              "internalType": "uint256",
              "name": "price",
              "type": "uint256"
            },
            {
              "internalType": "uint256",
              "name": "timestamp",
              "type": "uint256"
            },
            {
              "internalType": "uint256",
              "name": "confidence",
              "type": "uint256"
            },
            {
              "internalType": "uint8",
              "name": "source",
              "type": "uint8"
            },
            {
              "internalType": "bool",
              "name": "marketOpen",
              "type": "bool"
            },
            {
              "internalType": "uint256",
              "name": "effectiveSpreadBps",
              "type": "uint256"
            }
          ],
          "internalType": "struct WikiForexOracle.PriceResult",
          "name": "result",
          "type": "tuple"
        }
      ],
      "stateMutability": "view",
      "type": "function"
    },
    {
      "inputs": [
        {
          "internalType": "uint256",
          "name": "marketId",
          "type": "uint256"
        }
      ],
      "name": "getPriceSimple",
      "outputs": [
        {
          "internalType": "uint256",
          "name": "price",
          "type": "uint256"
        },
        {
          "internalType": "uint256",
          "name": "timestamp",
          "type": "uint256"
        }
      ],
      "stateMutability": "view",
      "type": "function"
    },
    {
      "inputs": [
        {
          "internalType": "uint256",
          "name": "",
          "type": "uint256"
        }
      ],
      "name": "guardianPrices",
      "outputs": [
        {
          "internalType": "uint256",
          "name": "price",
          "type": "uint256"
        },
        {
          "internalType": "uint256",
          "name": "updatedAt",
          "type": "uint256"
        },
        {
          "internalType": "uint256",
          "name": "confidence",
          "type": "uint256"
        }
      ],
      "stateMutability": "view",
      "type": "function"
    },
    {
      "inputs": [],
      "name": "guardianSigner",
      "outputs": [
        {
          "internalType": "address",
          "name": "",
          "type": "address"
        }
      ],
      "stateMutability": "view",
      "type": "function"
    },
    {
      "inputs": [
        {
          "internalType": "uint256",
          "name": "marketId",
          "type": "uint256"
        }
      ],
      "name": "isMarketOpen",
      "outputs": [
        {
          "internalType": "bool",
          "name": "",
          "type": "bool"
        }
      ],
      "stateMutability": "view",
      "type": "function"
    },
    {
      "inputs": [
        {
          "internalType": "uint256",
          "name": "",
          "type": "uint256"
        }
      ],
      "name": "marketForceClosed",
      "outputs": [
        {
          "internalType": "bool",
          "name": "",
          "type": "bool"
        }
      ],
      "stateMutability": "view",
      "type": "function"
    },
    {
      "inputs": [
        {
          "internalType": "uint256",
          "name": "",
          "type": "uint256"
        }
      ],
      "name": "marketForceOpen",
      "outputs": [
        {
          "internalType": "bool",
          "name": "",
          "type": "bool"
        }
      ],
      "stateMutability": "view",
      "type": "function"
    },
    {
      "inputs": [],
      "name": "owner",
      "outputs": [
        {
          "internalType": "address",
          "name": "",
          "type": "address"
        }
      ],
      "stateMutability": "view",
      "type": "function"
    },
    {
      "inputs": [],
      "name": "pause",
      "outputs": [],
      "stateMutability": "nonpayable",
      "type": "function"
    },
    {
      "inputs": [],
      "name": "paused",
      "outputs": [
        {
          "internalType": "bool",
          "name": "",
          "type": "bool"
        }
      ],
      "stateMutability": "view",
      "type": "function"
    },
    {
      "inputs": [],
      "name": "pendingOwner",
      "outputs": [
        {
          "internalType": "address",
          "name": "",
          "type": "address"
        }
      ],
      "stateMutability": "view",
      "type": "function"
    },
    {
      "inputs": [],
      "name": "pyth",
      "outputs": [
        {
          "internalType": "contract IPythOracle",
          "name": "",
          "type": "address"
        }
      ],
      "stateMutability": "view",
      "type": "function"
    },
    {
      "inputs": [],
      "name": "registry",
      "outputs": [
        {
          "internalType": "contract IWikiMarketRegistry",
          "name": "",
          "type": "address"
        }
      ],
      "stateMutability": "view",
      "type": "function"
    },
    {
      "inputs": [],
      "name": "renounceOwnership",
      "outputs": [],
      "stateMutability": "nonpayable",
      "type": "function"
    },
    {
      "inputs": [
        {
          "internalType": "address",
          "name": "g",
          "type": "address"
        }
      ],
      "name": "setGuardianSigner",
      "outputs": [],
      "stateMutability": "nonpayable",
      "type": "function"
    },
    {
      "inputs": [
        {
          "internalType": "uint256",
          "name": "id",
          "type": "uint256"
        },
        {
          "internalType": "bool",
          "name": "open",
          "type": "bool"
        }
      ],
      "name": "setMarketForceOpen",
      "outputs": [],
      "stateMutability": "nonpayable",
      "type": "function"
    },
    {
      "inputs": [
        {
          "internalType": "address",
          "name": "p",
          "type": "address"
        }
      ],
      "name": "setPyth",
      "outputs": [],
      "stateMutability": "nonpayable",
      "type": "function"
    },
    {
      "inputs": [
        {
          "internalType": "address",
          "name": "r",
          "type": "address"
        }
      ],
      "name": "setRegistry",
      "outputs": [],
      "stateMutability": "nonpayable",
      "type": "function"
    },
    {
      "inputs": [
        {
          "internalType": "address",
          "name": "newOwner",
          "type": "address"
        }
      ],
      "name": "transferOwnership",
      "outputs": [],
      "stateMutability": "nonpayable",
      "type": "function"
    },
    {
      "inputs": [],
      "name": "unpause",
      "outputs": [],
      "stateMutability": "nonpayable",
      "type": "function"
    },
    {
      "inputs": [
        {
          "internalType": "uint256",
          "name": "marketId",
          "type": "uint256"
        },
        {
          "internalType": "uint256",
          "name": "price",
          "type": "uint256"
        },
        {
          "internalType": "uint256",
          "name": "confidence",
          "type": "uint256"
        },
        {
          "internalType": "bytes",
          "name": "signature",
          "type": "bytes"
        }
      ],
      "name": "updateGuardianPrice",
      "outputs": [],
      "stateMutability": "nonpayable",
      "type": "function"
    },
    {
      "inputs": [
        {
          "internalType": "bytes[]",
          "name": "updateData",
          "type": "bytes[]"
        }
      ],
      "name": "updatePythPrices",
      "outputs": [],
      "stateMutability": "payable",
      "type": "function"
    },
    {
      "stateMutability": "payable",
      "type": "receive"
    }
  ],
  "bytecode": "0x60803461021057601f61216138819003918201601f19168301916001600160401b03831184841017610214578084926080946040528339810103126102105761004781610228565b9061005460208201610228565b61006060408301610228565b916001600160a01b039061007690606001610228565b169283156101fd57600180546001600160a01b03199081169091555f80549182168617815560405195916001600160a01b0316907f8be0079c531659141344cd1fd0a4f28419497f9722a3daafe3b4186f6b6457e09080a36001600160a01b03169283156101c857506001600160a01b0316908115610183576001600160a01b031691821561013e5760018060a01b0319600254161760025560018060a01b0319600354161760035560018060a01b03196004541617600455604051611f24908161023d8239f35b60405162461bcd60e51b815260206004820152601460248201527f57696b693a207a65726f205f72656769737472790000000000000000000000006044820152606490fd5b60405162461bcd60e51b815260206004820152601460248201527f57696b693a207a65726f205f677561726469616e0000000000000000000000006044820152606490fd5b62461bcd60e51b815260206004820152601060248201526f0aed2d6d27440f4cae4de40bee0f2e8d60831b6044820152606490fd5b631e4fbdf760e01b5f525f60045260245ffd5b5f80fd5b634e487b7160e01b5f52604160045260245ffd5b51906001600160a01b03821682036102105756fe6080604052600436101561001a575b3615610018575f80fd5b005b5f803560e01c90816316c6e681146111935781631e0557541461118e5781632d3837791461118e5781632dfb840c1461115f57816331439c7d1461111a57816336686dd1146110f2578163369e171f14610ffb5781633c8e73f214610fe05781633f4ba83a14610f71578163493db37314610f55578163508058cf14610f505781635c975abb14610f2b578163624512fb14610efd578163715018a614610e9957816379ba509714610e155781637b10399914610ded5781637ed040a114610dac5781638456cb5914610d385781638da5cb5b14610d125781638dcef2f1146101da5781639254182b14610cf757816394c4bc6914610b4b5781639e5aff7014610c225781639e8f2cb6146108df5781639f33da3f14610b94578163a91ee0dc14610b50578163b15f776414610b4b578163c9e5124e146108e4578163d08ade5d146108df578163e30c3978146108b7578163e5e0ad4f146106df578163e7572230146103c1578163ee22fd6f1461037d578163eeec32ae1461034f578163f2d5a46e146102c9578163f2fde38b14610253578163f3f2cc8014610238578163f9405e631461020a578163f98d06f0146101df575063fa4e086c0361000e575b6111f9565b346102075780600319360112610207576002546040516001600160a01b039091168152602090f35b80fd5b34610207578060031936011261020757602060405173fdb631f5ee196f0ed6faa767959853a9f217697d8152f35b34610207578060031936011261020757602060405160058152f35b34610207576020366003190112610207576004356001600160a01b038116908190036102c557610281611654565b600180546001600160a01b0319168217905581546001600160a01b03167f38d16b8cac22d99fc7c124b9cd0de2d3fa1faef420bfe791d8c362d765e227008380a380f35b5080fd5b346102075760403660031901126102075760043560243580151580910361034b5760207fbdf15cc976e9ea410b80b693dfa92ceaa96ae13981099093853bed72cc7541e191610316611654565b838552600682526040852060ff1981541660ff8316179055838552600782526040852060ff198154169055604051908152a280f35b8280fd5b346102075760203660031901126102075760ff60406020926004358152600784522054166040519015158152f35b34610207576020366003190112610207576004356001600160a01b038116908190036102c5576103ab611654565b6001600160601b0360a01b600254161760025580f35b34610207576020366003190112610207576040516004356103e182611277565b8282526020820190838252604083019084825260608401858152608085019286845260a086019487865260248860018060a01b03600454166040519283809263eb44fdd360e01b82528960048301525afa9081156106d45789916106b2575b506102808101511561066d57604051633fabe5a360e21b815260a08160048173fdb631f5ee196f0ed6faa767959853a9f217697d5afa908115610662578a908b9261062d575b506105ef57610498610e109142611a4f565b11156105aa5760c09860ff956104b387608085015116611879565b1515885260a0830151871680610535575050818a01516104db906001600160a01b0316611d47565b8652845289528085525b6104f189511515611613565b5085511561052b5761024001515b8652604051965187525160208701525160408601525116606084015251151560808301525160a0820152f35b61026001516104ff565b6001810361055c57505061054c60e0830151611b2a565b865284528952600185525b6104e5565b6002810361057d575061056e90611a5c565b865284528952600285526104e5565b60039150036105575761059b610100830151610120840151906116a1565b865284528952600385526104e5565b60405162461bcd60e51b815260206004820152601760248201527f4f7261636c653a2073657175656e6365722067726163650000000000000000006044820152606490fd5b60405162461bcd60e51b815260206004820152601660248201527527b930b1b6329d1039b2b8bab2b731b2b9103237bbb760511b6044820152606490fd5b9050610651915060a03d60a01161065b575b61064981836112c1565b810190611a1a565b509250508b610486565b503d61063f565b6040513d8c823e3d90fd5b60405162461bcd60e51b815260206004820152601960248201527f4f7261636c653a206d61726b6574206e6f7420616374697665000000000000006044820152606490fd5b6106ce91503d808b833e6106c681836112c1565b8101906113f5565b89610440565b6040513d8b823e3d90fd5b34610207576080366003190112610207576004356024356044356064356001600160401b0381116108b35761071b61079691369060040161124a565b90604051602081019087825286604082015285606082015261012c420460808201526080815261074c60a0826112c1565b51902060405160208101917f19457468657265756d205369676e6564204d6573736167653a0a3332000000008352603c820152603c815261078e605c826112c1565b519020611984565b6003546001600160a01b0390811691160361086e576107b6821515611613565b6101f48111610829577fd5adb5018c80d205cb58577c49f61905fd9c8f6272cdfe33ad0eed4fd843d07a9160409182516107ef816112a6565b82815260026020820142815285830190848252888a526005602052868a20935184555160018401555191015582519182526020820152a280f35b60405162461bcd60e51b815260206004820152601b60248201527f4f7261636c653a20636f6e666964656e636520746f6f207769646500000000006044820152606490fd5b60405162461bcd60e51b815260206004820152601c60248201527f4f7261636c653a20696e76616c696420677561726469616e20736967000000006044820152606490fd5b8480fd5b346102075780600319360112610207576001546040516001600160a01b039091168152602090f35b611230565b34610207576080366003190112610207576004356001600160401b0381116102c5576109149036906004016111c9565b6024356001600160401b038111610b47576109339036906004016111c9565b6044929192356001600160401b038111610b43576109559036906004016111c9565b9190926064356001600160401b038111610b3f5761097790369060040161124a565b83831480610b36575b15610af1576109c791836109af61074c60208c6109b58c8c8f6109af908e604051998a978989019c8d916115d4565b916115d4565b61012c420481520380845201826112c1565b6003546001600160a01b03908116911603610ab657865b8181106109e9578780f35b80610a026109fa600193868a6115ef565b351515611613565b610a0d8185896115ef565b356002610a1b83888a6115ef565b3560405192610a29846112a6565b83528a610a4585886020870193428552604088019586526115ef565b358d52600560205260408d2093518455518584015551910155610a6981848a6115ef565b357fd5adb5018c80d205cb58577c49f61905fd9c8f6272cdfe33ad0eed4fd843d07a6040610a9884888c6115ef565b35610aa4858a8c6115ef565b3582519182526020820152a2016109de565b60405162461bcd60e51b81526020600482015260136024820152724f7261636c653a20696e76616c69642073696760681b6044820152606490fd5b60405162461bcd60e51b815260206004820152601760248201527f4f7261636c653a206c656e677468206d69736d617463680000000000000000006044820152606490fd5b50848414610980565b8780fd5b8580fd5b8380fd5b611215565b34610207576020366003190112610207576004356001600160a01b038116908190036102c557610b7e611654565b6001600160601b0360a01b600454161760045580f35b346102075760203660031901126102075760248160018060a01b03600454166040519283809263eb44fdd360e01b825260043560048301525afa908115610c17576080610bf29260ff928560209692610bfc575b5050015116611879565b6040519015158152f35b610c1092503d8091833e6106c681836112c1565b8580610be8565b6040513d84823e3d90fd5b3461020757602036600319011261020757604051630e75722360e41b8152600480359082015260c081602481305afa908115610c17578291610c75575b6040826020815191015182519182526020820152f35b905060c0813d60c011610cef575b81610c9060c093836112c1565b810103126102c5576040915060a0825191610caa83611277565b80518352602081015160208401528381015184840152610ccc60608201611385565b6060840152610cdd60808201611393565b6080840152015160a082015282610c5f565b3d9150610c83565b34610207578060031936011261020757602060405160048152f35b34610207578060031936011261020757546040516001600160a01b039091168152602090f35b34610207578060031936011261020757610d50611654565b60015460ff8160a01c16610d9d5760ff60a01b1916600160a01b176001556040513381527f62e78cea01bee320cd4e420270b5ea74000d11b0c9f74754ebdbfc544b05a25890602090a180f35b63d93c066560e01b8252600482fd5b346102075760203660031901126102075760406060916004358152600560205220805490600260018201549101549060405192835260208301526040820152f35b346102075780600319360112610207576004546040516001600160a01b039091168152602090f35b34610207578060031936011261020757600154336001600160a01b0390911603610e8657600180546001600160a01b0319908116909155815433918116821783556001600160a01b03167f8be0079c531659141344cd1fd0a4f28419497f9722a3daafe3b4186f6b6457e08380a380f35b63118cdaa760e01b815233600452602490fd5b34610207578060031936011261020757610eb1611654565b600180546001600160a01b03199081169091558154908116825581906001600160a01b03167f8be0079c531659141344cd1fd0a4f28419497f9722a3daafe3b4186f6b6457e08280a380f35b34610207576040366003190112610207576040610f1e6024356004356116a1565b5082519182526020820152f35b34610207578060031936011261020757602060ff60015460a01c166040519015158152f35b611193565b34610207578060031936011261020757602060405161012c8152f35b34610207578060031936011261020757610f89611654565b60015460ff8160a01c1615610fd15760ff60a01b19166001556040513381527f5db9ee0a495bf2e6ff9c91a7834c1ba4fdd244a5e8aa4e537bd38aeae4b073aa90602090a180f35b638dfc202b60e01b8252600482fd5b346102075780600319360112610207576020604051603c8152f35b60203660031901126110ba576004356001600160401b0381116110ba576110269036906004016111c9565b60025460405163d47eed4560e01b815291906001600160a01b0316602083806110538588600484016112e2565b0381845afa9283156110af575f936110be575b50803b156110ba57604051631df3cbc560e31b8152935f9385938492839161109191600484016112e2565b03925af180156110af576110a3575080f35b61001891505f906112c1565b6040513d5f823e3d90fd5b5f80fd5b9092506020813d6020116110ea575b816110da602093836112c1565b810103126110ba57519185611066565b3d91506110cd565b346110ba575f3660031901126110ba576003546040516001600160a01b039091168152602090f35b346110ba5760203660031901126110ba576004356001600160a01b038116908190036110ba57611148611654565b6001600160601b0360a01b60035416176003555f80f35b346110ba5760203660031901126110ba576004355f526006602052602060ff60405f2054166040519015158152f35b6111ae565b346110ba575f3660031901126110ba57602060405160028152f35b346110ba575f3660031901126110ba57602060405160018152f35b9181601f840112156110ba578235916001600160401b0383116110ba576020808501948460051b0101116110ba57565b346110ba575f3660031901126110ba576020604051610e108152f35b346110ba575f3660031901126110ba57602060405160038152f35b346110ba575f3660031901126110ba5760206040515f8152f35b9181601f840112156110ba578235916001600160401b0383116110ba57602083818601950101116110ba57565b60c081019081106001600160401b0382111761129257604052565b634e487b7160e01b5f52604160045260245ffd5b606081019081106001600160401b0382111761129257604052565b90601f801991011681019081106001600160401b0382111761129257604052565b9180602084016020855252604083019060408160051b85010193835f91601e1982360301905b848410611319575050505050505090565b90919293949596603f198282030187528735838112156110ba57840190602082359201916001600160401b0381116110ba5780360383136110ba576020828280600196849695859652848401375f828201840152601f01601f1916010199019701959401929190611308565b519060ff821682036110ba57565b519081151582036110ba57565b81601f820112156110ba578051906001600160401b03821161129257604051926113d4601f8401601f1916602001856112c1565b828452602083830101116110ba57815f9260208093018386015e8301015290565b6020818303126110ba578051906001600160401b0382116110ba57016102e0818303126110ba57604051916102e083018381106001600160401b03821117611292576040528151835260208201516001600160401b0381116110ba578161145d9184016113a0565b602084015260408201516001600160401b0381116110ba57816114819184016113a0565b60408401526060820151906001600160401b0382116110ba576114a59183016113a0565b60608301526114b660808201611385565b60808301526114c760a08201611385565b60a083015260c0810151906001600160a01b03821682036110ba576102c09160c084015260e081015160e08401526101008101516101008401526101208101516101208401526101408101516101408401526101608101516101608401526101808101516101808401526101a08101516101a08401526101c08101516101c08401526101e08101516101e08401526102008101516102008401526102208101516102208401526102408101516102408401526102608101516102608401526115926102808201611393565b6102808401526115a56102a08201611393565b6102a084015201516102c082015290565b81156115c0570490565b634e487b7160e01b5f52601260045260245ffd5b91906001600160fb1b0381116110ba5760051b809282370190565b91908110156115ff5760051b0190565b634e487b7160e01b5f52603260045260245ffd5b1561161a57565b60405162461bcd60e51b81526020600482015260126024820152714f7261636c653a207a65726f20707269636560701b6044820152606490fd5b5f546001600160a01b0316330361166757565b63118cdaa760e01b5f523360045260245ffd5b8181029291811591840414171561168d57565b634e487b7160e01b5f52601160045260245ffd5b9160018060a01b03600454166040519363eb44fdd360e01b85528060048601525f85602481855afa9182156110af576024955f9361185b575b505f906040519687809263eb44fdd360e01b82528860048301525afa9485156110af575f9561183f575b5060a082015160ff168061181457505060c0015161172a906001600160a01b0316611d47565b949091949194935b60a082015160ff16806117ea57505060c00151611757906001600160a01b0316611d47565b9591959490955b80156117a5576305f5e1008202918083046305f5e100149015171561168d57611786916115b6565b948082101561179e57505b92810180911161168d5790565b9050611791565b60405162461bcd60e51b815260206004820152601860248201527f4f7261636c653a207a65726f2071756f746520707269636500000000000000006044820152606490fd5b60010361180a575060e06117ff910151611b2a565b95919594909561175e565b6117ff9150611a5c565b600103611835575060e0611829910151611b2a565b94909194919493611732565b6118299150611a5c565b6118549195503d805f833e6106c681836112c1565b935f611704565b5f919350611872903d8084833e6106c681836112c1565b92906116da565b60ff16801561197e576201518042046004810180911161168d576007900662015180420691600181148015611974575b801561196a575b8015611960575b611925576005146118c9575050600190565b60058114801561191b575b61190a57801580611910575b61190a5760041490816118fc575b506118f857600190565b5f90565b62013560915010155f6118ee565b50505f90565b50610e1082106118e0565b50600681146118d4565b50600581148015611956575b61190a57600414908161194857506118f857600190565b62012750915010155f6118ee565b5060068114611931565b50600481146118b7565b50600381146118b0565b50600281146118a9565b50600190565b90916041036119c55760805f91602080946040519283526040810135851a82840152803560408401520135606082015282805260015afa156110af575f5190565b60405162461bcd60e51b815260206004820152601660248201527509ee4c2c6d8ca7440c4c2c840e6d2ce40d8cadccee8d60531b6044820152606490fd5b519069ffffffffffffffffffff821682036110ba57565b908160a09103126110ba57611a2e81611a03565b91602082015191604081015191611a4c608060608401519301611a03565b90565b9190820391821161168d57565b5f52600560205260405f208054918215611ad15760018201549261012c611a838542611a4f565b1015611a93576002909392015490565b60405162461bcd60e51b81526020600482015260166024820152754f7261636c653a20677561726469616e207374616c6560501b6044820152606490fd5b60405162461bcd60e51b815260206004820152601960248201527f4f7261636c653a206e6f20677561726469616e207072696365000000000000006044820152606490fd5b63ffffffff16604d811161168d57600a0a90565b60025460405163052571af60e51b81526004810192909252603c6024830152608090829060449082906001600160a01b03165afa9081156110af575f91611ca1575b505f815160070b1315611c64576040810151815160070b9060030b600719811215611c1d57637fffffff19811461168d575f0360030b6007190190637fffffff198212637fffffff83131761168d57611bcd611bd39263ffffffff16611b16565b906115b6565b915b6060820151916127106001600160401b0360208301511602906001600160401b03821691820361168d57516001600160401b031680156115c0576001600160401b0391041690565b600719811315611c5d5760080190637fffffff8213637fffffff1983121761168d57611c51611c579263ffffffff16611b16565b9061167a565b91611bd5565b5091611bd5565b60405162461bcd60e51b81526020600482015260156024820152744f7261636c653a2050797468206e6567617469766560581b6044820152606490fd5b90506080813d608011611d2e575b81611cbc608093836112c1565b810103126110ba5760405190608082018281106001600160401b038211176112925760405280518060070b81036110ba57825260208101516001600160401b03811681036110ba5760208301526040810151908160030b82036110ba576060916040840152015160608201525f611b6c565b3d9150611caf565b60ff16604d811161168d57600a0a90565b604051633fabe5a360e21b81526001600160a01b0391909116919060a081600481865afa9283156110af575f915f94611ec6575b505f821315611e8b57610e10611d918542611a4f565b1015611e535760206004916040519283809263313ce56760e01b82525afa80156110af575f90611e19575b60ff1690506008811015611dea576008039060ff821161168d57611c51611de292611d36565b915b90600590565b6008811115611e1257600719019060ff821161168d57611bcd611e0c92611d36565b91611de4565b5091611de4565b506020813d602011611e4b575b81611e33602093836112c1565b810103126110ba57611e4660ff91611385565b611dbc565b3d9150611e26565b60405162461bcd60e51b815260206004820152601060248201526f4f7261636c653a20434c207374616c6560801b6044820152606490fd5b60405162461bcd60e51b81526020600482015260136024820152724f7261636c653a20434c206e6567617469766560681b6044820152606490fd5b909350611ee2915060a03d60a01161065b5761064981836112c1565b5092505090925f611d7b56fea264697066735822122072eca40a81450fae5484498b89a213210cdfaf5ecb2bd803d34a36282794fd1964736f6c634300081a0033",
  "linkReferences": {},
  "deployedLinkReferences": {}
}