{
  "_format": "hh-sol-artifact-1",
  "contractName": "WikiPropEval",
  "sourceName": "src/WikiPropEval.sol",
  "abi": [
    {
      "inputs": [
        {
          "internalType": "address",
          "name": "usdc",
          "type": "address"
        },
        {
          "internalType": "address",
          "name": "_oracle",
          "type": "address"
        },
        {
          "internalType": "address",
          "name": "owner",
          "type": "address"
        }
      ],
      "stateMutability": "nonpayable",
      "type": "constructor"
    },
    {
      "inputs": [],
      "name": "EnforcedPause",
      "type": "error"
    },
    {
      "inputs": [],
      "name": "ExpectedPause",
      "type": "error"
    },
    {
      "inputs": [
        {
          "internalType": "address",
          "name": "owner",
          "type": "address"
        }
      ],
      "name": "OwnableInvalidOwner",
      "type": "error"
    },
    {
      "inputs": [
        {
          "internalType": "address",
          "name": "account",
          "type": "address"
        }
      ],
      "name": "OwnableUnauthorizedAccount",
      "type": "error"
    },
    {
      "inputs": [],
      "name": "ReentrancyGuardReentrantCall",
      "type": "error"
    },
    {
      "inputs": [
        {
          "internalType": "address",
          "name": "token",
          "type": "address"
        }
      ],
      "name": "SafeERC20FailedOperation",
      "type": "error"
    },
    {
      "anonymous": false,
      "inputs": [
        {
          "indexed": true,
          "internalType": "uint256",
          "name": "evalId",
          "type": "uint256"
        },
        {
          "indexed": false,
          "internalType": "uint256",
          "name": "newBalance",
          "type": "uint256"
        },
        {
          "indexed": false,
          "internalType": "int256",
          "name": "pnl",
          "type": "int256"
        }
      ],
      "name": "BalanceUpdated",
      "type": "event"
    },
    {
      "anonymous": false,
      "inputs": [
        {
          "indexed": true,
          "internalType": "uint256",
          "name": "evalId",
          "type": "uint256"
        },
        {
          "indexed": true,
          "internalType": "address",
          "name": "trader",
          "type": "address"
        },
        {
          "indexed": false,
          "internalType": "string",
          "name": "reason",
          "type": "string"
        }
      ],
      "name": "EvalFailed",
      "type": "event"
    },
    {
      "anonymous": false,
      "inputs": [
        {
          "indexed": true,
          "internalType": "uint256",
          "name": "evalId",
          "type": "uint256"
        },
        {
          "indexed": true,
          "internalType": "address",
          "name": "trader",
          "type": "address"
        },
        {
          "indexed": false,
          "internalType": "uint8",
          "name": "tier",
          "type": "uint8"
        },
        {
          "indexed": false,
          "internalType": "uint256",
          "name": "fundedId",
          "type": "uint256"
        }
      ],
      "name": "EvalPassed",
      "type": "event"
    },
    {
      "anonymous": false,
      "inputs": [
        {
          "indexed": true,
          "internalType": "uint256",
          "name": "id",
          "type": "uint256"
        },
        {
          "indexed": true,
          "internalType": "address",
          "name": "trader",
          "type": "address"
        },
        {
          "indexed": false,
          "internalType": "uint8",
          "name": "tier",
          "type": "uint8"
        },
        {
          "indexed": false,
          "internalType": "uint256",
          "name": "size",
          "type": "uint256"
        },
        {
          "indexed": false,
          "internalType": "uint256",
          "name": "fee",
          "type": "uint256"
        }
      ],
      "name": "EvalStarted",
      "type": "event"
    },
    {
      "anonymous": false,
      "inputs": [
        {
          "indexed": true,
          "internalType": "address",
          "name": "previousOwner",
          "type": "address"
        },
        {
          "indexed": true,
          "internalType": "address",
          "name": "newOwner",
          "type": "address"
        }
      ],
      "name": "OwnershipTransferStarted",
      "type": "event"
    },
    {
      "anonymous": false,
      "inputs": [
        {
          "indexed": true,
          "internalType": "address",
          "name": "previousOwner",
          "type": "address"
        },
        {
          "indexed": true,
          "internalType": "address",
          "name": "newOwner",
          "type": "address"
        }
      ],
      "name": "OwnershipTransferred",
      "type": "event"
    },
    {
      "anonymous": false,
      "inputs": [
        {
          "indexed": false,
          "internalType": "address",
          "name": "account",
          "type": "address"
        }
      ],
      "name": "Paused",
      "type": "event"
    },
    {
      "anonymous": false,
      "inputs": [
        {
          "indexed": true,
          "internalType": "uint256",
          "name": "evalId",
          "type": "uint256"
        },
        {
          "indexed": true,
          "internalType": "address",
          "name": "trader",
          "type": "address"
        }
      ],
      "name": "Phase2Unlocked",
      "type": "event"
    },
    {
      "anonymous": false,
      "inputs": [
        {
          "indexed": true,
          "internalType": "uint256",
          "name": "tradeId",
          "type": "uint256"
        },
        {
          "indexed": true,
          "internalType": "uint256",
          "name": "evalId",
          "type": "uint256"
        },
        {
          "indexed": false,
          "internalType": "int256",
          "name": "pnl",
          "type": "int256"
        },
        {
          "indexed": false,
          "internalType": "uint256",
          "name": "exitPrice",
          "type": "uint256"
        }
      ],
      "name": "SimTradeClosed",
      "type": "event"
    },
    {
      "anonymous": false,
      "inputs": [
        {
          "indexed": true,
          "internalType": "uint256",
          "name": "tradeId",
          "type": "uint256"
        },
        {
          "indexed": true,
          "internalType": "uint256",
          "name": "evalId",
          "type": "uint256"
        },
        {
          "indexed": false,
          "internalType": "uint256",
          "name": "market",
          "type": "uint256"
        },
        {
          "indexed": false,
          "internalType": "bool",
          "name": "isLong",
          "type": "bool"
        },
        {
          "indexed": false,
          "internalType": "uint256",
          "name": "size",
          "type": "uint256"
        },
        {
          "indexed": false,
          "internalType": "uint256",
          "name": "entryPrice",
          "type": "uint256"
        }
      ],
      "name": "SimTradeOpened",
      "type": "event"
    },
    {
      "anonymous": false,
      "inputs": [
        {
          "indexed": false,
          "internalType": "address",
          "name": "account",
          "type": "address"
        }
      ],
      "name": "Unpaused",
      "type": "event"
    },
    {
      "inputs": [],
      "name": "BPS",
      "outputs": [
        {
          "internalType": "uint256",
          "name": "",
          "type": "uint256"
        }
      ],
      "stateMutability": "view",
      "type": "function"
    },
    {
      "inputs": [],
      "name": "POOL_FEE_SHARE",
      "outputs": [
        {
          "internalType": "uint256",
          "name": "",
          "type": "uint256"
        }
      ],
      "stateMutability": "view",
      "type": "function"
    },
    {
      "inputs": [],
      "name": "PROTO_FEE_SHARE",
      "outputs": [
        {
          "internalType": "uint256",
          "name": "",
          "type": "uint256"
        }
      ],
      "stateMutability": "view",
      "type": "function"
    },
    {
      "inputs": [],
      "name": "USDC",
      "outputs": [
        {
          "internalType": "contract IERC20",
          "name": "",
          "type": "address"
        }
      ],
      "stateMutability": "view",
      "type": "function"
    },
    {
      "inputs": [],
      "name": "acceptOwnership",
      "outputs": [],
      "stateMutability": "nonpayable",
      "type": "function"
    },
    {
      "inputs": [
        {
          "internalType": "address",
          "name": "",
          "type": "address"
        }
      ],
      "name": "activeEvalId",
      "outputs": [
        {
          "internalType": "uint256",
          "name": "",
          "type": "uint256"
        }
      ],
      "stateMutability": "view",
      "type": "function"
    },
    {
      "inputs": [
        {
          "internalType": "uint256",
          "name": "evalId",
          "type": "uint256"
        }
      ],
      "name": "checkExpiry",
      "outputs": [],
      "stateMutability": "nonpayable",
      "type": "function"
    },
    {
      "inputs": [
        {
          "internalType": "uint256",
          "name": "tradeId",
          "type": "uint256"
        }
      ],
      "name": "closeSimTrade",
      "outputs": [
        {
          "internalType": "int256",
          "name": "pnl",
          "type": "int256"
        }
      ],
      "stateMutability": "nonpayable",
      "type": "function"
    },
    {
      "inputs": [
        {
          "internalType": "uint8",
          "name": "tier",
          "type": "uint8"
        },
        {
          "internalType": "uint256",
          "name": "size",
          "type": "uint256"
        }
      ],
      "name": "evalFee",
      "outputs": [
        {
          "internalType": "uint256",
          "name": "",
          "type": "uint256"
        }
      ],
      "stateMutability": "view",
      "type": "function"
    },
    {
      "inputs": [
        {
          "internalType": "uint256",
          "name": "evalId",
          "type": "uint256"
        }
      ],
      "name": "evalProgress",
      "outputs": [
        {
          "internalType": "uint256",
          "name": "profitPct",
          "type": "uint256"
        },
        {
          "internalType": "uint256",
          "name": "targetPct",
          "type": "uint256"
        },
        {
          "internalType": "uint256",
          "name": "dailyDDUsed",
          "type": "uint256"
        },
        {
          "internalType": "uint256",
          "name": "totalDDUsed",
          "type": "uint256"
        },
        {
          "internalType": "uint256",
          "name": "daysRemaining",
          "type": "uint256"
        },
        {
          "internalType": "bool",
          "name": "onTrack",
          "type": "bool"
        }
      ],
      "stateMutability": "view",
      "type": "function"
    },
    {
      "inputs": [
        {
          "internalType": "uint256",
          "name": "",
          "type": "uint256"
        },
        {
          "internalType": "uint256",
          "name": "",
          "type": "uint256"
        }
      ],
      "name": "evalTradeIds",
      "outputs": [
        {
          "internalType": "uint256",
          "name": "",
          "type": "uint256"
        }
      ],
      "stateMutability": "view",
      "type": "function"
    },
    {
      "inputs": [
        {
          "internalType": "uint256",
          "name": "",
          "type": "uint256"
        }
      ],
      "name": "evals",
      "outputs": [
        {
          "internalType": "address",
          "name": "trader",
          "type": "address"
        },
        {
          "internalType": "uint8",
          "name": "tier",
          "type": "uint8"
        },
        {
          "internalType": "enum WikiPropEval.EvalPhase",
          "name": "phase",
          "type": "uint8"
        },
        {
          "internalType": "enum WikiPropEval.EvalStatus",
          "name": "status",
          "type": "uint8"
        },
        {
          "internalType": "uint256",
          "name": "accountSize",
          "type": "uint256"
        },
        {
          "internalType": "uint256",
          "name": "balance",
          "type": "uint256"
        },
        {
          "internalType": "uint256",
          "name": "startBalance",
          "type": "uint256"
        },
        {
          "internalType": "uint256",
          "name": "originalBalance",
          "type": "uint256"
        },
        {
          "internalType": "uint256",
          "name": "peakBalance",
          "type": "uint256"
        },
        {
          "internalType": "uint256",
          "name": "dailyStartBalance",
          "type": "uint256"
        },
        {
          "internalType": "uint256",
          "name": "lastDayTs",
          "type": "uint256"
        },
        {
          "internalType": "uint256",
          "name": "p1StartTs",
          "type": "uint256"
        },
        {
          "internalType": "uint256",
          "name": "p2StartTs",
          "type": "uint256"
        },
        {
          "internalType": "uint256",
          "name": "feePaid",
          "type": "uint256"
        },
        {
          "internalType": "int256",
          "name": "realizedPnl",
          "type": "int256"
        },
        {
          "internalType": "uint256",
          "name": "openTradeCount",
          "type": "uint256"
        },
        {
          "internalType": "uint256",
          "name": "totalTrades",
          "type": "uint256"
        },
        {
          "internalType": "uint256",
          "name": "p1FinalBalance",
          "type": "uint256"
        },
        {
          "internalType": "uint256",
          "name": "p1ProfitBps",
          "type": "uint256"
        },
        {
          "internalType": "uint256",
          "name": "p1TradingDays",
          "type": "uint256"
        },
        {
          "internalType": "uint256",
          "name": "p1CompletedTs",
          "type": "uint256"
        },
        {
          "internalType": "bool",
          "name": "p1Passed",
          "type": "bool"
        },
        {
          "internalType": "bool",
          "name": "breached",
          "type": "bool"
        },
        {
          "internalType": "string",
          "name": "breachReason",
          "type": "string"
        },
        {
          "internalType": "uint256",
          "name": "createdAt",
          "type": "uint256"
        },
        {
          "internalType": "uint256",
          "name": "bestSingleDayProfit",
          "type": "uint256"
        },
        {
          "internalType": "uint256",
          "name": "totalRealizedProfit",
          "type": "uint256"
        },
        {
          "internalType": "uint256",
          "name": "tradingDaysCount",
          "type": "uint256"
        },
        {
          "internalType": "uint256",
          "name": "lastTradedDay",
          "type": "uint256"
        }
      ],
      "stateMutability": "view",
      "type": "function"
    },
    {
      "inputs": [],
      "name": "feeRecipient",
      "outputs": [
        {
          "internalType": "address",
          "name": "",
          "type": "address"
        }
      ],
      "stateMutability": "view",
      "type": "function"
    },
    {
      "inputs": [],
      "name": "fundedContract",
      "outputs": [
        {
          "internalType": "address",
          "name": "",
          "type": "address"
        }
      ],
      "stateMutability": "view",
      "type": "function"
    },
    {
      "inputs": [
        {
          "internalType": "uint256",
          "name": "evalId",
          "type": "uint256"
        }
      ],
      "name": "getConsistencyStatus",
      "outputs": [
        {
          "internalType": "uint256",
          "name": "bestDayProfit",
          "type": "uint256"
        },
        {
          "internalType": "uint256",
          "name": "totalProfit",
          "type": "uint256"
        },
        {
          "internalType": "uint256",
          "name": "allowedMaxDay",
          "type": "uint256"
        },
        {
          "internalType": "uint256",
          "name": "tradingDays",
          "type": "uint256"
        },
        {
          "internalType": "uint256",
          "name": "minDaysRequired",
          "type": "uint256"
        },
        {
          "internalType": "bool",
          "name": "consistent",
          "type": "bool"
        }
      ],
      "stateMutability": "view",
      "type": "function"
    },
    {
      "inputs": [
        {
          "internalType": "uint256",
          "name": "evalId",
          "type": "uint256"
        }
      ],
      "name": "getEffectiveBalance",
      "outputs": [
        {
          "internalType": "uint256",
          "name": "",
          "type": "uint256"
        }
      ],
      "stateMutability": "view",
      "type": "function"
    },
    {
      "inputs": [
        {
          "internalType": "uint256",
          "name": "id",
          "type": "uint256"
        }
      ],
      "name": "getEval",
      "outputs": [
        {
          "internalType": "address",
          "name": "trader",
          "type": "address"
        },
        {
          "internalType": "uint8",
          "name": "tier",
          "type": "uint8"
        },
        {
          "internalType": "enum WikiPropEval.EvalPhase",
          "name": "phase",
          "type": "uint8"
        },
        {
          "internalType": "enum WikiPropEval.EvalStatus",
          "name": "status",
          "type": "uint8"
        },
        {
          "internalType": "uint256",
          "name": "accountSize",
          "type": "uint256"
        },
        {
          "internalType": "uint256",
          "name": "balance",
          "type": "uint256"
        },
        {
          "internalType": "uint256",
          "name": "startBalance",
          "type": "uint256"
        },
        {
          "internalType": "uint256",
          "name": "originalBalance",
          "type": "uint256"
        },
        {
          "internalType": "uint256",
          "name": "peakBalance",
          "type": "uint256"
        },
        {
          "internalType": "uint256",
          "name": "dailyStartBalance",
          "type": "uint256"
        },
        {
          "internalType": "uint256",
          "name": "lastDayTs",
          "type": "uint256"
        },
        {
          "internalType": "uint256",
          "name": "p1StartTs",
          "type": "uint256"
        },
        {
          "internalType": "uint256",
          "name": "p2StartTs",
          "type": "uint256"
        },
        {
          "internalType": "uint256",
          "name": "feePaid",
          "type": "uint256"
        },
        {
          "internalType": "int256",
          "name": "realizedPnl",
          "type": "int256"
        },
        {
          "internalType": "uint256",
          "name": "openTradeCount",
          "type": "uint256"
        },
        {
          "internalType": "uint256",
          "name": "totalTrades",
          "type": "uint256"
        },
        {
          "internalType": "bool",
          "name": "breached",
          "type": "bool"
        },
        {
          "internalType": "string",
          "name": "breachReason",
          "type": "string"
        },
        {
          "internalType": "uint256",
          "name": "createdAt",
          "type": "uint256"
        }
      ],
      "stateMutability": "view",
      "type": "function"
    },
    {
      "inputs": [
        {
          "internalType": "uint256",
          "name": "id",
          "type": "uint256"
        }
      ],
      "name": "getEvalTrades",
      "outputs": [
        {
          "internalType": "uint256[]",
          "name": "",
          "type": "uint256[]"
        }
      ],
      "stateMutability": "view",
      "type": "function"
    },
    {
      "inputs": [
        {
          "internalType": "uint256",
          "name": "evalId",
          "type": "uint256"
        }
      ],
      "name": "getPhaseStatus",
      "outputs": [
        {
          "internalType": "uint8",
          "name": "currentPhase",
          "type": "uint8"
        },
        {
          "internalType": "uint256",
          "name": "currentBalance",
          "type": "uint256"
        },
        {
          "internalType": "uint256",
          "name": "targetBalance",
          "type": "uint256"
        },
        {
          "internalType": "uint256",
          "name": "progressBps",
          "type": "uint256"
        },
        {
          "internalType": "uint256",
          "name": "daysRemaining",
          "type": "uint256"
        },
        {
          "internalType": "uint256",
          "name": "dailyDDLimit",
          "type": "uint256"
        },
        {
          "internalType": "uint256",
          "name": "dailyDDUsed",
          "type": "uint256"
        },
        {
          "internalType": "uint256",
          "name": "maxLeverageThisPhase",
          "type": "uint256"
        },
        {
          "internalType": "uint256",
          "name": "consistencyPctThisPhase",
          "type": "uint256"
        },
        {
          "internalType": "uint256",
          "name": "tradingDaysThisPhase",
          "type": "uint256"
        },
        {
          "internalType": "uint256",
          "name": "minTradingDaysRequired",
          "type": "uint256"
        },
        {
          "internalType": "bool",
          "name": "p1Passed",
          "type": "bool"
        },
        {
          "internalType": "uint256",
          "name": "p1ProfitBps",
          "type": "uint256"
        },
        {
          "internalType": "string",
          "name": "nextMilestone",
          "type": "string"
        }
      ],
      "stateMutability": "view",
      "type": "function"
    },
    {
      "inputs": [
        {
          "internalType": "uint256",
          "name": "id",
          "type": "uint256"
        }
      ],
      "name": "getSimTrade",
      "outputs": [
        {
          "components": [
            {
              "internalType": "uint256",
              "name": "evalId",
              "type": "uint256"
            },
            {
              "internalType": "address",
              "name": "trader",
              "type": "address"
            },
            {
              "internalType": "uint256",
              "name": "marketIndex",
              "type": "uint256"
            },
            {
              "internalType": "bool",
              "name": "isLong",
              "type": "bool"
            },
            {
              "internalType": "uint256",
              "name": "size",
              "type": "uint256"
            },
            {
              "internalType": "uint256",
              "name": "leverage",
              "type": "uint256"
            },
            {
              "internalType": "uint256",
              "name": "entryPrice",
              "type": "uint256"
            },
            {
              "internalType": "uint256",
              "name": "exitPrice",
              "type": "uint256"
            },
            {
              "internalType": "int256",
              "name": "pnl",
              "type": "int256"
            },
            {
              "internalType": "uint256",
              "name": "openTs",
              "type": "uint256"
            },
            {
              "internalType": "uint256",
              "name": "closeTs",
              "type": "uint256"
            },
            {
              "internalType": "bool",
              "name": "open",
              "type": "bool"
            }
          ],
          "internalType": "struct WikiPropEval.SimTrade",
          "name": "",
          "type": "tuple"
        }
      ],
      "stateMutability": "view",
      "type": "function"
    },
    {
      "inputs": [
        {
          "internalType": "address",
          "name": "t",
          "type": "address"
        }
      ],
      "name": "getTraderEvals",
      "outputs": [
        {
          "internalType": "uint256[]",
          "name": "",
          "type": "uint256[]"
        }
      ],
      "stateMutability": "view",
      "type": "function"
    },
    {
      "inputs": [
        {
          "internalType": "uint256",
          "name": "tradeId",
          "type": "uint256"
        }
      ],
      "name": "getUnrealizedPnl",
      "outputs": [
        {
          "internalType": "int256",
          "name": "",
          "type": "int256"
        }
      ],
      "stateMutability": "view",
      "type": "function"
    },
    {
      "inputs": [
        {
          "internalType": "uint256",
          "name": "evalId",
          "type": "uint256"
        },
        {
          "internalType": "uint256",
          "name": "marketIndex",
          "type": "uint256"
        },
        {
          "internalType": "bool",
          "name": "isLong",
          "type": "bool"
        },
        {
          "internalType": "uint256",
          "name": "size",
          "type": "uint256"
        },
        {
          "internalType": "uint256",
          "name": "leverage",
          "type": "uint256"
        }
      ],
      "name": "openSimTrade",
      "outputs": [
        {
          "internalType": "uint256",
          "name": "tradeId",
          "type": "uint256"
        }
      ],
      "stateMutability": "nonpayable",
      "type": "function"
    },
    {
      "inputs": [],
      "name": "oracle",
      "outputs": [
        {
          "internalType": "address",
          "name": "",
          "type": "address"
        }
      ],
      "stateMutability": "view",
      "type": "function"
    },
    {
      "inputs": [],
      "name": "owner",
      "outputs": [
        {
          "internalType": "address",
          "name": "",
          "type": "address"
        }
      ],
      "stateMutability": "view",
      "type": "function"
    },
    {
      "inputs": [],
      "name": "pause",
      "outputs": [],
      "stateMutability": "nonpayable",
      "type": "function"
    },
    {
      "inputs": [],
      "name": "paused",
      "outputs": [
        {
          "internalType": "bool",
          "name": "",
          "type": "bool"
        }
      ],
      "stateMutability": "view",
      "type": "function"
    },
    {
      "inputs": [],
      "name": "pendingOwner",
      "outputs": [
        {
          "internalType": "address",
          "name": "",
          "type": "address"
        }
      ],
      "stateMutability": "view",
      "type": "function"
    },
    {
      "inputs": [],
      "name": "propPool",
      "outputs": [
        {
          "internalType": "address",
          "name": "",
          "type": "address"
        }
      ],
      "stateMutability": "view",
      "type": "function"
    },
    {
      "inputs": [],
      "name": "renounceOwnership",
      "outputs": [],
      "stateMutability": "nonpayable",
      "type": "function"
    },
    {
      "inputs": [
        {
          "internalType": "address",
          "name": "f",
          "type": "address"
        }
      ],
      "name": "setFeeRecipient",
      "outputs": [],
      "stateMutability": "nonpayable",
      "type": "function"
    },
    {
      "inputs": [
        {
          "internalType": "address",
          "name": "f",
          "type": "address"
        }
      ],
      "name": "setFundedContract",
      "outputs": [],
      "stateMutability": "nonpayable",
      "type": "function"
    },
    {
      "inputs": [
        {
          "internalType": "address",
          "name": "o",
          "type": "address"
        }
      ],
      "name": "setOracle",
      "outputs": [],
      "stateMutability": "nonpayable",
      "type": "function"
    },
    {
      "inputs": [
        {
          "internalType": "address",
          "name": "p",
          "type": "address"
        }
      ],
      "name": "setPropPool",
      "outputs": [],
      "stateMutability": "nonpayable",
      "type": "function"
    },
    {
      "inputs": [
        {
          "internalType": "uint256",
          "name": "",
          "type": "uint256"
        }
      ],
      "name": "simTrades",
      "outputs": [
        {
          "internalType": "uint256",
          "name": "evalId",
          "type": "uint256"
        },
        {
          "internalType": "address",
          "name": "trader",
          "type": "address"
        },
        {
          "internalType": "uint256",
          "name": "marketIndex",
          "type": "uint256"
        },
        {
          "internalType": "bool",
          "name": "isLong",
          "type": "bool"
        },
        {
          "internalType": "uint256",
          "name": "size",
          "type": "uint256"
        },
        {
          "internalType": "uint256",
          "name": "leverage",
          "type": "uint256"
        },
        {
          "internalType": "uint256",
          "name": "entryPrice",
          "type": "uint256"
        },
        {
          "internalType": "uint256",
          "name": "exitPrice",
          "type": "uint256"
        },
        {
          "internalType": "int256",
          "name": "pnl",
          "type": "int256"
        },
        {
          "internalType": "uint256",
          "name": "openTs",
          "type": "uint256"
        },
        {
          "internalType": "uint256",
          "name": "closeTs",
          "type": "uint256"
        },
        {
          "internalType": "bool",
          "name": "open",
          "type": "bool"
        }
      ],
      "stateMutability": "view",
      "type": "function"
    },
    {
      "inputs": [
        {
          "internalType": "uint8",
          "name": "tier",
          "type": "uint8"
        },
        {
          "internalType": "uint256",
          "name": "accountSize",
          "type": "uint256"
        }
      ],
      "name": "startEval",
      "outputs": [
        {
          "internalType": "uint256",
          "name": "evalId",
          "type": "uint256"
        }
      ],
      "stateMutability": "nonpayable",
      "type": "function"
    },
    {
      "inputs": [
        {
          "internalType": "uint8",
          "name": "",
          "type": "uint8"
        }
      ],
      "name": "tiers",
      "outputs": [
        {
          "internalType": "uint256",
          "name": "minSize",
          "type": "uint256"
        },
        {
          "internalType": "uint256",
          "name": "maxSize",
          "type": "uint256"
        },
        {
          "internalType": "uint256",
          "name": "feeBps",
          "type": "uint256"
        },
        {
          "internalType": "uint256",
          "name": "p1TargetBps",
          "type": "uint256"
        },
        {
          "internalType": "uint256",
          "name": "p1DailyDDBps",
          "type": "uint256"
        },
        {
          "internalType": "uint256",
          "name": "p1TotalDDBps",
          "type": "uint256"
        },
        {
          "internalType": "uint256",
          "name": "p1Days",
          "type": "uint256"
        },
        {
          "internalType": "uint256",
          "name": "p1MaxLeverage",
          "type": "uint256"
        },
        {
          "internalType": "uint256",
          "name": "p1ConsistencyPct",
          "type": "uint256"
        },
        {
          "internalType": "uint256",
          "name": "p1MinTradingDays",
          "type": "uint256"
        },
        {
          "internalType": "uint256",
          "name": "p2TargetBps",
          "type": "uint256"
        },
        {
          "internalType": "uint256",
          "name": "p2DailyDDBps",
          "type": "uint256"
        },
        {
          "internalType": "uint256",
          "name": "p2TotalDDBps",
          "type": "uint256"
        },
        {
          "internalType": "uint256",
          "name": "p2Days",
          "type": "uint256"
        },
        {
          "internalType": "uint256",
          "name": "p2MaxLeverage",
          "type": "uint256"
        },
        {
          "internalType": "uint256",
          "name": "p2ConsistencyPct",
          "type": "uint256"
        },
        {
          "internalType": "uint256",
          "name": "p2MinTradingDays",
          "type": "uint256"
        },
        {
          "internalType": "uint256",
          "name": "initialSplitBps",
          "type": "uint256"
        },
        {
          "internalType": "bool",
          "name": "requiresEval",
          "type": "bool"
        }
      ],
      "stateMutability": "view",
      "type": "function"
    },
    {
      "inputs": [],
      "name": "totalEvals",
      "outputs": [
        {
          "internalType": "uint256",
          "name": "",
          "type": "uint256"
        }
      ],
      "stateMutability": "view",
      "type": "function"
    },
    {
      "inputs": [],
      "name": "totalEvalsFailed",
      "outputs": [
        {
          "internalType": "uint256",
          "name": "",
          "type": "uint256"
        }
      ],
      "stateMutability": "view",
      "type": "function"
    },
    {
      "inputs": [],
      "name": "totalEvalsPassed",
      "outputs": [
        {
          "internalType": "uint256",
          "name": "",
          "type": "uint256"
        }
      ],
      "stateMutability": "view",
      "type": "function"
    },
    {
      "inputs": [],
      "name": "totalFeesCollected",
      "outputs": [
        {
          "internalType": "uint256",
          "name": "",
          "type": "uint256"
        }
      ],
      "stateMutability": "view",
      "type": "function"
    },
    {
      "inputs": [],
      "name": "totalSimTrades",
      "outputs": [
        {
          "internalType": "uint256",
          "name": "",
          "type": "uint256"
        }
      ],
      "stateMutability": "view",
      "type": "function"
    },
    {
      "inputs": [
        {
          "internalType": "address",
          "name": "",
          "type": "address"
        },
        {
          "internalType": "uint256",
          "name": "",
          "type": "uint256"
        }
      ],
      "name": "traderEvals",
      "outputs": [
        {
          "internalType": "uint256",
          "name": "",
          "type": "uint256"
        }
      ],
      "stateMutability": "view",
      "type": "function"
    },
    {
      "inputs": [
        {
          "internalType": "address",
          "name": "newOwner",
          "type": "address"
        }
      ],
      "name": "transferOwnership",
      "outputs": [],
      "stateMutability": "nonpayable",
      "type": "function"
    },
    {
      "inputs": [],
      "name": "unpause",
      "outputs": [],
      "stateMutability": "nonpayable",
      "type": "function"
    },
    {
      "inputs": [
        {
          "internalType": "uint8",
          "name": "t",
          "type": "uint8"
        },
        {
          "components": [
            {
              "internalType": "uint256",
              "name": "minSize",
              "type": "uint256"
            },
            {
              "internalType": "uint256",
              "name": "maxSize",
              "type": "uint256"
            },
            {
              "internalType": "uint256",
              "name": "feeBps",
              "type": "uint256"
            },
            {
              "internalType": "uint256",
              "name": "p1TargetBps",
              "type": "uint256"
            },
            {
              "internalType": "uint256",
              "name": "p1DailyDDBps",
              "type": "uint256"
            },
            {
              "internalType": "uint256",
              "name": "p1TotalDDBps",
              "type": "uint256"
            },
            {
              "internalType": "uint256",
              "name": "p1Days",
              "type": "uint256"
            },
            {
              "internalType": "uint256",
              "name": "p1MaxLeverage",
              "type": "uint256"
            },
            {
              "internalType": "uint256",
              "name": "p1ConsistencyPct",
              "type": "uint256"
            },
            {
              "internalType": "uint256",
              "name": "p1MinTradingDays",
              "type": "uint256"
            },
            {
              "internalType": "uint256",
              "name": "p2TargetBps",
              "type": "uint256"
            },
            {
              "internalType": "uint256",
              "name": "p2DailyDDBps",
              "type": "uint256"
            },
            {
              "internalType": "uint256",
              "name": "p2TotalDDBps",
              "type": "uint256"
            },
            {
              "internalType": "uint256",
              "name": "p2Days",
              "type": "uint256"
            },
            {
              "internalType": "uint256",
              "name": "p2MaxLeverage",
              "type": "uint256"
            },
            {
              "internalType": "uint256",
              "name": "p2ConsistencyPct",
              "type": "uint256"
            },
            {
              "internalType": "uint256",
              "name": "p2MinTradingDays",
              "type": "uint256"
            },
            {
              "internalType": "uint256",
              "name": "initialSplitBps",
              "type": "uint256"
            },
            {
              "internalType": "bool",
              "name": "requiresEval",
              "type": "bool"
            }
          ],
          "internalType": "struct WikiPropEval.TierConfig",
          "name": "cfg",
          "type": "tuple"
        }
      ],
      "name": "updateTier",
      "outputs": [],
      "stateMutability": "nonpayable",
      "type": "function"
    }
  ],
  "bytecode": "0x60a06040523461063a57604051601f61430838819003918201601f19168301916001600160401b0383118484101761063e5780849260609460405283398101031261063a5761004d81610672565b9061005a60208201610672565b906001600160a01b039061007090604001610672565b1691821561062757600180546001600160a01b03199081169091555f80549182168517815560405194916001600160a01b0316907f8be0079c531659141344cd1fd0a4f28419497f9722a3daafe3b4186f6b6457e09080a360017f9b779b17422d0df92223018b32b4d1fa46e071723d6817e2486d003becc55f00556001600160a01b03169182156105f357506001600160a01b03169081156105b957608052600280546001600160a01b03191691909117905561012c610652565b6402540be4008152642e90edd0006020820152603260408201526103206060820152610190608082015261032060a0820152601e60c0820152606460e0820152602861010082015260046101208201526101f461014082015261012c610160820152610320610180820152603c6101a082015260326101c082015260236101e08201526005610200820152611b58610220820152600161024082015260015f526006602052610240601260405f20835181556020840151600182015560408401516002820155606084015160038201556080840151600482015560a0840151600582015560c0840151600682015560e0840151600782015561010084015160088201556101208401516009820155610140840151600a820155610160840151600b820155610180840151600c8201556101a0840151600d8201556101c0840151600e8201556101e0840151600f8201556102008401516010820155610220840151601182015501910151151560ff801983541691161790556102ac610652565b6402540be4008152642e90edd00060208201526028604082015261032060608201526101f460808201526103e860a0820152601e60c0820152606460e0820152602861010082015260046101208201526101f46101408201526101906101608201526103e8610180820152603c6101a082015260326101c082015260236101e08201526005610200820152611f40610220820152600161024082015260025f526006602052610240601260405f20835181556020840151600182015560408401516002820155606084015160038201556080840151600482015560a0840151600582015560c0840151600682015560e0840151600782015561010084015160088201556101208401516009820155610140840151600a820155610160840151600b820155610180840151600c8201556101a0840151600d8201556101c0840151600e8201556101e0840151600f8201556102008401516010820155610220840151601182015501910151151560ff8019835416911617905561042c610652565b64012a05f2008152640ba43b7400602082015261012c60408201525f606082015261012c608082015261025860a08201525f60c0820152603260e08201525f6101008201525f6101208201525f61014082015261012c6101608201526102586101808201525f6101a082015260326101c08201525f6101e08201525f6102008201526117706102208201525f61024082015260035f526006602052610240601260405f20835181556020840151600182015560408401516002820155606084015160038201556080840151600482015560a0840151600582015560c0840151600682015560e0840151600782015561010084015160088201556101208401516009820155610140840151600a820155610160840151600b820155610180840151600c8201556101a0840151600d8201556101c0840151600e8201556101e0840151600f8201556102008401516010820155610220840151601182015501910151151560ff80198354169116179055604051613c8190816106878239608051818181610a4301526110fe0152f35b60405162461bcd60e51b815260206004820152601260248201527157696b693a207a65726f205f6f7261636c6560701b6044820152606490fd5b62461bcd60e51b815260206004820152600f60248201526e57696b693a207a65726f207573646360881b6044820152606490fd5b631e4fbdf760e01b5f525f60045260245ffd5b5f80fd5b634e487b7160e01b5f52604160045260245ffd5b6040519061026082016001600160401b0381118382101761063e57604052565b51906001600160a01b038216820361063a5756fe6103806040526004361015610012575f80fd5b5f803560e01c8062bf8a2c14612906578063043c4285146127545780630713a1331461224f57806315dd08db1461220c5780631a7a904714611e5e5780631c23efaf14611d6d578063249d39e914611d515780632a61efd214611c9a5780632c4a8ea414611c365780633f4ba83a14611bc857806342b62ba614611b845780634599791e14611b5c5780634690484014611b34578063481b26e114611b185780634917802214611ae15780635c975abb14611abc578063607e639314611a9f57806360c6d8ae14611a82578063650ae46e14611a045780636a189707146117545780636ddcb44214611326578063715018a6146112c357806379ba50971461123e5780637adbf973146111fb5780637b214bb3146111d35780637c812c63146111b65780637dc0d1d01461118e5780638456cb591461112d57806389a30271146110e95780638da5cb5b146110c257806392a5f89a146110a5578063957ed67e146109c5578063a92a54bd1461098c578063ac93a16914610965578063b51655f7146107e4578063b85ab602146106e0578063ba1275981461053c578063d1d79974146103de578063db8fac2614610387578063dd43e8881461036a578063e04808de1461034c578063e30c397814610323578063e4357cd714610303578063e74b981b146102c3578063f1fce334146102835763f2fde38b14610214575f80fd5b346102805760203660031901126102805761022d612b35565b61023561317f565b600180546001600160a01b0319166001600160a01b0392831690811790915582549091167f38d16b8cac22d99fc7c124b9cd0de2d3fa1faef420bfe791d8c362d765e227008380a380f35b80fd5b50346102805760203660031901126102805761029d612b35565b6102a561317f565b60018060a01b03166001600160601b0360a01b600454161760045580f35b5034610280576020366003190112610280576102dd612b35565b6102e561317f565b60018060a01b03166001600160601b0360a01b600554161760055580f35b503461028057602036600319011261028057610320600435612fe4565b80f35b50346102805780600319360112610280576001546040516001600160a01b039091168152602090f35b50346102805780600319360112610280576020600e54604051908152f35b50346102805780600319360112610280576020604051611b588152f35b5034610280576040366003190112610280576103a1612b35565b6001600160a01b03168152600960205260408120805460243592908310156102805760206103cf8484612b94565b90549060031b1c604051908152f35b503461028057602036600319011261028057600f600e600d600c600b600a600960086007600660056004600360ff604060129f8261041a612b84565b16815286602052209e8f9e8f9e8f9e8f9e8f9e8f9e8f9e8f9e8f9e8f9e8f9e8f9e8f9e8f549f60018101546101005260028101546101205201549f01549f01549f01549f01549f01549f01549f01549f01549f01549f01549f01549f01549f6010810154608052601181015460c05201541660e05260405160a05260a0515261010051602060a051015261012051604060a0510152606060a0510152608060a051015260a08051015260c060a051015260e060a051015261010060a051015261012060a051015261014060a051015261016060a051015261018060a05101526101a060a05101526101c060a05101526101e060a051015260805161020060a051015260c05161022060a051015260e051151561024060a051015261026060a051f35b503461028057602036600319011261028057600435815260076020526040902080805460018201546101605260028201546101a05260038201546004830154600584015460068501546007860154600887015490600988015492600a89015494600b8a015496600c8b015498600d8c01549a60128d015460081c60ff169c6013016105c690612c48565b9d601401546101405260405161018052600160a01b60019003811661018051528060a01c60ff166101805160200152610180516040018160a81c60ff169061060d91612ce8565b610180516060019060b01c60ff169061062591612cf5565b6101605161018051608001526101a0516101805160a001526101805160c001526101805160e00152610180516101000152610180516101200152610180516101400152610180516101600152610180516101800152610180516101a00152610180516101c00152610180516101e0015261018051610200015215156101805161022001526101805161024001610280905261018051610280016106c791612d02565b6101405161018051610260015261018051900361018051f35b503461028057610280366003190112610280576106fb612b84565b6102603660231901126107e05760ff9061071361317f565b168152600660205260408120602435815560443560018201556064356002820155608435600382015560a435600482015560c435600582015560e435600682015561010435600782015561012435600882015561014435600982015561016435600a82015561018435600b8201556101a435600c8201556101c435600d8201556101e435600e82015561020435600f8201556102243560108201556102443560118201556102643580151581036107dc57601261032092019060ff801983541691151516179055565b8280fd5b5080fd5b50346102805760203660031901126102805760408161018092610160835161080b81612bf5565b82815282602082015282858201528260608201528260808201528260a08201528260c08201528260e08201528261010082015282610120820152826101408201520152600435815260086020522060405161086581612bf5565b808083549384825260018060a01b036001820154166020830190815260028201546040840190815260ff60038401541660608501901515815260048401546080860190815260058501549160a0870192835260068601549360c0880194855260078701549560e0890196875261016060ff600b60088b01549a6101008d019b8c5261012060098201549d019c8d52610140600a8201549e019d8e520154169b019a15158b526040519b8c5260018060a01b0390511660208c01525160408b015251151560608a01525160808901525160a08801525160c08701525160e0860152516101008501525161012084015251610140830152511515610160820152f35b5034610280576020366003190112610280576020610984600435612ed2565b604051908152f35b5034610280576020366003190112610280576020906040906001600160a01b036109b4612b35565b168152600a83522054604051908152f35b5034610dcb576040366003190112610dcb576109df612b84565b602435906109eb613129565b6109f3613161565b60ff811691825f52600660205260405f208054801561106b5782106110305760018101548211610ff557335f52600a60205260405f2054610fb057612710610a3f600283015484612d33565b04937f00000000000000000000000000000000000000000000000000000000000000006040516323b872dd60e01b5f5233600452306024528660445260205f60648180865af160015f5114811615610f91575b816040525f60605215610f7057611b588702871590888104611b5814821715610f5c57612710900490610bb8890290898204610bb8141715610f5c5760045461271090910492906001600160a01b031680151580610f53575b610e82575b50506005546001600160a01b031691905081151580610e79575b610e02575b505050610b1e85601054612d64565b601055610b2c600c54612e75565b600c8181558188526007602081905260408920805462ffffff60a01b1933166001600160b81b03199091161760a089901b60ff60a01b1617815560018101879055600281018790556003810187905560048101879055600581018790556006810187905542918101829055600881019190915560098101899055600a8101889055600b8101899055908101889055600d8101889055600e8101889055600f8101889055601081018890556011810188905560128101805461ffff19169055601381018054929792899260189290915f9190610c0690612bbd565b601f8111610de3575b505542601482015582601582015582601682015582601782015501553387526009602052610c408660408920612e83565b338752600a6020528560408820556040519182528360208301526040820152847f9e933dfe6f9443e04b47cf320db476fe6dc2542baa7ded971efb37664ac2a08360603393a360ff60128201541615610cb0575b60208460015f80516020613c2c83398151915255604051908152f35b610d3c916020918587526007835260408720600160b01b60ff60b01b19825416179055338752600a8352866040812055610ceb600e54612e75565b600e55600354601191909101546040516313ccf7d960e01b8152336004820152602481019390935260ff861660448401526064830152909283916001600160a01b0316908290889082906084820190565b03925af1938415610dd75793610d9f575b50817fb3cd1fea08d6a797e401e59753feb515572dcffb7a2de4c15894473c685ddf50610d946020956040519182913396836020909392919360ff60408201951681520152565b0390a35f8080610c94565b92506020833d602011610dcf575b81610dba60209383612c26565b81010312610dcb5791519181610d4d565b5f80fd5b3d9150610dad565b604051903d90823e3d90fd5b81865260208620610dfc91601f0160051c810190612ebc565b5f610c0f565b6040519163a9059cbb60e01b8a5260045260245260208860448180865af1906001895114821615610e58575b60405215610e3d578080610b0f565b635274afe760e01b87526001600160a01b0316600452602486fd5b906001811516610e7057823b15153d15161690610e2e565b503d88823e3d90fd5b50801515610b0a565b63095ea7b360e01b82526004820152602481018290526020816044815f6001600160a01b0389165af18015610f1157610f1c575b506004546001600160a01b031690813b15610dcb575f91602483926040519485938492634d9a90f960e01b845260048401525af18015610f1157610efc575b8080610af0565b610f099198505f90612c26565b5f965f610ef5565b6040513d5f823e3d90fd5b6020813d602011610f4b575b81610f3560209383612c26565b81010312610dcb57518015158114610eb6575f80fd5b3d9150610f28565b50821515610aeb565b634e487b7160e01b5f52601160045260245ffd5b50635274afe760e01b5f9081526001600160a01b0391909116600452602490fd5b6001811516610fa757823b15153d151616610a92565b503d5f823e3d90fd5b60405162461bcd60e51b815260206004820152601b60248201527f4576616c3a20616c726561647920696e206576616c756174696f6e00000000006044820152606490fd5b60405162461bcd60e51b81526020600482015260136024820152724576616c3a2061626f7665206d6178696d756d60681b6044820152606490fd5b60405162461bcd60e51b81526020600482015260136024820152724576616c3a2062656c6f77206d696e696d756d60681b6044820152606490fd5b60405162461bcd60e51b815260206004820152601260248201527122bb30b61d1034b73b30b634b2103a34b2b960711b6044820152606490fd5b34610dcb575f366003190112610dcb576020600d54604051908152f35b34610dcb575f366003190112610dcb575f546040516001600160a01b039091168152602090f35b34610dcb575f366003190112610dcb576040517f00000000000000000000000000000000000000000000000000000000000000006001600160a01b03168152602090f35b34610dcb575f366003190112610dcb5761114561317f565b61114d613161565b6001805460ff60a01b1916600160a01b1790556040513381527f62e78cea01bee320cd4e420270b5ea74000d11b0c9f74754ebdbfc544b05a25890602090a1005b34610dcb575f366003190112610dcb576002546040516001600160a01b039091168152602090f35b34610dcb575f366003190112610dcb576020600c54604051908152f35b34610dcb575f366003190112610dcb576003546040516001600160a01b039091168152602090f35b34610dcb576020366003190112610dcb57611214612b35565b61121c61317f565b600280546001600160a01b0319166001600160a01b0392909216919091179055005b34610dcb575f366003190112610dcb57600154336001600160a01b03909116036112b057600180546001600160a01b03199081169091555f805433928116831782556001600160a01b0316907f8be0079c531659141344cd1fd0a4f28419497f9722a3daafe3b4186f6b6457e09080a3005b63118cdaa760e01b5f523360045260245ffd5b34610dcb575f366003190112610dcb576112db61317f565b600180546001600160a01b03199081169091555f80549182168155906001600160a01b03167f8be0079c531659141344cd1fd0a4f28419497f9722a3daafe3b4186f6b6457e08280a3005b34610dcb576020366003190112610dcb5760606004355f52600760205260405f20805460ff8160a01c165f52600660205260ff60405f209160a81c16600281101561174057158015611738576001925b600281015494821561172d576003840154935b6113a561271061139e60038601549788612d33565b0486612d64565b94808810611726576113b78189612d26565b6127108102908082046127101490151715610f5c576113d96113df9288612d26565b90612d46565b612710811161171d575b84156116ee576008840154600683015462015180810290808204620151801490151715610f5c5761141991612d64565b428111156116e75761143062015180914290612d26565b045b85156116dd5760048301545b60068601548a808211156116d55761145591612d26565b600187015480156116cc576127108202918083046127101490151715610f5c5761147e91612d46565b905b87156116c1576007850154925b88156116b6576008860154945b6017890154968a156116ac5760090154975b600f60ff60128c0154169a01549a5f146115f057506127108110611595576040516114d8606082612c26565b604081527f5068617365203120746172676574207265616368656420e2809420506861736560208201527f20322077696c6c20626567696e20776974682062616c616e636520726573657460408201525b9a5b6040519d8e60ff819f1681526020015260408d015260608c015260808b015260a08a015260c089015260e088015261010087015261012086015261014085015215156101608401526101808301526101a082016101c090526101c0820161159191612d02565b0390f35b6040516115a3606082612c26565b603581527f436f6d706c65746520506861736520313a206869742070726f6669742074617260208201527419d95d081dda5d1a1a5b881d1a5b59481b1a5b5a5d605a1b6040820152611529565b6127108210611653576116066040519182612c26565b603381527f5068617365203220636f6d706c65746520e280942066756e646564206163636f6020820152721d5b9d081dda5b1b0818994818dc99585d1959606a1b60408201525b9a61152b565b6116606040519182612c26565b603481527f436f6d706c65746520506861736520323a206869742070726f66697420746172602082015273676574206f6e20636c65616e2062616c616e636560601b604082015261164d565b60100154976114ac565b600f8601549461149a565b600e8501549261148d565b50505f90611480565b50505f611455565b600b83015461143e565b505f611432565b6009840154600d83015462015180810290808204620151801490151715610f5c5761171891612d64565b611419565b506127106113e9565b505f6113df565b600a84015493611389565b600292611376565b634e487b7160e01b5f52602160045260245ffd5b34610dcb576020366003190112610dcb576004355f52600760205260405f20610360526103605154600161036051015461022052600261036051015461024052600361036051015461034052600461036051015460056103605101546006610360510154600761036051015460086103605101546009610360510154600a61036051015491600b61036051015493600c61036051015495600d61036051015497600e610360510154996118c9600f6103605101549c60106103605101546102c05260116103605101546102e05260126103605101546103005261183c60136103605101612c48565b6103205260146103605101546102005260156103605101546102a05260166103605101546102805260176103605101546102605260186103605101546101e0526040516101c05260018060a01b0381166101c0515260ff8160a01c1660206101c05101526118b660406101c0510160ff8360a81c16612ce8565b60ff60606101c051019160b01c16612cf5565b6102205160806101c05101526102405160a06101c05101526103405160c06101c051015260e06101c05101526101006101c05101526101206101c05101526101406101c05101526101606101c05101526101806101c05101526101a06101c05101526101c0805101526101e06101c05101526102006101c05101526102206101c05101526102406101c05101526102c0516102606101c05101526102e0516102806101c051015260ff610300511615156102a06101c051015260ff6103005160081c1615156102c06101c05101526103a06102e06101c05101526119b76103a06101c0510161032051612d02565b610200516103006101c05101526102a0516103206101c0510152610280516103406101c0510152610260516103606101c05101526101e0516103806101c05101526101c05190036101c051f35b34610dcb576020366003190112610dcb576001600160a01b03611a25612b35565b165f52600960205260405f206040519081602082549182815201915f5260205f20905f5b818110611a6c5761159185611a6081870382612c26565b60405191829182612b4b565b8254845260209093019260019283019201611a49565b34610dcb575f366003190112610dcb576020601054604051908152f35b34610dcb575f366003190112610dcb576020600f54604051908152f35b34610dcb575f366003190112610dcb57602060ff60015460a01c166040519015158152f35b34610dcb576040366003190112610dcb576024356004355f52600b60205260405f208054821015610dcb576020916103cf91612b94565b34610dcb575f366003190112610dcb576020604051610bb88152f35b34610dcb575f366003190112610dcb576005546040516001600160a01b039091168152602090f35b34610dcb575f366003190112610dcb576004546040516001600160a01b039091168152602090f35b34610dcb576040366003190112610dcb5760ff611b9f612b84565b165f5260066020526020612710611bbf600260405f200154602435612d33565b04604051908152f35b34610dcb575f366003190112610dcb57611be061317f565b60015460ff8160a01c1615611c275760ff60a01b19166001556040513381527f5db9ee0a495bf2e6ff9c91a7834c1ba4fdd244a5e8aa4e537bd38aeae4b073aa90602090a1005b638dfc202b60e01b5f5260045ffd5b34610dcb576020366003190112610dcb576004355f52600b60205260405f206040519081602082549182815201915f5260205f20905f5b818110611c845761159185611a6081870382612c26565b8254845260209093019260019283019201611c6d565b34610dcb576020366003190112610dcb576004355f52600860205261018060405f2080549060018060a01b0360018201541690600281015460ff6003830154166004830154600584015460068501549060078601549260088701549460098801549660ff600b600a8b01549a015416996040519b8c5260208c015260408b0152151560608a0152608089015260a088015260c087015260e08601526101008501526101208401526101408301521515610160820152f35b34610dcb575f366003190112610dcb5760206040516127108152f35b34610dcb576020366003190112610dcb576004355f52600760205260405f2080549060ff8260a01c165f52600660205260ff60405f209260a81c166002811015611740571591611591908315611e53576008810154935b15611e495760090154915b60158101546016820154949093908515611e3f576064611df160179288612d33565b04925b0154828511159283611e34575b6040519687968794919260a0949197969360c0870198875260208701526040860152606085015260808401521515910152565b828210159350611e01565b5060175f92611df4565b6010015491611dcf565b600f81015493611dc4565b34610dcb576020366003190112610dcb57600435611e7a613129565b5f81815260086020526040902060018101546001600160a01b031633036121d057600b81019081549160ff8316156121945781545f52600760205260405f209060ff825460b01c16600381101561174057611ed59015612db2565b60018060a01b036002541690604060028501546024825180958193630e75722360e41b835260048301525afa8015610f11575f925f91612155575b5061012c611f2c611f3292611f26861515612df1565b42612d26565b10612e35565b600384015460ff161561210f5760068401548083106120ec57611f6c90611f676004870154611f618387612d26565b90612d33565b612d46565b945b60ff1916905580600784015583600884015542600a840155600c820180548015610f5c575f19019055600b8201611fa6858254612d97565b90556007820191825491620151808301809311610f5c577fd74081136448c8823aa5457ca6ea6e621a33dfbcc13bf36a6abf11ba80d50d60604060027f78be693fcbce53625b2cb99350691380f3505bfea0f11685d4980a30b43fe1ff94829460209b612066998c994210156120da575b505f89126120a85783830161202d8a8254612d64565b80915560058401805482116120a0575b50505b8a549785899893899451908c82526020820152a301548151908152858a820152a2613192565b6120708154613277565b15612090575b5060015f80516020613c2c83398151915255604051908152f35b61209a90546135ec565b82612076565b558d8061203d565b6120b189612d87565b83850180549091808211156120d1576120c991612d26565b905b55612040565b50505f906120cb565b8484015460068501554290558d612017565b61210561210a91611f676004880154611f618784612d26565b612d87565b611f6c565b60068401548281106121375761213190611f676004870154611f618684612d26565b94611f6e565b61210561215091611f676004880154611f618388612d26565b612131565b611f2c9350611f32915061218361012c9160403d60401161218d575b61217b8183612c26565b810190612d71565b9094509150611f10565b503d612171565b60405162461bcd60e51b8152602060048201526014602482015273115d985b0e88185b1c9958591e4818db1bdcd95960621b6044820152606490fd5b60405162461bcd60e51b81526020600482015260146024820152734576616c3a206e6f7420796f757220747261646560601b6044820152606490fd5b34610dcb576020366003190112610dcb57612225612b35565b61222d61317f565b600380546001600160a01b0319166001600160a01b0392909216919091179055005b34610dcb5760a0366003190112610dcb576004356024359060443590811515809203610dcb576064359260843590612285613129565b61228d613161565b5f8381526007602052604090208054909190336001600160a01b038216036127195760ff8160b01c166003811015611740576122c99015612db2565b60ff8160a01c165f52600660205260ff60405f209160a81c166002811015611740571590811561270f5760070154905b60018510159182612704575b501561269657604051612319606082612c26565b602481527f4576616c3a206c6576657261676520657863656564732050686173652031206c6020820152631a5b5a5d60e21b6040820152905b1561266e57506123628387612d46565b60028301541061262957600182015460011c86116125e45785156125ad5760025460408051630e75722360e41b8152600481018490529291839060249082906001600160a01b03165afa918215610f1157602097612519977fbbc42fccb40fb354c2b50c012410ee19ebd54721e9ab7a626e9b6abceb3d06e4956080955f945f91612578575b509061240161012c611f2c600d94611f26891515612df1565b61240b8254612e75565b9a8b998a8455600b8b8d6040519061242282612bf5565b8152602081019333855260408201908c825260608301908a82528c8f8501918d835260a0860190815260c0860191825260e08601925f84526124d96101008801955f87526101208901974289526101408a01995f8b5261016081019b60018d525f52602060089052600160405f209e8f92518355818060a01b0390511691019060018060a01b03166001600160601b0360a01b8254161790555160028d015551151560038c019060ff801983541691151516179055565b5160048a015551600589015551600688015551600787015551600886015551600985015551600a84015551151591019060ff801983541691151516179055565b895f52600b8c5261252d8960405f20612e83565b600c810161253b8154612e75565b9055016125488154612e75565b90556040519384528984015260408301526060820152a360015f80516020613c2c83398151915255604051908152f35b611f2c9550600d92915061012c6125a06124019260403d60401161218d5761217b8183612c26565b97909793945050506123e8565b60405162461bcd60e51b815260206004820152600f60248201526e4576616c3a207a65726f2073697a6560881b6044820152606490fd5b60405162461bcd60e51b815260206004820152601f60248201527f4576616c3a206d617820353025206163636f756e7420706572207472616465006044820152606490fd5b60405162461bcd60e51b815260206004820152601e60248201527f4576616c3a20696e73756666696369656e742073696d2062616c616e636500006044820152606490fd5b60405162461bcd60e51b815260206004820152908190612692906024830190612d02565b0390fd5b6040516126a4608082612c26565b604181527f4576616c3a2050686173652032206d6178206c65766572616765206973206c6f60208201527f77657220e280942070726f76657320736b696c6c206e6f74206c6576657261676040820152606560f81b606082015290612352565b851115915088612305565b600e0154906122f9565b60405162461bcd60e51b8152602060048201526013602482015272115d985b0e881b9bdd081e5bdd5c88195d985b606a1b6044820152606490fd5b34610dcb576020366003190112610dcb57600435805f52600760205260405f20905f905f52600b60205260405f205f90805460018060a01b0360025416915b8184106127c4576127a8856002880154612d97565b5f8113156127bb57602090604051908152f35b5060205f610984565b909192936127d28583612b94565b90549060031b1c5f52600860205260405f209060ff600b83015416156128fc57600282015460405190630e75722360e41b82526004820152604081602481895afa908115610f11575f916128dd575b5080156128d25790829160ff60036001950154165f1461288c576006830154612867938183106128725761286192611f61836004611f6794015492612d26565b90612d97565b945b01929190612793565b90611f6761286193611f6160046121059501549184612d26565b60068301546128b2938282106128b85761286192611f616004611f679301549184612d26565b94612869565b90611f6761286193611f6183600461210596015492612d26565b509460019150612869565b6128f5915060403d811161218d5761217b8183612c26565b5088612821565b9460019150612869565b34610dcb576020366003190112610dcb576004355f52600760205260405f20805460ff8160a01c165f52600660205260405f2060028301549260038101548085115f14612b2b576129578186612d26565b6127108102908082046127101490151715610f5c5760ff9161297891612d46565b935b60a81c16600281101561174057158015612b20576003830154945b60068301548180821115612b18576129ac91612d26565b6127108102908082046127101490151715610f5c576129d060018501548092612d46565b6005850154909280821115612b0f576129e891612d26565b905b6127108202918083046127101490151715610f5c57612a0891612d46565b908215612ad7576008840154600686015462015180810290808204620151801490151715610f5c5761159196612a4260129260ff94612d64565b42811115612acf57612a5962015180914290612d26565b04955b15612ac55760040154955b015460081c16159384612ab8575b5083612aae576040519687968794919260a0949197969360c0870198875260208701526040860152606085015260808401521515910152565b8515159350611e01565b60011c8110935087612a75565b600b015495612a67565b505f95612a5c565b6009840154600d86015462015180810290808204620151801490151715610f5c5761159196612b0a60129260ff94612d64565b612a42565b50505f906129ea565b50505f6129ac565b600a83015494612995565b5060ff5f9361297a565b600435906001600160a01b0382168203610dcb57565b60206040818301928281528451809452019201905f5b818110612b6e5750505090565b8251845260209384019390920191600101612b61565b6004359060ff82168203610dcb57565b8054821015612ba9575f5260205f2001905f90565b634e487b7160e01b5f52603260045260245ffd5b90600182811c92168015612beb575b6020831014612bd757565b634e487b7160e01b5f52602260045260245ffd5b91607f1691612bcc565b610180810190811067ffffffffffffffff821117612c1257604052565b634e487b7160e01b5f52604160045260245ffd5b90601f8019910116810190811067ffffffffffffffff821117612c1257604052565b9060405191825f825492612c5b84612bbd565b8084529360018116908115612cc65750600114612c82575b50612c8092500383612c26565b565b90505f9291925260205f20905f915b818310612caa575050906020612c80928201015f612c73565b6020919350806001915483858901015201910190918492612c91565b905060209250612c8094915060ff191682840152151560051b8201015f612c73565b9060028210156117405752565b9060038210156117405752565b805180835260209291819084018484015e5f828201840152601f01601f1916010190565b91908203918211610f5c57565b81810292918115918404141715610f5c57565b8115612d50570490565b634e487b7160e01b5f52601260045260245ffd5b91908201809211610f5c57565b9190826040910312610dcb576020825192015190565b600160ff1b8114610f5c575f0390565b9190915f8382019384129112908015821691151617610f5c57565b15612db957565b60405162461bcd60e51b815260206004820152601060248201526f4576616c3a206e6f742061637469766560801b6044820152606490fd5b15612df857565b60405162461bcd60e51b81526020600482015260156024820152744576616c3a206e6f206f7261636c6520707269636560581b6044820152606490fd5b15612e3c57565b60405162461bcd60e51b81526020600482015260116024820152704576616c3a207072696365207374616c6560781b6044820152606490fd5b5f198114610f5c5760010190565b805468010000000000000000811015612c1257612ea591600182018155612b94565b819291549060031b91821b915f19901b1916179055565b818110612ec7575050565b5f8155600101612ebc565b5f52600860205260405f2060ff600b8201541615612fdd5760018060a01b036002541690604060028201546024825180958193630e75722360e41b835260048301525afa918215610f11575f92612fbb575b508115612fb557600381015460ff1615612f7857600681015490818310612f5e57612f5b92611f61836004611f6794015492612d26565b90565b90611f67612f5b93611f6160046121059501549184612d26565b600681015490828210612f9b57612f5b92611f616004611f679301549184612d26565b90611f67612f5b93611f6183600461210596015492612d26565b50505f90565b612fd591925060403d60401161218d5761217b8183612c26565b50905f612f24565b6008015490565b805f52600760205260405f20805460ff8160b01c166003811015611740576131245760ff8160a01c165f52600660205260ff60405f209160a81c16600281101561174057801580613117575b806130e5575b1561307657505050612c809060405190613051604083612c26565b6013825272151a5b59481b1a5b5a5d08195e18d959591959606a1b60208301526137c4565b60011491826130d7575b826130a2575b505061308f5750565b612c809060405190613051604083612c26565b600d9192506009015491015462015180810290808204620151801490151715610f5c576130ce91612d64565b42115f80613086565b600d82015415159250613080565b506008830154600683015462015180810290808204620151801490151715610f5c5761311091612d64565b4211613036565b5060068201541515613030565b505050565b60025f80516020613c2c83398151915254146131525760025f80516020613c2c83398151915255565b633ee5aeb560e01b5f5260045ffd5b60ff60015460a01c1661317057565b63d93c066560e01b5f5260045ffd5b5f546001600160a01b031633036112b057565b5f52600760205260405f2090815460ff8160a01c165f52600660205260ff60405f209160a81c1660028110156117405761326e57600801545b1561326a57620151804204806018840180548203613252575b50506019830191815f528260205260405f20613201828254612d97565b90555f811361323b575b505f5260205260405f2054905f82138061322e575b613228575050565b60150155565b5060158101548211613220565b61324a60168501918254612d64565b90555f61320b565b601785016132608154612e75565b905555805f6131e4565b5050565b600f01546131cb565b805f52600760205260405f20805460ff8160a01c165f52600660205260ff60405f209160a81c16600281101561174057156132b18461398e565b6135e35780156135c7576127106132d16001850154600485015490612d33565b045b81156135aa576127106132ef6001860154600586015490612d33565b04905b600685015490600286019182548082115f146135a25761331191612d26565b10156134fe5760058501549054808211156134f65761332f91612d26565b101561346d578080613460575b8061342e575b6133e9571591826133db575b826133a6575b505061335f57505f90565b6133a19060405190613372604083612c26565b601b82527f506861736520322074696d65206c696d6974206578636565646564000000000060208301526137c4565b600190565b600d9192506009015491015462015180810290808204620151801490151715610f5c576133d291612d64565b42115f80613354565b600d8201541515925061334e565b5050506133a190604051906133ff604083612c26565b601b82527f506861736520312074696d65206c696d6974206578636565646564000000000060208301526137c4565b506008830154600683015462015180810290808204620151801490151715610f5c5761345991612d64565b4211613342565b506006820154151561333c565b6133a19392501590506134b857604051613488604082612c26565b601f81527f5068617365203120746f74616c2064726177646f776e206578636565646564006020820152906137c4565b6040516134c6604082612c26565b601f81527f5068617365203220746f74616c2064726177646f776e206578636565646564006020820152906137c4565b50505f61332f565b506133a19493505015905061354b5760405161351b604082612c26565b601f81527f50686173652031206461696c792064726177646f776e206578636565646564006020820152906137c4565b604051613559606082612c26565b603081527f50686173652032206461696c792064726177646f776e2065786365656465642060208201526f287374726963746572206c696d69742960801b6040820152906137c4565b50505f613311565b6127106135c06001860154600c86015490612d33565b04906132f2565b6127106135dd6001850154600b85015490612d33565b046132d3565b50505050600190565b805f52600760205260405f209081549160ff8360a01c165f52600660205260ff60405f209360a81c166002811015611740571580156137ba5760098401545b80151590816137ac575b506137a65715613773576003810192613661845461271061365a600385015483612d33565b0490612d64565b9360028301805495861015613679575b505050505050565b60128401600160ff1982541617905585600e850155600484019561369f87548092612d26565b906127108202918083046127101490151715610f5c576136be91612d46565b600f850155600a6017850193845460108701554260118701550154155f146136f957505050506136ee9150613a86565b5f8080808080613671565b5f939495600160a81b60ff60a81b19875416178655426009870155549182809255558060058501556006840155426007840155816015840155816016840155555f601882015560018060a01b03905416907fb5e9c8dc4e9c859c3aca206ae9d91812ed9b116bd57347e3cd3daeb583ca7f245f80a36136ee565b909161379160029161271061365a600a600387015493015483612d33565b910154101561379d5750565b612c8090613a86565b50505050565b90506017830154105f613635565b601084015461362b565b5f818152600760205260409020805460ff60b01b1916600160b11b17815560128101805461ff0019166101001790558251939291906013810167ffffffffffffffff8611612c12576138168154612bbd565b601f8111613953575b50602095601f81116001146138cb5790816138bb93927f496006e3f8eec6463926e3eced07965f89a0b55696f2da73ddac89bcb12fb9cf959697985f916138c0575b508160011b915f199060031b1c19161790555b80546001600160a01b03165f908152600a6020526040812055600f5461389990612e75565b600f5560018060a01b0390541693604051918291602083526020830190612d02565b0390a3565b90508701515f613861565b601f198116825f52875f20905f5b81811061393b5750916001917f496006e3f8eec6463926e3eced07965f89a0b55696f2da73ddac89bcb12fb9cf96979899826138bb97969510613923575b5050811b019055613874565b8901515f1960f88460031b161c191690555f80613917565b878a015183556020998a0199600190930192016138d9565b61397e90825f5260205f20601f890160051c81019160208a10613984575b601f0160051c0190612ebc565b5f61381f565b9091508190613971565b805f52600760205260405f2080549160ff8360a01c165f52600660205260ff60405f209360a81c16600281101561174057613a7c5760088301545b8015613a745760168301548015613a6b576064916139e691612d33565b04601583015411613a1057505460a81c60ff16600281101561174057613a0b57505f90565b505f90565b6040516133a193509150613a25606083612c26565b602e82527f436f6e73697374656e63792072756c653a206f6e65206461792070726f66697460208301526d08195e18d959591cc81b1a5b5a5d60921b60408301526137c4565b50505050505f90565b505050505f90565b600f8301546139c9565b805f52600760205260405f209060ff825460a01c165f52600660205260405f2091600c810154613be757805460ff60b01b198116600160b01b1782556001600160a01b03165f908152600a60209081526040822091909155600e54613b509490613aef90612e75565b600e5560035483546001850154601193909301546040516313ccf7d960e01b81526001600160a01b038381166004830152602482019590955260a09290921c60ff1660448301526064820152958692919091169082905f9082906084820190565b03925af1928315610f11575f93613bb1575b50546040805160a083901c60ff16815260208101949094526001600160a01b03909116927fb3cd1fea08d6a797e401e59753feb515572dcffb7a2de4c15894473c685ddf5091819081016138bb565b9092506020813d602011613bdf575b81613bcd60209383612c26565b81010312610dcb5751916138bb613b62565b3d9150613bc0565b606460405162461bcd60e51b815260206004820152602060248201527f4576616c3a20636c6f736520616c6c2073696d207472616465732066697273746044820152fdfe9b779b17422d0df92223018b32b4d1fa46e071723d6817e2486d003becc55f00a26469706673582212206873fa7e64dcbc0bd4b7bd40be30e4bfc777057e6160c7b5cfe4b4315c7a4f4b64736f6c634300081a0033",
  "linkReferences": {},
  "deployedLinkReferences": {}
}