{
  "_format": "hh-sol-artifact-1",
  "contractName": "WikiInsuranceFundYield",
  "sourceName": "src/WikiInsuranceFundYield.sol",
  "abi": [
    {
      "inputs": [
        {
          "internalType": "address",
          "name": "_usdc",
          "type": "address"
        },
        {
          "internalType": "address",
          "name": "_lending",
          "type": "address"
        },
        {
          "internalType": "address",
          "name": "_feeDist",
          "type": "address"
        },
        {
          "internalType": "address",
          "name": "_owner",
          "type": "address"
        }
      ],
      "stateMutability": "nonpayable",
      "type": "constructor"
    },
    {
      "inputs": [
        {
          "internalType": "address",
          "name": "owner",
          "type": "address"
        }
      ],
      "name": "OwnableInvalidOwner",
      "type": "error"
    },
    {
      "inputs": [
        {
          "internalType": "address",
          "name": "account",
          "type": "address"
        }
      ],
      "name": "OwnableUnauthorizedAccount",
      "type": "error"
    },
    {
      "inputs": [],
      "name": "ReentrancyGuardReentrantCall",
      "type": "error"
    },
    {
      "inputs": [
        {
          "internalType": "address",
          "name": "token",
          "type": "address"
        }
      ],
      "name": "SafeERC20FailedOperation",
      "type": "error"
    },
    {
      "anonymous": false,
      "inputs": [
        {
          "indexed": false,
          "internalType": "uint256",
          "name": "amount",
          "type": "uint256"
        },
        {
          "indexed": false,
          "internalType": "uint256",
          "name": "wTokens",
          "type": "uint256"
        }
      ],
      "name": "Deployed",
      "type": "event"
    },
    {
      "anonymous": false,
      "inputs": [
        {
          "indexed": false,
          "internalType": "uint256",
          "name": "usdcRecovered",
          "type": "uint256"
        }
      ],
      "name": "EmergencyRecall",
      "type": "event"
    },
    {
      "anonymous": false,
      "inputs": [
        {
          "indexed": true,
          "internalType": "address",
          "name": "previousOwner",
          "type": "address"
        },
        {
          "indexed": true,
          "internalType": "address",
          "name": "newOwner",
          "type": "address"
        }
      ],
      "name": "OwnershipTransferStarted",
      "type": "event"
    },
    {
      "anonymous": false,
      "inputs": [
        {
          "indexed": true,
          "internalType": "address",
          "name": "previousOwner",
          "type": "address"
        },
        {
          "indexed": true,
          "internalType": "address",
          "name": "newOwner",
          "type": "address"
        }
      ],
      "name": "OwnershipTransferred",
      "type": "event"
    },
    {
      "anonymous": false,
      "inputs": [
        {
          "indexed": false,
          "internalType": "uint256",
          "name": "usdcRecovered",
          "type": "uint256"
        }
      ],
      "name": "Recalled",
      "type": "event"
    },
    {
      "anonymous": false,
      "inputs": [
        {
          "indexed": false,
          "internalType": "uint256",
          "name": "yieldAmount",
          "type": "uint256"
        },
        {
          "indexed": false,
          "internalType": "uint256",
          "name": "timestamp",
          "type": "uint256"
        }
      ],
      "name": "YieldHarvested",
      "type": "event"
    },
    {
      "inputs": [],
      "name": "BPS",
      "outputs": [
        {
          "internalType": "uint256",
          "name": "",
          "type": "uint256"
        }
      ],
      "stateMutability": "view",
      "type": "function"
    },
    {
      "inputs": [],
      "name": "MAX_DEPLOY_BPS",
      "outputs": [
        {
          "internalType": "uint256",
          "name": "",
          "type": "uint256"
        }
      ],
      "stateMutability": "view",
      "type": "function"
    },
    {
      "inputs": [],
      "name": "MIN_LIQUID_BPS",
      "outputs": [
        {
          "internalType": "uint256",
          "name": "",
          "type": "uint256"
        }
      ],
      "stateMutability": "view",
      "type": "function"
    },
    {
      "inputs": [],
      "name": "USDC",
      "outputs": [
        {
          "internalType": "contract IERC20",
          "name": "",
          "type": "address"
        }
      ],
      "stateMutability": "view",
      "type": "function"
    },
    {
      "inputs": [],
      "name": "USDC_MARKET_ID",
      "outputs": [
        {
          "internalType": "uint256",
          "name": "",
          "type": "uint256"
        }
      ],
      "stateMutability": "view",
      "type": "function"
    },
    {
      "inputs": [],
      "name": "acceptOwnership",
      "outputs": [],
      "stateMutability": "nonpayable",
      "type": "function"
    },
    {
      "inputs": [],
      "name": "currentAPY",
      "outputs": [
        {
          "internalType": "uint256",
          "name": "",
          "type": "uint256"
        }
      ],
      "stateMutability": "view",
      "type": "function"
    },
    {
      "inputs": [
        {
          "internalType": "uint256",
          "name": "amount",
          "type": "uint256"
        }
      ],
      "name": "deploy",
      "outputs": [],
      "stateMutability": "nonpayable",
      "type": "function"
    },
    {
      "inputs": [],
      "name": "deployedValue",
      "outputs": [
        {
          "internalType": "uint256",
          "name": "",
          "type": "uint256"
        }
      ],
      "stateMutability": "view",
      "type": "function"
    },
    {
      "inputs": [],
      "name": "deployedWTokens",
      "outputs": [
        {
          "internalType": "uint256",
          "name": "",
          "type": "uint256"
        }
      ],
      "stateMutability": "view",
      "type": "function"
    },
    {
      "inputs": [],
      "name": "emergencyRecallAll",
      "outputs": [],
      "stateMutability": "nonpayable",
      "type": "function"
    },
    {
      "inputs": [],
      "name": "feeDistributor",
      "outputs": [
        {
          "internalType": "contract IWikiFeeDistributor",
          "name": "",
          "type": "address"
        }
      ],
      "stateMutability": "view",
      "type": "function"
    },
    {
      "inputs": [],
      "name": "harvest",
      "outputs": [],
      "stateMutability": "nonpayable",
      "type": "function"
    },
    {
      "inputs": [],
      "name": "lastHarvestTime",
      "outputs": [
        {
          "internalType": "uint256",
          "name": "",
          "type": "uint256"
        }
      ],
      "stateMutability": "view",
      "type": "function"
    },
    {
      "inputs": [],
      "name": "lending",
      "outputs": [
        {
          "internalType": "contract IWikiLending",
          "name": "",
          "type": "address"
        }
      ],
      "stateMutability": "view",
      "type": "function"
    },
    {
      "inputs": [],
      "name": "liquidBalance",
      "outputs": [
        {
          "internalType": "uint256",
          "name": "",
          "type": "uint256"
        }
      ],
      "stateMutability": "view",
      "type": "function"
    },
    {
      "inputs": [],
      "name": "owner",
      "outputs": [
        {
          "internalType": "address",
          "name": "",
          "type": "address"
        }
      ],
      "stateMutability": "view",
      "type": "function"
    },
    {
      "inputs": [],
      "name": "pendingOwner",
      "outputs": [
        {
          "internalType": "address",
          "name": "",
          "type": "address"
        }
      ],
      "stateMutability": "view",
      "type": "function"
    },
    {
      "inputs": [],
      "name": "pendingYield",
      "outputs": [
        {
          "internalType": "uint256",
          "name": "",
          "type": "uint256"
        }
      ],
      "stateMutability": "view",
      "type": "function"
    },
    {
      "inputs": [
        {
          "internalType": "uint256",
          "name": "amount",
          "type": "uint256"
        }
      ],
      "name": "recall",
      "outputs": [],
      "stateMutability": "nonpayable",
      "type": "function"
    },
    {
      "inputs": [
        {
          "internalType": "uint256",
          "name": "amount",
          "type": "uint256"
        }
      ],
      "name": "receiveFromVault",
      "outputs": [],
      "stateMutability": "nonpayable",
      "type": "function"
    },
    {
      "inputs": [],
      "name": "renounceOwnership",
      "outputs": [],
      "stateMutability": "nonpayable",
      "type": "function"
    },
    {
      "inputs": [],
      "name": "totalDeployed",
      "outputs": [
        {
          "internalType": "uint256",
          "name": "",
          "type": "uint256"
        }
      ],
      "stateMutability": "view",
      "type": "function"
    },
    {
      "inputs": [],
      "name": "totalYieldHarvested",
      "outputs": [
        {
          "internalType": "uint256",
          "name": "",
          "type": "uint256"
        }
      ],
      "stateMutability": "view",
      "type": "function"
    },
    {
      "inputs": [
        {
          "internalType": "address",
          "name": "newOwner",
          "type": "address"
        }
      ],
      "name": "transferOwnership",
      "outputs": [],
      "stateMutability": "nonpayable",
      "type": "function"
    }
  ],
  "bytecode": "0x60c03461027d57601f61155f38819003918201601f19168301916001600160401b038311848410176102815780849260809460405283398101031261027d5761004781610295565b9061005460208201610295565b61006060408301610295565b916001600160a01b039061007690606001610295565b1692831561026a57600180546001600160a01b03199081169091555f80549182168617815560405195916001600160a01b0316907f8be0079c531659141344cd1fd0a4f28419497f9722a3daafe3b4186f6b6457e09080a360017f9b779b17422d0df92223018b32b4d1fa46e071723d6817e2486d003becc55f00556001600160a01b031692831561023557506001600160a01b03169081156101f0576001600160a01b03169182156101ab5760805260a052600280546001600160a01b0319169190911790556040516112b590816102aa8239608051818181610238015281816103270152818161079b01528181610ae90152610edd015260a0518181816104020152818161069f015281816106f50152818161080301528181610cd001528181610db0015281816110af015261116f0152f35b60405162461bcd60e51b815260206004820152601360248201527f57696b693a207a65726f205f66656544697374000000000000000000000000006044820152606490fd5b60405162461bcd60e51b815260206004820152601360248201527f57696b693a207a65726f205f6c656e64696e67000000000000000000000000006044820152606490fd5b62461bcd60e51b815260206004820152601060248201526f57696b693a207a65726f205f7573646360801b6044820152606490fd5b631e4fbdf760e01b5f525f60045260245ffd5b5f80fd5b634e487b7160e01b5f52604160045260245ffd5b51906001600160a01b038216820361027d5756fe6080806040526004361015610012575f80fd5b5f3560e01c9081630cfb14b014610c2b575080630d43e8ad14610c0357806322a6619e14610be6578063249d39e914610bca5780632d7f73be14610bb057806337a419ef14610b9457806337e74dc914610ace5780634641257d14610aae5780635b4b7e1214610a91578063715018a614610a2e57806379ba5097146109a95780637d32e793146107ca57806389a30271146107865780638da5cb5b1461075f5780638db8a1541461072457806395e97eee146106e05780639a79d32b14610674578063a5e38751146102ee578063ad886312146102d2578063b5bc1017146102b8578063b7ec1a331461020d578063ceb0f626146101f0578063dbb04873146101ce578063e30c3978146101a65763f2fde38b1461012f575f80fd5b346101a25760203660031901126101a2576004356001600160a01b038116908190036101a25761015d61124c565b600180546001600160a01b031916821790555f80546001600160a01b0316907f38d16b8cac22d99fc7c124b9cd0de2d3fa1faef420bfe791d8c362d765e227009080a3005b5f80fd5b346101a2575f3660031901126101a2576001546040516001600160a01b039091168152602090f35b346101a2575f3660031901126101a25760206101e861114b565b604051908152f35b346101a2575f3660031901126101a2576020600554604051908152f35b346101a2575f3660031901126101a2576040516370a0823160e01b81523060048201526020816024817f00000000000000000000000000000000000000000000000000000000000000006001600160a01b03165afa80156102ad575f9061027a575b602090604051908152f35b506020813d6020116102a5575b8161029460209383610c45565b810103126101a2576020905161026f565b3d9150610287565b6040513d5f823e3d90fd5b346101a2575f3660031901126101a25760206040515f8152f35b346101a2575f3660031901126101a2576020604051611b588152f35b346101a25760203660031901126101a25760043561030a61124c565b610312611214565b6040516370a0823160e01b81523060048201527f00000000000000000000000000000000000000000000000000000000000000006001600160a01b031690602081602481855afa9081156102ad575f91610642575b508083116105fd576003549061037d8282610d6c565b91611b588302838104611b5814841517156105a457856127106103a1920492610d6c565b116105b857836103b091610d5f565b9061271082029180830461271014901517156105a457836103d091610d5f565b90610bb8820291808304610bb814901517156105a4571061055f5760405163095ea7b360e01b81526001600160a01b037f00000000000000000000000000000000000000000000000000000000000000001660048201819052602482018490529091602090839060449082905f905af19081156102ad575f92602092610534575b506044604051809481936336bb3e9b60e21b83528160048401528760248401525af19081156102ad575f916104e2575b7f5c208b342514b5c549642d978f113df2cc5ce6c41885577302f468a6d8c27cb3604084846104b282600354610d6c565b6003556104c181600654610d6c565b60065582519182526020820152a160015f8051602061126083398151915255005b90506020813d60201161052c575b816104fd60209383610c45565b810103126101a257517f5c208b342514b5c549642d978f113df2cc5ce6c41885577302f468a6d8c27cb3610481565b3d91506104f0565b61055390833d8511610558575b61054b8183610c45565b810190610d79565b610451565b503d610541565b60405162461bcd60e51b815260206004820152601960248201527f4946593a206c697175696420726174696f20746f6f206c6f77000000000000006044820152606490fd5b634e487b7160e01b5f52601160045260245ffd5b60405162461bcd60e51b815260206004820152601d60248201527f4946593a2065786365656473206d6178206465706c6f7920726174696f0000006044820152606490fd5b60405162461bcd60e51b815260206004820152601960248201527f4946593a20696e73756666696369656e742062616c616e6365000000000000006044820152606490fd5b90506020813d60201161066c575b8161065d60209383610c45565b810103126101a2575183610367565b3d9150610650565b346101a2575f3660031901126101a2576040516357fdc89b60e01b81525f60048201526020816024817f00000000000000000000000000000000000000000000000000000000000000006001600160a01b03165afa80156102ad575f9061027a57602090604051908152f35b346101a2575f3660031901126101a2576040517f00000000000000000000000000000000000000000000000000000000000000006001600160a01b03168152602090f35b346101a2575f3660031901126101a25761073c61124c565b610744611214565b61074c61107d565b60015f8051602061126083398151915255005b346101a2575f3660031901126101a2575f546040516001600160a01b039091168152602090f35b346101a2575f3660031901126101a2576040517f00000000000000000000000000000000000000000000000000000000000000006001600160a01b03168152602090f35b346101a25760203660031901126101a2576004356107e661124c565b6107ee611214565b6040516362aaf08960e01b81525f60048201527f00000000000000000000000000000000000000000000000000000000000000006001600160a01b03169190602081602481865afa9081156102ad575f91610977575b50670de0b6b3a7640000820291808304670de0b6b3a764000014901517156105a45761086f91610c8e565b9060065480831161096e575b5060205f91604460405180948193637cbc237360e01b83528160048401528760248401525af19081156102ad575f9161091c575b506020906108e07fb253b8bf292205ab6c69e4121b5bc300914f0c8fd30ecf3880a105f930afe98f93600654610d5f565b6006556108f96003548083105f14610916578290610d5f565b600355604051908152a160015f8051602061126083398151915255005b80610d5f565b90506020813d602011610966575b8161093760209383610c45565b810103126101a257517fb253b8bf292205ab6c69e4121b5bc300914f0c8fd30ecf3880a105f930afe98f6108af565b3d915061092a565b9150602061087b565b90506020813d6020116109a1575b8161099260209383610c45565b810103126101a2575183610844565b3d9150610985565b346101a2575f3660031901126101a257600154336001600160a01b0390911603610a1b57600180546001600160a01b03199081169091555f805433928116831782556001600160a01b0316907f8be0079c531659141344cd1fd0a4f28419497f9722a3daafe3b4186f6b6457e09080a3005b63118cdaa760e01b5f523360045260245ffd5b346101a2575f3660031901126101a257610a4661124c565b600180546001600160a01b03199081169091555f80549182168155906001600160a01b03167f8be0079c531659141344cd1fd0a4f28419497f9722a3daafe3b4186f6b6457e08280a3005b346101a2575f3660031901126101a2576020600654604051908152f35b346101a2575f3660031901126101a257610ac6611214565b61074c610d91565b346101a25760203660031901126101a257610ae7611214565b7f00000000000000000000000000000000000000000000000000000000000000006040516323b872dd60e01b5f52336004523060245260043560445260205f60648180865af19060015f5114821615610b74575b5015610b545760015f8051602061126083398151915255005b635274afe760e01b5f9081526001600160a01b0391909116600452602490fd5b6001821516610b8c5750813b15153d15161682610b3b565b3d5f823e3d90fd5b346101a2575f3660031901126101a2576020604051610bb88152f35b346101a2575f3660031901126101a25760206101e8610cac565b346101a2575f3660031901126101a25760206040516127108152f35b346101a2575f3660031901126101a2576020600454604051908152f35b346101a2575f3660031901126101a2576002546040516001600160a01b039091168152602090f35b346101a2575f3660031901126101a2576020906003548152f35b90601f8019910116810190811067ffffffffffffffff821117610c6757604052565b634e487b7160e01b5f52604160045260245ffd5b818102929181159184041417156105a457565b8115610c98570490565b634e487b7160e01b5f52601260045260245ffd5b6006548015610d5a576040516362aaf08960e01b81525f60048201526020816024817f00000000000000000000000000000000000000000000000000000000000000006001600160a01b03165afa9081156102ad575f91610d20575b50610d1c90670de0b6b3a764000092610c7b565b0490565b90506020813d602011610d52575b81610d3b60209383610c45565b810103126101a25751670de0b6b3a7640000610d08565b3d9150610d2e565b505f90565b919082039182116105a457565b919082018092116105a457565b908160209103126101a2575180151581036101a25790565b6006548015611040576040516362aaf08960e01b81525f6004820152907f00000000000000000000000000000000000000000000000000000000000000006001600160a01b0316602083602481845afa9283156102ad575f9361100c575b50670de0b6b3a7640000610e038484610c7b565b046003548082115f1461100457610e1991610d5f565b8015610ffe57670de0b6b3a76400008102908104670de0b6b3a7640000036105a4575f93610e4691610c8e565b91808311610ff5575b50602090604460405180958193637cbc237360e01b83528160048401528660248401525af19182156102ad575f92610fbf575b50610e8f90600654610d5f565b600655610e9e81600454610d6c565b60049081554260055560025460405163095ea7b360e01b81526001600160a01b039091169181019190915260248101829052602081806044810103815f7f00000000000000000000000000000000000000000000000000000000000000006001600160a01b03165af180156102ad57610fa2575b506002546001600160a01b031690813b156101a2575f809260646040518095819363c9e8a03360e01b8352600760048401528660248401523060448401525af19081156102ad577f3fb12fb590bb295327f3bfc48158ada0b1147f8f823e0c7a09b98b301d18677492604092610f92575b508151908152426020820152a1565b5f610f9c91610c45565b5f610f83565b610fba9060203d6020116105585761054b8183610c45565b610f12565b9091506020813d602011610fed575b81610fdb60209383610c45565b810103126101a2575190610e8f610e82565b3d9150610fce565b91506020610e4f565b50505050565b50505f610e19565b9092506020813d602011611038575b8161102860209383610c45565b810103126101a25751915f610def565b3d915061101b565b60405162461bcd60e51b81526020600482015260156024820152741251964e881b9bdd1a1a5b99c819195c1b1bde5959605a1b6044820152606490fd5b60065480156111485760405190637cbc237360e01b82525f600483015260248201526020816044815f60018060a01b037f0000000000000000000000000000000000000000000000000000000000000000165af19081156102ad575f91611115575b5060207f18dea1ff0bf0765b820dbb45c8f921b1b2ca966217e41033554a7e2611610a8f915f6006555f600355604051908152a1565b90506020813d602011611140575b8161113060209383610c45565b810103126101a2575160206110df565b3d9150611123565b50565b6006548015610d5a576040516362aaf08960e01b81525f60048201526020816024817f00000000000000000000000000000000000000000000000000000000000000006001600160a01b03165afa9081156102ad575f916111da575b506111bb90670de0b6b3a764000092610c7b565b046003548082115f146111d4576111d191610d5f565b90565b50505f90565b90506020813d60201161120c575b816111f560209383610c45565b810103126101a25751670de0b6b3a76400006111a7565b3d91506111e8565b60025f80516020611260833981519152541461123d5760025f8051602061126083398151915255565b633ee5aeb560e01b5f5260045ffd5b5f546001600160a01b03163303610a1b5756fe9b779b17422d0df92223018b32b4d1fa46e071723d6817e2486d003becc55f00a2646970667358221220f33810128f0ffd108eff51e357ce09f00dc64d29bd8ce2a3afff1377fbb6c8e964736f6c634300081a0033",
  "linkReferences": {},
  "deployedLinkReferences": {}
}