{
  "_format": "hh-sol-artifact-1",
  "contractName": "AaveV3Adapter",
  "sourceName": "src/AaveV3Adapter.sol",
  "abi": [
    {
      "inputs": [
        {
          "internalType": "address",
          "name": "_aggregator",
          "type": "address"
        },
        {
          "internalType": "address",
          "name": "_owner",
          "type": "address"
        }
      ],
      "stateMutability": "nonpayable",
      "type": "constructor"
    },
    {
      "inputs": [
        {
          "internalType": "address",
          "name": "owner",
          "type": "address"
        }
      ],
      "name": "OwnableInvalidOwner",
      "type": "error"
    },
    {
      "inputs": [
        {
          "internalType": "address",
          "name": "account",
          "type": "address"
        }
      ],
      "name": "OwnableUnauthorizedAccount",
      "type": "error"
    },
    {
      "inputs": [],
      "name": "ReentrancyGuardReentrantCall",
      "type": "error"
    },
    {
      "inputs": [
        {
          "internalType": "address",
          "name": "token",
          "type": "address"
        }
      ],
      "name": "SafeERC20FailedOperation",
      "type": "error"
    },
    {
      "anonymous": false,
      "inputs": [
        {
          "indexed": true,
          "internalType": "address",
          "name": "previousOwner",
          "type": "address"
        },
        {
          "indexed": true,
          "internalType": "address",
          "name": "newOwner",
          "type": "address"
        }
      ],
      "name": "OwnershipTransferStarted",
      "type": "event"
    },
    {
      "anonymous": false,
      "inputs": [
        {
          "indexed": true,
          "internalType": "address",
          "name": "previousOwner",
          "type": "address"
        },
        {
          "indexed": true,
          "internalType": "address",
          "name": "newOwner",
          "type": "address"
        }
      ],
      "name": "OwnershipTransferred",
      "type": "event"
    },
    {
      "anonymous": false,
      "inputs": [
        {
          "indexed": false,
          "internalType": "uint256",
          "name": "amount",
          "type": "uint256"
        },
        {
          "indexed": false,
          "internalType": "uint256",
          "name": "aTokenBalance",
          "type": "uint256"
        }
      ],
      "name": "Supplied",
      "type": "event"
    },
    {
      "anonymous": false,
      "inputs": [
        {
          "indexed": false,
          "internalType": "uint256",
          "name": "amount",
          "type": "uint256"
        }
      ],
      "name": "Withdrawn",
      "type": "event"
    },
    {
      "inputs": [],
      "name": "AAVE_POOL",
      "outputs": [
        {
          "internalType": "contract IAaveV3Pool",
          "name": "",
          "type": "address"
        }
      ],
      "stateMutability": "view",
      "type": "function"
    },
    {
      "inputs": [],
      "name": "A_USDC",
      "outputs": [
        {
          "internalType": "contract IAToken",
          "name": "",
          "type": "address"
        }
      ],
      "stateMutability": "view",
      "type": "function"
    },
    {
      "inputs": [],
      "name": "RAY",
      "outputs": [
        {
          "internalType": "uint256",
          "name": "",
          "type": "uint256"
        }
      ],
      "stateMutability": "view",
      "type": "function"
    },
    {
      "inputs": [],
      "name": "USDC",
      "outputs": [
        {
          "internalType": "address",
          "name": "",
          "type": "address"
        }
      ],
      "stateMutability": "view",
      "type": "function"
    },
    {
      "inputs": [],
      "name": "acceptOwnership",
      "outputs": [],
      "stateMutability": "nonpayable",
      "type": "function"
    },
    {
      "inputs": [],
      "name": "aggregator",
      "outputs": [
        {
          "internalType": "address",
          "name": "",
          "type": "address"
        }
      ],
      "stateMutability": "view",
      "type": "function"
    },
    {
      "inputs": [],
      "name": "emergencyWithdraw",
      "outputs": [],
      "stateMutability": "nonpayable",
      "type": "function"
    },
    {
      "inputs": [],
      "name": "getAPY",
      "outputs": [
        {
          "internalType": "uint256",
          "name": "apyBps",
          "type": "uint256"
        }
      ],
      "stateMutability": "view",
      "type": "function"
    },
    {
      "inputs": [
        {
          "internalType": "address",
          "name": "",
          "type": "address"
        }
      ],
      "name": "getBalance",
      "outputs": [
        {
          "internalType": "uint256",
          "name": "",
          "type": "uint256"
        }
      ],
      "stateMutability": "view",
      "type": "function"
    },
    {
      "inputs": [],
      "name": "owner",
      "outputs": [
        {
          "internalType": "address",
          "name": "",
          "type": "address"
        }
      ],
      "stateMutability": "view",
      "type": "function"
    },
    {
      "inputs": [],
      "name": "pendingOwner",
      "outputs": [
        {
          "internalType": "address",
          "name": "",
          "type": "address"
        }
      ],
      "stateMutability": "view",
      "type": "function"
    },
    {
      "inputs": [],
      "name": "renounceOwnership",
      "outputs": [],
      "stateMutability": "nonpayable",
      "type": "function"
    },
    {
      "inputs": [
        {
          "internalType": "address",
          "name": "_aggregator",
          "type": "address"
        }
      ],
      "name": "setAggregator",
      "outputs": [],
      "stateMutability": "nonpayable",
      "type": "function"
    },
    {
      "inputs": [
        {
          "internalType": "address",
          "name": "asset",
          "type": "address"
        },
        {
          "internalType": "uint256",
          "name": "amount",
          "type": "uint256"
        },
        {
          "internalType": "address",
          "name": "onBehalfOf",
          "type": "address"
        },
        {
          "internalType": "uint16",
          "name": "referralCode",
          "type": "uint16"
        }
      ],
      "name": "supply",
      "outputs": [],
      "stateMutability": "nonpayable",
      "type": "function"
    },
    {
      "inputs": [
        {
          "internalType": "address",
          "name": "newOwner",
          "type": "address"
        }
      ],
      "name": "transferOwnership",
      "outputs": [],
      "stateMutability": "nonpayable",
      "type": "function"
    },
    {
      "inputs": [
        {
          "internalType": "address",
          "name": "asset",
          "type": "address"
        },
        {
          "internalType": "uint256",
          "name": "amount",
          "type": "uint256"
        },
        {
          "internalType": "address",
          "name": "to",
          "type": "address"
        }
      ],
      "name": "withdraw",
      "outputs": [
        {
          "internalType": "uint256",
          "name": "withdrawn",
          "type": "uint256"
        }
      ],
      "stateMutability": "nonpayable",
      "type": "function"
    }
  ],
  "bytecode": "0x60803461011757601f610e4038819003918201601f19168301916001600160401b0383118484101761011b578084926040948552833981010312610117576100468161012f565b906001600160a01b039061005c9060200161012f565b1690811561010457600180546001600160a01b03199081169091555f80549182168417815560405193916001600160a01b0316907f8be0079c531659141344cd1fd0a4f28419497f9722a3daafe3b4186f6b6457e09080a360017f9b779b17422d0df92223018b32b4d1fa46e071723d6817e2486d003becc55f0055600280546001600160a01b0319166001600160a01b0392909216919091179055610cfc90816101448239f35b631e4fbdf760e01b5f525f60045260245ffd5b5f80fd5b634e487b7160e01b5f52604160045260245ffd5b51906001600160a01b03821682036101175756fe60806040526004361015610011575f80fd5b5f3560e01c806308a0167514610114578063245a7bfc1461010f578063552033c41461010a578063617ba0371461010557806369328dec14610100578063715018a6146100fb57806379ba5097146100f657806389a30271146100f15780638da5cb5b146100ec578063c9d05ea1146100e7578063d2cbf7ad146100e2578063db2e21bc146100dd578063e30c3978146100d8578063f2fde38b146100d3578063f8b2cb4f146100ce5763f9120af6146100c9575f80fd5b610962565b6108d7565b610865565b61083d565b61073b565b610719565b6106eb565b6106c4565b610696565b610611565b6105ae565b610457565b6101cf565b61017d565b610155565b610127565b5f91031261012357565b5f80fd5b34610123575f36600319011261012357602060405173794a61358d6845594f94dc1db02a252b5b4814ad8152f35b34610123575f366003190112610123576002546040516001600160a01b039091168152602090f35b34610123575f3660031901126101235760206040516b033b2e3c9fd0803ce80000008152f35b600435906001600160a01b038216820361012357565b604435906001600160a01b038216820361012357565b34610123576080366003190112610123576101e86101a3565b6024356101f36101b9565b916064359061ffff821682036101235761020b610bce565b6002546001600160a01b031633148015610444575b610229906109a5565b6001600160a01b03811661025273af88d065e77c8cc2239327c5edb3a432268e583182146109f1565b61025e84303384610c06565b60405163095ea7b360e01b815273794a61358d6845594f94dc1db02a252b5b4814ad60048201526024810185905290602090829060449082905f905af180156103f857610417575b5073794a61358d6845594f94dc1db02a252b5b4814ad3b156101235760405163617ba03760e01b81526001600160a01b03918216600482015260248101849052908416604482015261ffff919091166064820152915f836084818373794a61358d6845594f94dc1db02a252b5b4814ad5af19081156103f857610355936020926103fd575b506040516370a0823160e01b81526001600160a01b03909116600482015292839081906024820190565b038173724dc807b04555b71ed48a6896b6f41593b8c6375afa9081156103f8577f3b81a6e0eae880a578a3b45b9345aa6c424b285b830d9a4037b63f50b8380f43925f926103c7575b50604080519182526020820192909252a16103c560015f80516020610ca783398151915255565b005b6103ea91925060203d6020116103f1575b6103e28183610a46565b810190610a90565b905f61039e565b503d6103d8565b610a85565b8061040b5f61041193610a46565b80610119565b5f61032b565b6104389060203d60201161043d575b6104308183610a46565b810190610a6d565b6102a6565b503d610426565b505f546001600160a01b03163314610220565b34610123576060366003190112610123576104706101a3565b602060243561047d6101b9565b92610486610bce565b6002546001600160a01b03163314801561059b575b6104a4906109a5565b6104cc6001600160a01b03821673af88d065e77c8cc2239327c5edb3a432268e5831146109f1565b604051631a4ca37b60e21b81526001600160a01b0391821660048201526024810192909252929092166044830152816064815f73794a61358d6845594f94dc1db02a252b5b4814ad5af180156103f857610578915f9161057c575b507f430648de173157e069201c943adb2d4e340e7cf5b27b1b09c9cb852f03d63b566020604051838152a161056860015f80516020610ca783398151915255565b6040519081529081906020820190565b0390f35b610595915060203d6020116103f1576103e28183610a46565b5f610527565b505f546001600160a01b0316331461049b565b34610123575f366003190112610123576105c6610c93565b600180546001600160a01b03199081169091555f80549182168155906001600160a01b03167f8be0079c531659141344cd1fd0a4f28419497f9722a3daafe3b4186f6b6457e08280a3005b34610123575f36600319011261012357600154336001600160a01b039091160361068357600180546001600160a01b03199081169091555f805433928116831782556001600160a01b0316907f8be0079c531659141344cd1fd0a4f28419497f9722a3daafe3b4186f6b6457e09080a3005b63118cdaa760e01b5f523360045260245ffd5b34610123575f36600319011261012357602060405173af88d065e77c8cc2239327c5edb3a432268e58318152f35b34610123575f366003190112610123575f546040516001600160a01b039091168152602090f35b34610123575f36600319011261012357602060405173724dc807b04555b71ed48a6896b6f41593b8c6378152f35b34610123575f366003190112610123576020610733610ae7565b604051908152f35b34610123575f36600319011261012357610753610c93565b6040516370a0823160e01b815230600482015260208160248173724dc807b04555b71ed48a6896b6f41593b8c6375afa9081156103f8575f9161081e575b5061079857005b5f54604051631a4ca37b60e21b815273af88d065e77c8cc2239327c5edb3a432268e583160048201525f1960248201526001600160a01b039091166044820152602081806064810103815f73794a61358d6845594f94dc1db02a252b5b4814ad5af180156103f85761080657005b6103c59060203d6020116103f1576103e28183610a46565b610837915060203d6020116103f1576103e28183610a46565b5f610791565b34610123575f366003190112610123576001546040516001600160a01b039091168152602090f35b346101235760203660031901126101235761087e6101a3565b610886610c93565b60018060a01b0316806bffffffffffffffffffffffff60a01b600154161760015560018060a01b035f54167f38d16b8cac22d99fc7c124b9cd0de2d3fa1faef420bfe791d8c362d765e227005f80a3005b34610123576020366003190112610123576108f06101a3565b506040516370a0823160e01b815230600482015260208160248173724dc807b04555b71ed48a6896b6f41593b8c6375afa80156103f857610578915f91610943575b506040519081529081906020820190565b61095c915060203d6020116103f1576103e28183610a46565b5f610932565b346101235760203660031901126101235761097b6101a3565b610983610c93565b600280546001600160a01b0319166001600160a01b0392909216919091179055005b156109ac57565b60405162461bcd60e51b815260206004820152601760248201527f416461707465723a206e6f742061676772656761746f720000000000000000006044820152606490fd5b156109f857565b60405162461bcd60e51b8152602060048201526012602482015271416461707465723a206f6e6c79205553444360701b6044820152606490fd5b634e487b7160e01b5f52604160045260245ffd5b90601f8019910116810190811067ffffffffffffffff821117610a6857604052565b610a32565b90816020910312610123575180151581036101235790565b6040513d5f823e3d90fd5b90816020910312610123575190565b906301e133808202918083046301e133801490151715610abb57565b634e487b7160e01b5f52601160045260245ffd5b906127108202918083046127101490151715610abb57565b6040516335ea6a7560e01b6020820190815273af88d065e77c8cc2239327c5edb3a432268e583160248084019190915282525f91829190610b29604482610a46565b519073794a61358d6845594f94dc1db02a252b5b4814ad5afa3d15610bc6573d9067ffffffffffffffff8211610a685760405191610b71601f8201601f191660200184610a46565b82523d5f602084013e5b158015610bbb575b610bb457610b9f610b9a6060610bb1930151610a9f565b610acf565b6b033b2e3c9fd0803ce8000000900490565b90565b5061019090565b506060815110610b83565b606090610b7b565b60025f80516020610ca78339815191525414610bf75760025f80516020610ca783398151915255565b633ee5aeb560e01b5f5260045ffd5b6040516323b872dd60e01b5f9081526001600160a01b039384166004529290931660245260449390935260209060648180865af160015f5114811615610c74575b6040919091525f60605215610c595750565b635274afe760e01b5f526001600160a01b031660045260245ffd5b6001811516610c8a573d15833b15151616610c47565b503d5f823e3d90fd5b5f546001600160a01b031633036106835756fe9b779b17422d0df92223018b32b4d1fa46e071723d6817e2486d003becc55f00a264697066735822122033ffcdf81b620d0c991f69295b5aada07aab2e17228efb95bcdd9b22bd35cf1864736f6c634300081a0033",
  "linkReferences": {},
  "deployedLinkReferences": {}
}