{
  "_format": "hh-sol-artifact-1",
  "contractName": "WikiStructuredProduct",
  "sourceName": "src/WikiStructuredProduct.sol",
  "abi": [
    {
      "inputs": [
        {
          "internalType": "address",
          "name": "_owner",
          "type": "address"
        },
        {
          "internalType": "address",
          "name": "_usdc",
          "type": "address"
        },
        {
          "internalType": "address",
          "name": "_revenueSplitter",
          "type": "address"
        },
        {
          "internalType": "address",
          "name": "_keeper",
          "type": "address"
        }
      ],
      "stateMutability": "nonpayable",
      "type": "constructor"
    },
    {
      "inputs": [],
      "name": "EnforcedPause",
      "type": "error"
    },
    {
      "inputs": [],
      "name": "ExpectedPause",
      "type": "error"
    },
    {
      "inputs": [
        {
          "internalType": "address",
          "name": "owner",
          "type": "address"
        }
      ],
      "name": "OwnableInvalidOwner",
      "type": "error"
    },
    {
      "inputs": [
        {
          "internalType": "address",
          "name": "account",
          "type": "address"
        }
      ],
      "name": "OwnableUnauthorizedAccount",
      "type": "error"
    },
    {
      "inputs": [],
      "name": "ReentrancyGuardReentrantCall",
      "type": "error"
    },
    {
      "inputs": [
        {
          "internalType": "address",
          "name": "token",
          "type": "address"
        }
      ],
      "name": "SafeERC20FailedOperation",
      "type": "error"
    },
    {
      "anonymous": false,
      "inputs": [
        {
          "indexed": false,
          "internalType": "uint256",
          "name": "vaultId",
          "type": "uint256"
        },
        {
          "indexed": false,
          "internalType": "address",
          "name": "user",
          "type": "address"
        },
        {
          "indexed": false,
          "internalType": "uint256",
          "name": "amount",
          "type": "uint256"
        },
        {
          "indexed": false,
          "internalType": "uint256",
          "name": "shares",
          "type": "uint256"
        }
      ],
      "name": "Deposited",
      "type": "event"
    },
    {
      "anonymous": false,
      "inputs": [
        {
          "indexed": false,
          "internalType": "uint256",
          "name": "vaultId",
          "type": "uint256"
        },
        {
          "indexed": false,
          "internalType": "uint256",
          "name": "epoch",
          "type": "uint256"
        },
        {
          "indexed": false,
          "internalType": "uint256",
          "name": "premiumEarned",
          "type": "uint256"
        },
        {
          "indexed": false,
          "internalType": "int256",
          "name": "navChange",
          "type": "int256"
        }
      ],
      "name": "EpochSettled",
      "type": "event"
    },
    {
      "anonymous": false,
      "inputs": [
        {
          "indexed": false,
          "internalType": "uint256",
          "name": "vaultId",
          "type": "uint256"
        },
        {
          "indexed": false,
          "internalType": "uint256",
          "name": "epoch",
          "type": "uint256"
        },
        {
          "indexed": false,
          "internalType": "uint256",
          "name": "strike",
          "type": "uint256"
        },
        {
          "indexed": false,
          "internalType": "uint256",
          "name": "expiry",
          "type": "uint256"
        },
        {
          "indexed": false,
          "internalType": "uint256",
          "name": "premium",
          "type": "uint256"
        }
      ],
      "name": "EpochStarted",
      "type": "event"
    },
    {
      "anonymous": false,
      "inputs": [
        {
          "indexed": false,
          "internalType": "uint256",
          "name": "vaultId",
          "type": "uint256"
        },
        {
          "indexed": false,
          "internalType": "uint256",
          "name": "amount",
          "type": "uint256"
        }
      ],
      "name": "FeesCollected",
      "type": "event"
    },
    {
      "anonymous": false,
      "inputs": [
        {
          "indexed": true,
          "internalType": "address",
          "name": "previousOwner",
          "type": "address"
        },
        {
          "indexed": true,
          "internalType": "address",
          "name": "newOwner",
          "type": "address"
        }
      ],
      "name": "OwnershipTransferStarted",
      "type": "event"
    },
    {
      "anonymous": false,
      "inputs": [
        {
          "indexed": true,
          "internalType": "address",
          "name": "previousOwner",
          "type": "address"
        },
        {
          "indexed": true,
          "internalType": "address",
          "name": "newOwner",
          "type": "address"
        }
      ],
      "name": "OwnershipTransferred",
      "type": "event"
    },
    {
      "anonymous": false,
      "inputs": [
        {
          "indexed": false,
          "internalType": "address",
          "name": "account",
          "type": "address"
        }
      ],
      "name": "Paused",
      "type": "event"
    },
    {
      "anonymous": false,
      "inputs": [
        {
          "indexed": false,
          "internalType": "address",
          "name": "account",
          "type": "address"
        }
      ],
      "name": "Unpaused",
      "type": "event"
    },
    {
      "anonymous": false,
      "inputs": [
        {
          "indexed": false,
          "internalType": "uint256",
          "name": "id",
          "type": "uint256"
        },
        {
          "indexed": false,
          "internalType": "enum WikiStructuredProduct.VaultType",
          "name": "vaultType",
          "type": "uint8"
        },
        {
          "indexed": false,
          "internalType": "uint256",
          "name": "strike",
          "type": "uint256"
        },
        {
          "indexed": false,
          "internalType": "uint256",
          "name": "expiry",
          "type": "uint256"
        }
      ],
      "name": "VaultCreated",
      "type": "event"
    },
    {
      "anonymous": false,
      "inputs": [
        {
          "indexed": false,
          "internalType": "uint256",
          "name": "vaultId",
          "type": "uint256"
        },
        {
          "indexed": false,
          "internalType": "address",
          "name": "user",
          "type": "address"
        },
        {
          "indexed": false,
          "internalType": "uint256",
          "name": "amount",
          "type": "uint256"
        }
      ],
      "name": "Withdrawn",
      "type": "event"
    },
    {
      "inputs": [],
      "name": "BPS",
      "outputs": [
        {
          "internalType": "uint256",
          "name": "",
          "type": "uint256"
        }
      ],
      "stateMutability": "view",
      "type": "function"
    },
    {
      "inputs": [],
      "name": "MIN_DEPOSIT",
      "outputs": [
        {
          "internalType": "uint256",
          "name": "",
          "type": "uint256"
        }
      ],
      "stateMutability": "view",
      "type": "function"
    },
    {
      "inputs": [],
      "name": "SECONDS_PER_YEAR",
      "outputs": [
        {
          "internalType": "uint256",
          "name": "",
          "type": "uint256"
        }
      ],
      "stateMutability": "view",
      "type": "function"
    },
    {
      "inputs": [],
      "name": "USDC",
      "outputs": [
        {
          "internalType": "contract IERC20",
          "name": "",
          "type": "address"
        }
      ],
      "stateMutability": "view",
      "type": "function"
    },
    {
      "inputs": [],
      "name": "acceptOwnership",
      "outputs": [],
      "stateMutability": "nonpayable",
      "type": "function"
    },
    {
      "inputs": [
        {
          "internalType": "uint256",
          "name": "vaultId",
          "type": "uint256"
        }
      ],
      "name": "completeWithdrawal",
      "outputs": [],
      "stateMutability": "nonpayable",
      "type": "function"
    },
    {
      "inputs": [
        {
          "internalType": "enum WikiStructuredProduct.VaultType",
          "name": "vaultType",
          "type": "uint8"
        },
        {
          "internalType": "address",
          "name": "depositToken",
          "type": "address"
        },
        {
          "internalType": "uint256",
          "name": "strikePrice",
          "type": "uint256"
        },
        {
          "internalType": "uint256",
          "name": "weeklyPremiumBps",
          "type": "uint256"
        },
        {
          "internalType": "bool",
          "name": "autoRoll",
          "type": "bool"
        }
      ],
      "name": "createVault",
      "outputs": [
        {
          "internalType": "uint256",
          "name": "vaultId",
          "type": "uint256"
        }
      ],
      "stateMutability": "nonpayable",
      "type": "function"
    },
    {
      "inputs": [
        {
          "internalType": "uint256",
          "name": "vaultId",
          "type": "uint256"
        },
        {
          "internalType": "uint256",
          "name": "amount",
          "type": "uint256"
        }
      ],
      "name": "deposit",
      "outputs": [],
      "stateMutability": "nonpayable",
      "type": "function"
    },
    {
      "inputs": [
        {
          "internalType": "uint256",
          "name": "vaultId",
          "type": "uint256"
        },
        {
          "internalType": "address",
          "name": "user",
          "type": "address"
        }
      ],
      "name": "getUserPosition",
      "outputs": [
        {
          "internalType": "uint256",
          "name": "shares",
          "type": "uint256"
        },
        {
          "internalType": "uint256",
          "name": "currentValue",
          "type": "uint256"
        },
        {
          "internalType": "uint256",
          "name": "depositedUsdc",
          "type": "uint256"
        },
        {
          "internalType": "int256",
          "name": "pnl",
          "type": "int256"
        },
        {
          "internalType": "uint256",
          "name": "pendingWithdrawal",
          "type": "uint256"
        },
        {
          "internalType": "uint256",
          "name": "estimatedWeeklyYield",
          "type": "uint256"
        }
      ],
      "stateMutability": "view",
      "type": "function"
    },
    {
      "inputs": [
        {
          "internalType": "uint256",
          "name": "vaultId",
          "type": "uint256"
        }
      ],
      "name": "getVaultAPY",
      "outputs": [
        {
          "internalType": "uint256",
          "name": "estimatedAPYBps",
          "type": "uint256"
        }
      ],
      "stateMutability": "view",
      "type": "function"
    },
    {
      "inputs": [],
      "name": "keeper",
      "outputs": [
        {
          "internalType": "address",
          "name": "",
          "type": "address"
        }
      ],
      "stateMutability": "view",
      "type": "function"
    },
    {
      "inputs": [],
      "name": "nextVaultId",
      "outputs": [
        {
          "internalType": "uint256",
          "name": "",
          "type": "uint256"
        }
      ],
      "stateMutability": "view",
      "type": "function"
    },
    {
      "inputs": [],
      "name": "optionsVault",
      "outputs": [
        {
          "internalType": "address",
          "name": "",
          "type": "address"
        }
      ],
      "stateMutability": "view",
      "type": "function"
    },
    {
      "inputs": [],
      "name": "owner",
      "outputs": [
        {
          "internalType": "address",
          "name": "",
          "type": "address"
        }
      ],
      "stateMutability": "view",
      "type": "function"
    },
    {
      "inputs": [],
      "name": "pause",
      "outputs": [],
      "stateMutability": "nonpayable",
      "type": "function"
    },
    {
      "inputs": [],
      "name": "paused",
      "outputs": [
        {
          "internalType": "bool",
          "name": "",
          "type": "bool"
        }
      ],
      "stateMutability": "view",
      "type": "function"
    },
    {
      "inputs": [],
      "name": "pendingOwner",
      "outputs": [
        {
          "internalType": "address",
          "name": "",
          "type": "address"
        }
      ],
      "stateMutability": "view",
      "type": "function"
    },
    {
      "inputs": [
        {
          "internalType": "uint256",
          "name": "",
          "type": "uint256"
        },
        {
          "internalType": "address",
          "name": "",
          "type": "address"
        }
      ],
      "name": "positions",
      "outputs": [
        {
          "internalType": "uint256",
          "name": "shares",
          "type": "uint256"
        },
        {
          "internalType": "uint256",
          "name": "depositedUsdc",
          "type": "uint256"
        },
        {
          "internalType": "uint256",
          "name": "depositEpoch",
          "type": "uint256"
        },
        {
          "internalType": "uint256",
          "name": "pendingWithdrawal",
          "type": "uint256"
        }
      ],
      "stateMutability": "view",
      "type": "function"
    },
    {
      "inputs": [
        {
          "internalType": "uint256",
          "name": "vaultId",
          "type": "uint256"
        },
        {
          "internalType": "uint256",
          "name": "shares",
          "type": "uint256"
        }
      ],
      "name": "queueWithdrawal",
      "outputs": [],
      "stateMutability": "nonpayable",
      "type": "function"
    },
    {
      "inputs": [],
      "name": "renounceOwnership",
      "outputs": [],
      "stateMutability": "nonpayable",
      "type": "function"
    },
    {
      "inputs": [],
      "name": "revenueSplitter",
      "outputs": [
        {
          "internalType": "address",
          "name": "",
          "type": "address"
        }
      ],
      "stateMutability": "view",
      "type": "function"
    },
    {
      "inputs": [
        {
          "internalType": "address",
          "name": "k",
          "type": "address"
        }
      ],
      "name": "setKeeper",
      "outputs": [],
      "stateMutability": "nonpayable",
      "type": "function"
    },
    {
      "inputs": [
        {
          "internalType": "uint256",
          "name": "vaultId",
          "type": "uint256"
        },
        {
          "internalType": "int256",
          "name": "navChange",
          "type": "int256"
        }
      ],
      "name": "settleEpoch",
      "outputs": [],
      "stateMutability": "nonpayable",
      "type": "function"
    },
    {
      "inputs": [
        {
          "internalType": "uint256",
          "name": "vaultId",
          "type": "uint256"
        },
        {
          "internalType": "uint256",
          "name": "newStrike",
          "type": "uint256"
        },
        {
          "internalType": "uint256",
          "name": "premiumEarned",
          "type": "uint256"
        }
      ],
      "name": "startEpoch",
      "outputs": [],
      "stateMutability": "nonpayable",
      "type": "function"
    },
    {
      "inputs": [
        {
          "internalType": "uint256",
          "name": "",
          "type": "uint256"
        }
      ],
      "name": "totalShares",
      "outputs": [
        {
          "internalType": "uint256",
          "name": "",
          "type": "uint256"
        }
      ],
      "stateMutability": "view",
      "type": "function"
    },
    {
      "inputs": [
        {
          "internalType": "address",
          "name": "newOwner",
          "type": "address"
        }
      ],
      "name": "transferOwnership",
      "outputs": [],
      "stateMutability": "nonpayable",
      "type": "function"
    },
    {
      "inputs": [],
      "name": "unpause",
      "outputs": [],
      "stateMutability": "nonpayable",
      "type": "function"
    },
    {
      "inputs": [
        {
          "internalType": "uint256",
          "name": "",
          "type": "uint256"
        },
        {
          "internalType": "uint256",
          "name": "",
          "type": "uint256"
        }
      ],
      "name": "vaultDepositors",
      "outputs": [
        {
          "internalType": "address",
          "name": "",
          "type": "address"
        }
      ],
      "stateMutability": "view",
      "type": "function"
    },
    {
      "inputs": [
        {
          "internalType": "uint256",
          "name": "",
          "type": "uint256"
        }
      ],
      "name": "vaults",
      "outputs": [
        {
          "internalType": "uint256",
          "name": "id",
          "type": "uint256"
        },
        {
          "internalType": "enum WikiStructuredProduct.VaultType",
          "name": "vaultType",
          "type": "uint8"
        },
        {
          "internalType": "enum WikiStructuredProduct.VaultStatus",
          "name": "status",
          "type": "uint8"
        },
        {
          "internalType": "address",
          "name": "depositToken",
          "type": "address"
        },
        {
          "internalType": "uint256",
          "name": "totalDeposits",
          "type": "uint256"
        },
        {
          "internalType": "uint256",
          "name": "currentNAV",
          "type": "uint256"
        },
        {
          "internalType": "uint256",
          "name": "strikePrice",
          "type": "uint256"
        },
        {
          "internalType": "uint256",
          "name": "expiry",
          "type": "uint256"
        },
        {
          "internalType": "uint256",
          "name": "weeklyPremiumBps",
          "type": "uint256"
        },
        {
          "internalType": "uint256",
          "name": "managementFeeBps",
          "type": "uint256"
        },
        {
          "internalType": "uint256",
          "name": "performanceFeeBps",
          "type": "uint256"
        },
        {
          "internalType": "uint256",
          "name": "lastFeeAccrual",
          "type": "uint256"
        },
        {
          "internalType": "uint256",
          "name": "totalPremiumEarned",
          "type": "uint256"
        },
        {
          "internalType": "uint256",
          "name": "totalFeesCollected",
          "type": "uint256"
        },
        {
          "internalType": "uint256",
          "name": "epoch",
          "type": "uint256"
        },
        {
          "internalType": "bool",
          "name": "autoRoll",
          "type": "bool"
        }
      ],
      "stateMutability": "view",
      "type": "function"
    }
  ],
  "bytecode": "0x60a03461017357601f61194338819003918201601f19168301916001600160401b0383118484101761017757808492608094604052833981010312610173576100478161018b565b6100536020830161018b565b9161006c60606100656040840161018b565b920161018b565b6001600160a01b0390921692831561016057600180546001600160a01b03199081169091555f80549182168617815560405195916001600160a01b0316907f8be0079c531659141344cd1fd0a4f28419497f9722a3daafe3b4186f6b6457e09080a360017f9b779b17422d0df92223018b32b4d1fa46e071723d6817e2486d003becc55f00556001600160a01b03908116608052600680546001600160a01b03199081169383169390931790556008805490921692169190911790556117a390816101a0823960805181818161039201528181610c470152818161100601528181611293015281816112d801526116950152f35b631e4fbdf760e01b5f525f60045260245ffd5b5f80fd5b634e487b7160e01b5f52604160045260245ffd5b51906001600160a01b03821682036101735756fe6080806040526004361015610012575f80fd5b5f3560e01c90816312ac1763146114135750806313f2dad0146113e9578063249d39e9146113cd578063268ef954146111225780633f4ba83a146110b45780634f0cb5f314610eff5780635c975abb14610eda578063715018a614610e77578063748747e614610e3457806379ba509714610daf5780638456cb5914610d4e578063869da9db14610c7657806389a3027114610c325780638c64ea4a14610b375780638da5cb5b14610b1057806393499dfb14610ae85780639d2b86f614610ac0578063a18306221461095c578063aced166114610934578063c943e097146106c9578063cdcea4d814610674578063d77c3b8214610632578063e1e158a514610614578063e2bbb15814610342578063e30c39781461031a578063e684d718146102b4578063e6a69ab814610296578063f0148023146101d15763f2fde38b1461015b575f80fd5b346101cd5760203660031901126101cd5761017461142d565b61017c61159c565b60018060a01b0316806bffffffffffffffffffffffff60a01b600154161760015560018060a01b035f54167f38d16b8cac22d99fc7c124b9cd0de2d3fa1faef420bfe791d8c362d765e227005f80a3005b5f80fd5b346101cd576101df36611466565b906101e86115af565b5f818152600360209081526040808320338452909152902080549083821061025157610216846003936114ea565b8155016102248382546114f7565b90555f52600460205261023c60405f209182546114ea565b905560015f8051602061174e83398151915255005b60405162461bcd60e51b815260206004820152601760248201527f53503a20696e73756666696369656e74207368617265730000000000000000006044820152606490fd5b346101cd575f3660031901126101cd5760206040516301e133808152f35b346101cd5760403660031901126101cd576102cd611443565b6004355f52600360205260405f209060018060a01b03165f52602052608060405f208054906001810154906003600282015491015491604051938452602084015260408301526060820152f35b346101cd575f3660031901126101cd576001546040516001600160a01b039091168152602090f35b346101cd5761035036611466565b6103586115af565b6103606115e7565b815f52600260205260405f209060ff600183015460081c166004811015610600576105c7576305f5e1008110610589577f00000000000000000000000000000000000000000000000000000000000000006040516323b872dd60e01b5f5233600452306024528260445260205f60648180865af19060015f5114821615610568575b6040525f60605215610548577fad5b4075b97dbf75ad5c78f7afac948e4ae611c4fdf2825e2ce3c6c96925bf3b608085858561041d83611605565b825f52600460205260405f205415801561053c575b1561051157600381925b5f858152602083815260408083203384529091529020805461045f9086906114f7565b90555f85815260208381526040808320338452909152902060010180546104879085906114f7565b9055600c810154855f528260205260405f2060018060a01b0333165f52602052600260405f200155845f52600460205260405f206104c68582546114f7565b9055600281016104d78482546114f7565b9055016104e58282546114f7565b905560405192835233602084015260408301526060820152a160015f8051602061174e83398151915255005b825f526004602052600361053661052c60405f2054846114b9565b82850154906114cc565b9261043c565b50600382015415610432565b635274afe760e01b5f9081526001600160a01b0391909116600452602490fd5b90600181151661058057823b15153d151616906103e2565b503d5f823e3d90fd5b60405162461bcd60e51b8152602060048201526016602482015275053503a2062656c6f77206d696e696d756d20243130360541b6044820152606490fd5b60405162461bcd60e51b815260206004820152601160248201527053503a206e6f7420616363657074696e6760781b6044820152606490fd5b634e487b7160e01b5f52602160045260245ffd5b346101cd575f3660031901126101cd5760206040516305f5e1008152f35b346101cd5761064036611466565b905f52600560205260405f209081548110156101cd575f91825260209182902001546040516001600160a01b039091168152f35b346101cd5760203660031901126101cd576004355f526002602052600660405f2001546034810290808204603414901517156106b557602090604051908152f35b634e487b7160e01b5f52601160045260245ffd5b346101cd5760a03660031901126101cd57600360043510156101cd576106ed611443565b6084358015158091036101cd5761070261159c565b6009549061070f82611536565b60095562093a80420142116106b55760405192610200840184811067ffffffffffffffff8211176109205760405282845260043560208501525f604085015260018060a01b031660608401525f60808401525f60a084015260443560c084015262093a80420160e084015260643561010084015260646101208401526103e8610140840152426101608401525f6101808401525f6101a084015260016101c08401526101e0830152805f52600260205260405f209180518355602081015160038110156106005760ff80196001860154169116176001840155604081015192600484101561060057600d6101e09160209561ff0060018301549160081b169061ff001916176001820155606084015160018201549062010000600160b01b039060101b169062010000600160b01b0319161760018201556080840151600282015560a0840151600382015560c0840151600482015560e084015160058201556101008401516006820155610120840151600782015561014084015160088201556101608401516009820155610180840151600a8201556101a0840151600b8201556101c0840151600c82015501910151151560ff801983541691161790557f0b812ae473e2f924f314833f8ac2f651e95dfd4ea8c970149e045272d6ede1ab6080604051838152610904858201600435611459565b604435604082015262093a8042016060820152a1604051908152f35b634e487b7160e01b5f52604160045260245ffd5b346101cd575f3660031901126101cd576008546040516001600160a01b039091168152602090f35b346101cd5760403660031901126101cd576004356024359060018060a01b036008541633148015610aad575b6109919061147c565b805f52600260205260405f209060058201544210610a765760ff91600d915f8512610a3f57600382016109c58682546114f7565b90555b610a29600183019561020061ff00198854161787557f2a46e4bb389fd5ab99e0201ce6c84f316197c98f5d0887df2e77f8f5d06b4e0f6080600c860194855493600a88015460405192835285602084015260408301526060820152a1611536565b9055015416610a3457005b805461ff0019169055005b600382018054610a4e87611526565b1015610a6e57610a67610a6087611526565b82546114ea565b90556109c8565b5f90556109c8565b60405162461bcd60e51b815260206004820152600f60248201526e14d40e881b9bdd08195e1c1a5c9959608a1b6044820152606490fd5b505f546001600160a01b03163314610988565b346101cd575f3660031901126101cd576006546040516001600160a01b039091168152602090f35b346101cd575f3660031901126101cd576007546040516001600160a01b039091168152602090f35b346101cd575f3660031901126101cd575f546040516001600160a01b039091168152602090f35b346101cd5760203660031901126101cd576004355f52600260205260405f20805460018201548060081c60ff1692839160028201546003830154600484015460058501546006860154600787015491600888015493600989015495600a8a015497600b8b015499600c8c01549b600d015460ff169c6040519e8f90815260200160ff831690610bc591611459565b600411156106005760606102009f918f92604084015260018060a01b039060101c1691015260808d015260a08c015260c08b015260e08a01526101008901526101208801526101408701526101608601526101808501526101a08401526101c083015215156101e0820152f35b346101cd575f3660031901126101cd576040517f00000000000000000000000000000000000000000000000000000000000000006001600160a01b03168152602090f35b346101cd5760403660031901126101cd57600435610c92611443565b815f52600360205260405f209060018060a01b03165f5260205260405f2090805f52600260205260405f208254915f52600460205260405f20548015155f14610d4657610cec90610ce76003840154856114b9565b6114cc565b905b6001840154808303905f8112848312811690858413901516176106b557612710610d236006600360c0990154950154866114b9565b0493604051958652602086015260408501526060840152608083015260a0820152f35b505f90610cee565b346101cd575f3660031901126101cd57610d6661159c565b610d6e6115e7565b6001805460ff60a01b1916600160a01b1790556040513381527f62e78cea01bee320cd4e420270b5ea74000d11b0c9f74754ebdbfc544b05a25890602090a1005b346101cd575f3660031901126101cd57600154336001600160a01b0390911603610e2157600180546001600160a01b03199081169091555f805433928116831782556001600160a01b0316907f8be0079c531659141344cd1fd0a4f28419497f9722a3daafe3b4186f6b6457e09080a3005b63118cdaa760e01b5f523360045260245ffd5b346101cd5760203660031901126101cd57610e4d61142d565b610e5561159c565b600880546001600160a01b0319166001600160a01b0392909216919091179055005b346101cd575f3660031901126101cd57610e8f61159c565b600180546001600160a01b03199081169091555f80549182168155906001600160a01b03167f8be0079c531659141344cd1fd0a4f28419497f9722a3daafe3b4186f6b6457e08280a3005b346101cd575f3660031901126101cd57602060ff60015460a01c166040519015158152f35b346101cd5760203660031901126101cd57600435610f1b6115af565b5f81815260026020908152604080832060038084528285203386529093529220018054929083156110795760ff600184015460081c1660048110156106005760028114908115611070575b50156110395760036060937fcf7d23a3cbe4e8b36ff82fd1b05b1b17373dc7804b4ebbd6e2356716ef20237295845f526004602052610fa98160405f20546114f7565b90811561102f575f91610ce7610fc39286860154906114b9565b935b5501610fd28282546114ea565b905580610fff575b6040519182523360208301526040820152a160015f8051602061174e83398151915255005b61102a81337f0000000000000000000000000000000000000000000000000000000000000000611544565b610fda565b50505f8093610fc5565b60405162461bcd60e51b815260206004820152600f60248201526e14d40e881b9bdd081cd95d1d1b1959608a1b6044820152606490fd5b90501585610f66565b60405162461bcd60e51b815260206004820152601360248201527253503a206e6f7468696e672070656e64696e6760681b6044820152606490fd5b346101cd575f3660031901126101cd576110cc61159c565b60015460ff8160a01c16156111135760ff60a01b19166001556040513381527f5db9ee0a495bf2e6ff9c91a7834c1ba4fdd244a5e8aa4e537bd38aeae4b073aa90602090a1005b638dfc202b60e01b5f5260045ffd5b346101cd5760603660031901126101cd57600435602435906044359160018060a01b0360085416331480156113ba575b61115b9061147c565b815f52600260205260405f2090600182019060ff825460081c16600481101561060057611382576127106111936008850154876114b9565b049261119f84876114ea565b600382016111ae8282546114f7565b90556111bf600a83019182546114f7565b9055600b81016111d08582546114f7565b905581600482015562093a804201928342116106b55760058201938455805461ff001916610100179055831515806112bc575b927f49d512bf9cb224241c05691e73eb9fab078cf350c7dbcbcf66788f1fc0cc8b0b967f32838c351c3fecb453bf0f56e8fddeb32607ce0fd0fd2b53ede0da284f1d58d293600c60a0946040999897611283575b015492549088519388855260208501528884015260608301526080820152a182519182526020820152a1005b6112b788600180891b03600654167f0000000000000000000000000000000000000000000000000000000000000000611544565b611257565b506040516370a0823160e01b81523060048201526020816024817f00000000000000000000000000000000000000000000000000000000000000006001600160a01b03165afa908115611377575f91611319575b50841115611203565b9295949390506020833d60201161136f575b8161133860209383611504565b810103126101cd579151939492939192917f49d512bf9cb224241c05691e73eb9fab078cf350c7dbcbcf66788f1fc0cc8b0b611310565b3d915061132b565b6040513d5f823e3d90fd5b60405162461bcd60e51b815260206004820152601060248201526f53503a2077726f6e672073746174757360801b6044820152606490fd5b505f546001600160a01b03163314611152565b346101cd575f3660031901126101cd5760206040516127108152f35b346101cd5760203660031901126101cd576004355f526004602052602060405f2054604051908152f35b346101cd575f3660031901126101cd576020906009548152f35b600435906001600160a01b03821682036101cd57565b602435906001600160a01b03821682036101cd57565b9060038210156106005752565b60409060031901126101cd576004359060243590565b1561148357565b60405162461bcd60e51b815260206004820152600e60248201526d29a81d103737ba1035b2b2b832b960911b6044820152606490fd5b818102929181159184041417156106b557565b81156114d6570490565b634e487b7160e01b5f52601260045260245ffd5b919082039182116106b557565b919082018092116106b557565b90601f8019910116810190811067ffffffffffffffff82111761092057604052565b600160ff1b81146106b5575f0390565b5f1981146106b55760010190565b916040519163a9059cbb60e01b5f5260018060a01b031660045260245260205f60448180865af19060015f5114821615611584575b604052156105485750565b90600181151661058057823b15153d15161690611579565b5f546001600160a01b03163303610e2157565b60025f8051602061174e83398151915254146115d85760025f8051602061174e83398151915255565b633ee5aeb560e01b5f5260045ffd5b60ff60015460a01c166115f657565b63d93c066560e01b5f5260045ffd5b5f52600260205260405f2060038101805480156117435760098301926301e1338061271061164a6116378754426114ea565b6116456007860154876114b9565b6114b9565b0404928315158061173a575b611664575b50505050429055565b61167084600b946114ea565b90550161167e8282546114f7565b90556040516370a0823160e01b81523060048201527f000000000000000000000000000000000000000000000000000000000000000091906020816024816001600160a01b0387165afa80156113775782915f91611705575b5010156116e6575b808061165b565b6006546116fe926001600160a01b0390911690611544565b5f806116df565b9150506020813d602011611732575b8161172160209383611504565b810103126101cd578190515f6116d7565b3d9150611714565b50828410611656565b505060094291015556fe9b779b17422d0df92223018b32b4d1fa46e071723d6817e2486d003becc55f00a26469706673582212201588989361d0f3883451bfe99251bc6405f37784413c0ab0df84384a934097ac64736f6c634300081a0033",
  "linkReferences": {},
  "deployedLinkReferences": {}
}