{
  "_format": "hh-sol-artifact-1",
  "contractName": "WikiLending",
  "sourceName": "src/WikiLending.sol",
  "abi": [
    {
      "inputs": [
        {
          "internalType": "address",
          "name": "_oracle",
          "type": "address"
        },
        {
          "internalType": "address",
          "name": "wik",
          "type": "address"
        },
        {
          "internalType": "address",
          "name": "usdc",
          "type": "address"
        },
        {
          "internalType": "address",
          "name": "owner",
          "type": "address"
        }
      ],
      "stateMutability": "nonpayable",
      "type": "constructor"
    },
    {
      "inputs": [],
      "name": "EnforcedPause",
      "type": "error"
    },
    {
      "inputs": [],
      "name": "ExpectedPause",
      "type": "error"
    },
    {
      "inputs": [
        {
          "internalType": "address",
          "name": "owner",
          "type": "address"
        }
      ],
      "name": "OwnableInvalidOwner",
      "type": "error"
    },
    {
      "inputs": [
        {
          "internalType": "address",
          "name": "account",
          "type": "address"
        }
      ],
      "name": "OwnableUnauthorizedAccount",
      "type": "error"
    },
    {
      "inputs": [],
      "name": "ReentrancyGuardReentrantCall",
      "type": "error"
    },
    {
      "inputs": [
        {
          "internalType": "address",
          "name": "token",
          "type": "address"
        }
      ],
      "name": "SafeERC20FailedOperation",
      "type": "error"
    },
    {
      "anonymous": false,
      "inputs": [
        {
          "indexed": true,
          "internalType": "uint256",
          "name": "mid",
          "type": "uint256"
        },
        {
          "indexed": true,
          "internalType": "address",
          "name": "user",
          "type": "address"
        },
        {
          "indexed": false,
          "internalType": "uint256",
          "name": "amount",
          "type": "uint256"
        }
      ],
      "name": "Borrowed",
      "type": "event"
    },
    {
      "anonymous": false,
      "inputs": [
        {
          "indexed": true,
          "internalType": "uint256",
          "name": "mid",
          "type": "uint256"
        },
        {
          "indexed": false,
          "internalType": "uint256",
          "name": "interestAccumulated",
          "type": "uint256"
        },
        {
          "indexed": false,
          "internalType": "uint256",
          "name": "newBorrowIndex",
          "type": "uint256"
        }
      ],
      "name": "InterestAccrued",
      "type": "event"
    },
    {
      "anonymous": false,
      "inputs": [
        {
          "indexed": true,
          "internalType": "uint256",
          "name": "repayMid",
          "type": "uint256"
        },
        {
          "indexed": true,
          "internalType": "uint256",
          "name": "seizeMid",
          "type": "uint256"
        },
        {
          "indexed": true,
          "internalType": "address",
          "name": "liquidator",
          "type": "address"
        },
        {
          "indexed": false,
          "internalType": "address",
          "name": "borrower",
          "type": "address"
        },
        {
          "indexed": false,
          "internalType": "uint256",
          "name": "repayAmount",
          "type": "uint256"
        },
        {
          "indexed": false,
          "internalType": "uint256",
          "name": "seizedWTokens",
          "type": "uint256"
        }
      ],
      "name": "Liquidated",
      "type": "event"
    },
    {
      "anonymous": false,
      "inputs": [
        {
          "indexed": true,
          "internalType": "uint256",
          "name": "mid",
          "type": "uint256"
        },
        {
          "indexed": false,
          "internalType": "address",
          "name": "underlying",
          "type": "address"
        },
        {
          "indexed": false,
          "internalType": "string",
          "name": "symbol",
          "type": "string"
        }
      ],
      "name": "MarketAdded",
      "type": "event"
    },
    {
      "anonymous": false,
      "inputs": [
        {
          "indexed": true,
          "internalType": "address",
          "name": "previousOwner",
          "type": "address"
        },
        {
          "indexed": true,
          "internalType": "address",
          "name": "newOwner",
          "type": "address"
        }
      ],
      "name": "OwnershipTransferStarted",
      "type": "event"
    },
    {
      "anonymous": false,
      "inputs": [
        {
          "indexed": true,
          "internalType": "address",
          "name": "previousOwner",
          "type": "address"
        },
        {
          "indexed": true,
          "internalType": "address",
          "name": "newOwner",
          "type": "address"
        }
      ],
      "name": "OwnershipTransferred",
      "type": "event"
    },
    {
      "anonymous": false,
      "inputs": [
        {
          "indexed": false,
          "internalType": "address",
          "name": "account",
          "type": "address"
        }
      ],
      "name": "Paused",
      "type": "event"
    },
    {
      "anonymous": false,
      "inputs": [
        {
          "indexed": true,
          "internalType": "uint256",
          "name": "mid",
          "type": "uint256"
        },
        {
          "indexed": true,
          "internalType": "address",
          "name": "user",
          "type": "address"
        },
        {
          "indexed": false,
          "internalType": "uint256",
          "name": "amount",
          "type": "uint256"
        }
      ],
      "name": "Repaid",
      "type": "event"
    },
    {
      "anonymous": false,
      "inputs": [
        {
          "indexed": true,
          "internalType": "uint256",
          "name": "mid",
          "type": "uint256"
        },
        {
          "indexed": false,
          "internalType": "address",
          "name": "to",
          "type": "address"
        },
        {
          "indexed": false,
          "internalType": "uint256",
          "name": "amount",
          "type": "uint256"
        }
      ],
      "name": "ReservesWithdrawn",
      "type": "event"
    },
    {
      "anonymous": false,
      "inputs": [
        {
          "indexed": true,
          "internalType": "uint256",
          "name": "mid",
          "type": "uint256"
        },
        {
          "indexed": true,
          "internalType": "address",
          "name": "user",
          "type": "address"
        },
        {
          "indexed": false,
          "internalType": "uint256",
          "name": "amount",
          "type": "uint256"
        },
        {
          "indexed": false,
          "internalType": "uint256",
          "name": "wTokens",
          "type": "uint256"
        }
      ],
      "name": "Supplied",
      "type": "event"
    },
    {
      "anonymous": false,
      "inputs": [
        {
          "indexed": false,
          "internalType": "address",
          "name": "account",
          "type": "address"
        }
      ],
      "name": "Unpaused",
      "type": "event"
    },
    {
      "anonymous": false,
      "inputs": [
        {
          "indexed": true,
          "internalType": "address",
          "name": "user",
          "type": "address"
        },
        {
          "indexed": false,
          "internalType": "uint256",
          "name": "amount",
          "type": "uint256"
        }
      ],
      "name": "WIKClaimed",
      "type": "event"
    },
    {
      "anonymous": false,
      "inputs": [
        {
          "indexed": true,
          "internalType": "uint256",
          "name": "mid",
          "type": "uint256"
        },
        {
          "indexed": true,
          "internalType": "address",
          "name": "user",
          "type": "address"
        },
        {
          "indexed": false,
          "internalType": "uint256",
          "name": "amount",
          "type": "uint256"
        },
        {
          "indexed": false,
          "internalType": "uint256",
          "name": "wTokens",
          "type": "uint256"
        }
      ],
      "name": "Withdrawn",
      "type": "event"
    },
    {
      "inputs": [],
      "name": "BPS",
      "outputs": [
        {
          "internalType": "uint256",
          "name": "",
          "type": "uint256"
        }
      ],
      "stateMutability": "view",
      "type": "function"
    },
    {
      "inputs": [],
      "name": "CLOSE_FACTOR",
      "outputs": [
        {
          "internalType": "uint256",
          "name": "",
          "type": "uint256"
        }
      ],
      "stateMutability": "view",
      "type": "function"
    },
    {
      "inputs": [],
      "name": "INITIAL_RATE",
      "outputs": [
        {
          "internalType": "uint256",
          "name": "",
          "type": "uint256"
        }
      ],
      "stateMutability": "view",
      "type": "function"
    },
    {
      "inputs": [],
      "name": "LIQUIDATION_BONUS",
      "outputs": [
        {
          "internalType": "uint256",
          "name": "",
          "type": "uint256"
        }
      ],
      "stateMutability": "view",
      "type": "function"
    },
    {
      "inputs": [],
      "name": "MAX_RESERVE_FACTOR",
      "outputs": [
        {
          "internalType": "uint256",
          "name": "",
          "type": "uint256"
        }
      ],
      "stateMutability": "view",
      "type": "function"
    },
    {
      "inputs": [],
      "name": "MIN_HEALTH_FACTOR",
      "outputs": [
        {
          "internalType": "uint256",
          "name": "",
          "type": "uint256"
        }
      ],
      "stateMutability": "view",
      "type": "function"
    },
    {
      "inputs": [],
      "name": "PRECISION",
      "outputs": [
        {
          "internalType": "uint256",
          "name": "",
          "type": "uint256"
        }
      ],
      "stateMutability": "view",
      "type": "function"
    },
    {
      "inputs": [],
      "name": "USDC",
      "outputs": [
        {
          "internalType": "contract IERC20",
          "name": "",
          "type": "address"
        }
      ],
      "stateMutability": "view",
      "type": "function"
    },
    {
      "inputs": [],
      "name": "WIK",
      "outputs": [
        {
          "internalType": "contract IERC20",
          "name": "",
          "type": "address"
        }
      ],
      "stateMutability": "view",
      "type": "function"
    },
    {
      "inputs": [],
      "name": "acceptOwnership",
      "outputs": [],
      "stateMutability": "nonpayable",
      "type": "function"
    },
    {
      "inputs": [
        {
          "internalType": "address",
          "name": "underlying",
          "type": "address"
        },
        {
          "internalType": "bytes32",
          "name": "oracleId",
          "type": "bytes32"
        },
        {
          "internalType": "string",
          "name": "symbol",
          "type": "string"
        },
        {
          "internalType": "uint256",
          "name": "colFactor",
          "type": "uint256"
        },
        {
          "internalType": "uint256",
          "name": "liqThreshold",
          "type": "uint256"
        },
        {
          "internalType": "uint256",
          "name": "reserveFactor",
          "type": "uint256"
        },
        {
          "internalType": "uint256",
          "name": "supplyCap",
          "type": "uint256"
        },
        {
          "internalType": "uint256",
          "name": "borrowCap",
          "type": "uint256"
        },
        {
          "internalType": "uint256[4]",
          "name": "irm",
          "type": "uint256[4]"
        }
      ],
      "name": "addMarket",
      "outputs": [
        {
          "internalType": "uint256",
          "name": "mid",
          "type": "uint256"
        }
      ],
      "stateMutability": "nonpayable",
      "type": "function"
    },
    {
      "inputs": [
        {
          "internalType": "uint256",
          "name": "mid",
          "type": "uint256"
        },
        {
          "internalType": "uint256",
          "name": "amount",
          "type": "uint256"
        }
      ],
      "name": "borrow",
      "outputs": [],
      "stateMutability": "nonpayable",
      "type": "function"
    },
    {
      "inputs": [
        {
          "internalType": "uint256[]",
          "name": "mids",
          "type": "uint256[]"
        }
      ],
      "name": "claimWIK",
      "outputs": [],
      "stateMutability": "nonpayable",
      "type": "function"
    },
    {
      "inputs": [
        {
          "internalType": "uint256",
          "name": "mid",
          "type": "uint256"
        }
      ],
      "name": "getBorrowAPY",
      "outputs": [
        {
          "internalType": "uint256",
          "name": "",
          "type": "uint256"
        }
      ],
      "stateMutability": "view",
      "type": "function"
    },
    {
      "inputs": [
        {
          "internalType": "uint256",
          "name": "mid",
          "type": "uint256"
        },
        {
          "internalType": "address",
          "name": "user",
          "type": "address"
        }
      ],
      "name": "getBorrowBalance",
      "outputs": [
        {
          "internalType": "uint256",
          "name": "",
          "type": "uint256"
        }
      ],
      "stateMutability": "view",
      "type": "function"
    },
    {
      "inputs": [
        {
          "internalType": "uint256",
          "name": "mid",
          "type": "uint256"
        }
      ],
      "name": "getMarket",
      "outputs": [
        {
          "components": [
            {
              "internalType": "address",
              "name": "underlying",
              "type": "address"
            },
            {
              "internalType": "bytes32",
              "name": "oracleId",
              "type": "bytes32"
            },
            {
              "internalType": "string",
              "name": "symbol",
              "type": "string"
            },
            {
              "internalType": "uint256",
              "name": "baseRatePerSecond",
              "type": "uint256"
            },
            {
              "internalType": "uint256",
              "name": "multiplierPerSecond",
              "type": "uint256"
            },
            {
              "internalType": "uint256",
              "name": "jumpMultiplierPerSecond",
              "type": "uint256"
            },
            {
              "internalType": "uint256",
              "name": "kinkUtilization",
              "type": "uint256"
            },
            {
              "internalType": "uint256",
              "name": "totalSupply",
              "type": "uint256"
            },
            {
              "internalType": "uint256",
              "name": "totalBorrows",
              "type": "uint256"
            },
            {
              "internalType": "uint256",
              "name": "totalReserves",
              "type": "uint256"
            },
            {
              "internalType": "uint256",
              "name": "exchangeRate",
              "type": "uint256"
            },
            {
              "internalType": "uint256",
              "name": "borrowIndex",
              "type": "uint256"
            },
            {
              "internalType": "uint256",
              "name": "lastAccrualTime",
              "type": "uint256"
            },
            {
              "internalType": "uint256",
              "name": "collateralFactor",
              "type": "uint256"
            },
            {
              "internalType": "uint256",
              "name": "liquidationThreshold",
              "type": "uint256"
            },
            {
              "internalType": "uint256",
              "name": "reserveFactor",
              "type": "uint256"
            },
            {
              "internalType": "uint256",
              "name": "supplyCap",
              "type": "uint256"
            },
            {
              "internalType": "uint256",
              "name": "borrowCap",
              "type": "uint256"
            },
            {
              "internalType": "bool",
              "name": "supplyEnabled",
              "type": "bool"
            },
            {
              "internalType": "bool",
              "name": "borrowEnabled",
              "type": "bool"
            },
            {
              "internalType": "uint256",
              "name": "supplyWIKPerSecond",
              "type": "uint256"
            },
            {
              "internalType": "uint256",
              "name": "borrowWIKPerSecond",
              "type": "uint256"
            },
            {
              "internalType": "uint256",
              "name": "accSupplyWIKPerToken",
              "type": "uint256"
            },
            {
              "internalType": "uint256",
              "name": "accBorrowWIKPerBorrow",
              "type": "uint256"
            }
          ],
          "internalType": "struct WikiLending.Market",
          "name": "",
          "type": "tuple"
        }
      ],
      "stateMutability": "view",
      "type": "function"
    },
    {
      "inputs": [
        {
          "internalType": "uint256",
          "name": "mid",
          "type": "uint256"
        }
      ],
      "name": "getSupplyAPY",
      "outputs": [
        {
          "internalType": "uint256",
          "name": "",
          "type": "uint256"
        }
      ],
      "stateMutability": "view",
      "type": "function"
    },
    {
      "inputs": [
        {
          "internalType": "uint256",
          "name": "mid",
          "type": "uint256"
        },
        {
          "internalType": "address",
          "name": "user",
          "type": "address"
        }
      ],
      "name": "getSupplyBalance",
      "outputs": [
        {
          "internalType": "uint256",
          "name": "",
          "type": "uint256"
        }
      ],
      "stateMutability": "view",
      "type": "function"
    },
    {
      "inputs": [
        {
          "internalType": "uint256",
          "name": "mid",
          "type": "uint256"
        },
        {
          "internalType": "address",
          "name": "user",
          "type": "address"
        }
      ],
      "name": "getUserMarket",
      "outputs": [
        {
          "components": [
            {
              "internalType": "uint256",
              "name": "wTokenBalance",
              "type": "uint256"
            },
            {
              "internalType": "uint256",
              "name": "borrowBalance",
              "type": "uint256"
            },
            {
              "internalType": "uint256",
              "name": "borrowIndex",
              "type": "uint256"
            },
            {
              "internalType": "uint256",
              "name": "supplyWIKDebt",
              "type": "uint256"
            },
            {
              "internalType": "uint256",
              "name": "borrowWIKDebt",
              "type": "uint256"
            }
          ],
          "internalType": "struct WikiLending.UserMarket",
          "name": "",
          "type": "tuple"
        }
      ],
      "stateMutability": "view",
      "type": "function"
    },
    {
      "inputs": [
        {
          "internalType": "uint256",
          "name": "mid",
          "type": "uint256"
        }
      ],
      "name": "getUtilization",
      "outputs": [
        {
          "internalType": "uint256",
          "name": "",
          "type": "uint256"
        }
      ],
      "stateMutability": "view",
      "type": "function"
    },
    {
      "inputs": [
        {
          "internalType": "address",
          "name": "user",
          "type": "address"
        }
      ],
      "name": "healthFactor",
      "outputs": [
        {
          "internalType": "uint256",
          "name": "",
          "type": "uint256"
        }
      ],
      "stateMutability": "view",
      "type": "function"
    },
    {
      "inputs": [
        {
          "internalType": "address",
          "name": "",
          "type": "address"
        },
        {
          "internalType": "uint256",
          "name": "",
          "type": "uint256"
        }
      ],
      "name": "inMarket",
      "outputs": [
        {
          "internalType": "bool",
          "name": "",
          "type": "bool"
        }
      ],
      "stateMutability": "view",
      "type": "function"
    },
    {
      "inputs": [
        {
          "internalType": "address",
          "name": "borrower",
          "type": "address"
        },
        {
          "internalType": "uint256",
          "name": "repayMid",
          "type": "uint256"
        },
        {
          "internalType": "uint256",
          "name": "seizeMid",
          "type": "uint256"
        },
        {
          "internalType": "uint256",
          "name": "repayAmount",
          "type": "uint256"
        }
      ],
      "name": "liquidate",
      "outputs": [],
      "stateMutability": "nonpayable",
      "type": "function"
    },
    {
      "inputs": [],
      "name": "marketCount",
      "outputs": [
        {
          "internalType": "uint256",
          "name": "",
          "type": "uint256"
        }
      ],
      "stateMutability": "view",
      "type": "function"
    },
    {
      "inputs": [
        {
          "internalType": "uint256",
          "name": "",
          "type": "uint256"
        }
      ],
      "name": "markets",
      "outputs": [
        {
          "internalType": "address",
          "name": "underlying",
          "type": "address"
        },
        {
          "internalType": "bytes32",
          "name": "oracleId",
          "type": "bytes32"
        },
        {
          "internalType": "string",
          "name": "symbol",
          "type": "string"
        },
        {
          "internalType": "uint256",
          "name": "baseRatePerSecond",
          "type": "uint256"
        },
        {
          "internalType": "uint256",
          "name": "multiplierPerSecond",
          "type": "uint256"
        },
        {
          "internalType": "uint256",
          "name": "jumpMultiplierPerSecond",
          "type": "uint256"
        },
        {
          "internalType": "uint256",
          "name": "kinkUtilization",
          "type": "uint256"
        },
        {
          "internalType": "uint256",
          "name": "totalSupply",
          "type": "uint256"
        },
        {
          "internalType": "uint256",
          "name": "totalBorrows",
          "type": "uint256"
        },
        {
          "internalType": "uint256",
          "name": "totalReserves",
          "type": "uint256"
        },
        {
          "internalType": "uint256",
          "name": "exchangeRate",
          "type": "uint256"
        },
        {
          "internalType": "uint256",
          "name": "borrowIndex",
          "type": "uint256"
        },
        {
          "internalType": "uint256",
          "name": "lastAccrualTime",
          "type": "uint256"
        },
        {
          "internalType": "uint256",
          "name": "collateralFactor",
          "type": "uint256"
        },
        {
          "internalType": "uint256",
          "name": "liquidationThreshold",
          "type": "uint256"
        },
        {
          "internalType": "uint256",
          "name": "reserveFactor",
          "type": "uint256"
        },
        {
          "internalType": "uint256",
          "name": "supplyCap",
          "type": "uint256"
        },
        {
          "internalType": "uint256",
          "name": "borrowCap",
          "type": "uint256"
        },
        {
          "internalType": "bool",
          "name": "supplyEnabled",
          "type": "bool"
        },
        {
          "internalType": "bool",
          "name": "borrowEnabled",
          "type": "bool"
        },
        {
          "internalType": "uint256",
          "name": "supplyWIKPerSecond",
          "type": "uint256"
        },
        {
          "internalType": "uint256",
          "name": "borrowWIKPerSecond",
          "type": "uint256"
        },
        {
          "internalType": "uint256",
          "name": "accSupplyWIKPerToken",
          "type": "uint256"
        },
        {
          "internalType": "uint256",
          "name": "accBorrowWIKPerBorrow",
          "type": "uint256"
        }
      ],
      "stateMutability": "view",
      "type": "function"
    },
    {
      "inputs": [],
      "name": "oracle",
      "outputs": [
        {
          "internalType": "contract IOracle",
          "name": "",
          "type": "address"
        }
      ],
      "stateMutability": "view",
      "type": "function"
    },
    {
      "inputs": [],
      "name": "owner",
      "outputs": [
        {
          "internalType": "address",
          "name": "",
          "type": "address"
        }
      ],
      "stateMutability": "view",
      "type": "function"
    },
    {
      "inputs": [],
      "name": "pause",
      "outputs": [],
      "stateMutability": "nonpayable",
      "type": "function"
    },
    {
      "inputs": [],
      "name": "paused",
      "outputs": [
        {
          "internalType": "bool",
          "name": "",
          "type": "bool"
        }
      ],
      "stateMutability": "view",
      "type": "function"
    },
    {
      "inputs": [],
      "name": "pendingOwner",
      "outputs": [
        {
          "internalType": "address",
          "name": "",
          "type": "address"
        }
      ],
      "stateMutability": "view",
      "type": "function"
    },
    {
      "inputs": [],
      "name": "protocolReserves",
      "outputs": [
        {
          "internalType": "uint256",
          "name": "",
          "type": "uint256"
        }
      ],
      "stateMutability": "view",
      "type": "function"
    },
    {
      "inputs": [],
      "name": "renounceOwnership",
      "outputs": [],
      "stateMutability": "nonpayable",
      "type": "function"
    },
    {
      "inputs": [
        {
          "internalType": "uint256",
          "name": "mid",
          "type": "uint256"
        },
        {
          "internalType": "uint256",
          "name": "amount",
          "type": "uint256"
        }
      ],
      "name": "repay",
      "outputs": [],
      "stateMutability": "nonpayable",
      "type": "function"
    },
    {
      "inputs": [
        {
          "internalType": "uint256",
          "name": "mid",
          "type": "uint256"
        },
        {
          "internalType": "bool",
          "name": "supplyEnabled",
          "type": "bool"
        },
        {
          "internalType": "bool",
          "name": "borrowEnabled",
          "type": "bool"
        },
        {
          "internalType": "uint256",
          "name": "supplyCap",
          "type": "uint256"
        },
        {
          "internalType": "uint256",
          "name": "borrowCap",
          "type": "uint256"
        }
      ],
      "name": "setMarketConfig",
      "outputs": [],
      "stateMutability": "nonpayable",
      "type": "function"
    },
    {
      "inputs": [
        {
          "internalType": "address",
          "name": "_tl",
          "type": "address"
        }
      ],
      "name": "setTimelock",
      "outputs": [],
      "stateMutability": "nonpayable",
      "type": "function"
    },
    {
      "inputs": [
        {
          "internalType": "uint256",
          "name": "mid",
          "type": "uint256"
        },
        {
          "internalType": "uint256",
          "name": "supplyWPS",
          "type": "uint256"
        },
        {
          "internalType": "uint256",
          "name": "borrowWPS",
          "type": "uint256"
        }
      ],
      "name": "setWIKIncentives",
      "outputs": [],
      "stateMutability": "nonpayable",
      "type": "function"
    },
    {
      "inputs": [
        {
          "internalType": "uint256",
          "name": "mid",
          "type": "uint256"
        },
        {
          "internalType": "uint256",
          "name": "amount",
          "type": "uint256"
        }
      ],
      "name": "supply",
      "outputs": [],
      "stateMutability": "nonpayable",
      "type": "function"
    },
    {
      "inputs": [],
      "name": "timelock",
      "outputs": [
        {
          "internalType": "address",
          "name": "",
          "type": "address"
        }
      ],
      "stateMutability": "view",
      "type": "function"
    },
    {
      "inputs": [
        {
          "internalType": "address",
          "name": "newOwner",
          "type": "address"
        }
      ],
      "name": "transferOwnership",
      "outputs": [],
      "stateMutability": "nonpayable",
      "type": "function"
    },
    {
      "inputs": [],
      "name": "unpause",
      "outputs": [],
      "stateMutability": "nonpayable",
      "type": "function"
    },
    {
      "inputs": [
        {
          "internalType": "address",
          "name": "",
          "type": "address"
        },
        {
          "internalType": "uint256",
          "name": "",
          "type": "uint256"
        }
      ],
      "name": "userEnteredMarkets",
      "outputs": [
        {
          "internalType": "uint256",
          "name": "",
          "type": "uint256"
        }
      ],
      "stateMutability": "view",
      "type": "function"
    },
    {
      "inputs": [
        {
          "internalType": "uint256",
          "name": "",
          "type": "uint256"
        },
        {
          "internalType": "address",
          "name": "",
          "type": "address"
        }
      ],
      "name": "userMarkets",
      "outputs": [
        {
          "internalType": "uint256",
          "name": "wTokenBalance",
          "type": "uint256"
        },
        {
          "internalType": "uint256",
          "name": "borrowBalance",
          "type": "uint256"
        },
        {
          "internalType": "uint256",
          "name": "borrowIndex",
          "type": "uint256"
        },
        {
          "internalType": "uint256",
          "name": "supplyWIKDebt",
          "type": "uint256"
        },
        {
          "internalType": "uint256",
          "name": "borrowWIKDebt",
          "type": "uint256"
        }
      ],
      "stateMutability": "view",
      "type": "function"
    },
    {
      "inputs": [
        {
          "internalType": "uint256",
          "name": "mid",
          "type": "uint256"
        },
        {
          "internalType": "uint256",
          "name": "wTokenAmount",
          "type": "uint256"
        }
      ],
      "name": "withdraw",
      "outputs": [],
      "stateMutability": "nonpayable",
      "type": "function"
    },
    {
      "inputs": [
        {
          "internalType": "uint256",
          "name": "mid",
          "type": "uint256"
        },
        {
          "internalType": "address",
          "name": "to",
          "type": "address"
        },
        {
          "internalType": "uint256",
          "name": "amount",
          "type": "uint256"
        }
      ],
      "name": "withdrawReserves",
      "outputs": [],
      "stateMutability": "nonpayable",
      "type": "function"
    }
  ],
  "bytecode": "0x60c03461021c57601f6133e638819003918201601f19168301916001600160401b038311848410176102205780849260809460405283398101031261021c5761004781610234565b9061005460208201610234565b61006060408301610234565b916001600160a01b039061007690606001610234565b1692831561020957600180546001600160a01b03199081169091555f80549182168617815560405195916001600160a01b0316907f8be0079c531659141344cd1fd0a4f28419497f9722a3daafe3b4186f6b6457e09080a360017f9b779b17422d0df92223018b32b4d1fa46e071723d6817e2486d003becc55f00556001600160a01b03169283156101d257506001600160a01b031690811561019c576001600160a01b031691821561016557600380546001600160a01b03191691909117905560805260a05260405161319d90816102498239608051818181611e1d01526124e6015260a0518161190e0152f35b60405162461bcd60e51b815260206004820152600f60248201526e57696b693a207a65726f207573646360881b6044820152606490fd5b60405162461bcd60e51b815260206004820152600e60248201526d57696b693a207a65726f2077696b60901b6044820152606490fd5b62461bcd60e51b815260206004820152601260248201527157696b693a207a65726f205f6f7261636c6560701b6044820152606490fd5b631e4fbdf760e01b5f525f60045260245ffd5b5f80fd5b634e487b7160e01b5f52604160045260245ffd5b51906001600160a01b038216820361021c5756fe6102006040526004361015610012575f80fd5b5f3560e01c80630b5e80c91461244a5780630ecbcdab1461215857806310cdb5c7146120e85780631a3a0f4f14611fe35780631da6086114611f43578063249d39e914611f2757806330c7b09414611ed65780633574d4c414611eba5780633f4ba83a14611e4c57806340b0229e14611e08578063441a3e7014611bb65780634dab4dc014611b9a5780634dbac733146111435780635c975abb14611b755780636004e39314611b2c57806369c09d7914611ad45780636ad9f9df14611aae578063715018a614611a4b57806379ba5097146119c65780637dc0d1d01461199e5780638456cb591461193d57806389a30271146118f95780638a1d3446146115895780638da5cb5b1461156257806395f76652146114fd57806397f4e4471461142f5780639b5bf78b1461136b578063aaf5eb6814611143578063b1283e7714611148578063b5627e4214611143578063bdacb303146110bc578063c400827414610fab578063d23a65cf14610f8f578063d33219b414610f67578063d681a44914610f4a578063d8aed14514610e3e578063daecfa6c14610c22578063dba0756214610bd6578063de49628a1461065a578063e30c397814610632578063eb44fdd314610318578063ec979082146102fb578063f2fde38b146102895763f99418d8146101fe575f80fd5b346102855760a03660031901126102855760243580151581036102855760443580151581036102855761027290610233612f0c565b61023e600435612727565b509261025a6012850191829060ff801983541691151516179055565b9061ff00825491151560081b169061ff001916179055565b6064356010820155608435601190910155005b5f80fd5b34610285576020366003190112610285576102a26126c6565b6102aa612f0c565b60018060a01b0316806bffffffffffffffffffffffff60a01b600154161760015560018060a01b035f54167f38d16b8cac22d99fc7c124b9cd0de2d3fa1faef420bfe791d8c362d765e227005f80a3005b34610285575f366003190112610285576020600454604051908152f35b34610285576020366003190112610285575f6102e060405161033981612797565b828152826020820152606060408201528260608201528260808201528260a08201528260c08201528260e08201528261010082015282610120820152826101408201528261016082015282610180820152826101a0820152826101c0820152826101e08201528261020082015282610220820152826102408201528261026082015282610280820152826102a0820152826102c082015201526103dd600435612727565b506016604051916103ed83612797565b80546001600160a01b0316835260018101546020840152610410600282016127d6565b60408401526003810154606084015260048101546080840152600581015460a0840152600681015460c0840152600781015460e084015260088101546101008401526009810154610120840152600a810154610140840152600b810154610160840152600c810154610180840152600d8101546101a0840152600e8101546101c0840152600f8101546101e08401526010810154610200840152601181015461022084015260ff6012820154818116151561024086015260081c161515610260840152601381015461028084015260148101546102a084015260158101546102c084015201546102e082015260405180916020825260018060a01b038151166020830152602081015160408301526102e061053c60408301516103006060860152610320850190612876565b9160608101516080850152608081015160a085015260a081015160c085015260c081015160e085015260e08101516101008501526101008101516101208501526101208101516101408501526101408101516101608501526101608101516101808501526101808101516101a08501526101a08101516101c08501526101c08101516101e08501526101e0810151610200850152610200810151610220850152610220810151610240850152610240810151151561026085015261026081015115156102808501526102808101516102a08501526102a08101516102c08501526102c08101518285015201516103008301520390f35b34610285575f366003190112610285576001546040516001600160a01b039091168152602090f35b3461028557610180366003190112610285576106746126c6565b6044359067ffffffffffffffff821161028557366023830112156102855767ffffffffffffffff82600401351161028557366024836004013584010111610285573661018411610285576106c6612f0c565b608435606435111580610bc3575b15610b8757610bb860a43511610b4257600454906040516106f481612797565b60018060a01b038216815260243560208201526040516107226020601f19601f8860040135011601826127b4565b60048501358082526024860160208301375f602086600401358301015260408201526101043560608201526101243560808201526101443560a08201526101643560c08201525f60e08201525f6101008201525f610120820152670de0b6b3a7640000610140820152670de0b6b3a7640000610160820152426101808201526064356101a08201526084356101c082015260a4356101e082015260c43561020082015260e435610220820152600161024082015260016102608201525f6102808201525f6102a08201525f6102c08201525f6102e0820152600160401b831015610b1b576001830160045561081683612727565b919091610b2f57805182546001600160a01b0319166001600160a01b039190911617825560208101516001830155604081015180519067ffffffffffffffff8211610b1b576108686002850154612743565b601f8111610ad7575b509160209693918695938890601f8311600114610a38577f280b6eac6165ed6c00c26bc7b32a9be15be18e0cc4e7299be0f39bad19da6a5296959383606096946016946102e0945f92610a2d575b50508160011b915f199060031b1c19161760028501555b8581015160038501556080810151600485015560a0810151600585015560c0810151600685015560e0810151600785015561010081015160088501556101208101516009850155610140810151600a850155610160810151600b850155610180810151600c8501556101a0810151600d8501556101c0810151600e8501556101e0810151600f850155610200810151601085015561022081015160118501556109b5601285016109996102408401511515829060ff801983541691151516179055565b610260830151815461ff00191690151560081b61ff0016179055565b61028081015160138501556102a081015160148501556102c081015160158501550151910155604080516001600160a01b03909216825287820181905260048401359082018190529092839160248201848401375f83826004013584010152601f8019916004013501168101030190a2604051908152f35b015190508d806108bf565b60028594939298979695015f52875f20905f5b601f1984168110610abd5750926001836102e0937f280b6eac6165ed6c00c26bc7b32a9be15be18e0cc4e7299be0f39bad19da6a529a9b6060999897601697601f19811610610aa5575b505050811b0160028501556108d6565b01515f1960f88460031b161c191690558d8080610a95565b818a01518355988b01988a98506001909201918b01610a4b565b600285015f5260205f20601f840160051c810160208510610b14575b601f830160051c82018110610b09575050610871565b5f8155600101610af3565b5080610af3565b634e487b7160e01b5f52604160045260245ffd5b634e487b7160e01b5f525f60045260245ffd5b60405162461bcd60e51b815260206004820152601960248201527f4c656e64696e673a207265736572766520746f6f2068696768000000000000006044820152606490fd5b60405162461bcd60e51b81526020600482015260146024820152734c656e64696e673a2062616420666163746f727360601b6044820152606490fd5b50670de0b6b3a7640000608435106106d4565b3461028557606036600319011261028557610c15600435610bf5612f0c565b610bfe81612970565b610c0781612727565b506013602435910155612727565b5060146044359101555f80f35b3461028557610c303661269a565b90610c39612938565b610c41612c56565b610c4a81612727565b5060ff60128201541615610df957821590610c6582156128b7565b610c6e83612970565b610c783384612f95565b610c823384612cc2565b670de0b6b3a7640000840291848304670de0b6b3a7640000141715610de557610cb0600a820154809361291a565b916007820190610cc18483546128aa565b610cd06010850154928361291a565b90670de0b6b3a7640000820291808304670de0b6b3a76400001490151715610de5571190811591610ddc575b5015610d9757610d53918591855f52600560205260405f2060018060a01b0333165f5260205260405f20610d318682546128aa565b9055610d3e8582546128aa565b905554309033906001600160a01b0316613073565b60405192835260208301527f964172aae28754717b202bccf315e49c76adab23f5dada79d8507e25a188082060403393a360015f8051602061314883398151915255005b60405162461bcd60e51b815260206004820152601b60248201527f4c656e64696e673a20737570706c7920636170207265616368656400000000006044820152606490fd5b90501586610cfc565b634e487b7160e01b5f52601160045260245ffd5b60405162461bcd60e51b815260206004820152601860248201527f4c656e64696e673a20737570706c792064697361626c656400000000000000006044820152606490fd5b3461028557610ec5610ef9610e523661269a565b610e5d929192612938565b610e65612c56565b610e6e83612727565b50610e7884612970565b610e823385612c74565b835f52600560205260405f2060018060a01b0333165f5260205260405f206002600b8301610eb1815484612f64565b9485811115610f41575084978880966128fa565b60018401555491015560088101805483808210610f3857610d3e916128fa565b5554309033906001600160a01b0316613073565b6040519182527fd7e0ec76b1d4528064c83f86d869783dfd06db26b2b5624bde17d4b99f80dd9760203393a360015f8051602061314883398151915255005b50505f90610ee5565b978880966128fa565b34610285575f366003190112610285576020600854604051908152f35b34610285575f366003190112610285576002546040516001600160a01b039091168152602090f35b34610285575f366003190112610285576020604051610bb88152f35b3461028557602036600319011261028557610fc7600435612727565b5080546040516370a0823160e01b815230600482015290602090829060249082906001600160a01b03165afa9081156110b1575f91611077575b50670de0b6b3a7640000611033611024600f936008860154600987015491612f1f565b61102e81866130dc565b612907565b0491015461271003906127108211610de5576127109161105291612907565b046301e133808102908082046301e133801490151715610de557602090604051908152f35b90506020813d6020116110a9575b81611092602093836127b4565b810103126102855751670de0b6b3a7640000611001565b3d9150611085565b6040513d5f823e3d90fd5b34610285576020366003190112610285576110d56126c6565b6110dd612f0c565b6001600160a01b03168015611108576bffffffffffffffffffffffff60a01b60025416176002555f80f35b60405162461bcd60e51b815260206004820152601360248201527257696b693a207a65726f2074696d656c6f636b60681b6044820152606490fd5b6126dc565b34610285576020366003190112610285576004356004548110156102855761116f90612727565b506101e081905280546001820154610140526001600160a01b031690611197906002016127d6565b6101605260036101e05101546101205260046101e05101546101a05260056101e05101549060066101e051015460076101e051015460086101e051015460096101e0510154600a6101e0510154600b6101e051015490600c6101e051015492600d6101e051015494600e6101e051015496600f6101e05101549860106101e05101549a60116101e051015460805260126101e051015460a05260136101e051015460e05260146101e05101546101c05260156101e05101546101805260166101e05101546101005260405160c05260c0515261014051602060c0510152610300604060c051015261129161030060c0510161016051612876565b9b61012051606060c05101526101a051608060c051015260a060c051015260c08051015260e060c051015261010060c051015261012060c051015261014060c051015261016060c051015261018060c05101526101a060c05101526101c060c05101526101e060c051015261020060c051015260805161022060c051015260ff60a05116151561024060c051015260ff60a05160081c16151561026060c051015260e05161028060c05101526101c0516102a060c0510152610180516102c060c0510152610100516102e060c051015260c051900360c051f35b34610285576040366003190112610285576113846126b0565b5f60806040516113938161277b565b82815282602082015282604082015282606082015201526004355f52600560205260405f209060018060a01b03165f5260205260a060405f206040516113d88161277b565b81549182825260018101546020830190815260028201549060408401918252608060046003850154946060870195865201549401938452604051948552516020850152516040840152516060830152516080820152f35b3461028557602036600319011261028557602461144d600435612727565b5080546040516370a0823160e01b81523060048201529260209184919082906001600160a01b03165afa9182156110b1575f926114c7575b5061149d6114a3926008830154600984015491612f1f565b906130dc565b6301e133808102908082046301e133801490151715610de557602090604051908152f35b91506020823d6020116114f5575b816114e2602093836127b4565b810103126102855790519061149d611485565b3d91506114d5565b34610285576040366003190112610285576020670de0b6b3a76400006115596004356115276126b0565b61153082612727565b50915f526005855260405f209060018060a01b03165f528452600a60405f205491015490612907565b04604051908152f35b34610285575f366003190112610285575f546040516001600160a01b039091168152602090f35b34610285576080366003190112610285576115a26126c6565b6044356024356064356115b3612938565b6115bb612c56565b6001600160a01b038416933385146118b4576115f1670de0b6b3a7640000916115e385612970565b6115ec86612970565b612d4e565b101561186f57815f52600560205260405f20845f5260205260405f209061161783612727565b509161162285612727565b5092600b810193611634855484612f64565b9461138886028681046113881487151715610de5576127109004851161182a57670de0b6b3a764000061167361166d6001860154613001565b87612907565b046129048102908082046129041490151715610de557612710900493670de0b6b3a7640000850294808604670de0b6b3a76400001490151715610de5576116e16116c06001850154613001565b95670de0b6b3a76400006116da600a870198895490612907565b049061291a565b96895f52600560205260405f208b5f5260205260405f2092888454106117e65761179496611783948994600261176c9461172488670de0b6b3a7640000986128fa565b600184015554910155600888018054868082106117dd57611744916128fa565b905b556117528b82546128fa565b9055600786016117638b82546128fa565b90555489612907565b9454940493309033906001600160a01b0316613073565b5433906001600160a01b0316612e8b565b604051948552602085015260408401527f425e65cb5157dd5f11177141131c834a21da2d1e6d41cba8d379c2a17ec6ed7560603394a460015f8051602061314883398151915255005b50505f90611746565b606460405162461bcd60e51b815260206004820152602060248201527f4c656e64696e673a20696e73756666696369656e7420636f6c6c61746572616c6044820152fd5b60405162461bcd60e51b815260206004820152601d60248201527f4c656e64696e673a206578636565647320636c6f736520666163746f720000006044820152606490fd5b60405162461bcd60e51b815260206004820152601960248201527f4c656e64696e673a20626f72726f776572206865616c746879000000000000006044820152606490fd5b60405162461bcd60e51b815260206004820152601960248201527f4c656e64696e673a2073656c662d6c69717569646174696f6e000000000000006044820152606490fd5b34610285575f366003190112610285576040517f00000000000000000000000000000000000000000000000000000000000000006001600160a01b03168152602090f35b34610285575f36600319011261028557611955612f0c565b61195d612c56565b6001805460ff60a01b1916600160a01b1790556040513381527f62e78cea01bee320cd4e420270b5ea74000d11b0c9f74754ebdbfc544b05a25890602090a1005b34610285575f366003190112610285576003546040516001600160a01b039091168152602090f35b34610285575f36600319011261028557600154336001600160a01b0390911603611a3857600180546001600160a01b03199081169091555f805433928116831782556001600160a01b0316907f8be0079c531659141344cd1fd0a4f28419497f9722a3daafe3b4186f6b6457e09080a3005b63118cdaa760e01b5f523360045260245ffd5b34610285575f36600319011261028557611a63612f0c565b600180546001600160a01b03199081169091555f80549182168155906001600160a01b03167f8be0079c531659141344cd1fd0a4f28419497f9722a3daafe3b4186f6b6457e08280a3005b34610285576020366003190112610285576020611acc6115ec6126c6565b604051908152f35b3461028557604036600319011261028557611aed6126c6565b6001600160a01b03165f9081526006602052604090208054602435919082101561028557602091611b1d916126fe565b90549060031b1c604051908152f35b34610285576040366003190112610285576001600160a01b03611b4d6126c6565b165f52600760205260405f206024355f52602052602060ff60405f2054166040519015158152f35b34610285575f36600319011261028557602060ff60015460a01c166040519015158152f35b34610285575f3660031901126102855760206040516113888152f35b3461028557611bc43661269a565b90611bcd612938565b611bd5612c56565b611bde81612727565b5091611be982612970565b611bf33383612f95565b5f828152600560209081526040808320338452909152902080549390828510611dc357670de0b6b3a7640000611c2d600a84015485612907565b04946024602060018060a01b03855416604051928380926370a0823160e01b82523060048301525afa80156110b15787915f91611d8e575b5010611d495783611c75916128fa565b905560078101611c868382546128fa565b9055670de0b6b3a7640000611c9a33612d4e565b10611cfa5754611cb690849033906001600160a01b0316612e8b565b60405192835260208301527f1c84cc0f96161bdafea718a9094dd21c21d1fb2f9ca2ebb9bd4e39918efbaace60403393a360015f8051602061314883398151915255005b60405162461bcd60e51b815260206004820152602160248201527f4c656e64696e673a20756e6865616c74687920616674657220776974686472616044820152607760f81b6064820152608490fd5b60405162461bcd60e51b815260206004820152601f60248201527f4c656e64696e673a20696e73756666696369656e74206c6971756964697479006044820152606490fd5b9150506020813d602011611dbb575b81611daa602093836127b4565b810103126102855786905188611c65565b3d9150611d9d565b60405162461bcd60e51b815260206004820152601d60248201527f4c656e64696e673a20696e73756666696369656e742062616c616e63650000006044820152606490fd5b34610285575f366003190112610285576040517f00000000000000000000000000000000000000000000000000000000000000006001600160a01b03168152602090f35b34610285575f36600319011261028557611e64612f0c565b60015460ff8160a01c1615611eab5760ff60a01b19166001556040513381527f5db9ee0a495bf2e6ff9c91a7834c1ba4fdd244a5e8aa4e537bd38aeae4b073aa90602090a1005b638dfc202b60e01b5f5260045ffd5b34610285575f3660031901126102855760206040516101f48152f35b34610285576040366003190112610285576020611acc600435611ef76126b0565b815f526005845260405f209060018060a01b03165f528352600b611f1e60405f2092612727565b50015490612f64565b34610285575f3660031901126102855760206040516127108152f35b3461028557602036600319011261028557611f5f600435612727565b5080546040516370a0823160e01b815230600482015290602090829060249082906001600160a01b03165afa9081156110b1575f91611fb0575b6020611acc83856009600882015491015491612f1f565b90506020813d602011611fdb575b81611fcb602093836127b4565b8101031261028557516020611f99565b3d9150611fbe565b3461028557606036600319011261028557600435611fff6126b0565b6044359061200b612f0c565b612013612938565b61201c83612970565b61202583612727565b509060098201928354928382116120a357818361207b927f58d87ac32e97a64b7c08d34a0526f455471fca94053e8850f45c7eceefbba8539761206a846040996128fa565b9055546001600160a01b0316612e8b565b82516001600160a01b0390921682526020820152a260015f8051602061314883398151915255005b60405162461bcd60e51b815260206004820152601960248201527f4c656e64696e673a2065786365656473207265736572766573000000000000006044820152606490fd5b34610285576040366003190112610285576121016126b0565b6004355f52600560205260405f209060018060a01b03165f5260205260a060405f20805490600181015490600281015460046003830154920154926040519485526020850152604084015260608301526080820152f35b34610285576121663661269a565b9061216f612938565b612177612c56565b61218081612727565b5060ff601282015460081c161561240557821561219d81156128b7565b60088201906121ad8583546128aa565b6011840154809111908115916123fc575b50156123c1576121cd84612970565b6121d73385612c74565b6121e13385612cc2565b835f52600560205260405f2060018060a01b0333165f5260205260405f2090600b84018054670de0b6b3a7640000880292888404670de0b6b3a7640000141715610de5576002926122389180156123b1579061291a565b612247600185019182546128aa565b9055549101556122588482546128aa565b9055670de0b6b3a764000061226c33612d4e565b1061236c57546040516370a0823160e01b81523060048201526001600160a01b0390911690602081602481855afa80156110b15784915f91612337575b50106122fa57826122bb913390612e8b565b6040519182527f68045833607620b046673ad9d71b3f95e5626241b0d4d66477a2c600ad85b71660203393a360015f8051602061314883398151915255005b60405162461bcd60e51b81526020600482015260156024820152744c656e64696e673a206e6f206c697175696469747960581b6044820152606490fd5b9150506020813d602011612364575b81612353602093836127b4565b8101031261028557839051856122a9565b3d9150612346565b60405162461bcd60e51b815260206004820152601e60248201527f4c656e64696e673a206865616c746820666163746f7220746f6f206c6f7700006044820152606490fd5b50670de0b6b3a76400009061291a565b60405162461bcd60e51b815260206004820152601360248201527204c656e64696e673a20626f72726f772063617606c1b6044820152606490fd5b905015866121be565b60405162461bcd60e51b815260206004820152601860248201527f4c656e64696e673a20626f72726f772064697361626c656400000000000000006044820152606490fd5b346102855760203660031901126102855760043567ffffffffffffffff811161028557366023820112156102855780600401359067ffffffffffffffff8211610285576024810190602436918460051b010111610285576124a9612938565b5f91829133905b8284106125a85784806124d1575b60015f8051602061314883398151915255005b6040516370a0823160e01b81523060048201527f00000000000000000000000000000000000000000000000000000000000000006020826024816001600160a01b0385165afa80156110b1575f90612574575b61253a92508084111561256c57905b3390612e8b565b6040519081527faa9e14909b54f395e0bd55e5be37825611bc7e6e1baf10e65bf4246e6489240e60203392a2806124be565b508290612533565b506020823d6020116125a0575b8161258e602093836127b4565b810103126102855761253a9151612524565b3d9150612581565b909192936126886126336001926125c96125c389898861289a565b35612970565b6125d488888761289a565b35906125df82612727565b50915f52600560205260405f20875f526020526003670de0b6b3a764000061261260405f20946015865491015490612907565b0492019182548082115f146126925761262b90826128fa565b925b556128aa565b61263e87878661289a565b359061264982612727565b50915f52600560205260405f20865f526020526004670de0b6b3a764000061261260405f2094601661267f600b83015488612f64565b91015490612907565b94019291906124b0565b505f9261262d565b6040906003190112610285576004359060243590565b602435906001600160a01b038216820361028557565b600435906001600160a01b038216820361028557565b34610285575f366003190112610285576020604051670de0b6b3a76400008152f35b8054821015612713575f5260205f2001905f90565b634e487b7160e01b5f52603260045260245ffd5b6004548110156127135760045f52601760205f20910201905f90565b90600182811c92168015612771575b602083101461275d57565b634e487b7160e01b5f52602260045260245ffd5b91607f1691612752565b60a0810190811067ffffffffffffffff821117610b1b57604052565b610300810190811067ffffffffffffffff821117610b1b57604052565b90601f8019910116810190811067ffffffffffffffff821117610b1b57604052565b9060405191825f8254926127e984612743565b80845293600181169081156128545750600114612810575b5061280e925003836127b4565b565b90505f9291925260205f20905f915b81831061283857505090602061280e928201015f612801565b602091935080600191548385890101520191019091849261281f565b90506020925061280e94915060ff191682840152151560051b8201015f612801565b805180835260209291819084018484015e5f828201840152601f01601f1916010190565b91908110156127135760051b0190565b91908201809211610de557565b156128be57565b60405162461bcd60e51b815260206004820152601460248201527313195b991a5b99ce881e995c9bc8185b5bdd5b9d60621b6044820152606490fd5b91908203918211610de557565b81810292918115918404141715610de557565b8115612924570490565b634e487b7160e01b5f52601260045260245ffd5b60025f8051602061314883398151915254146129615760025f8051602061314883398151915255565b633ee5aeb560e01b5f5260045ffd5b61297981612727565b50600c81019061298a8254426128fa565b918215612c505742905560088101908154908115612c495780546040516370a0823160e01b81523060048201529390602090859060249082906001600160a01b03165afa9384156110b1575f94612c15575b5060098201805494612a396129fb6129f5888885612f1f565b866130dc565b95670de0b6b3a7640000612a138a61102e8a85612907565b0497612a3189612710612a2a600f8b015483612907565b04936128aa565b8096556128aa565b809255600b840194612a4d88875492612907565b670de0b6b3a7640000019081670de0b6b3a764000011610de557670de0b6b3a764000091612a7a91612907565b04809555826007850154928315159283612bcb575b505050866013850154918215159081612bc3575b50612b76575b50505060148201549485151580612b6d575b612af7575b5050507fe9d95e658b0c714da9de2e12fbed253a24a632058a074dc7c90b8b6618675c7c92509060409182519182526020820152a2565b612b049194939295612907565b93670de0b6b3a7640000850294808604670de0b6b3a76400001490151715610de557612b626016612b586040967fe9d95e658b0c714da9de2e12fbed253a24a632058a074dc7c90b8b6618675c7c9861291a565b92019182546128aa565b905590915f80612ac0565b50811515612abb565b612b7f91612907565b90670de0b6b3a7640000820291808304670de0b6b3a76400001490151715610de557612baa9161291a565b612bb9601584019182546128aa565b90555f8086612aa9565b90505f612aa3565b612bdd92612bd8916128aa565b6128fa565b670de0b6b3a7640000810290808204670de0b6b3a76400001490151715610de55782612c089161291a565b600a850155825f80612a8f565b9093506020813d602011612c41575b81612c31602093836127b4565b810103126102855751925f6129dc565b3d9150612c24565b5050505050565b50505050565b60ff60015460a01c16612c6557565b63d93c066560e01b5f5260045ffd5b90612c7e82612727565b50915f52600560205260405f209060018060a01b03165f526020526004670de0b6b3a7640000612cbc60405f2093601661267f600b83015487612f64565b04910155565b9060018060a01b0316805f52600760205260405f20825f5260205260ff60405f20541615612cee575050565b805f52600760205260405f20825f5260205260405f20600160ff198254161790555f52600660205260405f208054600160401b811015610b1b57612d37916001820181556126fe565b819291549060031b91821b915f19901b1916179055565b6001600160a01b0381165f90815260066020526040812080549192839291835b838110612db357505050508015612dac57670de0b6b3a7640000820291808304670de0b6b3a76400001490151715610de557612da99161291a565b90565b50505f1990565b612dbd81836126fe565b90549060031b1c612dcd81612727565b50905f52600560205260405f2060018060a01b0385165f5260205260405f20612df96001830154613001565b91815480612e4b575b506001820154612e18575b505050600101612d6e565b612e3b612e429361102e6001969a94600b670de0b6b3a764000095015490612f64565b04906128aa565b94905f80612e0d565b98670de0b6b3a7640000612e3b81612e788782879f612e7290600a612e849a015490612907565b04612907565b04600e8d015490612907565b975f612e02565b916040519163a9059cbb60e01b5f5260018060a01b031660045260245260205f60448180865af19060015f5114821615612eeb575b60405215612ecb5750565b635274afe760e01b5f9081526001600160a01b0391909116600452602490fd5b906001811516612f0357823b15153d15161690612ec0565b503d5f823e3d90fd5b5f546001600160a01b03163303611a3857565b91612bd882612f2e93946128aa565b8015612f5e57670de0b6b3a7640000820291808304670de0b6b3a76400001490151715610de557612da99161291a565b50505f90565b6001810154918215612f8e57612f7f600291612da994612907565b91015480156123b1579061291a565b5050505f90565b90612f9f82612727565b50915f52600560205260405f209060018060a01b03165f52602052670de0b6b3a7640000612ff460405f2092601584549101600384612fdf835485612907565b0495019485548111612ff9575b505490612907565b049055565b85555f612fec565b600354604080516301c9e15560e41b8152600481019390935290829060249082906001600160a01b03165afa5f918161303f575b50612da957505f90565b9091506040813d60401161306b575b8161305b604093836127b4565b810103126102855751905f613035565b3d915061304e565b6040516323b872dd60e01b5f9081526001600160a01b039384166004529290931660245260449390935260209060648180865af19060015f51148216156130c4575b6040525f60605215612ecb5750565b906001811516612f0357823b15153d151616906130b5565b60068101548083116131095750670de0b6b3a7640000612e3b612da9936004600385015494015490612907565b612e3b81600561313e613128670de0b6b3a764000095612da9986128fa565b9285612e3b60038901549260048a015490612907565b9401549061290756fe9b779b17422d0df92223018b32b4d1fa46e071723d6817e2486d003becc55f00a26469706673582212208aa5760f5ee4b9e825decaf6d3f2bccc003f9fa5b724e3250b58a09d9d538d2764736f6c634300081a0033",
  "linkReferences": {},
  "deployedLinkReferences": {}
}