{
  "_format": "hh-sol-artifact-1",
  "contractName": "WikiGasRebate",
  "sourceName": "src/WikiGasRebate.sol",
  "abi": [
    {
      "inputs": [
        {
          "internalType": "address",
          "name": "_wik",
          "type": "address"
        },
        {
          "internalType": "address",
          "name": "_staker",
          "type": "address"
        },
        {
          "internalType": "address",
          "name": "_owner",
          "type": "address"
        }
      ],
      "stateMutability": "nonpayable",
      "type": "constructor"
    },
    {
      "inputs": [
        {
          "internalType": "address",
          "name": "owner",
          "type": "address"
        }
      ],
      "name": "OwnableInvalidOwner",
      "type": "error"
    },
    {
      "inputs": [
        {
          "internalType": "address",
          "name": "account",
          "type": "address"
        }
      ],
      "name": "OwnableUnauthorizedAccount",
      "type": "error"
    },
    {
      "inputs": [],
      "name": "ReentrancyGuardReentrantCall",
      "type": "error"
    },
    {
      "inputs": [
        {
          "internalType": "address",
          "name": "token",
          "type": "address"
        }
      ],
      "name": "SafeERC20FailedOperation",
      "type": "error"
    },
    {
      "anonymous": false,
      "inputs": [
        {
          "indexed": true,
          "internalType": "uint256",
          "name": "id",
          "type": "uint256"
        },
        {
          "indexed": false,
          "internalType": "address",
          "name": "sponsor",
          "type": "address"
        },
        {
          "indexed": false,
          "internalType": "string",
          "name": "name",
          "type": "string"
        },
        {
          "indexed": false,
          "internalType": "uint256",
          "name": "wik",
          "type": "uint256"
        }
      ],
      "name": "CampaignCreated",
      "type": "event"
    },
    {
      "anonymous": false,
      "inputs": [
        {
          "indexed": true,
          "internalType": "uint256",
          "name": "campaignId",
          "type": "uint256"
        },
        {
          "indexed": false,
          "internalType": "address",
          "name": "user",
          "type": "address"
        },
        {
          "indexed": false,
          "internalType": "uint256",
          "name": "ethAmount",
          "type": "uint256"
        }
      ],
      "name": "GasRebated",
      "type": "event"
    },
    {
      "anonymous": false,
      "inputs": [
        {
          "indexed": true,
          "internalType": "address",
          "name": "previousOwner",
          "type": "address"
        },
        {
          "indexed": true,
          "internalType": "address",
          "name": "newOwner",
          "type": "address"
        }
      ],
      "name": "OwnershipTransferStarted",
      "type": "event"
    },
    {
      "anonymous": false,
      "inputs": [
        {
          "indexed": true,
          "internalType": "address",
          "name": "previousOwner",
          "type": "address"
        },
        {
          "indexed": true,
          "internalType": "address",
          "name": "newOwner",
          "type": "address"
        }
      ],
      "name": "OwnershipTransferred",
      "type": "event"
    },
    {
      "anonymous": false,
      "inputs": [
        {
          "indexed": false,
          "internalType": "uint256",
          "name": "burned",
          "type": "uint256"
        },
        {
          "indexed": false,
          "internalType": "uint256",
          "name": "toStakers",
          "type": "uint256"
        },
        {
          "indexed": false,
          "internalType": "uint256",
          "name": "toRebates",
          "type": "uint256"
        }
      ],
      "name": "WIKProcessed",
      "type": "event"
    },
    {
      "inputs": [],
      "name": "BPS",
      "outputs": [
        {
          "internalType": "uint256",
          "name": "",
          "type": "uint256"
        }
      ],
      "stateMutability": "view",
      "type": "function"
    },
    {
      "inputs": [],
      "name": "BURN_ADDR",
      "outputs": [
        {
          "internalType": "address",
          "name": "",
          "type": "address"
        }
      ],
      "stateMutability": "view",
      "type": "function"
    },
    {
      "inputs": [],
      "name": "BURN_BPS",
      "outputs": [
        {
          "internalType": "uint256",
          "name": "",
          "type": "uint256"
        }
      ],
      "stateMutability": "view",
      "type": "function"
    },
    {
      "inputs": [],
      "name": "REBATE_BPS",
      "outputs": [
        {
          "internalType": "uint256",
          "name": "",
          "type": "uint256"
        }
      ],
      "stateMutability": "view",
      "type": "function"
    },
    {
      "inputs": [],
      "name": "STAKER_BPS",
      "outputs": [
        {
          "internalType": "uint256",
          "name": "",
          "type": "uint256"
        }
      ],
      "stateMutability": "view",
      "type": "function"
    },
    {
      "inputs": [],
      "name": "WIK",
      "outputs": [
        {
          "internalType": "contract IERC20",
          "name": "",
          "type": "address"
        }
      ],
      "stateMutability": "view",
      "type": "function"
    },
    {
      "inputs": [],
      "name": "acceptOwnership",
      "outputs": [],
      "stateMutability": "nonpayable",
      "type": "function"
    },
    {
      "inputs": [],
      "name": "campaignCount",
      "outputs": [
        {
          "internalType": "uint256",
          "name": "",
          "type": "uint256"
        }
      ],
      "stateMutability": "view",
      "type": "function"
    },
    {
      "inputs": [
        {
          "internalType": "uint256",
          "name": "",
          "type": "uint256"
        }
      ],
      "name": "campaigns",
      "outputs": [
        {
          "internalType": "address",
          "name": "sponsor",
          "type": "address"
        },
        {
          "internalType": "string",
          "name": "name",
          "type": "string"
        },
        {
          "internalType": "bytes32",
          "name": "refCode",
          "type": "bytes32"
        },
        {
          "internalType": "uint256",
          "name": "wikDeposited",
          "type": "uint256"
        },
        {
          "internalType": "uint256",
          "name": "wikRemaining",
          "type": "uint256"
        },
        {
          "internalType": "uint256",
          "name": "rebatePerTx",
          "type": "uint256"
        },
        {
          "internalType": "uint256",
          "name": "maxTxPerUser",
          "type": "uint256"
        },
        {
          "internalType": "uint256",
          "name": "expiresAt",
          "type": "uint256"
        },
        {
          "internalType": "uint256",
          "name": "txCount",
          "type": "uint256"
        },
        {
          "internalType": "bool",
          "name": "active",
          "type": "bool"
        }
      ],
      "stateMutability": "view",
      "type": "function"
    },
    {
      "inputs": [],
      "name": "claimRebate",
      "outputs": [],
      "stateMutability": "nonpayable",
      "type": "function"
    },
    {
      "inputs": [
        {
          "internalType": "string",
          "name": "name",
          "type": "string"
        },
        {
          "internalType": "bytes32",
          "name": "refCode",
          "type": "bytes32"
        },
        {
          "internalType": "uint256",
          "name": "wikAmount",
          "type": "uint256"
        },
        {
          "internalType": "uint256",
          "name": "rebatePerTx",
          "type": "uint256"
        },
        {
          "internalType": "uint256",
          "name": "maxTxPerUser",
          "type": "uint256"
        },
        {
          "internalType": "uint256",
          "name": "durationDays",
          "type": "uint256"
        }
      ],
      "name": "createCampaign",
      "outputs": [
        {
          "internalType": "uint256",
          "name": "id",
          "type": "uint256"
        }
      ],
      "stateMutability": "nonpayable",
      "type": "function"
    },
    {
      "inputs": [],
      "name": "fundETH",
      "outputs": [],
      "stateMutability": "payable",
      "type": "function"
    },
    {
      "inputs": [
        {
          "internalType": "uint256",
          "name": "id",
          "type": "uint256"
        }
      ],
      "name": "getCampaign",
      "outputs": [
        {
          "components": [
            {
              "internalType": "address",
              "name": "sponsor",
              "type": "address"
            },
            {
              "internalType": "string",
              "name": "name",
              "type": "string"
            },
            {
              "internalType": "bytes32",
              "name": "refCode",
              "type": "bytes32"
            },
            {
              "internalType": "uint256",
              "name": "wikDeposited",
              "type": "uint256"
            },
            {
              "internalType": "uint256",
              "name": "wikRemaining",
              "type": "uint256"
            },
            {
              "internalType": "uint256",
              "name": "rebatePerTx",
              "type": "uint256"
            },
            {
              "internalType": "uint256",
              "name": "maxTxPerUser",
              "type": "uint256"
            },
            {
              "internalType": "uint256",
              "name": "expiresAt",
              "type": "uint256"
            },
            {
              "internalType": "uint256",
              "name": "txCount",
              "type": "uint256"
            },
            {
              "internalType": "bool",
              "name": "active",
              "type": "bool"
            }
          ],
          "internalType": "struct WikiGasRebate.Campaign",
          "name": "",
          "type": "tuple"
        }
      ],
      "stateMutability": "view",
      "type": "function"
    },
    {
      "inputs": [],
      "name": "owner",
      "outputs": [
        {
          "internalType": "address",
          "name": "",
          "type": "address"
        }
      ],
      "stateMutability": "view",
      "type": "function"
    },
    {
      "inputs": [],
      "name": "pendingOwner",
      "outputs": [
        {
          "internalType": "address",
          "name": "",
          "type": "address"
        }
      ],
      "stateMutability": "view",
      "type": "function"
    },
    {
      "inputs": [
        {
          "internalType": "uint256",
          "name": "campaignId",
          "type": "uint256"
        },
        {
          "internalType": "address",
          "name": "user",
          "type": "address"
        }
      ],
      "name": "processRebate",
      "outputs": [],
      "stateMutability": "nonpayable",
      "type": "function"
    },
    {
      "inputs": [
        {
          "internalType": "bytes32",
          "name": "",
          "type": "bytes32"
        }
      ],
      "name": "refCodeToCampaign",
      "outputs": [
        {
          "internalType": "uint256",
          "name": "",
          "type": "uint256"
        }
      ],
      "stateMutability": "view",
      "type": "function"
    },
    {
      "inputs": [],
      "name": "renounceOwnership",
      "outputs": [],
      "stateMutability": "nonpayable",
      "type": "function"
    },
    {
      "inputs": [],
      "name": "staker",
      "outputs": [
        {
          "internalType": "address",
          "name": "",
          "type": "address"
        }
      ],
      "stateMutability": "view",
      "type": "function"
    },
    {
      "inputs": [],
      "name": "totalGasRebated",
      "outputs": [
        {
          "internalType": "uint256",
          "name": "",
          "type": "uint256"
        }
      ],
      "stateMutability": "view",
      "type": "function"
    },
    {
      "inputs": [],
      "name": "totalWIKBurned",
      "outputs": [
        {
          "internalType": "uint256",
          "name": "",
          "type": "uint256"
        }
      ],
      "stateMutability": "view",
      "type": "function"
    },
    {
      "inputs": [],
      "name": "totalWIKReceived",
      "outputs": [
        {
          "internalType": "uint256",
          "name": "",
          "type": "uint256"
        }
      ],
      "stateMutability": "view",
      "type": "function"
    },
    {
      "inputs": [
        {
          "internalType": "address",
          "name": "newOwner",
          "type": "address"
        }
      ],
      "name": "transferOwnership",
      "outputs": [],
      "stateMutability": "nonpayable",
      "type": "function"
    },
    {
      "inputs": [
        {
          "internalType": "address",
          "name": "",
          "type": "address"
        }
      ],
      "name": "userRebates",
      "outputs": [
        {
          "internalType": "uint256",
          "name": "",
          "type": "uint256"
        }
      ],
      "stateMutability": "view",
      "type": "function"
    },
    {
      "inputs": [
        {
          "internalType": "uint256",
          "name": "",
          "type": "uint256"
        },
        {
          "internalType": "address",
          "name": "",
          "type": "address"
        }
      ],
      "name": "userTxCount",
      "outputs": [
        {
          "internalType": "uint256",
          "name": "",
          "type": "uint256"
        }
      ],
      "stateMutability": "view",
      "type": "function"
    },
    {
      "stateMutability": "payable",
      "type": "receive"
    }
  ],
  "bytecode": "0x60c0346101d457601f6113e338819003918201601f19168301916001600160401b038311848410176101d8578084926060946040528339810103126101d457610047816101ec565b90610054602082016101ec565b906001600160a01b039061006a906040016101ec565b169182156101c157600180546001600160a01b03199081169091555f80549182168517815560405194916001600160a01b0316907f8be0079c531659141344cd1fd0a4f28419497f9722a3daafe3b4186f6b6457e09080a360017f9b779b17422d0df92223018b32b4d1fa46e071723d6817e2486d003becc55f005561dead60a0526001600160a01b031691821561018d57506001600160a01b031690811561015357608052600680546001600160a01b0319169190911790556040516111e2908161020182396080518181816106950152610a09015260a0518181816104420152610ab50152f35b60405162461bcd60e51b81526020600482015260126024820152712bb4b5b49d103d32b937902fb9ba30b5b2b960711b6044820152606490fd5b62461bcd60e51b815260206004820152600f60248201526e57696b693a207a65726f205f77696b60881b6044820152606490fd5b631e4fbdf760e01b5f525f60045260245ffd5b5f80fd5b634e487b7160e01b5f52604160045260245ffd5b51906001600160a01b03821682036101d45756fe6080604052600436101561001a575b3615610018575f80fd5b005b5f3560e01c806306f51a7114610980578063141961bc146108c157806318040b4e146106e0578063249d39e9146106c457806340b0229e146106805780635598f8cc146105195780635ebaf1db146104f1578063715018a61461048e5780637274e30d14610471578063783028a91461042d57806379ba5097146103a85780638da5cb5b14610381578063a357bb5d1461037c578063a37a9fc01461037c578063a9e31ac91461036f578063b763554d14610337578063be753ede1461031a578063c0b8b40c146102fd578063c629c3fe146102e0578063cda3948f14610259578063dfa3e8ac1461023d578063e30c397814610215578063e9456f30146101d1578063e991a7b1146101a75763f2fde38b0361000e57346101a35760203660031901126101a35761014a61108f565b610152611179565b60018060a01b0316806bffffffffffffffffffffffff60a01b600154161760015560018060a01b035f54167f38d16b8cac22d99fc7c124b9cd0de2d3fa1faef420bfe791d8c362d765e227005f80a3005b5f80fd5b346101a35760203660031901126101a3576004355f526003602052602060405f2054604051908152f35b346101a35760403660031901126101a3576101ea611079565b6004355f52600460205260405f209060018060a01b03165f52602052602060405f2054604051908152f35b346101a3575f3660031901126101a3576001546040516001600160a01b039091168152602090f35b346101a3575f3660031901126101a3576020604051610fa08152f35b346101a3575f3660031901126101a357335f52600560205260405f205480156102a4575f8080809333825260056020528160408120553382f11561029957005b6040513d5f823e3d90fd5b60405162461bcd60e51b815260206004820152601460248201527347523a206e6f7468696e6720746f20636c61696d60601b6044820152606490fd5b346101a3575f3660031901126101a3576020600754604051908152f35b346101a3575f3660031901126101a3576020600954604051908152f35b346101a3575f3660031901126101a3576020600854604051908152f35b346101a35760203660031901126101a3576001600160a01b0361035861108f565b165f526005602052602060405f2054604051908152f35b5f3660031901126101a357005b6110a5565b346101a3575f3660031901126101a3575f546040516001600160a01b039091168152602090f35b346101a3575f3660031901126101a357600154336001600160a01b039091160361041a57600180546001600160a01b03199081169091555f805433928116831782556001600160a01b0316907f8be0079c531659141344cd1fd0a4f28419497f9722a3daafe3b4186f6b6457e09080a3005b63118cdaa760e01b5f523360045260245ffd5b346101a3575f3660031901126101a3576040517f00000000000000000000000000000000000000000000000000000000000000006001600160a01b03168152602090f35b346101a3575f3660031901126101a3576020600254604051908152f35b346101a3575f3660031901126101a3576104a6611179565b600180546001600160a01b03199081169091555f80549182168155906001600160a01b03167f8be0079c531659141344cd1fd0a4f28419497f9722a3daafe3b4186f6b6457e08280a3005b346101a3575f3660031901126101a3576006546040516001600160a01b039091168152602090f35b346101a35760203660031901126101a3575f61012060405161053a81610f76565b828152606060208201528260408201528260608201528260808201528260a08201528260c08201528260e082015282610100820152015261057c600435610f0e565b5060405161058981610f76565b81546001600160a01b031681526105a260018301610fb5565b91602082019283526002810154906040830191825260038101549060608401918252600481015460808501908152600582015460a0860190815260068301549060c0870191825260078401549260e0880193845260ff60096008870154966101008b0197885201541695610120890196151587526106466040519a8b9a60208c5260018060a01b0390511660208c01525161014060408c01526101608b0190611055565b975160608a01525160808901525160a08801525160c08701525160e086015251610100850152516101208401525115156101408301520390f35b346101a3575f3660031901126101a3576040517f00000000000000000000000000000000000000000000000000000000000000006001600160a01b03168152602090f35b346101a3575f3660031901126101a35760206040516127108152f35b346101a35760403660031901126101a3576004356106fc611079565b610704611179565b61070c6110e9565b61071582610f0e565b509060ff600983015416806108b3575b1561087f57825f52600460205260405f2060018060a01b0382165f5260205260405f205460068301541115610849574791600581019283541161081757600890845f52600460205260405f2060018060a01b0384165f5260205260405f2061078d81546110db565b90550161079a81546110db565b905560018060a01b0316905f80808084548682821561080e575bf115610299577fd69d71ee620a705eac2fb279dcc80d466fac64640269cba314a64b3d9a3a2aef91816107ec604093546009546110ce565b6009555482519182526020820152a260015f8051602061118d83398151915255005b506108fc6107b4565b60405162461bcd60e51b815260206004820152600a60248201526908ea47440dcde408aa8960b31b6044820152606490fd5b60405162461bcd60e51b815260206004820152600e60248201526d11d48e881d5cd95c881b1a5b5a5d60921b6044820152606490fd5b60405162461bcd60e51b815260206004820152600c60248201526b47523a20696e61637469766560a01b6044820152606490fd5b506007820154421115610725565b346101a35760203660031901126101a3576004356002548110156101a3576108e890610f0e565b5080546001600160a01b031661090060018301610fb5565b916002810154906003810154906004810154600582015460068301549060078401549260ff60096008870154960154169561094f6040519a8b9a8b5261014060208c01526101408b0190611055565b9760408a01526060890152608088015260a087015260c086015260e085015261010084015215156101208301520390f35b346101a35760c03660031901126101a35760043567ffffffffffffffff81116101a357366023820112156101a357806004013567ffffffffffffffff81116101a357602482019160248236920101116101a3576024359160a435916044356109e66110e9565b683635c9adc5dea000008110610ed657845f52600360205260405f2054610ea0577f00000000000000000000000000000000000000000000000000000000000000006040516323b872dd60e01b5f5233600452306024528260445260205f60648180865af19060015f5114821615610e7f575b6040525f60605215610e5f57610bb8820291801592818104610bb814841715610d5557612710900492610fa0820290828204610fa0141715610d5557612710900490610aae82610aa986846110c1565b6110c1565b92610ada857f000000000000000000000000000000000000000000000000000000000000000083611121565b60065483906001600160a01b031680610e4e575b505050610afd816007546110ce565b600755610b0c846008546110ce565b6008556002549662015180810290808204620151801490151715610d5557610b358891426110ce565b9560405196610b4388610f76565b338852601f19601f8301169760405191610b6060208b0184610f93565b838352838b60208501375f602085850101526020820192835260408201908d825260608301878152608084018a815260a0850190606435825260c0860192608435845260e087019485526101008701955f875261012088019860018a52680100000000000000008c1015610e2757610bdf60018d019c8d600255610f0e565b999099610e3b575189546001600160a01b0319166001600160a01b039190911617895551805160018a019167ffffffffffffffff8211610e2757610c238354610f3e565b601f8111610de2575b50602090601f8311600114610d745760099b9a9998979695949392915f9183610d69575b50508160011b915f199060031b1c19161790555b516002880155516003870155516004860155516005850155516006840155516007830155516008820155019051151560ff80198354169116179055818911610d555760807f378cc268aa630f1dc43676f6011a3ecf71a2a6a27f07a41cffb76af86691379f986060988b957f825fb10f7650ed27414d6f86acdf7d5946927d9b25001f045f1a2435deec02fe9560209e5f5260038f5260405f20555f848660405197889633885260206060908901528f8290890152838801378501015260408301528101030190a2604051928352868301526040820152a160015f8051602061118d83398151915255604051908152f35b634e487b7160e01b5f52601160045260245ffd5b015190505f80610c50565b90601f19831691845f52815f20925f5b818110610dca575091600193918560099f9e9d9c9b9a999897969410610db2575b505050811b019055610c64565b01515f1960f88460031b161c191690555f8080610da5565b92936020600181928786015181550195019301610d84565b835f5260205f20601f840160051c81019160208510610e1d575b601f0160051c01905b818110610e125750610c2c565b5f8155600101610e05565b9091508190610dfc565b634e487b7160e01b5f52604160045260245ffd5b634e487b7160e01b5f525f60045260245ffd5b610e5792611121565b888281610aee565b635274afe760e01b5f9081526001600160a01b0391909116600452602490fd5b906001811516610e9757823b15153d15161690610a59565b503d5f823e3d90fd5b60405162461bcd60e51b815260206004820152600e60248201526d23a91d1031b7b232903a30b5b2b760911b6044820152606490fd5b60405162461bcd60e51b815260206004820152601060248201526f47523a206d696e20313030302057494b60801b6044820152606490fd5b600254811015610f2a5760025f52600a60205f20910201905f90565b634e487b7160e01b5f52603260045260245ffd5b90600182811c92168015610f6c575b6020831014610f5857565b634e487b7160e01b5f52602260045260245ffd5b91607f1691610f4d565b610140810190811067ffffffffffffffff821117610e2757604052565b90601f8019910116810190811067ffffffffffffffff821117610e2757604052565b9060405191825f825492610fc884610f3e565b80845293600181169081156110335750600114610fef575b50610fed92500383610f93565b565b90505f9291925260205f20905f915b818310611017575050906020610fed928201015f610fe0565b6020919350806001915483858901015201910190918492610ffe565b905060209250610fed94915060ff191682840152151560051b8201015f610fe0565b805180835260209291819084018484015e5f828201840152601f01601f1916010190565b602435906001600160a01b03821682036101a357565b600435906001600160a01b03821682036101a357565b346101a3575f3660031901126101a3576020604051610bb88152f35b91908203918211610d5557565b91908201809211610d5557565b5f198114610d555760010190565b60025f8051602061118d83398151915254146111125760025f8051602061118d83398151915255565b633ee5aeb560e01b5f5260045ffd5b916040519163a9059cbb60e01b5f5260018060a01b031660045260245260205f60448180865af19060015f5114821615611161575b60405215610e5f5750565b906001811516610e9757823b15153d15161690611156565b5f546001600160a01b0316330361041a5756fe9b779b17422d0df92223018b32b4d1fa46e071723d6817e2486d003becc55f00a26469706673582212209d94238a06b76102a6f9e9fa8dbd8876414c853b647d03616ba678bc85a321be64736f6c634300081a0033",
  "linkReferences": {},
  "deployedLinkReferences": {}
}