{
  "_format": "hh-sol-artifact-1",
  "contractName": "WikiTVLGuard",
  "sourceName": "src/WikiTVLGuard.sol",
  "abi": [
    {
      "inputs": [
        {
          "internalType": "address",
          "name": "_owner",
          "type": "address"
        }
      ],
      "stateMutability": "nonpayable",
      "type": "constructor"
    },
    {
      "inputs": [
        {
          "internalType": "address",
          "name": "owner",
          "type": "address"
        }
      ],
      "name": "OwnableInvalidOwner",
      "type": "error"
    },
    {
      "inputs": [
        {
          "internalType": "address",
          "name": "account",
          "type": "address"
        }
      ],
      "name": "OwnableUnauthorizedAccount",
      "type": "error"
    },
    {
      "anonymous": false,
      "inputs": [
        {
          "indexed": true,
          "internalType": "address",
          "name": "vault",
          "type": "address"
        },
        {
          "indexed": true,
          "internalType": "address",
          "name": "user",
          "type": "address"
        },
        {
          "indexed": false,
          "internalType": "uint256",
          "name": "amount",
          "type": "uint256"
        },
        {
          "indexed": false,
          "internalType": "string",
          "name": "reason",
          "type": "string"
        }
      ],
      "name": "DepositBlocked",
      "type": "event"
    },
    {
      "anonymous": false,
      "inputs": [
        {
          "indexed": true,
          "internalType": "address",
          "name": "previousOwner",
          "type": "address"
        },
        {
          "indexed": true,
          "internalType": "address",
          "name": "newOwner",
          "type": "address"
        }
      ],
      "name": "OwnershipTransferStarted",
      "type": "event"
    },
    {
      "anonymous": false,
      "inputs": [
        {
          "indexed": true,
          "internalType": "address",
          "name": "previousOwner",
          "type": "address"
        },
        {
          "indexed": true,
          "internalType": "address",
          "name": "newOwner",
          "type": "address"
        }
      ],
      "name": "OwnershipTransferred",
      "type": "event"
    },
    {
      "anonymous": false,
      "inputs": [
        {
          "indexed": false,
          "internalType": "enum WikiTVLGuard.Stage",
          "name": "oldStage",
          "type": "uint8"
        },
        {
          "indexed": false,
          "internalType": "enum WikiTVLGuard.Stage",
          "name": "newStage",
          "type": "uint8"
        },
        {
          "indexed": false,
          "internalType": "uint256",
          "name": "newCap",
          "type": "uint256"
        }
      ],
      "name": "StageAdvanced",
      "type": "event"
    },
    {
      "anonymous": false,
      "inputs": [
        {
          "indexed": true,
          "internalType": "address",
          "name": "vault",
          "type": "address"
        },
        {
          "indexed": false,
          "internalType": "uint256",
          "name": "maxTVL",
          "type": "uint256"
        },
        {
          "indexed": false,
          "internalType": "uint256",
          "name": "maxPerUser",
          "type": "uint256"
        }
      ],
      "name": "VaultRegistered",
      "type": "event"
    },
    {
      "anonymous": false,
      "inputs": [
        {
          "indexed": true,
          "internalType": "address",
          "name": "vault",
          "type": "address"
        },
        {
          "indexed": false,
          "internalType": "uint256",
          "name": "oldTVL",
          "type": "uint256"
        },
        {
          "indexed": false,
          "internalType": "uint256",
          "name": "newTVL",
          "type": "uint256"
        }
      ],
      "name": "VaultTVLUpdated",
      "type": "event"
    },
    {
      "anonymous": false,
      "inputs": [
        {
          "indexed": true,
          "internalType": "address",
          "name": "user",
          "type": "address"
        },
        {
          "indexed": false,
          "internalType": "bool",
          "name": "allowed",
          "type": "bool"
        }
      ],
      "name": "WhitelistUpdated",
      "type": "event"
    },
    {
      "inputs": [],
      "name": "STAGE_BETA_CAP",
      "outputs": [
        {
          "internalType": "uint256",
          "name": "",
          "type": "uint256"
        }
      ],
      "stateMutability": "view",
      "type": "function"
    },
    {
      "inputs": [],
      "name": "STAGE_GROWTH_CAP",
      "outputs": [
        {
          "internalType": "uint256",
          "name": "",
          "type": "uint256"
        }
      ],
      "stateMutability": "view",
      "type": "function"
    },
    {
      "inputs": [],
      "name": "STAGE_LAUNCH_CAP",
      "outputs": [
        {
          "internalType": "uint256",
          "name": "",
          "type": "uint256"
        }
      ],
      "stateMutability": "view",
      "type": "function"
    },
    {
      "inputs": [],
      "name": "STAGE_PUBLIC_CAP",
      "outputs": [
        {
          "internalType": "uint256",
          "name": "",
          "type": "uint256"
        }
      ],
      "stateMutability": "view",
      "type": "function"
    },
    {
      "inputs": [],
      "name": "STAGE_UNLIMITED",
      "outputs": [
        {
          "internalType": "uint256",
          "name": "",
          "type": "uint256"
        }
      ],
      "stateMutability": "view",
      "type": "function"
    },
    {
      "inputs": [],
      "name": "acceptOwnership",
      "outputs": [],
      "stateMutability": "nonpayable",
      "type": "function"
    },
    {
      "inputs": [],
      "name": "advanceStage",
      "outputs": [],
      "stateMutability": "nonpayable",
      "type": "function"
    },
    {
      "inputs": [
        {
          "internalType": "address[]",
          "name": "users",
          "type": "address[]"
        },
        {
          "internalType": "bool",
          "name": "allowed",
          "type": "bool"
        }
      ],
      "name": "batchWhitelist",
      "outputs": [],
      "stateMutability": "nonpayable",
      "type": "function"
    },
    {
      "inputs": [
        {
          "internalType": "address",
          "name": "user",
          "type": "address"
        },
        {
          "internalType": "uint256",
          "name": "amount",
          "type": "uint256"
        },
        {
          "internalType": "uint256",
          "name": "userCurrentBalance",
          "type": "uint256"
        }
      ],
      "name": "checkDeposit",
      "outputs": [],
      "stateMutability": "nonpayable",
      "type": "function"
    },
    {
      "inputs": [],
      "name": "currentStage",
      "outputs": [
        {
          "internalType": "enum WikiTVLGuard.Stage",
          "name": "",
          "type": "uint8"
        }
      ],
      "stateMutability": "view",
      "type": "function"
    },
    {
      "inputs": [],
      "name": "getStageInfo",
      "outputs": [
        {
          "internalType": "enum WikiTVLGuard.Stage",
          "name": "stage",
          "type": "uint8"
        },
        {
          "internalType": "uint256",
          "name": "cap",
          "type": "uint256"
        },
        {
          "internalType": "uint256",
          "name": "current",
          "type": "uint256"
        }
      ],
      "stateMutability": "view",
      "type": "function"
    },
    {
      "inputs": [
        {
          "internalType": "address",
          "name": "vault",
          "type": "address"
        }
      ],
      "name": "getVaultInfo",
      "outputs": [
        {
          "components": [
            {
              "internalType": "uint256",
              "name": "maxTVL",
              "type": "uint256"
            },
            {
              "internalType": "uint256",
              "name": "maxPerUser",
              "type": "uint256"
            },
            {
              "internalType": "uint256",
              "name": "maxPerTx",
              "type": "uint256"
            },
            {
              "internalType": "bool",
              "name": "whitelistOnly",
              "type": "bool"
            },
            {
              "internalType": "bool",
              "name": "active",
              "type": "bool"
            }
          ],
          "internalType": "struct WikiTVLGuard.VaultCap",
          "name": "cap",
          "type": "tuple"
        },
        {
          "internalType": "uint256",
          "name": "currentTVL",
          "type": "uint256"
        }
      ],
      "stateMutability": "view",
      "type": "function"
    },
    {
      "inputs": [],
      "name": "globalTVL",
      "outputs": [
        {
          "internalType": "uint256",
          "name": "",
          "type": "uint256"
        }
      ],
      "stateMutability": "view",
      "type": "function"
    },
    {
      "inputs": [],
      "name": "globalTVLCap",
      "outputs": [
        {
          "internalType": "uint256",
          "name": "",
          "type": "uint256"
        }
      ],
      "stateMutability": "view",
      "type": "function"
    },
    {
      "inputs": [],
      "name": "owner",
      "outputs": [
        {
          "internalType": "address",
          "name": "",
          "type": "address"
        }
      ],
      "stateMutability": "view",
      "type": "function"
    },
    {
      "inputs": [],
      "name": "pendingOwner",
      "outputs": [
        {
          "internalType": "address",
          "name": "",
          "type": "address"
        }
      ],
      "stateMutability": "view",
      "type": "function"
    },
    {
      "inputs": [
        {
          "internalType": "uint256",
          "name": "amount",
          "type": "uint256"
        }
      ],
      "name": "recordDeposit",
      "outputs": [],
      "stateMutability": "nonpayable",
      "type": "function"
    },
    {
      "inputs": [
        {
          "internalType": "uint256",
          "name": "amount",
          "type": "uint256"
        }
      ],
      "name": "recordWithdrawal",
      "outputs": [],
      "stateMutability": "nonpayable",
      "type": "function"
    },
    {
      "inputs": [
        {
          "internalType": "address",
          "name": "vault",
          "type": "address"
        },
        {
          "internalType": "uint256",
          "name": "maxTVL",
          "type": "uint256"
        },
        {
          "internalType": "uint256",
          "name": "maxPerUser",
          "type": "uint256"
        },
        {
          "internalType": "uint256",
          "name": "maxPerTx",
          "type": "uint256"
        },
        {
          "internalType": "bool",
          "name": "whitelistOnly",
          "type": "bool"
        }
      ],
      "name": "registerVault",
      "outputs": [],
      "stateMutability": "nonpayable",
      "type": "function"
    },
    {
      "inputs": [
        {
          "internalType": "address",
          "name": "",
          "type": "address"
        }
      ],
      "name": "registeredVaults",
      "outputs": [
        {
          "internalType": "bool",
          "name": "",
          "type": "bool"
        }
      ],
      "stateMutability": "view",
      "type": "function"
    },
    {
      "inputs": [],
      "name": "renounceOwnership",
      "outputs": [],
      "stateMutability": "nonpayable",
      "type": "function"
    },
    {
      "inputs": [
        {
          "internalType": "enum WikiTVLGuard.Stage",
          "name": "stage",
          "type": "uint8"
        },
        {
          "internalType": "uint256",
          "name": "customCap",
          "type": "uint256"
        }
      ],
      "name": "setStageManual",
      "outputs": [],
      "stateMutability": "nonpayable",
      "type": "function"
    },
    {
      "inputs": [
        {
          "internalType": "address",
          "name": "vault",
          "type": "address"
        },
        {
          "internalType": "uint256",
          "name": "maxTVL",
          "type": "uint256"
        }
      ],
      "name": "setVaultCap",
      "outputs": [],
      "stateMutability": "nonpayable",
      "type": "function"
    },
    {
      "inputs": [
        {
          "internalType": "address",
          "name": "user",
          "type": "address"
        },
        {
          "internalType": "bool",
          "name": "allowed",
          "type": "bool"
        }
      ],
      "name": "setWhitelisted",
      "outputs": [],
      "stateMutability": "nonpayable",
      "type": "function"
    },
    {
      "inputs": [
        {
          "internalType": "address",
          "name": "newOwner",
          "type": "address"
        }
      ],
      "name": "transferOwnership",
      "outputs": [],
      "stateMutability": "nonpayable",
      "type": "function"
    },
    {
      "inputs": [
        {
          "internalType": "address",
          "name": "",
          "type": "address"
        }
      ],
      "name": "vaultCaps",
      "outputs": [
        {
          "internalType": "uint256",
          "name": "maxTVL",
          "type": "uint256"
        },
        {
          "internalType": "uint256",
          "name": "maxPerUser",
          "type": "uint256"
        },
        {
          "internalType": "uint256",
          "name": "maxPerTx",
          "type": "uint256"
        },
        {
          "internalType": "bool",
          "name": "whitelistOnly",
          "type": "bool"
        },
        {
          "internalType": "bool",
          "name": "active",
          "type": "bool"
        }
      ],
      "stateMutability": "view",
      "type": "function"
    },
    {
      "inputs": [
        {
          "internalType": "address",
          "name": "",
          "type": "address"
        }
      ],
      "name": "vaultTVL",
      "outputs": [
        {
          "internalType": "uint256",
          "name": "",
          "type": "uint256"
        }
      ],
      "stateMutability": "view",
      "type": "function"
    },
    {
      "inputs": [
        {
          "internalType": "address",
          "name": "",
          "type": "address"
        }
      ],
      "name": "whitelisted",
      "outputs": [
        {
          "internalType": "bool",
          "name": "",
          "type": "bool"
        }
      ],
      "stateMutability": "view",
      "type": "function"
    }
  ],
  "bytecode": "0x60803460d057601f61139138819003918201601f19168301916001600160401b0383118484101760d45780849260209460405283398101031260d057516001600160a01b0381169081900360d057801560bd576001545f80546001600160a01b03198116841782559192916001600160a01b0316907f8be0079c531659141344cd1fd0a4f28419497f9722a3daafe3b4186f6b6457e09080a36001600160a81b03191660015564746a5288006003556040516112a890816100e98239f35b631e4fbdf760e01b5f525f60045260245ffd5b5f80fd5b634e487b7160e01b5f52604160045260245ffdfe60806040526004361015610011575f80fd5b5f3560e01c80630ab20d3f146110085780631424c18214610f70578063155e7ec714610f195780632e66de2614610ead57806342ae827014610d6a5780634a7e60f0146108b357806357ece783146108945780635bf5d54c1461086a578063715018a61461080757806379ba509714610782578063885ed4ad146107615780638da5cb5b1461073a57806390229af71461066b5780639281aa0b146105ee578063975b890b146105ce578063a9396a1b14610593578063b5adce3f1461049a578063ba99ba291461047a578063c33f48fd14610381578063c40ef36b14610349578063c7c64c1e1461032c578063d6b67dab1461030f578063d936547e146102d2578063e0776c7d14610243578063e30c39781461021b578063ef0f0ec3146101de578063f2fde38b1461016c5763f4ff80461461014d575f80fd5b34610168575f3660031901126101685760206040515f198152f35b5f80fd5b3461016857602036600319011261016857610185611098565b61018d6111e9565b60018060a01b0316806bffffffffffffffffffffffff60a01b600154161760015560018060a01b035f54167f38d16b8cac22d99fc7c124b9cd0de2d3fa1faef420bfe791d8c362d765e227005f80a3005b34610168576020366003190112610168576001600160a01b036101ff611098565b165f526007602052602060ff60405f2054166040519015158152f35b34610168575f366003190112610168576001546040516001600160a01b039091168152602090f35b34610168576040366003190112610168576004356005811015610168577f760c30cbb2c73ba720b45faf6a8e48d886532d0eee304074cd3548fb3c0ef7439060243561028d6111e9565b60ff60015460a01c16906102a08361119c565b80156102c0576102bb905b80600355604051938493846111c4565b0390a1005b506102bb6102cd836111fc565b6102ab565b34610168576020366003190112610168576001600160a01b036102f3611098565b165f526006602052602060ff60405f2054166040519015158152f35b34610168575f366003190112610168576020600254604051908152f35b34610168575f366003190112610168576020600354604051908152f35b34610168576020366003190112610168576001600160a01b0361036a611098565b165f526005602052602060405f2054604051908152f35b34610168575f366003190112610168576103996111e9565b60ff60015460a01c16600581101561040d576004811015610435576001810160ff81116104215760ff1690600582101561040d576103f77f760c30cbb2c73ba720b45faf6a8e48d886532d0eee304074cd3548fb3c0ef7439261119c565b60ff60015460a01c16906102bb6102ab836111fc565b634e487b7160e01b5f52602160045260245ffd5b634e487b7160e01b5f52601160045260245ffd5b60405162461bcd60e51b815260206004820152601b60248201527f54564c47756172643a20616c726561647920756e6c696d6974656400000000006044820152606490fd5b34610168575f366003190112610168576020604051652d79883d20008152f35b346101685760403660031901126101685760043567ffffffffffffffff8111610168573660238201121561016857806004013567ffffffffffffffff8111610168576024820191602436918360051b010111610168576104f86110ae565b6105006111e9565b801515905f5b83811061050f57005b6001906001600160a01b0361052d61052883888a611164565b611188565b165f52600660205261054e8360405f209060ff801983541691151516179055565b818060a01b0361056261052883888a611164565b167ff93f9a76c1bf3444d22400a00cb9fe990e6abe9dbb333fda48859cfee864543d6020604051878152a201610506565b34610168575f36600319011261016857606060ff60015460a01c16600354600254906105c260405180946110bd565b60208301526040820152f35b34610168575f36600319011261016857602060405165048c273950008152f35b3461016857604036600319011261016857610607611098565b7ff93f9a76c1bf3444d22400a00cb9fe990e6abe9dbb333fda48859cfee864543d60206106326110ae565b9261063b6111e9565b6001600160a01b03165f8181526006835260409020805460ff191660ff86151516179055926040519015158152a2005b346101685760203660031901126101685760c0610686611098565b5f6080610691611130565b828152826020820152826040820152826060820152015260018060a01b0316805f52600460205260405f20905f52600560205260405f20546106d1611130565b918054928381526001820154916020820192835260036002820154916040840192835201549260ff6080606085019482871615158652019460081c16151584526040519586525160208601525160408501525115156060840152511515608083015260a0820152f35b34610168575f366003190112610168575f546040516001600160a01b039091168152602090f35b34610168575f3660031901126101685760206040516601c6bf526340008152f35b34610168575f36600319011261016857600154336001600160a01b03909116036107f457600180546001600160a01b03199081169091555f805433928116831782556001600160a01b0316907f8be0079c531659141344cd1fd0a4f28419497f9722a3daafe3b4186f6b6457e09080a3005b63118cdaa760e01b5f523360045260245ffd5b34610168575f3660031901126101685761081f6111e9565b600180546001600160a01b03199081169091555f80549182168155906001600160a01b03167f8be0079c531659141344cd1fd0a4f28419497f9722a3daafe3b4186f6b6457e08280a3005b34610168575f36600319011261016857602060ff60015460a01c1661089260405180926110bd565bf35b34610168575f36600319011261016857602060405164746a5288008152f35b34610168576060366003190112610168576108cc611098565b60243590335f52600760205260ff60405f20541615610d2557335f52600460205260405f20600381015460ff8160081c1615610ce05760ff168015610cc7575b8015610cac575b610c01575b60028101548015159081610bf7575b50610b665760018101548015159081610b51575b50610abe57548015159081610a9f575b50610a0c5760035480151590816109f7575b5061096457005b60405191825260406020830152601660408301527519db1bd8985b081515930818d85c081c995858da195960521b606083015260018060a01b0316905f8051602061125383398151915260803392a3606460405162461bcd60e51b815260206004820152602060248201527f54564c47756172643a20676c6f62616c2054564c2063617020726561636865646044820152fd5b9050610a0583600254611123565b118361095d565b6040519182526040602083015260156040830152741d985d5b1d081515930818d85c081c995858da1959605a1b606083015260018060a01b0316905f8051602061125383398151915260803392a360405162461bcd60e51b815260206004820152601f60248201527f54564c47756172643a207661756c742054564c206361702072656163686564006044820152606490fd5b9050335f526005602052610ab78360405f2054611123565b118361094b565b50604051918252604060208301526014604083015273065786365656473207065722d75736572206361760641b606083015260018060a01b0316905f8051602061125383398151915260803392a360405162461bcd60e51b815260206004820152601e60248201527f54564c47756172643a2065786365656473207065722d757365722063617000006044820152606490fd5b9050610b5f84604435611123565b118461093b565b50604051918252604060208301526012604083015271065786365656473207065722d7478206361760741b606083015260018060a01b0316905f8051602061125383398151915260803392a360405162461bcd60e51b815260206004820152601c60248201527f54564c47756172643a2065786365656473207065722d747820636170000000006044820152606490fd5b9050831184610927565b6001600160a01b0382165f8181526006602052604090205460ff1615610c275750610918565b8360405190815260406020820152600f60408201526e1b9bdd081dda1a5d195b1a5cdd1959608a1b60608201525f8051602061125383398151915260803392a360405162461bcd60e51b815260206004820152601960248201527f54564c47756172643a206e6f742077686974656c6973746564000000000000006044820152606490fd5b5060ff60015460a01c16600581101561040d57600114610913565b5060ff60015460a01c16600581101561040d571561090c565b60405162461bcd60e51b815260206004820152601860248201527f54564c47756172643a207661756c7420696e61637469766500000000000000006044820152606490fd5b60405162461bcd60e51b815260206004820152601e60248201527f54564c47756172643a207661756c74206e6f74207265676973746572656400006044820152606490fd5b346101685760a036600319011261016857610d83611098565b60243590604435906084359081151580920361016857610da16111e9565b6001600160a01b0316928315610e71577fb1a48f675f90167a7abd3f56fd46f0e466cb200863a71126a286d7696eac32da92604092610dde611130565b838152610e38600360208301928584528781016064358152606082019586526080820194600186528b5f526004602052895f20925183555160018301555160028201550192511515839060ff801983541691151516179055565b51151561ff0082549160081b169061ff001916179055845f526007602052825f20600160ff1982541617905582519182526020820152a2005b60405162461bcd60e51b815260206004820152601460248201527315159311dd585c990e881e995c9bc81d985d5b1d60621b6044820152606490fd5b34610168576020366003190112610168576001600160a01b03610ece611098565b165f52600460205260a060405f2060ff8154916001810154906003600282015491015491604051948552602085015260408401528181161515606084015260081c1615156080820152f35b3461016857604036600319011261016857610f32611098565b610f3a6111e9565b6001600160a01b03165f81815260076020526040902054610f5d9060ff166110ca565b5f52600460205260243560405f20555f80f35b3461016857602036600319011261016857600435335f526007602052610f9c60ff60405f2054166110ca565b335f908152600560205260409020805491610fc591610fbb8285611123565b9055600254611123565b600255335f52600560205260405f205460405191825260208201527fe1127794423189a4dad7ea622ce5fcfce20fe282fccee8e77c1ac9584e3874bb60403392a2005b3461016857602036600319011261016857600435335f52600760205261103460ff60405f2054166110ca565b335f52600560205260405f205481115f146110935750335f52600560205260405f20545b335f908152600560205260409020805491906110748284611116565b9055600254908082111561108b57610fc591611116565b50505f610fc5565b611058565b600435906001600160a01b038216820361016857565b60243590811515820361016857565b90600582101561040d5752565b156110d157565b60405162461bcd60e51b815260206004820152601860248201527f54564c47756172643a206e6f74207265676973746572656400000000000000006044820152606490fd5b9190820391821161042157565b9190820180921161042157565b6040519060a0820182811067ffffffffffffffff82111761115057604052565b634e487b7160e01b5f52604160045260245ffd5b91908110156111745760051b0190565b634e487b7160e01b5f52603260045260245ffd5b356001600160a01b03811681036101685790565b600581101561040d576001805460ff60a01b191660a09290921b60ff60a01b16919091179055565b6111e56040929594936111db8360608101986110bd565b60208301906110bd565b0152565b5f546001600160a01b031633036107f457565b600581101561040d578015611248576001811461123d576002811461123257600314611227575f1990565b6601c6bf5263400090565b50652d79883d200090565b5065048c2739500090565b5064746a5288009056fe7338ffafc6b2a208f1ebe4782d3dd891f0880fbf71b6c5dcc2d318d7b7efb13aa26469706673582212200ebf6ca9d07659d11295ad8f572b4e6d22d781f9418c7081a88658cae6b2b5d664736f6c634300081a0033",
  "linkReferences": {},
  "deployedLinkReferences": {}
}