{
  "_format": "hh-sol-artifact-1",
  "contractName": "WikiLiquidityMining",
  "sourceName": "src/WikiLiquidityMining.sol",
  "abi": [
    {
      "inputs": [
        {
          "internalType": "address",
          "name": "_owner",
          "type": "address"
        },
        {
          "internalType": "address",
          "name": "_wik",
          "type": "address"
        },
        {
          "internalType": "address",
          "name": "_lpBoost",
          "type": "address"
        }
      ],
      "stateMutability": "nonpayable",
      "type": "constructor"
    },
    {
      "inputs": [
        {
          "internalType": "address",
          "name": "owner",
          "type": "address"
        }
      ],
      "name": "OwnableInvalidOwner",
      "type": "error"
    },
    {
      "inputs": [
        {
          "internalType": "address",
          "name": "account",
          "type": "address"
        }
      ],
      "name": "OwnableUnauthorizedAccount",
      "type": "error"
    },
    {
      "inputs": [],
      "name": "ReentrancyGuardReentrantCall",
      "type": "error"
    },
    {
      "inputs": [
        {
          "internalType": "address",
          "name": "token",
          "type": "address"
        }
      ],
      "name": "SafeERC20FailedOperation",
      "type": "error"
    },
    {
      "anonymous": false,
      "inputs": [
        {
          "indexed": false,
          "internalType": "uint256",
          "name": "programId",
          "type": "uint256"
        },
        {
          "indexed": false,
          "internalType": "uint256",
          "name": "oldRate",
          "type": "uint256"
        },
        {
          "indexed": false,
          "internalType": "uint256",
          "name": "newRate",
          "type": "uint256"
        }
      ],
      "name": "EmissionReduced",
      "type": "event"
    },
    {
      "anonymous": false,
      "inputs": [
        {
          "indexed": true,
          "internalType": "address",
          "name": "previousOwner",
          "type": "address"
        },
        {
          "indexed": true,
          "internalType": "address",
          "name": "newOwner",
          "type": "address"
        }
      ],
      "name": "OwnershipTransferStarted",
      "type": "event"
    },
    {
      "anonymous": false,
      "inputs": [
        {
          "indexed": true,
          "internalType": "address",
          "name": "previousOwner",
          "type": "address"
        },
        {
          "indexed": true,
          "internalType": "address",
          "name": "newOwner",
          "type": "address"
        }
      ],
      "name": "OwnershipTransferred",
      "type": "event"
    },
    {
      "anonymous": false,
      "inputs": [
        {
          "indexed": false,
          "internalType": "uint256",
          "name": "id",
          "type": "uint256"
        },
        {
          "indexed": false,
          "internalType": "address",
          "name": "lpToken",
          "type": "address"
        },
        {
          "indexed": false,
          "internalType": "uint256",
          "name": "rewardPerSec",
          "type": "uint256"
        },
        {
          "indexed": false,
          "internalType": "uint256",
          "name": "duration",
          "type": "uint256"
        }
      ],
      "name": "ProgramCreated",
      "type": "event"
    },
    {
      "anonymous": false,
      "inputs": [
        {
          "indexed": false,
          "internalType": "uint256",
          "name": "programId",
          "type": "uint256"
        },
        {
          "indexed": false,
          "internalType": "address",
          "name": "user",
          "type": "address"
        },
        {
          "indexed": false,
          "internalType": "uint256",
          "name": "amount",
          "type": "uint256"
        }
      ],
      "name": "RewardClaimed",
      "type": "event"
    },
    {
      "anonymous": false,
      "inputs": [
        {
          "indexed": false,
          "internalType": "uint256",
          "name": "programId",
          "type": "uint256"
        },
        {
          "indexed": false,
          "internalType": "address",
          "name": "user",
          "type": "address"
        },
        {
          "indexed": false,
          "internalType": "uint256",
          "name": "amount",
          "type": "uint256"
        }
      ],
      "name": "Staked",
      "type": "event"
    },
    {
      "anonymous": false,
      "inputs": [
        {
          "indexed": false,
          "internalType": "uint256",
          "name": "programId",
          "type": "uint256"
        },
        {
          "indexed": false,
          "internalType": "address",
          "name": "user",
          "type": "address"
        },
        {
          "indexed": false,
          "internalType": "uint256",
          "name": "amount",
          "type": "uint256"
        }
      ],
      "name": "Unstaked",
      "type": "event"
    },
    {
      "inputs": [],
      "name": "PRECISION",
      "outputs": [
        {
          "internalType": "uint256",
          "name": "",
          "type": "uint256"
        }
      ],
      "stateMutability": "view",
      "type": "function"
    },
    {
      "inputs": [],
      "name": "WIK",
      "outputs": [
        {
          "internalType": "contract IERC20",
          "name": "",
          "type": "address"
        }
      ],
      "stateMutability": "view",
      "type": "function"
    },
    {
      "inputs": [],
      "name": "acceptOwnership",
      "outputs": [],
      "stateMutability": "nonpayable",
      "type": "function"
    },
    {
      "inputs": [
        {
          "internalType": "uint256",
          "name": "programId",
          "type": "uint256"
        }
      ],
      "name": "claim",
      "outputs": [],
      "stateMutability": "nonpayable",
      "type": "function"
    },
    {
      "inputs": [
        {
          "internalType": "address",
          "name": "lpToken",
          "type": "address"
        },
        {
          "internalType": "uint256",
          "name": "rewardPerSecond",
          "type": "uint256"
        },
        {
          "internalType": "uint256",
          "name": "durationDays",
          "type": "uint256"
        },
        {
          "internalType": "uint256",
          "name": "totalBudget",
          "type": "uint256"
        }
      ],
      "name": "createProgram",
      "outputs": [
        {
          "internalType": "uint256",
          "name": "programId",
          "type": "uint256"
        }
      ],
      "stateMutability": "nonpayable",
      "type": "function"
    },
    {
      "inputs": [
        {
          "internalType": "uint256",
          "name": "programId",
          "type": "uint256"
        }
      ],
      "name": "endProgram",
      "outputs": [],
      "stateMutability": "nonpayable",
      "type": "function"
    },
    {
      "inputs": [
        {
          "internalType": "uint256",
          "name": "programId",
          "type": "uint256"
        },
        {
          "internalType": "uint256",
          "name": "wikPriceUsdc",
          "type": "uint256"
        },
        {
          "internalType": "uint256",
          "name": "lpPriceUsdc",
          "type": "uint256"
        }
      ],
      "name": "getProgramAPY",
      "outputs": [
        {
          "internalType": "uint256",
          "name": "apyBps",
          "type": "uint256"
        }
      ],
      "stateMutability": "view",
      "type": "function"
    },
    {
      "inputs": [],
      "name": "lpBoost",
      "outputs": [
        {
          "internalType": "address",
          "name": "",
          "type": "address"
        }
      ],
      "stateMutability": "view",
      "type": "function"
    },
    {
      "inputs": [
        {
          "internalType": "address",
          "name": "",
          "type": "address"
        }
      ],
      "name": "lpToProgram",
      "outputs": [
        {
          "internalType": "uint256",
          "name": "",
          "type": "uint256"
        }
      ],
      "stateMutability": "view",
      "type": "function"
    },
    {
      "inputs": [],
      "name": "nextProgramId",
      "outputs": [
        {
          "internalType": "uint256",
          "name": "",
          "type": "uint256"
        }
      ],
      "stateMutability": "view",
      "type": "function"
    },
    {
      "inputs": [],
      "name": "owner",
      "outputs": [
        {
          "internalType": "address",
          "name": "",
          "type": "address"
        }
      ],
      "stateMutability": "view",
      "type": "function"
    },
    {
      "inputs": [],
      "name": "pendingOwner",
      "outputs": [
        {
          "internalType": "address",
          "name": "",
          "type": "address"
        }
      ],
      "stateMutability": "view",
      "type": "function"
    },
    {
      "inputs": [
        {
          "internalType": "uint256",
          "name": "programId",
          "type": "uint256"
        },
        {
          "internalType": "address",
          "name": "user",
          "type": "address"
        }
      ],
      "name": "pendingReward",
      "outputs": [
        {
          "internalType": "uint256",
          "name": "",
          "type": "uint256"
        }
      ],
      "stateMutability": "view",
      "type": "function"
    },
    {
      "inputs": [
        {
          "internalType": "uint256",
          "name": "",
          "type": "uint256"
        }
      ],
      "name": "programs",
      "outputs": [
        {
          "internalType": "uint256",
          "name": "id",
          "type": "uint256"
        },
        {
          "internalType": "address",
          "name": "lpToken",
          "type": "address"
        },
        {
          "internalType": "uint256",
          "name": "rewardPerSecond",
          "type": "uint256"
        },
        {
          "internalType": "uint256",
          "name": "startTime",
          "type": "uint256"
        },
        {
          "internalType": "uint256",
          "name": "endTime",
          "type": "uint256"
        },
        {
          "internalType": "uint256",
          "name": "totalAllocated",
          "type": "uint256"
        },
        {
          "internalType": "uint256",
          "name": "totalDistributed",
          "type": "uint256"
        },
        {
          "internalType": "uint256",
          "name": "lastRewardTime",
          "type": "uint256"
        },
        {
          "internalType": "uint256",
          "name": "accRewardPerShare",
          "type": "uint256"
        },
        {
          "internalType": "uint256",
          "name": "totalStaked",
          "type": "uint256"
        },
        {
          "internalType": "bool",
          "name": "active",
          "type": "bool"
        }
      ],
      "stateMutability": "view",
      "type": "function"
    },
    {
      "inputs": [
        {
          "internalType": "uint256",
          "name": "programId",
          "type": "uint256"
        },
        {
          "internalType": "uint256",
          "name": "newRatePerSecond",
          "type": "uint256"
        }
      ],
      "name": "reduceEmission",
      "outputs": [],
      "stateMutability": "nonpayable",
      "type": "function"
    },
    {
      "inputs": [],
      "name": "renounceOwnership",
      "outputs": [],
      "stateMutability": "nonpayable",
      "type": "function"
    },
    {
      "inputs": [
        {
          "internalType": "uint256",
          "name": "programId",
          "type": "uint256"
        },
        {
          "internalType": "uint256",
          "name": "amount",
          "type": "uint256"
        }
      ],
      "name": "stake",
      "outputs": [],
      "stateMutability": "nonpayable",
      "type": "function"
    },
    {
      "inputs": [
        {
          "internalType": "uint256",
          "name": "",
          "type": "uint256"
        },
        {
          "internalType": "address",
          "name": "",
          "type": "address"
        }
      ],
      "name": "stakes",
      "outputs": [
        {
          "internalType": "uint256",
          "name": "amount",
          "type": "uint256"
        },
        {
          "internalType": "uint256",
          "name": "rewardDebt",
          "type": "uint256"
        },
        {
          "internalType": "uint256",
          "name": "pendingRewards",
          "type": "uint256"
        },
        {
          "internalType": "uint256",
          "name": "totalClaimed",
          "type": "uint256"
        },
        {
          "internalType": "uint256",
          "name": "boostBps",
          "type": "uint256"
        }
      ],
      "stateMutability": "view",
      "type": "function"
    },
    {
      "inputs": [],
      "name": "totalWIKAllocated",
      "outputs": [
        {
          "internalType": "uint256",
          "name": "",
          "type": "uint256"
        }
      ],
      "stateMutability": "view",
      "type": "function"
    },
    {
      "inputs": [],
      "name": "totalWIKDistributed",
      "outputs": [
        {
          "internalType": "uint256",
          "name": "",
          "type": "uint256"
        }
      ],
      "stateMutability": "view",
      "type": "function"
    },
    {
      "inputs": [
        {
          "internalType": "address",
          "name": "newOwner",
          "type": "address"
        }
      ],
      "name": "transferOwnership",
      "outputs": [],
      "stateMutability": "nonpayable",
      "type": "function"
    },
    {
      "inputs": [
        {
          "internalType": "uint256",
          "name": "programId",
          "type": "uint256"
        },
        {
          "internalType": "uint256",
          "name": "amount",
          "type": "uint256"
        }
      ],
      "name": "unstake",
      "outputs": [],
      "stateMutability": "nonpayable",
      "type": "function"
    }
  ],
  "bytecode": "0x60a03461014157601f61148438819003918201601f19168301916001600160401b03831184841017610145578084926060946040528339810103126101415761004781610159565b61005f604061005860208501610159565b9301610159565b6001600160a01b0390911691821561012e57600180546001600160a01b03199081169091555f80549182168517815560405194916001600160a01b0316907f8be0079c531659141344cd1fd0a4f28419497f9722a3daafe3b4186f6b6457e09080a360017f9b779b17422d0df92223018b32b4d1fa46e071723d6817e2486d003becc55f00556001600160a01b03908116608052600580546001600160a01b03191692909116919091179055611316908161016e82396080518181816102a601528181610bef0152610d260152f35b631e4fbdf760e01b5f525f60045260245ffd5b5f80fd5b634e487b7160e01b5f52604160045260245ffd5b51906001600160a01b03821682036101415756fe60806040526004361015610011575f80fd5b5f3560e01c80620bc49614610ddb57806312d5445c14610da3578063379607f514610c1e57806340b0229e14610bda5780634b843cde14610bb6578063715018a614610b5357806379ba509714610ace5780637b0472f0146108c45780638a5d0182146108a75780638d9cca371461087f5780638da5cb5b1461085857806392db2816146107b257806398969e82146107845780639e2c8a5b1461059b578063a9a3bba41461052b578063aaf5eb6814610509578063b672d925146104ec578063ba71b330146104cf578063bcc6773d14610261578063cd61ab6b146101a8578063e30c3978146101805763f2fde38b1461010a575f80fd5b3461017c57602036600319011261017c57610123610e20565b61012b6110b7565b60018060a01b0316806bffffffffffffffffffffffff60a01b600154161760015560018060a01b035f54167f38d16b8cac22d99fc7c124b9cd0de2d3fa1faef420bfe791d8c362d765e227005f80a3005b5f80fd5b3461017c575f36600319011261017c576001546040516001600160a01b039091168152602090f35b3461017c576101b636610e4c565b906101bf6110b7565b805f526002602052600260405f200190815483101561021c576060816102057f1b8f5c6d8635aa51b09bbd33554399f08b56aad7f67a12e1a82190df1d7af9e5936110ca565b83546040519182526020820152846040820152a155005b60405162461bcd60e51b815260206004820152601860248201527f4c4d3a2063616e206f6e6c7920726564756365207261746500000000000000006044820152606490fd5b3461017c57608036600319011261017c5761027a610e20565b60243590604435916064359161028e6110b7565b6007841015806104c3575b1561047e576102ca8330337f0000000000000000000000000000000000000000000000000000000000000000611277565b6102d683600754610ea0565b600755600654925f19841461046a576001840160065562015180850285810462015180148615171561046a5761030c9042610ea0565b946040519361016085019685881067ffffffffffffffff89111761045657600a7f32d7661f43ed32c801fe0ea09f9ec1df12e594a9bcdaff5f060955cb7423cb2596608096899360209b6040528483528b83019160018060a01b031697888352604084019187835260608501914283528b860191825260a0860190815260c08601915f835260e08701934285526101008801955f87526101208901975f89526101408a019b60018d525f5260206002905260405f2099518a5560018a019060018060a01b039051166bffffffffffffffffffffffff60a01b825416179055516002890155516003880155516004870155516005860155516006850155516007840155516008830155516009820155019051151560ff80198354169116179055825f52600487528560405f2055604051928684528784015260408301526060820152a1604051908152f35b634e487b7160e01b5f52604160045260245ffd5b634e487b7160e01b5f52601160045260245ffd5b60405162461bcd60e51b815260206004820152601760248201527f4c4d3a206475726174696f6e20372d33363520646179730000000000000000006044820152606490fd5b5061016d841115610299565b3461017c575f36600319011261017c576020600654604051908152f35b3461017c575f36600319011261017c576020600754604051908152f35b3461017c575f36600319011261017c576020604051670de0b6b3a76400008152f35b3461017c57604036600319011261017c57610544610e36565b6004355f52600360205260405f209060018060a01b03165f5260205260a060405f20805490600181015490600281015460046003830154920154926040519485526020850152604084015260608301526080820152f35b3461017c576105a936610e4c565b6105b1611198565b5f8281526002602090815260408083206003835281842033855290925290912080549093919083116107465782610680917f37375b03d8924bd8f076f11f8411b9962aa5c02fb489021507bc6bb6f850e3659561060d856110ca565b670de0b6b3a76400006106588254926008850161064e8785610630845489610e62565b04966106426001860198895490610e93565b8061072f575b50610e93565b8092555490610e62565b0490556009810161066a838254610e93565b90556001015433906001600160a01b03166111f6565b6005546001600160a01b0316806106d5575b506040805191825233602083015281019190915280606081015b0390a160017f9b779b17422d0df92223018b32b4d1fa46e071723d6817e2486d003becc55f0055005b6040516355a01a0560e11b6020820190815260248201849052336044830152606482018590525f928392909190839061071b81608481015b03601f198101835282610f3a565b51925af150610728610f5c565b5083610692565b61073e60028701918254610ea0565b90558e610648565b60405162461bcd60e51b81526020600482015260166024820152754c4d3a20696e73756666696369656e74207374616b6560501b6044820152606490fd5b3461017c57604036600319011261017c5760206107aa6107a2610e36565b600435610f9b565b604051908152f35b3461017c57602036600319011261017c576004355f52600260205261016060405f2080549060018060a01b0360018201541690600281015460038201546004830154600584015460068501549160078601549360088701549560ff600a60098a015499015416986040519a8b5260208b015260408a01526060890152608088015260a087015260c086015260e08501526101008401526101208301521515610140820152f35b3461017c575f36600319011261017c575f546040516001600160a01b039091168152602090f35b3461017c575f36600319011261017c576005546040516001600160a01b039091168152602090f35b3461017c575f36600319011261017c576020600854604051908152f35b3461017c576108d236610e4c565b6108da611198565b815f52600260205260405f209160ff600a8401541680610ac1575b15610a88578115610a515760097f18dcd430020e4d4899772fd94a8b40451dc5044dfb70bc46b532eeae431c864f9361092d836110ca565b600181015461094a908590309033906001600160a01b0316611277565b825f52600360205260405f2060018060a01b0333165f5260205260405f206001670de0b6b3a764000061099461098688855480610a1157610ea0565b808555600886015490610e62565b04910155016109a4838254610ea0565b90556005546001600160a01b0316806109d557506040805191825233602083015281019190915280606081016106ac565b60405163d2b87db360e01b6020820190815260248201849052336044830152606482018590525f928392909190839061071b816084810161070d565b610a2e85610a2360088b015484610e62565b048789015490610e93565b80610a3a575b50610ea0565b610a4960028901918254610ea0565b90558c610a34565b60405162461bcd60e51b815260206004820152600f60248201526e13134e881e995c9bc8185b5bdd5b9d608a1b6044820152606490fd5b60405162461bcd60e51b815260206004820152601160248201527013134e881c1c9bd9dc985b48195b991959607a1b6044820152606490fd5b50600483015442106108f5565b3461017c575f36600319011261017c57600154336001600160a01b0390911603610b4057600180546001600160a01b03199081169091555f805433928116831782556001600160a01b0316907f8be0079c531659141344cd1fd0a4f28419497f9722a3daafe3b4186f6b6457e09080a3005b63118cdaa760e01b5f523360045260245ffd5b3461017c575f36600319011261017c57610b6b6110b7565b600180546001600160a01b03199081169091555f80549182168155906001600160a01b03167f8be0079c531659141344cd1fd0a4f28419497f9722a3daafe3b4186f6b6457e08280a3005b3461017c57606036600319011261017c5760206107aa604435602435600435610ead565b3461017c575f36600319011261017c576040517f00000000000000000000000000000000000000000000000000000000000000006001600160a01b03168152602090f35b3461017c57602036600319011261017c57600435610c3a611198565b610c43816110ca565b805f52600260205260405f2090805f52600360205260405f2060018060a01b0333165f5260205260405f20908154916008840193670de0b6b3a7640000610c8b865486610e62565b0493610c9d6001840195865490610e93565b92610cad60028201948554610ea0565b958615610d6757670de0b6b3a7640000610cf16003947f24b5efa61dd1cfc659205a97fb8ed868f3cb8c81922bab2b96423e5de1de2cb79a5f600699555490610e62565b04905501610d00858254610ea0565b905501610d0e838254610ea0565b9055610d1c82600854610ea0565b600855610d4a82337f00000000000000000000000000000000000000000000000000000000000000006111f6565b6040805191825233602083015281019190915280606081016106ac565b60405162461bcd60e51b81526020600482015260146024820152734c4d3a206e6f7468696e6720746f20636c61696d60601b6044820152606490fd5b3461017c57602036600319011261017c576001600160a01b03610dc4610e20565b165f526004602052602060405f2054604051908152f35b3461017c57602036600319011261017c57600435610df76110b7565b610e00816110ca565b5f908152600260205260409020426004820155600a01805460ff19169055005b600435906001600160a01b038216820361017c57565b602435906001600160a01b038216820361017c57565b604090600319011261017c576004359060243590565b8181029291811591840414171561046a57565b8115610e7f570490565b634e487b7160e01b5f52601260045260245ffd5b9190820391821161046a57565b9190820180921161046a57565b5f52600260205260405f209160098301549283158015610f32575b610f2a5760020154906301e133808202918083046301e13380149015171561046a57670de0b6b3a7640000610f018194610f0894610e62565b0493610e62565b04612710820291808304612710149015171561046a57610f2791610e75565b90565b505050505f90565b508115610ec8565b90601f8019910116810190811067ffffffffffffffff82111761045657604052565b3d15610f96573d9067ffffffffffffffff82116104565760405191610f8b601f8201601f191660200184610f3a565b82523d5f602084013e565b606090565b5f908152600260209081526040808320600383528184206001600160a01b039095168452939091529020805480156110ad576008830154926007810154804211806110a0575b611019575b5050611010600191670de0b6b3a7640000611009610f2796600287015493610e62565b0490610ea0565b91015490610e93565b61103761104291600484959401548042105f1461109b575042610e93565b600284015490610e62565b90670de0b6b3a7640000820291808304670de0b6b3a7640000149015171561046a57670de0b6b3a7640000611009611091610f279761108b611010966009600199015490610e75565b90610ea0565b9650505091610fe6565b610e93565b5060098201541515610fe1565b5060029150015490565b5f546001600160a01b03163303610b4057565b5f52600260205260405f2060078101908154421115611194576009810154801561118d5760048201548042105f146111885750425b8354908181111561117d576111179161103791610e93565b9061112b6005840154600685015490610e93565b808311611175575b50670de0b6b3a7640000820291808304670de0b6b3a7640000149015171561046a5761116460089161116e93610e75565b9201918254610ea0565b9055429055565b91505f611133565b50506111175f611037565b6110ff565b5050429055565b5050565b60027f9b779b17422d0df92223018b32b4d1fa46e071723d6817e2486d003becc55f0054146111e75760027f9b779b17422d0df92223018b32b4d1fa46e071723d6817e2486d003becc55f0055565b633ee5aeb560e01b5f5260045ffd5b916040519163a9059cbb60e01b5f5260018060a01b031660045260245260205f60448180865af19060015f5114821615611256575b604052156112365750565b635274afe760e01b5f9081526001600160a01b0391909116600452602490fd5b90600181151661126e57823b15153d1516169061122b565b503d5f823e3d90fd5b6040516323b872dd60e01b5f9081526001600160a01b039384166004529290931660245260449390935260209060648180865af19060015f51148216156112c8575b6040525f606052156112365750565b90600181151661126e57823b15153d151616906112b956fea264697066735822122040a4d158d63a68a3711a9f8ed235cc35a0e2f13a97c5e0f253a95bf1c02d83b064736f6c634300081a0033",
  "linkReferences": {},
  "deployedLinkReferences": {}
}