{
  "_format": "hh-sol-artifact-1",
  "contractName": "WikiPropPoolYield",
  "sourceName": "src/WikiPropPoolYield.sol",
  "abi": [
    {
      "inputs": [
        {
          "internalType": "address",
          "name": "_usdc",
          "type": "address"
        },
        {
          "internalType": "address",
          "name": "_aave",
          "type": "address"
        },
        {
          "internalType": "address",
          "name": "_lending",
          "type": "address"
        },
        {
          "internalType": "address",
          "name": "_propPool",
          "type": "address"
        },
        {
          "internalType": "address",
          "name": "_owner",
          "type": "address"
        }
      ],
      "stateMutability": "nonpayable",
      "type": "constructor"
    },
    {
      "inputs": [
        {
          "internalType": "address",
          "name": "owner",
          "type": "address"
        }
      ],
      "name": "OwnableInvalidOwner",
      "type": "error"
    },
    {
      "inputs": [
        {
          "internalType": "address",
          "name": "account",
          "type": "address"
        }
      ],
      "name": "OwnableUnauthorizedAccount",
      "type": "error"
    },
    {
      "inputs": [],
      "name": "ReentrancyGuardReentrantCall",
      "type": "error"
    },
    {
      "inputs": [
        {
          "internalType": "address",
          "name": "token",
          "type": "address"
        }
      ],
      "name": "SafeERC20FailedOperation",
      "type": "error"
    },
    {
      "anonymous": false,
      "inputs": [
        {
          "indexed": false,
          "internalType": "address",
          "name": "keeper",
          "type": "address"
        }
      ],
      "name": "KeeperSet",
      "type": "event"
    },
    {
      "anonymous": false,
      "inputs": [
        {
          "indexed": true,
          "internalType": "address",
          "name": "previousOwner",
          "type": "address"
        },
        {
          "indexed": true,
          "internalType": "address",
          "name": "newOwner",
          "type": "address"
        }
      ],
      "name": "OwnershipTransferStarted",
      "type": "event"
    },
    {
      "anonymous": false,
      "inputs": [
        {
          "indexed": true,
          "internalType": "address",
          "name": "previousOwner",
          "type": "address"
        },
        {
          "indexed": true,
          "internalType": "address",
          "name": "newOwner",
          "type": "address"
        }
      ],
      "name": "OwnershipTransferred",
      "type": "event"
    },
    {
      "anonymous": false,
      "inputs": [
        {
          "indexed": false,
          "internalType": "uint256",
          "name": "toAave",
          "type": "uint256"
        },
        {
          "indexed": false,
          "internalType": "uint256",
          "name": "toLending",
          "type": "uint256"
        },
        {
          "indexed": false,
          "internalType": "uint256",
          "name": "at",
          "type": "uint256"
        }
      ],
      "name": "YieldDeployed",
      "type": "event"
    },
    {
      "anonymous": false,
      "inputs": [
        {
          "indexed": false,
          "internalType": "uint256",
          "name": "amount",
          "type": "uint256"
        },
        {
          "indexed": false,
          "internalType": "uint256",
          "name": "timestamp",
          "type": "uint256"
        }
      ],
      "name": "YieldHarvested",
      "type": "event"
    },
    {
      "anonymous": false,
      "inputs": [
        {
          "indexed": false,
          "internalType": "uint256",
          "name": "fromAave",
          "type": "uint256"
        },
        {
          "indexed": false,
          "internalType": "uint256",
          "name": "fromLending",
          "type": "uint256"
        },
        {
          "indexed": false,
          "internalType": "string",
          "name": "reason",
          "type": "string"
        }
      ],
      "name": "YieldRecalled",
      "type": "event"
    },
    {
      "inputs": [],
      "name": "AAVE_SPLIT_BPS",
      "outputs": [
        {
          "internalType": "uint256",
          "name": "",
          "type": "uint256"
        }
      ],
      "stateMutability": "view",
      "type": "function"
    },
    {
      "inputs": [],
      "name": "BPS",
      "outputs": [
        {
          "internalType": "uint256",
          "name": "",
          "type": "uint256"
        }
      ],
      "stateMutability": "view",
      "type": "function"
    },
    {
      "inputs": [],
      "name": "LENDING_SPLIT_BPS",
      "outputs": [
        {
          "internalType": "uint256",
          "name": "",
          "type": "uint256"
        }
      ],
      "stateMutability": "view",
      "type": "function"
    },
    {
      "inputs": [],
      "name": "MAX_DEPLOY_BPS",
      "outputs": [
        {
          "internalType": "uint256",
          "name": "",
          "type": "uint256"
        }
      ],
      "stateMutability": "view",
      "type": "function"
    },
    {
      "inputs": [],
      "name": "RECALL_THRESHOLD",
      "outputs": [
        {
          "internalType": "uint256",
          "name": "",
          "type": "uint256"
        }
      ],
      "stateMutability": "view",
      "type": "function"
    },
    {
      "inputs": [],
      "name": "USDC",
      "outputs": [
        {
          "internalType": "contract IERC20",
          "name": "",
          "type": "address"
        }
      ],
      "stateMutability": "view",
      "type": "function"
    },
    {
      "inputs": [],
      "name": "aavePool",
      "outputs": [
        {
          "internalType": "contract IAavePool",
          "name": "",
          "type": "address"
        }
      ],
      "stateMutability": "view",
      "type": "function"
    },
    {
      "inputs": [],
      "name": "acceptOwnership",
      "outputs": [],
      "stateMutability": "nonpayable",
      "type": "function"
    },
    {
      "inputs": [
        {
          "internalType": "uint256",
          "name": "amount",
          "type": "uint256"
        }
      ],
      "name": "deployIdle",
      "outputs": [],
      "stateMutability": "nonpayable",
      "type": "function"
    },
    {
      "inputs": [],
      "name": "deployedToAave",
      "outputs": [
        {
          "internalType": "uint256",
          "name": "",
          "type": "uint256"
        }
      ],
      "stateMutability": "view",
      "type": "function"
    },
    {
      "inputs": [],
      "name": "deployedToLending",
      "outputs": [
        {
          "internalType": "uint256",
          "name": "",
          "type": "uint256"
        }
      ],
      "stateMutability": "view",
      "type": "function"
    },
    {
      "inputs": [],
      "name": "emergencyRecall",
      "outputs": [],
      "stateMutability": "nonpayable",
      "type": "function"
    },
    {
      "inputs": [],
      "name": "estimatedAPY",
      "outputs": [
        {
          "internalType": "uint256",
          "name": "blendedBps",
          "type": "uint256"
        }
      ],
      "stateMutability": "view",
      "type": "function"
    },
    {
      "inputs": [],
      "name": "harvestYield",
      "outputs": [],
      "stateMutability": "nonpayable",
      "type": "function"
    },
    {
      "inputs": [
        {
          "internalType": "uint256",
          "name": "propPoolIdleBalance",
          "type": "uint256"
        }
      ],
      "name": "idleCapacityToDeply",
      "outputs": [
        {
          "internalType": "uint256",
          "name": "",
          "type": "uint256"
        }
      ],
      "stateMutability": "view",
      "type": "function"
    },
    {
      "inputs": [],
      "name": "keeper",
      "outputs": [
        {
          "internalType": "address",
          "name": "",
          "type": "address"
        }
      ],
      "stateMutability": "view",
      "type": "function"
    },
    {
      "inputs": [],
      "name": "lastDeployTime",
      "outputs": [
        {
          "internalType": "uint256",
          "name": "",
          "type": "uint256"
        }
      ],
      "stateMutability": "view",
      "type": "function"
    },
    {
      "inputs": [],
      "name": "owner",
      "outputs": [
        {
          "internalType": "address",
          "name": "",
          "type": "address"
        }
      ],
      "stateMutability": "view",
      "type": "function"
    },
    {
      "inputs": [],
      "name": "pendingOwner",
      "outputs": [
        {
          "internalType": "address",
          "name": "",
          "type": "address"
        }
      ],
      "stateMutability": "view",
      "type": "function"
    },
    {
      "inputs": [],
      "name": "propPool",
      "outputs": [
        {
          "internalType": "contract IWikiPropPool",
          "name": "",
          "type": "address"
        }
      ],
      "stateMutability": "view",
      "type": "function"
    },
    {
      "inputs": [
        {
          "internalType": "uint256",
          "name": "amountNeeded",
          "type": "uint256"
        },
        {
          "internalType": "string",
          "name": "reason",
          "type": "string"
        }
      ],
      "name": "recall",
      "outputs": [],
      "stateMutability": "nonpayable",
      "type": "function"
    },
    {
      "inputs": [],
      "name": "renounceOwnership",
      "outputs": [],
      "stateMutability": "nonpayable",
      "type": "function"
    },
    {
      "inputs": [
        {
          "internalType": "address",
          "name": "_aave",
          "type": "address"
        },
        {
          "internalType": "address",
          "name": "_lending",
          "type": "address"
        },
        {
          "internalType": "address",
          "name": "_propPool",
          "type": "address"
        }
      ],
      "name": "setContracts",
      "outputs": [],
      "stateMutability": "nonpayable",
      "type": "function"
    },
    {
      "inputs": [
        {
          "internalType": "address",
          "name": "_keeper",
          "type": "address"
        }
      ],
      "name": "setKeeper",
      "outputs": [],
      "stateMutability": "nonpayable",
      "type": "function"
    },
    {
      "inputs": [],
      "name": "totalDeployed",
      "outputs": [
        {
          "internalType": "uint256",
          "name": "",
          "type": "uint256"
        }
      ],
      "stateMutability": "view",
      "type": "function"
    },
    {
      "inputs": [],
      "name": "totalYieldGenerated",
      "outputs": [
        {
          "internalType": "uint256",
          "name": "",
          "type": "uint256"
        }
      ],
      "stateMutability": "view",
      "type": "function"
    },
    {
      "inputs": [
        {
          "internalType": "address",
          "name": "newOwner",
          "type": "address"
        }
      ],
      "name": "transferOwnership",
      "outputs": [],
      "stateMutability": "nonpayable",
      "type": "function"
    },
    {
      "inputs": [],
      "name": "wikiLending",
      "outputs": [
        {
          "internalType": "contract IWikiLending",
          "name": "",
          "type": "address"
        }
      ],
      "stateMutability": "view",
      "type": "function"
    }
  ],
  "bytecode": "0x60a0346101a957601f611a4638819003918201601f19168301916001600160401b038311848410176101ad5780849260a0946040528339810103126101a957610047816101c1565b90610054602082016101c1565b610060604083016101c1565b906100796080610072606086016101c1565b94016101c1565b60017f9b779b17422d0df92223018b32b4d1fa46e071723d6817e2486d003becc55f00556001600160a01b031693841561019657600180546001600160a01b03199081169091555f80549182168717815560405196916001600160a01b0316907f8be0079c531659141344cd1fd0a4f28419497f9722a3daafe3b4186f6b6457e09080a36001600160a01b03908116608052600280549282166001600160a01b031993841617905560038054938216938316939093179092556004805493909216921691909117905561187090816101d682396080518181816102060152818161034c0152818161069c01528181610d12015281816110450152818161116c015281816111e90152818161131d0152818161146a01526114fe0152f35b631e4fbdf760e01b5f525f60045260245ffd5b5f80fd5b634e487b7160e01b5f52604160045260245ffd5b51906001600160a01b03821682036101a95756fe60806040526004361015610011575f80fd5b5f803560e01c80630cfb14b014611634578063249d39e91461161857806338d44ad51461126b57806339cb27c614610ffb578063441f43c014610fdd5780634599791e14610fb4578063568306a514610f97578063579578e314610f79578063715018a614610f14578063748747e614610ea657806379ba509714610e215780637e4ac42c14610d4157806389a3027114610cfc5780638c82505614610cde5780638da5cb5b14610cb7578063a03e4bc314610c8e578063aced166114610c65578063ad88631214610bcb578063b3066d4914610bd0578063b49fb5bd14610bcb578063b58e431614610647578063b9164e521461062a578063d820b20b14610601578063e30c3978146105d8578063e8d991d1146102f5578063f19993d7146101db578063f2fde38b1461016e5763f30671e11461014e575f80fd5b3461016b578060031936011261016b576020600754604051908152f35b80fd5b503461016b57602036600319011261016b57610188611655565b6101906117f4565b600180546001600160a01b0319166001600160a01b0392831690811790915582549091167f38d16b8cac22d99fc7c124b9cd0de2d3fa1faef420bfe791d8c362d765e227008380a380f35b503461016b578060031936011261016b57600354604051631c21752160e11b81526001600160a01b037f000000000000000000000000000000000000000000000000000000000000000081166004830152909160209183916024918391165afa80156102ea5782906102ae575b655af3107a4000915004611770810290808204611770149015171561029a5762249f0001908162249f00116102865760208261271060405191048152f35b634e487b7160e01b81526011600452602490fd5b634e487b7160e01b82526011600452602482fd5b506020813d6020116102e2575b816102c8602093836116e0565b810103126102de57655af3107a40009051610248565b5f80fd5b3d91506102bb565b6040513d84823e3d90fd5b503461016b578060031936011261016b576005546001600160a01b0316331480156105c5575b61032490611694565b61032c61173b565b60035460405163ba37773160e01b81523060048201526001600160a01b037f0000000000000000000000000000000000000000000000000000000000000000811660248301819052849390929116908390602081604481865afa9081156102ea578291610590575b5060075480821161050e575b50505050816103bf575b8260015f8051602061181b8339815191525580f35b602082610412926103d282600854611687565b6008556004805460405163095ea7b360e01b81526001600160a01b0390911691810191909152602481019290925290928391908290879082906044820190565b03925af18015610503576104d6575b5060045482906001600160a01b0316803b156104d25781809160846040518094819363c082d8b360e01b835288600484015260406024840152600d60448401526c141c9bdc141bdbdb165a595b19609a1b60648401525af180156102ea576104bd575b505060407f3fb12fb590bb295327f3bfc48158ada0b1147f8f823e0c7a09b98b301d186774918151908152426020820152a15f806103aa565b816104c7916116e0565b6104d257815f610484565b5080fd5b6104f79060203d6020116104fc575b6104ef81836116e0565b810190611723565b610421565b503d6104e5565b6040513d85823e3d90fd5b61051791611716565b9182610524575b806103a0565b8091929394503b156104d25760405163f3fef3a360e01b81526001600160a01b0385166004820152602481018490529082908290604490829084905af180156102ea57610577575b5050905f838161051e565b81610581916116e0565b61058c57825f61056c565b8280fd5b9150506020813d6020116105bd575b816105ac602093836116e0565b810103126102de578490515f610394565b3d915061059f565b5080546001600160a01b0316331461031b565b503461016b578060031936011261016b576001546040516001600160a01b039091168152602090f35b503461016b578060031936011261016b576003546040516001600160a01b039091168152602090f35b503461016b578060031936011261016b576020604051611b588152f35b503461016b57602036600319011261016b5760043560018060a01b036005541633148015610bb8575b61067990611694565b61068161173b565b8015610b73576040516370a0823160e01b81523060048201527f00000000000000000000000000000000000000000000000000000000000000006001600160a01b031690602081602481855afa8015610b685783918591610b33575b5010610ae25760018060a01b036004541660405190633fd42af760e21b8252602082600481845afa918215610aa2578592610aad575b5060206004916040519283809263033396fb60e31b82525afa908115610aa2578591610a70575b5081159081156109ba575b505050610fa08202828104610fa0036109a6576127109004916117708102908104611770036109a65761271084910491836108d0575b826107d1575b507f8f6fe20362b99d4ca16a0663889b89877e3eeb0fd1eafde731562de483b9607560608484426009556040519182526020820152426040820152a160015f8051602061181b8339815191525580f35b60035460405163095ea7b360e01b81526001600160a01b0390911660048201526024810184905260208160448186865af18015610503576108b3575b506003546001600160a01b0316803b1561058c57604051631e573fb760e31b81526001600160a01b039290921660048301526024820184905282908290604490829084905af180156102ea5761089e575b50507f8f6fe20362b99d4ca16a0663889b89877e3eeb0fd1eafde731562de483b960759181610891606093600754611687565b6007559184919350610781565b816108a8916116e0565b61058c57825f61085e565b6108cb9060203d6020116104fc576104ef81836116e0565b61080d565b60025460405163095ea7b360e01b81526001600160a01b0390911660048201526024810185905260208160448186865af1801561050357610989575b506002546001600160a01b0316803b1561058c5782809160846040518094819363617ba03760e01b83528760048401528a60248401523060448401528160648401525af1908115610503578391610974575b505061096c84600654611687565b60065561077b565b8161097e916116e0565b6104d257815f61095e565b6109a19060203d6020116104fc576104ef81836116e0565b61090c565b634e487b7160e01b84526011600452602484fd5b6109c49083611716565b906127108202918083046127101490151715610a5c57610a485790611b58910410156109f2575f8080610745565b60405162461bcd60e51b815260206004820152602860248201527f50726f70506f6f6c5969656c643a20706f6f6c207574696c697a6174696f6e206044820152670e8dede40d0d2ced60c31b6064820152608490fd5b634e487b7160e01b85526012600452602485fd5b634e487b7160e01b86526011600452602486fd5b90506020813d602011610a9a575b81610a8b602093836116e0565b810103126102de57515f61073a565b3d9150610a7e565b6040513d87823e3d90fd5b9091506020813d602011610ada575b81610ac9602093836116e0565b810103126102de5751906020610713565b3d9150610abc565b60405162461bcd60e51b815260206004820152602360248201527f50726f70506f6f6c5969656c643a20696e73756666696369656e742062616c616044820152626e636560e81b6064820152608490fd5b9150506020813d602011610b60575b81610b4f602093836116e0565b810103126102de578290515f6106dd565b3d9150610b42565b6040513d86823e3d90fd5b60405162461bcd60e51b815260206004820152601a60248201527f50726f70506f6f6c5969656c643a207a65726f20616d6f756e740000000000006044820152606490fd5b5081546001600160a01b03163314610670565b61166b565b503461016b57606036600319011261016b57610bea611655565b6024356001600160a01b0381169081900361058c576044356001600160a01b0381169290839003610c6157610c1d6117f4565b60018060a01b03166001600160601b0360a01b60025416176002556001600160601b0360a01b60035416176003556001600160601b0360a01b600454161760045580f35b8380fd5b503461016b578060031936011261016b576005546040516001600160a01b039091168152602090f35b503461016b578060031936011261016b576002546040516001600160a01b039091168152602090f35b503461016b578060031936011261016b57546040516001600160a01b039091168152602090f35b503461016b578060031936011261016b576020600854604051908152f35b503461016b578060031936011261016b576040517f00000000000000000000000000000000000000000000000000000000000000006001600160a01b03168152602090f35b503461016b57602036600319011261016b57600480546040516001622bd50960e21b031981529291803591602091859182906001600160a01b03165afa9283156102ea578293610ded575b50611770830292808404611770149015171561029a5761271060209304610db860065460075490611687565b80821115610de557610dc991611716565b915b5080821015610dde57505b604051908152f35b9050610dd6565b505081610dcb565b9092506020813d602011610e19575b81610e09602093836116e0565b810103126102de5751915f610d8c565b3d9150610dfc565b503461016b578060031936011261016b57600154336001600160a01b0390911603610e9357600180546001600160a01b0319908116909155815433918116821783556001600160a01b03167f8be0079c531659141344cd1fd0a4f28419497f9722a3daafe3b4186f6b6457e08380a380f35b63118cdaa760e01b815233600452602490fd5b503461016b57602036600319011261016b577fdc3dba1d64dd67c0dc8b12621edd0c6ca4303a9073c3a8fcac38115e73d67b6b6020610ee3611655565b610eeb6117f4565b600580546001600160a01b0319166001600160a01b03929092169182179055604051908152a180f35b503461016b578060031936011261016b57610f2d6117f4565b600180546001600160a01b03199081169091558154908116825581906001600160a01b03167f8be0079c531659141344cd1fd0a4f28419497f9722a3daafe3b4186f6b6457e08280a380f35b503461016b578060031936011261016b576020600954604051908152f35b503461016b578060031936011261016b576020604051610fa08152f35b503461016b578060031936011261016b576004546040516001600160a01b039091168152602090f35b503461016b578060031936011261016b576020600654604051908152f35b503461016b578060031936011261016b576110146117f4565b61101c61173b565b6006546111cf575b8060075480611142575b50506040516370a0823160e01b81523060048201527f0000000000000000000000000000000000000000000000000000000000000000906020816024816001600160a01b0386165afa908115610503578391611110575b50806110f1575b827ff9ec5cd8e6c1741372095dabdc4bad3f0bb9267df24484d61dfb6caf5df9529660a0604051838152836020820152606060408201526009606082015268656d657267656e637960b81b6080820152a160015f8051602061181b8339815191525580f35b600454611109926001600160a01b0390911690611773565b5f8061108c565b90506020813d60201161113a575b8161112b602093836116e0565b810103126102de57515f611085565b3d915061111e565b6003546001600160a01b0316803b156111cb5760405163f3fef3a360e01b81526001600160a01b037f0000000000000000000000000000000000000000000000000000000000000000166004820152602481019290925282908290604490829084905af16111b6575b50600755805f61102e565b816111c0916116e0565b61016b57805f6111ab565b5050fd5b600254604051631a4ca37b60e21b81526001600160a01b037f0000000000000000000000000000000000000000000000000000000000000000811660048301525f1960248301523060448301529091602091839160649183918791165af161123c575b5080600655611024565b6020813d602011611263575b81611255602093836116e0565b810103126102de5751611232565b3d9150611248565b50346102de5760403660031901126102de5760043560243567ffffffffffffffff81116102de57366023820112156102de57806004013567ffffffffffffffff81116102de5736602482840101116102de576005546001600160a01b031633148015611605575b6112db90611694565b6112e361173b565b82159283156115d557600654935b156115915750600754915b836114e4575b82611440575b6040516370a0823160e01b81523060048201527f0000000000000000000000000000000000000000000000000000000000000000906020816024816001600160a01b0386165afa9081156114355787916113f8575b509260247ff9ec5cd8e6c1741372095dabdc4bad3f0bb9267df24484d61dfb6caf5df9529696938293866080976113d9575b5050604051968795865260208601526060604086015282606086015201848401378181018301869052601f01601f19168101030190a160015f8051602061181b8339815191525580f35b6004546113f1926001600160a01b0390911690611773565b5f8061138f565b9592939190506020863d60201161142d575b81611417602093836116e0565b810103126102de5794519194909291602461135d565b3d915061140a565b6040513d89823e3d90fd5b6003546001600160a01b0316803b156102de5760405163f3fef3a360e01b81526001600160a01b037f000000000000000000000000000000000000000000000000000000000000000016600482015260248101859052905f908290604490829084905af180156114d9576114c4575b506114bc83600754611716565b600755611308565b6114d19195505f906116e0565b5f935f6114af565b6040513d5f823e3d90fd5b600254604051631a4ca37b60e21b81526001600160a01b037f000000000000000000000000000000000000000000000000000000000000000081166004830152602482018790523060448301529091602091839160649183915f91165af180156114d957611562575b5061155a84600654611716565b600655611302565b6020813d602011611589575b8161157b602093836116e0565b810103126102de575161154d565b3d915061156e565b6117708102908104611770036115c15761271090046007548082105f146115ba57505b916112fc565b90506115b4565b634e487b7160e01b5f52601160045260245ffd5b610fa08102818104610fa0036115c15761271090046006548082105f146115fe57505b936112f1565b90506115f8565b505f546001600160a01b031633146112d2565b346102de575f3660031901126102de5760206040516127108152f35b346102de575f3660031901126102de576020610dd660065460075490611687565b600435906001600160a01b03821682036102de57565b346102de575f3660031901126102de5760206040516117708152f35b919082018092116115c157565b1561169b57565b60405162461bcd60e51b815260206004820152601960248201527f50726f70506f6f6c5969656c643a206e6f74206b6565706572000000000000006044820152606490fd5b90601f8019910116810190811067ffffffffffffffff82111761170257604052565b634e487b7160e01b5f52604160045260245ffd5b919082039182116115c157565b908160209103126102de575180151581036102de5790565b60025f8051602061181b83398151915254146117645760025f8051602061181b83398151915255565b633ee5aeb560e01b5f5260045ffd5b916040519163a9059cbb60e01b5f5260018060a01b031660045260245260205f60448180865af19060015f51148216156117d3575b604052156117b35750565b635274afe760e01b5f9081526001600160a01b0391909116600452602490fd5b9060018115166117eb57823b15153d151616906117a8565b503d5f823e3d90fd5b5f546001600160a01b0316330361180757565b63118cdaa760e01b5f523360045260245ffdfe9b779b17422d0df92223018b32b4d1fa46e071723d6817e2486d003becc55f00a26469706673582212201f4df5ba450f5bb2a97fded5b9894baa1958b79357659e5b7178e7954b55ab2964736f6c634300081a0033",
  "linkReferences": {},
  "deployedLinkReferences": {}
}