{
  "_format": "hh-sol-artifact-1",
  "contractName": "WikiRebalancer",
  "sourceName": "src/WikiRebalancer.sol",
  "abi": [
    {
      "inputs": [
        {
          "internalType": "address",
          "name": "usdc",
          "type": "address"
        },
        {
          "internalType": "address",
          "name": "_oracle",
          "type": "address"
        },
        {
          "internalType": "address",
          "name": "owner",
          "type": "address"
        }
      ],
      "stateMutability": "nonpayable",
      "type": "constructor"
    },
    {
      "inputs": [],
      "name": "EnforcedPause",
      "type": "error"
    },
    {
      "inputs": [],
      "name": "ExpectedPause",
      "type": "error"
    },
    {
      "inputs": [
        {
          "internalType": "address",
          "name": "owner",
          "type": "address"
        }
      ],
      "name": "OwnableInvalidOwner",
      "type": "error"
    },
    {
      "inputs": [
        {
          "internalType": "address",
          "name": "account",
          "type": "address"
        }
      ],
      "name": "OwnableUnauthorizedAccount",
      "type": "error"
    },
    {
      "inputs": [],
      "name": "ReentrancyGuardReentrantCall",
      "type": "error"
    },
    {
      "inputs": [
        {
          "internalType": "address",
          "name": "token",
          "type": "address"
        }
      ],
      "name": "SafeERC20FailedOperation",
      "type": "error"
    },
    {
      "anonymous": false,
      "inputs": [
        {
          "indexed": true,
          "internalType": "uint256",
          "name": "vaultId",
          "type": "uint256"
        },
        {
          "indexed": true,
          "internalType": "address",
          "name": "user",
          "type": "address"
        },
        {
          "indexed": false,
          "internalType": "uint256",
          "name": "usdcAmount",
          "type": "uint256"
        },
        {
          "indexed": false,
          "internalType": "uint256",
          "name": "sharesMinted",
          "type": "uint256"
        }
      ],
      "name": "Deposited",
      "type": "event"
    },
    {
      "anonymous": false,
      "inputs": [
        {
          "indexed": true,
          "internalType": "uint256",
          "name": "vaultId",
          "type": "uint256"
        },
        {
          "indexed": false,
          "internalType": "uint256",
          "name": "amount",
          "type": "uint256"
        },
        {
          "indexed": false,
          "internalType": "string",
          "name": "feeType",
          "type": "string"
        }
      ],
      "name": "FeeCharged",
      "type": "event"
    },
    {
      "anonymous": false,
      "inputs": [
        {
          "indexed": true,
          "internalType": "address",
          "name": "previousOwner",
          "type": "address"
        },
        {
          "indexed": true,
          "internalType": "address",
          "name": "newOwner",
          "type": "address"
        }
      ],
      "name": "OwnershipTransferStarted",
      "type": "event"
    },
    {
      "anonymous": false,
      "inputs": [
        {
          "indexed": true,
          "internalType": "address",
          "name": "previousOwner",
          "type": "address"
        },
        {
          "indexed": true,
          "internalType": "address",
          "name": "newOwner",
          "type": "address"
        }
      ],
      "name": "OwnershipTransferred",
      "type": "event"
    },
    {
      "anonymous": false,
      "inputs": [
        {
          "indexed": false,
          "internalType": "address",
          "name": "account",
          "type": "address"
        }
      ],
      "name": "Paused",
      "type": "event"
    },
    {
      "anonymous": false,
      "inputs": [
        {
          "indexed": true,
          "internalType": "uint256",
          "name": "vaultId",
          "type": "uint256"
        },
        {
          "indexed": true,
          "internalType": "address",
          "name": "keeper",
          "type": "address"
        },
        {
          "indexed": false,
          "internalType": "uint256",
          "name": "drift",
          "type": "uint256"
        },
        {
          "indexed": false,
          "internalType": "uint256",
          "name": "tip",
          "type": "uint256"
        }
      ],
      "name": "Rebalanced",
      "type": "event"
    },
    {
      "anonymous": false,
      "inputs": [
        {
          "indexed": true,
          "internalType": "uint256",
          "name": "stratId",
          "type": "uint256"
        },
        {
          "indexed": false,
          "internalType": "string",
          "name": "name",
          "type": "string"
        },
        {
          "indexed": false,
          "internalType": "address",
          "name": "creator",
          "type": "address"
        }
      ],
      "name": "StrategyRegistered",
      "type": "event"
    },
    {
      "anonymous": false,
      "inputs": [
        {
          "indexed": false,
          "internalType": "address",
          "name": "account",
          "type": "address"
        }
      ],
      "name": "Unpaused",
      "type": "event"
    },
    {
      "anonymous": false,
      "inputs": [
        {
          "indexed": true,
          "internalType": "uint256",
          "name": "vaultId",
          "type": "uint256"
        },
        {
          "indexed": false,
          "internalType": "string",
          "name": "name",
          "type": "string"
        },
        {
          "indexed": false,
          "internalType": "uint256",
          "name": "strategyId",
          "type": "uint256"
        }
      ],
      "name": "VaultCreated",
      "type": "event"
    },
    {
      "anonymous": false,
      "inputs": [
        {
          "indexed": true,
          "internalType": "uint256",
          "name": "vaultId",
          "type": "uint256"
        },
        {
          "indexed": true,
          "internalType": "address",
          "name": "user",
          "type": "address"
        },
        {
          "indexed": false,
          "internalType": "uint256",
          "name": "sharesBurned",
          "type": "uint256"
        },
        {
          "indexed": false,
          "internalType": "uint256",
          "name": "usdcOut",
          "type": "uint256"
        }
      ],
      "name": "Withdrawn",
      "type": "event"
    },
    {
      "inputs": [],
      "name": "BPS",
      "outputs": [
        {
          "internalType": "uint256",
          "name": "",
          "type": "uint256"
        }
      ],
      "stateMutability": "view",
      "type": "function"
    },
    {
      "inputs": [],
      "name": "MAX_DRIFT_THRESHOLD",
      "outputs": [
        {
          "internalType": "uint256",
          "name": "",
          "type": "uint256"
        }
      ],
      "stateMutability": "view",
      "type": "function"
    },
    {
      "inputs": [],
      "name": "MAX_KEEPER_TIP",
      "outputs": [
        {
          "internalType": "uint256",
          "name": "",
          "type": "uint256"
        }
      ],
      "stateMutability": "view",
      "type": "function"
    },
    {
      "inputs": [],
      "name": "MAX_TOKENS",
      "outputs": [
        {
          "internalType": "uint256",
          "name": "",
          "type": "uint256"
        }
      ],
      "stateMutability": "view",
      "type": "function"
    },
    {
      "inputs": [],
      "name": "PRECISION",
      "outputs": [
        {
          "internalType": "uint256",
          "name": "",
          "type": "uint256"
        }
      ],
      "stateMutability": "view",
      "type": "function"
    },
    {
      "inputs": [],
      "name": "REBALANCE_COOLDOWN",
      "outputs": [
        {
          "internalType": "uint256",
          "name": "",
          "type": "uint256"
        }
      ],
      "stateMutability": "view",
      "type": "function"
    },
    {
      "inputs": [],
      "name": "STRATEGY_REG_FEE",
      "outputs": [
        {
          "internalType": "uint256",
          "name": "",
          "type": "uint256"
        }
      ],
      "stateMutability": "view",
      "type": "function"
    },
    {
      "inputs": [],
      "name": "USDC",
      "outputs": [
        {
          "internalType": "contract IERC20",
          "name": "",
          "type": "address"
        }
      ],
      "stateMutability": "view",
      "type": "function"
    },
    {
      "inputs": [],
      "name": "acceptOwnership",
      "outputs": [],
      "stateMutability": "nonpayable",
      "type": "function"
    },
    {
      "inputs": [
        {
          "internalType": "string",
          "name": "name",
          "type": "string"
        },
        {
          "internalType": "uint256",
          "name": "strategyId",
          "type": "uint256"
        },
        {
          "internalType": "address",
          "name": "depositToken",
          "type": "address"
        },
        {
          "internalType": "uint256",
          "name": "perfFeeBps",
          "type": "uint256"
        },
        {
          "internalType": "uint256",
          "name": "mgmtFeeBps",
          "type": "uint256"
        },
        {
          "internalType": "uint256",
          "name": "protocolFeeBps_",
          "type": "uint256"
        }
      ],
      "name": "createVault",
      "outputs": [
        {
          "internalType": "uint256",
          "name": "vaultId",
          "type": "uint256"
        }
      ],
      "stateMutability": "nonpayable",
      "type": "function"
    },
    {
      "inputs": [
        {
          "internalType": "uint256",
          "name": "vaultId",
          "type": "uint256"
        },
        {
          "internalType": "uint256",
          "name": "amount",
          "type": "uint256"
        }
      ],
      "name": "deposit",
      "outputs": [],
      "stateMutability": "nonpayable",
      "type": "function"
    },
    {
      "inputs": [
        {
          "internalType": "uint256",
          "name": "vid",
          "type": "uint256"
        }
      ],
      "name": "drift",
      "outputs": [
        {
          "internalType": "uint256",
          "name": "",
          "type": "uint256"
        }
      ],
      "stateMutability": "view",
      "type": "function"
    },
    {
      "inputs": [
        {
          "internalType": "uint256",
          "name": "sid",
          "type": "uint256"
        }
      ],
      "name": "getStrategy",
      "outputs": [
        {
          "internalType": "uint256",
          "name": "id",
          "type": "uint256"
        },
        {
          "internalType": "string",
          "name": "name",
          "type": "string"
        },
        {
          "internalType": "string",
          "name": "description",
          "type": "string"
        },
        {
          "internalType": "address",
          "name": "creator",
          "type": "address"
        },
        {
          "internalType": "uint256",
          "name": "driftBps",
          "type": "uint256"
        },
        {
          "internalType": "uint256",
          "name": "keeperTip",
          "type": "uint256"
        },
        {
          "internalType": "bool",
          "name": "active",
          "type": "bool"
        },
        {
          "internalType": "uint256",
          "name": "usage",
          "type": "uint256"
        }
      ],
      "stateMutability": "view",
      "type": "function"
    },
    {
      "inputs": [
        {
          "internalType": "uint256",
          "name": "sid",
          "type": "uint256"
        }
      ],
      "name": "getStrategyAllocations",
      "outputs": [
        {
          "components": [
            {
              "internalType": "address",
              "name": "token",
              "type": "address"
            },
            {
              "internalType": "bytes32",
              "name": "oracleId",
              "type": "bytes32"
            },
            {
              "internalType": "uint256",
              "name": "targetBps",
              "type": "uint256"
            }
          ],
          "internalType": "struct WikiRebalancer.TokenAlloc[]",
          "name": "",
          "type": "tuple[]"
        }
      ],
      "stateMutability": "view",
      "type": "function"
    },
    {
      "inputs": [
        {
          "internalType": "uint256",
          "name": "vid",
          "type": "uint256"
        },
        {
          "internalType": "address",
          "name": "user",
          "type": "address"
        }
      ],
      "name": "getUserShares",
      "outputs": [
        {
          "internalType": "uint256",
          "name": "",
          "type": "uint256"
        }
      ],
      "stateMutability": "view",
      "type": "function"
    },
    {
      "inputs": [
        {
          "internalType": "uint256",
          "name": "vid",
          "type": "uint256"
        }
      ],
      "name": "getVault",
      "outputs": [
        {
          "components": [
            {
              "internalType": "uint256",
              "name": "id",
              "type": "uint256"
            },
            {
              "internalType": "string",
              "name": "name",
              "type": "string"
            },
            {
              "internalType": "uint256",
              "name": "strategyId",
              "type": "uint256"
            },
            {
              "internalType": "address",
              "name": "depositToken",
              "type": "address"
            },
            {
              "internalType": "uint256",
              "name": "totalShares",
              "type": "uint256"
            },
            {
              "internalType": "uint256",
              "name": "highWaterMark",
              "type": "uint256"
            },
            {
              "internalType": "uint256",
              "name": "lastRebalance",
              "type": "uint256"
            },
            {
              "internalType": "uint256",
              "name": "lastMgmtFeeTime",
              "type": "uint256"
            },
            {
              "internalType": "uint256",
              "name": "performanceFeeBps",
              "type": "uint256"
            },
            {
              "internalType": "uint256",
              "name": "mgmtFeeBps",
              "type": "uint256"
            },
            {
              "internalType": "uint256",
              "name": "protocolFeesBps",
              "type": "uint256"
            },
            {
              "internalType": "bool",
              "name": "active",
              "type": "bool"
            }
          ],
          "internalType": "struct WikiRebalancer.Vault",
          "name": "",
          "type": "tuple"
        }
      ],
      "stateMutability": "view",
      "type": "function"
    },
    {
      "inputs": [],
      "name": "oracle",
      "outputs": [
        {
          "internalType": "contract IOracle",
          "name": "",
          "type": "address"
        }
      ],
      "stateMutability": "view",
      "type": "function"
    },
    {
      "inputs": [],
      "name": "owner",
      "outputs": [
        {
          "internalType": "address",
          "name": "",
          "type": "address"
        }
      ],
      "stateMutability": "view",
      "type": "function"
    },
    {
      "inputs": [],
      "name": "pause",
      "outputs": [],
      "stateMutability": "nonpayable",
      "type": "function"
    },
    {
      "inputs": [],
      "name": "paused",
      "outputs": [
        {
          "internalType": "bool",
          "name": "",
          "type": "bool"
        }
      ],
      "stateMutability": "view",
      "type": "function"
    },
    {
      "inputs": [],
      "name": "pendingOwner",
      "outputs": [
        {
          "internalType": "address",
          "name": "",
          "type": "address"
        }
      ],
      "stateMutability": "view",
      "type": "function"
    },
    {
      "inputs": [],
      "name": "protocolRevenue",
      "outputs": [
        {
          "internalType": "uint256",
          "name": "",
          "type": "uint256"
        }
      ],
      "stateMutability": "view",
      "type": "function"
    },
    {
      "inputs": [
        {
          "internalType": "uint256",
          "name": "vaultId",
          "type": "uint256"
        }
      ],
      "name": "rebalance",
      "outputs": [],
      "stateMutability": "nonpayable",
      "type": "function"
    },
    {
      "inputs": [
        {
          "internalType": "string",
          "name": "name",
          "type": "string"
        },
        {
          "internalType": "string",
          "name": "description",
          "type": "string"
        },
        {
          "components": [
            {
              "internalType": "address",
              "name": "token",
              "type": "address"
            },
            {
              "internalType": "bytes32",
              "name": "oracleId",
              "type": "bytes32"
            },
            {
              "internalType": "uint256",
              "name": "targetBps",
              "type": "uint256"
            }
          ],
          "internalType": "struct WikiRebalancer.TokenAlloc[]",
          "name": "allocs",
          "type": "tuple[]"
        },
        {
          "internalType": "uint256",
          "name": "driftBps",
          "type": "uint256"
        },
        {
          "internalType": "uint256",
          "name": "keeperTipBps",
          "type": "uint256"
        }
      ],
      "name": "registerStrategy",
      "outputs": [
        {
          "internalType": "uint256",
          "name": "stratId",
          "type": "uint256"
        }
      ],
      "stateMutability": "nonpayable",
      "type": "function"
    },
    {
      "inputs": [],
      "name": "renounceOwnership",
      "outputs": [],
      "stateMutability": "nonpayable",
      "type": "function"
    },
    {
      "inputs": [
        {
          "internalType": "address",
          "name": "_oracle",
          "type": "address"
        }
      ],
      "name": "setOracle",
      "outputs": [],
      "stateMutability": "nonpayable",
      "type": "function"
    },
    {
      "inputs": [
        {
          "internalType": "address",
          "name": "_tl",
          "type": "address"
        }
      ],
      "name": "setTimelock",
      "outputs": [],
      "stateMutability": "nonpayable",
      "type": "function"
    },
    {
      "inputs": [
        {
          "internalType": "uint256",
          "name": "vid",
          "type": "uint256"
        }
      ],
      "name": "sharePrice",
      "outputs": [
        {
          "internalType": "uint256",
          "name": "",
          "type": "uint256"
        }
      ],
      "stateMutability": "view",
      "type": "function"
    },
    {
      "inputs": [
        {
          "internalType": "uint256",
          "name": "",
          "type": "uint256"
        }
      ],
      "name": "strategies",
      "outputs": [
        {
          "internalType": "uint256",
          "name": "id",
          "type": "uint256"
        },
        {
          "internalType": "string",
          "name": "name",
          "type": "string"
        },
        {
          "internalType": "string",
          "name": "description",
          "type": "string"
        },
        {
          "internalType": "address",
          "name": "creator",
          "type": "address"
        },
        {
          "internalType": "uint256",
          "name": "driftThresholdBps",
          "type": "uint256"
        },
        {
          "internalType": "uint256",
          "name": "keeperTipBps",
          "type": "uint256"
        },
        {
          "internalType": "bool",
          "name": "active",
          "type": "bool"
        },
        {
          "internalType": "uint256",
          "name": "usageCount",
          "type": "uint256"
        }
      ],
      "stateMutability": "view",
      "type": "function"
    },
    {
      "inputs": [],
      "name": "strategyCount",
      "outputs": [
        {
          "internalType": "uint256",
          "name": "",
          "type": "uint256"
        }
      ],
      "stateMutability": "view",
      "type": "function"
    },
    {
      "inputs": [],
      "name": "timelock",
      "outputs": [
        {
          "internalType": "address",
          "name": "",
          "type": "address"
        }
      ],
      "stateMutability": "view",
      "type": "function"
    },
    {
      "inputs": [
        {
          "internalType": "address",
          "name": "newOwner",
          "type": "address"
        }
      ],
      "name": "transferOwnership",
      "outputs": [],
      "stateMutability": "nonpayable",
      "type": "function"
    },
    {
      "inputs": [],
      "name": "unpause",
      "outputs": [],
      "stateMutability": "nonpayable",
      "type": "function"
    },
    {
      "inputs": [
        {
          "internalType": "uint256",
          "name": "",
          "type": "uint256"
        },
        {
          "internalType": "address",
          "name": "",
          "type": "address"
        }
      ],
      "name": "userShares",
      "outputs": [
        {
          "internalType": "uint256",
          "name": "",
          "type": "uint256"
        }
      ],
      "stateMutability": "view",
      "type": "function"
    },
    {
      "inputs": [
        {
          "internalType": "uint256",
          "name": "vid",
          "type": "uint256"
        },
        {
          "internalType": "address",
          "name": "user",
          "type": "address"
        }
      ],
      "name": "userValue",
      "outputs": [
        {
          "internalType": "uint256",
          "name": "",
          "type": "uint256"
        }
      ],
      "stateMutability": "view",
      "type": "function"
    },
    {
      "inputs": [
        {
          "internalType": "uint256",
          "name": "",
          "type": "uint256"
        },
        {
          "internalType": "address",
          "name": "",
          "type": "address"
        }
      ],
      "name": "vaultBalances",
      "outputs": [
        {
          "internalType": "uint256",
          "name": "",
          "type": "uint256"
        }
      ],
      "stateMutability": "view",
      "type": "function"
    },
    {
      "inputs": [],
      "name": "vaultCount",
      "outputs": [
        {
          "internalType": "uint256",
          "name": "",
          "type": "uint256"
        }
      ],
      "stateMutability": "view",
      "type": "function"
    },
    {
      "inputs": [
        {
          "internalType": "uint256",
          "name": "",
          "type": "uint256"
        }
      ],
      "name": "vaults",
      "outputs": [
        {
          "internalType": "uint256",
          "name": "id",
          "type": "uint256"
        },
        {
          "internalType": "string",
          "name": "name",
          "type": "string"
        },
        {
          "internalType": "uint256",
          "name": "strategyId",
          "type": "uint256"
        },
        {
          "internalType": "address",
          "name": "depositToken",
          "type": "address"
        },
        {
          "internalType": "uint256",
          "name": "totalShares",
          "type": "uint256"
        },
        {
          "internalType": "uint256",
          "name": "highWaterMark",
          "type": "uint256"
        },
        {
          "internalType": "uint256",
          "name": "lastRebalance",
          "type": "uint256"
        },
        {
          "internalType": "uint256",
          "name": "lastMgmtFeeTime",
          "type": "uint256"
        },
        {
          "internalType": "uint256",
          "name": "performanceFeeBps",
          "type": "uint256"
        },
        {
          "internalType": "uint256",
          "name": "mgmtFeeBps",
          "type": "uint256"
        },
        {
          "internalType": "uint256",
          "name": "protocolFeesBps",
          "type": "uint256"
        },
        {
          "internalType": "bool",
          "name": "active",
          "type": "bool"
        }
      ],
      "stateMutability": "view",
      "type": "function"
    },
    {
      "inputs": [
        {
          "internalType": "uint256",
          "name": "vaultId",
          "type": "uint256"
        },
        {
          "internalType": "uint256",
          "name": "shares",
          "type": "uint256"
        }
      ],
      "name": "withdraw",
      "outputs": [],
      "stateMutability": "nonpayable",
      "type": "function"
    },
    {
      "inputs": [
        {
          "internalType": "address",
          "name": "to",
          "type": "address"
        }
      ],
      "name": "withdrawRevenue",
      "outputs": [],
      "stateMutability": "nonpayable",
      "type": "function"
    }
  ],
  "bytecode": "0x60a0346101c557601f6127d238819003918201601f19168301916001600160401b038311848410176101c9578084926060946040528339810103126101c557610047816101dd565b90610054602082016101dd565b906001600160a01b039061006a906040016101dd565b169182156101b257600180546001600160a01b03199081169091555f80549182168517815560405194916001600160a01b0316907f8be0079c531659141344cd1fd0a4f28419497f9722a3daafe3b4186f6b6457e09080a360017f9b779b17422d0df92223018b32b4d1fa46e071723d6817e2486d003becc55f00556001600160a01b031691821561017e57506001600160a01b031690811561014457608052600380546001600160a01b0319169190911790556040516125e090816101f28239608051818181610d5c015281816113d9015261181a0152f35b60405162461bcd60e51b815260206004820152601260248201527157696b693a207a65726f205f6f7261636c6560701b6044820152606490fd5b62461bcd60e51b815260206004820152600f60248201526e57696b693a207a65726f207573646360881b6044820152606490fd5b631e4fbdf760e01b5f525f60045260245ffd5b5f80fd5b634e487b7160e01b5f52604160045260245ffd5b51906001600160a01b03821682036101c55756fe60806040526004361015610011575f80fd5b5f3560e01c80630434a7c91461173f57806322068b4414611722578063249d39e9146117065780633f4ba83a14611698578063441a3e70146114e957806349ff7c0d146114875780634cdc0f631461146b5780635c975abb146114465780635e420f4c1461139d578063715018a61461133a57806376267ac81461131f57806379ba50971461129a5780637adbf973146112575780637af3816c1461123a5780637dc0d1d0146112125780637e44e22114610dec578063835dc40b146109885780638456cb5914610d8b57806389a3027114610d475780638c64ea4a14610c725780638c93b44914610c545780638da5cb5b14610c2d5780638f4e7a4614610c075780638faee2a814610beb5780639403b63414610a4f578063a2b5355514610a0b578063a7c6a100146109ee578063aaf5eb68146109cc578063ad95487814610988578063bd9815ce1461096a578063bdacb303146108e8578063cfc0cc341461087c578063d33219b414610854578063d574ea3d146107d7578063e2bbb158146105b8578063e30c397814610590578063e412f4c114610467578063f2fde38b146103fa578063f47c84c5146103df5763f4993018146101d1575f80fd5b346103db5760203660031901126103db576004356101ed6120c8565b6101f5612113565b6101fe81611db0565b509061020d6002830154611f74565b5061021e60ff600b85015416612087565b60068301928354610e1081018091116103c75742106103935761024083612401565b936005830154851061035857835f52600760205261271061028c600360405f2094019460018060a01b038654169460018060a01b0386165f52602052600660405f205491015490612049565b0492839142905581151580610330575b6102e8575b50505060405192835260208301527f1cc3d9a34f0de032df6fbefc65eaf5749c40a0e8424bf1db9496e8519da5aeef60403393a360015f8051602061258b83398151915255005b61032892855f52600760205260405f209060018060a01b03165f5260205260405f2061031583825461207a565b90555433906001600160a01b03166123a9565b5f81816102a1565b50845f52600760205260405f2060018060a01b0384165f526020528160405f2054101561029c565b60405162461bcd60e51b815260206004820152601360248201527214908e8818995b1bddc81d1a1c995cda1bdb19606a1b6044820152606490fd5b60405162461bcd60e51b815260206004820152600c60248201526b29211d1031b7b7b63237bbb760a11b6044820152606490fd5b634e487b7160e01b5f52601160045260245ffd5b5f80fd5b346103db575f3660031901126103db576020604051600a8152f35b346103db5760203660031901126103db57610413611d9a565b61041b612100565b60018060a01b0316806001600160601b0360a01b600154161760015560018060a01b035f54167f38d16b8cac22d99fc7c124b9cd0de2d3fa1faef420bfe791d8c362d765e227005f80a3005b346103db5760203660031901126103db5760046104848135611f74565b50018054906001600160401b03821161057c57604051916104ab60208260051b0184611e34565b808352602083019081925f5260205f20915f905b82821061052c578486604051918291602083019060208452518091526040830191905f5b8181106104f1575050500390f35b825180516001600160a01b031685526020818101518187015260409182015191860191909152869550606090940193909201916001016104e3565b604051606081018181106001600160401b0382111761057c57600192600392602092604052848060a01b0388541681528488015483820152600288015460408201528152019401910190926104bf565b634e487b7160e01b5f52604160045260245ffd5b346103db575f3660031901126103db576001546040516001600160a01b039091168152602090f35b346103db576105c636611d6e565b906105cf6120c8565b6105d7612113565b6105e081611db0565b506105f160ff600b83015416612087565b82156107a05761060082612131565b61060982612336565b670de0b6b3a7640000840290848204670de0b6b3a7640000036103c75761062f9161205c565b90811561076957825f52600660205260405f2060018060a01b0333165f5260205260405f2061065f838254611fb4565b905560048101610670838254611fb4565b90555f83815260076020908152604080832060039490940180546001600160a01b0316845293909152902080546106a8908690611fb4565b905560018060a01b039054166040516323b872dd60e01b5f5233600452306024528460445260205f60648180865af19060015f5114821615610748575b6040525f60605215610736575060405192835260208301527fad5b4075b97dbf75ad5c78f7afac948e4ae611c4fdf2825e2ce3c6c96925bf3b60403393a360015f8051602061258b83398151915255005b635274afe760e01b5f5260045260245ffd5b90600181151661076057823b15153d151616906106e5565b503d5f823e3d90fd5b60405162461bcd60e51b815260206004820152600f60248201526e52423a207a65726f2073686172657360881b6044820152606490fd5b60405162461bcd60e51b815260206004820152600f60248201526e14908e881e995c9bc8185b5bdd5b9d608a1b6044820152606490fd5b346103db5760203660031901126103db576004356004548110156103db576107fe90611f74565b50805461085061081060018401611e55565b9261081d60028201611e55565b9060018060a01b036003820154166005820154600683015491600860ff6007860154169401549460405198899889611f19565b0390f35b346103db575f3660031901126103db576002546040516001600160a01b039091168152602090f35b346103db5760203660031901126103db57610898600435611f74565b50805461085060018060a01b036003840154166005840154600685015460ff600787015416916008870154936108dc60026108d560018b01611e55565b9901611e55565b60405198899889611f19565b346103db5760203660031901126103db57610901611d9a565b610909612100565b6001600160a01b0316801561092f576001600160601b0360a01b60025416176002555f80f35b60405162461bcd60e51b815260206004820152601360248201527257696b693a207a65726f2074696d656c6f636b60681b6044820152606490fd5b346103db575f3660031901126103db576020604051630bebc2008152f35b346103db5760403660031901126103db576109a1611d84565b6004355f52600660205260405f209060018060a01b03165f52602052602060405f2054604051908152f35b346103db575f3660031901126103db576020604051670de0b6b3a76400008152f35b346103db575f3660031901126103db576020600554604051908152f35b346103db5760403660031901126103db57610a24611d84565b6004355f52600760205260405f209060018060a01b03165f52602052602060405f2054604051908152f35b346103db5760203660031901126103db575f610160604051610a7081611e18565b828152606060208201528260408201528260608201528260808201528260a08201528260c08201528260e082015282610100820152826101208201528261014082015201526040610ac2600435611db0565b50815190610acf82611e18565b80548252610adf60018201611e55565b916020810192835260028201549184820192835260018060a01b0360038201541660608301908152600482015460808401908152600583015460a08501908152600684015460c0860190815260078501549160e0870192835260088601549361010088019485526009870154956101208901968752610b9a60ff600b600a8b01549a6101408d019b8c520154169961016081019a15158b526101808e519e8f9e8f9360208552516020850152519201526101a08d0190611ef5565b995160608c0152516001600160a01b031660808b01525160a08a01525160c08901525160e0880152516101008701525161012086015251610140850152516101608401525115156101808301520390f35b346103db575f3660031901126103db576020604051610e108152f35b346103db5760203660031901126103db576020610c25600435612401565b604051908152f35b346103db575f3660031901126103db575f546040516001600160a01b039091168152602090f35b346103db5760203660031901126103db576020610c25600435612336565b346103db5760203660031901126103db576004356005548110156103db57610c9b602091611db0565b50805490610cab60018201611e55565b60028201549160018060a01b03600382015416600482015460058301546006840154600785015491600886015493600987015495610d0a60ff600b600a8b01549a015416996101806040519e8f9e8f90815201526101808d0190611ef5565b9960408c015260608b015260808a015260a089015260c088015260e087015261010086015261012085015261014084015215156101608301520390f35b346103db575f3660031901126103db576040517f00000000000000000000000000000000000000000000000000000000000000006001600160a01b03168152602090f35b346103db575f3660031901126103db57610da3612100565b610dab612113565b6001805460ff60a01b1916600160a01b1790556040513381527f62e78cea01bee320cd4e420270b5ea74000d11b0c9f74754ebdbfc544b05a25890602090a1005b346103db5760c03660031901126103db576004356001600160401b0381116103db57610e1c903690600401611d41565b602435916044356001600160a01b03811692908390036103db57606435608435610e44612100565b6004548610156111da5760ff6007610e5b88611f74565b500154161561119d57610bb882116111605761012c8111611123576005549460405191610e8783611e18565b8683526001600160401b03851161057c5760405193610eb0601f8701601f191660200186611e34565b85855236868801116103db578488938789602060019901375f602089840101526020860191825260408601908b825260608701908152608087015f815260a0880191670de0b6b3a7640000835260c08901935f855260e08a01954287526101008b019788526101208b01988952600160401b6101408c019a60a4358c526101608d019d8e52101561057c57610f4b8f60018101600555611db0565b9b909b61111057518b5551805160018c01916001600160401b03821161057c57610f7f82610f798554611de0565b85611fc1565b602090601f831160011461109f579180610fbc92600b9f9e9d9c9b9a9998979695945f92611094575b50508160011b915f199060031b1c19161790565b90555b5160028a015560018060a01b03905116600389019060018060a01b03166001600160601b0360a01b82541617905551600488015551600587015551600686015551600785015551600884015551600983015551600a820155019051151560ff80198354169116179055600861103385611f74565b5001918254915f1983146103c757602095859460017f701349f358b997022f590e787eee47f866f53957dc6c9aaf6535f4114e7ab17f95019055611084604051938493604085526040850191612029565b90878301520390a2604051908152f35b015190505f80610fa8565b90601f19831691845f52815f20925f5b8181106110f8575091600b9f9e9d9c9b9a99989796959492918360019593106110e0575b505050811b019055610fbf565b01515f1960f88460031b161c191690555f80806110d3565b929360206001819287860151815501950193016110af565b634e487b7160e01b5f525f60045260245ffd5b60405162461bcd60e51b81526020600482015260156024820152740a4847440dacedae840cccaca40e8dede40d0d2ced605b1b6044820152606490fd5b60405162461bcd60e51b81526020600482015260156024820152740a4847440e0cae4cc40cccaca40e8dede40d0d2ced605b1b6044820152606490fd5b60405162461bcd60e51b815260206004820152601560248201527452423a20737472617465677920696e61637469766560581b6044820152606490fd5b60405162461bcd60e51b815260206004820152601060248201526f52423a2062616420737472617465677960801b6044820152606490fd5b346103db575f3660031901126103db576003546040516001600160a01b039091168152602090f35b346103db575f3660031901126103db576020600854604051908152f35b346103db5760203660031901126103db57611270611d9a565b611278612100565b600380546001600160a01b0319166001600160a01b0392909216919091179055005b346103db575f3660031901126103db57600154336001600160a01b039091160361130c57600180546001600160a01b03199081169091555f805433928116831782556001600160a01b0316907f8be0079c531659141344cd1fd0a4f28419497f9722a3daafe3b4186f6b6457e09080a3005b63118cdaa760e01b5f523360045260245ffd5b346103db575f3660031901126103db57602060405160648152f35b346103db575f3660031901126103db57611352612100565b600180546001600160a01b03199081169091555f80549182168155906001600160a01b03167f8be0079c531659141344cd1fd0a4f28419497f9722a3daafe3b4186f6b6457e08280a3005b346103db5760203660031901126103db576113b6611d9a565b6113be612100565b6113c66120c8565b6008548015611410576113fd915f6008557f00000000000000000000000000000000000000000000000000000000000000006123a9565b60015f8051602061258b83398151915255005b60405162461bcd60e51b815260206004820152600e60248201526d52423a206e6f20726576656e756560901b6044820152606490fd5b346103db575f3660031901126103db57602060ff60015460a01c166040519015158152f35b346103db575f3660031901126103db5760206040516101f48152f35b346103db5760403660031901126103db576020670de0b6b3a76400006114e06004356114b1611d84565b5f8281526006865260408082206001600160a01b0390931682529186522054906114da90612336565b90612049565b04604051908152f35b346103db576114f736611d6e565b906115006120c8565b611508612113565b61151181611db0565b505f82815260066020908152604080832033845290915290205483116116535761153a82612131565b6115438261227e565b670de0b6b3a764000061155e61155884612336565b85612049565b5f8481526007602090815260408083206003870180546001600160a01b0316855292529091205492909104929091808411611649575b506116059160048492865f52600660205260405f2060018060a01b0333165f5260205260405f206115c689825461207a565b9055016115d487825461207a565b90555f85815260076020908152604080832084546001600160a01b031684529091529020805461031590849061207a565b60405192835260208301527f1c84cc0f96161bdafea718a9094dd21c21d1fb2f9ca2ebb9bd4e39918efbaace60403393a360015f8051602061258b83398151915255005b9250611605611594565b60405162461bcd60e51b815260206004820152601760248201527f52423a20696e73756666696369656e74207368617265730000000000000000006044820152606490fd5b346103db575f3660031901126103db576116b0612100565b60015460ff8160a01c16156116f75760ff60a01b19166001556040513381527f5db9ee0a495bf2e6ff9c91a7834c1ba4fdd244a5e8aa4e537bd38aeae4b073aa90602090a1005b638dfc202b60e01b5f5260045ffd5b346103db575f3660031901126103db5760206040516127108152f35b346103db575f3660031901126103db576020600454604051908152f35b346103db5760a03660031901126103db576004356001600160401b0381116103db5761176f903690600401611d41565b6024356001600160401b0381116103db5761178e903690600401611d41565b604492919235906001600160401b0382116103db57366023830112156103db5781600401356001600160401b0381116103db57602483019260243691606084020101116103db576084356064356117e36120c8565b600283101580611d36575b15611cfb5760648211611cc3576101f48111611c89575f805b848210611bc457612710915003611b7f577f00000000000000000000000000000000000000000000000000000000000000006040516323b872dd60e01b5f523360045230602452630bebc20060445260205f60648180865af19060015f5114821615611b67575b6040525f60605215611b475750600854630bebc20081018091116103c75760085560045496600160401b88101561057c57600188016004556118af88611f74565b5094888655600186016001600160401b03891161057c576118da896118d48354611de0565b83611fc1565b5f89601f8111600114611ae25780611906925f91611ad7575b508160011b915f199060031b1c19161790565b90555b60028601916001600160401b03821161057c5761192a82610f798554611de0565b5f90601f8311600114611a705761195792915f9183611a655750508160011b915f199060031b1c19161790565b90559392935b6003850180546001600160a01b031916331790556005850155600684015560078301805460ff191660011790556004909201915f5b8181106119f857602086807ffd403ba057f10424ab368faa80e20a696c2b965c4b008050f77d375886b787548a896119d7604051928392604084526040840191612029565b33878301520390a260015f8051602061258b83398151915255604051908152f35b611a03818385611f90565b908454600160401b81101561057c57806001611a229201875586612010565b611110576001926002906040906001600160a01b03611a4082611fa0565b85546001600160a01b0319169116178455602081013586850155013591015501611992565b013590508c80610fa8565b601f19831691845f5260205f20925f5b818110611abf5750908460019594939210611aa6575b505050811b01905593929361195d565b01355f19600384901b60f8161c191690558b8080611a96565b91936020600181928787013581550195019201611a80565b90508d01358e6118f3565b5f83815260208120929190601f198216908f5b828210611b2c57505010611b13575b5050600189811b019055611909565b8c01355f1960038c901b60f8161c191690558b80611b04565b84013585556001909401936020938401938e9350018f611af5565b635274afe760e01b5f9081526001600160a01b0391909116600452602490fd5b90600181151661076057823b15153d1516169061186e565b60405162461bcd60e51b815260206004820152601d60248201527f52423a2077656967687473206d7573742073756d20746f2031303030300000006044820152606490fd5b6001600160a01b03611bdf611bda84888b611f90565b611fa0565b1615611c53576040611bf283878a611f90565b013515611c1c57611c146001916040611c0c85898c611f90565b013590611fb4565b910190611807565b60405162461bcd60e51b815260206004820152600f60248201526e14908e881e995c9bc81dd95a59da1d608a1b6044820152606490fd5b60405162461bcd60e51b815260206004820152600e60248201526d29211d103d32b937903a37b5b2b760911b6044820152606490fd5b60405162461bcd60e51b81526020600482015260126024820152710a4847440c8e4d2cce840e8dede40d0d2ced60731b6044820152606490fd5b60405162461bcd60e51b815260206004820152601060248201526f0a4847440e8d2e040e8dede40d0d2ced60831b6044820152606490fd5b60405162461bcd60e51b815260206004820152601360248201527214908e88189859081d1bdad95b8818dbdd5b9d606a1b6044820152606490fd5b50600a8311156117ee565b9181601f840112156103db578235916001600160401b0383116103db57602083818601950101116103db57565b60409060031901126103db576004359060243590565b602435906001600160a01b03821682036103db57565b600435906001600160a01b03821682036103db57565b600554811015611dcc5760055f52600c60205f20910201905f90565b634e487b7160e01b5f52603260045260245ffd5b90600182811c92168015611e0e575b6020831014611dfa57565b634e487b7160e01b5f52602260045260245ffd5b91607f1691611def565b61018081019081106001600160401b0382111761057c57604052565b90601f801991011681019081106001600160401b0382111761057c57604052565b9060405191825f825492611e6884611de0565b8084529360018116908115611ed35750600114611e8f575b50611e8d92500383611e34565b565b90505f9291925260205f20905f915b818310611eb7575050906020611e8d928201015f611e80565b6020919350806001915483858901015201910190918492611e9e565b905060209250611e8d94915060ff191682840152151560051b8201015f611e80565b805180835260209291819084018484015e5f828201840152601f01601f1916010190565b949192611f4160e09794611f4f939b9a99969b88526101006020890152610100880190611ef5565b908682036040880152611ef5565b6001600160a01b039098166060850152608084015260a0830152151560c08201520152565b600454811015611dcc5760045f52600960205f20910201905f90565b9190811015611dcc576060020190565b356001600160a01b03811681036103db5790565b919082018092116103c757565b601f8211611fce57505050565b5f5260205f20906020601f840160051c83019310612006575b601f0160051c01905b818110611ffb575050565b5f8155600101611ff0565b9091508190611fe7565b8054821015611dcc575f52600360205f20910201905f90565b908060209392818452848401375f828201840152601f01601f1916010190565b818102929181159184041417156103c757565b8115612066570490565b634e487b7160e01b5f52601260045260245ffd5b919082039182116103c757565b1561208e57565b60405162461bcd60e51b815260206004820152601260248201527152423a207661756c7420696e61637469766560701b6044820152606490fd5b60025f8051602061258b83398151915254146120f15760025f8051602061258b83398151915255565b633ee5aeb560e01b5f5260045ffd5b5f546001600160a01b0316330361130c57565b60ff60015460a01c1661212257565b63d93c066560e01b5f5260045ffd5b61213a81611db0565b50600981015490811561227957600781019061215782544261207a565b8015612272575f85815260076020908152604080832060038601546001600160a01b0316808552925290912054909464496cebb800926121a192909161219c91612049565b612049565b04908115612272576121ba600a61271092015483612049565b0491429055835f52600760205260405f2060018060a01b0384165f5260205260405f2054811161226c5761223f6080927f718913fb35d0a06ffcded89095bb64a3b5e8fc5d5e73cff1f6e0a8c9f9df18c894865f52600760205260405f209060018060a01b03165f5260205260405f2061223584825461207a565b9055600854611fb4565b60085560405190815260406020820152600a6040820152691b585b9859d95b595b9d60b21b6060820152a2565b50505050565b5050505050565b505050565b61228781611db0565b50600881015480156122795761229c83612336565b9160058101918254928385111561232e57846127106122f5600a826122eb6123009761219c60809b7f718913fb35d0a06ffcded89095bb64a3b5e8fc5d5e73cff1f6e0a8c9f9df18c89d61207a565b0496015486612049565b049155600854611fb4565b60085560405190815260406020820152600b60408201526a706572666f726d616e636560a81b6060820152a2565b505050505050565b61233f81611db0565b50600481015491821561239a575f9081526007602090815260408083206003909401546001600160a01b031683529290522054670de0b6b3a76400008082029291801590840490911417156103c7576123979161205c565b90565b505050670de0b6b3a764000090565b916040519163a9059cbb60e01b5f5260018060a01b031660045260245260205f60448180865af19060015f51148216156123e9575b60405215611b475750565b90600181151661076057823b15153d151616906123de565b905f9161240d81611db0565b5061241b6002820154611f74565b505f8381526007602090815260408083206003909501546001600160a01b0316835293905291909120549182156125825760049190910180546003546001600160a01b0316939092915f5b84811061247557505050505050565b61247f8183612010565b505f85815260076020908152604080832084546001600160a01b031684529091529081902054600183015482516301c9e15560e41b815260048101919091529091816024818c5afa5f918161254f575b50612535575b5061271081029080820461271014901517156103c7576124f78560029261205c565b9101549081811115612527579061250d9161207a565b88811161251e575b50600101612466565b97506001612515565b6125309161207a565b61250d565b61254890670de0b6b3a764000092612049565b045f6124d5565b9091506040813d821161257a575b8161256a60409383611e34565b810103126103db5751905f6124cf565b3d915061255d565b505f9350505056fe9b779b17422d0df92223018b32b4d1fa46e071723d6817e2486d003becc55f00a264697066735822122097e7609373dec7972cb7ae7a05e3976a37e2d477a9a9ad01e45e992b6c408dcc64736f6c634300081a0033",
  "linkReferences": {},
  "deployedLinkReferences": {}
}