{
  "_format": "hh-sol-artifact-1",
  "contractName": "WikiFundingArbVault",
  "sourceName": "src/WikiFundingArbVault.sol",
  "abi": [
    {
      "inputs": [
        {
          "internalType": "address",
          "name": "_usdc",
          "type": "address"
        },
        {
          "internalType": "address",
          "name": "_owner",
          "type": "address"
        }
      ],
      "stateMutability": "nonpayable",
      "type": "constructor"
    },
    {
      "inputs": [
        {
          "internalType": "address",
          "name": "spender",
          "type": "address"
        },
        {
          "internalType": "uint256",
          "name": "allowance",
          "type": "uint256"
        },
        {
          "internalType": "uint256",
          "name": "needed",
          "type": "uint256"
        }
      ],
      "name": "ERC20InsufficientAllowance",
      "type": "error"
    },
    {
      "inputs": [
        {
          "internalType": "address",
          "name": "sender",
          "type": "address"
        },
        {
          "internalType": "uint256",
          "name": "balance",
          "type": "uint256"
        },
        {
          "internalType": "uint256",
          "name": "needed",
          "type": "uint256"
        }
      ],
      "name": "ERC20InsufficientBalance",
      "type": "error"
    },
    {
      "inputs": [
        {
          "internalType": "address",
          "name": "approver",
          "type": "address"
        }
      ],
      "name": "ERC20InvalidApprover",
      "type": "error"
    },
    {
      "inputs": [
        {
          "internalType": "address",
          "name": "receiver",
          "type": "address"
        }
      ],
      "name": "ERC20InvalidReceiver",
      "type": "error"
    },
    {
      "inputs": [
        {
          "internalType": "address",
          "name": "sender",
          "type": "address"
        }
      ],
      "name": "ERC20InvalidSender",
      "type": "error"
    },
    {
      "inputs": [
        {
          "internalType": "address",
          "name": "spender",
          "type": "address"
        }
      ],
      "name": "ERC20InvalidSpender",
      "type": "error"
    },
    {
      "inputs": [],
      "name": "EnforcedPause",
      "type": "error"
    },
    {
      "inputs": [],
      "name": "ExpectedPause",
      "type": "error"
    },
    {
      "inputs": [
        {
          "internalType": "address",
          "name": "owner",
          "type": "address"
        }
      ],
      "name": "OwnableInvalidOwner",
      "type": "error"
    },
    {
      "inputs": [
        {
          "internalType": "address",
          "name": "account",
          "type": "address"
        }
      ],
      "name": "OwnableUnauthorizedAccount",
      "type": "error"
    },
    {
      "inputs": [],
      "name": "ReentrancyGuardReentrantCall",
      "type": "error"
    },
    {
      "inputs": [
        {
          "internalType": "address",
          "name": "token",
          "type": "address"
        }
      ],
      "name": "SafeERC20FailedOperation",
      "type": "error"
    },
    {
      "anonymous": false,
      "inputs": [
        {
          "indexed": true,
          "internalType": "address",
          "name": "owner",
          "type": "address"
        },
        {
          "indexed": true,
          "internalType": "address",
          "name": "spender",
          "type": "address"
        },
        {
          "indexed": false,
          "internalType": "uint256",
          "name": "value",
          "type": "uint256"
        }
      ],
      "name": "Approval",
      "type": "event"
    },
    {
      "anonymous": false,
      "inputs": [
        {
          "indexed": true,
          "internalType": "address",
          "name": "user",
          "type": "address"
        },
        {
          "indexed": false,
          "internalType": "uint256",
          "name": "usdc",
          "type": "uint256"
        },
        {
          "indexed": false,
          "internalType": "uint256",
          "name": "shares",
          "type": "uint256"
        }
      ],
      "name": "Deposit",
      "type": "event"
    },
    {
      "anonymous": false,
      "inputs": [
        {
          "indexed": false,
          "internalType": "address",
          "name": "to",
          "type": "address"
        },
        {
          "indexed": false,
          "internalType": "uint256",
          "name": "amount",
          "type": "uint256"
        }
      ],
      "name": "FeesWithdrawn",
      "type": "event"
    },
    {
      "anonymous": false,
      "inputs": [
        {
          "indexed": false,
          "internalType": "uint256",
          "name": "gain",
          "type": "uint256"
        },
        {
          "indexed": false,
          "internalType": "uint256",
          "name": "loss",
          "type": "uint256"
        },
        {
          "indexed": false,
          "internalType": "uint256",
          "name": "mgmtFee",
          "type": "uint256"
        },
        {
          "indexed": false,
          "internalType": "uint256",
          "name": "perfFee",
          "type": "uint256"
        },
        {
          "indexed": false,
          "internalType": "uint256",
          "name": "newSharePrice",
          "type": "uint256"
        }
      ],
      "name": "Harvest",
      "type": "event"
    },
    {
      "anonymous": false,
      "inputs": [
        {
          "indexed": true,
          "internalType": "address",
          "name": "previousOwner",
          "type": "address"
        },
        {
          "indexed": true,
          "internalType": "address",
          "name": "newOwner",
          "type": "address"
        }
      ],
      "name": "OwnershipTransferStarted",
      "type": "event"
    },
    {
      "anonymous": false,
      "inputs": [
        {
          "indexed": true,
          "internalType": "address",
          "name": "previousOwner",
          "type": "address"
        },
        {
          "indexed": true,
          "internalType": "address",
          "name": "newOwner",
          "type": "address"
        }
      ],
      "name": "OwnershipTransferred",
      "type": "event"
    },
    {
      "anonymous": false,
      "inputs": [
        {
          "indexed": false,
          "internalType": "address",
          "name": "account",
          "type": "address"
        }
      ],
      "name": "Paused",
      "type": "event"
    },
    {
      "anonymous": false,
      "inputs": [
        {
          "indexed": false,
          "internalType": "string",
          "name": "market",
          "type": "string"
        },
        {
          "indexed": false,
          "internalType": "bool",
          "name": "isLongFunding",
          "type": "bool"
        },
        {
          "indexed": false,
          "internalType": "int256",
          "name": "fundingRate",
          "type": "int256"
        },
        {
          "indexed": false,
          "internalType": "uint256",
          "name": "leverage",
          "type": "uint256"
        }
      ],
      "name": "Rebalanced",
      "type": "event"
    },
    {
      "anonymous": false,
      "inputs": [
        {
          "indexed": true,
          "internalType": "address",
          "name": "user",
          "type": "address"
        },
        {
          "indexed": false,
          "internalType": "uint256",
          "name": "shares",
          "type": "uint256"
        },
        {
          "indexed": false,
          "internalType": "uint256",
          "name": "usdc",
          "type": "uint256"
        }
      ],
      "name": "Redeem",
      "type": "event"
    },
    {
      "anonymous": false,
      "inputs": [
        {
          "indexed": true,
          "internalType": "address",
          "name": "from",
          "type": "address"
        },
        {
          "indexed": true,
          "internalType": "address",
          "name": "to",
          "type": "address"
        },
        {
          "indexed": false,
          "internalType": "uint256",
          "name": "value",
          "type": "uint256"
        }
      ],
      "name": "Transfer",
      "type": "event"
    },
    {
      "anonymous": false,
      "inputs": [
        {
          "indexed": false,
          "internalType": "address",
          "name": "account",
          "type": "address"
        }
      ],
      "name": "Unpaused",
      "type": "event"
    },
    {
      "inputs": [],
      "name": "BPS",
      "outputs": [
        {
          "internalType": "uint256",
          "name": "",
          "type": "uint256"
        }
      ],
      "stateMutability": "view",
      "type": "function"
    },
    {
      "inputs": [],
      "name": "MAX_LEVERAGE",
      "outputs": [
        {
          "internalType": "uint256",
          "name": "",
          "type": "uint256"
        }
      ],
      "stateMutability": "view",
      "type": "function"
    },
    {
      "inputs": [],
      "name": "MAX_MGMT_FEE",
      "outputs": [
        {
          "internalType": "uint256",
          "name": "",
          "type": "uint256"
        }
      ],
      "stateMutability": "view",
      "type": "function"
    },
    {
      "inputs": [],
      "name": "MAX_PERF_FEE",
      "outputs": [
        {
          "internalType": "uint256",
          "name": "",
          "type": "uint256"
        }
      ],
      "stateMutability": "view",
      "type": "function"
    },
    {
      "inputs": [],
      "name": "MIN_HARVEST_GAP",
      "outputs": [
        {
          "internalType": "uint256",
          "name": "",
          "type": "uint256"
        }
      ],
      "stateMutability": "view",
      "type": "function"
    },
    {
      "inputs": [],
      "name": "PRECISION",
      "outputs": [
        {
          "internalType": "uint256",
          "name": "",
          "type": "uint256"
        }
      ],
      "stateMutability": "view",
      "type": "function"
    },
    {
      "inputs": [],
      "name": "USDC",
      "outputs": [
        {
          "internalType": "contract IERC20",
          "name": "",
          "type": "address"
        }
      ],
      "stateMutability": "view",
      "type": "function"
    },
    {
      "inputs": [],
      "name": "acceptOwnership",
      "outputs": [],
      "stateMutability": "nonpayable",
      "type": "function"
    },
    {
      "inputs": [],
      "name": "activeLeverage",
      "outputs": [
        {
          "internalType": "uint256",
          "name": "",
          "type": "uint256"
        }
      ],
      "stateMutability": "view",
      "type": "function"
    },
    {
      "inputs": [
        {
          "internalType": "address",
          "name": "owner",
          "type": "address"
        },
        {
          "internalType": "address",
          "name": "spender",
          "type": "address"
        }
      ],
      "name": "allowance",
      "outputs": [
        {
          "internalType": "uint256",
          "name": "",
          "type": "uint256"
        }
      ],
      "stateMutability": "view",
      "type": "function"
    },
    {
      "inputs": [
        {
          "internalType": "address",
          "name": "spender",
          "type": "address"
        },
        {
          "internalType": "uint256",
          "name": "value",
          "type": "uint256"
        }
      ],
      "name": "approve",
      "outputs": [
        {
          "internalType": "bool",
          "name": "",
          "type": "bool"
        }
      ],
      "stateMutability": "nonpayable",
      "type": "function"
    },
    {
      "inputs": [
        {
          "internalType": "address",
          "name": "account",
          "type": "address"
        }
      ],
      "name": "balanceOf",
      "outputs": [
        {
          "internalType": "uint256",
          "name": "",
          "type": "uint256"
        }
      ],
      "stateMutability": "view",
      "type": "function"
    },
    {
      "inputs": [],
      "name": "currentFundingRate",
      "outputs": [
        {
          "internalType": "int256",
          "name": "",
          "type": "int256"
        }
      ],
      "stateMutability": "view",
      "type": "function"
    },
    {
      "inputs": [],
      "name": "currentMarket",
      "outputs": [
        {
          "internalType": "string",
          "name": "",
          "type": "string"
        }
      ],
      "stateMutability": "view",
      "type": "function"
    },
    {
      "inputs": [],
      "name": "decimals",
      "outputs": [
        {
          "internalType": "uint8",
          "name": "",
          "type": "uint8"
        }
      ],
      "stateMutability": "view",
      "type": "function"
    },
    {
      "inputs": [
        {
          "internalType": "uint256",
          "name": "amount",
          "type": "uint256"
        },
        {
          "internalType": "address",
          "name": "receiver",
          "type": "address"
        }
      ],
      "name": "deposit",
      "outputs": [
        {
          "internalType": "uint256",
          "name": "shares",
          "type": "uint256"
        }
      ],
      "stateMutability": "nonpayable",
      "type": "function"
    },
    {
      "inputs": [],
      "name": "estimatedAPY",
      "outputs": [
        {
          "internalType": "uint256",
          "name": "",
          "type": "uint256"
        }
      ],
      "stateMutability": "view",
      "type": "function"
    },
    {
      "inputs": [
        {
          "internalType": "uint256",
          "name": "gain",
          "type": "uint256"
        },
        {
          "internalType": "uint256",
          "name": "loss",
          "type": "uint256"
        }
      ],
      "name": "harvest",
      "outputs": [],
      "stateMutability": "nonpayable",
      "type": "function"
    },
    {
      "inputs": [],
      "name": "highWaterMark",
      "outputs": [
        {
          "internalType": "uint256",
          "name": "",
          "type": "uint256"
        }
      ],
      "stateMutability": "view",
      "type": "function"
    },
    {
      "inputs": [],
      "name": "isLongFunding",
      "outputs": [
        {
          "internalType": "bool",
          "name": "",
          "type": "bool"
        }
      ],
      "stateMutability": "view",
      "type": "function"
    },
    {
      "inputs": [],
      "name": "lastHarvestTime",
      "outputs": [
        {
          "internalType": "uint256",
          "name": "",
          "type": "uint256"
        }
      ],
      "stateMutability": "view",
      "type": "function"
    },
    {
      "inputs": [],
      "name": "lastRebalanceTime",
      "outputs": [
        {
          "internalType": "uint256",
          "name": "",
          "type": "uint256"
        }
      ],
      "stateMutability": "view",
      "type": "function"
    },
    {
      "inputs": [],
      "name": "managementFeeBps",
      "outputs": [
        {
          "internalType": "uint256",
          "name": "",
          "type": "uint256"
        }
      ],
      "stateMutability": "view",
      "type": "function"
    },
    {
      "inputs": [
        {
          "internalType": "address",
          "name": "",
          "type": "address"
        }
      ],
      "name": "managers",
      "outputs": [
        {
          "internalType": "bool",
          "name": "",
          "type": "bool"
        }
      ],
      "stateMutability": "view",
      "type": "function"
    },
    {
      "inputs": [],
      "name": "name",
      "outputs": [
        {
          "internalType": "string",
          "name": "",
          "type": "string"
        }
      ],
      "stateMutability": "view",
      "type": "function"
    },
    {
      "inputs": [],
      "name": "owner",
      "outputs": [
        {
          "internalType": "address",
          "name": "",
          "type": "address"
        }
      ],
      "stateMutability": "view",
      "type": "function"
    },
    {
      "inputs": [],
      "name": "pause",
      "outputs": [],
      "stateMutability": "nonpayable",
      "type": "function"
    },
    {
      "inputs": [],
      "name": "paused",
      "outputs": [
        {
          "internalType": "bool",
          "name": "",
          "type": "bool"
        }
      ],
      "stateMutability": "view",
      "type": "function"
    },
    {
      "inputs": [],
      "name": "pendingOwner",
      "outputs": [
        {
          "internalType": "address",
          "name": "",
          "type": "address"
        }
      ],
      "stateMutability": "view",
      "type": "function"
    },
    {
      "inputs": [],
      "name": "performanceFeeBps",
      "outputs": [
        {
          "internalType": "uint256",
          "name": "",
          "type": "uint256"
        }
      ],
      "stateMutability": "view",
      "type": "function"
    },
    {
      "inputs": [
        {
          "internalType": "string",
          "name": "market",
          "type": "string"
        },
        {
          "internalType": "bool",
          "name": "isLong",
          "type": "bool"
        },
        {
          "internalType": "int256",
          "name": "fundingRate",
          "type": "int256"
        },
        {
          "internalType": "uint256",
          "name": "leverage",
          "type": "uint256"
        },
        {
          "internalType": "uint256",
          "name": "newAUM",
          "type": "uint256"
        }
      ],
      "name": "rebalance",
      "outputs": [],
      "stateMutability": "nonpayable",
      "type": "function"
    },
    {
      "inputs": [
        {
          "internalType": "uint256",
          "name": "shares",
          "type": "uint256"
        },
        {
          "internalType": "address",
          "name": "receiver",
          "type": "address"
        }
      ],
      "name": "redeem",
      "outputs": [
        {
          "internalType": "uint256",
          "name": "usdc",
          "type": "uint256"
        }
      ],
      "stateMutability": "nonpayable",
      "type": "function"
    },
    {
      "inputs": [],
      "name": "renounceOwnership",
      "outputs": [],
      "stateMutability": "nonpayable",
      "type": "function"
    },
    {
      "inputs": [
        {
          "internalType": "uint256",
          "name": "mgmt",
          "type": "uint256"
        },
        {
          "internalType": "uint256",
          "name": "perf",
          "type": "uint256"
        }
      ],
      "name": "setFees",
      "outputs": [],
      "stateMutability": "nonpayable",
      "type": "function"
    },
    {
      "inputs": [
        {
          "internalType": "address",
          "name": "m",
          "type": "address"
        },
        {
          "internalType": "bool",
          "name": "enabled",
          "type": "bool"
        }
      ],
      "name": "setManager",
      "outputs": [],
      "stateMutability": "nonpayable",
      "type": "function"
    },
    {
      "inputs": [
        {
          "internalType": "address",
          "name": "_tl",
          "type": "address"
        }
      ],
      "name": "setTimelock",
      "outputs": [],
      "stateMutability": "nonpayable",
      "type": "function"
    },
    {
      "inputs": [],
      "name": "sharePrice",
      "outputs": [
        {
          "internalType": "uint256",
          "name": "",
          "type": "uint256"
        }
      ],
      "stateMutability": "view",
      "type": "function"
    },
    {
      "inputs": [],
      "name": "symbol",
      "outputs": [
        {
          "internalType": "string",
          "name": "",
          "type": "string"
        }
      ],
      "stateMutability": "view",
      "type": "function"
    },
    {
      "inputs": [],
      "name": "timelock",
      "outputs": [
        {
          "internalType": "address",
          "name": "",
          "type": "address"
        }
      ],
      "stateMutability": "view",
      "type": "function"
    },
    {
      "inputs": [],
      "name": "totalAUM",
      "outputs": [
        {
          "internalType": "uint256",
          "name": "",
          "type": "uint256"
        }
      ],
      "stateMutability": "view",
      "type": "function"
    },
    {
      "inputs": [],
      "name": "totalProtocolFees",
      "outputs": [
        {
          "internalType": "uint256",
          "name": "",
          "type": "uint256"
        }
      ],
      "stateMutability": "view",
      "type": "function"
    },
    {
      "inputs": [],
      "name": "totalSupply",
      "outputs": [
        {
          "internalType": "uint256",
          "name": "",
          "type": "uint256"
        }
      ],
      "stateMutability": "view",
      "type": "function"
    },
    {
      "inputs": [
        {
          "internalType": "address",
          "name": "to",
          "type": "address"
        },
        {
          "internalType": "uint256",
          "name": "value",
          "type": "uint256"
        }
      ],
      "name": "transfer",
      "outputs": [
        {
          "internalType": "bool",
          "name": "",
          "type": "bool"
        }
      ],
      "stateMutability": "nonpayable",
      "type": "function"
    },
    {
      "inputs": [
        {
          "internalType": "address",
          "name": "from",
          "type": "address"
        },
        {
          "internalType": "address",
          "name": "to",
          "type": "address"
        },
        {
          "internalType": "uint256",
          "name": "value",
          "type": "uint256"
        }
      ],
      "name": "transferFrom",
      "outputs": [
        {
          "internalType": "bool",
          "name": "",
          "type": "bool"
        }
      ],
      "stateMutability": "nonpayable",
      "type": "function"
    },
    {
      "inputs": [
        {
          "internalType": "address",
          "name": "newOwner",
          "type": "address"
        }
      ],
      "name": "transferOwnership",
      "outputs": [],
      "stateMutability": "nonpayable",
      "type": "function"
    },
    {
      "inputs": [],
      "name": "unpause",
      "outputs": [],
      "stateMutability": "nonpayable",
      "type": "function"
    },
    {
      "inputs": [
        {
          "internalType": "address",
          "name": "user",
          "type": "address"
        }
      ],
      "name": "userValue",
      "outputs": [
        {
          "internalType": "uint256",
          "name": "",
          "type": "uint256"
        }
      ],
      "stateMutability": "view",
      "type": "function"
    },
    {
      "inputs": [
        {
          "internalType": "address",
          "name": "to",
          "type": "address"
        }
      ],
      "name": "withdrawFees",
      "outputs": [],
      "stateMutability": "nonpayable",
      "type": "function"
    }
  ],
  "bytecode": "0x60a060405234610464576121d76040813803918261001c81610468565b9384928339810103126104645761003e60206100378361048d565b920161048d565b6100486040610468565b91601583527f57696b6963696f75732046756e64696e67204172620000000000000000000000602084015261007d6040610468565b60058152643ba320a92160d91b602082015283519092906001600160401b03811161037557600354600181811c9116801561045a575b602082101461035757601f81116103f7575b50602094601f8211600114610394579481929394955f92610389575b50508160011b915f199060031b1c1916176003555b82516001600160401b03811161037557600454600181811c9116801561036b575b602082101461035757601f81116102f4575b506020601f821160011461029157819293945f92610286575b50508160011b915f199060031b1c1916176004555b6001600160a01b031690811561027357600680546001600160a01b0319908116909155600580549182168417905560405192906001600160a01b03167f8be0079c531659141344cd1fd0a4f28419497f9722a3daafe3b4186f6b6457e05f80a360017f9b779b17422d0df92223018b32b4d1fa46e071723d6817e2486d003becc55f005560326008556103e86009556001600160a01b031690811561023e5750608052670de0b6b3a7640000600a5542600b55604051611d3590816104a282396080518181816104b601528181610a7001528181610b8401528181610f9601526115540152f35b62461bcd60e51b815260206004820152601060248201526f57696b693a207a65726f205f7573646360801b6044820152606490fd5b631e4fbdf760e01b5f525f60045260245ffd5b015190505f80610142565b601f1982169060045f52805f20915f5b8181106102dc575095836001959697106102c4575b505050811b01600455610157565b01515f1960f88460031b161c191690555f80806102b6565b9192602060018192868b0151815501940192016102a1565b60045f527f8a35acfbc15ff81a39ae7d344fd709f28e8600b4aa8c65c6b64bfe7fe36bd19b601f830160051c8101916020841061034d575b601f0160051c01905b8181106103425750610129565b5f8155600101610335565b909150819061032c565b634e487b7160e01b5f52602260045260245ffd5b90607f1690610117565b634e487b7160e01b5f52604160045260245ffd5b015190505f806100e1565b601f1982169560035f52805f20915f5b8881106103df575083600195969798106103c7575b505050811b016003556100f6565b01515f1960f88460031b161c191690555f80806103b9565b919260206001819286850151815501940192016103a4565b60035f527fc2575a0e9e593c00f959f8c92f12db2869c3395a3b0502d05e2516446f71f85b601f830160051c81019160208410610450575b601f0160051c01905b81811061044557506100c5565b5f8155600101610438565b909150819061042f565b90607f16906100b3565b5f80fd5b6040519190601f01601f191682016001600160401b0381118382101761037557604052565b51906001600160a01b03821682036104645756fe60806040526004361015610011575f80fd5b5f3560e01c806306fdde031461179b578063095ea7b3146117195780630b78f9c0146116a5578063164e68de1461150c57806318160ddd146114ef5780631e8410da146114d257806323b872dd146113f3578063249d39e9146113d7578063313ce567146113bc5780633813c35a1461139f5780633aef4d0b146113825780633f4ba83a146113145780634c17b55e146112f85780635c975abb146112d3578063608ee8f3146110265780636e553f6514610ef057806370a0823114610eb9578063715018a614610e5457806377fbce3814610e3757806379ba509714610db15780637ac7fa5014610d965780637bde82f214610b1a5780638456cb5914610ab95780638726972914610a9f57806389a3027114610a5b5780638da5cb5b14610a3357806390a82112146109e157806395d89b411461093c5780639b45ec9714610921578063a1c1e244146108ff578063a5e90eee146108af578063a9059cbb1461087e578063aaf5eb681461085c578063b3ad1e9014610840578063b9d4e87914610823578063bdacb3031461079c578063c6675cc9146106d5578063ceb0f626146106b8578063d33219b414610690578063d9ca21d514610673578063dd62ed3e14610623578063de5f654c14610606578063e30c3978146105de578063e4a4b7b114610315578063f19993d7146102f3578063f2fde38b14610287578063f526e39a1461026a5763fdff9b4d14610229575f80fd5b34610266576020366003190112610266576001600160a01b0361024a61186a565b165f526013602052602060ff60405f2054166040519015158152f35b5f80fd5b34610266575f366003190112610266576020600c54604051908152f35b34610266576020366003190112610266576102a061186a565b6102a8611a7c565b600680546001600160a01b0319166001600160a01b039283169081179091556005549091167f38d16b8cac22d99fc7c124b9cd0de2d3fa1faef420bfe791d8c362d765e227005f80a3005b34610266575f36600319011261026657602061030d611a31565b604051908152f35b346102665761032336611896565b9061032c611a90565b335f52601360205260ff60405f20541680156105ca575b61034c90611929565b600b54613840810180821161045c5742106105955761038b6103736301e1338092426119ad565b612710610385600d54600854906119ba565b046119ba565b04905f928082118061058c575b6104ae575b6103a784846119a0565b93600d548086116104a6575b6103c0866103cd926119ad565b9586600d55600c546119a0565b600c5542600b5560025493841561047057670de0b6b3a7640000860295808704670de0b6b3a7640000149015171561045c5761042c60a0957f8f54e9a5e99de001015931045d11034670730d338028e661dbd6694088f6f3bb976119cd565b925b6040519485526020850152604084015260608301526080820152a160015f80516020611ce083398151915255005b634e487b7160e01b5f52601160045260245ffd5b7f8f54e9a5e99de001015931045d11034670730d338028e661dbd6694088f6f3bb955060a09450670de0b6b3a76400009261042e565b9450846103b3565b6104da8230337f0000000000000000000000000000000000000000000000000000000000000000611c32565b6104e481836119ad565b60025480610502575b506104fa90600d546119a0565b600d5561039d565b61050e82600d546119a0565b670de0b6b3a7640000810290808204670de0b6b3a7640000149015171561045c5781610539916119cd565b90600a5480831161054c575b50506104ed565b829750670de0b6b3a76400006105756127109361057061057f946104fa98976119ad565b6119ba565b04600954906119ba565b0495600a55908680610545565b50811515610398565b60405162461bcd60e51b815260206004820152600d60248201526c2320ab1d103a37b79039b7b7b760991b6044820152606490fd5b506005546001600160a01b03163314610343565b34610266575f366003190112610266576006546040516001600160a01b039091168152602090f35b34610266575f366003190112610266576020600d54604051908152f35b346102665760403660031901126102665761063c61186a565b610644611880565b6001600160a01b039182165f908152600160209081526040808320949093168252928352819020549051908152f35b34610266575f366003190112610266576020601254604051908152f35b34610266575f366003190112610266576007546040516001600160a01b039091168152602090f35b34610266575f366003190112610266576020600b54604051908152f35b34610266575f366003190112610266576040515f6011546106f5816118bb565b8084529060018116908115610778575060011461072d575b6107298361071d818503826118f3565b60405191829182611840565b0390f35b60115f9081525f80516020611cc0833981519152939250905b80821061075e5750909150810160200161071d61070d565b919260018160209254838588010152019101909291610746565b60ff191660208086019190915291151560051b8401909101915061071d905061070d565b34610266576020366003190112610266576107b561186a565b6107bd611a7c565b6001600160a01b031680156107e8576bffffffffffffffffffffffff60a01b60075416176007555f80f35b60405162461bcd60e51b815260206004820152601360248201527257696b693a207a65726f2074696d656c6f636b60681b6044820152606490fd5b34610266575f366003190112610266576020600954604051908152f35b34610266575f3660031901126102665760206040516138408152f35b34610266575f366003190112610266576020604051670de0b6b3a76400008152f35b34610266576040366003190112610266576108a461089a61186a565b6024359033611b49565b602060405160018152f35b34610266576040366003190112610266576108c861186a565b6108d06118ac565b906108d9611a7c565b60018060a01b03165f52601360205260405f209060ff8019835416911515161790555f80f35b34610266575f36600319011261026657602060ff600f54166040519015158152f35b34610266575f36600319011261026657602060405160058152f35b34610266575f366003190112610266576040515f60045461095c816118bb565b80845290600181169081156107785750600114610983576107298361071d818503826118f3565b60045f9081527f8a35acfbc15ff81a39ae7d344fd709f28e8600b4aa8c65c6b64bfe7fe36bd19b939250905b8082106109c75750909150810160200161071d61070d565b9192600181602092548385880101520191019092916109af565b34610266576020366003190112610266576001600160a01b03610a0261186a565b165f525f6020526020670de0b6b3a7640000610a2a60405f2054610a246119eb565b906119ba565b04604051908152f35b34610266575f366003190112610266576005546040516001600160a01b039091168152602090f35b34610266575f366003190112610266576040517f00000000000000000000000000000000000000000000000000000000000000006001600160a01b03168152602090f35b34610266575f36600319011261026657602061030d6119eb565b34610266575f36600319011261026657610ad1611a7c565b610ad9611be0565b6006805460ff60a01b1916600160a01b1790556040513381527f62e78cea01bee320cd4e420270b5ea74000d11b0c9f74754ebdbfc544b05a25890602090a1005b3461026657604036600319011261026657600435610b36611880565b610b3e611a90565b610b46611be0565b610b51821515611968565b335f525f6020528160405f205410610d5157610b6c82611c9b565b6040516370a0823160e01b81523060048201529091907f0000000000000000000000000000000000000000000000000000000000000000906020816024816001600160a01b0386165afa8015610d465784915f91610d11575b5010610ccc573315610cb957335f525f60205260405f2054848110610c9e578492610c4c926020968693335f525f89520360405f205584600254036002555f6040518681527fddf252ad1be2c89b69c2b068fc378daa952ba7f163c4a11628f55a4df523b3ef893392a3600d548380821115610c9657610c44916119ad565b600d55611ac8565b60405190815281838201527fe5b754fb1abb7f01b499791d0b820ae3b6af3424ac1c59768edb53f4ec31a92960403392a260015f80516020611ce083398151915255604051908152f35b50505f610c44565b849063391434e360e21b5f523360045260245260445260645ffd5b634b637e8f60e11b5f525f60045260245ffd5b60405162461bcd60e51b815260206004820152601760248201527f4641563a206177616974696e6720726562616c616e63650000000000000000006044820152606490fd5b9150506020813d602011610d3e575b81610d2d602093836118f3565b810103126102665783905186610bc5565b3d9150610d20565b6040513d5f823e3d90fd5b60405162461bcd60e51b815260206004820152601860248201527f4641563a20696e73756666696369656e742073686172657300000000000000006044820152606490fd5b34610266575f36600319011261026657602060405160648152f35b34610266575f36600319011261026657600654336001600160a01b0390911603610e2457600680546001600160a01b0319908116909155600580543392811683179091556001600160a01b03167f8be0079c531659141344cd1fd0a4f28419497f9722a3daafe3b4186f6b6457e05f80a3005b63118cdaa760e01b5f523360045260245ffd5b34610266575f366003190112610266576020601054604051908152f35b34610266575f36600319011261026657610e6c611a7c565b600680546001600160a01b03199081169091556005805491821690555f906001600160a01b03167f8be0079c531659141344cd1fd0a4f28419497f9722a3daafe3b4186f6b6457e08280a3005b34610266576020366003190112610266576001600160a01b03610eda61186a565b165f525f602052602060405f2054604051908152f35b3461026657604036600319011261026657600435610f0c611880565b610f14611a90565b610f1c611be0565b610f27821515611968565b610f3082611bfe565b6001600160a01b0390911691821561101357602092610f51836002546119a0565b600255805f525f845260405f208381540190555f7fddf252ad1be2c89b69c2b068fc378daa952ba7f163c4a11628f55a4df523b3ef85604051868152a3610fba8130337f0000000000000000000000000000000000000000000000000000000000000000611c32565b610fc681600d546119a0565b600d5560405190815281838201527f90890809c654f11d6e72a28fa60149770a0d11ec6c92319d6ceb2bb0a4ea1a1560403392a260015f80516020611ce083398151915255604051908152f35b63ec442f0560e01b5f525f60045260245ffd5b346102665760a03660031901126102665760043567ffffffffffffffff8111610266573660238201121561026657806004013567ffffffffffffffff81116102665736602482840101116102665761107c6118ac565b60443560643591335f52601360205260ff60405f20541680156112bf575b6110a390611929565b60058311611281576110b66011546118bb565b601f8111611219575b505f601f851160011461117d57927e594b676ae1fd706fc877904062806a75e181aaed644c75aa18f6a3e77a005e9592859260249660a0965f91611170575b508460011b905f198660031b1c1916176011555b151560ff19600f541660ff821617600f5581600e5582601055608435600d5542601255836040519788966080885282608089015201878701375f858501870152602085015260408401526060830152601f01601f19168101030190a1005b88915086010135896110fe565b601f1985169060115f525f80516020611cc0833981519152915f5b8181106111fe57509260a095927e594b676ae1fd706fc877904062806a75e181aaed644c75aa18f6a3e77a005e9895928860249996106111e3575b5050600184811b01601155611112565b86018801355f19600387901b60f8161c1916905588806111d3565b91926020600181926024878d01013581550194019201611198565b60115f52601f850160051c5f80516020611cc083398151915201906020861061126c575b601f0160051c5f80516020611cc083398151915201905b81811061126157506110bf565b5f8155600101611254565b5f80516020611cc0833981519152915061123d565b60405162461bcd60e51b815260206004820152601660248201527508c82ac7440d8caeccae4c2ceca40e8dede40d0d2ced60531b6044820152606490fd5b506005546001600160a01b0316331461109a565b34610266575f36600319011261026657602060ff60065460a01c166040519015158152f35b34610266575f3660031901126102665760206040516107d08152f35b34610266575f3660031901126102665761132c611a7c565b60065460ff8160a01c16156113735760ff60a01b19166006556040513381527f5db9ee0a495bf2e6ff9c91a7834c1ba4fdd244a5e8aa4e537bd38aeae4b073aa90602090a1005b638dfc202b60e01b5f5260045ffd5b34610266575f366003190112610266576020600e54604051908152f35b34610266575f366003190112610266576020600854604051908152f35b34610266575f36600319011261026657602060405160128152f35b34610266575f3660031901126102665760206040516127108152f35b346102665760603660031901126102665761140c61186a565b611414611880565b6001600160a01b0382165f818152600160209081526040808320338452909152902054909260443592915f198110611452575b506108a49350611b49565b8381106114b75784156114a4573315611491576108a4945f52600160205260405f2060018060a01b0333165f526020528360405f209103905584611447565b634a1406b160e11b5f525f60045260245ffd5b63e602df0560e01b5f525f60045260245ffd5b8390637dc7a0d960e11b5f523360045260245260445260645ffd5b34610266575f366003190112610266576020600a54604051908152f35b34610266575f366003190112610266576020600254604051908152f35b346102665760203660031901126102665761152561186a565b61152d611a7c565b611535611a90565b600c54908115611671576040516370a0823160e01b81523060048201527f000000000000000000000000000000000000000000000000000000000000000091906020816024816001600160a01b0387165afa8015610d465784915f9161163c575b50106115f757826115cf7fc0819c13be868895eb93e40eaceb96de976442fa1d404e5c55f14bb65a8c489a94836040955f600c55611ac8565b82516001600160a01b0390921682526020820152a160015f80516020611ce083398151915255005b60405162461bcd60e51b815260206004820152601860248201527f4641563a20696e73756666696369656e74206c697175696400000000000000006044820152606490fd5b9150506020813d602011611669575b81611658602093836118f3565b810103126102665783905185611596565b3d915061164b565b60405162461bcd60e51b815260206004820152600c60248201526b4641563a206e6f206665657360a01b6044820152606490fd5b34610266576116b336611896565b906116bc611a7c565b60648111158061170d575b156116d457600855600955005b60405162461bcd60e51b815260206004820152601160248201527008c82ac7440cccaca40e8dede40d0d2ced607b1b6044820152606490fd5b506107d08211156116c7565b346102665760403660031901126102665761173261186a565b6024359033156114a4576001600160a01b031690811561149157335f52600160205260405f20825f526020528060405f20556040519081527f8c5be1e5ebec7d5bd14f71427d1e84f3dd0314c0f7b2291e5b200ac8c7c3b92560203392a3602060405160018152f35b34610266575f366003190112610266576040515f6003546117bb816118bb565b808452906001811690811561077857506001146117e2576107298361071d818503826118f3565b60035f9081527fc2575a0e9e593c00f959f8c92f12db2869c3395a3b0502d05e2516446f71f85b939250905b8082106118265750909150810160200161071d61070d565b91926001816020925483858801015201910190929161180e565b602060409281835280519182918282860152018484015e5f828201840152601f01601f1916010190565b600435906001600160a01b038216820361026657565b602435906001600160a01b038216820361026657565b6040906003190112610266576004359060243590565b60243590811515820361026657565b90600182811c921680156118e9575b60208310146118d557565b634e487b7160e01b5f52602260045260245ffd5b91607f16916118ca565b90601f8019910116810190811067ffffffffffffffff82111761191557604052565b634e487b7160e01b5f52604160045260245ffd5b1561193057565b60405162461bcd60e51b815260206004820152601060248201526f2320ab1d103737ba1036b0b730b3b2b960811b6044820152606490fd5b1561196f57565b60405162461bcd60e51b81526020600482015260096024820152684641563a207a65726f60b81b6044820152606490fd5b9190820180921161045c57565b9190820391821161045c57565b8181029291811591840414171561045c57565b81156119d7570490565b634e487b7160e01b5f52601260045260245ffd5b60025480611a005750670de0b6b3a764000090565b600d5490670de0b6b3a7640000820291808304670de0b6b3a7640000149015171561045c57611a2e916119cd565b90565b600e545f811315611a775760038102908082046003148115171561045c57610447029080820461016d149015171561045c57611a7361271091600954906119ba565b0490565b505f90565b6005546001600160a01b03163303610e2457565b60025f80516020611ce08339815191525414611ab95760025f80516020611ce083398151915255565b633ee5aeb560e01b5f5260045ffd5b916040519163a9059cbb60e01b5f5260018060a01b031660045260245260205f60448180865af19060015f5114821615611b28575b60405215611b085750565b635274afe760e01b5f9081526001600160a01b0391909116600452602490fd5b906001811516611b4057823b15153d15161690611afd565b503d5f823e3d90fd5b6001600160a01b0316908115610cb9576001600160a01b031691821561101357815f525f60205260405f2054818110611bc757817fddf252ad1be2c89b69c2b068fc378daa952ba7f163c4a11628f55a4df523b3ef92602092855f525f84520360405f2055845f525f825260405f20818154019055604051908152a3565b8263391434e360e21b5f5260045260245260445260645ffd5b60ff60065460a01c16611bef57565b63d93c066560e01b5f5260045ffd5b60025480158015611c28575b611c2457611c1b90611a2e926119ba565b600d54906119cd565b5090565b50600d5415611c0a565b6040516323b872dd60e01b5f9081526001600160a01b039384166004529290931660245260449390935260209060648180865af19060015f5114821615611c83575b6040525f60605215611b085750565b906001811516611b4057823b15153d15161690611c74565b6002548015611cb957611cb4611a2e92600d54906119ba565b6119cd565b50505f9056fe31ecc21a745e3968a04e9570e4425bc18fa8019c68028196b546d1669c200c689b779b17422d0df92223018b32b4d1fa46e071723d6817e2486d003becc55f00a2646970667358221220690346d36d43d461b1c49fab4d7ebe5773d79521d88ccc825b8ca89ee5d6596764736f6c634300081a0033",
  "linkReferences": {},
  "deployedLinkReferences": {}
}