{
  "_format": "hh-sol-artifact-1",
  "contractName": "WikiGMXBackstop",
  "sourceName": "src/WikiGMXBackstop.sol",
  "abi": [
    {
      "inputs": [
        {
          "internalType": "address",
          "name": "_vault",
          "type": "address"
        },
        {
          "internalType": "address",
          "name": "_oracle",
          "type": "address"
        },
        {
          "internalType": "address",
          "name": "_feeRecipient",
          "type": "address"
        },
        {
          "internalType": "address",
          "name": "owner",
          "type": "address"
        }
      ],
      "stateMutability": "nonpayable",
      "type": "constructor"
    },
    {
      "inputs": [],
      "name": "EnforcedPause",
      "type": "error"
    },
    {
      "inputs": [],
      "name": "ExpectedPause",
      "type": "error"
    },
    {
      "inputs": [
        {
          "internalType": "address",
          "name": "owner",
          "type": "address"
        }
      ],
      "name": "OwnableInvalidOwner",
      "type": "error"
    },
    {
      "inputs": [
        {
          "internalType": "address",
          "name": "account",
          "type": "address"
        }
      ],
      "name": "OwnableUnauthorizedAccount",
      "type": "error"
    },
    {
      "inputs": [],
      "name": "ReentrancyGuardReentrantCall",
      "type": "error"
    },
    {
      "inputs": [
        {
          "internalType": "address",
          "name": "token",
          "type": "address"
        }
      ],
      "name": "SafeERC20FailedOperation",
      "type": "error"
    },
    {
      "anonymous": false,
      "inputs": [
        {
          "indexed": true,
          "internalType": "bytes32",
          "name": "gmxKey",
          "type": "bytes32"
        },
        {
          "indexed": true,
          "internalType": "address",
          "name": "trader",
          "type": "address"
        },
        {
          "indexed": false,
          "internalType": "bytes32",
          "name": "marketId",
          "type": "bytes32"
        },
        {
          "indexed": false,
          "internalType": "bool",
          "name": "isLong",
          "type": "bool"
        },
        {
          "indexed": false,
          "internalType": "uint256",
          "name": "size",
          "type": "uint256"
        }
      ],
      "name": "BackstopOrderPlaced",
      "type": "event"
    },
    {
      "anonymous": false,
      "inputs": [
        {
          "indexed": true,
          "internalType": "bytes32",
          "name": "gmxKey",
          "type": "bytes32"
        },
        {
          "indexed": true,
          "internalType": "address",
          "name": "trader",
          "type": "address"
        },
        {
          "indexed": false,
          "internalType": "int256",
          "name": "pnl",
          "type": "int256"
        }
      ],
      "name": "BackstopOrderSettled",
      "type": "event"
    },
    {
      "anonymous": false,
      "inputs": [
        {
          "indexed": true,
          "internalType": "bytes32",
          "name": "marketId",
          "type": "bytes32"
        },
        {
          "indexed": false,
          "internalType": "address",
          "name": "gmxMarket",
          "type": "address"
        }
      ],
      "name": "GMXMarketSet",
      "type": "event"
    },
    {
      "anonymous": false,
      "inputs": [
        {
          "indexed": false,
          "internalType": "uint256",
          "name": "newSize",
          "type": "uint256"
        }
      ],
      "name": "MinRouteSizeUpdated",
      "type": "event"
    },
    {
      "anonymous": false,
      "inputs": [
        {
          "indexed": true,
          "internalType": "address",
          "name": "previousOwner",
          "type": "address"
        },
        {
          "indexed": true,
          "internalType": "address",
          "name": "newOwner",
          "type": "address"
        }
      ],
      "name": "OwnershipTransferStarted",
      "type": "event"
    },
    {
      "anonymous": false,
      "inputs": [
        {
          "indexed": true,
          "internalType": "address",
          "name": "previousOwner",
          "type": "address"
        },
        {
          "indexed": true,
          "internalType": "address",
          "name": "newOwner",
          "type": "address"
        }
      ],
      "name": "OwnershipTransferred",
      "type": "event"
    },
    {
      "anonymous": false,
      "inputs": [
        {
          "indexed": false,
          "internalType": "address",
          "name": "account",
          "type": "address"
        }
      ],
      "name": "Paused",
      "type": "event"
    },
    {
      "anonymous": false,
      "inputs": [
        {
          "indexed": false,
          "internalType": "uint256",
          "name": "wikFee",
          "type": "uint256"
        },
        {
          "indexed": false,
          "internalType": "uint256",
          "name": "gmxFee",
          "type": "uint256"
        },
        {
          "indexed": false,
          "internalType": "uint256",
          "name": "netRevenue",
          "type": "uint256"
        }
      ],
      "name": "RevenueEarned",
      "type": "event"
    },
    {
      "anonymous": false,
      "inputs": [
        {
          "indexed": false,
          "internalType": "address",
          "name": "account",
          "type": "address"
        }
      ],
      "name": "Unpaused",
      "type": "event"
    },
    {
      "inputs": [],
      "name": "BPS",
      "outputs": [
        {
          "internalType": "uint256",
          "name": "",
          "type": "uint256"
        }
      ],
      "stateMutability": "view",
      "type": "function"
    },
    {
      "inputs": [],
      "name": "GMX_DATASTORE",
      "outputs": [
        {
          "internalType": "address",
          "name": "",
          "type": "address"
        }
      ],
      "stateMutability": "view",
      "type": "function"
    },
    {
      "inputs": [],
      "name": "GMX_EXCHANGE_ROUTER",
      "outputs": [
        {
          "internalType": "address",
          "name": "",
          "type": "address"
        }
      ],
      "stateMutability": "view",
      "type": "function"
    },
    {
      "inputs": [],
      "name": "GMX_EXECUTION_FEE",
      "outputs": [
        {
          "internalType": "uint256",
          "name": "",
          "type": "uint256"
        }
      ],
      "stateMutability": "view",
      "type": "function"
    },
    {
      "inputs": [],
      "name": "GMX_OPEN_FEE_BPS",
      "outputs": [
        {
          "internalType": "uint256",
          "name": "",
          "type": "uint256"
        }
      ],
      "stateMutability": "view",
      "type": "function"
    },
    {
      "inputs": [],
      "name": "GMX_ORDER_HANDLER",
      "outputs": [
        {
          "internalType": "address",
          "name": "",
          "type": "address"
        }
      ],
      "stateMutability": "view",
      "type": "function"
    },
    {
      "inputs": [],
      "name": "GMX_ORDER_VAULT",
      "outputs": [
        {
          "internalType": "address",
          "name": "",
          "type": "address"
        }
      ],
      "stateMutability": "view",
      "type": "function"
    },
    {
      "inputs": [],
      "name": "GMX_READER",
      "outputs": [
        {
          "internalType": "address",
          "name": "",
          "type": "address"
        }
      ],
      "stateMutability": "view",
      "type": "function"
    },
    {
      "inputs": [],
      "name": "GMX_ROUTER",
      "outputs": [
        {
          "internalType": "address",
          "name": "",
          "type": "address"
        }
      ],
      "stateMutability": "view",
      "type": "function"
    },
    {
      "inputs": [],
      "name": "USDC",
      "outputs": [
        {
          "internalType": "contract IERC20",
          "name": "",
          "type": "address"
        }
      ],
      "stateMutability": "view",
      "type": "function"
    },
    {
      "inputs": [],
      "name": "USDC_ADDR",
      "outputs": [
        {
          "internalType": "address",
          "name": "",
          "type": "address"
        }
      ],
      "stateMutability": "view",
      "type": "function"
    },
    {
      "inputs": [],
      "name": "WETH_ADDR",
      "outputs": [
        {
          "internalType": "address",
          "name": "",
          "type": "address"
        }
      ],
      "stateMutability": "view",
      "type": "function"
    },
    {
      "inputs": [],
      "name": "WIK_TAKER_FEE_BPS",
      "outputs": [
        {
          "internalType": "uint256",
          "name": "",
          "type": "uint256"
        }
      ],
      "stateMutability": "view",
      "type": "function"
    },
    {
      "inputs": [],
      "name": "acceptOwnership",
      "outputs": [],
      "stateMutability": "nonpayable",
      "type": "function"
    },
    {
      "inputs": [
        {
          "internalType": "bytes32",
          "name": "key",
          "type": "bytes32"
        },
        {
          "components": [
            {
              "internalType": "bytes32",
              "name": "key",
              "type": "bytes32"
            },
            {
              "internalType": "address",
              "name": "account",
              "type": "address"
            },
            {
              "internalType": "address",
              "name": "receiver",
              "type": "address"
            },
            {
              "internalType": "address",
              "name": "callbackContract",
              "type": "address"
            },
            {
              "internalType": "address",
              "name": "uiFeeReceiver",
              "type": "address"
            },
            {
              "internalType": "address",
              "name": "market",
              "type": "address"
            },
            {
              "internalType": "address",
              "name": "initialCollateralToken",
              "type": "address"
            },
            {
              "internalType": "uint256[]",
              "name": "swapPath",
              "type": "uint256[]"
            },
            {
              "components": [
                {
                  "internalType": "uint256",
                  "name": "sizeDeltaUsd",
                  "type": "uint256"
                },
                {
                  "internalType": "uint256",
                  "name": "initialCollateralDeltaAmount",
                  "type": "uint256"
                },
                {
                  "internalType": "uint256",
                  "name": "triggerPrice",
                  "type": "uint256"
                },
                {
                  "internalType": "uint256",
                  "name": "acceptablePrice",
                  "type": "uint256"
                },
                {
                  "internalType": "uint256",
                  "name": "executionFee",
                  "type": "uint256"
                },
                {
                  "internalType": "uint256",
                  "name": "callbackGasLimit",
                  "type": "uint256"
                },
                {
                  "internalType": "uint256",
                  "name": "minOutputAmount",
                  "type": "uint256"
                },
                {
                  "internalType": "uint256",
                  "name": "updatedAtBlock",
                  "type": "uint256"
                }
              ],
              "internalType": "struct Order.Numbers",
              "name": "numbers",
              "type": "tuple"
            },
            {
              "internalType": "bool",
              "name": "isLong",
              "type": "bool"
            },
            {
              "internalType": "bool",
              "name": "shouldUnwrapNativeToken",
              "type": "bool"
            },
            {
              "internalType": "bool",
              "name": "isFrozen",
              "type": "bool"
            }
          ],
          "internalType": "struct Order.Props",
          "name": "",
          "type": "tuple"
        },
        {
          "components": [
            {
              "internalType": "bytes32",
              "name": "key",
              "type": "bytes32"
            }
          ],
          "internalType": "struct WikiGMXBackstop.EventLogData",
          "name": "",
          "type": "tuple"
        }
      ],
      "name": "afterOrderCancellation",
      "outputs": [],
      "stateMutability": "nonpayable",
      "type": "function"
    },
    {
      "inputs": [
        {
          "internalType": "bytes32",
          "name": "key",
          "type": "bytes32"
        },
        {
          "components": [
            {
              "internalType": "bytes32",
              "name": "key",
              "type": "bytes32"
            },
            {
              "internalType": "address",
              "name": "account",
              "type": "address"
            },
            {
              "internalType": "address",
              "name": "receiver",
              "type": "address"
            },
            {
              "internalType": "address",
              "name": "callbackContract",
              "type": "address"
            },
            {
              "internalType": "address",
              "name": "uiFeeReceiver",
              "type": "address"
            },
            {
              "internalType": "address",
              "name": "market",
              "type": "address"
            },
            {
              "internalType": "address",
              "name": "initialCollateralToken",
              "type": "address"
            },
            {
              "internalType": "uint256[]",
              "name": "swapPath",
              "type": "uint256[]"
            },
            {
              "components": [
                {
                  "internalType": "uint256",
                  "name": "sizeDeltaUsd",
                  "type": "uint256"
                },
                {
                  "internalType": "uint256",
                  "name": "initialCollateralDeltaAmount",
                  "type": "uint256"
                },
                {
                  "internalType": "uint256",
                  "name": "triggerPrice",
                  "type": "uint256"
                },
                {
                  "internalType": "uint256",
                  "name": "acceptablePrice",
                  "type": "uint256"
                },
                {
                  "internalType": "uint256",
                  "name": "executionFee",
                  "type": "uint256"
                },
                {
                  "internalType": "uint256",
                  "name": "callbackGasLimit",
                  "type": "uint256"
                },
                {
                  "internalType": "uint256",
                  "name": "minOutputAmount",
                  "type": "uint256"
                },
                {
                  "internalType": "uint256",
                  "name": "updatedAtBlock",
                  "type": "uint256"
                }
              ],
              "internalType": "struct Order.Numbers",
              "name": "numbers",
              "type": "tuple"
            },
            {
              "internalType": "bool",
              "name": "isLong",
              "type": "bool"
            },
            {
              "internalType": "bool",
              "name": "shouldUnwrapNativeToken",
              "type": "bool"
            },
            {
              "internalType": "bool",
              "name": "isFrozen",
              "type": "bool"
            }
          ],
          "internalType": "struct Order.Props",
          "name": "order",
          "type": "tuple"
        },
        {
          "components": [
            {
              "internalType": "bytes32",
              "name": "key",
              "type": "bytes32"
            }
          ],
          "internalType": "struct WikiGMXBackstop.EventLogData",
          "name": "",
          "type": "tuple"
        }
      ],
      "name": "afterOrderExecution",
      "outputs": [],
      "stateMutability": "nonpayable",
      "type": "function"
    },
    {
      "inputs": [
        {
          "internalType": "bytes32",
          "name": "key",
          "type": "bytes32"
        },
        {
          "components": [
            {
              "internalType": "bytes32",
              "name": "key",
              "type": "bytes32"
            },
            {
              "internalType": "address",
              "name": "account",
              "type": "address"
            },
            {
              "internalType": "address",
              "name": "receiver",
              "type": "address"
            },
            {
              "internalType": "address",
              "name": "callbackContract",
              "type": "address"
            },
            {
              "internalType": "address",
              "name": "uiFeeReceiver",
              "type": "address"
            },
            {
              "internalType": "address",
              "name": "market",
              "type": "address"
            },
            {
              "internalType": "address",
              "name": "initialCollateralToken",
              "type": "address"
            },
            {
              "internalType": "uint256[]",
              "name": "swapPath",
              "type": "uint256[]"
            },
            {
              "components": [
                {
                  "internalType": "uint256",
                  "name": "sizeDeltaUsd",
                  "type": "uint256"
                },
                {
                  "internalType": "uint256",
                  "name": "initialCollateralDeltaAmount",
                  "type": "uint256"
                },
                {
                  "internalType": "uint256",
                  "name": "triggerPrice",
                  "type": "uint256"
                },
                {
                  "internalType": "uint256",
                  "name": "acceptablePrice",
                  "type": "uint256"
                },
                {
                  "internalType": "uint256",
                  "name": "executionFee",
                  "type": "uint256"
                },
                {
                  "internalType": "uint256",
                  "name": "callbackGasLimit",
                  "type": "uint256"
                },
                {
                  "internalType": "uint256",
                  "name": "minOutputAmount",
                  "type": "uint256"
                },
                {
                  "internalType": "uint256",
                  "name": "updatedAtBlock",
                  "type": "uint256"
                }
              ],
              "internalType": "struct Order.Numbers",
              "name": "numbers",
              "type": "tuple"
            },
            {
              "internalType": "bool",
              "name": "isLong",
              "type": "bool"
            },
            {
              "internalType": "bool",
              "name": "shouldUnwrapNativeToken",
              "type": "bool"
            },
            {
              "internalType": "bool",
              "name": "isFrozen",
              "type": "bool"
            }
          ],
          "internalType": "struct Order.Props",
          "name": "order",
          "type": "tuple"
        },
        {
          "components": [
            {
              "internalType": "bytes32",
              "name": "key",
              "type": "bytes32"
            }
          ],
          "internalType": "struct WikiGMXBackstop.EventLogData",
          "name": "",
          "type": "tuple"
        }
      ],
      "name": "afterOrderFrozen",
      "outputs": [],
      "stateMutability": "nonpayable",
      "type": "function"
    },
    {
      "inputs": [
        {
          "internalType": "bytes32",
          "name": "",
          "type": "bytes32"
        },
        {
          "internalType": "bytes32",
          "name": "marketId",
          "type": "bytes32"
        },
        {
          "internalType": "bool",
          "name": "isLong",
          "type": "bool"
        },
        {
          "internalType": "uint256",
          "name": "size",
          "type": "uint256"
        }
      ],
      "name": "closeGMXPosition",
      "outputs": [],
      "stateMutability": "payable",
      "type": "function"
    },
    {
      "inputs": [
        {
          "internalType": "uint256",
          "name": "tradeSize",
          "type": "uint256"
        }
      ],
      "name": "estimateRevenue",
      "outputs": [
        {
          "internalType": "uint256",
          "name": "wikRevenue",
          "type": "uint256"
        },
        {
          "internalType": "uint256",
          "name": "gmxCost",
          "type": "uint256"
        },
        {
          "internalType": "uint256",
          "name": "net",
          "type": "uint256"
        }
      ],
      "stateMutability": "pure",
      "type": "function"
    },
    {
      "inputs": [
        {
          "internalType": "bytes32",
          "name": "marketId",
          "type": "bytes32"
        }
      ],
      "name": "getGMXMarket",
      "outputs": [
        {
          "internalType": "address",
          "name": "",
          "type": "address"
        }
      ],
      "stateMutability": "view",
      "type": "function"
    },
    {
      "inputs": [
        {
          "internalType": "bytes32",
          "name": "",
          "type": "bytes32"
        }
      ],
      "name": "gmxMarkets",
      "outputs": [
        {
          "internalType": "address",
          "name": "",
          "type": "address"
        }
      ],
      "stateMutability": "view",
      "type": "function"
    },
    {
      "inputs": [
        {
          "internalType": "bytes32",
          "name": "marketId",
          "type": "bytes32"
        }
      ],
      "name": "isMarketSupported",
      "outputs": [
        {
          "internalType": "bool",
          "name": "",
          "type": "bool"
        }
      ],
      "stateMutability": "view",
      "type": "function"
    },
    {
      "inputs": [],
      "name": "minGMXRouteSize",
      "outputs": [
        {
          "internalType": "uint256",
          "name": "",
          "type": "uint256"
        }
      ],
      "stateMutability": "view",
      "type": "function"
    },
    {
      "inputs": [
        {
          "internalType": "address",
          "name": "",
          "type": "address"
        }
      ],
      "name": "operators",
      "outputs": [
        {
          "internalType": "bool",
          "name": "",
          "type": "bool"
        }
      ],
      "stateMutability": "view",
      "type": "function"
    },
    {
      "inputs": [],
      "name": "oracle",
      "outputs": [
        {
          "internalType": "contract WikiOracle",
          "name": "",
          "type": "address"
        }
      ],
      "stateMutability": "view",
      "type": "function"
    },
    {
      "inputs": [],
      "name": "owner",
      "outputs": [
        {
          "internalType": "address",
          "name": "",
          "type": "address"
        }
      ],
      "stateMutability": "view",
      "type": "function"
    },
    {
      "inputs": [],
      "name": "pause",
      "outputs": [],
      "stateMutability": "nonpayable",
      "type": "function"
    },
    {
      "inputs": [],
      "name": "paused",
      "outputs": [
        {
          "internalType": "bool",
          "name": "",
          "type": "bool"
        }
      ],
      "stateMutability": "view",
      "type": "function"
    },
    {
      "inputs": [
        {
          "internalType": "bytes32",
          "name": "",
          "type": "bytes32"
        }
      ],
      "name": "pendingOrders",
      "outputs": [
        {
          "internalType": "address",
          "name": "trader",
          "type": "address"
        },
        {
          "internalType": "bytes32",
          "name": "marketId",
          "type": "bytes32"
        },
        {
          "internalType": "bool",
          "name": "isLong",
          "type": "bool"
        },
        {
          "internalType": "uint256",
          "name": "size",
          "type": "uint256"
        },
        {
          "internalType": "uint256",
          "name": "collateral",
          "type": "uint256"
        },
        {
          "internalType": "uint256",
          "name": "wikFee",
          "type": "uint256"
        },
        {
          "internalType": "uint256",
          "name": "placedAt",
          "type": "uint256"
        },
        {
          "internalType": "bool",
          "name": "settled",
          "type": "bool"
        }
      ],
      "stateMutability": "view",
      "type": "function"
    },
    {
      "inputs": [],
      "name": "pendingOwner",
      "outputs": [
        {
          "internalType": "address",
          "name": "",
          "type": "address"
        }
      ],
      "stateMutability": "view",
      "type": "function"
    },
    {
      "inputs": [],
      "name": "renounceOwnership",
      "outputs": [],
      "stateMutability": "nonpayable",
      "type": "function"
    },
    {
      "inputs": [],
      "name": "revenueStats",
      "outputs": [
        {
          "internalType": "uint256",
          "name": "feesCollected",
          "type": "uint256"
        },
        {
          "internalType": "uint256",
          "name": "volumeRouted",
          "type": "uint256"
        },
        {
          "internalType": "uint256",
          "name": "averageFeeRate",
          "type": "uint256"
        }
      ],
      "stateMutability": "view",
      "type": "function"
    },
    {
      "inputs": [
        {
          "internalType": "address",
          "name": "trader",
          "type": "address"
        },
        {
          "internalType": "bytes32",
          "name": "marketId",
          "type": "bytes32"
        },
        {
          "internalType": "bool",
          "name": "isLong",
          "type": "bool"
        },
        {
          "internalType": "uint256",
          "name": "collateral",
          "type": "uint256"
        },
        {
          "internalType": "uint256",
          "name": "leverage",
          "type": "uint256"
        }
      ],
      "name": "routeToGMX",
      "outputs": [
        {
          "internalType": "bytes32",
          "name": "gmxKey",
          "type": "bytes32"
        }
      ],
      "stateMutability": "payable",
      "type": "function"
    },
    {
      "inputs": [
        {
          "internalType": "address",
          "name": "r",
          "type": "address"
        }
      ],
      "name": "setFeeRecipient",
      "outputs": [],
      "stateMutability": "nonpayable",
      "type": "function"
    },
    {
      "inputs": [
        {
          "internalType": "bytes32",
          "name": "marketId",
          "type": "bytes32"
        },
        {
          "internalType": "address",
          "name": "gmxMarket",
          "type": "address"
        }
      ],
      "name": "setGMXMarket",
      "outputs": [],
      "stateMutability": "nonpayable",
      "type": "function"
    },
    {
      "inputs": [
        {
          "internalType": "uint256",
          "name": "size",
          "type": "uint256"
        }
      ],
      "name": "setMinRouteSize",
      "outputs": [],
      "stateMutability": "nonpayable",
      "type": "function"
    },
    {
      "inputs": [
        {
          "internalType": "address",
          "name": "op",
          "type": "address"
        },
        {
          "internalType": "bool",
          "name": "enabled",
          "type": "bool"
        }
      ],
      "name": "setOperator",
      "outputs": [],
      "stateMutability": "nonpayable",
      "type": "function"
    },
    {
      "inputs": [
        {
          "internalType": "address",
          "name": "_tl",
          "type": "address"
        }
      ],
      "name": "setTimelock",
      "outputs": [],
      "stateMutability": "nonpayable",
      "type": "function"
    },
    {
      "inputs": [],
      "name": "timelock",
      "outputs": [
        {
          "internalType": "address",
          "name": "",
          "type": "address"
        }
      ],
      "stateMutability": "view",
      "type": "function"
    },
    {
      "inputs": [],
      "name": "totalFeesEarned",
      "outputs": [
        {
          "internalType": "uint256",
          "name": "",
          "type": "uint256"
        }
      ],
      "stateMutability": "view",
      "type": "function"
    },
    {
      "inputs": [],
      "name": "totalVolumeRouted",
      "outputs": [
        {
          "internalType": "uint256",
          "name": "",
          "type": "uint256"
        }
      ],
      "stateMutability": "view",
      "type": "function"
    },
    {
      "inputs": [
        {
          "internalType": "address",
          "name": "newOwner",
          "type": "address"
        }
      ],
      "name": "transferOwnership",
      "outputs": [],
      "stateMutability": "nonpayable",
      "type": "function"
    },
    {
      "inputs": [],
      "name": "unpause",
      "outputs": [],
      "stateMutability": "nonpayable",
      "type": "function"
    },
    {
      "inputs": [],
      "name": "vault",
      "outputs": [
        {
          "internalType": "contract WikiVault",
          "name": "",
          "type": "address"
        }
      ],
      "stateMutability": "view",
      "type": "function"
    },
    {
      "inputs": [],
      "name": "wikFeeRecipient",
      "outputs": [
        {
          "internalType": "address",
          "name": "",
          "type": "address"
        }
      ],
      "stateMutability": "view",
      "type": "function"
    },
    {
      "inputs": [],
      "name": "withdrawETH",
      "outputs": [],
      "stateMutability": "nonpayable",
      "type": "function"
    },
    {
      "inputs": [],
      "name": "withdrawFees",
      "outputs": [],
      "stateMutability": "nonpayable",
      "type": "function"
    },
    {
      "stateMutability": "payable",
      "type": "receive"
    }
  ],
  "bytecode": "0x60e08060405234610ac357608081612c39803803809161001f8285610ac7565b833981010312610ac35761003281610afe565b9061003f60208201610afe565b610057606061005060408501610afe565b9301610afe565b926001600160a01b03841615610ab05761007084610b12565b60017f9b779b17422d0df92223018b32b4d1fa46e071723d6817e2486d003becc55f005564012a05f2006007556001600160a01b0316908115610a77576001600160a01b0316918215610a3d576001600160a01b03169283156109f8576100d690610b12565b60805260a05273af88d065e77c8cc2239327c5edb3a432268e583160c05260018060a01b03196008541617600855604051610112604082610ac7565b600781526020810166109510d554d11560ca1b81526101506020604051809382820195518091875e81015f838201520301601f198101835282610ac7565b519020805f52600360205260405f207347c031236e19d024b42f8ae6780e44a57317070360018060a01b03198254161790555f80516020612c1983398151915260206040517347c031236e19d024b42f8ae6780e44a5731707038152a26040516101bb604082610ac7565b6007815260208101661155121554d11560ca1b81526101f96020604051809382820195518091875e81015f838201520301601f198101835282610ac7565b519020805f52600360205260405f207370d95587d40a2caf56bd97485ab3eec10bee633660018060a01b03198254161790555f80516020612c1983398151915260206040517370d95587d40a2caf56bd97485ab3eec10bee63368152a2604051610264604082610ac7565b6007815260208101661054909554d11560ca1b81526102a26020604051809382820195518091875e81015f838201520301601f198101835282610ac7565b519020805f52600360205260405f2073c25cef6061cf5de5eb761b50e4743c1f5d7e540760018060a01b03198254161790555f80516020612c19833981519152602060405173c25cef6061cf5de5eb761b50e4743c1f5d7e54078152a260405161030d604082610ac7565b60078152602081016614d3d31554d11560ca1b815261034b6020604051809382820195518091875e81015f838201520301601f198101835282610ac7565b519020805f52600360205260405f207309400d9db990d5ed3f35d7be61dfaeb900af03c960018060a01b03198254161790555f80516020612c1983398151915260206040517309400d9db990d5ed3f35d7be61dfaeb900af03c98152a26040516103b6604082610ac7565b6007815260208101661093909554d11560ca1b81526103f46020604051809382820195518091875e81015f838201520301601f198101835282610ac7565b519020805f52600360205260405f20732d340912aa47e33c90efb078e69e70efe2b34b9b60018060a01b03198254161790555f80516020612c198339815191526020604051732d340912aa47e33c90efb078e69e70efe2b34b9b8152a260405161045f604082610ac7565b600881526020810167105590561554d11560c21b815261049e6020604051809382820195518091875e81015f838201520301601f198101835282610ac7565b519020805f52600360205260405f20737bbbf946883a5701350007320f525c5379b8178a60018060a01b03198254161790555f80516020612c198339815191526020604051737bbbf946883a5701350007320f525c5379b8178a8152a2604051610509604082610ac7565b60088152602081016713125392d554d11560c21b81526105486020604051809382820195518091875e81015f838201520301601f198101835282610ac7565b519020805f52600360205260405f20737f1fa204bb700853d36994da19f830b6ad18d3bb60018060a01b03198254161790555f80516020612c198339815191526020604051737f1fa204bb700853d36994da19f830b6ad18d3bb8152a26040516105b3604082610ac7565b6007815260208101661553925554d11560ca1b81526105f16020604051809382820195518091875e81015f838201520301601f198101835282610ac7565b519020805f52600360205260405f2073c7abb2c5f3bf3ceb389df0eecd6120d451170b5060018060a01b03198254161790555f80516020612c19833981519152602060405173c7abb2c5f3bf3ceb389df0eecd6120d451170b508152a260405161065c604082610ac7565b6008815260208101671113d1d15554d11560c21b815261069b6020604051809382820195518091875e81015f838201520301601f198101835282610ac7565b519020805f52600360205260405f20736853ea96ff216fab11d2d930ce3c508556a4bdc460018060a01b03198254161790555f80516020612c198339815191526020604051736853ea96ff216fab11d2d930ce3c508556a4bdc48152a2604051610706604082610ac7565b6007815260208101661614941554d11560ca1b81526107446020604051809382820195518091875e81015f838201520301601f198101835282610ac7565b519020805f52600360205260405f20730ccb4faa6f1f1b0f89bc1d6b67c8210a88e07c9860018060a01b03198254161790555f80516020612c198339815191526020604051730ccb4faa6f1f1b0f89bc1d6b67c8210a88e07c988152a26040516107af604082610ac7565b600781526020810166131510d554d11560ca1b81526107ed6020604051809382820195518091875e81015f838201520301601f198101835282610ac7565b519020805f52600360205260405f2073d9535bb5f58a1a75032416f2dfe7880c30575a4160018060a01b03198254161790555f80516020612c19833981519152602060405173d9535bb5f58a1a75032416f2dfe7880c30575a418152a2604051610858604082610ac7565b60068152602081016513d41554d11560d21b81526108956020604051809382820195518091875e81015f838201520301601f198101835282610ac7565b519020805f52600360205260405f20734fdd333ff9ca409df583f306b6f5a7ffde79073960018060a01b03198254161790555f80516020612c198339815191526020604051734fdd333ff9ca409df583f306b6f5a7ffde7907398152a2604051610900604082610ac7565b6009815260208101681350551250d554d11560ba1b81526109406020604051809382820195518091875e81015f838201520301601f198101835282610ac7565b519020805f52600360205260405f20736f6ba5512a4c7b3c264eb5905b1f43e2d9658df860018060a01b03198254161790555f80516020612c198339815191526020604051736f6ba5512a4c7b3c264eb5905b1f43e2d9658df88152a26040516120b29081610b67823960805181818161023e015281816105f001528181611e110152611f68015260a05181818161074401528181610e70015261114d015260c0518181816106ba01528181610d2501526114ea0152f35b60405162461bcd60e51b815260206004820152601860248201527f57696b693a207a65726f205f666565526563697069656e7400000000000000006044820152606490fd5b60405162461bcd60e51b815260206004820152601260248201527157696b693a207a65726f205f6f7261636c6560701b6044820152606490fd5b60405162461bcd60e51b815260206004820152601160248201527015da5ada4e881e995c9bc817dd985d5b1d607a1b6044820152606490fd5b631e4fbdf760e01b5f525f60045260245ffd5b5f80fd5b601f909101601f19168101906001600160401b03821190821017610aea57604052565b634e487b7160e01b5f52604160045260245ffd5b51906001600160a01b0382168203610ac357565b600180546001600160a01b03199081169091555f80546001600160a01b03938416928116831782559192909116907f8be0079c531659141344cd1fd0a4f28419497f9722a3daafe3b4186f6b6457e09080a356fe608080604052600436101561001c575b50361561001a575f80fd5b005b5f905f3560e01c90816308b59d30146118375750806313dee7e71461180957806313e7c9d8146117cc57806314694460146117ab5780631ab9550a1461178e578063249d39e914611772578063273f8e2214611726578063282cc201146117095780632e154f8614610e9f578063311d03f2146116db5780633f4ba83a1461166d57806341b613bd146115f3578063476343ee146114b55780634e57f9c814611487578063558a729714611432578063562a97e5146114045780635c975abb146113df57806369acf79d146110c4578063715018a61461106157806371cd763114610fe657806378f504f914610fb257806379ba509714610f2d5780637b55766f14610ea45780637d8fd5ba14610e9f5780637dc0d1d014610e5b5780637e36c6fc14610e2e578063801d4c7514610e1157806382dfc5f714610de3578063837384a314610db55780638456cb5914610d5457806389a3027114610d105780638da5cb5b14610ce9578063a454e32814610cbb578063ad275b8614610485578063b9adb2f014610535578063bdacb303146104b3578063bea1d6c21461048a578063c2b7293114610485578063cbcd309c14610469578063cfdf55321461040a578063d33219b4146103e1578063e086e5ec14610379578063e30c397814610350578063e74b981b14610310578063f2fde38b146102a3578063f8a6167e146102705763fbfa77cf0361000f573461026d578060031936011261026d576040517f00000000000000000000000000000000000000000000000000000000000000006001600160a01b03168152602090f35b80fd5b503461026d57602036600319011261026d57602090600435815260038252604060018060a01b0391205416604051908152f35b503461026d57602036600319011261026d576102bd611865565b6102c5611eea565b600180546001600160a01b0319166001600160a01b0392831690811790915582549091167f38d16b8cac22d99fc7c124b9cd0de2d3fa1faef420bfe791d8c362d765e227008380a380f35b503461026d57602036600319011261026d5761032a611865565b610332611eea565b60018060a01b03166001600160601b0360a01b600854161760085580f35b503461026d578060031936011261026d576001546040516001600160a01b039091168152602090f35b503461026d578060031936011261026d57610392611efd565b61039a611eea565b8080808060018060a01b0381541647908282156103d8575bf1156103cc5760015f8051602061205d8339815191525580f35b604051903d90823e3d90fd5b506108fc6103b2565b503461026d578060031936011261026d576002546040516001600160a01b039091168152602090f35b503461026d57602036600319011261026d57600435906005820291808304600514901517156104555750604080516127109092048083526020830181905290820152606090f35b0390f35b634e487b7160e01b81526011600452602490fd5b503461026d5761048261047b36611951565b5050611dbd565b80f35b611b77565b503461026d578060031936011261026d576008546040516001600160a01b039091168152602090f35b503461026d57602036600319011261026d576104cd611865565b6104d5611eea565b6001600160a01b031680156104fa576001600160601b0360a01b600254161760025580f35b60405162461bcd60e51b815260206004820152601360248201527257696b693a207a65726f2074696d656c6f636b60681b6044820152606490fd5b5060a0366003190112610aa35761054a611865565b602435906105566118aa565b9160643590608435335f52600960205260ff60405f2054168015610ca8575b61057e90611bae565b610586611efd565b61058e61203e565b66038d7ea4c680003410610c57575f828152600360205260409020546001600160a01b0316948515610c1257818402918483041484151715610bb9576007548210610bcd576005820296821597838104600514891715610bb9576127109004907f00000000000000000000000000000000000000000000000000000000000000006001600160a01b0316803b15610aa357604051630bb03fdb60e21b81526001600160a01b0389166004820152602481018490525f8160448183865af18015610bae57610b99575b5061066383600554611db0565b60055561067285600654611db0565b600655803b15610b8a57604051639101e5b360e01b81526001600160a01b038916600482015260248101889052828160448183865af18015610b8e57908391610b75575b50507f0000000000000000000000000000000000000000000000000000000000000000604051916323b872dd60e01b84526004527331ef83a530fde1b38ee9a18093a333d8bbbc40d56024528760445260208360648180855af16001845114811615610b56575b826040528360605215610b3b57506331d98b3f60e01b8152600481018690526040816024817f00000000000000000000000000000000000000000000000000000000000000006001600160a01b03165afa908115610b30578291610b00575b508315610ae357606581029080820460651490151715610acf5760649004925b60085460405160209a6001600160a01b0390921695916107bc8c8361192f565b8482525f368137604051966107d0886118c6565b308852308d8901526040880152606087015273af88d065e77c8cc2239327c5edb3a432268e5831608087015260a086015269d3c21bcecceda100000086029a868c0469d3c21bcecceda1000000141715610abb5764e8d4a5100081029080820464e8d4a510001490151715610abb5790899a6108dd9a9260405191610854836118f6565b82528984830152846040830152606082015266038d7ea4c6800060808201526207a12060a08201528360c08201526040519561088f876118f6565b865282860152600260408601528260608601521515938460808201528260a08201526857494b4943494f555360b81b60c0820152604051809a8192634a393a4160e01b835260048301611c18565b038166038d7ea4c68000737c68c7866a64fa2160f78eeae12217ffbf871fa85af1968715610aae578197610a78575b878099508a6040999899519261092184611912565b600160a01b6001900316998a8452818401908982526040850188815260608601908a82526080870192835260a087019389855260c088019542875260e08901978a89528a52600490526040892097600160a01b6001900390600160a01b60019003905116166001600160601b0360a01b89541617885551600188015551151560028701906109ba919060ff801983541691151516179055565b51600386015551600485015551600584015551600683015551151590600701906109ef919060ff801983541691151516179055565b506040805182815260208101839052908101919091527f2e1e9e7504a5b031abb63fe8480d06612a63dd8d6d43ddbafcb9ab8a559703da90606090a160405192835286830152604082015260607f279dccb78ebb84887cf038ea9367ded90e1b1e1586283d58d0e3d90463f7eddb91a360015f8051602061205d83398151915255604051908152f35b959650968881813d8311610aa7575b610a91818361192f565b81010312610aa357519594879061090c565b5f80fd5b503d610a87565b50604051903d90823e3d90fd5b634e487b7160e01b83526011600452602483fd5b634e487b7160e01b82526011600452602482fd5b606381029080820460631490151715610acf57606490049261079c565b610b22915060403d604011610b29575b610b1a818361192f565b810190611bf3565b505f61077c565b503d610b10565b6040513d84823e3d90fd5b635274afe760e01b83526001600160a01b0316600452602482fd5b6001811516610b6c57813b15153d15161661071d565b823d85823e3d90fd5b81610b7f9161192f565b610b8a57815f6106b6565b5080fd5b6040513d85823e3d90fd5b610ba69192505f9061192f565b5f905f610656565b6040513d5f823e3d90fd5b634e487b7160e01b5f52601160045260245ffd5b60405162461bcd60e51b815260206004820152601c60248201527f4261636b73746f703a2073697a652062656c6f77206d696e696d756d000000006044820152606490fd5b60405162461bcd60e51b815260206004820152601760248201527f4261636b73746f703a206e6f20474d58206d61726b65740000000000000000006044820152606490fd5b60405162461bcd60e51b8152602060048201526024808201527f4261636b73746f703a20696e73756666696369656e7420657865637574696f6e6044820152632066656560e01b6064820152608490fd5b505f546001600160a01b03163314610575565b34610aa3575f366003190112610aa35760206040517331ef83a530fde1b38ee9a18093a333d8bbbc40d58152f35b34610aa3575f366003190112610aa3575f546040516001600160a01b039091168152602090f35b34610aa3575f366003190112610aa3576040517f00000000000000000000000000000000000000000000000000000000000000006001600160a01b03168152602090f35b34610aa3575f366003190112610aa357610d6c611eea565b610d7461203e565b6001805460ff60a01b1916600160a01b1790556040513381527f62e78cea01bee320cd4e420270b5ea74000d11b0c9f74754ebdbfc544b05a25890602090a1005b34610aa3575f366003190112610aa357602060405173fd70de6b91282d8017aa4e741e9ae325cab992d88152f35b34610aa3575f366003190112610aa35760206040517382af49447d8a07e3bd95bd0d56f35241523fbab18152f35b34610aa3575f366003190112610aa3576020600654604051908152f35b34610aa3575f366003190112610aa357602060405172537c767cdaa5c3be5547f4de6b6b5b4c7ce3b88152f35b34610aa3575f366003190112610aa3576040517f00000000000000000000000000000000000000000000000000000000000000006001600160a01b03168152602090f35b61188f565b34610aa3576020366003190112610aa3576004355f52600460205261010060405f2060018060a01b038154169060018101549060ff600282015416600382015460048301549060058401549260ff6007600687015496015416956040519788526020880152151560408701526060860152608085015260a084015260c0830152151560e0820152f35b34610aa3575f366003190112610aa357600154336001600160a01b0390911603610f9f57600180546001600160a01b03199081169091555f805433928116831782556001600160a01b0316907f8be0079c531659141344cd1fd0a4f28419497f9722a3daafe3b4186f6b6457e09080a3005b63118cdaa760e01b5f523360045260245ffd5b34610aa3576020366003190112610aa3576004355f526003602052602060018060a01b0360405f2054161515604051908152f35b34610aa3576040366003190112610aa3576004356024356001600160a01b03811690819003610aa35760207fba605b53aa5f3bfdd6ac56b279eea976441949810c20b357230c37430def81869161103b611eea565b835f526003825260405f20816001600160601b0360a01b825416179055604051908152a2005b34610aa3575f366003190112610aa357611079611eea565b600180546001600160a01b03199081169091555f80549182168155906001600160a01b03167f8be0079c531659141344cd1fd0a4f28419497f9722a3daafe3b4186f6b6457e08280a3005b6080366003190112610aa3576024356110db6118aa565b60643590335f52600960205260ff60405f20541680156113cc575b6110ff90611bae565b611107611efd565b66038d7ea4c68000341061138757825f52600360205260018060a01b0360405f20541692604051906331d98b3f60e01b8252600482015260408160248160018060a01b037f0000000000000000000000000000000000000000000000000000000000000000165afa908115610bae575f91611367575b50811561134a57606381029080820460631490151715610bb95760649004905b6008546040516020956001600160a01b0390921692916111bd878361192f565b5f82525f368137604051936111d1856118c6565b30855230888601526040850152606084015273af88d065e77c8cc2239327c5edb3a432268e5831608084015260a083015269d3c21bcecceda100000084029380850469d3c21bcecceda10000001490151715610bb95764e8d4a5100083029280840464e8d4a510001490151715610bb9576112dd93859360405191611255836118f6565b82525f858301525f6040830152606082015266038d7ea4c6800060808201526207a12060a08201525f60c082015260405192611290846118f6565b8352838301526004604083015260016060830152151560808201525f60a08201526857494b4943494f555360b81b60c082015260405180938192634a393a4160e01b835260048301611c18565b038166038d7ea4c68000737c68c7866a64fa2160f78eeae12217ffbf871fa85af18015610bae5761131c575b60015f8051602061205d83398151915255005b8161133b92903d10611343575b611333818361192f565b810190611c09565b508080611309565b503d611329565b606581029080820460651490151715610bb957606490049061119d565b611380915060403d604011610b2957610b1a818361192f565b508461117d565b60405162461bcd60e51b815260206004820152601a60248201527f4261636b73746f703a20696e73756666696369656e74206665650000000000006044820152606490fd5b505f546001600160a01b031633146110f6565b34610aa3575f366003190112610aa357602060ff60015460a01c166040519015158152f35b34610aa3575f366003190112610aa3576020604051737452c558d45f8afc8c83dae62c3f8a5be19c71f68152f35b34610aa3576040366003190112610aa35761144b611865565b6024358015158103610aa35761001a91611463611eea565b60018060a01b03165f52600960205260405f209060ff801983541691151516179055565b34610aa3575f366003190112610aa3576020604051737c68c7866a64fa2160f78eeae12217ffbf871fa88152f35b34610aa3575f366003190112610aa3576114cd611efd565b6114d5611eea565b6040516370a0823160e01b81523060048201527f00000000000000000000000000000000000000000000000000000000000000006001600160a01b0381169190602082602481865afa918215610bae575f926115bf575b50816115455760015f8051602061205d83398151915255005b60018060a01b0360085416916040519263a9059cbb60e01b5f5260045260245260205f60448180855af19060015f51148216156115a0575b50906040521561158e578080611309565b635274afe760e01b5f5260045260245ffd5b60018215166115b6573b15153d1516168361157d565b823d5f823e3d90fd5b9091506020813d6020116115eb575b816115db6020938361192f565b81010312610aa35751908361152c565b3d91506115ce565b34610aa3575f366003190112610aa35760055460065490811580611662576127108202908282046127101483151715610bb95761164e578261045191045b604051938493846040919493926060820195825260208201520152565b634e487b7160e01b5f52601260045260245ffd5b506104516005611631565b34610aa3575f366003190112610aa357611685611eea565b60015460ff8160a01c16156116cc5760ff60a01b19166001556040513381527f5db9ee0a495bf2e6ff9c91a7834c1ba4fdd244a5e8aa4e537bd38aeae4b073aa90602090a1005b638dfc202b60e01b5f5260045ffd5b34610aa3575f366003190112610aa357602060405173352f684ab9e97a6321a13cf03a61316b681d9fd28152f35b34610aa3575f366003190112610aa3576020600754604051908152f35b34610aa3576020366003190112610aa3577fc89ab17551e804ff867697fda793f8874dd83a7b8251ee11b3b8e4d82e12617f6020600435611765611eea565b80600755604051908152a1005b34610aa3575f366003190112610aa35760206040516127108152f35b34610aa3575f366003190112610aa3576020600554604051908152f35b34610aa3575f366003190112610aa357602060405166038d7ea4c680008152f35b34610aa3576020366003190112610aa3576001600160a01b036117ed611865565b165f526009602052602060ff60405f2054166040519015158152f35b34610aa3575f366003190112610aa357602060405173af88d065e77c8cc2239327c5edb3a432268e58318152f35b34610aa3576020366003190112610aa3576020906004355f526003825260018060a01b0360405f2054168152f35b600435906001600160a01b0382168203610aa357565b35906001600160a01b0382168203610aa357565b34610aa3575f366003190112610aa357602060405160058152f35b604435908115158203610aa357565b35908115158203610aa357565b60c0810190811067ffffffffffffffff8211176118e257604052565b634e487b7160e01b5f52604160045260245ffd5b60e0810190811067ffffffffffffffff8211176118e257604052565b610100810190811067ffffffffffffffff8211176118e257604052565b90601f8019910116810190811067ffffffffffffffff8211176118e257604052565b6060600319820112610aa3576004359160243567ffffffffffffffff8111610aa357808303610260600319820112610aa35760405190610180820182811067ffffffffffffffff8211176118e257604052826004013582526119b56024840161187b565b60208301526119c66044840161187b565b60408301526119d76064840161187b565b60608301526119e86084840161187b565b60808301526119f960a4840161187b565b60a0830152611a0a60c4840161187b565b60c083015260e483013567ffffffffffffffff8111610aa357830185602382011215610aa35760048101359067ffffffffffffffff82116118e25760208260051b0191611a5a604051938461192f565b808352602060048185019260051b8401010191888311610aa357602401905b828210611b675750505060e08301526101006101031990910112610aa357611b32610244602093604051611aac81611912565b6101048201358152610124820135868201526101448201356040820152610164820135606082015261018482013560808201526101a482013560a08201526101c482013560c08201526101e482013560e0820152610100850152611b1361020482016118b9565b610120850152611b2661022482016118b9565b610140850152016118b9565b610160820152926043190112610aa3576040516020810181811067ffffffffffffffff8211176118e257604052604435815290565b8135815260209182019101611a79565b34610aa35761001a611b8836611951565b5090611ba973352f684ab9e97a6321a13cf03a61316b681d9fd23314611d64565b611f35565b15611bb557565b60405162461bcd60e51b81526020600482015260166024820152752130b1b5b9ba37b81d103737ba1037b832b930ba37b960511b6044820152606490fd5b9190826040910312610aa3576020825192015190565b90816020910312610aa3575190565b602080825282516101a08383015280516001600160a01b039081166101c08501528183015181166101e0850152604082015181166102008501526060820151811661022085015260808201511661024084015260a0015160c0610260840152805161028084018190526102a08401949291909101905f5b818110611d455750505060c06020820151805160408501526020810151606085015260408101516080850152606081015160a085015260808101518285015260a081015160e0850152015161010083015260408101516008811015611d315761012083015260608101516003811015611d31576101a09160c0916101408501526080810151151561016085015260a08101511515610180850152015191015290565b634e487b7160e01b5f52602160045260245ffd5b82516001600160a01b0316865260209586019590920191600101611c8f565b15611d6b57565b60405162461bcd60e51b815260206004820152601960248201527f4261636b73746f703a206e6f7420474d582068616e646c6572000000000000006044820152606490fd5b91908201809211610bb957565b611ddc73352f684ab9e97a6321a13cf03a61316b681d9fd23314611d64565b5f90805f52600460205260405f2060078101805460ff81168015611ed8575b611ed15760ff19166001179055805460048201547f00000000000000000000000000000000000000000000000000000000000000006001600160a01b03908116921690823b15610aa357604051639101e5b360e01b81526001600160a01b039290921660048301526024820152905f908290604490829084905af18015610bae57611ebb575b50546040519283526001600160a01b0316917f7ccf5e1d8853a02444e8be034ded58bf01d6c1c4ca1c87a49ddf59fa3fc2f99090602090a3565b611ec89193505f9061192f565b5f916020611e81565b5050505050565b5082546001600160a01b031615611dfb565b5f546001600160a01b03163303610f9f57565b60025f8051602061205d8339815191525414611f265760025f8051602061205d83398151915255565b633ee5aeb560e01b5f5260045ffd5b805f52600460205260405f2060078101805460ff8116801561202c575b611ed15760ff19166001179055805460048201547f00000000000000000000000000000000000000000000000000000000000000006001600160a01b03908116921690823b15610aa35760405163a5bce37960e01b81526001600160a01b039290921660048301526024820152905f908290604490829084905af18015610bae577f7ccf5e1d8853a02444e8be034ded58bf01d6c1c4ca1c87a49ddf59fa3fc2f990926020926101009261201c575b5054940151516040519081526001600160a01b0390941693a3565b5f6120269161192f565b5f612001565b5082546001600160a01b031615611f52565b60ff60015460a01c1661204d57565b63d93c066560e01b5f5260045ffdfe9b779b17422d0df92223018b32b4d1fa46e071723d6817e2486d003becc55f00a26469706673582212206ce130bae1bef2754d8b29a9b4a37c4dcf95cc34387cdc5ab465f6ebf4e99bde64736f6c634300081a0033ba605b53aa5f3bfdd6ac56b279eea976441949810c20b357230c37430def8186",
  "linkReferences": {},
  "deployedLinkReferences": {}
}