{
  "_format": "hh-sol-artifact-1",
  "contractName": "WikiVaultMarketplace",
  "sourceName": "src/WikiVaultMarketplace.sol",
  "abi": [
    {
      "inputs": [
        {
          "internalType": "address",
          "name": "_owner",
          "type": "address"
        },
        {
          "internalType": "address",
          "name": "_usdc",
          "type": "address"
        },
        {
          "internalType": "address",
          "name": "_treasury",
          "type": "address"
        }
      ],
      "stateMutability": "nonpayable",
      "type": "constructor"
    },
    {
      "inputs": [
        {
          "internalType": "address",
          "name": "owner",
          "type": "address"
        }
      ],
      "name": "OwnableInvalidOwner",
      "type": "error"
    },
    {
      "inputs": [
        {
          "internalType": "address",
          "name": "account",
          "type": "address"
        }
      ],
      "name": "OwnableUnauthorizedAccount",
      "type": "error"
    },
    {
      "inputs": [],
      "name": "ReentrancyGuardReentrantCall",
      "type": "error"
    },
    {
      "inputs": [
        {
          "internalType": "address",
          "name": "token",
          "type": "address"
        }
      ],
      "name": "SafeERC20FailedOperation",
      "type": "error"
    },
    {
      "anonymous": false,
      "inputs": [
        {
          "indexed": true,
          "internalType": "address",
          "name": "previousOwner",
          "type": "address"
        },
        {
          "indexed": true,
          "internalType": "address",
          "name": "newOwner",
          "type": "address"
        }
      ],
      "name": "OwnershipTransferStarted",
      "type": "event"
    },
    {
      "anonymous": false,
      "inputs": [
        {
          "indexed": true,
          "internalType": "address",
          "name": "previousOwner",
          "type": "address"
        },
        {
          "indexed": true,
          "internalType": "address",
          "name": "newOwner",
          "type": "address"
        }
      ],
      "name": "OwnershipTransferred",
      "type": "event"
    },
    {
      "anonymous": false,
      "inputs": [
        {
          "indexed": false,
          "internalType": "uint256",
          "name": "id",
          "type": "uint256"
        },
        {
          "indexed": false,
          "internalType": "string",
          "name": "reason",
          "type": "string"
        }
      ],
      "name": "VaultDelisted",
      "type": "event"
    },
    {
      "anonymous": false,
      "inputs": [
        {
          "indexed": false,
          "internalType": "uint256",
          "name": "id",
          "type": "uint256"
        },
        {
          "indexed": false,
          "internalType": "address",
          "name": "vault",
          "type": "address"
        },
        {
          "indexed": false,
          "internalType": "string",
          "name": "name",
          "type": "string"
        },
        {
          "indexed": false,
          "internalType": "bool",
          "name": "isProtocol",
          "type": "bool"
        }
      ],
      "name": "VaultListed",
      "type": "event"
    },
    {
      "anonymous": false,
      "inputs": [
        {
          "indexed": false,
          "internalType": "uint256",
          "name": "id",
          "type": "uint256"
        },
        {
          "indexed": false,
          "internalType": "uint256",
          "name": "apyBps",
          "type": "uint256"
        },
        {
          "indexed": false,
          "internalType": "uint256",
          "name": "tvl",
          "type": "uint256"
        }
      ],
      "name": "VaultUpdated",
      "type": "event"
    },
    {
      "inputs": [],
      "name": "USDC",
      "outputs": [
        {
          "internalType": "contract IERC20",
          "name": "",
          "type": "address"
        }
      ],
      "stateMutability": "view",
      "type": "function"
    },
    {
      "inputs": [],
      "name": "acceptOwnership",
      "outputs": [],
      "stateMutability": "nonpayable",
      "type": "function"
    },
    {
      "inputs": [
        {
          "internalType": "uint256",
          "name": "",
          "type": "uint256"
        }
      ],
      "name": "activeListings",
      "outputs": [
        {
          "internalType": "uint256",
          "name": "",
          "type": "uint256"
        }
      ],
      "stateMutability": "view",
      "type": "function"
    },
    {
      "inputs": [
        {
          "internalType": "uint256",
          "name": "listingId",
          "type": "uint256"
        },
        {
          "internalType": "string",
          "name": "reason",
          "type": "string"
        }
      ],
      "name": "delist",
      "outputs": [],
      "stateMutability": "nonpayable",
      "type": "function"
    },
    {
      "inputs": [],
      "name": "feeTreasury",
      "outputs": [
        {
          "internalType": "address",
          "name": "",
          "type": "address"
        }
      ],
      "stateMutability": "view",
      "type": "function"
    },
    {
      "inputs": [],
      "name": "getAllActive",
      "outputs": [
        {
          "components": [
            {
              "internalType": "uint256",
              "name": "id",
              "type": "uint256"
            },
            {
              "internalType": "address",
              "name": "vault",
              "type": "address"
            },
            {
              "internalType": "address",
              "name": "manager",
              "type": "address"
            },
            {
              "internalType": "string",
              "name": "name",
              "type": "string"
            },
            {
              "internalType": "string",
              "name": "description",
              "type": "string"
            },
            {
              "internalType": "string",
              "name": "strategyType",
              "type": "string"
            },
            {
              "internalType": "enum WikiVaultMarketplace.VaultCategory",
              "name": "category",
              "type": "uint8"
            },
            {
              "internalType": "enum WikiVaultMarketplace.RiskRating",
              "name": "risk",
              "type": "uint8"
            },
            {
              "internalType": "address",
              "name": "depositToken",
              "type": "address"
            },
            {
              "internalType": "uint256",
              "name": "currentAPYBps",
              "type": "uint256"
            },
            {
              "internalType": "uint256",
              "name": "tvl",
              "type": "uint256"
            },
            {
              "internalType": "uint256",
              "name": "minDeposit",
              "type": "uint256"
            },
            {
              "internalType": "uint256",
              "name": "exitDelayDays",
              "type": "uint256"
            },
            {
              "internalType": "uint256",
              "name": "managementFeeBps",
              "type": "uint256"
            },
            {
              "internalType": "uint256",
              "name": "performanceFeeBps",
              "type": "uint256"
            },
            {
              "internalType": "bool",
              "name": "isProtocolVault",
              "type": "bool"
            },
            {
              "internalType": "bool",
              "name": "verified",
              "type": "bool"
            },
            {
              "internalType": "bool",
              "name": "active",
              "type": "bool"
            },
            {
              "internalType": "uint256",
              "name": "listedAt",
              "type": "uint256"
            },
            {
              "internalType": "uint256",
              "name": "totalDepositors",
              "type": "uint256"
            },
            {
              "internalType": "uint256",
              "name": "allTimeTVL",
              "type": "uint256"
            }
          ],
          "internalType": "struct WikiVaultMarketplace.VaultListing[]",
          "name": "",
          "type": "tuple[]"
        }
      ],
      "stateMutability": "view",
      "type": "function"
    },
    {
      "inputs": [
        {
          "internalType": "enum WikiVaultMarketplace.VaultCategory",
          "name": "cat",
          "type": "uint8"
        }
      ],
      "name": "getByCategory",
      "outputs": [
        {
          "components": [
            {
              "internalType": "uint256",
              "name": "id",
              "type": "uint256"
            },
            {
              "internalType": "address",
              "name": "vault",
              "type": "address"
            },
            {
              "internalType": "address",
              "name": "manager",
              "type": "address"
            },
            {
              "internalType": "string",
              "name": "name",
              "type": "string"
            },
            {
              "internalType": "string",
              "name": "description",
              "type": "string"
            },
            {
              "internalType": "string",
              "name": "strategyType",
              "type": "string"
            },
            {
              "internalType": "enum WikiVaultMarketplace.VaultCategory",
              "name": "category",
              "type": "uint8"
            },
            {
              "internalType": "enum WikiVaultMarketplace.RiskRating",
              "name": "risk",
              "type": "uint8"
            },
            {
              "internalType": "address",
              "name": "depositToken",
              "type": "address"
            },
            {
              "internalType": "uint256",
              "name": "currentAPYBps",
              "type": "uint256"
            },
            {
              "internalType": "uint256",
              "name": "tvl",
              "type": "uint256"
            },
            {
              "internalType": "uint256",
              "name": "minDeposit",
              "type": "uint256"
            },
            {
              "internalType": "uint256",
              "name": "exitDelayDays",
              "type": "uint256"
            },
            {
              "internalType": "uint256",
              "name": "managementFeeBps",
              "type": "uint256"
            },
            {
              "internalType": "uint256",
              "name": "performanceFeeBps",
              "type": "uint256"
            },
            {
              "internalType": "bool",
              "name": "isProtocolVault",
              "type": "bool"
            },
            {
              "internalType": "bool",
              "name": "verified",
              "type": "bool"
            },
            {
              "internalType": "bool",
              "name": "active",
              "type": "bool"
            },
            {
              "internalType": "uint256",
              "name": "listedAt",
              "type": "uint256"
            },
            {
              "internalType": "uint256",
              "name": "totalDepositors",
              "type": "uint256"
            },
            {
              "internalType": "uint256",
              "name": "allTimeTVL",
              "type": "uint256"
            }
          ],
          "internalType": "struct WikiVaultMarketplace.VaultListing[]",
          "name": "result",
          "type": "tuple[]"
        }
      ],
      "stateMutability": "view",
      "type": "function"
    },
    {
      "inputs": [
        {
          "internalType": "enum WikiVaultMarketplace.RiskRating",
          "name": "maxRisk",
          "type": "uint8"
        }
      ],
      "name": "getByRisk",
      "outputs": [
        {
          "components": [
            {
              "internalType": "uint256",
              "name": "id",
              "type": "uint256"
            },
            {
              "internalType": "address",
              "name": "vault",
              "type": "address"
            },
            {
              "internalType": "address",
              "name": "manager",
              "type": "address"
            },
            {
              "internalType": "string",
              "name": "name",
              "type": "string"
            },
            {
              "internalType": "string",
              "name": "description",
              "type": "string"
            },
            {
              "internalType": "string",
              "name": "strategyType",
              "type": "string"
            },
            {
              "internalType": "enum WikiVaultMarketplace.VaultCategory",
              "name": "category",
              "type": "uint8"
            },
            {
              "internalType": "enum WikiVaultMarketplace.RiskRating",
              "name": "risk",
              "type": "uint8"
            },
            {
              "internalType": "address",
              "name": "depositToken",
              "type": "address"
            },
            {
              "internalType": "uint256",
              "name": "currentAPYBps",
              "type": "uint256"
            },
            {
              "internalType": "uint256",
              "name": "tvl",
              "type": "uint256"
            },
            {
              "internalType": "uint256",
              "name": "minDeposit",
              "type": "uint256"
            },
            {
              "internalType": "uint256",
              "name": "exitDelayDays",
              "type": "uint256"
            },
            {
              "internalType": "uint256",
              "name": "managementFeeBps",
              "type": "uint256"
            },
            {
              "internalType": "uint256",
              "name": "performanceFeeBps",
              "type": "uint256"
            },
            {
              "internalType": "bool",
              "name": "isProtocolVault",
              "type": "bool"
            },
            {
              "internalType": "bool",
              "name": "verified",
              "type": "bool"
            },
            {
              "internalType": "bool",
              "name": "active",
              "type": "bool"
            },
            {
              "internalType": "uint256",
              "name": "listedAt",
              "type": "uint256"
            },
            {
              "internalType": "uint256",
              "name": "totalDepositors",
              "type": "uint256"
            },
            {
              "internalType": "uint256",
              "name": "allTimeTVL",
              "type": "uint256"
            }
          ],
          "internalType": "struct WikiVaultMarketplace.VaultListing[]",
          "name": "result",
          "type": "tuple[]"
        }
      ],
      "stateMutability": "view",
      "type": "function"
    },
    {
      "inputs": [
        {
          "internalType": "uint256",
          "name": "n",
          "type": "uint256"
        }
      ],
      "name": "getTopByAPY",
      "outputs": [
        {
          "components": [
            {
              "internalType": "uint256",
              "name": "id",
              "type": "uint256"
            },
            {
              "internalType": "address",
              "name": "vault",
              "type": "address"
            },
            {
              "internalType": "address",
              "name": "manager",
              "type": "address"
            },
            {
              "internalType": "string",
              "name": "name",
              "type": "string"
            },
            {
              "internalType": "string",
              "name": "description",
              "type": "string"
            },
            {
              "internalType": "string",
              "name": "strategyType",
              "type": "string"
            },
            {
              "internalType": "enum WikiVaultMarketplace.VaultCategory",
              "name": "category",
              "type": "uint8"
            },
            {
              "internalType": "enum WikiVaultMarketplace.RiskRating",
              "name": "risk",
              "type": "uint8"
            },
            {
              "internalType": "address",
              "name": "depositToken",
              "type": "address"
            },
            {
              "internalType": "uint256",
              "name": "currentAPYBps",
              "type": "uint256"
            },
            {
              "internalType": "uint256",
              "name": "tvl",
              "type": "uint256"
            },
            {
              "internalType": "uint256",
              "name": "minDeposit",
              "type": "uint256"
            },
            {
              "internalType": "uint256",
              "name": "exitDelayDays",
              "type": "uint256"
            },
            {
              "internalType": "uint256",
              "name": "managementFeeBps",
              "type": "uint256"
            },
            {
              "internalType": "uint256",
              "name": "performanceFeeBps",
              "type": "uint256"
            },
            {
              "internalType": "bool",
              "name": "isProtocolVault",
              "type": "bool"
            },
            {
              "internalType": "bool",
              "name": "verified",
              "type": "bool"
            },
            {
              "internalType": "bool",
              "name": "active",
              "type": "bool"
            },
            {
              "internalType": "uint256",
              "name": "listedAt",
              "type": "uint256"
            },
            {
              "internalType": "uint256",
              "name": "totalDepositors",
              "type": "uint256"
            },
            {
              "internalType": "uint256",
              "name": "allTimeTVL",
              "type": "uint256"
            }
          ],
          "internalType": "struct WikiVaultMarketplace.VaultListing[]",
          "name": "result",
          "type": "tuple[]"
        }
      ],
      "stateMutability": "view",
      "type": "function"
    },
    {
      "inputs": [
        {
          "internalType": "address",
          "name": "vault",
          "type": "address"
        },
        {
          "internalType": "string",
          "name": "name",
          "type": "string"
        },
        {
          "internalType": "string",
          "name": "desc",
          "type": "string"
        },
        {
          "internalType": "string",
          "name": "strategyType",
          "type": "string"
        },
        {
          "internalType": "enum WikiVaultMarketplace.VaultCategory",
          "name": "cat",
          "type": "uint8"
        },
        {
          "internalType": "enum WikiVaultMarketplace.RiskRating",
          "name": "risk",
          "type": "uint8"
        },
        {
          "internalType": "address",
          "name": "depositToken",
          "type": "address"
        },
        {
          "internalType": "uint256",
          "name": "minDep",
          "type": "uint256"
        },
        {
          "internalType": "uint256",
          "name": "exitDays",
          "type": "uint256"
        },
        {
          "internalType": "uint256",
          "name": "mgmt",
          "type": "uint256"
        },
        {
          "internalType": "uint256",
          "name": "perf",
          "type": "uint256"
        }
      ],
      "name": "listProtocolVault",
      "outputs": [
        {
          "internalType": "uint256",
          "name": "listingId",
          "type": "uint256"
        }
      ],
      "stateMutability": "nonpayable",
      "type": "function"
    },
    {
      "inputs": [
        {
          "internalType": "address",
          "name": "vault",
          "type": "address"
        },
        {
          "internalType": "string",
          "name": "name",
          "type": "string"
        },
        {
          "internalType": "string",
          "name": "description",
          "type": "string"
        },
        {
          "internalType": "string",
          "name": "strategyType",
          "type": "string"
        },
        {
          "internalType": "enum WikiVaultMarketplace.VaultCategory",
          "name": "category",
          "type": "uint8"
        },
        {
          "internalType": "enum WikiVaultMarketplace.RiskRating",
          "name": "risk",
          "type": "uint8"
        },
        {
          "internalType": "address",
          "name": "depositToken",
          "type": "address"
        },
        {
          "internalType": "uint256",
          "name": "minDeposit",
          "type": "uint256"
        },
        {
          "internalType": "uint256",
          "name": "exitDelayDays",
          "type": "uint256"
        },
        {
          "internalType": "uint256",
          "name": "mgmtFeeBps",
          "type": "uint256"
        },
        {
          "internalType": "uint256",
          "name": "perfFeeBps",
          "type": "uint256"
        }
      ],
      "name": "listVault",
      "outputs": [
        {
          "internalType": "uint256",
          "name": "listingId",
          "type": "uint256"
        }
      ],
      "stateMutability": "nonpayable",
      "type": "function"
    },
    {
      "inputs": [],
      "name": "listingFeeUsdc",
      "outputs": [
        {
          "internalType": "uint256",
          "name": "",
          "type": "uint256"
        }
      ],
      "stateMutability": "view",
      "type": "function"
    },
    {
      "inputs": [
        {
          "internalType": "address",
          "name": "",
          "type": "address"
        },
        {
          "internalType": "uint256",
          "name": "",
          "type": "uint256"
        }
      ],
      "name": "managerVaults",
      "outputs": [
        {
          "internalType": "uint256",
          "name": "",
          "type": "uint256"
        }
      ],
      "stateMutability": "view",
      "type": "function"
    },
    {
      "inputs": [],
      "name": "nextListingId",
      "outputs": [
        {
          "internalType": "uint256",
          "name": "",
          "type": "uint256"
        }
      ],
      "stateMutability": "view",
      "type": "function"
    },
    {
      "inputs": [],
      "name": "ongoingFeeBps",
      "outputs": [
        {
          "internalType": "uint256",
          "name": "",
          "type": "uint256"
        }
      ],
      "stateMutability": "view",
      "type": "function"
    },
    {
      "inputs": [],
      "name": "owner",
      "outputs": [
        {
          "internalType": "address",
          "name": "",
          "type": "address"
        }
      ],
      "stateMutability": "view",
      "type": "function"
    },
    {
      "inputs": [],
      "name": "pendingOwner",
      "outputs": [
        {
          "internalType": "address",
          "name": "",
          "type": "address"
        }
      ],
      "stateMutability": "view",
      "type": "function"
    },
    {
      "inputs": [],
      "name": "renounceOwnership",
      "outputs": [],
      "stateMutability": "nonpayable",
      "type": "function"
    },
    {
      "inputs": [
        {
          "internalType": "uint256",
          "name": "fee",
          "type": "uint256"
        }
      ],
      "name": "setListingFee",
      "outputs": [],
      "stateMutability": "nonpayable",
      "type": "function"
    },
    {
      "inputs": [
        {
          "internalType": "address",
          "name": "t",
          "type": "address"
        }
      ],
      "name": "setTreasury",
      "outputs": [],
      "stateMutability": "nonpayable",
      "type": "function"
    },
    {
      "inputs": [
        {
          "internalType": "address",
          "name": "newOwner",
          "type": "address"
        }
      ],
      "name": "transferOwnership",
      "outputs": [],
      "stateMutability": "nonpayable",
      "type": "function"
    },
    {
      "inputs": [
        {
          "internalType": "uint256",
          "name": "listingId",
          "type": "uint256"
        },
        {
          "internalType": "uint256",
          "name": "apyBps",
          "type": "uint256"
        },
        {
          "internalType": "uint256",
          "name": "tvl",
          "type": "uint256"
        },
        {
          "internalType": "uint256",
          "name": "depositors",
          "type": "uint256"
        }
      ],
      "name": "updateStats",
      "outputs": [],
      "stateMutability": "nonpayable",
      "type": "function"
    },
    {
      "inputs": [
        {
          "internalType": "address",
          "name": "",
          "type": "address"
        }
      ],
      "name": "vaultToId",
      "outputs": [
        {
          "internalType": "uint256",
          "name": "",
          "type": "uint256"
        }
      ],
      "stateMutability": "view",
      "type": "function"
    },
    {
      "inputs": [
        {
          "internalType": "uint256",
          "name": "",
          "type": "uint256"
        }
      ],
      "name": "vaults",
      "outputs": [
        {
          "internalType": "uint256",
          "name": "id",
          "type": "uint256"
        },
        {
          "internalType": "address",
          "name": "vault",
          "type": "address"
        },
        {
          "internalType": "address",
          "name": "manager",
          "type": "address"
        },
        {
          "internalType": "string",
          "name": "name",
          "type": "string"
        },
        {
          "internalType": "string",
          "name": "description",
          "type": "string"
        },
        {
          "internalType": "string",
          "name": "strategyType",
          "type": "string"
        },
        {
          "internalType": "enum WikiVaultMarketplace.VaultCategory",
          "name": "category",
          "type": "uint8"
        },
        {
          "internalType": "enum WikiVaultMarketplace.RiskRating",
          "name": "risk",
          "type": "uint8"
        },
        {
          "internalType": "address",
          "name": "depositToken",
          "type": "address"
        },
        {
          "internalType": "uint256",
          "name": "currentAPYBps",
          "type": "uint256"
        },
        {
          "internalType": "uint256",
          "name": "tvl",
          "type": "uint256"
        },
        {
          "internalType": "uint256",
          "name": "minDeposit",
          "type": "uint256"
        },
        {
          "internalType": "uint256",
          "name": "exitDelayDays",
          "type": "uint256"
        },
        {
          "internalType": "uint256",
          "name": "managementFeeBps",
          "type": "uint256"
        },
        {
          "internalType": "uint256",
          "name": "performanceFeeBps",
          "type": "uint256"
        },
        {
          "internalType": "bool",
          "name": "isProtocolVault",
          "type": "bool"
        },
        {
          "internalType": "bool",
          "name": "verified",
          "type": "bool"
        },
        {
          "internalType": "bool",
          "name": "active",
          "type": "bool"
        },
        {
          "internalType": "uint256",
          "name": "listedAt",
          "type": "uint256"
        },
        {
          "internalType": "uint256",
          "name": "totalDepositors",
          "type": "uint256"
        },
        {
          "internalType": "uint256",
          "name": "allTimeTVL",
          "type": "uint256"
        }
      ],
      "stateMutability": "view",
      "type": "function"
    },
    {
      "inputs": [
        {
          "internalType": "uint256",
          "name": "id",
          "type": "uint256"
        },
        {
          "internalType": "bool",
          "name": "verified",
          "type": "bool"
        }
      ],
      "name": "verifyVault",
      "outputs": [],
      "stateMutability": "nonpayable",
      "type": "function"
    }
  ],
  "bytecode": "0x60a03461014757601f61265738819003918201601f19168301916001600160401b0383118484101761014b57808492606094604052833981010312610147576100478161015f565b61005f60406100586020850161015f565b930161015f565b6001600160a01b0390911691821561013457600180546001600160a01b03199081169091555f80549182168517815560405194916001600160a01b0316907f8be0079c531659141344cd1fd0a4f28419497f9722a3daafe3b4186f6b6457e09080a360017f9b779b17422d0df92223018b32b4d1fa46e071723d6817e2486d003becc55f0055633b9aca0060075560c86008556001600160a01b03908116608052600980546001600160a01b031916929091169190911790556124e390816101748239608051818181610dcb01526118110152f35b631e4fbdf760e01b5f525f60045260245ffd5b5f80fd5b634e487b7160e01b5f52604160045260245ffd5b51906001600160a01b03821682036101475756fe6102006040526004361015610012575f80fd5b5f3560e01c8063131dbd0914611cd757806326dbbcc314611c1d57806337b1fdd114611bc95780634e84e2ce14611a9457806360dc234014611a6c57806361cf486314611a435780636305e31d14611980578063715018a61461191d57806374c0293f146118c557806379ba50971461184057806389a30271146117fc5780638c64ea4a146116015780638da5cb5b146115da57806390b4646f14610d21578063a3452aef14610bd0578063aaccf1ec14610bb3578063b47ac12114610ab2578063db762fb214610978578063dfb494f014610940578063e25c8bc214610923578063e30c3978146108fb578063e990413d146101fe578063ecd760d3146101e1578063f0f442601461019e5763f2fde38b1461012d575f80fd5b3461019a57602036600319011261019a57610146611f30565b61014e61249a565b60018060a01b0316806001600160601b0360a01b600154161760015560018060a01b035f54167f38d16b8cac22d99fc7c124b9cd0de2d3fa1faef420bfe791d8c362d765e227005f80a3005b5f80fd5b3461019a57602036600319011261019a576101b7611f30565b6101bf61249a565b600980546001600160a01b0319166001600160a01b0392909216919091179055005b3461019a575f36600319011261019a576020600754604051908152f35b3461019a5761020c3661205b565b60809b909b5260c09c909c52999a9899979096919592949161022c61249a565b60065460e05260e05161023e90612162565b60065560405160a05260a05161025390611f7e565b60e05160a05152600160a01b6001900360c0511660a051602001523360a051604001528b36608051610284926123f5565b60a051606001523690610296926123f5565b60a0516080015236906102a8926123f5565b60a05160a0015260a05160c001906102bf9161228b565b60a05160e001906102cf91612297565b600160a01b600190031660a051610100015260a051610120015f905260a051610140015f905260a051610160015260a051610180015260a0516101a0015260a0516101c0015260a0516101e0016001905260a051610200016001905260a05161022001600190524260a051610240015260a051610260015f905260a051610280015f905260e0515f52600260205260405f209060a051518255600160a01b6001900360a05160200151166001830190600160a01b60019003166001600160601b0360a01b825416179055600160a01b6001900360a05160400151166002830190600160a01b60019003166001600160601b0360a01b82541617905560a051606001519182516001600160401b038111610777576103ef6003830154611f46565b601f81116108b7575b506020601f821160011461084e57819293945f92610843575b50508160011b915f199060031b1c19161760038201555b608060a05101519182516001600160401b0381116107775761044d6004840154611f46565b601f81116107ff575b506020601f821160011461079657819293945f9261078b575b50508160011b915f199060031b1c19161760048301555b600582019160a0805101519283516001600160401b038111610777576104ac8254611f46565b601f8111610732575b50602094601f82116001146106d1579481929394955f926106c6575b50508160011b915f199060031b1c19161790555b60c060a05101519160078310156106b25760068201549160e060a05101519360058510156106b25760a051610100810151600896871b61ff009081166001600160b01b031990971660ff948516179690961760109190911b62010000600160b01b03161760068401556101208101516007840155610140810151838701556101608101516009840155610180810151600a8401556101a0810151600b8401556101c0810151600c8401556101e0810151600d840180546102009093015161ffff199093169115159093161790151590951b9093169390931782557f3dac363b3ae851f00aaa2c9b84b68d6a969cc34399af4744b9edc958adfa71c49261069c926106099060a0516102200151815462ff0000191690151560101b62ff000016179055565b61024060a0510151600e82015561026060a0510151600f820155601061028060a051015191015560018060a01b0360c051165f52600360205260e05160405f2055335f52600460205261066160e05160405f20612477565b61066c60e05161243a565b60405191829160e051835260018060a01b0360c051166020840152608060408401526080830190608051906123d5565b600160608301520390a1602060405160e0518152f35b634e487b7160e01b5f52602160045260245ffd5b0151905085806104d1565b601f19821695835f52805f20915f5b88811061071a57508360019596979810610702575b505050811b0190556104e5565b01515f1960f88460031b161c191690558580806106f5565b919260206001819286850151815501940192016106e0565b825f5260205f20601f830160051c8101916020841061076d575b601f0160051c01905b81811061076257506104b5565b5f8155600101610755565b909150819061074c565b634e487b7160e01b5f52604160045260245ffd5b01519050848061046f565b600484015f52805f20905f5b601f19841681106107e75750600193949583601f198116106107cf575b505050811b016004830155610486565b01515f1960f88460031b161c191690558480806107bf565b9091602060018192858a0151815501930191016107a2565b600484015f5260205f20601f830160051c81016020841061083c575b601f830160051c82018110610831575050610456565b5f815560010161081b565b508061081b565b015190508480610411565b600383015f52805f20905f5b601f198416811061089f5750600193949583601f19811610610887575b505050811b016003820155610428565b01515f1960f88460031b161c19169055848080610877565b9091602060018192858a01518155019301910161085a565b600383015f5260205f20601f830160051c8101602084106108f4575b601f830160051c820181106108e95750506103f8565b5f81556001016108d3565b50806108d3565b3461019a575f36600319011261019a576001546040516001600160a01b039091168152602090f35b3461019a575f36600319011261019a576020600854604051908152f35b3461019a57602036600319011261019a576001600160a01b03610961611f30565b165f526003602052602060405f2054604051908152f35b3461019a57602036600319011261019a5760055460043580821015610aad5750805b6109a38161219b565b915f5b8281106109bf57604051806109bb8682611d36565b0390f35b5f805f5b848110610a0e575050906109d8600192611ec2565b90549060031b1c5f5260026020526109f260405f206122a3565b6109fc8287612277565b52610a078186612277565b50016109a6565b610a1781611ec2565b90549060031b1c5f52600260205260405f2060ff600d82015460101c1615610aa4575f808254905b878110610a7e575b50501580610a71575b610a60575b506001905b016109c3565b600701549092509050816001610a55565b5082600782015411610a50565b81610a89828d612277565b515114610a9857600101610a3f565b50505060018980610a47565b50600190610a5a565b61099a565b3461019a575f36600319011261019a576005545f805b828110610b6d5750610ad99061219b565b905f805b828110610af257604051806109bb8682611d36565b80610afe600192611ec2565b90549060031b1c5f52600260205260ff600d60405f20015460101c16610b25575b01610add565b610b2e81611ec2565b90549060031b1c5f526002602052610b6760405f2093610b56610b5082612162565b956122a3565b610b608289612277565b5286612277565b50610b1f565b610b7681611ec2565b90549060031b1c5f52600260205260ff600d60405f20015460101c16610b9f575b600101610ac8565b90610bab600191612162565b919050610b97565b3461019a575f36600319011261019a576020600654604051908152f35b3461019a57602036600319011261019a5760043560058110158061019a576005545f805b828110610cac5750610c059061219b565b915f805b838210610c1e57604051806109bb8782611d36565b610c2782611ec2565b90549060031b1c5f52600260205260405f209160ff600d84015460101c1680610c87575b610c5a575b6001019150610c09565b610c7e82610c6d610b5060019592612162565b610c77828a612277565b5287612277565b50829150610c50565b5060ff600684015460081c1660058110156106b257846106b25760ff88161015610c4b565b610cb581611ec2565b90549060031b1c5f52600260205260405f2060ff600d82015460101c169081610cfb575b50610ce7575b600101610bf4565b90610cf3600191612162565b919050610cdf565b60ff91506006015460081c1660058110156106b257846106b25760ff8616101586610cd9565b3461019a57610d2f3661205b565b6101009b909b526101409c909c527f9b779b17422d0df92223018b32b4d1fa46e071723d6817e2486d003becc55f00549a9b999a909891979296939592906002146115cb5760027f9b779b17422d0df92223018b32b4d1fa46e071723d6817e2486d003becc55f0055610140516001600160a01b03165f9081526003602052604090205461159157610140516001600160a01b03161561155b577f000000000000000000000000000000000000000000000000000000000000000060018060a01b0360095416600754604051916323b872dd60e01b5f523360045260245260445260205f60648180865af19060015f511482161561153a575b6040525f6060521561151a575092610ee5959492610eb6610ec593610ed9968f610ea79060065461016052610e5f61016051612162565b60065560405161012052610e7561012051611f7e565b61016051610120515260018060a01b0361014051166020610120510152336040610120510152369061010051906123f5565b606061012051015236916123f5565b608061012051015236916123f5565b60a061012051015260c0610120510161228b565b60e06101205101612297565b60018060a01b03166101006101205101525f610120805101525f6101406101205101526101606101205101526101806101205101526101a06101205101526101c06101205101525f6101e06101205101525f6102006101205101526001610220610120510152426102406101205101525f6102606101205101525f610280610120510152610160515f52600260205260405f20906101205151825560018060a01b03602061012051015116600183019060018060a01b03166001600160601b0360a01b82541617905560018060a01b03604061012051015116600283019060018060a01b03166001600160601b0360a01b82541617905560606101205101519182516001600160401b038111610777576110026003830154611f46565b601f81116114d6575b506020601f821160011461146d57819293945f92611462575b50508160011b915f199060031b1c19161760038201555b60806101205101519182516001600160401b038111610777576110616004840154611f46565b601f811161141e575b506020601f82116001146113b557819293945f926113aa575b50508160011b915f199060031b1c19161760048301555b600582019160a06101205101519283516001600160401b038111610777576110c28254611f46565b601f8111611365575b50602094601f8211600114611304579481929394955f926112f9575b50508160011b915f199060031b1c19161790555b60c06101205101519160078310156106b25760068201549160e06101205101519360058510156106b2576101208051610100810151600897881b61ff009081166001600160b01b031990981660ff958616179790971760109190911b62010000600160b01b0316176006850155908101516007840155610140810151838701556101608101516009840155610180810151600a8401556101a0810151600b8401556101c0810151600c8401556101e0810151600d840180546102009093015161ffff199093169115159093161790151590951b9093169390931782557f3dac363b3ae851f00aaa2c9b84b68d6a969cc34399af4744b9edc958adfa71c4926112bf9261122290610120516102200151815462ff0000191690151560101b62ff000016179055565b610240610120510151600e820155610260610120510151600f820155601061028061012051015191015560018060a01b0361014051165f5260036020526101605160405f2055335f5260046020526112806101605160405f20612477565b61128c6101605161243a565b60405191829161016051835260018060a01b036101405116602084015260806040840152608083019061010051906123d5565b5f60608301520390a160017f9b779b17422d0df92223018b32b4d1fa46e071723d6817e2486d003becc55f00556020604051610160518152f35b0151905085806110e7565b601f19821695835f52805f20915f5b88811061134d57508360019596979810611335575b505050811b0190556110fb565b01515f1960f88460031b161c19169055858080611328565b91926020600181928685015181550194019201611313565b825f5260205f20601f830160051c810191602084106113a0575b601f0160051c01905b81811061139557506110cb565b5f8155600101611388565b909150819061137f565b015190508480611083565b600484015f52805f20905f5b601f19841681106114065750600193949583601f198116106113ee575b505050811b01600483015561109a565b01515f1960f88460031b161c191690558480806113de565b9091602060018192858a0151815501930191016113c1565b600484015f5260205f20601f830160051c81016020841061145b575b601f830160051c8201811061145057505061106a565b5f815560010161143a565b508061143a565b015190508480611024565b600383015f52805f20905f5b601f19841681106114be5750600193949583601f198116106114a6575b505050811b01600382015561103b565b01515f1960f88460031b161c19169055848080611496565b9091602060018192858a015181550193019101611479565b600383015f5260205f20601f830160051c810160208410611513575b601f830160051c8201811061150857505061100b565b5f81556001016114f2565b50806114f2565b635274afe760e01b5f9081526001600160a01b0391909116600452602490fd5b90600181151661155257823b15153d15161690610e28565b503d5f823e3d90fd5b60405162461bcd60e51b815260206004820152600e60248201526d15934e881e995c9bc81d985d5b1d60921b6044820152606490fd5b60405162461bcd60e51b815260206004820152601260248201527115934e88185b1c9958591e481b1a5cdd195960721b6044820152606490fd5b633ee5aeb560e01b5f5260045ffd5b3461019a575f36600319011261019a575f546040516001600160a01b039091168152602090f35b3461019a57602036600319011261019a576004355f908152600260208190526040909120805460018201546001600160a01b039081166101a052928201549092166101e0529061165360038301611fbb565b9161166060048201611fbb565b9261166d60058301611fbb565b9360068301546101805260078301549460088401546009850154600a86015490600b87015492600c88015494600d89015496600e8a015498600f8b01549a601001549b6040516101c0526101c051526101a0516101c051602001526101e0516101c051604001526101c0516060016102a090526101c0516102a0016116f191611cf8565b6101c05181036101c0516080015261170891611cf8565b6101c05181036101c05160a0015261171f91611cf8565b996101c05160c0016101805160ff169061173891611d1c565b6101c05160e0016101805160081c60ff169061175391611d29565b600160a01b600190036101805160101c166101c05161010001526101c05161012001526101c05161014001526101c05161016001526101c05161018001526101c0516101a001526101c0516101c0015260ff811615156101c0516101e001528060081c60ff1615156101c051610200015260101c60ff1615156101c05161022001526101c05161024001526101c05161026001526101c05161028001526101c05190036101c051f35b3461019a575f36600319011261019a576040517f00000000000000000000000000000000000000000000000000000000000000006001600160a01b03168152602090f35b3461019a575f36600319011261019a57600154336001600160a01b03909116036118b257600180546001600160a01b03199081169091555f805433928116831782556001600160a01b0316907f8be0079c531659141344cd1fd0a4f28419497f9722a3daafe3b4186f6b6457e09080a3005b63118cdaa760e01b5f523360045260245ffd5b3461019a57604036600319011261019a576118de611f30565b6001600160a01b03165f9081526004602052604090208054602435919082101561019a5760209161190e91611eee565b90549060031b1c604051908152f35b3461019a575f36600319011261019a5761193561249a565b600180546001600160a01b03199081169091555f80549182168155906001600160a01b03167f8be0079c531659141344cd1fd0a4f28419497f9722a3daafe3b4186f6b6457e08280a3005b3461019a57604036600319011261019a576004356024356001600160401b03811161019a577f58f273d0067fe63e51c27fa6b9613338f72f9055a5f3f650ef6149fd5789dff4916119d8611a2b923690600401611f03565b9290825f526002602052600d60405f2060018060a01b0360028201541633148015611a30575b611a0790612124565b0162ff000019815416905560405193849384526040602085015260408401916123d5565b0390a1005b505f546001600160a01b031633146119fe565b3461019a57602036600319011261019a5760043560055481101561019a5761190e602091611ec2565b3461019a575f36600319011261019a576009546040516001600160a01b039091168152602090f35b3461019a57602036600319011261019a576004356007811015908161019a576005545f805b828110611b595750611aca9061219b565b915f805b838210611ae357604051806109bb8782611d36565b611aec82611ec2565b90549060031b1c5f52600260205260405f209160ff600d84015460101c1680611b3b575b611b1f575b6001019150611ace565b611b3282610c6d610b5060019592612162565b50829150611b15565b50600683015460ff16876106b25760078110156106b2578414611b10565b611b6281611ec2565b90549060031b1c5f52600260205260405f208560ff600d83015460101c169182611baa575b5050611b96575b600101611ab9565b90611ba2600191612162565b919050611b8e565b6006015460ff1691506106b25760078110156106b25784148587611b87565b3461019a57604036600319011261019a57602435801515810361019a57611c1b90611bf261249a565b6004355f526002602052600d60405f20019061ff00825491151560081b169061ff001916179055565b005b3461019a57608036600319011261019a577f8d330890d09d1cf8c38f7561ff0efeea2139a3c5b31b6fa36aa3997cb9370de2606060043560243560443590825f52600260205281601060405f2060018060a01b0360028201541633148015611cc4575b611c8990612124565b836007820155826008820155606435600f8201550180548211611cbc575b505060405192835260208301526040820152a1005b558186611ca7565b505f546001600160a01b03163314611c80565b3461019a57602036600319011261019a57611cf061249a565b600435600755005b805180835260209291819084018484015e5f828201840152601f01601f1916010190565b9060078210156106b25752565b9060058210156106b25752565b602081016020825282518091526040820191602060408360051b8301019401925f915b838310611d6857505050505090565b9091929394602080600192603f1985820301865288519081518152848060a01b03838301511683820152848060a01b03604083015116604082015261028080611dec611dda611dc860608701516102a060608801526102a0870190611cf8565b60808701518682036080880152611cf8565b60a086015185820360a0870152611cf8565b93611dff60c082015160c0860190611d1c565b611e1160e082015160e0860190611d29565b878060a01b03610100820151166101008501526101208101516101208501526101408101516101408501526101608101516101608501526101808101516101808501526101a08101516101a08501526101c08101516101c08501526101e081015115156101e085015261020081015115156102008501526102208101511515610220850152610240810151610240850152610260810151610260850152015191015297019301930191939290611d59565b600554811015611eda5760055f5260205f2001905f90565b634e487b7160e01b5f52603260045260245ffd5b8054821015611eda575f5260205f2001905f90565b9181601f8401121561019a578235916001600160401b03831161019a576020838186019501011161019a57565b600435906001600160a01b038216820361019a57565b90600182811c92168015611f74575b6020831014611f6057565b634e487b7160e01b5f52602260045260245ffd5b91607f1691611f55565b6102a081019081106001600160401b0382111761077757604052565b90601f801991011681019081106001600160401b0382111761077757604052565b9060405191825f825492611fce84611f46565b80845293600181169081156120395750600114611ff5575b50611ff392500383611f9a565b565b90505f9291925260205f20905f915b81831061201d575050906020611ff3928201015f611fe6565b6020919350806001915483858901015201910190918492612004565b905060209250611ff394915060ff191682840152151560051b8201015f611fe6565b9061016060031983011261019a576004356001600160a01b038116810361019a57916024356001600160401b03811161019a578161209b91600401611f03565b929092916044356001600160401b03811161019a57816120bd91600401611f03565b92909291606435906001600160401b03821161019a576120df91600401611f03565b9091608435600781101561019a579060a435600581101561019a579060c4356001600160a01b038116810361019a579060e43590610104359061012435906101443590565b1561212b57565b60405162461bcd60e51b815260206004820152600f60248201526e2b269d103737ba1036b0b730b3b2b960891b6044820152606490fd5b5f1981146121705760010190565b634e487b7160e01b5f52601160045260245ffd5b6001600160401b0381116107775760051b60200190565b906121a582612184565b6121b26040519182611f9a565b82815280926121c3601f1991612184565b01905f5b8281106121d357505050565b6020906040516121e281611f7e565b5f81525f838201525f604082015260608082015260606080820152606060a08201525f60c08201525f60e08201525f6101008201525f6101208201525f6101408201525f6101608201525f6101808201525f6101a08201525f6101c08201525f6101e08201525f6102008201525f6102208201525f6102408201525f6102608201525f610280820152828285010152016121c7565b8051821015611eda5760209160051b010190565b60078210156106b25752565b60058210156106b25752565b906040516122b081611f7e565b8254815260018301546001600160a01b0390811660208301526002840154166040820152918290610280906010906122ea60038201611fbb565b60608501526122fb60048201611fbb565b608085015261230c60058201611fbb565b60a0850152600681015461232660ff821660c0870161228b565b61233960ff8260081c1660e08701612297565b821c6001600160a01b031661010085015260078101546101208501526008808201546101408601526009820154610160860152600a820154610180860152600b8201546101a0860152600c8201546101c0860152600d82015460ff81811615156101e08801529181901c82161515610200870152831c161515610220850152600e810154610240850152600f8101546102608501520154910152565b908060209392818452848401375f828201840152601f01601f1916010190565b9291926001600160401b038211610777576040519161241e601f8201601f191660200184611f9a565b82948184528183011161019a578281602093845f960137010152565b60055490600160401b8210156107775761245f826001611ff394016005556005611eee565b90919082549060031b91821b915f19901b1916179055565b90815491600160401b831015610777578261245f916001611ff395018155611eee565b5f546001600160a01b031633036118b25756fea2646970667358221220f1d6fde3994d1030b3b00d13f99031cf56f217c0db4f44abae14b3d3644835f764736f6c634300081a0033",
  "linkReferences": {},
  "deployedLinkReferences": {}
}