{
  "_format": "hh-sol-artifact-1",
  "contractName": "WikiAffiliate",
  "sourceName": "src/WikiAffiliate.sol",
  "abi": [
    {
      "inputs": [
        {
          "internalType": "address",
          "name": "_owner",
          "type": "address"
        },
        {
          "internalType": "address",
          "name": "_usdc",
          "type": "address"
        }
      ],
      "stateMutability": "nonpayable",
      "type": "constructor"
    },
    {
      "inputs": [],
      "name": "EnforcedPause",
      "type": "error"
    },
    {
      "inputs": [],
      "name": "ExpectedPause",
      "type": "error"
    },
    {
      "inputs": [
        {
          "internalType": "address",
          "name": "owner",
          "type": "address"
        }
      ],
      "name": "OwnableInvalidOwner",
      "type": "error"
    },
    {
      "inputs": [
        {
          "internalType": "address",
          "name": "account",
          "type": "address"
        }
      ],
      "name": "OwnableUnauthorizedAccount",
      "type": "error"
    },
    {
      "inputs": [],
      "name": "ReentrancyGuardReentrantCall",
      "type": "error"
    },
    {
      "inputs": [
        {
          "internalType": "address",
          "name": "token",
          "type": "address"
        }
      ],
      "name": "SafeERC20FailedOperation",
      "type": "error"
    },
    {
      "anonymous": false,
      "inputs": [
        {
          "indexed": true,
          "internalType": "address",
          "name": "who",
          "type": "address"
        },
        {
          "indexed": false,
          "internalType": "uint256",
          "name": "amount",
          "type": "uint256"
        },
        {
          "indexed": false,
          "internalType": "bool",
          "name": "isReferrer",
          "type": "bool"
        }
      ],
      "name": "Claimed",
      "type": "event"
    },
    {
      "anonymous": false,
      "inputs": [
        {
          "indexed": true,
          "internalType": "address",
          "name": "referrer",
          "type": "address"
        },
        {
          "indexed": true,
          "internalType": "bytes32",
          "name": "code",
          "type": "bytes32"
        }
      ],
      "name": "CodeRegistered",
      "type": "event"
    },
    {
      "anonymous": false,
      "inputs": [
        {
          "indexed": true,
          "internalType": "address",
          "name": "trader",
          "type": "address"
        },
        {
          "indexed": true,
          "internalType": "address",
          "name": "referrer",
          "type": "address"
        },
        {
          "indexed": false,
          "internalType": "uint256",
          "name": "fee",
          "type": "uint256"
        },
        {
          "indexed": false,
          "internalType": "uint256",
          "name": "toReferrer",
          "type": "uint256"
        },
        {
          "indexed": false,
          "internalType": "uint256",
          "name": "toTrader",
          "type": "uint256"
        }
      ],
      "name": "FeeRecorded",
      "type": "event"
    },
    {
      "anonymous": false,
      "inputs": [
        {
          "indexed": true,
          "internalType": "address",
          "name": "previousOwner",
          "type": "address"
        },
        {
          "indexed": true,
          "internalType": "address",
          "name": "newOwner",
          "type": "address"
        }
      ],
      "name": "OwnershipTransferStarted",
      "type": "event"
    },
    {
      "anonymous": false,
      "inputs": [
        {
          "indexed": true,
          "internalType": "address",
          "name": "previousOwner",
          "type": "address"
        },
        {
          "indexed": true,
          "internalType": "address",
          "name": "newOwner",
          "type": "address"
        }
      ],
      "name": "OwnershipTransferred",
      "type": "event"
    },
    {
      "anonymous": false,
      "inputs": [
        {
          "indexed": false,
          "internalType": "address",
          "name": "account",
          "type": "address"
        }
      ],
      "name": "Paused",
      "type": "event"
    },
    {
      "anonymous": false,
      "inputs": [
        {
          "indexed": true,
          "internalType": "address",
          "name": "referrer",
          "type": "address"
        },
        {
          "indexed": false,
          "internalType": "uint8",
          "name": "newTier",
          "type": "uint8"
        },
        {
          "indexed": false,
          "internalType": "string",
          "name": "tierName",
          "type": "string"
        }
      ],
      "name": "TierUpgraded",
      "type": "event"
    },
    {
      "anonymous": false,
      "inputs": [
        {
          "indexed": true,
          "internalType": "address",
          "name": "trader",
          "type": "address"
        },
        {
          "indexed": true,
          "internalType": "address",
          "name": "referrer",
          "type": "address"
        },
        {
          "indexed": false,
          "internalType": "bytes32",
          "name": "code",
          "type": "bytes32"
        }
      ],
      "name": "TraderReferred",
      "type": "event"
    },
    {
      "anonymous": false,
      "inputs": [
        {
          "indexed": false,
          "internalType": "address",
          "name": "account",
          "type": "address"
        }
      ],
      "name": "Unpaused",
      "type": "event"
    },
    {
      "inputs": [],
      "name": "BPS",
      "outputs": [
        {
          "internalType": "uint256",
          "name": "",
          "type": "uint256"
        }
      ],
      "stateMutability": "view",
      "type": "function"
    },
    {
      "inputs": [],
      "name": "USDC",
      "outputs": [
        {
          "internalType": "contract IERC20",
          "name": "",
          "type": "address"
        }
      ],
      "stateMutability": "view",
      "type": "function"
    },
    {
      "inputs": [],
      "name": "acceptOwnership",
      "outputs": [],
      "stateMutability": "nonpayable",
      "type": "function"
    },
    {
      "inputs": [],
      "name": "claimRebate",
      "outputs": [],
      "stateMutability": "nonpayable",
      "type": "function"
    },
    {
      "inputs": [],
      "name": "claimReferrer",
      "outputs": [],
      "stateMutability": "nonpayable",
      "type": "function"
    },
    {
      "inputs": [
        {
          "internalType": "bytes32",
          "name": "",
          "type": "bytes32"
        }
      ],
      "name": "codeToReferrer",
      "outputs": [
        {
          "internalType": "address",
          "name": "",
          "type": "address"
        }
      ],
      "stateMutability": "view",
      "type": "function"
    },
    {
      "inputs": [
        {
          "internalType": "address",
          "name": "",
          "type": "address"
        }
      ],
      "name": "feeSources",
      "outputs": [
        {
          "internalType": "bool",
          "name": "",
          "type": "bool"
        }
      ],
      "stateMutability": "view",
      "type": "function"
    },
    {
      "inputs": [
        {
          "internalType": "uint256",
          "name": "amount",
          "type": "uint256"
        }
      ],
      "name": "fundContract",
      "outputs": [],
      "stateMutability": "nonpayable",
      "type": "function"
    },
    {
      "inputs": [
        {
          "internalType": "address",
          "name": "addr",
          "type": "address"
        }
      ],
      "name": "getReferrer",
      "outputs": [
        {
          "components": [
            {
              "internalType": "address",
              "name": "addr",
              "type": "address"
            },
            {
              "internalType": "bytes32",
              "name": "code",
              "type": "bytes32"
            },
            {
              "internalType": "uint256",
              "name": "totalReferredVolume",
              "type": "uint256"
            },
            {
              "internalType": "uint256",
              "name": "totalFeesEarned",
              "type": "uint256"
            },
            {
              "internalType": "uint256",
              "name": "pendingClaim",
              "type": "uint256"
            },
            {
              "internalType": "uint256",
              "name": "refereeCount",
              "type": "uint256"
            },
            {
              "internalType": "uint8",
              "name": "tier",
              "type": "uint8"
            },
            {
              "internalType": "uint256",
              "name": "registeredAt",
              "type": "uint256"
            }
          ],
          "internalType": "struct WikiAffiliate.Referrer",
          "name": "",
          "type": "tuple"
        }
      ],
      "stateMutability": "view",
      "type": "function"
    },
    {
      "inputs": [
        {
          "internalType": "address",
          "name": "trader",
          "type": "address"
        }
      ],
      "name": "getTraderRebate",
      "outputs": [
        {
          "internalType": "uint256",
          "name": "pending",
          "type": "uint256"
        },
        {
          "internalType": "uint256",
          "name": "total",
          "type": "uint256"
        }
      ],
      "stateMutability": "view",
      "type": "function"
    },
    {
      "inputs": [
        {
          "internalType": "bytes32",
          "name": "code",
          "type": "bytes32"
        }
      ],
      "name": "lookupCode",
      "outputs": [
        {
          "internalType": "address",
          "name": "referrer",
          "type": "address"
        },
        {
          "internalType": "uint8",
          "name": "tier",
          "type": "uint8"
        },
        {
          "internalType": "string",
          "name": "tierName",
          "type": "string"
        }
      ],
      "stateMutability": "view",
      "type": "function"
    },
    {
      "inputs": [],
      "name": "owner",
      "outputs": [
        {
          "internalType": "address",
          "name": "",
          "type": "address"
        }
      ],
      "stateMutability": "view",
      "type": "function"
    },
    {
      "inputs": [],
      "name": "pause",
      "outputs": [],
      "stateMutability": "nonpayable",
      "type": "function"
    },
    {
      "inputs": [],
      "name": "paused",
      "outputs": [
        {
          "internalType": "bool",
          "name": "",
          "type": "bool"
        }
      ],
      "stateMutability": "view",
      "type": "function"
    },
    {
      "inputs": [],
      "name": "pendingOwner",
      "outputs": [
        {
          "internalType": "address",
          "name": "",
          "type": "address"
        }
      ],
      "stateMutability": "view",
      "type": "function"
    },
    {
      "inputs": [
        {
          "internalType": "address",
          "name": "trader",
          "type": "address"
        },
        {
          "internalType": "uint256",
          "name": "feeUsdc",
          "type": "uint256"
        },
        {
          "internalType": "uint256",
          "name": "notional",
          "type": "uint256"
        }
      ],
      "name": "recordFee",
      "outputs": [],
      "stateMutability": "nonpayable",
      "type": "function"
    },
    {
      "inputs": [
        {
          "internalType": "address",
          "name": "",
          "type": "address"
        }
      ],
      "name": "referrers",
      "outputs": [
        {
          "internalType": "address",
          "name": "addr",
          "type": "address"
        },
        {
          "internalType": "bytes32",
          "name": "code",
          "type": "bytes32"
        },
        {
          "internalType": "uint256",
          "name": "totalReferredVolume",
          "type": "uint256"
        },
        {
          "internalType": "uint256",
          "name": "totalFeesEarned",
          "type": "uint256"
        },
        {
          "internalType": "uint256",
          "name": "pendingClaim",
          "type": "uint256"
        },
        {
          "internalType": "uint256",
          "name": "refereeCount",
          "type": "uint256"
        },
        {
          "internalType": "uint8",
          "name": "tier",
          "type": "uint8"
        },
        {
          "internalType": "uint256",
          "name": "registeredAt",
          "type": "uint256"
        }
      ],
      "stateMutability": "view",
      "type": "function"
    },
    {
      "inputs": [
        {
          "internalType": "bytes32",
          "name": "code",
          "type": "bytes32"
        }
      ],
      "name": "registerCode",
      "outputs": [],
      "stateMutability": "nonpayable",
      "type": "function"
    },
    {
      "inputs": [],
      "name": "renounceOwnership",
      "outputs": [],
      "stateMutability": "nonpayable",
      "type": "function"
    },
    {
      "inputs": [
        {
          "internalType": "address",
          "name": "source",
          "type": "address"
        },
        {
          "internalType": "bool",
          "name": "enabled",
          "type": "bool"
        }
      ],
      "name": "setFeeSource",
      "outputs": [],
      "stateMutability": "nonpayable",
      "type": "function"
    },
    {
      "inputs": [
        {
          "internalType": "uint8",
          "name": "idx",
          "type": "uint8"
        },
        {
          "internalType": "uint256",
          "name": "minVol",
          "type": "uint256"
        },
        {
          "internalType": "uint256",
          "name": "refBps",
          "type": "uint256"
        },
        {
          "internalType": "uint256",
          "name": "trdBps",
          "type": "uint256"
        },
        {
          "internalType": "string",
          "name": "name",
          "type": "string"
        }
      ],
      "name": "setTier",
      "outputs": [],
      "stateMutability": "nonpayable",
      "type": "function"
    },
    {
      "inputs": [
        {
          "internalType": "address",
          "name": "_tl",
          "type": "address"
        }
      ],
      "name": "setTimelock",
      "outputs": [],
      "stateMutability": "nonpayable",
      "type": "function"
    },
    {
      "inputs": [],
      "name": "stats",
      "outputs": [
        {
          "internalType": "uint256",
          "name": "totalRefs",
          "type": "uint256"
        },
        {
          "internalType": "uint256",
          "name": "paidToRefs",
          "type": "uint256"
        },
        {
          "internalType": "uint256",
          "name": "paidToTraders",
          "type": "uint256"
        },
        {
          "internalType": "uint256",
          "name": "keptByProtocol",
          "type": "uint256"
        }
      ],
      "stateMutability": "view",
      "type": "function"
    },
    {
      "inputs": [
        {
          "internalType": "uint256",
          "name": "",
          "type": "uint256"
        }
      ],
      "name": "tiers",
      "outputs": [
        {
          "internalType": "uint256",
          "name": "minVolume",
          "type": "uint256"
        },
        {
          "internalType": "uint256",
          "name": "referrerBps",
          "type": "uint256"
        },
        {
          "internalType": "uint256",
          "name": "traderBps",
          "type": "uint256"
        },
        {
          "internalType": "string",
          "name": "name",
          "type": "string"
        }
      ],
      "stateMutability": "view",
      "type": "function"
    },
    {
      "inputs": [],
      "name": "timelock",
      "outputs": [
        {
          "internalType": "address",
          "name": "",
          "type": "address"
        }
      ],
      "stateMutability": "view",
      "type": "function"
    },
    {
      "inputs": [],
      "name": "totalProtocolKept",
      "outputs": [
        {
          "internalType": "uint256",
          "name": "",
          "type": "uint256"
        }
      ],
      "stateMutability": "view",
      "type": "function"
    },
    {
      "inputs": [],
      "name": "totalReferrers",
      "outputs": [
        {
          "internalType": "uint256",
          "name": "",
          "type": "uint256"
        }
      ],
      "stateMutability": "view",
      "type": "function"
    },
    {
      "inputs": [],
      "name": "totalReferrersPaid",
      "outputs": [
        {
          "internalType": "uint256",
          "name": "",
          "type": "uint256"
        }
      ],
      "stateMutability": "view",
      "type": "function"
    },
    {
      "inputs": [],
      "name": "totalTraderRebates",
      "outputs": [
        {
          "internalType": "uint256",
          "name": "",
          "type": "uint256"
        }
      ],
      "stateMutability": "view",
      "type": "function"
    },
    {
      "inputs": [
        {
          "internalType": "address",
          "name": "",
          "type": "address"
        }
      ],
      "name": "traderRebates",
      "outputs": [
        {
          "internalType": "uint256",
          "name": "totalRebateEarned",
          "type": "uint256"
        },
        {
          "internalType": "uint256",
          "name": "pendingRebate",
          "type": "uint256"
        }
      ],
      "stateMutability": "view",
      "type": "function"
    },
    {
      "inputs": [
        {
          "internalType": "address",
          "name": "",
          "type": "address"
        }
      ],
      "name": "traderReferrer",
      "outputs": [
        {
          "internalType": "address",
          "name": "",
          "type": "address"
        }
      ],
      "stateMutability": "view",
      "type": "function"
    },
    {
      "inputs": [
        {
          "internalType": "address",
          "name": "newOwner",
          "type": "address"
        }
      ],
      "name": "transferOwnership",
      "outputs": [],
      "stateMutability": "nonpayable",
      "type": "function"
    },
    {
      "inputs": [],
      "name": "unpause",
      "outputs": [],
      "stateMutability": "nonpayable",
      "type": "function"
    },
    {
      "inputs": [
        {
          "internalType": "bytes32",
          "name": "code",
          "type": "bytes32"
        }
      ],
      "name": "useCode",
      "outputs": [],
      "stateMutability": "nonpayable",
      "type": "function"
    }
  ],
  "bytecode": "0x60a0604052346107b1576121326040813803918261001c816107d4565b9384928339810103126107b15761003e6020610037836107f9565b92016107f9565b6001600160a01b0390911690811561079e57600180546001600160a01b03199081169091555f80549182168417815560405193916001600160a01b0316907f8be0079c531659141344cd1fd0a4f28419497f9722a3daafe3b4186f6b6457e09080a360017f9b779b17422d0df92223018b32b4d1fa46e071723d6817e2486d003becc55f00556001600160a01b031690811561075c57506080526100e06107b5565b5f8152602081016107d0815260408201906103e8825261010060406107d4565b600681526542524f4e5a4560d01b6020820152606084018190529251600355516004555160055580516001600160401b0381116104c057600654600181811c91168015610752575b60208210146104a257601f81116106ef575b50602091601f821160011461068f579181925f92610684575b50508160011b915f199060031b1c1916176006555b6101906107b5565b64174876e8008152602081016109c4815260408201906104b082526101b560406107d4565b600681526529a4a62b22a960d11b6020820152606084018190529251600755516008555160095580516001600160401b0381116104c057600a54600181811c9116801561067a575b60208210146104a257601f8111610617575b50602091601f82116001146105b7579181925f926105ac575b50508160011b915f199060031b1c191617600a555b6102456107b5565b64e8d4a51000815260208101610bb8815260408201906105dc825261026a60406107d4565b600481526311d3d31160e21b6020820152606084018190529251600b5551600c5551600d5580516001600160401b0381116104c057600e54600181811c911680156105a2575b60208210146104a257601f811161053f575b50602091601f82116001146104df579181925f926104d4575b50508160011b915f199060031b1c191617600e555b6102f86107b5565b6509184e72a000815260208101610fa0815260408201906107d0825261031e60406107d4565b60078152661112505353d39160ca1b6020820152606084018190529251600f55516010555160115580516001600160401b0381116104c057601254600181811c911680156104b6575b60208210146104a257601f811161043f575b50602091601f82116001146103df579181925f926103d4575b50508160011b915f199060031b1c1916176012555b604051611924908161080e82396080518181816103a00152818161077d01528181610a290152610f040152f35b015190505f80610392565b601f1982169260125f52805f20915f5b8581106104275750836001951061040f575b505050811b016012556103a7565b01515f1960f88460031b161c191690555f8080610401565b919260206001819286850151815501940192016103ef565b60125f527fbb8a6a4669ba250d26cd7a459eca9d215f8307e33aebe50379bc5a3617ec3444601f830160051c81019160208410610498575b601f0160051c01905b81811061048d5750610379565b5f8155600101610480565b9091508190610477565b634e487b7160e01b5f52602260045260245ffd5b90607f1690610367565b634e487b7160e01b5f52604160045260245ffd5b015190505f806102db565b601f19821692600e5f52805f20915f5b8581106105275750836001951061050f575b505050811b01600e556102f0565b01515f1960f88460031b161c191690555f8080610501565b919260206001819286850151815501940192016104ef565b600e5f527fbb7b4a454dc3493923482f07822329ed19e8244eff582cc204f8554c3620c3fd601f830160051c81019160208410610598575b601f0160051c01905b81811061058d57506102c2565b5f8155600101610580565b9091508190610577565b90607f16906102b0565b015190505f80610228565b601f19821692600a5f52805f20915f5b8581106105ff575083600195106105e7575b505050811b01600a5561023d565b01515f1960f88460031b161c191690555f80806105d9565b919260206001819286850151815501940192016105c7565b600a5f527fc65a7bb8d6351c1cf70c95a316cc6a92839c986682d98bc35f958f4883f9d2a8601f830160051c81019160208410610670575b601f0160051c01905b818110610665575061020f565b5f8155600101610658565b909150819061064f565b90607f16906101fd565b015190505f80610173565b601f1982169260065f52805f20915f5b8581106106d7575083600195106106bf575b505050811b01600655610188565b01515f1960f88460031b161c191690555f80806106b1565b9192602060018192868501518155019401920161069f565b60065f527ff652222313e28459528d920b65115c16c04f3efc82aaedc97be59f3f377c0d3f601f830160051c81019160208410610748575b601f0160051c01905b81811061073d575061015a565b5f8155600101610730565b9091508190610727565b90607f1690610148565b62461bcd60e51b815260206004820152601460248201527f416666696c696174653a207a65726f20757364630000000000000000000000006044820152606490fd5b631e4fbdf760e01b5f525f60045260245ffd5b5f80fd5b60405190608082016001600160401b038111838210176104c057604052565b6040519190601f01601f191682016001600160401b038111838210176104c057604052565b51906001600160a01b03821682036107b15756fe60806040526004361015610011575f80fd5b5f3560e01c8063039af9eb146111725780631d2d965114610fd7578063249d39e914610fbb5780633388701914610f9e5780633519a2f814610ef157806336def2c814610cd15780633f4ba83a14610c6357806347c30cbd14610c315780634a3b68cc14610ba15780634a9fefc714610a935780634be49430146109e35780635adb9995146109c65780635c5ccbde146109775780635c975abb1461095257806362d03cb714610935578063657a7549146108f5578063715018a61461089257806379ba50971461080d5780638456cb59146107ac57806389a30271146107685780638da5cb5b146107415780639a427619146104f15780639cabc178146104d4578063a855575214610497578063b02bd4451461044c578063bdacb30314610409578063cda3948f1461034d578063cecf45821461030c578063d33219b4146102e4578063d80528ae146102ae578063dd9079731461027b578063e30c397814610253578063f2fde38b146101e65763fa60a3821461018f575f80fd5b346101e25760403660031901126101e2576101a861132c565b602435908115158092036101e2576101be611822565b60018060a01b03165f52601660205260405f209060ff801983541691161790555f80f35b5f80fd5b346101e25760203660031901126101e2576101ff61132c565b610207611822565b60018060a01b0316806001600160601b0360a01b600154161760015560018060a01b035f54167f38d16b8cac22d99fc7c124b9cd0de2d3fa1faef420bfe791d8c362d765e227005f80a3005b346101e2575f3660031901126101e2576001546040516001600160a01b039091168152602090f35b346101e25760603660031901126101e2576102ac61029761132c565b61029f611804565b6044359060243590611454565b005b346101e2575f3660031901126101e2576080601b54601854601954601a5491604051938452602084015260408301526060820152f35b346101e2575f3660031901126101e2576002546040516001600160a01b039091168152602090f35b346101e25760203660031901126101e2576001600160a01b0361032d61132c565b165f5260176020526040805f206001815491015482519182526020820152f35b346101e2575f3660031901126101e257610365611835565b61036d611804565b335f526017602052600160405f200154610388811515611364565b335f5260176020525f60016040822001556103c481337f000000000000000000000000000000000000000000000000000000000000000061186d565b6040519081525f60208201527ffa8256f7c08bb01a03ea96f8b3a904a4450311c9725d1c52cdbe21ed3dc42dcc60403392a260015f805160206118cf83398151915255005b346101e25760203660031901126101e25761042261132c565b61042a611822565b600280546001600160a01b0319166001600160a01b0392909216919091179055005b346101e25760203660031901126101e25760406001600160a01b0361046f61132c565b16805f5260176020526001825f200154905f526017602052815f205482519182526020820152f35b346101e25760203660031901126101e2576001600160a01b036104b861132c565b165f526016602052602060ff60405f2054166040519015158152f35b346101e2575f3660031901126101e2576020601854604051908152f35b346101e25760a03660031901126101e25760043560ff8116908181036101e2576084359167ffffffffffffffff83116101e257366023840112156101e25782600401359067ffffffffffffffff82116101e25736602483860101116101e25760049061055b611822565b1015610706576040519061056e8261122a565b60243582526020820160443581525f60206040850193606435855280602483601f19601f84011601996105a46040519b8c611246565b828b5201838a0137870101526060830194855260048410156106f25760069360021b9251836003015551600483015551600582015501905190815167ffffffffffffffff81116106de576105f882546111d5565b601f8111610699575b50602092601f821160011461063d57928192935f92610632575b50505f19600383901b1c191660019190911b179055005b01519050838061061b565b601f19821693835f52805f20915f5b8681106106815750836001959610610669575b505050811b019055005b01515f1960f88460031b161c1916905583808061065f565b9192602060018192868501518155019401920161064c565b825f5260205f20601f830160051c810191602084106106d4575b601f0160051c01905b8181106106c95750610601565b5f81556001016106bc565b90915081906106b3565b634e487b7160e01b5f52604160045260245ffd5b634e487b7160e01b5f52603260045260245ffd5b60405162461bcd60e51b815260206004820152601360248201527220b33334b634b0ba329d103130b2103a34b2b960691b6044820152606490fd5b346101e2575f3660031901126101e2575f546040516001600160a01b039091168152602090f35b346101e2575f3660031901126101e2576040517f00000000000000000000000000000000000000000000000000000000000000006001600160a01b03168152602090f35b346101e2575f3660031901126101e2576107c4611822565b6107cc611804565b6001805460ff60a01b1916600160a01b1790556040513381527f62e78cea01bee320cd4e420270b5ea74000d11b0c9f74754ebdbfc544b05a25890602090a1005b346101e2575f3660031901126101e257600154336001600160a01b039091160361087f57600180546001600160a01b03199081169091555f805433928116831782556001600160a01b0316907f8be0079c531659141344cd1fd0a4f28419497f9722a3daafe3b4186f6b6457e09080a3005b63118cdaa760e01b5f523360045260245ffd5b346101e2575f3660031901126101e2576108aa611822565b600180546001600160a01b03199081169091555f80549182168155906001600160a01b03167f8be0079c531659141344cd1fd0a4f28419497f9722a3daafe3b4186f6b6457e08280a3005b346101e25760203660031901126101e2576001600160a01b0361091661132c565b165f526015602052602060018060a01b0360405f205416604051908152f35b346101e2575f3660031901126101e2576020601b54604051908152f35b346101e2575f3660031901126101e257602060ff60015460a01c166040519015158152f35b346101e25760203660031901126101e2576109c26109966004356113b0565b60ff60409492945194859460018060a01b03168552166020840152606060408401526060830190611308565b0390f35b346101e2575f3660031901126101e2576020601954604051908152f35b346101e2575f3660031901126101e2576109fb611835565b610a03611804565b335f526013602052600460405f20015f815491610a21831515611364565b55610a4d81337f000000000000000000000000000000000000000000000000000000000000000061186d565b604051908152600160208201527ffa8256f7c08bb01a03ea96f8b3a904a4450311c9725d1c52cdbe21ed3dc42dcc60403392a260015f805160206118cf83398151915255005b346101e25760203660031901126101e257610aac61132c565b5f60e0604051610abb8161120d565b8281528260208201528260408201528260608201528260808201528260a08201528260c0820152015260018060a01b03165f52601360205261010060405f20604051610b068161120d565b60ff60018060a01b03835416928383526001810154602084019081526002820154604085019081526003830154606086019081526004840154916080870192835260058501549360a0880194855260e06007886006890154169760c08b01988952015498019788526040519889525160208901525160408801525160608701525160808601525160a0850152511660c08301525160e0820152f35b346101e25760203660031901126101e2576001600160a01b03610bc261132c565b165f52601360205261010060405f2060018060a01b038154169060018101549060028101546003820154600483015490600584015492600760ff60068701541695015495604051978852602088015260408701526060860152608085015260a084015260c083015260e0820152f35b346101e25760203660031901126101e2576004355f526014602052602060018060a01b0360405f205416604051908152f35b346101e2575f3660031901126101e257610c7b611822565b60015460ff8160a01c1615610cc25760ff60a01b19166001556040513381527f5db9ee0a495bf2e6ff9c91a7834c1ba4fdd244a5e8aa4e537bd38aeae4b073aa90602090a1005b638dfc202b60e01b5f5260045ffd5b346101e25760203660031901126101e257600435610ced611804565b335f908152601360205260409020546001600160a01b0316610eac575f818152601460205260409020546001600160a01b0316610e6f578015610e3257604051610d368161120d565b33815260076020820183815260ff604084015f8152606085015f8152608086015f815260a08701915f835260c08801935f855260e0890196428852335f52601360205260405f209960018060a01b039060018060a01b03905116166001600160601b0360a01b8b5416178a555160018a0155516002890155516003880155516004870155516005860155511660ff60068501911660ff1982541617905551910155805f52601460205260405f2060018060a01b0333166001600160601b0360a01b825416179055610e08601b54611342565b601b55337f5327de19701b3f969c3e2899cd2a30d9ec1da62d1b01f063f3ca865b21affbd25f80a3005b60405162461bcd60e51b8152602060048201526015602482015274416666696c696174653a20656d70747920636f646560581b6044820152606490fd5b60405162461bcd60e51b815260206004820152601560248201527420b33334b634b0ba329d1031b7b232903a30b5b2b760591b6044820152606490fd5b60405162461bcd60e51b815260206004820152601d60248201527f416666696c696174653a20616c726561647920726567697374657265640000006044820152606490fd5b346101e25760203660031901126101e2577f00000000000000000000000000000000000000000000000000000000000000006040516323b872dd60e01b5f52336004523060245260043560445260205f60648180865af19060015f5114821615610f7e575b5015610f5e57005b635274afe760e01b5f9081526001600160a01b0391909116600452602490fd5b6001821516610f965750813b15153d15161682610f56565b3d5f823e3d90fd5b346101e2575f3660031901126101e2576020601a54604051908152f35b346101e2575f3660031901126101e25760206040516127108152f35b346101e25760203660031901126101e257600435610ff3611804565b335f908152601560205260409020546001600160a01b031661112d575f818152601460205260409020546001600160a01b03169081156110e8573382146110a357335f52601560205260405f2060018060a01b0383166001600160601b0360a01b825416179055815f526013602052600560405f20016110738154611342565b90556040519081527fcaaff2bf66409b63db109a191b2b3b41ff5bfb20fab38b72c51c78bf924b480860203392a3005b60405162461bcd60e51b815260206004820152601860248201527f416666696c696174653a2073656c662d726566657272616c00000000000000006044820152606490fd5b60405162461bcd60e51b815260206004820152601760248201527f416666696c696174653a20756e6b6e6f776e20636f64650000000000000000006044820152606490fd5b60405162461bcd60e51b815260206004820152601b60248201527f416666696c696174653a20616c726561647920726566657272656400000000006044820152606490fd5b346101e25760203660031901126101e25760043560048110156101e25760021b80600301546109c26004830154926111b1600660058301549201611268565b90604051948594855260208501526040840152608060608401526080830190611308565b90600182811c92168015611203575b60208310146111ef57565b634e487b7160e01b5f52602260045260245ffd5b91607f16916111e4565b610100810190811067ffffffffffffffff8211176106de57604052565b6080810190811067ffffffffffffffff8211176106de57604052565b90601f8019910116810190811067ffffffffffffffff8211176106de57604052565b9060405191825f82549261127b846111d5565b80845293600181169081156112e657506001146112a2575b506112a092500383611246565b565b90505f9291925260205f20905f915b8183106112ca5750509060206112a0928201015f611293565b60209193508060019154838589010152019101909184926112b1565b9050602092506112a094915060ff191682840152151560051b8201015f611293565b805180835260209291819084018484015e5f828201840152601f01601f1916010190565b600435906001600160a01b03821682036101e257565b5f1981146113505760010190565b634e487b7160e01b5f52601160045260245ffd5b1561136b57565b60405162461bcd60e51b815260206004820152601b60248201527f416666696c696174653a206e6f7468696e6720746f20636c61696d00000000006044820152606490fd5b5f908152601460205260409020546001600160a01b031690811561140d5760018060a01b0382165f526013602052600660405f2001549060ff82169260048410156106f25760066103fc61140a92959460021b1601611268565b90565b90505f905f90604051611421602082611246565b5f815290565b9190820180921161135057565b8181029291811591840414171561135057565b9190820391821161135057565b335f52601660205260ff60405f205416156117bf5781156117ba576001600160a01b039081165f818152601560205260409020549091169290919083156117a557835f52601360205260405f2090600682018054600460ff821610156106f2576103fc9060021b16916127106115148161150b6040516114d38161122a565b87600301548152600488015490602081019182526060611501600660058c01549b604085019c8d5201611268565b9101525189611434565b04945187611434565b04936115ba61152c86611527878a611447565b611447565b6004830161153b878254611427565b90556003830161154c878254611427565b905561155d60028401948554611427565b8455885f526017602052600160405f2001611579888254611427565b9055885f52601760205260405f20611592888254611427565b90556115a086601854611427565b6018556115af87601954611427565b601955601a54611427565b601a5560ff83541692839260039054905b8460ff821611611771575b505060ff8416928303611621575b50505050916060917fae2f8f1c7ab8b72b30acc0a81b90cf23d2d744aeb2b4810b662cb7485385b9149360405192835260208301526040820152a3565b805460ff191683179055546001600160a01b03169160048110156106f25760408051928352602083015260021b60060180545f9161165e826111d5565b918260408601526001811690815f1461172c57506001146116d4575b5050917fe002a26c1f2c85d41519456347240b7bbbb0af87706cc67d3f56ec0f4cf996fb827fae2f8f1c7ab8b72b30acc0a81b90cf23d2d744aeb2b4810b662cb7485385b914979593606097950390a2919381935f6115e4565b5f908152602081209092505b81831061171557505081016060017fe002a26c1f2c85d41519456347240b7bbbb0af87706cc67d3f56ec0f4cf996fb8261167a565b8054606084860101526020909201916001016116e0565b60ff191660608681019190915292151560051b850190920192507fe002a26c1f2c85d41519456347240b7bbbb0af87706cc67d3f56ec0f4cf996fb915083905061167a565b60048110156106f2578060021b6003015482101561179a5760ff168015611350575f19016115cb565b94505f9050806115d6565b5090506117b59150601a54611427565b601a55565b505050565b60405162461bcd60e51b815260206004820152601960248201527f416666696c696174653a206e6f742066656520736f75726365000000000000006044820152606490fd5b60ff60015460a01c1661181357565b63d93c066560e01b5f5260045ffd5b5f546001600160a01b0316330361087f57565b60025f805160206118cf833981519152541461185e5760025f805160206118cf83398151915255565b633ee5aeb560e01b5f5260045ffd5b916040519163a9059cbb60e01b5f5260018060a01b031660045260245260205f60448180865af19060015f51148216156118ad575b60405215610f5e5750565b9060018115166118c557823b15153d151616906118a2565b503d5f823e3d90fdfe9b779b17422d0df92223018b32b4d1fa46e071723d6817e2486d003becc55f00a26469706673582212206af5eee4bad0269ff770e39f5746a5b831602f37780e24c372b0608d22fb2d5264736f6c634300081a0033",
  "linkReferences": {},
  "deployedLinkReferences": {}
}