{
  "_format": "hh-sol-artifact-1",
  "contractName": "WikiSpotRouter",
  "sourceName": "src/WikiSpotRouter.sol",
  "abi": [
    {
      "inputs": [
        {
          "internalType": "address",
          "name": "owner",
          "type": "address"
        },
        {
          "internalType": "address",
          "name": "_feeRecipient",
          "type": "address"
        }
      ],
      "stateMutability": "nonpayable",
      "type": "constructor"
    },
    {
      "inputs": [
        {
          "internalType": "address",
          "name": "owner",
          "type": "address"
        }
      ],
      "name": "OwnableInvalidOwner",
      "type": "error"
    },
    {
      "inputs": [
        {
          "internalType": "address",
          "name": "account",
          "type": "address"
        }
      ],
      "name": "OwnableUnauthorizedAccount",
      "type": "error"
    },
    {
      "inputs": [],
      "name": "ReentrancyGuardReentrantCall",
      "type": "error"
    },
    {
      "inputs": [
        {
          "internalType": "address",
          "name": "token",
          "type": "address"
        }
      ],
      "name": "SafeERC20FailedOperation",
      "type": "error"
    },
    {
      "anonymous": false,
      "inputs": [
        {
          "indexed": false,
          "internalType": "address",
          "name": "token",
          "type": "address"
        },
        {
          "indexed": false,
          "internalType": "uint256",
          "name": "amount",
          "type": "uint256"
        }
      ],
      "name": "FeeWithdrawn",
      "type": "event"
    },
    {
      "anonymous": false,
      "inputs": [
        {
          "indexed": true,
          "internalType": "address",
          "name": "previousOwner",
          "type": "address"
        },
        {
          "indexed": true,
          "internalType": "address",
          "name": "newOwner",
          "type": "address"
        }
      ],
      "name": "OwnershipTransferStarted",
      "type": "event"
    },
    {
      "anonymous": false,
      "inputs": [
        {
          "indexed": true,
          "internalType": "address",
          "name": "previousOwner",
          "type": "address"
        },
        {
          "indexed": true,
          "internalType": "address",
          "name": "newOwner",
          "type": "address"
        }
      ],
      "name": "OwnershipTransferred",
      "type": "event"
    },
    {
      "anonymous": false,
      "inputs": [
        {
          "indexed": false,
          "internalType": "uint256",
          "name": "newBps",
          "type": "uint256"
        }
      ],
      "name": "SpreadUpdated",
      "type": "event"
    },
    {
      "anonymous": false,
      "inputs": [
        {
          "indexed": true,
          "internalType": "address",
          "name": "trader",
          "type": "address"
        },
        {
          "indexed": true,
          "internalType": "address",
          "name": "tokenIn",
          "type": "address"
        },
        {
          "indexed": true,
          "internalType": "address",
          "name": "tokenOut",
          "type": "address"
        },
        {
          "indexed": false,
          "internalType": "uint256",
          "name": "amountIn",
          "type": "uint256"
        },
        {
          "indexed": false,
          "internalType": "uint256",
          "name": "amountOut",
          "type": "uint256"
        },
        {
          "indexed": false,
          "internalType": "uint256",
          "name": "spreadFee",
          "type": "uint256"
        },
        {
          "indexed": false,
          "internalType": "uint256",
          "name": "uniswapFee",
          "type": "uint256"
        }
      ],
      "name": "Swap",
      "type": "event"
    },
    {
      "inputs": [],
      "name": "ARB",
      "outputs": [
        {
          "internalType": "address",
          "name": "",
          "type": "address"
        }
      ],
      "stateMutability": "view",
      "type": "function"
    },
    {
      "inputs": [],
      "name": "BPS",
      "outputs": [
        {
          "internalType": "uint256",
          "name": "",
          "type": "uint256"
        }
      ],
      "stateMutability": "view",
      "type": "function"
    },
    {
      "inputs": [],
      "name": "GMXV5",
      "outputs": [
        {
          "internalType": "address",
          "name": "",
          "type": "address"
        }
      ],
      "stateMutability": "view",
      "type": "function"
    },
    {
      "inputs": [],
      "name": "LINK",
      "outputs": [
        {
          "internalType": "address",
          "name": "",
          "type": "address"
        }
      ],
      "stateMutability": "view",
      "type": "function"
    },
    {
      "inputs": [],
      "name": "UNI",
      "outputs": [
        {
          "internalType": "address",
          "name": "",
          "type": "address"
        }
      ],
      "stateMutability": "view",
      "type": "function"
    },
    {
      "inputs": [],
      "name": "UNISWAP_QUOTER",
      "outputs": [
        {
          "internalType": "address",
          "name": "",
          "type": "address"
        }
      ],
      "stateMutability": "view",
      "type": "function"
    },
    {
      "inputs": [],
      "name": "UNISWAP_ROUTER",
      "outputs": [
        {
          "internalType": "address",
          "name": "",
          "type": "address"
        }
      ],
      "stateMutability": "view",
      "type": "function"
    },
    {
      "inputs": [],
      "name": "USDC",
      "outputs": [
        {
          "internalType": "address",
          "name": "",
          "type": "address"
        }
      ],
      "stateMutability": "view",
      "type": "function"
    },
    {
      "inputs": [],
      "name": "WBTC",
      "outputs": [
        {
          "internalType": "address",
          "name": "",
          "type": "address"
        }
      ],
      "stateMutability": "view",
      "type": "function"
    },
    {
      "inputs": [],
      "name": "WETH",
      "outputs": [
        {
          "internalType": "address",
          "name": "",
          "type": "address"
        }
      ],
      "stateMutability": "view",
      "type": "function"
    },
    {
      "inputs": [],
      "name": "acceptOwnership",
      "outputs": [],
      "stateMutability": "nonpayable",
      "type": "function"
    },
    {
      "inputs": [],
      "name": "feeRecipient",
      "outputs": [
        {
          "internalType": "address",
          "name": "",
          "type": "address"
        }
      ],
      "stateMutability": "view",
      "type": "function"
    },
    {
      "inputs": [
        {
          "internalType": "address",
          "name": "tokenIn",
          "type": "address"
        },
        {
          "internalType": "address",
          "name": "tokenOut",
          "type": "address"
        },
        {
          "internalType": "uint256",
          "name": "amountIn",
          "type": "uint256"
        }
      ],
      "name": "getQuote",
      "outputs": [
        {
          "internalType": "uint256",
          "name": "amountOut",
          "type": "uint256"
        },
        {
          "internalType": "uint256",
          "name": "spreadFee",
          "type": "uint256"
        },
        {
          "internalType": "uint256",
          "name": "priceImpactBps",
          "type": "uint256"
        },
        {
          "internalType": "uint256",
          "name": "uniswapFeeBps",
          "type": "uint256"
        }
      ],
      "stateMutability": "view",
      "type": "function"
    },
    {
      "inputs": [],
      "name": "maxSpreadBps",
      "outputs": [
        {
          "internalType": "uint256",
          "name": "",
          "type": "uint256"
        }
      ],
      "stateMutability": "view",
      "type": "function"
    },
    {
      "inputs": [],
      "name": "owner",
      "outputs": [
        {
          "internalType": "address",
          "name": "",
          "type": "address"
        }
      ],
      "stateMutability": "view",
      "type": "function"
    },
    {
      "inputs": [],
      "name": "pendingOwner",
      "outputs": [
        {
          "internalType": "address",
          "name": "",
          "type": "address"
        }
      ],
      "stateMutability": "view",
      "type": "function"
    },
    {
      "inputs": [
        {
          "internalType": "address",
          "name": "",
          "type": "address"
        },
        {
          "internalType": "address",
          "name": "",
          "type": "address"
        }
      ],
      "name": "pools",
      "outputs": [
        {
          "internalType": "uint24",
          "name": "fee",
          "type": "uint24"
        },
        {
          "internalType": "address",
          "name": "hopToken",
          "type": "address"
        },
        {
          "internalType": "uint24",
          "name": "hopFee",
          "type": "uint24"
        },
        {
          "internalType": "bool",
          "name": "active",
          "type": "bool"
        }
      ],
      "stateMutability": "view",
      "type": "function"
    },
    {
      "inputs": [],
      "name": "renounceOwnership",
      "outputs": [],
      "stateMutability": "nonpayable",
      "type": "function"
    },
    {
      "inputs": [],
      "name": "revenueStats",
      "outputs": [
        {
          "internalType": "uint256",
          "name": "spreadEarned",
          "type": "uint256"
        },
        {
          "internalType": "uint256",
          "name": "volumeProcessed",
          "type": "uint256"
        },
        {
          "internalType": "uint256",
          "name": "currentSpreadBps",
          "type": "uint256"
        },
        {
          "internalType": "uint256",
          "name": "effectiveAPR",
          "type": "uint256"
        }
      ],
      "stateMutability": "view",
      "type": "function"
    },
    {
      "inputs": [
        {
          "internalType": "address",
          "name": "r",
          "type": "address"
        }
      ],
      "name": "setFeeRecipient",
      "outputs": [],
      "stateMutability": "nonpayable",
      "type": "function"
    },
    {
      "inputs": [
        {
          "internalType": "address",
          "name": "tokenIn",
          "type": "address"
        },
        {
          "internalType": "address",
          "name": "tokenOut",
          "type": "address"
        },
        {
          "internalType": "uint24",
          "name": "fee",
          "type": "uint24"
        },
        {
          "internalType": "address",
          "name": "hopToken",
          "type": "address"
        },
        {
          "internalType": "uint24",
          "name": "hopFee",
          "type": "uint24"
        },
        {
          "internalType": "bool",
          "name": "active",
          "type": "bool"
        }
      ],
      "name": "setPool",
      "outputs": [],
      "stateMutability": "nonpayable",
      "type": "function"
    },
    {
      "inputs": [
        {
          "internalType": "uint256",
          "name": "bps",
          "type": "uint256"
        }
      ],
      "name": "setSpread",
      "outputs": [],
      "stateMutability": "nonpayable",
      "type": "function"
    },
    {
      "inputs": [
        {
          "internalType": "address",
          "name": "_tl",
          "type": "address"
        }
      ],
      "name": "setTimelock",
      "outputs": [],
      "stateMutability": "nonpayable",
      "type": "function"
    },
    {
      "inputs": [],
      "name": "spreadBps",
      "outputs": [
        {
          "internalType": "uint256",
          "name": "",
          "type": "uint256"
        }
      ],
      "stateMutability": "view",
      "type": "function"
    },
    {
      "inputs": [
        {
          "internalType": "address",
          "name": "tokenIn",
          "type": "address"
        },
        {
          "internalType": "address",
          "name": "tokenOut",
          "type": "address"
        },
        {
          "internalType": "uint256",
          "name": "amountIn",
          "type": "uint256"
        },
        {
          "internalType": "uint256",
          "name": "minAmountOut",
          "type": "uint256"
        },
        {
          "internalType": "address",
          "name": "recipient",
          "type": "address"
        }
      ],
      "name": "swap",
      "outputs": [
        {
          "internalType": "uint256",
          "name": "amountOut",
          "type": "uint256"
        }
      ],
      "stateMutability": "nonpayable",
      "type": "function"
    },
    {
      "inputs": [
        {
          "internalType": "address",
          "name": "tokenIn",
          "type": "address"
        },
        {
          "internalType": "address",
          "name": "tokenOut",
          "type": "address"
        },
        {
          "internalType": "uint256",
          "name": "amountOut",
          "type": "uint256"
        },
        {
          "internalType": "uint256",
          "name": "maxAmountIn",
          "type": "uint256"
        },
        {
          "internalType": "address",
          "name": "recipient",
          "type": "address"
        }
      ],
      "name": "swapExactOut",
      "outputs": [
        {
          "internalType": "uint256",
          "name": "amountIn",
          "type": "uint256"
        }
      ],
      "stateMutability": "nonpayable",
      "type": "function"
    },
    {
      "inputs": [],
      "name": "timelock",
      "outputs": [
        {
          "internalType": "address",
          "name": "",
          "type": "address"
        }
      ],
      "stateMutability": "view",
      "type": "function"
    },
    {
      "inputs": [
        {
          "internalType": "address",
          "name": "",
          "type": "address"
        }
      ],
      "name": "tokenFeesEarned",
      "outputs": [
        {
          "internalType": "uint256",
          "name": "",
          "type": "uint256"
        }
      ],
      "stateMutability": "view",
      "type": "function"
    },
    {
      "inputs": [],
      "name": "totalSpreadEarned",
      "outputs": [
        {
          "internalType": "uint256",
          "name": "",
          "type": "uint256"
        }
      ],
      "stateMutability": "view",
      "type": "function"
    },
    {
      "inputs": [],
      "name": "totalVolumeProcessed",
      "outputs": [
        {
          "internalType": "uint256",
          "name": "",
          "type": "uint256"
        }
      ],
      "stateMutability": "view",
      "type": "function"
    },
    {
      "inputs": [
        {
          "internalType": "address",
          "name": "newOwner",
          "type": "address"
        }
      ],
      "name": "transferOwnership",
      "outputs": [],
      "stateMutability": "nonpayable",
      "type": "function"
    },
    {
      "inputs": [
        {
          "internalType": "address[]",
          "name": "tokens",
          "type": "address[]"
        }
      ],
      "name": "withdrawAllFees",
      "outputs": [],
      "stateMutability": "nonpayable",
      "type": "function"
    },
    {
      "inputs": [
        {
          "internalType": "address",
          "name": "token",
          "type": "address"
        }
      ],
      "name": "withdrawFees",
      "outputs": [],
      "stateMutability": "nonpayable",
      "type": "function"
    }
  ],
  "bytecode": "0x608060405234610de857604051601f61288538819003918201601f19168301916001600160401b03831184841017610dec578084926040948552833981010312610de857610058602061005183610e1f565b9201610e1f565b6001600160a01b03821615610dd55761007082610e33565b60017f9b779b17422d0df92223018b32b4d1fa46e071723d6817e2486d003becc55f0055600f60055560326006556001600160a01b0316908115610d90576100b790610e33565b600480546001600160a01b0319169190911790556100d3610e00565b6101f481525f6020808301828152604084018381526001606086019081525f805160206128058339815191529094525f8051602061286583398151915290925292517f477deee824522a3ae52a6506d15b43a4c60f9275aa798987b3a5108508102745805494519251935160ff60d01b90151560d01b1662ffffff60b81b60b89590951b949094166301000000600160b81b0360189490941b9390931662ffffff9092166001600160d81b0319909516949094171717179055610194610e00565b6101f481525f6020808301828152604084018381526001606086019081525f805160206128258339815191529094525f805160206127c583398151915290925292517ffae92055a32f84f4c6e8ebb7482c6d6d6312e46c9497fef9d0a83f71dca3953e805494519251935160ff60d01b90151560d01b1662ffffff60b81b60b89590951b949094166301000000600160b81b0360189490941b9390931662ffffff9092166001600160d81b0319909516949094171717179055610255610e00565b6101f481525f602080830182815260408401838152600160608601908152732f2a2543b76a4166549f7aab2e75bef0aefc5b0f9094525f8051602061286583398151915290925292517f6cdf5048645d01ccad8d5f1e8bca1000d5e49a68dc80e27b2901ad886ce75555805494519251935160ff60d01b90151560d01b1662ffffff60b81b60b89590951b949094166301000000600160b81b0360189490941b9390931662ffffff9092166001600160d81b031990951694909417171717905561031d610e00565b6101f481525f6020808301828152604084018381526001606086019081525f805160206128258339815191529094525f805160206127e583398151915290925292517f8fdebe7047e5041188009c77ce8bb16bd2a04d6e95bf3e67034c95793e772fb1805494519251935160ff60d01b90151560d01b1662ffffff60b81b60b89590951b949094166301000000600160b81b0360189490941b9390931662ffffff9092166001600160d81b03199095169490941717171790556103de610e00565b6101f481525f60208083018281526040840183815260016060860190815273912ce59144191c1204e64559fe8253a0e49e65489094525f8051602061286583398151915290925292517fef2471a7370082c3e04627a6aa7943ba2e4aa0ade3aec9353ef6f28022d787f5805494519251935160ff60d01b90151560d01b1662ffffff60b81b60b89590951b949094166301000000600160b81b0360189490941b9390931662ffffff9092166001600160d81b03199095169490941717171790556104a6610e00565b6101f481525f6020808301828152604084018381526001606086019081525f805160206128258339815191529094525f8051602061284583398151915290925292517f16df0e0ede77c3e91e9a5588d55c962b047c55bd679ac4951137a1c478c079a4805494519251935160ff60d01b90151560d01b1662ffffff60b81b60b89590951b949094166301000000600160b81b0360189490941b9390931662ffffff9092166001600160d81b0319909516949094171717179055610567610e00565b6101f481525f60208083018281526040840183815260016060860190815273912ce59144191c1204e64559fe8253a0e49e65489094525f805160206127c583398151915290925292517f6968ab778e46d9d47a111563d8d9519307d289f167ebd4e44eae1efea9685017805494519251935160ff60d01b90151560d01b1662ffffff60b81b60b89590951b949094166301000000600160b81b0360189490941b9390931662ffffff9092166001600160d81b031990951694909417171717905561062f610e00565b6101f481525f6020808301828152604084018381526001606086019081525f805160206128058339815191529094525f8051602061284583398151915290925292517f019353fef9469b59e66aaf4f1f21698ec4758125da622f99cfeb610fd967ed39805494519251935160ff60d01b90151560d01b1662ffffff60b81b60b89590951b949094166301000000600160b81b0360189490941b9390931662ffffff9092166001600160d81b03199095169490941717171790556106f0610e00565b610bb881525f60208083018281526040840183815260016060860190815273f97f4df75117a78c1a5a0dbb814af92458539fb49094525f8051602061286583398151915290925292517fcf8db49911b79e75dd1b38e30c6825ca95437040ccd9c863af9cc5993164de82805494519251935160ff60d01b90151560d01b1662ffffff60b81b60b89590951b949094166301000000600160b81b0360189490941b9390931662ffffff9092166001600160d81b03199095169490941717171790556107b8610e00565b610bb881525f6020808301828152604084018381526001606086019081525f805160206128258339815191529094527fc72fa389f399a6742b533a6768772961cf09a2ec116b2fb5870f8bceed7421e690925292517fd47d0ca2e595be9afd116d833e164c1a05fd8e52a4622239e21b8231c5583f10805494519251935160ff60d01b90151560d01b1662ffffff60b81b60b89590951b949094166301000000600160b81b0360189490941b9390931662ffffff9092166001600160d81b031990951694909417171717905561088c610e00565b610bb881525f60208083018281526040840183815260016060860190815273fa7f8980b0f1e64a2062791cc3b0871572f1f7f09094525f8051602061286583398151915290925292517faa70752d5669e23aad16f9d0292db2269b3120749005f54bf372152afae8a5cb805494519251935160ff60d01b90151560d01b1662ffffff60b81b60b89590951b949094166301000000600160b81b0360189490941b9390931662ffffff9092166001600160d81b0319909516949094171717179055610954610e00565b610bb881525f6020808301828152604084018381526001606086019081525f805160206128258339815191529094527f41a3792bad5cf0e34a10b3c67e7716fa2a00179291382c2ae9edebf2913fdebf90925292517fa4c6cda2092f11b5b1abeb0130986d4513f2e9de0da75e2b48e958a6d0087f94805494519251935160ff60d01b90151560d01b1662ffffff60b81b60b89590951b949094166301000000600160b81b0360189490941b9390931662ffffff9092166001600160d81b0319909516949094171717179055610a28610e00565b610bb881525f8051602061280583398151915260208083019182526101f46040840190815260016060850190815273fc5a1a6eb076a2c7ad06ed22c90d7e710e35ad0a5f525f8051602061286583398151915290925292517f95b80e04f42cb1eb278d1a2db8e5aaffd44f24815a486f45d23e8c41ab2dea3780549351945192516001600160d81b031990941662ffffff929092169190911760189490941b6301000000600160b81b03169390931760b89190911b62ffffff60b81b161790151560d01b60ff60d01b16179055610afd610e00565b610bb881525f8051602061280583398151915260208083019182526101f4604084019081526001606085019081525f805160206128258339815191525f527fea0e565e7ac4f9e6bccd7b0e0bcfefc1e66681d2a85f6dc555380041b0c7929a90925292517f08aca100a047554b76fefbcbf68d347ceec7a0db636ccbf9b3f224a714a092cd80549351945192516001600160d81b031990941662ffffff929092169190911760189490941b6301000000600160b81b03169390931760b89190911b62ffffff60b81b161790151560d01b60ff60d01b16179055610bde610e00565b6101f48082525f8051602061280583398151915260208084019182526040840192835260016060850190815273912ce59144191c1204e64559fe8253a0e49e65485f525f805160206127e583398151915290915292517f3a6bf342ea625323cacf3ce33f4b82930f2d37298e9a8e1d0e8ecfcd53f1903380549251935194516001600160d81b031990931662ffffff929092169190911760189390931b6301000000600160b81b03169290921760b89390931b62ffffff60b81b169290921791151560d01b60ff60d01b16919091179055610cb7610e00565b6101f48082525f8051602061280583398151915260208084019182526040808501938452600160608601908152732f2a2543b76a4166549f7aab2e75bef0aefc5b0f5f525f8051602061284583398151915290925293517f284f6dcb13e42ed1d6278264a16552468dd64567ef930a2b32dc1f03631bdd0580549351945192516001600160d81b031990941662ffffff929092169190911760189490941b6301000000600160b81b03169390931760b89190911b62ffffff60b81b161790151560d01b60ff60d01b161790555161193d9081610e888239f35b60405162461bcd60e51b815260206004820152601860248201527f57696b693a207a65726f205f666565526563697069656e7400000000000000006044820152606490fd5b631e4fbdf760e01b5f525f60045260245ffd5b5f80fd5b634e487b7160e01b5f52604160045260245ffd5b60405190608082016001600160401b03811183821017610dec57604052565b51906001600160a01b0382168203610de857565b600180546001600160a01b03199081169091555f80546001600160a01b03938416928116831782559192909116907f8be0079c531659141344cd1fd0a4f28419497f9722a3daafe3b4186f6b6457e09080a356fe60806040526004361015610011575f80fd5b5f3560e01c8063164e68de146110e95780631b6b6d23146110bb578063249d39e91461109f5780632718c14f1461108257806331f0b32a14610e7157806341b613bd14610dfe5780634690484014610dd65780634dede3de14610da8578063541bcb7614610d7a57806364a285fd14610d4c5780636dd5635d14610d2f578063715018a614610ccc578063729245b114610caf57806379ba509714610c2a57806389a3027114610bfc5780638da5cb5b14610bd5578063900a60ed14610a28578063901754d7146109a4578063ad5c464814610976578063b268630b14610948578063b66a261c146108ad578063bdacb3031461082b578063c0afe83b1461080e578063c515ee23146106ae578063d16ff3db14610680578063d33219b414610658578063d5bcb9b51461042f578063d826492014610401578063e30c3978146103d9578063e74b981b14610396578063f2fde38b14610329578063faed8cda146101c05763fd68cd6614610184575f80fd5b346101bc5760203660031901126101bc576001600160a01b036101a561121e565b165f526009602052602060405f2054604051908152f35b5f80fd5b346101bc5760203660031901126101bc5760043567ffffffffffffffff81116101bc57366023820112156101bc5780600401359067ffffffffffffffff82116101bc576024810190602436918460051b0101116101bc5761021f6113bd565b6102276113f5565b5f5b8281106102435760015f805160206118e883398151915255005b60249060206001600160a01b0361026361025e848888611385565b6113a9565b16604051938480926370a0823160e01b82523060048301525afa801561031e575f906102ec575b600192508061029b575b5001610229565b6102c490838060a01b036102b361025e858989611385565b16848060a01b036004541690611408565b818060a01b036102d861025e838787611385565b165f5260096020525f604081205584610294565b506020823d8211610316575b81610305602093836112cc565b810103126101bc576001915161028a565b3d91506102f8565b6040513d5f823e3d90fd5b346101bc5760203660031901126101bc5761034261121e565b61034a6113f5565b60018060a01b0316806001600160601b0360a01b600154161760015560018060a01b035f54167f38d16b8cac22d99fc7c124b9cd0de2d3fa1faef420bfe791d8c362d765e227005f80a3005b346101bc5760203660031901126101bc576103af61121e565b6103b76113f5565b600480546001600160a01b0319166001600160a01b0392909216919091179055005b346101bc575f3660031901126101bc576001546040516001600160a01b039091168152602090f35b346101bc575f3660031901126101bc5760206040517368b3465833fb72a70ecdf485e0e4c7bd8665fc458152f35b346101bc5761043d3661124a565b929093916104496113bd565b801561061e5760018060a01b03831692835f52600360205260405f2060018060a01b0384165f5260205260405f206104c360ff604051926104898461129c565b5462ffffff8082168552601882901c6001600160a01b0316602086015260b882901c16604085015260d01c161515606083018190526112ee565b6104cf83303388611489565b6104db81848685611683565b916104f66127106104ee6005548661133a565b04809461134d565b9788106105d9576001600160a01b03851696889585916105189088908b611408565b885f5260096020528460405f208181549061053291611378565b905561053d91611629565b6007549061054a91611378565b60075561055691611629565b6008549061056391611378565b6008555162ffffff16610576908361133a565b60408051938452602084019490945292820152620f4240909104606082015233907f0874b2d545cb271cdbda4e093020c452328b24af12382ed62c4d00f5c26709db90608090a460015f805160206118e883398151915255604051908152602090f35b60405162461bcd60e51b815260206004820152601b60248201527f526f757465723a20696e73756666696369656e74206f757470757400000000006044820152606490fd5b60405162461bcd60e51b8152602060048201526012602482015271149bdd5d195c8e881e995c9bc81a5b9c1d5d60721b6044820152606490fd5b346101bc575f3660031901126101bc576002546040516001600160a01b039091168152602090f35b346101bc575f3660031901126101bc57602060405173fc5a1a6eb076a2c7ad06ed22c90d7e710e35ad0a8152f35b346101bc5760603660031901126101bc576106c761121e565b6106cf611234565b906044359160018060a01b0382165f52600360205260405f2060018060a01b0382165f5260205260405f209061074760ff6040519361070d8561129c565b5462ffffff8082168652601882901c6001600160a01b0316602087015260b882901c16604086015260d01c161515606084018190526112ee565b6107836107568386848761163f565b926127106107666005548661133a565b0495610772878661134d565b93606462ffffff845116049661163f565b91808311156107fc57610796908361134d565b9361271085029480860461271014901517156107e8576107bd6107e49362ffffff9661135a565b905b6040519586951692859094939260609260808301968352602083015260408201520152565b0390f35b634e487b7160e01b5f52601160045260245ffd5b506107e4915062ffffff935f906107bf565b346101bc575f3660031901126101bc576020600654604051908152f35b346101bc5760203660031901126101bc5761084461121e565b61084c6113f5565b6001600160a01b03168015610872576001600160601b0360a01b60025416176002555f80f35b60405162461bcd60e51b815260206004820152601360248201527257696b693a207a65726f2074696d656c6f636b60681b6044820152606490fd5b346101bc5760203660031901126101bc576004356108c96113f5565b6006548111610903576020817fd92797b660ac7e1e1578eca62542c5e59c27b3c4523723c676bf485405b1601192600555604051908152a1005b60405162461bcd60e51b815260206004820152601760248201527f526f757465723a2073707265616420746f6f20686967680000000000000000006044820152606490fd5b346101bc575f3660031901126101bc57602060405173b27308f9f90d607463bb33ea1bebb41c27ce5ab68152f35b346101bc575f3660031901126101bc5760206040517382af49447d8a07e3bd95bd0d56f35241523fbab18152f35b346101bc5760403660031901126101bc576109bd61121e565b6109c5611234565b9060018060a01b03165f52600360205260405f209060018060a01b03165f52602052608060405f205460ff6040519162ffffff8116835260018060a01b038160181c16602084015262ffffff8160b81c16604084015260d01c1615156060820152f35b346101bc5760c03660031901126101bc57610a4161121e565b610a49611234565b906044359162ffffff83168093036101bc576064356001600160a01b03811691908290036101bc576084359162ffffff83168093036101bc5760a435928315158094036101bc57610a986113f5565b60405190610aa58261129c565b86825260208083018481526040808501938452606085018881526001600160a01b038a81165f90815260038652838120918a16815294529220935184549151935192516001600160d81b031990921662ffffff919091161760189390931b6301000000600160b81b03169290921760b89190911b62ffffff60b81b161790151560d01b60ff60d01b1617905515610b3857005b60405193610b458561129c565b84525f60208086018281526040808801848152606089019687526001600160a01b0395861685526003845281852095909716845293909152919020935184549151935192516001600160d81b031990921662ffffff919091161760189390931b6301000000600160b81b03169290921760b89190911b62ffffff60b81b161790151560d01b60ff60d01b16179055005b346101bc575f3660031901126101bc575f546040516001600160a01b039091168152602090f35b346101bc575f3660031901126101bc57602060405173af88d065e77c8cc2239327c5edb3a432268e58318152f35b346101bc575f3660031901126101bc57600154336001600160a01b0390911603610c9c57600180546001600160a01b03199081169091555f805433928116831782556001600160a01b0316907f8be0079c531659141344cd1fd0a4f28419497f9722a3daafe3b4186f6b6457e09080a3005b63118cdaa760e01b5f523360045260245ffd5b346101bc575f3660031901126101bc576020600754604051908152f35b346101bc575f3660031901126101bc57610ce46113f5565b600180546001600160a01b03199081169091555f80549182168155906001600160a01b03167f8be0079c531659141344cd1fd0a4f28419497f9722a3daafe3b4186f6b6457e08280a3005b346101bc575f3660031901126101bc576020600554604051908152f35b346101bc575f3660031901126101bc57602060405173912ce59144191c1204e64559fe8253a0e49e65488152f35b346101bc575f3660031901126101bc57602060405173fa7f8980b0f1e64a2062791cc3b0871572f1f7f08152f35b346101bc575f3660031901126101bc576020604051732f2a2543b76a4166549f7aab2e75bef0aefc5b0f8152f35b346101bc575f3660031901126101bc576004546040516001600160a01b039091168152602090f35b346101bc575f3660031901126101bc576007546008546005549091908215610e675761271082029082820461271014831517156107e857610e42846107e49361135a565b905b604051948594859094939260609260808301968352602083015260408201520152565b6107e49080610e44565b346101bc57610e7f3661124a565b91610e8c949193946113bd565b60018060a01b03821691825f52600360205260405f2060018060a01b0387165f5260205260405f2090610ec760ff6040519361070d8561129c565b612710830283810461271014841517156107e8576005546127100361271081116107e857610ef49161135a565b91610eff848461134d565b92610f0c88303389611489565b610f1688876114f2565b610f2282898b8661163f565b1061103d578688610f3293611683565b94808611610fff57610f8482602098888481610f8c9611610fe4575b50506001600160a01b03811697610f679087908a611408565b875f5260098a5260405f20610f7d838254611378565b9055611629565b600754611378565b600755604051918583528683015260408201525f60608201527f0874b2d545cb271cdbda4e093020c452328b24af12382ed62c4d00f5c26709db60803392a460015f805160206118e883398151915255604051908152f35b610ff891610ff19161134d565b3389611408565b888b610f4e565b60405162461bcd60e51b8152602060048201526016602482015275149bdd5d195c8e881d1bdbc81b5d58da081a5b9c1d5d60521b6044820152606490fd5b60405162461bcd60e51b815260206004820152601860248201527f53706f743a20696e73756666696369656e74206d6178496e00000000000000006044820152606490fd5b346101bc575f3660031901126101bc576020600854604051908152f35b346101bc575f3660031901126101bc5760206040516127108152f35b346101bc575f3660031901126101bc57602060405173f97f4df75117a78c1a5a0dbb814af92458539fb48152f35b346101bc5760203660031901126101bc5761110261121e565b61110a6113bd565b6111126113f5565b6040516370a0823160e01b81523060048201526001600160a01b039190911690602081602481855afa90811561031e575f916111ec575b5080156111b5577f78473f3f373f7673597f4f0fa5873cb4d375fea6d4339ad6b56dbd411513cb3f918161118a60409360018060a01b036004541684611408565b815f5260096020525f8381205582519182526020820152a160015f805160206118e883398151915255005b60405162461bcd60e51b815260206004820152600f60248201526e526f757465723a206e6f206665657360881b6044820152606490fd5b90506020813d602011611216575b81611207602093836112cc565b810103126101bc575182611149565b3d91506111fa565b600435906001600160a01b03821682036101bc57565b602435906001600160a01b03821682036101bc57565b60a09060031901126101bc576004356001600160a01b03811681036101bc57906024356001600160a01b03811681036101bc579060443590606435906084356001600160a01b03811681036101bc5790565b6080810190811067ffffffffffffffff8211176112b857604052565b634e487b7160e01b5f52604160045260245ffd5b90601f8019910116810190811067ffffffffffffffff8211176112b857604052565b156112f557565b60405162461bcd60e51b815260206004820152601b60248201527f526f757465723a20706f6f6c206e6f7420636f6e6669677572656400000000006044820152606490fd5b818102929181159184041417156107e857565b919082039182116107e857565b8115611364570490565b634e487b7160e01b5f52601260045260245ffd5b919082018092116107e857565b91908110156113955760051b0190565b634e487b7160e01b5f52603260045260245ffd5b356001600160a01b03811681036101bc5790565b60025f805160206118e883398151915254146113e65760025f805160206118e883398151915255565b633ee5aeb560e01b5f5260045ffd5b5f546001600160a01b03163303610c9c57565b916040519163a9059cbb60e01b5f5260018060a01b031660045260245260205f60448180865af19060015f5114821615611468575b604052156114485750565b635274afe760e01b5f9081526001600160a01b0391909116600452602490fd5b90600181151661148057823b15153d1516169061143d565b503d5f823e3d90fd5b6040516323b872dd60e01b5f9081526001600160a01b039384166004529290931660245260449390935260209060648180865af19060015f51148216156114da575b6040525f606052156114485750565b90600181151661148057823b15153d151616906114cb565b60405163095ea7b360e01b5f9081527368b3465833fb72a70ecdf485e0e4c7bd8665fc45600452602484905291929160209060448180875af19060015f511482161561161a575b60405215611545575050565b60405163095ea7b360e01b5f9081527368b3465833fb72a70ecdf485e0e4c7bd8665fc45600452602481905260209060448180875af19060015f5114821615611602575b604052156115e15760405163095ea7b360e01b5f9081527368b3465833fb72a70ecdf485e0e4c7bd8665fc456004526024929092529060209060448180865af19060015f511482161561146857604052156114485750565b50635274afe760e01b5f9081526001600160a01b0391909116600452602490fd5b90600181151661148057833b15153d15161690611589565b90833b15153d15161690611539565b6001600160a01b03161561163a5790565b505f90565b9192916001600160a01b0390811691161461167f57606462ffffff809251160416612710039061271082116107e8576127109161167b9161133a565b0490565b5090565b6001600160a01b038116939192919061169c83866114f2565b60208201516001600160a01b0381166117bc57505062ffffff905116906040519360e0850185811067ffffffffffffffff8211176112b85760409081529085526001600160a01b039384166020808701918252868301948552306060880190815260808801948552600160a089019081525f60c08a0181815295516304e45aaf60e01b81529951891660048b01529351881660248a0152955162ffffff166044890152518616606488015292516084870152925160a48601525190921660c4840152829060e49082907368b3465833fb72a70ecdf485e0e4c7bd8665fc455af190811561031e575f9161178d575090565b90506020813d6020116117b4575b816117a8602093836112cc565b810103126101bc575190565b3d915061179b565b82919395506040602095935192015191604051946001600160601b03199060601b168686015262ffffff60e81b9060e81b1660348501526001600160601b03199060601b16603784015262ffffff60e81b9060e81b16604b8301526001600160601b03199060601b16604e820152604281526118396062826112cc565b604051906118468261129c565b815260c4828201913083526040810194855283606082015f8152604051968795869463b858183f60e01b8652846004870152516080602487015280519485918260a4890152018787015e5f86858701015260018060a01b039051166044850152516064840152516084830152601f801991011681010301815f7368b3465833fb72a70ecdf485e0e4c7bd8665fc455af190811561031e575f9161178d57509056fe9b779b17422d0df92223018b32b4d1fa46e071723d6817e2486d003becc55f00a2646970667358221220c7296ec8d0ce0f68a70763eca0cdfde8268d2d278b72032f9fc6619126ba8f7064736f6c634300081a00331cd27ca707e8f4cd624d356019e99d39e3dcd471370c29b6e9086d57144f5b2caa96be89aa6d9562f42a71437f6f6c676e944606acc1a5213b7473484402765100000000000000000000000082af49447d8a07e3bd95bd0d56f35241523fbab1000000000000000000000000af88d065e77c8cc2239327c5edb3a432268e5831dd66aa1bfb3f0731f82d50d475434899cf9ce28da138133f589401d13c13d0df01a6815bb93aaceaf6fcc060af4265023af0225b52d9323bd14a0b81ead724ff",
  "linkReferences": {},
  "deployedLinkReferences": {}
}