{
  "_format": "hh-sol-artifact-1",
  "contractName": "WikiSpotRouter",
  "sourceName": "src/WikiSpotRouter.sol",
  "abi": [
    {
      "inputs": [
        {
          "internalType": "address",
          "name": "owner",
          "type": "address"
        },
        {
          "internalType": "address",
          "name": "_feeRecipient",
          "type": "address"
        }
      ],
      "stateMutability": "nonpayable",
      "type": "constructor"
    },
    {
      "inputs": [
        {
          "internalType": "address",
          "name": "owner",
          "type": "address"
        }
      ],
      "name": "OwnableInvalidOwner",
      "type": "error"
    },
    {
      "inputs": [
        {
          "internalType": "address",
          "name": "account",
          "type": "address"
        }
      ],
      "name": "OwnableUnauthorizedAccount",
      "type": "error"
    },
    {
      "inputs": [],
      "name": "ReentrancyGuardReentrantCall",
      "type": "error"
    },
    {
      "inputs": [
        {
          "internalType": "address",
          "name": "token",
          "type": "address"
        }
      ],
      "name": "SafeERC20FailedOperation",
      "type": "error"
    },
    {
      "anonymous": false,
      "inputs": [
        {
          "indexed": false,
          "internalType": "address",
          "name": "token",
          "type": "address"
        },
        {
          "indexed": false,
          "internalType": "uint256",
          "name": "amount",
          "type": "uint256"
        }
      ],
      "name": "FeeWithdrawn",
      "type": "event"
    },
    {
      "anonymous": false,
      "inputs": [
        {
          "indexed": true,
          "internalType": "address",
          "name": "previousOwner",
          "type": "address"
        },
        {
          "indexed": true,
          "internalType": "address",
          "name": "newOwner",
          "type": "address"
        }
      ],
      "name": "OwnershipTransferStarted",
      "type": "event"
    },
    {
      "anonymous": false,
      "inputs": [
        {
          "indexed": true,
          "internalType": "address",
          "name": "previousOwner",
          "type": "address"
        },
        {
          "indexed": true,
          "internalType": "address",
          "name": "newOwner",
          "type": "address"
        }
      ],
      "name": "OwnershipTransferred",
      "type": "event"
    },
    {
      "anonymous": false,
      "inputs": [
        {
          "indexed": false,
          "internalType": "uint256",
          "name": "newBps",
          "type": "uint256"
        }
      ],
      "name": "SpreadUpdated",
      "type": "event"
    },
    {
      "anonymous": false,
      "inputs": [
        {
          "indexed": true,
          "internalType": "address",
          "name": "trader",
          "type": "address"
        },
        {
          "indexed": true,
          "internalType": "address",
          "name": "tokenIn",
          "type": "address"
        },
        {
          "indexed": true,
          "internalType": "address",
          "name": "tokenOut",
          "type": "address"
        },
        {
          "indexed": false,
          "internalType": "uint256",
          "name": "amountIn",
          "type": "uint256"
        },
        {
          "indexed": false,
          "internalType": "uint256",
          "name": "amountOut",
          "type": "uint256"
        },
        {
          "indexed": false,
          "internalType": "uint256",
          "name": "spreadFee",
          "type": "uint256"
        },
        {
          "indexed": false,
          "internalType": "uint256",
          "name": "uniswapFee",
          "type": "uint256"
        }
      ],
      "name": "Swap",
      "type": "event"
    },
    {
      "inputs": [],
      "name": "ARB",
      "outputs": [
        {
          "internalType": "address",
          "name": "",
          "type": "address"
        }
      ],
      "stateMutability": "view",
      "type": "function"
    },
    {
      "inputs": [],
      "name": "BPS",
      "outputs": [
        {
          "internalType": "uint256",
          "name": "",
          "type": "uint256"
        }
      ],
      "stateMutability": "view",
      "type": "function"
    },
    {
      "inputs": [],
      "name": "GMXV5",
      "outputs": [
        {
          "internalType": "address",
          "name": "",
          "type": "address"
        }
      ],
      "stateMutability": "view",
      "type": "function"
    },
    {
      "inputs": [],
      "name": "LINK",
      "outputs": [
        {
          "internalType": "address",
          "name": "",
          "type": "address"
        }
      ],
      "stateMutability": "view",
      "type": "function"
    },
    {
      "inputs": [],
      "name": "UNI",
      "outputs": [
        {
          "internalType": "address",
          "name": "",
          "type": "address"
        }
      ],
      "stateMutability": "view",
      "type": "function"
    },
    {
      "inputs": [],
      "name": "UNISWAP_QUOTER",
      "outputs": [
        {
          "internalType": "address",
          "name": "",
          "type": "address"
        }
      ],
      "stateMutability": "view",
      "type": "function"
    },
    {
      "inputs": [],
      "name": "UNISWAP_ROUTER",
      "outputs": [
        {
          "internalType": "address",
          "name": "",
          "type": "address"
        }
      ],
      "stateMutability": "view",
      "type": "function"
    },
    {
      "inputs": [],
      "name": "USDC",
      "outputs": [
        {
          "internalType": "address",
          "name": "",
          "type": "address"
        }
      ],
      "stateMutability": "view",
      "type": "function"
    },
    {
      "inputs": [],
      "name": "WBTC",
      "outputs": [
        {
          "internalType": "address",
          "name": "",
          "type": "address"
        }
      ],
      "stateMutability": "view",
      "type": "function"
    },
    {
      "inputs": [],
      "name": "WETH",
      "outputs": [
        {
          "internalType": "address",
          "name": "",
          "type": "address"
        }
      ],
      "stateMutability": "view",
      "type": "function"
    },
    {
      "inputs": [],
      "name": "acceptOwnership",
      "outputs": [],
      "stateMutability": "nonpayable",
      "type": "function"
    },
    {
      "inputs": [],
      "name": "feeRecipient",
      "outputs": [
        {
          "internalType": "address",
          "name": "",
          "type": "address"
        }
      ],
      "stateMutability": "view",
      "type": "function"
    },
    {
      "inputs": [
        {
          "internalType": "address",
          "name": "tokenIn",
          "type": "address"
        },
        {
          "internalType": "address",
          "name": "tokenOut",
          "type": "address"
        },
        {
          "internalType": "uint256",
          "name": "amountIn",
          "type": "uint256"
        }
      ],
      "name": "getQuote",
      "outputs": [
        {
          "internalType": "uint256",
          "name": "amountOut",
          "type": "uint256"
        },
        {
          "internalType": "uint256",
          "name": "spreadFee",
          "type": "uint256"
        },
        {
          "internalType": "uint256",
          "name": "priceImpactBps",
          "type": "uint256"
        },
        {
          "internalType": "uint256",
          "name": "uniswapFeeBps",
          "type": "uint256"
        }
      ],
      "stateMutability": "view",
      "type": "function"
    },
    {
      "inputs": [],
      "name": "maxSpreadBps",
      "outputs": [
        {
          "internalType": "uint256",
          "name": "",
          "type": "uint256"
        }
      ],
      "stateMutability": "view",
      "type": "function"
    },
    {
      "inputs": [],
      "name": "owner",
      "outputs": [
        {
          "internalType": "address",
          "name": "",
          "type": "address"
        }
      ],
      "stateMutability": "view",
      "type": "function"
    },
    {
      "inputs": [],
      "name": "pendingOwner",
      "outputs": [
        {
          "internalType": "address",
          "name": "",
          "type": "address"
        }
      ],
      "stateMutability": "view",
      "type": "function"
    },
    {
      "inputs": [
        {
          "internalType": "address",
          "name": "",
          "type": "address"
        },
        {
          "internalType": "address",
          "name": "",
          "type": "address"
        }
      ],
      "name": "pools",
      "outputs": [
        {
          "internalType": "uint24",
          "name": "fee",
          "type": "uint24"
        },
        {
          "internalType": "address",
          "name": "hopToken",
          "type": "address"
        },
        {
          "internalType": "uint24",
          "name": "hopFee",
          "type": "uint24"
        },
        {
          "internalType": "bool",
          "name": "active",
          "type": "bool"
        }
      ],
      "stateMutability": "view",
      "type": "function"
    },
    {
      "inputs": [],
      "name": "renounceOwnership",
      "outputs": [],
      "stateMutability": "nonpayable",
      "type": "function"
    },
    {
      "inputs": [],
      "name": "revenueStats",
      "outputs": [
        {
          "internalType": "uint256",
          "name": "spreadEarned",
          "type": "uint256"
        },
        {
          "internalType": "uint256",
          "name": "volumeProcessed",
          "type": "uint256"
        },
        {
          "internalType": "uint256",
          "name": "currentSpreadBps",
          "type": "uint256"
        },
        {
          "internalType": "uint256",
          "name": "effectiveAPR",
          "type": "uint256"
        }
      ],
      "stateMutability": "view",
      "type": "function"
    },
    {
      "inputs": [
        {
          "internalType": "address",
          "name": "r",
          "type": "address"
        }
      ],
      "name": "setFeeRecipient",
      "outputs": [],
      "stateMutability": "nonpayable",
      "type": "function"
    },
    {
      "inputs": [
        {
          "internalType": "address",
          "name": "tokenIn",
          "type": "address"
        },
        {
          "internalType": "address",
          "name": "tokenOut",
          "type": "address"
        },
        {
          "internalType": "uint24",
          "name": "fee",
          "type": "uint24"
        },
        {
          "internalType": "address",
          "name": "hopToken",
          "type": "address"
        },
        {
          "internalType": "uint24",
          "name": "hopFee",
          "type": "uint24"
        },
        {
          "internalType": "bool",
          "name": "active",
          "type": "bool"
        }
      ],
      "name": "setPool",
      "outputs": [],
      "stateMutability": "nonpayable",
      "type": "function"
    },
    {
      "inputs": [
        {
          "internalType": "uint256",
          "name": "bps",
          "type": "uint256"
        }
      ],
      "name": "setSpread",
      "outputs": [],
      "stateMutability": "nonpayable",
      "type": "function"
    },
    {
      "inputs": [
        {
          "internalType": "address",
          "name": "_tl",
          "type": "address"
        }
      ],
      "name": "setTimelock",
      "outputs": [],
      "stateMutability": "nonpayable",
      "type": "function"
    },
    {
      "inputs": [],
      "name": "spreadBps",
      "outputs": [
        {
          "internalType": "uint256",
          "name": "",
          "type": "uint256"
        }
      ],
      "stateMutability": "view",
      "type": "function"
    },
    {
      "inputs": [
        {
          "internalType": "address",
          "name": "tokenIn",
          "type": "address"
        },
        {
          "internalType": "address",
          "name": "tokenOut",
          "type": "address"
        },
        {
          "internalType": "uint256",
          "name": "amountIn",
          "type": "uint256"
        },
        {
          "internalType": "uint256",
          "name": "minAmountOut",
          "type": "uint256"
        },
        {
          "internalType": "address",
          "name": "recipient",
          "type": "address"
        }
      ],
      "name": "swap",
      "outputs": [
        {
          "internalType": "uint256",
          "name": "amountOut",
          "type": "uint256"
        }
      ],
      "stateMutability": "nonpayable",
      "type": "function"
    },
    {
      "inputs": [
        {
          "internalType": "address",
          "name": "tokenIn",
          "type": "address"
        },
        {
          "internalType": "address",
          "name": "tokenOut",
          "type": "address"
        },
        {
          "internalType": "uint256",
          "name": "amountOut",
          "type": "uint256"
        },
        {
          "internalType": "uint256",
          "name": "maxAmountIn",
          "type": "uint256"
        },
        {
          "internalType": "address",
          "name": "recipient",
          "type": "address"
        }
      ],
      "name": "swapExactOut",
      "outputs": [
        {
          "internalType": "uint256",
          "name": "amountIn",
          "type": "uint256"
        }
      ],
      "stateMutability": "nonpayable",
      "type": "function"
    },
    {
      "inputs": [],
      "name": "timelock",
      "outputs": [
        {
          "internalType": "address",
          "name": "",
          "type": "address"
        }
      ],
      "stateMutability": "view",
      "type": "function"
    },
    {
      "inputs": [
        {
          "internalType": "address",
          "name": "",
          "type": "address"
        }
      ],
      "name": "tokenFeesEarned",
      "outputs": [
        {
          "internalType": "uint256",
          "name": "",
          "type": "uint256"
        }
      ],
      "stateMutability": "view",
      "type": "function"
    },
    {
      "inputs": [],
      "name": "totalSpreadEarned",
      "outputs": [
        {
          "internalType": "uint256",
          "name": "",
          "type": "uint256"
        }
      ],
      "stateMutability": "view",
      "type": "function"
    },
    {
      "inputs": [],
      "name": "totalVolumeProcessed",
      "outputs": [
        {
          "internalType": "uint256",
          "name": "",
          "type": "uint256"
        }
      ],
      "stateMutability": "view",
      "type": "function"
    },
    {
      "inputs": [
        {
          "internalType": "address",
          "name": "newOwner",
          "type": "address"
        }
      ],
      "name": "transferOwnership",
      "outputs": [],
      "stateMutability": "nonpayable",
      "type": "function"
    },
    {
      "inputs": [
        {
          "internalType": "address[]",
          "name": "tokens",
          "type": "address[]"
        }
      ],
      "name": "withdrawAllFees",
      "outputs": [],
      "stateMutability": "nonpayable",
      "type": "function"
    },
    {
      "inputs": [
        {
          "internalType": "address",
          "name": "token",
          "type": "address"
        }
      ],
      "name": "withdrawFees",
      "outputs": [],
      "stateMutability": "nonpayable",
      "type": "function"
    }
  ],
  "bytecode": "0x608060405234610de857604051601f612d1f38819003918201601f19168301916001600160401b03831184841017610dec578084926040948552833981010312610de857610058602061005183610e1f565b9201610e1f565b6001600160a01b03821615610dd55761007082610e33565b60017f9b779b17422d0df92223018b32b4d1fa46e071723d6817e2486d003becc55f0055600f60055560326006556001600160a01b0316908115610d90576100b790610e33565b600480546001600160a01b0319169190911790556100d3610e00565b6101f481525f6020808301828152604084018381526001606086019081525f80516020612c9f8339815191529094525f80516020612cff83398151915290925292517f477deee824522a3ae52a6506d15b43a4c60f9275aa798987b3a5108508102745805494519251935160ff60d01b90151560d01b1662ffffff60b81b60b89590951b949094166301000000600160b81b0360189490941b9390931662ffffff9092166001600160d81b0319909516949094171717179055610194610e00565b6101f481525f6020808301828152604084018381526001606086019081525f80516020612cbf8339815191529094525f80516020612c5f83398151915290925292517ffae92055a32f84f4c6e8ebb7482c6d6d6312e46c9497fef9d0a83f71dca3953e805494519251935160ff60d01b90151560d01b1662ffffff60b81b60b89590951b949094166301000000600160b81b0360189490941b9390931662ffffff9092166001600160d81b0319909516949094171717179055610255610e00565b6101f481525f602080830182815260408401838152600160608601908152732f2a2543b76a4166549f7aab2e75bef0aefc5b0f9094525f80516020612cff83398151915290925292517f6cdf5048645d01ccad8d5f1e8bca1000d5e49a68dc80e27b2901ad886ce75555805494519251935160ff60d01b90151560d01b1662ffffff60b81b60b89590951b949094166301000000600160b81b0360189490941b9390931662ffffff9092166001600160d81b031990951694909417171717905561031d610e00565b6101f481525f6020808301828152604084018381526001606086019081525f80516020612cbf8339815191529094525f80516020612c7f83398151915290925292517f8fdebe7047e5041188009c77ce8bb16bd2a04d6e95bf3e67034c95793e772fb1805494519251935160ff60d01b90151560d01b1662ffffff60b81b60b89590951b949094166301000000600160b81b0360189490941b9390931662ffffff9092166001600160d81b03199095169490941717171790556103de610e00565b6101f481525f60208083018281526040840183815260016060860190815273912ce59144191c1204e64559fe8253a0e49e65489094525f80516020612cff83398151915290925292517fef2471a7370082c3e04627a6aa7943ba2e4aa0ade3aec9353ef6f28022d787f5805494519251935160ff60d01b90151560d01b1662ffffff60b81b60b89590951b949094166301000000600160b81b0360189490941b9390931662ffffff9092166001600160d81b03199095169490941717171790556104a6610e00565b6101f481525f6020808301828152604084018381526001606086019081525f80516020612cbf8339815191529094525f80516020612cdf83398151915290925292517f16df0e0ede77c3e91e9a5588d55c962b047c55bd679ac4951137a1c478c079a4805494519251935160ff60d01b90151560d01b1662ffffff60b81b60b89590951b949094166301000000600160b81b0360189490941b9390931662ffffff9092166001600160d81b0319909516949094171717179055610567610e00565b6101f481525f60208083018281526040840183815260016060860190815273912ce59144191c1204e64559fe8253a0e49e65489094525f80516020612c5f83398151915290925292517f6968ab778e46d9d47a111563d8d9519307d289f167ebd4e44eae1efea9685017805494519251935160ff60d01b90151560d01b1662ffffff60b81b60b89590951b949094166301000000600160b81b0360189490941b9390931662ffffff9092166001600160d81b031990951694909417171717905561062f610e00565b6101f481525f6020808301828152604084018381526001606086019081525f80516020612c9f8339815191529094525f80516020612cdf83398151915290925292517f019353fef9469b59e66aaf4f1f21698ec4758125da622f99cfeb610fd967ed39805494519251935160ff60d01b90151560d01b1662ffffff60b81b60b89590951b949094166301000000600160b81b0360189490941b9390931662ffffff9092166001600160d81b03199095169490941717171790556106f0610e00565b610bb881525f60208083018281526040840183815260016060860190815273f97f4df75117a78c1a5a0dbb814af92458539fb49094525f80516020612cff83398151915290925292517fcf8db49911b79e75dd1b38e30c6825ca95437040ccd9c863af9cc5993164de82805494519251935160ff60d01b90151560d01b1662ffffff60b81b60b89590951b949094166301000000600160b81b0360189490941b9390931662ffffff9092166001600160d81b03199095169490941717171790556107b8610e00565b610bb881525f6020808301828152604084018381526001606086019081525f80516020612cbf8339815191529094527fc72fa389f399a6742b533a6768772961cf09a2ec116b2fb5870f8bceed7421e690925292517fd47d0ca2e595be9afd116d833e164c1a05fd8e52a4622239e21b8231c5583f10805494519251935160ff60d01b90151560d01b1662ffffff60b81b60b89590951b949094166301000000600160b81b0360189490941b9390931662ffffff9092166001600160d81b031990951694909417171717905561088c610e00565b610bb881525f60208083018281526040840183815260016060860190815273fa7f8980b0f1e64a2062791cc3b0871572f1f7f09094525f80516020612cff83398151915290925292517faa70752d5669e23aad16f9d0292db2269b3120749005f54bf372152afae8a5cb805494519251935160ff60d01b90151560d01b1662ffffff60b81b60b89590951b949094166301000000600160b81b0360189490941b9390931662ffffff9092166001600160d81b0319909516949094171717179055610954610e00565b610bb881525f6020808301828152604084018381526001606086019081525f80516020612cbf8339815191529094527f41a3792bad5cf0e34a10b3c67e7716fa2a00179291382c2ae9edebf2913fdebf90925292517fa4c6cda2092f11b5b1abeb0130986d4513f2e9de0da75e2b48e958a6d0087f94805494519251935160ff60d01b90151560d01b1662ffffff60b81b60b89590951b949094166301000000600160b81b0360189490941b9390931662ffffff9092166001600160d81b0319909516949094171717179055610a28610e00565b610bb881525f80516020612c9f83398151915260208083019182526101f46040840190815260016060850190815273fc5a1a6eb076a2c7ad06ed22c90d7e710e35ad0a5f525f80516020612cff83398151915290925292517f95b80e04f42cb1eb278d1a2db8e5aaffd44f24815a486f45d23e8c41ab2dea3780549351945192516001600160d81b031990941662ffffff929092169190911760189490941b6301000000600160b81b03169390931760b89190911b62ffffff60b81b161790151560d01b60ff60d01b16179055610afd610e00565b610bb881525f80516020612c9f83398151915260208083019182526101f4604084019081526001606085019081525f80516020612cbf8339815191525f527fea0e565e7ac4f9e6bccd7b0e0bcfefc1e66681d2a85f6dc555380041b0c7929a90925292517f08aca100a047554b76fefbcbf68d347ceec7a0db636ccbf9b3f224a714a092cd80549351945192516001600160d81b031990941662ffffff929092169190911760189490941b6301000000600160b81b03169390931760b89190911b62ffffff60b81b161790151560d01b60ff60d01b16179055610bde610e00565b6101f48082525f80516020612c9f83398151915260208084019182526040840192835260016060850190815273912ce59144191c1204e64559fe8253a0e49e65485f525f80516020612c7f83398151915290915292517f3a6bf342ea625323cacf3ce33f4b82930f2d37298e9a8e1d0e8ecfcd53f1903380549251935194516001600160d81b031990931662ffffff929092169190911760189390931b6301000000600160b81b03169290921760b89390931b62ffffff60b81b169290921791151560d01b60ff60d01b16919091179055610cb7610e00565b6101f48082525f80516020612c9f83398151915260208084019182526040808501938452600160608601908152732f2a2543b76a4166549f7aab2e75bef0aefc5b0f5f525f80516020612cdf83398151915290925293517f284f6dcb13e42ed1d6278264a16552468dd64567ef930a2b32dc1f03631bdd0580549351945192516001600160d81b031990941662ffffff929092169190911760189490941b6301000000600160b81b03169390931760b89190911b62ffffff60b81b161790151560d01b60ff60d01b1617905551611dd79081610e888239f35b60405162461bcd60e51b815260206004820152601860248201527f57696b693a207a65726f205f666565526563697069656e7400000000000000006044820152606490fd5b631e4fbdf760e01b5f525f60045260245ffd5b5f80fd5b634e487b7160e01b5f52604160045260245ffd5b60405190608082016001600160401b03811183821017610dec57604052565b51906001600160a01b0382168203610de857565b600180546001600160a01b03199081169091555f80546001600160a01b03938416928116831782559192909116907f8be0079c531659141344cd1fd0a4f28419497f9722a3daafe3b4186f6b6457e09080a356fe60806040526004361015610011575f80fd5b5f3560e01c8063164e68de146116225780631b6b6d23146115f4578063249d39e9146115d85780632718c14f146115bb57806331f0b32a1461113057806341b613bd146110bd57806346904840146110955780634dede3de14611067578063541bcb761461103957806364a285fd1461100b5780636dd5635d14610fee578063715018a614610f8b578063729245b114610f6e57806379ba509714610ee957806389a3027114610ebb5780638da5cb5b14610e94578063900a60ed14610c99578063901754d714610c15578063ad5c464814610be7578063b268630b14610bb9578063b66a261c14610aff578063bdacb30314610a7d578063c0afe83b14610a60578063c515ee2314610900578063d16ff3db146108d2578063d33219b4146108aa578063d5bcb9b5146104d5578063d8264920146104a7578063e30c39781461047f578063e74b981b146103e5578063f2fde38b14610378578063faed8cda146101c05763fd68cd6614610184575f80fd5b346101bc5760203660031901126101bc576001600160a01b036101a5611775565b165f526009602052602060405f2054604051908152f35b5f80fd5b346101bc5760203660031901126101bc5760043567ffffffffffffffff81116101bc57366023820112156101bc5780600401359067ffffffffffffffff82116101bc576024810190602436918460051b0101116101bc5761021f6119c1565b600254610247906001600160a01b03168015908180610364575b8215610349575b50506117f3565b5f5b8281106102635760015f80516020611d8283398151915255005b60249060206001600160a01b0361028361027e848888611989565b6119ad565b16604051938480926370a0823160e01b82523060048301525afa801561033e575f9061030c575b60019250806102bb575b5001610249565b6102e490838060a01b036102d361027e858989611989565b16848060a01b0360045416906119f9565b818060a01b036102f861027e838787611989565b165f5260096020525f6040812055846102b4565b506020823d8211610336575b816103256020938361188b565b810103126101bc57600191516102aa565b3d9150610318565b6040513d5f823e3d90fd5b1591508161035a575b508480610240565b9050331484610352565b5f546001600160a01b031633149250610239565b346101bc5760203660031901126101bc57610391611775565b610399611d2a565b60018060a01b0316806001600160601b0360a01b600154161760015560018060a01b035f54167f38d16b8cac22d99fc7c124b9cd0de2d3fa1faef420bfe791d8c362d765e227005f80a3005b346101bc5760203660031901126101bc576103fe611775565b600254610425906001600160a01b0316801590818061046b575b82156104505750506117f3565b6001600160a01b03166104398115156118ad565b6001600160601b0360a01b60045416176004555f80f35b15915081610461575b508380610240565b9050331483610459565b5f546001600160a01b031633149250610418565b346101bc575f3660031901126101bc576001546040516001600160a01b039091168152602090f35b346101bc575f3660031901126101bc5760206040517368b3465833fb72a70ecdf485e0e4c7bd8665fc458152f35b346101bc576104e3366117a1565b929093916104ef6119c1565b8015610870576001600160a01b038381165f818152600360209081526040808320948716835293905282902091519094916105298261183f565b5462ffffff811682526020820160018060a01b038260181c16815261056a60ff604085019362ffffff8160b81c16855260d01c1615158060608601526118f2565b6105768530338a611a7a565b6105808588611ae3565b516001600160a01b0316908161079857505062ffffff815116604051906105a68261186f565b8682526001600160a01b038616602083015260408083019190915230606083015260808201859052600160a08301525f60c0830152516304e45aaf60e01b8152906105f5906004830190611cbe565b60208160e4815f7368b3465833fb72a70ecdf485e0e4c7bd8665fc455af190811561033e575f91610766575b50915b61063e6127106106366005548661193e565b048094611951565b978810610721576001600160a01b03851696889585916106609088908b6119f9565b885f5260096020528460405f208181549061067a9161197c565b905561068591611d14565b600754906106929161197c565b60075561069e91611d14565b600854906106ab9161197c565b6008555162ffffff166106be908361193e565b60408051938452602084019490945292820152620f4240909104606082015233907f0874b2d545cb271cdbda4e093020c452328b24af12382ed62c4d00f5c26709db90608090a460015f80516020611d8283398151915255604051908152602090f35b60405162461bcd60e51b815260206004820152601b60248201527f526f757465723a20696e73756666696369656e74206f757470757400000000006044820152606490fd5b90506020813d602011610790575b816107816020938361188b565b810103126101bc575188610621565b3d9150610774565b61080f916107ce6020926107c08962ffffff808951169351166040519586948b898701611c1a565b03601f19810183528261188b565b604051906107db8261183f565b815230828201528560408201525f60608201526040518093819263b858183f60e01b83528460048401526024830190611c6b565b03815f7368b3465833fb72a70ecdf485e0e4c7bd8665fc455af190811561033e575f9161083e575b5091610624565b90506020813d602011610868575b816108596020938361188b565b810103126101bc575188610837565b3d915061084c565b60405162461bcd60e51b8152602060048201526012602482015271149bdd5d195c8e881e995c9bc81a5b9c1d5d60721b6044820152606490fd5b346101bc575f3660031901126101bc576002546040516001600160a01b039091168152602090f35b346101bc575f3660031901126101bc57602060405173fc5a1a6eb076a2c7ad06ed22c90d7e710e35ad0a8152f35b346101bc5760603660031901126101bc57610919611775565b61092161178b565b906044359160018060a01b0382165f52600360205260405f2060018060a01b0382165f5260205260405f209061099960ff6040519361095f8561183f565b5462ffffff8082168652601882901c6001600160a01b0316602087015260b882901c16604086015260d01c161515606084018190526118f2565b6109d56109a883868487611d3d565b926127106109b86005548661193e565b04956109c48786611951565b93606462ffffff8451160496611d3d565b9180831115610a4e576109e89083611951565b936127108502948086046127101490151715610a3a57610a0f610a369362ffffff9661195e565b905b6040519586951692859094939260609260808301968352602083015260408201520152565b0390f35b634e487b7160e01b5f52601160045260245ffd5b50610a36915062ffffff935f90610a11565b346101bc575f3660031901126101bc576020600654604051908152f35b346101bc5760203660031901126101bc57610a96611775565b610a9e611d2a565b6001600160a01b03168015610ac4576001600160601b0360a01b60025416176002555f80f35b60405162461bcd60e51b815260206004820152601360248201527257696b693a207a65726f2074696d656c6f636b60681b6044820152606490fd5b346101bc5760203660031901126101bc5760025460043590610b3a906001600160a01b0316801590818061046b5782156104505750506117f3565b6006548111610b74576020817fd92797b660ac7e1e1578eca62542c5e59c27b3c4523723c676bf485405b1601192600555604051908152a1005b60405162461bcd60e51b815260206004820152601760248201527f526f757465723a2073707265616420746f6f20686967680000000000000000006044820152606490fd5b346101bc575f3660031901126101bc57602060405173b27308f9f90d607463bb33ea1bebb41c27ce5ab68152f35b346101bc575f3660031901126101bc5760206040517382af49447d8a07e3bd95bd0d56f35241523fbab18152f35b346101bc5760403660031901126101bc57610c2e611775565b610c3661178b565b9060018060a01b03165f52600360205260405f209060018060a01b03165f52602052608060405f205460ff6040519162ffffff8116835260018060a01b038160181c16602084015262ffffff8160b81c16604084015260d01c1615156060820152f35b346101bc5760c03660031901126101bc57610cb2611775565b610cba61178b565b906044359162ffffff83168093036101bc576064356001600160a01b03811691908290036101bc576084359162ffffff83168093036101bc5760a435928315158094036101bc57600254610d28906001600160a01b03168015908180610e80575b8215610e655750506117f3565b60405190610d358261183f565b86825260208083018481526040808501938452606085018881526001600160a01b038a81165f90815260038652838120918a16815294529220935184549151935192516001600160d81b031990921662ffffff919091161760189390931b6301000000600160b81b03169290921760b89190911b62ffffff60b81b161790151560d01b60ff60d01b1617905515610dc857005b60405193610dd58561183f565b84525f60208086018281526040808801848152606089019687526001600160a01b0395861685526003845281852095909716845293909152919020935184549151935192516001600160d81b031990921662ffffff919091161760189390931b6301000000600160b81b03169290921760b89190911b62ffffff60b81b161790151560d01b60ff60d01b16179055005b15915081610e76575b508880610240565b9050331488610e6e565b5f546001600160a01b031633149250610d1b565b346101bc575f3660031901126101bc575f546040516001600160a01b039091168152602090f35b346101bc575f3660031901126101bc57602060405173af88d065e77c8cc2239327c5edb3a432268e58318152f35b346101bc575f3660031901126101bc57600154336001600160a01b0390911603610f5b57600180546001600160a01b03199081169091555f805433928116831782556001600160a01b0316907f8be0079c531659141344cd1fd0a4f28419497f9722a3daafe3b4186f6b6457e09080a3005b63118cdaa760e01b5f523360045260245ffd5b346101bc575f3660031901126101bc576020600754604051908152f35b346101bc575f3660031901126101bc57610fa3611d2a565b600180546001600160a01b03199081169091555f80549182168155906001600160a01b03167f8be0079c531659141344cd1fd0a4f28419497f9722a3daafe3b4186f6b6457e08280a3005b346101bc575f3660031901126101bc576020600554604051908152f35b346101bc575f3660031901126101bc57602060405173912ce59144191c1204e64559fe8253a0e49e65488152f35b346101bc575f3660031901126101bc57602060405173fa7f8980b0f1e64a2062791cc3b0871572f1f7f08152f35b346101bc575f3660031901126101bc576020604051732f2a2543b76a4166549f7aab2e75bef0aefc5b0f8152f35b346101bc575f3660031901126101bc576004546040516001600160a01b039091168152602090f35b346101bc575f3660031901126101bc576007546008546005549091908215611126576127108202908282046127101483151715610a3a5761110184610a369361195e565b905b604051948594859094939260609260808301968352602083015260408201520152565b610a369080611103565b346101bc5761113e366117a1565b9161114b949193946119c1565b80156115805783156115425761116b6001600160a01b03841615156118ad565b6001600160a01b038281165f818152600360209081526040808320948a1683529390528290209151909390916111a08361183f565b549162ffffff831681526020810160018060a01b038460181c1681526111e260ff604084019562ffffff8160b81c16875260d01c1615158060608501526118f2565b61271085029285840461271003610a3a5760055461271003946127108611610a3a578661123e858c8e6112388261121d8f9d6112269d61195e565b9b8c9788611951565b9c61123382303384611a7a565b611ae3565b86611d3d565b106114fd5791518a926001600160a01b039091169081611424575050505062ffffff90511690604051916112718361186f565b85835260018060a01b0389166020840152604083015230606083015260808201528560a08201525f60c08201526112b960405191635023b4df60e01b83526004830190611cbe565b60208160e4815f7368b3465833fb72a70ecdf485e0e4c7bd8665fc455af190811561033e575f916113f2575b50945b8086116113b457611339826020988884816113419611611399575b50506001600160a01b0381169761131c9087908a6119f9565b875f5260098a5260405f2061133283825461197c565b9055611d14565b60075461197c565b600755604051918583528683015260408201525f60608201527f0874b2d545cb271cdbda4e093020c452328b24af12382ed62c4d00f5c26709db60803392a460015f80516020611d8283398151915255604051908152f35b6113ad916113a691611951565b33896119f9565b888b611303565b60405162461bcd60e51b8152602060048201526016602482015275149bdd5d195c8e881d1bdbc81b5d58da081a5b9c1d5d60521b6044820152606490fd5b90506020813d60201161141c575b8161140d6020938361188b565b810103126101bc5751876112e5565b3d9150611400565b9261144e61149c969361145c9362ffffff80602099985116975116906040519788958a8701611c1a565b03601f19810184528361188b565b604051916114698361183f565b825230838301526040820152876060820152604051809381926304dc09a360e11b83528460048401526024830190611c6b565b03815f7368b3465833fb72a70ecdf485e0e4c7bd8665fc455af190811561033e575f916114cb575b50946112e8565b90506020813d6020116114f5575b816114e66020938361188b565b810103126101bc5751876114c4565b3d91506114d9565b60405162461bcd60e51b815260206004820152601860248201527f53706f743a20696e73756666696369656e74206d6178496e00000000000000006044820152606490fd5b60405162461bcd60e51b8152602060048201526016602482015275149bdd5d195c8e881e995c9bc81b585e081a5b9c1d5d60521b6044820152606490fd5b60405162461bcd60e51b8152602060048201526013602482015272149bdd5d195c8e881e995c9bc81bdd5d1c1d5d606a1b6044820152606490fd5b346101bc575f3660031901126101bc576020600854604051908152f35b346101bc575f3660031901126101bc5760206040516127108152f35b346101bc575f3660031901126101bc57602060405173f97f4df75117a78c1a5a0dbb814af92458539fb48152f35b346101bc5760203660031901126101bc5761163b611775565b6116436119c1565b600254611669906001600160a01b0316801590818061046b5782156104505750506117f3565b6040516370a0823160e01b81523060048201526001600160a01b039190911690602081602481855afa90811561033e575f91611743575b50801561170c577f78473f3f373f7673597f4f0fa5873cb4d375fea6d4339ad6b56dbd411513cb3f91816116e160409360018060a01b0360045416846119f9565b815f5260096020525f8381205582519182526020820152a160015f80516020611d8283398151915255005b60405162461bcd60e51b815260206004820152600f60248201526e526f757465723a206e6f206665657360881b6044820152606490fd5b90506020813d60201161176d575b8161175e6020938361188b565b810103126101bc5751826116a0565b3d9150611751565b600435906001600160a01b03821682036101bc57565b602435906001600160a01b03821682036101bc57565b60a09060031901126101bc576004356001600160a01b03811681036101bc57906024356001600160a01b03811681036101bc579060443590606435906084356001600160a01b03811681036101bc5790565b156117fa57565b60405162461bcd60e51b815260206004820152601e60248201527f57696b693a206d75737420676f207468726f7567682074696d656c6f636b00006044820152606490fd5b6080810190811067ffffffffffffffff82111761185b57604052565b634e487b7160e01b5f52604160045260245ffd5b60e0810190811067ffffffffffffffff82111761185b57604052565b90601f8019910116810190811067ffffffffffffffff82111761185b57604052565b156118b457565b60405162461bcd60e51b8152602060048201526016602482015275149bdd5d195c8e881e995c9bc81c9958da5c1a595b9d60521b6044820152606490fd5b156118f957565b60405162461bcd60e51b815260206004820152601b60248201527f526f757465723a20706f6f6c206e6f7420636f6e6669677572656400000000006044820152606490fd5b81810292918115918404141715610a3a57565b91908203918211610a3a57565b8115611968570490565b634e487b7160e01b5f52601260045260245ffd5b91908201809211610a3a57565b91908110156119995760051b0190565b634e487b7160e01b5f52603260045260245ffd5b356001600160a01b03811681036101bc5790565b60025f80516020611d8283398151915254146119ea5760025f80516020611d8283398151915255565b633ee5aeb560e01b5f5260045ffd5b916040519163a9059cbb60e01b5f5260018060a01b031660045260245260205f60448180865af19060015f5114821615611a59575b60405215611a395750565b635274afe760e01b5f9081526001600160a01b0391909116600452602490fd5b906001811516611a7157823b15153d15161690611a2e565b503d5f823e3d90fd5b6040516323b872dd60e01b5f9081526001600160a01b039384166004529290931660245260449390935260209060648180865af19060015f5114821615611acb575b6040525f60605215611a395750565b906001811516611a7157823b15153d15161690611abc565b60405163095ea7b360e01b5f9081527368b3465833fb72a70ecdf485e0e4c7bd8665fc45600452602484905291929160209060448180875af19060015f5114821615611c0b575b60405215611b36575050565b60405163095ea7b360e01b5f9081527368b3465833fb72a70ecdf485e0e4c7bd8665fc45600452602481905260209060448180875af19060015f5114821615611bf3575b60405215611bd25760405163095ea7b360e01b5f9081527368b3465833fb72a70ecdf485e0e4c7bd8665fc456004526024929092529060209060448180865af19060015f5114821615611a595760405215611a395750565b50635274afe760e01b5f9081526001600160a01b0391909116600452602490fd5b906001811516611a7157833b15153d15161690611b7a565b90833b15153d15161690611b2a565b6bffffffffffffffffffffffff19606092831b811682526001600160e81b031960e894851b8116601484015294831b811660178301529490921b909216602b82015292901b16602e82015260420190565b906020606060a0938051608085528051938491826080880152018686015e5f858486010152600180861b0360208201511660208501526040810151604085015201516060830152601f8019910116010190565b80516001600160a01b03908116835260208083015182169084015260408083015162ffffff16908401526060808301518216908401526080808301519084015260a0808301519084015260c09182015116910152565b6001600160a01b031615611d255790565b505f90565b5f546001600160a01b03163303610f5b57565b9192916001600160a01b03908116911614611d7d57606462ffffff80925116041661271003906127108211610a3a5761271091611d799161193e565b0490565b509056fe9b779b17422d0df92223018b32b4d1fa46e071723d6817e2486d003becc55f00a264697066735822122044a49a2fd6cc47fb10bb891aa11147bf57f6363f205741943b99cd77aa5f4aed64736f6c634300081a00331cd27ca707e8f4cd624d356019e99d39e3dcd471370c29b6e9086d57144f5b2caa96be89aa6d9562f42a71437f6f6c676e944606acc1a5213b7473484402765100000000000000000000000082af49447d8a07e3bd95bd0d56f35241523fbab1000000000000000000000000af88d065e77c8cc2239327c5edb3a432268e5831dd66aa1bfb3f0731f82d50d475434899cf9ce28da138133f589401d13c13d0df01a6815bb93aaceaf6fcc060af4265023af0225b52d9323bd14a0b81ead724ff",
  "linkReferences": {},
  "deployedLinkReferences": {}
}