{
  "_format": "hh-sol-artifact-1",
  "contractName": "WikiPortfolioTracker",
  "sourceName": "src/WikiPortfolioTracker.sol",
  "abi": [
    {
      "inputs": [
        {
          "internalType": "address",
          "name": "_owner",
          "type": "address"
        }
      ],
      "stateMutability": "nonpayable",
      "type": "constructor"
    },
    {
      "inputs": [
        {
          "internalType": "address",
          "name": "owner",
          "type": "address"
        }
      ],
      "name": "OwnableInvalidOwner",
      "type": "error"
    },
    {
      "inputs": [
        {
          "internalType": "address",
          "name": "account",
          "type": "address"
        }
      ],
      "name": "OwnableUnauthorizedAccount",
      "type": "error"
    },
    {
      "anonymous": false,
      "inputs": [
        {
          "indexed": true,
          "internalType": "address",
          "name": "previousOwner",
          "type": "address"
        },
        {
          "indexed": true,
          "internalType": "address",
          "name": "newOwner",
          "type": "address"
        }
      ],
      "name": "OwnershipTransferStarted",
      "type": "event"
    },
    {
      "anonymous": false,
      "inputs": [
        {
          "indexed": true,
          "internalType": "address",
          "name": "previousOwner",
          "type": "address"
        },
        {
          "indexed": true,
          "internalType": "address",
          "name": "newOwner",
          "type": "address"
        }
      ],
      "name": "OwnershipTransferred",
      "type": "event"
    },
    {
      "inputs": [],
      "name": "acceptOwnership",
      "outputs": [],
      "stateMutability": "nonpayable",
      "type": "function"
    },
    {
      "inputs": [
        {
          "internalType": "address",
          "name": "trader",
          "type": "address"
        }
      ],
      "name": "getFullPortfolio",
      "outputs": [
        {
          "components": [
            {
              "internalType": "uint256",
              "name": "usdcBalance",
              "type": "uint256"
            },
            {
              "internalType": "uint256",
              "name": "wikBalance",
              "type": "uint256"
            },
            {
              "internalType": "uint256",
              "name": "veWikBalance",
              "type": "uint256"
            },
            {
              "internalType": "uint256",
              "name": "wethBalance",
              "type": "uint256"
            },
            {
              "internalType": "uint256",
              "name": "wbtcBalance",
              "type": "uint256"
            },
            {
              "internalType": "int256",
              "name": "unrealisedPerpPnl",
              "type": "int256"
            },
            {
              "internalType": "uint256",
              "name": "openPerpPositions",
              "type": "uint256"
            },
            {
              "internalType": "uint256",
              "name": "perpMarginUsed",
              "type": "uint256"
            },
            {
              "internalType": "uint256",
              "name": "stakedWik",
              "type": "uint256"
            },
            {
              "internalType": "uint256",
              "name": "pendingStakingRewards",
              "type": "uint256"
            },
            {
              "internalType": "uint256",
              "name": "lendingBalance",
              "type": "uint256"
            },
            {
              "internalType": "uint256",
              "name": "backstopBalance",
              "type": "uint256"
            },
            {
              "internalType": "uint256[4]",
              "name": "botAllocations",
              "type": "uint256[4]"
            },
            {
              "internalType": "int256[4]",
              "name": "botPnl",
              "type": "int256[4]"
            },
            {
              "internalType": "bool",
              "name": "inEvaluation",
              "type": "bool"
            },
            {
              "internalType": "bool",
              "name": "isFunded",
              "type": "bool"
            },
            {
              "internalType": "uint256",
              "name": "evalBalance",
              "type": "uint256"
            },
            {
              "internalType": "uint256",
              "name": "fundedBalance",
              "type": "uint256"
            },
            {
              "internalType": "uint256",
              "name": "totalValueUsd",
              "type": "uint256"
            },
            {
              "internalType": "int256",
              "name": "totalPnlUsd",
              "type": "int256"
            },
            {
              "internalType": "uint256",
              "name": "lifetimeFeesPaid",
              "type": "uint256"
            },
            {
              "internalType": "uint256",
              "name": "lifetimeTrades",
              "type": "uint256"
            }
          ],
          "internalType": "struct WikiPortfolioTracker.PortfolioSnapshot",
          "name": "p",
          "type": "tuple"
        }
      ],
      "stateMutability": "view",
      "type": "function"
    },
    {
      "inputs": [
        {
          "internalType": "address",
          "name": "trader",
          "type": "address"
        }
      ],
      "name": "getNetWorth",
      "outputs": [
        {
          "internalType": "uint256",
          "name": "totalUsd",
          "type": "uint256"
        },
        {
          "internalType": "int256",
          "name": "totalPnl",
          "type": "int256"
        }
      ],
      "stateMutability": "view",
      "type": "function"
    },
    {
      "inputs": [
        {
          "internalType": "address",
          "name": "trader",
          "type": "address"
        }
      ],
      "name": "getYieldSummary",
      "outputs": [
        {
          "internalType": "uint256",
          "name": "stakedWik",
          "type": "uint256"
        },
        {
          "internalType": "uint256",
          "name": "pendingRewards",
          "type": "uint256"
        },
        {
          "internalType": "uint256",
          "name": "lendingBal",
          "type": "uint256"
        },
        {
          "internalType": "uint256",
          "name": "backstopBal",
          "type": "uint256"
        },
        {
          "internalType": "uint256",
          "name": "totalYieldPositions",
          "type": "uint256"
        }
      ],
      "stateMutability": "view",
      "type": "function"
    },
    {
      "inputs": [],
      "name": "owner",
      "outputs": [
        {
          "internalType": "address",
          "name": "",
          "type": "address"
        }
      ],
      "stateMutability": "view",
      "type": "function"
    },
    {
      "inputs": [],
      "name": "pendingOwner",
      "outputs": [
        {
          "internalType": "address",
          "name": "",
          "type": "address"
        }
      ],
      "stateMutability": "view",
      "type": "function"
    },
    {
      "inputs": [
        {
          "internalType": "address",
          "name": "",
          "type": "address"
        }
      ],
      "name": "recorders",
      "outputs": [
        {
          "internalType": "bool",
          "name": "",
          "type": "bool"
        }
      ],
      "stateMutability": "view",
      "type": "function"
    },
    {
      "inputs": [],
      "name": "registry",
      "outputs": [
        {
          "internalType": "address",
          "name": "perp",
          "type": "address"
        },
        {
          "internalType": "address",
          "name": "staking",
          "type": "address"
        },
        {
          "internalType": "address",
          "name": "lending",
          "type": "address"
        },
        {
          "internalType": "address",
          "name": "backstop",
          "type": "address"
        },
        {
          "internalType": "address",
          "name": "botVault",
          "type": "address"
        },
        {
          "internalType": "address",
          "name": "propEval",
          "type": "address"
        },
        {
          "internalType": "address",
          "name": "propFunded",
          "type": "address"
        },
        {
          "internalType": "address",
          "name": "tradeHistory",
          "type": "address"
        },
        {
          "internalType": "address",
          "name": "wik",
          "type": "address"
        },
        {
          "internalType": "address",
          "name": "veWik",
          "type": "address"
        },
        {
          "internalType": "address",
          "name": "usdc",
          "type": "address"
        },
        {
          "internalType": "address",
          "name": "weth",
          "type": "address"
        },
        {
          "internalType": "address",
          "name": "wbtc",
          "type": "address"
        }
      ],
      "stateMutability": "view",
      "type": "function"
    },
    {
      "inputs": [],
      "name": "renounceOwnership",
      "outputs": [],
      "stateMutability": "nonpayable",
      "type": "function"
    },
    {
      "inputs": [
        {
          "components": [
            {
              "internalType": "address",
              "name": "perp",
              "type": "address"
            },
            {
              "internalType": "address",
              "name": "staking",
              "type": "address"
            },
            {
              "internalType": "address",
              "name": "lending",
              "type": "address"
            },
            {
              "internalType": "address",
              "name": "backstop",
              "type": "address"
            },
            {
              "internalType": "address",
              "name": "botVault",
              "type": "address"
            },
            {
              "internalType": "address",
              "name": "propEval",
              "type": "address"
            },
            {
              "internalType": "address",
              "name": "propFunded",
              "type": "address"
            },
            {
              "internalType": "address",
              "name": "tradeHistory",
              "type": "address"
            },
            {
              "internalType": "address",
              "name": "wik",
              "type": "address"
            },
            {
              "internalType": "address",
              "name": "veWik",
              "type": "address"
            },
            {
              "internalType": "address",
              "name": "usdc",
              "type": "address"
            },
            {
              "internalType": "address",
              "name": "weth",
              "type": "address"
            },
            {
              "internalType": "address",
              "name": "wbtc",
              "type": "address"
            }
          ],
          "internalType": "struct WikiPortfolioTracker.ContractRegistry",
          "name": "r",
          "type": "tuple"
        }
      ],
      "name": "setRegistry",
      "outputs": [],
      "stateMutability": "nonpayable",
      "type": "function"
    },
    {
      "inputs": [
        {
          "internalType": "address",
          "name": "newOwner",
          "type": "address"
        }
      ],
      "name": "transferOwnership",
      "outputs": [],
      "stateMutability": "nonpayable",
      "type": "function"
    }
  ],
  "bytecode": "0x6080346100e057601f61187d38819003918201601f19168301916001600160401b038311848410176100e4578084926020946040528339810103126100e057516001600160a01b038116908190036100e05780156100cd57600180546001600160a01b03199081169091555f805491821683178155604051929182916001600160a01b03909116907f8be0079c531659141344cd1fd0a4f28419497f9722a3daafe3b4186f6b6457e09080a35f52600f60205260405f20600160ff1982541617905561178490816100f98239f35b631e4fbdf760e01b5f525f60045260245ffd5b5f80fd5b634e487b7160e01b5f52604160045260245ffdfe6080806040526004361015610012575f80fd5b5f3560e01c9081633828a0e6146113f1575080634bbd8578146111a8578063715018a61461114557806379ba5097146110c05780637b1039991461101057806381fabe9714610fcf5780638c25a05d14610edc5780638da5cb5b14610eb5578063b37e242f14610134578063e30c39781461010c5763f2fde38b14610095575f80fd5b34610108576020366003190112610108576004356001600160a01b03811690819003610108576100c361173b565b600180546001600160a01b031916821790555f80546001600160a01b0316907f38d16b8cac22d99fc7c124b9cd0de2d3fa1faef420bfe791d8c362d765e227009080a3005b5f80fd5b34610108575f366003190112610108576001546040516001600160a01b039091168152602090f35b34610108576020366003190112610108576004356001600160a01b0381168103610108576040519061016582611478565b5f82525f60208301525f60408301525f60608301525f60808301525f60a08301525f60c08301525f60e08301525f6101008301525f6101208301525f6101408301525f6101608301526080906040516101be8382611495565b823682376101808401526040516101d58382611495565b823682376101a08401525f6101c08401525f6101e08401525f6102008401525f6102208401525f6102408401525f6102608401525f6102808401525f6102a084015260018060a01b03600c541680610e43575b50600a546001600160a01b031680610dce575b50600b546001600160a01b031680610d59575b50600d546001600160a01b031680610ce4575b50600e546001600160a01b031680610c64575b506002546001600160a01b031680610a27575b506003546001600160a01b031680610938575b506004546001600160a01b0316806108bb575b506005546001600160a01b0316806107d7575b506006546001600160a01b0316806106d5575b506007546001600160a01b031680610652575b506008546001600160a01b0316806105cf575b506009546001600160a01b0316908161052f575b505061039961038961037961036961035c61034c61034161033589516101408b0151906116c7565b6101608a0151906116c7565b60e0890151906116c7565b6103e861010089015104906116c7565b61018087015151906116c7565b60206101808701510151906116c7565b60406101808601510151906116c7565b60606101808501510151906116c7565b6102408301526103b260a08301516102608401516116ac565b6102608301525f5b600481106105025750604051908251825260208301516020830152604083015160408301526060830151606083015260808301519082015260a082015160a082015260c082015160c082015260e082015160e082015261010082015161010082015261012082015161012082015261014082015161014082015261016082015161016082015261018082015161018082015f905b600482106104ec575050506101a08201515f61020083015b600482106104d657610380846102a0876101c081015115156102808401526101e08101511515828401526102008101516102c08401526102208101516102e08401526102408101516103008401526102608101516103208401526102808101516103408401520151610360820152f35b6020806001928551815201930191019091610466565b602080600192855181520193019101909161044e565b806105236105176001936101a087015161172a565b516102608601516116ac565b610260850152016103ba565b6040516313af898560e01b81526001600160a01b0390911660048201529061010090829060249082905afa905f825f925f9461058c575b50610572575b5061030d565b6102608501526102808401526102a083015282808061056c565b9250925050610100813d82116105c7575b816105ab6101009383611495565b8101031261010857805160208201516060909201519286610566565b3d915061059d565b604051638b0c5e4560e01b81526001600160a01b038316600482015290602090829060249082905afa5f918161061e575b50156102f957610611575b836102f9565b60016101e084015261060b565b9091506020813d60201161064a575b8161063a60209383611495565b8101031261010857519085610600565b3d915061062d565b60405163a92a54bd60e01b81526001600160a01b038316600482015290602090829060249082905afa5f91816106a1575b50156102e657610694575b836102e6565b60016101c084015261068e565b9091506020813d6020116106cd575b816106bd60209383611495565b8101031261010857519085610683565b3d91506106b0565b5f5b600481106106e557506102d3565b604051635328038d60e11b81526001600160a01b038416600482015260248101829052905f82604481865afa5f815f92610752575b6001945061072b575b5050016106d7565b61073a836101808a015161172a565b5261074a826101a089015161172a565b528680610723565b9150503d805f853e6107648185611495565b8301926101408185031261010857602081015160608201519161078960e082016114b7565b5061010081015167ffffffffffffffff811161010857866107ab9183016116d4565b506101208101519567ffffffffffffffff8711610108576001966107cf92016116d4565b50909161071a565b6040516370a0823160e01b81526001600160a01b0383166004820152602081602481855afa5f9181610887575b50610810575b506102c0565b801561080a576020906024604051809481936307fe0c8560e41b835260048301525afa5f9181610853575b50610847575b8061080a565b61016084015283610841565b9091506020813d60201161087f575b8161086f60209383611495565b810103126101085751908561083b565b3d9150610862565b9091506020813d6020116108b3575b816108a360209383611495565b8101031261010857519086610804565b3d9150610896565b60405163eb5a4fd760e01b81525f60048201526001600160a01b038316602482015290602090829060449082905afa5f9181610904575b50156102ad57610140840152836102ad565b9091506020813d602011610930575b8161092060209383611495565b81010312610108575190856108f2565b3d9150610913565b604051636021726760e01b81526001600160a01b0383166004820152602081602481855afa5f91816109f0575b50916020916024936109e4575b506040516318ebd13160e11b81526001600160a01b038516600482015292839182905afa5f91816109b0575b501561029a576101208401528361029a565b9091506020813d6020116109dc575b816109cc60209383611495565b810103126101085751908561099e565b3d91506109bf565b61010087015286610972565b9150916020823d602011610a1f575b81610a0c60209383611495565b8101031261010857905190916024610965565b3d91506109ff565b60405163bcde914d60e01b81526001600160a01b03831660048201525f81602481855afa5f9181610bb2575b50610a5f575b50610287565b90939192815160c08401525f5b8251811015610ba557610a7f8184611684565b516040519063bc6e624360e01b825260048201526020816024818a5afa5f9181610b72575b50610b59575b50610ab58184611684565b51906040519163eb02c30160e01b8352600483015260c0826024818a5afa805f91610b04575b60019350610aeb575b5001610a6c565b610af99060e08701516116c7565b60e086015287610ae4565b905060c0833d8211610b51575b81610b1e60c09383611495565b810103126101085782516001600160a01b0381160361010857606083610b486040600196016114b7565b50015190610adb565b3d9150610b11565b610b679060a08601516116ac565b60a085015286610aaa565b9091506020813d8211610b9d575b81610b8d60209383611495565b8101031261010857519088610aa4565b3d9150610b80565b5092919350508380610a59565b9091503d805f833e610bc48183611495565b8101906020818303126101085780519067ffffffffffffffff821161010857019080601f830112156101085781519167ffffffffffffffff8311610c50578260051b9060405193610c186020840186611495565b845260208085019282010192831161010857602001905b828210610c40575050509086610a53565b8151815260209182019101610c2f565b634e487b7160e01b5f52604160045260245ffd5b6040516370a0823160e01b81526001600160a01b038316600482015290602090829060249082905afa908115610cd9575f91610ca7575b50608084015283610274565b90506020813d602011610cd1575b81610cc260209383611495565b81010312610108575184610c9b565b3d9150610cb5565b6040513d5f823e3d90fd5b6040516370a0823160e01b81526001600160a01b038316600482015290602090829060249082905afa908115610cd9575f91610d27575b50606084015283610261565b90506020813d602011610d51575b81610d4260209383611495565b81010312610108575184610d1b565b3d9150610d35565b6040516370a0823160e01b81526001600160a01b038316600482015290602090829060249082905afa908115610cd9575f91610d9c575b5060408401528361024e565b90506020813d602011610dc6575b81610db760209383611495565b81010312610108575184610d90565b3d9150610daa565b6040516370a0823160e01b81526001600160a01b038316600482015290602090829060249082905afa908115610cd9575f91610e11575b5060208401528361023b565b90506020813d602011610e3b575b81610e2c60209383611495565b81010312610108575184610e05565b3d9150610e1f565b6040516370a0823160e01b81526001600160a01b038316600482015290602090829060249082905afa908115610cd9575f91610e83575b50835283610228565b90506020813d602011610ead575b81610e9e60209383611495565b81010312610108575184610e7a565b3d9150610e91565b34610108575f366003190112610108575f546040516001600160a01b039091168152602090f35b34610108576020366003190112610108576004356001600160a01b03811690819003610108576040519063b37e242f60e01b8252600482015261038081602481305afa8015610cd95760a0915f91610fa0575b506101008101519061012081015190610160610140820151910151908315155f14610f925760ff610f6d610f5f60015b8415610f8b5760019061165c565b16926040519485526020850152604084015260608301526080820152f35b5f9061165c565b60ff610f6d610f5f5f610f5f565b610fc291506103803d8111610fc8575b610fba8183611495565b8101906114c4565b82610f2f565b503d610fb0565b34610108576020366003190112610108576004356001600160a01b03811690819003610108575f52600f602052602060ff60405f2054166040519015158152f35b34610108575f36600319011261010857600254600354600454600554600654600754600854600954600a54600b54600c54600d54600e54604080516001600160a01b039e8f1681529c8e1660208e01529a8d169a8c019a909a52978b1660608b0152958a1660808a015293891660a089015291881660c0880152871660e087015286166101008601528516610120850152841661014084015283166101608301529091166101808201526101a090f35b34610108575f36600319011261010857600154336001600160a01b039091160361113257600180546001600160a01b03199081169091555f805433928116831782556001600160a01b0316907f8be0079c531659141344cd1fd0a4f28419497f9722a3daafe3b4186f6b6457e09080a3005b63118cdaa760e01b5f523360045260245ffd5b34610108575f3660031901126101085761115d61173b565b600180546001600160a01b03199081169091555f80549182168155906001600160a01b03167f8be0079c531659141344cd1fd0a4f28419497f9722a3daafe3b4186f6b6457e08280a3005b34610108576101a0366003190112610108576111c261173b565b6004356001600160a01b038116908181036101085750600280546001600160a01b0319169190911790556024356001600160a01b038116908181036101085750600380546001600160a01b0319169190911790556044356001600160a01b038116908181036101085750600480546001600160a01b0319169190911790556064356001600160a01b038116908181036101085750600580546001600160a01b0319169190911790556084356001600160a01b038116908181036101085750600680546001600160a01b03191691909117905560a4356001600160a01b038116908181036101085750600780546001600160a01b03191691909117905560c4356001600160a01b038116908181036101085750600880546001600160a01b03191691909117905560e4356001600160a01b038116908181036101085750600980546001600160a01b031916919091179055610104356001600160a01b038116908181036101085750600a80546001600160a01b031916919091179055610124356001600160a01b038116908181036101085750600b80546001600160a01b031916919091179055610144356001600160a01b038116908181036101085750600c80546001600160a01b031916919091179055610164356001600160a01b038116908181036101085750600d80546001600160a01b031916919091179055610184356001600160a01b0381169081810361010857506bffffffffffffffffffffffff60a01b600e541617600e555f80f35b34610108576020366003190112610108576004356001600160a01b038116908190036101085763b37e242f60e01b8252600482015261038081602481305afa8015610cd9576040915f91611459575b5061026061024082015191015182519182526020820152f35b61147291506103803d8111610fc857610fba8183611495565b82611440565b6102c0810190811067ffffffffffffffff821117610c5057604052565b90601f8019910116810190811067ffffffffffffffff821117610c5057604052565b5190811515820361010857565b6103808183031261010857604051916114dc83611478565b815183526020820151602084015260408201516040840152606082015160608401526080820151608084015260a082015160a084015260c082015160c084015260e082015160e08401526101008201516101008401526101208201516101208401526101408201516101408401526101608201516101608401528061019f8301121561010857604051611570608082611495565b80610200840191838311610108576101808501905b83821061164c5750506101808501528161021f8401121561010857604051906115af608083611495565b8190610280850193841161010857905b83821061163c57505061036092916115dc916101a08601526114b7565b6101c08401526115ef6102a082016114b7565b6101e08401526102c08101516102008401526102e081015161022084015261030081015161024084015261032081015161026084015261034081015161028084015201516102a082015290565b81518152602091820191016115bf565b8151815260209182019101611585565b9060ff8091169116019060ff821161167057565b634e487b7160e01b5f52601160045260245ffd5b80518210156116985760209160051b010190565b634e487b7160e01b5f52603260045260245ffd5b9190915f838201938412911290801582169115161761167057565b9190820180921161167057565b81601f820112156101085780519067ffffffffffffffff8211610c505760405192611709601f8401601f191660200185611495565b8284526020838301011161010857815f9260208093018386015e8301015290565b9060048110156116985760051b0190565b5f546001600160a01b031633036111325756fea26469706673582212207e181d529dc3be1bb800cad5d356fc050c4b90f9774cc3cc67955d705e05500764736f6c634300081a0033",
  "linkReferences": {},
  "deployedLinkReferences": {}
}