{
  "_format": "hh-sol-artifact-1",
  "contractName": "WikiPortfolioMargin",
  "sourceName": "src/WikiPortfolioMargin.sol",
  "abi": [
    {
      "inputs": [
        {
          "internalType": "address",
          "name": "_usdc",
          "type": "address"
        },
        {
          "internalType": "address",
          "name": "_owner",
          "type": "address"
        }
      ],
      "stateMutability": "nonpayable",
      "type": "constructor"
    },
    {
      "inputs": [],
      "name": "EnforcedPause",
      "type": "error"
    },
    {
      "inputs": [],
      "name": "ExpectedPause",
      "type": "error"
    },
    {
      "inputs": [
        {
          "internalType": "address",
          "name": "owner",
          "type": "address"
        }
      ],
      "name": "OwnableInvalidOwner",
      "type": "error"
    },
    {
      "inputs": [
        {
          "internalType": "address",
          "name": "account",
          "type": "address"
        }
      ],
      "name": "OwnableUnauthorizedAccount",
      "type": "error"
    },
    {
      "inputs": [],
      "name": "ReentrancyGuardReentrantCall",
      "type": "error"
    },
    {
      "inputs": [
        {
          "internalType": "address",
          "name": "token",
          "type": "address"
        }
      ],
      "name": "SafeERC20FailedOperation",
      "type": "error"
    },
    {
      "anonymous": false,
      "inputs": [
        {
          "indexed": true,
          "internalType": "address",
          "name": "trader",
          "type": "address"
        },
        {
          "indexed": false,
          "internalType": "uint256",
          "name": "collateral",
          "type": "uint256"
        }
      ],
      "name": "AccountCreated",
      "type": "event"
    },
    {
      "anonymous": false,
      "inputs": [
        {
          "indexed": true,
          "internalType": "address",
          "name": "trader",
          "type": "address"
        },
        {
          "indexed": false,
          "internalType": "uint256",
          "name": "deficit",
          "type": "uint256"
        }
      ],
      "name": "AccountLiquidated",
      "type": "event"
    },
    {
      "anonymous": false,
      "inputs": [
        {
          "indexed": true,
          "internalType": "address",
          "name": "trader",
          "type": "address"
        },
        {
          "indexed": false,
          "internalType": "uint256",
          "name": "amount",
          "type": "uint256"
        },
        {
          "indexed": false,
          "internalType": "uint256",
          "name": "newTotal",
          "type": "uint256"
        }
      ],
      "name": "CollateralAdded",
      "type": "event"
    },
    {
      "anonymous": false,
      "inputs": [
        {
          "indexed": true,
          "internalType": "address",
          "name": "trader",
          "type": "address"
        },
        {
          "indexed": false,
          "internalType": "uint256",
          "name": "amount",
          "type": "uint256"
        }
      ],
      "name": "CollateralWithdrawn",
      "type": "event"
    },
    {
      "anonymous": false,
      "inputs": [
        {
          "indexed": true,
          "internalType": "address",
          "name": "trader",
          "type": "address"
        },
        {
          "indexed": false,
          "internalType": "uint256",
          "name": "healthFactor",
          "type": "uint256"
        }
      ],
      "name": "CrossMarginLiquidatable",
      "type": "event"
    },
    {
      "anonymous": false,
      "inputs": [
        {
          "indexed": true,
          "internalType": "address",
          "name": "trader",
          "type": "address"
        },
        {
          "indexed": false,
          "internalType": "bytes32",
          "name": "marketId",
          "type": "bytes32"
        },
        {
          "indexed": false,
          "internalType": "int256",
          "name": "notional",
          "type": "int256"
        }
      ],
      "name": "CrossMarginRegistered",
      "type": "event"
    },
    {
      "anonymous": false,
      "inputs": [
        {
          "indexed": true,
          "internalType": "address",
          "name": "trader",
          "type": "address"
        },
        {
          "indexed": false,
          "internalType": "uint256",
          "name": "fee",
          "type": "uint256"
        }
      ],
      "name": "MaintenanceFeeCharged",
      "type": "event"
    },
    {
      "anonymous": false,
      "inputs": [
        {
          "indexed": true,
          "internalType": "address",
          "name": "previousOwner",
          "type": "address"
        },
        {
          "indexed": true,
          "internalType": "address",
          "name": "newOwner",
          "type": "address"
        }
      ],
      "name": "OwnershipTransferStarted",
      "type": "event"
    },
    {
      "anonymous": false,
      "inputs": [
        {
          "indexed": true,
          "internalType": "address",
          "name": "previousOwner",
          "type": "address"
        },
        {
          "indexed": true,
          "internalType": "address",
          "name": "newOwner",
          "type": "address"
        }
      ],
      "name": "OwnershipTransferred",
      "type": "event"
    },
    {
      "anonymous": false,
      "inputs": [
        {
          "indexed": false,
          "internalType": "address",
          "name": "account",
          "type": "address"
        }
      ],
      "name": "Paused",
      "type": "event"
    },
    {
      "anonymous": false,
      "inputs": [
        {
          "indexed": true,
          "internalType": "address",
          "name": "trader",
          "type": "address"
        },
        {
          "indexed": false,
          "internalType": "uint256",
          "name": "positionId",
          "type": "uint256"
        },
        {
          "indexed": false,
          "internalType": "uint256",
          "name": "notional",
          "type": "uint256"
        },
        {
          "indexed": false,
          "internalType": "uint256",
          "name": "mmBps",
          "type": "uint256"
        }
      ],
      "name": "PositionRegistered",
      "type": "event"
    },
    {
      "anonymous": false,
      "inputs": [
        {
          "indexed": true,
          "internalType": "address",
          "name": "trader",
          "type": "address"
        },
        {
          "indexed": false,
          "internalType": "uint256",
          "name": "positionId",
          "type": "uint256"
        }
      ],
      "name": "PositionRemoved",
      "type": "event"
    },
    {
      "anonymous": false,
      "inputs": [
        {
          "indexed": false,
          "internalType": "address",
          "name": "account",
          "type": "address"
        }
      ],
      "name": "Unpaused",
      "type": "event"
    },
    {
      "inputs": [],
      "name": "BPS",
      "outputs": [
        {
          "internalType": "uint256",
          "name": "",
          "type": "uint256"
        }
      ],
      "stateMutability": "view",
      "type": "function"
    },
    {
      "inputs": [],
      "name": "LIQ_HEALTH",
      "outputs": [
        {
          "internalType": "uint256",
          "name": "",
          "type": "uint256"
        }
      ],
      "stateMutability": "view",
      "type": "function"
    },
    {
      "inputs": [],
      "name": "MAINTENANCE_FEE",
      "outputs": [
        {
          "internalType": "uint256",
          "name": "",
          "type": "uint256"
        }
      ],
      "stateMutability": "view",
      "type": "function"
    },
    {
      "inputs": [],
      "name": "MIN_HEALTH",
      "outputs": [
        {
          "internalType": "uint256",
          "name": "",
          "type": "uint256"
        }
      ],
      "stateMutability": "view",
      "type": "function"
    },
    {
      "inputs": [],
      "name": "MIN_HEALTH_CROSS",
      "outputs": [
        {
          "internalType": "uint256",
          "name": "",
          "type": "uint256"
        }
      ],
      "stateMutability": "view",
      "type": "function"
    },
    {
      "inputs": [],
      "name": "PRECISION",
      "outputs": [
        {
          "internalType": "uint256",
          "name": "",
          "type": "uint256"
        }
      ],
      "stateMutability": "view",
      "type": "function"
    },
    {
      "inputs": [],
      "name": "USDC",
      "outputs": [
        {
          "internalType": "contract IERC20",
          "name": "",
          "type": "address"
        }
      ],
      "stateMutability": "view",
      "type": "function"
    },
    {
      "inputs": [],
      "name": "acceptOwnership",
      "outputs": [],
      "stateMutability": "nonpayable",
      "type": "function"
    },
    {
      "inputs": [
        {
          "internalType": "address",
          "name": "",
          "type": "address"
        }
      ],
      "name": "accounts",
      "outputs": [
        {
          "internalType": "address",
          "name": "trader",
          "type": "address"
        },
        {
          "internalType": "uint256",
          "name": "totalCollateral",
          "type": "uint256"
        },
        {
          "internalType": "uint256",
          "name": "unrealizedPnL",
          "type": "uint256"
        },
        {
          "internalType": "uint256",
          "name": "maintenanceMargin",
          "type": "uint256"
        },
        {
          "internalType": "uint256",
          "name": "lastFeeTime",
          "type": "uint256"
        },
        {
          "internalType": "uint256",
          "name": "totalFeePaid",
          "type": "uint256"
        },
        {
          "internalType": "bool",
          "name": "active",
          "type": "bool"
        }
      ],
      "stateMutability": "view",
      "type": "function"
    },
    {
      "inputs": [
        {
          "internalType": "uint256",
          "name": "amount",
          "type": "uint256"
        }
      ],
      "name": "addCollateral",
      "outputs": [],
      "stateMutability": "nonpayable",
      "type": "function"
    },
    {
      "inputs": [
        {
          "internalType": "address",
          "name": "",
          "type": "address"
        }
      ],
      "name": "allowedContracts",
      "outputs": [
        {
          "internalType": "bool",
          "name": "",
          "type": "bool"
        }
      ],
      "stateMutability": "view",
      "type": "function"
    },
    {
      "inputs": [
        {
          "internalType": "address",
          "name": "trader",
          "type": "address"
        }
      ],
      "name": "chargeFee",
      "outputs": [],
      "stateMutability": "nonpayable",
      "type": "function"
    },
    {
      "inputs": [
        {
          "internalType": "uint256",
          "name": "amount",
          "type": "uint256"
        }
      ],
      "name": "createAccount",
      "outputs": [],
      "stateMutability": "nonpayable",
      "type": "function"
    },
    {
      "inputs": [
        {
          "internalType": "address",
          "name": "",
          "type": "address"
        }
      ],
      "name": "crossAccounts",
      "outputs": [
        {
          "internalType": "int256",
          "name": "netDelta",
          "type": "int256"
        },
        {
          "internalType": "uint256",
          "name": "totalMarginPosted",
          "type": "uint256"
        },
        {
          "internalType": "uint256",
          "name": "effectiveMargin",
          "type": "uint256"
        },
        {
          "internalType": "bool",
          "name": "crossEnabled",
          "type": "bool"
        }
      ],
      "stateMutability": "view",
      "type": "function"
    },
    {
      "inputs": [
        {
          "internalType": "address",
          "name": "trader",
          "type": "address"
        }
      ],
      "name": "crossMarginHealth",
      "outputs": [
        {
          "internalType": "uint256",
          "name": "crossHealthFactor",
          "type": "uint256"
        },
        {
          "internalType": "int256",
          "name": "netEquity",
          "type": "int256"
        },
        {
          "internalType": "uint256",
          "name": "netMarginReq",
          "type": "uint256"
        },
        {
          "internalType": "bool",
          "name": "liquidatable",
          "type": "bool"
        }
      ],
      "stateMutability": "view",
      "type": "function"
    },
    {
      "inputs": [
        {
          "internalType": "address",
          "name": "",
          "type": "address"
        },
        {
          "internalType": "uint256",
          "name": "",
          "type": "uint256"
        }
      ],
      "name": "crossPositions",
      "outputs": [
        {
          "internalType": "bytes32",
          "name": "marketId",
          "type": "bytes32"
        },
        {
          "internalType": "int256",
          "name": "notional",
          "type": "int256"
        },
        {
          "internalType": "int256",
          "name": "unrealisedPnL",
          "type": "int256"
        },
        {
          "internalType": "uint256",
          "name": "margin",
          "type": "uint256"
        }
      ],
      "stateMutability": "view",
      "type": "function"
    },
    {
      "inputs": [],
      "name": "enableCrossMargin",
      "outputs": [],
      "stateMutability": "nonpayable",
      "type": "function"
    },
    {
      "inputs": [
        {
          "internalType": "address",
          "name": "trader",
          "type": "address"
        }
      ],
      "name": "freeCollateral",
      "outputs": [
        {
          "internalType": "uint256",
          "name": "",
          "type": "uint256"
        }
      ],
      "stateMutability": "view",
      "type": "function"
    },
    {
      "inputs": [
        {
          "internalType": "address",
          "name": "trader",
          "type": "address"
        }
      ],
      "name": "getAccount",
      "outputs": [
        {
          "components": [
            {
              "internalType": "address",
              "name": "trader",
              "type": "address"
            },
            {
              "internalType": "uint256",
              "name": "totalCollateral",
              "type": "uint256"
            },
            {
              "internalType": "uint256",
              "name": "unrealizedPnL",
              "type": "uint256"
            },
            {
              "internalType": "uint256",
              "name": "maintenanceMargin",
              "type": "uint256"
            },
            {
              "internalType": "uint256",
              "name": "lastFeeTime",
              "type": "uint256"
            },
            {
              "internalType": "uint256",
              "name": "totalFeePaid",
              "type": "uint256"
            },
            {
              "internalType": "bool",
              "name": "active",
              "type": "bool"
            },
            {
              "internalType": "uint256[]",
              "name": "positionIds",
              "type": "uint256[]"
            }
          ],
          "internalType": "struct WikiPortfolioMargin.PMAccount",
          "name": "",
          "type": "tuple"
        }
      ],
      "stateMutability": "view",
      "type": "function"
    },
    {
      "inputs": [
        {
          "internalType": "address",
          "name": "user",
          "type": "address"
        }
      ],
      "name": "getCrossMarginHealth",
      "outputs": [
        {
          "internalType": "int256",
          "name": "netDelta",
          "type": "int256"
        },
        {
          "internalType": "uint256",
          "name": "totalMargin",
          "type": "uint256"
        },
        {
          "internalType": "uint256",
          "name": "effectiveMargin",
          "type": "uint256"
        },
        {
          "internalType": "uint256",
          "name": "healthBps",
          "type": "uint256"
        },
        {
          "internalType": "bool",
          "name": "crossEnabled",
          "type": "bool"
        }
      ],
      "stateMutability": "view",
      "type": "function"
    },
    {
      "inputs": [
        {
          "internalType": "address",
          "name": "trader",
          "type": "address"
        }
      ],
      "name": "healthFactor",
      "outputs": [
        {
          "internalType": "uint256",
          "name": "",
          "type": "uint256"
        }
      ],
      "stateMutability": "view",
      "type": "function"
    },
    {
      "inputs": [
        {
          "internalType": "address",
          "name": "trader",
          "type": "address"
        }
      ],
      "name": "isLiquidatable",
      "outputs": [
        {
          "internalType": "bool",
          "name": "",
          "type": "bool"
        }
      ],
      "stateMutability": "view",
      "type": "function"
    },
    {
      "inputs": [
        {
          "internalType": "address",
          "name": "",
          "type": "address"
        }
      ],
      "name": "keepers",
      "outputs": [
        {
          "internalType": "bool",
          "name": "",
          "type": "bool"
        }
      ],
      "stateMutability": "view",
      "type": "function"
    },
    {
      "inputs": [
        {
          "internalType": "address",
          "name": "trader",
          "type": "address"
        }
      ],
      "name": "liquidate",
      "outputs": [],
      "stateMutability": "nonpayable",
      "type": "function"
    },
    {
      "inputs": [],
      "name": "owner",
      "outputs": [
        {
          "internalType": "address",
          "name": "",
          "type": "address"
        }
      ],
      "stateMutability": "view",
      "type": "function"
    },
    {
      "inputs": [],
      "name": "pause",
      "outputs": [],
      "stateMutability": "nonpayable",
      "type": "function"
    },
    {
      "inputs": [],
      "name": "paused",
      "outputs": [
        {
          "internalType": "bool",
          "name": "",
          "type": "bool"
        }
      ],
      "stateMutability": "view",
      "type": "function"
    },
    {
      "inputs": [],
      "name": "pendingOwner",
      "outputs": [
        {
          "internalType": "address",
          "name": "",
          "type": "address"
        }
      ],
      "stateMutability": "view",
      "type": "function"
    },
    {
      "inputs": [
        {
          "internalType": "address",
          "name": "trader",
          "type": "address"
        },
        {
          "internalType": "uint256",
          "name": "positionId",
          "type": "uint256"
        },
        {
          "internalType": "uint256",
          "name": "notionalSize",
          "type": "uint256"
        },
        {
          "internalType": "uint256",
          "name": "maintenanceMarginBps",
          "type": "uint256"
        }
      ],
      "name": "registerPosition",
      "outputs": [],
      "stateMutability": "nonpayable",
      "type": "function"
    },
    {
      "inputs": [
        {
          "internalType": "address",
          "name": "trader",
          "type": "address"
        },
        {
          "internalType": "bytes32",
          "name": "marketId",
          "type": "bytes32"
        },
        {
          "internalType": "int256",
          "name": "notional",
          "type": "int256"
        },
        {
          "internalType": "uint256",
          "name": "margin",
          "type": "uint256"
        }
      ],
      "name": "registerPosition",
      "outputs": [],
      "stateMutability": "nonpayable",
      "type": "function"
    },
    {
      "inputs": [
        {
          "internalType": "address",
          "name": "trader",
          "type": "address"
        },
        {
          "internalType": "uint256",
          "name": "positionId",
          "type": "uint256"
        },
        {
          "internalType": "uint256",
          "name": "mmReleased",
          "type": "uint256"
        }
      ],
      "name": "removePosition",
      "outputs": [],
      "stateMutability": "nonpayable",
      "type": "function"
    },
    {
      "inputs": [],
      "name": "renounceOwnership",
      "outputs": [],
      "stateMutability": "nonpayable",
      "type": "function"
    },
    {
      "inputs": [
        {
          "internalType": "address",
          "name": "c",
          "type": "address"
        },
        {
          "internalType": "bool",
          "name": "allowed",
          "type": "bool"
        }
      ],
      "name": "setAllowedContract",
      "outputs": [],
      "stateMutability": "nonpayable",
      "type": "function"
    },
    {
      "inputs": [
        {
          "internalType": "address",
          "name": "_tl",
          "type": "address"
        }
      ],
      "name": "setTimelock",
      "outputs": [],
      "stateMutability": "nonpayable",
      "type": "function"
    },
    {
      "inputs": [],
      "name": "timelock",
      "outputs": [
        {
          "internalType": "address",
          "name": "",
          "type": "address"
        }
      ],
      "stateMutability": "view",
      "type": "function"
    },
    {
      "inputs": [],
      "name": "totalAccounts",
      "outputs": [
        {
          "internalType": "uint256",
          "name": "",
          "type": "uint256"
        }
      ],
      "stateMutability": "view",
      "type": "function"
    },
    {
      "inputs": [],
      "name": "totalFeeCollected",
      "outputs": [
        {
          "internalType": "uint256",
          "name": "",
          "type": "uint256"
        }
      ],
      "stateMutability": "view",
      "type": "function"
    },
    {
      "inputs": [],
      "name": "totalRevenue",
      "outputs": [
        {
          "internalType": "uint256",
          "name": "",
          "type": "uint256"
        }
      ],
      "stateMutability": "view",
      "type": "function"
    },
    {
      "inputs": [
        {
          "internalType": "address",
          "name": "newOwner",
          "type": "address"
        }
      ],
      "name": "transferOwnership",
      "outputs": [],
      "stateMutability": "nonpayable",
      "type": "function"
    },
    {
      "inputs": [],
      "name": "unpause",
      "outputs": [],
      "stateMutability": "nonpayable",
      "type": "function"
    },
    {
      "inputs": [
        {
          "internalType": "address",
          "name": "trader",
          "type": "address"
        },
        {
          "internalType": "bytes32",
          "name": "marketId",
          "type": "bytes32"
        },
        {
          "internalType": "int256",
          "name": "pnl",
          "type": "int256"
        }
      ],
      "name": "updatePnL",
      "outputs": [],
      "stateMutability": "nonpayable",
      "type": "function"
    },
    {
      "inputs": [
        {
          "internalType": "address",
          "name": "trader",
          "type": "address"
        },
        {
          "internalType": "int256",
          "name": "pnlDelta",
          "type": "int256"
        }
      ],
      "name": "updatePnL",
      "outputs": [],
      "stateMutability": "nonpayable",
      "type": "function"
    },
    {
      "inputs": [
        {
          "internalType": "uint256",
          "name": "amount",
          "type": "uint256"
        }
      ],
      "name": "withdrawCollateral",
      "outputs": [],
      "stateMutability": "nonpayable",
      "type": "function"
    },
    {
      "inputs": [
        {
          "internalType": "address",
          "name": "to",
          "type": "address"
        },
        {
          "internalType": "uint256",
          "name": "amount",
          "type": "uint256"
        }
      ],
      "name": "withdrawRevenue",
      "outputs": [],
      "stateMutability": "nonpayable",
      "type": "function"
    }
  ],
  "bytecode": "0x60a03461016857601f61204038819003918201601f19168301916001600160401b0383118484101761016c5780849260409485528339810103126101685761004681610180565b906001600160a01b039061005c90602001610180565b1690811561015557600180546001600160a01b03199081169091555f80549182168417815560405193916001600160a01b0316907f8be0079c531659141344cd1fd0a4f28419497f9722a3daafe3b4186f6b6457e09080a360017f9b779b17422d0df92223018b32b4d1fa46e071723d6817e2486d003becc55f00556001600160a01b03169081156101205750608052604051611eab90816101958239608051818181610636015281816108d001528181610b8301528181610c0a0152610f990152f35b62461bcd60e51b815260206004820152601060248201526f57696b693a207a65726f205f7573646360801b6044820152606490fd5b631e4fbdf760e01b5f525f60045260245ffd5b5f80fd5b634e487b7160e01b5f52604160045260245ffd5b51906001600160a01b03821682036101685756fe60806040526004361015610011575f80fd5b5f3560e01c8063042e02cf146114565780631f25ac95146113c2578063249d39e91461104057806329fd97471461139f5780632f8655681461128757806337cf6a321461124a5780633bbd64bc1461120d5780633f4ba83a1461119f57806351e0e26b1461116257806355de1faf1461110d57806358451f97146110f05780635c975abb146110cb5780635e5c06e2146110455780635f46484e146110405780636112fe2e14610f2a578063653d801314610f0e57806366ba567d14610dc957806368cf06e414610dad5780636ad9f9df14610d82578063715018a614610d1f57806379ba509714610c9a5780638456cb5914610c3957806389a3027114610bf55780638b63c26714610b3a5780638cc2440814610ac55780638da5cb5b14610a9e57806398105de4146109dd578063a5943c09146109b4578063a66df70114610993578063aaf5eb6814610971578063ad1383f814610956578063b9b2b5cd14610939578063bcc46e831461086f578063bdacb303146107ed578063bf2d9e0b146107d0578063c33058df14610771578063c8dd71b214610748578063cab13915146104b6578063cb6256801461048f578063d33219b414610467578063e30c39781461043f578063f2fde38b146103d2578063f67a2051146103a45763fbcbc0f1146101fd575f80fd5b346103a05760203660031901126103a057610216611480565b606060e060405161022681611546565b5f81525f60208201525f60408201525f838201525f60808201525f60a08201525f60c0820152015260018060a01b03165f52600360205260405f2060405161026d81611546565b60018060a01b03825416815260018201549060208101918252600283015492604082019384526003810154906060830191825260048101546080840190815260058201549060a08501918252600760ff6006850154169360c08701941515855201936040519485602082549182815201915f5260205f20905f5b81811061038a57505050856102fd910386611563565b60e086019485526040519788976020895261012089019760018060a01b0390511660208a01525160408901525160608801525160808701525160a08601525160c085015251151560e08401525190610100808401528151809152602061014084019201905f5b818110610371575050500390f35b8251845285945060209384019390920191600101610363565b82548452602090930192600192830192016102e7565b5f80fd5b346103a0575f3660031901126103a057335f908152600660205260409020600301805460ff19166001179055005b346103a05760203660031901126103a0576103eb611480565b6103f3611c08565b60018060a01b0316806001600160601b0360a01b600154161760015560018060a01b035f54167f38d16b8cac22d99fc7c124b9cd0de2d3fa1faef420bfe791d8c362d765e227005f80a3005b346103a0575f3660031901126103a0576001546040516001600160a01b039091168152602090f35b346103a0575f3660031901126103a0576002546040516001600160a01b039091168152602090f35b346103a05760403660031901126103a0576104b46104ab611480565b60243590611a95565b005b346103a05760203660031901126103a0576004356104d2611bd0565b6104da611c1b565b335f52600360205260ff600660405f2001541661070e57633b9aca0081106106d857602060405161050b8282611563565b5f81525f368137600760405161052081611546565b3381526105b7848201868152604083015f8152606084015f8152608085019042825260a08601925f845260c08701946001865260e08801998a52335f5260038b5260405f209760018060a01b039051166001600160601b0360a01b895416178855516001880155516002870155516003860155516004850155516005840155511515600683019060ff801983541691151516179055565b0190519081519167ffffffffffffffff83116106c457600160401b83116106c4578390825484845580851061069c575b5001905f52825f205f5b83811061068a576009548690865f1982146106765760017f7325fb14450d3e5eb288c620b4ff1d6b43a41b33b4a4f143ae88cd4c12f99ea3920160095561065a8330337f0000000000000000000000000000000000000000000000000000000000000000611dec565b6040519283523392a260015f80516020611e5683398151915255005b634e487b7160e01b5f52601160045260245ffd5b825182820155918401916001016105f1565b835f5284835f2091820191015b8181106106b657506105e7565b5f81558693506001016106a9565b634e487b7160e01b5f52604160045260245ffd5b60405162461bcd60e51b815260206004820152600e60248201526d0504d3a206d696e2024312c3030360941b6044820152606490fd5b60405162461bcd60e51b8152602060048201526012602482015271504d3a20616c72656164792065786973747360701b6044820152606490fd5b346103a05760603660031901126103a0576104b4610764611480565b60443590602435906119d6565b346103a05760203660031901126103a0576001600160a01b03610792611480565b165f526006602052608060405f2080549060018101549060ff6003600283015492015416916040519384526020840152604083015215156060820152f35b346103a0575f3660031901126103a0576020600754604051908152f35b346103a05760203660031901126103a057610806611480565b61080e611c08565b6001600160a01b03168015610834576001600160601b0360a01b60025416176002555f80f35b60405162461bcd60e51b815260206004820152601360248201527257696b693a207a65726f2074696d656c6f636b60681b6044820152606490fd5b346103a05760203660031901126103a05760043561088b611bd0565b610893611c1b565b335f526003602052600160405f206108b160ff6006830154166117d9565b6108ba33611c39565b016108c6828254611510565b81556108f48230337f0000000000000000000000000000000000000000000000000000000000000000611dec565b5460405191825260208201527f11f8990ac38271f23dea447d5728e9914fca7cea2edda43af6c43c415f8bc30b60403392a260015f80516020611e5683398151915255005b346103a0575f3660031901126103a0576020600854604051908152f35b346103a0575f3660031901126103a057602060405160058152f35b346103a0575f3660031901126103a0576020604051670de0b6b3a76400008152f35b346103a05760203660031901126103a0576104b46109af611480565b611c39565b346103a05760603660031901126103a0576104b46109d0611480565b6044359060243590611869565b346103a05760803660031901126103a0576109f6611480565b335f526004602052610a0e60ff60405f205416611816565b60018060a01b03165f52600a60205260405f20604051610a2d8161152a565b602435815260208101916044358352604082015f8152606083019160643583528054600160401b8110156106c457610a6a916001820181556114b2565b949094610a8b57600393518555516001850155516002840155519101555f80f35b634e487b7160e01b5f525f60045260245ffd5b346103a0575f3660031901126103a0575f546040516001600160a01b039091168152602090f35b346103a05760403660031901126103a057610ade611480565b6001600160a01b03165f908152600a60205260409020805460243591908210156103a057608091610b0e916114b2565b508054906001810154906003600282015491015491604051938452602084015260408301526060820152f35b346103a05760403660031901126103a057610b53611480565b602435610b5e611c08565b610b66611bd0565b60075491828211610bba57610b7e82610ba79461151d565b6007557f0000000000000000000000000000000000000000000000000000000000000000611d6b565b60015f80516020611e5683398151915255005b60405162461bcd60e51b8152602060048201526013602482015272504d3a206578636565647320726576656e756560681b6044820152606490fd5b346103a0575f3660031901126103a0576040517f00000000000000000000000000000000000000000000000000000000000000006001600160a01b03168152602090f35b346103a0575f3660031901126103a057610c51611c08565b610c59611c1b565b6001805460ff60a01b1916600160a01b1790556040513381527f62e78cea01bee320cd4e420270b5ea74000d11b0c9f74754ebdbfc544b05a25890602090a1005b346103a0575f3660031901126103a057600154336001600160a01b0390911603610d0c57600180546001600160a01b03199081169091555f805433928116831782556001600160a01b0316907f8be0079c531659141344cd1fd0a4f28419497f9722a3daafe3b4186f6b6457e09080a3005b63118cdaa760e01b5f523360045260245ffd5b346103a0575f3660031901126103a057610d37611c08565b600180546001600160a01b03199081169091555f80549182168155906001600160a01b03167f8be0079c531659141344cd1fd0a4f28419497f9722a3daafe3b4186f6b6457e08280a3005b346103a05760203660031901126103a0576020610da5610da0611480565b611b17565b604051908152f35b346103a0575f3660031901126103a0576020604051612af88152f35b346103a05760803660031901126103a057610de2611480565b60243560443560643591335f526004602052610e0460ff60405f205416611816565b60018060a01b03841693845f526003602052600760405f20610e2c60ff6006830154166117d9565b610e3583611c39565b612710610e4287876114df565b04610e5260038301918254611510565b90550190815490600160401b8210156106c457610da084610e7f84612af8966001610e9797018155611854565b90919082549060031b91821b915f19901b1916179055565b10610ed4577f76ea1d66d137ed32bcc7f2fa73d940de7c552b79c7fba4be1617ede042fdfc369260609260405192835260208301526040820152a2005b60405162461bcd60e51b8152602060048201526012602482015271504d3a206865616c746820746f6f206c6f7760701b6044820152606490fd5b346103a0575f3660031901126103a057602060405161041a8152f35b346103a05760203660031901126103a057600435610f46611bd0565b610f4e611c1b565b335f52600360205260405f20610f6a60ff6006830154166117d9565b610f7333611c39565b610f7c33611b73565b8211610ffc57600101610f9082825461151d565b9055610fbd81337f0000000000000000000000000000000000000000000000000000000000000000611d6b565b6040519081527fc30fcfbcaac9e0deffa719714eaa82396ff506a0d0d0eebe170830177288715d60203392a260015f80516020611e5683398151915255005b606460405162461bcd60e51b815260206004820152602060248201527f504d3a20696e73756666696369656e74206672656520636f6c6c61746572616c6044820152fd5b611496565b346103a05760203660031901126103a0576001600160a01b03611066611480565b165f52600360205260e060405f2060018060a01b03815416906001810154906002810154600382015460048301549160ff600660058601549501541694604051968752602087015260408601526060850152608084015260a0830152151560c0820152f35b346103a0575f3660031901126103a057602060ff60015460a01c166040519015158152f35b346103a0575f3660031901126103a0576020600954604051908152f35b346103a05760403660031901126103a057611126611480565b60243580151581036103a0576104b49161113e611c08565b60018060a01b03165f52600460205260405f209060ff801983541691151516179055565b346103a05760203660031901126103a0576001600160a01b03611183611480565b165f526004602052602060ff60405f2054166040519015158152f35b346103a0575f3660031901126103a0576111b7611c08565b60015460ff8160a01c16156111fe5760ff60a01b19166001556040513381527f5db9ee0a495bf2e6ff9c91a7834c1ba4fdd244a5e8aa4e537bd38aeae4b073aa90602090a1005b638dfc202b60e01b5f5260045ffd5b346103a05760203660031901126103a0576001600160a01b0361122e611480565b165f526005602052602060ff60405f2054166040519015158152f35b346103a05760203660031901126103a057608061126d611268611480565b6115c4565b916040519384526020840152604083015215156060820152f35b346103a05760203660031901126103a0576112a0611480565b6112a8611bd0565b6127106112b482611b17565b101561136c5760018060a01b0316805f5260036020527fd98b2761aaeda40d0e7faf70f705a67198f404230a0833ce7c9838d30a1d0346602060405f2060066003820154915f600182018054948560028501546113118183611510565b8311851461135f5761132961132e926113389461151d565b61151d565b955b600754611510565b6007555501805460ff19169055604051908152a260015f80516020611e5683398151915255005b5050506113388295611330565b60405162461bcd60e51b815260206004820152600b60248201526a504d3a206865616c74687960a81b6044820152606490fd5b346103a05760203660031901126103a0576020610da56113bd611480565b611b73565b346103a05760203660031901126103a0576001600160a01b036113e3611480565b165f908152600660205260409020805460018201546002830154801561144d57925b61271082029382850461271014831517156106765760ff600361142a8360a0986114f2565b930154169260405194855260208501526040840152606083015215156080820152f35b50600192611405565b346103a05760203660031901126103a0576020612710611477610da0611480565b10604051908152f35b600435906001600160a01b03821682036103a057565b346103a0575f3660031901126103a05760206040516127108152f35b80548210156114cb575f5260205f209060021b01905f90565b634e487b7160e01b5f52603260045260245ffd5b8181029291811591840414171561067657565b81156114fc570490565b634e487b7160e01b5f52601260045260245ffd5b9190820180921161067657565b9190820391821161067657565b6080810190811067ffffffffffffffff8211176106c457604052565b610100810190811067ffffffffffffffff8211176106c457604052565b90601f8019910116810190811067ffffffffffffffff8211176106c457604052565b80518210156114cb5760209160051b010190565b9190915f838201938412911290801582169115161761067657565b600160ff1b8114610676575f0390565b60018060a01b03165f52600a60205260405f2090815467ffffffffffffffff81116106c45760208160051b01926115fe6040519485611563565b81845260208401905f5260205f205f915b838310611798575050505081511561178c575f8080805b855184101561167d576116736116666116506001936040611647898c611585565b51015190611599565b93606061165d888b611585565b51015190611510565b936020611647878a611585565b9301929190611626565b91935f93509190835b86518510156116dc576116c86001915f60206116a2898c611585565b51015112156116d0576116c260206116ba898c611585565b5101516115b4565b90611510565b940193611686565b602061165d888b611585565b9295509250925f81125f14611787576116f4906115b4565b811561177f576117039161151d565b6101f48102908082046101f414901517156106765761271090045b808211156117745761173361173c918361151d565b925b8392611599565b91801561176b57612710830290838204612710148415171561067657611761916114f2565b925b61041a841090565b505f1992611763565b5061173c5f92611735565b50505f61171e565b6116f4565b5f1991505f9081908190565b600460206001926040516117ab8161152a565b855481528486015483820152600286015460408201526003860154606082015281520192019201919061160f565b156117e057565b60405162461bcd60e51b815260206004820152600e60248201526d14134e881b9bc81858d8dbdd5b9d60921b6044820152606490fd5b1561181d57565b60405162461bcd60e51b815260206004820152600f60248201526e14134e881b9bdd08185b1b1bddd959608a1b6044820152606490fd5b80548210156114cb575f5260205f2001905f90565b919091335f52600460205261188460ff60405f205416611816565b6001600160a01b0381165f81815260036020526040902060068101549193909160ff16156119cf576118b7600793611c39565b600382019080825410155f146119c6576118d290825461151d565b90555b015f5b81548082101561199957846118ed8385611854565b90549060031b1c1461190257506001016118d8565b929391925f1981019190821161067657610e7f6119226119309386611854565b90549060031b1c9185611854565b8154908115611985577f03c78e4e20a72b1f577a63b54524c684ce73d2e414970ee606bb0b7a9004aa9c926020925f19019061196c8282611854565b8154905f199060031b1b19169055555b604051908152a2565b634e487b7160e01b5f52603160045260245ffd5b5050509060207f03c78e4e20a72b1f577a63b54524c684ce73d2e414970ee606bb0b7a9004aa9c9161197c565b505f90556118d5565b5050505050565b919091335f52600560205260ff60405f2054168015611a7f575b15611a49576001600160a01b03165f908152600a60205260408120905b8154811015611a435783611a2182846114b2565b505414611a3057600101611a0d565b6002929350611a3e916114b2565b500155565b50505050565b60405162461bcd60e51b815260206004820152600e60248201526d28269d103737ba1035b2b2b832b960911b6044820152606490fd5b50335f52600460205260ff60405f2054166119f0565b335f526004602052611aad60ff60405f205416611816565b6001600160a01b03165f908152600360205260409020600681015460ff1615611b13575f8212611aea576002611ae69101918254611510565b9055565b90611af66002916115b4565b910180549091808210611b0c57611ae69161151d565b50505f9055565b5050565b60018060a01b03165f52600360205260405f206003810154908115611b6c578060026001611b4a93015491015490611510565b90612710820291808304612710149015171561067657611b69916114f2565b90565b50505f1990565b60018060a01b03165f52600360205260405f206001810154906003611b9c600283015484611510565b910154612af8810290808204612af8149015171561067657612710900480911115611bca57611b699161151d565b50505f90565b60025f80516020611e568339815191525414611bf95760025f80516020611e5683398151915255565b633ee5aeb560e01b5f5260045ffd5b5f546001600160a01b03163303610d0c57565b60ff60015460a01c16611c2a57565b63d93c066560e01b5f5260045ffd5b6001600160a01b03165f818152600360205260409020600681015460ff1615611b13576004810190611c6c82544261151d565b90610e108210611a43576001810191611c8b6002845493015483611510565b600581029080820460051490151715610676576201518091612710611cb092046114df565b04924290558215611a4357828110611d1c57508181611cf37fd9c2a372f38939c486722eccbd71fcd241472b7da89783dd5bcf1c3f3a4e93ca946020945461151d565b9055611d0181600854611510565b600855611d1081600754611510565b600755604051908152a2565b5f9250611d2b90600854611510565b600855611d3b8154600754611510565b600755557fd9c2a372f38939c486722eccbd71fcd241472b7da89783dd5bcf1c3f3a4e93ca60206040515f8152a2565b916040519163a9059cbb60e01b5f5260018060a01b031660045260245260205f60448180865af19060015f5114821615611dcb575b60405215611dab5750565b635274afe760e01b5f9081526001600160a01b0391909116600452602490fd5b906001811516611de357823b15153d15161690611da0565b503d5f823e3d90fd5b6040516323b872dd60e01b5f9081526001600160a01b039384166004529290931660245260449390935260209060648180865af19060015f5114821615611e3d575b6040525f60605215611dab5750565b906001811516611de357823b15153d15161690611e2e56fe9b779b17422d0df92223018b32b4d1fa46e071723d6817e2486d003becc55f00a2646970667358221220fcaaece5763e8e63e0483eb54bd50ce44601928590d8099c1fc423613ee22da564736f6c634300081a0033",
  "linkReferences": {},
  "deployedLinkReferences": {}
}