{
  "_format": "hh-sol-artifact-1",
  "contractName": "WikiLiquidator",
  "sourceName": "src/WikiLiquidator.sol",
  "abi": [
    {
      "inputs": [
        {
          "internalType": "address",
          "name": "_perp",
          "type": "address"
        },
        {
          "internalType": "address",
          "name": "_vault",
          "type": "address"
        },
        {
          "internalType": "address",
          "name": "_registry",
          "type": "address"
        },
        {
          "internalType": "address",
          "name": "_usdc",
          "type": "address"
        },
        {
          "internalType": "address",
          "name": "_owner",
          "type": "address"
        }
      ],
      "stateMutability": "nonpayable",
      "type": "constructor"
    },
    {
      "inputs": [
        {
          "internalType": "address",
          "name": "owner",
          "type": "address"
        }
      ],
      "name": "OwnableInvalidOwner",
      "type": "error"
    },
    {
      "inputs": [
        {
          "internalType": "address",
          "name": "account",
          "type": "address"
        }
      ],
      "name": "OwnableUnauthorizedAccount",
      "type": "error"
    },
    {
      "inputs": [],
      "name": "ReentrancyGuardReentrantCall",
      "type": "error"
    },
    {
      "inputs": [
        {
          "internalType": "address",
          "name": "token",
          "type": "address"
        }
      ],
      "name": "SafeERC20FailedOperation",
      "type": "error"
    },
    {
      "anonymous": false,
      "inputs": [
        {
          "indexed": true,
          "internalType": "address",
          "name": "keeper",
          "type": "address"
        },
        {
          "indexed": false,
          "internalType": "uint256",
          "name": "attempted",
          "type": "uint256"
        },
        {
          "indexed": false,
          "internalType": "uint256",
          "name": "succeeded",
          "type": "uint256"
        },
        {
          "indexed": false,
          "internalType": "uint256",
          "name": "totalBonus",
          "type": "uint256"
        }
      ],
      "name": "BatchLiquidationResult",
      "type": "event"
    },
    {
      "anonymous": false,
      "inputs": [
        {
          "indexed": false,
          "internalType": "bool",
          "name": "paused",
          "type": "bool"
        }
      ],
      "name": "EmergencyPause",
      "type": "event"
    },
    {
      "anonymous": false,
      "inputs": [
        {
          "indexed": true,
          "internalType": "address",
          "name": "keeper",
          "type": "address"
        },
        {
          "indexed": false,
          "internalType": "uint256",
          "name": "marketIdx",
          "type": "uint256"
        }
      ],
      "name": "FundingSettled",
      "type": "event"
    },
    {
      "anonymous": false,
      "inputs": [
        {
          "indexed": true,
          "internalType": "uint256",
          "name": "posId",
          "type": "uint256"
        },
        {
          "indexed": true,
          "internalType": "address",
          "name": "keeper",
          "type": "address"
        },
        {
          "indexed": true,
          "internalType": "address",
          "name": "trader",
          "type": "address"
        },
        {
          "indexed": false,
          "internalType": "uint256",
          "name": "perpFee",
          "type": "uint256"
        },
        {
          "indexed": false,
          "internalType": "uint256",
          "name": "bonusUsdc",
          "type": "uint256"
        },
        {
          "indexed": false,
          "internalType": "uint256",
          "name": "urgencyMult",
          "type": "uint256"
        },
        {
          "indexed": false,
          "internalType": "uint256",
          "name": "keeperMult",
          "type": "uint256"
        }
      ],
      "name": "LiquidationExecuted",
      "type": "event"
    },
    {
      "anonymous": false,
      "inputs": [
        {
          "indexed": true,
          "internalType": "address",
          "name": "keeper",
          "type": "address"
        },
        {
          "indexed": false,
          "internalType": "uint256",
          "name": "marketIdx",
          "type": "uint256"
        },
        {
          "indexed": false,
          "internalType": "uint256",
          "name": "count",
          "type": "uint256"
        }
      ],
      "name": "OrdersExecuted",
      "type": "event"
    },
    {
      "anonymous": false,
      "inputs": [
        {
          "indexed": true,
          "internalType": "address",
          "name": "previousOwner",
          "type": "address"
        },
        {
          "indexed": true,
          "internalType": "address",
          "name": "newOwner",
          "type": "address"
        }
      ],
      "name": "OwnershipTransferStarted",
      "type": "event"
    },
    {
      "anonymous": false,
      "inputs": [
        {
          "indexed": true,
          "internalType": "address",
          "name": "previousOwner",
          "type": "address"
        },
        {
          "indexed": true,
          "internalType": "address",
          "name": "newOwner",
          "type": "address"
        }
      ],
      "name": "OwnershipTransferred",
      "type": "event"
    },
    {
      "anonymous": false,
      "inputs": [
        {
          "indexed": false,
          "internalType": "address",
          "name": "newRegistry",
          "type": "address"
        }
      ],
      "name": "RegistryUpdated",
      "type": "event"
    },
    {
      "anonymous": false,
      "inputs": [
        {
          "indexed": true,
          "internalType": "address",
          "name": "from",
          "type": "address"
        },
        {
          "indexed": false,
          "internalType": "uint256",
          "name": "amount",
          "type": "uint256"
        }
      ],
      "name": "RewardPoolFunded",
      "type": "event"
    },
    {
      "anonymous": false,
      "inputs": [
        {
          "indexed": true,
          "internalType": "address",
          "name": "to",
          "type": "address"
        },
        {
          "indexed": false,
          "internalType": "uint256",
          "name": "amount",
          "type": "uint256"
        }
      ],
      "name": "RewardPoolWithdrawn",
      "type": "event"
    },
    {
      "inputs": [],
      "name": "BASE_BONUS_USDC",
      "outputs": [
        {
          "internalType": "uint256",
          "name": "",
          "type": "uint256"
        }
      ],
      "stateMutability": "view",
      "type": "function"
    },
    {
      "inputs": [],
      "name": "BPS",
      "outputs": [
        {
          "internalType": "uint256",
          "name": "",
          "type": "uint256"
        }
      ],
      "stateMutability": "view",
      "type": "function"
    },
    {
      "inputs": [],
      "name": "MAX_BONUS_USDC",
      "outputs": [
        {
          "internalType": "uint256",
          "name": "",
          "type": "uint256"
        }
      ],
      "stateMutability": "view",
      "type": "function"
    },
    {
      "inputs": [],
      "name": "MAX_DAILY_POOL_USAGE",
      "outputs": [
        {
          "internalType": "uint256",
          "name": "",
          "type": "uint256"
        }
      ],
      "stateMutability": "view",
      "type": "function"
    },
    {
      "inputs": [],
      "name": "MAX_ORACLE_AGE",
      "outputs": [
        {
          "internalType": "uint256",
          "name": "",
          "type": "uint256"
        }
      ],
      "stateMutability": "view",
      "type": "function"
    },
    {
      "inputs": [],
      "name": "MAX_URGENCY_MULT",
      "outputs": [
        {
          "internalType": "uint256",
          "name": "",
          "type": "uint256"
        }
      ],
      "stateMutability": "view",
      "type": "function"
    },
    {
      "inputs": [],
      "name": "URGENCY_SCALE_BPS",
      "outputs": [
        {
          "internalType": "uint256",
          "name": "",
          "type": "uint256"
        }
      ],
      "stateMutability": "view",
      "type": "function"
    },
    {
      "inputs": [],
      "name": "USDC",
      "outputs": [
        {
          "internalType": "contract IERC20",
          "name": "",
          "type": "address"
        }
      ],
      "stateMutability": "view",
      "type": "function"
    },
    {
      "inputs": [
        {
          "internalType": "uint256",
          "name": "posId",
          "type": "uint256"
        },
        {
          "internalType": "address",
          "name": "keeper",
          "type": "address"
        }
      ],
      "name": "_tryLiquidate",
      "outputs": [
        {
          "internalType": "uint256",
          "name": "bonus",
          "type": "uint256"
        }
      ],
      "stateMutability": "nonpayable",
      "type": "function"
    },
    {
      "inputs": [],
      "name": "acceptOwnership",
      "outputs": [],
      "stateMutability": "nonpayable",
      "type": "function"
    },
    {
      "inputs": [],
      "name": "dailyPoolResetAt",
      "outputs": [
        {
          "internalType": "uint256",
          "name": "",
          "type": "uint256"
        }
      ],
      "stateMutability": "view",
      "type": "function"
    },
    {
      "inputs": [],
      "name": "dailyPoolUsed",
      "outputs": [
        {
          "internalType": "uint256",
          "name": "",
          "type": "uint256"
        }
      ],
      "stateMutability": "view",
      "type": "function"
    },
    {
      "inputs": [
        {
          "internalType": "uint256",
          "name": "marketIdx",
          "type": "uint256"
        },
        {
          "internalType": "uint256[]",
          "name": "orderIds",
          "type": "uint256[]"
        }
      ],
      "name": "executeLimitOrders",
      "outputs": [],
      "stateMutability": "nonpayable",
      "type": "function"
    },
    {
      "inputs": [
        {
          "internalType": "uint256",
          "name": "posId",
          "type": "uint256"
        }
      ],
      "name": "executeTPSL",
      "outputs": [],
      "stateMutability": "nonpayable",
      "type": "function"
    },
    {
      "inputs": [
        {
          "internalType": "uint256[]",
          "name": "posIds",
          "type": "uint256[]"
        }
      ],
      "name": "executeTPSLBatch",
      "outputs": [
        {
          "internalType": "uint256",
          "name": "succeeded",
          "type": "uint256"
        }
      ],
      "stateMutability": "nonpayable",
      "type": "function"
    },
    {
      "inputs": [
        {
          "internalType": "uint256",
          "name": "amount",
          "type": "uint256"
        }
      ],
      "name": "fundRewardPool",
      "outputs": [],
      "stateMutability": "nonpayable",
      "type": "function"
    },
    {
      "inputs": [
        {
          "internalType": "uint256",
          "name": "posId",
          "type": "uint256"
        }
      ],
      "name": "isLiquidatable",
      "outputs": [
        {
          "internalType": "bool",
          "name": "liquidatable",
          "type": "bool"
        },
        {
          "internalType": "uint256",
          "name": "currentPrice",
          "type": "uint256"
        },
        {
          "internalType": "uint256",
          "name": "liqPrice",
          "type": "uint256"
        }
      ],
      "stateMutability": "view",
      "type": "function"
    },
    {
      "inputs": [
        {
          "internalType": "uint256[]",
          "name": "posIds",
          "type": "uint256[]"
        }
      ],
      "name": "liquidateBatch",
      "outputs": [
        {
          "internalType": "uint256",
          "name": "succeeded",
          "type": "uint256"
        },
        {
          "internalType": "uint256",
          "name": "totalBonus",
          "type": "uint256"
        }
      ],
      "stateMutability": "nonpayable",
      "type": "function"
    },
    {
      "inputs": [
        {
          "internalType": "uint256",
          "name": "posId",
          "type": "uint256"
        }
      ],
      "name": "liquidateSingle",
      "outputs": [],
      "stateMutability": "nonpayable",
      "type": "function"
    },
    {
      "inputs": [],
      "name": "owner",
      "outputs": [
        {
          "internalType": "address",
          "name": "",
          "type": "address"
        }
      ],
      "stateMutability": "view",
      "type": "function"
    },
    {
      "inputs": [],
      "name": "paused",
      "outputs": [
        {
          "internalType": "bool",
          "name": "",
          "type": "bool"
        }
      ],
      "stateMutability": "view",
      "type": "function"
    },
    {
      "inputs": [],
      "name": "pendingOwner",
      "outputs": [
        {
          "internalType": "address",
          "name": "",
          "type": "address"
        }
      ],
      "stateMutability": "view",
      "type": "function"
    },
    {
      "inputs": [],
      "name": "perp",
      "outputs": [
        {
          "internalType": "contract WikiPerp",
          "name": "",
          "type": "address"
        }
      ],
      "stateMutability": "view",
      "type": "function"
    },
    {
      "inputs": [
        {
          "internalType": "uint256",
          "name": "posId",
          "type": "uint256"
        }
      ],
      "name": "previewBonus",
      "outputs": [
        {
          "internalType": "uint256",
          "name": "bonus",
          "type": "uint256"
        },
        {
          "internalType": "uint256",
          "name": "urgencyMult",
          "type": "uint256"
        },
        {
          "internalType": "uint256",
          "name": "keeperMult",
          "type": "uint256"
        }
      ],
      "stateMutability": "view",
      "type": "function"
    },
    {
      "inputs": [],
      "name": "registry",
      "outputs": [
        {
          "internalType": "contract WikiKeeperRegistry",
          "name": "",
          "type": "address"
        }
      ],
      "stateMutability": "view",
      "type": "function"
    },
    {
      "inputs": [],
      "name": "remainingDailyPool",
      "outputs": [
        {
          "internalType": "uint256",
          "name": "",
          "type": "uint256"
        }
      ],
      "stateMutability": "view",
      "type": "function"
    },
    {
      "inputs": [],
      "name": "renounceOwnership",
      "outputs": [],
      "stateMutability": "nonpayable",
      "type": "function"
    },
    {
      "inputs": [],
      "name": "rewardPool",
      "outputs": [
        {
          "internalType": "uint256",
          "name": "",
          "type": "uint256"
        }
      ],
      "stateMutability": "view",
      "type": "function"
    },
    {
      "inputs": [
        {
          "internalType": "bool",
          "name": "_paused",
          "type": "bool"
        }
      ],
      "name": "setPaused",
      "outputs": [],
      "stateMutability": "nonpayable",
      "type": "function"
    },
    {
      "inputs": [
        {
          "internalType": "address",
          "name": "_registry",
          "type": "address"
        }
      ],
      "name": "setRegistry",
      "outputs": [],
      "stateMutability": "nonpayable",
      "type": "function"
    },
    {
      "inputs": [
        {
          "internalType": "address",
          "name": "_tl",
          "type": "address"
        }
      ],
      "name": "setTimelock",
      "outputs": [],
      "stateMutability": "nonpayable",
      "type": "function"
    },
    {
      "inputs": [
        {
          "internalType": "uint256",
          "name": "marketIdx",
          "type": "uint256"
        }
      ],
      "name": "settleFunding",
      "outputs": [],
      "stateMutability": "nonpayable",
      "type": "function"
    },
    {
      "inputs": [
        {
          "internalType": "uint256[]",
          "name": "marketIdxs",
          "type": "uint256[]"
        }
      ],
      "name": "settleFundingBatch",
      "outputs": [],
      "stateMutability": "nonpayable",
      "type": "function"
    },
    {
      "inputs": [],
      "name": "timelock",
      "outputs": [
        {
          "internalType": "address",
          "name": "",
          "type": "address"
        }
      ],
      "stateMutability": "view",
      "type": "function"
    },
    {
      "inputs": [],
      "name": "totalBonusPaid",
      "outputs": [
        {
          "internalType": "uint256",
          "name": "",
          "type": "uint256"
        }
      ],
      "stateMutability": "view",
      "type": "function"
    },
    {
      "inputs": [],
      "name": "totalLiquidations",
      "outputs": [
        {
          "internalType": "uint256",
          "name": "",
          "type": "uint256"
        }
      ],
      "stateMutability": "view",
      "type": "function"
    },
    {
      "inputs": [
        {
          "internalType": "address",
          "name": "newOwner",
          "type": "address"
        }
      ],
      "name": "transferOwnership",
      "outputs": [],
      "stateMutability": "nonpayable",
      "type": "function"
    },
    {
      "inputs": [],
      "name": "vault",
      "outputs": [
        {
          "internalType": "contract WikiVault",
          "name": "",
          "type": "address"
        }
      ],
      "stateMutability": "view",
      "type": "function"
    },
    {
      "inputs": [
        {
          "internalType": "address",
          "name": "to",
          "type": "address"
        },
        {
          "internalType": "uint256",
          "name": "amount",
          "type": "uint256"
        }
      ],
      "name": "withdrawRewardPool",
      "outputs": [],
      "stateMutability": "nonpayable",
      "type": "function"
    }
  ],
  "bytecode": "0x60e0346102a057601f6128c638819003918201601f19168301916001600160401b038311848410176102a45780849260a0946040528339810103126102a057610047816102b8565b610053602083016102b8565b61005f604084016102b8565b9061006c606085016102b8565b936001600160a01b0390610082906080016102b8565b1692831561028d57600180546001600160a01b03199081169091555f80549182168617815560405195916001600160a01b0316907f8be0079c531659141344cd1fd0a4f28419497f9722a3daafe3b4186f6b6457e09080a360017f9b779b17422d0df92223018b32b4d1fa46e071723d6817e2486d003becc55f00556001600160a01b031692831561025857506001600160a01b031690811561021f576001600160a01b03169182156101da5760805260a052600380546001600160a01b0319169190911790556001600160a01b031660c0526040516125f990816102cd823960805181818161035c0152818161048e015281816107440152818161082a0152818161097a01528181610d84015281816116050152818161193601528181611bc3015261226c015260a051816101dc015260c051818181610a7101528181610b7d0152818161111f015281816124f0015261251c0152f35b60405162461bcd60e51b815260206004820152601460248201527f57696b693a207a65726f205f72656769737472790000000000000000000000006044820152606490fd5b60405162461bcd60e51b815260206004820152601160248201527015da5ada4e881e995c9bc817dd985d5b1d607a1b6044820152606490fd5b62461bcd60e51b815260206004820152601060248201526f057696b693a207a65726f205f706572760841b6044820152606490fd5b631e4fbdf760e01b5f525f60045260245ffd5b5f80fd5b634e487b7160e01b5f52604160045260245ffd5b51906001600160a01b03821682036102a05756fe60806040526004361015610011575f80fd5b5f803560e01c806316c38b3c146112505780631d583e0d146110fb578063211a4443146110c8578063214a18f6146110a9578063249d39e91461108d5780632c56116f146110715780634a0d016f146110545780634d6431281461103957806351839eb01461101c578063562d405b14610fd4578063599dc53914610e6f5780635c975abb14610e4d57806366666aa914610e305780636a61324614610d5e578063715018a614610cf957806379ba509714610c745780637b10399914610c4b57806381ecf27f14610bca5780638325263c14610bac57806389a3027114610b675780638da5cb5b14610b405780638f08683614610b1d578063954806d714610aff5780639aa1001b14610a01578063a6f3b7cc1461094e578063a91ee0dc146108e0578063bdacb30314610859578063bfa4c00c14610814578063c27d8eea14610700578063cc687430146106bf578063cd7ee682146106a2578063ce8f723514610421578063d1be34fb1461030a578063d33219b4146102e1578063d3ea0a36146102c3578063e190c6f9146102a4578063e30c39781461027b578063f2fde38b1461020e5763fbfa77cf146101c7575f80fd5b3461020b578060031936011261020b576040517f00000000000000000000000000000000000000000000000000000000000000006001600160a01b03168152602090f35b80fd5b503461020b57602036600319011261020b576102286112e3565b610230611b2e565b600180546001600160a01b0319166001600160a01b0392831690811790915582549091167f38d16b8cac22d99fc7c124b9cd0de2d3fa1faef420bfe791d8c362d765e227008380a380f35b503461020b578060031936011261020b576001546040516001600160a01b039091168152602090f35b503461020b578060031936011261020b5760206040516302faf0808152f35b503461020b578060031936011261020b576020600554604051908152f35b503461020b578060031936011261020b576002546040516001600160a01b039091168152602090f35b503461020b57602036600319011261020b5760043567ffffffffffffffff811161041d5761033c9036906004016112b2565b9190610346611b54565b61035560ff60095416156117da565b90918291907f00000000000000000000000000000000000000000000000000000000000000006001600160a01b031690835b8181106103aa5760208660015f805160206125a483398151915255604051908152f35b6103b5818386611867565b35833b1561041957604051906329bcedf360e21b8252600482015285808260248183895af19182610404575b50506103f0575b600101610387565b946103fc60019161188b565b9590506103e8565b8161040e9161131a565b61041957855f6103e1565b8580fd5b5080fd5b503461020b57604036600319011261020b5760043560243567ffffffffffffffff81116105dd576104569036906004016112b2565b9061045f611b54565b61046e60ff60095416156117da565b81151580610697575b6104809061181b565b61048a8282612267565b91847f00000000000000000000000000000000000000000000000000000000000000006001600160a01b0316803b1561041d576040805163ce8f723560e01b815260048101889052602481019190915260448101849052906001600160fb1b0384116105dd5781839181836064828960051b808c8484013781010301925af180156105e15761067e575b505061051f91612267565b808211156106765761053091611899565b801515806105ec575b610583575b60405191825260208201527f12b8186d489057423575269d403b09a3d8923b5cc99e655c02011016e4f9934960403392a260015f805160206125a48339815191525580f35b60035483906001600160a01b0316803b1561041d5781809160246040518094819363f4ece16f60e01b83523360048401525af180156105e1576105c8575b505061053e565b816105d29161131a565b6105dd57825f6105c1565b8280fd5b6040513d84823e3d90fd5b50600354604051639f8a13d760e01b815233600482015290602090829060249082906001600160a01b03165afa90811561066b57849161062d575b50610539565b90506020813d602011610663575b816106486020938361131a565b8101031261065f5761065990611364565b5f610627565b8380fd5b3d915061063b565b6040513d86823e3d90fd5b505081610530565b816106889161131a565b61069357845f610514565b8480fd5b506064821115610477565b503461020b578060031936011261020b576020604051614e208152f35b503461020b57602036600319011261020b576106fc6106df600435611918565b604080519384526020840192909252908201529081906060820190565b0390f35b503461020b57602036600319011261020b5760043567ffffffffffffffff811161041d576107329036906004016112b2565b9061074260ff60095416156117da565b7f00000000000000000000000000000000000000000000000000000000000000006001600160a01b031690835b83811061077a578480f35b610785818584611867565b3590833b156104195760405191633530992360e11b8352600483015285808360248183895af192836107ff575b50506001916107c2575b0161076f565b6107cd818685611867565b356040519081527fe1e3b1196bfe39a9563778d6d6e7c4943ce111cbc5d42e288092b021be3011b660203392a26107bc565b816108099161131a565b61041957855f6107b2565b503461020b578060031936011261020b576040517f00000000000000000000000000000000000000000000000000000000000000006001600160a01b03168152602090f35b503461020b57602036600319011261020b576108736112e3565b61087b611b2e565b6001600160a01b031680156108a5576bffffffffffffffffffffffff60a01b600254161760025580f35b60405162461bcd60e51b815260206004820152601360248201527257696b693a207a65726f2074696d656c6f636b60681b6044820152606490fd5b503461020b57602036600319011261020b577fd6ceddf6d2a22f21c7c81675c518004eff43bc5c8a6fc32a0b748e69d58671cd602061091d6112e3565b610925611b2e565b600380546001600160a01b0319166001600160a01b03929092169182179055604051908152a180f35b503461020b57602036600319011261020b57610968611b54565b61097760ff60095416156117da565b807f00000000000000000000000000000000000000000000000000000000000000006001600160a01b0316803b156109fe578180916024604051809481936329bcedf360e21b835260043560048401525af180156105e1576109e9575b5060015f805160206125a48339815191525580f35b816109f39161131a565b61020b57805f6109d4565b50fd5b503461020b57604036600319011261020b57610a1b6112e3565b60243590610a27611b2e565b610a2f611b54565b600454808311610aba577fd64fd74db8f23bbb1e72895098d38c54d189117756b92af4f3efad317ef6f7e691610a6784602093611899565b600455610a9584827f00000000000000000000000000000000000000000000000000000000000000006120fc565b6040519384526001600160a01b031692a260015f805160206125a48339815191525580f35b60405162461bcd60e51b815260206004820152601860248201527f4c697175696461746f723a206578636565647320706f6f6c00000000000000006044820152606490fd5b503461020b578060031936011261020b576020600754604051908152f35b503461020b578060031936011261020b576020610b386118a6565b604051908152f35b503461020b578060031936011261020b57546040516001600160a01b039091168152602090f35b503461020b578060031936011261020b576040517f00000000000000000000000000000000000000000000000000000000000000006001600160a01b03168152602090f35b503461020b578060031936011261020b576020600854604051908152f35b503461020b57604036600319011261020b57602435906001600160a01b038216820361020b5750303303610c0657610b38602091600435611baa565b60405162461bcd60e51b815260206004820152601960248201527f4c697175696461746f723a20696e7465726e616c206f6e6c79000000000000006044820152606490fd5b503461020b578060031936011261020b576003546040516001600160a01b039091168152602090f35b503461020b578060031936011261020b57600154336001600160a01b0390911603610ce657600180546001600160a01b0319908116909155815433918116821783556001600160a01b03167f8be0079c531659141344cd1fd0a4f28419497f9722a3daafe3b4186f6b6457e08380a380f35b63118cdaa760e01b815233600452602490fd5b503461020b578060031936011261020b57610d12611b2e565b600180546001600160a01b03199081169091558154908116825581906001600160a01b03167f8be0079c531659141344cd1fd0a4f28419497f9722a3daafe3b4186f6b6457e08280a380f35b5034610e2c576020366003190112610e2c57600435610d8260ff60095416156117da565b7f00000000000000000000000000000000000000000000000000000000000000006001600160a01b0316803b15610e2c575f8091602460405180948193633530992360e11b83528760048401525af18015610e2157610e0c575b506040519081527fe1e3b1196bfe39a9563778d6d6e7c4943ce111cbc5d42e288092b021be3011b660203392a280f35b610e199192505f9061131a565b5f905f610ddc565b6040513d5f823e3d90fd5b5f80fd5b34610e2c575f366003190112610e2c576020600454604051908152f35b34610e2c575f366003190112610e2c57602060ff600954166040519015158152f35b34610e2c576020366003190112610e2c5760043567ffffffffffffffff8111610e2c57610ea09036906004016112b2565b610ea8611b54565b610eb760ff60095416156117da565b5f905f9080151580610fc9575b610ecd9061181b565b5f5b818110610f3257506040805191825260208201849052818101839052935033907f571a0b0c00ab0b092cfcd6cf3800984bf52743288777cea93165705a610c3b8c90606090a260015f805160206125a48339815191525582519182526020820152f35b610f3d818387611867565b6040516381ecf27f60e01b8152903560048201523360248201526020816044815f305af15f9181610f96575b50610f78575b50600101610ecf565b610f8f90610f89600193959661188b565b956112f9565b9290610f6f565b9091506020813d8211610fc1575b81610fb16020938361131a565b81010312610e2c57519087610f69565b3d9150610fa4565b506032811115610ec4565b34610e2c576020366003190112610e2c57610fed611b54565b610ffc60ff60095416156117da565b61100833600435611baa565b5060015f805160206125a483398151915255005b34610e2c575f366003190112610e2c576020604051624c4b408152f35b34610e2c575f366003190112610e2c576020604051603c8152f35b34610e2c575f366003190112610e2c576020600654604051908152f35b34610e2c575f366003190112610e2c5760206040516101f48152f35b34610e2c575f366003190112610e2c5760206040516127108152f35b34610e2c575f366003190112610e2c5760206040516402540be4008152f35b34610e2c576020366003190112610e2c5760606110e66004356115e7565b90604051921515835260208301526040820152f35b34610e2c576020366003190112610e2c57600435611117611b54565b801561120b577f00000000000000000000000000000000000000000000000000000000000000006040516323b872dd60e01b5f5233600452306024528260445260205f60648180865af19060015f51148216156111ea575b6040525f606052156111ca5750611188816004546112f9565b6004556040519081527fd3c7d1587d8f93bae0fcfc5a820d2187e755a75ec28a06c20a9da047e1b01eb560203392a260015f805160206125a483398151915255005b635274afe760e01b5f9081526001600160a01b0391909116600452602490fd5b90600181151661120257823b15153d1516169061116f565b503d5f823e3d90fd5b60405162461bcd60e51b815260206004820152601760248201527f4c697175696461746f723a207a65726f20616d6f756e740000000000000000006044820152606490fd5b34610e2c576020366003190112610e2c57600435801515809103610e2c5760207fb80d1ae5628c2af91424c54c87acfd15016be4bebeef0425b328238702f348319161129a611b2e565b60ff196009541660ff821617600955604051908152a1005b9181601f84011215610e2c5782359167ffffffffffffffff8311610e2c576020808501948460051b010111610e2c57565b600435906001600160a01b0382168203610e2c57565b9190820180921161130657565b634e487b7160e01b5f52601160045260245ffd5b90601f8019910116810190811067ffffffffffffffff82111761133c57604052565b634e487b7160e01b5f52604160045260245ffd5b51906001600160a01b0382168203610e2c57565b51908115158203610e2c57565b90816101a0910312610e2c57604051906101a0820182811067ffffffffffffffff82111761133c5761143291610180916040526113ad81611350565b8452602081015160208501526113c560408201611364565b6040850152606081015160608501526080810151608085015260a081015160a085015260c081015160c085015260e081015160e085015261010081015161010085015261012081015161012085015261014081015161014085015261016081015161016085015201611364565b61018082015290565b602081830312610e2c5780519067ffffffffffffffff8211610e2c57019061024082820312610e2c5760405191610240830183811067ffffffffffffffff82111761133c5760405280518352602081015167ffffffffffffffff8111610e2c5781019180601f84011215610e2c57825167ffffffffffffffff811161133c57604051916114d2601f8301601f19166020018461131a565b81835260208286010111610e2c576020815f928261022097018386015e83010152602084015260408101516040840152606081015160608401526080810151608084015260a081015160a084015260c081015160c084015260e081015160e08401526101008101516101008401526101208101516101208401526101408101516101408401526101608101516101608401526101808101516101808401526101a08101516101a08401526101c08101516101c08401526115956101e08201611364565b6101e0840152610200810151610200840152015161022082015290565b90816020910312610e2c57516001600160a01b0381168103610e2c5790565b9190826040910312610e2c576020825192015190565b60405163eb02c30160e01b815260048101919091525f9182918291907f00000000000000000000000000000000000000000000000000000000000000006001600160a01b0316906101a081602481855afa908115610e21575f916117ab575b506101808101511561179b576020810151916040519263eb44fdd360e01b845260048401525f83602481845afa908115610e21576004935f92611774575b50602090604051948580926307dc0d1d60e41b82525afa928315610e21575f93611740575b5051604080516331d98b3f60e01b815260048101929092529092839060249082906001600160a01b03165afa5f928161170e575b506116e6575050565b610100810151604090910151929550909350915081908390156117095711155b92565b101592565b61173191935060403d604011611739575b611729818361131a565b8101906115d1565b50915f6116dd565b503d61171f565b60409193506117669060203d60201161176d575b61175e818361131a565b8101906115b2565b92906116a9565b503d611754565b6020919250611794903d805f833e61178c818361131a565b81019061143b565b9190611684565b61010001515f9550859450925050565b6117cd91506101a03d81116117d3575b6117c5818361131a565b810190611371565b5f611646565b503d6117bb565b156117e157565b60405162461bcd60e51b8152602060048201526012602482015271131a5c5d5a59185d1bdc8e881c185d5cd95960721b6044820152606490fd5b1561182257565b60405162461bcd60e51b815260206004820152601a60248201527f4c697175696461746f723a206261642062617463682073697a650000000000006044820152606490fd5b91908110156118775760051b0190565b634e487b7160e01b5f52603260045260245ffd5b5f1981146113065760010190565b9190820391821161130657565b600654620151808101809111611306574210156118fa576005546402540be4008110156118f5576402540be400036402540be40081116113065760045490818111156118f0575090565b905090565b505f90565b600454806402540be400115f1461190e5790565b506402540be40090565b60405163eb02c30160e01b815260048101919091525f9182918291907f00000000000000000000000000000000000000000000000000000000000000006001600160a01b0316906101a081602481855afa908115610e21575f91611b0f575b5061018081015115611b02576020810151916040519263eb44fdd360e01b845260048401525f83602481845afa908115610e21576004935f92611ae3575b50602090604051948580926307dc0d1d60e41b82525afa928315610e21575f93611abf575b5051604080516331d98b3f60e01b815260048101929092529092839060249082906001600160a01b03165afa5f9281611a9d575b50611a17575050565b9194509150611a269250612154565b60035460405163138799f360e11b815233600482015290602090829060249082906001600160a01b03165afa908115610e21575f91611a6b575b506117068183612226565b90506020813d602011611a95575b81611a866020938361131a565b81010312610e2c57515f611a60565b3d9150611a79565b611ab791935060403d60401161173957611729818361131a565b50915f611a0e565b6040919350611adc9060203d60201161176d5761175e818361131a565b92906119da565b6020919250611afb903d805f833e61178c818361131a565b91906119b5565b505f945084935083925050565b611b2891506101a03d81116117d3576117c5818361131a565b5f611977565b5f546001600160a01b03163303611b4157565b63118cdaa760e01b5f523360045260245ffd5b60025f805160206125a48339815191525414611b7d5760025f805160206125a483398151915255565b633ee5aeb560e01b5f5260045ffd5b8115611b96570490565b634e487b7160e01b5f52601260045260245ffd5b60405163eb02c30160e01b8152600481018290529291907f00000000000000000000000000000000000000000000000000000000000000006001600160a01b0316905f6101a086602481865afa958615610e21575f966120db575b50610180860151156120965760208601516040519063eb44fdd360e01b825260048201525f81602481875afa908115610e21575f9161207c575b506040516307dc0d1d60e41b815290602082600481885afa918215610e21575f92612058575b5051604080516331d98b3f60e01b815260048101929092529091829060249082906001600160a01b03165afa8015610e21575f915f9161202d575b50611cad603c9142611899565b11611fe857604087015115611fda576101008701518111155b15611f9557611cd59087612154565b60035460405163138799f360e11b81526001600160a01b038088166004830181905292169892969195909291906020846024818d5afa938415610e21575f94611f61575b50611d248489612226565b99611d3060075461188b565b600755604051639f8a13d760e01b815260048101899052602081602481855afa908115610e21575f91611f27575b50611ee2575b50803b15610693578480916024604051809481936301057c4960e61b83528b60048401525af18015611ed757908591611ec2575b50506080820151936101f48502948086046101f41490151715611eae575088908115158080611ea2575b15611e20575091611df8608094927f380c4be78083aa7656fe068750edd6c06f44c6f9f2b00980a2801bd1b1e21adf969461241f565b60018060a01b03905116966127106040519304835289602084015260408301526060820152a4565b909150611e54575b50916080917f380c4be78083aa7656fe068750edd6c06f44c6f9f2b00980a2801bd1b1e21adf93611df8565b9750916080917f380c4be78083aa7656fe068750edd6c06f44c6f9f2b00980a2801bd1b1e21adf93600454998a80611e92575b505091935091611e28565b611e9b9161241f565b5f8a611e87565b50826004541015611dc2565b634e487b7160e01b81526011600452602490fd5b81611ecc9161131a565b61065f57835f611d98565b6040513d87823e3d90fd5b803b15610e2c575f8091602460405180948193631142f76560e01b83528d60048401525af18015610e215715611d6457611f1f9195505f9061131a565b5f935f611d64565b90506020813d602011611f59575b81611f426020938361131a565b81010312610e2c57611f5390611364565b5f611d5e565b3d9150611f35565b9093506020813d602011611f8d575b81611f7d6020938361131a565b81010312610e2c5751925f611d19565b3d9150611f70565b60405162461bcd60e51b815260206004820152601c60248201527f4c697175696461746f723a206e6f74206c6971756964617461626c65000000006044820152606490fd5b610100870151811015611cc6565b60405162461bcd60e51b815260206004820152601860248201527f4c697175696461746f723a207374616c65206f7261636c6500000000000000006044820152606490fd5b611cad9250603c915061204e9060403d60401161173957611729818361131a565b9290929150611ca0565b60409192506120759060203d60201161176d5761175e818361131a565b9190611c65565b61209091503d805f833e61178c818361131a565b5f611c3f565b60405162461bcd60e51b815260206004820152601d60248201527f4c697175696461746f723a20706f736974696f6e206e6f74206f70656e0000006044820152606490fd5b6120f59196506101a03d81116117d3576117c5818361131a565b945f611c05565b916040519163a9059cbb60e01b5f5260018060a01b031660045260245260205f60448180865af19060015f511482161561213c575b604052156111ca5750565b90600181151661120257823b15153d15161690612131565b90610100820191825190811561221c5760400151156121e65750815190818110156121dd5761218291611899565b6127108102908082046127101490151715611306576121a2915190611b8c565b6127108102908082046127101490151715611306576101f4900461271001806127101161130657614e208111156121da5750614e2090565b90565b50505061271090565b808211156121dd576121f791611899565b612710810290808204612710149015171561130657612217915190611b8c565b6121a2565b5050505061271090565b80624c4b400290624c4b408204036113065761271090048181029181830414901517156113065761271090046302faf0808111156121da57506302faf08090565b5f92917f00000000000000000000000000000000000000000000000000000000000000006001600160a01b03169190845b8181106122a55750505050565b6122b0818385611867565b60405163d09ef24160e01b81529035600482015261020081602481885afa8015610e21575f90612303575b6101e0915001516122ef575b600101612298565b946122fb60019161188b565b9590506122e7565b50610200813d8211612417575b8161231e610200938361131a565b81010312610e2c5760405161020081019181831067ffffffffffffffff84111761133c576101e061240e91819460405261235781611350565b84526020810151602085015261236f60408201611364565b604085015261238060608201611364565b60608501526080810151608085015260a081015160a085015260c081015160c085015260e081015160e08501526101008101516101008501526101208101516101208501526101408101516101408501526101608101516101608501526123ea6101808201611364565b6101808501526101a08101516101a08501526101c08101516101c085015201611364565b828201526122db565b3d9150612310565b9060065462015180810180911161130657421015612596575b600554806402540be400115f1461259057806402540be400036402540be4008111611306575b801561257a57808311612588575b50600454808311612580575b821561257a576124959161248d848093611899565b6004556112f9565b6005556124a4816008546112f9565b600855600354604051639f8a13d760e01b81526001600160a01b038481166004830152909160209183916024918391165afa908115610e21575f91612540575b501561251657612514917f00000000000000000000000000000000000000000000000000000000000000006120fc565b565b612514917f00000000000000000000000000000000000000000000000000000000000000006120fc565b90506020813d602011612572575b8161255b6020938361131a565b81010312610e2c5761256c90611364565b5f6124e4565b3d915061254e565b50505050565b915081612478565b91505f61246c565b5f61245e565b426006555f60055561243856fe9b779b17422d0df92223018b32b4d1fa46e071723d6817e2486d003becc55f00a26469706673582212209e767a080a650fc4b96e9682ad43cf117e563b30c01de026e309b373140d448164736f6c634300081a0033",
  "linkReferences": {},
  "deployedLinkReferences": {}
}