{
  "_format": "hh-sol-artifact-1",
  "contractName": "WikiPerp",
  "sourceName": "src/WikiPerp.sol",
  "abi": [
    {
      "inputs": [
        {
          "internalType": "address",
          "name": "_vault",
          "type": "address"
        },
        {
          "internalType": "address",
          "name": "_oracle",
          "type": "address"
        },
        {
          "internalType": "address",
          "name": "owner",
          "type": "address"
        }
      ],
      "stateMutability": "nonpayable",
      "type": "constructor"
    },
    {
      "inputs": [],
      "name": "EnforcedPause",
      "type": "error"
    },
    {
      "inputs": [],
      "name": "ExpectedPause",
      "type": "error"
    },
    {
      "inputs": [
        {
          "internalType": "address",
          "name": "owner",
          "type": "address"
        }
      ],
      "name": "OwnableInvalidOwner",
      "type": "error"
    },
    {
      "inputs": [
        {
          "internalType": "address",
          "name": "account",
          "type": "address"
        }
      ],
      "name": "OwnableUnauthorizedAccount",
      "type": "error"
    },
    {
      "inputs": [],
      "name": "ReentrancyGuardReentrantCall",
      "type": "error"
    },
    {
      "anonymous": false,
      "inputs": [
        {
          "indexed": true,
          "internalType": "uint256",
          "name": "marketIdx",
          "type": "uint256"
        },
        {
          "indexed": false,
          "internalType": "int256",
          "name": "rate",
          "type": "int256"
        },
        {
          "indexed": false,
          "internalType": "uint256",
          "name": "ts",
          "type": "uint256"
        }
      ],
      "name": "FundingSettled",
      "type": "event"
    },
    {
      "anonymous": false,
      "inputs": [
        {
          "indexed": false,
          "internalType": "address",
          "name": "backstop",
          "type": "address"
        },
        {
          "indexed": false,
          "internalType": "bool",
          "name": "enabled",
          "type": "bool"
        }
      ],
      "name": "GMXBackstopSet",
      "type": "event"
    },
    {
      "anonymous": false,
      "inputs": [
        {
          "indexed": true,
          "internalType": "uint256",
          "name": "idx",
          "type": "uint256"
        },
        {
          "indexed": false,
          "internalType": "string",
          "name": "symbol",
          "type": "string"
        },
        {
          "indexed": false,
          "internalType": "uint256",
          "name": "maxLev",
          "type": "uint256"
        }
      ],
      "name": "MarketCreated",
      "type": "event"
    },
    {
      "anonymous": false,
      "inputs": [
        {
          "indexed": true,
          "internalType": "uint256",
          "name": "idx",
          "type": "uint256"
        },
        {
          "indexed": false,
          "internalType": "uint256",
          "name": "makerFee",
          "type": "uint256"
        },
        {
          "indexed": false,
          "internalType": "uint256",
          "name": "takerFee",
          "type": "uint256"
        }
      ],
      "name": "MarketFeesUpdated",
      "type": "event"
    },
    {
      "anonymous": false,
      "inputs": [
        {
          "indexed": true,
          "internalType": "uint256",
          "name": "orderId",
          "type": "uint256"
        },
        {
          "indexed": true,
          "internalType": "address",
          "name": "trader",
          "type": "address"
        },
        {
          "indexed": false,
          "internalType": "string",
          "name": "reason",
          "type": "string"
        }
      ],
      "name": "OrderCancelled",
      "type": "event"
    },
    {
      "anonymous": false,
      "inputs": [
        {
          "indexed": true,
          "internalType": "uint256",
          "name": "orderId",
          "type": "uint256"
        },
        {
          "indexed": true,
          "internalType": "uint256",
          "name": "posId",
          "type": "uint256"
        },
        {
          "indexed": false,
          "internalType": "uint256",
          "name": "price",
          "type": "uint256"
        }
      ],
      "name": "OrderFilled",
      "type": "event"
    },
    {
      "anonymous": false,
      "inputs": [
        {
          "indexed": true,
          "internalType": "uint256",
          "name": "orderId",
          "type": "uint256"
        },
        {
          "indexed": true,
          "internalType": "address",
          "name": "trader",
          "type": "address"
        },
        {
          "indexed": false,
          "internalType": "uint256",
          "name": "marketIdx",
          "type": "uint256"
        },
        {
          "indexed": false,
          "internalType": "bool",
          "name": "isLong",
          "type": "bool"
        },
        {
          "indexed": false,
          "internalType": "uint256",
          "name": "size",
          "type": "uint256"
        }
      ],
      "name": "OrderPlaced",
      "type": "event"
    },
    {
      "anonymous": false,
      "inputs": [
        {
          "indexed": true,
          "internalType": "uint256",
          "name": "orderId",
          "type": "uint256"
        },
        {
          "indexed": false,
          "internalType": "bytes32",
          "name": "gmxKey",
          "type": "bytes32"
        },
        {
          "indexed": false,
          "internalType": "address",
          "name": "trader",
          "type": "address"
        },
        {
          "indexed": false,
          "internalType": "uint256",
          "name": "size",
          "type": "uint256"
        }
      ],
      "name": "OrderRoutedToGMX",
      "type": "event"
    },
    {
      "anonymous": false,
      "inputs": [
        {
          "indexed": true,
          "internalType": "address",
          "name": "previousOwner",
          "type": "address"
        },
        {
          "indexed": true,
          "internalType": "address",
          "name": "newOwner",
          "type": "address"
        }
      ],
      "name": "OwnershipTransferStarted",
      "type": "event"
    },
    {
      "anonymous": false,
      "inputs": [
        {
          "indexed": true,
          "internalType": "address",
          "name": "previousOwner",
          "type": "address"
        },
        {
          "indexed": true,
          "internalType": "address",
          "name": "newOwner",
          "type": "address"
        }
      ],
      "name": "OwnershipTransferred",
      "type": "event"
    },
    {
      "anonymous": false,
      "inputs": [
        {
          "indexed": false,
          "internalType": "address",
          "name": "account",
          "type": "address"
        }
      ],
      "name": "Paused",
      "type": "event"
    },
    {
      "anonymous": false,
      "inputs": [
        {
          "indexed": true,
          "internalType": "uint256",
          "name": "posId",
          "type": "uint256"
        },
        {
          "indexed": true,
          "internalType": "address",
          "name": "trader",
          "type": "address"
        },
        {
          "indexed": false,
          "internalType": "int256",
          "name": "pnl",
          "type": "int256"
        },
        {
          "indexed": false,
          "internalType": "uint256",
          "name": "closePrice",
          "type": "uint256"
        }
      ],
      "name": "PositionClosed",
      "type": "event"
    },
    {
      "anonymous": false,
      "inputs": [
        {
          "indexed": true,
          "internalType": "uint256",
          "name": "posId",
          "type": "uint256"
        },
        {
          "indexed": true,
          "internalType": "address",
          "name": "trader",
          "type": "address"
        },
        {
          "indexed": false,
          "internalType": "address",
          "name": "liquidator",
          "type": "address"
        },
        {
          "indexed": false,
          "internalType": "uint256",
          "name": "price",
          "type": "uint256"
        }
      ],
      "name": "PositionLiquidated",
      "type": "event"
    },
    {
      "anonymous": false,
      "inputs": [
        {
          "indexed": true,
          "internalType": "uint256",
          "name": "posId",
          "type": "uint256"
        },
        {
          "indexed": true,
          "internalType": "address",
          "name": "trader",
          "type": "address"
        },
        {
          "indexed": false,
          "internalType": "bool",
          "name": "isLong",
          "type": "bool"
        },
        {
          "indexed": false,
          "internalType": "uint256",
          "name": "size",
          "type": "uint256"
        },
        {
          "indexed": false,
          "internalType": "uint256",
          "name": "price",
          "type": "uint256"
        }
      ],
      "name": "PositionOpened",
      "type": "event"
    },
    {
      "anonymous": false,
      "inputs": [
        {
          "indexed": false,
          "internalType": "address",
          "name": "account",
          "type": "address"
        }
      ],
      "name": "Unpaused",
      "type": "event"
    },
    {
      "inputs": [],
      "name": "BPS",
      "outputs": [
        {
          "internalType": "uint256",
          "name": "",
          "type": "uint256"
        }
      ],
      "stateMutability": "view",
      "type": "function"
    },
    {
      "inputs": [],
      "name": "DEFAULT_ORDER_EXPIRY",
      "outputs": [
        {
          "internalType": "uint256",
          "name": "",
          "type": "uint256"
        }
      ],
      "stateMutability": "view",
      "type": "function"
    },
    {
      "inputs": [],
      "name": "FUNDING_INTERVAL",
      "outputs": [
        {
          "internalType": "uint256",
          "name": "",
          "type": "uint256"
        }
      ],
      "stateMutability": "view",
      "type": "function"
    },
    {
      "inputs": [],
      "name": "LIQUIDATION_FEE_BPS",
      "outputs": [
        {
          "internalType": "uint256",
          "name": "",
          "type": "uint256"
        }
      ],
      "stateMutability": "view",
      "type": "function"
    },
    {
      "inputs": [],
      "name": "MAX_FUNDING_RATE_BPS",
      "outputs": [
        {
          "internalType": "uint256",
          "name": "",
          "type": "uint256"
        }
      ],
      "stateMutability": "view",
      "type": "function"
    },
    {
      "inputs": [],
      "name": "MAX_OI_CHANGE_BPS",
      "outputs": [
        {
          "internalType": "uint256",
          "name": "",
          "type": "uint256"
        }
      ],
      "stateMutability": "view",
      "type": "function"
    },
    {
      "inputs": [],
      "name": "acceptOwnership",
      "outputs": [],
      "stateMutability": "nonpayable",
      "type": "function"
    },
    {
      "inputs": [
        {
          "internalType": "uint256",
          "name": "orderId",
          "type": "uint256"
        }
      ],
      "name": "cancelOrder",
      "outputs": [],
      "stateMutability": "nonpayable",
      "type": "function"
    },
    {
      "inputs": [
        {
          "internalType": "uint256",
          "name": "posId",
          "type": "uint256"
        }
      ],
      "name": "closePosition",
      "outputs": [],
      "stateMutability": "nonpayable",
      "type": "function"
    },
    {
      "inputs": [
        {
          "internalType": "bytes32",
          "name": "marketId",
          "type": "bytes32"
        },
        {
          "internalType": "string",
          "name": "symbol",
          "type": "string"
        },
        {
          "internalType": "uint256",
          "name": "maxLev",
          "type": "uint256"
        },
        {
          "internalType": "uint256",
          "name": "makerFee",
          "type": "uint256"
        },
        {
          "internalType": "uint256",
          "name": "takerFee",
          "type": "uint256"
        },
        {
          "internalType": "uint256",
          "name": "mmBps",
          "type": "uint256"
        },
        {
          "internalType": "uint256",
          "name": "maxOILong",
          "type": "uint256"
        },
        {
          "internalType": "uint256",
          "name": "maxOIShort",
          "type": "uint256"
        },
        {
          "internalType": "uint256",
          "name": "maxPosPerUser",
          "type": "uint256"
        }
      ],
      "name": "createMarket",
      "outputs": [
        {
          "internalType": "uint256",
          "name": "idx",
          "type": "uint256"
        }
      ],
      "stateMutability": "nonpayable",
      "type": "function"
    },
    {
      "inputs": [
        {
          "internalType": "uint256",
          "name": "amount",
          "type": "uint256"
        }
      ],
      "name": "deployIdle",
      "outputs": [],
      "stateMutability": "nonpayable",
      "type": "function"
    },
    {
      "inputs": [],
      "name": "dynLev",
      "outputs": [
        {
          "internalType": "contract IWikiDynamicLeverage",
          "name": "",
          "type": "address"
        }
      ],
      "stateMutability": "view",
      "type": "function"
    },
    {
      "inputs": [
        {
          "internalType": "uint256",
          "name": "marketIdx",
          "type": "uint256"
        },
        {
          "internalType": "uint256[]",
          "name": "orderIds",
          "type": "uint256[]"
        }
      ],
      "name": "executeLimitOrders",
      "outputs": [],
      "stateMutability": "nonpayable",
      "type": "function"
    },
    {
      "inputs": [
        {
          "internalType": "uint256",
          "name": "posId",
          "type": "uint256"
        }
      ],
      "name": "executeTPSL",
      "outputs": [],
      "stateMutability": "nonpayable",
      "type": "function"
    },
    {
      "inputs": [
        {
          "internalType": "uint256",
          "name": "id",
          "type": "uint256"
        }
      ],
      "name": "getMarket",
      "outputs": [
        {
          "components": [
            {
              "internalType": "bytes32",
              "name": "marketId",
              "type": "bytes32"
            },
            {
              "internalType": "string",
              "name": "symbol",
              "type": "string"
            },
            {
              "internalType": "uint256",
              "name": "maxLeverage",
              "type": "uint256"
            },
            {
              "internalType": "uint256",
              "name": "makerFeeBps",
              "type": "uint256"
            },
            {
              "internalType": "uint256",
              "name": "takerFeeBps",
              "type": "uint256"
            },
            {
              "internalType": "uint256",
              "name": "maintenanceMarginBps",
              "type": "uint256"
            },
            {
              "internalType": "uint256",
              "name": "maxOpenInterestLong",
              "type": "uint256"
            },
            {
              "internalType": "uint256",
              "name": "maxOpenInterestShort",
              "type": "uint256"
            },
            {
              "internalType": "uint256",
              "name": "openInterestLong",
              "type": "uint256"
            },
            {
              "internalType": "uint256",
              "name": "openInterestShort",
              "type": "uint256"
            },
            {
              "internalType": "uint256",
              "name": "maxPositionSizePerUser",
              "type": "uint256"
            },
            {
              "internalType": "int256",
              "name": "fundingRate",
              "type": "int256"
            },
            {
              "internalType": "uint256",
              "name": "lastFundingTime",
              "type": "uint256"
            },
            {
              "internalType": "uint256",
              "name": "cumulativeFundingLong",
              "type": "uint256"
            },
            {
              "internalType": "uint256",
              "name": "cumulativeFundingShort",
              "type": "uint256"
            },
            {
              "internalType": "bool",
              "name": "active",
              "type": "bool"
            },
            {
              "internalType": "uint256",
              "name": "lastOIUpdateBlock",
              "type": "uint256"
            },
            {
              "internalType": "uint256",
              "name": "oiChangesThisBlock",
              "type": "uint256"
            }
          ],
          "internalType": "struct WikiPerp.Market",
          "name": "",
          "type": "tuple"
        }
      ],
      "stateMutability": "view",
      "type": "function"
    },
    {
      "inputs": [
        {
          "internalType": "uint256",
          "name": "id",
          "type": "uint256"
        }
      ],
      "name": "getOrder",
      "outputs": [
        {
          "components": [
            {
              "internalType": "address",
              "name": "trader",
              "type": "address"
            },
            {
              "internalType": "uint256",
              "name": "marketIndex",
              "type": "uint256"
            },
            {
              "internalType": "bool",
              "name": "isLong",
              "type": "bool"
            },
            {
              "internalType": "bool",
              "name": "isLimit",
              "type": "bool"
            },
            {
              "internalType": "uint256",
              "name": "size",
              "type": "uint256"
            },
            {
              "internalType": "uint256",
              "name": "collateral",
              "type": "uint256"
            },
            {
              "internalType": "uint256",
              "name": "limitPrice",
              "type": "uint256"
            },
            {
              "internalType": "uint256",
              "name": "minPrice",
              "type": "uint256"
            },
            {
              "internalType": "uint256",
              "name": "maxPrice",
              "type": "uint256"
            },
            {
              "internalType": "uint256",
              "name": "leverage",
              "type": "uint256"
            },
            {
              "internalType": "uint256",
              "name": "takeProfit",
              "type": "uint256"
            },
            {
              "internalType": "uint256",
              "name": "stopLoss",
              "type": "uint256"
            },
            {
              "internalType": "bool",
              "name": "reduceOnly",
              "type": "bool"
            },
            {
              "internalType": "uint256",
              "name": "createdAt",
              "type": "uint256"
            },
            {
              "internalType": "uint256",
              "name": "expiry",
              "type": "uint256"
            },
            {
              "internalType": "bool",
              "name": "open",
              "type": "bool"
            }
          ],
          "internalType": "struct WikiPerp.Order",
          "name": "",
          "type": "tuple"
        }
      ],
      "stateMutability": "view",
      "type": "function"
    },
    {
      "inputs": [
        {
          "internalType": "uint256",
          "name": "id",
          "type": "uint256"
        }
      ],
      "name": "getPosition",
      "outputs": [
        {
          "components": [
            {
              "internalType": "address",
              "name": "trader",
              "type": "address"
            },
            {
              "internalType": "uint256",
              "name": "marketIndex",
              "type": "uint256"
            },
            {
              "internalType": "bool",
              "name": "isLong",
              "type": "bool"
            },
            {
              "internalType": "uint256",
              "name": "size",
              "type": "uint256"
            },
            {
              "internalType": "uint256",
              "name": "collateral",
              "type": "uint256"
            },
            {
              "internalType": "uint256",
              "name": "entryPrice",
              "type": "uint256"
            },
            {
              "internalType": "uint256",
              "name": "entryFunding",
              "type": "uint256"
            },
            {
              "internalType": "uint256",
              "name": "leverage",
              "type": "uint256"
            },
            {
              "internalType": "uint256",
              "name": "liquidationPrice",
              "type": "uint256"
            },
            {
              "internalType": "uint256",
              "name": "takeProfit",
              "type": "uint256"
            },
            {
              "internalType": "uint256",
              "name": "stopLoss",
              "type": "uint256"
            },
            {
              "internalType": "uint256",
              "name": "openedAt",
              "type": "uint256"
            },
            {
              "internalType": "bool",
              "name": "open",
              "type": "bool"
            }
          ],
          "internalType": "struct WikiPerp.Position",
          "name": "",
          "type": "tuple"
        }
      ],
      "stateMutability": "view",
      "type": "function"
    },
    {
      "inputs": [
        {
          "internalType": "address",
          "name": "t",
          "type": "address"
        }
      ],
      "name": "getTraderOrders",
      "outputs": [
        {
          "internalType": "uint256[]",
          "name": "",
          "type": "uint256[]"
        }
      ],
      "stateMutability": "view",
      "type": "function"
    },
    {
      "inputs": [
        {
          "internalType": "address",
          "name": "t",
          "type": "address"
        }
      ],
      "name": "getTraderPositions",
      "outputs": [
        {
          "internalType": "uint256[]",
          "name": "",
          "type": "uint256[]"
        }
      ],
      "stateMutability": "view",
      "type": "function"
    },
    {
      "inputs": [
        {
          "internalType": "uint256",
          "name": "posId",
          "type": "uint256"
        }
      ],
      "name": "getUnrealizedPnL",
      "outputs": [
        {
          "internalType": "int256",
          "name": "",
          "type": "int256"
        }
      ],
      "stateMutability": "view",
      "type": "function"
    },
    {
      "inputs": [],
      "name": "gmxBackstop",
      "outputs": [
        {
          "internalType": "contract IWikiGMXBackstop",
          "name": "",
          "type": "address"
        }
      ],
      "stateMutability": "view",
      "type": "function"
    },
    {
      "inputs": [],
      "name": "gmxEnabled",
      "outputs": [
        {
          "internalType": "bool",
          "name": "",
          "type": "bool"
        }
      ],
      "stateMutability": "view",
      "type": "function"
    },
    {
      "inputs": [],
      "name": "idleYieldRouter",
      "outputs": [
        {
          "internalType": "contract IIdleYieldRouter",
          "name": "",
          "type": "address"
        }
      ],
      "stateMutability": "view",
      "type": "function"
    },
    {
      "inputs": [
        {
          "internalType": "uint256",
          "name": "posId",
          "type": "uint256"
        }
      ],
      "name": "liquidate",
      "outputs": [],
      "stateMutability": "nonpayable",
      "type": "function"
    },
    {
      "inputs": [
        {
          "internalType": "uint256",
          "name": "",
          "type": "uint256"
        },
        {
          "internalType": "uint256",
          "name": "",
          "type": "uint256"
        }
      ],
      "name": "marketAsks",
      "outputs": [
        {
          "internalType": "uint256",
          "name": "",
          "type": "uint256"
        }
      ],
      "stateMutability": "view",
      "type": "function"
    },
    {
      "inputs": [
        {
          "internalType": "uint256",
          "name": "",
          "type": "uint256"
        },
        {
          "internalType": "uint256",
          "name": "",
          "type": "uint256"
        }
      ],
      "name": "marketBids",
      "outputs": [
        {
          "internalType": "uint256",
          "name": "",
          "type": "uint256"
        }
      ],
      "stateMutability": "view",
      "type": "function"
    },
    {
      "inputs": [],
      "name": "marketCount",
      "outputs": [
        {
          "internalType": "uint256",
          "name": "",
          "type": "uint256"
        }
      ],
      "stateMutability": "view",
      "type": "function"
    },
    {
      "inputs": [
        {
          "internalType": "uint256",
          "name": "",
          "type": "uint256"
        }
      ],
      "name": "markets",
      "outputs": [
        {
          "internalType": "bytes32",
          "name": "marketId",
          "type": "bytes32"
        },
        {
          "internalType": "string",
          "name": "symbol",
          "type": "string"
        },
        {
          "internalType": "uint256",
          "name": "maxLeverage",
          "type": "uint256"
        },
        {
          "internalType": "uint256",
          "name": "makerFeeBps",
          "type": "uint256"
        },
        {
          "internalType": "uint256",
          "name": "takerFeeBps",
          "type": "uint256"
        },
        {
          "internalType": "uint256",
          "name": "maintenanceMarginBps",
          "type": "uint256"
        },
        {
          "internalType": "uint256",
          "name": "maxOpenInterestLong",
          "type": "uint256"
        },
        {
          "internalType": "uint256",
          "name": "maxOpenInterestShort",
          "type": "uint256"
        },
        {
          "internalType": "uint256",
          "name": "openInterestLong",
          "type": "uint256"
        },
        {
          "internalType": "uint256",
          "name": "openInterestShort",
          "type": "uint256"
        },
        {
          "internalType": "uint256",
          "name": "maxPositionSizePerUser",
          "type": "uint256"
        },
        {
          "internalType": "int256",
          "name": "fundingRate",
          "type": "int256"
        },
        {
          "internalType": "uint256",
          "name": "lastFundingTime",
          "type": "uint256"
        },
        {
          "internalType": "uint256",
          "name": "cumulativeFundingLong",
          "type": "uint256"
        },
        {
          "internalType": "uint256",
          "name": "cumulativeFundingShort",
          "type": "uint256"
        },
        {
          "internalType": "bool",
          "name": "active",
          "type": "bool"
        },
        {
          "internalType": "uint256",
          "name": "lastOIUpdateBlock",
          "type": "uint256"
        },
        {
          "internalType": "uint256",
          "name": "oiChangesThisBlock",
          "type": "uint256"
        }
      ],
      "stateMutability": "view",
      "type": "function"
    },
    {
      "inputs": [],
      "name": "marketsLength",
      "outputs": [
        {
          "internalType": "uint256",
          "name": "",
          "type": "uint256"
        }
      ],
      "stateMutability": "view",
      "type": "function"
    },
    {
      "inputs": [],
      "name": "oracle",
      "outputs": [
        {
          "internalType": "contract WikiOracle",
          "name": "",
          "type": "address"
        }
      ],
      "stateMutability": "view",
      "type": "function"
    },
    {
      "inputs": [
        {
          "internalType": "uint256",
          "name": "",
          "type": "uint256"
        }
      ],
      "name": "orders",
      "outputs": [
        {
          "internalType": "address",
          "name": "trader",
          "type": "address"
        },
        {
          "internalType": "uint256",
          "name": "marketIndex",
          "type": "uint256"
        },
        {
          "internalType": "bool",
          "name": "isLong",
          "type": "bool"
        },
        {
          "internalType": "bool",
          "name": "isLimit",
          "type": "bool"
        },
        {
          "internalType": "uint256",
          "name": "size",
          "type": "uint256"
        },
        {
          "internalType": "uint256",
          "name": "collateral",
          "type": "uint256"
        },
        {
          "internalType": "uint256",
          "name": "limitPrice",
          "type": "uint256"
        },
        {
          "internalType": "uint256",
          "name": "minPrice",
          "type": "uint256"
        },
        {
          "internalType": "uint256",
          "name": "maxPrice",
          "type": "uint256"
        },
        {
          "internalType": "uint256",
          "name": "leverage",
          "type": "uint256"
        },
        {
          "internalType": "uint256",
          "name": "takeProfit",
          "type": "uint256"
        },
        {
          "internalType": "uint256",
          "name": "stopLoss",
          "type": "uint256"
        },
        {
          "internalType": "bool",
          "name": "reduceOnly",
          "type": "bool"
        },
        {
          "internalType": "uint256",
          "name": "createdAt",
          "type": "uint256"
        },
        {
          "internalType": "uint256",
          "name": "expiry",
          "type": "uint256"
        },
        {
          "internalType": "bool",
          "name": "open",
          "type": "bool"
        }
      ],
      "stateMutability": "view",
      "type": "function"
    },
    {
      "inputs": [],
      "name": "owner",
      "outputs": [
        {
          "internalType": "address",
          "name": "",
          "type": "address"
        }
      ],
      "stateMutability": "view",
      "type": "function"
    },
    {
      "inputs": [],
      "name": "pause",
      "outputs": [],
      "stateMutability": "nonpayable",
      "type": "function"
    },
    {
      "inputs": [
        {
          "internalType": "uint256",
          "name": "idx",
          "type": "uint256"
        }
      ],
      "name": "pauseMarket",
      "outputs": [],
      "stateMutability": "nonpayable",
      "type": "function"
    },
    {
      "inputs": [],
      "name": "paused",
      "outputs": [
        {
          "internalType": "bool",
          "name": "",
          "type": "bool"
        }
      ],
      "stateMutability": "view",
      "type": "function"
    },
    {
      "inputs": [],
      "name": "pendingOwner",
      "outputs": [
        {
          "internalType": "address",
          "name": "",
          "type": "address"
        }
      ],
      "stateMutability": "view",
      "type": "function"
    },
    {
      "inputs": [
        {
          "internalType": "uint256",
          "name": "marketIdx",
          "type": "uint256"
        },
        {
          "internalType": "bool",
          "name": "isLong",
          "type": "bool"
        },
        {
          "internalType": "uint256",
          "name": "collateral",
          "type": "uint256"
        },
        {
          "internalType": "uint256",
          "name": "leverage",
          "type": "uint256"
        },
        {
          "internalType": "uint256",
          "name": "limitPrice",
          "type": "uint256"
        },
        {
          "internalType": "uint256",
          "name": "expiry",
          "type": "uint256"
        },
        {
          "internalType": "uint256",
          "name": "takeProfit",
          "type": "uint256"
        },
        {
          "internalType": "uint256",
          "name": "stopLoss",
          "type": "uint256"
        }
      ],
      "name": "placeLimitOrder",
      "outputs": [
        {
          "internalType": "uint256",
          "name": "",
          "type": "uint256"
        }
      ],
      "stateMutability": "nonpayable",
      "type": "function"
    },
    {
      "inputs": [
        {
          "internalType": "uint256",
          "name": "marketIdx",
          "type": "uint256"
        },
        {
          "internalType": "bool",
          "name": "isLong",
          "type": "bool"
        },
        {
          "internalType": "uint256",
          "name": "collateral",
          "type": "uint256"
        },
        {
          "internalType": "uint256",
          "name": "leverage",
          "type": "uint256"
        },
        {
          "internalType": "uint256",
          "name": "minPrice",
          "type": "uint256"
        },
        {
          "internalType": "uint256",
          "name": "maxPrice",
          "type": "uint256"
        },
        {
          "internalType": "uint256",
          "name": "takeProfit",
          "type": "uint256"
        },
        {
          "internalType": "uint256",
          "name": "stopLoss",
          "type": "uint256"
        }
      ],
      "name": "placeMarketOrder",
      "outputs": [
        {
          "internalType": "uint256",
          "name": "",
          "type": "uint256"
        }
      ],
      "stateMutability": "nonpayable",
      "type": "function"
    },
    {
      "inputs": [
        {
          "internalType": "uint256",
          "name": "",
          "type": "uint256"
        }
      ],
      "name": "positions",
      "outputs": [
        {
          "internalType": "address",
          "name": "trader",
          "type": "address"
        },
        {
          "internalType": "uint256",
          "name": "marketIndex",
          "type": "uint256"
        },
        {
          "internalType": "bool",
          "name": "isLong",
          "type": "bool"
        },
        {
          "internalType": "uint256",
          "name": "size",
          "type": "uint256"
        },
        {
          "internalType": "uint256",
          "name": "collateral",
          "type": "uint256"
        },
        {
          "internalType": "uint256",
          "name": "entryPrice",
          "type": "uint256"
        },
        {
          "internalType": "uint256",
          "name": "entryFunding",
          "type": "uint256"
        },
        {
          "internalType": "uint256",
          "name": "leverage",
          "type": "uint256"
        },
        {
          "internalType": "uint256",
          "name": "liquidationPrice",
          "type": "uint256"
        },
        {
          "internalType": "uint256",
          "name": "takeProfit",
          "type": "uint256"
        },
        {
          "internalType": "uint256",
          "name": "stopLoss",
          "type": "uint256"
        },
        {
          "internalType": "uint256",
          "name": "openedAt",
          "type": "uint256"
        },
        {
          "internalType": "bool",
          "name": "open",
          "type": "bool"
        }
      ],
      "stateMutability": "view",
      "type": "function"
    },
    {
      "inputs": [
        {
          "internalType": "uint256",
          "name": "amount",
          "type": "uint256"
        },
        {
          "internalType": "string",
          "name": "reason",
          "type": "string"
        }
      ],
      "name": "recallIdle",
      "outputs": [],
      "stateMutability": "nonpayable",
      "type": "function"
    },
    {
      "inputs": [],
      "name": "renounceOwnership",
      "outputs": [],
      "stateMutability": "nonpayable",
      "type": "function"
    },
    {
      "inputs": [
        {
          "internalType": "address",
          "name": "_dynLev",
          "type": "address"
        }
      ],
      "name": "setDynLev",
      "outputs": [],
      "stateMutability": "nonpayable",
      "type": "function"
    },
    {
      "inputs": [
        {
          "internalType": "address",
          "name": "b",
          "type": "address"
        },
        {
          "internalType": "bool",
          "name": "enabled",
          "type": "bool"
        }
      ],
      "name": "setGMXBackstop",
      "outputs": [],
      "stateMutability": "nonpayable",
      "type": "function"
    },
    {
      "inputs": [
        {
          "internalType": "address",
          "name": "router",
          "type": "address"
        }
      ],
      "name": "setIdleYieldRouter",
      "outputs": [],
      "stateMutability": "nonpayable",
      "type": "function"
    },
    {
      "inputs": [
        {
          "internalType": "uint256",
          "name": "idx",
          "type": "uint256"
        },
        {
          "internalType": "uint256",
          "name": "makerFee",
          "type": "uint256"
        },
        {
          "internalType": "uint256",
          "name": "takerFee",
          "type": "uint256"
        }
      ],
      "name": "setMarketFees",
      "outputs": [],
      "stateMutability": "nonpayable",
      "type": "function"
    },
    {
      "inputs": [
        {
          "internalType": "uint256",
          "name": "marketIdx",
          "type": "uint256"
        }
      ],
      "name": "settleFunding",
      "outputs": [],
      "stateMutability": "nonpayable",
      "type": "function"
    },
    {
      "inputs": [
        {
          "internalType": "address",
          "name": "",
          "type": "address"
        },
        {
          "internalType": "uint256",
          "name": "",
          "type": "uint256"
        }
      ],
      "name": "traderOI",
      "outputs": [
        {
          "internalType": "uint256",
          "name": "",
          "type": "uint256"
        }
      ],
      "stateMutability": "view",
      "type": "function"
    },
    {
      "inputs": [
        {
          "internalType": "address",
          "name": "",
          "type": "address"
        },
        {
          "internalType": "uint256",
          "name": "",
          "type": "uint256"
        }
      ],
      "name": "traderOrders",
      "outputs": [
        {
          "internalType": "uint256",
          "name": "",
          "type": "uint256"
        }
      ],
      "stateMutability": "view",
      "type": "function"
    },
    {
      "inputs": [
        {
          "internalType": "address",
          "name": "",
          "type": "address"
        },
        {
          "internalType": "uint256",
          "name": "",
          "type": "uint256"
        }
      ],
      "name": "traderPositions",
      "outputs": [
        {
          "internalType": "uint256",
          "name": "",
          "type": "uint256"
        }
      ],
      "stateMutability": "view",
      "type": "function"
    },
    {
      "inputs": [
        {
          "internalType": "address",
          "name": "newOwner",
          "type": "address"
        }
      ],
      "name": "transferOwnership",
      "outputs": [],
      "stateMutability": "nonpayable",
      "type": "function"
    },
    {
      "inputs": [],
      "name": "unpause",
      "outputs": [],
      "stateMutability": "nonpayable",
      "type": "function"
    },
    {
      "inputs": [
        {
          "internalType": "uint256",
          "name": "idx",
          "type": "uint256"
        }
      ],
      "name": "unpauseMarket",
      "outputs": [],
      "stateMutability": "nonpayable",
      "type": "function"
    },
    {
      "inputs": [
        {
          "internalType": "uint256",
          "name": "idx",
          "type": "uint256"
        },
        {
          "internalType": "uint256",
          "name": "maxLev",
          "type": "uint256"
        },
        {
          "internalType": "uint256",
          "name": "maxPos",
          "type": "uint256"
        },
        {
          "internalType": "uint256",
          "name": "maxOIL",
          "type": "uint256"
        },
        {
          "internalType": "uint256",
          "name": "maxOIS",
          "type": "uint256"
        }
      ],
      "name": "updateMarketCaps",
      "outputs": [],
      "stateMutability": "nonpayable",
      "type": "function"
    },
    {
      "inputs": [],
      "name": "vault",
      "outputs": [
        {
          "internalType": "contract WikiVault",
          "name": "",
          "type": "address"
        }
      ],
      "stateMutability": "view",
      "type": "function"
    },
    {
      "stateMutability": "payable",
      "type": "receive"
    }
  ],
  "bytecode": "0x60c03461021357601f614b4638819003918201601f19168301916001600160401b0383118484101761021757808492606094604052833981010312610213576100478161022b565b906100546020820161022b565b906001600160a01b039061006a9060400161022b565b1691821561020057600180546001600160a01b03199081169091555f80549182168517815560405194916001600160a01b0316907f8be0079c531659141344cd1fd0a4f28419497f9722a3daafe3b4186f6b6457e09080a360017f9b779b17422d0df92223018b32b4d1fa46e071723d6817e2486d003becc55f00556001600160a01b03169182156101ca57506001600160a01b03169081156101905760805260a0526040516149069081610240823960805181818161036b015281816107fc01528181610944015281816115440152818161257b0152818161295b01528181613ae9015261401a015260a05181818161142801528181611ab501528181611c780152818161206c0152818161221b015281816127f10152818161373801526143f40152f35b60405162461bcd60e51b815260206004820152601260248201527157696b693a207a65726f205f6f7261636c6560701b6044820152606490fd5b62461bcd60e51b815260206004820152601160248201527015da5ada4e881e995c9bc817dd985d5b1d607a1b6044820152606490fd5b631e4fbdf760e01b5f525f60045260245ffd5b5f80fd5b634e487b7160e01b5f52604160045260245ffd5b51906001600160a01b03821682036102135756fe610120604052600436101561001b575b3615610019575f80fd5b005b5f803560e01c8063053ef25b146133735780630dea803f146133585780630e8aab8314612f225780630f25901314612efc578063162bdafc14612ecd578063249d39e914612eb157806328bb52c314612dcc5780633596188d14612d305780633f4ba83a14612cc2578063415f12401461277a578063418bfd4614612751578063476d1de114612734578063514fcac7146124f7578063518e8dfc146124da57806355efb287146124bd5780635c975abb146124975780635ca6ac84146124575780635fbbb2ff146123e55780636a613246146121c5578063715018a61461216057806379ba5097146120db5780637be613ca1461209b5780637dc0d1d0146120565780637e3fef021461202d5780637f30c7a914611fea5780638058bfa814611fa25780638456cb5914611f3f5780638778484414611f0857806389d8ab4f14611eb15780638da5cb5b14611e8a57806397a1bde714611df957806399fbab8814611d2c578063a126d60114611bfa578063a540254414610ca7578063a6f3b7cc14611a50578063a85c38ef14611954578063a98fcc8714611936578063b1283e77146117d9578063b58e431614611718578063ce3ca00b14611696578063ce8f72351461139a578063d09ef24114611197578063e30c39781461116e578063e6bc01a21461108f578063eb02c30114610efc578063eb44fdd314610cac578063ec97908214610ca7578063ef365b4a14610c7e578063f264ed2814610c58578063f2fde38b14610beb578063f7e5954e1461082b578063fbfa77cf146107e6578063fc12524c146107b25763fe2cc15e14610278575061000f565b346107af5761028636613644565b91949296959361029461399c565b61029c613d80565b6102a5876134b3565b509560ff600f8801541615610772576003546001600160a01b03168015610767576024602060028a0154926040519283809263c82f4ce960e01b82523360048301525afa90811561075c578c91610726575b508082101561071f57505b60018310159081610714575b50156106c4578415610687576103248286613820565b96338b52600b60205260408b20898c526020526103458860408d2054613847565b610352600a830154614328565b106106425761271061036960048d9301548a613820565b7f00000000000000000000000000000000000000000000000000000000000000006001600160a01b03169161039f910488613847565b90803b1561063e5760405163a5bce37960e01b8152336004820152602481019290925282908290604490829084905af180156106335761061a575b505060065498604051956103ed87613524565b33875289602088015287151560408801528b606088015288608088015260a08701528a60c087015260e086015261010085015261012084015261014083015261016082015285610180820152426101a0820152856101c082015260016101e0820152600160401b851015610606576001850160065561046b85613497565b9190916105f257604060209761058b61059894600e6101e08b9660018060a01b0360018060a01b03825116166001600160601b0360a01b8554161784558d8101516001850155600284016104d0888301511515829060ff801983541691151516179055565b6060820151151561ff0082549160081b169061ff0019161790556080810151600385015560a0810151600485015560c0810151600585015560e08101516006850155610100810151600785015561012081015160088501556101408101516009850155610160810151600a85015561055e6101808201511515600b86019060ff801983541691151516179055565b6101a0810151600c8501556101c0810151600d8501550151151591019060ff801983541691151516179055565b3381526008895220613d9e565b6040519283521515848301526040820152817f64c70539bf3ad0f5861d7cf62e01467aa1ff8ebf166149075ec593f067be03d960603393a36105d9816143b4565b60015f805160206148b183398151915255604051908152f35b634e487b7160e01b87526004879052602487fd5b634e487b7160e01b86526041600452602486fd5b816106249161355e565b61062f57895f6103da565b8980fd5b6040513d84823e3d90fd5b8280fd5b60405162461bcd60e51b815260206004820152601a60248201527f506572703a2075736572204f49206361702065786365656465640000000000006044820152606490fd5b60405162461bcd60e51b815260206004820152601560248201527414195c9c0e881e995c9bc818dbdb1b185d195c985b605a1b6044820152606490fd5b60405162461bcd60e51b815260206004820152602260248201527f506572703a206c6576657261676520657863656564732063757272656e742063604482015261061760f41b6064820152608490fd5b90508211155f61030e565b9050610302565b90506020813d602011610754575b816107416020938361355e565b8101031261075057515f6102f7565b5f80fd5b3d9150610734565b6040513d8e823e3d90fd5b506002870154610302565b60405162461bcd60e51b8152602060048201526015602482015274506572703a206d61726b657420696e61637469766560581b6044820152606490fd5b80fd5b50346107af5760203660031901126107af576107cc613926565b600f6107d96004356134b3565b5001805460ff1916905580f35b50346107af57806003193601126107af576040517f00000000000000000000000000000000000000000000000000000000000000006001600160a01b03168152602090f35b50346107af5761083a36613644565b9091610849979695939761399c565b610851613d80565b8015808015610be2575b15610ba55715610b9f5750620151804201804211610b8b57915b61087e876134b3565b509460ff600f8701541615610772576003546001600160a01b03168015610b8057602460206002890154926040519283809263c82f4ce960e01b82523360048301525afa90811561075c578c91610b4e575b5080821015610b4757505b60018210159081610b3c575b50156106c4578415610687576108fd8186613820565b95338b52600b60205260408b20898c5260205261091e8760408d2054613847565b61092b600a830154614328565b106106425761271061094260048d93015489613820565b7f00000000000000000000000000000000000000000000000000000000000000006001600160a01b031691610978910488613847565b90803b1561063e5760405163a5bce37960e01b8152336004820152602481019290925282908290604490829084905af1801561063357610b27575b505060065498604051956109c687613524565b33875289602088015288151560408801526001606088015287608088015260a087015260c08601528960e08601528961010086015261012085015261014084015261016083015286610180830152426101a08301526101c082015260016101e0820152600160401b8510156106065760018501600655610a4585613497565b9190916105f25791610aa9869492600e6101e060209a989660018060a01b0360018060a01b03825116166001600160601b0360a01b8554161784558b8101516001850155600284016104d060408301511515829060ff801983541691151516179055565b33855260088752610abd8460408720613d9e565b60405190838252821515888301526040820152837f64c70539bf3ad0f5861d7cf62e01467aa1ff8ebf166149075ec593f067be03d960603393a315610b0f57826040916105d994526009865220613d9e565b82604091610b229452600a865220613d9e565b6105d9565b81610b319161355e565b61062f57895f6109b3565b90508111155f6108e7565b90506108db565b90506020813d602011610b78575b81610b696020938361355e565b8101031261075057515f6108d0565b3d9150610b5c565b5060028601546108db565b634e487b7160e01b89526011600452602489fd5b91610875565b60405162461bcd60e51b815260206004820152601560248201527414195c9c0e88185b1c9958591e48195e1c1a5c9959605a1b6044820152606490fd5b5042821161085b565b50346107af5760203660031901126107af57610c0561340f565b610c0d613926565b600180546001600160a01b0319166001600160a01b0392831690811790915582549091167f38d16b8cac22d99fc7c124b9cd0de2d3fa1faef420bfe791d8c362d765e227008380a380f35b50346107af57806003193601126107af57602060ff60025460a01c166040519015158152f35b50346107af57806003193601126107af576003546040516001600160a01b039091168152602090f35b61347a565b50346107af5760203660031901126107af57610220604051610ccd81613507565b828152606060208201528260408201528260608201528260808201528260a08201528260c08201528260e08201528261010082015282610120820152826101408201528261016082015282610180820152826101a0820152826101c0820152826101e0820152826102008201520152610d476004356134b3565b50601160405191610d5783613507565b80548352610d6760018201613580565b6020840152600281015460408401526003810154606084015260048101546080840152600581015460a0840152600681015460c0840152600781015460e084015260088101546101008401526009810154610120840152600a810154610140840152600b810154610160840152600c810154610180840152600d8101546101a0840152600e8101546101c084015260ff600f8201541615156101e08401526010810154610200840152015461022082015260405180916020825280516020830152610220610e4660208301516102406040860152610260850190613620565b916040810151606085015260608101516080850152608081015160a085015260a081015160c085015260c081015160e085015260e08101516101008501526101008101516101208501526101208101516101408501526101408101516101608501526101608101516101808501526101808101516101a08501526101a08101516101c08501526101c08101516101e08501526101e081015115156102008501526102008101518285015201516102408301520390f35b50346107af5760203660031901126107af57610180604051610f1d81613541565b8281528260208201528260408201528260608201528260808201528260a08201528260c08201528260e08201528261010082015282610120820152826101408201528261016082015201526101a0610f7660043561345e565b50604051610f8381613541565b80808060018060a01b038554169485825260018101546020830190815260ff60028301541660408401901515815260038301546060850190815260048401546080860190815260058501549160a0870192835260068601549360c0880194855260078701549560e0890196875261018060ff600c60088b01549a6101008d019b8c5261012060098201549d019c8d52610140600a8201549e019d8e52610160600b8201549f019e8f520154169c019b15158c526040519c8d525160208d015251151560408c01525160608b01525160808a01525160a08901525160c08801525160e087015251610100860152516101208501525161014084015251610160830152511515610180820152f35b50346107af5760403660031901126107af578060243567ffffffffffffffff811161116b576110c29036906004016133e1565b82546001600160a01b031633148015611157575b6110df906138d9565b600c546001600160a01b031691826110f657505050f35b823b1561115257611130928492836040518096819582946338d44ad560e01b845260043560048501526040602485015260448401916136bd565b03925af18015610633576111415750f35b8161114b9161355e565b6107af5780f35b505050fd5b50600c546001600160a01b031633146110d6565b50fd5b50346107af57806003193601126107af576001546040516001600160a01b039091168152602090f35b50346107af5760203660031901126107af576101e06040516111b881613524565b8281528260208201528260408201528260608201528260808201528260a08201528260c08201528260e08201528261010082015282610120820152826101408201528261016082015282610180820152826101a0820152826101c08201520152610200611226600435613497565b506101e060405161123681613524565b60018060a01b03835416928382526001810154602083019081526002820154604084019060ff81161515825260ff606086019160081c16151581526003840154916080860192835260048501549360a0870194855260ff600e60058801549760c08a01988952600681015460e08b015260078101546101008b015260088101546101208b015260098101546101408b0152600a8101546101608b015282600b8201541615156101808b0152600c8101546101a08b0152600d8101546101c08b0152015416151588880152604051988952516020890152511515604088015251151560608701525160808601525160a08501525160c084015260e081015160e084015261010081015161010084015261012081015161012084015261014081015161014084015261016081015161016084015261018081015115156101808401526101a08101516101a08401526101c08101516101c0840152015115156101e0820152f35b50346107af5760403660031901126107af5760043560243567ffffffffffffffff811161063e573660238201121561063e5780600401359167ffffffffffffffff8311611634576024820191602436918560051b010111611634576113fd61399c565b611406816134b3565b508054604080516331d98b3f60e01b81526004810192909252919391816024817f00000000000000000000000000000000000000000000000000000000000000006001600160a01b03165afa90811561168b57869161165b575b50855b85811061147f578660015f805160206148b18339815191525580f35b61149361148d828886613916565b35613497565b5090600e8201805460ff811615801561164d575b61164257600d8401548015159081611638575b506115165750508160ff60026001940154165f146115095760058101548411155b6114e8575b505b01611463565b6115039060056114f9848b89613916565b3591015490613dd2565b5f6114e0565b60058101548410156114db565b60ff1916905587612710611533600385015460048a015490613820565b845460048601546001600160a01b037f000000000000000000000000000000000000000000000000000000000000000081169492169261157592900490613847565b823b1561163457604051639101e5b360e01b81526001600160a01b0392909216600483015260248201529082908290604490829084905af180156106335761161b575b50506001916115c8828987613916565b3590838060a01b03905416907ff2820c9274d611a15d979823ac23bb965c1972a808eebd952297d9bd3a60f4b86060604051602081526007602082015266195e1c1a5c995960ca1b6040820152a36114e2565b816116259161355e565b61163057875f6115b8565b8780fd5b8380fd5b905042115f6114ba565b5050600191506114e2565b5086600185015414156114a7565b61167d915060403d604011611684575b611675818361355e565b8101906136dd565b505f611460565b503d61166b565b6040513d88823e3d90fd5b50346107af5760203660031901126107af576001600160a01b036116b861340f565b168152600860205260408120604051918260208354918281520192825260208220915b818110611702576116fe856116f28187038261355e565b60405191829182613425565b0390f35b82548452602090930192600192830192016116db565b50346107af5760203660031901126107af5780546001600160a01b0316331480156117c5575b611747906138d9565b600c546001600160a01b0316801561178f578082913b1561116b57818091602460405180948193630f6baa0f60e21b835260043560048401525af18015610633576111415750f35b60405162461bcd60e51b815260206004820152600e60248201526d149bdd5d195c881b9bdd081cd95d60921b6044820152606490fd5b50600c546001600160a01b0316331461173e565b50346107af5760203660031901126107af5760043560045481101561193257611801906134b3565b5080549061181160018201613580565b60e052600281015460a05260038101546101005260048101549160058201546006830154600784015460088501546009860154600a87015490600b88015492600c89015494600d8a015496600e8b015498600f8c015460ff169a60108d01549c6011015460805260405160c05260c0515260c051602001610240905260c0516102400160e051906118a191613620565b9c60a05160c051604001526101005160c0516060015260c0516080015260c05160a0015260c05160c0015260c05160e0015260c051610100015260c051610120015260c051610140015260c051610160015260c051610180015260c0516101a0015260c0516101c00152151560c0516101e0015260c051610200015260805160c051610220015260c051900360c051f35b5080fd5b50346107af57806003193601126107af576020604051620151808152f35b50346107af5760203660031901126107af576004356006548110156119325761197c90613497565b50600160a01b6001900381541660018201549160028101549160038201546004830154600584015460068501546007860154600887015491600988015493600a89015495600b8a015460ff1697600c8b015499600d8c01549b600e015460ff169c6040519e8f928352602083015260ff81161515604083015260081c60ff161515906060015260808d015260a08c015260c08b015260e08a015261010089015261012088015261014087015261016086015215156101808501526101a08401526101c083015215156101e082015261020090f35b50346107af5760203660031901126107af57600435611a6d61399c565b611a768161345e565b50611a8760ff600c830154166137e3565b611a9460018201546134b3565b5054604080516331d98b3f60e01b81526004810192909252909190826024817f00000000000000000000000000000000000000000000000000000000000000006001600160a01b03165afa918215611bef578492611bcd575b506009810154908115159182611ba9575b50600a8101548015159182611b87575b50508115611b7f575b5015611b3a57611b26916139d4565b60015f805160206148b18339815191525580f35b60405162461bcd60e51b815260206004820152601960248201527f506572703a2054502f534c206e6f7420747269676765726564000000000000006044820152606490fd5b90505f611b17565b6002015490915060ff1615611ba1578211155b5f80611b0e565b821015611b9a565b90915060ff6002830154165f14611bc5578210155b905f611afe565b821115611bbe565b611be791925060403d60401161168457611675818361355e565b50905f611aed565b6040513d86823e3d90fd5b50346107af5760203660031901126107af57600435611c1761399c565b611c1f613d80565b611c288161345e565b5080546001600160a01b03163303611ce757600181611c5060ff600c611c57950154166137e3565b01546134b3565b5054604080516331d98b3f60e01b81526004810192909252909190826024817f00000000000000000000000000000000000000000000000000000000000000006001600160a01b03165afa908115611cdc57611b26928492611cba575b506139d4565b611cd491925060403d60401161168457611675818361355e565b50905f611cb4565b6040513d85823e3d90fd5b60405162461bcd60e51b815260206004820152601760248201527f506572703a206e6f7420796f757220706f736974696f6e0000000000000000006044820152606490fd5b50346107af5760203660031901126107af57600435906005548210156107af576101a0611d588361345e565b5060018060a01b038154169060018101549060ff6002820154166003820154600483015460058401546006850154600786015491600887015493600988015495600a8901549760ff600c600b8c01549b0154169a6040519c8d5260208d0152151560408c015260608b015260808a015260a089015260c088015260e08701526101008601526101208501526101408401526101608301521515610180820152f35b50346107af5760403660031901126107af57611e1361340f565b6024359081151580920361063e577f14322e55ae7289adb87bd368b7154ae08e0a7c71a9ce11f8451b9ed9c5bb5d0391604091611e4e613926565b600280546001600160a81b0319166001600160a01b039290921691821760a084901b60ff60a01b1617905582519081526020810191909152a180f35b50346107af57806003193601126107af57546040516001600160a01b039091168152602090f35b50346107af5760403660031901126107af57611ecb61340f565b6001600160a01b03168152600760205260408120805460243592908310156107af576020611ef984846133b8565b90549060031b1c604051908152f35b50346107af5760203660031901126107af57611f22613926565b600f611f2f6004356134b3565b5001805460ff1916600117905580f35b50346107af57806003193601126107af57611f58613926565b611f60613d80565b6001805460ff60a01b1916600160a01b1790556040513381527f62e78cea01bee320cd4e420270b5ea74000d11b0c9f74754ebdbfc544b05a25890602090a180f35b50346107af5760403660031901126107af57611fbc61340f565b6001600160a01b03168152600860205260408120805460243592908310156107af576020611ef984846133b8565b50346107af5760403660031901126107af576020906040906001600160a01b0361201261340f565b168152600b8352818120602435825283522054604051908152f35b50346107af57806003193601126107af57600c546040516001600160a01b039091168152602090f35b50346107af57806003193601126107af576040517f00000000000000000000000000000000000000000000000000000000000000006001600160a01b03168152602090f35b50346107af5760203660031901126107af576120b561340f565b6120bd613926565b60018060a01b03166001600160601b0360a01b600c541617600c5580f35b50346107af57806003193601126107af57600154336001600160a01b039091160361214d57600180546001600160a01b0319908116909155815433918116821783556001600160a01b03167f8be0079c531659141344cd1fd0a4f28419497f9722a3daafe3b4186f6b6457e08380a380f35b63118cdaa760e01b815233600452602490fd5b50346107af57806003193601126107af57612179613926565b600180546001600160a01b03199081169091558154908116825581906001600160a01b03167f8be0079c531659141344cd1fd0a4f28419497f9722a3daafe3b4186f6b6457e08280a380f35b50346107af5760203660031901126107af576004356121e3816134b3565b50600c810190815461708081018091116123d157421061239a578054604080516331d98b3f60e01b81526004810192909252816024817f00000000000000000000000000000000000000000000000000000000000000006001600160a01b03165afa801561238f57612371575b50600881015461226e60098301546122688184613861565b92613847565b9081156123435760648102908082056064149015171561232f57916122b77fbaa2407f72df09d47ca97fc6a9dd52660a0c1a6a6717c1c4b92ef21e77cfdc1e949260409461389b565b915b60648313612326575b606319831261231c575b600b82018390554290558582126122fd57600d016122eb828254613847565b90555b8151908152426020820152a280f35b612315600e61230b846138c9565b9201918254613847565b90556122ee565b60631992506122cc565b606492506122c2565b634e487b7160e01b86526011600452602486fd5b50507fbaa2407f72df09d47ca97fc6a9dd52660a0c1a6a6717c1c4b92ef21e77cfdc1e9160409185916122b9565b6123899060403d60401161168457611675818361355e565b50612250565b6040513d87823e3d90fd5b60405162461bcd60e51b815260206004820152600f60248201526e506572703a20746f6f206561726c7960881b6044820152606490fd5b634e487b7160e01b85526011600452602485fd5b50346107af5760203660031901126107af576001600160a01b0361240761340f565b168152600760205260408120604051918260208354918281520192825260208220915b818110612441576116fe856116f28187038261355e565b825484526020909301926001928301920161242a565b50346107af5760203660031901126107af5761247161340f565b612479613926565b60018060a01b03166001600160601b0360a01b600354161760035580f35b50346107af57806003193601126107af57602060ff60015460a01c166040519015158152f35b50346107af57806003193601126107af5760206040516170808152f35b50346107af57806003193601126107af5760206040516101f48152f35b50346107af5760203660031901126107af5760043561251461399c565b61251d81613497565b5080546001600160a01b031633036126f857600e8101805460ff8116156126bc5760ff1916905560038101838154926125a361271061256f6001840196600461256689546134b3565b50015490613820565b04600460018060a01b037f000000000000000000000000000000000000000000000000000000000000000016930154613847565b90803b1561063e57604051639101e5b360e01b8152336004820152602481019290925282908290604490829084905af18015610633576126a7575b5050338452600b6020526040842091549182855260205260408420549054809110155f1461269f5761262690338552600b602052604085208386526020526040852054613854565b905b338452600b6020526040842090845260205260408320556040519060208252600e60208301526d1d5cd95c8818d85b98d95b1b195960921b60408301527ff2820c9274d611a15d979823ac23bb965c1972a808eebd952297d9bd3a60f4b860603393a360015f805160206148b18339815191525580f35b508290612628565b816126b19161355e565b61163457835f6125de565b60405162461bcd60e51b815260206004820152601460248201527314195c9c0e88185b1c9958591e4818db1bdcd95960621b6044820152606490fd5b60405162461bcd60e51b81526020600482015260146024820152732832b9381d103737ba103cb7bab91037b93232b960611b6044820152606490fd5b50346107af57806003193601126107af5760206040516103e88152f35b50346107af57806003193601126107af576002546040516001600160a01b039091168152602090f35b50346107505760203660031901126107505760043561279761399c565b6127a08161345e565b50906127b260ff600c840154166137e3565b81546001600160a01b03163314612c7e576127d060018301546134b3565b5054604080516331d98b3f60e01b81526004810192909252909290836024817f00000000000000000000000000000000000000000000000000000000000000006001600160a01b03165afa928315612b96575f93612c59575b508060ff60026008930154165f14612c4f5701548211155b15612c115761284f8161345e565b50600181015461285e816134b3565b50600c8301805460ff1916905582546001600160a01b03165f818152600b602090815260408083208684529091529020546003850180549094918111612c09576128be90835f52600b60205260405f20835f5260205260405f2054613854565b915b5f52600b60205260405f20905f5260205260405f205561294f6002840160ff8154165f14612be0576008830180548554808210612bd75761290091613854565b905b555b60ff612910888761394c565b91541615612bcd57600d8301545b600686015490808211612ba157612940662386f26fc100009261294892613854565b865490613820565b0490613861565b83546001600160a01b037f000000000000000000000000000000000000000000000000000000000000000081169492911690843b1561075057604051916362990d2f60e01b8352600483015260248201525f8160448183885af18015612b9657612b81575b50835460048501805490938993929091906001600160a01b0316863b15612b7d57604051639101e5b360e01b81526001600160a01b0391909116600482015260248101919091528381604481838a5af1908115611bef578491612b68575b5050612a3261271091600460018060a01b03895416945491015490613820565b0490843b1561063e57604051630bb03fdb60e21b81526001600160a01b039190911660048201526024810191909152818160448183885af1801561063357612b4f575b505033612ad3575b5050546040805133815260208101949094526001600160a01b03909116927f9f843df2e2b0c791e0c3993c883e11d06a6fcc960fb3a2765a6f4ab8a1bd07ca9190a360015f805160206148b18339815191525580f35b546101f48102908082046101f4149015171561232f5782548692916001600160a01b0390911690823b1561163457606484928361271095604051968795869463167310cf60e01b865260048601523360248601520460448401525af180156106335715612a7d5781612b449161355e565b61163457835f612a7d565b81612b599161355e565b612b6457855f612a75565b8580fd5b81612b729161355e565b61063e57825f612a12565b8480fd5b612b8e9197505f9061355e565b5f955f6129b4565b6040513d5f823e3d90fd5b612bc1612bb9662386f26fc1000092612bc794613854565b875490613820565b046138c9565b90613861565b600e83015461291e565b50505f90612902565b6009830180548554808210612c0057612bf891613854565b905b55612904565b50505f90612bfa565b505f916128c0565b60405162461bcd60e51b8152602060048201526016602482015275506572703a206e6f74206c6971756964617461626c6560501b6044820152606490fd5b0154821015612841565b6008919350612c769060403d60401161168457611675818361355e565b509290612829565b606460405162461bcd60e51b815260206004820152602060248201527f506572703a2073656c662d6c69717569646174696f6e20666f7262696464656e6044820152fd5b34610750575f36600319011261075057612cda613926565b60015460ff8160a01c1615612d215760ff60a01b19166001556040513381527f5db9ee0a495bf2e6ff9c91a7834c1ba4fdd244a5e8aa4e537bd38aeae4b073aa90602090a1005b638dfc202b60e01b5f5260045ffd5b34610750576060366003190112610750576004357f556079cdcafac41390a4af41101fa806590aefd70725513ad900a1df6ef488796040602435604435612d75613926565b612d8260045486106137a4565b603282111580612dc1575b612d969061367c565b816003612da2876134b3565b500155806004612db1876134b3565b50015582519182526020820152a2005b506064811115612d8d565b346107505760a036600319011261075057600435602435604435606435906084359360018060a01b035f541633148015612e9d575b15612e6157612e1c90612e1760045482106137a4565b6134b3565b509280612e56575b5080612e4b575b5080612e40575b5081612e3a57005b60070155005b600682015582612e32565b600a83015583612e2b565b600284015584612e24565b60405162461bcd60e51b815260206004820152601460248201527314195c9c0e881b9bdd08185d5d1a1bdc9a5e995960621b6044820152606490fd5b506003546001600160a01b03163314612e01565b34610750575f3660031901126107505760206040516127108152f35b3461075057612edb366133a2565b905f52600960205260405f20805482101561075057602091611ef9916133b8565b34610750576020366003190112610750576020612f1a6004356136f3565b604051908152f35b34610750576101203660031901126107505760243567ffffffffffffffff811161075057612f549036906004016133e1565b60643560843591612f63613926565b60328211158061334d575b612f779061367c565b600160443510158061333f575b156132fa576004549260405192612f9a84613507565b600435845267ffffffffffffffff83116132d357604051612fc5601f8501601f19166020018261355e565b838152368488011161075057838760208301375f60208583010152602085015260443560408501526060840152608083015260a43560a083015260c43560c083015260e43560e08301525f6101008301525f610120830152610104356101408301525f610160830152426101808301525f6101a08301525f6101c083015260016101e08301525f6102008301525f610220830152600160401b8310156132d35760018301600455613075836134b3565b6132e75782518155602083015180519067ffffffffffffffff82116132d3576130a160018401546134cf565b601f811161328f575b5091859391602097938890601f83116001146131f7579682601193610220937f2d1e9ad45dbe8e898e0374deebf2a661b2ae7c1855d2a29507d584c35d287c75999a5f926131ec575b50508160011b915f199060031b1c19161760018501555b60408101516002850155606081015160038501556080810151600485015560a0810151600585015560c0810151600685015560e0810151600785015561010081015160088501556101208101516009850155610140810151600a850155610160810151600b850155610180810151600c8501556101a0810151600d8501556101c0810151600e8501556131b36101e08201511515600f86019060ff801983541691151516179055565b610200810151601085015501519101556131da6040519283926040845260408401916136bd565b604435878301520390a2604051908152f35b015190508c806130f3565b60018498939298015f52875f20905f5b601f1984168110613275575082601194927f2d1e9ad45dbe8e898e0374deebf2a661b2ae7c1855d2a29507d584c35d287c75999a60019361022096601f1981161061325d575b505050811b01600185015561310a565b01515f1960f88460031b161c191690558c808061324d565b818a01518355988b01988a98506001909201918b01613207565b600184015f5260205f20601f840160051c8101602085106132cc575b601f830160051c820181106132c15750506130aa565b5f81556001016132ab565b50806132ab565b634e487b7160e01b5f52604160045260245ffd5b634e487b7160e01b5f525f60045260245ffd5b60405162461bcd60e51b815260206004820152601b60248201527f506572703a206d6178206c6576657261676520697320323030307800000000006044820152606490fd5b506107d06044351115612f84565b506064831115612f6e565b34610750575f36600319011261075057602060405160648152f35b3461075057613381366133a2565b905f52600a60205260405f20805482101561075057602091611ef9916133b8565b6040906003190112610750576004359060243590565b80548210156133cd575f5260205f2001905f90565b634e487b7160e01b5f52603260045260245ffd5b9181601f840112156107505782359167ffffffffffffffff8311610750576020838186019501011161075057565b600435906001600160a01b038216820361075057565b60206040818301928281528451809452019201905f5b8181106134485750505090565b825184526020938401939092019160010161343b565b6005548110156133cd5760055f52600d60205f20910201905f90565b34610750575f366003190112610750576020600454604051908152f35b6006548110156133cd5760065f52600f60205f20910201905f90565b6004548110156133cd5760045f52601260205f20910201905f90565b90600182811c921680156134fd575b60208310146134e957565b634e487b7160e01b5f52602260045260245ffd5b91607f16916134de565b610240810190811067ffffffffffffffff8211176132d357604052565b610200810190811067ffffffffffffffff8211176132d357604052565b6101a0810190811067ffffffffffffffff8211176132d357604052565b90601f8019910116810190811067ffffffffffffffff8211176132d357604052565b9060405191825f825492613593846134cf565b80845293600181169081156135fe57506001146135ba575b506135b89250038361355e565b565b90505f9291925260205f20905f915b8183106135e25750509060206135b8928201015f6135ab565b60209193508060019154838589010152019101909184926135c9565b9050602092506135b894915060ff191682840152151560051b8201015f6135ab565b805180835260209291819084018484015e5f828201840152601f01601f1916010190565b61010090600319011261075057600435906024358015158103610750579060443590606435906084359060a4359060c4359060e43590565b1561368357565b60405162461bcd60e51b81526020600482015260126024820152710a0cae4e07440cccaca40e8dede40d0d2ced60731b6044820152606490fd5b908060209392818452848401375f828201840152601f01601f1916010190565b9190826040910312610750576020825192015190565b6136fc9061345e565b5060ff600c820154161561379f5761371760018201546134b3565b5054604080516331d98b3f60e01b81526004810192909252909190826024817f00000000000000000000000000000000000000000000000000000000000000006001600160a01b03165afa908115612b965761377a925f9261377d575b5061394c565b90565b61379791925060403d60401161168457611675818361355e565b50905f613774565b505f90565b156137ab57565b60405162461bcd60e51b815260206004820152601060248201526f14195c9c0e88189859081b585c9ad95d60821b6044820152606490fd5b156137ea57565b60405162461bcd60e51b815260206004820152600e60248201526d2832b9381d103737ba1037b832b760911b6044820152606490fd5b8181029291811591840414171561383357565b634e487b7160e01b5f52601160045260245ffd5b9190820180921161383357565b9190820391821161383357565b81810392915f13801582851316918412161761383357565b81810292915f8212600160ff1b82141661383357818405149015171561383357565b81156138b557600160ff1b81145f19831416613833570590565b634e487b7160e01b5f52601260045260245ffd5b600160ff1b8114613833575f0390565b156138e057565b60405162461bcd60e51b815260206004820152600e60248201526d139bdd08185d5d1a1bdc9a5e995960921b6044820152606490fd5b91908110156133cd5760051b0190565b5f546001600160a01b0316330361393957565b63118cdaa760e01b5f523360045260245ffd5b9060ff6002830154165f146139815761397c826139766005600361377a9601549201548094613861565b90613879565b61389b565b61397c826139766005600361377a9601549201549384613861565b60025f805160206148b183398151915254146139c55760025f805160206148b183398151915255565b633ee5aeb560e01b5f5260045ffd5b5f6139de8261345e565b506001810154916139ee836134b3565b50600c8301805460ff1916905582546001600160a01b03165f818152600b602090815260408083208884529091529020546003850180549396909390918111613d7857613a5190835f52600b60205260405f20835f5260205260405f2054613854565b915b5f52600b60205260405f20905f5260205260405f2055613adb6002840160ff8154165f14613d4f576008860180548454808210613d4657613a9391613854565b905b555b60ff613aa3898761394c565b91541615613d3c57600d8601545b600686015490808211613d2457613ad3662386f26fc100009261294892613854565b855490613820565b835490946001600160a01b037f0000000000000000000000000000000000000000000000000000000000000000811693919216833b1561075057604051906362990d2f60e01b825260048201528660248201525f8160448183885af18015612b9657613d0f575b5084546004860180549093916001600160a01b0316853b15613d0b57604051639101e5b360e01b81526001600160a01b039190911660048201526024810191909152858160448183895af1801561168b57908691613cf6575b5050613bbb61271091600460018060a01b03895416945491015490613820565b0490833b15612b7d57604051630bb03fdb60e21b81526001600160a01b039190911660048201526024810191909152838160448183875af18015611bef5790848092613ce1575b5050613c4e575b505090546040805193845260208401959095526001600160a01b0316937f7a0db93fde80eea902af70e15fa590136ec8ea44fbc9de1a71175446513213f592909150a3565b54906101f48202918083046101f41490151715613ccd5783546001600160a01b031690803b156116345791606484928361271095604051968795869463167310cf60e01b865260048601528360248601520460448401525af1801561063357613cb8575b80613c09565b613cc382809261355e565b6107af575f613cb2565b634e487b7160e01b83526011600452602483fd5b613cea9161355e565b61063e57825f81613c02565b81613d009161355e565b612b7d57845f613b9b565b8680fd5b613d1c9194505f9061355e565b5f925f613b42565b612bc1612940662386f26fc1000092612bc794613854565b600e860154613ab1565b50505f90613a95565b6009860180548454808210613d6f57613d6791613854565b905b55613a97565b50505f90613d69565b505f91613a53565b60ff60015460a01c16613d8f57565b63d93c066560e01b5f5260045ffd5b8054600160401b8110156132d357613dbb916001820181556133b8565b819291549060031b91821b915f19901b1916179055565b613ddb81613497565b50600e81019160ff835416156141d45760018201613df981546134b3565b5094600284019560ff8754165f146141665760088101805460038701613e2181548093613847565b60068501541061412d57613e38613e409285614210565b548254613847565b90555b60088501613e5d8154600584015460ff8b541691866142d3565b6005549760ff1981541690556003870194855460018060a01b038954165f52600b60205260405f2082545f52602052613e9b60405f20918254613847565b905560018060a01b0388541690549260ff8b5416928754918a600481015492865f1461412257600d890154925b54600a60098401549301549360405197613ee189613541565b885260208801998a52604088019815158952606088019687526080880195865260a088018c815260c0890191825260e089019283526101008901938452610120890194855261014089019586526101608901964288526101808a019860018a52600554600160401b8110156132d357806001613f60920160055561345e565b9c909c6132e7579a518c546001600160a01b0319166001600160a01b03909116178c559b5160018c0155985160028b01805460ff921515831660ff19918216179091559b5160038c0155985160048b01555160058a015551600689015551600788015551600887015551600986015551600a85015551600b84015551600c90920180549215159091169190921617905560018060a01b038554165f52600760205261400e8660405f20613d9e565b845483546004909201547f00000000000000000000000000000000000000000000000000000000000000006001600160a01b03908116939216916127109161405591613820565b04823b1561075057604051630bb03fdb60e21b81526001600160a01b039290921660048301526024820152905f908290604490829084905af1948515612b96578660609560ff937fb25ffb9cfe217dd53cc1cee569fcc345258ab1d881ee1c4b0629d2672bb0146898614112575b507fc75938696bc974b3973ac0c1440e2ee3e9240af3b97c884edc4dc153be013e7b6020604051878152a360018060a01b039054169654169154604051921515835260208301526040820152a3565b5f61411c9161355e565b5f6140c3565b600e89015492613ec8565b60405162461bcd60e51b81526020600482015260116024820152700506572703a206c6f6e67204f492063617607c1b6044820152606490fd5b6009810180546003870161417c81548093613847565b60078501541061419a57613e386141939285614210565b9055613e43565b60405162461bcd60e51b81526020600482015260126024820152710506572703a2073686f7274204f49206361760741b6044820152606490fd5b60405162461bcd60e51b81526020600482015260146024820152732832b9381d1037b93232b9103737ba1037b832b760611b6044820152606490fd5b9061424e9060108301805443036142c4575b506142496011840193614236838654613847565b8095556009600882015491015490613847565b613847565b6103e88102908082046103e814901517156138335761271090049064e8d4a510008201809211613833571161427f57565b60405162461bcd60e51b815260206004820152601d60248201527f506572703a204f49206368616e676520726174652065786365656465640000006044820152606490fd5b4390555f60118401555f614222565b929181156138b5576142e89161271004613847565b901561430d5761271003906127108211613833576127109161430991613820565b0490565b61271001908161271011613833576127109161430991613820565b6003546001600160a01b0316801561437e57602060249160405192838092637207c7e760e01b82523360048301525afa908115612b96575f91614382575b50801561437e5780821015614379575090565b905090565b5090565b90506020813d6020116143ac575b8161439d6020938361355e565b8101031261075057515f614366565b3d9150614390565b6143bd81613497565b50916143cc60018401546134b3565b5091825493604051916331d98b3f60e01b835285600484015260408360248160018060a01b037f0000000000000000000000000000000000000000000000000000000000000000165afa928315612b96575f9361488e575b50600682015480614845575b506007820154806147fc575b505f9361444882613497565b509160ff60028401541696875f146147e35760018401545f52600a60205260405f20949893985b600654945f5b87548110806147d6575b1561453f578661448f828a6133b8565b90549060031b1c101561453a576144b56144a9828a6133b8565b90549060031b1c613497565b5060ff600e8201541615801561451a575b614514578b156145075760058101548a11155b6144f0575b505b5f19811461383357600101614475565b996003614500929b015490613847565b985f6144de565b60058101548a10156144d9565b506144e0565b50600d8101548015159081614530575b506144c6565b905042115f61452a565b6144e0565b5093999195509350600391975095949501548085116147ce575b5060038201938454809110806147bf575b806147ab575b614583575b50505050506135b891613dd2565b6002546040516378f504f960e01b815260048101939093526001600160a01b0316602083602481845afa928315612b96575f9361476e575b5082614707575b5050806146f6575b6145d5578080614575565b90919250600e810160ff198154169055602060018060a01b03600254169260a460018060a01b0384541691549166038d7ea4c6800060ff600287015416966004870154600888015490604051998a978896630b9adb2f60e41b88526004880152602487015215156044860152606485015260848401525af1918215612b96575f926146a2575b50907f6991b742b6daa149d73e8891b0cd2d83eef64a257aa1655dcd1ad8bce24edd859260609260018060a01b0390541690549060405192835260208301526040820152a2565b91506020823d6020116146ee575b816146bd6020938361355e565b81010312610750579051907f6991b742b6daa149d73e8891b0cd2d83eef64a257aa1655dcd1ad8bce24edd8561465b565b3d91506146b0565b5066038d7ea4c680004710156145ca565b60405163282cc20160e01b81529250602090839060049082905afa918215612b96575f9261473a575b5010155f806145c2565b9091506020813d602011614766575b816147566020938361355e565b810103126107505751905f614730565b3d9150614749565b9092506020813d6020116147a3575b8161478a6020938361355e565b810103126107505751801515810361075057915f6145bb565b3d915061477d565b506002546001600160a01b03161515614570565b5060ff60025460a01c1661456a565b93505f614559565b5060038c01548a1061447f565b60018401545f52600960205260405f209498939861446f565b8311614808575f61443c565b60405162461bcd60e51b81526020600482015260156024820152740a0cae4e07440e0e4d2c6ca40c2c4deecca40dac2f605b1b6044820152606490fd5b8310614851575f614430565b60405162461bcd60e51b81526020600482015260156024820152742832b9381d10383934b1b2903132b637bb9036b4b760591b6044820152606490fd5b6148a891935060403d60401161168457611675818361355e565b50915f61442456fe9b779b17422d0df92223018b32b4d1fa46e071723d6817e2486d003becc55f00a2646970667358221220bd56d64dd270e2cec509294692143a32c8f9fefd50a26c57b3dc011d4975699f64736f6c634300081a0033",
  "linkReferences": {},
  "deployedLinkReferences": {}
}