{
  "_format": "hh-sol-artifact-1",
  "contractName": "WikiPerp",
  "sourceName": "src/WikiPerp.sol",
  "abi": [
    {
      "inputs": [
        {
          "internalType": "address",
          "name": "_vault",
          "type": "address"
        },
        {
          "internalType": "address",
          "name": "_oracle",
          "type": "address"
        },
        {
          "internalType": "address",
          "name": "owner",
          "type": "address"
        }
      ],
      "stateMutability": "nonpayable",
      "type": "constructor"
    },
    {
      "inputs": [],
      "name": "EnforcedPause",
      "type": "error"
    },
    {
      "inputs": [],
      "name": "ExpectedPause",
      "type": "error"
    },
    {
      "inputs": [
        {
          "internalType": "address",
          "name": "owner",
          "type": "address"
        }
      ],
      "name": "OwnableInvalidOwner",
      "type": "error"
    },
    {
      "inputs": [
        {
          "internalType": "address",
          "name": "account",
          "type": "address"
        }
      ],
      "name": "OwnableUnauthorizedAccount",
      "type": "error"
    },
    {
      "inputs": [],
      "name": "ReentrancyGuardReentrantCall",
      "type": "error"
    },
    {
      "anonymous": false,
      "inputs": [
        {
          "indexed": true,
          "internalType": "uint256",
          "name": "marketIdx",
          "type": "uint256"
        },
        {
          "indexed": false,
          "internalType": "int256",
          "name": "rate",
          "type": "int256"
        },
        {
          "indexed": false,
          "internalType": "uint256",
          "name": "ts",
          "type": "uint256"
        }
      ],
      "name": "FundingSettled",
      "type": "event"
    },
    {
      "anonymous": false,
      "inputs": [
        {
          "indexed": false,
          "internalType": "address",
          "name": "backstop",
          "type": "address"
        },
        {
          "indexed": false,
          "internalType": "bool",
          "name": "enabled",
          "type": "bool"
        }
      ],
      "name": "GMXBackstopSet",
      "type": "event"
    },
    {
      "anonymous": false,
      "inputs": [
        {
          "indexed": true,
          "internalType": "uint256",
          "name": "idx",
          "type": "uint256"
        },
        {
          "indexed": false,
          "internalType": "string",
          "name": "symbol",
          "type": "string"
        },
        {
          "indexed": false,
          "internalType": "uint256",
          "name": "maxLev",
          "type": "uint256"
        }
      ],
      "name": "MarketCreated",
      "type": "event"
    },
    {
      "anonymous": false,
      "inputs": [
        {
          "indexed": true,
          "internalType": "uint256",
          "name": "idx",
          "type": "uint256"
        },
        {
          "indexed": false,
          "internalType": "uint256",
          "name": "makerFee",
          "type": "uint256"
        },
        {
          "indexed": false,
          "internalType": "uint256",
          "name": "takerFee",
          "type": "uint256"
        }
      ],
      "name": "MarketFeesUpdated",
      "type": "event"
    },
    {
      "anonymous": false,
      "inputs": [
        {
          "indexed": true,
          "internalType": "uint256",
          "name": "orderId",
          "type": "uint256"
        },
        {
          "indexed": true,
          "internalType": "address",
          "name": "trader",
          "type": "address"
        },
        {
          "indexed": false,
          "internalType": "string",
          "name": "reason",
          "type": "string"
        }
      ],
      "name": "OrderCancelled",
      "type": "event"
    },
    {
      "anonymous": false,
      "inputs": [
        {
          "indexed": true,
          "internalType": "uint256",
          "name": "orderId",
          "type": "uint256"
        },
        {
          "indexed": true,
          "internalType": "uint256",
          "name": "posId",
          "type": "uint256"
        },
        {
          "indexed": false,
          "internalType": "uint256",
          "name": "price",
          "type": "uint256"
        }
      ],
      "name": "OrderFilled",
      "type": "event"
    },
    {
      "anonymous": false,
      "inputs": [
        {
          "indexed": true,
          "internalType": "uint256",
          "name": "orderId",
          "type": "uint256"
        },
        {
          "indexed": true,
          "internalType": "address",
          "name": "trader",
          "type": "address"
        },
        {
          "indexed": false,
          "internalType": "uint256",
          "name": "marketIdx",
          "type": "uint256"
        },
        {
          "indexed": false,
          "internalType": "bool",
          "name": "isLong",
          "type": "bool"
        },
        {
          "indexed": false,
          "internalType": "uint256",
          "name": "size",
          "type": "uint256"
        }
      ],
      "name": "OrderPlaced",
      "type": "event"
    },
    {
      "anonymous": false,
      "inputs": [
        {
          "indexed": true,
          "internalType": "uint256",
          "name": "orderId",
          "type": "uint256"
        },
        {
          "indexed": false,
          "internalType": "bytes32",
          "name": "gmxKey",
          "type": "bytes32"
        },
        {
          "indexed": false,
          "internalType": "address",
          "name": "trader",
          "type": "address"
        },
        {
          "indexed": false,
          "internalType": "uint256",
          "name": "size",
          "type": "uint256"
        }
      ],
      "name": "OrderRoutedToGMX",
      "type": "event"
    },
    {
      "anonymous": false,
      "inputs": [
        {
          "indexed": true,
          "internalType": "address",
          "name": "previousOwner",
          "type": "address"
        },
        {
          "indexed": true,
          "internalType": "address",
          "name": "newOwner",
          "type": "address"
        }
      ],
      "name": "OwnershipTransferStarted",
      "type": "event"
    },
    {
      "anonymous": false,
      "inputs": [
        {
          "indexed": true,
          "internalType": "address",
          "name": "previousOwner",
          "type": "address"
        },
        {
          "indexed": true,
          "internalType": "address",
          "name": "newOwner",
          "type": "address"
        }
      ],
      "name": "OwnershipTransferred",
      "type": "event"
    },
    {
      "anonymous": false,
      "inputs": [
        {
          "indexed": false,
          "internalType": "address",
          "name": "account",
          "type": "address"
        }
      ],
      "name": "Paused",
      "type": "event"
    },
    {
      "anonymous": false,
      "inputs": [
        {
          "indexed": true,
          "internalType": "uint256",
          "name": "posId",
          "type": "uint256"
        },
        {
          "indexed": true,
          "internalType": "address",
          "name": "trader",
          "type": "address"
        },
        {
          "indexed": false,
          "internalType": "int256",
          "name": "pnl",
          "type": "int256"
        },
        {
          "indexed": false,
          "internalType": "uint256",
          "name": "closePrice",
          "type": "uint256"
        }
      ],
      "name": "PositionClosed",
      "type": "event"
    },
    {
      "anonymous": false,
      "inputs": [
        {
          "indexed": true,
          "internalType": "uint256",
          "name": "posId",
          "type": "uint256"
        },
        {
          "indexed": true,
          "internalType": "address",
          "name": "trader",
          "type": "address"
        },
        {
          "indexed": false,
          "internalType": "address",
          "name": "liquidator",
          "type": "address"
        },
        {
          "indexed": false,
          "internalType": "uint256",
          "name": "price",
          "type": "uint256"
        }
      ],
      "name": "PositionLiquidated",
      "type": "event"
    },
    {
      "anonymous": false,
      "inputs": [
        {
          "indexed": true,
          "internalType": "uint256",
          "name": "posId",
          "type": "uint256"
        },
        {
          "indexed": true,
          "internalType": "address",
          "name": "trader",
          "type": "address"
        },
        {
          "indexed": false,
          "internalType": "bool",
          "name": "isLong",
          "type": "bool"
        },
        {
          "indexed": false,
          "internalType": "uint256",
          "name": "size",
          "type": "uint256"
        },
        {
          "indexed": false,
          "internalType": "uint256",
          "name": "price",
          "type": "uint256"
        }
      ],
      "name": "PositionOpened",
      "type": "event"
    },
    {
      "anonymous": false,
      "inputs": [
        {
          "indexed": false,
          "internalType": "address",
          "name": "account",
          "type": "address"
        }
      ],
      "name": "Unpaused",
      "type": "event"
    },
    {
      "inputs": [],
      "name": "BPS",
      "outputs": [
        {
          "internalType": "uint256",
          "name": "",
          "type": "uint256"
        }
      ],
      "stateMutability": "view",
      "type": "function"
    },
    {
      "inputs": [],
      "name": "DEFAULT_ORDER_EXPIRY",
      "outputs": [
        {
          "internalType": "uint256",
          "name": "",
          "type": "uint256"
        }
      ],
      "stateMutability": "view",
      "type": "function"
    },
    {
      "inputs": [],
      "name": "FUNDING_INTERVAL",
      "outputs": [
        {
          "internalType": "uint256",
          "name": "",
          "type": "uint256"
        }
      ],
      "stateMutability": "view",
      "type": "function"
    },
    {
      "inputs": [],
      "name": "LIQUIDATION_FEE_BPS",
      "outputs": [
        {
          "internalType": "uint256",
          "name": "",
          "type": "uint256"
        }
      ],
      "stateMutability": "view",
      "type": "function"
    },
    {
      "inputs": [],
      "name": "MAX_FUNDING_RATE_BPS",
      "outputs": [
        {
          "internalType": "uint256",
          "name": "",
          "type": "uint256"
        }
      ],
      "stateMutability": "view",
      "type": "function"
    },
    {
      "inputs": [],
      "name": "MAX_OI_CHANGE_BPS",
      "outputs": [
        {
          "internalType": "uint256",
          "name": "",
          "type": "uint256"
        }
      ],
      "stateMutability": "view",
      "type": "function"
    },
    {
      "inputs": [],
      "name": "acceptOwnership",
      "outputs": [],
      "stateMutability": "nonpayable",
      "type": "function"
    },
    {
      "inputs": [
        {
          "internalType": "uint256",
          "name": "orderId",
          "type": "uint256"
        }
      ],
      "name": "cancelOrder",
      "outputs": [],
      "stateMutability": "nonpayable",
      "type": "function"
    },
    {
      "inputs": [
        {
          "internalType": "uint256",
          "name": "posId",
          "type": "uint256"
        }
      ],
      "name": "closePosition",
      "outputs": [],
      "stateMutability": "nonpayable",
      "type": "function"
    },
    {
      "inputs": [
        {
          "internalType": "string",
          "name": "symbol",
          "type": "string"
        },
        {
          "internalType": "bytes32",
          "name": "marketId",
          "type": "bytes32"
        },
        {
          "internalType": "uint256",
          "name": "maxLev",
          "type": "uint256"
        },
        {
          "internalType": "uint256",
          "name": "makerFee",
          "type": "uint256"
        },
        {
          "internalType": "uint256",
          "name": "takerFee",
          "type": "uint256"
        },
        {
          "internalType": "uint256",
          "name": "mmBps",
          "type": "uint256"
        },
        {
          "internalType": "uint256",
          "name": "maxOI",
          "type": "uint256"
        },
        {
          "internalType": "uint256",
          "name": "",
          "type": "uint256"
        },
        {
          "internalType": "uint256",
          "name": "maxPosPerUser",
          "type": "uint256"
        }
      ],
      "name": "createMarket",
      "outputs": [
        {
          "internalType": "uint256",
          "name": "idx",
          "type": "uint256"
        }
      ],
      "stateMutability": "nonpayable",
      "type": "function"
    },
    {
      "inputs": [
        {
          "internalType": "uint256",
          "name": "amount",
          "type": "uint256"
        }
      ],
      "name": "deployIdle",
      "outputs": [],
      "stateMutability": "nonpayable",
      "type": "function"
    },
    {
      "inputs": [],
      "name": "dynLev",
      "outputs": [
        {
          "internalType": "contract IWikiDynamicLeverage",
          "name": "",
          "type": "address"
        }
      ],
      "stateMutability": "view",
      "type": "function"
    },
    {
      "inputs": [
        {
          "internalType": "uint256",
          "name": "marketIdx",
          "type": "uint256"
        },
        {
          "internalType": "uint256[]",
          "name": "orderIds",
          "type": "uint256[]"
        }
      ],
      "name": "executeLimitOrders",
      "outputs": [],
      "stateMutability": "nonpayable",
      "type": "function"
    },
    {
      "inputs": [
        {
          "internalType": "uint256",
          "name": "posId",
          "type": "uint256"
        }
      ],
      "name": "executeTPSL",
      "outputs": [],
      "stateMutability": "nonpayable",
      "type": "function"
    },
    {
      "inputs": [
        {
          "internalType": "uint256",
          "name": "id",
          "type": "uint256"
        }
      ],
      "name": "getMarket",
      "outputs": [
        {
          "components": [
            {
              "internalType": "bytes32",
              "name": "marketId",
              "type": "bytes32"
            },
            {
              "internalType": "string",
              "name": "symbol",
              "type": "string"
            },
            {
              "internalType": "uint256",
              "name": "maxLeverage",
              "type": "uint256"
            },
            {
              "internalType": "uint256",
              "name": "makerFeeBps",
              "type": "uint256"
            },
            {
              "internalType": "uint256",
              "name": "takerFeeBps",
              "type": "uint256"
            },
            {
              "internalType": "uint256",
              "name": "maintenanceMarginBps",
              "type": "uint256"
            },
            {
              "internalType": "uint256",
              "name": "maxOpenInterestLong",
              "type": "uint256"
            },
            {
              "internalType": "uint256",
              "name": "maxOpenInterestShort",
              "type": "uint256"
            },
            {
              "internalType": "uint256",
              "name": "openInterestLong",
              "type": "uint256"
            },
            {
              "internalType": "uint256",
              "name": "openInterestShort",
              "type": "uint256"
            },
            {
              "internalType": "uint256",
              "name": "maxPositionSizePerUser",
              "type": "uint256"
            },
            {
              "internalType": "int256",
              "name": "fundingRate",
              "type": "int256"
            },
            {
              "internalType": "uint256",
              "name": "lastFundingTime",
              "type": "uint256"
            },
            {
              "internalType": "uint256",
              "name": "cumulativeFundingLong",
              "type": "uint256"
            },
            {
              "internalType": "uint256",
              "name": "cumulativeFundingShort",
              "type": "uint256"
            },
            {
              "internalType": "bool",
              "name": "active",
              "type": "bool"
            },
            {
              "internalType": "uint256",
              "name": "lastOIUpdateBlock",
              "type": "uint256"
            },
            {
              "internalType": "uint256",
              "name": "oiChangesThisBlock",
              "type": "uint256"
            }
          ],
          "internalType": "struct WikiPerp.Market",
          "name": "",
          "type": "tuple"
        }
      ],
      "stateMutability": "view",
      "type": "function"
    },
    {
      "inputs": [
        {
          "internalType": "uint256",
          "name": "id",
          "type": "uint256"
        }
      ],
      "name": "getOrder",
      "outputs": [
        {
          "components": [
            {
              "internalType": "address",
              "name": "trader",
              "type": "address"
            },
            {
              "internalType": "uint256",
              "name": "marketIndex",
              "type": "uint256"
            },
            {
              "internalType": "bool",
              "name": "isLong",
              "type": "bool"
            },
            {
              "internalType": "bool",
              "name": "isLimit",
              "type": "bool"
            },
            {
              "internalType": "uint256",
              "name": "size",
              "type": "uint256"
            },
            {
              "internalType": "uint256",
              "name": "collateral",
              "type": "uint256"
            },
            {
              "internalType": "uint256",
              "name": "limitPrice",
              "type": "uint256"
            },
            {
              "internalType": "uint256",
              "name": "minPrice",
              "type": "uint256"
            },
            {
              "internalType": "uint256",
              "name": "maxPrice",
              "type": "uint256"
            },
            {
              "internalType": "uint256",
              "name": "leverage",
              "type": "uint256"
            },
            {
              "internalType": "uint256",
              "name": "takeProfit",
              "type": "uint256"
            },
            {
              "internalType": "uint256",
              "name": "stopLoss",
              "type": "uint256"
            },
            {
              "internalType": "bool",
              "name": "reduceOnly",
              "type": "bool"
            },
            {
              "internalType": "uint256",
              "name": "createdAt",
              "type": "uint256"
            },
            {
              "internalType": "uint256",
              "name": "expiry",
              "type": "uint256"
            },
            {
              "internalType": "bool",
              "name": "open",
              "type": "bool"
            }
          ],
          "internalType": "struct WikiPerp.Order",
          "name": "",
          "type": "tuple"
        }
      ],
      "stateMutability": "view",
      "type": "function"
    },
    {
      "inputs": [
        {
          "internalType": "uint256",
          "name": "id",
          "type": "uint256"
        }
      ],
      "name": "getPosition",
      "outputs": [
        {
          "components": [
            {
              "internalType": "address",
              "name": "trader",
              "type": "address"
            },
            {
              "internalType": "uint256",
              "name": "marketIndex",
              "type": "uint256"
            },
            {
              "internalType": "bool",
              "name": "isLong",
              "type": "bool"
            },
            {
              "internalType": "uint256",
              "name": "size",
              "type": "uint256"
            },
            {
              "internalType": "uint256",
              "name": "collateral",
              "type": "uint256"
            },
            {
              "internalType": "uint256",
              "name": "entryPrice",
              "type": "uint256"
            },
            {
              "internalType": "uint256",
              "name": "entryFunding",
              "type": "uint256"
            },
            {
              "internalType": "uint256",
              "name": "leverage",
              "type": "uint256"
            },
            {
              "internalType": "uint256",
              "name": "liquidationPrice",
              "type": "uint256"
            },
            {
              "internalType": "uint256",
              "name": "takeProfit",
              "type": "uint256"
            },
            {
              "internalType": "uint256",
              "name": "stopLoss",
              "type": "uint256"
            },
            {
              "internalType": "uint256",
              "name": "openedAt",
              "type": "uint256"
            },
            {
              "internalType": "bool",
              "name": "open",
              "type": "bool"
            }
          ],
          "internalType": "struct WikiPerp.Position",
          "name": "",
          "type": "tuple"
        }
      ],
      "stateMutability": "view",
      "type": "function"
    },
    {
      "inputs": [
        {
          "internalType": "address",
          "name": "t",
          "type": "address"
        }
      ],
      "name": "getTraderOrders",
      "outputs": [
        {
          "internalType": "uint256[]",
          "name": "",
          "type": "uint256[]"
        }
      ],
      "stateMutability": "view",
      "type": "function"
    },
    {
      "inputs": [
        {
          "internalType": "address",
          "name": "t",
          "type": "address"
        }
      ],
      "name": "getTraderPositions",
      "outputs": [
        {
          "internalType": "uint256[]",
          "name": "",
          "type": "uint256[]"
        }
      ],
      "stateMutability": "view",
      "type": "function"
    },
    {
      "inputs": [
        {
          "internalType": "uint256",
          "name": "posId",
          "type": "uint256"
        }
      ],
      "name": "getUnrealizedPnL",
      "outputs": [
        {
          "internalType": "int256",
          "name": "",
          "type": "int256"
        }
      ],
      "stateMutability": "view",
      "type": "function"
    },
    {
      "inputs": [],
      "name": "gmxBackstop",
      "outputs": [
        {
          "internalType": "contract IWikiGMXBackstop",
          "name": "",
          "type": "address"
        }
      ],
      "stateMutability": "view",
      "type": "function"
    },
    {
      "inputs": [],
      "name": "gmxEnabled",
      "outputs": [
        {
          "internalType": "bool",
          "name": "",
          "type": "bool"
        }
      ],
      "stateMutability": "view",
      "type": "function"
    },
    {
      "inputs": [],
      "name": "idleYieldRouter",
      "outputs": [
        {
          "internalType": "contract IIdleYieldRouter",
          "name": "",
          "type": "address"
        }
      ],
      "stateMutability": "view",
      "type": "function"
    },
    {
      "inputs": [
        {
          "internalType": "uint256",
          "name": "posId",
          "type": "uint256"
        }
      ],
      "name": "liquidate",
      "outputs": [],
      "stateMutability": "nonpayable",
      "type": "function"
    },
    {
      "inputs": [
        {
          "internalType": "uint256",
          "name": "",
          "type": "uint256"
        },
        {
          "internalType": "uint256",
          "name": "",
          "type": "uint256"
        }
      ],
      "name": "marketAsks",
      "outputs": [
        {
          "internalType": "uint256",
          "name": "",
          "type": "uint256"
        }
      ],
      "stateMutability": "view",
      "type": "function"
    },
    {
      "inputs": [
        {
          "internalType": "uint256",
          "name": "",
          "type": "uint256"
        },
        {
          "internalType": "uint256",
          "name": "",
          "type": "uint256"
        }
      ],
      "name": "marketBids",
      "outputs": [
        {
          "internalType": "uint256",
          "name": "",
          "type": "uint256"
        }
      ],
      "stateMutability": "view",
      "type": "function"
    },
    {
      "inputs": [],
      "name": "marketCount",
      "outputs": [
        {
          "internalType": "uint256",
          "name": "",
          "type": "uint256"
        }
      ],
      "stateMutability": "view",
      "type": "function"
    },
    {
      "inputs": [
        {
          "internalType": "uint256",
          "name": "",
          "type": "uint256"
        }
      ],
      "name": "markets",
      "outputs": [
        {
          "internalType": "bytes32",
          "name": "marketId",
          "type": "bytes32"
        },
        {
          "internalType": "string",
          "name": "symbol",
          "type": "string"
        },
        {
          "internalType": "uint256",
          "name": "maxLeverage",
          "type": "uint256"
        },
        {
          "internalType": "uint256",
          "name": "makerFeeBps",
          "type": "uint256"
        },
        {
          "internalType": "uint256",
          "name": "takerFeeBps",
          "type": "uint256"
        },
        {
          "internalType": "uint256",
          "name": "maintenanceMarginBps",
          "type": "uint256"
        },
        {
          "internalType": "uint256",
          "name": "maxOpenInterestLong",
          "type": "uint256"
        },
        {
          "internalType": "uint256",
          "name": "maxOpenInterestShort",
          "type": "uint256"
        },
        {
          "internalType": "uint256",
          "name": "openInterestLong",
          "type": "uint256"
        },
        {
          "internalType": "uint256",
          "name": "openInterestShort",
          "type": "uint256"
        },
        {
          "internalType": "uint256",
          "name": "maxPositionSizePerUser",
          "type": "uint256"
        },
        {
          "internalType": "int256",
          "name": "fundingRate",
          "type": "int256"
        },
        {
          "internalType": "uint256",
          "name": "lastFundingTime",
          "type": "uint256"
        },
        {
          "internalType": "uint256",
          "name": "cumulativeFundingLong",
          "type": "uint256"
        },
        {
          "internalType": "uint256",
          "name": "cumulativeFundingShort",
          "type": "uint256"
        },
        {
          "internalType": "bool",
          "name": "active",
          "type": "bool"
        },
        {
          "internalType": "uint256",
          "name": "lastOIUpdateBlock",
          "type": "uint256"
        },
        {
          "internalType": "uint256",
          "name": "oiChangesThisBlock",
          "type": "uint256"
        }
      ],
      "stateMutability": "view",
      "type": "function"
    },
    {
      "inputs": [],
      "name": "marketsLength",
      "outputs": [
        {
          "internalType": "uint256",
          "name": "",
          "type": "uint256"
        }
      ],
      "stateMutability": "view",
      "type": "function"
    },
    {
      "inputs": [],
      "name": "nextPositionId",
      "outputs": [
        {
          "internalType": "uint256",
          "name": "",
          "type": "uint256"
        }
      ],
      "stateMutability": "view",
      "type": "function"
    },
    {
      "inputs": [],
      "name": "oracle",
      "outputs": [
        {
          "internalType": "contract WikiOracle",
          "name": "",
          "type": "address"
        }
      ],
      "stateMutability": "view",
      "type": "function"
    },
    {
      "inputs": [
        {
          "internalType": "uint256",
          "name": "",
          "type": "uint256"
        }
      ],
      "name": "orders",
      "outputs": [
        {
          "internalType": "address",
          "name": "trader",
          "type": "address"
        },
        {
          "internalType": "uint256",
          "name": "marketIndex",
          "type": "uint256"
        },
        {
          "internalType": "bool",
          "name": "isLong",
          "type": "bool"
        },
        {
          "internalType": "bool",
          "name": "isLimit",
          "type": "bool"
        },
        {
          "internalType": "uint256",
          "name": "size",
          "type": "uint256"
        },
        {
          "internalType": "uint256",
          "name": "collateral",
          "type": "uint256"
        },
        {
          "internalType": "uint256",
          "name": "limitPrice",
          "type": "uint256"
        },
        {
          "internalType": "uint256",
          "name": "minPrice",
          "type": "uint256"
        },
        {
          "internalType": "uint256",
          "name": "maxPrice",
          "type": "uint256"
        },
        {
          "internalType": "uint256",
          "name": "leverage",
          "type": "uint256"
        },
        {
          "internalType": "uint256",
          "name": "takeProfit",
          "type": "uint256"
        },
        {
          "internalType": "uint256",
          "name": "stopLoss",
          "type": "uint256"
        },
        {
          "internalType": "bool",
          "name": "reduceOnly",
          "type": "bool"
        },
        {
          "internalType": "uint256",
          "name": "createdAt",
          "type": "uint256"
        },
        {
          "internalType": "uint256",
          "name": "expiry",
          "type": "uint256"
        },
        {
          "internalType": "bool",
          "name": "open",
          "type": "bool"
        }
      ],
      "stateMutability": "view",
      "type": "function"
    },
    {
      "inputs": [],
      "name": "owner",
      "outputs": [
        {
          "internalType": "address",
          "name": "",
          "type": "address"
        }
      ],
      "stateMutability": "view",
      "type": "function"
    },
    {
      "inputs": [],
      "name": "pause",
      "outputs": [],
      "stateMutability": "nonpayable",
      "type": "function"
    },
    {
      "inputs": [
        {
          "internalType": "uint256",
          "name": "idx",
          "type": "uint256"
        }
      ],
      "name": "pauseMarket",
      "outputs": [],
      "stateMutability": "nonpayable",
      "type": "function"
    },
    {
      "inputs": [],
      "name": "paused",
      "outputs": [
        {
          "internalType": "bool",
          "name": "",
          "type": "bool"
        }
      ],
      "stateMutability": "view",
      "type": "function"
    },
    {
      "inputs": [],
      "name": "pendingOwner",
      "outputs": [
        {
          "internalType": "address",
          "name": "",
          "type": "address"
        }
      ],
      "stateMutability": "view",
      "type": "function"
    },
    {
      "inputs": [
        {
          "internalType": "uint256",
          "name": "marketIdx",
          "type": "uint256"
        },
        {
          "internalType": "bool",
          "name": "isLong",
          "type": "bool"
        },
        {
          "internalType": "uint256",
          "name": "collateral",
          "type": "uint256"
        },
        {
          "internalType": "uint256",
          "name": "leverage",
          "type": "uint256"
        },
        {
          "internalType": "uint256",
          "name": "limitPrice",
          "type": "uint256"
        },
        {
          "internalType": "uint256",
          "name": "takeProfit",
          "type": "uint256"
        },
        {
          "internalType": "uint256",
          "name": "stopLoss",
          "type": "uint256"
        }
      ],
      "name": "placeLimitOrder",
      "outputs": [
        {
          "internalType": "uint256",
          "name": "",
          "type": "uint256"
        }
      ],
      "stateMutability": "nonpayable",
      "type": "function"
    },
    {
      "inputs": [
        {
          "internalType": "uint256",
          "name": "marketIdx",
          "type": "uint256"
        },
        {
          "internalType": "bool",
          "name": "isLong",
          "type": "bool"
        },
        {
          "internalType": "uint256",
          "name": "collateral",
          "type": "uint256"
        },
        {
          "internalType": "uint256",
          "name": "leverage",
          "type": "uint256"
        },
        {
          "internalType": "uint256",
          "name": "limitPrice",
          "type": "uint256"
        },
        {
          "internalType": "uint256",
          "name": "expiry",
          "type": "uint256"
        },
        {
          "internalType": "uint256",
          "name": "takeProfit",
          "type": "uint256"
        },
        {
          "internalType": "uint256",
          "name": "stopLoss",
          "type": "uint256"
        }
      ],
      "name": "placeLimitOrder",
      "outputs": [
        {
          "internalType": "uint256",
          "name": "",
          "type": "uint256"
        }
      ],
      "stateMutability": "nonpayable",
      "type": "function"
    },
    {
      "inputs": [
        {
          "internalType": "uint256",
          "name": "marketIdx",
          "type": "uint256"
        },
        {
          "internalType": "bool",
          "name": "isLong",
          "type": "bool"
        },
        {
          "internalType": "uint256",
          "name": "collateral",
          "type": "uint256"
        },
        {
          "internalType": "uint256",
          "name": "leverage",
          "type": "uint256"
        },
        {
          "internalType": "uint256",
          "name": "minPrice",
          "type": "uint256"
        },
        {
          "internalType": "uint256",
          "name": "maxPrice",
          "type": "uint256"
        }
      ],
      "name": "placeMarketOrder",
      "outputs": [
        {
          "internalType": "uint256",
          "name": "",
          "type": "uint256"
        }
      ],
      "stateMutability": "nonpayable",
      "type": "function"
    },
    {
      "inputs": [
        {
          "internalType": "uint256",
          "name": "marketIdx",
          "type": "uint256"
        },
        {
          "internalType": "bool",
          "name": "isLong",
          "type": "bool"
        },
        {
          "internalType": "uint256",
          "name": "collateral",
          "type": "uint256"
        },
        {
          "internalType": "uint256",
          "name": "leverage",
          "type": "uint256"
        },
        {
          "internalType": "uint256",
          "name": "minPrice",
          "type": "uint256"
        },
        {
          "internalType": "uint256",
          "name": "maxPrice",
          "type": "uint256"
        },
        {
          "internalType": "uint256",
          "name": "takeProfit",
          "type": "uint256"
        },
        {
          "internalType": "uint256",
          "name": "stopLoss",
          "type": "uint256"
        }
      ],
      "name": "placeMarketOrder",
      "outputs": [
        {
          "internalType": "uint256",
          "name": "",
          "type": "uint256"
        }
      ],
      "stateMutability": "nonpayable",
      "type": "function"
    },
    {
      "inputs": [
        {
          "internalType": "uint256",
          "name": "",
          "type": "uint256"
        }
      ],
      "name": "positions",
      "outputs": [
        {
          "internalType": "address",
          "name": "trader",
          "type": "address"
        },
        {
          "internalType": "uint256",
          "name": "marketIndex",
          "type": "uint256"
        },
        {
          "internalType": "bool",
          "name": "isLong",
          "type": "bool"
        },
        {
          "internalType": "uint256",
          "name": "size",
          "type": "uint256"
        },
        {
          "internalType": "uint256",
          "name": "collateral",
          "type": "uint256"
        },
        {
          "internalType": "uint256",
          "name": "entryPrice",
          "type": "uint256"
        },
        {
          "internalType": "uint256",
          "name": "entryFunding",
          "type": "uint256"
        },
        {
          "internalType": "uint256",
          "name": "leverage",
          "type": "uint256"
        },
        {
          "internalType": "uint256",
          "name": "liquidationPrice",
          "type": "uint256"
        },
        {
          "internalType": "uint256",
          "name": "takeProfit",
          "type": "uint256"
        },
        {
          "internalType": "uint256",
          "name": "stopLoss",
          "type": "uint256"
        },
        {
          "internalType": "uint256",
          "name": "openedAt",
          "type": "uint256"
        },
        {
          "internalType": "bool",
          "name": "open",
          "type": "bool"
        }
      ],
      "stateMutability": "view",
      "type": "function"
    },
    {
      "inputs": [
        {
          "internalType": "uint256",
          "name": "amount",
          "type": "uint256"
        },
        {
          "internalType": "string",
          "name": "reason",
          "type": "string"
        }
      ],
      "name": "recallIdle",
      "outputs": [],
      "stateMutability": "nonpayable",
      "type": "function"
    },
    {
      "inputs": [],
      "name": "renounceOwnership",
      "outputs": [],
      "stateMutability": "nonpayable",
      "type": "function"
    },
    {
      "inputs": [
        {
          "internalType": "address",
          "name": "_dynLev",
          "type": "address"
        }
      ],
      "name": "setDynLev",
      "outputs": [],
      "stateMutability": "nonpayable",
      "type": "function"
    },
    {
      "inputs": [
        {
          "internalType": "address",
          "name": "b",
          "type": "address"
        },
        {
          "internalType": "bool",
          "name": "enabled",
          "type": "bool"
        }
      ],
      "name": "setGMXBackstop",
      "outputs": [],
      "stateMutability": "nonpayable",
      "type": "function"
    },
    {
      "inputs": [
        {
          "internalType": "address",
          "name": "router",
          "type": "address"
        }
      ],
      "name": "setIdleYieldRouter",
      "outputs": [],
      "stateMutability": "nonpayable",
      "type": "function"
    },
    {
      "inputs": [
        {
          "internalType": "uint256",
          "name": "idx",
          "type": "uint256"
        },
        {
          "internalType": "uint256",
          "name": "makerFee",
          "type": "uint256"
        },
        {
          "internalType": "uint256",
          "name": "takerFee",
          "type": "uint256"
        }
      ],
      "name": "setMarketFees",
      "outputs": [],
      "stateMutability": "nonpayable",
      "type": "function"
    },
    {
      "inputs": [
        {
          "internalType": "uint256",
          "name": "marketIdx",
          "type": "uint256"
        }
      ],
      "name": "settleFunding",
      "outputs": [],
      "stateMutability": "nonpayable",
      "type": "function"
    },
    {
      "inputs": [
        {
          "internalType": "address",
          "name": "",
          "type": "address"
        },
        {
          "internalType": "uint256",
          "name": "",
          "type": "uint256"
        }
      ],
      "name": "traderOI",
      "outputs": [
        {
          "internalType": "uint256",
          "name": "",
          "type": "uint256"
        }
      ],
      "stateMutability": "view",
      "type": "function"
    },
    {
      "inputs": [
        {
          "internalType": "address",
          "name": "",
          "type": "address"
        },
        {
          "internalType": "uint256",
          "name": "",
          "type": "uint256"
        }
      ],
      "name": "traderOrders",
      "outputs": [
        {
          "internalType": "uint256",
          "name": "",
          "type": "uint256"
        }
      ],
      "stateMutability": "view",
      "type": "function"
    },
    {
      "inputs": [
        {
          "internalType": "address",
          "name": "",
          "type": "address"
        },
        {
          "internalType": "uint256",
          "name": "",
          "type": "uint256"
        }
      ],
      "name": "traderPositions",
      "outputs": [
        {
          "internalType": "uint256",
          "name": "",
          "type": "uint256"
        }
      ],
      "stateMutability": "view",
      "type": "function"
    },
    {
      "inputs": [
        {
          "internalType": "address",
          "name": "newOwner",
          "type": "address"
        }
      ],
      "name": "transferOwnership",
      "outputs": [],
      "stateMutability": "nonpayable",
      "type": "function"
    },
    {
      "inputs": [],
      "name": "unpause",
      "outputs": [],
      "stateMutability": "nonpayable",
      "type": "function"
    },
    {
      "inputs": [
        {
          "internalType": "uint256",
          "name": "idx",
          "type": "uint256"
        }
      ],
      "name": "unpauseMarket",
      "outputs": [],
      "stateMutability": "nonpayable",
      "type": "function"
    },
    {
      "inputs": [
        {
          "internalType": "uint256",
          "name": "idx",
          "type": "uint256"
        },
        {
          "internalType": "uint256",
          "name": "maxLev",
          "type": "uint256"
        },
        {
          "internalType": "uint256",
          "name": "maxPos",
          "type": "uint256"
        },
        {
          "internalType": "uint256",
          "name": "maxOIL",
          "type": "uint256"
        },
        {
          "internalType": "uint256",
          "name": "maxOIS",
          "type": "uint256"
        }
      ],
      "name": "updateMarketCaps",
      "outputs": [],
      "stateMutability": "nonpayable",
      "type": "function"
    },
    {
      "inputs": [],
      "name": "vault",
      "outputs": [
        {
          "internalType": "contract WikiVault",
          "name": "",
          "type": "address"
        }
      ],
      "stateMutability": "view",
      "type": "function"
    },
    {
      "stateMutability": "payable",
      "type": "receive"
    }
  ],
  "bytecode": "0x60c03461021a57601f614fc638819003918201601f19168301916001600160401b0383118484101761021e5780849260609460405283398101031261021a5761004781610232565b9061005460208201610232565b906001600160a01b039061006a90604001610232565b1691821561020757600180546001600160a01b03199081169091555f80549182168517815560405194916001600160a01b0316907f8be0079c531659141344cd1fd0a4f28419497f9722a3daafe3b4186f6b6457e09080a360017f9b779b17422d0df92223018b32b4d1fa46e071723d6817e2486d003becc55f00556001600160a01b03169182156101d157506001600160a01b03169081156101975760805260a052604051614d7f9081610247823960805181818161038c0152818161081d015281816112720152818161232601528181612706015281816131fd01528181613bf901528181613f990152614480015260a051818181611156015281816117e3015281816119a601528181611dc101528181611fc60152818161259c015281816137f801526147550152f35b60405162461bcd60e51b815260206004820152601260248201527157696b693a207a65726f205f6f7261636c6560701b6044820152606490fd5b62461bcd60e51b815260206004820152601160248201527015da5ada4e881e995c9bc817dd985d5b1d607a1b6044820152606490fd5b631e4fbdf760e01b5f525f60045260245ffd5b5f80fd5b634e487b7160e01b5f52604160045260245ffd5b51906001600160a01b038216820361021a5756fe610120604052600436101561001b575b3615610019575f80fd5b005b5f803560e01c8063053ef25b146134715780630dea803f146134565780630f259013146134305780630fbccb11146130fa578063162bdafc146130c8578063225e6aeb14612c78578063249d39e914612c5b57806328bb52c314612b6f5780633596188d14612ad15780633f4ba83a14612a61578063415f124014612525578063418bfd46146124fc578063476d1de1146124df578063514fcac7146122a2578063518e8dfc1461228557806355efb287146122685780635c975abb146122425780635ca6ac84146122025780635fbbb2ff146121905780636a61324614611f705780636ce971f914611f1a578063715018a614611eb557806379ba509714611e305780637be613ca14611df05780637dc0d1d014611dab5780637e3fef0214611d825780637f30c7a914611d3f5780638058bfa814611cf75780638456cb5914611c945780638778484414611c5d578063899346c714611c3257806389d8ab4f14611bdb5780638da5cb5b14611bb457806397a1bde714611b2757806399fbab8814611a5a578063a126d60114611928578063a5402544146109d5578063a6f3b7cc1461177e578063a85c38ef14611682578063a98fcc8714611664578063b1283e7714611507578063b58e431614611446578063ce3ca00b146113c4578063ce8f7235146110c8578063d09ef24114610ec5578063e30c397814610e9c578063e6bc01a214610dbd578063eb02c30114610c2a578063eb44fdd3146109da578063ec979082146109d5578063ef365b4a146109ac578063f264ed2814610986578063f2fde38b14610919578063f7e5954e1461084c578063fbfa77cf14610807578063fc12524c146107d35763fe2cc15e14610299575061000f565b346107d0576102a736613765565b9194929695936102b5613a97565b6102bd613acf565b6102c6876135c0565b509560ff600f8801541615610793576003546001600160a01b03168015610788576024602060028a0154926040519283809263c82f4ce960e01b82523360048301525afa90811561077d578c91610747575b508082101561074057505b60018310159081610735575b50156106e55784156106a8576103458286613941565b96338b52600b60205260408b20898c526020526103668860408d2054613968565b610373600a830154614689565b106106635761271061038a60048d9301548a613941565b7f00000000000000000000000000000000000000000000000000000000000000006001600160a01b0316916103c0910488613968565b90803b1561065f5760405163a5bce37960e01b8152336004820152602481019290925282908290604490829084905af180156106545761063b575b5050600654986040519561040e87613645565b33875289602088015287151560408801528b606088015288608088015260a08701528a60c087015260e086015261010085015261012084015261014083015261016082015285610180820152426101a0820152856101c082015260016101e0820152600160401b851015610627576001850160065561048c856135a4565b9190916106135760406020976105ac6105b994600e6101e08b9660018060a01b0360018060a01b03825116166001600160601b0360a01b8554161784558d8101516001850155600284016104f1888301511515829060ff801983541691151516179055565b6060820151151561ff0082549160081b169061ff0019161790556080810151600385015560a0810151600485015560c0810151600585015560e08101516006850155610100810151600785015561012081015160088501556101408101516009850155610160810151600a85015561057f6101808201511515600b86019060ff801983541691151516179055565b6101a0810151600c8501556101c0810151600d8501550151151591019060ff801983541691151516179055565b3381526008895220613aed565b6040519283521515848301526040820152817f64c70539bf3ad0f5861d7cf62e01467aa1ff8ebf166149075ec593f067be03d960603393a36105fa81614715565b60015f80516020614d2a83398151915255604051908152f35b634e487b7160e01b87526004879052602487fd5b634e487b7160e01b86526041600452602486fd5b816106459161367f565b61065057895f6103fb565b8980fd5b6040513d84823e3d90fd5b8280fd5b60405162461bcd60e51b815260206004820152601a60248201527f506572703a2075736572204f49206361702065786365656465640000000000006044820152606490fd5b60405162461bcd60e51b815260206004820152601560248201527414195c9c0e881e995c9bc818dbdb1b185d195c985b605a1b6044820152606490fd5b60405162461bcd60e51b815260206004820152602260248201527f506572703a206c6576657261676520657863656564732063757272656e742063604482015261061760f41b6064820152608490fd5b90508211155f61032f565b9050610323565b90506020813d602011610775575b816107626020938361367f565b8101031261077157515f610318565b5f80fd5b3d9150610755565b6040513d8e823e3d90fd5b506002870154610323565b60405162461bcd60e51b8152602060048201526015602482015274506572703a206d61726b657420696e61637469766560581b6044820152606490fd5b80fd5b50346107d05760203660031901126107d0576107ed613e5e565b600f6107fa6004356135c0565b5001805460ff1916905580f35b50346107d057806003193601126107d0576040517f00000000000000000000000000000000000000000000000000000000000000006001600160a01b03168152602090f35b50346107d05761085b36613765565b969790959161086b959395613a97565b610873613acf565b8015808015610910575b156108d357156108be5750620151804201908142116108aa5750916020979593916105fa97959396613b21565b634e487b7160e01b81526011600452602490fd5b6105fa97959391509160209896949296613b21565b60405162461bcd60e51b815260206004820152601560248201527414195c9c0e88185b1c9958591e48195e1c1a5c9959605a1b6044820152606490fd5b5042821161087d565b50346107d05760203660031901126107d05761093361351c565b61093b613e5e565b600180546001600160a01b0319166001600160a01b0392831690811790915582549091167f38d16b8cac22d99fc7c124b9cd0de2d3fa1faef420bfe791d8c362d765e227008380a380f35b50346107d057806003193601126107d057602060ff60025460a01c166040519015158152f35b50346107d057806003193601126107d0576003546040516001600160a01b039091168152602090f35b613587565b50346107d05760203660031901126107d0576102206040516109fb81613614565b828152606060208201528260408201528260608201528260808201528260a08201528260c08201528260e08201528261010082015282610120820152826101408201528261016082015282610180820152826101a0820152826101c0820152826101e0820152826102008201520152610a756004356135c0565b50601160405191610a8583613614565b80548352610a95600182016136a1565b6020840152600281015460408401526003810154606084015260048101546080840152600581015460a0840152600681015460c0840152600781015460e084015260088101546101008401526009810154610120840152600a810154610140840152600b810154610160840152600c810154610180840152600d8101546101a0840152600e8101546101c084015260ff600f8201541615156101e08401526010810154610200840152015461022082015260405180916020825280516020830152610220610b7460208301516102406040860152610260850190613741565b916040810151606085015260608101516080850152608081015160a085015260a081015160c085015260c081015160e085015260e08101516101008501526101008101516101208501526101208101516101408501526101408101516101608501526101608101516101808501526101808101516101a08501526101a08101516101c08501526101c08101516101e08501526101e081015115156102008501526102008101518285015201516102408301520390f35b50346107d05760203660031901126107d057610180604051610c4b81613662565b8281528260208201528260408201528260608201528260808201528260a08201528260c08201528260e08201528261010082015282610120820152826101408201528261016082015201526101a0610ca460043561356b565b50604051610cb181613662565b80808060018060a01b038554169485825260018101546020830190815260ff60028301541660408401901515815260038301546060850190815260048401546080860190815260058501549160a0870192835260068601549360c0880194855260078701549560e0890196875261018060ff600c60088b01549a6101008d019b8c5261012060098201549d019c8d52610140600a8201549e019d8e52610160600b8201549f019e8f520154169c019b15158c526040519c8d525160208d015251151560408c01525160608b01525160808a01525160a08901525160c08801525160e087015251610100860152516101208501525161014084015251610160830152511515610180820152f35b50346107d05760403660031901126107d0578060243567ffffffffffffffff8111610e9957610df09036906004016134ee565b82546001600160a01b031633148015610e85575b610e0d906139fa565b600c546001600160a01b03169182610e2457505050f35b823b15610e8057610e5e928492836040518096819582946338d44ad560e01b845260043560048501526040602485015260448401916138a5565b03925af1801561065457610e6f5750f35b81610e799161367f565b6107d05780f35b505050fd5b50600c546001600160a01b03163314610e04565b50fd5b50346107d057806003193601126107d0576001546040516001600160a01b039091168152602090f35b50346107d05760203660031901126107d0576101e0604051610ee681613645565b8281528260208201528260408201528260608201528260808201528260a08201528260c08201528260e08201528261010082015282610120820152826101408201528261016082015282610180820152826101a0820152826101c08201520152610200610f546004356135a4565b506101e0604051610f6481613645565b60018060a01b03835416928382526001810154602083019081526002820154604084019060ff81161515825260ff606086019160081c16151581526003840154916080860192835260048501549360a0870194855260ff600e60058801549760c08a01988952600681015460e08b015260078101546101008b015260088101546101208b015260098101546101408b0152600a8101546101608b015282600b8201541615156101808b0152600c8101546101a08b0152600d8101546101c08b0152015416151588880152604051988952516020890152511515604088015251151560608701525160808601525160a08501525160c084015260e081015160e084015261010081015161010084015261012081015161012084015261014081015161014084015261016081015161016084015261018081015115156101808401526101a08101516101a08401526101c08101516101c0840152015115156101e0820152f35b50346107d05760403660031901126107d05760043560243567ffffffffffffffff811161065f573660238201121561065f5780600401359167ffffffffffffffff8311611362576024820191602436918560051b0101116113625761112b613a97565b611134816135c0565b508054604080516331d98b3f60e01b81526004810192909252919391816024817f00000000000000000000000000000000000000000000000000000000000000006001600160a01b03165afa9081156113b9578691611389575b50855b8581106111ad578660015f80516020614d2a8339815191525580f35b6111c16111bb828886613a37565b356135a4565b5090600e8201805460ff811615801561137b575b61137057600d8401548015159081611366575b506112445750508160ff60026001940154165f146112375760058101548411155b611216575b505b01611191565b611231906005611227848b89613a37565b3591015490614238565b5f61120e565b6005810154841015611209565b60ff1916905587612710611261600385015460048a015490613941565b845460048601546001600160a01b037f00000000000000000000000000000000000000000000000000000000000000008116949216926112a392900490613968565b823b1561136257604051639101e5b360e01b81526001600160a01b0392909216600483015260248201529082908290604490829084905af1801561065457611349575b50506001916112f6828987613a37565b3590838060a01b03905416907ff2820c9274d611a15d979823ac23bb965c1972a808eebd952297d9bd3a60f4b86060604051602081526007602082015266195e1c1a5c995960ca1b6040820152a3611210565b816113539161367f565b61135e57875f6112e6565b8780fd5b8380fd5b905042115f6111e8565b505060019150611210565b5086600185015414156111d5565b6113ab915060403d6040116113b2575b6113a3818361367f565b81019061379d565b505f61118e565b503d611399565b6040513d88823e3d90fd5b50346107d05760203660031901126107d0576001600160a01b036113e661351c565b168152600860205260408120604051918260208354918281520192825260208220915b8181106114305761142c856114208187038261367f565b60405191829182613532565b0390f35b8254845260209093019260019283019201611409565b50346107d05760203660031901126107d05780546001600160a01b0316331480156114f3575b611475906139fa565b600c546001600160a01b031680156114bd578082913b15610e9957818091602460405180948193630f6baa0f60e21b835260043560048401525af1801561065457610e6f5750f35b60405162461bcd60e51b815260206004820152600e60248201526d149bdd5d195c881b9bdd081cd95d60921b6044820152606490fd5b50600c546001600160a01b0316331461146c565b50346107d05760203660031901126107d0576004356004548110156116605761152f906135c0565b5080549061153f600182016136a1565b60e052600281015460a05260038101546101005260048101549160058201546006830154600784015460088501546009860154600a87015490600b88015492600c89015494600d8a015496600e8b015498600f8c015460ff169a60108d01549c6011015460805260405160c05260c0515260c051602001610240905260c0516102400160e051906115cf91613741565b9c60a05160c051604001526101005160c0516060015260c0516080015260c05160a0015260c05160c0015260c05160e0015260c051610100015260c051610120015260c051610140015260c051610160015260c051610180015260c0516101a0015260c0516101c00152151560c0516101e0015260c051610200015260805160c051610220015260c051900360c051f35b5080fd5b50346107d057806003193601126107d0576020604051620151808152f35b50346107d05760203660031901126107d057600435600654811015611660576116aa906135a4565b50600160a01b6001900381541660018201549160028101549160038201546004830154600584015460068501546007860154600887015491600988015493600a89015495600b8a015460ff1697600c8b015499600d8c01549b600e015460ff169c6040519e8f928352602083015260ff81161515604083015260081c60ff161515906060015260808d015260a08c015260c08b015260e08a015261010089015261012088015261014087015261016086015215156101808501526101a08401526101c083015215156101e082015261020090f35b50346107d05760203660031901126107d05760043561179b613a97565b6117a48161356b565b506117b560ff600c83015416613904565b6117c260018201546135c0565b5054604080516331d98b3f60e01b81526004810192909252909190826024817f00000000000000000000000000000000000000000000000000000000000000006001600160a01b03165afa91821561191d5784926118fb575b5060098101549081151591826118d7575b50600a81015480151591826118b5575b505081156118ad575b50156118685761185491613e84565b60015f80516020614d2a8339815191525580f35b60405162461bcd60e51b815260206004820152601960248201527f506572703a2054502f534c206e6f7420747269676765726564000000000000006044820152606490fd5b90505f611845565b6002015490915060ff16156118cf578211155b5f8061183c565b8210156118c8565b90915060ff6002830154165f146118f3578210155b905f61182c565b8211156118ec565b61191591925060403d6040116113b2576113a3818361367f565b50905f61181b565b6040513d86823e3d90fd5b50346107d05760203660031901126107d057600435611945613a97565b61194d613acf565b6119568161356b565b5080546001600160a01b03163303611a155760018161197e60ff600c61198595015416613904565b01546135c0565b5054604080516331d98b3f60e01b81526004810192909252909190826024817f00000000000000000000000000000000000000000000000000000000000000006001600160a01b03165afa908115611a0a576118549284926119e8575b50613e84565b611a0291925060403d6040116113b2576113a3818361367f565b50905f6119e2565b6040513d85823e3d90fd5b60405162461bcd60e51b815260206004820152601760248201527f506572703a206e6f7420796f757220706f736974696f6e0000000000000000006044820152606490fd5b50346107d05760203660031901126107d057600435906005548210156107d0576101a0611a868361356b565b5060018060a01b038154169060018101549060ff6002820154166003820154600483015460058401546006850154600786015491600887015493600988015495600a8901549760ff600c600b8c01549b0154169a6040519c8d5260208d0152151560408c015260608b015260808a015260a089015260c088015260e08701526101008601526101208501526101408401526101608301521515610180820152f35b50346107d05760403660031901126107d0577f14322e55ae7289adb87bd368b7154ae08e0a7c71a9ce11f8451b9ed9c5bb5d036040611b6461351c565b611b6c6134df565b90611b75613e5e565b60018060a01b031690600254901515908260ff60a01b8360a01b16916affffffffffffffffffffff60a81b16171760025582519182526020820152a180f35b50346107d057806003193601126107d057546040516001600160a01b039091168152602090f35b50346107d05760403660031901126107d057611bf561351c565b6001600160a01b03168152600760205260408120805460243592908310156107d0576020611c2384846134b6565b90549060031b1c604051908152f35b50346107d057806003193601126107d05760055490600182018092116108aa57602082604051908152f35b50346107d05760203660031901126107d057611c77613e5e565b600f611c846004356135c0565b5001805460ff1916600117905580f35b50346107d057806003193601126107d057611cad613e5e565b611cb5613acf565b6001805460ff60a01b1916600160a01b1790556040513381527f62e78cea01bee320cd4e420270b5ea74000d11b0c9f74754ebdbfc544b05a25890602090a180f35b50346107d05760403660031901126107d057611d1161351c565b6001600160a01b03168152600860205260408120805460243592908310156107d0576020611c2384846134b6565b50346107d05760403660031901126107d0576020906040906001600160a01b03611d6761351c565b168152600b8352818120602435825283522054604051908152f35b50346107d057806003193601126107d057600c546040516001600160a01b039091168152602090f35b50346107d057806003193601126107d0576040517f00000000000000000000000000000000000000000000000000000000000000006001600160a01b03168152602090f35b50346107d05760203660031901126107d057611e0a61351c565b611e12613e5e565b60018060a01b03166001600160601b0360a01b600c541617600c5580f35b50346107d057806003193601126107d057600154336001600160a01b0390911603611ea257600180546001600160a01b0319908116909155815433918116821783556001600160a01b03167f8be0079c531659141344cd1fd0a4f28419497f9722a3daafe3b4186f6b6457e08380a380f35b63118cdaa760e01b815233600452602490fd5b50346107d057806003193601126107d057611ece613e5e565b600180546001600160a01b03199081169091558154908116825581906001600160a01b03167f8be0079c531659141344cd1fd0a4f28419497f9722a3daafe3b4186f6b6457e08280a380f35b50346107d05760e03660031901126107d057611f346134df565b611f3c613a97565b611f44613acf565b620151804201918242116108aa5760206105fa8460c43560a43560843560643560443589600435613b21565b50346107d05760203660031901126107d057600435611f8e816135c0565b50600c8101908154617080810180911161217c574210612145578054604080516331d98b3f60e01b81526004810192909252816024817f00000000000000000000000000000000000000000000000000000000000000006001600160a01b03165afa801561213a5761211c575b50600881015461201960098301546120138184613982565b92613968565b9081156120ee576064810290808205606414901517156120da57916120627fbaa2407f72df09d47ca97fc6a9dd52660a0c1a6a6717c1c4b92ef21e77cfdc1e94926040946139bc565b915b606483136120d1575b60631983126120c7575b600b82018390554290558582126120a857600d01612096828254613968565b90555b8151908152426020820152a280f35b6120c0600e6120b6846139ea565b9201918254613968565b9055612099565b6063199250612077565b6064925061206d565b634e487b7160e01b86526011600452602486fd5b50507fbaa2407f72df09d47ca97fc6a9dd52660a0c1a6a6717c1c4b92ef21e77cfdc1e916040918591612064565b6121349060403d6040116113b2576113a3818361367f565b50611ffb565b6040513d87823e3d90fd5b60405162461bcd60e51b815260206004820152600f60248201526e506572703a20746f6f206561726c7960881b6044820152606490fd5b634e487b7160e01b85526011600452602485fd5b50346107d05760203660031901126107d0576001600160a01b036121b261351c565b168152600760205260408120604051918260208354918281520192825260208220915b8181106121ec5761142c856114208187038261367f565b82548452602090930192600192830192016121d5565b50346107d05760203660031901126107d05761221c61351c565b612224613e5e565b60018060a01b03166001600160601b0360a01b600354161760035580f35b50346107d057806003193601126107d057602060ff60015460a01c166040519015158152f35b50346107d057806003193601126107d05760206040516170808152f35b50346107d057806003193601126107d05760206040516101f48152f35b50346107d05760203660031901126107d0576004356122bf613a97565b6122c8816135a4565b5080546001600160a01b031633036124a357600e8101805460ff8116156124675760ff19169055600381018381549261234e61271061231a6001840196600461231189546135c0565b50015490613941565b04600460018060a01b037f000000000000000000000000000000000000000000000000000000000000000016930154613968565b90803b1561065f57604051639101e5b360e01b8152336004820152602481019290925282908290604490829084905af1801561065457612452575b5050338452600b6020526040842091549182855260205260408420549054809110155f1461244a576123d190338552600b602052604085208386526020526040852054613975565b905b338452600b6020526040842090845260205260408320556040519060208252600e60208301526d1d5cd95c8818d85b98d95b1b195960921b60408301527ff2820c9274d611a15d979823ac23bb965c1972a808eebd952297d9bd3a60f4b860603393a360015f80516020614d2a8339815191525580f35b5082906123d3565b8161245c9161367f565b61136257835f612389565b60405162461bcd60e51b815260206004820152601460248201527314195c9c0e88185b1c9958591e4818db1bdcd95960621b6044820152606490fd5b60405162461bcd60e51b81526020600482015260146024820152732832b9381d103737ba103cb7bab91037b93232b960611b6044820152606490fd5b50346107d057806003193601126107d05760206040516103e88152f35b50346107d057806003193601126107d0576002546040516001600160a01b039091168152602090f35b50346107d05760203660031901126107d057600435612542613a97565b61254b8161356b565b509061255d60ff600c84015416613904565b81546001600160a01b03163314612a1d5761257b60018301546135c0565b5054604080516331d98b3f60e01b81526004810192909252909290836024817f00000000000000000000000000000000000000000000000000000000000000006001600160a01b03165afa92831561191d5784936129f8575b508060ff60026008930154165f146129ee5701548211155b156129b0576125fa8161356b565b506001810154612609816135c0565b50600c8301805460ff1916905582546001600160a01b0316808752600b60209081526040808920858a5290915287205460038501805490949181116129a85761266890838a52600b60205260408a20838b5260205260408a2054613975565b915b8852600b602052604088209088526020526040872055856126fa6002850160ff8154165f1461297f576008840180548654808210612976576126ab91613975565b905b555b60ff6126bb8988613a47565b9154161561296c57600d8401545b600687015490808211612940576126eb662386f26fc10000926126f392613975565b875490613941565b0490613982565b84546001600160a01b037f000000000000000000000000000000000000000000000000000000000000000081169592911690853b1561136257604051916362990d2f60e01b835260048301526024820152828160448183895af1908115611a0a57839161292b575b505084546004860180549094916001600160a01b0316863b1561292757604051639101e5b360e01b81526001600160a01b0391909116600482015260248101919091528381604481838a5af190811561191d578491612912575b50506127dc61271091600460018060a01b03895416945491015490613941565b0490843b1561065f57604051630bb03fdb60e21b81526001600160a01b039190911660048201526024810191909152818160448183885af18015610654576128f9575b50503361287d575b5050546040805133815260208101949094526001600160a01b03909116927f9f843df2e2b0c791e0c3993c883e11d06a6fcc960fb3a2765a6f4ab8a1bd07ca9190a360015f80516020614d2a8339815191525580f35b546101f48102908082046101f414901517156120da5782548692916001600160a01b0390911690823b1561136257606484928361271095604051968795869463167310cf60e01b865260048601523360248601520460448401525af18015610654571561282757816128ee9161367f565b61136257835f612827565b816129039161367f565b61290e57855f61281f565b8580fd5b8161291c9161367f565b61065f57825f6127bc565b8480fd5b816129359161367f565b61166057815f612762565b612960612958662386f26fc100009261296694613975565b885490613941565b046139ea565b90613982565b600e8401546126c9565b505083906126ad565b600984018054865480821061299f5761299791613975565b905b556126af565b50508390612999565b50879161266a565b60405162461bcd60e51b8152602060048201526016602482015275506572703a206e6f74206c6971756964617461626c6560501b6044820152606490fd5b01548210156125ec565b6008919350612a159060403d6040116113b2576113a3818361367f565b5092906125d4565b606460405162461bcd60e51b815260206004820152602060248201527f506572703a2073656c662d6c69717569646174696f6e20666f7262696464656e6044820152fd5b50346107d057806003193601126107d057612a7a613e5e565b60015460ff8160a01c1615612ac25760ff60a01b19166001556040513381527f5db9ee0a495bf2e6ff9c91a7834c1ba4fdd244a5e8aa4e537bd38aeae4b073aa90602090a180f35b638dfc202b60e01b8252600482fd5b50346107d05760603660031901126107d0576004357f556079cdcafac41390a4af41101fa806590aefd70725513ad900a1df6ef488796040602435604435612b17613e5e565b612b2460045486106138c5565b603282111580612b64575b612b3890613864565b816003612b44876135c0565b500155806004612b53876135c0565b50015582519182526020820152a280f35b506064811115612b2f565b50346107d05760a03660031901126107d057600435602435604435606435906084359360018060a01b0386541633148015612c47575b15612c0b57612bc090612bbb60045482106138c5565b6135c0565b509280612c00575b5080612bf5575b5080612bea575b5081612be0578280f35b600701555f808280f35b60068201555f612bd6565b600a8301555f612bcf565b60028401555f612bc8565b60405162461bcd60e51b815260206004820152601460248201527314195c9c0e881b9bdd08185d5d1a1bdc9a5e995960621b6044820152606490fd5b506003546001600160a01b03163314612ba5565b50346107d057806003193601126107d05760206040516127108152f35b50346107d0576101203660031901126107d05760043567ffffffffffffffff811161166057612cab9036906004016134ee565b608435916064359160c435612cbe613e5e565b6032841115806130bd575b612cd290613864565b60016044351015806130af575b1561306a576004549460405194612cf586613614565b602435865267ffffffffffffffff841161302a57604051612d20601f8601601f19166020018261367f565b848152368587011161306657848660208301378860208683010152602087015260443560408701526060860152608085015260a43560a08501528060c085015260e08401528461010084015284610120840152610104356101408401528461016084015242610180840152846101a0840152846101c084015260016101e08401528461020084015284610220840152600160401b8410156130525760018401600455612dcb846135c0565b61303e5783518155602084015180519067ffffffffffffffff821161302a57612df760018401546135dc565b601f8111612fe6575b5060209787959493929189916001601f851114612f4e579280610220937f2d1e9ad45dbe8e898e0374deebf2a661b2ae7c1855d2a29507d584c35d287c75999a9360119692612f43575b50508160011b915f199060031b1c19161760018501555b60408101516002850155606081015160038501556080810151600485015560a0810151600585015560c0810151600685015560e0810151600785015561010081015160088501556101208101516009850155610140810151600a850155610160810151600b850155610180810151600c8501556101a0810151600d8501556101c0810151600e850155612f0a6101e08201511515600f86019060ff801983541691151516179055565b61020081015160108501550151910155612f316040519283926040845260408401916138a5565b604435878301520390a2604051908152f35b015190505f80612e4a565b9060018599949399018252888220915b601f1984168110612fcc575082601194927f2d1e9ad45dbe8e898e0374deebf2a661b2ae7c1855d2a29507d584c35d287c75999a60019361022096601f19811610612fb4575b505050811b016001850155612e61565b01515f1960f88460031b161c191690555f8080612fa4565b818a01518355988b01988a98506001909201918b01612f5e565b60018401895260208920601f840160051c810160208510613023575b601f830160051c82018110613018575050612e00565b8a8155600101613002565b5080613002565b634e487b7160e01b88526041600452602488fd5b634e487b7160e01b86526004869052602486fd5b634e487b7160e01b85526041600452602485fd5b8880fd5b60405162461bcd60e51b815260206004820152601b60248201527f506572703a206d6178206c6576657261676520697320323030307800000000006044820152606490fd5b506107d06044351115612cdf565b506064851115612cc9565b50346107d0576130d7366134a0565b919081526009602052604081209081548310156107d0576020611c2384846134b6565b50346107715760c0366003190112610771576131146134df565b60443590613120613a97565b613128613acf565b6131336004356135c0565b5060ff600f8201541615610793576003546001600160a01b0316801561342557602460206002840154926040519283809263c82f4ce960e01b82523360048301525afa9081156133d4575f916133f3575b50808210156133ec57505b6001606435101590816133df575b50156106e55782156106a8576131b560643584613941565b90335f52600b60205260405f206004355f526020526131d88260405f2054613968565b6131e5600a830154614689565b10610663576131fb600461271092015483613941565b7f00000000000000000000000000000000000000000000000000000000000000006001600160a01b031691613231910485613968565b90803b156107715760405163a5bce37960e01b815233600482015260248101929092525f908290604490829084905af180156133d4576133bf575b50600654926040519061327e82613645565b3382526004356020830152831515604083015285606083015282608083015260a08201528460c082015260843560e082015260a435610100820152606435610120820152846101408201528461016082015284610180820152426101a0820152846101c082015260016101e0820152600160401b8410156130525760018401600655613309846135a4565b91909161303e57604060209661336e61337b94600e6101e08a9660018060a01b0360018060a01b03825116166001600160601b0360a01b8554161784558c8101516001850155600284016104f1888301511515829060ff801983541691151516179055565b3381526008885220613aed565b6040519160043583521515848301526040820152817f64c70539bf3ad0f5861d7cf62e01467aa1ff8ebf166149075ec593f067be03d960603393a36105fa81614715565b6133cc9194505f9061367f565b5f925f61326c565b6040513d5f823e3d90fd5b905060643511155f61319d565b905061318f565b90506020813d60201161341d575b8161340e6020938361367f565b8101031261077157515f613184565b3d9150613401565b50600281015461318f565b3461077157602036600319011261077157602061344e6004356137b3565b604051908152f35b34610771575f36600319011261077157602060405160648152f35b346107715761347f366134a0565b905f52600a60205260405f20805482101561077157602091611c23916134b6565b6040906003190112610771576004359060243590565b80548210156134cb575f5260205f2001905f90565b634e487b7160e01b5f52603260045260245ffd5b60243590811515820361077157565b9181601f840112156107715782359167ffffffffffffffff8311610771576020838186019501011161077157565b600435906001600160a01b038216820361077157565b60206040818301928281528451809452019201905f5b8181106135555750505090565b8251845260209384019390920191600101613548565b6005548110156134cb5760055f52600d60205f20910201905f90565b34610771575f366003190112610771576020600454604051908152f35b6006548110156134cb5760065f52600f60205f20910201905f90565b6004548110156134cb5760045f52601260205f20910201905f90565b90600182811c9216801561360a575b60208310146135f657565b634e487b7160e01b5f52602260045260245ffd5b91607f16916135eb565b610240810190811067ffffffffffffffff82111761363157604052565b634e487b7160e01b5f52604160045260245ffd5b610200810190811067ffffffffffffffff82111761363157604052565b6101a0810190811067ffffffffffffffff82111761363157604052565b90601f8019910116810190811067ffffffffffffffff82111761363157604052565b9060405191825f8254926136b4846135dc565b808452936001811690811561371f57506001146136db575b506136d99250038361367f565b565b90505f9291925260205f20905f915b8183106137035750509060206136d9928201015f6136cc565b60209193508060019154838589010152019101909184926136ea565b9050602092506136d994915060ff191682840152151560051b8201015f6136cc565b805180835260209291819084018484015e5f828201840152601f01601f1916010190565b61010090600319011261077157600435906024358015158103610771579060443590606435906084359060a4359060c4359060e43590565b9190826040910312610771576020825192015190565b6137bc9061356b565b5060ff600c820154161561385f576137d760018201546135c0565b5054604080516331d98b3f60e01b81526004810192909252909190826024817f00000000000000000000000000000000000000000000000000000000000000006001600160a01b03165afa9081156133d45761383a925f9261383d575b50613a47565b90565b61385791925060403d6040116113b2576113a3818361367f565b50905f613834565b505f90565b1561386b57565b60405162461bcd60e51b81526020600482015260126024820152710a0cae4e07440cccaca40e8dede40d0d2ced60731b6044820152606490fd5b908060209392818452848401375f828201840152601f01601f1916010190565b156138cc57565b60405162461bcd60e51b815260206004820152601060248201526f14195c9c0e88189859081b585c9ad95d60821b6044820152606490fd5b1561390b57565b60405162461bcd60e51b815260206004820152600e60248201526d2832b9381d103737ba1037b832b760911b6044820152606490fd5b8181029291811591840414171561395457565b634e487b7160e01b5f52601160045260245ffd5b9190820180921161395457565b9190820391821161395457565b81810392915f13801582851316918412161761395457565b81810292915f8212600160ff1b82141661395457818405149015171561395457565b81156139d657600160ff1b81145f19831416613954570590565b634e487b7160e01b5f52601260045260245ffd5b600160ff1b8114613954575f0390565b15613a0157565b60405162461bcd60e51b815260206004820152600e60248201526d139bdd08185d5d1a1bdc9a5e995960921b6044820152606490fd5b91908110156134cb5760051b0190565b9060ff6002830154165f14613a7c57613a7782613a716005600361383a9601549201548094613982565b9061399a565b6139bc565b613a7782613a716005600361383a9601549201549384613982565b60025f80516020614d2a8339815191525414613ac05760025f80516020614d2a83398151915255565b633ee5aeb560e01b5f5260045ffd5b60ff60015460a01c16613ade57565b63d93c066560e01b5f5260045ffd5b8054600160401b81101561363157613b0a916001820181556134b6565b819291549060031b91821b915f19901b1916179055565b95939094919297965f94613b34886135c0565b509360ff600f8601541615610793576003546001600160a01b03168015613e5357602460206002880154926040519283809263c82f4ce960e01b82523360048301525afa9081156133d4575f91613e21575b5080821015613e1a57505b60018c10159081613e0f575b50156106e55785156106a857613bb38b87613941565b94335f52600b60205260405f208a5f52602052613bd48660405f2054613968565b613be1600a830154614689565b1061066357613bf7600461271092015487613941565b7f00000000000000000000000000000000000000000000000000000000000000006001600160a01b031691613c2d910488613968565b90803b156107715760405163a5bce37960e01b815233600482015260248101929092525f908290604490829084905af180156133d457613dfa575b506006549a60405194613c7a86613645565b3386528a6020870152891515978860408801526001606088015287608088015260a087015260c08601528760e08601528761010086015261012085015261014084015261016083015284610180830152426101a08301526101c082015260016101e0820152600160401b881015613de65760018801600655613cfb886135a4565b919091613dd257805182546001600160a01b039091166001600160a01b031990911617825560208101516001830155604081015160028301805460ff191691151560ff16919091178155613d579291600e916101e091906104f1565b3383526008602052613d6c8760408520613aed565b6040519185835260208301526040820152857f64c70539bf3ad0f5861d7cf62e01467aa1ff8ebf166149075ec593f067be03d960603393a35015613dbe575f5260096020526136d98260405f20613aed565b5f52600a6020526136d98260405f20613aed565b634e487b7160e01b85526004859052602485fd5b634e487b7160e01b84526041600452602484fd5b613e079197505f9061367f565b5f955f613c68565b90508b11155f613b9d565b9050613b91565b90506020813d602011613e4b575b81613e3c6020938361367f565b8101031261077157515f613b86565b3d9150613e2f565b506002850154613b91565b5f546001600160a01b03163303613e7157565b63118cdaa760e01b5f523360045260245ffd5b5f613e8e8261356b565b50600181015491613e9e836135c0565b50600c8301805460ff1916905582546001600160a01b03165f818152600b60209081526040808320888452909152902054600385018054939690939091811161423057613f0190835f52600b60205260405f20835f5260205260405f2054613975565b915b5f52600b60205260405f20905f5260205260405f2055613f8b6002840160ff8154165f146142075760088601805484548082106141fe57613f4391613975565b905b555b60ff613f538987613a47565b915416156141f457600d8601545b6006860154908082116141d457613f83662386f26fc10000926126f392613975565b855490613941565b835490946001600160a01b037f0000000000000000000000000000000000000000000000000000000000000000811693919216833b1561077157604051906362990d2f60e01b825260048201528660248201525f8160448183885af180156133d4576141bf575b5084546004860180549093916001600160a01b0316853b156141bb57604051639101e5b360e01b81526001600160a01b039190911660048201526024810191909152858160448183895af180156113b9579086916141a6575b505061406b61271091600460018060a01b03895416945491015490613941565b0490833b1561292757604051630bb03fdb60e21b81526001600160a01b039190911660048201526024810191909152838160448183875af1801561191d5790848092614191575b50506140fe575b505090546040805193845260208401959095526001600160a01b0316937f7a0db93fde80eea902af70e15fa590136ec8ea44fbc9de1a71175446513213f592909150a3565b54906101f48202918083046101f4149015171561417d5783546001600160a01b031690803b156113625791606484928361271095604051968795869463167310cf60e01b865260048601528360248601520460448401525af1801561065457614168575b806140b9565b61417382809261367f565b6107d0575f614162565b634e487b7160e01b83526011600452602483fd5b61419a9161367f565b61065f57825f816140b2565b816141b09161367f565b61292757845f61404b565b8680fd5b6141cc9194505f9061367f565b5f925f613ff2565b6129606141ec662386f26fc100009261296694613975565b865490613941565b600e860154613f61565b50505f90613f45565b60098601805484548082106142275761421f91613975565b905b55613f47565b50505f90614221565b505f91613f03565b614241816135a4565b50600e81019160ff8354161561464d576001820161425f81546135c0565b5094600284019560ff8754165f146145df576008810180546003870161428781548093613968565b6006850154106145a65761429e6142a69285614c11565b548254613968565b90555b600885016142c38154600584015460ff8b54169186614cd4565b6005549760ff1981541690556003870194855460018060a01b038954165f52600b60205260405f2082545f5260205261430160405f20918254613968565b905560018060a01b0388541690549260ff8b5416928754918a600481015492865f1461459b57600d890154925b54600a6009840154930154936040519761434789613662565b885260208801998a52604088019815158952606088019687526080880195865260a088018c815260c0890191825260e089019283526101008901938452610120890194855261014089019586526101608901964288526101808a019860018a52600554600160401b811015613631578060016143c6920160055561356b565b9c909c614588579a518c546001600160a01b0319166001600160a01b03909116178c559b5160018c0155985160028b01805460ff921515831660ff19918216179091559b5160038c0155985160048b01555160058a015551600689015551600788015551600887015551600986015551600a85015551600b84015551600c90920180549215159091169190921617905560018060a01b038554165f5260076020526144748660405f20613aed565b845483546004909201547f00000000000000000000000000000000000000000000000000000000000000006001600160a01b0390811693921691612710916144bb91613941565b04823b1561077157604051630bb03fdb60e21b81526001600160a01b039290921660048301526024820152905f908290604490829084905af19485156133d4578660609560ff937fb25ffb9cfe217dd53cc1cee569fcc345258ab1d881ee1c4b0629d2672bb0146898614578575b507fc75938696bc974b3973ac0c1440e2ee3e9240af3b97c884edc4dc153be013e7b6020604051878152a360018060a01b039054169654169154604051921515835260208301526040820152a3565b5f6145829161367f565b5f614529565b634e487b7160e01b5f525f60045260245ffd5b600e8901549261432e565b60405162461bcd60e51b81526020600482015260116024820152700506572703a206c6f6e67204f492063617607c1b6044820152606490fd5b600981018054600387016145f581548093613968565b6007850154106146135761429e61460c9285614c11565b90556142a9565b60405162461bcd60e51b81526020600482015260126024820152710506572703a2073686f7274204f49206361760741b6044820152606490fd5b60405162461bcd60e51b81526020600482015260146024820152732832b9381d1037b93232b9103737ba1037b832b760611b6044820152606490fd5b6003546001600160a01b031680156146df57602060249160405192838092637207c7e760e01b82523360048301525afa9081156133d4575f916146e3575b5080156146df57808210156146da575090565b905090565b5090565b90506020813d60201161470d575b816146fe6020938361367f565b8101031261077157515f6146c7565b3d91506146f1565b61471e816135a4565b509161472d60018401546135c0565b5091825493604051916331d98b3f60e01b835285600484015260408360248160018060a01b037f0000000000000000000000000000000000000000000000000000000000000000165afa9283156133d4575f93614bef575b50600682015480614ba6575b50600782015480614b5d575b505f936147a9826135a4565b509160ff60028401541696875f14614b445760018401545f52600a60205260405f20949893985b600654945f5b8754811080614b37575b156148a057866147f0828a6134b6565b90549060031b1c101561489b5761481661480a828a6134b6565b90549060031b1c6135a4565b5060ff600e8201541615801561487b575b614875578b156148685760058101548a11155b614851575b505b5f198114613954576001016147d6565b996003614861929b015490613968565b985f61483f565b60058101548a101561483a565b50614841565b50600d8101548015159081614891575b50614827565b905042115f61488b565b614841565b509399919550935060039197509594950154808511614b2f575b506003820193845480911080614b20575b80614b0c575b6148e4575b50505050506136d991614238565b6002546040516378f504f960e01b815260048101939093526001600160a01b0316602083602481845afa9283156133d4575f93614acf575b5082614a68575b505080614a57575b6149365780806148d6565b90919250600e810160ff198154169055602060018060a01b03600254169260a460018060a01b0384541691549166038d7ea4c6800060ff600287015416966004870154600888015490604051998a978896630b9adb2f60e41b88526004880152602487015215156044860152606485015260848401525af19182156133d4575f92614a03575b50907f6991b742b6daa149d73e8891b0cd2d83eef64a257aa1655dcd1ad8bce24edd859260609260018060a01b0390541690549060405192835260208301526040820152a2565b91506020823d602011614a4f575b81614a1e6020938361367f565b81010312610771579051907f6991b742b6daa149d73e8891b0cd2d83eef64a257aa1655dcd1ad8bce24edd856149bc565b3d9150614a11565b5066038d7ea4c6800047101561492b565b60405163282cc20160e01b81529250602090839060049082905afa9182156133d4575f92614a9b575b5010155f80614923565b9091506020813d602011614ac7575b81614ab76020938361367f565b810103126107715751905f614a91565b3d9150614aaa565b9092506020813d602011614b04575b81614aeb6020938361367f565b810103126107715751801515810361077157915f61491c565b3d9150614ade565b506002546001600160a01b031615156148d1565b5060ff60025460a01c166148cb565b93505f6148ba565b5060038c01548a106147e0565b60018401545f52600960205260405f20949893986147d0565b8311614b69575f61479d565b60405162461bcd60e51b81526020600482015260156024820152740a0cae4e07440e0e4d2c6ca40c2c4deecca40dac2f605b1b6044820152606490fd5b8310614bb2575f614791565b60405162461bcd60e51b81526020600482015260156024820152742832b9381d10383934b1b2903132b637bb9036b4b760591b6044820152606490fd5b614c0991935060403d6040116113b2576113a3818361367f565b50915f614785565b90614c4f906010830180544303614cc5575b50614c4a6011840193614c37838654613968565b8095556009600882015491015490613968565b613968565b6103e88102908082046103e814901517156139545761271090049064e8d4a5100082018092116139545711614c8057565b60405162461bcd60e51b815260206004820152601d60248201527f506572703a204f49206368616e676520726174652065786365656465640000006044820152606490fd5b4390555f60118401555f614c23565b929181156139d657614ce99161271004613968565b9015614d0e57612710039061271082116139545761271091614d0a91613941565b0490565b612710019081612710116139545761271091614d0a9161394156fe9b779b17422d0df92223018b32b4d1fa46e071723d6817e2486d003becc55f00a2646970667358221220ba295ffafa8d2f7a86bd2e9bcab918058ee2c9a6edace5d4c3b276dc64d5d17064736f6c634300081a0033",
  "linkReferences": {},
  "deployedLinkReferences": {}
}