{
  "_format": "hh-sol-artifact-1",
  "contractName": "WikiBridge",
  "sourceName": "src/WikiBridge.sol",
  "abi": [
    {
      "inputs": [
        {
          "internalType": "address",
          "name": "_lzEndpoint",
          "type": "address"
        },
        {
          "internalType": "address",
          "name": "_owner",
          "type": "address"
        }
      ],
      "stateMutability": "nonpayable",
      "type": "constructor"
    },
    {
      "inputs": [
        {
          "internalType": "address",
          "name": "owner",
          "type": "address"
        }
      ],
      "name": "OwnableInvalidOwner",
      "type": "error"
    },
    {
      "inputs": [
        {
          "internalType": "address",
          "name": "account",
          "type": "address"
        }
      ],
      "name": "OwnableUnauthorizedAccount",
      "type": "error"
    },
    {
      "inputs": [],
      "name": "ReentrancyGuardReentrantCall",
      "type": "error"
    },
    {
      "inputs": [
        {
          "internalType": "address",
          "name": "token",
          "type": "address"
        }
      ],
      "name": "SafeERC20FailedOperation",
      "type": "error"
    },
    {
      "anonymous": false,
      "inputs": [
        {
          "indexed": true,
          "internalType": "bytes32",
          "name": "guid",
          "type": "bytes32"
        },
        {
          "indexed": true,
          "internalType": "address",
          "name": "recipient",
          "type": "address"
        },
        {
          "indexed": false,
          "internalType": "address",
          "name": "token",
          "type": "address"
        },
        {
          "indexed": false,
          "internalType": "uint256",
          "name": "amount",
          "type": "uint256"
        },
        {
          "indexed": false,
          "internalType": "uint32",
          "name": "srcEid",
          "type": "uint32"
        }
      ],
      "name": "BridgeReceived",
      "type": "event"
    },
    {
      "anonymous": false,
      "inputs": [
        {
          "indexed": true,
          "internalType": "bytes32",
          "name": "transferId",
          "type": "bytes32"
        },
        {
          "indexed": true,
          "internalType": "address",
          "name": "sender",
          "type": "address"
        }
      ],
      "name": "BridgeRefunded",
      "type": "event"
    },
    {
      "anonymous": false,
      "inputs": [
        {
          "indexed": true,
          "internalType": "bytes32",
          "name": "transferId",
          "type": "bytes32"
        },
        {
          "indexed": true,
          "internalType": "address",
          "name": "sender",
          "type": "address"
        },
        {
          "indexed": false,
          "internalType": "address",
          "name": "token",
          "type": "address"
        },
        {
          "indexed": false,
          "internalType": "uint256",
          "name": "amount",
          "type": "uint256"
        },
        {
          "indexed": false,
          "internalType": "uint32",
          "name": "destEid",
          "type": "uint32"
        },
        {
          "indexed": false,
          "internalType": "address",
          "name": "destAddress",
          "type": "address"
        },
        {
          "indexed": false,
          "internalType": "bytes32",
          "name": "lzGuid",
          "type": "bytes32"
        }
      ],
      "name": "BridgeSent",
      "type": "event"
    },
    {
      "anonymous": false,
      "inputs": [
        {
          "indexed": true,
          "internalType": "address",
          "name": "previousOwner",
          "type": "address"
        },
        {
          "indexed": true,
          "internalType": "address",
          "name": "newOwner",
          "type": "address"
        }
      ],
      "name": "OwnershipTransferStarted",
      "type": "event"
    },
    {
      "anonymous": false,
      "inputs": [
        {
          "indexed": true,
          "internalType": "address",
          "name": "previousOwner",
          "type": "address"
        },
        {
          "indexed": true,
          "internalType": "address",
          "name": "newOwner",
          "type": "address"
        }
      ],
      "name": "OwnershipTransferred",
      "type": "event"
    },
    {
      "anonymous": false,
      "inputs": [
        {
          "indexed": false,
          "internalType": "uint32",
          "name": "eid",
          "type": "uint32"
        },
        {
          "indexed": false,
          "internalType": "bytes32",
          "name": "peer",
          "type": "bytes32"
        }
      ],
      "name": "PeerSet",
      "type": "event"
    },
    {
      "anonymous": false,
      "inputs": [
        {
          "indexed": true,
          "internalType": "address",
          "name": "token",
          "type": "address"
        },
        {
          "indexed": false,
          "internalType": "uint256",
          "name": "feeBps",
          "type": "uint256"
        },
        {
          "indexed": false,
          "internalType": "uint256",
          "name": "dailyLimit",
          "type": "uint256"
        }
      ],
      "name": "TokenConfigured",
      "type": "event"
    },
    {
      "inputs": [],
      "name": "MAX_FEE_BPS",
      "outputs": [
        {
          "internalType": "uint256",
          "name": "",
          "type": "uint256"
        }
      ],
      "stateMutability": "view",
      "type": "function"
    },
    {
      "inputs": [],
      "name": "acceptOwnership",
      "outputs": [],
      "stateMutability": "nonpayable",
      "type": "function"
    },
    {
      "inputs": [
        {
          "internalType": "address",
          "name": "token",
          "type": "address"
        },
        {
          "internalType": "uint256",
          "name": "amount",
          "type": "uint256"
        }
      ],
      "name": "addLiquidity",
      "outputs": [],
      "stateMutability": "nonpayable",
      "type": "function"
    },
    {
      "inputs": [
        {
          "internalType": "address",
          "name": "token",
          "type": "address"
        },
        {
          "internalType": "bool",
          "name": "enabled",
          "type": "bool"
        },
        {
          "internalType": "uint256",
          "name": "feeBps",
          "type": "uint256"
        },
        {
          "internalType": "uint256",
          "name": "minAmount",
          "type": "uint256"
        },
        {
          "internalType": "uint256",
          "name": "dailyLimit",
          "type": "uint256"
        }
      ],
      "name": "configureToken",
      "outputs": [],
      "stateMutability": "nonpayable",
      "type": "function"
    },
    {
      "inputs": [],
      "name": "lzEndpoint",
      "outputs": [
        {
          "internalType": "contract ILayerZeroEndpointV5",
          "name": "",
          "type": "address"
        }
      ],
      "stateMutability": "view",
      "type": "function"
    },
    {
      "inputs": [
        {
          "components": [
            {
              "internalType": "uint32",
              "name": "srcEid",
              "type": "uint32"
            },
            {
              "internalType": "bytes32",
              "name": "sender",
              "type": "bytes32"
            },
            {
              "internalType": "uint64",
              "name": "nonce",
              "type": "uint64"
            }
          ],
          "internalType": "struct Origin",
          "name": "origin",
          "type": "tuple"
        },
        {
          "internalType": "bytes32",
          "name": "guid",
          "type": "bytes32"
        },
        {
          "internalType": "bytes",
          "name": "payload",
          "type": "bytes"
        },
        {
          "internalType": "address",
          "name": "",
          "type": "address"
        },
        {
          "internalType": "bytes",
          "name": "",
          "type": "bytes"
        }
      ],
      "name": "lzReceive",
      "outputs": [],
      "stateMutability": "nonpayable",
      "type": "function"
    },
    {
      "inputs": [
        {
          "internalType": "address",
          "name": "",
          "type": "address"
        }
      ],
      "name": "nonces",
      "outputs": [
        {
          "internalType": "uint256",
          "name": "",
          "type": "uint256"
        }
      ],
      "stateMutability": "view",
      "type": "function"
    },
    {
      "inputs": [],
      "name": "owner",
      "outputs": [
        {
          "internalType": "address",
          "name": "",
          "type": "address"
        }
      ],
      "stateMutability": "view",
      "type": "function"
    },
    {
      "inputs": [],
      "name": "paused",
      "outputs": [
        {
          "internalType": "bool",
          "name": "",
          "type": "bool"
        }
      ],
      "stateMutability": "view",
      "type": "function"
    },
    {
      "inputs": [
        {
          "internalType": "uint32",
          "name": "",
          "type": "uint32"
        }
      ],
      "name": "peers",
      "outputs": [
        {
          "internalType": "bytes32",
          "name": "",
          "type": "bytes32"
        }
      ],
      "stateMutability": "view",
      "type": "function"
    },
    {
      "inputs": [],
      "name": "pendingOwner",
      "outputs": [
        {
          "internalType": "address",
          "name": "",
          "type": "address"
        }
      ],
      "stateMutability": "view",
      "type": "function"
    },
    {
      "inputs": [
        {
          "internalType": "uint32",
          "name": "destEid",
          "type": "uint32"
        },
        {
          "internalType": "uint256",
          "name": "amount",
          "type": "uint256"
        },
        {
          "internalType": "address",
          "name": "token",
          "type": "address"
        },
        {
          "internalType": "address",
          "name": "destAddress",
          "type": "address"
        }
      ],
      "name": "quoteSend",
      "outputs": [
        {
          "internalType": "uint256",
          "name": "nativeFee",
          "type": "uint256"
        }
      ],
      "stateMutability": "view",
      "type": "function"
    },
    {
      "inputs": [
        {
          "internalType": "address",
          "name": "token",
          "type": "address"
        },
        {
          "internalType": "uint256",
          "name": "amount",
          "type": "uint256"
        },
        {
          "internalType": "address",
          "name": "to",
          "type": "address"
        }
      ],
      "name": "removeLiquidity",
      "outputs": [],
      "stateMutability": "nonpayable",
      "type": "function"
    },
    {
      "inputs": [],
      "name": "renounceOwnership",
      "outputs": [],
      "stateMutability": "nonpayable",
      "type": "function"
    },
    {
      "inputs": [
        {
          "internalType": "address",
          "name": "token",
          "type": "address"
        },
        {
          "internalType": "uint256",
          "name": "amount",
          "type": "uint256"
        },
        {
          "internalType": "uint32",
          "name": "destEid",
          "type": "uint32"
        },
        {
          "internalType": "address",
          "name": "destAddress",
          "type": "address"
        }
      ],
      "name": "send",
      "outputs": [
        {
          "internalType": "bytes32",
          "name": "transferId",
          "type": "bytes32"
        }
      ],
      "stateMutability": "payable",
      "type": "function"
    },
    {
      "inputs": [
        {
          "internalType": "bool",
          "name": "_paused",
          "type": "bool"
        }
      ],
      "name": "setPaused",
      "outputs": [],
      "stateMutability": "nonpayable",
      "type": "function"
    },
    {
      "inputs": [
        {
          "internalType": "uint32",
          "name": "eid",
          "type": "uint32"
        },
        {
          "internalType": "bytes32",
          "name": "peer",
          "type": "bytes32"
        }
      ],
      "name": "setPeer",
      "outputs": [],
      "stateMutability": "nonpayable",
      "type": "function"
    },
    {
      "inputs": [
        {
          "internalType": "uint32[]",
          "name": "eids",
          "type": "uint32[]"
        },
        {
          "internalType": "bytes32[]",
          "name": "_peers",
          "type": "bytes32[]"
        }
      ],
      "name": "setPeers",
      "outputs": [],
      "stateMutability": "nonpayable",
      "type": "function"
    },
    {
      "inputs": [
        {
          "internalType": "address",
          "name": "_tl",
          "type": "address"
        }
      ],
      "name": "setTimelock",
      "outputs": [],
      "stateMutability": "nonpayable",
      "type": "function"
    },
    {
      "inputs": [],
      "name": "timelock",
      "outputs": [
        {
          "internalType": "address",
          "name": "",
          "type": "address"
        }
      ],
      "stateMutability": "view",
      "type": "function"
    },
    {
      "inputs": [
        {
          "internalType": "address",
          "name": "",
          "type": "address"
        }
      ],
      "name": "tokens",
      "outputs": [
        {
          "internalType": "bool",
          "name": "enabled",
          "type": "bool"
        },
        {
          "internalType": "uint256",
          "name": "feeBps",
          "type": "uint256"
        },
        {
          "internalType": "uint256",
          "name": "minAmount",
          "type": "uint256"
        },
        {
          "internalType": "uint256",
          "name": "dailyLimit",
          "type": "uint256"
        },
        {
          "internalType": "uint256",
          "name": "dailySent",
          "type": "uint256"
        },
        {
          "internalType": "uint256",
          "name": "dayStart",
          "type": "uint256"
        },
        {
          "internalType": "uint256",
          "name": "totalFees",
          "type": "uint256"
        }
      ],
      "stateMutability": "view",
      "type": "function"
    },
    {
      "inputs": [],
      "name": "totalVolume",
      "outputs": [
        {
          "internalType": "uint256",
          "name": "",
          "type": "uint256"
        }
      ],
      "stateMutability": "view",
      "type": "function"
    },
    {
      "inputs": [
        {
          "internalType": "address",
          "name": "newOwner",
          "type": "address"
        }
      ],
      "name": "transferOwnership",
      "outputs": [],
      "stateMutability": "nonpayable",
      "type": "function"
    },
    {
      "inputs": [
        {
          "internalType": "bytes32",
          "name": "",
          "type": "bytes32"
        }
      ],
      "name": "transfers",
      "outputs": [
        {
          "internalType": "address",
          "name": "sender",
          "type": "address"
        },
        {
          "internalType": "address",
          "name": "token",
          "type": "address"
        },
        {
          "internalType": "uint256",
          "name": "amount",
          "type": "uint256"
        },
        {
          "internalType": "uint32",
          "name": "destEid",
          "type": "uint32"
        },
        {
          "internalType": "address",
          "name": "destAddress",
          "type": "address"
        },
        {
          "internalType": "uint256",
          "name": "nonce",
          "type": "uint256"
        },
        {
          "internalType": "uint256",
          "name": "timestamp",
          "type": "uint256"
        },
        {
          "internalType": "enum WikiBridge.Status",
          "name": "status",
          "type": "uint8"
        }
      ],
      "stateMutability": "view",
      "type": "function"
    },
    {
      "inputs": [
        {
          "internalType": "bytes32",
          "name": "",
          "type": "bytes32"
        }
      ],
      "name": "usedIds",
      "outputs": [
        {
          "internalType": "bool",
          "name": "",
          "type": "bool"
        }
      ],
      "stateMutability": "view",
      "type": "function"
    },
    {
      "inputs": [
        {
          "internalType": "address",
          "name": "token",
          "type": "address"
        },
        {
          "internalType": "address",
          "name": "to",
          "type": "address"
        }
      ],
      "name": "withdrawFees",
      "outputs": [],
      "stateMutability": "nonpayable",
      "type": "function"
    },
    {
      "stateMutability": "payable",
      "type": "receive"
    }
  ],
  "bytecode": "0x60a0806040523461014857604081611d05803803809161001f828561015f565b8339810103126101485761003281610196565b906001600160a01b039061004890602001610196565b16801561014c57600180546001600160a01b03199081169091555f805491821683178155604051939183916001600160a01b03909116907f8be0079c531659141344cd1fd0a4f28419497f9722a3daafe3b4186f6b6457e09080a360017f9b779b17422d0df92223018b32b4d1fa46e071723d6817e2486d003becc55f00556001600160a01b03166080819052803b15610148576024835f8193819563ca5eb5e160e01b845260048401525af1801561013d5761012d575b604051611b5a90816101ab823960805181818161047401528181610f090152818161128501526116a60152f35b5f6101379161015f565b5f610100565b6040513d5f823e3d90fd5b5f80fd5b631e4fbdf760e01b5f525f60045260245ffd5b601f909101601f19168101906001600160401b0382119082101761018257604052565b634e487b7160e01b5f52604160045260245ffd5b51906001600160a01b03821682036101485756fe6080604052600436101561001a575b3615610018575f80fd5b005b5f3560e01c8063117a7622146115d357806313137d6514611213578063163c4f7914610b9d57806316c38b3c14610b175780633400288b14610a775780633772df58146109285780633c64f04b1461087457806347fdbc8e146107e05780634c2bc087146106b057806356688700146106585780635c975abb146106365780635f81a57c14610619578063715018a6146105b657806379ba5097146105315780637eadb31d146105025780637ecebe00146104ca5780638da5cb5b146104a3578063b353aaa71461045f578063bb0b6a531461042a578063bdacb303146103a8578063d33219b414610380578063d55be8c614610365578063e30c39781461033d578063e4860339146102bf578063f2555278146101ad5763f2fde38b0361000e57346101a95760203660031901126101a957610155611779565b61015d611af1565b60018060a01b0316806001600160601b0360a01b600154161760015560018060a01b035f54167f38d16b8cac22d99fc7c124b9cd0de2d3fa1faef420bfe791d8c362d765e227005f80a3005b5f80fd5b346101a95760403660031901126101a9576101c6611779565b602435906001600160a01b03821682036101a957600254610202906001600160a01b031680159081806102ab575b8215610290575b5050611923565b61020a6119bb565b6001600160a01b03165f81815260046020526040902060060154909181156102595782610246935f5260046020525f6006604082200155611a07565b60015f80516020611b0583398151915255005b60405162461bcd60e51b815260206004820152600f60248201526e4272696467653a206e6f206665657360881b6044820152606490fd5b159150816102a1575b5084806101fb565b9050331484610299565b5f546001600160a01b0316331492506101f4565b346101a95760203660031901126101a9576001600160a01b036102e0611779565b165f52600460205260e060405f2060ff815416906001810154906002810154600382015460048301549160066005850154940154946040519615158752602087015260408601526060850152608084015260a083015260c0820152f35b346101a9575f3660031901126101a9576001546040516001600160a01b039091168152602090f35b346101a9575f3660031901126101a957602060405160648152f35b346101a9575f3660031901126101a9576002546040516001600160a01b039091168152602090f35b346101a95760203660031901126101a9576103c1611779565b6103c9611af1565b6001600160a01b031680156103ef576001600160601b0360a01b60025416176002555f80f35b60405162461bcd60e51b815260206004820152601360248201527257696b693a207a65726f2074696d656c6f636b60681b6044820152606490fd5b346101a95760203660031901126101a95763ffffffff610448611724565b165f526003602052602060405f2054604051908152f35b346101a9575f3660031901126101a9576040517f00000000000000000000000000000000000000000000000000000000000000006001600160a01b03168152602090f35b346101a9575f3660031901126101a9575f546040516001600160a01b039091168152602090f35b346101a95760203660031901126101a9576001600160a01b036104eb611779565b165f526007602052602060405f2054604051908152f35b346101a95760203660031901126101a9576004355f526006602052602060ff60405f2054166040519015158152f35b346101a9575f3660031901126101a957600154336001600160a01b03909116036105a357600180546001600160a01b03199081169091555f805433928116831782556001600160a01b0316907f8be0079c531659141344cd1fd0a4f28419497f9722a3daafe3b4186f6b6457e09080a3005b63118cdaa760e01b5f523360045260245ffd5b346101a9575f3660031901126101a9576105ce611af1565b600180546001600160a01b03199081169091555f80549182168155906001600160a01b03167f8be0079c531659141344cd1fd0a4f28419497f9722a3daafe3b4186f6b6457e08280a3005b346101a9575f3660031901126101a9576020600954604051908152f35b346101a9575f3660031901126101a957602060ff600854166040519015158152f35b346101a95760403660031901126101a957610018610674611779565b60025461069a906001600160a01b031680159081806102ab578215610290575050611923565b60243590309033906001600160a01b0316611a88565b346101a95760a03660031901126101a9576106c9611779565b602435908115158092036101a957600254608435919060443590610707906001600160a01b031680159081806107cc575b82156107b1575050611923565b6064811161077557827fae57c2ae2db9defb7a47b86aca8d46eb08cab7957ae5f6bfa7b467f8ac20a67393600360409460018060a01b031696875f526004602052855f209060ff801983541691161781558460018201556064356002820155015582519182526020820152a2005b60405162461bcd60e51b8152602060048201526014602482015273084e4d2c8ceca7440cccaca40e8dede40d0d2ced60631b6044820152606490fd5b159150816107c2575b5086806101fb565b90503314866107ba565b5f546001600160a01b0316331492506106fa565b346101a95760603660031901126101a9576102466107fc611779565b610804611737565b60025461082b906001600160a01b03168015908180610860575b8215610845575050611923565b6108336119bb565b602435916001600160a01b0316611a07565b15915081610856575b5085806101fb565b905033148561084e565b5f546001600160a01b03163314925061081e565b346101a95760203660031901126101a9576004355f52600560205260405f2060018060a01b0381541660018060a01b03600183015416916002810154600382015460048301549160ff6006600586015495015416956040519586526020860152604085015263ffffffff8116606085015260018060a01b039060201c16608084015260a083015260c08201526003821015610914576101009160e0820152f35b634e487b7160e01b5f52602160045260245ffd5b346101a95760403660031901126101a9576004356001600160401b0381116101a9576109589036906004016117bc565b906024356001600160401b0381116101a9576109789036906004016117bc565b6002549091906109a1906001600160a01b031680159081806107cc5782156107b1575050611923565b818403610a3f575f5b8481106109b357005b806109c1600192858561196f565b3563ffffffff6109da6109d5848a8a61196f565b611905565b165f52600360205260405f20557f238399d427b947898edb290f5ff0f9109849b1c3ba196a42e35f00c50a54b98b610a166109d583898961196f565b610a2183878761196f565b6040805163ffffffff9390931683529035602083015290a1016109aa565b60405162461bcd60e51b815260206004820152601060248201526f084e4d2c8ceca7440dad2e6dac2e8c6d60831b6044820152606490fd5b346101a95760403660031901126101a9577f238399d427b947898edb290f5ff0f9109849b1c3ba196a42e35f00c50a54b98b610ab1611724565b6002546024359190610adc906001600160a01b03168015908180610860578215610845575050611923565b63ffffffff81165f5260036020528160405f2055610b12604051928392836020909392919363ffffffff60408201951681520152565b0390a1005b346101a95760203660031901126101a9576004358015158091036101a957600254610b5c906001600160a01b03168015908180610b89575b8215610b6e575050611923565b60ff8019600854169116176008555f80f35b15915081610b7f575b5083806101fb565b9050331483610b77565b5f546001600160a01b031633149250610b4f565b60803660031901126101a957610bb1611779565b602435906044359063ffffffff8216908183036101a957610bd061174d565b92610bd96119bb565b60ff600854166111dd5760018060a01b03821692835f52600460205260405f209460ff8654161561119857815f52600360205260405f2054156111535760028601548710611116576001600160a01b03169182156110dd5760058601805462015180810180911161103c574210156110ce575b506004860193610c5d888654611916565b60038801541061108957335f52600760205260405f20918254925f19841461103c576001840190556040519060208201923360601b84526001600160601b03199060601b16603483015289604883015263ffffffff60e01b9060e01b16606882015282606c820152606c8152610cd4608c82611807565b51902095865f52600660205260ff60405f20541661105057600181015480890290898204148915171561103c576127109004908189039589871161103c57610d2f9181610d248c60069454611916565b905501918254611916565b9055610d3d87600954611916565b600955855f52600660205260405f20600160ff198254161790556040519061010082018281106001600160401b038211176110165787926006916040523381526020810188815260408201888152606083018781526080840189815260a085019287845260c086019442865260e08701995f8b525f52600560205260405f209660018060a01b039060018060a01b03905116166001600160601b0360a01b88541617875560018060a01b03905116600187019060018060a01b03166001600160601b0360a01b82541617905551600286015563ffffffff60038601925116825491640100000000600160c01b03905160201b16916001600160401b0360c01b1617179055516004830155516005820155019151600381101561091457610f0498608093610e789260ff80198354169116179055303389611a88565b604051906001602083015233604083015286606083015285838301528460a083015260c082015260c08152610eae60e082611807565b610eb6611993565b835f52600360205260405f20549160405192610ed1846117ec565b8584526020840152604083015260608201525f82820152604051809881926302637a4560e41b8352339060048401611884565b0381347f00000000000000000000000000000000000000000000000000000000000000006001600160a01b03165af18015611031575f90610f9f575b60209650519260405194855286850152604084015260608301526080820152817f25e2b47e8f0a80e2461ebe8b67554580351d19d653f3d66b3a77adae0eb9b3da60a03393a360015f80516020611b0583398151915255604051908152f35b5060803d60801161102a575b610fb58188611807565b8601956080818803126101a95760405190606082018281106001600160401b0382111761101657604052805182526020810151976001600160401b03891689036101a957604061100c9260209a8b86015201611828565b6040820152610f40565b634e487b7160e01b5f52604160045260245ffd5b503d610fab565b6040513d5f823e3d90fd5b634e487b7160e01b5f52601160045260245ffd5b60405162461bcd60e51b81526020600482015260116024820152704272696467653a206475706c696361746560781b6044820152606490fd5b60405162461bcd60e51b815260206004820152601c60248201527f4272696467653a206461696c79206c696d6974206578636565646564000000006044820152606490fd5b4290555f600487015587610c4c565b60405162461bcd60e51b8152602060048201526011602482015270109c9a5919d94e881e995c9bc819195cdd607a1b6044820152606490fd5b60405162461bcd60e51b81526020600482015260156024820152744272696467653a2062656c6f77206d696e696d756d60581b6044820152606490fd5b60405162461bcd60e51b815260206004820152601a60248201527f4272696467653a2064657374206e6f7420737570706f727465640000000000006044820152606490fd5b60405162461bcd60e51b815260206004820152601b60248201527f4272696467653a20746f6b656e206e6f7420737570706f7274656400000000006044820152606490fd5b60405162461bcd60e51b815260206004820152600e60248201526d109c9a5919d94e881c185d5cd95960921b6044820152606490fd5b346101a957366003190160e081126101a9576060136101a9576064356084356001600160401b0381116101a95761124e90369060040161178f565b611259929192611763565b5060c4356001600160401b0381116101a95761127990369060040161178f565b50506112836119bb565b7f00000000000000000000000000000000000000000000000000000000000000006001600160a01b0316330361158e5763ffffffff6112c06118f2565b165f52600360205260405f20546024350361155257815f52600660205260ff60405f20541661150d578260c091835f52600660205260405f20600160ff19825416179055810103126101a957813560ff81168091036101a957611325602084016119f3565b50611332604084016119f3565b926060810135906001906001600160a01b0390611351906080016119f3565b1694818060a01b031692036114c857815f52600460205260ff60405f20541615611483576040516370a0823160e01b8152306004820152602081602481865afa80156110315782915f9161144e575b5010611409578163ffffffff826113db606094887f96e88bbab99d75d65f1b98b96954398440382c891578eabb4fd9e10ccec014f897611a07565b6113e36118f2565b906040519384526020840152166040820152a360015f80516020611b0583398151915255005b60405162461bcd60e51b815260206004820152601e60248201527f4272696467653a20696e73756666696369656e74206c697175696469747900006044820152606490fd5b9150506020813d60201161147b575b8161146a60209383611807565b810103126101a957819051866113a0565b3d915061145d565b60405162461bcd60e51b815260206004820152601e60248201527f4272696467653a20746f6b656e2064697361626c6564206f6e206465737400006044820152606490fd5b60405162461bcd60e51b815260206004820152601860248201527f4272696467653a20756e6b6e6f776e206d7367207479706500000000000000006044820152606490fd5b60405162461bcd60e51b815260206004820152601860248201527f4272696467653a20616c726561647920726563656976656400000000000000006044820152606490fd5b60405162461bcd60e51b8152602060048201526014602482015273213934b233b29d103ab735b737bbb7103832b2b960611b6044820152606490fd5b60405162461bcd60e51b815260206004820152601760248201527f4272696467653a206e6f74204c5a20656e64706f696e740000000000000000006044820152606490fd5b346101a95760803660031901126101a9576116a260406115f1611724565b6115f9611737565b9061160261174d565b8351600160208201525f8186018190526001600160a01b03948516606083015260243560808301529190931660a084015260c080840191909152825261164960e083611807565b63ffffffff611656611993565b911691825f526003602052835f2054845193611671856117ec565b845260208401528383015260608201525f6080820152815180938192631bb8518b60e31b8352309060048401611884565b03817f00000000000000000000000000000000000000000000000000000000000000006001600160a01b03165afa8015611031575f906116e9575b60209051604051908152f35b5060403d60401161171d575b6116ff8183611807565b8101906040818303126101a95760209161171891611828565b6116dd565b503d6116f5565b6004359063ffffffff821682036101a957565b604435906001600160a01b03821682036101a957565b606435906001600160a01b03821682036101a957565b60a435906001600160a01b03821682036101a957565b600435906001600160a01b03821682036101a957565b9181601f840112156101a9578235916001600160401b0383116101a957602083818601950101116101a957565b9181601f840112156101a9578235916001600160401b0383116101a9576020808501948460051b0101116101a957565b60a081019081106001600160401b0382111761101657604052565b90601f801991011681019081106001600160401b0382111761101657604052565b91908260409103126101a957604051604081018181106001600160401b03821117611016576040526020808294805184520151910152565b805180835260209291819084018484015e5f828201840152601f01601f1916010190565b906020909392936040835263ffffffff815116604084015281810151606084015260806118d86118c2604084015160a08488015260e0870190611860565b6060840151868203603f190160a0880152611860565b910151151560c08401526001600160a01b03909416910152565b60043563ffffffff811681036101a95790565b3563ffffffff811681036101a95790565b9190820180921161103c57565b1561192a57565b60405162461bcd60e51b815260206004820152601e60248201527f57696b693a206d75737420676f207468726f7567682074696d656c6f636b00006044820152606490fd5b919081101561197f5760051b0190565b634e487b7160e01b5f52603260045260245ffd5b604051600160f01b602082015262030d406022820152602281526119b8604282611807565b90565b60025f80516020611b0583398151915254146119e45760025f80516020611b0583398151915255565b633ee5aeb560e01b5f5260045ffd5b35906001600160a01b03821682036101a957565b916040519163a9059cbb60e01b5f5260018060a01b031660045260245260205f60448180865af19060015f5114821615611a67575b60405215611a475750565b635274afe760e01b5f9081526001600160a01b0391909116600452602490fd5b906001811516611a7f57823b15153d15161690611a3c565b503d5f823e3d90fd5b6040516323b872dd60e01b5f9081526001600160a01b039384166004529290931660245260449390935260209060648180865af19060015f5114821615611ad9575b6040525f60605215611a475750565b906001811516611a7f57823b15153d15161690611aca565b5f546001600160a01b031633036105a35756fe9b779b17422d0df92223018b32b4d1fa46e071723d6817e2486d003becc55f00a2646970667358221220980be64bde0b8fd40f03856be52ef3012be033af9d9710ed02c31ddf73b8212c64736f6c634300081a0033",
  "linkReferences": {},
  "deployedLinkReferences": {}
}