{
  "_format": "hh-sol-artifact-1",
  "contractName": "WikiKeeperRegistry",
  "sourceName": "src/WikiKeeperRegistry.sol",
  "abi": [
    {
      "inputs": [
        {
          "internalType": "address",
          "name": "_wik",
          "type": "address"
        },
        {
          "internalType": "address",
          "name": "_rewardToken",
          "type": "address"
        },
        {
          "internalType": "address",
          "name": "_owner",
          "type": "address"
        }
      ],
      "stateMutability": "nonpayable",
      "type": "constructor"
    },
    {
      "inputs": [
        {
          "internalType": "address",
          "name": "owner",
          "type": "address"
        }
      ],
      "name": "OwnableInvalidOwner",
      "type": "error"
    },
    {
      "inputs": [
        {
          "internalType": "address",
          "name": "account",
          "type": "address"
        }
      ],
      "name": "OwnableUnauthorizedAccount",
      "type": "error"
    },
    {
      "inputs": [],
      "name": "ReentrancyGuardReentrantCall",
      "type": "error"
    },
    {
      "inputs": [
        {
          "internalType": "address",
          "name": "token",
          "type": "address"
        }
      ],
      "name": "SafeERC20FailedOperation",
      "type": "error"
    },
    {
      "anonymous": false,
      "inputs": [
        {
          "indexed": true,
          "internalType": "address",
          "name": "keeper",
          "type": "address"
        },
        {
          "indexed": false,
          "internalType": "uint256",
          "name": "stake",
          "type": "uint256"
        },
        {
          "indexed": false,
          "internalType": "uint8",
          "name": "tier",
          "type": "uint8"
        }
      ],
      "name": "KeeperRegistered",
      "type": "event"
    },
    {
      "anonymous": false,
      "inputs": [
        {
          "indexed": true,
          "internalType": "address",
          "name": "keeper",
          "type": "address"
        },
        {
          "indexed": false,
          "internalType": "address",
          "name": "slasher",
          "type": "address"
        },
        {
          "indexed": false,
          "internalType": "uint256",
          "name": "slashAmount",
          "type": "uint256"
        },
        {
          "indexed": false,
          "internalType": "uint256",
          "name": "burned",
          "type": "uint256"
        }
      ],
      "name": "KeeperSlashed",
      "type": "event"
    },
    {
      "anonymous": false,
      "inputs": [
        {
          "indexed": true,
          "internalType": "address",
          "name": "keeper",
          "type": "address"
        },
        {
          "indexed": false,
          "internalType": "uint256",
          "name": "added",
          "type": "uint256"
        },
        {
          "indexed": false,
          "internalType": "uint256",
          "name": "newTotal",
          "type": "uint256"
        }
      ],
      "name": "KeeperStakeIncreased",
      "type": "event"
    },
    {
      "anonymous": false,
      "inputs": [
        {
          "indexed": true,
          "internalType": "address",
          "name": "keeper",
          "type": "address"
        },
        {
          "indexed": false,
          "internalType": "uint256",
          "name": "liquidations",
          "type": "uint256"
        },
        {
          "indexed": false,
          "internalType": "uint256",
          "name": "orders",
          "type": "uint256"
        }
      ],
      "name": "KeeperStatUpdated",
      "type": "event"
    },
    {
      "anonymous": false,
      "inputs": [
        {
          "indexed": true,
          "internalType": "address",
          "name": "previousOwner",
          "type": "address"
        },
        {
          "indexed": true,
          "internalType": "address",
          "name": "newOwner",
          "type": "address"
        }
      ],
      "name": "OwnershipTransferStarted",
      "type": "event"
    },
    {
      "anonymous": false,
      "inputs": [
        {
          "indexed": true,
          "internalType": "address",
          "name": "previousOwner",
          "type": "address"
        },
        {
          "indexed": true,
          "internalType": "address",
          "name": "newOwner",
          "type": "address"
        }
      ],
      "name": "OwnershipTransferred",
      "type": "event"
    },
    {
      "anonymous": false,
      "inputs": [
        {
          "indexed": true,
          "internalType": "address",
          "name": "keeper",
          "type": "address"
        },
        {
          "indexed": false,
          "internalType": "uint256",
          "name": "amount",
          "type": "uint256"
        },
        {
          "indexed": false,
          "internalType": "string",
          "name": "reason",
          "type": "string"
        }
      ],
      "name": "RewardAccrued",
      "type": "event"
    },
    {
      "anonymous": false,
      "inputs": [
        {
          "indexed": true,
          "internalType": "address",
          "name": "keeper",
          "type": "address"
        },
        {
          "indexed": false,
          "internalType": "uint256",
          "name": "amount",
          "type": "uint256"
        }
      ],
      "name": "RewardClaimed",
      "type": "event"
    },
    {
      "anonymous": false,
      "inputs": [
        {
          "indexed": true,
          "internalType": "address",
          "name": "from",
          "type": "address"
        },
        {
          "indexed": false,
          "internalType": "uint256",
          "name": "amount",
          "type": "uint256"
        }
      ],
      "name": "RewardDeposited",
      "type": "event"
    },
    {
      "anonymous": false,
      "inputs": [
        {
          "indexed": true,
          "internalType": "address",
          "name": "slasher",
          "type": "address"
        },
        {
          "indexed": false,
          "internalType": "bool",
          "name": "enabled",
          "type": "bool"
        }
      ],
      "name": "SlasherSet",
      "type": "event"
    },
    {
      "anonymous": false,
      "inputs": [
        {
          "indexed": true,
          "internalType": "address",
          "name": "keeper",
          "type": "address"
        },
        {
          "indexed": false,
          "internalType": "uint256",
          "name": "amount",
          "type": "uint256"
        }
      ],
      "name": "UnstakeClaimed",
      "type": "event"
    },
    {
      "anonymous": false,
      "inputs": [
        {
          "indexed": true,
          "internalType": "address",
          "name": "keeper",
          "type": "address"
        },
        {
          "indexed": false,
          "internalType": "uint256",
          "name": "amount",
          "type": "uint256"
        },
        {
          "indexed": false,
          "internalType": "uint256",
          "name": "availableAt",
          "type": "uint256"
        }
      ],
      "name": "UnstakeRequested",
      "type": "event"
    },
    {
      "inputs": [],
      "name": "BPS",
      "outputs": [
        {
          "internalType": "uint256",
          "name": "",
          "type": "uint256"
        }
      ],
      "stateMutability": "view",
      "type": "function"
    },
    {
      "inputs": [],
      "name": "MIN_STAKE",
      "outputs": [
        {
          "internalType": "uint256",
          "name": "",
          "type": "uint256"
        }
      ],
      "stateMutability": "view",
      "type": "function"
    },
    {
      "inputs": [],
      "name": "SLASH_BURN_BPS",
      "outputs": [
        {
          "internalType": "uint256",
          "name": "",
          "type": "uint256"
        }
      ],
      "stateMutability": "view",
      "type": "function"
    },
    {
      "inputs": [],
      "name": "TIER1_MULT",
      "outputs": [
        {
          "internalType": "uint256",
          "name": "",
          "type": "uint256"
        }
      ],
      "stateMutability": "view",
      "type": "function"
    },
    {
      "inputs": [],
      "name": "TIER2_MULT",
      "outputs": [
        {
          "internalType": "uint256",
          "name": "",
          "type": "uint256"
        }
      ],
      "stateMutability": "view",
      "type": "function"
    },
    {
      "inputs": [],
      "name": "TIER2_STAKE",
      "outputs": [
        {
          "internalType": "uint256",
          "name": "",
          "type": "uint256"
        }
      ],
      "stateMutability": "view",
      "type": "function"
    },
    {
      "inputs": [],
      "name": "TIER3_MULT",
      "outputs": [
        {
          "internalType": "uint256",
          "name": "",
          "type": "uint256"
        }
      ],
      "stateMutability": "view",
      "type": "function"
    },
    {
      "inputs": [],
      "name": "TIER3_STAKE",
      "outputs": [
        {
          "internalType": "uint256",
          "name": "",
          "type": "uint256"
        }
      ],
      "stateMutability": "view",
      "type": "function"
    },
    {
      "inputs": [],
      "name": "UNSTAKE_COOLDOWN",
      "outputs": [
        {
          "internalType": "uint256",
          "name": "",
          "type": "uint256"
        }
      ],
      "stateMutability": "view",
      "type": "function"
    },
    {
      "inputs": [],
      "name": "WIK",
      "outputs": [
        {
          "internalType": "contract IERC20",
          "name": "",
          "type": "address"
        }
      ],
      "stateMutability": "view",
      "type": "function"
    },
    {
      "inputs": [],
      "name": "acceptOwnership",
      "outputs": [],
      "stateMutability": "nonpayable",
      "type": "function"
    },
    {
      "inputs": [
        {
          "internalType": "address",
          "name": "keeper",
          "type": "address"
        },
        {
          "internalType": "uint256",
          "name": "amount",
          "type": "uint256"
        },
        {
          "internalType": "string",
          "name": "reason",
          "type": "string"
        }
      ],
      "name": "accrueReward",
      "outputs": [],
      "stateMutability": "nonpayable",
      "type": "function"
    },
    {
      "inputs": [],
      "name": "claimRewards",
      "outputs": [],
      "stateMutability": "nonpayable",
      "type": "function"
    },
    {
      "inputs": [],
      "name": "claimUnstake",
      "outputs": [],
      "stateMutability": "nonpayable",
      "type": "function"
    },
    {
      "inputs": [
        {
          "internalType": "uint256",
          "name": "amount",
          "type": "uint256"
        }
      ],
      "name": "depositRewards",
      "outputs": [],
      "stateMutability": "nonpayable",
      "type": "function"
    },
    {
      "inputs": [
        {
          "internalType": "uint256",
          "name": "offset",
          "type": "uint256"
        },
        {
          "internalType": "uint256",
          "name": "limit",
          "type": "uint256"
        }
      ],
      "name": "getActiveKeepers",
      "outputs": [
        {
          "internalType": "address[]",
          "name": "result",
          "type": "address[]"
        },
        {
          "internalType": "uint256",
          "name": "total",
          "type": "uint256"
        }
      ],
      "stateMutability": "view",
      "type": "function"
    },
    {
      "inputs": [
        {
          "internalType": "address",
          "name": "keeper",
          "type": "address"
        }
      ],
      "name": "getKeeperInfo",
      "outputs": [
        {
          "components": [
            {
              "internalType": "uint256",
              "name": "stakedWIK",
              "type": "uint256"
            },
            {
              "internalType": "uint256",
              "name": "unstakeRequestedAt",
              "type": "uint256"
            },
            {
              "internalType": "uint256",
              "name": "pendingUnstake",
              "type": "uint256"
            },
            {
              "internalType": "uint256",
              "name": "rewardBalance",
              "type": "uint256"
            },
            {
              "internalType": "uint256",
              "name": "totalLiquidations",
              "type": "uint256"
            },
            {
              "internalType": "uint256",
              "name": "totalOrdersFilled",
              "type": "uint256"
            },
            {
              "internalType": "uint256",
              "name": "slashCount",
              "type": "uint256"
            },
            {
              "internalType": "bool",
              "name": "active",
              "type": "bool"
            },
            {
              "internalType": "uint256",
              "name": "registeredAt",
              "type": "uint256"
            }
          ],
          "internalType": "struct WikiKeeperRegistry.KeeperInfo",
          "name": "",
          "type": "tuple"
        }
      ],
      "stateMutability": "view",
      "type": "function"
    },
    {
      "inputs": [
        {
          "internalType": "uint256",
          "name": "amount",
          "type": "uint256"
        }
      ],
      "name": "increaseStake",
      "outputs": [],
      "stateMutability": "nonpayable",
      "type": "function"
    },
    {
      "inputs": [
        {
          "internalType": "address",
          "name": "keeper",
          "type": "address"
        }
      ],
      "name": "isActive",
      "outputs": [
        {
          "internalType": "bool",
          "name": "",
          "type": "bool"
        }
      ],
      "stateMutability": "view",
      "type": "function"
    },
    {
      "inputs": [],
      "name": "keeperCount",
      "outputs": [
        {
          "internalType": "uint256",
          "name": "",
          "type": "uint256"
        }
      ],
      "stateMutability": "view",
      "type": "function"
    },
    {
      "inputs": [
        {
          "internalType": "uint256",
          "name": "",
          "type": "uint256"
        }
      ],
      "name": "keeperList",
      "outputs": [
        {
          "internalType": "address",
          "name": "",
          "type": "address"
        }
      ],
      "stateMutability": "view",
      "type": "function"
    },
    {
      "inputs": [
        {
          "internalType": "address",
          "name": "",
          "type": "address"
        }
      ],
      "name": "keepers",
      "outputs": [
        {
          "internalType": "uint256",
          "name": "stakedWIK",
          "type": "uint256"
        },
        {
          "internalType": "uint256",
          "name": "unstakeRequestedAt",
          "type": "uint256"
        },
        {
          "internalType": "uint256",
          "name": "pendingUnstake",
          "type": "uint256"
        },
        {
          "internalType": "uint256",
          "name": "rewardBalance",
          "type": "uint256"
        },
        {
          "internalType": "uint256",
          "name": "totalLiquidations",
          "type": "uint256"
        },
        {
          "internalType": "uint256",
          "name": "totalOrdersFilled",
          "type": "uint256"
        },
        {
          "internalType": "uint256",
          "name": "slashCount",
          "type": "uint256"
        },
        {
          "internalType": "bool",
          "name": "active",
          "type": "bool"
        },
        {
          "internalType": "uint256",
          "name": "registeredAt",
          "type": "uint256"
        }
      ],
      "stateMutability": "view",
      "type": "function"
    },
    {
      "inputs": [],
      "name": "owner",
      "outputs": [
        {
          "internalType": "address",
          "name": "",
          "type": "address"
        }
      ],
      "stateMutability": "view",
      "type": "function"
    },
    {
      "inputs": [],
      "name": "pendingOwner",
      "outputs": [
        {
          "internalType": "address",
          "name": "",
          "type": "address"
        }
      ],
      "stateMutability": "view",
      "type": "function"
    },
    {
      "inputs": [
        {
          "internalType": "address",
          "name": "keeper",
          "type": "address"
        }
      ],
      "name": "recordLiquidation",
      "outputs": [],
      "stateMutability": "nonpayable",
      "type": "function"
    },
    {
      "inputs": [
        {
          "internalType": "address",
          "name": "keeper",
          "type": "address"
        }
      ],
      "name": "recordOrderFill",
      "outputs": [],
      "stateMutability": "nonpayable",
      "type": "function"
    },
    {
      "inputs": [
        {
          "internalType": "uint256",
          "name": "stakeAmount",
          "type": "uint256"
        }
      ],
      "name": "register",
      "outputs": [],
      "stateMutability": "nonpayable",
      "type": "function"
    },
    {
      "inputs": [],
      "name": "renounceOwnership",
      "outputs": [],
      "stateMutability": "nonpayable",
      "type": "function"
    },
    {
      "inputs": [
        {
          "internalType": "uint256",
          "name": "amount",
          "type": "uint256"
        }
      ],
      "name": "requestUnstake",
      "outputs": [],
      "stateMutability": "nonpayable",
      "type": "function"
    },
    {
      "inputs": [
        {
          "internalType": "address",
          "name": "keeper",
          "type": "address"
        }
      ],
      "name": "rewardMultiplier",
      "outputs": [
        {
          "internalType": "uint256",
          "name": "",
          "type": "uint256"
        }
      ],
      "stateMutability": "view",
      "type": "function"
    },
    {
      "inputs": [],
      "name": "rewardToken",
      "outputs": [
        {
          "internalType": "address",
          "name": "",
          "type": "address"
        }
      ],
      "stateMutability": "view",
      "type": "function"
    },
    {
      "inputs": [
        {
          "internalType": "address",
          "name": "slasher",
          "type": "address"
        },
        {
          "internalType": "bool",
          "name": "enabled",
          "type": "bool"
        }
      ],
      "name": "setSlasher",
      "outputs": [],
      "stateMutability": "nonpayable",
      "type": "function"
    },
    {
      "inputs": [
        {
          "internalType": "address",
          "name": "_tl",
          "type": "address"
        }
      ],
      "name": "setTimelock",
      "outputs": [],
      "stateMutability": "nonpayable",
      "type": "function"
    },
    {
      "inputs": [
        {
          "internalType": "address",
          "name": "keeper",
          "type": "address"
        },
        {
          "internalType": "uint256",
          "name": "amount",
          "type": "uint256"
        }
      ],
      "name": "slash",
      "outputs": [],
      "stateMutability": "nonpayable",
      "type": "function"
    },
    {
      "inputs": [
        {
          "internalType": "address",
          "name": "",
          "type": "address"
        }
      ],
      "name": "slashers",
      "outputs": [
        {
          "internalType": "bool",
          "name": "",
          "type": "bool"
        }
      ],
      "stateMutability": "view",
      "type": "function"
    },
    {
      "inputs": [
        {
          "internalType": "address",
          "name": "keeper",
          "type": "address"
        }
      ],
      "name": "tierOf",
      "outputs": [
        {
          "internalType": "uint8",
          "name": "",
          "type": "uint8"
        }
      ],
      "stateMutability": "view",
      "type": "function"
    },
    {
      "inputs": [],
      "name": "timelock",
      "outputs": [
        {
          "internalType": "address",
          "name": "",
          "type": "address"
        }
      ],
      "stateMutability": "view",
      "type": "function"
    },
    {
      "inputs": [],
      "name": "totalPendingRewards",
      "outputs": [
        {
          "internalType": "uint256",
          "name": "",
          "type": "uint256"
        }
      ],
      "stateMutability": "view",
      "type": "function"
    },
    {
      "inputs": [
        {
          "internalType": "address",
          "name": "newOwner",
          "type": "address"
        }
      ],
      "name": "transferOwnership",
      "outputs": [],
      "stateMutability": "nonpayable",
      "type": "function"
    }
  ],
  "bytecode": "0x60a0346101e557601f611e9538819003918201601f19168301916001600160401b038311848410176101e9578084926060946040528339810103126101e557610047816101fd565b90610054602082016101fd565b906001600160a01b039061006a906040016101fd565b169182156101d257600180546001600160a01b03199081169091555f80549182168517815560405194916001600160a01b0316907f8be0079c531659141344cd1fd0a4f28419497f9722a3daafe3b4186f6b6457e09080a360017f9b779b17422d0df92223018b32b4d1fa46e071723d6817e2486d003becc55f00556001600160a01b031691821561019e57506001600160a01b031690811561015957608052600780546001600160a01b031916919091179055604051611c83908161021282396080518181816103780152818161068d01528181610db60152818161152e0152818161175901526117850152f35b60405162461bcd60e51b815260206004820152601760248201527f57696b693a207a65726f205f726577617264546f6b656e0000000000000000006044820152606490fd5b62461bcd60e51b815260206004820152600f60248201526e57696b693a207a65726f205f77696b60881b6044820152606490fd5b631e4fbdf760e01b5f525f60045260245ffd5b5f80fd5b634e487b7160e01b5f52604160045260245ffd5b51906001600160a01b03821682036101e55756fe60806040526004361015610011575f80fd5b5f3560e01c806302fb4d851461161b5780630a3ec230146114d95780630b60c58f146114bc5780631142f765146114155780631caf663a146112b15780631e12b8a51461118d5780631f0c1481146111695780632309572114610f7b578063249d39e914610827578063270f33e614610f50578063372500ab14610e7a5780633bbd64bc14610de557806340b0229e14610da15780635234808014610d1b57806368d26b9614610cff578063715018a614610c9c57806379ba509714610c17578063891ce69214610a6e5780638bdf67f2146109b45780638da5cb5b1461098d5780639f8a13d714610945578063a3aa503514610928578063b28b6f331461090c578063b87fcbff146108cf578063bdacb30314610848578063be2740381461082c578063c7ceeb1014610827578063c8f74bb8146107f9578063cb1c2b5c146107d5578063d33219b4146107ad578063d6918be114610789578063e30c397814610761578063ec1371f214610744578063ec4515dd14610702578063eedad66b1461062a578063f207564e1461031f578063f2fde38b146102ad578063f4ece16f146101f25763f7c618c1146101c6575f80fd5b346101ee575f3660031901126101ee576007546040516001600160a01b039091168152602090f35b5f80fd5b346101ee5760203660031901126101ee5761020b611899565b335f52600660205261022360ff60405f2054166118f7565b6001600160a01b03165f818152600360205260409020600501805460018101919082106102995755805f5260036020527f45cab345425aef185b40f536dbc9bde534f98e04df173f4263ec37b45d8920a060406004815f200154835f5260036020526005825f20015482519182526020820152a2005b634e487b7160e01b5f52601160045260245ffd5b346101ee5760203660031901126101ee576102c6611899565b6102ce611bb1565b60018060a01b0316806bffffffffffffffffffffffff60a01b600154161760015560018060a01b035f54167f38d16b8cac22d99fc7c124b9cd0de2d3fa1faef420bfe791d8c362d765e227005f80a3005b346101ee5760203660031901126101ee5760043561033b611b79565b69021e19e0c9bab240000081106105e557335f52600360205260ff600760405f200154166105a0576040516370a0823160e01b81523360048201527f0000000000000000000000000000000000000000000000000000000000000000906020816024816001600160a01b0386165afa908115610595575f91610563575b508211610513576040516103cb81611955565b8281526008602082015f815261045d604084015f8152606085015f8152608086015f815260a08701905f825260c08801925f845260e0890194600186526101008a0197428952335f52600360205260405f209a518b555160018b01555160028a0155516003890155516004880155516005870155516006860155511515600785019060ff801983541691151516179055565b51910155600454680100000000000000008110156104ff576104af9161048a8260018694016004556118cb565b81546001600160a01b0360039290921b91821b1916339182901b179091553091611bc4565b60ff6104ba33611ac0565b6040519283521660208201527f3cca7baa3826f82e240d5a80dcddd0a9f5a7143554d24efcc58000486472eb9c60403392a260015f80516020611c2e83398151915255005b634e487b7160e01b5f52604160045260245ffd5b60405162461bcd60e51b815260206004820152602260248201527f52656769737472793a20696e73756666696369656e742057494b2062616c616e604482015261636560f01b6064820152608490fd5b90506020813d60201161058d575b8161057e60209383611972565b810103126101ee5751836103b8565b3d9150610571565b6040513d5f823e3d90fd5b60405162461bcd60e51b815260206004820152601c60248201527f52656769737472793a20616c72656164792072656769737465726564000000006044820152606490fd5b60405162461bcd60e51b815260206004820152601d60248201527f52656769737472793a207374616b652062656c6f77206d696e696d756d0000006044820152606490fd5b346101ee5760203660031901126101ee57600435610646611b79565b335f52600360205261066160ff600760405f200154166119f2565b61066c811515611a3e565b335f52600360205260405f20610683828254611948565b90556106b18130337f0000000000000000000000000000000000000000000000000000000000000000611bc4565b335f52600360205260405f205460405191825260208201527f12567aadccc9fc1e42362aa00ed9cba3cfd3639885a1b5d1b5fa8ae4c94902c060403392a260015f80516020611c2e83398151915255005b346101ee5760203660031901126101ee576004356004548110156101ee5761072b6020916118cb565b905460405160039290921b1c6001600160a01b03168152f35b346101ee575f3660031901126101ee576020600554604051908152f35b346101ee575f3660031901126101ee576001546040516001600160a01b039091168152602090f35b346101ee575f3660031901126101ee576020604051692a5a058fc295ed0000008152f35b346101ee575f3660031901126101ee576002546040516001600160a01b039091168152602090f35b346101ee575f3660031901126101ee57602060405169021e19e0c9bab24000008152f35b346101ee5760203660031901126101ee57602061081c610817611899565b611ac0565b60ff60405191168152f35b6118af565b346101ee575f3660031901126101ee576020604051613a988152f35b346101ee5760203660031901126101ee57610861611899565b610869611bb1565b6001600160a01b03168015610894576bffffffffffffffffffffffff60a01b60025416176002555f80f35b60405162461bcd60e51b815260206004820152601360248201527257696b693a207a65726f2074696d656c6f636b60681b6044820152606490fd5b346101ee5760203660031901126101ee576001600160a01b036108f0611899565b165f526006602052602060ff60405f2054166040519015158152f35b346101ee575f3660031901126101ee5760206040516113888152f35b346101ee575f3660031901126101ee576020600454604051908152f35b346101ee5760203660031901126101ee576020610983610963611899565b6001600160a01b03165f9081526003602052604090206007015460ff1690565b6040519015158152f35b346101ee575f3660031901126101ee575f546040516001600160a01b039091168152602090f35b346101ee5760203660031901126101ee576004356109d0611b79565b8015610a30576007546109f1908290309033906001600160a01b0316611bc4565b6040519081527f7dbc080e4530c8bcf265eb5c9a35ae096ca1eb607b7e802b96581ef4c5e1a70360203392a260015f80516020611c2e83398151915255005b60405162461bcd60e51b8152602060048201526016602482015275149959da5cdd1c9e4e881e995c9bc819195c1bdcda5d60521b6044820152606490fd5b346101ee5760603660031901126101ee57610a87611899565b60243560443567ffffffffffffffff81116101ee57366023820112156101ee5780600401359267ffffffffffffffff84116101ee5736602485840101116101ee57335f526006602052610ae060ff60405f2054166118f7565b6001600160a01b0381165f9081526003602052604090206007015460ff1615610bd2578215610b95577f2404c83ab3da054a6d9e170218d503fdb53f1c955be3044bf648ded6e06790949260609160018060a01b031694855f526003602052600360405f2001610b51838254611948565b9055610b5f82600554611948565b60055580602460405195869485526040602086015282604086015201848401375f828201840152601f01601f19168101030190a2005b60405162461bcd60e51b8152602060048201526015602482015274149959da5cdd1c9e4e881e995c9bc81c995dd85c99605a1b6044820152606490fd5b60405162461bcd60e51b815260206004820152601960248201527f52656769737472793a206b656570657220696e616374697665000000000000006044820152606490fd5b346101ee575f3660031901126101ee57600154336001600160a01b0390911603610c8957600180546001600160a01b03199081169091555f805433928116831782556001600160a01b0316907f8be0079c531659141344cd1fd0a4f28419497f9722a3daafe3b4186f6b6457e09080a3005b63118cdaa760e01b5f523360045260245ffd5b346101ee575f3660031901126101ee57610cb4611bb1565b600180546001600160a01b03199081169091555f80549182168155906001600160a01b03167f8be0079c531659141344cd1fd0a4f28419497f9722a3daafe3b4186f6b6457e08280a3005b346101ee575f3660031901126101ee5760206040516130d48152f35b346101ee5760403660031901126101ee57610d34611899565b60243590811515908183036101ee577fffd5334d9f2bb272aaebfc6c24a6d997a83e846355b47e58d36e882916a6e62891610d98602092610d73611bb1565b60018060a01b031694855f526006845260405f209060ff801983541691151516179055565b604051908152a2005b346101ee575f3660031901126101ee576040517f00000000000000000000000000000000000000000000000000000000000000006001600160a01b03168152602090f35b346101ee5760203660031901126101ee576001600160a01b03610e06611899565b165f52600360205261012060405f20805490600181015490600281015460038201546004830154600584015491600685015493600860ff60078801541696015496604051988952602089015260408801526060870152608086015260a085015260c0840152151560e0830152610100820152f35b346101ee575f3660031901126101ee57610e92611b79565b335f526003602052600360405f20018054908115610f14575f9055610eb98160055461193b565b600555600754610ed590829033906001600160a01b0316611b21565b6040519081527f106f923f993c2149d49b4255ff723acafa1f2d94393f561d3eda32ae348f724160203392a260015f80516020611c2e83398151915255005b60405162461bcd60e51b815260206004820152601460248201527352656769737472793a206e6f207265776172647360601b6044820152606490fd5b346101ee5760203660031901126101ee576020610f73610f6e611899565b611a82565b604051908152f35b346101ee5760203660031901126101ee57600435610f97611b79565b335f52600360205260405f206007810190815490610fb760ff83166119f2565b610fc2841515611a3e565b6002810190815461111a5780548581106110d557610fe0868261193b565b928315809481156110c0575b501561106b57610ffd87809361193b565b83555560014291015561105e575b505062093a8042018042116102995760405191825260208201527f57e41df54512c76148b5ba9b643d149752b0d35e493b969bd017d0a3fe5228cf60403392a260015f80516020611c2e83398151915255005b60ff19169055818061100b565b60405162461bcd60e51b815260206004820152602760248201527f52656769737472793a2072656d61696e696e67207374616b652062656c6f77206044820152666d696e696d756d60c81b6064820152608490fd5b69021e19e0c9bab24000009150101588610fec565b60405162461bcd60e51b815260206004820152601c60248201527f52656769737472793a20696e73756666696369656e74207374616b65000000006044820152606490fd5b60405162461bcd60e51b815260206004820152602160248201527f52656769737472793a20756e7374616b6520616c72656164792070656e64696e6044820152606760f81b6064820152608490fd5b346101ee575f3660031901126101ee576020604051690a968163f0a57b4000008152f35b346101ee5760203660031901126101ee576111a6611899565b5f6101006040516111b681611955565b8281528260208201528260408201528260608201528260808201528260a08201528260c08201528260e0820152015260018060a01b03165f52600360205261012060405f2060405161120781611955565b8154918282526001810154602083019081526002820154604084019081526003830154606085019081526004840154906080860191825260058501549260a0870193845260068601549460c08801958652610100600860ff60078a0154169860e08b019915158a52015498019788526040519889525160208901525160408801525160608701525160808601525160a08501525160c084015251151560e083015251610100820152f35b346101ee5760403660031901126101ee5760043560243560045490816112d78285611948565b11156114065750805b5f906112f46112ef858361193b565b6119ac565b935b818110611391575050611308816119ac565b905f5b81811061136957505060405190604082019260408352815180945260206060840192015f945b80861061134657505082935060208301520390f35b81516001600160a01b031684526001959095019460209384019390910190611331565b6001906001600160a01b0361137e82886119de565b511661138a82866119de565b520161130b565b61139a816118cb565b60018060a01b0391549060031b1c165f52600360205260ff600760405f200154166113c8575b6001016112f6565b916113d2836118cb565b905491938492909160031b1c6001600160a01b03165f198314610299576113fe600180940195886119de565b5290506113c0565b6114109083611948565b6112e0565b346101ee5760203660031901126101ee5761142e611899565b335f52600660205261144660ff60405f2054166118f7565b6001600160a01b03165f818152600360205260409020600401805460018101919082106102995755805f5260036020527f45cab345425aef185b40f536dbc9bde534f98e04df173f4263ec37b45d8920a060406004815f200154835f5260036020526005825f20015482519182526020820152a2005b346101ee575f3660031901126101ee57602060405162093a808152f35b346101ee575f3660031901126101ee576114f1611b79565b335f52600360205260405f206002810180549182156115d657600101805462093a808101809111610299574210611591575f8092555561155281337f0000000000000000000000000000000000000000000000000000000000000000611b21565b6040519081527fcb15bbbdc28223e1198be8308a502cd2706d6c42b33d19f96c1589dd5e241ae460203392a260015f80516020611c2e83398151915255005b60405162461bcd60e51b815260206004820152601e60248201527f52656769737472793a20636f6f6c646f776e206e6f7420656c617073656400006044820152606490fd5b60405162461bcd60e51b815260206004820152601960248201527f52656769737472793a206e6f7468696e672070656e64696e67000000000000006044820152606490fd5b346101ee5760403660031901126101ee57611634611899565b60243590335f52600660205261165060ff60405f2054166118f7565b6001600160a01b03165f81815260036020526040902080549192821580159061188c575b15611847578281111561183d5761168c83809261193b565b906116c160028401918254938481115f1461183357506116b884915b6116b28382611948565b9761193b565b9384865561193b565b90556006820180549060018201809211610299575515611822575b5061138881028181046113881482151715610299576127109004611700818361193b565b81611783575b91606091837ff7e41ea76f0e7b22ba17dc4cc01fa75cff34ea24f5efe2874f5e17529625905094611747575b506040519133835260208301526040820152a2005b5f5461177d91906001600160a01b03167f0000000000000000000000000000000000000000000000000000000000000000611b21565b85611732565b7f000000000000000000000000000000000000000000000000000000000000000060405163a9059cbb60e01b5f5261dead6004528360245260205f60448180865af19060015f5114821615611801575b604052156117e15750611706565b635274afe760e01b5f9081526001600160a01b0391909116600452602490fd5b90600181151661181957823b15153d151616906117d3565b503d5f823e3d90fd5b600701805460ff19169055826116dc565b6116b890916116a8565b61168c818061193b565b60405162461bcd60e51b815260206004820152601a60248201527f52656769737472793a206e6f7468696e6720746f20736c6173680000000000006044820152606490fd5b5060028201541515611674565b600435906001600160a01b03821682036101ee57565b346101ee575f3660031901126101ee5760206040516127108152f35b6004548110156118e35760045f5260205f2001905f90565b634e487b7160e01b5f52603260045260245ffd5b156118fe57565b60405162461bcd60e51b81526020600482015260156024820152742932b3b4b9ba393c9d103737ba1039b630b9b432b960591b6044820152606490fd5b9190820391821161029957565b9190820180921161029957565b610120810190811067ffffffffffffffff8211176104ff57604052565b90601f8019910116810190811067ffffffffffffffff8211176104ff57604052565b67ffffffffffffffff81116104ff5760051b60200190565b906119b682611994565b6119c36040519182611972565b82815280926119d4601f1991611994565b0190602036910137565b80518210156118e35760209160051b010190565b156119f957565b60405162461bcd60e51b815260206004820152601860248201527f52656769737472793a206e6f74207265676973746572656400000000000000006044820152606490fd5b15611a4557565b60405162461bcd60e51b8152602060048201526015602482015274149959da5cdd1c9e4e881e995c9bc8185b5bdd5b9d605a1b6044820152606490fd5b611a8d60ff91611ac0565b1660038114611ab95760028114611ab25760011115611aac5761271090565b61271090565b506130d490565b50613a9890565b6001600160a01b03165f90815260036020526040902054692a5a058fc295ed000000811015611b1b57690a968163f0a57b400000811015611b155769021e19e0c9bab24000001115611b10575f90565b600190565b50600290565b50600390565b916040519163a9059cbb60e01b5f5260018060a01b031660045260245260205f60448180865af19060015f5114821615611b61575b604052156117e15750565b90600181151661181957823b15153d15161690611b56565b60025f80516020611c2e8339815191525414611ba25760025f80516020611c2e83398151915255565b633ee5aeb560e01b5f5260045ffd5b5f546001600160a01b03163303610c8957565b6040516323b872dd60e01b5f9081526001600160a01b039384166004529290931660245260449390935260209060648180865af19060015f5114821615611c15575b6040525f606052156117e15750565b90600181151661181957823b15153d15161690611c0656fe9b779b17422d0df92223018b32b4d1fa46e071723d6817e2486d003becc55f00a264697066735822122019519d4d0d17586ec6ebb243caa05fab08760a9f70ae57130095391a8b9936dd64736f6c634300081a0033",
  "linkReferences": {},
  "deployedLinkReferences": {}
}