{
  "_format": "hh-sol-artifact-1",
  "contractName": "WikiOpsVault",
  "sourceName": "src/WikiOpsVault.sol",
  "abi": [
    {
      "inputs": [
        {
          "internalType": "address",
          "name": "_owner",
          "type": "address"
        },
        {
          "internalType": "address",
          "name": "_usdc",
          "type": "address"
        }
      ],
      "stateMutability": "nonpayable",
      "type": "constructor"
    },
    {
      "inputs": [],
      "name": "EnforcedPause",
      "type": "error"
    },
    {
      "inputs": [],
      "name": "ExpectedPause",
      "type": "error"
    },
    {
      "inputs": [
        {
          "internalType": "address",
          "name": "owner",
          "type": "address"
        }
      ],
      "name": "OwnableInvalidOwner",
      "type": "error"
    },
    {
      "inputs": [
        {
          "internalType": "address",
          "name": "account",
          "type": "address"
        }
      ],
      "name": "OwnableUnauthorizedAccount",
      "type": "error"
    },
    {
      "inputs": [],
      "name": "ReentrancyGuardReentrantCall",
      "type": "error"
    },
    {
      "inputs": [
        {
          "internalType": "address",
          "name": "token",
          "type": "address"
        }
      ],
      "name": "SafeERC20FailedOperation",
      "type": "error"
    },
    {
      "anonymous": false,
      "inputs": [
        {
          "indexed": true,
          "internalType": "address",
          "name": "previousOwner",
          "type": "address"
        },
        {
          "indexed": true,
          "internalType": "address",
          "name": "newOwner",
          "type": "address"
        }
      ],
      "name": "OwnershipTransferStarted",
      "type": "event"
    },
    {
      "anonymous": false,
      "inputs": [
        {
          "indexed": true,
          "internalType": "address",
          "name": "previousOwner",
          "type": "address"
        },
        {
          "indexed": true,
          "internalType": "address",
          "name": "newOwner",
          "type": "address"
        }
      ],
      "name": "OwnershipTransferred",
      "type": "event"
    },
    {
      "anonymous": false,
      "inputs": [
        {
          "indexed": false,
          "internalType": "address",
          "name": "account",
          "type": "address"
        }
      ],
      "name": "Paused",
      "type": "event"
    },
    {
      "anonymous": false,
      "inputs": [
        {
          "indexed": false,
          "internalType": "uint256",
          "name": "toLending",
          "type": "uint256"
        },
        {
          "indexed": false,
          "internalType": "uint256",
          "name": "toBackstop",
          "type": "uint256"
        },
        {
          "indexed": false,
          "internalType": "uint256",
          "name": "toFunding",
          "type": "uint256"
        },
        {
          "indexed": false,
          "internalType": "uint256",
          "name": "idleAfter",
          "type": "uint256"
        }
      ],
      "name": "Rebalanced",
      "type": "event"
    },
    {
      "anonymous": false,
      "inputs": [
        {
          "indexed": false,
          "internalType": "uint256",
          "name": "amount",
          "type": "uint256"
        },
        {
          "indexed": false,
          "internalType": "uint256",
          "name": "cumulativeDeposited",
          "type": "uint256"
        }
      ],
      "name": "Received",
      "type": "event"
    },
    {
      "anonymous": false,
      "inputs": [
        {
          "indexed": false,
          "internalType": "address",
          "name": "lending",
          "type": "address"
        },
        {
          "indexed": false,
          "internalType": "address",
          "name": "backstop",
          "type": "address"
        },
        {
          "indexed": false,
          "internalType": "address",
          "name": "funding",
          "type": "address"
        }
      ],
      "name": "StrategyUpdated",
      "type": "event"
    },
    {
      "anonymous": false,
      "inputs": [
        {
          "indexed": false,
          "internalType": "address",
          "name": "account",
          "type": "address"
        }
      ],
      "name": "Unpaused",
      "type": "event"
    },
    {
      "anonymous": false,
      "inputs": [
        {
          "indexed": true,
          "internalType": "address",
          "name": "to",
          "type": "address"
        },
        {
          "indexed": false,
          "internalType": "uint256",
          "name": "amount",
          "type": "uint256"
        },
        {
          "indexed": false,
          "internalType": "uint256",
          "name": "yieldIncluded",
          "type": "uint256"
        }
      ],
      "name": "Withdrawn",
      "type": "event"
    },
    {
      "inputs": [],
      "name": "BPS",
      "outputs": [
        {
          "internalType": "uint256",
          "name": "",
          "type": "uint256"
        }
      ],
      "stateMutability": "view",
      "type": "function"
    },
    {
      "inputs": [],
      "name": "USDC",
      "outputs": [
        {
          "internalType": "contract IERC20",
          "name": "",
          "type": "address"
        }
      ],
      "stateMutability": "view",
      "type": "function"
    },
    {
      "inputs": [],
      "name": "acceptOwnership",
      "outputs": [],
      "stateMutability": "nonpayable",
      "type": "function"
    },
    {
      "inputs": [],
      "name": "backstopAllocBps",
      "outputs": [
        {
          "internalType": "uint256",
          "name": "",
          "type": "uint256"
        }
      ],
      "stateMutability": "view",
      "type": "function"
    },
    {
      "inputs": [],
      "name": "backstopVault",
      "outputs": [
        {
          "internalType": "contract IWikiBackstopVault",
          "name": "",
          "type": "address"
        }
      ],
      "stateMutability": "view",
      "type": "function"
    },
    {
      "inputs": [
        {
          "internalType": "uint256",
          "name": "requestId",
          "type": "uint256"
        }
      ],
      "name": "completeBackstopUnstake",
      "outputs": [],
      "stateMutability": "nonpayable",
      "type": "function"
    },
    {
      "inputs": [],
      "name": "dashboard",
      "outputs": [
        {
          "internalType": "uint256",
          "name": "totalValue_",
          "type": "uint256"
        },
        {
          "internalType": "uint256",
          "name": "idleUSDC",
          "type": "uint256"
        },
        {
          "internalType": "uint256",
          "name": "inLending",
          "type": "uint256"
        },
        {
          "internalType": "uint256",
          "name": "inBackstop",
          "type": "uint256"
        },
        {
          "internalType": "uint256",
          "name": "inFunding",
          "type": "uint256"
        },
        {
          "internalType": "uint256",
          "name": "totalDeposited_",
          "type": "uint256"
        },
        {
          "internalType": "uint256",
          "name": "totalWithdrawn_",
          "type": "uint256"
        },
        {
          "internalType": "uint256",
          "name": "netYieldEarned",
          "type": "uint256"
        },
        {
          "internalType": "uint256",
          "name": "estimatedAPY",
          "type": "uint256"
        },
        {
          "internalType": "uint256",
          "name": "instantLiquid",
          "type": "uint256"
        }
      ],
      "stateMutability": "view",
      "type": "function"
    },
    {
      "inputs": [],
      "name": "fundingAllocBps",
      "outputs": [
        {
          "internalType": "uint256",
          "name": "",
          "type": "uint256"
        }
      ],
      "stateMutability": "view",
      "type": "function"
    },
    {
      "inputs": [],
      "name": "fundingArbVault",
      "outputs": [
        {
          "internalType": "contract IWikiFundingArb",
          "name": "",
          "type": "address"
        }
      ],
      "stateMutability": "view",
      "type": "function"
    },
    {
      "inputs": [],
      "name": "lastRebalance",
      "outputs": [
        {
          "internalType": "uint256",
          "name": "",
          "type": "uint256"
        }
      ],
      "stateMutability": "view",
      "type": "function"
    },
    {
      "inputs": [],
      "name": "lendingAllocBps",
      "outputs": [
        {
          "internalType": "uint256",
          "name": "",
          "type": "uint256"
        }
      ],
      "stateMutability": "view",
      "type": "function"
    },
    {
      "inputs": [],
      "name": "lendingMarketId",
      "outputs": [
        {
          "internalType": "uint256",
          "name": "",
          "type": "uint256"
        }
      ],
      "stateMutability": "view",
      "type": "function"
    },
    {
      "inputs": [],
      "name": "lendingPool",
      "outputs": [
        {
          "internalType": "contract IWikiLending",
          "name": "",
          "type": "address"
        }
      ],
      "stateMutability": "view",
      "type": "function"
    },
    {
      "inputs": [],
      "name": "minIdleBps",
      "outputs": [
        {
          "internalType": "uint256",
          "name": "",
          "type": "uint256"
        }
      ],
      "stateMutability": "view",
      "type": "function"
    },
    {
      "inputs": [],
      "name": "owner",
      "outputs": [
        {
          "internalType": "address",
          "name": "",
          "type": "address"
        }
      ],
      "stateMutability": "view",
      "type": "function"
    },
    {
      "inputs": [],
      "name": "pause",
      "outputs": [],
      "stateMutability": "nonpayable",
      "type": "function"
    },
    {
      "inputs": [],
      "name": "paused",
      "outputs": [
        {
          "internalType": "bool",
          "name": "",
          "type": "bool"
        }
      ],
      "stateMutability": "view",
      "type": "function"
    },
    {
      "inputs": [],
      "name": "pendingOwner",
      "outputs": [
        {
          "internalType": "address",
          "name": "",
          "type": "address"
        }
      ],
      "stateMutability": "view",
      "type": "function"
    },
    {
      "inputs": [
        {
          "internalType": "uint256",
          "name": "monthlyInflow",
          "type": "uint256"
        },
        {
          "internalType": "uint256",
          "name": "blendedAPYBps",
          "type": "uint256"
        }
      ],
      "name": "projectGrowth",
      "outputs": [
        {
          "internalType": "uint256[13]",
          "name": "monthlyBalance",
          "type": "uint256[13]"
        },
        {
          "internalType": "uint256[13]",
          "name": "cumulativeYield",
          "type": "uint256[13]"
        }
      ],
      "stateMutability": "view",
      "type": "function"
    },
    {
      "inputs": [],
      "name": "rebalance",
      "outputs": [],
      "stateMutability": "nonpayable",
      "type": "function"
    },
    {
      "inputs": [
        {
          "internalType": "uint256",
          "name": "amount",
          "type": "uint256"
        }
      ],
      "name": "receiveAndInvest",
      "outputs": [],
      "stateMutability": "nonpayable",
      "type": "function"
    },
    {
      "inputs": [],
      "name": "renounceOwnership",
      "outputs": [],
      "stateMutability": "nonpayable",
      "type": "function"
    },
    {
      "inputs": [
        {
          "internalType": "uint256",
          "name": "shares",
          "type": "uint256"
        }
      ],
      "name": "requestBackstopUnstake",
      "outputs": [],
      "stateMutability": "nonpayable",
      "type": "function"
    },
    {
      "inputs": [
        {
          "internalType": "uint256",
          "name": "lending",
          "type": "uint256"
        },
        {
          "internalType": "uint256",
          "name": "backstop",
          "type": "uint256"
        },
        {
          "internalType": "uint256",
          "name": "funding",
          "type": "uint256"
        },
        {
          "internalType": "uint256",
          "name": "minIdle",
          "type": "uint256"
        }
      ],
      "name": "setAllocationBps",
      "outputs": [],
      "stateMutability": "nonpayable",
      "type": "function"
    },
    {
      "inputs": [
        {
          "internalType": "address",
          "name": "_lending",
          "type": "address"
        },
        {
          "internalType": "address",
          "name": "_backstop",
          "type": "address"
        },
        {
          "internalType": "address",
          "name": "_funding",
          "type": "address"
        },
        {
          "internalType": "uint256",
          "name": "_lendingMid",
          "type": "uint256"
        }
      ],
      "name": "setStrategies",
      "outputs": [],
      "stateMutability": "nonpayable",
      "type": "function"
    },
    {
      "inputs": [],
      "name": "totalDeposited",
      "outputs": [
        {
          "internalType": "uint256",
          "name": "",
          "type": "uint256"
        }
      ],
      "stateMutability": "view",
      "type": "function"
    },
    {
      "inputs": [],
      "name": "totalValue",
      "outputs": [
        {
          "internalType": "uint256",
          "name": "",
          "type": "uint256"
        }
      ],
      "stateMutability": "view",
      "type": "function"
    },
    {
      "inputs": [],
      "name": "totalWithdrawn",
      "outputs": [
        {
          "internalType": "uint256",
          "name": "",
          "type": "uint256"
        }
      ],
      "stateMutability": "view",
      "type": "function"
    },
    {
      "inputs": [
        {
          "internalType": "address",
          "name": "newOwner",
          "type": "address"
        }
      ],
      "name": "transferOwnership",
      "outputs": [],
      "stateMutability": "nonpayable",
      "type": "function"
    },
    {
      "inputs": [],
      "name": "unpause",
      "outputs": [],
      "stateMutability": "nonpayable",
      "type": "function"
    },
    {
      "inputs": [
        {
          "internalType": "uint256",
          "name": "amount",
          "type": "uint256"
        },
        {
          "internalType": "address",
          "name": "to",
          "type": "address"
        }
      ],
      "name": "withdraw",
      "outputs": [],
      "stateMutability": "nonpayable",
      "type": "function"
    },
    {
      "inputs": [
        {
          "internalType": "address",
          "name": "to",
          "type": "address"
        }
      ],
      "name": "withdrawAll",
      "outputs": [],
      "stateMutability": "nonpayable",
      "type": "function"
    },
    {
      "inputs": [
        {
          "internalType": "uint256",
          "name": "amount",
          "type": "uint256"
        },
        {
          "internalType": "address",
          "name": "to",
          "type": "address"
        }
      ],
      "name": "withdrawInstant",
      "outputs": [],
      "stateMutability": "nonpayable",
      "type": "function"
    }
  ],
  "bytecode": "0x60a0346101a857601f6122f638819003918201601f19168301916001600160401b038311848410176101ac5780849260409485528339810103126101a857610052602061004b836101c0565b92016101c0565b6001600160a01b0390911690811561019557600180546001600160a01b03199081169091555f80549182168417815560405193916001600160a01b0316907f8be0079c531659141344cd1fd0a4f28419497f9722a3daafe3b4186f6b6457e09080a360017f9b779b17422d0df92223018b32b4d1fa46e071723d6817e2486d003becc55f0055610fa060068190556007556107d06008556103e86009556001600160a01b0316908115610153575060805260405161212190816101d58239608051818181610315015281816107b80152818161098001528181610bac01528181610e5f0152818161136f015281816115bb015281816116ef01526119900152f35b62461bcd60e51b815260206004820152601360248201527f4f70735661756c743a207a65726f2055534443000000000000000000000000006044820152606490fd5b631e4fbdf760e01b5f525f60045260245ffd5b5f80fd5b634e487b7160e01b5f52604160045260245ffd5b51906001600160a01b03821682036101a85756fe60806040526004361015610011575f80fd5b5f803560e01c8062f714ce146112ac5780630fbc108a14611284578063106b9ca114611267578063249d39e91461124b5780633529d35c146111cc57806339a56673146111ae5780633f4ba83a1461113e5780634b319713146111205780635c975abb146110fa5780635e85f7ab1461106657806360fbd0c5146110485780636cebe85c1461102a578063715018a614610fc557806379ba509714610f405780637d7c2a1c14610f0f5780638456cb5914610eac57806388e8182c14610e8e57806389a3027114610e495780638da5cb5b14610e22578063935b44b614610df95780639649a9fa14610b5c578063a2c9409914610952578063a59a997314610929578063ad9bc17e14610786578063c67a4f7714610768578063d4c3eea014610745578063e30c39781461071c578063e684520514610696578063f1bcebba146105b2578063f2fde38b14610545578063fa09e63014610292578063fdbdeb05146101a45763ff50abdc14610184575f80fd5b346101a157806003193601126101a1576020600a54604051908152f35b80fd5b50346101a15760803660031901126101a1576101be611418565b6101c6611402565b6044356001600160a01b03811692919083900361028e577fd9847b720b59f663c6c4d36de22c3bd2d151d2b9f660b73d5a9a23dee7e327e09260609261020a6116aa565b6001600160a01b03169182610277575b6001600160a01b031680610260575b81610249575b60643560055560405192835260208301526040820152a180f35b600480546001600160a01b0319168317905561022f565b600380546001600160a01b03191682179055610229565b600280546001600160a01b0319168417905561021a565b8380fd5b50346101a15760203660031901126101a1576102ac611418565b6102b4611672565b6102bc6116aa565b6001600160a01b038116906102d2821515611499565b6102da611e64565b151580610531575b6104d1575b826102f0611f95565b801515806104bd575b61046c575b50506040516370a0823160e01b81523060048201527f000000000000000000000000000000000000000000000000000000000000000091906020816024816001600160a01b0387165afa90811561046157859161042b575b5080156103e6577f92ccf450a286a957af52509bc1c9939d1a6a481783e142e41e2499f0bb66ebc6926103bb82604094600a5493610397600b5480966114e5565b83818111156103da576103ad6103b392826114e5565b96611506565b600b556118dc565b82519182526020820152a260015f805160206120cc8339815191525580f35b6103b391508b96611506565b60405162461bcd60e51b815260206004820152601d60248201527f4f70735661756c743a206e6f7468696e6720746f2077697468647261770000006044820152606490fd5b90506020813d602011610459575b8161044660209383611557565b8101031261045557515f610356565b5f80fd5b3d9150610439565b6040513d87823e3d90fd5b6004546001600160a01b031690813b156104b9578291602483926040519485938492632e1a7d4d60e01b845260048401525af1156102fe57816104ae91611557565b6104b957825f6102fe565b8280fd5b506004546001600160a01b031615156102f9565b60025460055484916001600160a01b031690813b156104b9578291604483926040519485938492630441a3e760e41b845260048401525f1960248401525af161051c575b50506102e7565b8161052691611557565b6104b957825f610515565b506002546001600160a01b031615156102e2565b50346101a15760203660031901126101a15761055f611418565b6105676116aa565b600180546001600160a01b0319166001600160a01b0392831690811790915582549091167f38d16b8cac22d99fc7c124b9cd0de2d3fa1faef420bfe791d8c362d765e227008380a380f35b50346101a15760403660031901126101a157600435906024356101a090604051926105dd8385611557565b82368537604051946105ef8487611557565b833687376105fb6115a0565b8283915b600c83111561062857610340886106268b8a61061e604051809561142e565b83019061142e565bf35b8061066f91610637858b61164d565b5282610643858c61164d565b52610669600c6127106106568a8561158d565b0404916106638388611506565b90611506565b92611506565b915f1981146106825760010191906105ff565b634e487b7160e01b85526011600452602485fd5b50346101a15760203660031901126101a1576106b06116aa565b60035481906001600160a01b03166106c9811515611513565b803b156107195781809160246040518094819363154ad53b60e21b835260043560048401525af1801561070e576106fd5750f35b8161070791611557565b6101a15780f35b6040513d84823e3d90fd5b50fd5b50346101a157806003193601126101a1576001546040516001600160a01b039091168152602090f35b50346101a157806003193601126101a15760206107606115a0565b604051908152f35b50346101a157806003193601126101a1576020600854604051908152f35b50346101a15760203660031901126101a1576004356107a3611672565b6107ab61195d565b6107b6811515611455565b7f0000000000000000000000000000000000000000000000000000000000000000906040516323b872dd60e01b845233600452306024528160445260208460648180875af1906001855114821615610908575b60405283606052156108ec576024917f49b838b1f120c3d2fb431047a22c4c3f41cbebfeec469a48c6d0f94db4b831b560408361084a602095600a54611506565b80600a55825191825285820152a16040516370a0823160e01b815230600482015292839182906001600160a01b03165afa801561070e5782906108b6575b6305f5e1009150116108a9575b60015f805160206120cc8339815191525580f35b6108b161197b565b610895565b506020813d6020116108e4575b816108d060209383611557565b81010312610455576305f5e1009051610888565b3d91506108c3565b635274afe760e01b83526001600160a01b038216600452602483fd5b90600181151661092057833b15153d15161690610809565b503d84823e3d90fd5b50346101a157806003193601126101a1576002546040516001600160a01b039091168152602090f35b50346101a157806003193601126101a1576040516370a0823160e01b815230600482015281906020816024817f00000000000000000000000000000000000000000000000000000000000000006001600160a01b03165afa908115610b51578391610b1f575b506109c1611e64565b916109ca611ee6565b926109d3611f95565b936109eb856109e6836109e68689611506565b611506565b94600a5490600b54928383115f14610b1957610a0784846114e5565b80891115610b1157610a1990896114e5565b945b8815998a15610a6d575b506101409950610a358189611506565b97604051998a5260208a015260408901526060880152608087015260a086015260c085015260e0840152610100830152610120820152f35b90965061025887028781046102581488151715610afd576107d08302908382046107d01484151715610ae95790610aa391611506565b6103e88402908482046103e81485151715610ae95790610ac291611506565b99610ad55750876101409904955f610a25565b634e487b7160e01b81526012600452602490fd5b634e487b7160e01b83526011600452602483fd5b634e487b7160e01b82526011600452602482fd5b508894610a1b565b88610a07565b90506020813d602011610b49575b81610b3a60209383611557565b8101031261045557515f6109b8565b3d9150610b2d565b6040513d85823e3d90fd5b50346101a15760403660031901126101a157600435610b79611402565b610b81611672565b610b896116aa565b81151580610de7575b15610dab576040516370a0823160e01b81523060048201527f000000000000000000000000000000000000000000000000000000000000000092906020816024816001600160a01b0388165afa908115610461578591610d79575b508082811080610d65575b610cbd575b5081811115610cb55750915b8215610c705781610c45847f92ccf450a286a957af52509bc1c9939d1a6a481783e142e41e2499f0bb66ebc6946040946103b383600b54611506565b8151938452602084018590526001600160a01b031692a260015f805160206120cc8339815191525580f35b60405162461bcd60e51b815260206004820152601960248201527f4f70735661756c743a206e6f206c69717569642066756e6473000000000000006044820152606490fd5b905091610c09565b610cc781846114e5565b610ccf611e64565b9081811115610d5d5750905b81610ce7575b50610bfd565b60025460055488916001600160a01b031690813b156104b9578291604483926040519586938492630441a3e760e41b845260048401528960248401525af19182610d44575b505015610ce157610d3d9250611506565b5f80610ce1565b81610d4e91611557565b610d5957875f610d2c565b8780fd5b905090610cdb565b506002546001600160a01b03161515610bf8565b90506020813d602011610da3575b81610d9460209383611557565b8101031261045557515f610bed565b3d9150610d87565b60405162461bcd60e51b81526020600482015260146024820152734f70735661756c743a2062616420706172616d7360601b6044820152606490fd5b506001600160a01b0381161515610b92565b50346101a157806003193601126101a1576003546040516001600160a01b039091168152602090f35b50346101a157806003193601126101a157546040516001600160a01b039091168152602090f35b50346101a157806003193601126101a1576040517f00000000000000000000000000000000000000000000000000000000000000006001600160a01b03168152602090f35b50346101a157806003193601126101a1576020600654604051908152f35b50346101a157806003193601126101a157610ec56116aa565b610ecd61195d565b6001805460ff60a01b1916600160a01b1790556040513381527f62e78cea01bee320cd4e420270b5ea74000d11b0c9f74754ebdbfc544b05a25890602090a180f35b50346101a157806003193601126101a157610f28611672565b610f3061195d565b610f386116aa565b61089561197b565b50346101a157806003193601126101a157600154336001600160a01b0390911603610fb257600180546001600160a01b0319908116909155815433918116821783556001600160a01b03167f8be0079c531659141344cd1fd0a4f28419497f9722a3daafe3b4186f6b6457e08380a380f35b63118cdaa760e01b815233600452602490fd5b50346101a157806003193601126101a157610fde6116aa565b600180546001600160a01b03199081169091558154908116825581906001600160a01b03167f8be0079c531659141344cd1fd0a4f28419497f9722a3daafe3b4186f6b6457e08280a380f35b50346101a157806003193601126101a1576020600754604051908152f35b50346101a157806003193601126101a1576020600554604051908152f35b50346101a15760803660031901126101a15760643560443560243560043561108c6116aa565b6127106110a1856109e6866109e68787611506565b036110b55760065560075560085560095580f35b60405162461bcd60e51b815260206004820152601a60248201527f4f70735661756c743a206d7573742073756d20746f20313030250000000000006044820152606490fd5b50346101a157806003193601126101a157602060ff60015460a01c166040519015158152f35b50346101a157806003193601126101a1576020600b54604051908152f35b50346101a157806003193601126101a1576111576116aa565b60015460ff8160a01c161561119f5760ff60a01b19166001556040513381527f5db9ee0a495bf2e6ff9c91a7834c1ba4fdd244a5e8aa4e537bd38aeae4b073aa90602090a180f35b638dfc202b60e01b8252600482fd5b50346101a157806003193601126101a1576020600954604051908152f35b5034610455576020366003190112610455576111e66116aa565b6003546001600160a01b03166111fd811515611513565b803b15610455575f8091602460405180948193632309572160e01b835260043560048401525af1801561124057611232575080f35b61123e91505f90611557565b005b6040513d5f823e3d90fd5b34610455575f3660031901126104555760206040516127108152f35b34610455575f366003190112610455576020600c54604051908152f35b34610455575f366003190112610455576004546040516001600160a01b039091168152602090f35b34610455576040366003190112610455576004356112c8611402565b906112d1611672565b6112d96116aa565b6112e4811515611455565b6001600160a01b038216916112fa831515611499565b611303826116d0565b9182106113be57816040916113937f92ccf450a286a957af52509bc1c9939d1a6a481783e142e41e2499f0bb66ebc694600a5492600b5493828561134781846114e5565b8211156113b15761135e6113649161136a946114e5565b826114e5565b95611506565b600b557f00000000000000000000000000000000000000000000000000000000000000006118dc565b82519182526020820152a260015f805160206120cc83398151915255005b5061136a91505f95611506565b606460405162461bcd60e51b815260206004820152602060248201527f4f70735661756c743a20696e73756666696369656e74206c69717569646974796044820152fd5b602435906001600160a01b038216820361045557565b600435906001600160a01b038216820361045557565b905f905b600d821061143f57505050565b6020806001928551815201930191019091611432565b1561145c57565b60405162461bcd60e51b815260206004820152601560248201527413dc1cd5985d5b1d0e881e995c9bc8185b5bdd5b9d605a1b6044820152606490fd5b156114a057565b60405162461bcd60e51b815260206004820152601860248201527f4f70735661756c743a207a65726f20726563697069656e7400000000000000006044820152606490fd5b919082039182116114f257565b634e487b7160e01b5f52601160045260245ffd5b919082018092116114f257565b1561151a57565b60405162461bcd60e51b815260206004820152601560248201527404f70735661756c743a206e6f206261636b73746f7605c1b6044820152606490fd5b90601f8019910116810190811067ffffffffffffffff82111761157957604052565b634e487b7160e01b5f52604160045260245ffd5b818102929181159184041417156114f257565b6040516370a0823160e01b81523060048201526020816024817f00000000000000000000000000000000000000000000000000000000000000006001600160a01b03165afa908115611240575f91611619575b5061160e61160661161692610663611e64565b610663611ee6565b610663611f95565b90565b90506020813d602011611645575b8161163460209383611557565b81010312610455575161160e6115f3565b3d9150611627565b90600d81101561165e5760051b0190565b634e487b7160e01b5f52603260045260245ffd5b60025f805160206120cc833981519152541461169b5760025f805160206120cc83398151915255565b633ee5aeb560e01b5f5260045ffd5b5f546001600160a01b031633036116bd57565b63118cdaa760e01b5f523360045260245ffd5b6040516370a0823160e01b81523060048201529091905f6020826024817f00000000000000000000000000000000000000000000000000000000000000006001600160a01b03165afa918215611240575f926118a8575b50838210156117bc5761173b8280956114e5565b9160018060a01b0360025416908161180c575b5050811515806117f8575b611761575050565b611769611f95565b808311156117f057905b8161177d57505050565b6004546001600160a01b0316803b156117ec57818091602460405180958193632e1a7d4d60e01b83528860048401525af191826117d7575b50506117c0575b5050565b6117ce816117d49395611506565b936114e5565b50565b6117e2828092611557565b6101a157806117b5565b5080fd5b508190611773565b506004546001600160a01b03161515611759565b611814611e64565b808511156118a057915b8261182a575b5061174e565b600554813b15610455575f91604483926040519485938492630441a3e760e41b845260048401528860248401525af1908161188b575b5061186c575b80611824565b611883929395508161187d91611506565b946114e5565b905f80611866565b6118989194505f90611557565b5f925f611860565b50839161181e565b9091506020813d6020116118d4575b816118c460209383611557565b810103126104555751905f611727565b3d91506118b7565b916040519163a9059cbb60e01b5f5260018060a01b031660045260245260205f60448180865af19060015f511482161561193c575b6040521561191c5750565b635274afe760e01b5f9081526001600160a01b0391909116600452602490fd5b90600181151661195457823b15153d15161690611911565b503d5f823e3d90fd5b60ff60015460a01c1661196c57565b63d93c066560e01b5f5260045ffd5b6040516370a0823160e01b81523060048201527f0000000000000000000000000000000000000000000000000000000000000000906001600160a01b038216905f90602081602481865afa908115611240575f91611e32575b508015611e2c57600954612710039061271082116114f257612710916119f99161158d565b04629896808110611e2c57611a0c6115a0565b92611a15611e64565b94611a1e611ee6565b90611a27611f95565b612710611a366006548961158d565b0492612710611a5681611a4b6007548c61158d565b04996008549061158d565b04905f985f975f9b819780821080611e18575b611d4b575b50505080821080611d37575b80611d2e575b611c62575b505080821080611c4e575b80611c45575b611b70575b50505050602060249142600c55604051928380926370a0823160e01b82523060048301525afa928315611b645792611b0e575b50907f6f55209924dba11af5ddabda4999b20d0ce3aa1847c56b67240ed1fc3590c1349360809392604051938452602084015260408301526060820152a1565b9291506020833d602011611b5c575b81611b2a60209383611557565b8101031261045557915190917f6f55209924dba11af5ddabda4999b20d0ce3aa1847c56b67240ed1fc3590c134611ace565b3d9150611b1d565b604051903d90823e3d90fd5b611b7c929398506114e5565b86811115611c3f575085905b611b938280986114e5565b9082611ba0575b80611a9b565b60045493979293919291611bbf9185916001600160a01b031690611fd6565b6004546001600160a01b0316803b15611c3b578580809260246040518095819363b6b55f2560e01b83528a60048401525af19182611c26575b5050611c18575090611c0991611506565b506024602083955b915f611b9a565b956024925060209150611c11565b81611c3091611557565b611c3b57855f611bf8565b8580fd5b90611b88565b50831515611a96565b506004546001600160a01b03161515611a90565b611c6e929597506114e5565b85811115611d28575084925b611c858480976114e5565b9380611c92575b80611a85565b91939095611cab8360018060a01b036003541686611fd6565b6003546001600160a01b0316803b15611d245788808092604460405180958193631c57762b60e31b83528a60048401528160248401525af19182611d0f575b5050611d05575090611cfb91611506565b9185945b5f611c8c565b9590939150611cff565b81611d1991611557565b611d2457885f611cea565b8880fd5b92611c7a565b50851515611a80565b506003546001600160a01b03161515611a7a565b90919b50611d5a9297506114e5565b89811115611e12575088945b611d7186809b6114e5565b9580611d7f575b8080611a6e565b91959099611d988360018060a01b036002541688611fd6565b60018060a01b0360025416600554813b15610455575f916044839260405194859384926336bb3e9b60e21b845260048401528960248401525af19081611dfd575b50611df3575090611de991611506565b9387985b5f611d78565b9990959150611ded565b611e0a919b505f90611557565b5f995f611dd9565b94611d66565b506002546001600160a01b03161515611a69565b50505050565b90506020813d602011611e5c575b81611e4d60209383611557565b8101031261045557515f6119d4565b3d9150611e40565b6002546001600160a01b03168015611ee157602060055460446040518094819363eb5a4fd760e01b835260048301523060248301525afa5f9181611ead575b5061161657505f90565b9091506020813d602011611ed9575b81611ec960209383611557565b810103126104555751905f611ea3565b3d9150611ebc565b505f90565b6003546001600160a01b03168015611ee1576040516370a0823160e01b8152306004820152602081602481855afa5f9181611f61575b50611f275750505f90565b8015611f5b576020906024604051809481936307fe0c8560e41b835260048301525afa5f9181611ead575061161657505f90565b50505f90565b9091506020813d602011611f8d575b81611f7d60209383611557565b810103126104555751905f611f1c565b3d9150611f70565b6004546001600160a01b03168015611ee15760206024916040519283809263069ecc7560e01b82523060048301525afa5f9181611ead575061161657505f90565b916040519163095ea7b360e01b5f5260018060a01b031691826004528160245260205f60448180885af19060015f51148216156120bc575b6040521561201b57505050565b60405163095ea7b360e01b5f52826004525f60245260205f60448180885af19060015f51148216156120a4575b60405215612086576040519163095ea7b360e01b5f5260045260245260205f60448180865af19060015f511482161561193c576040521561191c5750565b635274afe760e01b5f9081526001600160a01b038416600452602490fd5b90600181151661195457843b15153d15161690612048565b90843b15153d1516169061200e56fe9b779b17422d0df92223018b32b4d1fa46e071723d6817e2486d003becc55f00a26469706673582212207a04ab332d35b48c09f2030d99622972267ca29a56cf85a23d989ffece351b1764736f6c634300081a0033",
  "linkReferences": {},
  "deployedLinkReferences": {}
}