{
  "_format": "hh-sol-artifact-1",
  "contractName": "WikiTraderSubscription",
  "sourceName": "src/WikiTraderSubscription.sol",
  "abi": [
    {
      "inputs": [
        {
          "internalType": "address",
          "name": "_usdc",
          "type": "address"
        },
        {
          "internalType": "address",
          "name": "_treasury",
          "type": "address"
        },
        {
          "internalType": "address",
          "name": "_owner",
          "type": "address"
        }
      ],
      "stateMutability": "nonpayable",
      "type": "constructor"
    },
    {
      "inputs": [
        {
          "internalType": "address",
          "name": "owner",
          "type": "address"
        }
      ],
      "name": "OwnableInvalidOwner",
      "type": "error"
    },
    {
      "inputs": [
        {
          "internalType": "address",
          "name": "account",
          "type": "address"
        }
      ],
      "name": "OwnableUnauthorizedAccount",
      "type": "error"
    },
    {
      "inputs": [],
      "name": "ReentrancyGuardReentrantCall",
      "type": "error"
    },
    {
      "inputs": [
        {
          "internalType": "address",
          "name": "token",
          "type": "address"
        }
      ],
      "name": "SafeERC20FailedOperation",
      "type": "error"
    },
    {
      "anonymous": false,
      "inputs": [
        {
          "indexed": true,
          "internalType": "address",
          "name": "user",
          "type": "address"
        },
        {
          "indexed": false,
          "internalType": "bytes32",
          "name": "keyHash",
          "type": "bytes32"
        }
      ],
      "name": "APIKeySet",
      "type": "event"
    },
    {
      "anonymous": false,
      "inputs": [
        {
          "indexed": true,
          "internalType": "address",
          "name": "user",
          "type": "address"
        }
      ],
      "name": "Cancelled",
      "type": "event"
    },
    {
      "anonymous": false,
      "inputs": [
        {
          "indexed": true,
          "internalType": "address",
          "name": "previousOwner",
          "type": "address"
        },
        {
          "indexed": true,
          "internalType": "address",
          "name": "newOwner",
          "type": "address"
        }
      ],
      "name": "OwnershipTransferStarted",
      "type": "event"
    },
    {
      "anonymous": false,
      "inputs": [
        {
          "indexed": true,
          "internalType": "address",
          "name": "previousOwner",
          "type": "address"
        },
        {
          "indexed": true,
          "internalType": "address",
          "name": "newOwner",
          "type": "address"
        }
      ],
      "name": "OwnershipTransferred",
      "type": "event"
    },
    {
      "anonymous": false,
      "inputs": [
        {
          "indexed": true,
          "internalType": "address",
          "name": "user",
          "type": "address"
        },
        {
          "indexed": false,
          "internalType": "enum WikiTraderSubscription.Plan",
          "name": "plan",
          "type": "uint8"
        },
        {
          "indexed": false,
          "internalType": "uint256",
          "name": "newExpiry",
          "type": "uint256"
        }
      ],
      "name": "Renewed",
      "type": "event"
    },
    {
      "anonymous": false,
      "inputs": [
        {
          "indexed": true,
          "internalType": "address",
          "name": "user",
          "type": "address"
        },
        {
          "indexed": false,
          "internalType": "enum WikiTraderSubscription.Plan",
          "name": "plan",
          "type": "uint8"
        },
        {
          "indexed": false,
          "internalType": "uint256",
          "name": "expiresAt",
          "type": "uint256"
        }
      ],
      "name": "Subscribed",
      "type": "event"
    },
    {
      "inputs": [],
      "name": "ANNUAL_FEE",
      "outputs": [
        {
          "internalType": "uint256",
          "name": "",
          "type": "uint256"
        }
      ],
      "stateMutability": "view",
      "type": "function"
    },
    {
      "inputs": [],
      "name": "MONTH",
      "outputs": [
        {
          "internalType": "uint256",
          "name": "",
          "type": "uint256"
        }
      ],
      "stateMutability": "view",
      "type": "function"
    },
    {
      "inputs": [],
      "name": "MONTHLY_FEE",
      "outputs": [
        {
          "internalType": "uint256",
          "name": "",
          "type": "uint256"
        }
      ],
      "stateMutability": "view",
      "type": "function"
    },
    {
      "inputs": [],
      "name": "USDC",
      "outputs": [
        {
          "internalType": "contract IERC20",
          "name": "",
          "type": "address"
        }
      ],
      "stateMutability": "view",
      "type": "function"
    },
    {
      "inputs": [],
      "name": "YEAR",
      "outputs": [
        {
          "internalType": "uint256",
          "name": "",
          "type": "uint256"
        }
      ],
      "stateMutability": "view",
      "type": "function"
    },
    {
      "inputs": [],
      "name": "acceptOwnership",
      "outputs": [],
      "stateMutability": "nonpayable",
      "type": "function"
    },
    {
      "inputs": [],
      "name": "activeCount",
      "outputs": [
        {
          "internalType": "uint256",
          "name": "",
          "type": "uint256"
        }
      ],
      "stateMutability": "view",
      "type": "function"
    },
    {
      "inputs": [],
      "name": "arr",
      "outputs": [
        {
          "internalType": "uint256",
          "name": "",
          "type": "uint256"
        }
      ],
      "stateMutability": "view",
      "type": "function"
    },
    {
      "inputs": [
        {
          "internalType": "address",
          "name": "user",
          "type": "address"
        }
      ],
      "name": "getSubscription",
      "outputs": [
        {
          "components": [
            {
              "internalType": "address",
              "name": "subscriber",
              "type": "address"
            },
            {
              "internalType": "enum WikiTraderSubscription.Plan",
              "name": "plan",
              "type": "uint8"
            },
            {
              "internalType": "uint256",
              "name": "expiresAt",
              "type": "uint256"
            },
            {
              "internalType": "uint256",
              "name": "totalPaid",
              "type": "uint256"
            },
            {
              "internalType": "bool",
              "name": "active",
              "type": "bool"
            },
            {
              "internalType": "bytes32",
              "name": "apiKeyHash",
              "type": "bytes32"
            }
          ],
          "internalType": "struct WikiTraderSubscription.Subscription",
          "name": "",
          "type": "tuple"
        }
      ],
      "stateMutability": "view",
      "type": "function"
    },
    {
      "inputs": [
        {
          "internalType": "address",
          "name": "user",
          "type": "address"
        }
      ],
      "name": "isActive",
      "outputs": [
        {
          "internalType": "bool",
          "name": "",
          "type": "bool"
        }
      ],
      "stateMutability": "view",
      "type": "function"
    },
    {
      "inputs": [],
      "name": "mrr",
      "outputs": [
        {
          "internalType": "uint256",
          "name": "",
          "type": "uint256"
        }
      ],
      "stateMutability": "view",
      "type": "function"
    },
    {
      "inputs": [],
      "name": "owner",
      "outputs": [
        {
          "internalType": "address",
          "name": "",
          "type": "address"
        }
      ],
      "stateMutability": "view",
      "type": "function"
    },
    {
      "inputs": [],
      "name": "pendingOwner",
      "outputs": [
        {
          "internalType": "address",
          "name": "",
          "type": "address"
        }
      ],
      "stateMutability": "view",
      "type": "function"
    },
    {
      "inputs": [
        {
          "internalType": "enum WikiTraderSubscription.Plan",
          "name": "plan",
          "type": "uint8"
        }
      ],
      "name": "renew",
      "outputs": [],
      "stateMutability": "nonpayable",
      "type": "function"
    },
    {
      "inputs": [],
      "name": "renounceOwnership",
      "outputs": [],
      "stateMutability": "nonpayable",
      "type": "function"
    },
    {
      "inputs": [
        {
          "internalType": "bytes32",
          "name": "apiKeyHash",
          "type": "bytes32"
        }
      ],
      "name": "setAPIKey",
      "outputs": [],
      "stateMutability": "nonpayable",
      "type": "function"
    },
    {
      "inputs": [
        {
          "internalType": "enum WikiTraderSubscription.Plan",
          "name": "plan",
          "type": "uint8"
        },
        {
          "internalType": "bytes32",
          "name": "apiKeyHash",
          "type": "bytes32"
        }
      ],
      "name": "subscribe",
      "outputs": [],
      "stateMutability": "nonpayable",
      "type": "function"
    },
    {
      "inputs": [],
      "name": "subscriberCount",
      "outputs": [
        {
          "internalType": "uint256",
          "name": "",
          "type": "uint256"
        }
      ],
      "stateMutability": "view",
      "type": "function"
    },
    {
      "inputs": [
        {
          "internalType": "uint256",
          "name": "",
          "type": "uint256"
        }
      ],
      "name": "subscribers",
      "outputs": [
        {
          "internalType": "address",
          "name": "",
          "type": "address"
        }
      ],
      "stateMutability": "view",
      "type": "function"
    },
    {
      "inputs": [
        {
          "internalType": "address",
          "name": "",
          "type": "address"
        }
      ],
      "name": "subscriptions",
      "outputs": [
        {
          "internalType": "address",
          "name": "subscriber",
          "type": "address"
        },
        {
          "internalType": "enum WikiTraderSubscription.Plan",
          "name": "plan",
          "type": "uint8"
        },
        {
          "internalType": "uint256",
          "name": "expiresAt",
          "type": "uint256"
        },
        {
          "internalType": "uint256",
          "name": "totalPaid",
          "type": "uint256"
        },
        {
          "internalType": "bool",
          "name": "active",
          "type": "bool"
        },
        {
          "internalType": "bytes32",
          "name": "apiKeyHash",
          "type": "bytes32"
        }
      ],
      "stateMutability": "view",
      "type": "function"
    },
    {
      "inputs": [],
      "name": "totalRevenue",
      "outputs": [
        {
          "internalType": "uint256",
          "name": "",
          "type": "uint256"
        }
      ],
      "stateMutability": "view",
      "type": "function"
    },
    {
      "inputs": [
        {
          "internalType": "address",
          "name": "newOwner",
          "type": "address"
        }
      ],
      "name": "transferOwnership",
      "outputs": [],
      "stateMutability": "nonpayable",
      "type": "function"
    },
    {
      "inputs": [],
      "name": "treasury",
      "outputs": [
        {
          "internalType": "address",
          "name": "",
          "type": "address"
        }
      ],
      "stateMutability": "view",
      "type": "function"
    }
  ],
  "bytecode": "0x60a0346101d157601f610f5838819003918201601f19168301916001600160401b038311848410176101d5578084926060946040528339810103126101d157610047816101e9565b90610054602082016101e9565b906001600160a01b039061006a906040016101e9565b169182156101be57600180546001600160a01b03199081169091555f80549182168517815560405194916001600160a01b0316907f8be0079c531659141344cd1fd0a4f28419497f9722a3daafe3b4186f6b6457e09080a360017f9b779b17422d0df92223018b32b4d1fa46e071723d6817e2486d003becc55f00556001600160a01b031691821561018957506001600160a01b031690811561014457608052600480546001600160a01b031916919091179055604051610d5a90816101fe82396080518181816103c20152818161068701526107fb0152f35b60405162461bcd60e51b815260206004820152601460248201527f57696b693a207a65726f205f74726561737572790000000000000000000000006044820152606490fd5b62461bcd60e51b815260206004820152601060248201526f57696b693a207a65726f205f7573646360801b6044820152606490fd5b631e4fbdf760e01b5f525f60045260245ffd5b5f80fd5b634e487b7160e01b5f52604160045260245ffd5b51906001600160a01b03821682036101d15756fe6080806040526004361015610012575f80fd5b5f3560e01c9081630ab7ebcb14610b38575080630cbebc2414610a3f57806317c3f2cd1461078b57806324851d6e146106155780634331ed1f146105f857806357ee7f611461056157806359221a681461051f57806361d027b3146104f7578063715018a61461049457806379ba50971461040f57806383914540146103f157806389a30271146103ad5780638da5cb5b146103865780639a68e86a1461034f5780639f8a13d714610316578063bb124365146102f8578063bf2d9e0b146102db578063d5999a5c146102be578063e30c397814610296578063e81d53cf14610236578063ef352bbe14610219578063f046395a146101905763f2fde38b14610119575f80fd5b3461018c57602036600319011261018c576004356001600160a01b0381169081900361018c57610147610cf1565b600180546001600160a01b031916821790555f80546001600160a01b0316907f38d16b8cac22d99fc7c124b9cd0de2d3fa1faef420bfe791d8c362d765e227009080a3005b5f80fd5b3461018c57602036600319011261018c576004356001600160a01b0381169081900361018c575f52600260205260c060405f208054906001810154906002810154600460ff600384015416920154926102016040519560018060a01b038116875260ff602088019160a01c16610b54565b604085015260608401521515608083015260a0820152f35b3461018c575f36600319011261018c576020600354604051908152f35b3461018c575f36600319011261018c576006546305e69ec08102908082046305e69ec01481151715610282576346cf71000290808204600c149015171561028257602090604051908152f35b634e487b7160e01b5f52601160045260245ffd5b3461018c575f36600319011261018c576001546040516001600160a01b039091168152602090f35b3461018c575f36600319011261018c57602060405162278d008152f35b3461018c575f36600319011261018c576020600554604051908152f35b3461018c575f36600319011261018c5760206040516305e69ec08152f35b3461018c57602036600319011261018c576004356001600160a01b038116810361018c57610345602091610bea565b6040519015158152f35b3461018c575f36600319011261018c576006546305e69ec08102908082046305e69ec0149015171561028257602090604051908152f35b3461018c575f36600319011261018c575f546040516001600160a01b039091168152602090f35b3461018c575f36600319011261018c576040517f00000000000000000000000000000000000000000000000000000000000000006001600160a01b03168152602090f35b3461018c575f36600319011261018c5760206040516301e133808152f35b3461018c575f36600319011261018c57600154336001600160a01b039091160361048157600180546001600160a01b03199081169091555f805433928116831782556001600160a01b0316907f8be0079c531659141344cd1fd0a4f28419497f9722a3daafe3b4186f6b6457e09080a3005b63118cdaa760e01b5f523360045260245ffd5b3461018c575f36600319011261018c576104ac610cf1565b600180546001600160a01b03199081169091555f80549182168155906001600160a01b03167f8be0079c531659141344cd1fd0a4f28419497f9722a3daafe3b4186f6b6457e08280a3005b3461018c575f36600319011261018c576004546040516001600160a01b039091168152602090f35b3461018c57602036600319011261018c5760043560035481101561018c57610548602091610b61565b905460405160039290921b1c6001600160a01b03168152f35b3461018c57602036600319011261018c5760043561057e33610bea565b156105c257335f52600260205280600460405f2001556040519081527f76ddf909e7a492b63896184f764e7a114339fbe02485965361451f0adc8ccd6960203392a2005b60405162461bcd60e51b815260206004820152600e60248201526d54533a206e6f742061637469766560901b6044820152606490fd5b3461018c575f36600319011261018c576020600654604051908152f35b3461018c57602036600319011261018c57600435600281101561018c5761063a610c27565b335f52600260205260405f2060ff60038201541615610751576106e7600180841492835f1461074657633b023380935b1561073c576301e13380935b6106ab81848060a01b0360045416337f0000000000000000000000000000000000000000000000000000000000000000610c5f565b6106b781600554610bb9565b6005556106c48683610bc6565b6106d360028301918254610bb9565b9055019182544281115f1461073557610bb9565b8091556106f76040518093610b54565b60208201527f0db0cdee0835894cd85c3775c88c5f58768a508801b3344e5b16b2e95ebf082360403392a260015f80516020610d0583398151915255005b5042610bb9565b62278d0093610676565b6305e69ec09361066a565b60405162461bcd60e51b81526020600482015260126024820152711514ce881b9bdd081cdd589cd8dc9a58995960721b6044820152606490fd5b3461018c57604036600319011261018c57600435600281101561018c57602435906107b4610c27565b335f526002602052600160405f2001544210610a05576001811480156109fa57633b023380905b156109f1576301e133805b60045461081f9083906001600160a01b0316337f0000000000000000000000000000000000000000000000000000000000000000610c5f565b61082b82600554610bb9565b600555335f52600260205260ff600360405f2001541615610987575b6108518142610bb9565b9161085a610b8d565b903382526020820161086c8682610bad565b6040830194855260608301918252608083016001815260a0840191888352335f52600260205260405f209460018060a01b039051166bffffffffffffffffffffffff60a01b86541617855551926002841015610973576108fc966108d260049587610bc6565b516001860155516002850155600384019051151560ff801983541691161790555191015542610bb9565b6109096040518093610b54565b60208201527f044f95a2d17727b5b87e4f23d70278b59a2b0b285289cc9021cac8cdba4797b760403392a26040519081527f76ddf909e7a492b63896184f764e7a114339fbe02485965361451f0adc8ccd6960203392a260015f80516020610d0583398151915255005b634e487b7160e01b5f52602160045260245ffd5b600354680100000000000000008110156109dd578060016109ab9201600355610b61565b81546001600160a01b0360039290921b91821b19163390911b1790556006545f19811461028257600101600655610847565b634e487b7160e01b5f52604160045260245ffd5b62278d006107e6565b6305e69ec0906107db565b60405162461bcd60e51b815260206004820152601260248201527154533a20616c72656164792061637469766560701b6044820152606490fd5b3461018c57602036600319011261018c576004356001600160a01b0381169081900361018c575f60a0610a70610b8d565b82815282602082015282604082015282606082015282608082015201525f52600260205260c060405f20610aa2610b8d565b81546001600160a01b038116825290916020830191610ac79060a01c60ff1683610bad565b60018101546040840190815260028201549060608501918252610b1c600460ff6003860154169460808801951515865201549460a087019586526040519660018060a01b039051168752516020870190610b54565b51604085015251606084015251151560808301525160a0820152f35b3461018c575f36600319011261018c5780633b02338060209252f35b9060028210156109735752565b600354811015610b795760035f5260205f2001905f90565b634e487b7160e01b5f52603260045260245ffd5b6040519060c0820182811067ffffffffffffffff8211176109dd57604052565b60028210156109735752565b9190820180921161028257565b90600281101561097357815460ff60a01b191660a09190911b60ff60a01b16179055565b6001600160a01b03165f8181526002602052604090206003015460ff169081610c11575090565b90505f526002602052600160405f200154421090565b60025f80516020610d058339815191525414610c505760025f80516020610d0583398151915255565b633ee5aeb560e01b5f5260045ffd5b6040516323b872dd60e01b5f9081526001600160a01b039384166004529290931660245260449390935260209060648180865af19060015f5114821615610cd0575b6040525f60605215610cb05750565b635274afe760e01b5f9081526001600160a01b0391909116600452602490fd5b906001811516610ce857823b15153d15161690610ca1565b503d5f823e3d90fd5b5f546001600160a01b031633036104815756fe9b779b17422d0df92223018b32b4d1fa46e071723d6817e2486d003becc55f00a2646970667358221220c78bc90ad35da117dff7e50db0b4cde8832d514f397af64f2b787d17d3a1d21064736f6c634300081a0033",
  "linkReferences": {},
  "deployedLinkReferences": {}
}