{
  "_format": "hh-sol-artifact-1",
  "contractName": "WikiDarkPool",
  "sourceName": "src/WikiDarkPool.sol",
  "abi": [
    {
      "inputs": [
        {
          "internalType": "address",
          "name": "_owner",
          "type": "address"
        },
        {
          "internalType": "address",
          "name": "_usdc",
          "type": "address"
        },
        {
          "internalType": "address",
          "name": "_revenueSplitter",
          "type": "address"
        },
        {
          "internalType": "address",
          "name": "_keeper",
          "type": "address"
        }
      ],
      "stateMutability": "nonpayable",
      "type": "constructor"
    },
    {
      "inputs": [
        {
          "internalType": "address",
          "name": "owner",
          "type": "address"
        }
      ],
      "name": "OwnableInvalidOwner",
      "type": "error"
    },
    {
      "inputs": [
        {
          "internalType": "address",
          "name": "account",
          "type": "address"
        }
      ],
      "name": "OwnableUnauthorizedAccount",
      "type": "error"
    },
    {
      "inputs": [],
      "name": "ReentrancyGuardReentrantCall",
      "type": "error"
    },
    {
      "inputs": [
        {
          "internalType": "address",
          "name": "token",
          "type": "address"
        }
      ],
      "name": "SafeERC20FailedOperation",
      "type": "error"
    },
    {
      "anonymous": false,
      "inputs": [
        {
          "indexed": true,
          "internalType": "bytes32",
          "name": "commitHash",
          "type": "bytes32"
        },
        {
          "indexed": false,
          "internalType": "address",
          "name": "trader",
          "type": "address"
        },
        {
          "indexed": false,
          "internalType": "uint256",
          "name": "block_",
          "type": "uint256"
        }
      ],
      "name": "CommitSubmitted",
      "type": "event"
    },
    {
      "anonymous": false,
      "inputs": [
        {
          "indexed": false,
          "internalType": "uint256",
          "name": "orderId",
          "type": "uint256"
        }
      ],
      "name": "OrderExpired",
      "type": "event"
    },
    {
      "anonymous": false,
      "inputs": [
        {
          "indexed": false,
          "internalType": "uint256",
          "name": "buyOrderId",
          "type": "uint256"
        },
        {
          "indexed": false,
          "internalType": "uint256",
          "name": "sellOrderId",
          "type": "uint256"
        },
        {
          "indexed": false,
          "internalType": "uint256",
          "name": "matchPrice",
          "type": "uint256"
        },
        {
          "indexed": false,
          "internalType": "uint256",
          "name": "matchAmount",
          "type": "uint256"
        }
      ],
      "name": "OrderMatched",
      "type": "event"
    },
    {
      "anonymous": false,
      "inputs": [
        {
          "indexed": false,
          "internalType": "uint256",
          "name": "orderId",
          "type": "uint256"
        },
        {
          "indexed": false,
          "internalType": "address",
          "name": "trader",
          "type": "address"
        },
        {
          "indexed": false,
          "internalType": "uint256",
          "name": "marketId",
          "type": "uint256"
        },
        {
          "indexed": false,
          "internalType": "bool",
          "name": "isBuy",
          "type": "bool"
        },
        {
          "indexed": false,
          "internalType": "uint256",
          "name": "price",
          "type": "uint256"
        },
        {
          "indexed": false,
          "internalType": "uint256",
          "name": "amount",
          "type": "uint256"
        }
      ],
      "name": "OrderRevealed",
      "type": "event"
    },
    {
      "anonymous": false,
      "inputs": [
        {
          "indexed": true,
          "internalType": "address",
          "name": "previousOwner",
          "type": "address"
        },
        {
          "indexed": true,
          "internalType": "address",
          "name": "newOwner",
          "type": "address"
        }
      ],
      "name": "OwnershipTransferStarted",
      "type": "event"
    },
    {
      "anonymous": false,
      "inputs": [
        {
          "indexed": true,
          "internalType": "address",
          "name": "previousOwner",
          "type": "address"
        },
        {
          "indexed": true,
          "internalType": "address",
          "name": "newOwner",
          "type": "address"
        }
      ],
      "name": "OwnershipTransferred",
      "type": "event"
    },
    {
      "inputs": [],
      "name": "BPS",
      "outputs": [
        {
          "internalType": "uint256",
          "name": "",
          "type": "uint256"
        }
      ],
      "stateMutability": "view",
      "type": "function"
    },
    {
      "inputs": [],
      "name": "USDC",
      "outputs": [
        {
          "internalType": "contract IERC20",
          "name": "",
          "type": "address"
        }
      ],
      "stateMutability": "view",
      "type": "function"
    },
    {
      "inputs": [],
      "name": "acceptOwnership",
      "outputs": [],
      "stateMutability": "nonpayable",
      "type": "function"
    },
    {
      "inputs": [
        {
          "internalType": "uint256",
          "name": "orderId",
          "type": "uint256"
        }
      ],
      "name": "cancelOrder",
      "outputs": [],
      "stateMutability": "nonpayable",
      "type": "function"
    },
    {
      "inputs": [
        {
          "internalType": "bytes32",
          "name": "commitHash",
          "type": "bytes32"
        }
      ],
      "name": "commit",
      "outputs": [],
      "stateMutability": "nonpayable",
      "type": "function"
    },
    {
      "inputs": [
        {
          "internalType": "bytes32",
          "name": "",
          "type": "bytes32"
        }
      ],
      "name": "commitments",
      "outputs": [
        {
          "internalType": "address",
          "name": "trader",
          "type": "address"
        },
        {
          "internalType": "bytes32",
          "name": "hash",
          "type": "bytes32"
        },
        {
          "internalType": "uint256",
          "name": "commitBlock",
          "type": "uint256"
        },
        {
          "internalType": "bool",
          "name": "revealed",
          "type": "bool"
        },
        {
          "internalType": "bool",
          "name": "expired",
          "type": "bool"
        }
      ],
      "stateMutability": "view",
      "type": "function"
    },
    {
      "inputs": [
        {
          "internalType": "uint256",
          "name": "",
          "type": "uint256"
        }
      ],
      "name": "darkOrders",
      "outputs": [
        {
          "internalType": "address",
          "name": "trader",
          "type": "address"
        },
        {
          "internalType": "uint256",
          "name": "marketId",
          "type": "uint256"
        },
        {
          "internalType": "bool",
          "name": "isBuy",
          "type": "bool"
        },
        {
          "internalType": "uint256",
          "name": "price",
          "type": "uint256"
        },
        {
          "internalType": "uint256",
          "name": "amount",
          "type": "uint256"
        },
        {
          "internalType": "uint256",
          "name": "revealBlock",
          "type": "uint256"
        },
        {
          "internalType": "uint256",
          "name": "expireBlock",
          "type": "uint256"
        },
        {
          "internalType": "bool",
          "name": "filled",
          "type": "bool"
        },
        {
          "internalType": "bool",
          "name": "cancelled",
          "type": "bool"
        }
      ],
      "stateMutability": "view",
      "type": "function"
    },
    {
      "inputs": [],
      "name": "darkPoolFeeBps",
      "outputs": [
        {
          "internalType": "uint256",
          "name": "",
          "type": "uint256"
        }
      ],
      "stateMutability": "view",
      "type": "function"
    },
    {
      "inputs": [
        {
          "internalType": "uint256",
          "name": "orderId",
          "type": "uint256"
        }
      ],
      "name": "expireOrder",
      "outputs": [],
      "stateMutability": "nonpayable",
      "type": "function"
    },
    {
      "inputs": [
        {
          "internalType": "uint256",
          "name": "marketId",
          "type": "uint256"
        }
      ],
      "name": "getActiveOrderCount",
      "outputs": [
        {
          "internalType": "uint256",
          "name": "buys",
          "type": "uint256"
        },
        {
          "internalType": "uint256",
          "name": "sells",
          "type": "uint256"
        }
      ],
      "stateMutability": "view",
      "type": "function"
    },
    {
      "inputs": [
        {
          "internalType": "uint256",
          "name": "id",
          "type": "uint256"
        }
      ],
      "name": "getOrder",
      "outputs": [
        {
          "components": [
            {
              "internalType": "address",
              "name": "trader",
              "type": "address"
            },
            {
              "internalType": "uint256",
              "name": "marketId",
              "type": "uint256"
            },
            {
              "internalType": "bool",
              "name": "isBuy",
              "type": "bool"
            },
            {
              "internalType": "uint256",
              "name": "price",
              "type": "uint256"
            },
            {
              "internalType": "uint256",
              "name": "amount",
              "type": "uint256"
            },
            {
              "internalType": "uint256",
              "name": "revealBlock",
              "type": "uint256"
            },
            {
              "internalType": "uint256",
              "name": "expireBlock",
              "type": "uint256"
            },
            {
              "internalType": "bool",
              "name": "filled",
              "type": "bool"
            },
            {
              "internalType": "bool",
              "name": "cancelled",
              "type": "bool"
            }
          ],
          "internalType": "struct WikiDarkPool.DarkOrder",
          "name": "",
          "type": "tuple"
        }
      ],
      "stateMutability": "view",
      "type": "function"
    },
    {
      "inputs": [
        {
          "internalType": "address",
          "name": "user",
          "type": "address"
        }
      ],
      "name": "getUserOrders",
      "outputs": [
        {
          "internalType": "uint256[]",
          "name": "",
          "type": "uint256[]"
        }
      ],
      "stateMutability": "view",
      "type": "function"
    },
    {
      "inputs": [],
      "name": "keeper",
      "outputs": [
        {
          "internalType": "address",
          "name": "",
          "type": "address"
        }
      ],
      "stateMutability": "view",
      "type": "function"
    },
    {
      "inputs": [],
      "name": "makerRebateBps",
      "outputs": [
        {
          "internalType": "uint256",
          "name": "",
          "type": "uint256"
        }
      ],
      "stateMutability": "view",
      "type": "function"
    },
    {
      "inputs": [
        {
          "internalType": "uint256",
          "name": "",
          "type": "uint256"
        },
        {
          "internalType": "uint256",
          "name": "",
          "type": "uint256"
        }
      ],
      "name": "marketBuys",
      "outputs": [
        {
          "internalType": "uint256",
          "name": "",
          "type": "uint256"
        }
      ],
      "stateMutability": "view",
      "type": "function"
    },
    {
      "inputs": [
        {
          "internalType": "uint256",
          "name": "",
          "type": "uint256"
        },
        {
          "internalType": "uint256",
          "name": "",
          "type": "uint256"
        }
      ],
      "name": "marketSells",
      "outputs": [
        {
          "internalType": "uint256",
          "name": "",
          "type": "uint256"
        }
      ],
      "stateMutability": "view",
      "type": "function"
    },
    {
      "inputs": [
        {
          "internalType": "uint256",
          "name": "marketId",
          "type": "uint256"
        },
        {
          "internalType": "uint256",
          "name": "buyId",
          "type": "uint256"
        },
        {
          "internalType": "uint256",
          "name": "sellId",
          "type": "uint256"
        }
      ],
      "name": "matchOrders",
      "outputs": [],
      "stateMutability": "nonpayable",
      "type": "function"
    },
    {
      "inputs": [],
      "name": "minOrderUsdc",
      "outputs": [
        {
          "internalType": "uint256",
          "name": "",
          "type": "uint256"
        }
      ],
      "stateMutability": "view",
      "type": "function"
    },
    {
      "inputs": [],
      "name": "nextOrderId",
      "outputs": [
        {
          "internalType": "uint256",
          "name": "",
          "type": "uint256"
        }
      ],
      "stateMutability": "view",
      "type": "function"
    },
    {
      "inputs": [],
      "name": "orderExpiry",
      "outputs": [
        {
          "internalType": "uint256",
          "name": "",
          "type": "uint256"
        }
      ],
      "stateMutability": "view",
      "type": "function"
    },
    {
      "inputs": [],
      "name": "owner",
      "outputs": [
        {
          "internalType": "address",
          "name": "",
          "type": "address"
        }
      ],
      "stateMutability": "view",
      "type": "function"
    },
    {
      "inputs": [],
      "name": "pendingOwner",
      "outputs": [
        {
          "internalType": "address",
          "name": "",
          "type": "address"
        }
      ],
      "stateMutability": "view",
      "type": "function"
    },
    {
      "inputs": [],
      "name": "renounceOwnership",
      "outputs": [],
      "stateMutability": "nonpayable",
      "type": "function"
    },
    {
      "inputs": [
        {
          "internalType": "uint256",
          "name": "marketId",
          "type": "uint256"
        },
        {
          "internalType": "bool",
          "name": "isBuy",
          "type": "bool"
        },
        {
          "internalType": "uint256",
          "name": "price",
          "type": "uint256"
        },
        {
          "internalType": "uint256",
          "name": "amount",
          "type": "uint256"
        },
        {
          "internalType": "bytes32",
          "name": "salt",
          "type": "bytes32"
        }
      ],
      "name": "reveal",
      "outputs": [
        {
          "internalType": "uint256",
          "name": "orderId",
          "type": "uint256"
        }
      ],
      "stateMutability": "nonpayable",
      "type": "function"
    },
    {
      "inputs": [],
      "name": "revealWindow",
      "outputs": [
        {
          "internalType": "uint256",
          "name": "",
          "type": "uint256"
        }
      ],
      "stateMutability": "view",
      "type": "function"
    },
    {
      "inputs": [],
      "name": "revenueSplitter",
      "outputs": [
        {
          "internalType": "address",
          "name": "",
          "type": "address"
        }
      ],
      "stateMutability": "view",
      "type": "function"
    },
    {
      "inputs": [
        {
          "internalType": "uint256",
          "name": "feeBps",
          "type": "uint256"
        },
        {
          "internalType": "uint256",
          "name": "rebateBps",
          "type": "uint256"
        }
      ],
      "name": "setFees",
      "outputs": [],
      "stateMutability": "nonpayable",
      "type": "function"
    },
    {
      "inputs": [
        {
          "internalType": "address",
          "name": "k",
          "type": "address"
        }
      ],
      "name": "setKeeper",
      "outputs": [],
      "stateMutability": "nonpayable",
      "type": "function"
    },
    {
      "inputs": [
        {
          "internalType": "uint256",
          "name": "min",
          "type": "uint256"
        }
      ],
      "name": "setMinOrder",
      "outputs": [],
      "stateMutability": "nonpayable",
      "type": "function"
    },
    {
      "inputs": [
        {
          "internalType": "address",
          "name": "newOwner",
          "type": "address"
        }
      ],
      "name": "transferOwnership",
      "outputs": [],
      "stateMutability": "nonpayable",
      "type": "function"
    },
    {
      "inputs": [
        {
          "internalType": "address",
          "name": "",
          "type": "address"
        },
        {
          "internalType": "uint256",
          "name": "",
          "type": "uint256"
        }
      ],
      "name": "userOrders",
      "outputs": [
        {
          "internalType": "uint256",
          "name": "",
          "type": "uint256"
        }
      ],
      "stateMutability": "view",
      "type": "function"
    }
  ],
  "bytecode": "0x60a03461018957601f6119d538819003918201601f19168301916001600160401b0383118484101761018d5780849260809460405283398101031261018957610047816101a1565b610053602083016101a1565b9161006c6060610065604084016101a1565b92016101a1565b6001600160a01b0390921692831561017657600180546001600160a01b03199081169091555f80549182168617815560405195916001600160a01b0316907f8be0079c531659141344cd1fd0a4f28419497f9722a3daafe3b4186f6b6457e09080a360017f9b779b17422d0df92223018b32b4d1fa46e071723d6817e2486d003becc55f0055600f600a9081556002600b55600c556032600d55640ba43b7400600e556001600160a01b03908116608052600780546001600160a01b031990811693831693909317905560088054909216921691909117905561181f90816101b6823960805181818161069b01528181610a5901528181610fcb01528181611365015261147e0152f35b631e4fbdf760e01b5f525f60045260245ffd5b5f80fd5b634e487b7160e01b5f52604160045260245ffd5b51906001600160a01b03821682036101895756fe60806040526004361015610011575f80fd5b5f3560e01c80630b78f9c01461155c578063249d39e9146115405780632a58b33014611523578063378eb79a1461150257806343d9332d146113e5578063514fcac7146112fb57806363c69f08146112475780636b9b51241461122a578063715018a6146111c757806372087a60146111aa578063748747e61461116757806379ba5097146110e25780637ba650df146110c5578063839df94514611060578063856652e914611017578063863d22c714610ffa57806389a3027114610fb65780638da5cb5b14610f8f5780639d2b86f614610f67578063a56118f114610dbd578063aced166114610d95578063c76c22f714610996578063cb58953914610900578063cbbb495f1461052c578063cfa068b5146104fd578063d09ef241146103d1578063d33d3c8d14610393578063e30c39781461036b578063f14fcbc814610201578063f2fde38b1461018f5763fe85d10d1461016e575f80fd5b3461018b575f36600319011261018b576020600d54604051908152f35b5f80fd5b3461018b57602036600319011261018b576101a86115e0565b6101b0611726565b60018060a01b0316806bffffffffffffffffffffffff60a01b600154161760015560018060a01b035f54167f38d16b8cac22d99fc7c124b9cd0de2d3fa1faef420bfe791d8c362d765e227005f80a3005b3461018b57602036600319011261018b576004355f818152600260205260409020546001600160a01b031661032e5760405160a081019080821067ffffffffffffffff83111761031a576102e991604052338152602081018381526102d26003604084019343855260608101945f865260808201945f8652885f52600260205260405f209260018060a01b039060018060a01b03905116166bffffffffffffffffffffffff60a01b8454161783555160018301555160028201550192511515839060ff801983541691151516179055565b51815461ff00191690151560081b61ff0016179055565b7f1e0a09d902adbb9cc31428cfeb8514de74f4cc2f155dba59af9da635ac0730b460408051338152436020820152a2005b634e487b7160e01b5f52604160045260245ffd5b60405162461bcd60e51b815260206004820152601560248201527444503a20636f6d6d69746d656e742065786973747360581b6044820152606490fd5b3461018b575f36600319011261018b576001546040516001600160a01b039091168152602090f35b3461018b576103a1366115ca565b905f52600460205260405f20805482101561018b576020916103c2916115f6565b90549060031b1c604051908152f35b3461018b57602036600319011261018b575f6101006040516103f28161165f565b8281528260208201528260408201528260608201528260808201528260a08201528260c08201528260e082015201526004355f52600360205261012060405f206040519061043f8261165f565b60018060a01b03815416918281526001820154916020820192835260ff6002820154166040830190151581526003820154606084019081526004830154906080850191825260058401549260a08601938452600760068601549560c0880196875201549660ff61010060e0890198828b1615158a52019860081c161515885260405198895251602089015251151560408801525160608701525160808601525160a08501525160c084015251151560e0830152511515610100820152f35b3461018b5761050b366115ca565b905f52600560205260405f20805482101561018b576020916103c2916115f6565b3461018b57606036600319011261018b5760043560443560243561054e611739565b6008546001600160a01b0316331480156108ed575b156108b757805f52600360205260405f2092825f52600360205260405f20600785019384549560ff871615806108a9575b8061089b575b15610864576007830193845460ff8116159081610855575b5080610847575b1561080f57806001830154149081610801575b50156107c65760ff600282015416806107b7575b15610772576003810154956003840154808810610734577f82877c5945532f956e6718f78f5606b7b5d8efef5e22121a3d9bf4e708873edd986106286106db9260809a6116c0565b60011c956106cb600486015460048301548082105f1461072b575080995b612710610655600a5484611706565b0496600161068661271061066b600b5487611706565b04610680610679828d611719565b9b87611719565b956116c0565b9660ff1916179055600160ff198254161790557f00000000000000000000000000000000000000000000000000000000000000009660018060a01b0390541687611771565b546001600160a01b031684611771565b8061070c575b5050604051938452602084015260408301526060820152a160015f805160206117ca83398151915255005b600754610724926001600160a01b0390911690611771565b86806106e1565b90508099610646565b60405162461bcd60e51b815260206004820152601660248201527544503a2070726963657320646f6e27742063726f737360501b6044820152606490fd5b60405162461bcd60e51b815260206004820152601760248201527f44503a206e6f742063726f7373696e67206f72646572730000000000000000006044820152606490fd5b5060ff600284015416156105e0565b60405162461bcd60e51b8152602060048201526013602482015272088a07440dac2e4d6cae840dad2e6dac2e8c6d606b1b6044820152606490fd5b9050600184015414886105cc565b60405162461bcd60e51b815260206004820152601060248201526f11140e881cd95b1b081a5b9d985b1a5960821b6044820152606490fd5b5060068401544311156105b9565b60ff915060081c1615896105b2565b60405162461bcd60e51b815260206004820152600f60248201526e11140e88189d5e481a5b9d985b1a59608a1b6044820152606490fd5b50600681015443111561059a565b5060ff8760081c1615610594565b60405162461bcd60e51b815260206004820152600e60248201526d22281d103737ba1035b2b2b832b960911b6044820152606490fd5b505f546001600160a01b03163314610563565b3461018b57602036600319011261018b576004355f52600360205261012060405f2060ff60018060a01b038254169160018101549082600282015416600382015460048301549060058401549260076006860154950154956040519889526020890152151560408801526060870152608086015260a085015260c0840152818116151560e084015260081c161515610100820152f35b3461018b5760a036600319011261018b5760043560243580151580820361018b57604435606435916109c6611739565b60405160208101908682528260f81b60408201528360418201528460618201526084356081820152608181526109fd60a18261167c565b5190205f90815260026020526040902080546001600160a01b03163303610d5057600381019081549060ff8216610d145760020154600c54610a3e916116c0565b4311610ccf57600e548510610c8a5760019060ff19161790557f00000000000000000000000000000000000000000000000000000000000000006040516323b872dd60e01b5f5233600452306024528460445260205f60648180865af19060015f5114821615610c69575b6040525f60605215610c495750937fb22587868d42f12fdd1911edcebf6c7a080bac40190fad33e1d396a8ce7021969260c09260209660095496610aec8861169e565b600955610bc9610afe600d54436116c0565b896102d26007604051610b108161165f565b3381528e81018b815260408083018a8152606084018c8152608085018e81524360a0870190815260c087019a8b525f60e0880181815261010089018281529b82526003602052959020965187546001600160a01b039091166001600160a01b031990911617875594516001870155915160028601805460ff191691151560ff16919091179055919792915160038501555160048401555160058301555160068201550192511515839060ff801983541691151516179055565b15610c3057835f5260048852610be28760405f206116cd565b335f5260068852610bf68760405f206116cd565b60405193878552338986015260408501526060840152608083015260a0820152a160015f805160206117ca83398151915255604051908152f35b835f5260058852610c448760405f206116cd565b610be2565b635274afe760e01b5f9081526001600160a01b0391909116600452602490fd5b906001811516610c8157823b15153d15161690610aa9565b503d5f823e3d90fd5b60405162461bcd60e51b815260206004820152601c60248201527f44503a2062656c6f77206d696e696d756d206f726465722073697a65000000006044820152606490fd5b60405162461bcd60e51b815260206004820152601860248201527f44503a2072657665616c2077696e646f7720636c6f73656400000000000000006044820152606490fd5b60405162461bcd60e51b815260206004820152601460248201527311140e88185b1c9958591e481c995d99585b195960621b6044820152606490fd5b60405162461bcd60e51b815260206004820152601760248201527f44503a206e6f7420796f757220636f6d6d69746d656e740000000000000000006044820152606490fd5b3461018b575f36600319011261018b576008546040516001600160a01b039091168152602090f35b3461018b57602036600319011261018b576004355f80825f52600460205260405f20925f52600560205260405f20925f908054915b828110610ec0575050505f928054935b848110610e19576040848482519182526020820152f35b610e2381836115f6565b90549060031b1c5f52600360205260ff600760405f200154161580610e93575b80610e6a575b610e56575b600101610e02565b91610e6260019161169e565b929050610e4e565b50610e7581836115f6565b90549060031b1c5f526003602052600660405f200154431115610e49565b50610e9e81836115f6565b90549060031b1c5f52600360205260ff600760405f20015460081c1615610e43565b610eca81836115f6565b90549060031b1c5f52600360205260ff600760405f200154161580610f3a575b80610f11575b610efd575b600101610df2565b93610f0960019161169e565b949050610ef5565b50610f1c81836115f6565b90549060031b1c5f526003602052600660405f200154431115610ef0565b50610f4581836115f6565b90549060031b1c5f52600360205260ff600760405f20015460081c1615610eea565b3461018b575f36600319011261018b576007546040516001600160a01b039091168152602090f35b3461018b575f36600319011261018b575f546040516001600160a01b039091168152602090f35b3461018b575f36600319011261018b576040517f00000000000000000000000000000000000000000000000000000000000000006001600160a01b03168152602090f35b3461018b575f36600319011261018b576020600c54604051908152f35b3461018b57604036600319011261018b576110306115e0565b6001600160a01b03165f9081526006602052604090208054602435919082101561018b576020916103c2916115f6565b3461018b57602036600319011261018b576004355f52600260205260a060405f2060ff600180841b03825416916001810154906003600282015491015491604051948552602085015260408401528181161515606084015260081c1615156080820152f35b3461018b575f36600319011261018b576020600b54604051908152f35b3461018b575f36600319011261018b57600154336001600160a01b039091160361115457600180546001600160a01b03199081169091555f805433928116831782556001600160a01b0316907f8be0079c531659141344cd1fd0a4f28419497f9722a3daafe3b4186f6b6457e09080a3005b63118cdaa760e01b5f523360045260245ffd5b3461018b57602036600319011261018b576111806115e0565b611188611726565b600880546001600160a01b0319166001600160a01b0392909216919091179055005b3461018b575f36600319011261018b576020600a54604051908152f35b3461018b575f36600319011261018b576111df611726565b600180546001600160a01b03199081169091555f80549182168155906001600160a01b03167f8be0079c531659141344cd1fd0a4f28419497f9722a3daafe3b4186f6b6457e08280a3005b3461018b575f36600319011261018b576020600e54604051908152f35b3461018b57602036600319011261018b576001600160a01b036112686115e0565b165f52600660205260405f20604051806020835491828152019081935f5260205f20905f5b8181106112e557505050816112a391038261167c565b604051918291602083019060208452518091526040830191905f5b8181106112cc575050500390f35b82518452859450602093840193909201916001016112be565b825484526020909301926001928301920161128d565b3461018b57602036600319011261018b57611314611739565b6004355f90815260036020526040902080546001600160a01b031633036113ab5760048160076113899301610100815460ff8116158061139c575b6113589061161f565b61ff0019161790550154337f0000000000000000000000000000000000000000000000000000000000000000611771565b60015f805160206117ca83398151915255005b50600881901c60ff161561134f565b60405162461bcd60e51b815260206004820152601260248201527122281d103737ba103cb7bab91037b93232b960711b6044820152606490fd5b3461018b57602036600319011261018b57600435611401611739565b805f52600360205260405f20906007820190815460ff811615806114f3575b6114299061161f565b60068401544311156114bc5761ff0019166101001790915581546004909201547f1ad308dc7017610c82d08084545f7176df5e2f08f078c3c8f8926cd7e555551492602092916114a2916001600160a01b03167f0000000000000000000000000000000000000000000000000000000000000000611771565b604051908152a160015f805160206117ca83398151915255005b60405162461bcd60e51b815260206004820152600f60248201526e11140e881b9bdd08195e1c1a5c9959608a1b6044820152606490fd5b50600881901c60ff1615611420565b3461018b57602036600319011261018b5761151b611726565b600435600e55005b3461018b575f36600319011261018b576020600954604051908152f35b3461018b575f36600319011261018b5760206040516127108152f35b3461018b5761156a366115ca565b90611573611726565b601e811115806115c1575b1561158b57600a55600b55005b60405162461bcd60e51b815260206004820152600e60248201526d44503a2066656520626f756e647360901b6044820152606490fd5b5080821061157e565b604090600319011261018b576004359060243590565b600435906001600160a01b038216820361018b57565b805482101561160b575f5260205f2001905f90565b634e487b7160e01b5f52603260045260245ffd5b1561162657565b60405162461bcd60e51b815260206004820152601160248201527011140e88185b1c9958591e48199a5b985b607a1b6044820152606490fd5b610120810190811067ffffffffffffffff82111761031a57604052565b90601f8019910116810190811067ffffffffffffffff82111761031a57604052565b5f1981146116ac5760010190565b634e487b7160e01b5f52601160045260245ffd5b919082018092116116ac57565b80546801000000000000000081101561031a576116ef916001820181556115f6565b819291549060031b91821b915f19901b1916179055565b818102929181159184041417156116ac57565b919082039182116116ac57565b5f546001600160a01b0316330361115457565b60025f805160206117ca83398151915254146117625760025f805160206117ca83398151915255565b633ee5aeb560e01b5f5260045ffd5b916040519163a9059cbb60e01b5f5260018060a01b031660045260245260205f60448180865af19060015f51148216156117b1575b60405215610c495750565b906001811516610c8157823b15153d151616906117a656fe9b779b17422d0df92223018b32b4d1fa46e071723d6817e2486d003becc55f00a264697066735822122035c7a35a961391f1dc2021935fd077523e539abecdf82b30332d2eff3d2d684264736f6c634300081a0033",
  "linkReferences": {},
  "deployedLinkReferences": {}
}