{
  "_format": "hh-sol-artifact-1",
  "contractName": "WikiBuybackBurn",
  "sourceName": "src/WikiBuybackBurn.sol",
  "abi": [
    {
      "inputs": [
        {
          "internalType": "address",
          "name": "_usdc",
          "type": "address"
        },
        {
          "internalType": "address",
          "name": "_wik",
          "type": "address"
        },
        {
          "internalType": "address",
          "name": "_router",
          "type": "address"
        },
        {
          "internalType": "address",
          "name": "_owner",
          "type": "address"
        }
      ],
      "stateMutability": "nonpayable",
      "type": "constructor"
    },
    {
      "inputs": [
        {
          "internalType": "address",
          "name": "owner",
          "type": "address"
        }
      ],
      "name": "OwnableInvalidOwner",
      "type": "error"
    },
    {
      "inputs": [
        {
          "internalType": "address",
          "name": "account",
          "type": "address"
        }
      ],
      "name": "OwnableUnauthorizedAccount",
      "type": "error"
    },
    {
      "inputs": [],
      "name": "ReentrancyGuardReentrantCall",
      "type": "error"
    },
    {
      "inputs": [
        {
          "internalType": "address",
          "name": "token",
          "type": "address"
        }
      ],
      "name": "SafeERC20FailedOperation",
      "type": "error"
    },
    {
      "anonymous": false,
      "inputs": [
        {
          "indexed": false,
          "internalType": "uint256",
          "name": "usdcIn",
          "type": "uint256"
        },
        {
          "indexed": false,
          "internalType": "uint256",
          "name": "wikBurned",
          "type": "uint256"
        },
        {
          "indexed": false,
          "internalType": "uint256",
          "name": "timestamp",
          "type": "uint256"
        }
      ],
      "name": "BuybackExecuted",
      "type": "event"
    },
    {
      "anonymous": false,
      "inputs": [
        {
          "indexed": false,
          "internalType": "uint256",
          "name": "maxPerTx",
          "type": "uint256"
        },
        {
          "indexed": false,
          "internalType": "uint256",
          "name": "cooldown",
          "type": "uint256"
        },
        {
          "indexed": false,
          "internalType": "uint256",
          "name": "slippageBps",
          "type": "uint256"
        }
      ],
      "name": "ConfigUpdated",
      "type": "event"
    },
    {
      "anonymous": false,
      "inputs": [
        {
          "indexed": false,
          "internalType": "address",
          "name": "token",
          "type": "address"
        },
        {
          "indexed": false,
          "internalType": "uint256",
          "name": "amount",
          "type": "uint256"
        },
        {
          "indexed": false,
          "internalType": "address",
          "name": "to",
          "type": "address"
        }
      ],
      "name": "EmergencyWithdraw",
      "type": "event"
    },
    {
      "anonymous": false,
      "inputs": [
        {
          "indexed": true,
          "internalType": "address",
          "name": "keeper",
          "type": "address"
        },
        {
          "indexed": false,
          "internalType": "bool",
          "name": "enabled",
          "type": "bool"
        }
      ],
      "name": "KeeperSet",
      "type": "event"
    },
    {
      "anonymous": false,
      "inputs": [
        {
          "indexed": true,
          "internalType": "address",
          "name": "previousOwner",
          "type": "address"
        },
        {
          "indexed": true,
          "internalType": "address",
          "name": "newOwner",
          "type": "address"
        }
      ],
      "name": "OwnershipTransferStarted",
      "type": "event"
    },
    {
      "anonymous": false,
      "inputs": [
        {
          "indexed": true,
          "internalType": "address",
          "name": "previousOwner",
          "type": "address"
        },
        {
          "indexed": true,
          "internalType": "address",
          "name": "newOwner",
          "type": "address"
        }
      ],
      "name": "OwnershipTransferred",
      "type": "event"
    },
    {
      "inputs": [],
      "name": "UNISWAP_QUOTER_V5",
      "outputs": [
        {
          "internalType": "address",
          "name": "",
          "type": "address"
        }
      ],
      "stateMutability": "view",
      "type": "function"
    },
    {
      "inputs": [],
      "name": "USDC",
      "outputs": [
        {
          "internalType": "contract IERC20",
          "name": "",
          "type": "address"
        }
      ],
      "stateMutability": "view",
      "type": "function"
    },
    {
      "inputs": [],
      "name": "WIK",
      "outputs": [
        {
          "internalType": "contract IWIKToken",
          "name": "",
          "type": "address"
        }
      ],
      "stateMutability": "view",
      "type": "function"
    },
    {
      "inputs": [],
      "name": "acceptOwnership",
      "outputs": [],
      "stateMutability": "nonpayable",
      "type": "function"
    },
    {
      "inputs": [],
      "name": "buybackCount",
      "outputs": [
        {
          "internalType": "uint256",
          "name": "",
          "type": "uint256"
        }
      ],
      "stateMutability": "view",
      "type": "function"
    },
    {
      "inputs": [],
      "name": "canExecute",
      "outputs": [
        {
          "internalType": "bool",
          "name": "",
          "type": "bool"
        }
      ],
      "stateMutability": "view",
      "type": "function"
    },
    {
      "inputs": [],
      "name": "cooldown",
      "outputs": [
        {
          "internalType": "uint256",
          "name": "",
          "type": "uint256"
        }
      ],
      "stateMutability": "view",
      "type": "function"
    },
    {
      "inputs": [
        {
          "internalType": "address",
          "name": "token",
          "type": "address"
        },
        {
          "internalType": "uint256",
          "name": "amount",
          "type": "uint256"
        },
        {
          "internalType": "address",
          "name": "to",
          "type": "address"
        }
      ],
      "name": "emergencyWithdraw",
      "outputs": [],
      "stateMutability": "nonpayable",
      "type": "function"
    },
    {
      "inputs": [
        {
          "internalType": "uint256",
          "name": "usdcAmount",
          "type": "uint256"
        },
        {
          "internalType": "uint256",
          "name": "minWikOut",
          "type": "uint256"
        }
      ],
      "name": "executeBuyback",
      "outputs": [],
      "stateMutability": "nonpayable",
      "type": "function"
    },
    {
      "inputs": [
        {
          "internalType": "address",
          "name": "",
          "type": "address"
        }
      ],
      "name": "keepers",
      "outputs": [
        {
          "internalType": "bool",
          "name": "",
          "type": "bool"
        }
      ],
      "stateMutability": "view",
      "type": "function"
    },
    {
      "inputs": [],
      "name": "lastBuybackTime",
      "outputs": [
        {
          "internalType": "uint256",
          "name": "",
          "type": "uint256"
        }
      ],
      "stateMutability": "view",
      "type": "function"
    },
    {
      "inputs": [],
      "name": "maxBuybackPerTx",
      "outputs": [
        {
          "internalType": "uint256",
          "name": "",
          "type": "uint256"
        }
      ],
      "stateMutability": "view",
      "type": "function"
    },
    {
      "inputs": [],
      "name": "minBuybackAmount",
      "outputs": [
        {
          "internalType": "uint256",
          "name": "",
          "type": "uint256"
        }
      ],
      "stateMutability": "view",
      "type": "function"
    },
    {
      "inputs": [],
      "name": "nextBuybackTime",
      "outputs": [
        {
          "internalType": "uint256",
          "name": "",
          "type": "uint256"
        }
      ],
      "stateMutability": "view",
      "type": "function"
    },
    {
      "inputs": [],
      "name": "owner",
      "outputs": [
        {
          "internalType": "address",
          "name": "",
          "type": "address"
        }
      ],
      "stateMutability": "view",
      "type": "function"
    },
    {
      "inputs": [],
      "name": "paused",
      "outputs": [
        {
          "internalType": "bool",
          "name": "",
          "type": "bool"
        }
      ],
      "stateMutability": "view",
      "type": "function"
    },
    {
      "inputs": [],
      "name": "pendingOwner",
      "outputs": [
        {
          "internalType": "address",
          "name": "",
          "type": "address"
        }
      ],
      "stateMutability": "view",
      "type": "function"
    },
    {
      "inputs": [],
      "name": "pendingUSDC",
      "outputs": [
        {
          "internalType": "uint256",
          "name": "",
          "type": "uint256"
        }
      ],
      "stateMutability": "view",
      "type": "function"
    },
    {
      "inputs": [],
      "name": "poolFee",
      "outputs": [
        {
          "internalType": "uint24",
          "name": "",
          "type": "uint24"
        }
      ],
      "stateMutability": "view",
      "type": "function"
    },
    {
      "inputs": [
        {
          "internalType": "uint256",
          "name": "usdcAmount",
          "type": "uint256"
        }
      ],
      "name": "previewBuyback",
      "outputs": [
        {
          "internalType": "uint256",
          "name": "estimatedWik",
          "type": "uint256"
        }
      ],
      "stateMutability": "nonpayable",
      "type": "function"
    },
    {
      "inputs": [],
      "name": "renounceOwnership",
      "outputs": [],
      "stateMutability": "nonpayable",
      "type": "function"
    },
    {
      "inputs": [],
      "name": "router",
      "outputs": [
        {
          "internalType": "contract IUniswapV3Router",
          "name": "",
          "type": "address"
        }
      ],
      "stateMutability": "view",
      "type": "function"
    },
    {
      "inputs": [
        {
          "internalType": "uint256",
          "name": "_maxPerTx",
          "type": "uint256"
        },
        {
          "internalType": "uint256",
          "name": "_cooldown",
          "type": "uint256"
        },
        {
          "internalType": "uint256",
          "name": "_slippageBps",
          "type": "uint256"
        },
        {
          "internalType": "uint256",
          "name": "_minAmount",
          "type": "uint256"
        }
      ],
      "name": "setConfig",
      "outputs": [],
      "stateMutability": "nonpayable",
      "type": "function"
    },
    {
      "inputs": [
        {
          "internalType": "address",
          "name": "keeper",
          "type": "address"
        },
        {
          "internalType": "bool",
          "name": "enabled",
          "type": "bool"
        }
      ],
      "name": "setKeeper",
      "outputs": [],
      "stateMutability": "nonpayable",
      "type": "function"
    },
    {
      "inputs": [
        {
          "internalType": "bool",
          "name": "_paused",
          "type": "bool"
        }
      ],
      "name": "setPaused",
      "outputs": [],
      "stateMutability": "nonpayable",
      "type": "function"
    },
    {
      "inputs": [
        {
          "internalType": "uint24",
          "name": "fee",
          "type": "uint24"
        }
      ],
      "name": "setPoolFee",
      "outputs": [],
      "stateMutability": "nonpayable",
      "type": "function"
    },
    {
      "inputs": [
        {
          "internalType": "address",
          "name": "_tl",
          "type": "address"
        }
      ],
      "name": "setTimelock",
      "outputs": [],
      "stateMutability": "nonpayable",
      "type": "function"
    },
    {
      "inputs": [],
      "name": "slippageBps",
      "outputs": [
        {
          "internalType": "uint256",
          "name": "",
          "type": "uint256"
        }
      ],
      "stateMutability": "view",
      "type": "function"
    },
    {
      "inputs": [],
      "name": "stats",
      "outputs": [
        {
          "internalType": "uint256",
          "name": "_totalUSDCSpent",
          "type": "uint256"
        },
        {
          "internalType": "uint256",
          "name": "_totalWIKBurned",
          "type": "uint256"
        },
        {
          "internalType": "uint256",
          "name": "_buybackCount",
          "type": "uint256"
        },
        {
          "internalType": "uint256",
          "name": "_pendingUSDC",
          "type": "uint256"
        },
        {
          "internalType": "uint256",
          "name": "_lastBuybackTime",
          "type": "uint256"
        }
      ],
      "stateMutability": "view",
      "type": "function"
    },
    {
      "inputs": [],
      "name": "timelock",
      "outputs": [
        {
          "internalType": "address",
          "name": "",
          "type": "address"
        }
      ],
      "stateMutability": "view",
      "type": "function"
    },
    {
      "inputs": [],
      "name": "totalUSDCSpent",
      "outputs": [
        {
          "internalType": "uint256",
          "name": "",
          "type": "uint256"
        }
      ],
      "stateMutability": "view",
      "type": "function"
    },
    {
      "inputs": [],
      "name": "totalWIKBurned",
      "outputs": [
        {
          "internalType": "uint256",
          "name": "",
          "type": "uint256"
        }
      ],
      "stateMutability": "view",
      "type": "function"
    },
    {
      "inputs": [
        {
          "internalType": "address",
          "name": "newOwner",
          "type": "address"
        }
      ],
      "name": "transferOwnership",
      "outputs": [],
      "stateMutability": "nonpayable",
      "type": "function"
    }
  ],
  "bytecode": "0x60e03461027957601f6116b438819003918201601f19168301916001600160401b0383118484101761027d578084926080946040528339810103126102795761004781610291565b9061005460208201610291565b61006060408301610291565b916001600160a01b039061007690606001610291565b1692831561026657600180546001600160a01b03199081169091555f80549182168617815560405195916001600160a01b0316907f8be0079c531659141344cd1fd0a4f28419497f9722a3daafe3b4186f6b6457e09080a360017f9b779b17422d0df92223018b32b4d1fa46e071723d6817e2486d003becc55f00556002805462ffffff60a01b191661017760a31b1790556402540be4006003556305f5e10060045561546060055560c86006556001600160a01b031692831561023157506001600160a01b03169081156101fa576001600160a01b03169182156101c05760805260a05260c05260405161140e90816102a6823960805181818161037e0152818161064701528181610bdf01528181610cdf01528181610db50152611270015260a0518181816106f4015281816110df0152611295015260c05181818161019c015261069d0152f35b60405162461bcd60e51b81526020600482015260126024820152712bb4b5b49d103d32b937902fb937baba32b960711b6044820152606490fd5b60405162461bcd60e51b815260206004820152600f60248201526e57696b693a207a65726f205f77696b60881b6044820152606490fd5b62461bcd60e51b815260206004820152601060248201526f57696b693a207a65726f205f7573646360801b6044820152606490fd5b631e4fbdf760e01b5f525f60045260245ffd5b5f80fd5b634e487b7160e01b5f52604160045260245ffd5b51906001600160a01b03821682036102795756fe6080806040526004361015610012575f80fd5b5f3560e01c908163089fe6aa146111db5750806316c38b3c146111a357806316cbb34f1461118657806331e2c022146111695780633bbd64bc1461112c5780633f4947131461110e57806340b0229e146110ca578063551512de14610faf578063578c71d914610f925780635c975abb14610f705780636788269414610f47578063715018a614610ee457806373dd250c14610e2a57806376b2a28514610d8a578063787a08a614610d6d57806378b9033714610c9357806379ba509714610c0e57806389a3027114610bca5780638cc2018614610bad5780638da5cb5b14610b8657806395e9dd7c14610b5857806397975c7514610580578063a764097114610563578063bdacb303146104dc578063be753ede146104bf578063d1b9e85314610442578063d33219b41461041a578063d80528ae14610347578063e30c39781461031f578063e5c389cd1461025e578063f19000aa14610241578063f2fde38b146101cf5763f887ea4014610187575f80fd5b346101cb575f3660031901126101cb576040517f00000000000000000000000000000000000000000000000000000000000000006001600160a01b03168152602090f35b5f80fd5b346101cb5760203660031901126101cb576101e86111fd565b6101f06113c5565b60018060a01b0316806bffffffffffffffffffffffff60a01b600154161760015560018060a01b035f54167f38d16b8cac22d99fc7c124b9cd0de2d3fa1faef420bfe791d8c362d765e227005f80a3005b346101cb575f3660031901126101cb576020600454604051908152f35b346101cb5760803660031901126101cb576044356024356004356102806113c5565b6101f483116102e2576102dd7f6d05db271e19f930af71c4765de54ef86294762644c20f4d6fd2609d057d3c7b93826003558360055580600655606435600455604051938493846040919493926060820195825260208201520152565b0390a1005b60405162461bcd60e51b8152602060048201526015602482015274084847440e6d8d2e0e0c2ceca40e8dede40d0d2ced605b1b6044820152606490fd5b346101cb575f3660031901126101cb576001546040516001600160a01b039091168152602090f35b346101cb575f3660031901126101cb57600a54600b54600c546040516370a0823160e01b81523060048201529291906020846024817f00000000000000000000000000000000000000000000000000000000000000006001600160a01b03165afa90811561040f575f916103da575b60a09450600954926040519485526020850152604084015260608301526080820152f35b90506020843d602011610407575b816103f560209383611213565b810103126101cb5760a09351906103b6565b3d91506103e8565b6040513d5f823e3d90fd5b346101cb575f3660031901126101cb576002546040516001600160a01b039091168152602090f35b346101cb5760403660031901126101cb5761045b6111fd565b602435908115158092036101cb5760207f8dd62d4e1f60b96148552898e743aa2b571686baa26f4f1b647565dc3996c1a7916104956113c5565b60018060a01b031692835f526008825260405f2060ff1981541660ff8316179055604051908152a2005b346101cb575f3660031901126101cb576020600b54604051908152f35b346101cb5760203660031901126101cb576104f56111fd565b6104fd6113c5565b6001600160a01b03168015610528576bffffffffffffffffffffffff60a01b60025416176002555f80f35b60405162461bcd60e51b815260206004820152601360248201527257696b693a207a65726f2074696d656c6f636b60681b6044820152606490fd5b346101cb575f3660031901126101cb576020600c54604051908152f35b346101cb5760403660031901126101cb576004356024359060027f9b779b17422d0df92223018b32b4d1fa46e071723d6817e2486d003becc55f005414610b495760027f9b779b17422d0df92223018b32b4d1fa46e071723d6817e2486d003becc55f0055335f52600860205260ff60405f2054168015610b36575b15610b005760ff60075416610ace5761061a600954600554906113b8565b4210610a9a576004548110610a65576003548111610a30576040516370a0823160e01b81523060048201527f00000000000000000000000000000000000000000000000000000000000000006001600160a01b031690602081602481855afa801561040f5783915f916109fb575b50106109be5760405163095ea7b360e01b81527f00000000000000000000000000000000000000000000000000000000000000006001600160a01b0316600482018190526024820184905293906020816044815f875af1801561040f57610987575b5060018060a01b037f0000000000000000000000000000000000000000000000000000000000000000169162ffffff60025460a01c169460405160e081019080821067ffffffffffffffff831117610973576040918252928352602083810186815284830198895230606086019081526080860189815260a087018881525f60c0890181815296516304e45aaf60e01b815298516001600160a01b0390811660048b01529451851660248a01529b5162ffffff1660448901529151831660648801525160848701525160a4860152915190911660c48401529195869160e49183915af193841561040f575f9461093f575b5083106109025760405163a9059cbb60e01b5f5261dead6004528360245260205f60448180865af19060015f51148216156108e1575b604052156108cf57504260095561082a81600a546113b8565b600a5561083982600b546113b8565b600b55600c54915f1983146108bb5760017ff7e3493d2eb6a455012bf7667cb0e1563155e97974bcf902b23dc50b0a76bb1f9301600c556108926040519283924291846040919493926060820195825260208201520152565b0390a160017f9b779b17422d0df92223018b32b4d1fa46e071723d6817e2486d003becc55f0055005b634e487b7160e01b5f52601160045260245ffd5b635274afe760e01b5f5260045260245ffd5b9060018115166108f957823b15153d15161690610811565b503d5f823e3d90fd5b60405162461bcd60e51b815260206004820152601560248201527410908e881cdb1a5c1c1859d948195e18d959591959605a1b6044820152606490fd5b9093506020813d60201161096b575b8161095b60209383611213565b810103126101cb575192846107db565b3d915061094e565b634e487b7160e01b5f52604160045260245ffd5b6020813d6020116109b6575b816109a060209383611213565b810103126101cb575180151581146106ea575f80fd5b3d9150610993565b60405162461bcd60e51b815260206004820152601560248201527442423a20696e73756666696369656e74205553444360581b6044820152606490fd5b9150506020813d602011610a28575b81610a1760209383611213565b810103126101cb5782905185610688565b3d9150610a0a565b60405162461bcd60e51b815260206004820152600d60248201526c42423a20746f6f206c6172676560981b6044820152606490fd5b60405162461bcd60e51b815260206004820152600d60248201526c10908e881d1bdbc81cdb585b1b609a1b6044820152606490fd5b60405162461bcd60e51b815260206004820152600c60248201526b21211d1031b7b7b63237bbb760a11b6044820152606490fd5b60405162461bcd60e51b815260206004820152600a60248201526910908e881c185d5cd95960b21b6044820152606490fd5b60405162461bcd60e51b815260206004820152600e60248201526d21211d103737ba1035b2b2b832b960911b6044820152606490fd5b505f546001600160a01b031633146105fc565b633ee5aeb560e01b5f5260045ffd5b346101cb575f3660031901126101cb5760206040517361ffe014ba17989e743c5f6cb21bf9697530b21e8152f35b346101cb575f3660031901126101cb575f546040516001600160a01b039091168152602090f35b346101cb575f3660031901126101cb576020600354604051908152f35b346101cb575f3660031901126101cb576040517f00000000000000000000000000000000000000000000000000000000000000006001600160a01b03168152602090f35b346101cb575f3660031901126101cb57600154336001600160a01b0390911603610c8057600180546001600160a01b03199081169091555f805433928116831782556001600160a01b0316907f8be0079c531659141344cd1fd0a4f28419497f9722a3daafe3b4186f6b6457e09080a3005b63118cdaa760e01b5f523360045260245ffd5b346101cb575f3660031901126101cb5760ff600754161580610d55575b80610cc3575b6020906040519015158152f35b506040516370a0823160e01b81523060048201526020816024817f00000000000000000000000000000000000000000000000000000000000000006001600160a01b03165afa801561040f575f90610d22575b60045411159050610cb6565b506020813d602011610d4d575b81610d3c60209383611213565b810103126101cb5760209051610d16565b3d9150610d2f565b50610d65600954600554906113b8565b421015610cb0565b346101cb575f3660031901126101cb576020600554604051908152f35b346101cb575f3660031901126101cb576040516370a0823160e01b81523060048201526020816024817f00000000000000000000000000000000000000000000000000000000000000006001600160a01b03165afa801561040f575f90610df7575b602090604051908152f35b506020813d602011610e22575b81610e1160209383611213565b810103126101cb5760209051610dec565b3d9150610e04565b346101cb5760203660031901126101cb5760043562ffffff81168082036101cb57610e536113c5565b6101f48114908115610ed8575b8115610ecc575b5015610e90576002805462ffffff60a01b191660a09290921b62ffffff60a01b16919091179055005b60405162461bcd60e51b815260206004820152601460248201527321211d1034b73b30b634b2103332b2903a34b2b960611b6044820152606490fd5b61271091501482610e67565b610bb881149150610e60565b346101cb575f3660031901126101cb57610efc6113c5565b600180546001600160a01b03199081169091555f80549182168155906001600160a01b03167f8be0079c531659141344cd1fd0a4f28419497f9722a3daafe3b4186f6b6457e08280a3005b346101cb575f3660031901126101cb576020610f68600954600554906113b8565b604051908152f35b346101cb575f3660031901126101cb57602060ff600754166040519015158152f35b346101cb575f3660031901126101cb576020600654604051908152f35b346101cb5760603660031901126101cb57610fc86111fd565b602435906044356001600160a01b03811691908290036101cb57610fea6113c5565b81156110925760018060a01b03169160405163a9059cbb60e01b5f52826004528160245260205f60448180885af19060015f511482161561107a575b6040521561106757916060917faaeda929aa102e867049528ec7cd2499e3a2f8846e736ae7935f234dfbf500d99360405192835260208301526040820152a1005b82635274afe760e01b5f5260045260245ffd5b9060018115166108f957843b15153d15161690611026565b60405162461bcd60e51b815260206004820152601060248201526f42423a207a65726f206164647265737360801b6044820152606490fd5b346101cb575f3660031901126101cb576040517f00000000000000000000000000000000000000000000000000000000000000006001600160a01b03168152602090f35b346101cb5760203660031901126101cb576020610f68600435611235565b346101cb5760203660031901126101cb576001600160a01b0361114d6111fd565b165f526008602052602060ff60405f2054166040519015158152f35b346101cb575f3660031901126101cb576020600a54604051908152f35b346101cb575f3660031901126101cb576020600954604051908152f35b346101cb5760203660031901126101cb576004358015158091036101cb576111c96113c5565b60ff8019600754169116176007555f80f35b346101cb575f3660031901126101cb5760209062ffffff60025460a01c168152f35b600435906001600160a01b03821682036101cb57565b90601f8019910116810190811067ffffffffffffffff82111761097357604052565b80156113b35762ffffff60025460a01c166040519060a0820182811067ffffffffffffffff8211176109735760409081526001600160a01b037f0000000000000000000000000000000000000000000000000000000000000000811684527f0000000000000000000000000000000000000000000000000000000000000000811660208501908152848301868152606086019485525f60808088018281529551636352813560e11b815297518516600489015292518416602488015290516044870152935162ffffff166064860152915116608484015290829060a49082907361ffe014ba17989e743c5f6cb21bf9697530b21e5af15f9181611357575b50611352575064e8d4a51000810290810464e8d4a51000036108bb5790565b905090565b9091506080813d6080116113ab575b8161137360809383611213565b810103126101cb57805160208201519091906001600160a01b038116036101cb576040015163ffffffff8116036101cb57905f611333565b3d9150611366565b505f90565b919082018092116108bb57565b5f546001600160a01b03163303610c805756fea26469706673582212205fa1703fc4d0b07e94a4b42e7eefce47e2d9946348ee02825b2b842f21ed15c164736f6c634300081a0033",
  "linkReferences": {},
  "deployedLinkReferences": {}
}