{
  "_format": "hh-sol-artifact-1",
  "contractName": "WikiIndexBasket",
  "sourceName": "src/WikiIndexBasket.sol",
  "abi": [
    {
      "inputs": [
        {
          "internalType": "address",
          "name": "_owner",
          "type": "address"
        },
        {
          "internalType": "string",
          "name": "_name",
          "type": "string"
        },
        {
          "internalType": "string",
          "name": "_symbol",
          "type": "string"
        },
        {
          "internalType": "address",
          "name": "_oracle",
          "type": "address"
        },
        {
          "internalType": "address",
          "name": "_splitter",
          "type": "address"
        },
        {
          "internalType": "address",
          "name": "_usdc",
          "type": "address"
        },
        {
          "internalType": "uint256",
          "name": "_mgmtFeeBps",
          "type": "uint256"
        },
        {
          "components": [
            {
              "internalType": "bytes32",
              "name": "marketId",
              "type": "bytes32"
            },
            {
              "internalType": "string",
              "name": "symbol",
              "type": "string"
            },
            {
              "internalType": "uint256",
              "name": "weightBps",
              "type": "uint256"
            },
            {
              "internalType": "uint256",
              "name": "initPrice",
              "type": "uint256"
            }
          ],
          "internalType": "struct WikiIndexBasket.Component[]",
          "name": "_components",
          "type": "tuple[]"
        }
      ],
      "stateMutability": "nonpayable",
      "type": "constructor"
    },
    {
      "inputs": [
        {
          "internalType": "address",
          "name": "spender",
          "type": "address"
        },
        {
          "internalType": "uint256",
          "name": "allowance",
          "type": "uint256"
        },
        {
          "internalType": "uint256",
          "name": "needed",
          "type": "uint256"
        }
      ],
      "name": "ERC20InsufficientAllowance",
      "type": "error"
    },
    {
      "inputs": [
        {
          "internalType": "address",
          "name": "sender",
          "type": "address"
        },
        {
          "internalType": "uint256",
          "name": "balance",
          "type": "uint256"
        },
        {
          "internalType": "uint256",
          "name": "needed",
          "type": "uint256"
        }
      ],
      "name": "ERC20InsufficientBalance",
      "type": "error"
    },
    {
      "inputs": [
        {
          "internalType": "address",
          "name": "approver",
          "type": "address"
        }
      ],
      "name": "ERC20InvalidApprover",
      "type": "error"
    },
    {
      "inputs": [
        {
          "internalType": "address",
          "name": "receiver",
          "type": "address"
        }
      ],
      "name": "ERC20InvalidReceiver",
      "type": "error"
    },
    {
      "inputs": [
        {
          "internalType": "address",
          "name": "sender",
          "type": "address"
        }
      ],
      "name": "ERC20InvalidSender",
      "type": "error"
    },
    {
      "inputs": [
        {
          "internalType": "address",
          "name": "spender",
          "type": "address"
        }
      ],
      "name": "ERC20InvalidSpender",
      "type": "error"
    },
    {
      "inputs": [],
      "name": "EnforcedPause",
      "type": "error"
    },
    {
      "inputs": [],
      "name": "ExpectedPause",
      "type": "error"
    },
    {
      "inputs": [
        {
          "internalType": "address",
          "name": "owner",
          "type": "address"
        }
      ],
      "name": "OwnableInvalidOwner",
      "type": "error"
    },
    {
      "inputs": [
        {
          "internalType": "address",
          "name": "account",
          "type": "address"
        }
      ],
      "name": "OwnableUnauthorizedAccount",
      "type": "error"
    },
    {
      "inputs": [],
      "name": "ReentrancyGuardReentrantCall",
      "type": "error"
    },
    {
      "inputs": [
        {
          "internalType": "address",
          "name": "token",
          "type": "address"
        }
      ],
      "name": "SafeERC20FailedOperation",
      "type": "error"
    },
    {
      "anonymous": false,
      "inputs": [
        {
          "indexed": true,
          "internalType": "address",
          "name": "owner",
          "type": "address"
        },
        {
          "indexed": true,
          "internalType": "address",
          "name": "spender",
          "type": "address"
        },
        {
          "indexed": false,
          "internalType": "uint256",
          "name": "value",
          "type": "uint256"
        }
      ],
      "name": "Approval",
      "type": "event"
    },
    {
      "anonymous": false,
      "inputs": [
        {
          "indexed": false,
          "internalType": "uint256",
          "name": "amount",
          "type": "uint256"
        }
      ],
      "name": "FeesHarvested",
      "type": "event"
    },
    {
      "anonymous": false,
      "inputs": [
        {
          "indexed": true,
          "internalType": "address",
          "name": "user",
          "type": "address"
        },
        {
          "indexed": false,
          "internalType": "uint256",
          "name": "usdcIn",
          "type": "uint256"
        },
        {
          "indexed": false,
          "internalType": "uint256",
          "name": "tokensOut",
          "type": "uint256"
        },
        {
          "indexed": false,
          "internalType": "uint256",
          "name": "fee",
          "type": "uint256"
        }
      ],
      "name": "Minted",
      "type": "event"
    },
    {
      "anonymous": false,
      "inputs": [
        {
          "indexed": true,
          "internalType": "address",
          "name": "previousOwner",
          "type": "address"
        },
        {
          "indexed": true,
          "internalType": "address",
          "name": "newOwner",
          "type": "address"
        }
      ],
      "name": "OwnershipTransferStarted",
      "type": "event"
    },
    {
      "anonymous": false,
      "inputs": [
        {
          "indexed": true,
          "internalType": "address",
          "name": "previousOwner",
          "type": "address"
        },
        {
          "indexed": true,
          "internalType": "address",
          "name": "newOwner",
          "type": "address"
        }
      ],
      "name": "OwnershipTransferred",
      "type": "event"
    },
    {
      "anonymous": false,
      "inputs": [
        {
          "indexed": false,
          "internalType": "address",
          "name": "account",
          "type": "address"
        }
      ],
      "name": "Paused",
      "type": "event"
    },
    {
      "anonymous": false,
      "inputs": [
        {
          "indexed": false,
          "internalType": "uint256",
          "name": "timestamp",
          "type": "uint256"
        },
        {
          "indexed": false,
          "internalType": "uint256",
          "name": "componentCount",
          "type": "uint256"
        }
      ],
      "name": "Rebalanced",
      "type": "event"
    },
    {
      "anonymous": false,
      "inputs": [
        {
          "indexed": true,
          "internalType": "address",
          "name": "user",
          "type": "address"
        },
        {
          "indexed": false,
          "internalType": "uint256",
          "name": "tokensIn",
          "type": "uint256"
        },
        {
          "indexed": false,
          "internalType": "uint256",
          "name": "usdcOut",
          "type": "uint256"
        },
        {
          "indexed": false,
          "internalType": "uint256",
          "name": "fee",
          "type": "uint256"
        }
      ],
      "name": "Redeemed",
      "type": "event"
    },
    {
      "anonymous": false,
      "inputs": [
        {
          "indexed": true,
          "internalType": "address",
          "name": "from",
          "type": "address"
        },
        {
          "indexed": true,
          "internalType": "address",
          "name": "to",
          "type": "address"
        },
        {
          "indexed": false,
          "internalType": "uint256",
          "name": "value",
          "type": "uint256"
        }
      ],
      "name": "Transfer",
      "type": "event"
    },
    {
      "anonymous": false,
      "inputs": [
        {
          "indexed": false,
          "internalType": "address",
          "name": "account",
          "type": "address"
        }
      ],
      "name": "Unpaused",
      "type": "event"
    },
    {
      "inputs": [],
      "name": "BPS",
      "outputs": [
        {
          "internalType": "uint256",
          "name": "",
          "type": "uint256"
        }
      ],
      "stateMutability": "view",
      "type": "function"
    },
    {
      "inputs": [],
      "name": "MAX_MGMT_FEE",
      "outputs": [
        {
          "internalType": "uint256",
          "name": "",
          "type": "uint256"
        }
      ],
      "stateMutability": "view",
      "type": "function"
    },
    {
      "inputs": [],
      "name": "MINT_FEE_BPS",
      "outputs": [
        {
          "internalType": "uint256",
          "name": "",
          "type": "uint256"
        }
      ],
      "stateMutability": "view",
      "type": "function"
    },
    {
      "inputs": [],
      "name": "MIN_DEPOSIT",
      "outputs": [
        {
          "internalType": "uint256",
          "name": "",
          "type": "uint256"
        }
      ],
      "stateMutability": "view",
      "type": "function"
    },
    {
      "inputs": [],
      "name": "PRECISION",
      "outputs": [
        {
          "internalType": "uint256",
          "name": "",
          "type": "uint256"
        }
      ],
      "stateMutability": "view",
      "type": "function"
    },
    {
      "inputs": [],
      "name": "PRICE_STALENESS",
      "outputs": [
        {
          "internalType": "uint256",
          "name": "",
          "type": "uint256"
        }
      ],
      "stateMutability": "view",
      "type": "function"
    },
    {
      "inputs": [],
      "name": "REDEEM_FEE_BPS",
      "outputs": [
        {
          "internalType": "uint256",
          "name": "",
          "type": "uint256"
        }
      ],
      "stateMutability": "view",
      "type": "function"
    },
    {
      "inputs": [],
      "name": "SECONDS_PER_YEAR",
      "outputs": [
        {
          "internalType": "uint256",
          "name": "",
          "type": "uint256"
        }
      ],
      "stateMutability": "view",
      "type": "function"
    },
    {
      "inputs": [],
      "name": "USDC",
      "outputs": [
        {
          "internalType": "contract IERC20",
          "name": "",
          "type": "address"
        }
      ],
      "stateMutability": "view",
      "type": "function"
    },
    {
      "inputs": [],
      "name": "acceptOwnership",
      "outputs": [],
      "stateMutability": "nonpayable",
      "type": "function"
    },
    {
      "inputs": [
        {
          "internalType": "address",
          "name": "owner",
          "type": "address"
        },
        {
          "internalType": "address",
          "name": "spender",
          "type": "address"
        }
      ],
      "name": "allowance",
      "outputs": [
        {
          "internalType": "uint256",
          "name": "",
          "type": "uint256"
        }
      ],
      "stateMutability": "view",
      "type": "function"
    },
    {
      "inputs": [
        {
          "internalType": "address",
          "name": "spender",
          "type": "address"
        },
        {
          "internalType": "uint256",
          "name": "value",
          "type": "uint256"
        }
      ],
      "name": "approve",
      "outputs": [
        {
          "internalType": "bool",
          "name": "",
          "type": "bool"
        }
      ],
      "stateMutability": "nonpayable",
      "type": "function"
    },
    {
      "inputs": [
        {
          "internalType": "address",
          "name": "account",
          "type": "address"
        }
      ],
      "name": "balanceOf",
      "outputs": [
        {
          "internalType": "uint256",
          "name": "",
          "type": "uint256"
        }
      ],
      "stateMutability": "view",
      "type": "function"
    },
    {
      "inputs": [],
      "name": "basketName",
      "outputs": [
        {
          "internalType": "string",
          "name": "",
          "type": "string"
        }
      ],
      "stateMutability": "view",
      "type": "function"
    },
    {
      "inputs": [
        {
          "internalType": "uint256",
          "name": "",
          "type": "uint256"
        }
      ],
      "name": "components",
      "outputs": [
        {
          "internalType": "bytes32",
          "name": "marketId",
          "type": "bytes32"
        },
        {
          "internalType": "string",
          "name": "symbol",
          "type": "string"
        },
        {
          "internalType": "uint256",
          "name": "weightBps",
          "type": "uint256"
        },
        {
          "internalType": "uint256",
          "name": "initPrice",
          "type": "uint256"
        }
      ],
      "stateMutability": "view",
      "type": "function"
    },
    {
      "inputs": [],
      "name": "componentsCount",
      "outputs": [
        {
          "internalType": "uint256",
          "name": "",
          "type": "uint256"
        }
      ],
      "stateMutability": "view",
      "type": "function"
    },
    {
      "inputs": [],
      "name": "decimals",
      "outputs": [
        {
          "internalType": "uint8",
          "name": "",
          "type": "uint8"
        }
      ],
      "stateMutability": "view",
      "type": "function"
    },
    {
      "inputs": [
        {
          "internalType": "uint256",
          "name": "amount",
          "type": "uint256"
        }
      ],
      "name": "deployIdle",
      "outputs": [],
      "stateMutability": "nonpayable",
      "type": "function"
    },
    {
      "inputs": [],
      "name": "getComponentPrices",
      "outputs": [
        {
          "internalType": "uint256[]",
          "name": "prices",
          "type": "uint256[]"
        },
        {
          "internalType": "bool[]",
          "name": "fresh",
          "type": "bool[]"
        }
      ],
      "stateMutability": "view",
      "type": "function"
    },
    {
      "inputs": [],
      "name": "getNAV",
      "outputs": [
        {
          "internalType": "uint256",
          "name": "navPerToken",
          "type": "uint256"
        }
      ],
      "stateMutability": "view",
      "type": "function"
    },
    {
      "inputs": [],
      "name": "idleYieldRouter",
      "outputs": [
        {
          "internalType": "contract IIdleYieldRouter",
          "name": "",
          "type": "address"
        }
      ],
      "stateMutability": "view",
      "type": "function"
    },
    {
      "inputs": [],
      "name": "lastFeeTime",
      "outputs": [
        {
          "internalType": "uint256",
          "name": "",
          "type": "uint256"
        }
      ],
      "stateMutability": "view",
      "type": "function"
    },
    {
      "inputs": [],
      "name": "lifetimeFees",
      "outputs": [
        {
          "internalType": "uint256",
          "name": "",
          "type": "uint256"
        }
      ],
      "stateMutability": "view",
      "type": "function"
    },
    {
      "inputs": [],
      "name": "mgmtFeeBps",
      "outputs": [
        {
          "internalType": "uint256",
          "name": "",
          "type": "uint256"
        }
      ],
      "stateMutability": "view",
      "type": "function"
    },
    {
      "inputs": [
        {
          "internalType": "uint256",
          "name": "usdcAmount",
          "type": "uint256"
        },
        {
          "internalType": "uint256",
          "name": "minTokens",
          "type": "uint256"
        }
      ],
      "name": "mint",
      "outputs": [],
      "stateMutability": "nonpayable",
      "type": "function"
    },
    {
      "inputs": [],
      "name": "name",
      "outputs": [
        {
          "internalType": "string",
          "name": "",
          "type": "string"
        }
      ],
      "stateMutability": "view",
      "type": "function"
    },
    {
      "inputs": [],
      "name": "oracle",
      "outputs": [
        {
          "internalType": "contract IWikiOracle",
          "name": "",
          "type": "address"
        }
      ],
      "stateMutability": "view",
      "type": "function"
    },
    {
      "inputs": [],
      "name": "owner",
      "outputs": [
        {
          "internalType": "address",
          "name": "",
          "type": "address"
        }
      ],
      "stateMutability": "view",
      "type": "function"
    },
    {
      "inputs": [],
      "name": "pause",
      "outputs": [],
      "stateMutability": "nonpayable",
      "type": "function"
    },
    {
      "inputs": [],
      "name": "paused",
      "outputs": [
        {
          "internalType": "bool",
          "name": "",
          "type": "bool"
        }
      ],
      "stateMutability": "view",
      "type": "function"
    },
    {
      "inputs": [],
      "name": "pendingOwner",
      "outputs": [
        {
          "internalType": "address",
          "name": "",
          "type": "address"
        }
      ],
      "stateMutability": "view",
      "type": "function"
    },
    {
      "inputs": [
        {
          "internalType": "uint256[]",
          "name": "newWeights",
          "type": "uint256[]"
        }
      ],
      "name": "rebalance",
      "outputs": [],
      "stateMutability": "nonpayable",
      "type": "function"
    },
    {
      "inputs": [
        {
          "internalType": "uint256",
          "name": "amount",
          "type": "uint256"
        },
        {
          "internalType": "string",
          "name": "reason",
          "type": "string"
        }
      ],
      "name": "recallIdle",
      "outputs": [],
      "stateMutability": "nonpayable",
      "type": "function"
    },
    {
      "inputs": [
        {
          "internalType": "uint256",
          "name": "tokenAmount",
          "type": "uint256"
        },
        {
          "internalType": "uint256",
          "name": "minUsdc",
          "type": "uint256"
        }
      ],
      "name": "redeem",
      "outputs": [],
      "stateMutability": "nonpayable",
      "type": "function"
    },
    {
      "inputs": [],
      "name": "renounceOwnership",
      "outputs": [],
      "stateMutability": "nonpayable",
      "type": "function"
    },
    {
      "inputs": [
        {
          "internalType": "address",
          "name": "router",
          "type": "address"
        }
      ],
      "name": "setIdleYieldRouter",
      "outputs": [],
      "stateMutability": "nonpayable",
      "type": "function"
    },
    {
      "inputs": [
        {
          "internalType": "uint256",
          "name": "bps",
          "type": "uint256"
        }
      ],
      "name": "setMgmtFee",
      "outputs": [],
      "stateMutability": "nonpayable",
      "type": "function"
    },
    {
      "inputs": [],
      "name": "splitter",
      "outputs": [
        {
          "internalType": "contract IWikiRevenueSplitter",
          "name": "",
          "type": "address"
        }
      ],
      "stateMutability": "view",
      "type": "function"
    },
    {
      "inputs": [],
      "name": "symbol",
      "outputs": [
        {
          "internalType": "string",
          "name": "",
          "type": "string"
        }
      ],
      "stateMutability": "view",
      "type": "function"
    },
    {
      "inputs": [],
      "name": "totalAUM",
      "outputs": [
        {
          "internalType": "uint256",
          "name": "",
          "type": "uint256"
        }
      ],
      "stateMutability": "view",
      "type": "function"
    },
    {
      "inputs": [],
      "name": "totalSupply",
      "outputs": [
        {
          "internalType": "uint256",
          "name": "",
          "type": "uint256"
        }
      ],
      "stateMutability": "view",
      "type": "function"
    },
    {
      "inputs": [
        {
          "internalType": "address",
          "name": "to",
          "type": "address"
        },
        {
          "internalType": "uint256",
          "name": "value",
          "type": "uint256"
        }
      ],
      "name": "transfer",
      "outputs": [
        {
          "internalType": "bool",
          "name": "",
          "type": "bool"
        }
      ],
      "stateMutability": "nonpayable",
      "type": "function"
    },
    {
      "inputs": [
        {
          "internalType": "address",
          "name": "from",
          "type": "address"
        },
        {
          "internalType": "address",
          "name": "to",
          "type": "address"
        },
        {
          "internalType": "uint256",
          "name": "value",
          "type": "uint256"
        }
      ],
      "name": "transferFrom",
      "outputs": [
        {
          "internalType": "bool",
          "name": "",
          "type": "bool"
        }
      ],
      "stateMutability": "nonpayable",
      "type": "function"
    },
    {
      "inputs": [
        {
          "internalType": "address",
          "name": "newOwner",
          "type": "address"
        }
      ],
      "name": "transferOwnership",
      "outputs": [],
      "stateMutability": "nonpayable",
      "type": "function"
    },
    {
      "inputs": [],
      "name": "unpause",
      "outputs": [],
      "stateMutability": "nonpayable",
      "type": "function"
    }
  ],
  "bytecode": "0x60a08060405234610a5557612c92803803809161001c8285610a59565b8339810161010082820312610a555761003482610a7c565b60208301516001600160401b038111610a555782610053918501610a90565b60408401519093906001600160401b038111610a555783610075918301610a90565b9161008260608301610a7c565b9261008f60808401610a7c565b9161009c60a08501610a7c565b60c085015160e086015190959193916001600160401b038211610a5557019680601f89011215610a55578751976001600160401b038911610516578860051b91604051996100ed602085018c610a59565b8a526020808b019383010191818311610a555760208101935b8385106109c95750508a519250506001600160401b038211905061051657600354600181811c911680156109bf575b60208210146104f857601f811161095c575b50806020601f82116001146108f6575f916108eb575b508160011b915f199060031b1c1916176003555b8051906001600160401b0382116105165760045490600182811c921680156108e1575b60208310146104f85781601f849311610873575b50602090601f831160011461080d575f92610802575b50508160011b915f199060031b1c1916176004555b6001600160a01b031680156107ef57600680546001600160a01b0319908116909155600580549182168317905560405191906001600160a01b03167f8be0079c531659141344cd1fd0a4f28419497f9722a3daafe3b4186f6b6457e05f80a360017f9b779b17422d0df92223018b32b4d1fa46e071723d6817e2486d003becc55f005560c884116107ad57506001600160a01b038416918215610773576001600160a01b031690811561072e576001600160a01b03169182156106f65760028651106106b157600d80546001600160a01b0319908116929092179055600e805490911691909117905560805283516001600160401b03811161051657600854600181811c911680156106a7575b60208210146104f857601f8111610644575b50602094601f82116001146105e1579481929394955f926105d6575b50508160011b915f199060031b1c1916176008555b60095542600a555f91825b815184101561054e5761034c6103448584610ae5565b515184610af9565b506103578584610ae5565b5190801561053e57905b606081019182526007546801000000000000000081101561051657600181018060075581101561052a5760075f5260205f209060021b01908051825560018201602082015180519060018060401b038211610516578254600181811c9116801561050c575b60208210146104f857601f81116104b3575b50602090601f831160011461044b57918060409492600396945f92610440575b50508160011b915f1990871b1c19161790555b01519283600284015551910155810180911161042c5760019093019261032e565b634e487b7160e01b5f52601160045260245ffd5b015190505f806103f8565b90601f19831691845f52815f20925f5b81811061049b5750926001928592600398966040989610610484575b505050811b01905561040b565b01515f1983891b60f8161c191690555f8080610477565b9293602060018192878601518155019501930161045b565b835f5260205f20601f840160051c810191602085106104ee575b601f0160051c01905b8181106104e357506103d8565b5f81556001016104d6565b90915081906104cd565b634e487b7160e01b5f52602260045260245ffd5b90607f16906103c6565b634e487b7160e01b5f52604160045260245ffd5b634e487b7160e01b5f52603260045260245ffd5b50670de0b6b3a764000090610361565b612710036105915760405161210d9081610b85823960805181818161066201528181610b6401528181610ccf0152818161153d01528181611e2b0152611eb60152f35b60405162461bcd60e51b815260206004820152601660248201527f496e6465783a207765696768747320213d2031303025000000000000000000006044820152606490fd5b015190505f8061030e565b601f1982169560085f52805f20915f5b88811061062c57508360019596979810610614575b505050811b01600855610323565b01515f1960f88460031b161c191690555f8080610606565b919260206001819286850151815501940192016105f1565b60085f527ff3f7a9fe364faab93b216da50a3214154f22a0a2b415b23a84c8169e8b636ee3601f830160051c8101916020841061069d575b601f0160051c01905b81811061069257506102f2565b5f8155600101610685565b909150819061067c565b90607f16906102e0565b60405162461bcd60e51b815260206004820152601960248201527f496e6465783a206e65656420322b20636f6d706f6e656e7473000000000000006044820152606490fd5b60405162461bcd60e51b815260206004820152601060248201526f496e6465783a207a65726f207573646360801b6044820152606490fd5b60405162461bcd60e51b815260206004820152601460248201527f496e6465783a207a65726f2073706c69747465720000000000000000000000006044820152606490fd5b60405162461bcd60e51b8152602060048201526012602482015271496e6465783a207a65726f206f7261636c6560701b6044820152606490fd5b62461bcd60e51b815260206004820152601360248201527f496e6465783a2066656520746f6f2068696768000000000000000000000000006044820152606490fd5b631e4fbdf760e01b5f525f60045260245ffd5b015190505f806101be565b60045f9081528281209350601f198516905b81811061085b5750908460019594939210610843575b505050811b016004556101d3565b01515f1960f88460031b161c191690555f8080610835565b9293602060018192878601518155019501930161081f565b60045f529091507f8a35acfbc15ff81a39ae7d344fd709f28e8600b4aa8c65c6b64bfe7fe36bd19b601f840160051c810191602085106108d7575b90601f859493920160051c01905b8181106108c957506101a8565b5f81558493506001016108bc565b90915081906108ae565b91607f1691610194565b90508901515f61015d565b60035f9081528181209250601f198416905b8c828210610944575050908360019493921061092c575b5050811b01600355610171565b8b01515f1960f88460031b161c191690555f8061091f565b60018495602093958493015181550194019201610908565b60035f527fc2575a0e9e593c00f959f8c92f12db2869c3395a3b0502d05e2516446f71f85b601f830160051c810191602084106109b5575b601f0160051c01905b8181106109aa5750610147565b5f815560010161099d565b9091508190610994565b90607f1690610135565b84516001600160401b038111610a555782016080818503601f190112610a555760405191608083016001600160401b0381118482101761051657604090815260208301518452820151926001600160401b038411610a5557608083610a35886020809881980101610a90565b858401526060810151604084015201516060820152815201940193610106565b5f80fd5b601f909101601f19168101906001600160401b0382119082101761051657604052565b51906001600160a01b0382168203610a5557565b81601f82011215610a55578051906001600160401b0382116105165760405192610ac4601f8401601f191660200185610a59565b82845260208383010111610a5557815f9260208093018386015e8301015290565b805182101561052a5760209160051b010190565b604080516331d98b3f60e01b8152600481019390935291929190839060249082906001600160a01b03165afa91825f915f94610b49575b50610b455750670de0b6b3a764000091504290565b9190565b915092506040813d604011610b7c575b81610b6660409383610a59565b81010312610a555760208151910151925f610b30565b3d9150610b5956fe60806040526004361015610011575f80fd5b5f803560e01c80630126c6061461187757806306fdde03146117bc578063095ea7b31461173a57806318160ddd1461171d5780631b2ef1ca146114a557806323b872dd146113c6578063249d39e9146113aa578063313ce5671461138f57806338fd6bdb146105835780633cd8045e146113675780633f4ba83a146112f957806352011f18146112dc5780635c975abb146112b757806366b5ae1f1461129a57806370a0823114611263578063715018a6146111fe578063780d57101461105557806379ba509714610fcf5780637ac7fa5014610fb45780637be613ca14610f715780637cbc237314610c445780637dc0d1d014610c1c5780637e3fef0214610bf45780638456cb5914610b9357806389a3027114610b4f5780638da5cb5b14610b27578063932a1e5e1461097757806395d89b411461088357806398b77c3314610866578063a5ce1ff614610849578063a9059cbb14610818578063aaf5eb68146107f6578063ab256e2714610792578063b3228b0d14610777578063b58e4316146105f9578063c5d574fe14610588578063c714d0f714610583578063dd62ed3e14610530578063de5f654c14610512578063e1e158a5146104f4578063e30c3978146104cb578063e6a69ab8146104ac578063e6bc01a21461038a578063f2fde38b1461031c5763f3918ecb14610209575f80fd5b346103195780600319360112610319576040519080600854908160011c9160018116801561030f575b6020841081146102fb578386529081156102d45750600114610277575b6102738461025f8186038261194a565b604051918291602083526020830190611899565b0390f35b600881527ff3f7a9fe364faab93b216da50a3214154f22a0a2b415b23a84c8169e8b636ee3939250905b8082106102ba5750909150810160200161025f8261024f565b9192600181602092548385880101520191019092916102a1565b60ff191660208087019190915292151560051b8501909201925061025f915083905061024f565b634e487b7160e01b83526022600452602483fd5b92607f1692610232565b80fd5b5034610319576020366003190112610319576103366118bd565b61033e6120c3565b600680546001600160a01b0319166001600160a01b039283169081179091556005549091167f38d16b8cac22d99fc7c124b9cd0de2d3fa1faef420bfe791d8c362d765e227008380a380f35b5034610319576040366003190112610319578060243567ffffffffffffffff81116104a957366023820112156104a95780600401359067ffffffffffffffff82116104a55736602483830101116104a5576005546001600160a01b031633148015610491575b6103f990611c35565b600f546001600160a01b0316908161041057505050f35b813b1561048c57839160248360648694604051978896879586936338d44ad560e01b8552600435600486015260408286015282604486015201848401378181018301849052601f01601f191681010301925af18015610481576104705750f35b8161047a9161194a565b6103195780f35b6040513d84823e3d90fd5b505050fd5b50600f546001600160a01b031633146103f0565b5050fd5b50fd5b503461031957806003193601126103195760206040516301e133808152f35b50346103195780600319360112610319576006546040516001600160a01b039091168152602090f35b50346103195780600319360112610319576020604051629896808152f35b50346103195780600319360112610319576020600b54604051908152f35b503461031957604036600319011261031957604061054c6118bd565b916105556118d3565b9260018060a01b031681526001602052209060018060a01b03165f52602052602060405f2054604051908152f35b6118ff565b5034610319576020366003190112610319576004356007548110156105f5576105b09061191a565b5080546105bf60018301611980565b91600360028201549101546105e66040519485948552608060208601526080850190611899565b91604084015260608301520390f35b5080fd5b50346106f25760203660031901126106f25760043560018060a01b036005541633148015610763575b61062b90611c35565b600f546001600160a01b0316801561072d5760405163095ea7b360e01b81526004810191909152602481018290526020816044815f7f00000000000000000000000000000000000000000000000000000000000000006001600160a01b03165af180156106e7576106f6575b50600f546001600160a01b031690813b156106f2575f91602483926040519485938492630f6baa0f60e21b845260048401525af180156106e7576106d9575080f35b6106e591505f9061194a565b005b6040513d5f823e3d90fd5b5f80fd5b6020813d602011610725575b8161070f6020938361194a565b810103126106f257518015158114610697575f80fd5b3d9150610702565b60405162461bcd60e51b815260206004820152600e60248201526d149bdd5d195c881b9bdd081cd95d60921b6044820152606490fd5b50600f546001600160a01b03163314610622565b346106f2575f3660031901126106f257602060405160788152f35b346106f25760203660031901126106f2576004356107ae6120c3565b60c881116107bb57600955005b60405162461bcd60e51b8152602060048201526013602482015272092dcc8caf07440cccaca40e8dede40d0d2ced606b1b6044820152606490fd5b346106f2575f3660031901126106f2576020604051670de0b6b3a76400008152f35b346106f25760403660031901126106f25761083e6108346118bd565b602435903361202c565b602060405160018152f35b346106f2575f3660031901126106f2576020600954604051908152f35b346106f2575f3660031901126106f2576020600c54604051908152f35b346106f2575f3660031901126106f2576040515f6004548060011c9060018116801561096d575b6020831081146109595782855290811561093557506001146108d7575b6102738361025f8185038261194a565b60045f9081527f8a35acfbc15ff81a39ae7d344fd709f28e8600b4aa8c65c6b64bfe7fe36bd19b939250905b80821061091b5750909150810160200161025f6108c7565b919260018160209254838588010152019101909291610903565b60ff191660208086019190915291151560051b8401909101915061025f90506108c7565b634e487b7160e01b5f52602260045260245ffd5b91607f16916108aa565b346106f2575f3660031901126106f25760075461099381611bf3565b6109a0604051918261194a565b8181526109ac82611bf3565b602082019290601f19013684376109c281611bf3565b926109d0604051948561194a565b8184526109dc82611bf3565b602085019290601f1901368437600d546001600160a01b03165f5b828110610a7c57505050604051938493604085019060408652518091526060850192905f5b818110610a63575050506020908483038286015251918281520191905f5b818110610a48575050500390f35b82511515845285945060209384019390920191600101610a3a565b8251855287965060209485019490920191600101610a1c565b80610a8d600192989596979861191a565b5054604051906331d98b3f60e01b82526004820152604081602481875afa90815f915f93610af5575b50610ac9575b50500195949392956109f7565b607891610ae191610ada858d611c21565b5242611b98565b1115610aed8287611c21565b528880610abc565b909250610b19915060403d8111610b20575b610b11818361194a565b810190611c0b565b918b610ab6565b503d610b07565b346106f2575f3660031901126106f2576005546040516001600160a01b039091168152602090f35b346106f2575f3660031901126106f2576040517f00000000000000000000000000000000000000000000000000000000000000006001600160a01b03168152602090f35b346106f2575f3660031901126106f257610bab6120c3565b610bb3611d37565b6006805460ff60a01b1916600160a01b1790556040513381527f62e78cea01bee320cd4e420270b5ea74000d11b0c9f74754ebdbfc544b05a25890602090a1005b346106f2575f3660031901126106f257600f546040516001600160a01b039091168152602090f35b346106f2575f3660031901126106f257600d546040516001600160a01b039091168152602090f35b346106f257610c52366118e9565b610c5a611cd9565b610c62611d37565b8115610f3757610c70611d55565b670de0b6b3a7640000610c8a610c84611a76565b84611a38565b0490600a8202828104600a1483151715610f2357612710900490610cba610cb18385611b98565b91821015611ba5565b6040516370a0823160e01b81523060048201527f0000000000000000000000000000000000000000000000000000000000000000936001600160a01b03851691602081602481865afa9081156106e7575f91610ef1575b508311610eac573315610e9957335f525f6020528560405f2054818110610e8057335f525f6020520360405f205585600254036002555f6040518781527fddf252ad1be2c89b69c2b068fc378daa952ba7f163c4a11628f55a4df523b3ef60203392a3600b549080821115610e7857610d8991611b98565b600b55610d9883600c54611a69565b600c55610da483611eae565b6040519363a9059cbb60e01b5f52336004528260245260205f60448180855af19060015f5114821615610e59575b508460405215610e47575091610e1e81927f484c40561359f3e3b8be9101897f8680aa82fbe1df9fd9038e0dbc6284032646943396846040919493926060820195825260208201520152565b0390a260017f9b779b17422d0df92223018b32b4d1fa46e071723d6817e2486d003becc55f0055005b635274afe760e01b5f5260045260245ffd5b6001821516610e6f573b15153d15161686610dd2565b853d5f823e3d90fd5b50505f610d89565b63391434e360e21b5f523360045260245260445260645ffd5b634b637e8f60e11b5f525f60045260245ffd5b60405162461bcd60e51b815260206004820152601d60248201527f496e6465783a20696e73756666696369656e74206c69717569646974790000006044820152606490fd5b90506020813d602011610f1b575b81610f0c6020938361194a565b810103126106f2575187610d11565b3d9150610eff565b634e487b7160e01b5f52601160045260245ffd5b60405162461bcd60e51b8152602060048201526012602482015271125b99195e0e881e995c9bc8185b5bdd5b9d60721b6044820152606490fd5b346106f25760203660031901126106f257610f8a6118bd565b610f926120c3565b600f80546001600160a01b0319166001600160a01b0392909216919091179055005b346106f2575f3660031901126106f257602060405160c88152f35b346106f2575f3660031901126106f257600654336001600160a01b039091160361104257600680546001600160a01b0319908116909155600580543392811683179091556001600160a01b03167f8be0079c531659141344cd1fd0a4f28419497f9722a3daafe3b4186f6b6457e05f80a3005b63118cdaa760e01b5f523360045260245ffd5b346106f25760203660031901126106f25760043567ffffffffffffffff81116106f257366023820112156106f257806004013567ffffffffffffffff81116106f2576024820191602436918360051b0101116106f2576110b36120c3565b60075481036111c0575f805b8282106111a057612710915003611162575f5b60075481101561112e57806110ea6001928486611be3565b3560026110f68361191a565b50015561110c6111058261191a565b5054611c72565b508061111a575b50016110d2565b60036111258361191a565b50015584611113565b7fc257294ad49c215e1a248c91a86bc2612b4781d9677285cc9c14498f485ef12260406007548151904282526020820152a1005b60405162461bcd60e51b8152602060048201526016602482015275496e6465783a207765696768747320213d203130302560501b6044820152606490fd5b6111b86001916111b1848688611be3565b3590611a69565b9101906110bf565b60405162461bcd60e51b8152602060048201526016602482015275092dcc8caf07440d8cadccee8d040dad2e6dac2e8c6d60531b6044820152606490fd5b346106f2575f3660031901126106f2576112166120c3565b600680546001600160a01b03199081169091556005805491821690555f906001600160a01b03167f8be0079c531659141344cd1fd0a4f28419497f9722a3daafe3b4186f6b6457e08280a3005b346106f25760203660031901126106f2576001600160a01b036112846118bd565b165f525f602052602060405f2054604051908152f35b346106f2575f3660031901126106f2576020600a54604051908152f35b346106f2575f3660031901126106f257602060ff60065460a01c166040519015158152f35b346106f2575f3660031901126106f2576020600754604051908152f35b346106f2575f3660031901126106f2576113116120c3565b60065460ff8160a01c16156113585760ff60a01b19166006556040513381527f5db9ee0a495bf2e6ff9c91a7834c1ba4fdd244a5e8aa4e537bd38aeae4b073aa90602090a1005b638dfc202b60e01b5f5260045ffd5b346106f2575f3660031901126106f257600e546040516001600160a01b039091168152602090f35b346106f2575f3660031901126106f257602060405160128152f35b346106f2575f3660031901126106f25760206040516127108152f35b346106f25760603660031901126106f2576113df6118bd565b6113e76118d3565b6001600160a01b0382165f818152600160209081526040808320338452909152902054909260443592915f198110611425575b5061083e935061202c565b83811061148a5784156114775733156114645761083e945f52600160205260405f2060018060a01b0333165f526020528360405f20910390558461141a565b634a1406b160e11b5f525f60045260245ffd5b63e602df0560e01b5f525f60045260245ffd5b8390637dc7a0d960e11b5f523360045260245260445260645ffd5b346106f2576114b3366118e9565b6114bb611cd9565b6114c3611d37565b6298968082106116d8576114d5611d55565b600a8202828104600a1483151715610f235761271090046114f68184611b98565b6114fe611a76565b80156116a857670de0b6b3a76400008202828104670de0b6b3a76400001483151715610f235761153b9161153191611a4b565b935b841015611ba5565b7f00000000000000000000000000000000000000000000000000000000000000006040516323b872dd60e01b5f5233600452306024528560445260205f60648180865af19060015f5114821615611687575b6040525f6060521561166757506115a690600b54611a69565b600b556115b581600c54611a69565b600c556115c181611eae565b331561165457816115f57f5a3358a3d27a5373c0df2604662088d37894d56b7cfd27f315770440f4e0d91993600254611a69565b600255335f525f60205260405f208181540190556040518181525f7fddf252ad1be2c89b69c2b068fc378daa952ba7f163c4a11628f55a4df523b3ef60203393a360408051948552602085019190915283015233918060608101610e1e565b63ec442f0560e01b5f525f60045260245ffd5b635274afe760e01b5f9081526001600160a01b0391909116600452602490fd5b90600181151661169f57823b15153d1516169061158d565b503d5f823e3d90fd5b50670de0b6b3a76400008102818104670de0b6b3a76400001482151715610f2357620f424061153b910493611533565b60405162461bcd60e51b815260206004820152601860248201527f496e6465783a2062656c6f77206d696e206465706f73697400000000000000006044820152606490fd5b346106f2575f3660031901126106f2576020600254604051908152f35b346106f25760403660031901126106f2576117536118bd565b602435903315611477576001600160a01b031690811561146457335f52600160205260405f20825f526020528060405f20556040519081527f8c5be1e5ebec7d5bd14f71427d1e84f3dd0314c0f7b2291e5b200ac8c7c3b92560203392a3602060405160018152f35b346106f2575f3660031901126106f2576040515f6003548060011c9060018116801561186d575b60208310811461095957828552908115610935575060011461180f576102738361025f8185038261194a565b60035f9081527fc2575a0e9e593c00f959f8c92f12db2869c3395a3b0502d05e2516446f71f85b939250905b8082106118535750909150810160200161025f6108c7565b91926001816020925483858801015201910190929161183b565b91607f16916117e3565b346106f2575f3660031901126106f2576020611891611a76565b604051908152f35b805180835260209291819084018484015e5f828201840152601f01601f1916010190565b600435906001600160a01b03821682036106f257565b602435906001600160a01b03821682036106f257565b60409060031901126106f2576004359060243590565b346106f2575f3660031901126106f2576020604051600a8152f35b6007548110156119365760075f5260205f209060021b01905f90565b634e487b7160e01b5f52603260045260245ffd5b90601f8019910116810190811067ffffffffffffffff82111761196c57604052565b634e487b7160e01b5f52604160045260245ffd5b90604051915f8154908160011c9260018316928315611a2e575b602085108414610959578487528693908115611a0c57506001146119c8575b506119c69250038361194a565b565b90505f9291925260205f20905f915b8183106119f05750509060206119c6928201015f6119b9565b60209193508060019154838589010152019101909184926119d7565b9050602092506119c694915060ff191682840152151560051b8201015f6119b9565b93607f169361199a565b81810292918115918404141715610f2357565b8115611a55570490565b634e487b7160e01b5f52601260045260245ffd5b91908201809211610f2357565b6002548015611b90575f905f6007545b808210611abd575050600b54918215611ab357611ab092612710611aab920490611a38565b611a4b565b90565b505050620f424090565b9092611ac88461191a565b50604051916080830183811067ffffffffffffffff82111761196c5760405281548352611af760018301611980565b6020840152611b1e6003600284015493604086019485520154936060810194855251611c72565b509182158015611b87575b611b7a575191670de0b6b3a7640000830292808404670de0b6b3a76400001490151715610f2357600193611b63611b6b92611b7195611a38565b905190611a4b565b90611a69565b935b0190611a86565b5094905060019150611b73565b50835115611b29565b50620f424090565b91908203918211610f2357565b15611bac57565b60405162461bcd60e51b815260206004820152600f60248201526e496e6465783a20736c69707061676560881b6044820152606490fd5b91908110156119365760051b0190565b67ffffffffffffffff811161196c5760051b60200190565b91908260409103126106f2576020825192015190565b80518210156119365760209160051b010190565b15611c3c57565b60405162461bcd60e51b815260206004820152600e60248201526d139bdd08185d5d1a1bdc9a5e995960921b6044820152606490fd5b90604060018060a01b03600d54169260248251809581936331d98b3f60e01b835260048301525afa91825f915f94611cb6575b50611cb257505f91508190565b9190565b909350611cd2915060403d604011610b2057610b11818361194a565b925f611ca5565b60027f9b779b17422d0df92223018b32b4d1fa46e071723d6817e2486d003becc55f005414611d285760027f9b779b17422d0df92223018b32b4d1fa46e071723d6817e2486d003becc55f0055565b633ee5aeb560e01b5f5260045ffd5b60ff60065460a01c16611d4657565b63d93c066560e01b5f5260045ffd5b600b5480158015611ea4575b611ea157611d71600a5442611b98565b8015611e9d57612710611d946301e1338092611d8f60095486611a38565b611a38565b04049042600a5581151580611e0f575b611dac575050565b81602091611ddd7ffe8981e94194cbbb8c05bbe9e35d5efd344dea70889a90ca458fd7da74672ec994600c54611a69565b600c558180821115611e0757611df291611b98565b600b55611dfe81611eae565b604051908152a1565b50505f611df2565b506040516370a0823160e01b81523060048201526020816024817f00000000000000000000000000000000000000000000000000000000000000006001600160a01b03165afa9081156106e7575f91611e6b575b508210611da4565b90506020813d602011611e95575b81611e866020938361194a565b810103126106f257515f611e63565b3d9150611e79565b5050565b50565b5060095415611d61565b8015611ea1577f000000000000000000000000000000000000000000000000000000000000000060018060a01b03600e541660405163095ea7b360e01b5f52816004528360245260205f60448180875af19060015f511482161561201d575b60405215611f5c575b5050600e546001600160a01b031690813b156106f2575f916024839260405194859384926302102c9760e11b845260048401525af1611f525750565b5f6119c69161194a565b60405163095ea7b360e01b5f52816004525f60245260205f60448180875af19060015f5114821615612005575b60405215611fe4576040519063095ea7b360e01b5f526004528260245260205f60448180865af19060015f5114821615611fcc575b604052156116675780611f16565b90600181151661169f57823b15153d15161690611fbe565b50635274afe760e01b5f9081526001600160a01b0391909116600452602490fd5b90600181151661169f57833b15153d15161690611f89565b90833b15153d15161690611f0d565b6001600160a01b0316908115610e99576001600160a01b031691821561165457815f525f60205260405f20548181106120aa57817fddf252ad1be2c89b69c2b068fc378daa952ba7f163c4a11628f55a4df523b3ef92602092855f525f84520360405f2055845f525f825260405f20818154019055604051908152a3565b8263391434e360e21b5f5260045260245260445260645ffd5b6005546001600160a01b031633036110425756fea26469706673582212203903d2b7a996c97b8fb589e34ce88cc0304daa543580aa485c077562fe649a0364736f6c634300081a0033",
  "linkReferences": {},
  "deployedLinkReferences": {}
}