{
  "_format": "hh-sol-artifact-1",
  "contractName": "WikiProofOfSolvency",
  "sourceName": "src/WikiProofOfSolvency.sol",
  "abi": [
    {
      "inputs": [
        {
          "internalType": "address",
          "name": "_owner",
          "type": "address"
        }
      ],
      "stateMutability": "nonpayable",
      "type": "constructor"
    },
    {
      "inputs": [
        {
          "internalType": "address",
          "name": "owner",
          "type": "address"
        }
      ],
      "name": "OwnableInvalidOwner",
      "type": "error"
    },
    {
      "inputs": [
        {
          "internalType": "address",
          "name": "account",
          "type": "address"
        }
      ],
      "name": "OwnableUnauthorizedAccount",
      "type": "error"
    },
    {
      "anonymous": false,
      "inputs": [
        {
          "indexed": true,
          "internalType": "address",
          "name": "previousOwner",
          "type": "address"
        },
        {
          "indexed": true,
          "internalType": "address",
          "name": "newOwner",
          "type": "address"
        }
      ],
      "name": "OwnershipTransferStarted",
      "type": "event"
    },
    {
      "anonymous": false,
      "inputs": [
        {
          "indexed": true,
          "internalType": "address",
          "name": "previousOwner",
          "type": "address"
        },
        {
          "indexed": true,
          "internalType": "address",
          "name": "newOwner",
          "type": "address"
        }
      ],
      "name": "OwnershipTransferred",
      "type": "event"
    },
    {
      "anonymous": false,
      "inputs": [
        {
          "indexed": false,
          "internalType": "uint256",
          "name": "snapshotId",
          "type": "uint256"
        },
        {
          "indexed": false,
          "internalType": "uint256",
          "name": "shortfall",
          "type": "uint256"
        }
      ],
      "name": "SolvencyAlert",
      "type": "event"
    },
    {
      "anonymous": false,
      "inputs": [
        {
          "indexed": true,
          "internalType": "uint256",
          "name": "snapshotId",
          "type": "uint256"
        },
        {
          "indexed": false,
          "internalType": "bytes32",
          "name": "merkleRoot",
          "type": "bytes32"
        },
        {
          "indexed": false,
          "internalType": "uint256",
          "name": "totalAssets",
          "type": "uint256"
        },
        {
          "indexed": false,
          "internalType": "uint256",
          "name": "totalLiabilities",
          "type": "uint256"
        },
        {
          "indexed": false,
          "internalType": "bool",
          "name": "solvent",
          "type": "bool"
        },
        {
          "indexed": false,
          "internalType": "uint256",
          "name": "timestamp",
          "type": "uint256"
        }
      ],
      "name": "SolvencyProofPublished",
      "type": "event"
    },
    {
      "inputs": [],
      "name": "MIN_INTERVAL",
      "outputs": [
        {
          "internalType": "uint256",
          "name": "",
          "type": "uint256"
        }
      ],
      "stateMutability": "view",
      "type": "function"
    },
    {
      "inputs": [],
      "name": "acceptOwnership",
      "outputs": [],
      "stateMutability": "nonpayable",
      "type": "function"
    },
    {
      "inputs": [],
      "name": "backstop",
      "outputs": [
        {
          "internalType": "contract IWikiBackstop",
          "name": "",
          "type": "address"
        }
      ],
      "stateMutability": "view",
      "type": "function"
    },
    {
      "inputs": [],
      "name": "insurance",
      "outputs": [
        {
          "internalType": "contract IWikiInsurance",
          "name": "",
          "type": "address"
        }
      ],
      "stateMutability": "view",
      "type": "function"
    },
    {
      "inputs": [],
      "name": "keeper",
      "outputs": [
        {
          "internalType": "address",
          "name": "",
          "type": "address"
        }
      ],
      "stateMutability": "view",
      "type": "function"
    },
    {
      "inputs": [],
      "name": "lastPublished",
      "outputs": [
        {
          "internalType": "uint256",
          "name": "",
          "type": "uint256"
        }
      ],
      "stateMutability": "view",
      "type": "function"
    },
    {
      "inputs": [],
      "name": "latestSnapshotId",
      "outputs": [
        {
          "internalType": "uint256",
          "name": "",
          "type": "uint256"
        }
      ],
      "stateMutability": "view",
      "type": "function"
    },
    {
      "inputs": [],
      "name": "latestStatus",
      "outputs": [
        {
          "internalType": "bool",
          "name": "solvent",
          "type": "bool"
        },
        {
          "internalType": "uint256",
          "name": "totalAssets",
          "type": "uint256"
        },
        {
          "internalType": "uint256",
          "name": "totalLiabilities",
          "type": "uint256"
        },
        {
          "internalType": "uint256",
          "name": "surplusOrShortfall",
          "type": "uint256"
        },
        {
          "internalType": "uint256",
          "name": "snapshotAge",
          "type": "uint256"
        },
        {
          "internalType": "uint256",
          "name": "snapshotId",
          "type": "uint256"
        },
        {
          "internalType": "string",
          "name": "ipfsCID",
          "type": "string"
        }
      ],
      "stateMutability": "view",
      "type": "function"
    },
    {
      "inputs": [],
      "name": "opsVault",
      "outputs": [
        {
          "internalType": "contract IWikiOpsVault",
          "name": "",
          "type": "address"
        }
      ],
      "stateMutability": "view",
      "type": "function"
    },
    {
      "inputs": [],
      "name": "owner",
      "outputs": [
        {
          "internalType": "address",
          "name": "",
          "type": "address"
        }
      ],
      "stateMutability": "view",
      "type": "function"
    },
    {
      "inputs": [],
      "name": "pendingOwner",
      "outputs": [
        {
          "internalType": "address",
          "name": "",
          "type": "address"
        }
      ],
      "stateMutability": "view",
      "type": "function"
    },
    {
      "inputs": [
        {
          "internalType": "bytes32",
          "name": "merkleRoot",
          "type": "bytes32"
        },
        {
          "internalType": "uint256",
          "name": "totalLiabilities",
          "type": "uint256"
        },
        {
          "internalType": "string",
          "name": "ipfsCID",
          "type": "string"
        }
      ],
      "name": "publishProof",
      "outputs": [],
      "stateMutability": "nonpayable",
      "type": "function"
    },
    {
      "inputs": [],
      "name": "renounceOwnership",
      "outputs": [],
      "stateMutability": "nonpayable",
      "type": "function"
    },
    {
      "inputs": [
        {
          "internalType": "address",
          "name": "_vault",
          "type": "address"
        },
        {
          "internalType": "address",
          "name": "_backstop",
          "type": "address"
        },
        {
          "internalType": "address",
          "name": "_insurance",
          "type": "address"
        },
        {
          "internalType": "address",
          "name": "_opsVault",
          "type": "address"
        }
      ],
      "name": "setContracts",
      "outputs": [],
      "stateMutability": "nonpayable",
      "type": "function"
    },
    {
      "inputs": [
        {
          "internalType": "address",
          "name": "_k",
          "type": "address"
        }
      ],
      "name": "setKeeper",
      "outputs": [],
      "stateMutability": "nonpayable",
      "type": "function"
    },
    {
      "inputs": [],
      "name": "snapshotCount",
      "outputs": [
        {
          "internalType": "uint256",
          "name": "",
          "type": "uint256"
        }
      ],
      "stateMutability": "view",
      "type": "function"
    },
    {
      "inputs": [
        {
          "internalType": "uint256",
          "name": "",
          "type": "uint256"
        }
      ],
      "name": "snapshots",
      "outputs": [
        {
          "internalType": "bytes32",
          "name": "merkleRoot",
          "type": "bytes32"
        },
        {
          "internalType": "uint256",
          "name": "totalLiabilities",
          "type": "uint256"
        },
        {
          "internalType": "uint256",
          "name": "totalAssets",
          "type": "uint256"
        },
        {
          "internalType": "uint256",
          "name": "backstopAssets",
          "type": "uint256"
        },
        {
          "internalType": "uint256",
          "name": "insuranceAssets",
          "type": "uint256"
        },
        {
          "internalType": "uint256",
          "name": "opsVaultAssets",
          "type": "uint256"
        },
        {
          "internalType": "uint256",
          "name": "timestamp",
          "type": "uint256"
        },
        {
          "internalType": "uint256",
          "name": "blockNumber",
          "type": "uint256"
        },
        {
          "internalType": "bool",
          "name": "solvent",
          "type": "bool"
        },
        {
          "internalType": "string",
          "name": "ipfsCID",
          "type": "string"
        }
      ],
      "stateMutability": "view",
      "type": "function"
    },
    {
      "inputs": [
        {
          "internalType": "address",
          "name": "newOwner",
          "type": "address"
        }
      ],
      "name": "transferOwnership",
      "outputs": [],
      "stateMutability": "nonpayable",
      "type": "function"
    },
    {
      "inputs": [],
      "name": "vault",
      "outputs": [
        {
          "internalType": "contract IWikiVault",
          "name": "",
          "type": "address"
        }
      ],
      "stateMutability": "view",
      "type": "function"
    },
    {
      "inputs": [
        {
          "internalType": "address",
          "name": "user",
          "type": "address"
        },
        {
          "internalType": "uint256",
          "name": "balance",
          "type": "uint256"
        },
        {
          "internalType": "bytes32[]",
          "name": "merkleProof",
          "type": "bytes32[]"
        },
        {
          "internalType": "uint256",
          "name": "snapshotId",
          "type": "uint256"
        }
      ],
      "name": "verifyUser",
      "outputs": [
        {
          "internalType": "bool",
          "name": "included",
          "type": "bool"
        },
        {
          "internalType": "bool",
          "name": "protocolSolvent",
          "type": "bool"
        }
      ],
      "stateMutability": "view",
      "type": "function"
    }
  ],
  "bytecode": "0x6080346100de57601f6110e038819003918201601f19168301916001600160401b038311848410176100e2578084926020946040528339810103126100de57516001600160a01b038116908190036100de5780156100cb57600180546001600160a01b03199081169091555f805491821683178155604051929182916001600160a01b03909116907f8be0079c531659141344cd1fd0a4f28419497f9722a3daafe3b4186f6b6457e09080a3600480546001600160a01b031916919091179055610fe990816100f78239f35b631e4fbdf760e01b5f525f60045260245ffd5b5f80fd5b634e487b7160e01b5f52604160045260245ffdfe6080806040526004361015610012575f80fd5b5f3560e01c908163098ab6a114610c725750806351223f85146107725780635cd2d136146105f4578063715018a614610591578063748747e61461054e57806379ba5097146104c95780637dea1817146104a1578063869c117c1461044b57806389cf3204146104235780638da5cb5b146103fc578063aced1661146103d4578063bf989b6e146102eb578063c0368740146102cf578063d6565a2d1461021b578063e30c3978146101f3578063e484cf32146101d6578063ec3e06d1146101b9578063f2fde38b1461014c578063f60b9726146101245763fbfa77cf146100f8575f80fd5b34610120575f366003190112610120576005546040516001600160a01b039091168152602090f35b5f80fd5b34610120575f366003190112610120576008546040516001600160a01b039091168152602090f35b3461012057602036600319011261012057610165610c8c565b61016d610fa0565b60018060a01b0316806001600160601b0360a01b600154161760015560018060a01b035f54167f38d16b8cac22d99fc7c124b9cd0de2d3fa1faef420bfe791d8c362d765e227005f80a3005b34610120575f366003190112610120576020600954604051908152f35b34610120575f366003190112610120576020600354604051908152f35b34610120575f366003190112610120576001546040516001600160a01b039091168152602090f35b34610120576020366003190112610120576004356002548110156101205761024290610cc6565b5080546102cb600183015492600281015490600381015460048201546005830154600684015491600785015493610283600960ff6008890154169701610d50565b966040519a8b9a8b5260208b015260408a01526060890152608088015260a087015260c086015260e08501521515610100840152610140610120840152610140830190610ca2565b0390f35b34610120575f3660031901126101205760206040516154608152f35b3461012057608036600319011261012057610304610c8c565b6024356001600160a01b03811690819003610120576044356001600160a01b0381169190829003610120576064356001600160a01b03811693908490036101205761034d610fa0565b6001600160a01b0316806103bb575b50806103a2575b5080610389575b508061037257005b6001600160601b0360a01b60085416176008555f80f35b6001600160601b0360a01b60075416176007558161036a565b6001600160601b0360a01b600654161760065582610363565b6001600160601b0360a01b60055416176005558361035c565b34610120575f366003190112610120576004546040516001600160a01b039091168152602090f35b34610120575f366003190112610120575f546040516001600160a01b039091168152602090f35b34610120575f366003190112610120576007546040516001600160a01b039091168152602090f35b34610120575f366003190112610120576102cb610466610e0a565b9360409795979391935197889715158852602088015260408701526060860152608085015260a084015260e060c084015260e0830190610ca2565b34610120575f366003190112610120576006546040516001600160a01b039091168152602090f35b34610120575f36600319011261012057600154336001600160a01b039091160361053b57600180546001600160a01b03199081169091555f805433928116831782556001600160a01b0316907f8be0079c531659141344cd1fd0a4f28419497f9722a3daafe3b4186f6b6457e09080a3005b63118cdaa760e01b5f523360045260245ffd5b3461012057602036600319011261012057610567610c8c565b61056f610fa0565b600480546001600160a01b0319166001600160a01b0392909216919091179055005b34610120575f366003190112610120576105a9610fa0565b600180546001600160a01b03199081169091555f80549182168155906001600160a01b03167f8be0079c531659141344cd1fd0a4f28419497f9722a3daafe3b4186f6b6457e08280a3005b346101205760803660031901126101205761060d610c8c565b60443567ffffffffffffffff811161012057366023820112156101205780600401359067ffffffffffffffff8211610120578160051b90602482820101368111610120576064356002548110156107355761066790610cc6565b509460405160208101916001600160601b03199060601b168252602435603482015260348152610698605482610d2e565b519020918554946106af6020604051960186610d2e565b8452602401602084015b82821061072557505050905f915b81518310156107095760208360051b83010151908181105f146106f8575f52602052600160405f205b9201916106c7565b905f52602052600160405f206106f0565b6040908460ff6008880154169083519214825215156020820152f35b81358152602091820191016106b9565b60405162461bcd60e51b8152602060048201526015602482015274141bd4ce881a5b9d985b1a59081cdb985c1cda1bdd605a1b6044820152606490fd5b346101205760603660031901126101205760243560443560043567ffffffffffffffff8211610120573660238301121561012057816004013567ffffffffffffffff8111610120573660248285010111610120576004546001600160a01b031633148015610c5f575b15610c28576009546154608101809111610c14574210610bdf578115610ba9576006546001600160a01b03168015610ba15761081690610e93565b925b6007546001600160a01b031615610b9a57610831610efb565b925b6008546001600160a01b031615610b935761084c610f32565b925b6005546001600160a01b031615610b815761087884610873876108738a610873610f69565b610df0565b95878710948515926002549760405193610140850185811067ffffffffffffffff821117610b5a5760405286855260208501938c855260408601928c8452606087019283526080870190815260a0870191825260c087019242845260e08801944386526101008901968a885280601f19601f8201166020016040519e8f916109009083610d2e565b82825260240190602001378c016020015f90528d6101208a019c8d52680100000000000000001115610b5a5761093c8e60018101600255610cc6565b989098610b6e57600999518955516001890155516002880155516003870155516004860155516005850155516006840155516007830155600882019051151560ff8019835416911617905501925192835167ffffffffffffffff8111610b5a5786946109a88354610cf6565b601f8111610b02575b50602090601f8311600114610a765791807ff93e6d39cf0b8a23d5e790b377c86cc1d14a8d135feff9e1828660565e9584ab96949260a096945f92610a6b575b50508160011b915f199060031b1c19161790555b84600355426009556040519182528760208301528860408301526060820152426080820152a2610a3157005b610a5e6040927fb8c3c04fdda28424f8b4e25ce988f6733d55bb6e4789a471b8162e2739ca70c194610dfd565b82519182526020820152a1005b015190508c806109f1565b90601f19831691845f52815f20925f5b818110610ae7575092600192859260a098967ff93e6d39cf0b8a23d5e790b377c86cc1d14a8d135feff9e1828660565e9584ab9a989610610acf575b505050811b019055610a05565b01515f1960f88460031b161c191690558c8080610ac2565b8284015185558b995060019094019360209384019301610a86565b90919280949596505f5260205f20601f840160051c81019160208510610b50575b90601f8a989796959493920160051c01905b818110610b4257506109b1565b5f8155899750600101610b35565b9091508190610b23565b634e487b7160e01b5f52604160045260245ffd5b634e487b7160e01b5f525f60045260245ffd5b61087884610873876108738a5f610df0565b5f9261084e565b5f92610833565b505f92610818565b60405162461bcd60e51b815260206004820152600e60248201526d141bd4ce881e995c9bc81c9bdbdd60921b6044820152606490fd5b60405162461bcd60e51b815260206004820152600d60248201526c2837a99d103a37b79039b7b7b760991b6044820152606490fd5b634e487b7160e01b5f52601160045260245ffd5b60405162461bcd60e51b815260206004820152600f60248201526e2837a99d103737ba1035b2b2b832b960891b6044820152606490fd5b505f546001600160a01b031633146107db565b34610120575f366003190112610120576020906002548152f35b600435906001600160a01b038216820361012057565b805180835260209291819084018484015e5f828201840152601f01601f1916010190565b600254811015610ce25760025f52600a60205f20910201905f90565b634e487b7160e01b5f52603260045260245ffd5b90600182811c92168015610d24575b6020831014610d1057565b634e487b7160e01b5f52602260045260245ffd5b91607f1691610d05565b90601f8019910116810190811067ffffffffffffffff821117610b5a57604052565b9060405191825f825492610d6384610cf6565b8084529360018116908115610dce5750600114610d8a575b50610d8892500383610d2e565b565b90505f9291925260205f20905f915b818310610db2575050906020610d88928201015f610d7b565b6020919350806001915483858901015201910190918492610d99565b905060209250610d8894915060ff191682840152151560051b8201015f610d7b565b91908201809211610c1457565b91908203918211610c1457565b60025415610e7357600354610e1e81610cc6565b5060ff60088201541692600282015492600183015492855f14610e6457610e458486610dfd565b92610e616009610e59600685015442610dfd565b949301610d50565b90565b610e6e8585610dfd565b610e45565b5f905f905f905f905f905f90604051610e8d602082610d2e565b5f815290565b6040516278744560e21b815290602090829060049082906001600160a01b03165afa5f9181610ec7575b50610e6157505f90565b9091506020813d602011610ef3575b81610ee360209383610d2e565b810103126101205751905f610ebd565b3d9150610ed6565b6007546040516316d3df1560e31b815290602090829060049082906001600160a01b03165afa5f9181610ec75750610e6157505f90565b6008546040516306a61f7560e51b815290602090829060049082906001600160a01b03165afa5f9181610ec75750610e6157505f90565b600554604051637d88209760e01b815290602090829060049082906001600160a01b03165afa5f9181610ec75750610e6157505f90565b5f546001600160a01b0316330361053b5756fea2646970667358221220b93c9143c1be5e8aecb8fba11f5936e8932a97ee1eea2f1f9f8e82f66b7e3fea64736f6c634300081a0033",
  "linkReferences": {},
  "deployedLinkReferences": {}
}