{
  "_format": "hh-sol-artifact-1",
  "contractName": "WikiSocial",
  "sourceName": "src/WikiSocial.sol",
  "abi": [
    {
      "inputs": [
        {
          "internalType": "address",
          "name": "_owner",
          "type": "address"
        }
      ],
      "stateMutability": "nonpayable",
      "type": "constructor"
    },
    {
      "inputs": [],
      "name": "EnforcedPause",
      "type": "error"
    },
    {
      "inputs": [],
      "name": "ExpectedPause",
      "type": "error"
    },
    {
      "inputs": [
        {
          "internalType": "address",
          "name": "owner",
          "type": "address"
        }
      ],
      "name": "OwnableInvalidOwner",
      "type": "error"
    },
    {
      "inputs": [
        {
          "internalType": "address",
          "name": "account",
          "type": "address"
        }
      ],
      "name": "OwnableUnauthorizedAccount",
      "type": "error"
    },
    {
      "anonymous": false,
      "inputs": [
        {
          "indexed": true,
          "internalType": "uint256",
          "name": "postId",
          "type": "uint256"
        },
        {
          "indexed": true,
          "internalType": "address",
          "name": "user",
          "type": "address"
        },
        {
          "indexed": false,
          "internalType": "bytes32",
          "name": "commentHash",
          "type": "bytes32"
        }
      ],
      "name": "CommentPosted",
      "type": "event"
    },
    {
      "anonymous": false,
      "inputs": [
        {
          "indexed": true,
          "internalType": "address",
          "name": "follower",
          "type": "address"
        },
        {
          "indexed": true,
          "internalType": "address",
          "name": "target",
          "type": "address"
        }
      ],
      "name": "Followed",
      "type": "event"
    },
    {
      "anonymous": false,
      "inputs": [
        {
          "indexed": true,
          "internalType": "uint256",
          "name": "postId",
          "type": "uint256"
        },
        {
          "indexed": true,
          "internalType": "address",
          "name": "user",
          "type": "address"
        }
      ],
      "name": "Liked",
      "type": "event"
    },
    {
      "anonymous": false,
      "inputs": [
        {
          "indexed": true,
          "internalType": "address",
          "name": "previousOwner",
          "type": "address"
        },
        {
          "indexed": true,
          "internalType": "address",
          "name": "newOwner",
          "type": "address"
        }
      ],
      "name": "OwnershipTransferStarted",
      "type": "event"
    },
    {
      "anonymous": false,
      "inputs": [
        {
          "indexed": true,
          "internalType": "address",
          "name": "previousOwner",
          "type": "address"
        },
        {
          "indexed": true,
          "internalType": "address",
          "name": "newOwner",
          "type": "address"
        }
      ],
      "name": "OwnershipTransferred",
      "type": "event"
    },
    {
      "anonymous": false,
      "inputs": [
        {
          "indexed": false,
          "internalType": "address",
          "name": "account",
          "type": "address"
        }
      ],
      "name": "Paused",
      "type": "event"
    },
    {
      "anonymous": false,
      "inputs": [
        {
          "indexed": true,
          "internalType": "uint256",
          "name": "postId",
          "type": "uint256"
        },
        {
          "indexed": true,
          "internalType": "address",
          "name": "author",
          "type": "address"
        },
        {
          "indexed": false,
          "internalType": "bytes32",
          "name": "contentHash",
          "type": "bytes32"
        }
      ],
      "name": "PostCreated",
      "type": "event"
    },
    {
      "anonymous": false,
      "inputs": [
        {
          "indexed": true,
          "internalType": "uint256",
          "name": "postId",
          "type": "uint256"
        },
        {
          "indexed": true,
          "internalType": "address",
          "name": "author",
          "type": "address"
        }
      ],
      "name": "PostDeleted",
      "type": "event"
    },
    {
      "anonymous": false,
      "inputs": [
        {
          "indexed": true,
          "internalType": "address",
          "name": "user",
          "type": "address"
        },
        {
          "indexed": false,
          "internalType": "string",
          "name": "handle",
          "type": "string"
        }
      ],
      "name": "ProfileCreated",
      "type": "event"
    },
    {
      "anonymous": false,
      "inputs": [
        {
          "indexed": true,
          "internalType": "uint256",
          "name": "postId",
          "type": "uint256"
        },
        {
          "indexed": true,
          "internalType": "address",
          "name": "user",
          "type": "address"
        }
      ],
      "name": "Reposted",
      "type": "event"
    },
    {
      "anonymous": false,
      "inputs": [
        {
          "indexed": true,
          "internalType": "address",
          "name": "follower",
          "type": "address"
        },
        {
          "indexed": true,
          "internalType": "address",
          "name": "target",
          "type": "address"
        }
      ],
      "name": "Unfollowed",
      "type": "event"
    },
    {
      "anonymous": false,
      "inputs": [
        {
          "indexed": true,
          "internalType": "uint256",
          "name": "postId",
          "type": "uint256"
        },
        {
          "indexed": true,
          "internalType": "address",
          "name": "user",
          "type": "address"
        }
      ],
      "name": "Unliked",
      "type": "event"
    },
    {
      "anonymous": false,
      "inputs": [
        {
          "indexed": false,
          "internalType": "address",
          "name": "account",
          "type": "address"
        }
      ],
      "name": "Unpaused",
      "type": "event"
    },
    {
      "inputs": [],
      "name": "acceptOwnership",
      "outputs": [],
      "stateMutability": "nonpayable",
      "type": "function"
    },
    {
      "inputs": [
        {
          "internalType": "uint256",
          "name": "id",
          "type": "uint256"
        },
        {
          "internalType": "bytes32",
          "name": "commentHash",
          "type": "bytes32"
        },
        {
          "internalType": "string",
          "name": "",
          "type": "string"
        }
      ],
      "name": "comment",
      "outputs": [],
      "stateMutability": "nonpayable",
      "type": "function"
    },
    {
      "inputs": [
        {
          "internalType": "bytes32",
          "name": "contentHash",
          "type": "bytes32"
        },
        {
          "internalType": "uint256",
          "name": "",
          "type": "uint256"
        },
        {
          "internalType": "uint256",
          "name": "",
          "type": "uint256"
        },
        {
          "internalType": "string",
          "name": "",
          "type": "string"
        }
      ],
      "name": "createPost",
      "outputs": [
        {
          "internalType": "uint256",
          "name": "postId",
          "type": "uint256"
        }
      ],
      "stateMutability": "nonpayable",
      "type": "function"
    },
    {
      "inputs": [
        {
          "internalType": "uint256",
          "name": "id",
          "type": "uint256"
        }
      ],
      "name": "deletePost",
      "outputs": [],
      "stateMutability": "nonpayable",
      "type": "function"
    },
    {
      "inputs": [
        {
          "internalType": "address",
          "name": "target",
          "type": "address"
        }
      ],
      "name": "follow",
      "outputs": [],
      "stateMutability": "nonpayable",
      "type": "function"
    },
    {
      "inputs": [
        {
          "internalType": "address",
          "name": "",
          "type": "address"
        },
        {
          "internalType": "address",
          "name": "",
          "type": "address"
        }
      ],
      "name": "following",
      "outputs": [
        {
          "internalType": "bool",
          "name": "",
          "type": "bool"
        }
      ],
      "stateMutability": "view",
      "type": "function"
    },
    {
      "inputs": [
        {
          "internalType": "bytes32",
          "name": "",
          "type": "bytes32"
        }
      ],
      "name": "handleTaken",
      "outputs": [
        {
          "internalType": "bool",
          "name": "",
          "type": "bool"
        }
      ],
      "stateMutability": "view",
      "type": "function"
    },
    {
      "inputs": [
        {
          "internalType": "uint256",
          "name": "id",
          "type": "uint256"
        }
      ],
      "name": "likePost",
      "outputs": [],
      "stateMutability": "nonpayable",
      "type": "function"
    },
    {
      "inputs": [
        {
          "internalType": "uint256",
          "name": "",
          "type": "uint256"
        },
        {
          "internalType": "address",
          "name": "",
          "type": "address"
        }
      ],
      "name": "liked",
      "outputs": [
        {
          "internalType": "bool",
          "name": "",
          "type": "bool"
        }
      ],
      "stateMutability": "view",
      "type": "function"
    },
    {
      "inputs": [],
      "name": "owner",
      "outputs": [
        {
          "internalType": "address",
          "name": "",
          "type": "address"
        }
      ],
      "stateMutability": "view",
      "type": "function"
    },
    {
      "inputs": [],
      "name": "pause",
      "outputs": [],
      "stateMutability": "nonpayable",
      "type": "function"
    },
    {
      "inputs": [],
      "name": "paused",
      "outputs": [
        {
          "internalType": "bool",
          "name": "",
          "type": "bool"
        }
      ],
      "stateMutability": "view",
      "type": "function"
    },
    {
      "inputs": [],
      "name": "pendingOwner",
      "outputs": [
        {
          "internalType": "address",
          "name": "",
          "type": "address"
        }
      ],
      "stateMutability": "view",
      "type": "function"
    },
    {
      "inputs": [
        {
          "internalType": "uint256",
          "name": "",
          "type": "uint256"
        }
      ],
      "name": "posts",
      "outputs": [
        {
          "internalType": "address",
          "name": "author",
          "type": "address"
        },
        {
          "internalType": "bytes32",
          "name": "contentHash",
          "type": "bytes32"
        },
        {
          "internalType": "bool",
          "name": "deleted",
          "type": "bool"
        }
      ],
      "stateMutability": "view",
      "type": "function"
    },
    {
      "inputs": [
        {
          "internalType": "address",
          "name": "",
          "type": "address"
        }
      ],
      "name": "profiles",
      "outputs": [
        {
          "internalType": "string",
          "name": "handle",
          "type": "string"
        },
        {
          "internalType": "string",
          "name": "name",
          "type": "string"
        },
        {
          "internalType": "string",
          "name": "avatar",
          "type": "string"
        },
        {
          "internalType": "bool",
          "name": "exists",
          "type": "bool"
        }
      ],
      "stateMutability": "view",
      "type": "function"
    },
    {
      "inputs": [
        {
          "internalType": "string",
          "name": "handle",
          "type": "string"
        },
        {
          "internalType": "string",
          "name": "name",
          "type": "string"
        },
        {
          "internalType": "string",
          "name": "avatar",
          "type": "string"
        }
      ],
      "name": "register",
      "outputs": [],
      "stateMutability": "nonpayable",
      "type": "function"
    },
    {
      "inputs": [],
      "name": "renounceOwnership",
      "outputs": [],
      "stateMutability": "nonpayable",
      "type": "function"
    },
    {
      "inputs": [
        {
          "internalType": "uint256",
          "name": "id",
          "type": "uint256"
        }
      ],
      "name": "repost",
      "outputs": [],
      "stateMutability": "nonpayable",
      "type": "function"
    },
    {
      "inputs": [],
      "name": "totalPosts",
      "outputs": [
        {
          "internalType": "uint256",
          "name": "",
          "type": "uint256"
        }
      ],
      "stateMutability": "view",
      "type": "function"
    },
    {
      "inputs": [
        {
          "internalType": "address",
          "name": "newOwner",
          "type": "address"
        }
      ],
      "name": "transferOwnership",
      "outputs": [],
      "stateMutability": "nonpayable",
      "type": "function"
    },
    {
      "inputs": [
        {
          "internalType": "address",
          "name": "target",
          "type": "address"
        }
      ],
      "name": "unfollow",
      "outputs": [],
      "stateMutability": "nonpayable",
      "type": "function"
    },
    {
      "inputs": [
        {
          "internalType": "uint256",
          "name": "id",
          "type": "uint256"
        }
      ],
      "name": "unlikePost",
      "outputs": [],
      "stateMutability": "nonpayable",
      "type": "function"
    },
    {
      "inputs": [],
      "name": "unpause",
      "outputs": [],
      "stateMutability": "nonpayable",
      "type": "function"
    }
  ],
  "bytecode": "0x60803460c157601f6112b938819003918201601f19168301916001600160401b0383118484101760c55780849260209460405283398101031260c157516001600160a01b0381169081900360c157801560ae57600180546001600160a01b03199081169091555f80549182168317815560405192916001600160a01b0316907f8be0079c531659141344cd1fd0a4f28419497f9722a3daafe3b4186f6b6457e09080a36111df90816100da8239f35b631e4fbdf760e01b5f525f60045260245ffd5b5f80fd5b634e487b7160e01b5f52604160045260245ffdfe60806040526004361015610011575f80fd5b5f3560e01c8063015a4ead14610f1857806302c4278714610ecf578063094cd5ee14610ddd5780630b1e7f8314610d865780630ea37c6414610d435780632d98682e14610d14578063392e695614610bf05780633f4ba83a14610b825780634cd08d03146106525780634dbf27cc146105945780635c975abb1461056f5780636d15af2c14610501578063715018a61461049e578063725009d31461043757806379ba5097146103b25780638456cb59146103515780638da5cb5b1461032a5780638e53fb411461030d578063bbe156271461026f578063ce9ae00114610218578063e30c3978146101f0578063f2fde38b1461017e5763fa188de914610116575f80fd5b3461017a57602036600319011261017a57600435610132611178565b5f8181526005602090815260408083203380855292528220805460ff1916905591907fcaadb8eaa8eea76230cccab7fb207c387f40489b1ce59b8dc6e51a5e584e3f589080a3005b5f80fd5b3461017a57602036600319011261017a57610197610f8d565b61019f611196565b60018060a01b0316806bffffffffffffffffffffffff60a01b600154161760015560018060a01b035f54167f38d16b8cac22d99fc7c124b9cd0de2d3fa1faef420bfe791d8c362d765e227005f80a3005b3461017a575f36600319011261017a576001546040516001600160a01b039091168152602090f35b3461017a57604036600319011261017a57610231610f8d565b610239610fa3565b9060018060a01b03165f52600460205260405f209060018060a01b03165f52602052602060ff60405f2054166040519015158152f35b3461017a57602036600319011261017a576001600160a01b03610290610f8d565b165f5260026020526102e560405f206102a88161106f565b906103016102b86001830161106f565b916102f360ff60036102cc6002850161106f565b930154169360405196879660808852608088019061110f565b90868203602088015261110f565b90848203604086015261110f565b90151560608301520390f35b3461017a575f36600319011261017a576020600654604051908152f35b3461017a575f36600319011261017a575f546040516001600160a01b039091168152602090f35b3461017a575f36600319011261017a57610369611196565b610371611178565b6001805460ff60a01b1916600160a01b1790556040513381527f62e78cea01bee320cd4e420270b5ea74000d11b0c9f74754ebdbfc544b05a25890602090a1005b3461017a575f36600319011261017a57600154336001600160a01b039091160361042457600180546001600160a01b03199081169091555f805433928116831782556001600160a01b0316907f8be0079c531659141344cd1fd0a4f28419497f9722a3daafe3b4186f6b6457e09080a3005b63118cdaa760e01b5f523360045260245ffd5b3461017a57602036600319011261017a57600435610453611178565b5f8181526005602090815260408083203380855292528220805460ff1916600117905591907f6790e8ded18c25977540ba89bbcefd83da7fbe624085856758cf343178c4d6129080a3005b3461017a575f36600319011261017a576104b6611196565b600180546001600160a01b03199081169091555f80549182168155906001600160a01b03167f8be0079c531659141344cd1fd0a4f28419497f9722a3daafe3b4186f6b6457e08280a3005b3461017a57606036600319011261017a576044356001600160401b03811161017a57610531903690600401610fe9565b505061053b611178565b604051602435815233907fd1928308d207af9966f9937dcf8f5eaca35e9431d56f3510c73fcdb36da4b292602060043592a3005b3461017a575f36600319011261017a57602060ff60015460a01c166040519015158152f35b3461017a57602036600319011261017a576105ad610f8d565b6105b5611178565b6001600160a01b031633811461060d57335f52600460205260405f20815f5260205260405f20600160ff19825416179055337f6178e95c138f06036cdc07a49ed6a3d23008969fa143baeceb037ebae22e8d145f80a3005b60405162461bcd60e51b815260206004820152601a60248201527f536f6369616c3a2063616e6e6f7420666f6c6c6f772073656c660000000000006044820152606490fd5b3461017a57606036600319011261017a576004356001600160401b03811161017a57610682903690600401610fe9565b6024356001600160401b03811161017a576106a1903690600401610fe9565b92906044356001600160401b03811161017a576106c2903690600401610fe9565b94906106cc611178565b6106d7368686611133565b60208151910120805f52600360205260ff60405f205416610b46575f52600360205260405f20600160ff198254161790556040519260808401908482106001600160401b038311176109b6576107519361074292604052610739368989611133565b86523691611133565b95602084019687523691611133565b9360408201948552606082019060018252335f52600260205260405f2092518051906001600160401b0382116109b657819061078d8654611016565b601f8111610af6575b50602090601f8311600114610a93575f92610a88575b50508160011b915f199060031b1c19161783555b51805160018401916001600160401b0382116109b65781906107e28454611016565b601f8111610a38575b50602090601f83116001146109d5575f926109ca575b50508160011b915f199060031b1c19161790555b6002820194519485516001600160401b0381116109b6576108368254611016565b601f8111610971575b506020601f82116001146108e65791816108ab9594926003947fbafddecbd1dec1c1afb76d693f1de16901f521bdf29a02438e3e6806c0b8d948999a5f926108db575b50508160011b915f1990861b1c19161790555b51151591019060ff801983541691151516179055565b82604051916020835281602084015260408301375f604084830101526040813394601f80199101168101030190a2005b015190508a80610882565b601f19821697835f52815f20985f5b8181106109595750927fbafddecbd1dec1c1afb76d693f1de16901f521bdf29a02438e3e6806c0b8d948989960039593600193836108ab9a999710610942575b505050811b019055610895565b01515f1983881b60f8161c191690558a8080610935565b838301518b556001909a0199602093840193016108f5565b825f5260205f20601f830160051c810191602084106109ac575b601f0160051c01905b8181106109a1575061083f565b5f8155600101610994565b909150819061098b565b634e487b7160e01b5f52604160045260245ffd5b015190508880610801565b5f8581528281209350601f198516905b818110610a205750908460019594939210610a08575b505050811b019055610815565b01515f1960f88460031b161c191690558880806109fb565b929360206001819287860151815501950193016109e5565b909150835f5260205f20601f840160051c81019160208510610a7e575b90601f859493920160051c01905b818110610a7057506107eb565b5f8155849350600101610a63565b9091508190610a55565b0151905088806107ac565b5f8781528281209350601f198516905b818110610ade5750908460019594939210610ac6575b505050811b0183556107c0565b01515f1960f88460031b161c19169055888080610ab9565b92936020600181928786015181550195019301610aa3565b909150855f5260205f20601f840160051c81019160208510610b3c575b90601f859493920160051c01905b818110610b2e5750610796565b5f8155849350600101610b21565b9091508190610b13565b60405162461bcd60e51b815260206004820152601460248201527329b7b1b4b0b61d103430b7323632903a30b5b2b760611b6044820152606490fd5b3461017a575f36600319011261017a57610b9a611196565b60015460ff8160a01c1615610be15760ff60a01b19166001556040513381527f5db9ee0a495bf2e6ff9c91a7834c1ba4fdd244a5e8aa4e537bd38aeae4b073aa90602090a1005b638dfc202b60e01b5f5260045ffd5b3461017a57608036600319011261017a576004356064356001600160401b03811161017a57610c23903690600401610fe9565b5050610c2d611178565b60065460405191606083018381106001600160401b038211176109b6576040523383526020830181815260408401935f8552680100000000000000008410156109b65760018401600655610c8084610fb9565b919091610d0157602095610ccd9360029260018060a01b039051166bffffffffffffffffffffffff60a01b85541617845551600184015551151591019060ff801983541691151516179055565b604051908152817ff0a91de6351524f56aafc0673160334bc21d381ebe88e6c274834cf8f2c08dbc843393a3604051908152f35b634e487b7160e01b5f525f60045260245ffd5b3461017a57602036600319011261017a576004355f526003602052602060ff60405f2054166040519015158152f35b3461017a57602036600319011261017a57610d5c611178565b336004357fd7186af0d8e5934feac49df70274fd24fd2a7703ea53425ff036b3e21aeb14205f80a3005b3461017a57602036600319011261017a5760043560065481101561017a57610daf606091610fb9565b5060018060a01b038154169060ff600260018301549201541690604051928352602083015215156040820152f35b3461017a57602036600319011261017a57600435610df9611178565b600654811015610e9757610e0c81610fb9565b50546001600160a01b03163303610e5d576002610e2882610fb9565b5001805460ff1916600117905533907f1da4a15b15417b54b8b3bea2ca87cfc4c94f0fee7d86702d0dab9e2906e7a7d35f80a3005b60405162461bcd60e51b815260206004820152601260248201527129b7b1b4b0b61d103737ba1030baba3437b960711b6044820152606490fd5b60405162461bcd60e51b815260206004820152601060248201526f14dbd8da585b0e88189859081c1bdcdd60821b6044820152606490fd5b3461017a57604036600319011261017a57610ee8610fa3565b6004355f52600560205260405f209060018060a01b03165f52602052602060ff60405f2054166040519015158152f35b3461017a57602036600319011261017a57610f31610f8d565b610f39611178565b335f8181526004602090815260408083206001600160a01b0395909516808452949091528120805460ff191690557f25b48012798806863072289354ed0b3849b73152482d9c6694e5cbb35f38d5e39080a3005b600435906001600160a01b038216820361017a57565b602435906001600160a01b038216820361017a57565b600654811015610fd55760065f52600360205f20910201905f90565b634e487b7160e01b5f52603260045260245ffd5b9181601f8401121561017a578235916001600160401b03831161017a576020838186019501011161017a57565b90600182811c92168015611044575b602083101461103057565b634e487b7160e01b5f52602260045260245ffd5b91607f1691611025565b90601f801991011681019081106001600160401b038211176109b657604052565b9060405191825f82549261108284611016565b80845293600181169081156110ed57506001146110a9575b506110a79250038361104e565b565b90505f9291925260205f20905f915b8183106110d15750509060206110a7928201015f61109a565b60209193508060019154838589010152019101909184926110b8565b9050602092506110a794915060ff191682840152151560051b8201015f61109a565b805180835260209291819084018484015e5f828201840152601f01601f1916010190565b9291926001600160401b0382116109b6576040519161115c601f8201601f19166020018461104e565b82948184528183011161017a578281602093845f960137010152565b60ff60015460a01c1661118757565b63d93c066560e01b5f5260045ffd5b5f546001600160a01b031633036104245756fea264697066735822122037f3f59d4d3c27e8793813c7c60bac9664f2e5d1788f23a975a47c0fbbe0eb0d64736f6c634300081a0033",
  "linkReferences": {},
  "deployedLinkReferences": {}
}