{
  "_format": "hh-sol-artifact-1",
  "contractName": "WikiBonus",
  "sourceName": "src/WikiBonus.sol",
  "abi": [
    {
      "inputs": [
        {
          "internalType": "address",
          "name": "",
          "type": "address"
        },
        {
          "internalType": "address",
          "name": "_treasury",
          "type": "address"
        },
        {
          "internalType": "address",
          "name": "_owner",
          "type": "address"
        }
      ],
      "stateMutability": "nonpayable",
      "type": "constructor"
    },
    {
      "inputs": [
        {
          "internalType": "address",
          "name": "owner",
          "type": "address"
        }
      ],
      "name": "OwnableInvalidOwner",
      "type": "error"
    },
    {
      "inputs": [
        {
          "internalType": "address",
          "name": "account",
          "type": "address"
        }
      ],
      "name": "OwnableUnauthorizedAccount",
      "type": "error"
    },
    {
      "anonymous": false,
      "inputs": [
        {
          "indexed": true,
          "internalType": "address",
          "name": "user",
          "type": "address"
        },
        {
          "indexed": false,
          "internalType": "uint256",
          "name": "amount",
          "type": "uint256"
        }
      ],
      "name": "BonusGranted",
      "type": "event"
    },
    {
      "anonymous": false,
      "inputs": [
        {
          "indexed": true,
          "internalType": "address",
          "name": "previousOwner",
          "type": "address"
        },
        {
          "indexed": true,
          "internalType": "address",
          "name": "newOwner",
          "type": "address"
        }
      ],
      "name": "OwnershipTransferStarted",
      "type": "event"
    },
    {
      "anonymous": false,
      "inputs": [
        {
          "indexed": true,
          "internalType": "address",
          "name": "previousOwner",
          "type": "address"
        },
        {
          "indexed": true,
          "internalType": "address",
          "name": "newOwner",
          "type": "address"
        }
      ],
      "name": "OwnershipTransferred",
      "type": "event"
    },
    {
      "anonymous": false,
      "inputs": [
        {
          "indexed": true,
          "internalType": "address",
          "name": "user",
          "type": "address"
        },
        {
          "indexed": false,
          "internalType": "bytes32",
          "name": "code",
          "type": "bytes32"
        }
      ],
      "name": "ReferralCodeCreated",
      "type": "event"
    },
    {
      "anonymous": false,
      "inputs": [
        {
          "indexed": true,
          "internalType": "address",
          "name": "user",
          "type": "address"
        },
        {
          "indexed": true,
          "internalType": "address",
          "name": "referrer",
          "type": "address"
        }
      ],
      "name": "ReferralRegistered",
      "type": "event"
    },
    {
      "inputs": [],
      "name": "acceptOwnership",
      "outputs": [],
      "stateMutability": "nonpayable",
      "type": "function"
    },
    {
      "inputs": [
        {
          "internalType": "address",
          "name": "user",
          "type": "address"
        },
        {
          "internalType": "string",
          "name": "",
          "type": "string"
        }
      ],
      "name": "blacklist",
      "outputs": [],
      "stateMutability": "nonpayable",
      "type": "function"
    },
    {
      "inputs": [
        {
          "internalType": "address",
          "name": "",
          "type": "address"
        }
      ],
      "name": "blacklisted",
      "outputs": [
        {
          "internalType": "bool",
          "name": "",
          "type": "bool"
        }
      ],
      "stateMutability": "view",
      "type": "function"
    },
    {
      "inputs": [
        {
          "internalType": "address",
          "name": "",
          "type": "address"
        }
      ],
      "name": "bonusBalance",
      "outputs": [
        {
          "internalType": "uint256",
          "name": "",
          "type": "uint256"
        }
      ],
      "stateMutability": "view",
      "type": "function"
    },
    {
      "inputs": [
        {
          "internalType": "bytes32",
          "name": "",
          "type": "bytes32"
        }
      ],
      "name": "codeOwner",
      "outputs": [
        {
          "internalType": "address",
          "name": "",
          "type": "address"
        }
      ],
      "stateMutability": "view",
      "type": "function"
    },
    {
      "inputs": [
        {
          "internalType": "address",
          "name": "user",
          "type": "address"
        }
      ],
      "name": "getBonusBalance",
      "outputs": [
        {
          "internalType": "uint256",
          "name": "",
          "type": "uint256"
        }
      ],
      "stateMutability": "view",
      "type": "function"
    },
    {
      "inputs": [
        {
          "internalType": "address",
          "name": "user",
          "type": "address"
        }
      ],
      "name": "getReferralCode",
      "outputs": [
        {
          "internalType": "bytes32",
          "name": "",
          "type": "bytes32"
        }
      ],
      "stateMutability": "view",
      "type": "function"
    },
    {
      "inputs": [
        {
          "internalType": "address",
          "name": "user",
          "type": "address"
        },
        {
          "internalType": "uint256",
          "name": "amount",
          "type": "uint256"
        }
      ],
      "name": "onFirstDeposit",
      "outputs": [],
      "stateMutability": "nonpayable",
      "type": "function"
    },
    {
      "inputs": [],
      "name": "owner",
      "outputs": [
        {
          "internalType": "address",
          "name": "",
          "type": "address"
        }
      ],
      "stateMutability": "view",
      "type": "function"
    },
    {
      "inputs": [],
      "name": "pendingOwner",
      "outputs": [
        {
          "internalType": "address",
          "name": "",
          "type": "address"
        }
      ],
      "stateMutability": "view",
      "type": "function"
    },
    {
      "inputs": [],
      "name": "perpContract",
      "outputs": [
        {
          "internalType": "address",
          "name": "",
          "type": "address"
        }
      ],
      "stateMutability": "view",
      "type": "function"
    },
    {
      "inputs": [
        {
          "internalType": "address",
          "name": "",
          "type": "address"
        }
      ],
      "name": "referrerOf",
      "outputs": [
        {
          "internalType": "address",
          "name": "",
          "type": "address"
        }
      ],
      "stateMutability": "view",
      "type": "function"
    },
    {
      "inputs": [
        {
          "internalType": "bytes32",
          "name": "refCode",
          "type": "bytes32"
        }
      ],
      "name": "register",
      "outputs": [],
      "stateMutability": "nonpayable",
      "type": "function"
    },
    {
      "inputs": [],
      "name": "renounceOwnership",
      "outputs": [],
      "stateMutability": "nonpayable",
      "type": "function"
    },
    {
      "inputs": [
        {
          "internalType": "address",
          "name": "p",
          "type": "address"
        }
      ],
      "name": "setPerpContract",
      "outputs": [],
      "stateMutability": "nonpayable",
      "type": "function"
    },
    {
      "inputs": [
        {
          "internalType": "address",
          "name": "v",
          "type": "address"
        }
      ],
      "name": "setVaultContract",
      "outputs": [],
      "stateMutability": "nonpayable",
      "type": "function"
    },
    {
      "inputs": [
        {
          "internalType": "address",
          "name": "newOwner",
          "type": "address"
        }
      ],
      "name": "transferOwnership",
      "outputs": [],
      "stateMutability": "nonpayable",
      "type": "function"
    },
    {
      "inputs": [],
      "name": "treasury",
      "outputs": [
        {
          "internalType": "address",
          "name": "",
          "type": "address"
        }
      ],
      "stateMutability": "view",
      "type": "function"
    },
    {
      "inputs": [
        {
          "internalType": "address",
          "name": "user",
          "type": "address"
        }
      ],
      "name": "unblacklist",
      "outputs": [],
      "stateMutability": "nonpayable",
      "type": "function"
    },
    {
      "inputs": [],
      "name": "vaultContract",
      "outputs": [
        {
          "internalType": "address",
          "name": "",
          "type": "address"
        }
      ],
      "stateMutability": "view",
      "type": "function"
    }
  ],
  "bytecode": "0x60803461010157601f61099938819003918201601f19168301916001600160401b03831184841017610105578084926060946040528339810103126101015761004781610119565b5061005460208201610119565b906001600160a01b039061006a90604001610119565b169081156100ee57600180546001600160a01b03199081169091555f80549182168417815560405193916001600160a01b0316907f8be0079c531659141344cd1fd0a4f28419497f9722a3daafe3b4186f6b6457e09080a3600280546001600160a01b0319166001600160a01b039290921691909117905561086b908161012e8239f35b631e4fbdf760e01b5f525f60045260245ffd5b5f80fd5b634e487b7160e01b5f52604160045260245ffd5b51906001600160a01b03821682036101015756fe6080806040526004361015610012575f80fd5b5f3560e01c90816311ad2f34146107de575080632274346b146107b6578063289fbdf3146106e757806338b2e8af1461045157806361d027b3146106bf5780636b9cbd7a14610697578063715018a61461063457806375e3661e146105f357806379ba50971461056e5780638da5cb5b1461054757806392c403441461050f57806396f4ada6146104cc578063a02d615114610489578063b298b77114610451578063d21cacdf14610411578063dbac26e9146103d4578063ddf579ff14610354578063e1fa8e8414610196578063e30c39781461016e5763f2fde38b146100f8575f80fd5b3461016a57602036600319011261016a5761011161080c565b610119610822565b60018060a01b0316806bffffffffffffffffffffffff60a01b600154161760015560018060a01b035f54167f38d16b8cac22d99fc7c124b9cd0de2d3fa1faef420bfe791d8c362d765e227005f80a3005b5f80fd5b3461016a575f36600319011261016a576001546040516001600160a01b039091168152602090f35b3461016a57602036600319011261016a57600435335f52600960205260ff60405f20541661031a57335f52600560205260405f20541561026a575b8015158061024b575b6101e057005b5f8181526006602081815260408084208054338087526007855292862080546001600160a01b0319166001600160a01b0392831617905595855292909152905490921691907f5f1ca2fcc108b751843a763e60d2201f593516109d7dbb1b700468f2d4190bb79080a3005b505f818152600660205260409020546001600160a01b031615156101da565b604051602081013360601b815242603483015260348252606082019180831067ffffffffffffffff8411176103065782604052519020335f5260056020528060405f2055805f52600660205260405f2060018060a01b0333166bffffffffffffffffffffffff60a01b82541617905581527f84d410093008674eba76b70ab072a4f33a5858f8aebca4c89a70447eccf6ffda60203392a26101d1565b634e487b7160e01b5f52604160045260245ffd5b60405162461bcd60e51b8152602060048201526012602482015271109bdb9d5cce88189b1858dadb1a5cdd195960721b6044820152606490fd5b3461016a57604036600319011261016a5761036d61080c565b60243567ffffffffffffffff811161016a573660238201121561016a57806004013567ffffffffffffffff811161016a573691016024011161016a576103b1610822565b6001600160a01b03165f908152600960205260409020805460ff19166001179055005b3461016a57602036600319011261016a576001600160a01b036103f561080c565b165f526009602052602060ff60405f2054166040519015158152f35b3461016a57602036600319011261016a576001600160a01b0361043261080c565b165f526007602052602060018060a01b0360405f205416604051908152f35b3461016a57602036600319011261016a576001600160a01b0361047261080c565b165f526008602052602060405f2054604051908152f35b3461016a57602036600319011261016a576104a261080c565b6104aa610822565b600380546001600160a01b0319166001600160a01b0392909216919091179055005b3461016a57602036600319011261016a576104e561080c565b6104ed610822565b600480546001600160a01b0319166001600160a01b0392909216919091179055005b3461016a57602036600319011261016a576001600160a01b0361053061080c565b165f526005602052602060405f2054604051908152f35b3461016a575f36600319011261016a575f546040516001600160a01b039091168152602090f35b3461016a575f36600319011261016a57600154336001600160a01b03909116036105e057600180546001600160a01b03199081169091555f805433928116831782556001600160a01b0316907f8be0079c531659141344cd1fd0a4f28419497f9722a3daafe3b4186f6b6457e09080a3005b63118cdaa760e01b5f523360045260245ffd5b3461016a57602036600319011261016a5761060c61080c565b610614610822565b6001600160a01b03165f908152600960205260409020805460ff19169055005b3461016a575f36600319011261016a5761064c610822565b600180546001600160a01b03199081169091555f80549182168155906001600160a01b03167f8be0079c531659141344cd1fd0a4f28419497f9722a3daafe3b4186f6b6457e08280a3005b3461016a575f36600319011261016a576003546040516001600160a01b039091168152602090f35b3461016a575f36600319011261016a576002546040516001600160a01b039091168152602090f35b3461016a57604036600319011261016a5761070061080c565b6004546001600160a01b0316330361077e576001600160a01b03165f8181526008602052604090208054600a602435048181019291831061076a577f67a2781197e80ae155d833dce436679b9851f3fa7f2d6abd4fdd32b73ff3d5209260209255604051908152a2005b634e487b7160e01b5f52601160045260245ffd5b60405162461bcd60e51b815260206004820152601060248201526f109bdb9d5cce881b9bdd081d985d5b1d60821b6044820152606490fd5b3461016a575f36600319011261016a576004546040516001600160a01b039091168152602090f35b3461016a57602036600319011261016a576020906004355f526006825260018060a01b0360405f2054168152f35b600435906001600160a01b038216820361016a57565b5f546001600160a01b031633036105e05756fea2646970667358221220f255c64db8d06309453730687a7dde8694714965d5b9aba78935651a4ca4e07f64736f6c634300081a0033",
  "linkReferences": {},
  "deployedLinkReferences": {}
}