{
  "_format": "hh-sol-artifact-1",
  "contractName": "WikiTrailingStop",
  "sourceName": "src/WikiTrailingStop.sol",
  "abi": [
    {
      "inputs": [
        {
          "internalType": "address",
          "name": "_owner",
          "type": "address"
        },
        {
          "internalType": "address",
          "name": "_oracle",
          "type": "address"
        },
        {
          "internalType": "address",
          "name": "_perp",
          "type": "address"
        },
        {
          "internalType": "address",
          "name": "_orderBook",
          "type": "address"
        }
      ],
      "stateMutability": "nonpayable",
      "type": "constructor"
    },
    {
      "inputs": [
        {
          "internalType": "address",
          "name": "owner",
          "type": "address"
        }
      ],
      "name": "OwnableInvalidOwner",
      "type": "error"
    },
    {
      "inputs": [
        {
          "internalType": "address",
          "name": "account",
          "type": "address"
        }
      ],
      "name": "OwnableUnauthorizedAccount",
      "type": "error"
    },
    {
      "inputs": [],
      "name": "ReentrancyGuardReentrantCall",
      "type": "error"
    },
    {
      "anonymous": false,
      "inputs": [
        {
          "indexed": true,
          "internalType": "uint256",
          "name": "pairId",
          "type": "uint256"
        },
        {
          "indexed": false,
          "internalType": "uint256",
          "name": "tpId",
          "type": "uint256"
        },
        {
          "indexed": false,
          "internalType": "uint256",
          "name": "slId",
          "type": "uint256"
        }
      ],
      "name": "OCOPlaced",
      "type": "event"
    },
    {
      "anonymous": false,
      "inputs": [
        {
          "indexed": true,
          "internalType": "uint256",
          "name": "pairId",
          "type": "uint256"
        },
        {
          "indexed": false,
          "internalType": "uint256",
          "name": "triggeredId",
          "type": "uint256"
        },
        {
          "indexed": false,
          "internalType": "uint256",
          "name": "cancelledId",
          "type": "uint256"
        }
      ],
      "name": "OCOTriggered",
      "type": "event"
    },
    {
      "anonymous": false,
      "inputs": [
        {
          "indexed": true,
          "internalType": "address",
          "name": "previousOwner",
          "type": "address"
        },
        {
          "indexed": true,
          "internalType": "address",
          "name": "newOwner",
          "type": "address"
        }
      ],
      "name": "OwnershipTransferStarted",
      "type": "event"
    },
    {
      "anonymous": false,
      "inputs": [
        {
          "indexed": true,
          "internalType": "address",
          "name": "previousOwner",
          "type": "address"
        },
        {
          "indexed": true,
          "internalType": "address",
          "name": "newOwner",
          "type": "address"
        }
      ],
      "name": "OwnershipTransferred",
      "type": "event"
    },
    {
      "anonymous": false,
      "inputs": [
        {
          "indexed": true,
          "internalType": "uint256",
          "name": "id",
          "type": "uint256"
        },
        {
          "indexed": true,
          "internalType": "address",
          "name": "trader",
          "type": "address"
        }
      ],
      "name": "TrailingStopCancelled",
      "type": "event"
    },
    {
      "anonymous": false,
      "inputs": [
        {
          "indexed": true,
          "internalType": "uint256",
          "name": "id",
          "type": "uint256"
        },
        {
          "indexed": true,
          "internalType": "address",
          "name": "trader",
          "type": "address"
        },
        {
          "indexed": false,
          "internalType": "uint256",
          "name": "marketId",
          "type": "uint256"
        },
        {
          "indexed": false,
          "internalType": "bool",
          "name": "isLong",
          "type": "bool"
        },
        {
          "indexed": false,
          "internalType": "uint256",
          "name": "trailBps",
          "type": "uint256"
        },
        {
          "indexed": false,
          "internalType": "uint256",
          "name": "initialStop",
          "type": "uint256"
        }
      ],
      "name": "TrailingStopPlaced",
      "type": "event"
    },
    {
      "anonymous": false,
      "inputs": [
        {
          "indexed": true,
          "internalType": "uint256",
          "name": "id",
          "type": "uint256"
        },
        {
          "indexed": true,
          "internalType": "address",
          "name": "trader",
          "type": "address"
        },
        {
          "indexed": false,
          "internalType": "uint256",
          "name": "triggerPrice",
          "type": "uint256"
        },
        {
          "indexed": false,
          "internalType": "uint256",
          "name": "sizeClose",
          "type": "uint256"
        }
      ],
      "name": "TrailingStopTriggered",
      "type": "event"
    },
    {
      "anonymous": false,
      "inputs": [
        {
          "indexed": true,
          "internalType": "uint256",
          "name": "id",
          "type": "uint256"
        },
        {
          "indexed": false,
          "internalType": "uint256",
          "name": "newPeak",
          "type": "uint256"
        },
        {
          "indexed": false,
          "internalType": "uint256",
          "name": "newStop",
          "type": "uint256"
        }
      ],
      "name": "TrailingStopUpdated",
      "type": "event"
    },
    {
      "inputs": [],
      "name": "BPS",
      "outputs": [
        {
          "internalType": "uint256",
          "name": "",
          "type": "uint256"
        }
      ],
      "stateMutability": "view",
      "type": "function"
    },
    {
      "inputs": [],
      "name": "MAX_TRAIL_BPS",
      "outputs": [
        {
          "internalType": "uint256",
          "name": "",
          "type": "uint256"
        }
      ],
      "stateMutability": "view",
      "type": "function"
    },
    {
      "inputs": [],
      "name": "MIN_TRAIL_BPS",
      "outputs": [
        {
          "internalType": "uint256",
          "name": "",
          "type": "uint256"
        }
      ],
      "stateMutability": "view",
      "type": "function"
    },
    {
      "inputs": [],
      "name": "acceptOwnership",
      "outputs": [],
      "stateMutability": "nonpayable",
      "type": "function"
    },
    {
      "inputs": [
        {
          "internalType": "uint256",
          "name": "stopId",
          "type": "uint256"
        }
      ],
      "name": "cancelStop",
      "outputs": [],
      "stateMutability": "nonpayable",
      "type": "function"
    },
    {
      "inputs": [
        {
          "internalType": "uint256",
          "name": "stopId",
          "type": "uint256"
        }
      ],
      "name": "distanceToTrigger",
      "outputs": [
        {
          "internalType": "uint256",
          "name": "distanceBps",
          "type": "uint256"
        },
        {
          "internalType": "bool",
          "name": "willTriggerUp",
          "type": "bool"
        }
      ],
      "stateMutability": "view",
      "type": "function"
    },
    {
      "inputs": [
        {
          "internalType": "address",
          "name": "trader",
          "type": "address"
        }
      ],
      "name": "getActiveStops",
      "outputs": [
        {
          "internalType": "uint256[]",
          "name": "active",
          "type": "uint256[]"
        }
      ],
      "stateMutability": "view",
      "type": "function"
    },
    {
      "inputs": [
        {
          "internalType": "address",
          "name": "",
          "type": "address"
        }
      ],
      "name": "keepers",
      "outputs": [
        {
          "internalType": "bool",
          "name": "",
          "type": "bool"
        }
      ],
      "stateMutability": "view",
      "type": "function"
    },
    {
      "inputs": [
        {
          "internalType": "uint256",
          "name": "",
          "type": "uint256"
        }
      ],
      "name": "ocoPairs",
      "outputs": [
        {
          "internalType": "uint256",
          "name": "tpOrderId",
          "type": "uint256"
        },
        {
          "internalType": "uint256",
          "name": "slOrderId",
          "type": "uint256"
        },
        {
          "internalType": "bool",
          "name": "active",
          "type": "bool"
        }
      ],
      "stateMutability": "view",
      "type": "function"
    },
    {
      "inputs": [],
      "name": "oracle",
      "outputs": [
        {
          "internalType": "contract IWikiOracle",
          "name": "",
          "type": "address"
        }
      ],
      "stateMutability": "view",
      "type": "function"
    },
    {
      "inputs": [],
      "name": "orderBook",
      "outputs": [
        {
          "internalType": "contract IWikiOrderBook",
          "name": "",
          "type": "address"
        }
      ],
      "stateMutability": "view",
      "type": "function"
    },
    {
      "inputs": [],
      "name": "owner",
      "outputs": [
        {
          "internalType": "address",
          "name": "",
          "type": "address"
        }
      ],
      "stateMutability": "view",
      "type": "function"
    },
    {
      "inputs": [],
      "name": "pendingOwner",
      "outputs": [
        {
          "internalType": "address",
          "name": "",
          "type": "address"
        }
      ],
      "stateMutability": "view",
      "type": "function"
    },
    {
      "inputs": [],
      "name": "perp",
      "outputs": [
        {
          "internalType": "contract IWikiPerp",
          "name": "",
          "type": "address"
        }
      ],
      "stateMutability": "view",
      "type": "function"
    },
    {
      "inputs": [
        {
          "internalType": "uint256",
          "name": "marketId",
          "type": "uint256"
        },
        {
          "internalType": "bool",
          "name": "isLong",
          "type": "bool"
        },
        {
          "internalType": "uint256",
          "name": "positionSize",
          "type": "uint256"
        },
        {
          "internalType": "uint256",
          "name": "tpPrice",
          "type": "uint256"
        },
        {
          "internalType": "uint256",
          "name": "slTrailBps",
          "type": "uint256"
        },
        {
          "internalType": "uint256",
          "name": "expiresIn",
          "type": "uint256"
        }
      ],
      "name": "placeOCO",
      "outputs": [
        {
          "internalType": "uint256",
          "name": "pairId",
          "type": "uint256"
        },
        {
          "internalType": "uint256",
          "name": "tpId",
          "type": "uint256"
        },
        {
          "internalType": "uint256",
          "name": "slId",
          "type": "uint256"
        }
      ],
      "stateMutability": "nonpayable",
      "type": "function"
    },
    {
      "inputs": [
        {
          "internalType": "uint256",
          "name": "marketId",
          "type": "uint256"
        },
        {
          "internalType": "bool",
          "name": "isLong",
          "type": "bool"
        },
        {
          "internalType": "uint256",
          "name": "positionSize",
          "type": "uint256"
        },
        {
          "internalType": "uint256",
          "name": "trailBps",
          "type": "uint256"
        },
        {
          "internalType": "uint256",
          "name": "expiresIn",
          "type": "uint256"
        }
      ],
      "name": "placeTrailingStop",
      "outputs": [
        {
          "internalType": "uint256",
          "name": "stopId",
          "type": "uint256"
        }
      ],
      "stateMutability": "nonpayable",
      "type": "function"
    },
    {
      "inputs": [],
      "name": "renounceOwnership",
      "outputs": [],
      "stateMutability": "nonpayable",
      "type": "function"
    },
    {
      "inputs": [
        {
          "internalType": "address",
          "name": "_oracle",
          "type": "address"
        },
        {
          "internalType": "address",
          "name": "_perp",
          "type": "address"
        },
        {
          "internalType": "address",
          "name": "_ob",
          "type": "address"
        }
      ],
      "name": "setContracts",
      "outputs": [],
      "stateMutability": "nonpayable",
      "type": "function"
    },
    {
      "inputs": [
        {
          "internalType": "address",
          "name": "k",
          "type": "address"
        },
        {
          "internalType": "bool",
          "name": "e",
          "type": "bool"
        }
      ],
      "name": "setKeeper",
      "outputs": [],
      "stateMutability": "nonpayable",
      "type": "function"
    },
    {
      "inputs": [
        {
          "internalType": "uint256",
          "name": "",
          "type": "uint256"
        }
      ],
      "name": "stops",
      "outputs": [
        {
          "internalType": "uint256",
          "name": "id",
          "type": "uint256"
        },
        {
          "internalType": "address",
          "name": "trader",
          "type": "address"
        },
        {
          "internalType": "uint256",
          "name": "marketId",
          "type": "uint256"
        },
        {
          "internalType": "bool",
          "name": "isLong",
          "type": "bool"
        },
        {
          "internalType": "uint256",
          "name": "positionSize",
          "type": "uint256"
        },
        {
          "internalType": "uint256",
          "name": "trailBps",
          "type": "uint256"
        },
        {
          "internalType": "uint256",
          "name": "peakPrice",
          "type": "uint256"
        },
        {
          "internalType": "uint256",
          "name": "currentStopPrice",
          "type": "uint256"
        },
        {
          "internalType": "uint256",
          "name": "createdAt",
          "type": "uint256"
        },
        {
          "internalType": "uint256",
          "name": "expiresAt",
          "type": "uint256"
        },
        {
          "internalType": "enum WikiTrailingStop.OrderStatus",
          "name": "status",
          "type": "uint8"
        },
        {
          "internalType": "uint256",
          "name": "ocoLinkedId",
          "type": "uint256"
        }
      ],
      "stateMutability": "view",
      "type": "function"
    },
    {
      "inputs": [],
      "name": "totalCancelled",
      "outputs": [
        {
          "internalType": "uint256",
          "name": "",
          "type": "uint256"
        }
      ],
      "stateMutability": "view",
      "type": "function"
    },
    {
      "inputs": [],
      "name": "totalTriggered",
      "outputs": [
        {
          "internalType": "uint256",
          "name": "",
          "type": "uint256"
        }
      ],
      "stateMutability": "view",
      "type": "function"
    },
    {
      "inputs": [
        {
          "internalType": "address",
          "name": "",
          "type": "address"
        },
        {
          "internalType": "uint256",
          "name": "",
          "type": "uint256"
        }
      ],
      "name": "traderStops",
      "outputs": [
        {
          "internalType": "uint256",
          "name": "",
          "type": "uint256"
        }
      ],
      "stateMutability": "view",
      "type": "function"
    },
    {
      "inputs": [
        {
          "internalType": "uint256",
          "name": "",
          "type": "uint256"
        }
      ],
      "name": "trailOffsetBps",
      "outputs": [
        {
          "internalType": "uint256",
          "name": "",
          "type": "uint256"
        }
      ],
      "stateMutability": "view",
      "type": "function"
    },
    {
      "inputs": [
        {
          "internalType": "uint256",
          "name": "",
          "type": "uint256"
        }
      ],
      "name": "trailPeak",
      "outputs": [
        {
          "internalType": "uint256",
          "name": "",
          "type": "uint256"
        }
      ],
      "stateMutability": "view",
      "type": "function"
    },
    {
      "inputs": [
        {
          "internalType": "address",
          "name": "newOwner",
          "type": "address"
        }
      ],
      "name": "transferOwnership",
      "outputs": [],
      "stateMutability": "nonpayable",
      "type": "function"
    },
    {
      "inputs": [
        {
          "internalType": "uint256",
          "name": "marketId",
          "type": "uint256"
        },
        {
          "internalType": "uint256[]",
          "name": "stopIds",
          "type": "uint256[]"
        }
      ],
      "name": "updateMarket",
      "outputs": [],
      "stateMutability": "nonpayable",
      "type": "function"
    },
    {
      "inputs": [
        {
          "internalType": "uint256[]",
          "name": "orderIds",
          "type": "uint256[]"
        },
        {
          "internalType": "uint256[]",
          "name": "newPrices",
          "type": "uint256[]"
        }
      ],
      "name": "updateTrailingStops",
      "outputs": [],
      "stateMutability": "nonpayable",
      "type": "function"
    }
  ],
  "bytecode": "0x60803461015457601f611dac38819003918201601f19168301916001600160401b0383118484101761015857808492608094604052833981010312610154576100478161016c565b6100536020830161016c565b9161006c60606100656040840161016c565b920161016c565b6001600160a01b0390921692831561014157600180546001600160a01b03199081169091555f80549182168617815560405195916001600160a01b0316907f8be0079c531659141344cd1fd0a4f28419497f9722a3daafe3b4186f6b6457e09080a360017f9b779b17422d0df92223018b32b4d1fa46e071723d6817e2486d003becc55f00819055600555600280546001600160a01b03199081166001600160a01b039384161790915560038054821693831693909317909255600480549092169216919091179055611c2b90816101818239f35b631e4fbdf760e01b5f525f60045260245ffd5b5f80fd5b634e487b7160e01b5f52604160045260245ffd5b51906001600160a01b03821682036101545756fe60806040526004361015610011575f80fd5b5f3560e01c80630c6c08cb1461159c5780631e37bafe14611556578063249d39e91461153a5780632a5ff0021461151d5780632e646888146112385780633bbd64bc146111fb5780633db4b4d1146111e057806349c156cd146111c4578063715018a614611161578063776af5ba146111395780637940d8e514610c5557806379ba509714610bd05780637dc0d1d014610ba85780638da3c3541461098a5780638da5cb5b14610963578063b3066d49146108b0578063b847c7aa1461070c578063bfa4c00c146106e4578063cab767cb146104fe578063cee4a075146104d4578063d1b9e85314610481578063e09a51b214610429578063e30c397814610401578063e6bdb07c146102d6578063f07e301a14610205578063f2fde38b14610198578063fa17ada01461016e5763fe72cd251461014d575f80fd5b3461016a575f36600319011261016a576020600a54604051908152f35b5f80fd5b3461016a57602036600319011261016a576004355f52600d602052602060405f2054604051908152f35b3461016a57602036600319011261016a576101b1611993565b6101b9611bc2565b60018060a01b0316806001600160601b0360a01b600154161760015560018060a01b035f54167f38d16b8cac22d99fc7c124b9cd0de2d3fa1faef420bfe791d8c362d765e227005f80a3005b3461016a57602036600319011261016a576004355f52600660205260405f20805460018060a01b03600183015416600283015460ff6003850154166004850154600586015460068701549060078801549260088901549460098a015496600b60ff600a8d0154169b0154986040519a8b5260208b015260408a015215156060890152608088015260a087015260c086015260e085015261010084015261012083015260048310156102c25761018092610140830152610160820152f35b634e487b7160e01b5f52602160045260245ffd5b3461016a57602036600319011261016a576004356102f2611b8a565b805f52600660205260405f2060018060a01b03600182015416331480156103eb575b156103b657600a0160ff81541660048110156102c25761038057600260ff19825416179055610344600b54611a8c565b600b5533907f286b95ff4032a65fa89108044edfcd07bcb9ffe8f9945e1b4f97c2aa0cd264245f80a360015f80516020611bd683398151915255005b60405162461bcd60e51b815260206004820152600e60248201526d54533a206e6f742061637469766560901b6044820152606490fd5b60405162461bcd60e51b815260206004820152600d60248201526c2a299d103737ba1037bbb732b960991b6044820152606490fd5b50335f52600960205260ff60405f205416610314565b3461016a575f36600319011261016a576001546040516001600160a01b039091168152602090f35b3461016a57604036600319011261016a57610442611993565b6001600160a01b03165f9081526007602052604090208054602435919082101561016a57602091610472916119a9565b90549060031b1c604051908152f35b3461016a57604036600319011261016a576104d261049d611993565b6104a5611984565b906104ae611bc2565b60018060a01b03165f52600960205260405f209060ff801983541691151516179055565b005b3461016a57602036600319011261016a576004355f52600c602052602060405f2054604051908152f35b3461016a57602036600319011261016a576004355f52600660205260405f206040519061052a82611a0f565b8054825260018060a01b0360018201541660208301526002810154916040810192835260ff6003830154169060608101911515825260048301546080820152600583015460a0820152600683015460c082015260078301549260e082019384526008810154610100830152600981015461012083015260ff600a8201541660048110156102c25761016091600b916101408501520154910152604060018060a01b036002541693516024825180968193630e75722360e41b835260048301525afa9283156106d9575f936106a7575b505115610662575180821115610658576106139082611b11565b61271081029080820461271014901517156106445760409161063491611af3565b5f5b825191825215156020820152f35b634e487b7160e01b5f52601160045260245ffd5b505060405f610634565b518181111561069d578161067591611b11565b61271081029080820461271014901517156106445760409161069691611af3565b6001610636565b505060405f610696565b6106ca91935060403d6040116106d2575b6106c28183611a2c565b810190611a4e565b5091836105f9565b503d6106b8565b6040513d5f823e3d90fd5b3461016a575f36600319011261016a576003546040516001600160a01b039091168152602090f35b3461016a57602036600319011261016a576001600160a01b0361072d611993565b165f52600760205260405f20604051808260208294549384815201905f5260205f20925f5b81811061089757505061076792500382611a2c565b5f905f5b81518110156107bc5761077e8183611b1e565b515f52600660205260ff600a60405f2001541660048110156102c257156107a8575b60010161076b565b916107b4600191611a8c565b9290506107a0565b50906107e06107ca82611b32565b916107d86040519384611a2c565b808352611b32565b602082019190601f19013683375f805b8451811015610853576108038186611b1e565b515f52600660205260ff600a60405f200154169060048210156102c2576001911561082f575b016107f0565b6108398187611b1e565b5161084d61084685611a8c565b9486611b1e565b52610829565b8383604051918291602083019060208452518091526040830191905f5b81811061087e575050500390f35b8251845285945060209384019390920191600101610870565b8454835260019485019486945060209093019201610752565b3461016a57606036600319011261016a576108c9611993565b6024356001600160a01b0381169081900361016a576044356001600160a01b038116929083900361016a576108fc611bc2565b6001600160a01b03168061094a575b5080610931575b508061091a57005b6001600160601b0360a01b60045416176004555f80f35b6001600160601b0360a01b600354161760035581610912565b6001600160601b0360a01b60025416176002558261090b565b3461016a575f36600319011261016a575f546040516001600160a01b039091168152602090f35b3461016a57604036600319011261016a5760043567ffffffffffffffff811161016a576109bb903690600401611953565b9060243567ffffffffffffffff811161016a576109dc903690600401611953565b9092335f52600960205260ff60405f2054168015610b95575b6109fe906119d2565b818103610b5a575f5b818110610a1057005b610a1b818386611a64565b3590815f52600d60205260405f2054825f52600660205260ff600360405f20015416808091610b46575b15610ab4575050610a57818588611a64565b35825f52600d60205260405f2055815f52600c60205260405f205491610a7e828689611a64565b359261271003612710811161064457610a9c61271091600195611ae0565b04905f526006602052600760405f2001555b01610a07565b159081610b31575b50610acb575b60019150610aae565b610ad6818588611a64565b35825f52600d60205260405f2055815f52600c60205260405f205491610afd828689611a64565b359261271001806127101161064457610b1b61271091600195611ae0565b04905f526006602052600760405f200155610ac2565b9050610b3e828689611a64565b351087610abc565b5081610b5384888b611a64565b3511610a45565b60405162461bcd60e51b81526020600482015260136024820152720a8a67440d8cadccee8d040dad2e6dac2e8c6d606b1b6044820152606490fd5b505f546001600160a01b031633146109f5565b3461016a575f36600319011261016a576002546040516001600160a01b039091168152602090f35b3461016a575f36600319011261016a57600154336001600160a01b0390911603610c4257600180546001600160a01b03199081169091555f805433928116831782556001600160a01b0316907f8be0079c531659141344cd1fd0a4f28419497f9722a3daafe3b4186f6b6457e09080a3005b63118cdaa760e01b5f523360045260245ffd5b3461016a5760c036600319011261016a57610c6e611984565b602460a435608435610c7e611b8a565b60025460408051630e75722360e41b8152600480359082015294909185919082906001600160a01b03165afa9283156106d9575f93611117575b5083156110bb5782606435111561106a575b610cd5848285611b4a565b60055493610ce285611a8c565b600555831561106357610cf58442611a9a565b925b60405192610d0484611a0f565b868452610db4602085019533875260408601600435815260608701918b151583526080880194604435865260a0890196875260c0890197885260e0890152426101008901526101208801525f6101408801525f610160880152895f52600660205260405f20978751895560018060a01b03905116600189019060018060a01b03166001600160601b0360a01b825416179055516002880155511515600387019060ff801983541691151516179055565b51600485015551600584015551600683015560e081015160078301556101008101516008830155610120810151600983015561014081015160048110156102c257600b91610e0861016092600a8601611a74565b0151910155335f526007602052610e228260405f20611aa7565b815f600554948593610e3385611a8c565b600555801515831461105b57610e499042611a9a565b905b604051948591610e5a83611a0f565b818352602083019033825260408401906004358252606085019015158152610f166080860191604435835260a087019389855260c0880195606435875260e089019760643589526101606101008b019a428c5261012081019c8d5261014081019d8e52019c8d525f52600660205260405f209c518d5560018060a01b0390511660018d019060018060a01b03166001600160601b0360a01b8254161790555160028c015551151560038b019060ff801983541691151516179055565b516004890155516005880155516006870155516007860155516008850155516009840155519060048210156102c257610f54600b92600a8501611a74565b51910155335f526007602052610f6d8260405f20611aa7565b805f52600660205281600b60405f20015560055490610f8b82611a8c565b600555604051926060840184811067ffffffffffffffff82111761104757606094610ff491604052828152600260208201858152604083019060018252875f52600860205260405f209351845551600184015551151591019060ff801983541691151516179055565b827f2e97ad0c3370bc65c272080fe8f21604ec763a157a094d2464aa5f25abe378ca60408051848152856020820152a260015f80516020611bd68339815191525560405192835260208301526040820152f35b634e487b7160e01b5f52604160045260245ffd5b508190610e4b565b5f92610cf7565b60405162461bcd60e51b8152602060048201526024808201527f54533a205450206d7573742062652061626f7665206d61726b657420666f72206044820152636c6f6e6760e01b6064820152608490fd5b8260643510610cca5760405162461bcd60e51b815260206004820152602560248201527f54533a205450206d7573742062652062656c6f77206d61726b657420666f72206044820152641cda1bdc9d60da1b6064820152608490fd5b61113191935060403d6040116106d2576106c28183611a2c565b509184610cb8565b3461016a575f36600319011261016a576004546040516001600160a01b039091168152602090f35b3461016a575f36600319011261016a57611179611bc2565b600180546001600160a01b03199081169091555f80549182168155906001600160a01b03167f8be0079c531659141344cd1fd0a4f28419497f9722a3daafe3b4186f6b6457e08280a3005b3461016a575f36600319011261016a5760206040516113888152f35b3461016a575f36600319011261016a57602060405160328152f35b3461016a57602036600319011261016a576001600160a01b0361121c611993565b165f526009602052602060ff60405f2054166040519015158152f35b3461016a5760a036600319011261016a57611251611984565b6044359060843590611261611b8a565b603260643510158061150f575b156114d65782156114a15760025460408051630e75722360e41b8152600480359082015291829060249082906001600160a01b03165afa9081156106d9575f91611481575b506112c18260643583611b4a565b90600554936112cf85611a8c565b6005558015611479576112e29042611a9a565b905b604051956112f187611a0f565b85875233602088015260043560408801528415156060880152608087015260643560a087015260c08601528160e0860152426101008601526101208501525f6101408501525f610160850152825f52600660205260405f208451815560018060a01b03602086015116600182019060018060a01b03166001600160601b0360a01b825416179055604085015160028201556113a160608601511515600383019060ff801983541691151516179055565b6080850151600482015560a0850151600582015560c0850151600682015560e08501516007820155610100850151600882015561012085015160098201556101408501519460048610156102c257610160600b91611404602098600a8601611a74565b0151910155335f526007845261141d8360405f20611aa7565b60405191600435835215158483015260643560408301526060820152817f18264a4c199519b795dd69fb8f0a151315b42f2d6fca971092845c249e798ff860803393a360015f80516020611bd683398151915255604051908152f35b505f906112e4565b61149a915060403d6040116106d2576106c28183611a2c565b50846112b3565b60405162461bcd60e51b815260206004820152600d60248201526c54533a207a65726f2073697a6560981b6044820152606490fd5b60405162461bcd60e51b815260206004820152601160248201527054533a20747261696c20302e352d35302560781b6044820152606490fd5b50611388606435111561126e565b3461016a575f36600319011261016a576020600b54604051908152f35b3461016a575f36600319011261016a5760206040516127108152f35b3461016a57602036600319011261016a576004355f526008602052606060405f2080549060ff600260018301549201541690604051928352602083015215156040820152f35b3461016a57604036600319011261016a5760243560043567ffffffffffffffff821161016a576115d26024923690600401611953565b919091335f52600960205260ff60405f2054168015611940575b6115f5906119d2565b60025460408051630e75722360e41b81526004810185905295909186919082906001600160a01b03165afa9384156106d9575f9461191e575b505f5b81811061163a57005b611645818386611a64565b355f52600660205260405f2090600a820160ff81541660048110156102c2576119145760028301908582540361190957600984015480151590816118ff575b506118ea5760058401548061186e575b50600384015460ff16156118615760078401548811155b6116bd575b5050600191505b01611631565b600160ff198254161790556116d3600a54611a8c565b600a55600b83018054908115158061183e575b6117dc575b505060018060a01b03600354166001840190602060018060a01b038354169354608460048801955f87549560405196879586946322d96f8160e21b86526004860152602485015260448401528160648401525af161178b575b507f308450f27ed4bb6ca5a755df0391358379ae6b48fc56a96508797ee3cfe3e55860406001955492868060a01b0390541693548151908b82526020820152a386806116b0565b936020853d82116117d4575b816117a460209383611a2c565b8101031261016a5793507f308450f27ed4bb6ca5a755df0391358379ae6b48fc56a96508797ee3cfe3e558611744565b3d9150611797565b60407fc527924b3ab097df7e46f6c7891f2af9f6c1019f8256945d8709bddfe043c74b915f9384526006602052600a82852001600260ff19825416179055611825600b54611a8c565b600b558654905482519182526020820152a287806116eb565b50815f52600660205260ff600a60405f2001541660048110156102c257156116e6565b60078401548810156116ab565b600385015460ff1680156118de5760068601548a115b61188f575b50611694565b61189f918a60068801558a611b4a565b8060078601557f97128b0fad88d9c99eb2837e7bd28189a99a231e707a56c2db71d0f519f2168e60408654928151908c82526020820152a28880611889565b60068601548a10611884565b805460ff1916600317905550600191506116b7565b9050421189611684565b5050600191506116b7565b50600191506116b7565b61193891945060403d6040116106d2576106c28183611a2c565b50928461162e565b505f546001600160a01b031633146115ec565b9181601f8401121561016a5782359167ffffffffffffffff831161016a576020808501948460051b01011161016a57565b60243590811515820361016a57565b600435906001600160a01b038216820361016a57565b80548210156119be575f5260205f2001905f90565b634e487b7160e01b5f52603260045260245ffd5b156119d957565b60405162461bcd60e51b815260206004820152600e60248201526d2a299d103737ba1035b2b2b832b960911b6044820152606490fd5b610180810190811067ffffffffffffffff82111761104757604052565b90601f8019910116810190811067ffffffffffffffff82111761104757604052565b919082604091031261016a576020825192015190565b91908110156119be5760051b0190565b9060048110156102c25760ff80198354169116179055565b5f1981146106445760010190565b9190820180921161064457565b80546801000000000000000081101561104757611ac9916001820181556119a9565b819291549060031b91821b915f19901b1916179055565b8181029291811591840414171561064457565b8115611afd570490565b634e487b7160e01b5f52601260045260245ffd5b9190820391821161064457565b80518210156119be5760209160051b010190565b67ffffffffffffffff81116110475760051b60200190565b9115611b6f57612710039061271082116106445761271091611b6b91611ae0565b0490565b612710019081612710116106445761271091611b6b91611ae0565b60025f80516020611bd68339815191525414611bb35760025f80516020611bd683398151915255565b633ee5aeb560e01b5f5260045ffd5b5f546001600160a01b03163303610c425756fe9b779b17422d0df92223018b32b4d1fa46e071723d6817e2486d003becc55f00a2646970667358221220b42a4127c124ad31ba1cb13a5740f393bd70d2ed79aa1a72e47fe0460d8b917b64736f6c634300081a0033",
  "linkReferences": {},
  "deployedLinkReferences": {}
}