{
  "_format": "hh-sol-artifact-1",
  "contractName": "WikiRWAMarket",
  "sourceName": "src/WikiRWAMarket.sol",
  "abi": [
    {
      "inputs": [
        {
          "internalType": "address",
          "name": "_usdc",
          "type": "address"
        },
        {
          "internalType": "address",
          "name": "_owner",
          "type": "address"
        }
      ],
      "stateMutability": "nonpayable",
      "type": "constructor"
    },
    {
      "inputs": [],
      "name": "EnforcedPause",
      "type": "error"
    },
    {
      "inputs": [],
      "name": "ExpectedPause",
      "type": "error"
    },
    {
      "inputs": [
        {
          "internalType": "address",
          "name": "owner",
          "type": "address"
        }
      ],
      "name": "OwnableInvalidOwner",
      "type": "error"
    },
    {
      "inputs": [
        {
          "internalType": "address",
          "name": "account",
          "type": "address"
        }
      ],
      "name": "OwnableUnauthorizedAccount",
      "type": "error"
    },
    {
      "inputs": [],
      "name": "ReentrancyGuardReentrantCall",
      "type": "error"
    },
    {
      "inputs": [
        {
          "internalType": "address",
          "name": "token",
          "type": "address"
        }
      ],
      "name": "SafeERC20FailedOperation",
      "type": "error"
    },
    {
      "anonymous": false,
      "inputs": [
        {
          "indexed": true,
          "internalType": "uint256",
          "name": "poolId",
          "type": "uint256"
        },
        {
          "indexed": true,
          "internalType": "address",
          "name": "user",
          "type": "address"
        },
        {
          "indexed": false,
          "internalType": "uint256",
          "name": "usdc",
          "type": "uint256"
        },
        {
          "indexed": false,
          "internalType": "uint256",
          "name": "shares",
          "type": "uint256"
        }
      ],
      "name": "Deposited",
      "type": "event"
    },
    {
      "anonymous": false,
      "inputs": [
        {
          "indexed": false,
          "internalType": "uint256",
          "name": "amount",
          "type": "uint256"
        },
        {
          "indexed": false,
          "internalType": "address",
          "name": "to",
          "type": "address"
        }
      ],
      "name": "FeesWithdrawn",
      "type": "event"
    },
    {
      "anonymous": false,
      "inputs": [
        {
          "indexed": true,
          "internalType": "address",
          "name": "previousOwner",
          "type": "address"
        },
        {
          "indexed": true,
          "internalType": "address",
          "name": "newOwner",
          "type": "address"
        }
      ],
      "name": "OwnershipTransferStarted",
      "type": "event"
    },
    {
      "anonymous": false,
      "inputs": [
        {
          "indexed": true,
          "internalType": "address",
          "name": "previousOwner",
          "type": "address"
        },
        {
          "indexed": true,
          "internalType": "address",
          "name": "newOwner",
          "type": "address"
        }
      ],
      "name": "OwnershipTransferred",
      "type": "event"
    },
    {
      "anonymous": false,
      "inputs": [
        {
          "indexed": false,
          "internalType": "address",
          "name": "account",
          "type": "address"
        }
      ],
      "name": "Paused",
      "type": "event"
    },
    {
      "anonymous": false,
      "inputs": [
        {
          "indexed": true,
          "internalType": "uint256",
          "name": "id",
          "type": "uint256"
        },
        {
          "indexed": false,
          "internalType": "string",
          "name": "name",
          "type": "string"
        },
        {
          "indexed": false,
          "internalType": "address",
          "name": "rwaToken",
          "type": "address"
        }
      ],
      "name": "PoolCreated",
      "type": "event"
    },
    {
      "anonymous": false,
      "inputs": [
        {
          "indexed": true,
          "internalType": "uint256",
          "name": "poolId",
          "type": "uint256"
        },
        {
          "indexed": true,
          "internalType": "address",
          "name": "user",
          "type": "address"
        },
        {
          "indexed": false,
          "internalType": "uint256",
          "name": "shares",
          "type": "uint256"
        },
        {
          "indexed": false,
          "internalType": "uint256",
          "name": "usdc",
          "type": "uint256"
        }
      ],
      "name": "Redeemed",
      "type": "event"
    },
    {
      "anonymous": false,
      "inputs": [
        {
          "indexed": false,
          "internalType": "address",
          "name": "account",
          "type": "address"
        }
      ],
      "name": "Unpaused",
      "type": "event"
    },
    {
      "anonymous": false,
      "inputs": [
        {
          "indexed": true,
          "internalType": "uint256",
          "name": "poolId",
          "type": "uint256"
        },
        {
          "indexed": false,
          "internalType": "uint256",
          "name": "gross",
          "type": "uint256"
        },
        {
          "indexed": false,
          "internalType": "uint256",
          "name": "toDepositors",
          "type": "uint256"
        },
        {
          "indexed": false,
          "internalType": "uint256",
          "name": "toProtocol",
          "type": "uint256"
        }
      ],
      "name": "YieldHarvested",
      "type": "event"
    },
    {
      "inputs": [],
      "name": "BPS",
      "outputs": [
        {
          "internalType": "uint256",
          "name": "",
          "type": "uint256"
        }
      ],
      "stateMutability": "view",
      "type": "function"
    },
    {
      "inputs": [],
      "name": "DEPOSITOR_APY_BPS",
      "outputs": [
        {
          "internalType": "uint256",
          "name": "",
          "type": "uint256"
        }
      ],
      "stateMutability": "view",
      "type": "function"
    },
    {
      "inputs": [],
      "name": "MGMT_FEE_BPS",
      "outputs": [
        {
          "internalType": "uint256",
          "name": "",
          "type": "uint256"
        }
      ],
      "stateMutability": "view",
      "type": "function"
    },
    {
      "inputs": [],
      "name": "MIN_DEPOSIT",
      "outputs": [
        {
          "internalType": "uint256",
          "name": "",
          "type": "uint256"
        }
      ],
      "stateMutability": "view",
      "type": "function"
    },
    {
      "inputs": [],
      "name": "MIN_HARVEST_GAP",
      "outputs": [
        {
          "internalType": "uint256",
          "name": "",
          "type": "uint256"
        }
      ],
      "stateMutability": "view",
      "type": "function"
    },
    {
      "inputs": [],
      "name": "PRECISION",
      "outputs": [
        {
          "internalType": "uint256",
          "name": "",
          "type": "uint256"
        }
      ],
      "stateMutability": "view",
      "type": "function"
    },
    {
      "inputs": [],
      "name": "SPREAD_BPS",
      "outputs": [
        {
          "internalType": "uint256",
          "name": "",
          "type": "uint256"
        }
      ],
      "stateMutability": "view",
      "type": "function"
    },
    {
      "inputs": [],
      "name": "USDC",
      "outputs": [
        {
          "internalType": "contract IERC20",
          "name": "",
          "type": "address"
        }
      ],
      "stateMutability": "view",
      "type": "function"
    },
    {
      "inputs": [],
      "name": "acceptOwnership",
      "outputs": [],
      "stateMutability": "nonpayable",
      "type": "function"
    },
    {
      "inputs": [
        {
          "internalType": "string",
          "name": "name",
          "type": "string"
        },
        {
          "internalType": "string",
          "name": "symbol",
          "type": "string"
        },
        {
          "internalType": "address",
          "name": "rwaToken",
          "type": "address"
        }
      ],
      "name": "createPool",
      "outputs": [
        {
          "internalType": "uint256",
          "name": "id",
          "type": "uint256"
        }
      ],
      "stateMutability": "nonpayable",
      "type": "function"
    },
    {
      "inputs": [
        {
          "internalType": "uint256",
          "name": "poolId",
          "type": "uint256"
        },
        {
          "internalType": "uint256",
          "name": "usdcAmount",
          "type": "uint256"
        }
      ],
      "name": "deposit",
      "outputs": [
        {
          "internalType": "uint256",
          "name": "shares",
          "type": "uint256"
        }
      ],
      "stateMutability": "nonpayable",
      "type": "function"
    },
    {
      "inputs": [
        {
          "internalType": "uint256",
          "name": "id",
          "type": "uint256"
        }
      ],
      "name": "getPool",
      "outputs": [
        {
          "components": [
            {
              "internalType": "string",
              "name": "name",
              "type": "string"
            },
            {
              "internalType": "string",
              "name": "symbol",
              "type": "string"
            },
            {
              "internalType": "address",
              "name": "rwaToken",
              "type": "address"
            },
            {
              "internalType": "uint256",
              "name": "totalDeposited",
              "type": "uint256"
            },
            {
              "internalType": "uint256",
              "name": "totalShares",
              "type": "uint256"
            },
            {
              "internalType": "uint256",
              "name": "highWaterMark",
              "type": "uint256"
            },
            {
              "internalType": "uint256",
              "name": "lastHarvest",
              "type": "uint256"
            },
            {
              "internalType": "uint256",
              "name": "accruedYield",
              "type": "uint256"
            },
            {
              "internalType": "uint256",
              "name": "protocolFees",
              "type": "uint256"
            },
            {
              "internalType": "uint256",
              "name": "totalFees",
              "type": "uint256"
            },
            {
              "internalType": "bool",
              "name": "active",
              "type": "bool"
            }
          ],
          "internalType": "struct WikiRWAMarket.RWAPool",
          "name": "",
          "type": "tuple"
        }
      ],
      "stateMutability": "view",
      "type": "function"
    },
    {
      "inputs": [
        {
          "internalType": "uint256",
          "name": "poolId",
          "type": "uint256"
        },
        {
          "internalType": "uint256",
          "name": "grossYield",
          "type": "uint256"
        }
      ],
      "name": "harvest",
      "outputs": [],
      "stateMutability": "nonpayable",
      "type": "function"
    },
    {
      "inputs": [
        {
          "internalType": "address",
          "name": "",
          "type": "address"
        }
      ],
      "name": "harvesters",
      "outputs": [
        {
          "internalType": "bool",
          "name": "",
          "type": "bool"
        }
      ],
      "stateMutability": "view",
      "type": "function"
    },
    {
      "inputs": [],
      "name": "owner",
      "outputs": [
        {
          "internalType": "address",
          "name": "",
          "type": "address"
        }
      ],
      "stateMutability": "view",
      "type": "function"
    },
    {
      "inputs": [],
      "name": "pause",
      "outputs": [],
      "stateMutability": "nonpayable",
      "type": "function"
    },
    {
      "inputs": [],
      "name": "paused",
      "outputs": [
        {
          "internalType": "bool",
          "name": "",
          "type": "bool"
        }
      ],
      "stateMutability": "view",
      "type": "function"
    },
    {
      "inputs": [],
      "name": "pendingOwner",
      "outputs": [
        {
          "internalType": "address",
          "name": "",
          "type": "address"
        }
      ],
      "stateMutability": "view",
      "type": "function"
    },
    {
      "inputs": [],
      "name": "poolCount",
      "outputs": [
        {
          "internalType": "uint256",
          "name": "",
          "type": "uint256"
        }
      ],
      "stateMutability": "view",
      "type": "function"
    },
    {
      "inputs": [
        {
          "internalType": "uint256",
          "name": "",
          "type": "uint256"
        }
      ],
      "name": "pools",
      "outputs": [
        {
          "internalType": "string",
          "name": "name",
          "type": "string"
        },
        {
          "internalType": "string",
          "name": "symbol",
          "type": "string"
        },
        {
          "internalType": "address",
          "name": "rwaToken",
          "type": "address"
        },
        {
          "internalType": "uint256",
          "name": "totalDeposited",
          "type": "uint256"
        },
        {
          "internalType": "uint256",
          "name": "totalShares",
          "type": "uint256"
        },
        {
          "internalType": "uint256",
          "name": "highWaterMark",
          "type": "uint256"
        },
        {
          "internalType": "uint256",
          "name": "lastHarvest",
          "type": "uint256"
        },
        {
          "internalType": "uint256",
          "name": "accruedYield",
          "type": "uint256"
        },
        {
          "internalType": "uint256",
          "name": "protocolFees",
          "type": "uint256"
        },
        {
          "internalType": "uint256",
          "name": "totalFees",
          "type": "uint256"
        },
        {
          "internalType": "bool",
          "name": "active",
          "type": "bool"
        }
      ],
      "stateMutability": "view",
      "type": "function"
    },
    {
      "inputs": [
        {
          "internalType": "uint256",
          "name": "",
          "type": "uint256"
        }
      ],
      "name": "projectedAPY",
      "outputs": [
        {
          "internalType": "uint256",
          "name": "",
          "type": "uint256"
        }
      ],
      "stateMutability": "pure",
      "type": "function"
    },
    {
      "inputs": [
        {
          "internalType": "uint256",
          "name": "poolId",
          "type": "uint256"
        },
        {
          "internalType": "uint256",
          "name": "shares",
          "type": "uint256"
        }
      ],
      "name": "redeem",
      "outputs": [
        {
          "internalType": "uint256",
          "name": "usdcOut",
          "type": "uint256"
        }
      ],
      "stateMutability": "nonpayable",
      "type": "function"
    },
    {
      "inputs": [],
      "name": "renounceOwnership",
      "outputs": [],
      "stateMutability": "nonpayable",
      "type": "function"
    },
    {
      "inputs": [
        {
          "internalType": "address",
          "name": "h",
          "type": "address"
        },
        {
          "internalType": "bool",
          "name": "enabled",
          "type": "bool"
        }
      ],
      "name": "setHarvester",
      "outputs": [],
      "stateMutability": "nonpayable",
      "type": "function"
    },
    {
      "inputs": [
        {
          "internalType": "uint256",
          "name": "id",
          "type": "uint256"
        },
        {
          "internalType": "bool",
          "name": "active",
          "type": "bool"
        }
      ],
      "name": "setPoolActive",
      "outputs": [],
      "stateMutability": "nonpayable",
      "type": "function"
    },
    {
      "inputs": [
        {
          "internalType": "address",
          "name": "_tl",
          "type": "address"
        }
      ],
      "name": "setTimelock",
      "outputs": [],
      "stateMutability": "nonpayable",
      "type": "function"
    },
    {
      "inputs": [
        {
          "internalType": "uint256",
          "name": "poolId",
          "type": "uint256"
        }
      ],
      "name": "sharePrice",
      "outputs": [
        {
          "internalType": "uint256",
          "name": "",
          "type": "uint256"
        }
      ],
      "stateMutability": "view",
      "type": "function"
    },
    {
      "inputs": [],
      "name": "timelock",
      "outputs": [
        {
          "internalType": "address",
          "name": "",
          "type": "address"
        }
      ],
      "stateMutability": "view",
      "type": "function"
    },
    {
      "inputs": [],
      "name": "totalProtocolRevenue",
      "outputs": [
        {
          "internalType": "uint256",
          "name": "",
          "type": "uint256"
        }
      ],
      "stateMutability": "view",
      "type": "function"
    },
    {
      "inputs": [],
      "name": "totalTVL",
      "outputs": [
        {
          "internalType": "uint256",
          "name": "",
          "type": "uint256"
        }
      ],
      "stateMutability": "view",
      "type": "function"
    },
    {
      "inputs": [
        {
          "internalType": "address",
          "name": "newOwner",
          "type": "address"
        }
      ],
      "name": "transferOwnership",
      "outputs": [],
      "stateMutability": "nonpayable",
      "type": "function"
    },
    {
      "inputs": [],
      "name": "unpause",
      "outputs": [],
      "stateMutability": "nonpayable",
      "type": "function"
    },
    {
      "inputs": [
        {
          "internalType": "uint256",
          "name": "",
          "type": "uint256"
        },
        {
          "internalType": "address",
          "name": "",
          "type": "address"
        }
      ],
      "name": "userDeposits",
      "outputs": [
        {
          "internalType": "uint256",
          "name": "shares",
          "type": "uint256"
        },
        {
          "internalType": "uint256",
          "name": "depositTime",
          "type": "uint256"
        },
        {
          "internalType": "uint256",
          "name": "totalDeposited",
          "type": "uint256"
        }
      ],
      "stateMutability": "view",
      "type": "function"
    },
    {
      "inputs": [
        {
          "internalType": "uint256",
          "name": "poolId",
          "type": "uint256"
        },
        {
          "internalType": "address",
          "name": "user",
          "type": "address"
        }
      ],
      "name": "userValue",
      "outputs": [
        {
          "internalType": "uint256",
          "name": "",
          "type": "uint256"
        }
      ],
      "stateMutability": "view",
      "type": "function"
    },
    {
      "inputs": [
        {
          "internalType": "address",
          "name": "to",
          "type": "address"
        }
      ],
      "name": "withdrawFees",
      "outputs": [],
      "stateMutability": "nonpayable",
      "type": "function"
    }
  ],
  "bytecode": "0x60a03461012857601f611d1838819003918201601f19168301916001600160401b0383118484101761012c5780849260409485528339810103126101285761004681610140565b906001600160a01b039061005c90602001610140565b1690811561011557600180546001600160a01b03199081169091555f80549182168417815560405193916001600160a01b0316907f8be0079c531659141344cd1fd0a4f28419497f9722a3daafe3b4186f6b6457e09080a360017f9b779b17422d0df92223018b32b4d1fa46e071723d6817e2486d003becc55f00556001600160a01b0316608052611bc390816101558239608051818181610470015281816105fb01528181610a0501528181610baa01526114950152f35b631e4fbdf760e01b5f525f60045260245ffd5b5f80fd5b634e487b7160e01b5f52604160045260245ffd5b51906001600160a01b03821682036101285756fe6080806040526004361015610012575f80fd5b5f3560e01c908163068bcd8d146115305750806308bc172f14611514578063164e68de146113fa5780631d7d13cc14610f33578063249d39e914610f1757806331b7105714610ec65780633f4ba83a14610e5857806349ff7c0d14610e325780635c975abb14610e0d578063715018a614610daa5780637759414e14610a7157806379ba509714610d255780637cbc237314610ad75780638456cb5914610a7657806384868c1714610a715780638797658314610a3457806389a30271146109f05780638c37f11d146109d35780638c93b449146109ad5780638da5cb5b14610986578063a8bc6f7c14610969578063aaf5eb6814610947578063ac4afa381461086c578063b34da0a11461084f578063b3ad1e9014610832578063bdacb303146107b0578063d33219b414610788578063e1e158a51461076a578063e2bbb1581461059b578063e30c397814610573578063e4a4b7b1146102da578063ea17fa9314610294578063f2fde38b14610227578063f525cb681461020a5763f9c516ea1461019d575f80fd5b34610206576040366003190112610206576101b6611702565b6004355f52600460205260405f209060018060a01b03165f5260205260405f20805461020260026001840154930154604051938493846040919493926060820195825260208201520152565b0390f35b5f80fd5b34610206575f366003190112610206576020600354604051908152f35b34610206576020366003190112610206576102406116ec565b610248611a1a565b60018060a01b0316806001600160601b0360a01b600154161760015560018060a01b035f54167f38d16b8cac22d99fc7c124b9cd0de2d3fa1faef420bfe791d8c362d765e227005f80a3005b34610206576040366003190112610206576102d86102b0611746565b6102b8611a1a565b600a6102c5600435611786565b50019060ff801983541691151516179055565b005b34610206576102e836611770565b6102f0611a2d565b335f52600560205260ff60405f2054168015610560575b156105265761031582611786565b509060ff600a83015416156104f157600682019081546201518081018082116104a85742106104bc5761034890426119ba565b92600381019384546032810290808204603214901517156104a8576301e13380916127106103769204611920565b049060328302948315948487046032148617156104a8576103c0610452946127107f64cc470d924ef687ff28d709b7ef348c355fbe6f2b2e4157a21353815d9c47749904906118cd565b928584116104a0575b60099084871115610499576103de85886119ba565b975b15610468575b600781016103f58982546118cd565b9055600881016104068682546118cd565b9055016104148482546118cd565b9055429055610425826007546118cd565b6007556104338582546118cd565b9055604051938493846040919493926060820195825260208201520152565b0390a260015f80516020611b6e83398151915255005b6104948730337f0000000000000000000000000000000000000000000000000000000000000000611b04565b6103e6565b5f976103e0565b8593506103c9565b634e487b7160e01b5f52601160045260245ffd5b60405162461bcd60e51b815260206004820152600d60248201526c292ba09d103a37b79039b7b7b760991b6044820152606490fd5b60405162461bcd60e51b815260206004820152600d60248201526c5257413a20696e61637469766560981b6044820152606490fd5b60405162461bcd60e51b8152602060048201526012602482015271292ba09d103737ba103430b93b32b9ba32b960711b6044820152606490fd5b505f546001600160a01b03163314610307565b34610206575f366003190112610206576001546040516001600160a01b039091168152602090f35b34610206576105a936611770565b6105b1611a2d565b6105b9611ae6565b6105c282611786565b509060ff600a8301541615610730576305f5e10081106106f65760209260048301805480155f146106ce5750600383945b61061f8530337f0000000000000000000000000000000000000000000000000000000000000000611b04565b0161062b8482546118cd565b90556106388482546118cd565b9055610646826006546118cd565b6006555f8181526004855260408082203383528652902080546002919061066e9086906118cd565b8155426001820155016106828382546118cd565b905560405191825282848301527fad5b4075b97dbf75ad5c78f7afac948e4ae611c4fdf2825e2ce3c6c96925bf3b60403393a360015f80516020611b6e83398151915255604051908152f35b6106f06106dd60039286611920565b826106e786611786565b50015490611933565b946105f3565b60405162461bcd60e51b81526020600482015260126024820152715257413a2062656c6f77206d696e696d756d60701b6044820152606490fd5b60405162461bcd60e51b81526020600482015260126024820152715257413a20706f6f6c20696e61637469766560701b6044820152606490fd5b34610206575f3660031901126102065760206040516305f5e1008152f35b34610206575f366003190112610206576002546040516001600160a01b039091168152602090f35b34610206576020366003190112610206576107c96116ec565b6107d1611a1a565b6001600160a01b031680156107f7576001600160601b0360a01b60025416176002555f80f35b60405162461bcd60e51b815260206004820152601360248201527257696b693a207a65726f2074696d656c6f636b60681b6044820152606490fd5b34610206575f366003190112610206576020604051620151808152f35b346102065760203660031901126102065760206040516101908152f35b34610206576020366003190112610206576004356003548110156102065761089390611786565b506101606108a08261182d565b916108ad6001820161182d565b60018060a01b036002830154169160038101546004820154600583015460068401549060078501549260088601549461091060ff600a60098a015499015416986109026040519d8d8f9e8f90815201906116c8565b8c810360208e0152906116c8565b9860408b015260608a0152608089015260a088015260c087015260e086015261010085015261012084015215156101408301520390f35b34610206575f366003190112610206576020604051670de0b6b3a76400008152f35b34610206575f366003190112610206576020600654604051908152f35b34610206575f366003190112610206575f546040516001600160a01b039091168152602090f35b346102065760203660031901126102065760206109cb6004356119c7565b604051908152f35b34610206575f366003190112610206576020600754604051908152f35b34610206575f366003190112610206576040517f00000000000000000000000000000000000000000000000000000000000000006001600160a01b03168152602090f35b34610206576020366003190112610206576001600160a01b03610a556116ec565b165f526005602052602060ff60405f2054166040519015158152f35b611755565b34610206575f36600319011261020657610a8e611a1a565b610a96611ae6565b6001805460ff60a01b1916600160a01b1790556040513381527f62e78cea01bee320cd4e420270b5ea74000d11b0c9f74754ebdbfc544b05a25890602090a1005b3461020657610ae536611770565b610aed611a2d565b610af5611ae6565b610afe82611786565b505f838152600460209081526040808320338452909152902080549291828410610ce057600391610b3b83610b3288611786565b50015485611920565b90610b5685610b506004860194855490611933565b976119ba565b9055610b638482546119ba565b90550180548380821115610cd757610b7a916119ba565b905b556006548280821115610ccf57610b92916119ba565b6006556040516370a0823160e01b81523060048201527f000000000000000000000000000000000000000000000000000000000000000093906020816024816001600160a01b0389165afa8015610cc45784915f91610c8f575b5010610c4a57610c00836020953390611a65565b60405191825282848301527fa5851b0172fdafd3dafe0e52ce051747548a4c642a2f22793c01faf228e1306260403393a360015f80516020611b6e83398151915255604051908152f35b60405162461bcd60e51b815260206004820152601860248201527f5257413a206177616974696e6720726564656d7074696f6e00000000000000006044820152606490fd5b9150506020813d602011610cbc575b81610cab6020938361180b565b810103126102065783905186610bec565b3d9150610c9e565b6040513d5f823e3d90fd5b50505f610b92565b50505f90610b7c565b60405162461bcd60e51b815260206004820152601860248201527f5257413a20696e73756666696369656e742073686172657300000000000000006044820152606490fd5b34610206575f36600319011261020657600154336001600160a01b0390911603610d9757600180546001600160a01b03199081169091555f805433928116831782556001600160a01b0316907f8be0079c531659141344cd1fd0a4f28419497f9722a3daafe3b4186f6b6457e09080a3005b63118cdaa760e01b5f523360045260245ffd5b34610206575f36600319011261020657610dc2611a1a565b600180546001600160a01b03199081169091555f80549182168155906001600160a01b03167f8be0079c531659141344cd1fd0a4f28419497f9722a3daafe3b4186f6b6457e08280a3005b34610206575f36600319011261020657602060ff60015460a01c166040519015158152f35b346102065760403660031901126102065760206109cb610e50611702565b600435611951565b34610206575f36600319011261020657610e70611a1a565b60015460ff8160a01c1615610eb75760ff60a01b19166001556040513381527f5db9ee0a495bf2e6ff9c91a7834c1ba4fdd244a5e8aa4e537bd38aeae4b073aa90602090a1005b638dfc202b60e01b5f5260045ffd5b34610206576040366003190112610206576102d8610ee26116ec565b610eea611746565b90610ef3611a1a565b60018060a01b03165f52600560205260405f209060ff801983541691151516179055565b34610206575f3660031901126102065760206040516127108152f35b346102065760603660031901126102065760043567ffffffffffffffff811161020657610f64903690600401611718565b9060243567ffffffffffffffff811161020657610f85903690600401611718565b92604435926001600160a01b038416840361020657610fa2611a1a565b6001600160a01b038416156113c157610fd96003549360405196610fc5886117ee565b610fd03686866118da565b885236916118da565b6020860190815260018060a01b03851660408701525f60608701525f6080870152670de0b6b3a764000060a08701524260c08701525f60e08701525f6101008701525f6101208701526001610140870152680100000000000000008410156112dc576001840160035561104b84611786565b9190916113ae57865180519067ffffffffffffffff82116112dc57819061107285546117b6565b601f811161135e575b50602090601f83116001146112fb575f926112f0575b50508160011b915f199060031b1c19161782555b5195865167ffffffffffffffff81116112dc576110c560018401546117b6565b97601f8911611298575b602098508890601f83116001146111fc57606094600a610140899896867f7eb8d63c0f8c2fb1b61dd0947e2f9eb707c7d44ec5d65a0761976cbc070197a59b978d9e976111b4975f926111f1575b50508160011b915f199060031b1c19161760018501555b6002840160018060a01b036040830151166001600160601b0360a01b8254161790558881015160038501556080810151600485015560a0810151600585015560c0810151600685015560e08101516007850155610100810151600885015561012081015160098501550151151591019060ff801983541691151516179055565b60405194859360408552816040860152858501375f8383018501526001600160a01b031688830152601f01601f19168101030190a2604051908152f35b015190505f8061111d565b90600185015f52805f20915f5b601f1985168110611281575094600a6101408998966001878d9e976111b49760609c7f7eb8d63c0f8c2fb1b61dd0947e2f9eb707c7d44ec5d65a0761976cbc070197a59f9b601f19811610611269575b505050811b016001850155611134565b01515f1960f88460031b161c191690555f8080611259565b91928b600181928685015181550194019201611209565b600184015f5260205f20601f830160051c8101602084106112d5575b601f8b0160051c820181106112ca5750506110cf565b5f81556001016112b4565b50806112b4565b634e487b7160e01b5f52604160045260245ffd5b015190508980611091565b5f8681528281209350601f198516905b818110611346575090846001959493921061132e575b505050811b0182556110a5565b01515f1960f88460031b161c19169055898080611321565b9293602060018192878601518155019501930161130b565b909150845f5260205f20601f840160051c810191602085106113a4575b90601f859493920160051c01905b818110611396575061107b565b5f8155849350600101611389565b909150819061137b565b634e487b7160e01b5f525f60045260245ffd5b60405162461bcd60e51b81526020600482015260116024820152705257413a207a65726f206164647265737360781b6044820152606490fd5b34610206576020366003190112610206576114136116ec565b61141b611a1a565b611423611a2d565b5f90815b6003548310156114625761144b600191600861144286611786565b500154906118cd565b925f600861145883611786565b5001550191611427565b9081156114e05781816114b97f812bcf6853ebc81dc0a1d2323893eedad6cd086a4398311a699e0a7acdf187b3946040947f0000000000000000000000000000000000000000000000000000000000000000611a65565b82519182526001600160a01b03166020820152a160015f80516020611b6e83398151915255005b60405162461bcd60e51b815260206004820152600c60248201526b5257413a206e6f206665657360a01b6044820152606490fd5b34610206575f3660031901126102065760206040516101908152f35b34610206576020366003190112610206576101408161154f5f936117ee565b60608152606060208201528260408201528260608201528260808201528260a08201528260c08201528260e08201528261010082015282610120820152015261018061159c600435611786565b50604051906115aa826117ee565b6115b38161182d565b82526115c16001820161182d565b602083019081528260018060a01b036002840154169260408201938452600381015460608301908152600482015460808401908152600583015460a0850190815260068401549160c0860192835260078501549360e0870194855261167e60ff600a6008890154986101008b01998a5261012060098201549b019a8b52015416986101408c019915158a5261166b604051809e819e602083525191610160602082015201906116c8565b90518c8203601f190160408e01526116c8565b98516001600160a01b031660608b01525160808a01525160a08901525160c08801525160e08701525161010086015251610120850152516101408401525115156101608301520390f35b805180835260209291819084018484015e5f828201840152601f01601f1916010190565b600435906001600160a01b038216820361020657565b602435906001600160a01b038216820361020657565b9181601f840112156102065782359167ffffffffffffffff8311610206576020838186019501011161020657565b60243590811515820361020657565b34610206575f36600319011261020657602060405160328152f35b6040906003190112610206576004359060243590565b6003548110156117a25760035f52600b60205f20910201905f90565b634e487b7160e01b5f52603260045260245ffd5b90600182811c921680156117e4575b60208310146117d057565b634e487b7160e01b5f52602260045260245ffd5b91607f16916117c5565b610160810190811067ffffffffffffffff8211176112dc57604052565b90601f8019910116810190811067ffffffffffffffff8211176112dc57604052565b9060405191825f825492611840846117b6565b80845293600181169081156118ab5750600114611867575b506118659250038361180b565b565b90505f9291925260205f20905f915b81831061188f575050906020611865928201015f611858565b6020919350806001915483858901015201910190918492611876565b90506020925061186594915060ff191682840152151560051b8201015f611858565b919082018092116104a857565b92919267ffffffffffffffff82116112dc5760405191611904601f8201601f19166020018461180b565b829481845281830111610206578281602093845f960137010152565b818102929181159184041417156104a857565b811561193d570490565b634e487b7160e01b5f52601260045260245ffd5b90815f52600460205260405f209060018060a01b03165f5260205261197960405f2091611786565b5090600482015490811580156119b1575b6119aa576119a79260036119a2925491015490611920565b611933565b90565b5050505f90565b5080541561198a565b919082039182116104a857565b6119d090611786565b506004810154908115611a0c576003015490670de0b6b3a7640000820291808304670de0b6b3a764000014901517156104a8576119a791611933565b5050670de0b6b3a764000090565b5f546001600160a01b03163303610d9757565b60025f80516020611b6e8339815191525414611a565760025f80516020611b6e83398151915255565b633ee5aeb560e01b5f5260045ffd5b916040519163a9059cbb60e01b5f5260018060a01b031660045260245260205f60448180865af19060015f5114821615611ac5575b60405215611aa55750565b635274afe760e01b5f9081526001600160a01b0391909116600452602490fd5b906001811516611add57823b15153d15161690611a9a565b503d5f823e3d90fd5b60ff60015460a01c16611af557565b63d93c066560e01b5f5260045ffd5b6040516323b872dd60e01b5f9081526001600160a01b039384166004529290931660245260449390935260209060648180865af19060015f5114821615611b55575b6040525f60605215611aa55750565b906001811516611add57823b15153d15161690611b4656fe9b779b17422d0df92223018b32b4d1fa46e071723d6817e2486d003becc55f00a2646970667358221220ee935a6a1f6bbc20607979ca0b4ffa9ddb78f127efc2b03c93822bf42a06137164736f6c634300081a0033",
  "linkReferences": {},
  "deployedLinkReferences": {}
}