{
  "_format": "hh-sol-artifact-1",
  "contractName": "PrincipalToken",
  "sourceName": "src/WikiYieldSlice.sol",
  "abi": [
    {
      "inputs": [
        {
          "internalType": "string",
          "name": "name",
          "type": "string"
        },
        {
          "internalType": "string",
          "name": "symbol",
          "type": "string"
        },
        {
          "internalType": "uint256",
          "name": "_maturity",
          "type": "uint256"
        },
        {
          "internalType": "address",
          "name": "_slicer",
          "type": "address"
        }
      ],
      "stateMutability": "nonpayable",
      "type": "constructor"
    },
    {
      "inputs": [
        {
          "internalType": "address",
          "name": "spender",
          "type": "address"
        },
        {
          "internalType": "uint256",
          "name": "allowance",
          "type": "uint256"
        },
        {
          "internalType": "uint256",
          "name": "needed",
          "type": "uint256"
        }
      ],
      "name": "ERC20InsufficientAllowance",
      "type": "error"
    },
    {
      "inputs": [
        {
          "internalType": "address",
          "name": "sender",
          "type": "address"
        },
        {
          "internalType": "uint256",
          "name": "balance",
          "type": "uint256"
        },
        {
          "internalType": "uint256",
          "name": "needed",
          "type": "uint256"
        }
      ],
      "name": "ERC20InsufficientBalance",
      "type": "error"
    },
    {
      "inputs": [
        {
          "internalType": "address",
          "name": "approver",
          "type": "address"
        }
      ],
      "name": "ERC20InvalidApprover",
      "type": "error"
    },
    {
      "inputs": [
        {
          "internalType": "address",
          "name": "receiver",
          "type": "address"
        }
      ],
      "name": "ERC20InvalidReceiver",
      "type": "error"
    },
    {
      "inputs": [
        {
          "internalType": "address",
          "name": "sender",
          "type": "address"
        }
      ],
      "name": "ERC20InvalidSender",
      "type": "error"
    },
    {
      "inputs": [
        {
          "internalType": "address",
          "name": "spender",
          "type": "address"
        }
      ],
      "name": "ERC20InvalidSpender",
      "type": "error"
    },
    {
      "anonymous": false,
      "inputs": [
        {
          "indexed": true,
          "internalType": "address",
          "name": "owner",
          "type": "address"
        },
        {
          "indexed": true,
          "internalType": "address",
          "name": "spender",
          "type": "address"
        },
        {
          "indexed": false,
          "internalType": "uint256",
          "name": "value",
          "type": "uint256"
        }
      ],
      "name": "Approval",
      "type": "event"
    },
    {
      "anonymous": false,
      "inputs": [
        {
          "indexed": true,
          "internalType": "address",
          "name": "from",
          "type": "address"
        },
        {
          "indexed": true,
          "internalType": "address",
          "name": "to",
          "type": "address"
        },
        {
          "indexed": false,
          "internalType": "uint256",
          "name": "value",
          "type": "uint256"
        }
      ],
      "name": "Transfer",
      "type": "event"
    },
    {
      "inputs": [
        {
          "internalType": "address",
          "name": "owner",
          "type": "address"
        },
        {
          "internalType": "address",
          "name": "spender",
          "type": "address"
        }
      ],
      "name": "allowance",
      "outputs": [
        {
          "internalType": "uint256",
          "name": "",
          "type": "uint256"
        }
      ],
      "stateMutability": "view",
      "type": "function"
    },
    {
      "inputs": [
        {
          "internalType": "address",
          "name": "spender",
          "type": "address"
        },
        {
          "internalType": "uint256",
          "name": "value",
          "type": "uint256"
        }
      ],
      "name": "approve",
      "outputs": [
        {
          "internalType": "bool",
          "name": "",
          "type": "bool"
        }
      ],
      "stateMutability": "nonpayable",
      "type": "function"
    },
    {
      "inputs": [
        {
          "internalType": "address",
          "name": "account",
          "type": "address"
        }
      ],
      "name": "balanceOf",
      "outputs": [
        {
          "internalType": "uint256",
          "name": "",
          "type": "uint256"
        }
      ],
      "stateMutability": "view",
      "type": "function"
    },
    {
      "inputs": [
        {
          "internalType": "address",
          "name": "from",
          "type": "address"
        },
        {
          "internalType": "uint256",
          "name": "amount",
          "type": "uint256"
        }
      ],
      "name": "burn",
      "outputs": [],
      "stateMutability": "nonpayable",
      "type": "function"
    },
    {
      "inputs": [],
      "name": "decimals",
      "outputs": [
        {
          "internalType": "uint8",
          "name": "",
          "type": "uint8"
        }
      ],
      "stateMutability": "view",
      "type": "function"
    },
    {
      "inputs": [],
      "name": "maturity",
      "outputs": [
        {
          "internalType": "uint256",
          "name": "",
          "type": "uint256"
        }
      ],
      "stateMutability": "view",
      "type": "function"
    },
    {
      "inputs": [
        {
          "internalType": "address",
          "name": "to",
          "type": "address"
        },
        {
          "internalType": "uint256",
          "name": "amount",
          "type": "uint256"
        }
      ],
      "name": "mint",
      "outputs": [],
      "stateMutability": "nonpayable",
      "type": "function"
    },
    {
      "inputs": [],
      "name": "name",
      "outputs": [
        {
          "internalType": "string",
          "name": "",
          "type": "string"
        }
      ],
      "stateMutability": "view",
      "type": "function"
    },
    {
      "inputs": [
        {
          "internalType": "address",
          "name": "_tl",
          "type": "address"
        }
      ],
      "name": "setTimelock",
      "outputs": [],
      "stateMutability": "nonpayable",
      "type": "function"
    },
    {
      "inputs": [],
      "name": "slicer",
      "outputs": [
        {
          "internalType": "address",
          "name": "",
          "type": "address"
        }
      ],
      "stateMutability": "view",
      "type": "function"
    },
    {
      "inputs": [],
      "name": "symbol",
      "outputs": [
        {
          "internalType": "string",
          "name": "",
          "type": "string"
        }
      ],
      "stateMutability": "view",
      "type": "function"
    },
    {
      "inputs": [],
      "name": "timelock",
      "outputs": [
        {
          "internalType": "address",
          "name": "",
          "type": "address"
        }
      ],
      "stateMutability": "view",
      "type": "function"
    },
    {
      "inputs": [],
      "name": "totalSupply",
      "outputs": [
        {
          "internalType": "uint256",
          "name": "",
          "type": "uint256"
        }
      ],
      "stateMutability": "view",
      "type": "function"
    },
    {
      "inputs": [
        {
          "internalType": "address",
          "name": "to",
          "type": "address"
        },
        {
          "internalType": "uint256",
          "name": "value",
          "type": "uint256"
        }
      ],
      "name": "transfer",
      "outputs": [
        {
          "internalType": "bool",
          "name": "",
          "type": "bool"
        }
      ],
      "stateMutability": "nonpayable",
      "type": "function"
    },
    {
      "inputs": [
        {
          "internalType": "address",
          "name": "from",
          "type": "address"
        },
        {
          "internalType": "address",
          "name": "to",
          "type": "address"
        },
        {
          "internalType": "uint256",
          "name": "value",
          "type": "uint256"
        }
      ],
      "name": "transferFrom",
      "outputs": [
        {
          "internalType": "bool",
          "name": "",
          "type": "bool"
        }
      ],
      "stateMutability": "nonpayable",
      "type": "function"
    }
  ],
  "bytecode": "0x60c06040523461036257610d848038038061001981610366565b9283398101906080818303126103625780516001600160401b038111610362578261004591830161038b565b602082015190926001600160401b0382116103625761006591830161038b565b60408201516060909201519091906001600160a01b03811681036103625783516001600160401b03811161027357600354600181811c91168015610358575b602082101461025557601f81116102f5575b50602094601f8211600114610292579481929394955f92610287575b50508160011b915f199060031b1c1916176003555b82516001600160401b03811161027357600454600181811c91168015610269575b602082101461025557601f81116101f2575b506020601f821160011461018f57819293945f92610184575b50508160011b915f199060031b1c1916176004555b60805260a0526040516109a790816103dd82396080518181816101520152818161019c015281816102ba01526104ef015260a051816106b50152f35b015190505f80610133565b601f1982169060045f52805f20915f5b8181106101da575095836001959697106101c2575b505050811b01600455610148565b01515f1960f88460031b161c191690555f80806101b4565b9192602060018192868b01518155019401920161019f565b60045f527f8a35acfbc15ff81a39ae7d344fd709f28e8600b4aa8c65c6b64bfe7fe36bd19b601f830160051c8101916020841061024b575b601f0160051c01905b818110610240575061011a565b5f8155600101610233565b909150819061022a565b634e487b7160e01b5f52602260045260245ffd5b90607f1690610108565b634e487b7160e01b5f52604160045260245ffd5b015190505f806100d2565b601f1982169560035f52805f20915f5b8881106102dd575083600195969798106102c5575b505050811b016003556100e7565b01515f1960f88460031b161c191690555f80806102b7565b919260206001819286850151815501940192016102a2565b60035f527fc2575a0e9e593c00f959f8c92f12db2869c3395a3b0502d05e2516446f71f85b601f830160051c8101916020841061034e575b601f0160051c01905b81811061034357506100b6565b5f8155600101610336565b909150819061032d565b90607f16906100a4565b5f80fd5b6040519190601f01601f191682016001600160401b0381118382101761027357604052565b81601f82011215610362578051906001600160401b038211610273576103ba601f8301601f1916602001610366565b928284526020838301011161036257815f9260208093018386015e830101529056fe6080806040526004361015610012575f80fd5b5f3560e01c90816306fdde031461077757508063095ea7b3146106f557806318160ddd146106d8578063204f83f91461069e57806323b872dd146105bf578063313ce567146105a457806340c10f19146104cc57806370a082311461049557806395d89b411461037a5780639dc29fac14610297578063a9059cbb14610266578063bdacb30314610181578063d10bf30e1461013d578063d33219b4146101155763dd62ed3e146100c1575f80fd5b34610111576040366003190112610111576100da610870565b6100e2610886565b6001600160a01b039182165f908152600160209081526040808320949093168252928352819020549051908152f35b5f80fd5b34610111575f366003190112610111576005546040516001600160a01b039091168152602090f35b34610111575f366003190112610111576040517f00000000000000000000000000000000000000000000000000000000000000006001600160a01b03168152602090f35b346101115760203660031901126101115761019a610870565b7f00000000000000000000000000000000000000000000000000000000000000006001600160a01b03163303610230576001600160a01b031680156101f5576bffffffffffffffffffffffff60a01b60055416176005555f80f35b60405162461bcd60e51b815260206004820152601360248201527257696b693a207a65726f2074696d656c6f636b60681b6044820152606490fd5b60405162461bcd60e51b815260206004820152600e60248201526d282a1d103737ba1039b634b1b2b960911b6044820152606490fd5b346101115760403660031901126101115761028c610282610870565b60243590336108da565b602060405160018152f35b34610111576040366003190112610111576102b0610870565b602435906102e8337f00000000000000000000000000000000000000000000000000000000000000006001600160a01b03161461089c565b6001600160a01b0316801561036757805f525f60205260405f205482811061034e576020835f947fddf252ad1be2c89b69c2b068fc378daa952ba7f163c4a11628f55a4df523b3ef938587528684520360408620558060025403600255604051908152a3005b9063391434e360e21b5f5260045260245260445260645ffd5b634b637e8f60e11b5f525f60045260245ffd5b34610111575f366003190112610111576040515f6004548060011c9060018116801561048b575b6020831081146104775782855290811561045b5750600114610406575b50819003601f01601f191681019067ffffffffffffffff8211818310176103f2576103ee82918260405282610846565b0390f35b634e487b7160e01b5f52604160045260245ffd5b905060045f527f8a35acfbc15ff81a39ae7d344fd709f28e8600b4aa8c65c6b64bfe7fe36bd19b5f905b828210610445575060209150820101826103be565b6001816020925483858801015201910190610430565b90506020925060ff191682840152151560051b820101826103be565b634e487b7160e01b5f52602260045260245ffd5b91607f16916103a1565b34610111576020366003190112610111576001600160a01b036104b6610870565b165f525f602052602060405f2054604051908152f35b34610111576040366003190112610111576104e5610870565b6024359061051d337f00000000000000000000000000000000000000000000000000000000000000006001600160a01b03161461089c565b6001600160a01b0316908115610591576002549080820180921161057d5760207fddf252ad1be2c89b69c2b068fc378daa952ba7f163c4a11628f55a4df523b3ef915f9360025584845283825260408420818154019055604051908152a3005b634e487b7160e01b5f52601160045260245ffd5b63ec442f0560e01b5f525f60045260245ffd5b34610111575f36600319011261011157602060405160128152f35b34610111576060366003190112610111576105d8610870565b6105e0610886565b6001600160a01b0382165f818152600160209081526040808320338452909152902054909260443592915f19811061061e575b5061028c93506108da565b83811061068357841561067057331561065d5761028c945f52600160205260405f2060018060a01b0333165f526020528360405f209103905584610613565b634a1406b160e11b5f525f60045260245ffd5b63e602df0560e01b5f525f60045260245ffd5b8390637dc7a0d960e11b5f523360045260245260445260645ffd5b34610111575f3660031901126101115760206040517f00000000000000000000000000000000000000000000000000000000000000008152f35b34610111575f366003190112610111576020600254604051908152f35b346101115760403660031901126101115761070e610870565b602435903315610670576001600160a01b031690811561065d57335f52600160205260405f20825f526020528060405f20556040519081527f8c5be1e5ebec7d5bd14f71427d1e84f3dd0314c0f7b2291e5b200ac8c7c3b92560203392a3602060405160018152f35b34610111575f366003190112610111575f6003548060011c9060018116801561083c575b6020831081146104775782855290811561045b57506001146107e75750819003601f01601f191681019067ffffffffffffffff8211818310176103f2576103ee82918260405282610846565b905060035f527fc2575a0e9e593c00f959f8c92f12db2869c3395a3b0502d05e2516446f71f85b5f905b828210610826575060209150820101826103be565b6001816020925483858801015201910190610811565b91607f169161079b565b602060409281835280519182918282860152018484015e5f828201840152601f01601f1916010190565b600435906001600160a01b038216820361011157565b602435906001600160a01b038216820361011157565b156108a357565b60405162461bcd60e51b815260206004820152600f60248201526e282a1d1037b7363c9039b634b1b2b960891b6044820152606490fd5b6001600160a01b0316908115610367576001600160a01b031691821561059157815f525f60205260405f205481811061095857817fddf252ad1be2c89b69c2b068fc378daa952ba7f163c4a11628f55a4df523b3ef92602092855f525f84520360405f2055845f525f825260405f20818154019055604051908152a3565b8263391434e360e21b5f5260045260245260445260645ffdfea2646970667358221220fdf0280fbc8f1f925e18bac7ae7ec091c487af2d599eeed63b9a8409c308a83264736f6c634300081a0033",
  "linkReferences": {},
  "deployedLinkReferences": {}
}