{
  "_format": "hh-sol-artifact-1",
  "contractName": "WikiYieldSlice",
  "sourceName": "src/WikiYieldSlice.sol",
  "abi": [
    {
      "inputs": [
        {
          "internalType": "address",
          "name": "_lending",
          "type": "address"
        },
        {
          "internalType": "address",
          "name": "_owner",
          "type": "address"
        }
      ],
      "stateMutability": "nonpayable",
      "type": "constructor"
    },
    {
      "inputs": [],
      "name": "EnforcedPause",
      "type": "error"
    },
    {
      "inputs": [],
      "name": "ExpectedPause",
      "type": "error"
    },
    {
      "inputs": [
        {
          "internalType": "address",
          "name": "owner",
          "type": "address"
        }
      ],
      "name": "OwnableInvalidOwner",
      "type": "error"
    },
    {
      "inputs": [
        {
          "internalType": "address",
          "name": "account",
          "type": "address"
        }
      ],
      "name": "OwnableUnauthorizedAccount",
      "type": "error"
    },
    {
      "inputs": [],
      "name": "ReentrancyGuardReentrantCall",
      "type": "error"
    },
    {
      "inputs": [
        {
          "internalType": "address",
          "name": "token",
          "type": "address"
        }
      ],
      "name": "SafeERC20FailedOperation",
      "type": "error"
    },
    {
      "anonymous": false,
      "inputs": [
        {
          "indexed": true,
          "internalType": "uint256",
          "name": "sliceId",
          "type": "uint256"
        },
        {
          "indexed": true,
          "internalType": "address",
          "name": "user",
          "type": "address"
        },
        {
          "indexed": false,
          "internalType": "uint256",
          "name": "ptAmount",
          "type": "uint256"
        },
        {
          "indexed": false,
          "internalType": "uint256",
          "name": "underlyingAmount",
          "type": "uint256"
        },
        {
          "indexed": false,
          "internalType": "uint256",
          "name": "lpMinted",
          "type": "uint256"
        }
      ],
      "name": "AMMAddLiquidity",
      "type": "event"
    },
    {
      "anonymous": false,
      "inputs": [
        {
          "indexed": true,
          "internalType": "uint256",
          "name": "sliceId",
          "type": "uint256"
        },
        {
          "indexed": true,
          "internalType": "address",
          "name": "user",
          "type": "address"
        },
        {
          "indexed": false,
          "internalType": "uint256",
          "name": "lpBurned",
          "type": "uint256"
        },
        {
          "indexed": false,
          "internalType": "uint256",
          "name": "ptOut",
          "type": "uint256"
        },
        {
          "indexed": false,
          "internalType": "uint256",
          "name": "underlyingOut",
          "type": "uint256"
        }
      ],
      "name": "AMMRemoveLiquidity",
      "type": "event"
    },
    {
      "anonymous": false,
      "inputs": [
        {
          "indexed": true,
          "internalType": "uint256",
          "name": "sliceId",
          "type": "uint256"
        },
        {
          "indexed": true,
          "internalType": "address",
          "name": "user",
          "type": "address"
        },
        {
          "indexed": false,
          "internalType": "bool",
          "name": "ptIn",
          "type": "bool"
        },
        {
          "indexed": false,
          "internalType": "uint256",
          "name": "amountIn",
          "type": "uint256"
        },
        {
          "indexed": false,
          "internalType": "uint256",
          "name": "amountOut",
          "type": "uint256"
        },
        {
          "indexed": false,
          "internalType": "uint256",
          "name": "impliedRate",
          "type": "uint256"
        }
      ],
      "name": "AMMSwap",
      "type": "event"
    },
    {
      "anonymous": false,
      "inputs": [
        {
          "indexed": true,
          "internalType": "address",
          "name": "previousOwner",
          "type": "address"
        },
        {
          "indexed": true,
          "internalType": "address",
          "name": "newOwner",
          "type": "address"
        }
      ],
      "name": "OwnershipTransferStarted",
      "type": "event"
    },
    {
      "anonymous": false,
      "inputs": [
        {
          "indexed": true,
          "internalType": "address",
          "name": "previousOwner",
          "type": "address"
        },
        {
          "indexed": true,
          "internalType": "address",
          "name": "newOwner",
          "type": "address"
        }
      ],
      "name": "OwnershipTransferred",
      "type": "event"
    },
    {
      "anonymous": false,
      "inputs": [
        {
          "indexed": false,
          "internalType": "address",
          "name": "account",
          "type": "address"
        }
      ],
      "name": "Paused",
      "type": "event"
    },
    {
      "anonymous": false,
      "inputs": [
        {
          "indexed": false,
          "internalType": "uint256",
          "name": "sliceId",
          "type": "uint256"
        },
        {
          "indexed": false,
          "internalType": "address",
          "name": "to",
          "type": "address"
        },
        {
          "indexed": false,
          "internalType": "uint256",
          "name": "amount",
          "type": "uint256"
        }
      ],
      "name": "ProtocolFeesWithdrawn",
      "type": "event"
    },
    {
      "anonymous": false,
      "inputs": [
        {
          "indexed": true,
          "internalType": "uint256",
          "name": "sliceId",
          "type": "uint256"
        },
        {
          "indexed": true,
          "internalType": "address",
          "name": "user",
          "type": "address"
        },
        {
          "indexed": false,
          "internalType": "uint256",
          "name": "ptBurned",
          "type": "uint256"
        },
        {
          "indexed": false,
          "internalType": "uint256",
          "name": "underlyingReceived",
          "type": "uint256"
        }
      ],
      "name": "Redeemed",
      "type": "event"
    },
    {
      "anonymous": false,
      "inputs": [
        {
          "indexed": true,
          "internalType": "uint256",
          "name": "sliceId",
          "type": "uint256"
        },
        {
          "indexed": true,
          "internalType": "uint256",
          "name": "lendingMarketId",
          "type": "uint256"
        },
        {
          "indexed": false,
          "internalType": "uint256",
          "name": "maturity",
          "type": "uint256"
        },
        {
          "indexed": false,
          "internalType": "address",
          "name": "ptToken",
          "type": "address"
        },
        {
          "indexed": false,
          "internalType": "address",
          "name": "ytToken",
          "type": "address"
        },
        {
          "indexed": false,
          "internalType": "string",
          "name": "symbol",
          "type": "string"
        }
      ],
      "name": "SliceCreated",
      "type": "event"
    },
    {
      "anonymous": false,
      "inputs": [
        {
          "indexed": true,
          "internalType": "uint256",
          "name": "sliceId",
          "type": "uint256"
        },
        {
          "indexed": true,
          "internalType": "address",
          "name": "user",
          "type": "address"
        },
        {
          "indexed": false,
          "internalType": "uint256",
          "name": "wTokenAmount",
          "type": "uint256"
        },
        {
          "indexed": false,
          "internalType": "uint256",
          "name": "ptMinted",
          "type": "uint256"
        },
        {
          "indexed": false,
          "internalType": "uint256",
          "name": "ytMinted",
          "type": "uint256"
        }
      ],
      "name": "Sliced",
      "type": "event"
    },
    {
      "anonymous": false,
      "inputs": [
        {
          "indexed": false,
          "internalType": "address",
          "name": "account",
          "type": "address"
        }
      ],
      "name": "Unpaused",
      "type": "event"
    },
    {
      "anonymous": false,
      "inputs": [
        {
          "indexed": true,
          "internalType": "uint256",
          "name": "sliceId",
          "type": "uint256"
        },
        {
          "indexed": true,
          "internalType": "address",
          "name": "user",
          "type": "address"
        },
        {
          "indexed": false,
          "internalType": "uint256",
          "name": "yieldAmount",
          "type": "uint256"
        },
        {
          "indexed": false,
          "internalType": "uint256",
          "name": "fee",
          "type": "uint256"
        }
      ],
      "name": "YieldClaimed",
      "type": "event"
    },
    {
      "inputs": [],
      "name": "BPS",
      "outputs": [
        {
          "internalType": "uint256",
          "name": "",
          "type": "uint256"
        }
      ],
      "stateMutability": "view",
      "type": "function"
    },
    {
      "inputs": [],
      "name": "DEFAULT_AMM_FEE",
      "outputs": [
        {
          "internalType": "uint256",
          "name": "",
          "type": "uint256"
        }
      ],
      "stateMutability": "view",
      "type": "function"
    },
    {
      "inputs": [],
      "name": "DEFAULT_YIELD_FEE",
      "outputs": [
        {
          "internalType": "uint256",
          "name": "",
          "type": "uint256"
        }
      ],
      "stateMutability": "view",
      "type": "function"
    },
    {
      "inputs": [],
      "name": "MAX_AMM_FEE",
      "outputs": [
        {
          "internalType": "uint256",
          "name": "",
          "type": "uint256"
        }
      ],
      "stateMutability": "view",
      "type": "function"
    },
    {
      "inputs": [],
      "name": "MAX_YIELD_FEE",
      "outputs": [
        {
          "internalType": "uint256",
          "name": "",
          "type": "uint256"
        }
      ],
      "stateMutability": "view",
      "type": "function"
    },
    {
      "inputs": [],
      "name": "MIN_LIQUIDITY",
      "outputs": [
        {
          "internalType": "uint256",
          "name": "",
          "type": "uint256"
        }
      ],
      "stateMutability": "view",
      "type": "function"
    },
    {
      "inputs": [],
      "name": "PRECISION",
      "outputs": [
        {
          "internalType": "uint256",
          "name": "",
          "type": "uint256"
        }
      ],
      "stateMutability": "view",
      "type": "function"
    },
    {
      "inputs": [
        {
          "internalType": "uint256",
          "name": "",
          "type": "uint256"
        }
      ],
      "name": "STANDARD_DURATIONS",
      "outputs": [
        {
          "internalType": "uint256",
          "name": "",
          "type": "uint256"
        }
      ],
      "stateMutability": "view",
      "type": "function"
    },
    {
      "inputs": [],
      "name": "STANDARD_MATURITIES_COUNT",
      "outputs": [
        {
          "internalType": "uint256",
          "name": "",
          "type": "uint256"
        }
      ],
      "stateMutability": "view",
      "type": "function"
    },
    {
      "inputs": [],
      "name": "acceptOwnership",
      "outputs": [],
      "stateMutability": "nonpayable",
      "type": "function"
    },
    {
      "inputs": [
        {
          "internalType": "uint256",
          "name": "sliceId",
          "type": "uint256"
        },
        {
          "internalType": "uint256",
          "name": "ptDesired",
          "type": "uint256"
        },
        {
          "internalType": "uint256",
          "name": "underlyingDesired",
          "type": "uint256"
        },
        {
          "internalType": "uint256",
          "name": "minLP",
          "type": "uint256"
        }
      ],
      "name": "ammAddLiquidity",
      "outputs": [
        {
          "internalType": "uint256",
          "name": "lpMinted",
          "type": "uint256"
        }
      ],
      "stateMutability": "nonpayable",
      "type": "function"
    },
    {
      "inputs": [
        {
          "internalType": "uint256",
          "name": "sliceId",
          "type": "uint256"
        },
        {
          "internalType": "uint256",
          "name": "lpAmount",
          "type": "uint256"
        },
        {
          "internalType": "uint256",
          "name": "minPT",
          "type": "uint256"
        },
        {
          "internalType": "uint256",
          "name": "minUnderlying",
          "type": "uint256"
        }
      ],
      "name": "ammRemoveLiquidity",
      "outputs": [
        {
          "internalType": "uint256",
          "name": "ptOut",
          "type": "uint256"
        },
        {
          "internalType": "uint256",
          "name": "underlyingOut",
          "type": "uint256"
        }
      ],
      "stateMutability": "nonpayable",
      "type": "function"
    },
    {
      "inputs": [
        {
          "internalType": "uint256",
          "name": "sliceId",
          "type": "uint256"
        },
        {
          "internalType": "bool",
          "name": "ptIn",
          "type": "bool"
        },
        {
          "internalType": "uint256",
          "name": "exactIn",
          "type": "uint256"
        },
        {
          "internalType": "uint256",
          "name": "minOut",
          "type": "uint256"
        }
      ],
      "name": "ammSwap",
      "outputs": [
        {
          "internalType": "uint256",
          "name": "amountOut",
          "type": "uint256"
        }
      ],
      "stateMutability": "nonpayable",
      "type": "function"
    },
    {
      "inputs": [
        {
          "internalType": "uint256",
          "name": "sliceId",
          "type": "uint256"
        }
      ],
      "name": "claimYield",
      "outputs": [],
      "stateMutability": "nonpayable",
      "type": "function"
    },
    {
      "inputs": [
        {
          "internalType": "uint256[]",
          "name": "sliceIds",
          "type": "uint256[]"
        }
      ],
      "name": "claimYieldBatch",
      "outputs": [],
      "stateMutability": "nonpayable",
      "type": "function"
    },
    {
      "inputs": [
        {
          "internalType": "uint256",
          "name": "sliceId",
          "type": "uint256"
        },
        {
          "internalType": "uint256",
          "name": "seniorYieldBps",
          "type": "uint256"
        },
        {
          "internalType": "uint256",
          "name": "juniorYieldBps",
          "type": "uint256"
        },
        {
          "internalType": "uint256",
          "name": "seniorCap",
          "type": "uint256"
        },
        {
          "internalType": "uint256",
          "name": "juniorCap",
          "type": "uint256"
        }
      ],
      "name": "configureTranches",
      "outputs": [],
      "stateMutability": "nonpayable",
      "type": "function"
    },
    {
      "inputs": [
        {
          "internalType": "uint256",
          "name": "lendingMarketId",
          "type": "uint256"
        },
        {
          "internalType": "uint256",
          "name": "maturity",
          "type": "uint256"
        },
        {
          "internalType": "uint256",
          "name": "yieldFeeBps",
          "type": "uint256"
        },
        {
          "internalType": "uint256",
          "name": "ammFeeBps",
          "type": "uint256"
        }
      ],
      "name": "createSlice",
      "outputs": [
        {
          "internalType": "uint256",
          "name": "sliceId",
          "type": "uint256"
        }
      ],
      "stateMutability": "nonpayable",
      "type": "function"
    },
    {
      "inputs": [
        {
          "internalType": "uint256",
          "name": "lendingMarketId",
          "type": "uint256"
        }
      ],
      "name": "createStandardSlices",
      "outputs": [],
      "stateMutability": "nonpayable",
      "type": "function"
    },
    {
      "inputs": [
        {
          "internalType": "uint256",
          "name": "sliceId",
          "type": "uint256"
        },
        {
          "internalType": "uint256",
          "name": "amount",
          "type": "uint256"
        },
        {
          "internalType": "enum WikiYieldSlice.Tranche",
          "name": "tranche",
          "type": "uint8"
        }
      ],
      "name": "depositTranche",
      "outputs": [],
      "stateMutability": "nonpayable",
      "type": "function"
    },
    {
      "inputs": [
        {
          "internalType": "uint256",
          "name": "sliceId",
          "type": "uint256"
        }
      ],
      "name": "getSlice",
      "outputs": [
        {
          "components": [
            {
              "internalType": "uint256",
              "name": "lendingMarketId",
              "type": "uint256"
            },
            {
              "internalType": "uint256",
              "name": "maturity",
              "type": "uint256"
            },
            {
              "internalType": "address",
              "name": "underlying",
              "type": "address"
            },
            {
              "internalType": "string",
              "name": "symbol",
              "type": "string"
            },
            {
              "internalType": "address",
              "name": "ptToken",
              "type": "address"
            },
            {
              "internalType": "address",
              "name": "ytToken",
              "type": "address"
            },
            {
              "internalType": "uint256",
              "name": "totalWTokens",
              "type": "uint256"
            },
            {
              "internalType": "uint256",
              "name": "exchangeRateAtOpen",
              "type": "uint256"
            },
            {
              "internalType": "uint256",
              "name": "accYieldPerYT",
              "type": "uint256"
            },
            {
              "internalType": "uint256",
              "name": "lastExchangeRate",
              "type": "uint256"
            },
            {
              "internalType": "uint256",
              "name": "ammPT",
              "type": "uint256"
            },
            {
              "internalType": "uint256",
              "name": "ammUnderlying",
              "type": "uint256"
            },
            {
              "internalType": "uint256",
              "name": "ammTotalLP",
              "type": "uint256"
            },
            {
              "internalType": "uint256",
              "name": "yieldFeeBps",
              "type": "uint256"
            },
            {
              "internalType": "uint256",
              "name": "ammFeeBps",
              "type": "uint256"
            },
            {
              "internalType": "bool",
              "name": "active",
              "type": "bool"
            }
          ],
          "internalType": "struct WikiYieldSlice.Slice",
          "name": "",
          "type": "tuple"
        }
      ],
      "stateMutability": "view",
      "type": "function"
    },
    {
      "inputs": [
        {
          "internalType": "uint256",
          "name": "lendingMarketId",
          "type": "uint256"
        }
      ],
      "name": "getSlicesByMarket",
      "outputs": [
        {
          "internalType": "uint256[]",
          "name": "ids",
          "type": "uint256[]"
        }
      ],
      "stateMutability": "view",
      "type": "function"
    },
    {
      "inputs": [
        {
          "internalType": "uint256",
          "name": "sliceId",
          "type": "uint256"
        },
        {
          "internalType": "address",
          "name": "user",
          "type": "address"
        }
      ],
      "name": "getUserSlice",
      "outputs": [
        {
          "components": [
            {
              "internalType": "uint256",
              "name": "wTokenDeposited",
              "type": "uint256"
            },
            {
              "internalType": "uint256",
              "name": "ytYieldDebt",
              "type": "uint256"
            },
            {
              "internalType": "uint256",
              "name": "ammLPBalance",
              "type": "uint256"
            }
          ],
          "internalType": "struct WikiYieldSlice.UserSlice",
          "name": "",
          "type": "tuple"
        }
      ],
      "stateMutability": "view",
      "type": "function"
    },
    {
      "inputs": [
        {
          "internalType": "uint256",
          "name": "sliceId",
          "type": "uint256"
        }
      ],
      "name": "impliedFixedRate",
      "outputs": [
        {
          "internalType": "uint256",
          "name": "",
          "type": "uint256"
        }
      ],
      "stateMutability": "view",
      "type": "function"
    },
    {
      "inputs": [],
      "name": "lendingProtocol",
      "outputs": [
        {
          "internalType": "contract IWikiLending",
          "name": "",
          "type": "address"
        }
      ],
      "stateMutability": "view",
      "type": "function"
    },
    {
      "inputs": [],
      "name": "owner",
      "outputs": [
        {
          "internalType": "address",
          "name": "",
          "type": "address"
        }
      ],
      "stateMutability": "view",
      "type": "function"
    },
    {
      "inputs": [],
      "name": "pause",
      "outputs": [],
      "stateMutability": "nonpayable",
      "type": "function"
    },
    {
      "inputs": [],
      "name": "paused",
      "outputs": [
        {
          "internalType": "bool",
          "name": "",
          "type": "bool"
        }
      ],
      "stateMutability": "view",
      "type": "function"
    },
    {
      "inputs": [],
      "name": "pendingOwner",
      "outputs": [
        {
          "internalType": "address",
          "name": "",
          "type": "address"
        }
      ],
      "stateMutability": "view",
      "type": "function"
    },
    {
      "inputs": [
        {
          "internalType": "uint256",
          "name": "sliceId",
          "type": "uint256"
        },
        {
          "internalType": "address",
          "name": "user",
          "type": "address"
        }
      ],
      "name": "previewClaimableYield",
      "outputs": [
        {
          "internalType": "uint256",
          "name": "",
          "type": "uint256"
        }
      ],
      "stateMutability": "view",
      "type": "function"
    },
    {
      "inputs": [
        {
          "internalType": "uint256",
          "name": "sliceId",
          "type": "uint256"
        },
        {
          "internalType": "bool",
          "name": "ptIn",
          "type": "bool"
        },
        {
          "internalType": "uint256",
          "name": "exactIn",
          "type": "uint256"
        }
      ],
      "name": "previewSwap",
      "outputs": [
        {
          "internalType": "uint256",
          "name": "amountOut",
          "type": "uint256"
        },
        {
          "internalType": "uint256",
          "name": "fee",
          "type": "uint256"
        }
      ],
      "stateMutability": "view",
      "type": "function"
    },
    {
      "inputs": [
        {
          "internalType": "uint256",
          "name": "",
          "type": "uint256"
        }
      ],
      "name": "protocolFees",
      "outputs": [
        {
          "internalType": "uint256",
          "name": "",
          "type": "uint256"
        }
      ],
      "stateMutability": "view",
      "type": "function"
    },
    {
      "inputs": [
        {
          "internalType": "uint256",
          "name": "sliceId",
          "type": "uint256"
        }
      ],
      "name": "ptPrice",
      "outputs": [
        {
          "internalType": "uint256",
          "name": "",
          "type": "uint256"
        }
      ],
      "stateMutability": "view",
      "type": "function"
    },
    {
      "inputs": [
        {
          "internalType": "uint256",
          "name": "sliceId",
          "type": "uint256"
        },
        {
          "internalType": "uint256",
          "name": "ptAmt",
          "type": "uint256"
        }
      ],
      "name": "redeemPT",
      "outputs": [],
      "stateMutability": "nonpayable",
      "type": "function"
    },
    {
      "inputs": [
        {
          "internalType": "uint256",
          "name": "sliceId",
          "type": "uint256"
        },
        {
          "internalType": "uint256",
          "name": "amount",
          "type": "uint256"
        }
      ],
      "name": "redeemPair",
      "outputs": [],
      "stateMutability": "nonpayable",
      "type": "function"
    },
    {
      "inputs": [],
      "name": "renounceOwnership",
      "outputs": [],
      "stateMutability": "nonpayable",
      "type": "function"
    },
    {
      "inputs": [
        {
          "internalType": "address",
          "name": "_lending",
          "type": "address"
        }
      ],
      "name": "setLendingProtocol",
      "outputs": [],
      "stateMutability": "nonpayable",
      "type": "function"
    },
    {
      "inputs": [
        {
          "internalType": "uint256",
          "name": "sliceId",
          "type": "uint256"
        },
        {
          "internalType": "uint256",
          "name": "wTokenAmt",
          "type": "uint256"
        }
      ],
      "name": "slice",
      "outputs": [],
      "stateMutability": "nonpayable",
      "type": "function"
    },
    {
      "inputs": [],
      "name": "sliceCount",
      "outputs": [
        {
          "internalType": "uint256",
          "name": "",
          "type": "uint256"
        }
      ],
      "stateMutability": "view",
      "type": "function"
    },
    {
      "inputs": [
        {
          "internalType": "uint256",
          "name": "",
          "type": "uint256"
        },
        {
          "internalType": "uint256",
          "name": "",
          "type": "uint256"
        }
      ],
      "name": "sliceProtocolFees",
      "outputs": [
        {
          "internalType": "uint256",
          "name": "",
          "type": "uint256"
        }
      ],
      "stateMutability": "view",
      "type": "function"
    },
    {
      "inputs": [
        {
          "internalType": "uint256",
          "name": "sliceId",
          "type": "uint256"
        }
      ],
      "name": "sliceTVL",
      "outputs": [
        {
          "internalType": "uint256",
          "name": "",
          "type": "uint256"
        }
      ],
      "stateMutability": "view",
      "type": "function"
    },
    {
      "inputs": [
        {
          "internalType": "uint256",
          "name": "",
          "type": "uint256"
        }
      ],
      "name": "slices",
      "outputs": [
        {
          "internalType": "uint256",
          "name": "lendingMarketId",
          "type": "uint256"
        },
        {
          "internalType": "uint256",
          "name": "maturity",
          "type": "uint256"
        },
        {
          "internalType": "address",
          "name": "underlying",
          "type": "address"
        },
        {
          "internalType": "string",
          "name": "symbol",
          "type": "string"
        },
        {
          "internalType": "address",
          "name": "ptToken",
          "type": "address"
        },
        {
          "internalType": "address",
          "name": "ytToken",
          "type": "address"
        },
        {
          "internalType": "uint256",
          "name": "totalWTokens",
          "type": "uint256"
        },
        {
          "internalType": "uint256",
          "name": "exchangeRateAtOpen",
          "type": "uint256"
        },
        {
          "internalType": "uint256",
          "name": "accYieldPerYT",
          "type": "uint256"
        },
        {
          "internalType": "uint256",
          "name": "lastExchangeRate",
          "type": "uint256"
        },
        {
          "internalType": "uint256",
          "name": "ammPT",
          "type": "uint256"
        },
        {
          "internalType": "uint256",
          "name": "ammUnderlying",
          "type": "uint256"
        },
        {
          "internalType": "uint256",
          "name": "ammTotalLP",
          "type": "uint256"
        },
        {
          "internalType": "uint256",
          "name": "yieldFeeBps",
          "type": "uint256"
        },
        {
          "internalType": "uint256",
          "name": "ammFeeBps",
          "type": "uint256"
        },
        {
          "internalType": "bool",
          "name": "active",
          "type": "bool"
        }
      ],
      "stateMutability": "view",
      "type": "function"
    },
    {
      "inputs": [
        {
          "internalType": "uint256",
          "name": "sliceId",
          "type": "uint256"
        }
      ],
      "name": "trancheAPY",
      "outputs": [
        {
          "internalType": "uint256",
          "name": "seniorAPY",
          "type": "uint256"
        },
        {
          "internalType": "uint256",
          "name": "juniorAPY",
          "type": "uint256"
        }
      ],
      "stateMutability": "view",
      "type": "function"
    },
    {
      "inputs": [
        {
          "internalType": "uint256",
          "name": "",
          "type": "uint256"
        }
      ],
      "name": "trancheConfigs",
      "outputs": [
        {
          "internalType": "uint256",
          "name": "seniorYieldBps",
          "type": "uint256"
        },
        {
          "internalType": "uint256",
          "name": "juniorYieldBps",
          "type": "uint256"
        },
        {
          "internalType": "uint256",
          "name": "seniorCap",
          "type": "uint256"
        },
        {
          "internalType": "uint256",
          "name": "juniorCap",
          "type": "uint256"
        },
        {
          "internalType": "uint256",
          "name": "seniorTVL",
          "type": "uint256"
        },
        {
          "internalType": "uint256",
          "name": "juniorTVL",
          "type": "uint256"
        }
      ],
      "stateMutability": "view",
      "type": "function"
    },
    {
      "inputs": [
        {
          "internalType": "address",
          "name": "newOwner",
          "type": "address"
        }
      ],
      "name": "transferOwnership",
      "outputs": [],
      "stateMutability": "nonpayable",
      "type": "function"
    },
    {
      "inputs": [],
      "name": "unpause",
      "outputs": [],
      "stateMutability": "nonpayable",
      "type": "function"
    },
    {
      "inputs": [
        {
          "internalType": "uint256",
          "name": "",
          "type": "uint256"
        },
        {
          "internalType": "address",
          "name": "",
          "type": "address"
        }
      ],
      "name": "userSlices",
      "outputs": [
        {
          "internalType": "uint256",
          "name": "wTokenDeposited",
          "type": "uint256"
        },
        {
          "internalType": "uint256",
          "name": "ytYieldDebt",
          "type": "uint256"
        },
        {
          "internalType": "uint256",
          "name": "ammLPBalance",
          "type": "uint256"
        }
      ],
      "stateMutability": "view",
      "type": "function"
    },
    {
      "inputs": [
        {
          "internalType": "address",
          "name": "",
          "type": "address"
        },
        {
          "internalType": "uint256",
          "name": "",
          "type": "uint256"
        }
      ],
      "name": "userTranche",
      "outputs": [
        {
          "internalType": "enum WikiYieldSlice.Tranche",
          "name": "",
          "type": "uint8"
        }
      ],
      "stateMutability": "view",
      "type": "function"
    },
    {
      "inputs": [
        {
          "internalType": "uint256",
          "name": "sliceId",
          "type": "uint256"
        },
        {
          "internalType": "address",
          "name": "to",
          "type": "address"
        }
      ],
      "name": "withdrawProtocolFees",
      "outputs": [],
      "stateMutability": "nonpayable",
      "type": "function"
    }
  ],
  "bytecode": "0x6080604052346101dc57604051601f61553638819003918201601f19168301916001600160401b038311848410176101b55780849260409485528339810103126101dc5761004c816101e0565b906001600160a01b0390610062906020016101e0565b1680156101c957600180546001600160a01b03199081169091555f8054918216831781556001600160a01b03909116907f8be0079c531659141344cd1fd0a4f28419497f9722a3daafe3b4186f6b6457e09080a360017f9b779b17422d0df92223018b32b4d1fa46e071723d6817e2486d003becc55f0055604051608081016001600160401b038111828210176101b55760405262278d0081526276a700602082015262ed4e0060408201526301e1338060608201525f5b6004811061019a576001600160a01b038316801561015557600680546001600160a01b03191691909117905560405161534190816101f58239f35b60405162461bcd60e51b815260206004820152601360248201527f57696b693a207a65726f205f6c656e64696e67000000000000000000000000006044820152606490fd5b600190602063ffffffff84511693019281600201550161011a565b634e487b7160e01b5f52604160045260245ffd5b631e4fbdf760e01b5f525f60045260245ffd5b5f80fd5b51906001600160a01b03821682036101dc5756fe60a06040526004361015610011575f80fd5b5f803560e01c8062af038d1461278557806306bf7c02146126f3578063163694b51461259c5780631800ff5d146123255780631c8bc5fd1461230a5780631caa73cb146122ee57806321b77d63146122d2578063249d39e9146122b657806324a9deea1461229857806330665bc91461227d578063387309ce1461226057806339bb463b14611f955780633f4ba83a14611f2557806340bd2e2314611ef557806347533fc114611ec7578063521b799114611eab5780635380ec0d14611e8357806359c25c0a14611d625780635ab1c98114611d005780635c975abb14611cda5780635ce6569814611b815780635ff7b50414611ac5578063715018a614611a605780637404adfa14611a3357806379ba5097146119ae5780637b8b35da1461194457806384436d3e1461191b5780638456cb59146118b857806387d150e114611674578063882150a11461164d57806389638d21146113e95780638b6f714d146112bf5780638da5cb5b14611298578063966a312414611271578063a66c1f6a1461123d578063aaf5eb681461121a578063b5e2b44314610ad4578063bf8451a714610a9d578063c4eb7be514610a36578063ce500cc614610a0c578063d54b750614610850578063da0378011461051d578063e1f613f614610500578063e30c3978146104d7578063e84df24a14610393578063f2c0d791146102dd578063f2fde38b146102705763f8ca1e5d14610229575f80fd5b3461026d57602036600319011261026d576102426128a6565b61024a61322c565b60018060a01b03166bffffffffffffffffffffffff60a01b600654161760065580f35b80fd5b503461026d57602036600319011261026d5761028a6128a6565b61029261322c565b600180546001600160a01b0319166001600160a01b0392831690811790915582549091167f38d16b8cac22d99fc7c124b9cd0de2d3fa1faef420bfe791d8c362d765e227008380a380f35b503461026d57602036600319011261026d576004356001600160401b03811161038f573660238201121561038f578060040135906001600160401b03821161038b576024810190602436918460051b01011161038b5761033b613252565b825b828110610359578360015f805160206152ec8339815191525580f35b8061037061036a600193868661321c565b35613329565b6103853361037f83878761321c565b356135ce565b0161033d565b8280fd5b5080fd5b503461026d57602036600319011261026d5760043560075481101561038f576103bb90612923565b508054600182015460028301546001600160a01b031692906103df600383016129e3565b93600160a01b6001900360048401541694600160a01b6001900360058501541660068501546007860154600887015490600988015492600a89015494600b8a015496600c8b015498600d8c01549a600e8d01549c600f015460ff169d60405160805260805152608051602001526080516040015260805160600161020090526080516102000161046e916128f0565b9b6080516080015260805160a0015260805160c0015260805160e00152608051610100015260805161012001526080516101400152608051610160015260805161018001526080516101a001526080516101c0015215156080516101e001526080519003608051f35b503461026d578060031936011261026d576001546040516001600160a01b039091168152602090f35b503461026d578060031936011261026d5760206040516101f48152f35b503461026d57608036600319011261026d5760043561053a612914565b60643591604435610549613252565b61055161330b565b61055a82612923565b509461056c60ff600f88015416612a83565b600186015442101561080b57610583821515612ac4565b600a86019081541515806107fe575b156107c4576105a084613329565b84156106da57600b870180546105b68582612b01565b938054946105c48787612b3f565b6105cd91612b14565b9486600e8c01546105de9088612b01565b612710900496876105ee91612b32565b9a8b10156105fb906131d8565b61060491612b3f565b90556106108489612b3f565b61061991612b32565b9055838152600a60205260408120818052602052604090209081549061063e91612b3f565b9055600485015461065d908290309033906001600160a01b0316613503565b600285015461067890859033906001600160a01b031661328a565b610683602095613782565b9060405193151584528584015283604084015260608301527f371db392a4f82a7aac85f1077111bb580e33d13a0348724c5f0b0583d9f3781f60803393a360015f805160206152ec83398151915255604051908152f35b815495916106e88488612b01565b96600b8901938454986106fb878b612b3f565b61070491612b14565b50600e8a01546107149087612b01565b6127109004946107248688612b32565b9961072f8b85612b01565b6107398c83612b3f565b61074291612b14565b9a8b93841015610751906131d8565b61075a91612b3f565b905561076591612b32565b9055838152600a60205260408120818052602052604090209081549061078a91612b3f565b905560028501546107a9908290309033906001600160a01b0316613503565b600485015461067890859033906001600160a01b031661328a565b60405162461bcd60e51b81526020600482015260126024820152711654ce88105353481b9bdd081cd95959195960721b6044820152606490fd5b50600b8701541515610592565b60405162461bcd60e51b815260206004820152601a60248201527f59533a20414d4d20636c6f736564206174206d617475726974790000000000006044820152606490fd5b503461026d5761085f366128da565b610867613252565b61086f61330b565b61087882612923565b5060018101544210156109c757610890821515612dc0565b61089983613329565b600481015484906001600160a01b0316803b1561038f57604051632770a7eb60e21b8152336004820152602481018590529082908290604490829084905af180156109a7576109b2575b5060058201546001600160a01b0316803b1561038f57604051632770a7eb60e21b8152336004820152602481018590529082908290604490829084905af180156109a75761098e575b505061093c6109719333906135ce565b600681018054838082106109855761095391612b32565b905b555433906001600160a01b039061096b9061356c565b1661328a565b60015f805160206152ec8339815191525580f35b50508490610955565b81610998916129c2565b6109a357835f61092c565b8380fd5b6040513d84823e3d90fd5b816109bc916129c2565b6109a357835f6108e3565b60405162461bcd60e51b815260206004820152601f60248201527f59533a207573652072656465656d5054206166746572206d61747572697479006044820152606490fd5b503461026d57602036600319011261026d5760406020916004358152600983522054604051908152f35b503461026d57604036600319011261026d576001600160a01b03610a586128a6565b168152600c60205260408120602435825260205260ff604082205416604051906002811015610a8957602092508152f35b634e487b7160e01b83526021600452602483fd5b503461026d57606036600319011261026d576040610ac8610abc612914565b6044359060043561311d565b82519182526020820152f35b503461026d57610ae3366128bc565b9291610aed61322c565b428111156111d5576105dc8211611197576064841161115b5760065460405163eb44fdd360e01b81526004810185905291908690839060249082906001600160a01b03165afa91821561115057869261112c575b50610240820151156110ef57602062015180610b5d4284612b32565b0492610bb9600180610b7360408501519761384b565b85604051968792818085019b8051918291018d5e840190602d60f81b83830152805192839101602183015e0101601960fa1b838201520301601e198101855201836129c2565b6040516750542d57696b692d60c01b6020820152610bf1602882855180898484015e81018c838201520301601f1981018352826129c2565b604051906250542d60e81b6020830152610c256023838651808a8484015e81018d838201520301601f1981018452836129c2565b60405191610d8491828401928484106001600160401b038511176110db57610c5892859492899261390e873930936130dd565b039089f09384156110d0576040516759542d57696b692d60c01b6020820152610c9b602882865180868484015e81018d838201520301601f1981018352826129c2565b610ccf602360405180946259542d60e81b6020830152875180918484015e81018d838201520301601f1981018452836129c2565b60405191610c5a91828401928484106001600160401b038511176110db57610d02928594928992614692873930936130dd565b039089f09485156110d0576007549761014060018060a01b038451169301519180155f146110ca57506101f4905b806110c457506014915b60405193610d47856129a6565b898552866020860152604085015284606085015260018060a01b038716608085015260018060a01b03881660a08501528a60c08501528060e08501528a6101008501526101208401528961014084015289610160840152896101808401526101a08301526101c082015260016101e0820152680100000000000000008710156110b05760018701600755610dda87612923565b61109c57815181556020820151600182015560408201516002820180546001600160a01b0319166001600160a01b039290921691909117905560608201518051906001600160401b03821161108857610e366003840154612953565b601f8111611040575b5060209a8a979695949392918c916001601f851114610fa1579383610f8b9796946101e094600f947f303c9640278e2483e693170b4d0d98fd729a189376690761ba3a672b067cc0fa9d9e9892610f96575b50508160011b915f199060031b1c19161760038201555b6080848101516004830180546001600160a01b039283166001600160a01b03199182161790915560a08701516005850180549184169190921617905560c0860151600684015560e0860151600784015561010086015160088401556101208601516009840155610140860151600a840155610160860151600b840155610180860151600c8401556101a0860151600d8401556101c0860151600e84015593909401519101805460ff191691151560ff16919091179055604080519687529681168c87015291909116948401949094526060830184905291928392908301906128f0565b0390a3604051908152f35b015190505f80610e91565b9060038594939b96950182528a8220915b601f1984168110611026575092600183600f937f303c9640278e2483e693170b4d0d98fd729a189376690761ba3a672b067cc0fa9c9d610f8b9a9998976101e097601f1981161061100e575b505050811b016003820155610ea8565b01515f1960f88460031b161c191690555f8080610ffe565b818c015183559a8e019a8d9a506001909201918e01610fb2565b600384018c5260208c20601f840160051c8101916020851061107e575b601f0160051c01905b8181106110735750610e3f565b8c8155600101611066565b909150819061105d565b634e487b7160e01b8b52604160045260248bfd5b634e487b7160e01b89526004899052602489fd5b634e487b7160e01b88526041600452602488fd5b91610d3a565b90610d30565b6040513d8a823e3d90fd5b634e487b7160e01b8d52604160045260248dfd5b60405162461bcd60e51b815260206004820152601560248201527459533a206d61726b6574206e6f742061637469766560581b6044820152606490fd5b6111499192503d8088833e61114181836129c2565b810190612b74565b905f610b41565b6040513d88823e3d90fd5b60405162461bcd60e51b81526020600482015260146024820152730b2a67440829a9a40cccaca40e8dede40d0d2ced60631b6044820152606490fd5b60405162461bcd60e51b81526020600482015260166024820152750b2a67440f2d2cad8c840cccaca40e8dede40d0d2ced60531b6044820152606490fd5b60405162461bcd60e51b815260206004820152601b60248201527f59533a206d61747572697479206d7573742062652066757475726500000000006044820152606490fd5b503461026d578060031936011261026d576020604051670de0b6b3a76400008152f35b503461026d57602036600319011261026d57604080916004358152600b602052206001815491015482519182526020820152f35b503461026d57602036600319011261026d57602061129060043561307b565b604051908152f35b503461026d578060031936011261026d57546040516001600160a01b039091168152602090f35b503461026d57606036600319011261026d5760443560043560243560028310156109a357818452600b6020526040842060018403611381576004810191825491600261130b8385612b3f565b910154106113455761131c91612b3f565b90555b338352600c60205260408320908352602052604082209060ff8019835416911617905580f35b60405162461bcd60e51b8152602060048201526014602482015273151c985b98da194e881cd95b9a5bdc88199d5b1b60621b6044820152606490fd5b600581019182549160036113958385612b3f565b910154106113ad576113a691612b3f565b905561131f565b60405162461bcd60e51b8152602060048201526014602482015273151c985b98da194e881a9d5b9a5bdc88199d5b1b60621b6044820152606490fd5b503461026d576113f8366128bc565b92611404929192613252565b604061140f82612923565b509582815260086020522060018060a01b0333165f52602052600260405f20018281541061161257600c8601908154156115dc5761144c83613329565b600a87019661145c885486612b01565b61146884548092612b14565b97611481600b84019261147c84548a612b01565b612b14565b978910611597578710611552576040986114fa94846114a2898b9754612b32565b90556114af888254612b32565b90556114bc898254612b32565b90556114c9838254612b32565b905560048101546114e690889033906001600160a01b031661328a565b6002015433906001600160a01b031661328a565b8451918252602082018490526040820183905233917feeb338c0ade31341135873370b19c371c5477a36c3e04388555c3054f1fab92690606090a360015f805160206152ec8339815191525582519182526020820152f35b60405162461bcd60e51b815260206004820152601f60248201527f59533a20696e73756666696369656e7420756e6465726c79696e67206f7574006044820152606490fd5b60405162461bcd60e51b815260206004820152601760248201527f59533a20696e73756666696369656e74205054206f75740000000000000000006044820152606490fd5b60405162461bcd60e51b815260206004820152600e60248201526d1654ce88195b5c1d1e481c1bdbdb60921b6044820152606490fd5b60405162461bcd60e51b8152602060048201526013602482015272059533a20696e73756666696369656e74204c5606c1b6044820152606490fd5b503461026d57604036600319011261026d57602061129061166c612890565b600435612e32565b503461026d57602036600319011261026d576101e0604051611695816129a6565b8281528260208201528260408201526060808201528260808201528260a08201528260c08201528260e08201528261010082015282610120820152826101408201528261016082015282610180820152826101a0820152826101c08201520152611700600435612923565b5060ff600f60405192611712846129a6565b805484526001810154602085015260028101546001600160a01b0316604085015261173f600382016129e3565b606085015260018060a01b03600482015416608085015260018060a01b0360058201541660a0850152600681015460c0850152600781015460e085015260088101546101008501526009810154610120850152600a810154610140850152600b810154610160850152600c810154610180850152600d8101546101a0850152600e8101546101c085015201541615156101e0820152604051809160208252805160208301526020810151604083015260018060a01b0360408201511660608301526101e061181e606083015161020060808601526102208501906128f0565b9160018060a01b0360808201511660a085015260018060a01b0360a08201511660c085015260c081015160e085015260e08101516101008501526101008101516101208501526101208101516101408501526101408101516101608501526101608101516101808501526101808101516101a08501526101a08101516101c08501526101c081015182850152015115156102008301520390f35b503461026d578060031936011261026d576118d161322c565b6118d961330b565b6001805460ff60a01b1916600160a01b1790556040513381527f62e78cea01bee320cd4e420270b5ea74000d11b0c9f74754ebdbfc544b05a25890602090a180f35b503461026d578060031936011261026d576006546040516001600160a01b039091168152602090f35b503461026d57604036600319011261026d576040611960612890565b9160043581526008602052209060018060a01b03165f5260205260405f2080546119aa60026001840154930154604051938493846040919493926060820195825260208201520152565b0390f35b503461026d578060031936011261026d57600154336001600160a01b0390911603611a2057600180546001600160a01b0319908116909155815433918116821783556001600160a01b03167f8be0079c531659141344cd1fd0a4f28419497f9722a3daafe3b4186f6b6457e08380a380f35b63118cdaa760e01b815233600452602490fd5b503461026d576040602091611a47366128da565b908252600a845282822090825283522054604051908152f35b503461026d578060031936011261026d57611a7961322c565b600180546001600160a01b03199081169091558154908116825581906001600160a01b03167f8be0079c531659141344cd1fd0a4f28419497f9722a3daafe3b4186f6b6457e08280a380f35b503461026d57602036600319011261026d57600435611ae261322c565b815b6004811015611b7d57611afb816002015442612b3f565b906040519163b5e2b44360e01b835283600484015260248301526101f460448301526014606483015260208260848187305af1918215611b7257600192611b44575b5001611ae4565b611b649060203d8111611b6b575b611b5c81836129c2565b810190612e23565b505f611b3d565b503d611b52565b6040513d86823e3d90fd5b8280f35b503461026d57611b90366128da565b90611b99613252565b611ba281612923565b5060018101544210611c9f57611bb9831515612dc0565b600481015484906001600160a01b0316803b1561038f57604051632770a7eb60e21b8152336004820152602481018690529082908290604490829084905af180156109a757611c8a575b5050611c3c83670de0b6b3a7640000611c20600785015483612b01565b049260068101805483808210155f14611c815761095391612b32565b60405192835260208301527fa5851b0172fdafd3dafe0e52ce051747548a4c642a2f22793c01faf228e1306260403393a360015f805160206152ec8339815191525580f35b50508790610955565b81611c94916129c2565b6109a357835f611c03565b60405162461bcd60e51b81526020600482015260136024820152721654ce881b9bdd081e595d081b585d1d5c9959606a1b6044820152606490fd5b503461026d578060031936011261026d57602060ff60015460a01c166040519015158152f35b503461026d57602036600319011261026d57604060c0916004358152600b6020522080549060018101549060028101546003820154906005600484015493015493604051958652602086015260408501526060840152608083015260a0820152f35b503461026d57602036600319011261026d576004358182600754905b818110611e555750611da8611d9283612e0c565b92611da060405194856129c2565b808452612e0c565b602083019390601f19013685378490855b838110611e0457868587604051928392602084019060208552518091526040840192915b818110611deb575050500390f35b8251845285945060209384019390920191600101611ddd565b81611e0e82612923565b505414611e1e575b600101611db9565b611e2783612dfe565b928551811015611e415760051b8501602001819052611e16565b634e487b7160e01b88526032600452602488fd5b83611e5f82612923565b505414611e6f575b600101611d7e565b91611e7b600191612dfe565b929050611e67565b503461026d57602036600319011261026d576020611290611ea5600435612923565b50613782565b503461026d578060031936011261026d57602060405160148152f35b503461026d57602036600319011261026d57600435600481101561038f576020915060020154604051908152f35b503461026d57602036600319011261026d57610971600435611f15613252565b611f1e81613329565b33906135ce565b503461026d578060031936011261026d57611f3e61322c565b60015460ff8160a01c1615611f865760ff60a01b19166001556040513381527f5db9ee0a495bf2e6ff9c91a7834c1ba4fdd244a5e8aa4e537bd38aeae4b073aa90602090a180f35b638dfc202b60e01b8252600482fd5b50346121c257611fa4366128da565b90611fad613252565b611fb561330b565b611fbe81612923565b50611fcf60ff600f83015416612a83565b600181015442101561222557611fe6831515612dc0565b611fef82613329565b815f52600860205260405f2060018060a01b0333165f5260205260405f20612018848254612b3f565b81556001600883015491015560068101612033848254612b3f565b9055600654815460405163eb44fdd360e01b81526004810182905290915f90829060249082906001600160a01b03165afa80156121b757610240915f9161220b575b500151156121c65761209f9084906001600160a01b03906120959061356c565b1630903390613503565b60048101546001600160a01b0316803b156121c2576040516340c10f1960e01b815233600482015260248101859052905f908290604490829084905af180156121b7576121a2575b506005015483906001600160a01b0316803b1561038f576040516340c10f1960e01b8152336004820152602481018590529082908290604490829084905af180156109a75761218d575b50507f69de9c122516f820f6ab9f3f094855a744a76e256730f0da958a37cdc3d35d7b6040518061217633958080846040919493926060820195825260208201520152565b0390a360015f805160206152ec8339815191525580f35b81612197916129c2565b61038b57825f612131565b6121af9194505f906129c2565b5f925f6120e7565b6040513d5f823e3d90fd5b5f80fd5b60405162461bcd60e51b815260206004820152601a60248201527f59533a206d61726b657420737570706c792064697361626c65640000000000006044820152606490fd5b61221f91503d805f833e61114181836129c2565b5f612075565b60405162461bcd60e51b81526020600482015260136024820152721654ce881b585d1d5c9a5d1e481c185cdcd959606a1b6044820152606490fd5b346121c2575f3660031901126121c2576020600754604051908152f35b346121c2575f3660031901126121c257602060405160048152f35b346121c25760203660031901126121c2576020611290600435612d37565b346121c2575f3660031901126121c25760206040516127108152f35b346121c2575f3660031901126121c25760206040516103e88152f35b346121c2575f3660031901126121c25760206040516105dc8152f35b346121c2575f3660031901126121c257602060405160648152f35b346121c257612333366128bc565b919261233d613252565b61234561330b565b61234e81612923565b5061235f60ff600f83015416612a83565b600181015442101561256a5784151580612561575b61237d90612ac4565b61238682613329565b600c81018054806124fd57506123a66123a187958098612b01565b6134bd565b6103e71981019081116124e957946103e882555b85106124a45785612473602097848894600a7fbabe65f3370c66a07b5d87e28b26c549c0a4ec286c61a4ee34f24f6273ea285497016123fa8a8254612b3f565b9055600b820161240b848254612b3f565b9055612418868254612b3f565b90555f87815260088b5260408082203383528c529020600201805461243e908790612b3f565b9055600481015461245d908990309033906001600160a01b0316613503565b60020154309033906001600160a01b0316613503565b6040805195865260208601919091528401523392606090a360015f805160206152ec83398151915255604051908152f35b60405162461bcd60e51b815260206004820152601a60248201527f59533a20696e73756666696369656e74204c50206d696e7465640000000000006044820152606490fd5b634e487b7160e01b5f52601160045260245ffd5b95600a8301549061250e8287612b01565b9061251e600b8601548093612b14565b9181831161253f5750509061147c6125399296985b87612b01565b946123ba565b819997508361253994935061147c61255a9261147c94612b01565b9896612533565b50821515612374565b60405162461bcd60e51b815260206004820152600a6024820152691654ce8818db1bdcd95960b21b6044820152606490fd5b346121c25760a03660031901126121c2576044356024356125bb61322c565b808211156126ae576064811015806126a2575b15612665576040519160c08301918383106001600160401b038411176126515760059260405283526020830190815260408301606435815260608401608435815260808501915f835260a08601935f85526004355f52600b60205260405f2096518755516001870155516002860155516003850155516004840155519101555f80f35b634e487b7160e01b5f52604160045260245ffd5b60405162461bcd60e51b81526020600482015260156024820152745472616e6368653a207969656c6420626f756e647360581b6044820152606490fd5b506127108211156125ce565b60405162461bcd60e51b815260206004820152601f60248201527f5472616e6368653a206a756e696f72206d757374207969656c64206d6f7265006044820152606490fd5b346121c25760403660031901126121c25761270c612890565b5f6040805161271a8161298b565b82815282602082015201526004355f52600860205260405f209060018060a01b03165f52602052606060405f206040516127538161298b565b815491828252604060026001830154926020850193845201549201918252604051928352516020830152516040820152f35b346121c25760403660031901126121c2576004356127a1612890565b906127aa61322c565b6127b2613252565b6127bb81612923565b5090805f52600a60205260405f205f805260205260405f2054801561285d578361282e827f23d0aada5e1a85d9dfaf50dc7ea3d6bb4e1c494148eadacd8e09efc7555aa72c96606096865f52600a60205260405f205f80526020525f6040812055600260018060a01b039101541661328a565b604080519384526001600160a01b03919091166020840152820152a160015f805160206152ec83398151915255005b60405162461bcd60e51b815260206004820152600b60248201526a59533a206e6f206665657360a81b6044820152606490fd5b602435906001600160a01b03821682036121c257565b600435906001600160a01b03821682036121c257565b60809060031901126121c25760043590602435906044359060643590565b60409060031901126121c2576004359060243590565b805180835260209291819084018484015e5f828201840152601f01601f1916010190565b6024359081151582036121c257565b60075481101561293f5760075f5260205f209060041b01905f90565b634e487b7160e01b5f52603260045260245ffd5b90600182811c92168015612981575b602083101461296d57565b634e487b7160e01b5f52602260045260245ffd5b91607f1691612962565b606081019081106001600160401b0382111761265157604052565b61020081019081106001600160401b0382111761265157604052565b90601f801991011681019081106001600160401b0382111761265157604052565b9060405191825f8254926129f684612953565b8084529360018116908115612a615750600114612a1d575b50612a1b925003836129c2565b565b90505f9291925260205f20905f915b818310612a45575050906020612a1b928201015f612a0e565b6020919350806001915483858901015201910190918492612a2c565b905060209250612a1b94915060ff191682840152151560051b8201015f612a0e565b15612a8a57565b60405162461bcd60e51b815260206004820152601260248201527159533a20736c69636520696e61637469766560701b6044820152606490fd5b15612acb57565b60405162461bcd60e51b815260206004820152600e60248201526d1654ce881e995c9bc81a5b9c1d5d60921b6044820152606490fd5b818102929181159184041417156124e957565b8115612b1e570490565b634e487b7160e01b5f52601260045260245ffd5b919082039182116124e957565b919082018092116124e957565b6001600160401b03811161265157601f01601f191660200190565b519081151582036121c257565b6020818303126121c2578051906001600160401b0382116121c2570190610300828203126121c2576040519161030083018381106001600160401b038211176126515760405280516001600160a01b03811681036121c25783526020810151602084015260408101516001600160401b0381116121c25781019180601f840112156121c2578251612c0481612b4c565b91612c1260405193846129c2565b818352602082860101116121c2576020815f92826102e097018386015e830101526040840152606081015160608401526080810151608084015260a081015160a084015260c081015160c084015260e081015160e08401526101008101516101008401526101208101516101208401526101408101516101408401526101608101516101608401526101808101516101808401526101a08101516101a08401526101c08101516101c08401526101e08101516101e0840152610200810151610200840152610220810151610220840152612cef6102408201612b67565b610240840152612d026102608201612b67565b6102608401526102808101516102808401526102a08101516102a08401526102c08101516102c084015201516102e082015290565b612d4090612923565b5060068101548015612dba575f60018060a01b0360065416925460246040518095819363eb44fdd360e01b835260048301525afa9081156121b757610140612d9c92670de0b6b3a7640000945f91612da0575b50015190612b01565b0490565b612db491503d805f833e61114181836129c2565b5f612d93565b50505f90565b15612dc757565b60405162461bcd60e51b815260206004820152600f60248201526e1654ce881e995c9bc8185b5bdd5b9d608a1b6044820152606490fd5b5f1981146124e95760010190565b6001600160401b0381116126515760051b60200190565b908160209103126121c2575190565b90612e3c82612923565b505f9283526008602090815260408085206001600160a01b0394851680875290835294819020600584015491516370a0823160e01b81526004810196909652949316929081602481865afa9081156121b7575f91613049575b5080156130415760018060a01b0360065416915f815460246040518096819363eb44fdd360e01b835260048301525afa9283156121b7575f93613025575b5061014060088201549301805190600983015480921180613018575b612f27575b50505060019250670de0b6b3a764000091612f0e91612b01565b049101548082115f14612dba57612f2491612b32565b90565b6020600496604051978880926318160ddd60e01b82525afa9586156121b7575f96612fe4575b508515612ef457612f78612f6d600d93670de0b6b3a76400009351612b32565b600685015490612b01565b04910154612710039061271082116124e95761271091612f9791612b01565b0490670de0b6b3a7640000820291808304670de0b6b3a764000014901517156124e957612fdc670de0b6b3a764000093612fd6600196612f0e95612b14565b90612b3f565b928192612ef4565b9095506020813d602011613010575b81613000602093836129c2565b810103126121c25751945f612f4d565b3d9150612ff3565b5060018301544210612eef565b61303a9193503d805f833e61114181836129c2565b915f612ed3565b505050505f90565b90506020813d602011613073575b81613064602093836129c2565b810103126121c257515f612e95565b3d9150613057565b61308490612923565b50600a81015490811580156130d1575b612dba57600b015490670de0b6b3a7640000820290828204670de0b6b3a764000014831517156124e957612f24926130cb91612b3f565b90612b14565b50600b81015415613094565b929493906060926130f9613107926080875260808701906128f0565b9085820360208701526128f0565b60408401959095526001600160a01b0316910152565b61312690612923565b5091600a83015491821580156131cc575b80156131c4575b6131ba571561318257613177600e61316e61317f946130cb8561316861271097600b8b0154612b01565b92612b3f565b94015484612b01565b048092612b32565b91565b916130cb61317f92600b6131b26131ab6127106131a3600e8801548a612b01565b048098612b32565b8093612b01565b930154612b3f565b505050505f905f90565b50811561313e565b50600b84015415613137565b156131df57565b60405162461bcd60e51b81526020600482015260156024820152741654ce881cdb1a5c1c1859d948195e18d959591959605a1b6044820152606490fd5b919081101561293f5760051b0190565b5f546001600160a01b0316330361323f57565b63118cdaa760e01b5f523360045260245ffd5b60025f805160206152ec833981519152541461327b5760025f805160206152ec83398151915255565b633ee5aeb560e01b5f5260045ffd5b916040519163a9059cbb60e01b5f5260018060a01b031660045260245260205f60448180865af19060015f51148216156132ea575b604052156132ca5750565b635274afe760e01b5f9081526001600160a01b0391909116600452602490fd5b90600181151661330257823b15153d151616906132bf565b503d5f823e3d90fd5b60ff60015460a01c1661331a57565b63d93c066560e01b5f5260045ffd5b61333281612923565b509060018201544210156134b95760018060a01b03600654165f835460246040518094819363eb44fdd360e01b835260048301525afa80156121b757610140915f9161349f575b50015191600981019182548411156134995760058201546040516318160ddd60e01b815290602090829060049082906001600160a01b03165afa9081156121b7575f91613467575b50801561346157670de0b6b3a76400006133ea6133df865488612b32565b600686015490612b01565b046133ff612710613177600d87015484612b01565b925f52600a60205260405f205f805260205261342060405f20918254612b3f565b9055670de0b6b3a7640000820291808304670de0b6b3a764000014901517156124e95761345260089161345c93612b14565b9201918254612b3f565b905555565b50505055565b90506020813d602011613491575b81613482602093836129c2565b810103126121c257515f6133c1565b3d9150613475565b50505050565b6134b391503d805f833e61114181836129c2565b5f613379565b5050565b9081156134fe57600182018083116124e95760011c825b8382106134df575050565b9092506134f5836134f08184612b14565b612b3f565b60011c906134d4565b5f9150565b6040516323b872dd60e01b5f9081526001600160a01b039384166004529290931660245260449390935260209060648180865af19060015f5114821615613554575b6040525f606052156132ca5750565b90600181151661330257823b15153d15161690613545565b60065460405163eb44fdd360e01b815260048101929092525f90829060249082906001600160a01b03165afa9081156121b7575f916135b4575b50516001600160a01b031690565b6135c891503d805f833e61114181836129c2565b5f6135a6565b6135d781612923565b505f8281526008602090815260408083206001600160a01b0380881680865291845293829020600586015492516370a0823160e01b81526004810183905291979590949093919283916024918391165afa9081156121b7575f91613750575b50801561374857670de0b6b3a7640000613657600192600885015490612b01565b0492019182548082111561373f5761366f9082612b32565b925581156136fe57600201546040516370a0823160e01b81523060048201526001600160a01b039091169190602081602481865afa9081156121b7575f9161370d575b50808211613705575b5080156136fe576136f0817fc64c05237373d420472e7259849c0a314d9c3424021920543562ceffa9b10f949460409461328a565b81519081525f6020820152a3565b5050505050565b90505f6136bb565b90506020813d602011613737575b81613728602093836129c2565b810103126121c257515f6136b2565b3d915061371b565b50505050505050565b505050505050565b90506020813d60201161377a575b8161376b602093836129c2565b810103126121c257515f613636565b3d915061375e565b600a8101548015801561383f575b612dba57600b820154670de0b6b3a76400008102818104670de0b6b3a764000014821517156124e9576130cb6137c892600194612b3f565b91015442811115613836576137de904290612b32565b905b80670de0b6b3a7640000115f1461382e57670de0b6b3a764000003670de0b6b3a764000081116124e957905b6301e133808202918083046301e1338014901517156124e957612f2491612b14565b505f9061380c565b506001906137e0565b50600b82015415613790565b80156138ed575f81805b6138d9575061386381612b4c565b9061387160405192836129c2565b808252601f1961388082612b4c565b013660208401375b8083156138d25780156124e9575f190192600a810660300191826030116124e957835185101561293f57600a9260f81b6001600160f81b0319165f1a908401601f01530491613888565b5050905090565b906138e5600a91612dfe565b910480613855565b506040516138fc6040826129c2565b60018152600360fc1b60208201529056fe60c06040523461036257610d848038038061001981610366565b9283398101906080818303126103625780516001600160401b038111610362578261004591830161038b565b602082015190926001600160401b0382116103625761006591830161038b565b60408201516060909201519091906001600160a01b03811681036103625783516001600160401b03811161027357600354600181811c91168015610358575b602082101461025557601f81116102f5575b50602094601f8211600114610292579481929394955f92610287575b50508160011b915f199060031b1c1916176003555b82516001600160401b03811161027357600454600181811c91168015610269575b602082101461025557601f81116101f2575b506020601f821160011461018f57819293945f92610184575b50508160011b915f199060031b1c1916176004555b60805260a0526040516109a790816103dd82396080518181816101520152818161019c015281816102ba01526104ef015260a051816106b50152f35b015190505f80610133565b601f1982169060045f52805f20915f5b8181106101da575095836001959697106101c2575b505050811b01600455610148565b01515f1960f88460031b161c191690555f80806101b4565b9192602060018192868b01518155019401920161019f565b60045f527f8a35acfbc15ff81a39ae7d344fd709f28e8600b4aa8c65c6b64bfe7fe36bd19b601f830160051c8101916020841061024b575b601f0160051c01905b818110610240575061011a565b5f8155600101610233565b909150819061022a565b634e487b7160e01b5f52602260045260245ffd5b90607f1690610108565b634e487b7160e01b5f52604160045260245ffd5b015190505f806100d2565b601f1982169560035f52805f20915f5b8881106102dd575083600195969798106102c5575b505050811b016003556100e7565b01515f1960f88460031b161c191690555f80806102b7565b919260206001819286850151815501940192016102a2565b60035f527fc2575a0e9e593c00f959f8c92f12db2869c3395a3b0502d05e2516446f71f85b601f830160051c8101916020841061034e575b601f0160051c01905b81811061034357506100b6565b5f8155600101610336565b909150819061032d565b90607f16906100a4565b5f80fd5b6040519190601f01601f191682016001600160401b0381118382101761027357604052565b81601f82011215610362578051906001600160401b038211610273576103ba601f8301601f1916602001610366565b928284526020838301011161036257815f9260208093018386015e830101529056fe6080806040526004361015610012575f80fd5b5f3560e01c90816306fdde031461077757508063095ea7b3146106f557806318160ddd146106d8578063204f83f91461069e57806323b872dd146105bf578063313ce567146105a457806340c10f19146104cc57806370a082311461049557806395d89b411461037a5780639dc29fac14610297578063a9059cbb14610266578063bdacb30314610181578063d10bf30e1461013d578063d33219b4146101155763dd62ed3e146100c1575f80fd5b34610111576040366003190112610111576100da610870565b6100e2610886565b6001600160a01b039182165f908152600160209081526040808320949093168252928352819020549051908152f35b5f80fd5b34610111575f366003190112610111576005546040516001600160a01b039091168152602090f35b34610111575f366003190112610111576040517f00000000000000000000000000000000000000000000000000000000000000006001600160a01b03168152602090f35b346101115760203660031901126101115761019a610870565b7f00000000000000000000000000000000000000000000000000000000000000006001600160a01b03163303610230576001600160a01b031680156101f5576bffffffffffffffffffffffff60a01b60055416176005555f80f35b60405162461bcd60e51b815260206004820152601360248201527257696b693a207a65726f2074696d656c6f636b60681b6044820152606490fd5b60405162461bcd60e51b815260206004820152600e60248201526d282a1d103737ba1039b634b1b2b960911b6044820152606490fd5b346101115760403660031901126101115761028c610282610870565b60243590336108da565b602060405160018152f35b34610111576040366003190112610111576102b0610870565b602435906102e8337f00000000000000000000000000000000000000000000000000000000000000006001600160a01b03161461089c565b6001600160a01b0316801561036757805f525f60205260405f205482811061034e576020835f947fddf252ad1be2c89b69c2b068fc378daa952ba7f163c4a11628f55a4df523b3ef938587528684520360408620558060025403600255604051908152a3005b9063391434e360e21b5f5260045260245260445260645ffd5b634b637e8f60e11b5f525f60045260245ffd5b34610111575f366003190112610111576040515f6004548060011c9060018116801561048b575b6020831081146104775782855290811561045b5750600114610406575b50819003601f01601f191681019067ffffffffffffffff8211818310176103f2576103ee82918260405282610846565b0390f35b634e487b7160e01b5f52604160045260245ffd5b905060045f527f8a35acfbc15ff81a39ae7d344fd709f28e8600b4aa8c65c6b64bfe7fe36bd19b5f905b828210610445575060209150820101826103be565b6001816020925483858801015201910190610430565b90506020925060ff191682840152151560051b820101826103be565b634e487b7160e01b5f52602260045260245ffd5b91607f16916103a1565b34610111576020366003190112610111576001600160a01b036104b6610870565b165f525f602052602060405f2054604051908152f35b34610111576040366003190112610111576104e5610870565b6024359061051d337f00000000000000000000000000000000000000000000000000000000000000006001600160a01b03161461089c565b6001600160a01b0316908115610591576002549080820180921161057d5760207fddf252ad1be2c89b69c2b068fc378daa952ba7f163c4a11628f55a4df523b3ef915f9360025584845283825260408420818154019055604051908152a3005b634e487b7160e01b5f52601160045260245ffd5b63ec442f0560e01b5f525f60045260245ffd5b34610111575f36600319011261011157602060405160128152f35b34610111576060366003190112610111576105d8610870565b6105e0610886565b6001600160a01b0382165f818152600160209081526040808320338452909152902054909260443592915f19811061061e575b5061028c93506108da565b83811061068357841561067057331561065d5761028c945f52600160205260405f2060018060a01b0333165f526020528360405f209103905584610613565b634a1406b160e11b5f525f60045260245ffd5b63e602df0560e01b5f525f60045260245ffd5b8390637dc7a0d960e11b5f523360045260245260445260645ffd5b34610111575f3660031901126101115760206040517f00000000000000000000000000000000000000000000000000000000000000008152f35b34610111575f366003190112610111576020600254604051908152f35b346101115760403660031901126101115761070e610870565b602435903315610670576001600160a01b031690811561065d57335f52600160205260405f20825f526020528060405f20556040519081527f8c5be1e5ebec7d5bd14f71427d1e84f3dd0314c0f7b2291e5b200ac8c7c3b92560203392a3602060405160018152f35b34610111575f366003190112610111575f6003548060011c9060018116801561083c575b6020831081146104775782855290811561045b57506001146107e75750819003601f01601f191681019067ffffffffffffffff8211818310176103f2576103ee82918260405282610846565b905060035f527fc2575a0e9e593c00f959f8c92f12db2869c3395a3b0502d05e2516446f71f85b5f905b828210610826575060209150820101826103be565b6001816020925483858801015201910190610811565b91607f169161079b565b602060409281835280519182918282860152018484015e5f828201840152601f01601f1916010190565b600435906001600160a01b038216820361011157565b602435906001600160a01b038216820361011157565b156108a357565b60405162461bcd60e51b815260206004820152600f60248201526e282a1d1037b7363c9039b634b1b2b960891b6044820152606490fd5b6001600160a01b0316908115610367576001600160a01b031691821561059157815f525f60205260405f205481811061095857817fddf252ad1be2c89b69c2b068fc378daa952ba7f163c4a11628f55a4df523b3ef92602092855f525f84520360405f2055845f525f825260405f20818154019055604051908152a3565b8263391434e360e21b5f5260045260245260445260645ffdfea2646970667358221220fdf0280fbc8f1f925e18bac7ae7ec091c487af2d599eeed63b9a8409c308a83264736f6c634300081a003360c06040523461035b57610c5a803803806100198161035f565b92833981019060808183031261035b5780516001600160401b03811161035b5782610045918301610384565b602082015190926001600160401b03821161035b57610065918301610384565b60408201516060909201519091906001600160a01b038116810361035b5783516001600160401b03811161026c57600354600181811c91168015610351575b602082101461024e57601f81116102ee575b50602094601f821160011461028b579481929394955f92610280575b50508160011b915f199060031b1c1916176003555b82516001600160401b03811161026c57600454600181811c91168015610262575b602082101461024e57601f81116101eb575b506020601f821160011461018857819293945f9261017d575b50508160011b915f199060031b1c1916176004555b60805260a05260405161088490816103d682396080518181816101140152818161019701526103cc015260a051816105920152f35b015190505f80610133565b601f1982169060045f52805f20915f5b8181106101d3575095836001959697106101bb575b505050811b01600455610148565b01515f1960f88460031b161c191690555f80806101ad565b9192602060018192868b015181550194019201610198565b60045f527f8a35acfbc15ff81a39ae7d344fd709f28e8600b4aa8c65c6b64bfe7fe36bd19b601f830160051c81019160208410610244575b601f0160051c01905b818110610239575061011a565b5f815560010161022c565b9091508190610223565b634e487b7160e01b5f52602260045260245ffd5b90607f1690610108565b634e487b7160e01b5f52604160045260245ffd5b015190505f806100d2565b601f1982169560035f52805f20915f5b8881106102d6575083600195969798106102be575b505050811b016003556100e7565b01515f1960f88460031b161c191690555f80806102b0565b9192602060018192868501518155019401920161029b565b60035f527fc2575a0e9e593c00f959f8c92f12db2869c3395a3b0502d05e2516446f71f85b601f830160051c81019160208410610347575b601f0160051c01905b81811061033c57506100b6565b5f815560010161032f565b9091508190610326565b90607f16906100a4565b5f80fd5b6040519190601f01601f191682016001600160401b0381118382101761026c57604052565b81601f8201121561035b578051906001600160401b03821161026c576103b3601f8301601f191660200161035f565b928284526020838301011161035b57815f9260208093018386015e830101529056fe6080806040526004361015610012575f80fd5b5f3560e01c90816306fdde031461065457508063095ea7b3146105d257806318160ddd146105b5578063204f83f91461057b57806323b872dd1461049c578063313ce5671461048157806340c10f19146103a957806370a082311461037257806395d89b41146102575780639dc29fac14610174578063a9059cbb14610143578063d10bf30e146100ff5763dd62ed3e146100ab575f80fd5b346100fb5760403660031901126100fb576100c461074d565b6100cc610763565b6001600160a01b039182165f908152600160209081526040808320949093168252928352819020549051908152f35b5f80fd5b346100fb575f3660031901126100fb576040517f00000000000000000000000000000000000000000000000000000000000000006001600160a01b03168152602090f35b346100fb5760403660031901126100fb5761016961015f61074d565b60243590336107b7565b602060405160018152f35b346100fb5760403660031901126100fb5761018d61074d565b602435906101c5337f00000000000000000000000000000000000000000000000000000000000000006001600160a01b031614610779565b6001600160a01b0316801561024457805f525f60205260405f205482811061022b576020835f947fddf252ad1be2c89b69c2b068fc378daa952ba7f163c4a11628f55a4df523b3ef938587528684520360408620558060025403600255604051908152a3005b9063391434e360e21b5f5260045260245260445260645ffd5b634b637e8f60e11b5f525f60045260245ffd5b346100fb575f3660031901126100fb576040515f6004548060011c90600181168015610368575b6020831081146103545782855290811561033857506001146102e3575b50819003601f01601f191681019067ffffffffffffffff8211818310176102cf576102cb82918260405282610723565b0390f35b634e487b7160e01b5f52604160045260245ffd5b905060045f527f8a35acfbc15ff81a39ae7d344fd709f28e8600b4aa8c65c6b64bfe7fe36bd19b5f905b8282106103225750602091508201018261029b565b600181602092548385880101520191019061030d565b90506020925060ff191682840152151560051b8201018261029b565b634e487b7160e01b5f52602260045260245ffd5b91607f169161027e565b346100fb5760203660031901126100fb576001600160a01b0361039361074d565b165f525f602052602060405f2054604051908152f35b346100fb5760403660031901126100fb576103c261074d565b602435906103fa337f00000000000000000000000000000000000000000000000000000000000000006001600160a01b031614610779565b6001600160a01b031690811561046e576002549080820180921161045a5760207fddf252ad1be2c89b69c2b068fc378daa952ba7f163c4a11628f55a4df523b3ef915f9360025584845283825260408420818154019055604051908152a3005b634e487b7160e01b5f52601160045260245ffd5b63ec442f0560e01b5f525f60045260245ffd5b346100fb575f3660031901126100fb57602060405160128152f35b346100fb5760603660031901126100fb576104b561074d565b6104bd610763565b6001600160a01b0382165f818152600160209081526040808320338452909152902054909260443592915f1981106104fb575b5061016993506107b7565b83811061056057841561054d57331561053a57610169945f52600160205260405f2060018060a01b0333165f526020528360405f2091039055846104f0565b634a1406b160e11b5f525f60045260245ffd5b63e602df0560e01b5f525f60045260245ffd5b8390637dc7a0d960e11b5f523360045260245260445260645ffd5b346100fb575f3660031901126100fb5760206040517f00000000000000000000000000000000000000000000000000000000000000008152f35b346100fb575f3660031901126100fb576020600254604051908152f35b346100fb5760403660031901126100fb576105eb61074d565b60243590331561054d576001600160a01b031690811561053a57335f52600160205260405f20825f526020528060405f20556040519081527f8c5be1e5ebec7d5bd14f71427d1e84f3dd0314c0f7b2291e5b200ac8c7c3b92560203392a3602060405160018152f35b346100fb575f3660031901126100fb575f6003548060011c90600181168015610719575b6020831081146103545782855290811561033857506001146106c45750819003601f01601f191681019067ffffffffffffffff8211818310176102cf576102cb82918260405282610723565b905060035f527fc2575a0e9e593c00f959f8c92f12db2869c3395a3b0502d05e2516446f71f85b5f905b8282106107035750602091508201018261029b565b60018160209254838588010152019101906106ee565b91607f1691610678565b602060409281835280519182918282860152018484015e5f828201840152601f01601f1916010190565b600435906001600160a01b03821682036100fb57565b602435906001600160a01b03821682036100fb57565b1561078057565b60405162461bcd60e51b815260206004820152600f60248201526e2caa1d1037b7363c9039b634b1b2b960891b6044820152606490fd5b6001600160a01b0316908115610244576001600160a01b031691821561046e57815f525f60205260405f205481811061083557817fddf252ad1be2c89b69c2b068fc378daa952ba7f163c4a11628f55a4df523b3ef92602092855f525f84520360405f2055845f525f825260405f20818154019055604051908152a3565b8263391434e360e21b5f5260045260245260445260645ffdfea26469706673582212205aeb4fc59bf79f071f59111a02c13e05563caf4d2fc47e7f8fa390fec834d8e664736f6c634300081a00339b779b17422d0df92223018b32b4d1fa46e071723d6817e2486d003becc55f00a2646970667358221220876c4fdaaa960bba4dec2ecb263e0991752ecb7188a1987cb6e678d0901db56064736f6c634300081a0033",
  "linkReferences": {},
  "deployedLinkReferences": {}
}