{
  "_format": "hh-sol-artifact-1",
  "contractName": "YieldToken",
  "sourceName": "src/WikiYieldSlice.sol",
  "abi": [
    {
      "inputs": [
        {
          "internalType": "string",
          "name": "name",
          "type": "string"
        },
        {
          "internalType": "string",
          "name": "symbol",
          "type": "string"
        },
        {
          "internalType": "uint256",
          "name": "_maturity",
          "type": "uint256"
        },
        {
          "internalType": "address",
          "name": "_slicer",
          "type": "address"
        }
      ],
      "stateMutability": "nonpayable",
      "type": "constructor"
    },
    {
      "inputs": [
        {
          "internalType": "address",
          "name": "spender",
          "type": "address"
        },
        {
          "internalType": "uint256",
          "name": "allowance",
          "type": "uint256"
        },
        {
          "internalType": "uint256",
          "name": "needed",
          "type": "uint256"
        }
      ],
      "name": "ERC20InsufficientAllowance",
      "type": "error"
    },
    {
      "inputs": [
        {
          "internalType": "address",
          "name": "sender",
          "type": "address"
        },
        {
          "internalType": "uint256",
          "name": "balance",
          "type": "uint256"
        },
        {
          "internalType": "uint256",
          "name": "needed",
          "type": "uint256"
        }
      ],
      "name": "ERC20InsufficientBalance",
      "type": "error"
    },
    {
      "inputs": [
        {
          "internalType": "address",
          "name": "approver",
          "type": "address"
        }
      ],
      "name": "ERC20InvalidApprover",
      "type": "error"
    },
    {
      "inputs": [
        {
          "internalType": "address",
          "name": "receiver",
          "type": "address"
        }
      ],
      "name": "ERC20InvalidReceiver",
      "type": "error"
    },
    {
      "inputs": [
        {
          "internalType": "address",
          "name": "sender",
          "type": "address"
        }
      ],
      "name": "ERC20InvalidSender",
      "type": "error"
    },
    {
      "inputs": [
        {
          "internalType": "address",
          "name": "spender",
          "type": "address"
        }
      ],
      "name": "ERC20InvalidSpender",
      "type": "error"
    },
    {
      "anonymous": false,
      "inputs": [
        {
          "indexed": true,
          "internalType": "address",
          "name": "owner",
          "type": "address"
        },
        {
          "indexed": true,
          "internalType": "address",
          "name": "spender",
          "type": "address"
        },
        {
          "indexed": false,
          "internalType": "uint256",
          "name": "value",
          "type": "uint256"
        }
      ],
      "name": "Approval",
      "type": "event"
    },
    {
      "anonymous": false,
      "inputs": [
        {
          "indexed": true,
          "internalType": "address",
          "name": "from",
          "type": "address"
        },
        {
          "indexed": true,
          "internalType": "address",
          "name": "to",
          "type": "address"
        },
        {
          "indexed": false,
          "internalType": "uint256",
          "name": "value",
          "type": "uint256"
        }
      ],
      "name": "Transfer",
      "type": "event"
    },
    {
      "inputs": [
        {
          "internalType": "address",
          "name": "owner",
          "type": "address"
        },
        {
          "internalType": "address",
          "name": "spender",
          "type": "address"
        }
      ],
      "name": "allowance",
      "outputs": [
        {
          "internalType": "uint256",
          "name": "",
          "type": "uint256"
        }
      ],
      "stateMutability": "view",
      "type": "function"
    },
    {
      "inputs": [
        {
          "internalType": "address",
          "name": "spender",
          "type": "address"
        },
        {
          "internalType": "uint256",
          "name": "value",
          "type": "uint256"
        }
      ],
      "name": "approve",
      "outputs": [
        {
          "internalType": "bool",
          "name": "",
          "type": "bool"
        }
      ],
      "stateMutability": "nonpayable",
      "type": "function"
    },
    {
      "inputs": [
        {
          "internalType": "address",
          "name": "account",
          "type": "address"
        }
      ],
      "name": "balanceOf",
      "outputs": [
        {
          "internalType": "uint256",
          "name": "",
          "type": "uint256"
        }
      ],
      "stateMutability": "view",
      "type": "function"
    },
    {
      "inputs": [
        {
          "internalType": "address",
          "name": "from",
          "type": "address"
        },
        {
          "internalType": "uint256",
          "name": "amount",
          "type": "uint256"
        }
      ],
      "name": "burn",
      "outputs": [],
      "stateMutability": "nonpayable",
      "type": "function"
    },
    {
      "inputs": [],
      "name": "decimals",
      "outputs": [
        {
          "internalType": "uint8",
          "name": "",
          "type": "uint8"
        }
      ],
      "stateMutability": "view",
      "type": "function"
    },
    {
      "inputs": [],
      "name": "maturity",
      "outputs": [
        {
          "internalType": "uint256",
          "name": "",
          "type": "uint256"
        }
      ],
      "stateMutability": "view",
      "type": "function"
    },
    {
      "inputs": [
        {
          "internalType": "address",
          "name": "to",
          "type": "address"
        },
        {
          "internalType": "uint256",
          "name": "amount",
          "type": "uint256"
        }
      ],
      "name": "mint",
      "outputs": [],
      "stateMutability": "nonpayable",
      "type": "function"
    },
    {
      "inputs": [],
      "name": "name",
      "outputs": [
        {
          "internalType": "string",
          "name": "",
          "type": "string"
        }
      ],
      "stateMutability": "view",
      "type": "function"
    },
    {
      "inputs": [],
      "name": "slicer",
      "outputs": [
        {
          "internalType": "address",
          "name": "",
          "type": "address"
        }
      ],
      "stateMutability": "view",
      "type": "function"
    },
    {
      "inputs": [],
      "name": "symbol",
      "outputs": [
        {
          "internalType": "string",
          "name": "",
          "type": "string"
        }
      ],
      "stateMutability": "view",
      "type": "function"
    },
    {
      "inputs": [],
      "name": "totalSupply",
      "outputs": [
        {
          "internalType": "uint256",
          "name": "",
          "type": "uint256"
        }
      ],
      "stateMutability": "view",
      "type": "function"
    },
    {
      "inputs": [
        {
          "internalType": "address",
          "name": "to",
          "type": "address"
        },
        {
          "internalType": "uint256",
          "name": "value",
          "type": "uint256"
        }
      ],
      "name": "transfer",
      "outputs": [
        {
          "internalType": "bool",
          "name": "",
          "type": "bool"
        }
      ],
      "stateMutability": "nonpayable",
      "type": "function"
    },
    {
      "inputs": [
        {
          "internalType": "address",
          "name": "from",
          "type": "address"
        },
        {
          "internalType": "address",
          "name": "to",
          "type": "address"
        },
        {
          "internalType": "uint256",
          "name": "value",
          "type": "uint256"
        }
      ],
      "name": "transferFrom",
      "outputs": [
        {
          "internalType": "bool",
          "name": "",
          "type": "bool"
        }
      ],
      "stateMutability": "nonpayable",
      "type": "function"
    }
  ],
  "bytecode": "0x60c06040523461035b57610c5a803803806100198161035f565b92833981019060808183031261035b5780516001600160401b03811161035b5782610045918301610384565b602082015190926001600160401b03821161035b57610065918301610384565b60408201516060909201519091906001600160a01b038116810361035b5783516001600160401b03811161026c57600354600181811c91168015610351575b602082101461024e57601f81116102ee575b50602094601f821160011461028b579481929394955f92610280575b50508160011b915f199060031b1c1916176003555b82516001600160401b03811161026c57600454600181811c91168015610262575b602082101461024e57601f81116101eb575b506020601f821160011461018857819293945f9261017d575b50508160011b915f199060031b1c1916176004555b60805260a05260405161088490816103d682396080518181816101140152818161019701526103cc015260a051816105920152f35b015190505f80610133565b601f1982169060045f52805f20915f5b8181106101d3575095836001959697106101bb575b505050811b01600455610148565b01515f1960f88460031b161c191690555f80806101ad565b9192602060018192868b015181550194019201610198565b60045f527f8a35acfbc15ff81a39ae7d344fd709f28e8600b4aa8c65c6b64bfe7fe36bd19b601f830160051c81019160208410610244575b601f0160051c01905b818110610239575061011a565b5f815560010161022c565b9091508190610223565b634e487b7160e01b5f52602260045260245ffd5b90607f1690610108565b634e487b7160e01b5f52604160045260245ffd5b015190505f806100d2565b601f1982169560035f52805f20915f5b8881106102d6575083600195969798106102be575b505050811b016003556100e7565b01515f1960f88460031b161c191690555f80806102b0565b9192602060018192868501518155019401920161029b565b60035f527fc2575a0e9e593c00f959f8c92f12db2869c3395a3b0502d05e2516446f71f85b601f830160051c81019160208410610347575b601f0160051c01905b81811061033c57506100b6565b5f815560010161032f565b9091508190610326565b90607f16906100a4565b5f80fd5b6040519190601f01601f191682016001600160401b0381118382101761026c57604052565b81601f8201121561035b578051906001600160401b03821161026c576103b3601f8301601f191660200161035f565b928284526020838301011161035b57815f9260208093018386015e830101529056fe6080806040526004361015610012575f80fd5b5f3560e01c90816306fdde031461065457508063095ea7b3146105d257806318160ddd146105b5578063204f83f91461057b57806323b872dd1461049c578063313ce5671461048157806340c10f19146103a957806370a082311461037257806395d89b41146102575780639dc29fac14610174578063a9059cbb14610143578063d10bf30e146100ff5763dd62ed3e146100ab575f80fd5b346100fb5760403660031901126100fb576100c461074d565b6100cc610763565b6001600160a01b039182165f908152600160209081526040808320949093168252928352819020549051908152f35b5f80fd5b346100fb575f3660031901126100fb576040517f00000000000000000000000000000000000000000000000000000000000000006001600160a01b03168152602090f35b346100fb5760403660031901126100fb5761016961015f61074d565b60243590336107b7565b602060405160018152f35b346100fb5760403660031901126100fb5761018d61074d565b602435906101c5337f00000000000000000000000000000000000000000000000000000000000000006001600160a01b031614610779565b6001600160a01b0316801561024457805f525f60205260405f205482811061022b576020835f947fddf252ad1be2c89b69c2b068fc378daa952ba7f163c4a11628f55a4df523b3ef938587528684520360408620558060025403600255604051908152a3005b9063391434e360e21b5f5260045260245260445260645ffd5b634b637e8f60e11b5f525f60045260245ffd5b346100fb575f3660031901126100fb576040515f6004548060011c90600181168015610368575b6020831081146103545782855290811561033857506001146102e3575b50819003601f01601f191681019067ffffffffffffffff8211818310176102cf576102cb82918260405282610723565b0390f35b634e487b7160e01b5f52604160045260245ffd5b905060045f527f8a35acfbc15ff81a39ae7d344fd709f28e8600b4aa8c65c6b64bfe7fe36bd19b5f905b8282106103225750602091508201018261029b565b600181602092548385880101520191019061030d565b90506020925060ff191682840152151560051b8201018261029b565b634e487b7160e01b5f52602260045260245ffd5b91607f169161027e565b346100fb5760203660031901126100fb576001600160a01b0361039361074d565b165f525f602052602060405f2054604051908152f35b346100fb5760403660031901126100fb576103c261074d565b602435906103fa337f00000000000000000000000000000000000000000000000000000000000000006001600160a01b031614610779565b6001600160a01b031690811561046e576002549080820180921161045a5760207fddf252ad1be2c89b69c2b068fc378daa952ba7f163c4a11628f55a4df523b3ef915f9360025584845283825260408420818154019055604051908152a3005b634e487b7160e01b5f52601160045260245ffd5b63ec442f0560e01b5f525f60045260245ffd5b346100fb575f3660031901126100fb57602060405160128152f35b346100fb5760603660031901126100fb576104b561074d565b6104bd610763565b6001600160a01b0382165f818152600160209081526040808320338452909152902054909260443592915f1981106104fb575b5061016993506107b7565b83811061056057841561054d57331561053a57610169945f52600160205260405f2060018060a01b0333165f526020528360405f2091039055846104f0565b634a1406b160e11b5f525f60045260245ffd5b63e602df0560e01b5f525f60045260245ffd5b8390637dc7a0d960e11b5f523360045260245260445260645ffd5b346100fb575f3660031901126100fb5760206040517f00000000000000000000000000000000000000000000000000000000000000008152f35b346100fb575f3660031901126100fb576020600254604051908152f35b346100fb5760403660031901126100fb576105eb61074d565b60243590331561054d576001600160a01b031690811561053a57335f52600160205260405f20825f526020528060405f20556040519081527f8c5be1e5ebec7d5bd14f71427d1e84f3dd0314c0f7b2291e5b200ac8c7c3b92560203392a3602060405160018152f35b346100fb575f3660031901126100fb575f6003548060011c90600181168015610719575b6020831081146103545782855290811561033857506001146106c45750819003601f01601f191681019067ffffffffffffffff8211818310176102cf576102cb82918260405282610723565b905060035f527fc2575a0e9e593c00f959f8c92f12db2869c3395a3b0502d05e2516446f71f85b5f905b8282106107035750602091508201018261029b565b60018160209254838588010152019101906106ee565b91607f1691610678565b602060409281835280519182918282860152018484015e5f828201840152601f01601f1916010190565b600435906001600160a01b03821682036100fb57565b602435906001600160a01b03821682036100fb57565b1561078057565b60405162461bcd60e51b815260206004820152600f60248201526e2caa1d1037b7363c9039b634b1b2b960891b6044820152606490fd5b6001600160a01b0316908115610244576001600160a01b031691821561046e57815f525f60205260405f205481811061083557817fddf252ad1be2c89b69c2b068fc378daa952ba7f163c4a11628f55a4df523b3ef92602092855f525f84520360405f2055845f525f825260405f20818154019055604051908152a3565b8263391434e360e21b5f5260045260245260445260645ffdfea26469706673582212205aeb4fc59bf79f071f59111a02c13e05563caf4d2fc47e7f8fa390fec834d8e664736f6c634300081a0033",
  "linkReferences": {},
  "deployedLinkReferences": {}
}