{
  "_format": "hh-sol-artifact-1",
  "contractName": "WikiSmartOrderRouter",
  "sourceName": "src/WikiSmartOrderRouter.sol",
  "abi": [
    {
      "inputs": [
        {
          "internalType": "address",
          "name": "_wikiSpot",
          "type": "address"
        },
        {
          "internalType": "address",
          "name": "_treasury",
          "type": "address"
        },
        {
          "internalType": "address",
          "name": "_owner",
          "type": "address"
        }
      ],
      "stateMutability": "nonpayable",
      "type": "constructor"
    },
    {
      "inputs": [],
      "name": "EnforcedPause",
      "type": "error"
    },
    {
      "inputs": [],
      "name": "ExpectedPause",
      "type": "error"
    },
    {
      "inputs": [
        {
          "internalType": "address",
          "name": "owner",
          "type": "address"
        }
      ],
      "name": "OwnableInvalidOwner",
      "type": "error"
    },
    {
      "inputs": [
        {
          "internalType": "address",
          "name": "account",
          "type": "address"
        }
      ],
      "name": "OwnableUnauthorizedAccount",
      "type": "error"
    },
    {
      "inputs": [],
      "name": "ReentrancyGuardReentrantCall",
      "type": "error"
    },
    {
      "inputs": [
        {
          "internalType": "address",
          "name": "token",
          "type": "address"
        }
      ],
      "name": "SafeERC20FailedOperation",
      "type": "error"
    },
    {
      "anonymous": false,
      "inputs": [
        {
          "indexed": true,
          "internalType": "address",
          "name": "previousOwner",
          "type": "address"
        },
        {
          "indexed": true,
          "internalType": "address",
          "name": "newOwner",
          "type": "address"
        }
      ],
      "name": "OwnershipTransferStarted",
      "type": "event"
    },
    {
      "anonymous": false,
      "inputs": [
        {
          "indexed": true,
          "internalType": "address",
          "name": "previousOwner",
          "type": "address"
        },
        {
          "indexed": true,
          "internalType": "address",
          "name": "newOwner",
          "type": "address"
        }
      ],
      "name": "OwnershipTransferred",
      "type": "event"
    },
    {
      "anonymous": false,
      "inputs": [
        {
          "indexed": false,
          "internalType": "address",
          "name": "account",
          "type": "address"
        }
      ],
      "name": "Paused",
      "type": "event"
    },
    {
      "anonymous": false,
      "inputs": [
        {
          "indexed": true,
          "internalType": "address",
          "name": "user",
          "type": "address"
        },
        {
          "indexed": false,
          "internalType": "address",
          "name": "tokenIn",
          "type": "address"
        },
        {
          "indexed": false,
          "internalType": "address",
          "name": "tokenOut",
          "type": "address"
        },
        {
          "indexed": false,
          "internalType": "uint256",
          "name": "amountIn",
          "type": "uint256"
        },
        {
          "indexed": false,
          "internalType": "uint256",
          "name": "amountOut",
          "type": "uint256"
        },
        {
          "indexed": false,
          "internalType": "enum WikiSmartOrderRouter.Route",
          "name": "route",
          "type": "uint8"
        },
        {
          "indexed": false,
          "internalType": "uint256",
          "name": "fee",
          "type": "uint256"
        }
      ],
      "name": "Routed",
      "type": "event"
    },
    {
      "anonymous": false,
      "inputs": [
        {
          "indexed": false,
          "internalType": "address",
          "name": "account",
          "type": "address"
        }
      ],
      "name": "Unpaused",
      "type": "event"
    },
    {
      "inputs": [],
      "name": "AGGREGATOR_FEE_BPS",
      "outputs": [
        {
          "internalType": "uint256",
          "name": "",
          "type": "uint256"
        }
      ],
      "stateMutability": "view",
      "type": "function"
    },
    {
      "inputs": [],
      "name": "BPS",
      "outputs": [
        {
          "internalType": "uint256",
          "name": "",
          "type": "uint256"
        }
      ],
      "stateMutability": "view",
      "type": "function"
    },
    {
      "inputs": [],
      "name": "UNI_QUOTER",
      "outputs": [
        {
          "internalType": "contract IUniV3Quoter",
          "name": "",
          "type": "address"
        }
      ],
      "stateMutability": "view",
      "type": "function"
    },
    {
      "inputs": [],
      "name": "UNI_ROUTER",
      "outputs": [
        {
          "internalType": "contract IUniV3Router",
          "name": "",
          "type": "address"
        }
      ],
      "stateMutability": "view",
      "type": "function"
    },
    {
      "inputs": [],
      "name": "WETH",
      "outputs": [
        {
          "internalType": "address",
          "name": "",
          "type": "address"
        }
      ],
      "stateMutability": "view",
      "type": "function"
    },
    {
      "inputs": [],
      "name": "acceptOwnership",
      "outputs": [],
      "stateMutability": "nonpayable",
      "type": "function"
    },
    {
      "inputs": [
        {
          "internalType": "address",
          "name": "tokenIn",
          "type": "address"
        },
        {
          "internalType": "address",
          "name": "tokenOut",
          "type": "address"
        },
        {
          "internalType": "uint256",
          "name": "amountIn",
          "type": "uint256"
        }
      ],
      "name": "getBestQuote",
      "outputs": [
        {
          "components": [
            {
              "internalType": "enum WikiSmartOrderRouter.Route",
              "name": "route",
              "type": "uint8"
            },
            {
              "internalType": "uint256",
              "name": "amountOut",
              "type": "uint256"
            },
            {
              "internalType": "uint256",
              "name": "fee",
              "type": "uint256"
            },
            {
              "internalType": "uint256",
              "name": "gasEst",
              "type": "uint256"
            }
          ],
          "internalType": "struct WikiSmartOrderRouter.RouteQuote",
          "name": "best",
          "type": "tuple"
        }
      ],
      "stateMutability": "nonpayable",
      "type": "function"
    },
    {
      "inputs": [],
      "name": "owner",
      "outputs": [
        {
          "internalType": "address",
          "name": "",
          "type": "address"
        }
      ],
      "stateMutability": "view",
      "type": "function"
    },
    {
      "inputs": [],
      "name": "pause",
      "outputs": [],
      "stateMutability": "nonpayable",
      "type": "function"
    },
    {
      "inputs": [],
      "name": "paused",
      "outputs": [
        {
          "internalType": "bool",
          "name": "",
          "type": "bool"
        }
      ],
      "stateMutability": "view",
      "type": "function"
    },
    {
      "inputs": [],
      "name": "pendingOwner",
      "outputs": [
        {
          "internalType": "address",
          "name": "",
          "type": "address"
        }
      ],
      "stateMutability": "view",
      "type": "function"
    },
    {
      "inputs": [
        {
          "internalType": "bytes32",
          "name": "",
          "type": "bytes32"
        }
      ],
      "name": "poolMappings",
      "outputs": [
        {
          "internalType": "uint256",
          "name": "wikiPoolId",
          "type": "uint256"
        },
        {
          "internalType": "uint24",
          "name": "uniFeeTier",
          "type": "uint24"
        },
        {
          "internalType": "address",
          "name": "curvePool",
          "type": "address"
        },
        {
          "internalType": "int128",
          "name": "curveI",
          "type": "int128"
        },
        {
          "internalType": "int128",
          "name": "curveJ",
          "type": "int128"
        }
      ],
      "stateMutability": "view",
      "type": "function"
    },
    {
      "inputs": [],
      "name": "renounceOwnership",
      "outputs": [],
      "stateMutability": "nonpayable",
      "type": "function"
    },
    {
      "inputs": [
        {
          "internalType": "enum WikiSmartOrderRouter.Route",
          "name": "",
          "type": "uint8"
        }
      ],
      "name": "routeVolume",
      "outputs": [
        {
          "internalType": "uint256",
          "name": "",
          "type": "uint256"
        }
      ],
      "stateMutability": "view",
      "type": "function"
    },
    {
      "inputs": [
        {
          "internalType": "address",
          "name": "tokenA",
          "type": "address"
        },
        {
          "internalType": "address",
          "name": "tokenB",
          "type": "address"
        },
        {
          "internalType": "uint256",
          "name": "wikiPoolId",
          "type": "uint256"
        },
        {
          "internalType": "uint24",
          "name": "uniFee",
          "type": "uint24"
        },
        {
          "internalType": "address",
          "name": "curvePool",
          "type": "address"
        },
        {
          "internalType": "int128",
          "name": "curveI",
          "type": "int128"
        },
        {
          "internalType": "int128",
          "name": "curveJ",
          "type": "int128"
        }
      ],
      "name": "setPoolMapping",
      "outputs": [],
      "stateMutability": "nonpayable",
      "type": "function"
    },
    {
      "inputs": [
        {
          "internalType": "address",
          "name": "t",
          "type": "address"
        }
      ],
      "name": "setTreasury",
      "outputs": [],
      "stateMutability": "nonpayable",
      "type": "function"
    },
    {
      "inputs": [
        {
          "internalType": "address",
          "name": "s",
          "type": "address"
        }
      ],
      "name": "setWikiSpot",
      "outputs": [],
      "stateMutability": "nonpayable",
      "type": "function"
    },
    {
      "inputs": [
        {
          "internalType": "address",
          "name": "tokenIn",
          "type": "address"
        },
        {
          "internalType": "address",
          "name": "tokenOut",
          "type": "address"
        },
        {
          "internalType": "uint256",
          "name": "amountIn",
          "type": "uint256"
        },
        {
          "internalType": "uint256",
          "name": "minOut",
          "type": "uint256"
        },
        {
          "internalType": "uint256",
          "name": "deadline",
          "type": "uint256"
        }
      ],
      "name": "swap",
      "outputs": [
        {
          "internalType": "uint256",
          "name": "amountOut",
          "type": "uint256"
        }
      ],
      "stateMutability": "nonpayable",
      "type": "function"
    },
    {
      "inputs": [],
      "name": "totalFeesCollected",
      "outputs": [
        {
          "internalType": "uint256",
          "name": "",
          "type": "uint256"
        }
      ],
      "stateMutability": "view",
      "type": "function"
    },
    {
      "inputs": [],
      "name": "totalRouted",
      "outputs": [
        {
          "internalType": "uint256",
          "name": "",
          "type": "uint256"
        }
      ],
      "stateMutability": "view",
      "type": "function"
    },
    {
      "inputs": [
        {
          "internalType": "address",
          "name": "newOwner",
          "type": "address"
        }
      ],
      "name": "transferOwnership",
      "outputs": [],
      "stateMutability": "nonpayable",
      "type": "function"
    },
    {
      "inputs": [],
      "name": "treasury",
      "outputs": [
        {
          "internalType": "address",
          "name": "",
          "type": "address"
        }
      ],
      "stateMutability": "view",
      "type": "function"
    },
    {
      "inputs": [],
      "name": "unpause",
      "outputs": [],
      "stateMutability": "nonpayable",
      "type": "function"
    },
    {
      "inputs": [],
      "name": "wikiSpot",
      "outputs": [
        {
          "internalType": "contract IWikiSpot",
          "name": "",
          "type": "address"
        }
      ],
      "stateMutability": "view",
      "type": "function"
    }
  ],
  "bytecode": "0x6080346101d057601f6116ae38819003918201601f19168301916001600160401b038311848410176101d4578084926060946040528339810103126101d057610047816101e8565b90610054602082016101e8565b906001600160a01b039061006a906040016101e8565b169182156101bd57600180546001600160a01b03199081169091555f80549182168517815560405194916001600160a01b0316907f8be0079c531659141344cd1fd0a4f28419497f9722a3daafe3b4186f6b6457e09080a360017f9b779b17422d0df92223018b32b4d1fa46e071723d6817e2486d003becc55f00556001600160a01b031691821561017b57506001600160a01b03169081156101365760018060a01b0319600254161760025560018060a01b031960045416176004556040516114b190816101fd8239f35b60405162461bcd60e51b815260206004820152601460248201527f57696b693a207a65726f205f74726561737572790000000000000000000000006044820152606490fd5b62461bcd60e51b815260206004820152601460248201527f57696b693a207a65726f205f77696b6953706f740000000000000000000000006044820152606490fd5b631e4fbdf760e01b5f525f60045260245ffd5b5f80fd5b634e487b7160e01b5f52604160045260245ffd5b51906001600160a01b03821682036101d05756fe6080806040526004361015610012575f80fd5b5f3560e01c9081630860fa9e14610f16575080630f32f5e214610eb05780631700b07914610e93578063228c04b814610e36578063249d39e914610e1a5780633f4ba83a14610dac5780635c975abb14610d8757806360c6d8ae14610d6a57806361d027b314610d42578063715018a614610cdf57806379ba509714610c5a5780637a950f99146105325780637d361459146104ef5780638456cb591461048e5780638da5cb5b1461046757806390ef41921461043f578063ad5c464814610411578063b311860d146103e3578063b976b69d1461025f578063dc811d8b1461022e578063e30c397814610206578063ee0ab465146101d8578063f0f44260146101955763f2fde38b14610124575f80fd5b346101915760203660031901126101915761013d610f2f565b6101456113d2565b60018060a01b0316806001600160601b0360a01b600154161760015560018060a01b035f54167f38d16b8cac22d99fc7c124b9cd0de2d3fa1faef420bfe791d8c362d765e227005f80a3005b5f80fd5b34610191576020366003190112610191576101ae610f2f565b6101b66113d2565b600480546001600160a01b0319166001600160a01b0392909216919091179055005b34610191575f36600319011261019157602060405173e592427a0aece92de3edee1f18e0157c058615648152f35b34610191575f366003190112610191576001546040516001600160a01b039091168152602090f35b3461019157602036600319011261019157600435600581101561019157610256602091610f68565b54604051908152f35b346101915760e036600319011261019157610278610f2f565b610280610f45565b906064359162ffffff8316809303610191576084356001600160a01b038116908190036101915760a4359283600f0b8094036101915760c4359283600f0b80940361019157610313610305916102d46113d2565b6001600160a01b03818116908516109384156103dc5780945b156103d557505b604051928391602083019586610fca565b03601f198101835282610f9b565b519020926040519460a086019286841067ffffffffffffffff8511176103c1576002956fffffffffffffffffffffffffffffffff946040526044358852602088019283526040880191825260608801938452608088019586525f52600360205260405f209651875562ffffff600188019251168254916301000000600160b81b03905160181b169168ffffffffffffffffff60b81b161717905551918119905160801b169116179101555f80f35b634e487b7160e01b5f52604160045260245ffd5b90506102f4565b81946102ed565b34610191575f3660031901126101915760206040517361ffe014ba17989e743c5f6cb21bf9697530b21e8152f35b34610191575f3660031901126101915760206040517382af49447d8a07e3bd95bd0d56f35241523fbab18152f35b34610191575f366003190112610191576002546040516001600160a01b039091168152602090f35b34610191575f366003190112610191575f546040516001600160a01b039091168152602090f35b34610191575f366003190112610191576104a66113d2565b6104ae6113e5565b6001805460ff60a01b1916600160a01b1790556040513381527f62e78cea01bee320cd4e420270b5ea74000d11b0c9f74754ebdbfc544b05a25890602090a1005b3461019157602036600319011261019157610508610f2f565b6105106113d2565b600280546001600160a01b0319166001600160a01b0392909216919091179055005b346101915760a03660031901126101915761054b610f2f565b610553610f45565b9060443591606435906084359060027f9b779b17422d0df92223018b32b4d1fa46e071723d6817e2486d003becc55f005414610c4b5760027f9b779b17422d0df92223018b32b4d1fa46e071723d6817e2486d003becc55f00556105b56113e5565b6040516323b872dd60e01b5f908152336004523060245260448790526001600160a01b03861694919060209060648180895af19060015f5114821615610c2a575b6040525f60605215610c17576007860286810460071487151715610c03576127109004926106248488610fbd565b60045461063c9086906001600160a01b031688611403565b610648856006546113ad565b600655610656888589610ff6565b9683602089015110610bc5576001600160a01b0385169485881091610305916106989184156103dc578094156103d55750604051928391602083019586610fca565b5190205f52600360205260405f209187516005811015610806576108825760025460405163095ea7b360e01b81526001600160a01b03909116600482015260248101839052906020826044815f8c5af1801561084c5760209460c4935f92610857575b5060018060a01b03600254169054926040519788968795630c76695b60e21b875260048701528c60248701526044860152606485015233608485015260a48401525af190811561084c575f9161081a575b50935b61075b866005546113ad565b600555805160058110156108065761077290610f68565b61077d8782546113ad565b9055516005811015610806576020956107af926040519586528786015260408501528460608501526080840190610f5b565b60a08201527f9e2e7a3965e6751f04fedc25f5e786a8fed2305d44009ecc591df2c53c18be9060c03392a260017f9b779b17422d0df92223018b32b4d1fa46e071723d6817e2486d003becc55f0055604051908152f35b634e487b7160e01b5f52602160045260245ffd5b90506020813d602011610844575b8161083560209383610f9b565b8101031261019157518661074c565b3d9150610828565b6040513d5f823e3d90fd5b61087690873d891161087b575b61086e8183610f9b565b8101906113ba565b6106fb565b503d610864565b92909187516005811015610806576001148015610bb1575b15610a3e57508651600581101561080657600103610a35576101f4915b60405163095ea7b360e01b815273e592427a0aece92de3edee1f18e0157c058615646004820152602481018290526020816044815f8c5af1801561084c57610a18575b5060405193610100850185811067ffffffffffffffff8211176103c1576040908152888652602080870188815261ffff90961687830190815233606089019081526080890194855260a0890195865260c089019687525f60e08a01818152945163414bf38960e01b815299516001600160a01b0390811660048c01529851891660248b0152915162ffffff1660448a0152518716606489015292516084880152925160a4870152925160c4860152915190921660e4840152829061010490829073e592427a0aece92de3edee1f18e0157c058615645af190811561084c575f916109e6575b509361074f565b90506020813d602011610a10575b81610a0160209383610f9b565b810103126101915751866109df565b3d91506109f4565b610a309060203d60201161087b5761086e8183610f9b565b6108fa565b610bb8916108b7565b9190968093505160058110156108065760041480610b98575b15610b5d5760018201805460405163095ea7b360e01b815260189190911c6001600160a01b0316600482015260248101839052926020846044815f8c5af193841561084c5760026084935f92602097610b42575b5060018060a01b03905460181c16920154916040519a8b958694630f7c084960e21b865280600f0b600487015260801d600f0b6024860152604485015260648401525af194851561084c575f95610b0e575b50610b09853384611403565b61074f565b9094506020813d602011610b3a575b81610b2a60209383610f9b565b8101031261019157519386610afd565b3d9150610b1d565b610b5890883d8a1161087b5761086e8183610f9b565b610aab565b60405162461bcd60e51b8152602060048201526013602482015272534f523a206e6f2076616c696420726f75746560681b6044820152606490fd5b50600182015460181c6001600160a01b03161515610a57565b50875160058110156108065760021461089a565b60405162461bcd60e51b815260206004820152601660248201527514d3d48e881cdb1a5c1c1859d948195e18d95959195960521b6044820152606490fd5b634e487b7160e01b5f52601160045260245ffd5b83635274afe760e01b5f5260045260245ffd5b906001811516610c4257853b15153d151616906105f6565b503d5f823e3d90fd5b633ee5aeb560e01b5f5260045ffd5b34610191575f36600319011261019157600154336001600160a01b0390911603610ccc57600180546001600160a01b03199081169091555f805433928116831782556001600160a01b0316907f8be0079c531659141344cd1fd0a4f28419497f9722a3daafe3b4186f6b6457e09080a3005b63118cdaa760e01b5f523360045260245ffd5b34610191575f36600319011261019157610cf76113d2565b600180546001600160a01b03199081169091555f80549182168155906001600160a01b03167f8be0079c531659141344cd1fd0a4f28419497f9722a3daafe3b4186f6b6457e08280a3005b34610191575f366003190112610191576004546040516001600160a01b039091168152602090f35b34610191575f366003190112610191576020600654604051908152f35b34610191575f36600319011261019157602060ff60015460a01c166040519015158152f35b34610191575f36600319011261019157610dc46113d2565b60015460ff8160a01c1615610e0b5760ff60a01b19166001556040513381527f5db9ee0a495bf2e6ff9c91a7834c1ba4fdd244a5e8aa4e537bd38aeae4b073aa90602090a1005b638dfc202b60e01b5f5260045ffd5b34610191575f3660031901126101915760206040516127108152f35b34610191576060366003190112610191576080610e65610e54610f2f565b610e5c610f45565b60443591610ff6565b606060405191610e76838251610f5b565b602081015160208401526040810151604084015201516060820152f35b34610191575f366003190112610191576020600554604051908152f35b34610191576020366003190112610191576004355f52600360205260a060405f20805490600260018201549101549060405192835262ffffff81166020840152600180851b039060181c16604083015280600f0b606083015260801d600f0b6080820152f35b34610191575f3660031901126101915780600760209252f35b600435906001600160a01b038216820361019157565b602435906001600160a01b038216820361019157565b9060058210156108065752565b6005811015610806575f52600760205260405f2090565b6080810190811067ffffffffffffffff8211176103c157604052565b90601f8019910116810190811067ffffffffffffffff8211176103c157604052565b91908203918211610c0357565b90916028926001600160601b03199060601b1682526001600160601b03199060601b1660148201520190565b90929160405161100581610f7f565b5f815260208101905f82525f60408201525f6060820152946007830283810460071484151715610c035761271061103e91048094610fbd565b936001600160a01b038082169290811691828410916103059161107b919084156103dc578094156103d55750604051928391602083019586610fca565b5190205f52600360205260405f2092835490816112fc575b505060405163f7729d4360e01b81528260048201528160248201526101f460448201528560648201525f608482015260208160a4815f7361ffe014ba17989e743c5f6cb21bf9697530b21e5af15f91816112c8575b5061128e575b506040519163f7729d4360e01b835260048301526024820152610bb860448201528360648201525f608482015260208160a4815f7361ffe014ba17989e743c5f6cb21bf9697530b21e5af15f918161125a575b50611220575b50600181015460181c6001600160a01b03169283611166575b50505050565b6064600260209301546040519586938492635e0d443f60e01b845280600f0b600485015260801d600f0b602484015260448301525afa5f92816111ec575b506111b1575b8080611160565b60208401518211156111aa57604051929350906111cd83610f7f565b60048352602083015260408201526201d4c06060820152905f806111aa565b9092506020813d602011611218575b8161120860209383610f9b565b810103126101915751915f6111a4565b3d91506111fb565b60208601518111156111475760405191955061123b82610f7f565b600282526020820152816040820152620249f06060820152935f611147565b9091506020813d602011611286575b8161127660209383610f9b565b810103126101915751905f611141565b3d9150611269565b60208801518111156110ee576040519197506112a982610f7f565b600182526020820152836040820152620249f06060820152955f6110ee565b9091506020813d6020116112f4575b816112e460209383610f9b565b810103126101915751905f6110e8565b3d91506112d7565b602060018060a01b03600254169260646040518095819363d8a8d90160e01b835260048301528860248301528b60448301525afa5f9281611379575b50156110935751811161134c575b80611093565b60405191975061135b82610f7f565b5f82526020820152836040820152620138806060820152955f611346565b9092506020813d6020116113a5575b8161139560209383610f9b565b810103126101915751915f611338565b3d9150611388565b91908201809211610c0357565b90816020910312610191575180151581036101915790565b5f546001600160a01b03163303610ccc57565b60ff60015460a01c166113f457565b63d93c066560e01b5f5260045ffd5b916040519163a9059cbb60e01b5f5260018060a01b031660045260245260205f60448180865af19060015f5114821615611463575b604052156114435750565b635274afe760e01b5f9081526001600160a01b0391909116600452602490fd5b906001811516610c4257823b15153d1516169061143856fea26469706673582212200680fdf16912854d337121ed421458841a7a3bbeb7ca3d447b623fe6e2ad9e9964736f6c634300081a0033",
  "linkReferences": {},
  "deployedLinkReferences": {}
}