{
  "_format": "hh-sol-artifact-1",
  "contractName": "WikiLPBoost",
  "sourceName": "src/WikiLPBoost.sol",
  "abi": [
    {
      "inputs": [
        {
          "internalType": "address",
          "name": "_owner",
          "type": "address"
        },
        {
          "internalType": "address",
          "name": "_veWIK",
          "type": "address"
        },
        {
          "internalType": "address",
          "name": "_wik",
          "type": "address"
        }
      ],
      "stateMutability": "nonpayable",
      "type": "constructor"
    },
    {
      "inputs": [
        {
          "internalType": "address",
          "name": "owner",
          "type": "address"
        }
      ],
      "name": "OwnableInvalidOwner",
      "type": "error"
    },
    {
      "inputs": [
        {
          "internalType": "address",
          "name": "account",
          "type": "address"
        }
      ],
      "name": "OwnableUnauthorizedAccount",
      "type": "error"
    },
    {
      "anonymous": false,
      "inputs": [
        {
          "indexed": false,
          "internalType": "uint256",
          "name": "poolId",
          "type": "uint256"
        },
        {
          "indexed": false,
          "internalType": "address",
          "name": "user",
          "type": "address"
        },
        {
          "indexed": false,
          "internalType": "uint256",
          "name": "boostBps",
          "type": "uint256"
        },
        {
          "indexed": false,
          "internalType": "uint256",
          "name": "workingBalance",
          "type": "uint256"
        }
      ],
      "name": "BoostUpdated",
      "type": "event"
    },
    {
      "anonymous": false,
      "inputs": [
        {
          "indexed": true,
          "internalType": "address",
          "name": "previousOwner",
          "type": "address"
        },
        {
          "indexed": true,
          "internalType": "address",
          "name": "newOwner",
          "type": "address"
        }
      ],
      "name": "OwnershipTransferStarted",
      "type": "event"
    },
    {
      "anonymous": false,
      "inputs": [
        {
          "indexed": true,
          "internalType": "address",
          "name": "previousOwner",
          "type": "address"
        },
        {
          "indexed": true,
          "internalType": "address",
          "name": "newOwner",
          "type": "address"
        }
      ],
      "name": "OwnershipTransferred",
      "type": "event"
    },
    {
      "anonymous": false,
      "inputs": [
        {
          "indexed": false,
          "internalType": "uint256",
          "name": "poolId",
          "type": "uint256"
        },
        {
          "indexed": false,
          "internalType": "address",
          "name": "lpToken",
          "type": "address"
        }
      ],
      "name": "PoolAdded",
      "type": "event"
    },
    {
      "inputs": [],
      "name": "BASE_FACTOR",
      "outputs": [
        {
          "internalType": "uint256",
          "name": "",
          "type": "uint256"
        }
      ],
      "stateMutability": "view",
      "type": "function"
    },
    {
      "inputs": [],
      "name": "BOOST_PRECISION",
      "outputs": [
        {
          "internalType": "uint256",
          "name": "",
          "type": "uint256"
        }
      ],
      "stateMutability": "view",
      "type": "function"
    },
    {
      "inputs": [],
      "name": "MAX_BOOST_BPS",
      "outputs": [
        {
          "internalType": "uint256",
          "name": "",
          "type": "uint256"
        }
      ],
      "stateMutability": "view",
      "type": "function"
    },
    {
      "inputs": [],
      "name": "MIN_BOOST_BPS",
      "outputs": [
        {
          "internalType": "uint256",
          "name": "",
          "type": "uint256"
        }
      ],
      "stateMutability": "view",
      "type": "function"
    },
    {
      "inputs": [],
      "name": "VE_FACTOR",
      "outputs": [
        {
          "internalType": "uint256",
          "name": "",
          "type": "uint256"
        }
      ],
      "stateMutability": "view",
      "type": "function"
    },
    {
      "inputs": [],
      "name": "WIK",
      "outputs": [
        {
          "internalType": "contract IERC20",
          "name": "",
          "type": "address"
        }
      ],
      "stateMutability": "view",
      "type": "function"
    },
    {
      "inputs": [],
      "name": "acceptOwnership",
      "outputs": [],
      "stateMutability": "nonpayable",
      "type": "function"
    },
    {
      "inputs": [
        {
          "internalType": "address",
          "name": "lpToken",
          "type": "address"
        }
      ],
      "name": "addPool",
      "outputs": [
        {
          "internalType": "uint256",
          "name": "poolId",
          "type": "uint256"
        }
      ],
      "stateMutability": "nonpayable",
      "type": "function"
    },
    {
      "inputs": [
        {
          "internalType": "uint256",
          "name": "poolId",
          "type": "uint256"
        },
        {
          "internalType": "address",
          "name": "user",
          "type": "address"
        }
      ],
      "name": "calculateBoost",
      "outputs": [
        {
          "internalType": "uint256",
          "name": "boostBps",
          "type": "uint256"
        }
      ],
      "stateMutability": "view",
      "type": "function"
    },
    {
      "inputs": [
        {
          "internalType": "uint256",
          "name": "poolId",
          "type": "uint256"
        },
        {
          "internalType": "address",
          "name": "user",
          "type": "address"
        }
      ],
      "name": "getBoostMultiplier",
      "outputs": [
        {
          "internalType": "uint256",
          "name": "boostBps",
          "type": "uint256"
        },
        {
          "internalType": "uint256",
          "name": "boostDisplay",
          "type": "uint256"
        },
        {
          "internalType": "uint256",
          "name": "workingBalance",
          "type": "uint256"
        },
        {
          "internalType": "uint256",
          "name": "lpBalance",
          "type": "uint256"
        },
        {
          "internalType": "uint256",
          "name": "veWIKNeededForMax",
          "type": "uint256"
        }
      ],
      "stateMutability": "view",
      "type": "function"
    },
    {
      "inputs": [
        {
          "internalType": "uint256",
          "name": "poolId",
          "type": "uint256"
        }
      ],
      "name": "getPoolStats",
      "outputs": [
        {
          "internalType": "uint256",
          "name": "totalLP",
          "type": "uint256"
        },
        {
          "internalType": "uint256",
          "name": "totalWorkingBal",
          "type": "uint256"
        },
        {
          "internalType": "uint256",
          "name": "avgBoostBps",
          "type": "uint256"
        }
      ],
      "stateMutability": "view",
      "type": "function"
    },
    {
      "inputs": [],
      "name": "nextPoolId",
      "outputs": [
        {
          "internalType": "uint256",
          "name": "",
          "type": "uint256"
        }
      ],
      "stateMutability": "view",
      "type": "function"
    },
    {
      "inputs": [],
      "name": "owner",
      "outputs": [
        {
          "internalType": "address",
          "name": "",
          "type": "address"
        }
      ],
      "stateMutability": "view",
      "type": "function"
    },
    {
      "inputs": [],
      "name": "pendingOwner",
      "outputs": [
        {
          "internalType": "address",
          "name": "",
          "type": "address"
        }
      ],
      "stateMutability": "view",
      "type": "function"
    },
    {
      "inputs": [
        {
          "internalType": "uint256",
          "name": "",
          "type": "uint256"
        }
      ],
      "name": "pools",
      "outputs": [
        {
          "internalType": "address",
          "name": "lpToken",
          "type": "address"
        },
        {
          "internalType": "uint256",
          "name": "totalLPSupply",
          "type": "uint256"
        },
        {
          "internalType": "bool",
          "name": "active",
          "type": "bool"
        }
      ],
      "stateMutability": "view",
      "type": "function"
    },
    {
      "inputs": [
        {
          "internalType": "uint256",
          "name": "poolId",
          "type": "uint256"
        },
        {
          "internalType": "address",
          "name": "user",
          "type": "address"
        },
        {
          "internalType": "uint256",
          "name": "lpAmount",
          "type": "uint256"
        }
      ],
      "name": "recordDeposit",
      "outputs": [],
      "stateMutability": "nonpayable",
      "type": "function"
    },
    {
      "inputs": [
        {
          "internalType": "uint256",
          "name": "poolId",
          "type": "uint256"
        },
        {
          "internalType": "address",
          "name": "user",
          "type": "address"
        },
        {
          "internalType": "uint256",
          "name": "lpAmount",
          "type": "uint256"
        }
      ],
      "name": "recordWithdraw",
      "outputs": [],
      "stateMutability": "nonpayable",
      "type": "function"
    },
    {
      "inputs": [],
      "name": "renounceOwnership",
      "outputs": [],
      "stateMutability": "nonpayable",
      "type": "function"
    },
    {
      "inputs": [
        {
          "internalType": "uint256",
          "name": "",
          "type": "uint256"
        }
      ],
      "name": "totalWorking",
      "outputs": [
        {
          "internalType": "uint256",
          "name": "",
          "type": "uint256"
        }
      ],
      "stateMutability": "view",
      "type": "function"
    },
    {
      "inputs": [
        {
          "internalType": "address",
          "name": "newOwner",
          "type": "address"
        }
      ],
      "name": "transferOwnership",
      "outputs": [],
      "stateMutability": "nonpayable",
      "type": "function"
    },
    {
      "inputs": [
        {
          "internalType": "uint256",
          "name": "poolId",
          "type": "uint256"
        },
        {
          "internalType": "address",
          "name": "user",
          "type": "address"
        }
      ],
      "name": "updateWorkingBalance",
      "outputs": [],
      "stateMutability": "nonpayable",
      "type": "function"
    },
    {
      "inputs": [
        {
          "internalType": "uint256",
          "name": "",
          "type": "uint256"
        },
        {
          "internalType": "address",
          "name": "",
          "type": "address"
        }
      ],
      "name": "userBoosts",
      "outputs": [
        {
          "internalType": "uint256",
          "name": "lpBalance",
          "type": "uint256"
        },
        {
          "internalType": "uint256",
          "name": "workingBalance",
          "type": "uint256"
        },
        {
          "internalType": "uint256",
          "name": "lastUpdate",
          "type": "uint256"
        }
      ],
      "stateMutability": "view",
      "type": "function"
    },
    {
      "inputs": [],
      "name": "veWIK",
      "outputs": [
        {
          "internalType": "contract IERC20",
          "name": "",
          "type": "address"
        }
      ],
      "stateMutability": "view",
      "type": "function"
    }
  ],
  "bytecode": "0x60c03461011257601f610e9538819003918201601f19168301916001600160401b0383118484101761011657808492606094604052833981010312610112576100478161012a565b61005f60406100586020850161012a565b930161012a565b6001600160a01b039091169182156100ff57600180546001600160a01b03199081169091555f80549182168517815560405194916001600160a01b0316907f8be0079c531659141344cd1fd0a4f28419497f9722a3daafe3b4186f6b6457e09080a36001600160a01b039081166080521660a052610d56908161013f823960805181818161012e015281816101dd0152610b6d015260a051816109030152f35b631e4fbdf760e01b5f525f60045260245ffd5b5f80fd5b634e487b7160e01b5f52604160045260245ffd5b51906001600160a01b03821682036101125756fe6080806040526004361015610012575f80fd5b5f3560e01c90816318e561311461096a575080631eefec651461094e5780633d9a581a1461093257806340b0229e146108ee5780635583e5b6146108d25780636791799d14610852578063715018a6146107ef57806376505472146107c557806379ba5097146107405780638da5cb5b146107195780638dfe0fa8146106f5578063ab40340a1461064d578063ac4afa38146105ff578063b120755814610596578063ba87000c1461057a578063cc6db2da14610558578063d2b87db3146104a6578063d914cd4b146103a9578063e30c397814610381578063f2fde38b1461030f578063f7fb8387146102e1578063fb865dbd146101615763ff3c26b914610119575f80fd5b3461015d575f36600319011261015d576040517f00000000000000000000000000000000000000000000000000000000000000006001600160a01b03168152602090f35b5f80fd5b3461015d57604036600319011261015d5760043561017d610984565b5f6101888284610b01565b5f8481526003602090815260408083206001600160a01b0396871684528252808320600181810154915498855260028452938290209093015490516318160ddd60e01b815290969395849290829060049082907f0000000000000000000000000000000000000000000000000000000000000000165afa9081156102d6575f916102a4575b508115158061029b575b80610292575b610245575b505060a09450604051938085526020850152604084015260608301526080820152f35b6102509294506109da565b93615208850294808604615208149015171561027e576102756117709160a0966109ed565b04918580610222565b634e487b7160e01b5f52601160045260245ffd5b5080151561021d565b50861515610217565b90506020813d6020116102ce575b816102bf60209383610adf565b8101031261015d57518761020d565b3d91506102b2565b6040513d5f823e3d90fd5b3461015d57604036600319011261015d5760206103076102ff610984565b600435610b01565b604051908152f35b3461015d57602036600319011261015d5761032861099a565b610330610d0d565b60018060a01b0316806bffffffffffffffffffffffff60a01b600154161760015560018060a01b035f54167f38d16b8cac22d99fc7c124b9cd0de2d3fa1faef420bfe791d8c362d765e227005f80a3005b3461015d575f36600319011261015d576001546040516001600160a01b039091168152602090f35b3461015d57602036600319011261015d576103c261099a565b6103ca610d0d565b6005545f19811461027e5760018101600555604051916060830183811067ffffffffffffffff821117610492576020937f1f1f6396247a5ba59b7b1e094ec3a8e439d4dace0c5ac4fe3ecfde3e68e03a8a92604092835260018060a01b0316908181526002868201915f83528481019260018452875f52828952855f209160018060a01b039051166bffffffffffffffffffffffff60a01b835416178255516001820155019051151560ff8019835416911617905581519084825285820152a1604051908152f35b634e487b7160e01b5f52604160045260245ffd5b3461015d576104b4366109b0565b916104bd610d0d565b805f52600260205260405f209260ff6002850154161561051c57610513600161051a95845f52600360205260405f20828060a01b0387165f5260205260405f20610508858254610a18565b905501918254610a18565b9055610a25565b005b60405162461bcd60e51b8152602060048201526014602482015273426f6f73743a20706f6f6c20696e61637469766560601b6044820152606490fd5b3461015d575f36600319011261015d576020604051670de0b6b3a76400008152f35b3461015d575f36600319011261015d5760206040516117708152f35b3461015d57604036600319011261015d576105af610984565b6004355f52600360205260405f209060018060a01b03165f5260205260405f2080546105fb60026001840154930154604051938493846040919493926060820195825260208201520152565b0390f35b3461015d57602036600319011261015d576004355f526002602052606060405f2060018060a01b038154169060ff600260018301549201541690604051928352602083015215156040820152f35b3461015d5761065b366109b0565b91610664610d0d565b805f52600260205260405f2092815f52600360205260405f2060018060a01b0384165f5260205260405f2080548281106106b75761051a95610513926106ac85600194610a0b565b905501918254610a0b565b60405162461bcd60e51b81526020600482015260166024820152750426f6f73743a20696e73756666696369656e74204c560541b6044820152606490fd5b3461015d57604036600319011261015d5761051a610711610984565b600435610a25565b3461015d575f36600319011261015d575f546040516001600160a01b039091168152602090f35b3461015d575f36600319011261015d57600154336001600160a01b03909116036107b257600180546001600160a01b03199081169091555f805433928116831782556001600160a01b0316907f8be0079c531659141344cd1fd0a4f28419497f9722a3daafe3b4186f6b6457e09080a3005b63118cdaa760e01b5f523360045260245ffd5b3461015d57602036600319011261015d576004355f526004602052602060405f2054604051908152f35b3461015d575f36600319011261015d57610807610d0d565b600180546001600160a01b03199081169091555f80549182168155906001600160a01b03167f8be0079c531659141344cd1fd0a4f28419497f9722a3daafe3b4186f6b6457e08280a3005b3461015d57602036600319011261015d57600480355f90815260026020908152604080832060010154939091529020549080156108c7576127108202828104612710148315171561027e576108aa826105fb926109ed565b604051938493846040919493926060820195825260208201520152565b6105fb6127106108aa565b3461015d575f36600319011261015d5760206040516127108152f35b3461015d575f36600319011261015d576040517f00000000000000000000000000000000000000000000000000000000000000006001600160a01b03168152602090f35b3461015d575f36600319011261015d5760206040516161a88152f35b3461015d575f36600319011261015d576020604051610fa08152f35b3461015d575f36600319011261015d576020906005548152f35b602435906001600160a01b038216820361015d57565b600435906001600160a01b038216820361015d57565b606090600319011261015d57600435906024356001600160a01b038116810361015d579060443590565b8181029291811591840414171561027e57565b81156109f7570490565b634e487b7160e01b5f52601260045260245ffd5b9190820391821161027e57565b9190820180921161027e57565b608090610aa67f442f5f3cab70fc0474dab873e21feeb02e2dafaa5f27c973546c890314dd0ddd93825f52600360205260405f2060018060a01b0382165f5260205260405f2090610a768185610b01565b9160018101805490610aab612710610a8f8786546109da565b04809781948a5f52600460205260405f2054610a0b565b610a18565b875f52600460205260405f20555560024291015560405193845260018060a01b0316602084015260408301526060820152a1565b90601f8019910116810190811067ffffffffffffffff82111761049257604052565b805f52600260205260405f209060ff60028301541615610d04575f52600360205260405f2060018060a01b0383165f52602052600160405f2054910154811592838015610cfc575b610cf2576040516370a0823160e01b81526001600160a01b039182166004820152907f000000000000000000000000000000000000000000000000000000000000000016602082602481845afa9182156102d6575f92610cbd575b506020600491604051928380926318160ddd60e01b82525afa9081156102d6575f91610c8b575b508015610c8057670de0b6b3a7640000820291808304670de0b6b3a7640000149015171561027e57610bfc916109ed565b92670de0b6b3a76400008302928304670de0b6b3a764000014171561027e57610c24916109ed565b8015610c785781611770029161177083040361027e57610c43916109ed565b610fa00180610fa01161027e576161a8811115610c7257506161a8905b6127108210610c6b57565b6127109150565b90610c60565b505061271090565b505050505061271090565b90506020813d602011610cb5575b81610ca660209383610adf565b8101031261015d57515f610bcb565b3d9150610c99565b9091506020813d602011610cea575b81610cd960209383610adf565b8101031261015d5751906020610ba4565b3d9150610ccc565b5050505061271090565b508115610b49565b50505061271090565b5f546001600160a01b031633036107b25756fea264697066735822122082a64a13d2d49352a04ce055d98d8b0720bb0f8ffd2da5921d178116e8d94c2a64736f6c634300081a0033",
  "linkReferences": {},
  "deployedLinkReferences": {}
}