{
  "_format": "hh-sol-artifact-1",
  "contractName": "WikiPredictionMarket",
  "sourceName": "src/WikiPredictionMarket.sol",
  "abi": [
    {
      "inputs": [
        {
          "internalType": "address",
          "name": "usdc",
          "type": "address"
        },
        {
          "internalType": "address",
          "name": "owner",
          "type": "address"
        }
      ],
      "stateMutability": "nonpayable",
      "type": "constructor"
    },
    {
      "inputs": [],
      "name": "EnforcedPause",
      "type": "error"
    },
    {
      "inputs": [],
      "name": "ExpectedPause",
      "type": "error"
    },
    {
      "inputs": [
        {
          "internalType": "address",
          "name": "owner",
          "type": "address"
        }
      ],
      "name": "OwnableInvalidOwner",
      "type": "error"
    },
    {
      "inputs": [
        {
          "internalType": "address",
          "name": "account",
          "type": "address"
        }
      ],
      "name": "OwnableUnauthorizedAccount",
      "type": "error"
    },
    {
      "inputs": [],
      "name": "ReentrancyGuardReentrantCall",
      "type": "error"
    },
    {
      "inputs": [
        {
          "internalType": "address",
          "name": "token",
          "type": "address"
        }
      ],
      "name": "SafeERC20FailedOperation",
      "type": "error"
    },
    {
      "anonymous": false,
      "inputs": [
        {
          "indexed": true,
          "internalType": "uint256",
          "name": "id",
          "type": "uint256"
        },
        {
          "indexed": true,
          "internalType": "address",
          "name": "user",
          "type": "address"
        },
        {
          "indexed": false,
          "internalType": "bool",
          "name": "isYes",
          "type": "bool"
        },
        {
          "indexed": false,
          "internalType": "uint256",
          "name": "amount",
          "type": "uint256"
        }
      ],
      "name": "BetPlaced",
      "type": "event"
    },
    {
      "anonymous": false,
      "inputs": [
        {
          "indexed": true,
          "internalType": "uint256",
          "name": "id",
          "type": "uint256"
        },
        {
          "indexed": true,
          "internalType": "address",
          "name": "user",
          "type": "address"
        },
        {
          "indexed": false,
          "internalType": "uint256",
          "name": "payout",
          "type": "uint256"
        },
        {
          "indexed": false,
          "internalType": "uint256",
          "name": "fee",
          "type": "uint256"
        }
      ],
      "name": "Claimed",
      "type": "event"
    },
    {
      "anonymous": false,
      "inputs": [
        {
          "indexed": false,
          "internalType": "address",
          "name": "to",
          "type": "address"
        },
        {
          "indexed": false,
          "internalType": "uint256",
          "name": "amount",
          "type": "uint256"
        }
      ],
      "name": "FeesWithdrawn",
      "type": "event"
    },
    {
      "anonymous": false,
      "inputs": [
        {
          "indexed": true,
          "internalType": "uint256",
          "name": "id",
          "type": "uint256"
        },
        {
          "indexed": false,
          "internalType": "string",
          "name": "question",
          "type": "string"
        },
        {
          "indexed": false,
          "internalType": "uint256",
          "name": "deadline",
          "type": "uint256"
        },
        {
          "indexed": false,
          "internalType": "uint256",
          "name": "resolutionTime",
          "type": "uint256"
        }
      ],
      "name": "MarketCreated",
      "type": "event"
    },
    {
      "anonymous": false,
      "inputs": [
        {
          "indexed": true,
          "internalType": "uint256",
          "name": "id",
          "type": "uint256"
        },
        {
          "indexed": false,
          "internalType": "enum WikiPredictionMarket.Outcome",
          "name": "outcome",
          "type": "uint8"
        },
        {
          "indexed": false,
          "internalType": "address",
          "name": "resolver",
          "type": "address"
        }
      ],
      "name": "MarketResolved",
      "type": "event"
    },
    {
      "anonymous": false,
      "inputs": [
        {
          "indexed": true,
          "internalType": "uint256",
          "name": "id",
          "type": "uint256"
        }
      ],
      "name": "MarketVoided",
      "type": "event"
    },
    {
      "anonymous": false,
      "inputs": [
        {
          "indexed": true,
          "internalType": "address",
          "name": "previousOwner",
          "type": "address"
        },
        {
          "indexed": true,
          "internalType": "address",
          "name": "newOwner",
          "type": "address"
        }
      ],
      "name": "OwnershipTransferStarted",
      "type": "event"
    },
    {
      "anonymous": false,
      "inputs": [
        {
          "indexed": true,
          "internalType": "address",
          "name": "previousOwner",
          "type": "address"
        },
        {
          "indexed": true,
          "internalType": "address",
          "name": "newOwner",
          "type": "address"
        }
      ],
      "name": "OwnershipTransferred",
      "type": "event"
    },
    {
      "anonymous": false,
      "inputs": [
        {
          "indexed": false,
          "internalType": "address",
          "name": "account",
          "type": "address"
        }
      ],
      "name": "Paused",
      "type": "event"
    },
    {
      "anonymous": false,
      "inputs": [
        {
          "indexed": false,
          "internalType": "address",
          "name": "account",
          "type": "address"
        }
      ],
      "name": "Unpaused",
      "type": "event"
    },
    {
      "inputs": [],
      "name": "BPS",
      "outputs": [
        {
          "internalType": "uint256",
          "name": "",
          "type": "uint256"
        }
      ],
      "stateMutability": "view",
      "type": "function"
    },
    {
      "inputs": [],
      "name": "GRACE_PERIOD",
      "outputs": [
        {
          "internalType": "uint256",
          "name": "",
          "type": "uint256"
        }
      ],
      "stateMutability": "view",
      "type": "function"
    },
    {
      "inputs": [],
      "name": "MAX_FEE",
      "outputs": [
        {
          "internalType": "uint256",
          "name": "",
          "type": "uint256"
        }
      ],
      "stateMutability": "view",
      "type": "function"
    },
    {
      "inputs": [],
      "name": "MIN_BET",
      "outputs": [
        {
          "internalType": "uint256",
          "name": "",
          "type": "uint256"
        }
      ],
      "stateMutability": "view",
      "type": "function"
    },
    {
      "inputs": [],
      "name": "USDC",
      "outputs": [
        {
          "internalType": "contract IERC20",
          "name": "",
          "type": "address"
        }
      ],
      "stateMutability": "view",
      "type": "function"
    },
    {
      "inputs": [],
      "name": "acceptOwnership",
      "outputs": [],
      "stateMutability": "nonpayable",
      "type": "function"
    },
    {
      "inputs": [
        {
          "internalType": "uint256",
          "name": "marketId",
          "type": "uint256"
        },
        {
          "internalType": "bool",
          "name": "isYes",
          "type": "bool"
        },
        {
          "internalType": "uint256",
          "name": "amount",
          "type": "uint256"
        }
      ],
      "name": "bet",
      "outputs": [],
      "stateMutability": "nonpayable",
      "type": "function"
    },
    {
      "inputs": [
        {
          "internalType": "uint256",
          "name": "marketId",
          "type": "uint256"
        }
      ],
      "name": "claim",
      "outputs": [],
      "stateMutability": "nonpayable",
      "type": "function"
    },
    {
      "inputs": [
        {
          "internalType": "string",
          "name": "question",
          "type": "string"
        },
        {
          "internalType": "string",
          "name": "details",
          "type": "string"
        },
        {
          "internalType": "enum WikiPredictionMarket.Category",
          "name": "category",
          "type": "uint8"
        },
        {
          "internalType": "uint256",
          "name": "deadline",
          "type": "uint256"
        },
        {
          "internalType": "uint256",
          "name": "resolutionTime",
          "type": "uint256"
        },
        {
          "internalType": "bytes32",
          "name": "oracleId",
          "type": "bytes32"
        },
        {
          "internalType": "uint256",
          "name": "targetPrice",
          "type": "uint256"
        },
        {
          "internalType": "bool",
          "name": "priceAbove",
          "type": "bool"
        },
        {
          "internalType": "uint256",
          "name": "feeBps",
          "type": "uint256"
        }
      ],
      "name": "createMarket",
      "outputs": [
        {
          "internalType": "uint256",
          "name": "id",
          "type": "uint256"
        }
      ],
      "stateMutability": "nonpayable",
      "type": "function"
    },
    {
      "inputs": [
        {
          "internalType": "uint256",
          "name": "amount",
          "type": "uint256"
        }
      ],
      "name": "deployIdle",
      "outputs": [],
      "stateMutability": "nonpayable",
      "type": "function"
    },
    {
      "inputs": [
        {
          "internalType": "uint256",
          "name": "id",
          "type": "uint256"
        }
      ],
      "name": "getMarket",
      "outputs": [
        {
          "components": [
            {
              "internalType": "string",
              "name": "question",
              "type": "string"
            },
            {
              "internalType": "string",
              "name": "details",
              "type": "string"
            },
            {
              "internalType": "enum WikiPredictionMarket.Category",
              "name": "category",
              "type": "uint8"
            },
            {
              "internalType": "uint256",
              "name": "resolutionTime",
              "type": "uint256"
            },
            {
              "internalType": "uint256",
              "name": "deadline",
              "type": "uint256"
            },
            {
              "internalType": "bytes32",
              "name": "oracleId",
              "type": "bytes32"
            },
            {
              "internalType": "uint256",
              "name": "targetPrice",
              "type": "uint256"
            },
            {
              "internalType": "bool",
              "name": "priceAbove",
              "type": "bool"
            },
            {
              "internalType": "uint256",
              "name": "yesPool",
              "type": "uint256"
            },
            {
              "internalType": "uint256",
              "name": "noPool",
              "type": "uint256"
            },
            {
              "internalType": "uint256",
              "name": "feeBps",
              "type": "uint256"
            },
            {
              "internalType": "enum WikiPredictionMarket.Outcome",
              "name": "outcome",
              "type": "uint8"
            },
            {
              "internalType": "uint256",
              "name": "resolutionTs",
              "type": "uint256"
            },
            {
              "internalType": "address",
              "name": "resolver",
              "type": "address"
            },
            {
              "internalType": "bool",
              "name": "claimOpen",
              "type": "bool"
            }
          ],
          "internalType": "struct WikiPredictionMarket.Market",
          "name": "",
          "type": "tuple"
        }
      ],
      "stateMutability": "view",
      "type": "function"
    },
    {
      "inputs": [
        {
          "internalType": "uint256",
          "name": "marketId",
          "type": "uint256"
        },
        {
          "internalType": "address",
          "name": "user",
          "type": "address"
        }
      ],
      "name": "getPosition",
      "outputs": [
        {
          "components": [
            {
              "internalType": "uint256",
              "name": "yes",
              "type": "uint256"
            },
            {
              "internalType": "uint256",
              "name": "no",
              "type": "uint256"
            },
            {
              "internalType": "bool",
              "name": "claimed",
              "type": "bool"
            }
          ],
          "internalType": "struct WikiPredictionMarket.Position",
          "name": "",
          "type": "tuple"
        }
      ],
      "stateMutability": "view",
      "type": "function"
    },
    {
      "inputs": [],
      "name": "idleYieldRouter",
      "outputs": [
        {
          "internalType": "contract IIdleYieldRouter",
          "name": "",
          "type": "address"
        }
      ],
      "stateMutability": "view",
      "type": "function"
    },
    {
      "inputs": [],
      "name": "marketCount",
      "outputs": [
        {
          "internalType": "uint256",
          "name": "",
          "type": "uint256"
        }
      ],
      "stateMutability": "view",
      "type": "function"
    },
    {
      "inputs": [
        {
          "internalType": "uint256",
          "name": "",
          "type": "uint256"
        }
      ],
      "name": "markets",
      "outputs": [
        {
          "internalType": "string",
          "name": "question",
          "type": "string"
        },
        {
          "internalType": "string",
          "name": "details",
          "type": "string"
        },
        {
          "internalType": "enum WikiPredictionMarket.Category",
          "name": "category",
          "type": "uint8"
        },
        {
          "internalType": "uint256",
          "name": "resolutionTime",
          "type": "uint256"
        },
        {
          "internalType": "uint256",
          "name": "deadline",
          "type": "uint256"
        },
        {
          "internalType": "bytes32",
          "name": "oracleId",
          "type": "bytes32"
        },
        {
          "internalType": "uint256",
          "name": "targetPrice",
          "type": "uint256"
        },
        {
          "internalType": "bool",
          "name": "priceAbove",
          "type": "bool"
        },
        {
          "internalType": "uint256",
          "name": "yesPool",
          "type": "uint256"
        },
        {
          "internalType": "uint256",
          "name": "noPool",
          "type": "uint256"
        },
        {
          "internalType": "uint256",
          "name": "feeBps",
          "type": "uint256"
        },
        {
          "internalType": "enum WikiPredictionMarket.Outcome",
          "name": "outcome",
          "type": "uint8"
        },
        {
          "internalType": "uint256",
          "name": "resolutionTs",
          "type": "uint256"
        },
        {
          "internalType": "address",
          "name": "resolver",
          "type": "address"
        },
        {
          "internalType": "bool",
          "name": "claimOpen",
          "type": "bool"
        }
      ],
      "stateMutability": "view",
      "type": "function"
    },
    {
      "inputs": [],
      "name": "owner",
      "outputs": [
        {
          "internalType": "address",
          "name": "",
          "type": "address"
        }
      ],
      "stateMutability": "view",
      "type": "function"
    },
    {
      "inputs": [],
      "name": "pause",
      "outputs": [],
      "stateMutability": "nonpayable",
      "type": "function"
    },
    {
      "inputs": [],
      "name": "paused",
      "outputs": [
        {
          "internalType": "bool",
          "name": "",
          "type": "bool"
        }
      ],
      "stateMutability": "view",
      "type": "function"
    },
    {
      "inputs": [],
      "name": "pendingOwner",
      "outputs": [
        {
          "internalType": "address",
          "name": "",
          "type": "address"
        }
      ],
      "stateMutability": "view",
      "type": "function"
    },
    {
      "inputs": [
        {
          "internalType": "uint256",
          "name": "",
          "type": "uint256"
        },
        {
          "internalType": "address",
          "name": "",
          "type": "address"
        }
      ],
      "name": "positions",
      "outputs": [
        {
          "internalType": "uint256",
          "name": "yes",
          "type": "uint256"
        },
        {
          "internalType": "uint256",
          "name": "no",
          "type": "uint256"
        },
        {
          "internalType": "bool",
          "name": "claimed",
          "type": "bool"
        }
      ],
      "stateMutability": "view",
      "type": "function"
    },
    {
      "inputs": [
        {
          "internalType": "uint256",
          "name": "marketId",
          "type": "uint256"
        },
        {
          "internalType": "bool",
          "name": "isYes",
          "type": "bool"
        },
        {
          "internalType": "uint256",
          "name": "betAmount",
          "type": "uint256"
        }
      ],
      "name": "previewPayout",
      "outputs": [
        {
          "internalType": "uint256",
          "name": "grossPayout",
          "type": "uint256"
        },
        {
          "internalType": "uint256",
          "name": "fee",
          "type": "uint256"
        },
        {
          "internalType": "uint256",
          "name": "netPayout",
          "type": "uint256"
        },
        {
          "internalType": "uint256",
          "name": "impliedOdds",
          "type": "uint256"
        }
      ],
      "stateMutability": "view",
      "type": "function"
    },
    {
      "inputs": [],
      "name": "protocolFees",
      "outputs": [
        {
          "internalType": "uint256",
          "name": "",
          "type": "uint256"
        }
      ],
      "stateMutability": "view",
      "type": "function"
    },
    {
      "inputs": [
        {
          "internalType": "uint256",
          "name": "amount",
          "type": "uint256"
        },
        {
          "internalType": "string",
          "name": "reason",
          "type": "string"
        }
      ],
      "name": "recallIdle",
      "outputs": [],
      "stateMutability": "nonpayable",
      "type": "function"
    },
    {
      "inputs": [],
      "name": "renounceOwnership",
      "outputs": [],
      "stateMutability": "nonpayable",
      "type": "function"
    },
    {
      "inputs": [
        {
          "internalType": "uint256",
          "name": "marketId",
          "type": "uint256"
        },
        {
          "internalType": "enum WikiPredictionMarket.Outcome",
          "name": "outcome",
          "type": "uint8"
        }
      ],
      "name": "resolve",
      "outputs": [],
      "stateMutability": "nonpayable",
      "type": "function"
    },
    {
      "inputs": [
        {
          "internalType": "address",
          "name": "",
          "type": "address"
        }
      ],
      "name": "resolvers",
      "outputs": [
        {
          "internalType": "bool",
          "name": "",
          "type": "bool"
        }
      ],
      "stateMutability": "view",
      "type": "function"
    },
    {
      "inputs": [
        {
          "internalType": "address",
          "name": "router",
          "type": "address"
        }
      ],
      "name": "setIdleYieldRouter",
      "outputs": [],
      "stateMutability": "nonpayable",
      "type": "function"
    },
    {
      "inputs": [
        {
          "internalType": "address",
          "name": "r",
          "type": "address"
        },
        {
          "internalType": "bool",
          "name": "enabled",
          "type": "bool"
        }
      ],
      "name": "setResolver",
      "outputs": [],
      "stateMutability": "nonpayable",
      "type": "function"
    },
    {
      "inputs": [
        {
          "internalType": "address",
          "name": "_tl",
          "type": "address"
        }
      ],
      "name": "setTimelock",
      "outputs": [],
      "stateMutability": "nonpayable",
      "type": "function"
    },
    {
      "inputs": [],
      "name": "timelock",
      "outputs": [
        {
          "internalType": "address",
          "name": "",
          "type": "address"
        }
      ],
      "stateMutability": "view",
      "type": "function"
    },
    {
      "inputs": [],
      "name": "totalVolume",
      "outputs": [
        {
          "internalType": "uint256",
          "name": "",
          "type": "uint256"
        }
      ],
      "stateMutability": "view",
      "type": "function"
    },
    {
      "inputs": [
        {
          "internalType": "address",
          "name": "newOwner",
          "type": "address"
        }
      ],
      "name": "transferOwnership",
      "outputs": [],
      "stateMutability": "nonpayable",
      "type": "function"
    },
    {
      "inputs": [],
      "name": "unpause",
      "outputs": [],
      "stateMutability": "nonpayable",
      "type": "function"
    },
    {
      "inputs": [
        {
          "internalType": "uint256",
          "name": "marketId",
          "type": "uint256"
        }
      ],
      "name": "voidMarket",
      "outputs": [],
      "stateMutability": "nonpayable",
      "type": "function"
    },
    {
      "inputs": [
        {
          "internalType": "address",
          "name": "to",
          "type": "address"
        }
      ],
      "name": "withdrawFees",
      "outputs": [],
      "stateMutability": "nonpayable",
      "type": "function"
    }
  ],
  "bytecode": "0x60a03461016e57601f6122a938819003918201601f19168301916001600160401b0383118484101761017257808492604094855283398101031261016e5761004681610186565b906001600160a01b039061005c90602001610186565b1690811561015b57600180546001600160a01b03199081169091555f80549182168417815560405193916001600160a01b0316907f8be0079c531659141344cd1fd0a4f28419497f9722a3daafe3b4186f6b6457e09080a360017f9b779b17422d0df92223018b32b4d1fa46e071723d6817e2486d003becc55f00556001600160a01b0316908115610127575060805260405161210e908161019b82396080518181816108240152818161127801528181611466015281816118f401528181611ce60152611d890152f35b62461bcd60e51b815260206004820152600f60248201526e57696b693a207a65726f207573646360881b6044820152606490fd5b631e4fbdf760e01b5f525f60045260245ffd5b5f80fd5b634e487b7160e01b5f52604160045260245ffd5b51906001600160a01b038216820361016e5756fe60806040526004361015610011575f80fd5b5f803560e01c8063164e68de146118955780631ad8b03b146118785780631da6ed7c14611823578063249d39e914611807578063379607f5146117d05780633f4ba83a146117625780635b7aa7bd146116d95780635c6f16e2146116a85780635c975abb146116835780635f81a57c146116665780636540742f14611649578063715018a6146115e657806379ba5097146115615780637be613ca1461151e5780637e3fef02146114f65780638456cb591461149557806389a30271146114515780638da5cb5b1461142a5780638decaec0146111d35780639c0e16081461101e578063a584c9c814610a61578063b1283e7714610939578063b58e4316146107b0578063b93793e914610771578063bc063e1a14610754578063bdacb303146106cd578063c1a287e2146106af578063d29f541d14610616578063d33219b4146105ed578063e30c3978146105c4578063e684d71814610563578063e6bc01a214610479578063eb44fdd314610228578063ec9790821461020a5763f2fde38b1461019b575f80fd5b34610207576020366003190112610207576101b4611979565b6101bc611fee565b600180546001600160a01b0319166001600160a01b0392831690811790915582549091167f38d16b8cac22d99fc7c124b9cd0de2d3fa1faef420bfe791d8c362d765e227008380a380f35b80fd5b50346102075780600319360112610207576020600354604051908152f35b503461020757602036600319011261020757806101c060405161024a81611a5e565b60608152606060208201528260408201528260608201528260808201528260a08201528260c08201528260e08201528261010082015282610120820152826101408201528261016082015282610180820152826101a082015201526102b06004356119f6565b50906040516102be81611a5e565b6102c783611ab9565b81526102d560018401611ab9565b916020820192835260ff600285015416916102f4604082019384611f85565b6003850154946060820195865260048101549260808301938452600582015460a08401908152600683015460c0850190815260ff60078501541660e08601901515815260088501549061010087019182526009860154926101208801938452600a87015494610140890195865260ff600b890154166101608a0197600482101561046557508752600c880154976101808a01988952600d0154996101a08a0199600160a01b600190038c168b526101c081019b60a01c60ff1615158c526040519e8f9e8f926020845251602084016101e0905261020084016103d591611b59565b9051838203601f190160408501526103ed9190611b59565b9d51606083016103fc91611b7d565b5190608001525160a08d01525160c08c01525160e08b01525115156101008a015251610120890152516101408801525161016087015251610180860161044191611b8a565b516101a0850152516001600160a01b03166101c08401525115156101e08301520390f35b634e487b7160e01b81526021600452602490fd5b5034610207576040366003190112610207578060243567ffffffffffffffff8111610560576104ac9036906004016119c8565b82546001600160a01b03163314801561054c575b6104c990611fb1565b6008546001600160a01b031691826104e057505050f35b823b156105475761051a928492836040518096819582946338d44ad560e01b84526004356004850152604060248501526044840191611f91565b03925af1801561053c5761052b5750f35b8161053591611a97565b6102075780f35b6040513d84823e3d90fd5b505050fd5b506008546001600160a01b031633146104c0565b50fd5b503461020757604036600319011261020757604061057f61198f565b9160043581526004602052209060018060a01b03165f52602052606060405f2080549060ff600260018301549201541690604051928352602083015215156040820152f35b50346102075780600319360112610207576001546040516001600160a01b039091168152602090f35b50346102075780600319360112610207576002546040516001600160a01b039091168152602090f35b503461020757604036600319011261020757604061063261198f565b918082805161064081611a7b565b828152826020820152015260043581526004602052209060018060a01b03165f52602052606060405f2060405161067681611a7b565b815491828252604060ff600260018401549360208601948552015416920191151582526040519283525160208301525115156040820152f35b50346102075780600319360112610207576020604051620151808152f35b5034610207576020366003190112610207576106e7611979565b6106ef611fee565b6001600160a01b03168015610719576bffffffffffffffffffffffff60a01b600254161760025580f35b60405162461bcd60e51b815260206004820152601360248201527257696b693a207a65726f2074696d656c6f636b60681b6044820152606490fd5b5034610207578060031936011261020757602060405161012c8152f35b50346102075760203660031901126102075760209060ff906040906001600160a01b0361079c611979565b168152600584522054166040519015158152f35b50346108b45760203660031901126108b45760043560018060a01b035f541633148015610925575b6107e190611fb1565b6008546001600160a01b031680156108ef5760405163095ea7b360e01b81526001600160a01b03909116600482015260248101829052602081806044810103815f7f00000000000000000000000000000000000000000000000000000000000000006001600160a01b03165af180156108a9576108b8575b506008546001600160a01b031690813b156108b4575f91602483926040519485938492630f6baa0f60e21b845260048401525af180156108a95761089b575080f35b6108a791505f90611a97565b005b6040513d5f823e3d90fd5b5f80fd5b6020813d6020116108e7575b816108d160209383611a97565b810103126108b457518015158114610859575f80fd5b3d91506108c4565b60405162461bcd60e51b815260206004820152600e60248201526d149bdd5d195c881b9bdd081cd95d60921b6044820152606490fd5b506008546001600160a01b031633146107d8565b346108b45760203660031901126108b4576004356003548110156108b457610960906119f6565b5061096a81611ab9565b61097660018301611ab9565b90600283015460ff1692600381015490600481015460058201546006830154600784015460ff16600885015490600986015492600a87015494600b88015460ff1696600c89015498600d0154996040519d8e9d8e809e6101e082526101e082016109df91611b59565b9080820390602001526109f191611b59565b9c6040016109fe91611b7d565b60608d015260808c015260a08b015260c08a0152151560e08901526101008801526101208701526101408601526101608501610a3991611b8a565b6101808401526001600160a01b0381166101a084015260a01c60ff1615156101c08301520390f35b346108b4576101203660031901126108b45760043567ffffffffffffffff81116108b457610a939036906004016119c8565b60243567ffffffffffffffff81116108b457610ab39036906004016119c8565b92909160443560058110156108b45760e4358015158091036108b4576101043591610adc611fee565b6084356064351015610fd957426064351115610f9d5761012c8311610f6557610b3590610b276003549760405199610b138b611a5e565b610b1e36898b611f3f565b8b523691611f3f565b602089015260408801611f85565b6084356060870152606435608087015260a43560a087015260c43560c087015260e08601525f6101008601525f6101208601526101408501525f6101608501525f6101808501525f6101a08501525f6101c085015268010000000000000000831015610e7f5760018301600355610bab836119f6565b929092610f5257845180519067ffffffffffffffff8211610e7f578190610bd28654611a26565b601f8111610f05575b50602090601f8311600114610e9e575f92610e93575b50508160011b915f199060031b1c19161783555b602085015180519067ffffffffffffffff8211610e7f578190610c2b6001870154611a26565b601f8111610e2f575b50602090601f8311600114610dc2575f92610db7575b50508160011b915f199060031b1c19161760018401555b6002830160408601516005811015610da35760ff80198354169116179055606085015160038401556080850151600484015560a0850151600584015560c08501516006840155610cc660e08601511515600785019060ff801983541691151516179055565b61010085015160088401556101208501516009840155610140850151600a840155610160850151916004831015610da3576020956101c0600d86610d2f7f208e61cb94f388de8317e3bf4569be2a912366b1d5a8df15cac962fea10cea2697600b8b9a01611e65565b610180840151600c8201556101a08401519101805492909301516001600160a81b03199092166001600160a01b03919091161790151560a01b60ff60a01b16179055604051606080825290928392610d8992840191611f91565b6064358783015260843560408301520390a2604051908152f35b634e487b7160e01b5f52602160045260245ffd5b015190508780610c4a565b9250600186015f52805f20905f935b601f1984168510610e14576001945083601f19811610610dfc575b505050811b016001840155610c61565b01515f1960f88460031b161c19169055878080610dec565b81810151835560209485019460019093019290910190610dd1565b909150600186015f5260205f20601f840160051c810160208510610e78575b90849392915b601f830160051c82018110610e6a575050610c34565b5f8155859450600101610e54565b5080610e4e565b634e487b7160e01b5f52604160045260245ffd5b015190508780610bf1565b9250855f52805f20905f935b601f1984168510610eea576001945083601f19811610610ed2575b505050811b018355610c05565b01515f1960f88460031b161c19169055878080610ec5565b81810151835560209485019460019093019290910190610eaa565b909150855f5260205f20601f840160051c810160208510610f4b575b90849392915b601f830160051c82018110610f3d575050610bdb565b5f8155859450600101610f27565b5080610f21565b634e487b7160e01b5f525f60045260245ffd5b60405162461bcd60e51b815260206004820152601060248201526f0a09a7440cccaca40e8dede40d0d2ced60831b6044820152606490fd5b60405162461bcd60e51b815260206004820152601460248201527314134e88191958591b1a5b99481a5b881c185cdd60621b6044820152606490fd5b60405162461bcd60e51b815260206004820152601d60248201527f504d3a20646561646c696e65206166746572207265736f6c7574696f6e0000006044820152606490fd5b346108b45760403660031901126108b45760043560243560048110156108b457611046612001565b335f52600560205260ff60405f20541680156111c0575b156111885761106b826119f6565b50600b81019160ff8354166004811015610da3576110899015611e22565b6003820154421061115357801561111857600d6040926110ca837f13bfa3c09213a32e3e4e61fbacd90900cec1e99511766660189122444fdeec7d96611e65565b42600c82015501805460ff60a01b1933166001600160a81b031990911617600160a01b1790558151906110fe908290611b8a565b336020820152a260015f805160206120b983398151915255005b60405162461bcd60e51b8152602060048201526013602482015272504d3a20696e76616c6964206f7574636f6d6560681b6044820152606490fd5b60405162461bcd60e51b815260206004820152600d60248201526c504d3a20746f6f206561726c7960981b6044820152606490fd5b60405162461bcd60e51b815260206004820152601060248201526f28269d103737ba103932b9b7b63b32b960811b6044820152606490fd5b505f546001600160a01b0316331461105d565b346108b4576111e1366119a5565b6111ec929192612001565b6111f461209a565b6111fd826119f6565b5060ff600b820154166004811015610da3576113f15760048101544210156113b757620f4240821061137e575f838152600460209081526040808320338452909152902090841561135857816112568460089454611b97565b905501611264828254611b97565b90555b61127381600754611b97565b6007557f000000000000000000000000000000000000000000000000000000000000000092604051936323b872dd60e01b5f5233600452306024528260445260205f60648180855af160015f5114811615611339575b856040525f6060521561131957501515835260208301527f4af71b021e799c62c158bd54636ca8da2fa26115a21a2dc6efe486ec104fd15f60403393a360015f805160206120b983398151915255005b635274afe760e01b5f9081526001600160a01b0391909116600452602490fd5b600181151661134f57813b15153d1516166112c9565b853d5f823e3d90fd5b600160099201611369848254611b97565b905501611377828254611b97565b9055611267565b60405162461bcd60e51b8152602060048201526011602482015270504d3a2062656c6f77206d696e696d756d60781b6044820152606490fd5b60405162461bcd60e51b815260206004820152601260248201527114134e8818995d1d1a5b99c818db1bdcd95960721b6044820152606490fd5b60405162461bcd60e51b815260206004820152601160248201527014134e881b585c9ad95d0818db1bdcd959607a1b6044820152606490fd5b346108b4575f3660031901126108b4575f546040516001600160a01b039091168152602090f35b346108b4575f3660031901126108b4576040517f00000000000000000000000000000000000000000000000000000000000000006001600160a01b03168152602090f35b346108b4575f3660031901126108b4576114ad611fee565b6114b561209a565b6001805460ff60a01b1916600160a01b1790556040513381527f62e78cea01bee320cd4e420270b5ea74000d11b0c9f74754ebdbfc544b05a25890602090a1005b346108b4575f3660031901126108b4576008546040516001600160a01b039091168152602090f35b346108b45760203660031901126108b457611537611979565b61153f611fee565b600880546001600160a01b0319166001600160a01b0392909216919091179055005b346108b4575f3660031901126108b457600154336001600160a01b03909116036115d357600180546001600160a01b03199081169091555f805433928116831782556001600160a01b0316907f8be0079c531659141344cd1fd0a4f28419497f9722a3daafe3b4186f6b6457e09080a3005b63118cdaa760e01b5f523360045260245ffd5b346108b4575f3660031901126108b4576115fe611fee565b600180546001600160a01b03199081169091555f80549182168155906001600160a01b03167f8be0079c531659141344cd1fd0a4f28419497f9722a3daafe3b4186f6b6457e08280a3005b346108b4575f3660031901126108b4576020604051620f42408152f35b346108b4575f3660031901126108b4576020600754604051908152f35b346108b4575f3660031901126108b457602060ff60015460a01c166040519015158152f35b346108b45760806116c16116bb366119a5565b91611e7d565b91604051938452602084015260408301526060820152f35b346108b45760203660031901126108b4576004356116f5611fee565b6116fe816119f6565b50600b81019060ff825416916004831015610da35761171f600d9315611e22565b805460ff1916600317905501805460ff60a01b1916600160a01b1790557f195195e0299c84aaf9806e53f35fd9fa6d45ba472297297393afe457bfff77195f80a2005b346108b4575f3660031901126108b45761177a611fee565b60015460ff8160a01c16156117c15760ff60a01b19166001556040513381527f5db9ee0a495bf2e6ff9c91a7834c1ba4fdd244a5e8aa4e537bd38aeae4b073aa90602090a1005b638dfc202b60e01b5f5260045ffd5b346108b45760203660031901126108b4576117e9612001565b6117f4600435611bf6565b60015f805160206120b983398151915255005b346108b4575f3660031901126108b45760206040516127108152f35b346108b45760403660031901126108b45761183c611979565b60243580151581036108b4576108a791611854611fee565b60018060a01b03165f52600560205260405f209060ff801983541691151516179055565b346108b4575f3660031901126108b4576020600654604051908152f35b346108b45760203660031901126108b4576118ae611979565b6118b6611fee565b6118be612001565b6006548015611946577fc0819c13be868895eb93e40eaceb96de976442fa1d404e5c55f14bb65a8c489a915f60065561191882827f0000000000000000000000000000000000000000000000000000000000000000612039565b604080516001600160a01b039290921682526020820192909252a160015f805160206120b983398151915255005b60405162461bcd60e51b815260206004820152600b60248201526a504d3a206e6f206665657360a81b6044820152606490fd5b600435906001600160a01b03821682036108b457565b602435906001600160a01b03821682036108b457565b60609060031901126108b4576004359060243580151581036108b4579060443590565b9181601f840112156108b45782359167ffffffffffffffff83116108b457602083818601950101116108b457565b600354811015611a125760035f52600e60205f20910201905f90565b634e487b7160e01b5f52603260045260245ffd5b90600182811c92168015611a54575b6020831014611a4057565b634e487b7160e01b5f52602260045260245ffd5b91607f1691611a35565b6101e0810190811067ffffffffffffffff821117610e7f57604052565b6060810190811067ffffffffffffffff821117610e7f57604052565b90601f8019910116810190811067ffffffffffffffff821117610e7f57604052565b9060405191825f825492611acc84611a26565b8084529360018116908115611b375750600114611af3575b50611af192500383611a97565b565b90505f9291925260205f20905f915b818310611b1b575050906020611af1928201015f611ae4565b6020919350806001915483858901015201910190918492611b02565b905060209250611af194915060ff191682840152151560051b8201015f611ae4565b805180835260209291819084018484015e5f828201840152601f01601f1916010190565b906005821015610da35752565b906004821015610da35752565b91908201809211611ba457565b634e487b7160e01b5f52601160045260245ffd5b81810292918115918404141715611ba457565b8115611bd5570490565b634e487b7160e01b5f52601260045260245ffd5b91908203918211611ba457565b611bff816119f6565b5090805f52600460205260405f2060018060a01b0333165f5260205260405f2060ff600d84015460a01c1615611de85760028101805460ff8116611dad5760ff19166001179055600b8301805460ff166004811015610da357600314611d65575460ff166004811015610da357600114908115611d5b5754905b8115611d5557611cc7600a611cbe61271093611cb9611ccf96825f14611d4a5760088a0154925b15611d3d57611cb460098b01545b84611b97565b611bb8565b611bcb565b95015485611bb8565b048093611be9565b91611cdc81600654611b97565b600655611d0a83337f0000000000000000000000000000000000000000000000000000000000000000612039565b60405192835260208301527fd9cb1e2714d65a111c0f20f060176ad657496bd47a3de04ec7c3d4ca232112ac60403393a3565b611cb460088b0154611cae565b60098a015492611ca0565b50505050565b6001015490611c79565b509050611d7a91506001815491015490611b97565b80611d825750565b611af190337f0000000000000000000000000000000000000000000000000000000000000000612039565b60405162461bcd60e51b815260206004820152601360248201527214134e88185b1c9958591e4818db185a5b5959606a1b6044820152606490fd5b60405162461bcd60e51b815260206004820152601260248201527128269d1031b630b4b6903737ba1037b832b760711b6044820152606490fd5b15611e2957565b60405162461bcd60e51b815260206004820152601460248201527314134e88185b1c9958591e481c995cdbdb1d995960621b6044820152606490fd5b906004811015610da35760ff80198354169116179055565b611e86906119f6565b5092611e9e6008850154835f14611f38578490611b97565b91611eb56009860154825f14611f31575f90611b97565b9015611f2a5782935b8415611f1a57611ee7600a611ede87611cb961271095611cb4888b611b97565b97015487611bb8565b0493611ef38587611be9565b93612710820291820461271003611ba457611f1792611f1191611b97565b90611bcb565b90565b5050925050505f905f905f905f90565b8093611ebe565b8590611b97565b5f90611b97565b92919267ffffffffffffffff8211610e7f5760405191611f69601f8201601f191660200184611a97565b8294818452818301116108b4578281602093845f960137010152565b6005821015610da35752565b908060209392818452848401375f828201840152601f01601f1916010190565b15611fb857565b60405162461bcd60e51b815260206004820152600e60248201526d139bdd08185d5d1a1bdc9a5e995960921b6044820152606490fd5b5f546001600160a01b031633036115d357565b60025f805160206120b9833981519152541461202a5760025f805160206120b983398151915255565b633ee5aeb560e01b5f5260045ffd5b916040519163a9059cbb60e01b5f5260018060a01b031660045260245260205f60448180865af19060015f5114821615612079575b604052156113195750565b90600181151661209157823b15153d1516169061206e565b503d5f823e3d90fd5b60ff60015460a01c166120a957565b63d93c066560e01b5f5260045ffdfe9b779b17422d0df92223018b32b4d1fa46e071723d6817e2486d003becc55f00a2646970667358221220b38430f0803fa287097eba553bd51875a0a1c7c5ac0e44f9a27d951a93cf566964736f6c634300081a0033",
  "linkReferences": {},
  "deployedLinkReferences": {}
}