{
  "_format": "hh-sol-artifact-1",
  "contractName": "WikiPropFunded",
  "sourceName": "src/WikiPropFunded.sol",
  "abi": [
    {
      "inputs": [
        {
          "internalType": "address",
          "name": "usdc",
          "type": "address"
        },
        {
          "internalType": "address",
          "name": "owner",
          "type": "address"
        }
      ],
      "stateMutability": "nonpayable",
      "type": "constructor"
    },
    {
      "inputs": [],
      "name": "EnforcedPause",
      "type": "error"
    },
    {
      "inputs": [],
      "name": "ExpectedPause",
      "type": "error"
    },
    {
      "inputs": [
        {
          "internalType": "address",
          "name": "owner",
          "type": "address"
        }
      ],
      "name": "OwnableInvalidOwner",
      "type": "error"
    },
    {
      "inputs": [
        {
          "internalType": "address",
          "name": "account",
          "type": "address"
        }
      ],
      "name": "OwnableUnauthorizedAccount",
      "type": "error"
    },
    {
      "inputs": [],
      "name": "ReentrancyGuardReentrantCall",
      "type": "error"
    },
    {
      "inputs": [
        {
          "internalType": "address",
          "name": "token",
          "type": "address"
        }
      ],
      "name": "SafeERC20FailedOperation",
      "type": "error"
    },
    {
      "anonymous": false,
      "inputs": [
        {
          "indexed": true,
          "internalType": "uint256",
          "name": "accountId",
          "type": "uint256"
        },
        {
          "indexed": false,
          "internalType": "address",
          "name": "trader",
          "type": "address"
        },
        {
          "indexed": false,
          "internalType": "string",
          "name": "reason",
          "type": "string"
        },
        {
          "indexed": false,
          "internalType": "uint256",
          "name": "loss",
          "type": "uint256"
        }
      ],
      "name": "AccountBreached",
      "type": "event"
    },
    {
      "anonymous": false,
      "inputs": [
        {
          "indexed": true,
          "internalType": "uint256",
          "name": "accountId",
          "type": "uint256"
        },
        {
          "indexed": false,
          "internalType": "uint256",
          "name": "oldSize",
          "type": "uint256"
        },
        {
          "indexed": false,
          "internalType": "uint256",
          "name": "newSize",
          "type": "uint256"
        }
      ],
      "name": "AccountScaled",
      "type": "event"
    },
    {
      "anonymous": false,
      "inputs": [
        {
          "indexed": true,
          "internalType": "uint256",
          "name": "accountId",
          "type": "uint256"
        },
        {
          "indexed": false,
          "internalType": "address",
          "name": "trader",
          "type": "address"
        },
        {
          "indexed": false,
          "internalType": "uint256",
          "name": "currentBalance",
          "type": "uint256"
        },
        {
          "indexed": false,
          "internalType": "uint256",
          "name": "floor",
          "type": "uint256"
        }
      ],
      "name": "BufferAtRisk",
      "type": "event"
    },
    {
      "anonymous": false,
      "inputs": [
        {
          "indexed": true,
          "internalType": "uint256",
          "name": "accountId",
          "type": "uint256"
        },
        {
          "indexed": true,
          "internalType": "address",
          "name": "trader",
          "type": "address"
        },
        {
          "indexed": false,
          "internalType": "uint256",
          "name": "size",
          "type": "uint256"
        },
        {
          "indexed": false,
          "internalType": "uint8",
          "name": "tier",
          "type": "uint8"
        }
      ],
      "name": "FundedAccountCreated",
      "type": "event"
    },
    {
      "anonymous": false,
      "inputs": [
        {
          "indexed": false,
          "internalType": "uint256",
          "name": "marketId",
          "type": "uint256"
        },
        {
          "indexed": false,
          "internalType": "uint256",
          "name": "maxLev",
          "type": "uint256"
        }
      ],
      "name": "MarketLeverageCapUpdated",
      "type": "event"
    },
    {
      "anonymous": false,
      "inputs": [
        {
          "indexed": true,
          "internalType": "address",
          "name": "previousOwner",
          "type": "address"
        },
        {
          "indexed": true,
          "internalType": "address",
          "name": "newOwner",
          "type": "address"
        }
      ],
      "name": "OwnershipTransferStarted",
      "type": "event"
    },
    {
      "anonymous": false,
      "inputs": [
        {
          "indexed": true,
          "internalType": "address",
          "name": "previousOwner",
          "type": "address"
        },
        {
          "indexed": true,
          "internalType": "address",
          "name": "newOwner",
          "type": "address"
        }
      ],
      "name": "OwnershipTransferred",
      "type": "event"
    },
    {
      "anonymous": false,
      "inputs": [
        {
          "indexed": false,
          "internalType": "address",
          "name": "account",
          "type": "address"
        }
      ],
      "name": "Paused",
      "type": "event"
    },
    {
      "anonymous": false,
      "inputs": [
        {
          "indexed": true,
          "internalType": "uint256",
          "name": "accountId",
          "type": "uint256"
        },
        {
          "indexed": false,
          "internalType": "uint256",
          "name": "posId",
          "type": "uint256"
        },
        {
          "indexed": false,
          "internalType": "int256",
          "name": "pnl",
          "type": "int256"
        }
      ],
      "name": "PositionClosed",
      "type": "event"
    },
    {
      "anonymous": false,
      "inputs": [
        {
          "indexed": true,
          "internalType": "uint256",
          "name": "accountId",
          "type": "uint256"
        },
        {
          "indexed": false,
          "internalType": "uint256",
          "name": "posId",
          "type": "uint256"
        },
        {
          "indexed": false,
          "internalType": "uint256",
          "name": "size",
          "type": "uint256"
        },
        {
          "indexed": false,
          "internalType": "bool",
          "name": "isLong",
          "type": "bool"
        },
        {
          "indexed": false,
          "internalType": "bool",
          "name": "flashLoan",
          "type": "bool"
        }
      ],
      "name": "PositionOpened",
      "type": "event"
    },
    {
      "anonymous": false,
      "inputs": [
        {
          "indexed": true,
          "internalType": "uint256",
          "name": "accountId",
          "type": "uint256"
        },
        {
          "indexed": false,
          "internalType": "address",
          "name": "trader",
          "type": "address"
        },
        {
          "indexed": false,
          "internalType": "uint256",
          "name": "traderAmt",
          "type": "uint256"
        },
        {
          "indexed": false,
          "internalType": "uint256",
          "name": "poolAmt",
          "type": "uint256"
        }
      ],
      "name": "ProfitWithdrawn",
      "type": "event"
    },
    {
      "anonymous": false,
      "inputs": [
        {
          "indexed": true,
          "internalType": "uint256",
          "name": "accountId",
          "type": "uint256"
        },
        {
          "indexed": false,
          "internalType": "address",
          "name": "trader",
          "type": "address"
        },
        {
          "indexed": false,
          "internalType": "uint256",
          "name": "newSplitBps",
          "type": "uint256"
        }
      ],
      "name": "SplitUpgraded",
      "type": "event"
    },
    {
      "anonymous": false,
      "inputs": [
        {
          "indexed": false,
          "internalType": "uint8",
          "name": "tier",
          "type": "uint8"
        },
        {
          "indexed": false,
          "internalType": "uint256",
          "name": "maxLev",
          "type": "uint256"
        }
      ],
      "name": "TierLeverageUpdated",
      "type": "event"
    },
    {
      "anonymous": false,
      "inputs": [
        {
          "indexed": false,
          "internalType": "address",
          "name": "account",
          "type": "address"
        }
      ],
      "name": "Unpaused",
      "type": "event"
    },
    {
      "inputs": [],
      "name": "AAVE_FLASH_FEE_BPS",
      "outputs": [
        {
          "internalType": "uint256",
          "name": "",
          "type": "uint256"
        }
      ],
      "stateMutability": "view",
      "type": "function"
    },
    {
      "inputs": [],
      "name": "AAVE_POOL",
      "outputs": [
        {
          "internalType": "address",
          "name": "",
          "type": "address"
        }
      ],
      "stateMutability": "view",
      "type": "function"
    },
    {
      "inputs": [],
      "name": "MAX_SPLIT_BPS",
      "outputs": [
        {
          "internalType": "uint256",
          "name": "",
          "type": "uint256"
        }
      ],
      "stateMutability": "view",
      "type": "function"
    },
    {
      "inputs": [],
      "name": "PROTOCOL_SHARE_OF_POOL_BPS",
      "outputs": [
        {
          "internalType": "uint256",
          "name": "",
          "type": "uint256"
        }
      ],
      "stateMutability": "view",
      "type": "function"
    },
    {
      "inputs": [],
      "name": "SPLIT_SCALE_1_X",
      "outputs": [
        {
          "internalType": "uint256",
          "name": "",
          "type": "uint256"
        }
      ],
      "stateMutability": "view",
      "type": "function"
    },
    {
      "inputs": [],
      "name": "SPLIT_SCALE_2_X",
      "outputs": [
        {
          "internalType": "uint256",
          "name": "",
          "type": "uint256"
        }
      ],
      "stateMutability": "view",
      "type": "function"
    },
    {
      "inputs": [],
      "name": "USDC",
      "outputs": [
        {
          "internalType": "contract IERC20",
          "name": "",
          "type": "address"
        }
      ],
      "stateMutability": "view",
      "type": "function"
    },
    {
      "inputs": [],
      "name": "acceptOwnership",
      "outputs": [],
      "stateMutability": "nonpayable",
      "type": "function"
    },
    {
      "inputs": [
        {
          "internalType": "uint256",
          "name": "id",
          "type": "uint256"
        }
      ],
      "name": "accountStats",
      "outputs": [
        {
          "internalType": "uint256",
          "name": "profit",
          "type": "uint256"
        },
        {
          "internalType": "uint256",
          "name": "profitPct",
          "type": "uint256"
        },
        {
          "internalType": "uint256",
          "name": "traderCut",
          "type": "uint256"
        },
        {
          "internalType": "uint256",
          "name": "poolCut",
          "type": "uint256"
        },
        {
          "internalType": "uint256",
          "name": "dailyDDUsedPct",
          "type": "uint256"
        },
        {
          "internalType": "uint256",
          "name": "totalDDUsedPct",
          "type": "uint256"
        },
        {
          "internalType": "uint256",
          "name": "nextSplitAt",
          "type": "uint256"
        }
      ],
      "stateMutability": "view",
      "type": "function"
    },
    {
      "inputs": [
        {
          "internalType": "uint256",
          "name": "",
          "type": "uint256"
        }
      ],
      "name": "accounts",
      "outputs": [
        {
          "internalType": "address",
          "name": "trader",
          "type": "address"
        },
        {
          "internalType": "uint8",
          "name": "tier",
          "type": "uint8"
        },
        {
          "internalType": "enum WikiPropFunded.FundedStatus",
          "name": "status",
          "type": "uint8"
        },
        {
          "internalType": "uint256",
          "name": "accountSize",
          "type": "uint256"
        },
        {
          "internalType": "uint256",
          "name": "originalSize",
          "type": "uint256"
        },
        {
          "internalType": "uint256",
          "name": "startingBalance",
          "type": "uint256"
        },
        {
          "internalType": "uint256",
          "name": "currentBalance",
          "type": "uint256"
        },
        {
          "internalType": "uint256",
          "name": "peakBalance",
          "type": "uint256"
        },
        {
          "internalType": "uint256",
          "name": "dailyStartBalance",
          "type": "uint256"
        },
        {
          "internalType": "uint256",
          "name": "lastDayTs",
          "type": "uint256"
        },
        {
          "internalType": "uint256",
          "name": "traderSplitBps",
          "type": "uint256"
        },
        {
          "internalType": "uint256",
          "name": "cumulativeProfitPaid",
          "type": "uint256"
        },
        {
          "internalType": "uint256",
          "name": "cumulativePoolProfit",
          "type": "uint256"
        },
        {
          "internalType": "uint256",
          "name": "totalTrades",
          "type": "uint256"
        },
        {
          "internalType": "uint256",
          "name": "createdAt",
          "type": "uint256"
        },
        {
          "internalType": "uint256",
          "name": "closedAt",
          "type": "uint256"
        },
        {
          "internalType": "bool",
          "name": "usingFlashLoan",
          "type": "bool"
        },
        {
          "internalType": "uint256",
          "name": "activePositionId",
          "type": "uint256"
        },
        {
          "internalType": "uint256",
          "name": "allocatedCapital",
          "type": "uint256"
        },
        {
          "internalType": "string",
          "name": "closeReason",
          "type": "string"
        },
        {
          "internalType": "uint256",
          "name": "retainedBuffer",
          "type": "uint256"
        },
        {
          "internalType": "uint256",
          "name": "withdrawalCount",
          "type": "uint256"
        },
        {
          "internalType": "uint256",
          "name": "lastWithdrawalTs",
          "type": "uint256"
        },
        {
          "internalType": "uint256",
          "name": "totalWithdrawn",
          "type": "uint256"
        }
      ],
      "stateMutability": "view",
      "type": "function"
    },
    {
      "inputs": [
        {
          "internalType": "address",
          "name": "",
          "type": "address"
        }
      ],
      "name": "activeFundedId",
      "outputs": [
        {
          "internalType": "uint256",
          "name": "",
          "type": "uint256"
        }
      ],
      "stateMutability": "view",
      "type": "function"
    },
    {
      "inputs": [
        {
          "internalType": "uint256",
          "name": "accountId",
          "type": "uint256"
        }
      ],
      "name": "checkBreach",
      "outputs": [],
      "stateMutability": "nonpayable",
      "type": "function"
    },
    {
      "inputs": [
        {
          "internalType": "uint256",
          "name": "accountId",
          "type": "uint256"
        }
      ],
      "name": "checkBufferBreach",
      "outputs": [],
      "stateMutability": "nonpayable",
      "type": "function"
    },
    {
      "inputs": [
        {
          "internalType": "uint256",
          "name": "accountId",
          "type": "uint256"
        },
        {
          "internalType": "uint256",
          "name": "minPrice",
          "type": "uint256"
        },
        {
          "internalType": "uint256",
          "name": "maxPrice",
          "type": "uint256"
        }
      ],
      "name": "closePosition",
      "outputs": [],
      "stateMutability": "nonpayable",
      "type": "function"
    },
    {
      "inputs": [],
      "name": "cooldownPeriod",
      "outputs": [
        {
          "internalType": "uint256",
          "name": "",
          "type": "uint256"
        }
      ],
      "stateMutability": "view",
      "type": "function"
    },
    {
      "inputs": [
        {
          "internalType": "address",
          "name": "trader",
          "type": "address"
        },
        {
          "internalType": "uint256",
          "name": "accountSize",
          "type": "uint256"
        },
        {
          "internalType": "uint8",
          "name": "tier",
          "type": "uint8"
        },
        {
          "internalType": "uint8",
          "name": "initialSplitPct",
          "type": "uint8"
        }
      ],
      "name": "createFundedAccount",
      "outputs": [
        {
          "internalType": "uint256",
          "name": "accountId",
          "type": "uint256"
        }
      ],
      "stateMutability": "nonpayable",
      "type": "function"
    },
    {
      "inputs": [
        {
          "internalType": "uint8",
          "name": "",
          "type": "uint8"
        }
      ],
      "name": "dailyDDLimitBps",
      "outputs": [
        {
          "internalType": "uint256",
          "name": "",
          "type": "uint256"
        }
      ],
      "stateMutability": "view",
      "type": "function"
    },
    {
      "inputs": [],
      "name": "evalContract",
      "outputs": [
        {
          "internalType": "address",
          "name": "",
          "type": "address"
        }
      ],
      "stateMutability": "view",
      "type": "function"
    },
    {
      "inputs": [
        {
          "internalType": "address",
          "name": "asset",
          "type": "address"
        },
        {
          "internalType": "uint256",
          "name": "amount",
          "type": "uint256"
        },
        {
          "internalType": "uint256",
          "name": "premium",
          "type": "uint256"
        },
        {
          "internalType": "address",
          "name": "initiator",
          "type": "address"
        },
        {
          "internalType": "bytes",
          "name": "params",
          "type": "bytes"
        }
      ],
      "name": "executeOperation",
      "outputs": [
        {
          "internalType": "bool",
          "name": "",
          "type": "bool"
        }
      ],
      "stateMutability": "nonpayable",
      "type": "function"
    },
    {
      "inputs": [
        {
          "internalType": "uint256",
          "name": "accountId",
          "type": "uint256"
        }
      ],
      "name": "forceCloseBreached",
      "outputs": [],
      "stateMutability": "nonpayable",
      "type": "function"
    },
    {
      "inputs": [
        {
          "internalType": "uint256",
          "name": "id",
          "type": "uint256"
        }
      ],
      "name": "getAccount",
      "outputs": [
        {
          "components": [
            {
              "internalType": "address",
              "name": "trader",
              "type": "address"
            },
            {
              "internalType": "uint8",
              "name": "tier",
              "type": "uint8"
            },
            {
              "internalType": "enum WikiPropFunded.FundedStatus",
              "name": "status",
              "type": "uint8"
            },
            {
              "internalType": "uint256",
              "name": "accountSize",
              "type": "uint256"
            },
            {
              "internalType": "uint256",
              "name": "originalSize",
              "type": "uint256"
            },
            {
              "internalType": "uint256",
              "name": "startingBalance",
              "type": "uint256"
            },
            {
              "internalType": "uint256",
              "name": "currentBalance",
              "type": "uint256"
            },
            {
              "internalType": "uint256",
              "name": "peakBalance",
              "type": "uint256"
            },
            {
              "internalType": "uint256",
              "name": "dailyStartBalance",
              "type": "uint256"
            },
            {
              "internalType": "uint256",
              "name": "lastDayTs",
              "type": "uint256"
            },
            {
              "internalType": "uint256",
              "name": "traderSplitBps",
              "type": "uint256"
            },
            {
              "internalType": "uint256",
              "name": "cumulativeProfitPaid",
              "type": "uint256"
            },
            {
              "internalType": "uint256",
              "name": "cumulativePoolProfit",
              "type": "uint256"
            },
            {
              "internalType": "uint256",
              "name": "totalTrades",
              "type": "uint256"
            },
            {
              "internalType": "uint256",
              "name": "createdAt",
              "type": "uint256"
            },
            {
              "internalType": "uint256",
              "name": "closedAt",
              "type": "uint256"
            },
            {
              "internalType": "bool",
              "name": "usingFlashLoan",
              "type": "bool"
            },
            {
              "internalType": "uint256",
              "name": "activePositionId",
              "type": "uint256"
            },
            {
              "internalType": "uint256",
              "name": "allocatedCapital",
              "type": "uint256"
            },
            {
              "internalType": "string",
              "name": "closeReason",
              "type": "string"
            },
            {
              "internalType": "uint256",
              "name": "retainedBuffer",
              "type": "uint256"
            },
            {
              "internalType": "uint256",
              "name": "withdrawalCount",
              "type": "uint256"
            },
            {
              "internalType": "uint256",
              "name": "lastWithdrawalTs",
              "type": "uint256"
            },
            {
              "internalType": "uint256",
              "name": "totalWithdrawn",
              "type": "uint256"
            }
          ],
          "internalType": "struct WikiPropFunded.FundedAccount",
          "name": "",
          "type": "tuple"
        }
      ],
      "stateMutability": "view",
      "type": "function"
    },
    {
      "inputs": [
        {
          "internalType": "uint256",
          "name": "accountId",
          "type": "uint256"
        },
        {
          "internalType": "uint256",
          "name": "marketIndex",
          "type": "uint256"
        }
      ],
      "name": "getEffectiveLeverageCap",
      "outputs": [
        {
          "internalType": "uint256",
          "name": "effectiveCap",
          "type": "uint256"
        },
        {
          "internalType": "uint256",
          "name": "tierCap",
          "type": "uint256"
        },
        {
          "internalType": "uint256",
          "name": "marketCap",
          "type": "uint256"
        },
        {
          "internalType": "string",
          "name": "reason",
          "type": "string"
        }
      ],
      "stateMutability": "view",
      "type": "function"
    },
    {
      "inputs": [
        {
          "internalType": "address",
          "name": "t",
          "type": "address"
        }
      ],
      "name": "getTraderAccounts",
      "outputs": [
        {
          "internalType": "uint256[]",
          "name": "",
          "type": "uint256[]"
        }
      ],
      "stateMutability": "view",
      "type": "function"
    },
    {
      "inputs": [
        {
          "internalType": "uint256",
          "name": "accountId",
          "type": "uint256"
        }
      ],
      "name": "getWithdrawalStatus",
      "outputs": [
        {
          "internalType": "uint256",
          "name": "grossProfit",
          "type": "uint256"
        },
        {
          "internalType": "uint256",
          "name": "retainAmount",
          "type": "uint256"
        },
        {
          "internalType": "uint256",
          "name": "maxWithdrawable",
          "type": "uint256"
        },
        {
          "internalType": "uint256",
          "name": "traderReceives",
          "type": "uint256"
        },
        {
          "internalType": "uint256",
          "name": "retainedBufferTotal",
          "type": "uint256"
        },
        {
          "internalType": "uint256",
          "name": "cooldownEndsAt",
          "type": "uint256"
        },
        {
          "internalType": "bool",
          "name": "canWithdrawNow",
          "type": "bool"
        },
        {
          "internalType": "string",
          "name": "statusMsg",
          "type": "string"
        }
      ],
      "stateMutability": "view",
      "type": "function"
    },
    {
      "inputs": [
        {
          "internalType": "uint256",
          "name": "",
          "type": "uint256"
        }
      ],
      "name": "marketMaxLeverage",
      "outputs": [
        {
          "internalType": "uint256",
          "name": "",
          "type": "uint256"
        }
      ],
      "stateMutability": "view",
      "type": "function"
    },
    {
      "inputs": [],
      "name": "minRetainBuffer",
      "outputs": [
        {
          "internalType": "uint256",
          "name": "",
          "type": "uint256"
        }
      ],
      "stateMutability": "view",
      "type": "function"
    },
    {
      "inputs": [],
      "name": "minRetainPct",
      "outputs": [
        {
          "internalType": "uint256",
          "name": "",
          "type": "uint256"
        }
      ],
      "stateMutability": "view",
      "type": "function"
    },
    {
      "inputs": [
        {
          "internalType": "uint256",
          "name": "accountId",
          "type": "uint256"
        },
        {
          "internalType": "uint256",
          "name": "marketIndex",
          "type": "uint256"
        },
        {
          "internalType": "bool",
          "name": "isLong",
          "type": "bool"
        },
        {
          "internalType": "uint256",
          "name": "positionSize",
          "type": "uint256"
        },
        {
          "internalType": "uint256",
          "name": "leverage",
          "type": "uint256"
        },
        {
          "internalType": "uint256",
          "name": "minPrice",
          "type": "uint256"
        },
        {
          "internalType": "uint256",
          "name": "maxPrice",
          "type": "uint256"
        }
      ],
      "name": "openPosition",
      "outputs": [],
      "stateMutability": "nonpayable",
      "type": "function"
    },
    {
      "inputs": [],
      "name": "owner",
      "outputs": [
        {
          "internalType": "address",
          "name": "",
          "type": "address"
        }
      ],
      "stateMutability": "view",
      "type": "function"
    },
    {
      "inputs": [],
      "name": "pause",
      "outputs": [],
      "stateMutability": "nonpayable",
      "type": "function"
    },
    {
      "inputs": [],
      "name": "paused",
      "outputs": [
        {
          "internalType": "bool",
          "name": "",
          "type": "bool"
        }
      ],
      "stateMutability": "view",
      "type": "function"
    },
    {
      "inputs": [],
      "name": "pendingOwner",
      "outputs": [
        {
          "internalType": "address",
          "name": "",
          "type": "address"
        }
      ],
      "stateMutability": "view",
      "type": "function"
    },
    {
      "inputs": [],
      "name": "perpContract",
      "outputs": [
        {
          "internalType": "address",
          "name": "",
          "type": "address"
        }
      ],
      "stateMutability": "view",
      "type": "function"
    },
    {
      "inputs": [],
      "name": "propPool",
      "outputs": [
        {
          "internalType": "address",
          "name": "",
          "type": "address"
        }
      ],
      "stateMutability": "view",
      "type": "function"
    },
    {
      "inputs": [],
      "name": "protocolTreasury",
      "outputs": [
        {
          "internalType": "address",
          "name": "",
          "type": "address"
        }
      ],
      "stateMutability": "view",
      "type": "function"
    },
    {
      "inputs": [],
      "name": "renounceOwnership",
      "outputs": [],
      "stateMutability": "nonpayable",
      "type": "function"
    },
    {
      "inputs": [
        {
          "internalType": "uint256",
          "name": "accountId",
          "type": "uint256"
        }
      ],
      "name": "requestScaleUp",
      "outputs": [],
      "stateMutability": "nonpayable",
      "type": "function"
    },
    {
      "inputs": [],
      "name": "retentionEnabled",
      "outputs": [
        {
          "internalType": "bool",
          "name": "",
          "type": "bool"
        }
      ],
      "stateMutability": "view",
      "type": "function"
    },
    {
      "inputs": [
        {
          "internalType": "uint8",
          "name": "tier",
          "type": "uint8"
        },
        {
          "internalType": "uint256",
          "name": "bps",
          "type": "uint256"
        }
      ],
      "name": "setDailyDDLimit",
      "outputs": [],
      "stateMutability": "nonpayable",
      "type": "function"
    },
    {
      "inputs": [
        {
          "internalType": "address",
          "name": "e",
          "type": "address"
        }
      ],
      "name": "setEvalContract",
      "outputs": [],
      "stateMutability": "nonpayable",
      "type": "function"
    },
    {
      "inputs": [
        {
          "internalType": "uint256",
          "name": "marketId",
          "type": "uint256"
        },
        {
          "internalType": "uint256",
          "name": "maxLev",
          "type": "uint256"
        }
      ],
      "name": "setMarketLeverageCap",
      "outputs": [],
      "stateMutability": "nonpayable",
      "type": "function"
    },
    {
      "inputs": [
        {
          "internalType": "address",
          "name": "p",
          "type": "address"
        }
      ],
      "name": "setPerpContract",
      "outputs": [],
      "stateMutability": "nonpayable",
      "type": "function"
    },
    {
      "inputs": [
        {
          "internalType": "address",
          "name": "p",
          "type": "address"
        }
      ],
      "name": "setPropPool",
      "outputs": [],
      "stateMutability": "nonpayable",
      "type": "function"
    },
    {
      "inputs": [
        {
          "internalType": "uint256",
          "name": "accountId",
          "type": "uint256"
        },
        {
          "internalType": "bool",
          "name": "exempt",
          "type": "bool"
        }
      ],
      "name": "setRetentionExempt",
      "outputs": [],
      "stateMutability": "nonpayable",
      "type": "function"
    },
    {
      "inputs": [
        {
          "internalType": "uint8",
          "name": "tier",
          "type": "uint8"
        },
        {
          "internalType": "uint256",
          "name": "maxLev",
          "type": "uint256"
        }
      ],
      "name": "setTierMaxLeverage",
      "outputs": [],
      "stateMutability": "nonpayable",
      "type": "function"
    },
    {
      "inputs": [
        {
          "internalType": "uint8",
          "name": "tier",
          "type": "uint8"
        },
        {
          "internalType": "uint256",
          "name": "bps",
          "type": "uint256"
        }
      ],
      "name": "setTotalDDLimit",
      "outputs": [],
      "stateMutability": "nonpayable",
      "type": "function"
    },
    {
      "inputs": [
        {
          "internalType": "address",
          "name": "t",
          "type": "address"
        }
      ],
      "name": "setTreasury",
      "outputs": [],
      "stateMutability": "nonpayable",
      "type": "function"
    },
    {
      "inputs": [
        {
          "internalType": "uint8",
          "name": "",
          "type": "uint8"
        }
      ],
      "name": "tierMaxLeverage",
      "outputs": [
        {
          "internalType": "uint256",
          "name": "",
          "type": "uint256"
        }
      ],
      "stateMutability": "view",
      "type": "function"
    },
    {
      "inputs": [
        {
          "internalType": "uint8",
          "name": "",
          "type": "uint8"
        }
      ],
      "name": "totalDDLimitBps",
      "outputs": [
        {
          "internalType": "uint256",
          "name": "",
          "type": "uint256"
        }
      ],
      "stateMutability": "view",
      "type": "function"
    },
    {
      "inputs": [],
      "name": "totalFundedAccounts",
      "outputs": [
        {
          "internalType": "uint256",
          "name": "",
          "type": "uint256"
        }
      ],
      "stateMutability": "view",
      "type": "function"
    },
    {
      "inputs": [],
      "name": "totalLossesAbsorbed",
      "outputs": [
        {
          "internalType": "uint256",
          "name": "",
          "type": "uint256"
        }
      ],
      "stateMutability": "view",
      "type": "function"
    },
    {
      "inputs": [],
      "name": "totalProfitPaidToPool",
      "outputs": [
        {
          "internalType": "uint256",
          "name": "",
          "type": "uint256"
        }
      ],
      "stateMutability": "view",
      "type": "function"
    },
    {
      "inputs": [],
      "name": "totalProfitPaidToProtocol",
      "outputs": [
        {
          "internalType": "uint256",
          "name": "",
          "type": "uint256"
        }
      ],
      "stateMutability": "view",
      "type": "function"
    },
    {
      "inputs": [],
      "name": "totalProfitPaidToTraders",
      "outputs": [
        {
          "internalType": "uint256",
          "name": "",
          "type": "uint256"
        }
      ],
      "stateMutability": "view",
      "type": "function"
    },
    {
      "inputs": [
        {
          "internalType": "address",
          "name": "",
          "type": "address"
        },
        {
          "internalType": "uint256",
          "name": "",
          "type": "uint256"
        }
      ],
      "name": "traderAccounts",
      "outputs": [
        {
          "internalType": "uint256",
          "name": "",
          "type": "uint256"
        }
      ],
      "stateMutability": "view",
      "type": "function"
    },
    {
      "inputs": [
        {
          "internalType": "address",
          "name": "newOwner",
          "type": "address"
        }
      ],
      "name": "transferOwnership",
      "outputs": [],
      "stateMutability": "nonpayable",
      "type": "function"
    },
    {
      "inputs": [],
      "name": "unpause",
      "outputs": [],
      "stateMutability": "nonpayable",
      "type": "function"
    },
    {
      "inputs": [
        {
          "internalType": "uint256",
          "name": "accountId",
          "type": "uint256"
        }
      ],
      "name": "withdrawProfits",
      "outputs": [],
      "stateMutability": "nonpayable",
      "type": "function"
    }
  ],
  "bytecode": "0x60a03461027457601f61414938819003918201601f19168301916001600160401b03831184841017610278578084926040948552833981010312610274576100468161028c565b906001600160a01b039061005c9060200161028c565b1690811561026157600180546001600160a01b03199081169091555f80549182168417815560405193916001600160a01b0316907f8be0079c531659141344cd1fd0a4f28419497f9722a3daafe3b4186f6b6457e09080a360017f9b779b17422d0df92223018b32b4d1fa46e071723d6817e2486d003becc55f008190556019600a555f600b5562093a80600c55600d805460ff191690911790556001600160a01b031690811561022d57506080526101907f3e5fec24aa4dc4e5aee2e025e51e1392c72a2500577559fae9665c6d52bd6a31556101f47f8819ef417987f8ae7a81f42cdfb18815282fe989326fbff903d13cf0e03ace295561012c7f75f96ab15d697e93042dc45b5c896c4b27e89bb6eaf39475c5c371cb2513f7d25560076020526103207fb39221ace053465ec3453ce2b36430bd138b997ecea25c1043da0c366812b828556103e87fb7c774451310d1be4108bc180d1b52823cb0ee0274a6c0081bcaf94f115fb96d5560035f526102587f3be6fd20d5acfde5b873b48692cd31f4d3c7e8ee8a813af4696af8859e5ca6c655604051613ea890816102a182396080518181816105110152818161056e0152818161066001528181611851015281816127630152612cd80152f35b62461bcd60e51b815260206004820152600f60248201526e57696b693a207a65726f207573646360881b6044820152606490fd5b631e4fbdf760e01b5f525f60045260245ffd5b5f80fd5b634e487b7160e01b5f52604160045260245ffd5b51906001600160a01b03821682036102745756fe6101e0806040526004361015610013575f80fd5b5f905f3560e01c90816248ef7e146131875750806304646a491461316a5780630858631c1461309657806308a01675146130685780630bf30b361461304b5780631b11d0ff14612c385780631c195a0a14612c1c57806335cf1ba714612bff5780633f4ba83a14612b9157806340142c5e14612b5f57806341d4120a14612b285780634599791e14612b005780634adbae1614612ae35780634f3792e114612abb5780635505a8b614612a065780635c975abb146129e15780635df0705d146123315780635e6366ec146122fa5780635e87a056146122de57806360ec36fa14612289578063637b6b3f1461222457806365f98d4f1461216f5780636b58662a1461214c5780636b9cbd7a14612123578063715018a6146120be57806379ba5097146120395780637edc8f7314611af05780637ef579e214611abe578063803db96d14611a9557806380c4c6ea14611a3e5780638456cb59146119db578063871d6d22146118aa578063891762261461188057806389a302711461183b5780638b0c5e45146118025780638da5cb5b146117db5780639cdac32b1461179b578063a02d61511461175b578063ae32ff1014611735578063b135b2db14611719578063b35648d714611376578063bf1bc7a01461133f578063ce88b14514611010578063d5d5fee614610ff4578063d854c15214610fd6578063db289ca714610fa4578063e0102d7c14610f86578063e30c397814610f5d578063ec549bec14610da3578063f0f4426014610d63578063f101573714610d45578063f1fce33414610d05578063f2a40db814610aec578063f2fde38b14610a7f578063f8b4cf6414610a61578063fda37be514610a3c578063ff2bf395146108975763ff8c94a81461029c575f80fd5b34610894576020366003190112610894576004356102b861376e565b808252600e60205260408220805490919060ff906102e06001600160a01b03821633146133ff565b60a81c166004811015610880576102f79015613608565b610305600f830154156136fc565b6014820180548015908115610869575b50156108105760048301928354600382015490818082115f146108075761033b916133f2565b925b83156107c2578360ff600d5416806107b7575b610730575b5061037261271061036a600886015487613485565b0480956133f2565b95611f408702878104611f40148815171561071c576103996127106103a5920480996133f2565b93601286015490613389565b9055600983016103b6858254613389565b9055600a83016103c7878254613389565b9055601383016103d781546133e4565b9055429055601582016103eb848254613389565b9055838652600e602052604086206009810154600a810290808204600a14901517156107085790610422869260028301549061344b565b6008820191825480926032811015806106fd575b156106d5575050612328915b8203610689575b505050508261064d575b8461053a575b916104e9946104e17fd52d9e0b8d29dc5eaed511e2a11d261bee76ab4f4b9d5bc48e575874afd640d6936104b48688976104fd575b61049a86601554613389565b6015556104a985601654613389565b601655601754613389565b60175554604080516001600160a01b03909216825260208201949094529283019190915281906060820190565b0390a2613dbf565b60015f80516020613e538339815191525580f35b6005546105359082906001600160a01b03167f0000000000000000000000000000000000000000000000000000000000000000613d3e565b61048e565b60035460405163095ea7b360e01b81526001600160a01b03909116600482015260248101869052602081806044810103818a7f00000000000000000000000000000000000000000000000000000000000000006001600160a01b03165af1801561064257610615575b5060035486906001600160a01b0316803b15610611578180916024604051809481936378ae5b9f60e01b83528c60048401525af18015610606576105e9575b5050610459565b816105f6919593956132af565b6106025791855f6105e2565b8580fd5b6040513d84823e3d90fd5b5080fd5b6106369060203d60201161063b575b61062e81836132af565b810190613371565b6105a3565b503d610624565b6040513d89823e3d90fd5b81546106849084906001600160a01b03167f0000000000000000000000000000000000000000000000000000000000000000613d3e565b610453565b918190559054604080516001600160a01b03909216825260208201929092527f2a8a42c28b6ffa4b3c61cd87274557578fe3c1f58dd16d2d83a4819a8c470d719190a2835f8080610449565b6014909391931015806106f2575b1561044257611f409250610442565b50611f4083106106e3565b506123288210610436565b634e487b7160e01b88526011600452602488fd5b634e487b7160e01b89526011600452602489fd5b9350610743606461036a600a5487613485565b9384156107615761075960128501918254613389565b90555f610355565b60405162461bcd60e51b815260206004820152602860248201527f46756e6465643a2070726f66697420746f6f20736d616c6c206166746572207260448201526732ba32b73a34b7b760c11b6064820152608490fd5b50600a541515610350565b60405162461bcd60e51b815260206004820152601d60248201527f46756e6465643a206e6f2070726f66697420746f2077697468647261770000006044820152606490fd5b5050859261033d565b60405162461bcd60e51b815260206004820152602b60248201527f46756e6465643a207769746864726177616c20636f6f6c646f776e206163746960448201526a766520283720646179732960a81b6064820152608490fd5b6108779150600c5490613389565b4210155f610315565b634e487b7160e01b84526021600452602484fd5b80fd5b5034610894576020366003190112610894576004356108b461376e565b808252600e60205260408220805460ff906108d96001600160a01b03821633146133ff565b60a81c166004811015610880576108f09015613608565b6108fe600f820154156136fc565b6009810154156109f75760018101805460028301548060011b90808204600214901517156109e3578082101561099e577fa675493d8aa1e00a76a0a73ab0db67de5cdad9e3664829acbb22f35114d9b7c0936040936109608460021c85613389565b92808411610996575b508290556003600482015491015582519182526020820152a260015f80516020613e538339815191525580f35b92505f610969565b60405162461bcd60e51b815260206004820152601960248201527f46756e6465643a206d6178207363616c652072656163686564000000000000006044820152606490fd5b634e487b7160e01b86526011600452602486fd5b60405162461bcd60e51b815260206004820152601e60248201527f46756e6465643a2077697468647261772070726f6669747320666972737400006044820152606490fd5b503461089457602036600319011261089457610a5661376e565b6104e9600435613659565b50346108945780600319360112610894576020601554604051908152f35b503461089457602036600319011261089457610a996131b1565b610aa1613748565b600180546001600160a01b0319166001600160a01b0392831690811790915582549091167f38d16b8cac22d99fc7c124b9cd0de2d3fa1faef420bfe791d8c362d765e227008380a380f35b5034610894576020366003190112610894576040906004358152600e602052206101c0526101c0515460016101c05101546101205260026101c05101546101405260036101c05101546101a05260046101c051015460056101c051015460066101c051015460076101c051015460086101c051015460096101c0510154600a6101c051015491600b6101c051015493600c6101c051015495600d6101c05101549760ff600e6101c05101541699610c24600f6101c05101549c60106101c0510154608052610bbf60116101c051016132d1565b6101805260126101c05101546101005260136101c051015460c05260146101c05101546101605260156101c051015460e05260405160a05260018060a01b03811660a0515260ff8160a01c16602060a051015260ff604060a051019160a81c16613239565b61012051606060a051015261014051608060a05101526101a05160a08051015260c060a051015260e060a051015261010060a051015261012060a051015261014060a051015261016060a051015261018060a05101526101a060a05101526101c060a05101526101e060a0510152151561020060a051015261022060a051015260805161024060a051015261030061026060a0510152610ccd61030060a05101610180516131ec565b6101005161028060a051015260c0516102a060a0510152610160516102c060a051015260e0516102e060a051015260a051900360a051f35b503461089457602036600319011261089457610d1f6131b1565b610d27613748565b60018060a01b03166001600160601b0360a01b600354161760035580f35b50346108945780600319360112610894576020601854604051908152f35b503461089457602036600319011261089457610d7d6131b1565b610d85613748565b60018060a01b03166001600160601b0360a01b600554161760055580f35b503461089457602036600319011261089457600480358252600e6020526040822090810154600382015491839183811115610f5657610de284826133f2565b935b61271085028581046127101486151715610f425781610e029161344b565b93600884015493612710610e168689613485565b0491610e2283896133f2565b936006830154868082115f14610f3a57610e3b916133f2565b6127108102908082046127101490151715610f1e5781610e5a9161344b565b6005840154909680821115610f3257610e72916133f2565b6127108102908082046127101490151715610f1e5790610e919161344b565b95611f40811015610ee1575050600201548060011b90808204600214901517156107085760e09750945b604051968752602087015260408601526060850152608084015260a083015260c0820152f35b612328909792919710610ef9575b5060e09750610ebb565b600291965001546005810290808204600514901517156107085760e09750945f610eef565b634e487b7160e01b8b52601160045260248bfd5b505089610e72565b505089610e3b565b634e487b7160e01b87526011600452602487fd5b8493610de4565b50346108945780600319360112610894576001546040516001600160a01b039091168152602090f35b50346108945780600319360112610894576020600b54604051908152f35b503461089457602036600319011261089457604060209160ff610fc56131a1565b168152600883522054604051908152f35b50346108945780600319360112610894576020601154604051908152f35b5034610894578060031936011261089457602060405160028152f35b503461089457602036600319011261089457806102e06040516110328161327e565b8281528260208201528260408201528260608201528260808201528260a08201528260c08201528260e08201528261010082015282610120820152826101408201528261016082015282610180820152826101a0820152826101c0820152826101e0820152826102008201528261022082015282610240820152606061026082015282610280820152826102a0820152826102c082015201526004358152600e60205260408120604051906110e68261327e565b60ff815460018060a01b0381168452818160a01c16602085015260a81c1660048110156108805760408301526001810154606083015260028101546080830152600381015460a0830152600481015460c0830152600581015460e08301526006810154610100830152600781015461012083015260088101546101408301526009810154610160830152600a810154610180830152600b8101546101a0830152600c8101546101c0830152600d8101546101e0830152600e81015460ff161515610200830152600f81015461022083015260108101546102408301526015906111d1601182016132d1565b610260840152601281015461028084015260138101546102a084015260148101546102c084015201546102e082015260405180916020825260018060a01b03815116602083015260ff602082015116604083015261123760408201516060840190613239565b60608101516080830152608081015160a083015260a081015160c083015260c081015160e083015260e08101516101008301526101008101516101208301526101208101516101408301526101408101516101608301526101608101516101808301526101808101516101a08301526101a08101516101c08301526101c08101516101e08301526101e081015161020083015261020081015115156102208301526102208101516102408301526102408101516102608301526102e06113106102608301516103006102808601526103208501906131ec565b916102808101516102a08501526102a08101516102c08501526102c08101518285015201516103008301520390f35b50346108945760403660031901126108945760ff61135b6131a1565b611363613748565b1681526006602052602435604082205580f35b50346108945760603660031901126108945760043561139361376e565b808252600e6020526040822080549091906001600160a01b03811633148015611706575b156116c85760a81c60ff166004811015610880576113d59015613608565b600f82019182549283156116835784918291602060018060a01b036002541660646040518097819363b35648d760e01b83528b6004840152602435602484015260443560448401525af1938415611678578394611640575b5082905561143a81613a8f565b81831280159061160d5760048201611453858254613389565b8091556005830180548211611605575b50505b6010820190815491826114af575b846104e988807f29de6f9a673594d883cc86f79c2379876369f464d7a1247fa6ad4f0d16c9a51960408d8c82519182526020820152a26137a6565b8490551561155b5760035491546001600160a01b03928316921690823b1561155757608484928360405195869485936322556de960e21b8552600485015260248401528860448401528160648401525af1801561060657611542575b50507f29de6f9a673594d883cc86f79c2379876369f464d7a1247fa6ad4f0d16c9a51960406104e99484935b938196889450611474565b8161154c916132af565b61155757835f61150b565b8380fd5b9061156584613649565b600354915490926001600160a01b0391821692909116803b156116015784928360849260405196879586946322556de960e21b86526004860152602485015282604485015260648401525af18015610606576115ec575b50507f29de6f9a673594d883cc86f79c2379876369f464d7a1247fa6ad4f0d16c9a51960406104e9948493611537565b816115f6916132af565b61155757835f6115bc565b8480fd5b555f80611463565b61161684613649565b6004830180549091808211156116375761162f916133f2565b905b55611466565b50508390611631565b9093506020813d602011611670575b8161165c602093836132af565b8101031261166c5751928261142d565b8280fd5b3d915061164f565b6040513d85823e3d90fd5b60405162461bcd60e51b815260206004820152601860248201527f46756e6465643a206e6f206f70656e20706f736974696f6e00000000000000006044820152606490fd5b60405162461bcd60e51b8152602060048201526016602482015275119d5b9919590e881b9bdd08185d5d1a1bdc9a5e995960521b6044820152606490fd5b5083546001600160a01b031633146113b7565b5034610894578060031936011261089457602060405160098152f35b50346108945760403660031901126108945761174f6131dd565b50611758613748565b80f35b5034610894576020366003190112610894576117756131b1565b61177d613748565b60018060a01b03166001600160601b0360a01b600254161760025580f35b5034610894576020366003190112610894576117b56131b1565b6117bd613748565b60018060a01b03166001600160601b0360a01b600454161760045580f35b5034610894578060031936011261089457546040516001600160a01b039091168152602090f35b5034610894576020366003190112610894576020906040906001600160a01b0361182a6131b1565b168152601083522054604051908152f35b50346108945780600319360112610894576040517f00000000000000000000000000000000000000000000000000000000000000006001600160a01b03168152602090f35b50346108945760203660031901126108945760406020916004358152600983522054604051908152f35b5034610894576118b9366131c7565b91908152600e60205260ff604082205460a01c168152600860205260408120549182156119d2575b815260096020526119846040822054801515806119c9575b156119885780925060405161190f6060826132af565b603881527f4d61726b65742d737065636966696320636170206170706c696573202873747260208201527f6963746572207468616e20746965722064656661756c742900000000000000006040820152905b6040519485948552602085015260408401526080606084015260808301906131ec565b0390f35b8392506040516119996040826132af565b601881527f546965722064656661756c7420636170206170706c6965730000000000000000602082015290611961565b508381106118f9565b600a92506118e1565b50346108945780600319360112610894576119f4613748565b6119fc613904565b6001805460ff60a01b1916600160a01b1790556040513381527f62e78cea01bee320cd4e420270b5ea74000d11b0c9f74754ebdbfc544b05a25890602090a180f35b503461089457604036600319011261089457611a586131b1565b6001600160a01b03168152600f6020526040812080546024359290831015610894576020611a868484613210565b90549060031b1c604051908152f35b50346108945780600319360112610894576005546040516001600160a01b039091168152602090f35b503461089457602036600319011261089457604060209160ff611adf6131a1565b168152600783522054604051908152f35b503461089457608036600319011261089457611b0a6131b1565b9060443560ff81168103610611576064359260ff841680940361166c57611b2f61376e565b6004546001600160a01b03163303611ff4576001600160a01b038116835260106020526040832054611fa457611b666011546133e4565b9283601155606485029480860460641490151715611f905760405194611b8b8661327e565b60018060a01b038316865260ff841660208701528160408701526024356060870152602435608087015260243560a087015260243560c087015260243560e0870152602435610100870152426101208701526101408601528061016086015280610180860152806101a0860152426101c0860152806101e0860152806102008601528061022086015280610240860152602094604051611c2b87826132af565b82815261026082015261028081018290526102a081018290526102c081018290526102e08101829052848252600e8652604080832082518154602085015160ff60a01b60a09190911b166001600160a01b039092166001600160a81b0319909116171781559082015190919060048110156108805782549060ff60a81b9060a81b169060ff60a81b1916178255606081015160018301556080810151600283015560a0810151600383015560c0810151600483015560e081015160058301556101008101516006830155610120810151600783015561014081015160088301556101608101516009830155610180810151600a8301556101a0810151600b8301556101c0810151600c8301556101e0810151600d830155600e8201610200820151151560ff80198354169116179055610220810151600f83015561024081015160108301556011820161026082015180519067ffffffffffffffff8211611f7c57611d968354613246565b601f8111611f39575b508990601f8311600114611ed05791806102e09492601596948992611ec5575b50508160011b915f199060031b1c19161790555b61028081015160128501556102a081015160138501556102c0810151601485015501519101556001600160a01b0382168152600f85526040812080549068010000000000000000821015611eb157928560407f94c954a3141c2ee0b3dd77574a2bd4fee3ae3fb6805c10ded277337dd055745f94611e5985849860018598018155613210565b81545f1960039290921b91821b19169085901b1790556001600160a01b039390931680845260108a529220558151602435815260ff959095168588015293a360015f80516020613e5383398151915255604051908152f35b634e487b7160e01b83526041600452602483fd5b015190505f80611dbf565b8387528a87209190601f198416885b8d828210611f23575050926001928592601598966102e0989610611f0b575b505050811b019055611dd3565b01515f1960f88460031b161c191690555f8080611efe565b6001859682939686015181550195019301611edf565b8387528a8720601f840160051c8101918c8510611f72575b601f0160051c01905b818110611f675750611d9f565b878155600101611f5a565b9091508190611f51565b634e487b7160e01b86526041600452602486fd5b634e487b7160e01b81526011600452602490fd5b60405162461bcd60e51b815260206004820152602260248201527f46756e6465643a20616c7265616479206861732066756e646564206163636f756044820152611b9d60f21b6064820152608490fd5b60405162461bcd60e51b815260206004820152601a60248201527f46756e6465643a206f6e6c79206576616c20636f6e74726163740000000000006044820152606490fd5b5034610894578060031936011261089457600154336001600160a01b03909116036120ab57600180546001600160a01b0319908116909155815433918116821783556001600160a01b03167f8be0079c531659141344cd1fd0a4f28419497f9722a3daafe3b4186f6b6457e08380a380f35b63118cdaa760e01b815233600452602490fd5b50346108945780600319360112610894576120d7613748565b600180546001600160a01b03199081169091558154908116825581906001600160a01b03167f8be0079c531659141344cd1fd0a4f28419497f9722a3daafe3b4186f6b6457e08280a380f35b50346108945780600319360112610894576002546040516001600160a01b039091168152602090f35b5034610894578060031936011261089457602060ff600d54166040519015158152f35b5034610894576020366003190112610894576001600160a01b036121916131b1565b168152600f60205260408120604051908160208254918281520190819285526020852090855b81811061220e57505050826121cd9103836132af565b604051928392602084019060208552518091526040840192915b8181106121f5575050500390f35b82518452859450602093840193909201916001016121e7565b82548452602090930192600192830192016121b7565b503461089457602036600319011261089457611984612244600435613498565b946040989698949194939293519889988952602089015260408801526060870152608086015260a0850152151560c084015261010060e08401526101008301906131ec565b5034610894576020366003190112610894576122a3613748565b6117586040516122b46040826132af565b60158152742337b931b29031b637b9b2b210313c9030b236b4b760591b6020820152600435613abd565b5034610894578060031936011261089457602060405160058152f35b50346108945760403660031901126108945760ff6123166131a1565b61231e613748565b1681526007602052602435604082205580f35b503461269c5760e036600319011261269c576004356024356044358015159182820361269c576064359060843560a4359360c4359061236e61376e565b612376613904565b5f888152600e6020526040902080549094909361239d6001600160a01b03861633146133ff565b60ff8560a81c1660048110156129cd5761298857600f860194855461294357871561290a57600187015488116128c557600182106128805760ff60209160a01c16805f526008825260405f20548015612878575b604060086124eb92875f5260098652825f2054908115158061286f575b156128675750935b604a8661242b61242588613922565b93613922565b85519889947f46756e6465643a206d6178206c65766572616765206f6e2066756e64656420618287015269031b1b7bab73a1034b9960b51b888701528051918291018587015e8401906703c10142a34b2b9160c51b84830152805192839101605283015e01017f2066756e64656420636170292e204576616c207761732068696768657220e280838201527f942066756e6465642075736573207265616c20706f6f6c206361706974616c2e6028820152030160208101855201836132af565b821161283f575061250e906124ff87613a8f565b6125088b6137a6565b8761344b565b60035460405163033396fb60e31b815291989190602090829060049082906001600160a01b03165afa908115612802575f9161280d575b5088116126d5576003548b906001600160a01b0316803b156106115760405163f462cbd960e01b8152336004820152602481018b90529082908290604490829084905af18015610606576126bc575b505060108601889055600e8601805460ff191690556002546001600160a01b03169342610e108101929083106126a857926125f08995938e93602098966040519d8e998a9889976310d613f960e31b8952303360048b01613396565b03925af1938415610642578794612667575b5091600b7f92ed291a88a8f2bc124740672be324c6653c93b095e58e7317c75996dede2a4e95928560809695550161263a81546133e4565b905560405192835260208301526040820152846060820152a260015f80516020613e538339815191525580f35b94919350916020853d6020116126a0575b81612685602093836132af565b8101031261269c579351909390929091600b612602565b5f80fd5b3d9150612678565b634e487b7160e01b8d52601160045260248dfd5b816126c6916132af565b6126d1578a5f612594565b8a80fd5b9594909296979350600e915001600160ff198254161790558660125582601355600160ff19601454161760145560405196602088015260408701526060860152608085015260a084015260c083015260c0825261273360e0836132af565b73794a61358d6845594f94dc1db02a252b5b4814ad3b1561269c576040516310ac2ddf60e21b81523060048201527f00000000000000000000000000000000000000000000000000000000000000006001600160a01b03166024820152604481019190915260a06064820152905f90829081906127b49060a48301906131ec565b83608483015203818373794a61358d6845594f94dc1db02a252b5b4814ad5af18015612802576127ef575b5060ff19601454166014556104e9565b6127fb91505f906132af565b5f806127df565b6040513d5f823e3d90fd5b90506020813d602011612837575b81612828602093836132af565b8101031261269c57515f612545565b3d915061281b565b60405162461bcd60e51b8152602060048201529081906128639060248301906131ec565b0390fd5b905093612416565b5080821061240e565b50600a6123f1565b60405162461bcd60e51b815260206004820152601d60248201527f46756e6465643a206c65766572616765206d757374206265203e3d20310000006044820152606490fd5b60405162461bcd60e51b815260206004820152601c60248201527f46756e6465643a2065786365656473206163636f756e742073697a65000000006044820152606490fd5b60405162461bcd60e51b815260206004820152601160248201527046756e6465643a207a65726f2073697a6560781b6044820152606490fd5b60405162461bcd60e51b815260206004820152601d60248201527f46756e6465643a20706f736974696f6e20616c7265616479206f70656e0000006044820152606490fd5b60405162461bcd60e51b815260206004820152601a60248201527f46756e6465643a206163636f756e74206e6f74206163746976650000000000006044820152606490fd5b634e487b7160e01b5f52602160045260245ffd5b3461269c575f36600319011261269c57602060ff60015460a01c166040519015158152f35b3461269c57612a14366131c7565b612a1c613748565b600181101580612ab0575b15612a6b57816040917f262938232aa77b237fff6d08a4bb5e87761343d1598822b341577726f75a6dbd935f52600960205280835f205582519182526020820152a1005b60405162461bcd60e51b815260206004820152601760248201527f46756e6465643a206d61726b65742063617020312d35300000000000000000006044820152606490fd5b506032811115612a27565b3461269c575f36600319011261269c576004546040516001600160a01b039091168152602090f35b3461269c575f36600319011261269c576020601754604051908152f35b3461269c575f36600319011261269c576003546040516001600160a01b039091168152602090f35b3461269c57602036600319011261269c57612b4161376e565b612b4c6004356137a6565b60015f80516020613e5383398151915255005b3461269c57602036600319011261269c5760ff612b7a6131a1565b165f526006602052602060405f2054604051908152f35b3461269c575f36600319011261269c57612ba9613748565b60015460ff8160a01c1615612bf05760ff60a01b19166001556040513381527f5db9ee0a495bf2e6ff9c91a7834c1ba4fdd244a5e8aa4e537bd38aeae4b073aa90602090a1005b638dfc202b60e01b5f5260045ffd5b3461269c575f36600319011261269c576020601654604051908152f35b3461269c575f36600319011261269c5760206040516107d08152f35b3461269c5760a036600319011261269c57612c516131b1565b60443590602435906064356001600160a01b0381169081900361269c576084359067ffffffffffffffff821161269c573660238301121561269c57816004013567ffffffffffffffff811161269c5782019036602483011161269c5773794a61358d6845594f94dc1db02a252b5b4814ad3303613012573003612fd9576001600160a01b037f000000000000000000000000000000000000000000000000000000000000000081169316839003612f945760ff6014541615612f4f5760c0908290031261269c576024810135936064820135938415159182860361269c575f878152600e60209081526040808320600254915163095ea7b360e01b81526001600160a01b039092166004830152602482018690529860848801359593909290829060449082908c5af1801561280257612f32575b50600254885442610e10810193926001600160a01b039081169216908410612f1e575f8593612de26020968a946040519d8e98899788966310d613f960e31b885260c484013594604460a486013595013590309060048b01613396565b03925af1948515612802575f95612eea575b505f956044612e218460209489600f8d01558060108d0155600b8c01612e1a81546133e4565b9055613389565b604051988993849263095ea7b360e01b845273794a61358d6845594f94dc1db02a252b5b4814ad600485015260248401525af18015612802577f92ed291a88a8f2bc124740672be324c6653c93b095e58e7317c75996dede2a4e96608096600492612ecd575b50018054909180821115612ec457612e9e916133f2565b905b556040519283526020830152604082015260016060820152a2602060405160018152f35b50505f90612ea0565b612ee59060203d60201161063b5761062e81836132af565b612e87565b9094506020813d602011612f16575b81612f06602093836132af565b8101031261269c5751935f612df4565b3d9150612ef9565b634e487b7160e01b5f52601160045260245ffd5b612f4a9060203d60201161063b5761062e81836132af565b612d85565b60405162461bcd60e51b815260206004820152601960248201527f46756e6465643a206e6f7420696e20666c617368206c6f616e000000000000006044820152606490fd5b60405162461bcd60e51b815260206004820152601960248201527f46756e6465643a20756e737570706f72746564206173736574000000000000006044820152606490fd5b60405162461bcd60e51b8152602060048201526011602482015270233ab73232b21d1037b7363c9039b2b63360791b6044820152606490fd5b60405162461bcd60e51b815260206004820152601160248201527046756e6465643a206f6e6c79204161766560781b6044820152606490fd5b3461269c575f36600319011261269c576020600a54604051908152f35b3461269c575f36600319011261269c57602060405173794a61358d6845594f94dc1db02a252b5b4814ad8152f35b3461269c57604036600319011261269c576130af6131a1565b602435906130bb613748565b60018210158061315f575b1561310e577f4d58d10b172d3af6dbdf92d6f55a6eb95cdae24719f33a288a784cca9bbd599c9160ff6040921690815f52600860205280835f205582519182526020820152a1005b60405162461bcd60e51b815260206004820152602360248201527f46756e6465643a2066756e646564206d6178206c6576206d757374206265203160448201526202d32360ec1b6064820152608490fd5b5060148211156130c6565b3461269c575f36600319011261269c576020600c54604051908152f35b3461269c575f36600319011261269c578061232860209252f35b6004359060ff8216820361269c57565b600435906001600160a01b038216820361269c57565b604090600319011261269c576004359060243590565b60243590811515820361269c57565b805180835260209291819084018484015e5f828201840152601f01601f1916010190565b8054821015613225575f5260205f2001905f90565b634e487b7160e01b5f52603260045260245ffd5b9060048210156129cd5752565b90600182811c92168015613274575b602083101461326057565b634e487b7160e01b5f52602260045260245ffd5b91607f1691613255565b610300810190811067ffffffffffffffff82111761329b57604052565b634e487b7160e01b5f52604160045260245ffd5b90601f8019910116810190811067ffffffffffffffff82111761329b57604052565b9060405191825f8254926132e484613246565b808452936001811690811561334f575060011461330b575b50613309925003836132af565b565b90505f9291925260205f20905f915b818310613333575050906020613309928201015f6132fc565b602091935080600191548385890101520191019091849261331a565b90506020925061330994915060ff191682840152151560051b8201015f6132fc565b9081602091031261269c5751801515810361269c5790565b91908201809211612f1e57565b95926101009794919a9998959261012088019b60018060a01b0316885260018060a01b03166020880152604087015215156060860152608085015260a084015260c083015260e08201520152565b5f198114612f1e5760010190565b91908203918211612f1e57565b1561340657565b60405162461bcd60e51b815260206004820152601860248201527f46756e6465643a206e6f7420796f7572206163636f756e7400000000000000006044820152606490fd5b8115613455570490565b634e487b7160e01b5f52601260045260245ffd5b67ffffffffffffffff811161329b57601f01601f191660200190565b81810292918115918404141715612f1e57565b5f52600e60205260405f2090600482015460038301548082115f146135ff576134c0916133f2565b915b82156135b85760646134d6600a5485613485565b04916134e283856133f2565b916127106134f4600883015485613485565b04916014613506866012850154613389565b920154613515600c5482613389565b91824210918215926135af575b508115613558576040516135376040826132af565b6011815270526561647920746f20776974686472617760781b602082015290565b6040516135666060826132af565b603381527f436f6f6c646f776e2061637469766520e28094207761697420666f72206e657860208201527274207769746864726177616c2077696e646f7760681b604082015290565b1591505f613522565b601291925001545f915f915f915f91905f905f906040516135da6040826132af565b60158152744e6f2070726f66697420746f20776974686472617760581b602082015290565b50505f916134c2565b1561360f57565b60405162461bcd60e51b815260206004820152601260248201527146756e6465643a206e6f742061637469766560701b6044820152606490fd5b600160ff1b8114612f1e575f0390565b805f52600e60205260405f2060ff815460a81c1660048110156129cd576136809015613608565b6012810154156136f857600360048201549101541161369c5750565b604051613309916136ae6060836132af565b603282527f52657461696e6564206275666665722066756c6c79206c6f7374206166746572602083015271081c1c9bd99a5d081dda5d1a191c985dd85b60721b6040830152613abd565b5050565b1561370357565b60405162461bcd60e51b815260206004820152601c60248201527f46756e6465643a20636c6f736520706f736974696f6e206669727374000000006044820152606490fd5b5f546001600160a01b0316330361375b57565b63118cdaa760e01b5f523360045260245ffd5b60025f80516020613e5383398151915254146137975760025f80516020613e5383398151915255565b633ee5aeb560e01b5f5260045ffd5b805f52600e60205260405f2060ff815460a81c1660048110156129cd576136f8576137d081613a8f565b600681015490600481019182548082115f146138fb576137ef916133f2565b915b6003820192612710613818855460ff865460a01c165f52600660205260405f205490613485565b0411156138b6578161385f9160056127109401549054908181115f146138ab5760ff91613844916133f2565b945b54915460a01c165f52600760205260405f205490613485565b0411156138695750565b613309906040519061387c6040836132af565b601d82527f546f74616c2064726177646f776e206c696d69742065786365656465640000006020830152613abd565b505060ff5f94613846565b50505061330990604051906138cc6040836132af565b601d82527f4461696c792064726177646f776e206c696d69742065786365656465640000006020830152613abd565b50505f916137f1565b60ff60015460a01c1661391357565b63d93c066560e01b5f5260045ffd5b805f9172184f03e93ff9f4daa797ed6e38ed64bf6a1f0160401b821015613a6c575b806d04ee2d6d415b85acef8100000000600a921015613a51575b662386f26fc10000811015613a3d575b6305f5e100811015613a2c575b612710811015613a1d575b6064811015613a0f575b1015613a04575b600a602160018401936139a985613469565b946139b760405196876132af565b8086526139c6601f1991613469565b013660208701378401015b5f1901916f181899199a1a9b1b9c1cb0b131b232b360811b8282061a83530480156139ff57600a90916139d1565b505090565b600190910190613997565b606460029104930192613990565b61271060049104930192613986565b6305f5e1006008910493019261397b565b662386f26fc100006010910493019261396e565b6d04ee2d6d415b85acef81000000006020910493019261395e565b506040915072184f03e93ff9f4daa797ed6e38ed64bf6a1f0160401b8104613944565b60078101908154620151808101809111612f1e57421015613aae575050565b60066004820154910155429055565b5f818152600e60205260409020805460ff60a81b1916600160a81b17815542600d820155825191929091601183019067ffffffffffffffff811161329b57613b058254613246565b601f8111613cf9575b50806020601f8211600114613c98575f91613c8d575b508160011b915f199060031b1c19161790555b81546001600160a01b03165f908152601060205260408120556003820154600483015480821115613c8557613b6b916133f2565b613b7781601854613389565b601855600f830154613bd8575b7f87dd6e4e4142af9a6792a38bcf944131fa7336faa27775da1566f4b988f0b9a19260018060a01b0390541690613bcd60405193849384526060602085015260608401906131ec565b9060408301520390a2565b6010830180545f90915560035484546001600160a01b03918216959291169080841115613c7e5780955b803b1561269c575f9283608492604051998a9586946322556de960e21b86526004860152602485015282604485015260648401525af1938415612802577f87dd6e4e4142af9a6792a38bcf944131fa7336faa27775da1566f4b988f0b9a194613c6e575b509250613b84565b5f613c78916132af565b5f613c66565b8395613c02565b50505f613b6b565b90508301515f613b24565b5f8481528181209250601f198416905b818110613ce157509083600194939210613cc9575b5050811b019055613b37565b8501515f1960f88460031b161c191690555f80613cbd565b9192602060018192868a015181550194019201613ca8565b825f5260205f20601f830160051c81019160208410613d34575b601f0160051c01905b818110613d295750613b0e565b5f8155600101613d1c565b9091508190613d13565b916040519163a9059cbb60e01b5f5260018060a01b031660045260245260205f60448180865af19060015f5114821615613d9e575b60405215613d7e5750565b635274afe760e01b5f9081526001600160a01b0391909116600452602490fd5b906001811516613db657823b15153d15161690613d73565b503d5f823e3d90fd5b805f52600e60205260405f2060128101548015613e4d576003820154613de89160011c90613389565b600482015490808210613dfc575b50505050565b9154604080516001600160a01b0390921682526020820192909252908101919091527fe99642293dfda2d92f8b930e2eea6e84986b9abb441fa98381151cf17d78993890606090a25f808080613df6565b50505056fe9b779b17422d0df92223018b32b4d1fa46e071723d6817e2486d003becc55f00a26469706673582212209bbf848bf222b51369e723a9e212a535dd35561d6152eb9796fb5e8d439591aa64736f6c634300081a0033",
  "linkReferences": {},
  "deployedLinkReferences": {}
}