{
  "_format": "hh-sol-artifact-1",
  "contractName": "WikiTimelockController",
  "sourceName": "src/WikiTimelockController.sol",
  "abi": [
    {
      "inputs": [
        {
          "internalType": "address",
          "name": "_owner",
          "type": "address"
        },
        {
          "internalType": "address[]",
          "name": "_proposers",
          "type": "address[]"
        },
        {
          "internalType": "address[]",
          "name": "_executors",
          "type": "address[]"
        },
        {
          "internalType": "address[]",
          "name": "_cancellers",
          "type": "address[]"
        }
      ],
      "stateMutability": "nonpayable",
      "type": "constructor"
    },
    {
      "inputs": [
        {
          "internalType": "address",
          "name": "owner",
          "type": "address"
        }
      ],
      "name": "OwnableInvalidOwner",
      "type": "error"
    },
    {
      "inputs": [
        {
          "internalType": "address",
          "name": "account",
          "type": "address"
        }
      ],
      "name": "OwnableUnauthorizedAccount",
      "type": "error"
    },
    {
      "inputs": [],
      "name": "ReentrancyGuardReentrantCall",
      "type": "error"
    },
    {
      "anonymous": false,
      "inputs": [
        {
          "indexed": false,
          "internalType": "uint256",
          "name": "oldDelay",
          "type": "uint256"
        },
        {
          "indexed": false,
          "internalType": "uint256",
          "name": "newDelay",
          "type": "uint256"
        }
      ],
      "name": "DelayUpdated",
      "type": "event"
    },
    {
      "anonymous": false,
      "inputs": [
        {
          "indexed": true,
          "internalType": "bytes32",
          "name": "id",
          "type": "bytes32"
        },
        {
          "indexed": true,
          "internalType": "address",
          "name": "canceller",
          "type": "address"
        }
      ],
      "name": "OperationCancelled",
      "type": "event"
    },
    {
      "anonymous": false,
      "inputs": [
        {
          "indexed": true,
          "internalType": "bytes32",
          "name": "id",
          "type": "bytes32"
        },
        {
          "indexed": true,
          "internalType": "address",
          "name": "target",
          "type": "address"
        },
        {
          "indexed": false,
          "internalType": "bytes",
          "name": "callData",
          "type": "bytes"
        },
        {
          "indexed": false,
          "internalType": "address",
          "name": "executor",
          "type": "address"
        }
      ],
      "name": "OperationExecuted",
      "type": "event"
    },
    {
      "anonymous": false,
      "inputs": [
        {
          "indexed": true,
          "internalType": "bytes32",
          "name": "id",
          "type": "bytes32"
        },
        {
          "indexed": true,
          "internalType": "address",
          "name": "target",
          "type": "address"
        },
        {
          "indexed": false,
          "internalType": "bytes",
          "name": "callData",
          "type": "bytes"
        },
        {
          "indexed": false,
          "internalType": "uint256",
          "name": "readyAt",
          "type": "uint256"
        },
        {
          "indexed": false,
          "internalType": "string",
          "name": "description",
          "type": "string"
        }
      ],
      "name": "OperationQueued",
      "type": "event"
    },
    {
      "anonymous": false,
      "inputs": [
        {
          "indexed": true,
          "internalType": "address",
          "name": "previousOwner",
          "type": "address"
        },
        {
          "indexed": true,
          "internalType": "address",
          "name": "newOwner",
          "type": "address"
        }
      ],
      "name": "OwnershipTransferStarted",
      "type": "event"
    },
    {
      "anonymous": false,
      "inputs": [
        {
          "indexed": true,
          "internalType": "address",
          "name": "previousOwner",
          "type": "address"
        },
        {
          "indexed": true,
          "internalType": "address",
          "name": "newOwner",
          "type": "address"
        }
      ],
      "name": "OwnershipTransferred",
      "type": "event"
    },
    {
      "anonymous": false,
      "inputs": [
        {
          "indexed": false,
          "internalType": "string",
          "name": "role",
          "type": "string"
        },
        {
          "indexed": false,
          "internalType": "address",
          "name": "account",
          "type": "address"
        }
      ],
      "name": "RoleGranted",
      "type": "event"
    },
    {
      "anonymous": false,
      "inputs": [
        {
          "indexed": false,
          "internalType": "string",
          "name": "role",
          "type": "string"
        },
        {
          "indexed": false,
          "internalType": "address",
          "name": "account",
          "type": "address"
        }
      ],
      "name": "RoleRevoked",
      "type": "event"
    },
    {
      "inputs": [],
      "name": "DONE_ID",
      "outputs": [
        {
          "internalType": "bytes32",
          "name": "",
          "type": "bytes32"
        }
      ],
      "stateMutability": "view",
      "type": "function"
    },
    {
      "inputs": [],
      "name": "GRACE",
      "outputs": [
        {
          "internalType": "uint256",
          "name": "",
          "type": "uint256"
        }
      ],
      "stateMutability": "view",
      "type": "function"
    },
    {
      "inputs": [],
      "name": "MAX_DELAY",
      "outputs": [
        {
          "internalType": "uint256",
          "name": "",
          "type": "uint256"
        }
      ],
      "stateMutability": "view",
      "type": "function"
    },
    {
      "inputs": [],
      "name": "MIN_DELAY",
      "outputs": [
        {
          "internalType": "uint256",
          "name": "",
          "type": "uint256"
        }
      ],
      "stateMutability": "view",
      "type": "function"
    },
    {
      "inputs": [],
      "name": "acceptOwnership",
      "outputs": [],
      "stateMutability": "nonpayable",
      "type": "function"
    },
    {
      "inputs": [
        {
          "internalType": "bytes32",
          "name": "id",
          "type": "bytes32"
        }
      ],
      "name": "cancel",
      "outputs": [],
      "stateMutability": "nonpayable",
      "type": "function"
    },
    {
      "inputs": [
        {
          "internalType": "address",
          "name": "",
          "type": "address"
        }
      ],
      "name": "cancellers",
      "outputs": [
        {
          "internalType": "bool",
          "name": "",
          "type": "bool"
        }
      ],
      "stateMutability": "view",
      "type": "function"
    },
    {
      "inputs": [
        {
          "internalType": "bytes32",
          "name": "id",
          "type": "bytes32"
        }
      ],
      "name": "execute",
      "outputs": [],
      "stateMutability": "nonpayable",
      "type": "function"
    },
    {
      "inputs": [
        {
          "internalType": "address",
          "name": "",
          "type": "address"
        }
      ],
      "name": "executors",
      "outputs": [
        {
          "internalType": "bool",
          "name": "",
          "type": "bool"
        }
      ],
      "stateMutability": "view",
      "type": "function"
    },
    {
      "inputs": [
        {
          "internalType": "bytes32",
          "name": "id",
          "type": "bytes32"
        }
      ],
      "name": "getOperation",
      "outputs": [
        {
          "components": [
            {
              "internalType": "address",
              "name": "target",
              "type": "address"
            },
            {
              "internalType": "uint256",
              "name": "value",
              "type": "uint256"
            },
            {
              "internalType": "bytes",
              "name": "callData",
              "type": "bytes"
            },
            {
              "internalType": "bytes32",
              "name": "predecessor",
              "type": "bytes32"
            },
            {
              "internalType": "uint256",
              "name": "delay",
              "type": "uint256"
            },
            {
              "internalType": "uint256",
              "name": "readyAt",
              "type": "uint256"
            },
            {
              "internalType": "enum WikiTimelockController.OperationState",
              "name": "state",
              "type": "uint8"
            },
            {
              "internalType": "address",
              "name": "proposer",
              "type": "address"
            },
            {
              "internalType": "string",
              "name": "description",
              "type": "string"
            }
          ],
          "internalType": "struct WikiTimelockController.Operation",
          "name": "",
          "type": "tuple"
        }
      ],
      "stateMutability": "view",
      "type": "function"
    },
    {
      "inputs": [
        {
          "internalType": "bytes32",
          "name": "id",
          "type": "bytes32"
        }
      ],
      "name": "getOperationState",
      "outputs": [
        {
          "internalType": "enum WikiTimelockController.OperationState",
          "name": "",
          "type": "uint8"
        }
      ],
      "stateMutability": "view",
      "type": "function"
    },
    {
      "inputs": [
        {
          "internalType": "address",
          "name": "a",
          "type": "address"
        }
      ],
      "name": "grantCanceller",
      "outputs": [],
      "stateMutability": "nonpayable",
      "type": "function"
    },
    {
      "inputs": [
        {
          "internalType": "address",
          "name": "a",
          "type": "address"
        }
      ],
      "name": "grantExecutor",
      "outputs": [],
      "stateMutability": "nonpayable",
      "type": "function"
    },
    {
      "inputs": [
        {
          "internalType": "address",
          "name": "a",
          "type": "address"
        }
      ],
      "name": "grantProposer",
      "outputs": [],
      "stateMutability": "nonpayable",
      "type": "function"
    },
    {
      "inputs": [
        {
          "internalType": "address",
          "name": "target",
          "type": "address"
        },
        {
          "internalType": "bytes",
          "name": "callData",
          "type": "bytes"
        },
        {
          "internalType": "bytes32",
          "name": "predecessor",
          "type": "bytes32"
        },
        {
          "internalType": "bytes32",
          "name": "salt",
          "type": "bytes32"
        }
      ],
      "name": "hashOperation",
      "outputs": [
        {
          "internalType": "bytes32",
          "name": "",
          "type": "bytes32"
        }
      ],
      "stateMutability": "pure",
      "type": "function"
    },
    {
      "inputs": [
        {
          "internalType": "bytes32",
          "name": "id",
          "type": "bytes32"
        }
      ],
      "name": "isDone",
      "outputs": [
        {
          "internalType": "bool",
          "name": "",
          "type": "bool"
        }
      ],
      "stateMutability": "view",
      "type": "function"
    },
    {
      "inputs": [
        {
          "internalType": "bytes32",
          "name": "id",
          "type": "bytes32"
        }
      ],
      "name": "isOperation",
      "outputs": [
        {
          "internalType": "bool",
          "name": "",
          "type": "bool"
        }
      ],
      "stateMutability": "view",
      "type": "function"
    },
    {
      "inputs": [
        {
          "internalType": "bytes32",
          "name": "id",
          "type": "bytes32"
        }
      ],
      "name": "isPending",
      "outputs": [
        {
          "internalType": "bool",
          "name": "",
          "type": "bool"
        }
      ],
      "stateMutability": "view",
      "type": "function"
    },
    {
      "inputs": [
        {
          "internalType": "bytes32",
          "name": "id",
          "type": "bytes32"
        }
      ],
      "name": "isReady",
      "outputs": [
        {
          "internalType": "bool",
          "name": "",
          "type": "bool"
        }
      ],
      "stateMutability": "view",
      "type": "function"
    },
    {
      "inputs": [],
      "name": "minDelay",
      "outputs": [
        {
          "internalType": "uint256",
          "name": "",
          "type": "uint256"
        }
      ],
      "stateMutability": "view",
      "type": "function"
    },
    {
      "inputs": [],
      "name": "operationCount",
      "outputs": [
        {
          "internalType": "uint256",
          "name": "",
          "type": "uint256"
        }
      ],
      "stateMutability": "view",
      "type": "function"
    },
    {
      "inputs": [
        {
          "internalType": "bytes32",
          "name": "",
          "type": "bytes32"
        }
      ],
      "name": "operations",
      "outputs": [
        {
          "internalType": "address",
          "name": "target",
          "type": "address"
        },
        {
          "internalType": "uint256",
          "name": "value",
          "type": "uint256"
        },
        {
          "internalType": "bytes",
          "name": "callData",
          "type": "bytes"
        },
        {
          "internalType": "bytes32",
          "name": "predecessor",
          "type": "bytes32"
        },
        {
          "internalType": "uint256",
          "name": "delay",
          "type": "uint256"
        },
        {
          "internalType": "uint256",
          "name": "readyAt",
          "type": "uint256"
        },
        {
          "internalType": "enum WikiTimelockController.OperationState",
          "name": "state",
          "type": "uint8"
        },
        {
          "internalType": "address",
          "name": "proposer",
          "type": "address"
        },
        {
          "internalType": "string",
          "name": "description",
          "type": "string"
        }
      ],
      "stateMutability": "view",
      "type": "function"
    },
    {
      "inputs": [],
      "name": "owner",
      "outputs": [
        {
          "internalType": "address",
          "name": "",
          "type": "address"
        }
      ],
      "stateMutability": "view",
      "type": "function"
    },
    {
      "inputs": [],
      "name": "pendingOwner",
      "outputs": [
        {
          "internalType": "address",
          "name": "",
          "type": "address"
        }
      ],
      "stateMutability": "view",
      "type": "function"
    },
    {
      "inputs": [
        {
          "internalType": "address",
          "name": "",
          "type": "address"
        }
      ],
      "name": "proposers",
      "outputs": [
        {
          "internalType": "bool",
          "name": "",
          "type": "bool"
        }
      ],
      "stateMutability": "view",
      "type": "function"
    },
    {
      "inputs": [
        {
          "internalType": "address",
          "name": "target",
          "type": "address"
        },
        {
          "internalType": "bytes",
          "name": "callData",
          "type": "bytes"
        },
        {
          "internalType": "bytes32",
          "name": "predecessor",
          "type": "bytes32"
        },
        {
          "internalType": "bytes32",
          "name": "salt",
          "type": "bytes32"
        },
        {
          "internalType": "uint256",
          "name": "delay",
          "type": "uint256"
        },
        {
          "internalType": "string",
          "name": "description",
          "type": "string"
        }
      ],
      "name": "queue",
      "outputs": [
        {
          "internalType": "bytes32",
          "name": "id",
          "type": "bytes32"
        }
      ],
      "stateMutability": "nonpayable",
      "type": "function"
    },
    {
      "inputs": [],
      "name": "renounceOwnership",
      "outputs": [],
      "stateMutability": "nonpayable",
      "type": "function"
    },
    {
      "inputs": [
        {
          "internalType": "address",
          "name": "a",
          "type": "address"
        }
      ],
      "name": "revokeCanceller",
      "outputs": [],
      "stateMutability": "nonpayable",
      "type": "function"
    },
    {
      "inputs": [
        {
          "internalType": "address",
          "name": "a",
          "type": "address"
        }
      ],
      "name": "revokeExecutor",
      "outputs": [],
      "stateMutability": "nonpayable",
      "type": "function"
    },
    {
      "inputs": [
        {
          "internalType": "address",
          "name": "a",
          "type": "address"
        }
      ],
      "name": "revokeProposer",
      "outputs": [],
      "stateMutability": "nonpayable",
      "type": "function"
    },
    {
      "inputs": [
        {
          "internalType": "address",
          "name": "newOwner",
          "type": "address"
        }
      ],
      "name": "transferOwnership",
      "outputs": [],
      "stateMutability": "nonpayable",
      "type": "function"
    },
    {
      "inputs": [
        {
          "internalType": "uint256",
          "name": "newDelay",
          "type": "uint256"
        }
      ],
      "name": "updateMinDelay",
      "outputs": [],
      "stateMutability": "nonpayable",
      "type": "function"
    }
  ],
  "bytecode": "0x6080604052346102d257611f8a80380380610019816102d6565b92833981016080828203126102d2576100318261030f565b60208301519091906001600160401b0381116102d25781610053918501610323565b60408401519093906001600160401b0381116102d25782610075918301610323565b60608201519092906001600160401b0381116102d2576100959201610323565b916001600160a01b031680156102bf57600180546001600160a01b03199081169091555f8054918216831781556001600160a01b03909116907f8be0079c531659141344cd1fd0a4f28419497f9722a3daafe3b4186f6b6457e09080a360017f9b779b17422d0df92223018b32b4d1fa46e071723d6817e2486d003becc55f00556202a3006007555f5b83518110156101a2576001906001600160a01b0361013d828761038d565b51165f52600260205260405f208260ff198254161790555f80516020611f6a8339815191526080838060a01b03610174848961038d565b511660405190604082526008604083015267282927a827a9a2a960c11b60608301526020820152a10161011f565b50905f5b8251811015610229576001906001600160a01b036101c4828661038d565b51165f52600360205260405f208260ff198254161790555f80516020611f6a8339815191526080838060a01b036101fb848861038d565b51166040519060408252600860408301526722ac22a1aaaa27a960c11b60608301526020820152a1016101a6565b505f5b81518110156102b0576001906001600160a01b0361024a828561038d565b51165f52600460205260405f208260ff198254161790555f80516020611f6a8339815191526080838060a01b03610281848761038d565b51166040519060408252600960408301526821a0a721a2a62622a960b91b60608301526020820152a10161022c565b604051611bb490816103b68239f35b631e4fbdf760e01b5f525f60045260245ffd5b5f80fd5b6040519190601f01601f191682016001600160401b038111838210176102fb57604052565b634e487b7160e01b5f52604160045260245ffd5b51906001600160a01b03821682036102d257565b9080601f830112156102d2578151916001600160401b0383116102fb578260051b906020806103538185016102d6565b8096815201928201019283116102d257602001905b8282106103755750505090565b602080916103828461030f565b815201910190610368565b80518210156103a15760209160051b010190565b634e487b7160e01b5f52603260045260245ffdfe60806040526004361015610011575f80fd5b5f3560e01c8063137d29d91461021457806317590d841461020f578063181774971461020a57806323d3c1421461020557806326fc349014610200578063279412c5146101fb57806331d50750146101f6578063404a5246146101f15780634125ff90146101ec5780635dddafc3146101e757806364f9ad36146101e2578063715018a6146101dd5780637958004c146101d857806379ba5097146101d35780638a99d586146101ce5780638da5cb5b146101c95780639ac2a011146101c45780639f81aed7146101bf5780639f90dac9146101ba578063ad12e6ad146101b5578063c4d252f5146101b0578063c63c4e9b146101ab578063c74f349b146101a6578063d437df8a146101a1578063d51012511461019c578063ddeb33fd14610197578063e30c397814610192578063e531d8c71461018d578063e5e9c8f014610188578063e751f27114610183578063f272cf921461017e5763f2fde38b14610179575f80fd5b611052565b610fdf565b610f5b565b610ee8565b610eaa565b610e82565b610e67565b610df7565b610db9565b610d28565b610ad3565b610a4e565b6109ca565b61095a565b61093d565b610900565b6108d9565b610829565b6107a4565b610777565b610714565b6106a1565b61064d565b610602565b610592565b610556565b610445565b6102e2565b6102c5565b610288565b61024b565b34610231575f366003190112610231576020604051620697808152f35b5f80fd5b600435906001600160a01b038216820361023157565b34610231576020366003190112610231576001600160a01b0361026c610235565b165f526004602052602060ff60405f2054166040519015158152f35b34610231576020366003190112610231576001600160a01b036102a9610235565b165f526002602052602060ff60405f2054166040519015158152f35b34610231575f366003190112610231576020600654604051908152f35b34610231576020366003190112610231577f606c98545793c0df614e4a07a49270302c92a296bcdbcf571aaae6655540af9961035561031f610235565b610327611b13565b6001600160a01b0381165f9081526004602052604090819020805460ff1916600117905551918291826110c4565b0390a1005b805180835260209291819084018484015e5f828201840152601f01601f1916010190565b6006111561038857565b634e487b7160e01b5f52602160045260245ffd5b9060068210156103885752565b602080825282516001600160a01b0316908201526104429190602082015160408201526101006103ea6040840151610120606085015261014084019061035a565b9260608101516080840152608081015160a084015260a081015160c084015261041b60c082015160e085019061039c565b60e08101516001600160a01b031683830152015190610120601f198285030191015261035a565b90565b3461023157602036600319011261023157600435606061010060405161046a81610b3c565b5f81525f60208201528260408201525f838201525f60808201525f60a08201525f60c08201525f60e082015201525f52600560205261055260405f2061054060076104b36110f7565b83546001600160a01b0316815292600181015460208501526104d760028201610b80565b60408501526003810154606085015260048101546080850152600581015460a085015261053a61052a600683015461051b6105128260ff1690565b60c08901611107565b60081c6001600160a01b031690565b6001600160a01b031660e0860152565b01610ca1565b610100820152604051918291826103a9565b0390f35b34610231576020366003190112610231576004355f52600560205260ff600660405f200154166006811015610388576040519015158152602090f35b34610231576020366003190112610231577f1e5d48c75f77ab7fd581247d777530d4e8c18432289e14017ba995532f6ca1cf6103556105cf610235565b6105d7611b13565b6001600160a01b0381165f9081526002602052604090819020805460ff191690555191829182611113565b34610231575f36600319011261023157602060405162278d008152f35b9181601f840112156102315782359167ffffffffffffffff8311610231576020838186019501011161023157565b3461023157608036600319011261023157610666610235565b60243567ffffffffffffffff81116102315760209161068c61069992369060040161061f565b6044359160643593611165565b604051908152f35b3461023157602036600319011261023157600435805f52600560205260ff600660405f20015416906006821015610388576001610552921490816106f3575b5060405190151581529081906020820190565b60059150610709905f52600560205260405f2090565b01544210155f6106e0565b34610231575f3660031901126102315761072c611b13565b600180546001600160a01b03199081169091555f80549182168155906001600160a01b03167f8be0079c531659141344cd1fd0a4f28419497f9722a3daafe3b4186f6b6457e08280a3005b346102315760203660031901126102315760206107956004356111eb565b6107a2604051809261039c565bf35b34610231575f36600319011261023157600154336001600160a01b039091160361081657600180546001600160a01b03199081169091555f805433928116831782556001600160a01b0316907f8be0079c531659141344cd1fd0a4f28419497f9722a3daafe3b4186f6b6457e09080a3005b63118cdaa760e01b5f523360045260245ffd5b3461023157602036600319011261023157600435610845611b13565b610e10811015806108cc575b1561089357610891907fa580b4a9812995ffed1b336481c3f3bfeb3414df9f587a9d73856bab25aa4eee60406007548151908152836020820152a1600755565b005b60405162461bcd60e51b8152602060048201526011602482015270544c3a206f7574206f6620626f756e647360781b6044820152606490fd5b5062278d00811115610851565b34610231575f366003190112610231575f546040516001600160a01b039091168152602090f35b34610231576020366003190112610231576001600160a01b03610921610235565b165f526003602052602060ff60405f2054166040519015158152f35b34610231575f3660031901126102315760206040516202a3008152f35b34610231576020366003190112610231577f1e5d48c75f77ab7fd581247d777530d4e8c18432289e14017ba995532f6ca1cf610355610997610235565b61099f611b13565b6001600160a01b0381165f9081526004602052604090819020805460ff1916905551918291826110c4565b346102315760c0366003190112610231576109e3610235565b60243567ffffffffffffffff811161023157610a0390369060040161061f565b9160a435919060843560643560443567ffffffffffffffff86116102315761055296610a36610a3e97369060040161061f565b96909561123e565b6040519081529081906020820190565b3461023157602036600319011261023157600435335f52600460205260ff60405f2054168015610ac0575b15610a8757610891906117b4565b60405162461bcd60e51b81526020600482015260116024820152702a261d103737ba1031b0b731b2b63632b960791b6044820152606490fd5b505f546001600160a01b03163314610a79565b34610231575f366003190112610231576020600754604051908152f35b90600182811c92168015610b1e575b6020831014610b0a57565b634e487b7160e01b5f52602260045260245ffd5b91607f1691610aff565b634e487b7160e01b5f52604160045260245ffd5b610120810190811067ffffffffffffffff821117610b5957604052565b610b28565b90601f8019910116810190811067ffffffffffffffff821117610b5957604052565b9060405191825f825492610b9384610af0565b8084529360018116908115610bfe5750600114610bba575b50610bb892500383610b5e565b565b90505f9291925260205f20905f915b818310610be2575050906020610bb8928201015f610bab565b6020919350806001915483858901015201910190918492610bc9565b905060209250610bb894915060ff191682840152151560051b8201015f610bab565b5f9291815491610c2f83610af0565b8083529260018116908115610c845750600114610c4b57505050565b5f9081526020812093945091925b838310610c6a575060209250010190565b600181602092949394548385870101520191019190610c59565b915050602093945060ff929192191683830152151560051b010190565b90610bb8610cb59260405193848092610c20565b0383610b5e565b9591610442999793610cf191610d0b969a979360018060a01b031689526020890152610120604089015261012088019061035a565b976060870152608086015260a085015260c084019061039c565b6001600160a01b031660e08201528083036101009091015261035a565b34610231576020366003190112610231576004355f52600560205260405f2060018060a01b03815416906105526007600183015492610d6960028201610b80565b9460038201546004830154600584015491610d9a600686015495610d936040518099819301610c20565b0387610b5e565b604051988998600887901c6001600160a01b03169660ff16958a610cbc565b34610231576020366003190112610231576004355f52600560205260ff600660405f2001541660068110156103885760405160039091148152602090f35b34610231576020366003190112610231577f1e5d48c75f77ab7fd581247d777530d4e8c18432289e14017ba995532f6ca1cf610355610e34610235565b610e3c611b13565b6001600160a01b0381165f9081526003602052604090819020805460ff191690555191829182611810565b34610231575f36600319011261023157602060405160018152f35b34610231575f366003190112610231576001546040516001600160a01b039091168152602090f35b34610231576020366003190112610231576004355f52600560205260ff600660405f2001541660068110156103885760405160019091148152602090f35b34610231576020366003190112610231577f606c98545793c0df614e4a07a49270302c92a296bcdbcf571aaae6655540af99610355610f25610235565b610f2d611b13565b6001600160a01b0381165f9081526003602052604090819020805460ff191660011790555191829182611810565b3461023157602036600319011261023157600435335f52600360205260ff60405f2054168015610fcc575b15610f945761089190611842565b60405162461bcd60e51b815260206004820152601060248201526f2a261d103737ba1032bc32b1baba37b960811b6044820152606490fd5b505f546001600160a01b03163314610f86565b34610231576020366003190112610231577f606c98545793c0df614e4a07a49270302c92a296bcdbcf571aaae6655540af9961035561101c610235565b611024611b13565b6001600160a01b0381165f9081526002602052604090819020805460ff191660011790555191829182611113565b346102315760203660031901126102315761106b610235565b611073611b13565b60018060a01b0316806bffffffffffffffffffffffff60a01b600154161760015560018060a01b035f54167f38d16b8cac22d99fc7c124b9cd0de2d3fa1faef420bfe791d8c362d765e227005f80a3005b60408082526009908201526821a0a721a2a62622a960b91b60608201526001600160a01b03909116602082015260800190565b60405190610bb861012083610b5e565b60068210156103885752565b604080825260089082015267282927a827a9a2a960c11b60608201526001600160a01b03909116602082015260800190565b908060209392818452848401375f828201840152601f01601f1916010190565b93926111af929193611196604051958694602086019860018060a01b031689526080604087015260a0860191611145565b916060840152608083015203601f198101835282610b5e565b51902090565b634e487b7160e01b5f52601160045260245ffd5b906206978082018092116111d957565b6111b5565b919082018092116111d957565b5f52600560205260405f2060ff600682015416906112088261037e565b60018214611214575090565b60050154611221816111c9565b4211611237574210156112315790565b50600290565b5050600490565b969091929395335f52600260205260ff60405f20541680156113ea575b156113b257611268611b26565b600754861015611277906113fd565b61128662278d0087111561143f565b6001600160a01b0388169661129c881515611480565b6112a9908686868c611165565b9788966112be885f52600560205260405f2090565b6006015460ff166112ce8161037e565b156112d8906114be565b6112e281426111de565b966112eb6110f7565b6001600160a01b0390931683525f602084015261130936888861151b565b60408401526060830152608082015260a08101869052600160c08201523360e082015261133736848461151b565b61010082015261134f875f52600560205260405f2090565b9061135991611684565b6006546113659061173b565b6006556040519485946113789486611749565b037f49576a4246e0cc7f596f88d7923fbb2aa85ebcca4706d36c328988c78c2ba23291a361044260015f80516020611b5f83398151915255565b60405162461bcd60e51b815260206004820152601060248201526f2a261d103737ba10383937b837b9b2b960811b6044820152606490fd5b505f546001600160a01b0316331461125b565b1561140457565b60405162461bcd60e51b815260206004820152601360248201527215130e8819195b185e481d1bdbc81cda1bdc9d606a1b6044820152606490fd5b1561144657565b60405162461bcd60e51b8152602060048201526012602482015271544c3a2064656c617920746f6f206c6f6e6760701b6044820152606490fd5b1561148757565b60405162461bcd60e51b815260206004820152600f60248201526e15130e881e995c9bc81d185c99d95d608a1b6044820152606490fd5b156114c557565b60405162461bcd60e51b815260206004820152601260248201527115130e88185b1c9958591e481c5d595d595960721b6044820152606490fd5b67ffffffffffffffff8111610b5957601f01601f191660200190565b929192611527826114ff565b916115356040519384610b5e565b829481845281830111610231578281602093845f960137010152565b601f821161155e57505050565b5f5260205f20906020601f840160051c83019310611596575b601f0160051c01905b81811061158b575050565b5f8155600101611580565b9091508190611577565b919091825167ffffffffffffffff8111610b59576115c8816115c28454610af0565b84611551565b6020601f82116001146116075781906115f89394955f926115fc575b50508160011b915f199060031b1c19161790565b9055565b015190505f806115e4565b601f1982169061161a845f5260205f2090565b915f5b8181106116545750958360019596971061163c575b505050811b019055565b01515f1960f88460031b161c191690555f8080611632565b9192602060018192868b01518155019401920161161d565b9060068110156103885760ff80198354169116179055565b815181546001600160a01b0319166001600160a01b03909116178155610bb89160079061010090602081015160018501556116c66040820151600286016115a0565b606081015160038501556080810151600485015560a081015160058501556117326006850161170260c08401516116fc8161037e565b8261166c565b60e08301516001600160a01b03168154610100600160a81b03191660089190911b610100600160a81b0316179055565b015191016115a0565b5f1981146111d95760010190565b906117639061044296949593606084526060840191611145565b9360208201526040818503910152611145565b1561177d57565b60405162461bcd60e51b815260206004820152600f60248201526e544c3a206e6f742070656e64696e6760881b6044820152606490fd5b805f526005602052600660405f200160ff81541660068110156103885760016117dd9114611776565b805460ff1916600517905533907f55e0dd61c29aac6fc36807628300ad3e3ec68655ae76ae4002f7fb101496fa9f5f80a3565b60408082526008908201526722ac22a1aaaa27a960c11b60608201526001600160a01b03909116602082015260800190565b61184a611b26565b61185c815f52600560205260405f2090565b906118c0600683016118836001611874835460ff1690565b61187d8161037e565b14611776565b6118a761189f600586015461189a81421015611990565b6111c9565b4211156119cc565b600384015480611957575b50805460ff19166003179055565b81546001600160a01b0316915f80600283019460405182816118e2818a611a52565b03925af16118ee611abc565b901561194f5750546040516001600160a01b03909116927fa8b2786c9fcd376fece6184f052b9de47167c4d40dedbafb02fc37fcbc2bacc79190819061193690339083611aeb565b0390a3610bb860015f80516020611b5f83398151915255565b602081519101fd5b600361197b600661197361198a945f52600560205260405f2090565b015460ff1690565b6119848161037e565b14611a06565b5f6118b2565b1561199757565b60405162461bcd60e51b815260206004820152600d60248201526c544c3a206e6f7420726561647960981b6044820152606490fd5b156119d357565b60405162461bcd60e51b815260206004820152600b60248201526a15130e88195e1c1a5c995960aa1b6044820152606490fd5b15611a0d57565b60405162461bcd60e51b815260206004820152601860248201527f544c3a207072656465636573736f72206e6f7420646f6e6500000000000000006044820152606490fd5b5f9291815491611a6183610af0565b9260018116908115611aa95750600114611a7a57505050565b90919293505f5260205f205f905b838210611a955750500190565b600181602092548486015201910190611a88565b60ff191683525050811515909102019150565b3d15611ae6573d90611acd826114ff565b91611adb6040519384610b5e565b82523d5f602084013e565b606090565b90611b03602091949394604084526040840190610c20565b6001600160a01b03909416910152565b5f546001600160a01b0316330361081657565b60025f80516020611b5f8339815191525414611b4f5760025f80516020611b5f83398151915255565b633ee5aeb560e01b5f5260045ffdfe9b779b17422d0df92223018b32b4d1fa46e071723d6817e2486d003becc55f00a26469706673582212208959a819450003e64968d02053b08610af7ee77fc4f18967ece80bec00937e7c64736f6c634300081a0033606c98545793c0df614e4a07a49270302c92a296bcdbcf571aaae6655540af99",
  "linkReferences": {},
  "deployedLinkReferences": {}
}