{
  "_format": "hh-sol-artifact-1",
  "contractName": "WikiSpot",
  "sourceName": "src/WikiSpot.sol",
  "abi": [
    {
      "inputs": [
        {
          "internalType": "address",
          "name": "owner",
          "type": "address"
        },
        {
          "internalType": "address",
          "name": "feeRecipient",
          "type": "address"
        }
      ],
      "stateMutability": "nonpayable",
      "type": "constructor"
    },
    {
      "inputs": [
        {
          "internalType": "address",
          "name": "owner",
          "type": "address"
        }
      ],
      "name": "OwnableInvalidOwner",
      "type": "error"
    },
    {
      "inputs": [
        {
          "internalType": "address",
          "name": "account",
          "type": "address"
        }
      ],
      "name": "OwnableUnauthorizedAccount",
      "type": "error"
    },
    {
      "inputs": [],
      "name": "ReentrancyGuardReentrantCall",
      "type": "error"
    },
    {
      "inputs": [
        {
          "internalType": "address",
          "name": "token",
          "type": "address"
        }
      ],
      "name": "SafeERC20FailedOperation",
      "type": "error"
    },
    {
      "anonymous": false,
      "inputs": [
        {
          "indexed": true,
          "internalType": "uint256",
          "name": "poolId",
          "type": "uint256"
        },
        {
          "indexed": true,
          "internalType": "address",
          "name": "lp",
          "type": "address"
        },
        {
          "indexed": false,
          "internalType": "uint256",
          "name": "amtA",
          "type": "uint256"
        },
        {
          "indexed": false,
          "internalType": "uint256",
          "name": "amtB",
          "type": "uint256"
        },
        {
          "indexed": false,
          "internalType": "uint256",
          "name": "lpMinted",
          "type": "uint256"
        }
      ],
      "name": "LiquidityAdded",
      "type": "event"
    },
    {
      "anonymous": false,
      "inputs": [
        {
          "indexed": true,
          "internalType": "uint256",
          "name": "poolId",
          "type": "uint256"
        },
        {
          "indexed": true,
          "internalType": "address",
          "name": "lp",
          "type": "address"
        },
        {
          "indexed": false,
          "internalType": "uint256",
          "name": "amtA",
          "type": "uint256"
        },
        {
          "indexed": false,
          "internalType": "uint256",
          "name": "amtB",
          "type": "uint256"
        },
        {
          "indexed": false,
          "internalType": "uint256",
          "name": "lpBurned",
          "type": "uint256"
        }
      ],
      "name": "LiquidityRemoved",
      "type": "event"
    },
    {
      "anonymous": false,
      "inputs": [
        {
          "indexed": true,
          "internalType": "address",
          "name": "previousOwner",
          "type": "address"
        },
        {
          "indexed": true,
          "internalType": "address",
          "name": "newOwner",
          "type": "address"
        }
      ],
      "name": "OwnershipTransferStarted",
      "type": "event"
    },
    {
      "anonymous": false,
      "inputs": [
        {
          "indexed": true,
          "internalType": "address",
          "name": "previousOwner",
          "type": "address"
        },
        {
          "indexed": true,
          "internalType": "address",
          "name": "newOwner",
          "type": "address"
        }
      ],
      "name": "OwnershipTransferred",
      "type": "event"
    },
    {
      "anonymous": false,
      "inputs": [
        {
          "indexed": true,
          "internalType": "uint256",
          "name": "poolId",
          "type": "uint256"
        },
        {
          "indexed": false,
          "internalType": "address",
          "name": "tokenA",
          "type": "address"
        },
        {
          "indexed": false,
          "internalType": "address",
          "name": "tokenB",
          "type": "address"
        }
      ],
      "name": "PoolCreated",
      "type": "event"
    },
    {
      "anonymous": false,
      "inputs": [
        {
          "indexed": true,
          "internalType": "uint256",
          "name": "poolId",
          "type": "uint256"
        },
        {
          "indexed": true,
          "internalType": "address",
          "name": "trader",
          "type": "address"
        },
        {
          "indexed": false,
          "internalType": "address",
          "name": "tokenIn",
          "type": "address"
        },
        {
          "indexed": false,
          "internalType": "uint256",
          "name": "amtIn",
          "type": "uint256"
        },
        {
          "indexed": false,
          "internalType": "address",
          "name": "tokenOut",
          "type": "address"
        },
        {
          "indexed": false,
          "internalType": "uint256",
          "name": "amtOut",
          "type": "uint256"
        }
      ],
      "name": "Swap",
      "type": "event"
    },
    {
      "inputs": [],
      "name": "BPS",
      "outputs": [
        {
          "internalType": "uint256",
          "name": "",
          "type": "uint256"
        }
      ],
      "stateMutability": "view",
      "type": "function"
    },
    {
      "inputs": [],
      "name": "PROTOCOL_FEE_BPS",
      "outputs": [
        {
          "internalType": "uint256",
          "name": "",
          "type": "uint256"
        }
      ],
      "stateMutability": "view",
      "type": "function"
    },
    {
      "inputs": [],
      "name": "acceptOwnership",
      "outputs": [],
      "stateMutability": "nonpayable",
      "type": "function"
    },
    {
      "inputs": [
        {
          "internalType": "uint256",
          "name": "poolId",
          "type": "uint256"
        },
        {
          "internalType": "uint256",
          "name": "amtA",
          "type": "uint256"
        },
        {
          "internalType": "uint256",
          "name": "amtB",
          "type": "uint256"
        },
        {
          "internalType": "uint256",
          "name": "minLP",
          "type": "uint256"
        }
      ],
      "name": "addLiquidity",
      "outputs": [
        {
          "internalType": "uint256",
          "name": "lpMinted",
          "type": "uint256"
        }
      ],
      "stateMutability": "nonpayable",
      "type": "function"
    },
    {
      "inputs": [
        {
          "internalType": "address",
          "name": "tokenA",
          "type": "address"
        },
        {
          "internalType": "address",
          "name": "tokenB",
          "type": "address"
        },
        {
          "internalType": "uint256",
          "name": "feeBps",
          "type": "uint256"
        }
      ],
      "name": "createPool",
      "outputs": [
        {
          "internalType": "uint256",
          "name": "poolId",
          "type": "uint256"
        }
      ],
      "stateMutability": "nonpayable",
      "type": "function"
    },
    {
      "inputs": [
        {
          "internalType": "uint256",
          "name": "poolId",
          "type": "uint256"
        },
        {
          "internalType": "address",
          "name": "tokenIn",
          "type": "address"
        },
        {
          "internalType": "uint256",
          "name": "amtIn",
          "type": "uint256"
        }
      ],
      "name": "getAmountOut",
      "outputs": [
        {
          "internalType": "uint256",
          "name": "amtOut",
          "type": "uint256"
        },
        {
          "internalType": "uint256",
          "name": "priceImpactBps",
          "type": "uint256"
        }
      ],
      "stateMutability": "view",
      "type": "function"
    },
    {
      "inputs": [
        {
          "internalType": "uint256",
          "name": "poolId",
          "type": "uint256"
        }
      ],
      "name": "getPool",
      "outputs": [
        {
          "components": [
            {
              "internalType": "address",
              "name": "tokenA",
              "type": "address"
            },
            {
              "internalType": "address",
              "name": "tokenB",
              "type": "address"
            },
            {
              "internalType": "uint256",
              "name": "reserveA",
              "type": "uint256"
            },
            {
              "internalType": "uint256",
              "name": "reserveB",
              "type": "uint256"
            },
            {
              "internalType": "uint256",
              "name": "totalLP",
              "type": "uint256"
            },
            {
              "internalType": "uint256",
              "name": "feeBps",
              "type": "uint256"
            },
            {
              "internalType": "uint256",
              "name": "volumeA",
              "type": "uint256"
            },
            {
              "internalType": "uint256",
              "name": "volumeB",
              "type": "uint256"
            },
            {
              "internalType": "bool",
              "name": "active",
              "type": "bool"
            }
          ],
          "internalType": "struct WikiSpot.Pool",
          "name": "",
          "type": "tuple"
        }
      ],
      "stateMutability": "view",
      "type": "function"
    },
    {
      "inputs": [
        {
          "internalType": "uint256",
          "name": "",
          "type": "uint256"
        },
        {
          "internalType": "address",
          "name": "",
          "type": "address"
        }
      ],
      "name": "lpBalances",
      "outputs": [
        {
          "internalType": "uint256",
          "name": "",
          "type": "uint256"
        }
      ],
      "stateMutability": "view",
      "type": "function"
    },
    {
      "inputs": [],
      "name": "owner",
      "outputs": [
        {
          "internalType": "address",
          "name": "",
          "type": "address"
        }
      ],
      "stateMutability": "view",
      "type": "function"
    },
    {
      "inputs": [
        {
          "internalType": "bytes32",
          "name": "",
          "type": "bytes32"
        }
      ],
      "name": "pairToPool",
      "outputs": [
        {
          "internalType": "uint256",
          "name": "",
          "type": "uint256"
        }
      ],
      "stateMutability": "view",
      "type": "function"
    },
    {
      "inputs": [],
      "name": "pendingOwner",
      "outputs": [
        {
          "internalType": "address",
          "name": "",
          "type": "address"
        }
      ],
      "stateMutability": "view",
      "type": "function"
    },
    {
      "inputs": [],
      "name": "poolCount",
      "outputs": [
        {
          "internalType": "uint256",
          "name": "",
          "type": "uint256"
        }
      ],
      "stateMutability": "view",
      "type": "function"
    },
    {
      "inputs": [
        {
          "internalType": "uint256",
          "name": "",
          "type": "uint256"
        }
      ],
      "name": "pools",
      "outputs": [
        {
          "internalType": "address",
          "name": "tokenA",
          "type": "address"
        },
        {
          "internalType": "address",
          "name": "tokenB",
          "type": "address"
        },
        {
          "internalType": "uint256",
          "name": "reserveA",
          "type": "uint256"
        },
        {
          "internalType": "uint256",
          "name": "reserveB",
          "type": "uint256"
        },
        {
          "internalType": "uint256",
          "name": "totalLP",
          "type": "uint256"
        },
        {
          "internalType": "uint256",
          "name": "feeBps",
          "type": "uint256"
        },
        {
          "internalType": "uint256",
          "name": "volumeA",
          "type": "uint256"
        },
        {
          "internalType": "uint256",
          "name": "volumeB",
          "type": "uint256"
        },
        {
          "internalType": "bool",
          "name": "active",
          "type": "bool"
        }
      ],
      "stateMutability": "view",
      "type": "function"
    },
    {
      "inputs": [],
      "name": "protocolFeeRecipient",
      "outputs": [
        {
          "internalType": "address",
          "name": "",
          "type": "address"
        }
      ],
      "stateMutability": "view",
      "type": "function"
    },
    {
      "inputs": [
        {
          "internalType": "uint256",
          "name": "poolId",
          "type": "uint256"
        },
        {
          "internalType": "uint256",
          "name": "lpAmount",
          "type": "uint256"
        },
        {
          "internalType": "uint256",
          "name": "minA",
          "type": "uint256"
        },
        {
          "internalType": "uint256",
          "name": "minB",
          "type": "uint256"
        }
      ],
      "name": "removeLiquidity",
      "outputs": [
        {
          "internalType": "uint256",
          "name": "amtA",
          "type": "uint256"
        },
        {
          "internalType": "uint256",
          "name": "amtB",
          "type": "uint256"
        }
      ],
      "stateMutability": "nonpayable",
      "type": "function"
    },
    {
      "inputs": [],
      "name": "renounceOwnership",
      "outputs": [],
      "stateMutability": "nonpayable",
      "type": "function"
    },
    {
      "inputs": [
        {
          "internalType": "address",
          "name": "_tl",
          "type": "address"
        }
      ],
      "name": "setTimelock",
      "outputs": [],
      "stateMutability": "nonpayable",
      "type": "function"
    },
    {
      "inputs": [
        {
          "internalType": "uint256",
          "name": "poolId",
          "type": "uint256"
        },
        {
          "internalType": "address",
          "name": "tokenIn",
          "type": "address"
        },
        {
          "internalType": "uint256",
          "name": "amtIn",
          "type": "uint256"
        },
        {
          "internalType": "uint256",
          "name": "minOut",
          "type": "uint256"
        },
        {
          "internalType": "address",
          "name": "recipient",
          "type": "address"
        }
      ],
      "name": "swapExactIn",
      "outputs": [
        {
          "internalType": "uint256",
          "name": "amtOut",
          "type": "uint256"
        }
      ],
      "stateMutability": "nonpayable",
      "type": "function"
    },
    {
      "inputs": [],
      "name": "timelock",
      "outputs": [
        {
          "internalType": "address",
          "name": "",
          "type": "address"
        }
      ],
      "stateMutability": "view",
      "type": "function"
    },
    {
      "inputs": [
        {
          "internalType": "address",
          "name": "newOwner",
          "type": "address"
        }
      ],
      "name": "transferOwnership",
      "outputs": [],
      "stateMutability": "nonpayable",
      "type": "function"
    }
  ],
  "bytecode": "0x60803461012257601f61158438819003918201601f19168301916001600160401b0383118484101761012657808492604094855283398101031261012257610052602061004b8361013a565b920161013a565b6001600160a01b0382161561010f5761006a8261014e565b60017f9b779b17422d0df92223018b32b4d1fa46e071723d6817e2486d003becc55f00556001600160a01b03169081156100ca576100a79061014e565b600680546001600160a01b0319169190911790556040516113e190816101a38239f35b60405162461bcd60e51b815260206004820152601760248201527f57696b693a207a65726f20666565526563697069656e740000000000000000006044820152606490fd5b631e4fbdf760e01b5f525f60045260245ffd5b5f80fd5b634e487b7160e01b5f52604160045260245ffd5b51906001600160a01b038216820361012257565b600180546001600160a01b03199081169091555f80546001600160a01b03938416928116831782559192909116907f8be0079c531659141344cd1fd0a4f28419497f9722a3daafe3b4186f6b6457e09080a356fe6080806040526004361015610012575f80fd5b5f3560e01c908163068bcd8d14610fbe57508063249d39e914610fa25780633c28592914610f5e5780634f5ee5ce14610c5a57806351810fb51461095257806364df049e1461092a578063715018a6146108c757806379ba5097146108425780638da5cb5b1461081b57806398fdaed0146107f1578063ac4afa3814610751578063aebf3e4114610592578063bdacb3031461050b578063be378228146104f0578063d33219b4146104c8578063d8a8d90114610372578063e30c39781461034a578063f2fde38b146102d8578063f525cb68146102bb5763f88bf15a146100f8575f80fd5b346102b75761010636611146565b9161010f611210565b61011884611116565b5093805f52600560205260405f2060018060a01b0333165f526020526101448260405f205410156111cc565b60028501610153815484611181565b95600481019061016582548099611194565b9661017e60038301996101798b5489611181565b611194565b9688101590816102ac575b501561027657604097610214938793865f5260056020528a5f2060018060a01b0333165f526020528a5f206101bf8982546111b2565b90556101cc8882546111b2565b90556101d98982546111b2565b90556101e68382546111b2565b9055805461020090889033906001600160a01b03166112da565b6001015433906001600160a01b03166112da565b7f9c27aedc1d1fccd4271dc15980dab26a907cdb41ed08aef747c6d0a9680f55ce85518061025633958789846040919493926060820195825260208201520152565b0390a360015f8051602061138c8339815191525582519182526020820152f35b60405162461bcd60e51b815260206004820152600e60248201526d53706f743a20736c69707061676560901b6044820152606490fd5b90508610155f610189565b5f80fd5b346102b7575f3660031901126102b7576020600354604051908152f35b346102b75760203660031901126102b7576102f1611100565b6102f9611332565b60018060a01b0316806bffffffffffffffffffffffff60a01b600154161760015560018060a01b035f54167f38d16b8cac22d99fc7c124b9cd0de2d3fa1faef420bfe791d8c362d765e227005f80a3005b346102b7575f3660031901126102b7576001546040516001600160a01b039091168152602090f35b346102b75760603660031901126102b75761038b6110ea565b6044359061039a600435611116565b50805490916001600160a01b039081169116036104b55760028101549060056003820154915b015460050180600511610496576103e76127106103e06104019387611181565b04856111b2565b6103fb6103f48483611181565b91856111bf565b90611194565b91670de0b6b3a7640000820291808304670de0b6b3a764000014901517156104965761042c91611194565b91670de0b6b3a7640000820290828204670de0b6b3a764000014831517156104965761045791611194565b808311156104aa5761046990836111b2565b61271081029080820461271014901517156104965760409261048a91611194565b82519182526020820152f35b634e487b7160e01b5f52601160045260245ffd5b50604091505f61048a565b60038101549060056002820154916103c0565b346102b7575f3660031901126102b7576002546040516001600160a01b039091168152602090f35b346102b7575f3660031901126102b757602060405160058152f35b346102b75760203660031901126102b757610524611100565b61052c611332565b6001600160a01b03168015610557576bffffffffffffffffffffffff60a01b60025416176002555f80f35b60405162461bcd60e51b815260206004820152601360248201527257696b693a207a65726f2074696d656c6f636b60681b6044820152606490fd5b346102b7576105a036611146565b926105ac929192611210565b6105b581611116565b509260ff600885015416156107165761064f7f089607a52cca0d390ff7d0ad4e97545804dcc41418e1daee9ec3948596fec944916020966106038660018060a01b0389541630903390611248565b61061b82303360018060a01b0360018c015416611248565b6106736004880191825480155f146106c957600361064161063c878c611181565b611345565b9a8b9788945b8510156111cc565b6002810161065e8c82546111bf565b90550161066c8682546111bf565b90556111bf565b90555f8481526005885260408082203383528952902080546106969084906111bf565b90556040805195865260208601919091528401523392606090a360015f8051602061138c83398151915255604051908152f35b60036106e36106d8838c611181565b60028d015490611194565b6106fb8c836106f2868b611181565b91015490611194565b8082101561070f57505b9a8b978894610647565b9050610705565b60405162461bcd60e51b815260206004820152601360248201527253706f743a20706f6f6c20696e61637469766560681b6044820152606490fd5b346102b75760203660031901126102b7576004356003548110156102b75761077b61012091611116565b5060018060a01b038154169060018060a01b036001820154169060028101546003820154600483015460058401549160068501549360ff600860078801549701541696604051988952602089015260408801526060870152608086015260a085015260c084015260e08301521515610100820152f35b346102b75760203660031901126102b7576004355f526004602052602060405f2054604051908152f35b346102b7575f3660031901126102b7575f546040516001600160a01b039091168152602090f35b346102b7575f3660031901126102b757600154336001600160a01b03909116036108b457600180546001600160a01b03199081169091555f805433928116831782556001600160a01b0316907f8be0079c531659141344cd1fd0a4f28419497f9722a3daafe3b4186f6b6457e09080a3005b63118cdaa760e01b5f523360045260245ffd5b346102b7575f3660031901126102b7576108df611332565b600180546001600160a01b03199081169091555f80549182168155906001600160a01b03167f8be0079c531659141344cd1fd0a4f28419497f9722a3daafe3b4186f6b6457e08280a3005b346102b7575f3660031901126102b7576006546040516001600160a01b039091168152602090f35b346102b75760603660031901126102b75761096b611100565b6109736110ea565b9060443590610980611332565b6001600160a01b03838116908216808214610c215760648411610be7571015610be257915b6040516bffffffffffffffffffffffff19606085811b82166020840190815284821b9092166034840152602883526001600160a01b039586169590931692909190810181811067ffffffffffffffff821117610b775760405251902091825f52600460205260405f20541580610bd8575b8015610bc4575b15610b8b576003549260405191610a3383611164565b858352602083019284845260408101935f855260608201925f845260808301905f825260a0840190815260c08401905f825260e08501925f845261010086019660018852680100000000000000008c1015610b775760018c01998a600355610a9a8d611116565b979097610b6457975187546001600160a01b039182166001600160a01b031991821617895598516001890180549190921699169890981790975595516002860155945160038501559351600484015592516005830155915160068201559051600782015590516008909101805460ff191691151560ff169190911790558184116104965760209484937f1a7a1d16c3ec9167827a7be3534be26288720a0bdd3de56d290f415db3d3e0a6936040935f5260048852835f2055825191825286820152a2604051908152f35b634e487b7160e01b5f525f60045260245ffd5b634e487b7160e01b5f52604160045260245ffd5b60405162461bcd60e51b815260206004820152601160248201527053706f743a20706f6f6c2065786973747360781b6044820152606490fd5b50825f52600460205260405f205415610a1d565b5060035415610a16565b6109a5565b60405162461bcd60e51b81526020600482015260126024820152710a6e0dee87440cccaca40e8dede40d0d2ced60731b6044820152606490fd5b60405162461bcd60e51b815260206004820152601160248201527053706f743a2073616d6520746f6b656e7360781b6044820152606490fd5b346102b75760a03660031901126102b757600435610c766110ea565b6084359160443591906001600160a01b03841684036102b757610c97611210565b610ca081611116565b509360ff60088601541615610f285784546001600160a01b039384169316831493848015610f12575b15610ed9578415610eca57600286015460038701545b610ceb83303389611248565b600583029183830460051484151715610496576103fb610d3e92610d38610d31612710610d2160058f998390049901548a611181565b04610d2c888a6111b2565b6111b2565b9182611181565b926111bf565b956064358710610e855786610dba91602099815f14610e745760018101546001600160a01b0316915b15610e3257600690610d7986886111b2565b610d88600283019182546111bf565b905560038101610d998582546111b2565b905501610da78682546111bf565b90555b6001600160a01b031694856112da565b80610e15575b506040519384528584015260408301528260608301527f92762686416f3d59911de1a842d893819bbd6cace14e0139290dbc89cc6de4fd60803393a360015f8051602061138c83398151915255604051908152f35b600654610e2c91906001600160a01b0316866112da565b86610dc0565b600790610e3f86886111b2565b610e4e600383019182546111bf565b905560028101610e5f8582546111b2565b905501610e6d8682546111bf565b9055610daa565b80546001600160a01b031691610d67565b60405162461bcd60e51b815260206004820152601760248201527f53706f743a20736c6970706167652065786365656465640000000000000000006044820152606490fd5b60038601546002870154610cdf565b60405162461bcd60e51b815260206004820152601160248201527029b837ba1d103bb937b733903a37b5b2b760791b6044820152606490fd5b5060018601546001600160a01b03168414610cc9565b60405162461bcd60e51b815260206004820152600e60248201526d53706f743a20696e61637469766560901b6044820152606490fd5b346102b75760403660031901126102b757610f776110ea565b6004355f52600560205260405f209060018060a01b03165f52602052602060405f2054604051908152f35b346102b7575f3660031901126102b75760206040516127108152f35b346102b75760203660031901126102b75761010081610fdd5f93611164565b8281528260208201528260408201528260608201528260808201528260a08201528260c08201528260e0820152015261012061101a600435611116565b5060405161102781611164565b60018060a01b038254169182825260018060a01b03600182015416602083019081526002820154604084019081526003830154606085019081526004840154906080860191825260058501549260a0870193845260068601549460c0880195865261010060ff600860078a01549960e08c019a8b520154169801971515885260405198895260018060a01b0390511660208901525160408801525160608701525160808601525160a08501525160c08401525160e0830152511515610100820152f35b602435906001600160a01b03821682036102b757565b600435906001600160a01b03821682036102b757565b6003548110156111325760035f52600960205f20910201905f90565b634e487b7160e01b5f52603260045260245ffd5b60809060031901126102b75760043590602435906044359060643590565b610120810190811067ffffffffffffffff821117610b7757604052565b8181029291811591840414171561049657565b811561119e570490565b634e487b7160e01b5f52601260045260245ffd5b9190820391821161049657565b9190820180921161049657565b156111d357565b60405162461bcd60e51b8152602060048201526015602482015274053706f743a20696e73756666696369656e74204c5605c1b6044820152606490fd5b60025f8051602061138c83398151915254146112395760025f8051602061138c83398151915255565b633ee5aeb560e01b5f5260045ffd5b6040516323b872dd60e01b5f9081526001600160a01b039384166004529290931660245260449390935260209060648180865af19060015f51148216156112b9575b6040525f606052156112995750565b635274afe760e01b5f9081526001600160a01b0391909116600452602490fd5b9060018115166112d157823b15153d1516169061128a565b503d5f823e3d90fd5b916040519163a9059cbb60e01b5f5260018060a01b031660045260245260205f60448180865af19060015f511482161561131a575b604052156112995750565b9060018115166112d157823b15153d1516169061130f565b5f546001600160a01b031633036108b457565b90811561138657600182018083116104965760011c825b838210611367575050565b90925061137d836113788184611194565b6111bf565b60011c9061135c565b5f915056fe9b779b17422d0df92223018b32b4d1fa46e071723d6817e2486d003becc55f00a2646970667358221220ef0c4ed73f49bf01b46170eafdaf7480451261c451f797595840d17c663f858e64736f6c634300081a0033",
  "linkReferences": {},
  "deployedLinkReferences": {}
}