{
  "_format": "hh-sol-artifact-1",
  "contractName": "WikiMarginLoan",
  "sourceName": "src/WikiMarginLoan.sol",
  "abi": [
    {
      "inputs": [
        {
          "internalType": "address",
          "name": "usdc",
          "type": "address"
        },
        {
          "internalType": "address",
          "name": "_vault",
          "type": "address"
        },
        {
          "internalType": "address",
          "name": "owner",
          "type": "address"
        }
      ],
      "stateMutability": "nonpayable",
      "type": "constructor"
    },
    {
      "inputs": [],
      "name": "EnforcedPause",
      "type": "error"
    },
    {
      "inputs": [],
      "name": "ExpectedPause",
      "type": "error"
    },
    {
      "inputs": [
        {
          "internalType": "address",
          "name": "owner",
          "type": "address"
        }
      ],
      "name": "OwnableInvalidOwner",
      "type": "error"
    },
    {
      "inputs": [
        {
          "internalType": "address",
          "name": "account",
          "type": "address"
        }
      ],
      "name": "OwnableUnauthorizedAccount",
      "type": "error"
    },
    {
      "inputs": [],
      "name": "ReentrancyGuardReentrantCall",
      "type": "error"
    },
    {
      "inputs": [
        {
          "internalType": "address",
          "name": "token",
          "type": "address"
        }
      ],
      "name": "SafeERC20FailedOperation",
      "type": "error"
    },
    {
      "anonymous": false,
      "inputs": [
        {
          "indexed": true,
          "internalType": "address",
          "name": "lender",
          "type": "address"
        },
        {
          "indexed": false,
          "internalType": "uint256",
          "name": "usdc",
          "type": "uint256"
        },
        {
          "indexed": false,
          "internalType": "uint256",
          "name": "shares",
          "type": "uint256"
        }
      ],
      "name": "Deposited",
      "type": "event"
    },
    {
      "anonymous": false,
      "inputs": [
        {
          "indexed": false,
          "internalType": "uint256",
          "name": "base",
          "type": "uint256"
        },
        {
          "indexed": false,
          "internalType": "uint256",
          "name": "slope1",
          "type": "uint256"
        },
        {
          "indexed": false,
          "internalType": "uint256",
          "name": "slope2",
          "type": "uint256"
        },
        {
          "indexed": false,
          "internalType": "uint256",
          "name": "kink",
          "type": "uint256"
        }
      ],
      "name": "IRMUpdated",
      "type": "event"
    },
    {
      "anonymous": false,
      "inputs": [
        {
          "indexed": false,
          "internalType": "uint256",
          "name": "interest",
          "type": "uint256"
        },
        {
          "indexed": false,
          "internalType": "uint256",
          "name": "newIndex",
          "type": "uint256"
        }
      ],
      "name": "InterestAccrued",
      "type": "event"
    },
    {
      "anonymous": false,
      "inputs": [
        {
          "indexed": true,
          "internalType": "uint256",
          "name": "loanId",
          "type": "uint256"
        },
        {
          "indexed": true,
          "internalType": "address",
          "name": "borrower",
          "type": "address"
        },
        {
          "indexed": true,
          "internalType": "address",
          "name": "liquidator",
          "type": "address"
        },
        {
          "indexed": false,
          "internalType": "uint256",
          "name": "seized",
          "type": "uint256"
        }
      ],
      "name": "LoanLiquidated",
      "type": "event"
    },
    {
      "anonymous": false,
      "inputs": [
        {
          "indexed": true,
          "internalType": "uint256",
          "name": "loanId",
          "type": "uint256"
        },
        {
          "indexed": true,
          "internalType": "address",
          "name": "borrower",
          "type": "address"
        },
        {
          "indexed": false,
          "internalType": "uint256",
          "name": "principal",
          "type": "uint256"
        },
        {
          "indexed": false,
          "internalType": "uint256",
          "name": "collateral",
          "type": "uint256"
        }
      ],
      "name": "LoanOpened",
      "type": "event"
    },
    {
      "anonymous": false,
      "inputs": [
        {
          "indexed": true,
          "internalType": "uint256",
          "name": "loanId",
          "type": "uint256"
        },
        {
          "indexed": true,
          "internalType": "address",
          "name": "borrower",
          "type": "address"
        },
        {
          "indexed": false,
          "internalType": "uint256",
          "name": "repaid",
          "type": "uint256"
        },
        {
          "indexed": false,
          "internalType": "uint256",
          "name": "interest",
          "type": "uint256"
        }
      ],
      "name": "LoanRepaid",
      "type": "event"
    },
    {
      "anonymous": false,
      "inputs": [
        {
          "indexed": true,
          "internalType": "address",
          "name": "previousOwner",
          "type": "address"
        },
        {
          "indexed": true,
          "internalType": "address",
          "name": "newOwner",
          "type": "address"
        }
      ],
      "name": "OwnershipTransferStarted",
      "type": "event"
    },
    {
      "anonymous": false,
      "inputs": [
        {
          "indexed": true,
          "internalType": "address",
          "name": "previousOwner",
          "type": "address"
        },
        {
          "indexed": true,
          "internalType": "address",
          "name": "newOwner",
          "type": "address"
        }
      ],
      "name": "OwnershipTransferred",
      "type": "event"
    },
    {
      "anonymous": false,
      "inputs": [
        {
          "indexed": false,
          "internalType": "address",
          "name": "account",
          "type": "address"
        }
      ],
      "name": "Paused",
      "type": "event"
    },
    {
      "anonymous": false,
      "inputs": [
        {
          "indexed": true,
          "internalType": "address",
          "name": "to",
          "type": "address"
        },
        {
          "indexed": false,
          "internalType": "uint256",
          "name": "amount",
          "type": "uint256"
        }
      ],
      "name": "ReservesWithdrawn",
      "type": "event"
    },
    {
      "anonymous": false,
      "inputs": [
        {
          "indexed": false,
          "internalType": "address",
          "name": "account",
          "type": "address"
        }
      ],
      "name": "Unpaused",
      "type": "event"
    },
    {
      "anonymous": false,
      "inputs": [
        {
          "indexed": true,
          "internalType": "address",
          "name": "lender",
          "type": "address"
        },
        {
          "indexed": false,
          "internalType": "uint256",
          "name": "usdc",
          "type": "uint256"
        },
        {
          "indexed": false,
          "internalType": "uint256",
          "name": "shares",
          "type": "uint256"
        }
      ],
      "name": "Withdrew",
      "type": "event"
    },
    {
      "inputs": [],
      "name": "BPS",
      "outputs": [
        {
          "internalType": "uint256",
          "name": "",
          "type": "uint256"
        }
      ],
      "stateMutability": "view",
      "type": "function"
    },
    {
      "inputs": [],
      "name": "CLOSE_FACTOR_BPS",
      "outputs": [
        {
          "internalType": "uint256",
          "name": "",
          "type": "uint256"
        }
      ],
      "stateMutability": "view",
      "type": "function"
    },
    {
      "inputs": [],
      "name": "LIQUIDATION_BONUS_BPS",
      "outputs": [
        {
          "internalType": "uint256",
          "name": "",
          "type": "uint256"
        }
      ],
      "stateMutability": "view",
      "type": "function"
    },
    {
      "inputs": [],
      "name": "LIQ_THRESHOLD_BPS",
      "outputs": [
        {
          "internalType": "uint256",
          "name": "",
          "type": "uint256"
        }
      ],
      "stateMutability": "view",
      "type": "function"
    },
    {
      "inputs": [],
      "name": "MAX_DURATION",
      "outputs": [
        {
          "internalType": "uint256",
          "name": "",
          "type": "uint256"
        }
      ],
      "stateMutability": "view",
      "type": "function"
    },
    {
      "inputs": [],
      "name": "MAX_LTV_BPS",
      "outputs": [
        {
          "internalType": "uint256",
          "name": "",
          "type": "uint256"
        }
      ],
      "stateMutability": "view",
      "type": "function"
    },
    {
      "inputs": [],
      "name": "MIN_BORROW",
      "outputs": [
        {
          "internalType": "uint256",
          "name": "",
          "type": "uint256"
        }
      ],
      "stateMutability": "view",
      "type": "function"
    },
    {
      "inputs": [],
      "name": "MIN_DURATION",
      "outputs": [
        {
          "internalType": "uint256",
          "name": "",
          "type": "uint256"
        }
      ],
      "stateMutability": "view",
      "type": "function"
    },
    {
      "inputs": [],
      "name": "PRECISION",
      "outputs": [
        {
          "internalType": "uint256",
          "name": "",
          "type": "uint256"
        }
      ],
      "stateMutability": "view",
      "type": "function"
    },
    {
      "inputs": [],
      "name": "USDC",
      "outputs": [
        {
          "internalType": "contract IERC20",
          "name": "",
          "type": "address"
        }
      ],
      "stateMutability": "view",
      "type": "function"
    },
    {
      "inputs": [],
      "name": "acceptOwnership",
      "outputs": [],
      "stateMutability": "nonpayable",
      "type": "function"
    },
    {
      "inputs": [],
      "name": "baseRatePerSecond",
      "outputs": [
        {
          "internalType": "uint256",
          "name": "",
          "type": "uint256"
        }
      ],
      "stateMutability": "view",
      "type": "function"
    },
    {
      "inputs": [],
      "name": "borrowAPY",
      "outputs": [
        {
          "internalType": "uint256",
          "name": "",
          "type": "uint256"
        }
      ],
      "stateMutability": "view",
      "type": "function"
    },
    {
      "inputs": [],
      "name": "borrowIndex",
      "outputs": [
        {
          "internalType": "uint256",
          "name": "",
          "type": "uint256"
        }
      ],
      "stateMutability": "view",
      "type": "function"
    },
    {
      "inputs": [
        {
          "internalType": "address",
          "name": "",
          "type": "address"
        },
        {
          "internalType": "uint256",
          "name": "",
          "type": "uint256"
        }
      ],
      "name": "borrowerLoans",
      "outputs": [
        {
          "internalType": "uint256",
          "name": "",
          "type": "uint256"
        }
      ],
      "stateMutability": "view",
      "type": "function"
    },
    {
      "inputs": [
        {
          "internalType": "uint256",
          "name": "loanId",
          "type": "uint256"
        }
      ],
      "name": "currentDebt",
      "outputs": [
        {
          "internalType": "uint256",
          "name": "",
          "type": "uint256"
        }
      ],
      "stateMutability": "view",
      "type": "function"
    },
    {
      "inputs": [
        {
          "internalType": "uint256",
          "name": "amount",
          "type": "uint256"
        }
      ],
      "name": "deposit",
      "outputs": [],
      "stateMutability": "nonpayable",
      "type": "function"
    },
    {
      "inputs": [],
      "name": "exchangeRate",
      "outputs": [
        {
          "internalType": "uint256",
          "name": "",
          "type": "uint256"
        }
      ],
      "stateMutability": "view",
      "type": "function"
    },
    {
      "inputs": [
        {
          "internalType": "address",
          "name": "borrower",
          "type": "address"
        }
      ],
      "name": "getBorrowLoans",
      "outputs": [
        {
          "internalType": "uint256[]",
          "name": "",
          "type": "uint256[]"
        }
      ],
      "stateMutability": "view",
      "type": "function"
    },
    {
      "inputs": [
        {
          "internalType": "address",
          "name": "lender",
          "type": "address"
        }
      ],
      "name": "getLPBalance",
      "outputs": [
        {
          "internalType": "uint256",
          "name": "usdc",
          "type": "uint256"
        }
      ],
      "stateMutability": "view",
      "type": "function"
    },
    {
      "inputs": [
        {
          "internalType": "uint256",
          "name": "loanId",
          "type": "uint256"
        }
      ],
      "name": "getLoan",
      "outputs": [
        {
          "components": [
            {
              "internalType": "address",
              "name": "borrower",
              "type": "address"
            },
            {
              "internalType": "uint256",
              "name": "principal",
              "type": "uint256"
            },
            {
              "internalType": "uint256",
              "name": "collateralLocked",
              "type": "uint256"
            },
            {
              "internalType": "uint256",
              "name": "borrowIndex",
              "type": "uint256"
            },
            {
              "internalType": "uint256",
              "name": "openedAt",
              "type": "uint256"
            },
            {
              "internalType": "uint256",
              "name": "dueAt",
              "type": "uint256"
            },
            {
              "internalType": "bool",
              "name": "active",
              "type": "bool"
            }
          ],
          "internalType": "struct WikiMarginLoan.LoanPosition",
          "name": "",
          "type": "tuple"
        }
      ],
      "stateMutability": "view",
      "type": "function"
    },
    {
      "inputs": [
        {
          "internalType": "uint256",
          "name": "loanId",
          "type": "uint256"
        }
      ],
      "name": "healthFactor",
      "outputs": [
        {
          "internalType": "uint256",
          "name": "",
          "type": "uint256"
        }
      ],
      "stateMutability": "view",
      "type": "function"
    },
    {
      "inputs": [
        {
          "internalType": "uint256",
          "name": "loanId",
          "type": "uint256"
        }
      ],
      "name": "isLiquidatable",
      "outputs": [
        {
          "internalType": "bool",
          "name": "",
          "type": "bool"
        }
      ],
      "stateMutability": "view",
      "type": "function"
    },
    {
      "inputs": [],
      "name": "kinkUtilization",
      "outputs": [
        {
          "internalType": "uint256",
          "name": "",
          "type": "uint256"
        }
      ],
      "stateMutability": "view",
      "type": "function"
    },
    {
      "inputs": [],
      "name": "lastAccrualTime",
      "outputs": [
        {
          "internalType": "uint256",
          "name": "",
          "type": "uint256"
        }
      ],
      "stateMutability": "view",
      "type": "function"
    },
    {
      "inputs": [
        {
          "internalType": "uint256",
          "name": "loanId",
          "type": "uint256"
        }
      ],
      "name": "liquidate",
      "outputs": [],
      "stateMutability": "nonpayable",
      "type": "function"
    },
    {
      "inputs": [],
      "name": "loanCount",
      "outputs": [
        {
          "internalType": "uint256",
          "name": "",
          "type": "uint256"
        }
      ],
      "stateMutability": "view",
      "type": "function"
    },
    {
      "inputs": [
        {
          "internalType": "uint256",
          "name": "",
          "type": "uint256"
        }
      ],
      "name": "loans",
      "outputs": [
        {
          "internalType": "address",
          "name": "borrower",
          "type": "address"
        },
        {
          "internalType": "uint256",
          "name": "principal",
          "type": "uint256"
        },
        {
          "internalType": "uint256",
          "name": "collateralLocked",
          "type": "uint256"
        },
        {
          "internalType": "uint256",
          "name": "borrowIndex",
          "type": "uint256"
        },
        {
          "internalType": "uint256",
          "name": "openedAt",
          "type": "uint256"
        },
        {
          "internalType": "uint256",
          "name": "dueAt",
          "type": "uint256"
        },
        {
          "internalType": "bool",
          "name": "active",
          "type": "bool"
        }
      ],
      "stateMutability": "view",
      "type": "function"
    },
    {
      "inputs": [
        {
          "internalType": "address",
          "name": "",
          "type": "address"
        }
      ],
      "name": "lpBalances",
      "outputs": [
        {
          "internalType": "uint256",
          "name": "",
          "type": "uint256"
        }
      ],
      "stateMutability": "view",
      "type": "function"
    },
    {
      "inputs": [
        {
          "internalType": "uint256",
          "name": "borrowAmount",
          "type": "uint256"
        },
        {
          "internalType": "uint256",
          "name": "collateralLock",
          "type": "uint256"
        },
        {
          "internalType": "uint256",
          "name": "duration",
          "type": "uint256"
        }
      ],
      "name": "openLoan",
      "outputs": [
        {
          "internalType": "uint256",
          "name": "loanId",
          "type": "uint256"
        }
      ],
      "stateMutability": "nonpayable",
      "type": "function"
    },
    {
      "inputs": [],
      "name": "owner",
      "outputs": [
        {
          "internalType": "address",
          "name": "",
          "type": "address"
        }
      ],
      "stateMutability": "view",
      "type": "function"
    },
    {
      "inputs": [],
      "name": "pause",
      "outputs": [],
      "stateMutability": "nonpayable",
      "type": "function"
    },
    {
      "inputs": [],
      "name": "paused",
      "outputs": [
        {
          "internalType": "bool",
          "name": "",
          "type": "bool"
        }
      ],
      "stateMutability": "view",
      "type": "function"
    },
    {
      "inputs": [],
      "name": "pendingOwner",
      "outputs": [
        {
          "internalType": "address",
          "name": "",
          "type": "address"
        }
      ],
      "stateMutability": "view",
      "type": "function"
    },
    {
      "inputs": [],
      "name": "renounceOwnership",
      "outputs": [],
      "stateMutability": "nonpayable",
      "type": "function"
    },
    {
      "inputs": [
        {
          "internalType": "uint256",
          "name": "loanId",
          "type": "uint256"
        }
      ],
      "name": "repayLoan",
      "outputs": [],
      "stateMutability": "nonpayable",
      "type": "function"
    },
    {
      "inputs": [],
      "name": "reserveFactorBps",
      "outputs": [
        {
          "internalType": "uint256",
          "name": "",
          "type": "uint256"
        }
      ],
      "stateMutability": "view",
      "type": "function"
    },
    {
      "inputs": [
        {
          "internalType": "uint256",
          "name": "base",
          "type": "uint256"
        },
        {
          "internalType": "uint256",
          "name": "s1",
          "type": "uint256"
        },
        {
          "internalType": "uint256",
          "name": "s2",
          "type": "uint256"
        },
        {
          "internalType": "uint256",
          "name": "kink",
          "type": "uint256"
        }
      ],
      "name": "setIRM",
      "outputs": [],
      "stateMutability": "nonpayable",
      "type": "function"
    },
    {
      "inputs": [
        {
          "internalType": "uint256",
          "name": "bps",
          "type": "uint256"
        }
      ],
      "name": "setReserveFactor",
      "outputs": [],
      "stateMutability": "nonpayable",
      "type": "function"
    },
    {
      "inputs": [
        {
          "internalType": "address",
          "name": "_tl",
          "type": "address"
        }
      ],
      "name": "setTimelock",
      "outputs": [],
      "stateMutability": "nonpayable",
      "type": "function"
    },
    {
      "inputs": [],
      "name": "slope1PerSecond",
      "outputs": [
        {
          "internalType": "uint256",
          "name": "",
          "type": "uint256"
        }
      ],
      "stateMutability": "view",
      "type": "function"
    },
    {
      "inputs": [],
      "name": "slope2PerSecond",
      "outputs": [
        {
          "internalType": "uint256",
          "name": "",
          "type": "uint256"
        }
      ],
      "stateMutability": "view",
      "type": "function"
    },
    {
      "inputs": [],
      "name": "supplyAPY",
      "outputs": [
        {
          "internalType": "uint256",
          "name": "",
          "type": "uint256"
        }
      ],
      "stateMutability": "view",
      "type": "function"
    },
    {
      "inputs": [],
      "name": "timelock",
      "outputs": [
        {
          "internalType": "address",
          "name": "",
          "type": "address"
        }
      ],
      "stateMutability": "view",
      "type": "function"
    },
    {
      "inputs": [],
      "name": "totalBorrowed",
      "outputs": [
        {
          "internalType": "uint256",
          "name": "",
          "type": "uint256"
        }
      ],
      "stateMutability": "view",
      "type": "function"
    },
    {
      "inputs": [],
      "name": "totalDeposited",
      "outputs": [
        {
          "internalType": "uint256",
          "name": "",
          "type": "uint256"
        }
      ],
      "stateMutability": "view",
      "type": "function"
    },
    {
      "inputs": [],
      "name": "totalLP",
      "outputs": [
        {
          "internalType": "uint256",
          "name": "",
          "type": "uint256"
        }
      ],
      "stateMutability": "view",
      "type": "function"
    },
    {
      "inputs": [],
      "name": "totalReserves",
      "outputs": [
        {
          "internalType": "uint256",
          "name": "",
          "type": "uint256"
        }
      ],
      "stateMutability": "view",
      "type": "function"
    },
    {
      "inputs": [
        {
          "internalType": "address",
          "name": "newOwner",
          "type": "address"
        }
      ],
      "name": "transferOwnership",
      "outputs": [],
      "stateMutability": "nonpayable",
      "type": "function"
    },
    {
      "inputs": [],
      "name": "unpause",
      "outputs": [],
      "stateMutability": "nonpayable",
      "type": "function"
    },
    {
      "inputs": [],
      "name": "utilizationRate",
      "outputs": [
        {
          "internalType": "uint256",
          "name": "",
          "type": "uint256"
        }
      ],
      "stateMutability": "view",
      "type": "function"
    },
    {
      "inputs": [],
      "name": "vault",
      "outputs": [
        {
          "internalType": "contract IWikiVault",
          "name": "",
          "type": "address"
        }
      ],
      "stateMutability": "view",
      "type": "function"
    },
    {
      "inputs": [
        {
          "internalType": "uint256",
          "name": "shares",
          "type": "uint256"
        }
      ],
      "name": "withdraw",
      "outputs": [],
      "stateMutability": "nonpayable",
      "type": "function"
    },
    {
      "inputs": [
        {
          "internalType": "address",
          "name": "to",
          "type": "address"
        },
        {
          "internalType": "uint256",
          "name": "amount",
          "type": "uint256"
        }
      ],
      "name": "withdrawReserves",
      "outputs": [],
      "stateMutability": "nonpayable",
      "type": "function"
    }
  ],
  "bytecode": "0x60c03461025757601f612a7538819003918201601f19168301916001600160401b0383118484101761025b57808492606094604052833981010312610257576100478161026f565b906100546020820161026f565b906001600160a01b039061006a9060400161026f565b1691821561024457600180546001600160a01b03199081169091555f80549182168517815560405194916001600160a01b0316907f8be0079c531659141344cd1fd0a4f28419497f9722a3daafe3b4186f6b6457e09080a360017f9b779b17422d0df92223018b32b4d1fa46e071723d6817e2486d003becc55f00556325cd0f806003556397343e00600455640a56e63100600555670b1a2bc2ec5000006006556105dc6007556001600160a01b031691821561021057506001600160a01b03169081156101d75760805260a052670de0b6b3a7640000600b55670de0b6b3a7640000600e5542600c556040516127f1908161028482396080518181816103ed015281816107490152818161094f01528181610c4d01528181610df501528181610fbb0152818161109601528181611486015281816117da01528181611ce60152818161232c01526124c2015260a0518181816102c401528181610bdc01528181611414015261177e0152f35b60405162461bcd60e51b815260206004820152601160248201527015da5ada4e881e995c9bc817dd985d5b1d607a1b6044820152606490fd5b62461bcd60e51b815260206004820152600f60248201526e57696b693a207a65726f207573646360881b6044820152606490fd5b631e4fbdf760e01b5f525f60045260245ffd5b5f80fd5b634e487b7160e01b5f52604160045260245ffd5b51906001600160a01b03821682036102575756fe6080806040526004361015610012575f80fd5b5f905f3560e01c9081630b65092d146120f057508063132c4feb146120d357806317e859a5146120b65780631bfaae1d1461209a5780631c4469831461201f578063211a444314611ff7578063249d39e914611fdb578063288e7f3214611f6b5780632e1a7d4d14611c885780633ba0b9a914611c6b5780633d2773e9146116fb5780633f4ba83a1461168b578063415f1240146112a957806348ddab641461128c5780634c19386c1461126e578063504006ca146111865780635733d9481461106a5780635c975abb146110445780636c321c8a14610f8f5780636ec6df0e14610f71578063715018a614610f0c57806379ba509714610e875780638456cb5914610e2457806389a3027114610ddf5780638da5cb5b14610db85780638f840ddd14610d9a578063aa5af0fd14610d7c578063aaf5eb6814610d59578063ab7b1c8914610b22578063b1724b4614610b04578063b6a6d17714610ae6578063b6b55f2514610907578063bc71054e146108e8578063bcb29667146108c0578063bdacb30314610839578063c87bed701461081b578063cabca6431461071d578063cadb784814610668578063ce63094d1461064a578063d2258beb1461061e578063d33219b4146105f5578063d726ae98146105d7578063d7e72708146105b9578063d90e02641461059b578063e1ec3c6814610518578063e30c3978146104ef578063e3cd32d6146104d2578063e3ed19021461047b578063e478795d1461037d578063ecd1dae614610360578063f2fde38b146102f3578063fbfa77cf146102ae578063fc83a69e146102905763ff50abdc14610270575f80fd5b3461028d578060031936011261028d576020600854604051908152f35b80fd5b503461028d578060031936011261028d576020604051629896808152f35b503461028d578060031936011261028d576040517f00000000000000000000000000000000000000000000000000000000000000006001600160a01b03168152602090f35b503461028d57602036600319011261028d5761030d612124565b6103156123c6565b600180546001600160a01b0319166001600160a01b0392831690811790915582549091167f38d16b8cac22d99fc7c124b9cd0de2d3fa1faef420bfe791d8c362d765e227008380a380f35b503461028d578060031936011261028d5760206040516101f48152f35b503461028d57604036600319011261028d57610397612124565b602435906103a36123c6565b6103ab612433565b600a54808311610436577fc08dc172be702645aed16b77bdd6b526b8be4dab30d20b4caf5285fd59712fe9916103e38460209361224f565b600a5561041184827f0000000000000000000000000000000000000000000000000000000000000000612606565b6040519384526001600160a01b031692a260015f8051602061279c8339815191525580f35b60405162461bcd60e51b815260206004820152601c60248201527f4d617267696e4c6f616e3a2065786365656473207265736572766573000000006044820152606490fd5b503461028d57604036600319011261028d57610495612124565b6001600160a01b031681526011602052604081208054602435929083101561028d5760206104c3848461216a565b90549060031b1c604051908152f35b503461028d578060031936011261028d5760206040516121348152f35b503461028d578060031936011261028d576001546040516001600160a01b039091168152602090f35b503461028d57602036600319011261028d576004359060105482101561028d5760e06105438361213a565b5060018060a01b03815416906001810154906002810154600382015460048301549160ff600660058601549501541694604051968752602087015260408601526060850152608084015260a0830152151560c0820152f35b503461028d578060031936011261028d576020600354604051908152f35b503461028d578060031936011261028d576020600c54604051908152f35b503461028d578060031936011261028d576020600454604051908152f35b503461028d578060031936011261028d576002546040516001600160a01b039091168152602090f35b503461028d57602036600319011261028d57602061064261063d612124565b6122ed565b604051908152f35b503461028d578060031936011261028d576020601054604051908152f35b503461028d57602036600319011261028d576001600160a01b0361068a612124565b168152601160205260408120604051908160208254918281520190819285526020852090855b81811061070757505050826106c691038361222d565b604051928392602084019060208552518091526040840192915b8181106106ee575050500390f35b82518452859450602093840193909201916001016106e0565b82548452602090930192600192830192016106b0565b503461028d578060031936011261028d576040516370a0823160e01b81523060048201526020816024817f00000000000000000000000000000000000000000000000000000000000000006001600160a01b03165afa9081156108105782916107d8575b5061079a61079561079f92600a549061224f565b6126f0565b612733565b906301e133808202918083046301e1338014901517156107c457602082604051908152f35b634e487b7160e01b81526011600452602490fd5b90506020813d602011610808575b816107f36020938361222d565b81010312610804575161079a610781565b5f80fd5b3d91506107e6565b6040513d84823e3d90fd5b503461028d578060031936011261028d576020600754604051908152f35b503461028d57602036600319011261028d57610853612124565b61085b6123c6565b6001600160a01b03168015610885576bffffffffffffffffffffffff60a01b600254161760025580f35b60405162461bcd60e51b815260206004820152601360248201527257696b693a207a65726f2074696d656c6f636b60681b6044820152606490fd5b503461028d57602036600319011261028d5760206106426108e260043561213a565b506123ec565b503461028d57602036600319011261028d576020610642600435612287565b503461028d57602036600319011261028d57600435610924612433565b61092c61246b565b8015610aa15761093a612489565b6040516370a0823160e01b81523060048201527f0000000000000000000000000000000000000000000000000000000000000000906020816024816001600160a01b0386165afa908115610a965783908592610a60575b506109a26109f692600a549061224f565b92600d549384158015610a58575b15610a3b57506109d18280955b6109c98560085461227a565b60085561227a565b600d55338652600f602052604086206109eb85825461227a565b905530903390612687565b60405191825260208201527f73a19dd210f1a7f902193214c0ee91dd35ee5b4d920cba8d519eca65a7b488ca60403392a260015f8051602061279c8339815191525580f35b610a516109d191610a4c878661217f565b61225c565b80956109bd565b5080156109b0565b9150506020813d602011610a8e575b81610a7c6020938361222d565b810103126108045751826109a2610991565b3d9150610a6f565b6040513d86823e3d90fd5b60405162461bcd60e51b815260206004820152601760248201527f4d617267696e4c6f616e3a207a65726f20616d6f756e740000000000000000006044820152606490fd5b503461028d578060031936011261028d57602060405162093a808152f35b503461028d578060031936011261028d5760206040516276a7008152f35b503461028d57602036600319011261028d57600435610b3f612433565b610b4761246b565b610b508161213a565b5080549091906001600160a01b03163303610d14576006820160ff81541615610ccf57610b7b612489565b83610b85846123ec565b93610ba96001820154610b98818861224f565b855460ff191690955560095461224f565b600955610bc7612710610bbe6007548661217f565b04600a5461227a565b600a5580546002909101546001600160a01b037f00000000000000000000000000000000000000000000000000000000000000008116921690823b15610ccb57604051639101e5b360e01b81526001600160a01b0392909216600483015260248201529082908290604490829084905af1801561081057610cb6575b5050610c718330337f0000000000000000000000000000000000000000000000000000000000000000612687565b60405192835260208301527f553c9087bff5b534e499a66dac3fa9db2962cd252ea01165239755836ae5345e60403393a360015f8051602061279c8339815191525580f35b81610cc09161222d565b610ccb57835f610c43565b8380fd5b60405162461bcd60e51b815260206004820152601b60248201527f4d617267696e4c6f616e3a206c6f616e206e6f742061637469766500000000006044820152606490fd5b60405162461bcd60e51b815260206004820152601960248201527f4d617267696e4c6f616e3a206e6f7420796f7572206c6f616e000000000000006044820152606490fd5b503461028d578060031936011261028d576020604051670de0b6b3a76400008152f35b503461028d578060031936011261028d576020600b54604051908152f35b503461028d578060031936011261028d576020600a54604051908152f35b503461028d578060031936011261028d57546040516001600160a01b039091168152602090f35b503461028d578060031936011261028d576040517f00000000000000000000000000000000000000000000000000000000000000006001600160a01b03168152602090f35b503461028d578060031936011261028d57610e3d6123c6565b610e4561246b565b6001805460ff60a01b1916600160a01b1790556040513381527f62e78cea01bee320cd4e420270b5ea74000d11b0c9f74754ebdbfc544b05a25890602090a180f35b503461028d578060031936011261028d57600154336001600160a01b0390911603610ef957600180546001600160a01b0319908116909155815433918116821783556001600160a01b03167f8be0079c531659141344cd1fd0a4f28419497f9722a3daafe3b4186f6b6457e08380a380f35b63118cdaa760e01b815233600452602490fd5b503461028d578060031936011261028d57610f256123c6565b600180546001600160a01b03199081169091558154908116825581906001600160a01b03167f8be0079c531659141344cd1fd0a4f28419497f9722a3daafe3b4186f6b6457e08280a380f35b503461028d578060031936011261028d576020600554604051908152f35b503461028d578060031936011261028d576040516370a0823160e01b81523060048201526020816024817f00000000000000000000000000000000000000000000000000000000000000006001600160a01b03165afa9182156110385791611004575b602061064261079584600a549061224f565b90506020813d602011611030575b8161101f6020938361222d565b810103126108045751610642610ff2565b3d9150611012565b604051903d90823e3d90fd5b503461028d578060031936011261028d57602060ff60015460a01c166040519015158152f35b503461028d578060031936011261028d576040516370a0823160e01b81523060048201526020816024817f00000000000000000000000000000000000000000000000000000000000000006001600160a01b03165afa908115610810578291611152575b506110f96110eb610795670de0b6b3a764000093600a549061224f565b6110f481612733565b61217f565b046007546127100390612710821161113e57612710916111189161217f565b04906301e133808202918083046301e1338014901517156107c457602082604051908152f35b634e487b7160e01b83526011600452602483fd5b90506020813d60201161117e575b8161116d6020938361222d565b8101031261080457516110f96110ce565b3d9150611160565b503461028d57602036600319011261028d5760c06040516111a681612211565b8281528260208201528260408201528260608201528260808201528260a0820152015260e06111d660043561213a565b506040516111e381612211565b60018060a01b0382541691828252600181015460208301908152600282015460408401908152600383015490606085019182526004840154926080860193845260c060ff600660058801549760a08a01988952015416960195151586526040519687525160208701525160408601525160608501525160808401525160a083015251151560c0820152f35b503461028d578060031936011261028d576020600954604051908152f35b503461028d578060031936011261028d5760206040516113888152f35b503461028d57602036600319011261028d576004356112c6612433565b6112ce61246b565b6112d78161213a565b5090600682019160ff8354161561164d5780546001600160a01b0316331461160857611301612489565b61130a816123ec565b92612710840290841594808304612710148617156115f45760028401908154936121348502851591868204612134148317156115e05711600587015480151590816115d6575b5081156115ce575b50156115935761138885029085820461138814171561157f5761271090046101f481028181046101f4148215171561156b579061271061139992049061227a565b96848811611562575b611388820291820461138814171561154e576127109004926113e0876001870192835487808210155f14611546576113d99161224f565b845561224f565b82556113ee8460095461224f565b600955541590811561153c575b5061152e575b5081546001600160a01b039081169086907f000000000000000000000000000000000000000000000000000000000000000016803b1561152a57604051639101e5b360e01b81526001600160a01b039390931660048401526024830187905281908390604490829084905af191821561151d578692611500575b50506114b5916114ae7f000000000000000000000000000000000000000000000000000000000000000091303384612687565b3390612606565b60018060a01b03905416906040519283527fe4b3cb24da49cbaa1989989a720518b9c8c12f4a6e0d848853745d9271104b0f60203394a460015f8051602061279c8339815191525580f35b8192509061150d9161222d565b6115195783855f61147b565b8480fd5b50604051903d90823e3d90fd5b5080fd5b805460ff191690555f611401565b905054155f6113fb565b50508a6113d9565b634e487b7160e01b88526011600452602488fd5b965083966113a2565b634e487b7160e01b8a52601160045260248afd5b634e487b7160e01b89526011600452602489fd5b60405162461bcd60e51b81526020600482015260136024820152724d617267696e4c6f616e3a206865616c74687960681b6044820152606490fd5b90505f611358565b905042115f611350565b634e487b7160e01b8b52601160045260248bfd5b634e487b7160e01b87526011600452602487fd5b60405162461bcd60e51b815260206004820152601c60248201527f4d617267696e4c6f616e3a2073656c662d6c69717569646174696f6e000000006044820152606490fd5b60405162461bcd60e51b81526020600482015260166024820152754d617267696e4c6f616e3a206e6f742061637469766560501b6044820152606490fd5b503461028d578060031936011261028d576116a46123c6565b60015460ff8160a01c16156116ec5760ff60a01b19166001556040513381527f5db9ee0a495bf2e6ff9c91a7834c1ba4fdd244a5e8aa4e537bd38aeae4b073aa90602090a180f35b638dfc202b60e01b8252600482fd5b346108045760603660031901126108045760243560443560043561171d612433565b61172561246b565b629896808110611c265781159283159384611c0b575b15611bc657611748612489565b8015611b8157611f408102818104611f4003611b6d5761271090048211611b285760405163d8102dd360e01b81523360048201527f00000000000000000000000000000000000000000000000000000000000000006001600160a01b031690602081602481855afa80156119ea5783915f91611af3575b5010611a9f576040516370a0823160e01b81523060048201527f000000000000000000000000000000000000000000000000000000000000000095906020816024816001600160a01b038b165afa80156119ea5785915f91611a68575b50600a546118299161224f565b10611a23576010549461183e8560095461227a565b600955600b549115611a1c57611854904261227a565b6040519061186182612211565b3382526020820190868252604083019386855260608401908152608084019042825260a0850192835260c085019560018752600160401b8b10156119f55760018b016010556118af8b61213a565b959095611a095760069660018060a01b039051166bffffffffffffffffffffffff60a01b875416178655516001860155516002850155516003840155516004830155516005820155019051151560ff80198354169116179055335f52601160205260405f208054600160401b8110156119f5576119319160018201815561216a565b81549060031b9086821b915f19901b1916179055803b156108045760405163a5bce37960e01b815233600482015260248101839052905f908290604490829084905af180156119ea576020956119909285926119da575b503390612606565b60405191825283820152817f470152498bfa361d914ac55abd1d091d24d873406587275b3e22dcc85cff352960403393a360015f8051602061279c83398151915255604051908152f35b5f6119e49161222d565b5f611988565b6040513d5f823e3d90fd5b634e487b7160e01b5f52604160045260245ffd5b634e487b7160e01b5f525f60045260245ffd5b505f611854565b60405162461bcd60e51b815260206004820152601d60248201527f4d617267696e4c6f616e3a20706f6f6c20696e73756666696369656e740000006044820152606490fd5b9150506020813d602011611a97575b81611a846020938361222d565b810103126108045751849061182961181c565b3d9150611a77565b60405162461bcd60e51b815260206004820152602660248201527f4d617267696e4c6f616e3a20696e73756666696369656e74207661756c742062604482015265616c616e636560d01b6064820152608490fd5b9150506020813d602011611b20575b81611b0f6020938361222d565b8101031261080457829051876117bf565b3d9150611b02565b60405162461bcd60e51b815260206004820152601b60248201527f4d617267696e4c6f616e3a2065786365656473206d6178204c545600000000006044820152606490fd5b634e487b7160e01b5f52601160045260245ffd5b60405162461bcd60e51b815260206004820152601b60248201527f4d617267696e4c6f616e3a207a65726f20636f6c6c61746572616c00000000006044820152606490fd5b60405162461bcd60e51b815260206004820152601860248201527f4d617267696e4c6f616e3a20626164206475726174696f6e00000000000000006044820152606490fd5b5062093a80831015801561173b57506276a70083111561173b565b60405162461bcd60e51b815260206004820152601960248201527f4d617267696e4c6f616e3a2062656c6f77206d696e696d756d000000000000006044820152606490fd5b34610804575f366003190112610804576020600e54604051908152f35b3461080457602036600319011261080457600435611ca4612433565b611cac61246b565b80611cb5612489565b5f1914611f58575b335f52600f6020528060405f205410611f13576040516370a0823160e01b8152306004820152907f00000000000000000000000000000000000000000000000000000000000000006001600160a01b038116602084602481845afa9384156119ea575f94611edf575b50611d34600a54809561224f565b600d549190828015611ed657610a4c611d4d928761217f565b945b8515611e91576020602492604051938480926370a0823160e01b82523060048301525afa80156119ea5786925f91611e58575b5090611d8d9161224f565b10611e0857611dc491611da184869361224f565b600d55335f52600f60205260405f20611dbb85825461224f565b90553390612606565b60405191825260208201527fadec52fcd1408589179b85e44b434374db078b4eaf793e7d1a1bb0ae4ecfeee560403392a260015f8051602061279c83398151915255005b60405162461bcd60e51b815260206004820152602260248201527f4d617267696e4c6f616e3a20696e73756666696369656e74206c697175696469604482015261747960f01b6064820152608490fd5b919250506020813d602011611e89575b81611e756020938361222d565b810103126108045751859190611d8d611d82565b3d9150611e68565b60405162461bcd60e51b815260206004820152601960248201527f4d617267696e4c6f616e3a207a65726f207769746864726177000000000000006044820152606490fd5b50505f94611d4f565b9093506020813d602011611f0b575b81611efb6020938361222d565b8101031261080457519284611d26565b3d9150611eee565b60405162461bcd60e51b815260206004820152601f60248201527f4d617267696e4c6f616e3a20696e73756666696369656e7420736861726573006044820152606490fd5b50335f52600f60205260405f2054611cbd565b34610804576080366003190112610804577fadaaa2efce877bfff43a77b45f527598c5527f29f8cc085ea3e27b4dd4c174bc6080600435606435604435602435611fb36123c6565b83600355806004558160055582600655604051938452602084015260408301526060820152a1005b34610804575f3660031901126108045760206040516127108152f35b34610804576020366003190112610804576020612015600435612192565b6040519015158152f35b346108045760203660031901126108045760043561203b6123c6565b610bb8811161204957600755005b60405162461bcd60e51b815260206004820152602360248201527f4d617267696e4c6f616e3a207265736572766520666163746f7220746f6f20686044820152620d2ced60eb1b6064820152608490fd5b34610804575f366003190112610804576020604051611f408152f35b34610804575f366003190112610804576020600654604051908152f35b34610804575f366003190112610804576020600d54604051908152f35b34610804576020366003190112610804576020906001600160a01b03612114612124565b165f52600f825260405f20548152f35b600435906001600160a01b038216820361080457565b6010548110156121565760105f52600760205f20910201905f90565b634e487b7160e01b5f52603260045260245ffd5b8054821015612156575f5260205f2001905f90565b81810292918115918404141715611b6d57565b61219b9061213a565b5060ff6006820154161561220c576121b2816123ec565b6127108102908082046127101490151715611b6d5760028201546121348102908082046121341490151715611b6d57600591119101548015159081612202575b5081156121fd575090565b905090565b905042115f6121f2565b505f90565b60e0810190811067ffffffffffffffff8211176119f557604052565b90601f8019910116810190811067ffffffffffffffff8211176119f557604052565b91908203918211611b6d57565b8115612266570490565b634e487b7160e01b5f52601260045260245ffd5b91908201809211611b6d57565b6122909061213a565b5060ff600682015416156122e7576122a7816123ec565b9081156122e0576002015490670de0b6b3a7640000820291808304670de0b6b3a76400001490151715611b6d576122dd9161225c565b90565b50505f1990565b505f1990565b6001600160a01b03165f908152600f6020526040902054801580156123bc575b61220c576040516370a0823160e01b81523060048201526020816024817f00000000000000000000000000000000000000000000000000000000000000006001600160a01b03165afa9081156119ea575f91612388575b506122dd9161237961237f92600a549061224f565b9061217f565b600d549061225c565b90506020813d6020116123b4575b816123a36020938361222d565b8101031261080457516122dd612364565b3d9150612396565b50600d541561230d565b5f546001600160a01b031633036123d957565b63118cdaa760e01b5f523360045260245ffd5b60ff600682015416158015612427575b6124205780600361241760016122dd940154600b549061217f565b9101549061225c565b6001015490565b506003810154156123fc565b60025f8051602061279c833981519152541461245c5760025f8051602061279c83398151915255565b633ee5aeb560e01b5f5260045ffd5b60ff60015460a01c1661247a57565b63d93c066560e01b5f5260045ffd5b612495600c544261224f565b801580156125fc575b6125f55742600c556040516370a0823160e01b8152306004820152906020826024817f00000000000000000000000000000000000000000000000000000000000000006001600160a01b03165afa9182156119ea575f926125c1575b5061255f61251161079a610795600a54809661224f565b91612553600954670de0b6b3a764000061252f846110f4888561217f565b049561254b876127106125446007548361217f565b049361227a565b60095561227a565b600a55600b549261217f565b670de0b6b3a7640000019182670de0b6b3a764000011611b6d57670de0b6b3a76400006125af7f3d8708181c6452c5711a2b4c6ed3f12149f6ea35f78549aba00a89d041e766ca9460409461217f565b0480600b5582519182526020820152a1565b9091506020813d6020116125ed575b816125dd6020938361222d565b810103126108045751905f6124fa565b3d91506125d0565b5042600c55565b506009541561249e565b916040519163a9059cbb60e01b5f5260018060a01b031660045260245260205f60448180865af19060015f5114821615612666575b604052156126465750565b635274afe760e01b5f9081526001600160a01b0391909116600452602490fd5b90600181151661267e57823b15153d1516169061263b565b503d5f823e3d90fd5b6040516323b872dd60e01b5f9081526001600160a01b039384166004529290931660245260449390935260209060648180865af19060015f51148216156126d8575b6040525f606052156126465750565b90600181151661267e57823b15153d151616906126c9565b6126fd600954809261227a565b801561272d57670de0b6b3a7640000820291808304670de0b6b3a76400001490151715611b6d576122dd9161225c565b50505f90565b6006548082111561277d57670de0b6b3a764000061276c61277361275a846122dd9661224f565b938361276c600354926004549061217f565b049061227a565b926005549061217f565b506122dd90670de0b6b3a764000061276c600354926004549061217f56fe9b779b17422d0df92223018b32b4d1fa46e071723d6817e2486d003becc55f00a264697066735822122032717ff7c7d7a41a6ade9057c861797113dcb12cba0c04f2a20d1cf8dffe699a64736f6c634300081a0033",
  "linkReferences": {},
  "deployedLinkReferences": {}
}