{
  "_format": "hh-sol-artifact-1",
  "contractName": "WikiBondingPOL",
  "sourceName": "src/WikiBondingPOL.sol",
  "abi": [
    {
      "inputs": [
        {
          "internalType": "address",
          "name": "_oracle",
          "type": "address"
        },
        {
          "internalType": "address",
          "name": "_wik",
          "type": "address"
        },
        {
          "internalType": "address",
          "name": "_treasury",
          "type": "address"
        },
        {
          "internalType": "address",
          "name": "_owner",
          "type": "address"
        }
      ],
      "stateMutability": "nonpayable",
      "type": "constructor"
    },
    {
      "inputs": [
        {
          "internalType": "address",
          "name": "owner",
          "type": "address"
        }
      ],
      "name": "OwnableInvalidOwner",
      "type": "error"
    },
    {
      "inputs": [
        {
          "internalType": "address",
          "name": "account",
          "type": "address"
        }
      ],
      "name": "OwnableUnauthorizedAccount",
      "type": "error"
    },
    {
      "inputs": [],
      "name": "ReentrancyGuardReentrantCall",
      "type": "error"
    },
    {
      "inputs": [
        {
          "internalType": "address",
          "name": "token",
          "type": "address"
        }
      ],
      "name": "SafeERC20FailedOperation",
      "type": "error"
    },
    {
      "anonymous": false,
      "inputs": [
        {
          "indexed": true,
          "internalType": "uint256",
          "name": "bondId",
          "type": "uint256"
        },
        {
          "indexed": false,
          "internalType": "address",
          "name": "user",
          "type": "address"
        },
        {
          "indexed": false,
          "internalType": "uint256",
          "name": "wikClaimed",
          "type": "uint256"
        }
      ],
      "name": "BondClaimed",
      "type": "event"
    },
    {
      "anonymous": false,
      "inputs": [
        {
          "indexed": true,
          "internalType": "uint256",
          "name": "bondId",
          "type": "uint256"
        },
        {
          "indexed": false,
          "internalType": "address",
          "name": "user",
          "type": "address"
        },
        {
          "indexed": false,
          "internalType": "uint256",
          "name": "lpAmount",
          "type": "uint256"
        },
        {
          "indexed": false,
          "internalType": "uint256",
          "name": "wikAmount",
          "type": "uint256"
        },
        {
          "indexed": false,
          "internalType": "uint256",
          "name": "discount",
          "type": "uint256"
        }
      ],
      "name": "BondPurchased",
      "type": "event"
    },
    {
      "anonymous": false,
      "inputs": [
        {
          "indexed": true,
          "internalType": "uint256",
          "name": "id",
          "type": "uint256"
        },
        {
          "indexed": false,
          "internalType": "address",
          "name": "lpToken",
          "type": "address"
        },
        {
          "indexed": false,
          "internalType": "uint256",
          "name": "discountBps",
          "type": "uint256"
        }
      ],
      "name": "BondTypeCreated",
      "type": "event"
    },
    {
      "anonymous": false,
      "inputs": [
        {
          "indexed": false,
          "internalType": "uint256",
          "name": "bondTypeId",
          "type": "uint256"
        },
        {
          "indexed": false,
          "internalType": "uint256",
          "name": "newDiscountBps",
          "type": "uint256"
        }
      ],
      "name": "DiscountUpdated",
      "type": "event"
    },
    {
      "anonymous": false,
      "inputs": [
        {
          "indexed": true,
          "internalType": "address",
          "name": "previousOwner",
          "type": "address"
        },
        {
          "indexed": true,
          "internalType": "address",
          "name": "newOwner",
          "type": "address"
        }
      ],
      "name": "OwnershipTransferStarted",
      "type": "event"
    },
    {
      "anonymous": false,
      "inputs": [
        {
          "indexed": true,
          "internalType": "address",
          "name": "previousOwner",
          "type": "address"
        },
        {
          "indexed": true,
          "internalType": "address",
          "name": "newOwner",
          "type": "address"
        }
      ],
      "name": "OwnershipTransferred",
      "type": "event"
    },
    {
      "inputs": [],
      "name": "BPS",
      "outputs": [
        {
          "internalType": "uint256",
          "name": "",
          "type": "uint256"
        }
      ],
      "stateMutability": "view",
      "type": "function"
    },
    {
      "inputs": [],
      "name": "DEFAULT_VESTING",
      "outputs": [
        {
          "internalType": "uint256",
          "name": "",
          "type": "uint256"
        }
      ],
      "stateMutability": "view",
      "type": "function"
    },
    {
      "inputs": [],
      "name": "LP_VALUE_PRECISION",
      "outputs": [
        {
          "internalType": "uint256",
          "name": "",
          "type": "uint256"
        }
      ],
      "stateMutability": "view",
      "type": "function"
    },
    {
      "inputs": [],
      "name": "MAX_DISCOUNT",
      "outputs": [
        {
          "internalType": "uint256",
          "name": "",
          "type": "uint256"
        }
      ],
      "stateMutability": "view",
      "type": "function"
    },
    {
      "inputs": [],
      "name": "MIN_DISCOUNT",
      "outputs": [
        {
          "internalType": "uint256",
          "name": "",
          "type": "uint256"
        }
      ],
      "stateMutability": "view",
      "type": "function"
    },
    {
      "inputs": [],
      "name": "acceptOwnership",
      "outputs": [],
      "stateMutability": "nonpayable",
      "type": "function"
    },
    {
      "inputs": [],
      "name": "bondCount",
      "outputs": [
        {
          "internalType": "uint256",
          "name": "",
          "type": "uint256"
        }
      ],
      "stateMutability": "view",
      "type": "function"
    },
    {
      "inputs": [],
      "name": "bondTypeCount",
      "outputs": [
        {
          "internalType": "uint256",
          "name": "",
          "type": "uint256"
        }
      ],
      "stateMutability": "view",
      "type": "function"
    },
    {
      "inputs": [
        {
          "internalType": "uint256",
          "name": "",
          "type": "uint256"
        }
      ],
      "name": "bondTypes",
      "outputs": [
        {
          "internalType": "address",
          "name": "lpToken",
          "type": "address"
        },
        {
          "internalType": "bytes32",
          "name": "oracleId",
          "type": "bytes32"
        },
        {
          "internalType": "uint256",
          "name": "discountBps",
          "type": "uint256"
        },
        {
          "internalType": "uint256",
          "name": "maxBondPerDay",
          "type": "uint256"
        },
        {
          "internalType": "uint256",
          "name": "vestingDays",
          "type": "uint256"
        },
        {
          "internalType": "bool",
          "name": "active",
          "type": "bool"
        }
      ],
      "stateMutability": "view",
      "type": "function"
    },
    {
      "inputs": [
        {
          "internalType": "uint256",
          "name": "bondId",
          "type": "uint256"
        }
      ],
      "name": "claimVested",
      "outputs": [
        {
          "internalType": "uint256",
          "name": "claimable",
          "type": "uint256"
        }
      ],
      "stateMutability": "nonpayable",
      "type": "function"
    },
    {
      "inputs": [
        {
          "internalType": "uint256",
          "name": "bondId",
          "type": "uint256"
        }
      ],
      "name": "claimableAmount",
      "outputs": [
        {
          "internalType": "uint256",
          "name": "",
          "type": "uint256"
        }
      ],
      "stateMutability": "view",
      "type": "function"
    },
    {
      "inputs": [
        {
          "internalType": "address",
          "name": "lpToken",
          "type": "address"
        },
        {
          "internalType": "bytes32",
          "name": "oracleId",
          "type": "bytes32"
        },
        {
          "internalType": "uint256",
          "name": "discountBps",
          "type": "uint256"
        },
        {
          "internalType": "uint256",
          "name": "maxBondPerDay",
          "type": "uint256"
        },
        {
          "internalType": "uint256",
          "name": "vestingDays",
          "type": "uint256"
        }
      ],
      "name": "createBondType",
      "outputs": [
        {
          "internalType": "uint256",
          "name": "id",
          "type": "uint256"
        }
      ],
      "stateMutability": "nonpayable",
      "type": "function"
    },
    {
      "inputs": [
        {
          "internalType": "uint256",
          "name": "",
          "type": "uint256"
        },
        {
          "internalType": "uint256",
          "name": "",
          "type": "uint256"
        }
      ],
      "name": "dailyBondVolume",
      "outputs": [
        {
          "internalType": "uint256",
          "name": "",
          "type": "uint256"
        }
      ],
      "stateMutability": "view",
      "type": "function"
    },
    {
      "inputs": [],
      "name": "getTotalPOLValue",
      "outputs": [
        {
          "internalType": "uint256",
          "name": "",
          "type": "uint256"
        }
      ],
      "stateMutability": "view",
      "type": "function"
    },
    {
      "inputs": [
        {
          "internalType": "address",
          "name": "user",
          "type": "address"
        }
      ],
      "name": "getUserBonds",
      "outputs": [
        {
          "internalType": "uint256[]",
          "name": "",
          "type": "uint256[]"
        }
      ],
      "stateMutability": "view",
      "type": "function"
    },
    {
      "inputs": [],
      "name": "oracle",
      "outputs": [
        {
          "internalType": "contract IWikiOracle",
          "name": "",
          "type": "address"
        }
      ],
      "stateMutability": "view",
      "type": "function"
    },
    {
      "inputs": [],
      "name": "owner",
      "outputs": [
        {
          "internalType": "address",
          "name": "",
          "type": "address"
        }
      ],
      "stateMutability": "view",
      "type": "function"
    },
    {
      "inputs": [],
      "name": "pendingOwner",
      "outputs": [
        {
          "internalType": "address",
          "name": "",
          "type": "address"
        }
      ],
      "stateMutability": "view",
      "type": "function"
    },
    {
      "inputs": [
        {
          "internalType": "uint256",
          "name": "bondTypeId",
          "type": "uint256"
        },
        {
          "internalType": "uint256",
          "name": "lpAmount",
          "type": "uint256"
        },
        {
          "internalType": "uint256",
          "name": "lpValueUSDC",
          "type": "uint256"
        }
      ],
      "name": "purchaseBond",
      "outputs": [
        {
          "internalType": "uint256",
          "name": "bondId",
          "type": "uint256"
        }
      ],
      "stateMutability": "nonpayable",
      "type": "function"
    },
    {
      "inputs": [],
      "name": "renounceOwnership",
      "outputs": [],
      "stateMutability": "nonpayable",
      "type": "function"
    },
    {
      "inputs": [
        {
          "internalType": "uint256",
          "name": "bondTypeId",
          "type": "uint256"
        },
        {
          "internalType": "uint256",
          "name": "newDiscountBps",
          "type": "uint256"
        }
      ],
      "name": "setDiscount",
      "outputs": [],
      "stateMutability": "nonpayable",
      "type": "function"
    },
    {
      "inputs": [],
      "name": "totalDiscountGiven",
      "outputs": [
        {
          "internalType": "uint256",
          "name": "",
          "type": "uint256"
        }
      ],
      "stateMutability": "view",
      "type": "function"
    },
    {
      "inputs": [],
      "name": "totalLPOwned",
      "outputs": [
        {
          "internalType": "uint256",
          "name": "",
          "type": "uint256"
        }
      ],
      "stateMutability": "view",
      "type": "function"
    },
    {
      "inputs": [],
      "name": "totalWIKIssuedAsBonds",
      "outputs": [
        {
          "internalType": "uint256",
          "name": "",
          "type": "uint256"
        }
      ],
      "stateMutability": "view",
      "type": "function"
    },
    {
      "inputs": [
        {
          "internalType": "address",
          "name": "newOwner",
          "type": "address"
        }
      ],
      "name": "transferOwnership",
      "outputs": [],
      "stateMutability": "nonpayable",
      "type": "function"
    },
    {
      "inputs": [],
      "name": "treasury",
      "outputs": [
        {
          "internalType": "address",
          "name": "",
          "type": "address"
        }
      ],
      "stateMutability": "view",
      "type": "function"
    },
    {
      "inputs": [
        {
          "internalType": "address",
          "name": "",
          "type": "address"
        },
        {
          "internalType": "uint256",
          "name": "",
          "type": "uint256"
        }
      ],
      "name": "userBondIds",
      "outputs": [
        {
          "internalType": "uint256",
          "name": "",
          "type": "uint256"
        }
      ],
      "stateMutability": "view",
      "type": "function"
    },
    {
      "inputs": [
        {
          "internalType": "uint256",
          "name": "",
          "type": "uint256"
        }
      ],
      "name": "userBonds",
      "outputs": [
        {
          "internalType": "uint256",
          "name": "bondTypeId",
          "type": "uint256"
        },
        {
          "internalType": "uint256",
          "name": "lpDeposited",
          "type": "uint256"
        },
        {
          "internalType": "uint256",
          "name": "wikTotal",
          "type": "uint256"
        },
        {
          "internalType": "uint256",
          "name": "wikClaimed",
          "type": "uint256"
        },
        {
          "internalType": "uint256",
          "name": "startTime",
          "type": "uint256"
        },
        {
          "internalType": "uint256",
          "name": "vestingEnd",
          "type": "uint256"
        },
        {
          "internalType": "bool",
          "name": "fullyVested",
          "type": "bool"
        }
      ],
      "stateMutability": "view",
      "type": "function"
    },
    {
      "inputs": [],
      "name": "wik",
      "outputs": [
        {
          "internalType": "contract IWIK",
          "name": "",
          "type": "address"
        }
      ],
      "stateMutability": "view",
      "type": "function"
    }
  ],
  "bytecode": "0x60803461022857601f61147938819003918201601f19168301916001600160401b0383118484101761022c578084926080946040528339810103126102285761004781610240565b9061005460208201610240565b61006060408301610240565b916001600160a01b039061007690606001610240565b1692831561021557600180546001600160a01b03199081169091555f80549182168617815560405195916001600160a01b0316907f8be0079c531659141344cd1fd0a4f28419497f9722a3daafe3b4186f6b6457e09080a360017f9b779b17422d0df92223018b32b4d1fa46e071723d6817e2486d003becc55f00556001600160a01b03169283156101de57506001600160a01b03169081156101a7576001600160a01b03169182156101625760018060a01b0319600654161760065560018060a01b0319600754161760075560018060a01b0319600854161760085560405161122490816102558239f35b60405162461bcd60e51b815260206004820152601460248201527f57696b693a207a65726f205f74726561737572790000000000000000000000006044820152606490fd5b60405162461bcd60e51b815260206004820152600f60248201526e57696b693a207a65726f205f77696b60881b6044820152606490fd5b62461bcd60e51b815260206004820152601260248201527157696b693a207a65726f205f6f7261636c6560701b6044820152606490fd5b631e4fbdf760e01b5f525f60045260245ffd5b5f80fd5b634e487b7160e01b5f52604160045260245ffd5b51906001600160a01b03821682036102285756fe6080806040526004361015610012575f80fd5b5f905f3560e01c9081630174e8d714610f93575080630d96003214610e0157806310b809e914610da9578063204fd3b414610b8f578063249d39e914610b725780632ac8a92c14610b5657806358c10d0414610ae75780635d6feca614610ac957806361d027b314610aa05780636cfe0ad114610a79578063715018a614610a14578063728ba2c41461074f57806379ba50971461098f5780637dc0d1d0146109665780638da5cb5b1461093f5780638edd4d241461092157806397c7b5511461086c578063b9334a1b146107f4578063c0d7ea5f146107d6578063c4b297cc146107b8578063ca7ee2201461079a578063cb2a6cb81461076d578063d13abbc21461074f578063e007fa97146102ac578063e30c397814610283578063e349556914610266578063e76f6df2146101f5578063f2fde38b146101885763fb67f9821461015d575f80fd5b346101855780600319360112610185576007546040516001600160a01b039091168152602090f35b80fd5b5034610185576020366003190112610185576101a2610fae565b6101aa611170565b600180546001600160a01b0319166001600160a01b0392831690811790915582549091167f38d16b8cac22d99fc7c124b9cd0de2d3fa1faef420bfe791d8c362d765e227008380a380f35b503461018557602036600319011261018557604060e09160043581526003602052208054906001810154906002810154600382015460048301549160ff600660058601549501541694604051968752602087015260408601526060850152608084015260a0830152151560c0820152f35b503461018557806003193601126101855760206040516105dc8152f35b50346101855780600319360112610185576001546040516001600160a01b039091168152602090f35b503461018557606036600319011261018557602435906044356004356102d0611196565b8083526002602052604083209260ff600585015416156107195784156106e4576201518042048282526005602052604082208183526020526103168460408420546110bd565b60038601541061069f5784546040516323b872dd60e01b8452336004523060245260448890526001600160a01b039091169060208460648180865af190600185511482161561067e575b604052836060521561066c57508282526005602052604082209082526020526040812061038e8482546110bd565b905561039c83600b546110bd565b600b5560018060a01b0360065416916040600186015460248251809681936331d98b3f60e01b835260048301525afa928315610661578293610629575b5082156105ef57600285019283546127100361271081116105db57610401612710918361105d565b04670de0b6b3a7640000860295808704670de0b6b3a764000014901517156105db5761043d61045a92610437610443938961109f565b9761109f565b86611092565b61044f86600c546110bd565b600c55600d546110bd565b600d5561047a600461046d600a5461104f565b9687600a550154426110bd565b6040519160e0830183811067ffffffffffffffff8211176105c757916006916105149493604052835260208301908982526040840188815260608501878152608086019142835260a0870193845260c08701948986528c8a52600360205260408a209751885551600188015551600287015551600386015551600485015551600584015551151591019060ff801983541691151516179055565b338152600460205260408120805491680100000000000000008310156105b357509484937f80011bda9effa4f3a58820ca8e5f6579f0a2b5097a83547fc465feae7eac0f639361056e846020996001608097018155610fc4565b81549060031b9088821b915f19901b19161790555490604051923384528884015260408301526060820152a260015f805160206111cf83398151915255604051908152f35b634e487b7160e01b81526041600452602490fd5b634e487b7160e01b85526041600452602485fd5b634e487b7160e01b84526011600452602484fd5b60405162461bcd60e51b81526020600482015260126024820152712137b7321d1037b930b1b6329032b93937b960711b6044820152606490fd5b9092506040813d604011610659575b8161064560409383611070565b810103126106555751915f6103d9565b5080fd5b3d9150610638565b6040513d84823e3d90fd5b635274afe760e01b8352600452602482fd5b90600181151661069657823b15153d15161690610360565b503d84823e3d90fd5b60405162461bcd60e51b815260206004820152601a60248201527f426f6e643a206461696c79206c696d69742065786365656465640000000000006044820152606490fd5b60405162461bcd60e51b815260206004820152600d60248201526c0426f6e643a207a65726f204c5609c1b6044820152606490fd5b60405162461bcd60e51b815260206004820152600e60248201526d426f6e643a20696e61637469766560901b6044820152606490fd5b50346101855780600319360112610185576020600b54604051908152f35b503461018557604060209161078136610fed565b9082526005845282822090825283522054604051908152f35b50346101855780600319360112610185576020600d54604051908152f35b50346101855780600319360112610185576020604051620f42408152f35b50346101855780600319360112610185576020600954604051908152f35b5034610185577f086a11cd51db98c76f2168d6b06f3c4401c9b5dc1709d847735822b423c5d147604061082636610fed565b61082e611170565b60c881101580610860575b61084290611003565b8185526002602052806002848720015582519182526020820152a180f35b506105dc811115610839565b5034610185576020366003190112610185576001600160a01b0361088e610fae565b168152600460205260408120604051908160208254918281520190819285526020852090855b81811061090b57505050826108ca910383611070565b604051928392602084019060208552518091526040840192915b8181106108f2575050500390f35b82518452859450602093840193909201916001016108e4565b82548452602090930192600192830192016108b4565b50346101855780600319360112610185576020600a54604051908152f35b5034610185578060031936011261018557546040516001600160a01b039091168152602090f35b50346101855780600319360112610185576006546040516001600160a01b039091168152602090f35b5034610185578060031936011261018557600154336001600160a01b0390911603610a0157600180546001600160a01b0319908116909155815433918116821783556001600160a01b03167f8be0079c531659141344cd1fd0a4f28419497f9722a3daafe3b4186f6b6457e08380a380f35b63118cdaa760e01b815233600452602490fd5b5034610185578060031936011261018557610a2d611170565b600180546001600160a01b03199081169091558154908116825581906001600160a01b03167f8be0079c531659141344cd1fd0a4f28419497f9722a3daafe3b4186f6b6457e08280a380f35b5034610185576020366003190112610185576020610a986004356110ca565b604051908152f35b50346101855780600319360112610185576008546040516001600160a01b039091168152602090f35b50346101855780600319360112610185576020600c54604051908152f35b503461018557602036600319011261018557604060c091600435815260026020522060018060a01b0381541690600181015490600281015460038201549060ff6005600485015494015416936040519586526020860152604085015260608401526080830152151560a0820152f35b5034610185578060031936011261018557602060405160c88152f35b503461018557806003193601126101855760206040516127108152f35b34610ce5576020366003190112610ce557600435610bab611196565b805f52600360205260405f2060068101805460ff8116610d6e57610bd3600484015442611092565b83545f90815260026020526040902060040154808210610d375750506127105b6003612710610c076002870154938461105d565b049401610c1681548096611092565b948515610cf95785610c27916110bd565b8091551015610ce9575b50506007546001600160a01b031691823b15610ce5576040516340c10f1960e01b815233600482015260248101839052925f908490604490829084905af1928315610cda57602093610cca575b5060408051338152602081018490527f1f8fc880633617d30d8a0ccf0e892d93909581963a8f6e05e0d573c551e0ddab9190a260015f805160206111cf83398151915255604051908152f35b5f610cd491611070565b5f610c7e565b6040513d5f823e3d90fd5b5f80fd5b60ff191660011790558280610c31565b60405162461bcd60e51b8152602060048201526016602482015275426f6e643a206e6f7468696e6720746f20636c61696d60501b6044820152606490fd5b6127108202918083046127101490151715610d5a57610d559161109f565b610bf3565b634e487b7160e01b5f52601160045260245ffd5b60405162461bcd60e51b8152602060048201526013602482015272109bdb990e88199d5b1b1e4818db185a5b5959606a1b6044820152606490fd5b34610ce5576040366003190112610ce557610dc2610fae565b6001600160a01b03165f90815260046020526040902080546024359190821015610ce557602091610df291610fc4565b90549060031b1c604051908152f35b34610ce55760a0366003190112610ce557610e1a610fae565b608435604435610e28611170565b60c881101580610f87575b610e3c90611003565b610e4760095461104f565b600981905591801580610f7b5762015180820291820462015180141715610d5a57925b6040519160c083019183831067ffffffffffffffff841117610f6757610f44859460056020987f5c7901db018ebc8959597d4908d8cc364c7de732c4a7076fd0438eaeab6e465b9660405260018060a01b038516835289830190602435825260408401878152606085019060643582526080860192835260a0860193600185528b5f5260028e5260405f209660018060a01b039051166bffffffffffffffffffffffff60a01b88541617875551600187015551600286015551600385015551600484015551151591019060ff801983541691151516179055565b604080516001600160a01b039290921682526020820192909252a2604051908152f35b634e487b7160e01b5f52604160045260245ffd5b50506206978092610e6a565b506105dc811115610e33565b34610ce5575f366003190112610ce557806206978060209252f35b600435906001600160a01b0382168203610ce557565b8054821015610fd9575f5260205f2001905f90565b634e487b7160e01b5f52603260045260245ffd5b6040906003190112610ce5576004359060243590565b1561100a57565b60405162461bcd60e51b815260206004820152601b60248201527f426f6e643a20646973636f756e74206f7574206f662072616e676500000000006044820152606490fd5b5f198114610d5a5760010190565b81810292918115918404141715610d5a57565b90601f8019910116810190811067ffffffffffffffff821117610f6757604052565b91908203918211610d5a57565b81156110a9570490565b634e487b7160e01b5f52601260045260245ffd5b91908201809211610d5a57565b5f52600360205260405f2060ff60068201541661116b576110ef600482015442611092565b81545f908152600260205260409020600401549081811061113f5750506003612710611120815b600285015461105d565b049101548082115f146111395761113691611092565b90565b50505f90565b6127108102908082046127101490151715610d5a576111206111666003936127109361109f565b611116565b505f90565b5f546001600160a01b0316330361118357565b63118cdaa760e01b5f523360045260245ffd5b60025f805160206111cf83398151915254146111bf5760025f805160206111cf83398151915255565b633ee5aeb560e01b5f5260045ffdfe9b779b17422d0df92223018b32b4d1fa46e071723d6817e2486d003becc55f00a264697066735822122078f3e57a8f2fa41e478a771e2119c1f8376447ec3d7449adf6cce53d68a2067a64736f6c634300081a0033",
  "linkReferences": {},
  "deployedLinkReferences": {}
}