{
  "_format": "hh-sol-artifact-1",
  "contractName": "WikiBackstopVault",
  "sourceName": "src/WikiBackstopVault.sol",
  "abi": [
    {
      "inputs": [
        {
          "internalType": "address",
          "name": "_owner",
          "type": "address"
        },
        {
          "internalType": "address",
          "name": "_usdc",
          "type": "address"
        },
        {
          "internalType": "address",
          "name": "_feeRecipient",
          "type": "address"
        }
      ],
      "stateMutability": "nonpayable",
      "type": "constructor"
    },
    {
      "inputs": [
        {
          "internalType": "address",
          "name": "spender",
          "type": "address"
        },
        {
          "internalType": "uint256",
          "name": "allowance",
          "type": "uint256"
        },
        {
          "internalType": "uint256",
          "name": "needed",
          "type": "uint256"
        }
      ],
      "name": "ERC20InsufficientAllowance",
      "type": "error"
    },
    {
      "inputs": [
        {
          "internalType": "address",
          "name": "sender",
          "type": "address"
        },
        {
          "internalType": "uint256",
          "name": "balance",
          "type": "uint256"
        },
        {
          "internalType": "uint256",
          "name": "needed",
          "type": "uint256"
        }
      ],
      "name": "ERC20InsufficientBalance",
      "type": "error"
    },
    {
      "inputs": [
        {
          "internalType": "address",
          "name": "approver",
          "type": "address"
        }
      ],
      "name": "ERC20InvalidApprover",
      "type": "error"
    },
    {
      "inputs": [
        {
          "internalType": "address",
          "name": "receiver",
          "type": "address"
        }
      ],
      "name": "ERC20InvalidReceiver",
      "type": "error"
    },
    {
      "inputs": [
        {
          "internalType": "address",
          "name": "sender",
          "type": "address"
        }
      ],
      "name": "ERC20InvalidSender",
      "type": "error"
    },
    {
      "inputs": [
        {
          "internalType": "address",
          "name": "spender",
          "type": "address"
        }
      ],
      "name": "ERC20InvalidSpender",
      "type": "error"
    },
    {
      "inputs": [],
      "name": "EnforcedPause",
      "type": "error"
    },
    {
      "inputs": [],
      "name": "ExpectedPause",
      "type": "error"
    },
    {
      "inputs": [
        {
          "internalType": "address",
          "name": "owner",
          "type": "address"
        }
      ],
      "name": "OwnableInvalidOwner",
      "type": "error"
    },
    {
      "inputs": [
        {
          "internalType": "address",
          "name": "account",
          "type": "address"
        }
      ],
      "name": "OwnableUnauthorizedAccount",
      "type": "error"
    },
    {
      "inputs": [],
      "name": "ReentrancyGuardReentrantCall",
      "type": "error"
    },
    {
      "inputs": [
        {
          "internalType": "address",
          "name": "token",
          "type": "address"
        }
      ],
      "name": "SafeERC20FailedOperation",
      "type": "error"
    },
    {
      "anonymous": false,
      "inputs": [
        {
          "indexed": true,
          "internalType": "address",
          "name": "owner",
          "type": "address"
        },
        {
          "indexed": true,
          "internalType": "address",
          "name": "spender",
          "type": "address"
        },
        {
          "indexed": false,
          "internalType": "uint256",
          "name": "value",
          "type": "uint256"
        }
      ],
      "name": "Approval",
      "type": "event"
    },
    {
      "anonymous": false,
      "inputs": [
        {
          "indexed": true,
          "internalType": "address",
          "name": "lp",
          "type": "address"
        },
        {
          "indexed": false,
          "internalType": "uint256",
          "name": "usdc",
          "type": "uint256"
        },
        {
          "indexed": false,
          "internalType": "uint256",
          "name": "shares",
          "type": "uint256"
        },
        {
          "indexed": false,
          "internalType": "uint256",
          "name": "navPerShare",
          "type": "uint256"
        }
      ],
      "name": "Deposited",
      "type": "event"
    },
    {
      "anonymous": false,
      "inputs": [
        {
          "indexed": false,
          "internalType": "uint256",
          "name": "shortfall",
          "type": "uint256"
        },
        {
          "indexed": false,
          "internalType": "uint256",
          "name": "covered",
          "type": "uint256"
        },
        {
          "indexed": false,
          "internalType": "uint256",
          "name": "newNAV",
          "type": "uint256"
        }
      ],
      "name": "LossCovered",
      "type": "event"
    },
    {
      "anonymous": false,
      "inputs": [
        {
          "indexed": false,
          "internalType": "uint256",
          "name": "nav",
          "type": "uint256"
        }
      ],
      "name": "NavUpdated",
      "type": "event"
    },
    {
      "anonymous": false,
      "inputs": [
        {
          "indexed": true,
          "internalType": "address",
          "name": "previousOwner",
          "type": "address"
        },
        {
          "indexed": true,
          "internalType": "address",
          "name": "newOwner",
          "type": "address"
        }
      ],
      "name": "OwnershipTransferStarted",
      "type": "event"
    },
    {
      "anonymous": false,
      "inputs": [
        {
          "indexed": true,
          "internalType": "address",
          "name": "previousOwner",
          "type": "address"
        },
        {
          "indexed": true,
          "internalType": "address",
          "name": "newOwner",
          "type": "address"
        }
      ],
      "name": "OwnershipTransferred",
      "type": "event"
    },
    {
      "anonymous": false,
      "inputs": [
        {
          "indexed": false,
          "internalType": "address",
          "name": "account",
          "type": "address"
        }
      ],
      "name": "Paused",
      "type": "event"
    },
    {
      "anonymous": false,
      "inputs": [
        {
          "indexed": true,
          "internalType": "address",
          "name": "from",
          "type": "address"
        },
        {
          "indexed": true,
          "internalType": "address",
          "name": "to",
          "type": "address"
        },
        {
          "indexed": false,
          "internalType": "uint256",
          "name": "value",
          "type": "uint256"
        }
      ],
      "name": "Transfer",
      "type": "event"
    },
    {
      "anonymous": false,
      "inputs": [
        {
          "indexed": false,
          "internalType": "address",
          "name": "account",
          "type": "address"
        }
      ],
      "name": "Unpaused",
      "type": "event"
    },
    {
      "anonymous": false,
      "inputs": [
        {
          "indexed": true,
          "internalType": "address",
          "name": "lp",
          "type": "address"
        },
        {
          "indexed": false,
          "internalType": "uint256",
          "name": "shares",
          "type": "uint256"
        },
        {
          "indexed": false,
          "internalType": "uint256",
          "name": "unlockTime",
          "type": "uint256"
        }
      ],
      "name": "UnstakeRequested",
      "type": "event"
    },
    {
      "anonymous": false,
      "inputs": [
        {
          "indexed": true,
          "internalType": "address",
          "name": "lp",
          "type": "address"
        },
        {
          "indexed": false,
          "internalType": "uint256",
          "name": "usdc",
          "type": "uint256"
        },
        {
          "indexed": false,
          "internalType": "uint256",
          "name": "shares",
          "type": "uint256"
        },
        {
          "indexed": false,
          "internalType": "uint256",
          "name": "navPerShare",
          "type": "uint256"
        }
      ],
      "name": "Withdrawn",
      "type": "event"
    },
    {
      "anonymous": false,
      "inputs": [
        {
          "indexed": true,
          "internalType": "address",
          "name": "source",
          "type": "address"
        },
        {
          "indexed": false,
          "internalType": "uint256",
          "name": "amount",
          "type": "uint256"
        }
      ],
      "name": "YieldReceived",
      "type": "event"
    },
    {
      "inputs": [],
      "name": "BPS",
      "outputs": [
        {
          "internalType": "uint256",
          "name": "",
          "type": "uint256"
        }
      ],
      "stateMutability": "view",
      "type": "function"
    },
    {
      "inputs": [],
      "name": "MAX_COVER_BPS",
      "outputs": [
        {
          "internalType": "uint256",
          "name": "",
          "type": "uint256"
        }
      ],
      "stateMutability": "view",
      "type": "function"
    },
    {
      "inputs": [],
      "name": "MGMT_FEE_BPS",
      "outputs": [
        {
          "internalType": "uint256",
          "name": "",
          "type": "uint256"
        }
      ],
      "stateMutability": "view",
      "type": "function"
    },
    {
      "inputs": [],
      "name": "MIN_DEPOSIT",
      "outputs": [
        {
          "internalType": "uint256",
          "name": "",
          "type": "uint256"
        }
      ],
      "stateMutability": "view",
      "type": "function"
    },
    {
      "inputs": [],
      "name": "PERF_FEE_BPS",
      "outputs": [
        {
          "internalType": "uint256",
          "name": "",
          "type": "uint256"
        }
      ],
      "stateMutability": "view",
      "type": "function"
    },
    {
      "inputs": [],
      "name": "PRECISION",
      "outputs": [
        {
          "internalType": "uint256",
          "name": "",
          "type": "uint256"
        }
      ],
      "stateMutability": "view",
      "type": "function"
    },
    {
      "inputs": [],
      "name": "UNSTAKE_DELAY",
      "outputs": [
        {
          "internalType": "uint256",
          "name": "",
          "type": "uint256"
        }
      ],
      "stateMutability": "view",
      "type": "function"
    },
    {
      "inputs": [],
      "name": "USDC",
      "outputs": [
        {
          "internalType": "contract IERC20",
          "name": "",
          "type": "address"
        }
      ],
      "stateMutability": "view",
      "type": "function"
    },
    {
      "inputs": [],
      "name": "acceptOwnership",
      "outputs": [],
      "stateMutability": "nonpayable",
      "type": "function"
    },
    {
      "inputs": [],
      "name": "adlContract",
      "outputs": [
        {
          "internalType": "address",
          "name": "",
          "type": "address"
        }
      ],
      "stateMutability": "view",
      "type": "function"
    },
    {
      "inputs": [
        {
          "internalType": "address",
          "name": "owner",
          "type": "address"
        },
        {
          "internalType": "address",
          "name": "spender",
          "type": "address"
        }
      ],
      "name": "allowance",
      "outputs": [
        {
          "internalType": "uint256",
          "name": "",
          "type": "uint256"
        }
      ],
      "stateMutability": "view",
      "type": "function"
    },
    {
      "inputs": [
        {
          "internalType": "address",
          "name": "spender",
          "type": "address"
        },
        {
          "internalType": "uint256",
          "name": "value",
          "type": "uint256"
        }
      ],
      "name": "approve",
      "outputs": [
        {
          "internalType": "bool",
          "name": "",
          "type": "bool"
        }
      ],
      "stateMutability": "nonpayable",
      "type": "function"
    },
    {
      "inputs": [],
      "name": "availableCover",
      "outputs": [
        {
          "internalType": "uint256",
          "name": "",
          "type": "uint256"
        }
      ],
      "stateMutability": "view",
      "type": "function"
    },
    {
      "inputs": [
        {
          "internalType": "address",
          "name": "account",
          "type": "address"
        }
      ],
      "name": "balanceOf",
      "outputs": [
        {
          "internalType": "uint256",
          "name": "",
          "type": "uint256"
        }
      ],
      "stateMutability": "view",
      "type": "function"
    },
    {
      "inputs": [
        {
          "internalType": "uint256",
          "name": "requestId",
          "type": "uint256"
        }
      ],
      "name": "completeUnstake",
      "outputs": [],
      "stateMutability": "nonpayable",
      "type": "function"
    },
    {
      "inputs": [
        {
          "internalType": "uint256",
          "name": "shortfall",
          "type": "uint256"
        }
      ],
      "name": "cover",
      "outputs": [
        {
          "internalType": "uint256",
          "name": "covered",
          "type": "uint256"
        }
      ],
      "stateMutability": "nonpayable",
      "type": "function"
    },
    {
      "inputs": [],
      "name": "decimals",
      "outputs": [
        {
          "internalType": "uint8",
          "name": "",
          "type": "uint8"
        }
      ],
      "stateMutability": "view",
      "type": "function"
    },
    {
      "inputs": [
        {
          "internalType": "uint256",
          "name": "amount",
          "type": "uint256"
        },
        {
          "internalType": "uint256",
          "name": "minShares",
          "type": "uint256"
        }
      ],
      "name": "deposit",
      "outputs": [],
      "stateMutability": "nonpayable",
      "type": "function"
    },
    {
      "inputs": [],
      "name": "feeRecipient",
      "outputs": [
        {
          "internalType": "address",
          "name": "",
          "type": "address"
        }
      ],
      "stateMutability": "view",
      "type": "function"
    },
    {
      "inputs": [
        {
          "internalType": "address",
          "name": "",
          "type": "address"
        }
      ],
      "name": "feeSources",
      "outputs": [
        {
          "internalType": "bool",
          "name": "",
          "type": "bool"
        }
      ],
      "stateMutability": "view",
      "type": "function"
    },
    {
      "inputs": [
        {
          "internalType": "uint256",
          "name": "id",
          "type": "uint256"
        }
      ],
      "name": "getUnstakeRequest",
      "outputs": [
        {
          "components": [
            {
              "internalType": "address",
              "name": "lp",
              "type": "address"
            },
            {
              "internalType": "uint256",
              "name": "shares",
              "type": "uint256"
            },
            {
              "internalType": "uint256",
              "name": "requestedAt",
              "type": "uint256"
            },
            {
              "internalType": "bool",
              "name": "completed",
              "type": "bool"
            }
          ],
          "internalType": "struct WikiBackstopVault.UnstakeRequest",
          "name": "",
          "type": "tuple"
        }
      ],
      "stateMutability": "view",
      "type": "function"
    },
    {
      "inputs": [],
      "name": "highWaterMark",
      "outputs": [
        {
          "internalType": "uint256",
          "name": "",
          "type": "uint256"
        }
      ],
      "stateMutability": "view",
      "type": "function"
    },
    {
      "inputs": [],
      "name": "lastFeeTime",
      "outputs": [
        {
          "internalType": "uint256",
          "name": "",
          "type": "uint256"
        }
      ],
      "stateMutability": "view",
      "type": "function"
    },
    {
      "inputs": [],
      "name": "name",
      "outputs": [
        {
          "internalType": "string",
          "name": "",
          "type": "string"
        }
      ],
      "stateMutability": "view",
      "type": "function"
    },
    {
      "inputs": [],
      "name": "navPerShare",
      "outputs": [
        {
          "internalType": "uint256",
          "name": "",
          "type": "uint256"
        }
      ],
      "stateMutability": "view",
      "type": "function"
    },
    {
      "inputs": [],
      "name": "owner",
      "outputs": [
        {
          "internalType": "address",
          "name": "",
          "type": "address"
        }
      ],
      "stateMutability": "view",
      "type": "function"
    },
    {
      "inputs": [],
      "name": "pause",
      "outputs": [],
      "stateMutability": "nonpayable",
      "type": "function"
    },
    {
      "inputs": [],
      "name": "paused",
      "outputs": [
        {
          "internalType": "bool",
          "name": "",
          "type": "bool"
        }
      ],
      "stateMutability": "view",
      "type": "function"
    },
    {
      "inputs": [],
      "name": "pendingOwner",
      "outputs": [
        {
          "internalType": "address",
          "name": "",
          "type": "address"
        }
      ],
      "stateMutability": "view",
      "type": "function"
    },
    {
      "inputs": [
        {
          "internalType": "uint256",
          "name": "amount",
          "type": "uint256"
        }
      ],
      "name": "receiveYield",
      "outputs": [],
      "stateMutability": "nonpayable",
      "type": "function"
    },
    {
      "inputs": [],
      "name": "renounceOwnership",
      "outputs": [],
      "stateMutability": "nonpayable",
      "type": "function"
    },
    {
      "inputs": [
        {
          "internalType": "uint256",
          "name": "shares",
          "type": "uint256"
        }
      ],
      "name": "requestUnstake",
      "outputs": [],
      "stateMutability": "nonpayable",
      "type": "function"
    },
    {
      "inputs": [
        {
          "internalType": "address",
          "name": "_adl",
          "type": "address"
        }
      ],
      "name": "setAdlContract",
      "outputs": [],
      "stateMutability": "nonpayable",
      "type": "function"
    },
    {
      "inputs": [
        {
          "internalType": "address",
          "name": "_fr",
          "type": "address"
        }
      ],
      "name": "setFeeRecipient",
      "outputs": [],
      "stateMutability": "nonpayable",
      "type": "function"
    },
    {
      "inputs": [
        {
          "internalType": "address",
          "name": "src",
          "type": "address"
        },
        {
          "internalType": "bool",
          "name": "ok",
          "type": "bool"
        }
      ],
      "name": "setFeeSource",
      "outputs": [],
      "stateMutability": "nonpayable",
      "type": "function"
    },
    {
      "inputs": [
        {
          "internalType": "address",
          "name": "_tl",
          "type": "address"
        }
      ],
      "name": "setTimelock",
      "outputs": [],
      "stateMutability": "nonpayable",
      "type": "function"
    },
    {
      "inputs": [],
      "name": "stats",
      "outputs": [
        {
          "internalType": "uint256",
          "name": "tvl",
          "type": "uint256"
        },
        {
          "internalType": "uint256",
          "name": "nav",
          "type": "uint256"
        },
        {
          "internalType": "uint256",
          "name": "supply",
          "type": "uint256"
        },
        {
          "internalType": "uint256",
          "name": "yieldEarned",
          "type": "uint256"
        },
        {
          "internalType": "uint256",
          "name": "lossAbsorbed",
          "type": "uint256"
        },
        {
          "internalType": "uint256",
          "name": "estimatedApy",
          "type": "uint256"
        }
      ],
      "stateMutability": "view",
      "type": "function"
    },
    {
      "inputs": [],
      "name": "symbol",
      "outputs": [
        {
          "internalType": "string",
          "name": "",
          "type": "string"
        }
      ],
      "stateMutability": "view",
      "type": "function"
    },
    {
      "inputs": [],
      "name": "timelock",
      "outputs": [
        {
          "internalType": "address",
          "name": "",
          "type": "address"
        }
      ],
      "stateMutability": "view",
      "type": "function"
    },
    {
      "inputs": [],
      "name": "totalLossAbsorbed",
      "outputs": [
        {
          "internalType": "uint256",
          "name": "",
          "type": "uint256"
        }
      ],
      "stateMutability": "view",
      "type": "function"
    },
    {
      "inputs": [],
      "name": "totalSupply",
      "outputs": [
        {
          "internalType": "uint256",
          "name": "",
          "type": "uint256"
        }
      ],
      "stateMutability": "view",
      "type": "function"
    },
    {
      "inputs": [],
      "name": "totalUSDC",
      "outputs": [
        {
          "internalType": "uint256",
          "name": "",
          "type": "uint256"
        }
      ],
      "stateMutability": "view",
      "type": "function"
    },
    {
      "inputs": [],
      "name": "totalYieldEarned",
      "outputs": [
        {
          "internalType": "uint256",
          "name": "",
          "type": "uint256"
        }
      ],
      "stateMutability": "view",
      "type": "function"
    },
    {
      "inputs": [
        {
          "internalType": "address",
          "name": "to",
          "type": "address"
        },
        {
          "internalType": "uint256",
          "name": "value",
          "type": "uint256"
        }
      ],
      "name": "transfer",
      "outputs": [
        {
          "internalType": "bool",
          "name": "",
          "type": "bool"
        }
      ],
      "stateMutability": "nonpayable",
      "type": "function"
    },
    {
      "inputs": [
        {
          "internalType": "address",
          "name": "from",
          "type": "address"
        },
        {
          "internalType": "address",
          "name": "to",
          "type": "address"
        },
        {
          "internalType": "uint256",
          "name": "value",
          "type": "uint256"
        }
      ],
      "name": "transferFrom",
      "outputs": [
        {
          "internalType": "bool",
          "name": "",
          "type": "bool"
        }
      ],
      "stateMutability": "nonpayable",
      "type": "function"
    },
    {
      "inputs": [
        {
          "internalType": "address",
          "name": "newOwner",
          "type": "address"
        }
      ],
      "name": "transferOwnership",
      "outputs": [],
      "stateMutability": "nonpayable",
      "type": "function"
    },
    {
      "inputs": [],
      "name": "unpause",
      "outputs": [],
      "stateMutability": "nonpayable",
      "type": "function"
    },
    {
      "inputs": [
        {
          "internalType": "uint256",
          "name": "",
          "type": "uint256"
        }
      ],
      "name": "unstakeRequests",
      "outputs": [
        {
          "internalType": "address",
          "name": "lp",
          "type": "address"
        },
        {
          "internalType": "uint256",
          "name": "shares",
          "type": "uint256"
        },
        {
          "internalType": "uint256",
          "name": "requestedAt",
          "type": "uint256"
        },
        {
          "internalType": "bool",
          "name": "completed",
          "type": "bool"
        }
      ],
      "stateMutability": "view",
      "type": "function"
    },
    {
      "inputs": [
        {
          "internalType": "address",
          "name": "lp",
          "type": "address"
        }
      ],
      "name": "unstakeRequestsFor",
      "outputs": [
        {
          "internalType": "uint256[]",
          "name": "",
          "type": "uint256[]"
        }
      ],
      "stateMutability": "view",
      "type": "function"
    },
    {
      "inputs": [
        {
          "internalType": "address",
          "name": "",
          "type": "address"
        },
        {
          "internalType": "uint256",
          "name": "",
          "type": "uint256"
        }
      ],
      "name": "userUnstakes",
      "outputs": [
        {
          "internalType": "uint256",
          "name": "",
          "type": "uint256"
        }
      ],
      "stateMutability": "view",
      "type": "function"
    }
  ],
  "bytecode": "0x60a0604052346104ed576123f76060813803918261001c816104f1565b9384928339810103126104ed5761003281610516565b9061004b604061004460208401610516565b9201610516565b61005560406104f1565b92601284527157696b69204261636b73746f70205553444360701b602085015261007f60406104f1565b600681526562735553444360d01b6020820152845190946001600160401b0382116103f05760035490600182811c921680156104e3575b60208310146103d25781601f849311610475575b50602090601f831160011461040f575f92610404575b50508160011b915f199060031b1c1916176003555b83516001600160401b0381116103f057600454600181811c911680156103e6575b60208210146103d257601f811161036f575b50602094601f821160011461030c579481929394955f92610301575b50508160011b915f199060031b1c1916176004555b6001600160a01b03169182156102ee57600680546001600160a01b0319908116909155600580549182168517905560405193906001600160a01b03167f8be0079c531659141344cd1fd0a4f28419497f9722a3daafe3b4186f6b6457e05f80a360017f9b779b17422d0df92223018b32b4d1fa46e071723d6817e2486d003becc55f00556001600160a01b03169182156102ac57506001600160a01b031690811561026757608052600980546001600160a01b03191691909117905542600d55670de0b6b3a7640000600e55604051611ecc908161052b823960805181818161052101528181610ad401528181610d9a0152818161111c015281816111f401528181611ab50152611e400152f35b60405162461bcd60e51b815260206004820152601c60248201527f4261636b73746f703a207a65726f2066656520726563697069656e74000000006044820152606490fd5b62461bcd60e51b815260206004820152601360248201527f4261636b73746f703a207a65726f2075736463000000000000000000000000006044820152606490fd5b631e4fbdf760e01b5f525f60045260245ffd5b015190505f80610144565b601f1982169560045f52805f20915f5b8881106103575750836001959697981061033f575b505050811b01600455610159565b01515f1960f88460031b161c191690555f8080610331565b9192602060018192868501518155019401920161031c565b60045f527f8a35acfbc15ff81a39ae7d344fd709f28e8600b4aa8c65c6b64bfe7fe36bd19b601f830160051c810191602084106103c8575b601f0160051c01905b8181106103bd5750610128565b5f81556001016103b0565b90915081906103a7565b634e487b7160e01b5f52602260045260245ffd5b90607f1690610116565b634e487b7160e01b5f52604160045260245ffd5b015190505f806100e0565b60035f9081528281209350601f198516905b81811061045d5750908460019594939210610445575b505050811b016003556100f5565b01515f1960f88460031b161c191690555f8080610437565b92936020600181928786015181550195019301610421565b60035f529091507fc2575a0e9e593c00f959f8c92f12db2869c3395a3b0502d05e2516446f71f85b601f840160051c810191602085106104d9575b90601f859493920160051c01905b8181106104cb57506100ca565b5f81558493506001016104be565b90915081906104b0565b91607f16916100b6565b5f80fd5b6040519190601f01601f191682016001600160401b038111838210176103f057604052565b51906001600160a01b03821682036104ed5756fe6080806040526004361015610012575f80fd5b5f3560e01c90816306fdde031461183957508063095ea7b3146117b757806314a1362b1461177857806318160ddd1461175b5780631dec15151461173e5780631e8410da14611721578063230957211461150d57806323b872dd1461142e578063249d39e914611412578063313ce567146113f75780633f4ba83a146113895780634690484014611361578063552b54ec14610fd15780635c975abb14610fac57806366b5ae1f14610f8f5780636b27d24814610f6757806370a0823114610f30578063715018a614610ecb57806379ba509714610e455780638456cb5914610de457806384868c1714610dc957806389a3027114610d855780638da5cb5b14610d5d57806395d89b4114610c59578063a855575214610c1c578063a8cb4d2214610a8e578063a9059cbb14610a5d578063aaf5eb6814610a3b578063ae09722314610a19578063b132e7bf146109fd578063bdacb303146109ba578063cc0096791461099d578063ce7120b51461095a578063cf3c99621461093e578063d33219b414610916578063d51f5588146108f9578063d7bee6ec14610845578063d80528ae146107b9578063dd62ed3e14610769578063ddb59e13146106cb578063e1e158a5146106ad578063e2bbb1581461049f578063e30c397814610477578063e35e5d841461045a578063e74b981b1461040e578063e99ae4e7146103c3578063f2fde38b14610357578063f76380a4146102ff578063f87975af1461029d5763fa60a38214610242575f80fd5b346102995760403660031901126102995761025b61191b565b60243580151581036102995761029791610273611d52565b60018060a01b03165f52601160205260405f209060ff801983541691151516179055565b005b5f80fd5b3461029957602036600319011261029957600435600f54811015610299576102c6608091611970565b5060018060a01b038154169060018101549060ff6003600283015492015416916040519384526020840152604083015215156060820152f35b346102995760403660031901126102995761031861191b565b6001600160a01b03165f908152601060205260409020805460243591908210156102995760209161034891611947565b90549060031b1c604051908152f35b346102995760203660031901126102995761037061191b565b610378611d52565b600680546001600160a01b0319166001600160a01b039283169081179091556005549091167f38d16b8cac22d99fc7c124b9cd0de2d3fa1faef420bfe791d8c362d765e227005f80a3005b34610299575f36600319011261029957600a546103e88102908082046103e814901517156103fa5760209061271060405191048152f35b634e487b7160e01b5f52601160045260245ffd5b346102995760203660031901126102995761042761191b565b61042f611d52565b6001600160a01b03168015610299576bffffffffffffffffffffffff60a01b60095416176009555f80f35b34610299575f36600319011261029957602060405162093a808152f35b34610299575f366003190112610299576006546040516001600160a01b039091168152602090f35b34610299576040366003190112610299576004356104bb611be4565b6104c3611c9d565b6305f5e1008110610672576104d6611dcf565b6104de611ba2565b801561064657670de0b6b3a76400008202828104670de0b6b3a764000014831517156103fa578161050e916119dd565b905b602435821061060c576105458330337f0000000000000000000000000000000000000000000000000000000000000000611d66565b61055183600a54611a08565b600a5533156105f957816105887f91ede45f04a37a7c170f5c1207df3b6bc748dc1e04ad5e917a241d0f52feada393600254611a08565b600255335f525f60205260405f208181540190556040518181525f7fddf252ad1be2c89b69c2b068fc378daa952ba7f163c4a11628f55a4df523b3ef60203393a3604080519485526020850191909152830152339180606081015b0390a260015f80516020611e7783398151915255005b63ec442f0560e01b5f525f60045260245ffd5b60405162461bcd60e51b81526020600482015260126024820152714261636b73746f703a20736c69707061676560701b6044820152606490fd5b670de0b6b3a76400008202828104670de0b6b3a764000014831517156103fa57620f4240900490610510565b60405162461bcd60e51b81526020600482015260136024820152722130b1b5b9ba37b81d103132b637bb9036b4b760691b6044820152606490fd5b34610299575f3660031901126102995760206040516305f5e1008152f35b34610299576020366003190112610299575f60606040516106eb8161198c565b82815282602082015282604082015201526080610709600435611970565b506040516107168161198c565b60018060a01b0382541691828252600181015460208301908152606060ff600360028501549460408701958652015416930192151583526040519384525160208401525160408301525115156060820152f35b346102995760403660031901126102995761078261191b565b61078a611931565b6001600160a01b039182165f908152600160209081526040808320949093168252928352819020549051908152f35b34610299575f36600319011261029957600a546107d4611ba2565b9060025491600c54600b5490620f424083115f1461083b57620f423f198301948386116103fa5761271086029580870461271014901517156103fa57620f424060c09604935b604051958652602086015260408501526060840152608083015260a0820152f35b60c0945f9361081a565b34610299576020366003190112610299576001600160a01b0361086661191b565b165f52601060205260405f20604051806020835491828152019081935f5260205f20905f5b8181106108e357505050816108a19103826119a8565b604051918291602083019060208452518091526040830191905f5b8181106108ca575050500390f35b82518452859450602093840193909201916001016108bc565b825484526020909301926001928301920161088b565b34610299575f366003190112610299576020600b54604051908152f35b34610299575f366003190112610299576007546040516001600160a01b039091168152602090f35b34610299575f3660031901126102995760206040516103e88152f35b346102995760203660031901126102995761097361191b565b61097b611d52565b600880546001600160a01b0319166001600160a01b0392909216919091179055005b34610299575f366003190112610299576020600c54604051908152f35b34610299576020366003190112610299576109d361191b565b6109db611d52565b600780546001600160a01b0319166001600160a01b0392909216919091179055005b34610299575f3660031901126102995760206040516107d08152f35b34610299575f366003190112610299576020610a33611ba2565b604051908152f35b34610299575f366003190112610299576020604051670de0b6b3a76400008152f35b3461029957604036600319011261029957610a83610a7961191b565b6024359033611cbb565b602060405160018152f35b3461029957602036600319011261029957600435610aaa611be4565b335f52601160205260ff60405f2054168015610c08575b15610bc3578015610b8757610af88130337f0000000000000000000000000000000000000000000000000000000000000000611d66565b610b0481600a54611a08565b600a55610b1381600c54611a08565b600c556040519081527fd7e13d2bdc4cebc65a50449460dbc3bddeba211f92b8a75fb2c04e32eadc702560203392a27f982b6e7cd3d3e82b3475c5978950c101b7a51b8b682ff81906dde028919b78726020610b6d611ba2565b604051908152a160015f80516020611e7783398151915255005b60405162461bcd60e51b8152602060048201526014602482015273109858dadcdd1bdc0e881e995c9bc81e5a595b1960621b6044820152606490fd5b60405162461bcd60e51b815260206004820152601860248201527f4261636b73746f703a206e6f742066656520736f7572636500000000000000006044820152606490fd5b506005546001600160a01b03163314610ac1565b34610299576020366003190112610299576001600160a01b03610c3d61191b565b165f526011602052602060ff60405f2054166040519015158152f35b34610299575f366003190112610299576040515f6004548060011c90600181168015610d53575b602083108114610d3f57828552908115610d1b5750600114610cbd575b610cb983610cad818503826119a8565b604051918291826118f1565b0390f35b91905060045f527f8a35acfbc15ff81a39ae7d344fd709f28e8600b4aa8c65c6b64bfe7fe36bd19b915f905b808210610d0157509091508101602001610cad610c9d565b919260018160209254838588010152019101909291610ce9565b60ff191660208086019190915291151560051b84019091019150610cad9050610c9d565b634e487b7160e01b5f52602260045260245ffd5b91607f1691610c80565b34610299575f366003190112610299576005546040516001600160a01b039091168152602090f35b34610299575f366003190112610299576040517f00000000000000000000000000000000000000000000000000000000000000006001600160a01b03168152602090f35b34610299575f36600319011261029957602060405160648152f35b34610299575f36600319011261029957610dfc611d52565b610e04611c9d565b6006805460ff60a01b1916600160a01b1790556040513381527f62e78cea01bee320cd4e420270b5ea74000d11b0c9f74754ebdbfc544b05a25890602090a1005b34610299575f36600319011261029957600654336001600160a01b0390911603610eb857600680546001600160a01b0319908116909155600580543392811683179091556001600160a01b03167f8be0079c531659141344cd1fd0a4f28419497f9722a3daafe3b4186f6b6457e05f80a3005b63118cdaa760e01b5f523360045260245ffd5b34610299575f36600319011261029957610ee3611d52565b600680546001600160a01b03199081169091556005805491821690555f906001600160a01b03167f8be0079c531659141344cd1fd0a4f28419497f9722a3daafe3b4186f6b6457e08280a3005b34610299576020366003190112610299576001600160a01b03610f5161191b565b165f525f602052602060405f2054604051908152f35b34610299575f366003190112610299576008546040516001600160a01b039091168152602090f35b34610299575f366003190112610299576020600d54604051908152f35b34610299575f36600319011261029957602060ff60065460a01c166040519015158152f35b3461029957602036600319011261029957610fea611be4565b610ff2611c9d565b610ffd600435611970565b5080546001600160a01b0316330361131c57600381019081549060ff82166112d757600281015462093a8081018091116103fa574210611299576001611041611ba2565b910192670de0b6b3a76400006110588386546119ca565b0492600a5484116112555760019060ff191617905561107982600a546119fb565b600a558254301561124257305f525f60205260405f20548181106112295790805f923084528360205203604083205580600254036002556040519081527fddf252ad1be2c89b69c2b068fc378daa952ba7f163c4a11628f55a4df523b3ef60203092a3600e54808211611168575b507f75e161b3e824b114fc1a33274bd7091918dd4e639cede50b78b15a4eea956a219192600e54821161115f575b61114084337f0000000000000000000000000000000000000000000000000000000000000000611c1c565b54604080519485526020850191909152830152339180606081016105e3565b81600e55611115565b61118561117e670de0b6b3a764000092846119fb565b85546119ca565b046107d08102908082046107d014901517156103fa5761271090049283151580611220575b6111b5575b926110e7565b6112186111e3857f75e161b3e824b114fc1a33274bd7091918dd4e639cede50b78b15a4eea956a21956119fb565b6009549095906001600160a01b03167f0000000000000000000000000000000000000000000000000000000000000000611c1c565b8392506111af565b508284106111aa565b63391434e360e21b5f523060045260245260445260645ffd5b634b637e8f60e11b5f525f60045260245ffd5b606460405162461bcd60e51b815260206004820152602060248201527f4261636b73746f703a20696e73756666696369656e74206c69717569646974796044820152fd5b60405162461bcd60e51b8152602060048201526016602482015275109858dadcdd1bdc0e881cdd1a5b1b081b1bd8dad95960521b6044820152606490fd5b60405162461bcd60e51b815260206004820152601b60248201527f4261636b73746f703a20616c726561647920636f6d706c6574656400000000006044820152606490fd5b60405162461bcd60e51b815260206004820152601a60248201527f4261636b73746f703a206e6f7420796f757220726571756573740000000000006044820152606490fd5b34610299575f366003190112610299576009546040516001600160a01b039091168152602090f35b34610299575f366003190112610299576113a1611d52565b60065460ff8160a01c16156113e85760ff60a01b19166006556040513381527f5db9ee0a495bf2e6ff9c91a7834c1ba4fdd244a5e8aa4e537bd38aeae4b073aa90602090a1005b638dfc202b60e01b5f5260045ffd5b34610299575f36600319011261029957602060405160128152f35b34610299575f3660031901126102995760206040516127108152f35b346102995760603660031901126102995761144761191b565b61144f611931565b6001600160a01b0382165f818152600160209081526040808320338452909152902054909260443592915f19811061148d575b50610a839350611cbb565b8381106114f25784156114df5733156114cc57610a83945f52600160205260405f2060018060a01b0333165f526020528360405f209103905584611482565b634a1406b160e11b5f525f60045260245ffd5b63e602df0560e01b5f525f60045260245ffd5b8390637dc7a0d960e11b5f523360045260245260445260645ffd5b3461029957602036600319011261029957600435611529611be4565b611531611c9d565b335f525f6020528060405f2054106116dc57801561169f57611554813033611cbb565b600f546040516115638161198c565b33815260208101908382526040810190428252606081015f8152600160401b8510156116785760018501600f5561159985611970565b93909361168c576115e99460039360018060a01b039051166bffffffffffffffffffffffff60a01b86541617855551600185015551600284015551151591019060ff801983541691151516179055565b335f52601060205260405f208054600160401b8110156116785761161291600182018155611947565b819291549060031b91821b915f19901b191617905562093a8042018042116103fa5760405191825260208201527f57e41df54512c76148b5ba9b643d149752b0d35e493b969bd017d0a3fe5228cf60403392a260015f80516020611e7783398151915255005b634e487b7160e01b5f52604160045260245ffd5b634e487b7160e01b5f525f60045260245ffd5b60405162461bcd60e51b81526020600482015260156024820152744261636b73746f703a207a65726f2073686172657360581b6044820152606490fd5b60405162461bcd60e51b815260206004820152601d60248201527f4261636b73746f703a20696e73756666696369656e74207368617265730000006044820152606490fd5b34610299575f366003190112610299576020600e54604051908152f35b34610299575f366003190112610299576020600a54604051908152f35b34610299575f366003190112610299576020600254604051908152f35b3461029957602036600319011261029957611791611be4565b602061179e600435611a15565b60015f80516020611e7783398151915255604051908152f35b34610299576040366003190112610299576117d061191b565b6024359033156114df576001600160a01b03169081156114cc57335f52600160205260405f20825f526020528060405f20556040519081527f8c5be1e5ebec7d5bd14f71427d1e84f3dd0314c0f7b2291e5b200ac8c7c3b92560203392a3602060405160018152f35b34610299575f366003190112610299575f6003548060011c906001811680156118e7575b602083108114610d3f57828552908115610d1b575060011461188957610cb983610cad818503826119a8565b91905060035f527fc2575a0e9e593c00f959f8c92f12db2869c3395a3b0502d05e2516446f71f85b915f905b8082106118cd57509091508101602001610cad610c9d565b9192600181602092548385880101520191019092916118b5565b91607f169161185d565b602060409281835280519182918282860152018484015e5f828201840152601f01601f1916010190565b600435906001600160a01b038216820361029957565b602435906001600160a01b038216820361029957565b805482101561195c575f5260205f2001905f90565b634e487b7160e01b5f52603260045260245ffd5b600f5481101561195c57600f5f5260205f209060021b01905f90565b6080810190811067ffffffffffffffff82111761167857604052565b90601f8019910116810190811067ffffffffffffffff82111761167857604052565b818102929181159184041417156103fa57565b81156119e7570490565b634e487b7160e01b5f52601260045260245ffd5b919082039182116103fa57565b919082018092116103fa57565b9060018060a01b0360085416803314908115611b99575b5015611b60578115611b1b57600a54916103e883028381046103e814841517156103fa57612710900480821015611b15575080925b808411611b0d575b8315611b06577f9a5af5bd228c99c5d20e293a46dfae2491cd1e5b36f033026c7353f96000366891611a9c8580936119fb565b600a55611aab82600b54611a08565b600b55611ad982337f0000000000000000000000000000000000000000000000000000000000000000611c1c565b611b01611ae4611ba2565b604051938493846040919493926060820195825260208201520152565b0390a1565b505f925050565b925082611a69565b92611a61565b60405162461bcd60e51b815260206004820152601860248201527f4261636b73746f703a207a65726f2073686f727466616c6c00000000000000006044820152606490fd5b60405162461bcd60e51b8152602060048201526011602482015270109858dadcdd1bdc0e881b9bdd08105113607a1b6044820152606490fd5b9050155f611a2c565b6002548015611bdc57600a5490670de0b6b3a7640000820291808304670de0b6b3a764000014901517156103fa57611bd9916119dd565b90565b50620f424090565b60025f80516020611e778339815191525414611c0d5760025f80516020611e7783398151915255565b633ee5aeb560e01b5f5260045ffd5b916040519163a9059cbb60e01b5f5260018060a01b031660045260245260205f60448180865af19060015f5114821615611c7c575b60405215611c5c5750565b635274afe760e01b5f9081526001600160a01b0391909116600452602490fd5b906001811516611c9457823b15153d15161690611c51565b503d5f823e3d90fd5b60ff60065460a01c16611cac57565b63d93c066560e01b5f5260045ffd5b6001600160a01b0316908115611242576001600160a01b03169182156105f957815f525f60205260405f2054818110611d3957817fddf252ad1be2c89b69c2b068fc378daa952ba7f163c4a11628f55a4df523b3ef92602092855f525f84520360405f2055845f525f825260405f20818154019055604051908152a3565b8263391434e360e21b5f5260045260245260445260645ffd5b6005546001600160a01b03163303610eb857565b6040516323b872dd60e01b5f9081526001600160a01b039384166004529290931660245260449390935260209060648180865af19060015f5114821615611db7575b6040525f60605215611c5c5750565b906001811516611c9457823b15153d15161690611da8565b600a548015611e7357611de4600d54426119fb565b8015611e6f5760648202908282046064036103fa57611e0b612710916301e13380936119ca565b040442600d5580151580611e66575b611e22575050565b611e2f81611e64936119fb565b600a556009546001600160a01b03167f0000000000000000000000000000000000000000000000000000000000000000611c1c565b565b50818110611e1a565b5050565b5056fe9b779b17422d0df92223018b32b4d1fa46e071723d6817e2486d003becc55f00a26469706673582212206e95a07357e7a4504539a0b5d14c2b59c13b710bbffad47ca4232ca4818eaae964736f6c634300081a0033",
  "linkReferences": {},
  "deployedLinkReferences": {}
}