{
  "_format": "hh-sol-artifact-1",
  "contractName": "WikiOrderBook",
  "sourceName": "src/WikiOrderBook.sol",
  "abi": [
    {
      "inputs": [
        {
          "internalType": "address",
          "name": "owner",
          "type": "address"
        }
      ],
      "stateMutability": "nonpayable",
      "type": "constructor"
    },
    {
      "inputs": [
        {
          "internalType": "address",
          "name": "owner",
          "type": "address"
        }
      ],
      "name": "OwnableInvalidOwner",
      "type": "error"
    },
    {
      "inputs": [
        {
          "internalType": "address",
          "name": "account",
          "type": "address"
        }
      ],
      "name": "OwnableUnauthorizedAccount",
      "type": "error"
    },
    {
      "inputs": [],
      "name": "ReentrancyGuardReentrantCall",
      "type": "error"
    },
    {
      "inputs": [
        {
          "internalType": "address",
          "name": "token",
          "type": "address"
        }
      ],
      "name": "SafeERC20FailedOperation",
      "type": "error"
    },
    {
      "anonymous": false,
      "inputs": [
        {
          "indexed": true,
          "internalType": "uint256",
          "name": "pairId",
          "type": "uint256"
        },
        {
          "indexed": true,
          "internalType": "address",
          "name": "to",
          "type": "address"
        },
        {
          "indexed": false,
          "internalType": "uint256",
          "name": "amount",
          "type": "uint256"
        }
      ],
      "name": "FeesWithdrawn",
      "type": "event"
    },
    {
      "anonymous": false,
      "inputs": [
        {
          "indexed": true,
          "internalType": "uint256",
          "name": "orderId",
          "type": "uint256"
        },
        {
          "indexed": true,
          "internalType": "address",
          "name": "maker",
          "type": "address"
        },
        {
          "indexed": false,
          "internalType": "uint256",
          "name": "baseRemaining",
          "type": "uint256"
        }
      ],
      "name": "OrderCancelled",
      "type": "event"
    },
    {
      "anonymous": false,
      "inputs": [
        {
          "indexed": true,
          "internalType": "uint256",
          "name": "makerOrderId",
          "type": "uint256"
        },
        {
          "indexed": true,
          "internalType": "uint256",
          "name": "takerOrderId",
          "type": "uint256"
        },
        {
          "indexed": true,
          "internalType": "address",
          "name": "taker",
          "type": "address"
        },
        {
          "indexed": false,
          "internalType": "uint256",
          "name": "baseAmount",
          "type": "uint256"
        },
        {
          "indexed": false,
          "internalType": "uint256",
          "name": "quoteAmount",
          "type": "uint256"
        },
        {
          "indexed": false,
          "internalType": "uint256",
          "name": "takerFee",
          "type": "uint256"
        }
      ],
      "name": "OrderFilled",
      "type": "event"
    },
    {
      "anonymous": false,
      "inputs": [
        {
          "indexed": true,
          "internalType": "uint256",
          "name": "orderId",
          "type": "uint256"
        },
        {
          "indexed": true,
          "internalType": "uint256",
          "name": "pairId",
          "type": "uint256"
        },
        {
          "indexed": true,
          "internalType": "address",
          "name": "maker",
          "type": "address"
        },
        {
          "indexed": false,
          "internalType": "bool",
          "name": "isBid",
          "type": "bool"
        },
        {
          "indexed": false,
          "internalType": "uint256",
          "name": "price",
          "type": "uint256"
        },
        {
          "indexed": false,
          "internalType": "uint256",
          "name": "baseAmount",
          "type": "uint256"
        }
      ],
      "name": "OrderPlaced",
      "type": "event"
    },
    {
      "anonymous": false,
      "inputs": [
        {
          "indexed": true,
          "internalType": "address",
          "name": "previousOwner",
          "type": "address"
        },
        {
          "indexed": true,
          "internalType": "address",
          "name": "newOwner",
          "type": "address"
        }
      ],
      "name": "OwnershipTransferStarted",
      "type": "event"
    },
    {
      "anonymous": false,
      "inputs": [
        {
          "indexed": true,
          "internalType": "address",
          "name": "previousOwner",
          "type": "address"
        },
        {
          "indexed": true,
          "internalType": "address",
          "name": "newOwner",
          "type": "address"
        }
      ],
      "name": "OwnershipTransferred",
      "type": "event"
    },
    {
      "anonymous": false,
      "inputs": [
        {
          "indexed": true,
          "internalType": "uint256",
          "name": "pairId",
          "type": "uint256"
        },
        {
          "indexed": false,
          "internalType": "address",
          "name": "base",
          "type": "address"
        },
        {
          "indexed": false,
          "internalType": "address",
          "name": "quote",
          "type": "address"
        }
      ],
      "name": "PairCreated",
      "type": "event"
    },
    {
      "anonymous": false,
      "inputs": [
        {
          "indexed": true,
          "internalType": "address",
          "name": "trader",
          "type": "address"
        },
        {
          "indexed": true,
          "internalType": "uint256",
          "name": "orderId",
          "type": "uint256"
        },
        {
          "indexed": false,
          "internalType": "bytes32",
          "name": "pairId",
          "type": "bytes32"
        },
        {
          "indexed": false,
          "internalType": "bool",
          "name": "isBuy",
          "type": "bool"
        },
        {
          "indexed": false,
          "internalType": "uint256",
          "name": "price",
          "type": "uint256"
        },
        {
          "indexed": false,
          "internalType": "uint256",
          "name": "trailBps",
          "type": "uint256"
        },
        {
          "indexed": false,
          "internalType": "uint256",
          "name": "triggerPrice",
          "type": "uint256"
        }
      ],
      "name": "TrailingStopPlaced",
      "type": "event"
    },
    {
      "anonymous": false,
      "inputs": [
        {
          "indexed": true,
          "internalType": "uint256",
          "name": "orderId",
          "type": "uint256"
        },
        {
          "indexed": true,
          "internalType": "address",
          "name": "trader",
          "type": "address"
        },
        {
          "indexed": false,
          "internalType": "bytes32",
          "name": "pairId",
          "type": "bytes32"
        },
        {
          "indexed": false,
          "internalType": "uint256",
          "name": "executionPrice",
          "type": "uint256"
        },
        {
          "indexed": false,
          "internalType": "uint256",
          "name": "size",
          "type": "uint256"
        }
      ],
      "name": "TrailingStopTriggered",
      "type": "event"
    },
    {
      "anonymous": false,
      "inputs": [
        {
          "indexed": true,
          "internalType": "uint256",
          "name": "orderId",
          "type": "uint256"
        },
        {
          "indexed": false,
          "internalType": "uint256",
          "name": "newHighWater",
          "type": "uint256"
        },
        {
          "indexed": false,
          "internalType": "uint256",
          "name": "newTrigger",
          "type": "uint256"
        }
      ],
      "name": "TrailingStopUpdated",
      "type": "event"
    },
    {
      "inputs": [],
      "name": "BPS",
      "outputs": [
        {
          "internalType": "uint256",
          "name": "",
          "type": "uint256"
        }
      ],
      "stateMutability": "view",
      "type": "function"
    },
    {
      "inputs": [],
      "name": "MAX_MAKER_FEE",
      "outputs": [
        {
          "internalType": "uint256",
          "name": "",
          "type": "uint256"
        }
      ],
      "stateMutability": "view",
      "type": "function"
    },
    {
      "inputs": [],
      "name": "MAX_TAKER_FEE",
      "outputs": [
        {
          "internalType": "uint256",
          "name": "",
          "type": "uint256"
        }
      ],
      "stateMutability": "view",
      "type": "function"
    },
    {
      "inputs": [],
      "name": "PROTOCOL_SHARE",
      "outputs": [
        {
          "internalType": "uint256",
          "name": "",
          "type": "uint256"
        }
      ],
      "stateMutability": "view",
      "type": "function"
    },
    {
      "inputs": [],
      "name": "acceptOwnership",
      "outputs": [],
      "stateMutability": "nonpayable",
      "type": "function"
    },
    {
      "inputs": [
        {
          "internalType": "uint256",
          "name": "",
          "type": "uint256"
        },
        {
          "internalType": "bool",
          "name": "",
          "type": "bool"
        }
      ],
      "name": "bestPrice",
      "outputs": [
        {
          "internalType": "uint256",
          "name": "",
          "type": "uint256"
        }
      ],
      "stateMutability": "view",
      "type": "function"
    },
    {
      "inputs": [
        {
          "internalType": "uint256",
          "name": "orderId",
          "type": "uint256"
        }
      ],
      "name": "cancelOrder",
      "outputs": [],
      "stateMutability": "nonpayable",
      "type": "function"
    },
    {
      "inputs": [
        {
          "internalType": "address",
          "name": "baseToken",
          "type": "address"
        },
        {
          "internalType": "address",
          "name": "quoteToken",
          "type": "address"
        },
        {
          "internalType": "uint256",
          "name": "takerFeeBps",
          "type": "uint256"
        },
        {
          "internalType": "int256",
          "name": "makerRebateBps",
          "type": "int256"
        },
        {
          "internalType": "uint256",
          "name": "minOrderSize",
          "type": "uint256"
        },
        {
          "internalType": "uint256",
          "name": "pricePrecision",
          "type": "uint256"
        }
      ],
      "name": "createPair",
      "outputs": [
        {
          "internalType": "uint256",
          "name": "pairId",
          "type": "uint256"
        }
      ],
      "stateMutability": "nonpayable",
      "type": "function"
    },
    {
      "inputs": [
        {
          "internalType": "uint256",
          "name": "pairId",
          "type": "uint256"
        }
      ],
      "name": "getMidPrice",
      "outputs": [
        {
          "internalType": "uint256",
          "name": "mid",
          "type": "uint256"
        }
      ],
      "stateMutability": "view",
      "type": "function"
    },
    {
      "inputs": [
        {
          "internalType": "uint256",
          "name": "orderId",
          "type": "uint256"
        }
      ],
      "name": "getOrder",
      "outputs": [
        {
          "components": [
            {
              "internalType": "uint256",
              "name": "pairId",
              "type": "uint256"
            },
            {
              "internalType": "address",
              "name": "maker",
              "type": "address"
            },
            {
              "internalType": "bool",
              "name": "isBid",
              "type": "bool"
            },
            {
              "internalType": "uint256",
              "name": "price",
              "type": "uint256"
            },
            {
              "internalType": "uint256",
              "name": "baseAmount",
              "type": "uint256"
            },
            {
              "internalType": "uint256",
              "name": "baseRemaining",
              "type": "uint256"
            },
            {
              "internalType": "bool",
              "name": "isIOC",
              "type": "bool"
            },
            {
              "internalType": "uint256",
              "name": "createdAt",
              "type": "uint256"
            },
            {
              "internalType": "bool",
              "name": "active",
              "type": "bool"
            }
          ],
          "internalType": "struct WikiOrderBook.Order",
          "name": "",
          "type": "tuple"
        }
      ],
      "stateMutability": "view",
      "type": "function"
    },
    {
      "inputs": [
        {
          "internalType": "uint256",
          "name": "pairId",
          "type": "uint256"
        },
        {
          "internalType": "bool",
          "name": "isBid",
          "type": "bool"
        },
        {
          "internalType": "uint256",
          "name": "depth",
          "type": "uint256"
        }
      ],
      "name": "getOrderBookDepth",
      "outputs": [
        {
          "internalType": "uint256[]",
          "name": "prices",
          "type": "uint256[]"
        },
        {
          "internalType": "uint256[]",
          "name": "sizes",
          "type": "uint256[]"
        }
      ],
      "stateMutability": "view",
      "type": "function"
    },
    {
      "inputs": [
        {
          "internalType": "uint256",
          "name": "pairId",
          "type": "uint256"
        }
      ],
      "name": "getPair",
      "outputs": [
        {
          "components": [
            {
              "internalType": "address",
              "name": "baseToken",
              "type": "address"
            },
            {
              "internalType": "address",
              "name": "quoteToken",
              "type": "address"
            },
            {
              "internalType": "uint256",
              "name": "takerFeeBps",
              "type": "uint256"
            },
            {
              "internalType": "int256",
              "name": "makerRebateBps",
              "type": "int256"
            },
            {
              "internalType": "uint256",
              "name": "minOrderSize",
              "type": "uint256"
            },
            {
              "internalType": "uint256",
              "name": "pricePrecision",
              "type": "uint256"
            },
            {
              "internalType": "bool",
              "name": "active",
              "type": "bool"
            },
            {
              "internalType": "uint256",
              "name": "protocolFees",
              "type": "uint256"
            },
            {
              "internalType": "uint256",
              "name": "totalVolume",
              "type": "uint256"
            }
          ],
          "internalType": "struct WikiOrderBook.Pair",
          "name": "",
          "type": "tuple"
        }
      ],
      "stateMutability": "view",
      "type": "function"
    },
    {
      "inputs": [
        {
          "internalType": "address",
          "name": "",
          "type": "address"
        }
      ],
      "name": "keepers",
      "outputs": [
        {
          "internalType": "bool",
          "name": "",
          "type": "bool"
        }
      ],
      "stateMutability": "view",
      "type": "function"
    },
    {
      "inputs": [
        {
          "internalType": "uint256",
          "name": "",
          "type": "uint256"
        },
        {
          "internalType": "bool",
          "name": "",
          "type": "bool"
        },
        {
          "internalType": "uint256",
          "name": "",
          "type": "uint256"
        }
      ],
      "name": "levels",
      "outputs": [
        {
          "internalType": "uint256",
          "name": "price",
          "type": "uint256"
        },
        {
          "internalType": "uint256",
          "name": "headOrderId",
          "type": "uint256"
        },
        {
          "internalType": "uint256",
          "name": "tailOrderId",
          "type": "uint256"
        },
        {
          "internalType": "uint256",
          "name": "totalBase",
          "type": "uint256"
        },
        {
          "internalType": "uint256",
          "name": "prevPrice",
          "type": "uint256"
        },
        {
          "internalType": "uint256",
          "name": "nextPrice",
          "type": "uint256"
        }
      ],
      "stateMutability": "view",
      "type": "function"
    },
    {
      "inputs": [
        {
          "internalType": "address",
          "name": "",
          "type": "address"
        },
        {
          "internalType": "address",
          "name": "",
          "type": "address"
        }
      ],
      "name": "lockedBalance",
      "outputs": [
        {
          "internalType": "uint256",
          "name": "",
          "type": "uint256"
        }
      ],
      "stateMutability": "view",
      "type": "function"
    },
    {
      "inputs": [
        {
          "internalType": "uint256",
          "name": "",
          "type": "uint256"
        }
      ],
      "name": "nextOrder",
      "outputs": [
        {
          "internalType": "uint256",
          "name": "",
          "type": "uint256"
        }
      ],
      "stateMutability": "view",
      "type": "function"
    },
    {
      "inputs": [
        {
          "internalType": "uint256",
          "name": "",
          "type": "uint256"
        }
      ],
      "name": "orders",
      "outputs": [
        {
          "internalType": "uint256",
          "name": "pairId",
          "type": "uint256"
        },
        {
          "internalType": "address",
          "name": "maker",
          "type": "address"
        },
        {
          "internalType": "bool",
          "name": "isBid",
          "type": "bool"
        },
        {
          "internalType": "uint256",
          "name": "price",
          "type": "uint256"
        },
        {
          "internalType": "uint256",
          "name": "baseAmount",
          "type": "uint256"
        },
        {
          "internalType": "uint256",
          "name": "baseRemaining",
          "type": "uint256"
        },
        {
          "internalType": "bool",
          "name": "isIOC",
          "type": "bool"
        },
        {
          "internalType": "uint256",
          "name": "createdAt",
          "type": "uint256"
        },
        {
          "internalType": "bool",
          "name": "active",
          "type": "bool"
        }
      ],
      "stateMutability": "view",
      "type": "function"
    },
    {
      "inputs": [],
      "name": "owner",
      "outputs": [
        {
          "internalType": "address",
          "name": "",
          "type": "address"
        }
      ],
      "stateMutability": "view",
      "type": "function"
    },
    {
      "inputs": [],
      "name": "pairCount",
      "outputs": [
        {
          "internalType": "uint256",
          "name": "",
          "type": "uint256"
        }
      ],
      "stateMutability": "view",
      "type": "function"
    },
    {
      "inputs": [
        {
          "internalType": "bytes32",
          "name": "",
          "type": "bytes32"
        },
        {
          "internalType": "uint256",
          "name": "",
          "type": "uint256"
        }
      ],
      "name": "pairTrailingOrders",
      "outputs": [
        {
          "internalType": "uint256",
          "name": "",
          "type": "uint256"
        }
      ],
      "stateMutability": "view",
      "type": "function"
    },
    {
      "inputs": [
        {
          "internalType": "uint256",
          "name": "",
          "type": "uint256"
        }
      ],
      "name": "pairs",
      "outputs": [
        {
          "internalType": "address",
          "name": "baseToken",
          "type": "address"
        },
        {
          "internalType": "address",
          "name": "quoteToken",
          "type": "address"
        },
        {
          "internalType": "uint256",
          "name": "takerFeeBps",
          "type": "uint256"
        },
        {
          "internalType": "int256",
          "name": "makerRebateBps",
          "type": "int256"
        },
        {
          "internalType": "uint256",
          "name": "minOrderSize",
          "type": "uint256"
        },
        {
          "internalType": "uint256",
          "name": "pricePrecision",
          "type": "uint256"
        },
        {
          "internalType": "bool",
          "name": "active",
          "type": "bool"
        },
        {
          "internalType": "uint256",
          "name": "protocolFees",
          "type": "uint256"
        },
        {
          "internalType": "uint256",
          "name": "totalVolume",
          "type": "uint256"
        }
      ],
      "stateMutability": "view",
      "type": "function"
    },
    {
      "inputs": [],
      "name": "pendingOwner",
      "outputs": [
        {
          "internalType": "address",
          "name": "",
          "type": "address"
        }
      ],
      "stateMutability": "view",
      "type": "function"
    },
    {
      "inputs": [
        {
          "internalType": "uint256",
          "name": "pairId",
          "type": "uint256"
        },
        {
          "internalType": "bool",
          "name": "isBid",
          "type": "bool"
        },
        {
          "internalType": "uint256",
          "name": "price",
          "type": "uint256"
        },
        {
          "internalType": "uint256",
          "name": "baseAmount",
          "type": "uint256"
        },
        {
          "internalType": "bool",
          "name": "isIOC",
          "type": "bool"
        }
      ],
      "name": "placeLimitOrder",
      "outputs": [
        {
          "internalType": "uint256",
          "name": "orderId",
          "type": "uint256"
        }
      ],
      "stateMutability": "nonpayable",
      "type": "function"
    },
    {
      "inputs": [
        {
          "internalType": "bytes32",
          "name": "pairId",
          "type": "bytes32"
        },
        {
          "internalType": "bool",
          "name": "isBuy",
          "type": "bool"
        },
        {
          "internalType": "uint256",
          "name": "size",
          "type": "uint256"
        },
        {
          "internalType": "uint256",
          "name": "trailBps",
          "type": "uint256"
        }
      ],
      "name": "placeTrailingStop",
      "outputs": [
        {
          "internalType": "uint256",
          "name": "orderId",
          "type": "uint256"
        }
      ],
      "stateMutability": "nonpayable",
      "type": "function"
    },
    {
      "inputs": [],
      "name": "renounceOwnership",
      "outputs": [],
      "stateMutability": "nonpayable",
      "type": "function"
    },
    {
      "inputs": [
        {
          "internalType": "uint256",
          "name": "pairId",
          "type": "uint256"
        },
        {
          "internalType": "uint256",
          "name": "takerFeeBps",
          "type": "uint256"
        },
        {
          "internalType": "int256",
          "name": "makerRebateBps",
          "type": "int256"
        }
      ],
      "name": "setFees",
      "outputs": [],
      "stateMutability": "nonpayable",
      "type": "function"
    },
    {
      "inputs": [
        {
          "internalType": "address",
          "name": "k",
          "type": "address"
        },
        {
          "internalType": "bool",
          "name": "enabled",
          "type": "bool"
        }
      ],
      "name": "setKeeper",
      "outputs": [],
      "stateMutability": "nonpayable",
      "type": "function"
    },
    {
      "inputs": [
        {
          "internalType": "uint256",
          "name": "pairId",
          "type": "uint256"
        },
        {
          "internalType": "bool",
          "name": "active",
          "type": "bool"
        }
      ],
      "name": "setPairActive",
      "outputs": [],
      "stateMutability": "nonpayable",
      "type": "function"
    },
    {
      "inputs": [
        {
          "internalType": "address",
          "name": "_tl",
          "type": "address"
        }
      ],
      "name": "setTimelock",
      "outputs": [],
      "stateMutability": "nonpayable",
      "type": "function"
    },
    {
      "inputs": [],
      "name": "timelock",
      "outputs": [
        {
          "internalType": "address",
          "name": "",
          "type": "address"
        }
      ],
      "stateMutability": "view",
      "type": "function"
    },
    {
      "inputs": [
        {
          "internalType": "address",
          "name": "",
          "type": "address"
        },
        {
          "internalType": "uint256",
          "name": "",
          "type": "uint256"
        }
      ],
      "name": "traderTrailingOrders",
      "outputs": [
        {
          "internalType": "uint256",
          "name": "",
          "type": "uint256"
        }
      ],
      "stateMutability": "view",
      "type": "function"
    },
    {
      "inputs": [
        {
          "internalType": "uint256",
          "name": "",
          "type": "uint256"
        }
      ],
      "name": "trailingOrders",
      "outputs": [
        {
          "internalType": "uint256",
          "name": "id",
          "type": "uint256"
        },
        {
          "internalType": "bytes32",
          "name": "pairKey",
          "type": "bytes32"
        },
        {
          "internalType": "address",
          "name": "trader",
          "type": "address"
        },
        {
          "internalType": "bool",
          "name": "isBuy",
          "type": "bool"
        },
        {
          "internalType": "uint256",
          "name": "size",
          "type": "uint256"
        },
        {
          "internalType": "uint256",
          "name": "trailBps",
          "type": "uint256"
        },
        {
          "internalType": "uint256",
          "name": "highWater",
          "type": "uint256"
        },
        {
          "internalType": "uint256",
          "name": "triggerPrice",
          "type": "uint256"
        },
        {
          "internalType": "bool",
          "name": "active",
          "type": "bool"
        }
      ],
      "stateMutability": "view",
      "type": "function"
    },
    {
      "inputs": [
        {
          "internalType": "address",
          "name": "newOwner",
          "type": "address"
        }
      ],
      "name": "transferOwnership",
      "outputs": [],
      "stateMutability": "nonpayable",
      "type": "function"
    },
    {
      "inputs": [
        {
          "internalType": "bytes32",
          "name": "pairId",
          "type": "bytes32"
        },
        {
          "internalType": "uint256",
          "name": "currentPrice",
          "type": "uint256"
        }
      ],
      "name": "updateTrailingStops",
      "outputs": [],
      "stateMutability": "nonpayable",
      "type": "function"
    },
    {
      "inputs": [
        {
          "internalType": "uint256",
          "name": "pairId",
          "type": "uint256"
        },
        {
          "internalType": "address",
          "name": "to",
          "type": "address"
        }
      ],
      "name": "withdrawFees",
      "outputs": [],
      "stateMutability": "nonpayable",
      "type": "function"
    }
  ],
  "bytecode": "0x6080346100ef57601f6129a138819003918201601f19168301916001600160401b038311848410176100f3578084926020946040528339810103126100ef57516001600160a01b038116908190036100ef5780156100dc57600180546001600160a01b03199081169091555f80549182168317815560405192916001600160a01b0316907f8be0079c531659141344cd1fd0a4f28419497f9722a3daafe3b4186f6b6457e09080a360017f9b779b17422d0df92223018b32b4d1fa46e071723d6817e2486d003becc55f0055600160095561289990816101088239f35b631e4fbdf760e01b5f525f60045260245ffd5b5f80fd5b634e487b7160e01b5f52604160045260245ffdfe6080806040526004361015610012575f80fd5b5f3560e01c908163163fe4a11461223257508063173fd1db146122155780631df2add7146121d15780631e0ab6961461210f5780631f48d0b41461209d57806321412c371461206e578063249d39e9146120525780633419d6ef146120025780633bbd64bc14611fc5578063514fcac714611eef57806351adc76114611ed357806354aac6ab14611c1957806354ccc72e14611bf3578063715018a614611b9057806379ba509714611b0b57806389520fb814610ec85780638cf7f19114610c665780638da5cb5b14610c3f57806397d30e7f14610c24578063a7bde38e14610b41578063a85c38ef14610aa1578063b91ac78814610a01578063bdacb3031461097a578063bdf391cc14610886578063c01fd7a4146107f4578063d09ef241146106fb578063d1b9e853146106a8578063d33219b414610680578063d7ab839614610656578063dd2cc3f31461057d578063e30c397814610555578063e98fb29414610286578063ecc1c3c51461022e578063f2fde38b146101bc5763fc733bc41461019d575f80fd5b346101b8575f3660031901126101b857602060405160648152f35b5f80fd5b346101b85760203660031901126101b8576101d56122dc565b6101dd612511565b60018060a01b0316806bffffffffffffffffffffffff60a01b600154161760015560018060a01b035f54167f38d16b8cac22d99fc7c124b9cd0de2d3fa1faef420bfe791d8c362d765e227005f80a3005b346101b85760403660031901126101b8576102476122dc565b6001600160a01b03165f908152600c60205260409020805460243591908210156101b857602091610277916122b3565b90549060031b1c604051908152f35b346101b85760803660031901126101b8576004356102a261226b565b9060443591606435916102b3612524565b600a83101580610549575b1561050f5783156104da576102d2816127fe565b9182156104a657600954936102e68561247c565b600955811561047c578061271001938461271011610468576020966103e86127106103128998856123fc565b04945b60078887610321612383565b8281528d81018b815233604080840191825296151560608401818152608085019a8b5260a08086018e815260c087018e815260e08801988952600161010089018181525f9b8c52600a6020529c909a2097518855955198870198909855925160028601805492516001600160a81b03199093166001600160a01b03929092169190911791151590931b60ff60a01b161790915597919593909151600387015551600486015551600585015551600684015551151591019060ff801983541691151516179055565b845f52600b88526103fc8660405f206124dd565b335f52600c88526104108660405f206124dd565b604051948552878501526040840152606083015260808201527fd39fabc762163fe3fe9f29df50006f0d2d3904bef9a702e3d6bd7967b8dc6e2960a03392a360015f8051602061284483398151915255604051908152f35b634e487b7160e01b5f52601160045260245ffd5b8061271003936127108511610468576020966103e861271061049f8998856123fc565b0494610315565b60405162461bcd60e51b815260206004820152600c60248201526b4f423a206e6f20707269636560a01b6044820152606490fd5b60405162461bcd60e51b815260206004820152600d60248201526c4f423a207a65726f2073697a6560981b6044820152606490fd5b60405162461bcd60e51b81526020600482015260126024820152714f423a20747261696c20302e31252d35302560701b6044820152606490fd5b506113888311156102be565b346101b8575f3660031901126101b8576001546040516001600160a01b039091168152602090f35b346101b85760403660031901126101b8576004356105996122f2565b906105a2612511565b6105aa612524565b6105b381612357565b5060078101908154938415610623576105ff85826020945f7f538e1189c5c6413ddd9194fe5e947ef693ea737bd368a9e0aca4c286854c9bd897556001808060a01b03910154166127a6565b6040519485526001600160a01b031693a360015f8051602061284483398151915255005b60405162461bcd60e51b815260206004820152600b60248201526a4f423a206e6f206665657360a81b6044820152606490fd5b346101b85760203660031901126101b8576004355f526007602052602060405f2054604051908152f35b346101b8575f3660031901126101b8576002546040516001600160a01b039091168152602090f35b346101b85760403660031901126101b8576106f96106c46122dc565b6106cc61226b565b906106d5612511565b60018060a01b03165f52600d60205260405f209060ff801983541691151516179055565b005b346101b85760203660031901126101b85761071461249e565b5061012061072360043561233b565b5061072c612383565b8154918282526001810154602083019060018060a01b038116825260ff604085019160a01c16151581526002830154606085019081526003840154906080860191825260048501549260a0870193845260ff6005870154169460c08801951515865261010060ff600760068a01549960e08c019a8b520154169801971515885260405198895260018060a01b03905116602089015251151560408801525160608701525160808601525160a085015251151560c08401525160e0830152511515610100820152f35b346101b85760203660031901126101b8576004355f52600a60205261012060405f208054906001810154906002810154600382015460048301549060ff60058501549381600760068801549701541696604051988952602089015260018060a01b038116604089015260a01c1615156060870152608086015260a085015260c084015260e08301521515610100820152f35b346101b85760203660031901126101b85761089f61249e565b506101206108ae600435612357565b506108b7612383565b60018060a01b038254169182825260018060a01b03600182015416602083019081526002820154604084019081526003830154606085019081526004840154906080860191825260058501549260a0870193845260ff6006870154169460c088019515158652610100600860078901549860e08b01998a520154980197885260405198895260018060a01b0390511660208901525160408801525160608701525160808601525160a085015251151560c08401525160e083015251610100820152f35b346101b85760203660031901126101b8576109936122dc565b61099b612511565b6001600160a01b031680156109c6576bffffffffffffffffffffffff60a01b60025416176002555f80f35b60405162461bcd60e51b815260206004820152601360248201527257696b693a207a65726f2074696d656c6f636b60681b6044820152606490fd5b346101b85760203660031901126101b8576004356003548110156101b857610a2b61012091612357565b5060018060a01b038154169060018060a01b036001820154169060028101546003820154600483015460058401549160ff600686015416936008600787015496015496604051988952602089015260408801526060870152608086015260a0850152151560c084015260e0830152610100820152f35b346101b85760203660031901126101b8576004356004548110156101b857610acb6101209161233b565b508054906001810154906002810154600382015460048301549060ff6005850154169260ff8060076006880154970154169660405198895260018060a01b03811660208a015260a01c16151560408801526060870152608086015260a0850152151560c084015260e08301521515610100820152f35b346101b857610b4f3661227a565b90610b5982612434565b90610b6383612434565b5f85815260066020908152604080832085151580855292528220545b86831080610c1b575b15610bed57610bde90885f52600560205260405f20835f5260205260405f20815f5260205260405f2090610bbc858961248a565b526003810154610bcc858761248a565b528515610be457600401545b9261247c565b91610b7f565b60050154610bd8565b610c0986610c1786604051938493604085526040850190612308565b908382036020850152612308565b0390f35b50801515610b88565b346101b8575f3660031901126101b857602060405160328152f35b346101b8575f3660031901126101b8575f546040516001600160a01b039091168152602090f35b346101b857610c743661229d565b90335f52600d60205260ff60405f2054168015610eb5575b15610e7f575f52600b60205260405f205f5b81548110156106f957610cb181836122b3565b90549060031b1c5f52600a60205260405f2090600782019160ff83541615610e75575f92600282019360ff855460a01c16801580610e68575b15610e1257505085600583015560048201546127100393612710851161046857612710610d19600196896123fc565b046006840155845b610dd3575b549060ff8260a01c1680159081610dc4575b8115610da8575b50610d4f575b5050505b01610c9e565b60ff1981541690557fa0be74e41a09ef162cd74663ca399391bf97a07e4b8cc2dbc584420a028ebc1260608354926003878601549501546040519586528960208701526040860152868060a01b031693a3848080610d45565b905080610db6575b88610d3f565b506006830154871015610db0565b60068501548911159150610d38565b82547f97128b0fad88d9c99eb2837e7bd28189a99a231e707a56c2db71d0f519f2168e60406005860154600687015482519182526020820152a2610d26565b80610e5b575b610e26575b93600194610d21565b5085600583015560048201546127100193846127101161046857612710610e4f600196896123fc565b04600684015593610e1d565b5060058301548710610e18565b5060058401548811610cea565b5060019150610d49565b60405162461bcd60e51b815260206004820152600e60248201526d27a11d103737ba1035b2b2b832b960911b6044820152606490fd5b505f546001600160a01b03163314610c8c565b346101b85760a03660031901126101b857600435610ee461226b565b60843591821515906064356044358386036101b857610f01612524565b610f0a83612357565b5060ff60068201541615611ad2578215611a9b5781151580611a73575b15611a3957670de0b6b3a7640000610f3f83856123fc565b0490600481015482106119ff5786156119ac576001018054610f6f908390309033906001600160a01b0316612714565b335f90815260086020908152604080832093546001600160a01b031683529290522080549091610f9e916123a4565b90555b60045494610fad612383565b90848252602082013381528760408401921515978884526060850193868552608086019188835260a0870189815260c0880191825260e0880193428552600160401b6101008a01966001885210156119985761100f8e6001810160045561233b565b98909861198557985188559551600188018054945160ff60a01b90151560a01b166001600160a01b039092166001600160a81b031990951694909417179092556110a1966007956110859391516002890155516003880155516004870155511515600586019060ff801983541691151516179055565b51600684015551151591019060ff801983541691151516179055565b60405193845260208401526040830152827fb3f56f4d6c2dea5d6536e848df8b950b9d0da9d1d2a9e588b3d8ce6dd4333e2260603394a46110e18161233b565b50908154906110ef82612357565b509360ff600185015460a01c1615925f52600660205260405f20835f5260205260405f20549160088601955b83151580611978575b1561196c5785545f52600560205260405f20855f5260205260405f20845f5260205260405f209360ff600188015460a01c165f1461195f5760028701548111155b156119525760018501545b80151580611945575b1561193d576111878161233b565b5060018082018054918b015492939290916001600160a01b0391821691161461192857838a8c6007860160ff81541615801561191c575b611903579161123f916111fb95949360048301549260048a01548085105f146118ec57506004611204670de0b6b3a7640000869a8b995b8a6123fc565b04998a9661240f565b9101556112158560048b015461240f565b60048a01558d600361122a878284015461240f565b9101556004890154156118c0575b50546123a4565b8d556127106112526002890154856123fc565b04916003880154915f8312155f146118a4575f925b5f8113156118995761271061127f61128892886123fc565b04935b856123a4565b906113888202918083046113881490151715610468578a948f877f2218a98e83fc6e87457e4e95574af1f5e1af68004ef4340d6e0a29178c914d98958d8b986112db6127106060990460078401546123a4565b6007830155600185015492546001600160a01b0380851694911692908890889060a01c60ff16156117ee579161139860039261131e6113c796956113d79a6123a4565b5f8981526008602090815260408083206001880180546001600160a01b0316855292529091208054919a929091611355919061240f565b90555f88815260086020908152604080832087546001600160a01b031684529091529020805461138690849061240f565b905583546001600160a01b03166127a6565b01548d5f8212156117e2576127106113bb6113b56113c294612373565b836123fc565b049061240f565b6123a4565b91546001600160a01b03166127a6565b6001808060a01b03910154169660405192835260208301526040820152a45f526007602052600460405f2054910154155f1461141557915b91611170565b5050925b60038101541580156117d6575b1561145e57841561145557600501545b85545f52600660205260405f20855f526020528060405f20559261111b565b60040154611436565b509392509350505b60048101546114e357600701805460ff191690556020915b806114cc575b806114b6575b6114a8575b60015f8051602061284483398151915255604051908152f35b6114b18161255c565b61148f565b5060046114c28261233b565b500154151561148a565b5060ff60076114da8361233b565b50015416611484565b6005015460ff16156114f8575b60209161147e565b6115018161233b565b509182549260ff600182015460a01c1693600282015490805f52600560205260405f209580151596875f5260205260405f20835f5260205260405f209360038501908154155f146117a25760049085875501549055815f52600660205260405f20875f5260205260405f20549081155f146115a65750509160029160209686945f526006885260405f20905f52875260405f20555b82600182015501555b91506114f0565b801561179a578184115b1561160157509160209684928460029560058a980155815f5260058a5260405f20835f528a5260405f20905f52895282600460405f2001555f526006885260405f20905f52875260405f2055611596565b96905b871561177057825f52600560205260405f20825f5260205260405f20815f52602052600460405f200154905b81158015611759575b6116435750611604565b9050600293918795936020995f146116d657826005860155805f5260058a5260405f20825f528a5260405f20835f528a52600460405f200154806004870155806116ae575b505f526005895260405f20905f52885260405f20905f528752600460405f200155611596565b815f5260058b5260405f20835f528b5260405f20905f528a5283600560405f2001558a611688565b9050816004850155805f526005895260405f205f8052895260405f20825f528952600560405f20015480600586015580611731575b505f526005885260405f205f8052885260405f20905f528752600560405f200155611596565b815f5260058a5260405f205f80528a5260405f20905f52895282600460405f2001558961170b565b50881561176857818511611639565b818510611639565b825f52600560205260405f205f805260205260405f20815f52602052600560405f20015490611630565b8184106115b0565b915093602097506117cf935060049250600287910180545f52600789528160405f205555015482546123a4565b905561159f565b50600181015415611426565b6113c291505f9061240f565b5050611883611894958561187d94965f52600860205260405f2060018060a01b0385541660018060a01b03165f5260205260405f2061182e8c825461240f565b90555f8681526008602090815260408083206001880180546001600160a01b031685529252909120805461187d928d92909161186b90879061240f565b9055546001600160a01b03169361240f565b916127a6565b546001600160a01b031692876123a4565b6113d7565b506112885f93611282565b6127106118b96118b385612373565b876123fc565b0492611267565b60ff198154169055865f5260076020528c60405f20548060018301556112385760025f9101558c611238565b611204670de0b6b3a76400006004929a8b996111f5565b505050505090505f52600760205260405f20549161140f565b506004870154156111be565b5090505f52600760205260405f20549161140f565b505092611419565b5060048801541515611179565b5050939250935050611466565b6002870154811015611165565b50939250935050611466565b5060048601541515611124565b634e487b7160e01b5f525f60045260245ffd5b634e487b7160e01b5f52604160045260245ffd5b80549091506119c9908490309033906001600160a01b0316612714565b335f90815260086020908152604080832093546001600160a01b031683529290522080546119f89084906123a4565b9055610fa1565b60405162461bcd60e51b81526020600482015260126024820152714f423a2062656c6f77206d696e2073697a6560701b6044820152606490fd5b60405162461bcd60e51b81526020600482015260126024820152714f423a20626164207072696365207469636b60701b6044820152606490fd5b5060058101548015611a8757820615610f27565b634e487b7160e01b5f52601260045260245ffd5b60405162461bcd60e51b815260206004820152600f60248201526e13d08e881e995c9bc8185b5bdd5b9d608a1b6044820152606490fd5b60405162461bcd60e51b81526020600482015260116024820152704f423a207061697220696e61637469766560781b6044820152606490fd5b346101b8575f3660031901126101b857600154336001600160a01b0390911603611b7d57600180546001600160a01b03199081169091555f805433928116831782556001600160a01b0316907f8be0079c531659141344cd1fd0a4f28419497f9722a3daafe3b4186f6b6457e09080a3005b63118cdaa760e01b5f523360045260245ffd5b346101b8575f3660031901126101b857611ba8612511565b600180546001600160a01b03199081169091555f80549182168155906001600160a01b03167f8be0079c531659141344cd1fd0a4f28419497f9722a3daafe3b4186f6b6457e08280a3005b346101b85760203660031901126101b8576020611c116004356123b1565b604051908152f35b346101b85760c03660031901126101b857611c326122dc565b611c3a6122f2565b906044359060643560a43593611c4e612511565b60648411611e95576031198212611e5757838213611e19576001600160a01b0392831693921691838314611de3578415611da95760035493611c8e612383565b93818552602085019481865260408101938452606081019485526080810195608435875260a0820198895260c08201916001835260e081015f81526101008201915f8352600160401b8b10156119985760018b01600355611cee8b612357565b95909561198557905185546001600160a01b039182166001600160a01b031991821617875594516001870180549190921695169490941790935595516002840155955160038301559551600482015596516005880155935160068701805460ff191691151560ff1691909117905560209585947f02a47afa70a0c9a6546a7935738f3a99c674b215a93b1552adf49442a51e9e7e946040949192916008919051600784015551910155825191825286820152a2604051908152f35b60405162461bcd60e51b815260206004820152601260248201527127a11d103d32b93790383932b1b4b9b4b7b760711b6044820152606490fd5b60405162461bcd60e51b815260206004820152600e60248201526d27a11d1039b0b6b2903a37b5b2b760911b6044820152606490fd5b60405162461bcd60e51b81526020600482015260166024820152754f423a20726562617465203e2074616b65722066656560501b6044820152606490fd5b60405162461bcd60e51b815260206004820152601660248201527509e847440dac2d6cae440cccaca40e8dede40d0d2ced60531b6044820152606490fd5b60405162461bcd60e51b815260206004820152601660248201527509e847440e8c2d6cae440cccaca40e8dede40d0d2ced60531b6044820152606490fd5b346101b8575f3660031901126101b85760206040516113888152f35b346101b85760203660031901126101b857600435611f0b612524565b611f148161233b565b5060018101546001600160a01b03163303611f8b576007015460ff1615611f5157611f3e9061255c565b60015f8051602061284483398151915255005b60405162461bcd60e51b815260206004820152601260248201527113d08e88185b1c9958591e4818db1bdcd95960721b6044820152606490fd5b60405162461bcd60e51b815260206004820152601260248201527127a11d103737ba103cb7bab91037b93232b960711b6044820152606490fd5b346101b85760203660031901126101b8576001600160a01b03611fe66122dc565b165f52600d602052602060ff60405f2054166040519015158152f35b346101b85760403660031901126101b85761201b6122dc565b6120236122f2565b6001600160a01b039182165f908152600860209081526040808320949093168252928352819020549051908152f35b346101b8575f3660031901126101b85760206040516127108152f35b346101b85761207c3661229d565b905f52600b60205260405f2080548210156101b857602091610277916122b3565b346101b8576120ab3661227a565b915f52600560205260405f209015155f5260205260405f20905f5260205260c060405f2080549060018101549060028101546003820154906005600484015493015493604051958652602086015260408501526060840152608083015260a0820152f35b346101b85760603660031901126101b857604435600435602435612131612511565b606481116121995780831361215f578161215a916002612152600395612357565b500155612357565b500155005b60405162461bcd60e51b815260206004820152601260248201527127a11d103932b130ba32901f103a30b5b2b960711b6044820152606490fd5b60405162461bcd60e51b815260206004820152601060248201526f09e847440cccaca40e8dede40d0d2ced60831b6044820152606490fd5b346101b85760403660031901126101b8576106f96121ed61226b565b6121f5612511565b6006612202600435612357565b50019060ff801983541691151516179055565b346101b8575f3660031901126101b8576020600354604051908152f35b346101b85760403660031901126101b85760209061224e61226b565b6004355f526006835260405f209015155f52825260405f20548152f35b6024359081151582036101b857565b60609060031901126101b8576004359060243580151581036101b8579060443590565b60409060031901126101b8576004359060243590565b80548210156122c8575f5260205f2001905f90565b634e487b7160e01b5f52603260045260245ffd5b600435906001600160a01b03821682036101b857565b602435906001600160a01b03821682036101b857565b90602080835192838152019201905f5b8181106123255750505090565b8251845260209384019390920191600101612318565b6004548110156122c85760045f5260205f209060031b01905f90565b6003548110156122c85760035f52600960205f20910201905f90565b600160ff1b8114610468575f0390565b60405190610120820182811067ffffffffffffffff82111761199857604052565b9190820180921161046857565b5f9081526006602090815260408083206001845290915280822054828052912054811580156123f4575b6123ee576123e8916123a4565b60011c90565b50505f90565b5080156123db565b8181029291811591840414171561046857565b9190820391821161046857565b67ffffffffffffffff81116119985760051b60200190565b9061243e8261241c565b60405190601f01601f1916810167ffffffffffffffff811182821017611998576040528281528092612472601f199161241c565b0190602036910137565b5f1981146104685760010190565b80518210156122c85760209160051b010190565b6124a6612383565b905f82525f60208301525f60408301525f60608301525f60808301525f60a08301525f60c08301525f60e08301525f610100830152565b8054600160401b811015611998576124fa916001820181556122b3565b819291549060031b91821b915f19901b1916179055565b5f546001600160a01b03163303611b7d57565b60025f80516020612844833981519152541461254d5760025f8051602061284483398151915255565b633ee5aeb560e01b5f5260045ffd5b6125658161233b565b50907fc4058ebc534b64ecb27b2d4eaa1904f98997ec18ebe6ada4117593dde89478cc60206125948454612357565b506007850160ff19815416905560048501945f86549655600181019186835460ff8160a01c165f146126d957505061263490670de0b6b3a76400006125dd60028501548a6123fc565b049060018060a01b038554165f5260088652600160405f2091019060018060a01b0382541660018060a01b03165f52865260405f2061261d83825461240f565b90555484546001600160a01b0390811691166127a6565b805490815f526005845260405f2060ff845460a01c16151590815f528552600260405f2092015491825f52855287600360405f20015410155f146126d257825f526005855260405f20815f52855260405f20825f52855261269c88600360405f20015461240f565b925b5f526005855260405f20905f52845260405f20905f528352600360405f20015560018060a01b0390541693604051908152a3565b5f9261269e565b6001600160a01b039081165f9081526008875260408082208554909316825291875220805461270f93919061261d90849061240f565b612634565b6040516323b872dd60e01b5f9081526001600160a01b039384166004529290931660245260449390935260209060648180865af19060015f5114821615612785575b6040525f606052156127655750565b635274afe760e01b5f9081526001600160a01b0391909116600452602490fd5b90600181151661279d57823b15153d15161690612756565b503d5f823e3d90fd5b916040519163a9059cbb60e01b5f5260018060a01b031660045260245260205f60448180865af19060015f51148216156127e6575b604052156127655750565b90600181151661279d57823b15153d151616906127db565b60035481101561283e575f9081526006602090815260408083206001845290915280822054828052912054811580156123f4576123ee576123e8916123a4565b505f9056fe9b779b17422d0df92223018b32b4d1fa46e071723d6817e2486d003becc55f00a2646970667358221220d0f85cad5e2e87d9a024957fd75750154cab93b374096f57c7a27e3b2917ed6264736f6c634300081a0033",
  "linkReferences": {},
  "deployedLinkReferences": {}
}