{
  "_format": "hh-sol-artifact-1",
  "contractName": "sWIKToken",
  "sourceName": "src/WikiLiquidStaking.sol",
  "abi": [
    {
      "inputs": [
        {
          "internalType": "address",
          "name": "owner",
          "type": "address"
        }
      ],
      "stateMutability": "nonpayable",
      "type": "constructor"
    },
    {
      "inputs": [
        {
          "internalType": "address",
          "name": "spender",
          "type": "address"
        },
        {
          "internalType": "uint256",
          "name": "allowance",
          "type": "uint256"
        },
        {
          "internalType": "uint256",
          "name": "needed",
          "type": "uint256"
        }
      ],
      "name": "ERC20InsufficientAllowance",
      "type": "error"
    },
    {
      "inputs": [
        {
          "internalType": "address",
          "name": "sender",
          "type": "address"
        },
        {
          "internalType": "uint256",
          "name": "balance",
          "type": "uint256"
        },
        {
          "internalType": "uint256",
          "name": "needed",
          "type": "uint256"
        }
      ],
      "name": "ERC20InsufficientBalance",
      "type": "error"
    },
    {
      "inputs": [
        {
          "internalType": "address",
          "name": "approver",
          "type": "address"
        }
      ],
      "name": "ERC20InvalidApprover",
      "type": "error"
    },
    {
      "inputs": [
        {
          "internalType": "address",
          "name": "receiver",
          "type": "address"
        }
      ],
      "name": "ERC20InvalidReceiver",
      "type": "error"
    },
    {
      "inputs": [
        {
          "internalType": "address",
          "name": "sender",
          "type": "address"
        }
      ],
      "name": "ERC20InvalidSender",
      "type": "error"
    },
    {
      "inputs": [
        {
          "internalType": "address",
          "name": "spender",
          "type": "address"
        }
      ],
      "name": "ERC20InvalidSpender",
      "type": "error"
    },
    {
      "inputs": [
        {
          "internalType": "address",
          "name": "owner",
          "type": "address"
        }
      ],
      "name": "OwnableInvalidOwner",
      "type": "error"
    },
    {
      "inputs": [
        {
          "internalType": "address",
          "name": "account",
          "type": "address"
        }
      ],
      "name": "OwnableUnauthorizedAccount",
      "type": "error"
    },
    {
      "anonymous": false,
      "inputs": [
        {
          "indexed": true,
          "internalType": "address",
          "name": "owner",
          "type": "address"
        },
        {
          "indexed": true,
          "internalType": "address",
          "name": "spender",
          "type": "address"
        },
        {
          "indexed": false,
          "internalType": "uint256",
          "name": "value",
          "type": "uint256"
        }
      ],
      "name": "Approval",
      "type": "event"
    },
    {
      "anonymous": false,
      "inputs": [
        {
          "indexed": true,
          "internalType": "address",
          "name": "previousOwner",
          "type": "address"
        },
        {
          "indexed": true,
          "internalType": "address",
          "name": "newOwner",
          "type": "address"
        }
      ],
      "name": "OwnershipTransferStarted",
      "type": "event"
    },
    {
      "anonymous": false,
      "inputs": [
        {
          "indexed": true,
          "internalType": "address",
          "name": "previousOwner",
          "type": "address"
        },
        {
          "indexed": true,
          "internalType": "address",
          "name": "newOwner",
          "type": "address"
        }
      ],
      "name": "OwnershipTransferred",
      "type": "event"
    },
    {
      "anonymous": false,
      "inputs": [
        {
          "indexed": true,
          "internalType": "address",
          "name": "from",
          "type": "address"
        },
        {
          "indexed": true,
          "internalType": "address",
          "name": "to",
          "type": "address"
        },
        {
          "indexed": false,
          "internalType": "uint256",
          "name": "value",
          "type": "uint256"
        }
      ],
      "name": "Transfer",
      "type": "event"
    },
    {
      "inputs": [],
      "name": "acceptOwnership",
      "outputs": [],
      "stateMutability": "nonpayable",
      "type": "function"
    },
    {
      "inputs": [
        {
          "internalType": "address",
          "name": "owner",
          "type": "address"
        },
        {
          "internalType": "address",
          "name": "spender",
          "type": "address"
        }
      ],
      "name": "allowance",
      "outputs": [
        {
          "internalType": "uint256",
          "name": "",
          "type": "uint256"
        }
      ],
      "stateMutability": "view",
      "type": "function"
    },
    {
      "inputs": [
        {
          "internalType": "address",
          "name": "spender",
          "type": "address"
        },
        {
          "internalType": "uint256",
          "name": "value",
          "type": "uint256"
        }
      ],
      "name": "approve",
      "outputs": [
        {
          "internalType": "bool",
          "name": "",
          "type": "bool"
        }
      ],
      "stateMutability": "nonpayable",
      "type": "function"
    },
    {
      "inputs": [
        {
          "internalType": "address",
          "name": "account",
          "type": "address"
        }
      ],
      "name": "balanceOf",
      "outputs": [
        {
          "internalType": "uint256",
          "name": "",
          "type": "uint256"
        }
      ],
      "stateMutability": "view",
      "type": "function"
    },
    {
      "inputs": [
        {
          "internalType": "address",
          "name": "from",
          "type": "address"
        },
        {
          "internalType": "uint256",
          "name": "amount",
          "type": "uint256"
        }
      ],
      "name": "burn",
      "outputs": [],
      "stateMutability": "nonpayable",
      "type": "function"
    },
    {
      "inputs": [],
      "name": "decimals",
      "outputs": [
        {
          "internalType": "uint8",
          "name": "",
          "type": "uint8"
        }
      ],
      "stateMutability": "view",
      "type": "function"
    },
    {
      "inputs": [
        {
          "internalType": "address",
          "name": "to",
          "type": "address"
        },
        {
          "internalType": "uint256",
          "name": "amount",
          "type": "uint256"
        }
      ],
      "name": "mint",
      "outputs": [],
      "stateMutability": "nonpayable",
      "type": "function"
    },
    {
      "inputs": [],
      "name": "minter",
      "outputs": [
        {
          "internalType": "address",
          "name": "",
          "type": "address"
        }
      ],
      "stateMutability": "view",
      "type": "function"
    },
    {
      "inputs": [],
      "name": "name",
      "outputs": [
        {
          "internalType": "string",
          "name": "",
          "type": "string"
        }
      ],
      "stateMutability": "view",
      "type": "function"
    },
    {
      "inputs": [],
      "name": "owner",
      "outputs": [
        {
          "internalType": "address",
          "name": "",
          "type": "address"
        }
      ],
      "stateMutability": "view",
      "type": "function"
    },
    {
      "inputs": [],
      "name": "pendingOwner",
      "outputs": [
        {
          "internalType": "address",
          "name": "",
          "type": "address"
        }
      ],
      "stateMutability": "view",
      "type": "function"
    },
    {
      "inputs": [],
      "name": "renounceOwnership",
      "outputs": [],
      "stateMutability": "nonpayable",
      "type": "function"
    },
    {
      "inputs": [
        {
          "internalType": "address",
          "name": "_minter",
          "type": "address"
        }
      ],
      "name": "setMinter",
      "outputs": [],
      "stateMutability": "nonpayable",
      "type": "function"
    },
    {
      "inputs": [
        {
          "internalType": "address",
          "name": "_tl",
          "type": "address"
        }
      ],
      "name": "setTimelock",
      "outputs": [],
      "stateMutability": "nonpayable",
      "type": "function"
    },
    {
      "inputs": [],
      "name": "symbol",
      "outputs": [
        {
          "internalType": "string",
          "name": "",
          "type": "string"
        }
      ],
      "stateMutability": "view",
      "type": "function"
    },
    {
      "inputs": [],
      "name": "timelock",
      "outputs": [
        {
          "internalType": "address",
          "name": "",
          "type": "address"
        }
      ],
      "stateMutability": "view",
      "type": "function"
    },
    {
      "inputs": [],
      "name": "totalSupply",
      "outputs": [
        {
          "internalType": "uint256",
          "name": "",
          "type": "uint256"
        }
      ],
      "stateMutability": "view",
      "type": "function"
    },
    {
      "inputs": [
        {
          "internalType": "address",
          "name": "to",
          "type": "address"
        },
        {
          "internalType": "uint256",
          "name": "value",
          "type": "uint256"
        }
      ],
      "name": "transfer",
      "outputs": [
        {
          "internalType": "bool",
          "name": "",
          "type": "bool"
        }
      ],
      "stateMutability": "nonpayable",
      "type": "function"
    },
    {
      "inputs": [
        {
          "internalType": "address",
          "name": "from",
          "type": "address"
        },
        {
          "internalType": "address",
          "name": "to",
          "type": "address"
        },
        {
          "internalType": "uint256",
          "name": "value",
          "type": "uint256"
        }
      ],
      "name": "transferFrom",
      "outputs": [
        {
          "internalType": "bool",
          "name": "",
          "type": "bool"
        }
      ],
      "stateMutability": "nonpayable",
      "type": "function"
    },
    {
      "inputs": [
        {
          "internalType": "address",
          "name": "newOwner",
          "type": "address"
        }
      ],
      "name": "transferOwnership",
      "outputs": [],
      "stateMutability": "nonpayable",
      "type": "function"
    }
  ],
  "bytecode": "0x60806040523461035757610ebf6020813803918261001c8161035b565b93849283398101031261035757516001600160a01b03811680820361035757610045604061035b565b91600a8352695374616b65642057494b60b01b6020840152610067604061035b565b60048152637357494b60e01b602082015283519092906001600160401b03811161026857600354600181811c9116801561034d575b602082101461024a57601f81116102ea575b50602094601f8211600114610287579481929394955f9261027c575b50508160011b915f199060031b1c1916176003555b82516001600160401b03811161026857600454600181811c9116801561025e575b602082101461024a57601f81116101e7575b506020601f821160011461018457819293945f92610179575b50508160011b915f199060031b1c1916176004555b15610166578061015261015792610380565b610380565b604051610aeb90816103d48239f35b631e4fbdf760e01b5f525f60045260245ffd5b015190505f8061012b565b601f1982169060045f52805f20915f5b8181106101cf575095836001959697106101b7575b505050811b01600455610140565b01515f1960f88460031b161c191690555f80806101a9565b9192602060018192868b015181550194019201610194565b60045f527f8a35acfbc15ff81a39ae7d344fd709f28e8600b4aa8c65c6b64bfe7fe36bd19b601f830160051c81019160208410610240575b601f0160051c01905b8181106102355750610112565b5f8155600101610228565b909150819061021f565b634e487b7160e01b5f52602260045260245ffd5b90607f1690610100565b634e487b7160e01b5f52604160045260245ffd5b015190505f806100ca565b601f1982169560035f52805f20915f5b8881106102d2575083600195969798106102ba575b505050811b016003556100df565b01515f1960f88460031b161c191690555f80806102ac565b91926020600181928685015181550194019201610297565b60035f527fc2575a0e9e593c00f959f8c92f12db2869c3395a3b0502d05e2516446f71f85b601f830160051c81019160208410610343575b601f0160051c01905b81811061033857506100ae565b5f815560010161032b565b9091508190610322565b90607f169061009c565b5f80fd5b6040519190601f01601f191682016001600160401b0381118382101761026857604052565b600680546001600160a01b0319908116909155600580549182166001600160a01b0393841690811790915591167f8be0079c531659141344cd1fd0a4f28419497f9722a3daafe3b4186f6b6457e05f80a356fe6080806040526004361015610012575f80fd5b5f3560e01c90816306fdde03146108a657508063075461721461087e578063095ea7b3146107fc57806318160ddd146107df57806323b872dd14610700578063313ce567146106e557806340c10f191461062c57806370a08231146105f5578063715018a61461059057806379ba50971461050a5780638da5cb5b146104e257806395d89b41146103c75780639dc29fac14610303578063a9059cbb146102d2578063bdacb3031461024b578063d33219b414610223578063dd62ed3e146101d3578063e30c3978146101ab578063f2fde38b1461013f5763fca3b5aa146100f8575f80fd5b3461013b57602036600319011261013b5761011161099f565b610119610aa1565b600880546001600160a01b0319166001600160a01b0392909216919091179055005b5f80fd5b3461013b57602036600319011261013b5761015861099f565b610160610aa1565b600680546001600160a01b0319166001600160a01b039283169081179091556005549091167f38d16b8cac22d99fc7c124b9cd0de2d3fa1faef420bfe791d8c362d765e227005f80a3005b3461013b575f36600319011261013b576006546040516001600160a01b039091168152602090f35b3461013b57604036600319011261013b576101ec61099f565b6101f46109b5565b6001600160a01b039182165f908152600160209081526040808320949093168252928352819020549051908152f35b3461013b575f36600319011261013b576007546040516001600160a01b039091168152602090f35b3461013b57602036600319011261013b5761026461099f565b61026c610aa1565b6001600160a01b03168015610297576bffffffffffffffffffffffff60a01b60075416176007555f80f35b60405162461bcd60e51b815260206004820152601360248201527257696b693a207a65726f2074696d656c6f636b60681b6044820152606490fd5b3461013b57604036600319011261013b576102f86102ee61099f565b6024359033610a0a565b602060405160018152f35b3461013b57604036600319011261013b5761031c61099f565b6024359061033560018060a01b036008541633146109cb565b6001600160a01b031680156103b457805f525f60205260405f205482811061039b576020835f947fddf252ad1be2c89b69c2b068fc378daa952ba7f163c4a11628f55a4df523b3ef938587528684520360408620558060025403600255604051908152a3005b9063391434e360e21b5f5260045260245260445260645ffd5b634b637e8f60e11b5f525f60045260245ffd5b3461013b575f36600319011261013b576040515f6004548060011c906001811680156104d8575b6020831081146104c4578285529081156104a85750600114610453575b50819003601f01601f191681019067ffffffffffffffff82118183101761043f5761043b82918260405282610975565b0390f35b634e487b7160e01b5f52604160045260245ffd5b905060045f527f8a35acfbc15ff81a39ae7d344fd709f28e8600b4aa8c65c6b64bfe7fe36bd19b5f905b8282106104925750602091508201018261040b565b600181602092548385880101520191019061047d565b90506020925060ff191682840152151560051b8201018261040b565b634e487b7160e01b5f52602260045260245ffd5b91607f16916103ee565b3461013b575f36600319011261013b576005546040516001600160a01b039091168152602090f35b3461013b575f36600319011261013b57600654336001600160a01b039091160361057d57600680546001600160a01b0319908116909155600580543392811683179091556001600160a01b03167f8be0079c531659141344cd1fd0a4f28419497f9722a3daafe3b4186f6b6457e05f80a3005b63118cdaa760e01b5f523360045260245ffd5b3461013b575f36600319011261013b576105a8610aa1565b600680546001600160a01b03199081169091556005805491821690555f906001600160a01b03167f8be0079c531659141344cd1fd0a4f28419497f9722a3daafe3b4186f6b6457e08280a3005b3461013b57602036600319011261013b576001600160a01b0361061661099f565b165f525f602052602060405f2054604051908152f35b3461013b57604036600319011261013b5761064561099f565b6024359061065e60018060a01b036008541633146109cb565b6001600160a01b03169081156106d257600254908082018092116106be5760207fddf252ad1be2c89b69c2b068fc378daa952ba7f163c4a11628f55a4df523b3ef915f9360025584845283825260408420818154019055604051908152a3005b634e487b7160e01b5f52601160045260245ffd5b63ec442f0560e01b5f525f60045260245ffd5b3461013b575f36600319011261013b57602060405160128152f35b3461013b57606036600319011261013b5761071961099f565b6107216109b5565b6001600160a01b0382165f818152600160209081526040808320338452909152902054909260443592915f19811061075f575b506102f89350610a0a565b8381106107c45784156107b157331561079e576102f8945f52600160205260405f2060018060a01b0333165f526020528360405f209103905584610754565b634a1406b160e11b5f525f60045260245ffd5b63e602df0560e01b5f525f60045260245ffd5b8390637dc7a0d960e11b5f523360045260245260445260645ffd5b3461013b575f36600319011261013b576020600254604051908152f35b3461013b57604036600319011261013b5761081561099f565b6024359033156107b1576001600160a01b031690811561079e57335f52600160205260405f20825f526020528060405f20556040519081527f8c5be1e5ebec7d5bd14f71427d1e84f3dd0314c0f7b2291e5b200ac8c7c3b92560203392a3602060405160018152f35b3461013b575f36600319011261013b576008546040516001600160a01b039091168152602090f35b3461013b575f36600319011261013b575f6003548060011c9060018116801561096b575b6020831081146104c4578285529081156104a857506001146109165750819003601f01601f191681019067ffffffffffffffff82118183101761043f5761043b82918260405282610975565b905060035f527fc2575a0e9e593c00f959f8c92f12db2869c3395a3b0502d05e2516446f71f85b5f905b8282106109555750602091508201018261040b565b6001816020925483858801015201910190610940565b91607f16916108ca565b602060409281835280519182918282860152018484015e5f828201840152601f01601f1916010190565b600435906001600160a01b038216820361013b57565b602435906001600160a01b038216820361013b57565b156109d257565b60405162461bcd60e51b815260206004820152601060248201526f39aba4a59d103737ba1036b4b73a32b960811b6044820152606490fd5b6001600160a01b03169081156103b4576001600160a01b03169182156106d257815f525f60205260405f2054818110610a8857817fddf252ad1be2c89b69c2b068fc378daa952ba7f163c4a11628f55a4df523b3ef92602092855f525f84520360405f2055845f525f825260405f20818154019055604051908152a3565b8263391434e360e21b5f5260045260245260445260645ffd5b6005546001600160a01b0316330361057d5756fea2646970667358221220af66a0357b6dbdbc345ccb46902e5270916fa02e8d8d01fdd5047444b9bb1b3e64736f6c634300081a0033",
  "linkReferences": {},
  "deployedLinkReferences": {}
}