{
  "_format": "hh-sol-artifact-1",
  "contractName": "WikiCrossChainRouter",
  "sourceName": "src/WikiCrossChainRouter.sol",
  "abi": [
    {
      "inputs": [
        {
          "internalType": "address",
          "name": "_lzEndpoint",
          "type": "address"
        },
        {
          "internalType": "address",
          "name": "_vault",
          "type": "address"
        },
        {
          "internalType": "address",
          "name": "_perp",
          "type": "address"
        },
        {
          "internalType": "address",
          "name": "_oracle",
          "type": "address"
        },
        {
          "internalType": "address",
          "name": "_usdc",
          "type": "address"
        },
        {
          "internalType": "address",
          "name": "_owner",
          "type": "address"
        }
      ],
      "stateMutability": "nonpayable",
      "type": "constructor"
    },
    {
      "inputs": [],
      "name": "EnforcedPause",
      "type": "error"
    },
    {
      "inputs": [],
      "name": "ExpectedPause",
      "type": "error"
    },
    {
      "inputs": [
        {
          "internalType": "address",
          "name": "owner",
          "type": "address"
        }
      ],
      "name": "OwnableInvalidOwner",
      "type": "error"
    },
    {
      "inputs": [
        {
          "internalType": "address",
          "name": "account",
          "type": "address"
        }
      ],
      "name": "OwnableUnauthorizedAccount",
      "type": "error"
    },
    {
      "inputs": [],
      "name": "ReentrancyGuardReentrantCall",
      "type": "error"
    },
    {
      "inputs": [
        {
          "internalType": "address",
          "name": "token",
          "type": "address"
        }
      ],
      "name": "SafeERC20FailedOperation",
      "type": "error"
    },
    {
      "anonymous": false,
      "inputs": [
        {
          "indexed": true,
          "internalType": "uint256",
          "name": "intentId",
          "type": "uint256"
        },
        {
          "indexed": false,
          "internalType": "address",
          "name": "user",
          "type": "address"
        }
      ],
      "name": "IntentCancelled",
      "type": "event"
    },
    {
      "anonymous": false,
      "inputs": [
        {
          "indexed": true,
          "internalType": "uint256",
          "name": "intentId",
          "type": "uint256"
        },
        {
          "indexed": true,
          "internalType": "address",
          "name": "user",
          "type": "address"
        },
        {
          "indexed": false,
          "internalType": "uint32",
          "name": "destEid",
          "type": "uint32"
        },
        {
          "indexed": false,
          "internalType": "bytes32",
          "name": "marketId",
          "type": "bytes32"
        },
        {
          "indexed": false,
          "internalType": "uint256",
          "name": "collateral",
          "type": "uint256"
        },
        {
          "indexed": false,
          "internalType": "bytes32",
          "name": "lzGuid",
          "type": "bytes32"
        }
      ],
      "name": "IntentCreated",
      "type": "event"
    },
    {
      "anonymous": false,
      "inputs": [
        {
          "indexed": true,
          "internalType": "uint256",
          "name": "intentId",
          "type": "uint256"
        },
        {
          "indexed": false,
          "internalType": "string",
          "name": "reason",
          "type": "string"
        }
      ],
      "name": "IntentFailed",
      "type": "event"
    },
    {
      "anonymous": false,
      "inputs": [
        {
          "indexed": true,
          "internalType": "uint256",
          "name": "intentId",
          "type": "uint256"
        },
        {
          "indexed": false,
          "internalType": "uint256",
          "name": "remotePositionId",
          "type": "uint256"
        }
      ],
      "name": "IntentFulfilled",
      "type": "event"
    },
    {
      "anonymous": false,
      "inputs": [
        {
          "indexed": true,
          "internalType": "address",
          "name": "previousOwner",
          "type": "address"
        },
        {
          "indexed": true,
          "internalType": "address",
          "name": "newOwner",
          "type": "address"
        }
      ],
      "name": "OwnershipTransferStarted",
      "type": "event"
    },
    {
      "anonymous": false,
      "inputs": [
        {
          "indexed": true,
          "internalType": "address",
          "name": "previousOwner",
          "type": "address"
        },
        {
          "indexed": true,
          "internalType": "address",
          "name": "newOwner",
          "type": "address"
        }
      ],
      "name": "OwnershipTransferred",
      "type": "event"
    },
    {
      "anonymous": false,
      "inputs": [
        {
          "indexed": false,
          "internalType": "address",
          "name": "account",
          "type": "address"
        }
      ],
      "name": "Paused",
      "type": "event"
    },
    {
      "anonymous": false,
      "inputs": [
        {
          "indexed": false,
          "internalType": "uint32",
          "name": "eid",
          "type": "uint32"
        },
        {
          "indexed": false,
          "internalType": "bytes32",
          "name": "peer",
          "type": "bytes32"
        }
      ],
      "name": "PeerSet",
      "type": "event"
    },
    {
      "anonymous": false,
      "inputs": [
        {
          "indexed": false,
          "internalType": "address",
          "name": "account",
          "type": "address"
        }
      ],
      "name": "Unpaused",
      "type": "event"
    },
    {
      "inputs": [],
      "name": "MAX_FEE",
      "outputs": [
        {
          "internalType": "uint256",
          "name": "",
          "type": "uint256"
        }
      ],
      "stateMutability": "view",
      "type": "function"
    },
    {
      "inputs": [],
      "name": "USDC",
      "outputs": [
        {
          "internalType": "contract IERC20",
          "name": "",
          "type": "address"
        }
      ],
      "stateMutability": "view",
      "type": "function"
    },
    {
      "inputs": [],
      "name": "acceptOwnership",
      "outputs": [],
      "stateMutability": "nonpayable",
      "type": "function"
    },
    {
      "inputs": [],
      "name": "bridgeFeeBps",
      "outputs": [
        {
          "internalType": "uint256",
          "name": "",
          "type": "uint256"
        }
      ],
      "stateMutability": "view",
      "type": "function"
    },
    {
      "inputs": [
        {
          "internalType": "address",
          "name": "user",
          "type": "address"
        }
      ],
      "name": "getUserIntents",
      "outputs": [
        {
          "internalType": "uint256[]",
          "name": "",
          "type": "uint256[]"
        }
      ],
      "stateMutability": "view",
      "type": "function"
    },
    {
      "inputs": [],
      "name": "intentCount",
      "outputs": [
        {
          "internalType": "uint256",
          "name": "",
          "type": "uint256"
        }
      ],
      "stateMutability": "view",
      "type": "function"
    },
    {
      "inputs": [
        {
          "internalType": "uint256",
          "name": "",
          "type": "uint256"
        }
      ],
      "name": "intents",
      "outputs": [
        {
          "internalType": "address",
          "name": "user",
          "type": "address"
        },
        {
          "internalType": "uint32",
          "name": "destEid",
          "type": "uint32"
        },
        {
          "internalType": "bytes32",
          "name": "marketId",
          "type": "bytes32"
        },
        {
          "internalType": "uint256",
          "name": "collateral",
          "type": "uint256"
        },
        {
          "internalType": "uint256",
          "name": "leverage",
          "type": "uint256"
        },
        {
          "internalType": "bool",
          "name": "isLong",
          "type": "bool"
        },
        {
          "internalType": "uint256",
          "name": "limitPrice",
          "type": "uint256"
        },
        {
          "internalType": "uint256",
          "name": "minPrice",
          "type": "uint256"
        },
        {
          "internalType": "uint256",
          "name": "maxPrice",
          "type": "uint256"
        },
        {
          "internalType": "uint256",
          "name": "takeProfitPrice",
          "type": "uint256"
        },
        {
          "internalType": "uint256",
          "name": "stopLossPrice",
          "type": "uint256"
        },
        {
          "internalType": "uint256",
          "name": "routingFee",
          "type": "uint256"
        },
        {
          "internalType": "uint256",
          "name": "createdAt",
          "type": "uint256"
        },
        {
          "internalType": "enum WikiCrossChainRouter.IntentStatus",
          "name": "status",
          "type": "uint8"
        },
        {
          "internalType": "uint256",
          "name": "remotePositionId",
          "type": "uint256"
        },
        {
          "internalType": "bytes32",
          "name": "lzGuid",
          "type": "bytes32"
        }
      ],
      "stateMutability": "view",
      "type": "function"
    },
    {
      "inputs": [],
      "name": "lzEndpoint",
      "outputs": [
        {
          "internalType": "contract ILayerZeroEndpointV5",
          "name": "",
          "type": "address"
        }
      ],
      "stateMutability": "view",
      "type": "function"
    },
    {
      "inputs": [
        {
          "components": [
            {
              "internalType": "uint32",
              "name": "srcEid",
              "type": "uint32"
            },
            {
              "internalType": "bytes32",
              "name": "sender",
              "type": "bytes32"
            },
            {
              "internalType": "uint64",
              "name": "nonce",
              "type": "uint64"
            }
          ],
          "internalType": "struct Origin",
          "name": "origin",
          "type": "tuple"
        },
        {
          "internalType": "bytes32",
          "name": "guid",
          "type": "bytes32"
        },
        {
          "internalType": "bytes",
          "name": "payload",
          "type": "bytes"
        },
        {
          "internalType": "address",
          "name": "",
          "type": "address"
        },
        {
          "internalType": "bytes",
          "name": "",
          "type": "bytes"
        }
      ],
      "name": "lzReceive",
      "outputs": [],
      "stateMutability": "nonpayable",
      "type": "function"
    },
    {
      "inputs": [
        {
          "internalType": "address",
          "name": "",
          "type": "address"
        }
      ],
      "name": "nonces",
      "outputs": [
        {
          "internalType": "uint256",
          "name": "",
          "type": "uint256"
        }
      ],
      "stateMutability": "view",
      "type": "function"
    },
    {
      "inputs": [
        {
          "internalType": "uint32",
          "name": "destEid",
          "type": "uint32"
        },
        {
          "internalType": "bytes32",
          "name": "marketId",
          "type": "bytes32"
        },
        {
          "internalType": "uint256",
          "name": "collateral",
          "type": "uint256"
        },
        {
          "internalType": "uint256",
          "name": "leverage",
          "type": "uint256"
        },
        {
          "internalType": "bool",
          "name": "isLong",
          "type": "bool"
        },
        {
          "internalType": "uint256",
          "name": "limitPrice",
          "type": "uint256"
        },
        {
          "internalType": "uint256",
          "name": "minPrice",
          "type": "uint256"
        },
        {
          "internalType": "uint256",
          "name": "maxPrice",
          "type": "uint256"
        },
        {
          "internalType": "uint256",
          "name": "takeProfitPrice",
          "type": "uint256"
        },
        {
          "internalType": "uint256",
          "name": "stopLossPrice",
          "type": "uint256"
        }
      ],
      "name": "openCrossChainPerp",
      "outputs": [
        {
          "internalType": "uint256",
          "name": "intentId",
          "type": "uint256"
        }
      ],
      "stateMutability": "payable",
      "type": "function"
    },
    {
      "inputs": [],
      "name": "oracle",
      "outputs": [
        {
          "internalType": "contract IWikiOracle",
          "name": "",
          "type": "address"
        }
      ],
      "stateMutability": "view",
      "type": "function"
    },
    {
      "inputs": [],
      "name": "owner",
      "outputs": [
        {
          "internalType": "address",
          "name": "",
          "type": "address"
        }
      ],
      "stateMutability": "view",
      "type": "function"
    },
    {
      "inputs": [],
      "name": "pause",
      "outputs": [],
      "stateMutability": "nonpayable",
      "type": "function"
    },
    {
      "inputs": [],
      "name": "paused",
      "outputs": [
        {
          "internalType": "bool",
          "name": "",
          "type": "bool"
        }
      ],
      "stateMutability": "view",
      "type": "function"
    },
    {
      "inputs": [
        {
          "internalType": "uint32",
          "name": "",
          "type": "uint32"
        }
      ],
      "name": "peers",
      "outputs": [
        {
          "internalType": "bytes32",
          "name": "",
          "type": "bytes32"
        }
      ],
      "stateMutability": "view",
      "type": "function"
    },
    {
      "inputs": [],
      "name": "pendingOwner",
      "outputs": [
        {
          "internalType": "address",
          "name": "",
          "type": "address"
        }
      ],
      "stateMutability": "view",
      "type": "function"
    },
    {
      "inputs": [],
      "name": "perp",
      "outputs": [
        {
          "internalType": "contract IWikiPerp",
          "name": "",
          "type": "address"
        }
      ],
      "stateMutability": "view",
      "type": "function"
    },
    {
      "inputs": [],
      "name": "protocolRevenue",
      "outputs": [
        {
          "internalType": "uint256",
          "name": "",
          "type": "uint256"
        }
      ],
      "stateMutability": "view",
      "type": "function"
    },
    {
      "inputs": [
        {
          "internalType": "uint32",
          "name": "destEid",
          "type": "uint32"
        },
        {
          "internalType": "bytes32",
          "name": "marketId",
          "type": "bytes32"
        },
        {
          "internalType": "uint256",
          "name": "collateral",
          "type": "uint256"
        },
        {
          "internalType": "uint256",
          "name": "leverage",
          "type": "uint256"
        },
        {
          "internalType": "bool",
          "name": "isLong",
          "type": "bool"
        }
      ],
      "name": "quoteOpen",
      "outputs": [
        {
          "internalType": "uint256",
          "name": "nativeFee",
          "type": "uint256"
        }
      ],
      "stateMutability": "view",
      "type": "function"
    },
    {
      "inputs": [],
      "name": "renounceOwnership",
      "outputs": [],
      "stateMutability": "nonpayable",
      "type": "function"
    },
    {
      "inputs": [],
      "name": "routingFeeBps",
      "outputs": [
        {
          "internalType": "uint256",
          "name": "",
          "type": "uint256"
        }
      ],
      "stateMutability": "view",
      "type": "function"
    },
    {
      "inputs": [
        {
          "internalType": "address",
          "name": "_vault",
          "type": "address"
        },
        {
          "internalType": "address",
          "name": "_perp",
          "type": "address"
        },
        {
          "internalType": "address",
          "name": "_oracle",
          "type": "address"
        }
      ],
      "name": "setContracts",
      "outputs": [],
      "stateMutability": "nonpayable",
      "type": "function"
    },
    {
      "inputs": [
        {
          "internalType": "uint256",
          "name": "_routingFeeBps",
          "type": "uint256"
        },
        {
          "internalType": "uint256",
          "name": "_bridgeFeeBps",
          "type": "uint256"
        }
      ],
      "name": "setFees",
      "outputs": [],
      "stateMutability": "nonpayable",
      "type": "function"
    },
    {
      "inputs": [
        {
          "internalType": "uint32",
          "name": "eid",
          "type": "uint32"
        },
        {
          "internalType": "bytes32",
          "name": "peer",
          "type": "bytes32"
        }
      ],
      "name": "setPeer",
      "outputs": [],
      "stateMutability": "nonpayable",
      "type": "function"
    },
    {
      "inputs": [
        {
          "internalType": "uint32[]",
          "name": "eids",
          "type": "uint32[]"
        },
        {
          "internalType": "bytes32[]",
          "name": "_peers",
          "type": "bytes32[]"
        }
      ],
      "name": "setPeers",
      "outputs": [],
      "stateMutability": "nonpayable",
      "type": "function"
    },
    {
      "inputs": [
        {
          "internalType": "address",
          "name": "_tl",
          "type": "address"
        }
      ],
      "name": "setTimelock",
      "outputs": [],
      "stateMutability": "nonpayable",
      "type": "function"
    },
    {
      "inputs": [
        {
          "internalType": "uint32",
          "name": "",
          "type": "uint32"
        }
      ],
      "name": "supportedChains",
      "outputs": [
        {
          "internalType": "bool",
          "name": "",
          "type": "bool"
        }
      ],
      "stateMutability": "view",
      "type": "function"
    },
    {
      "inputs": [],
      "name": "timelock",
      "outputs": [
        {
          "internalType": "address",
          "name": "",
          "type": "address"
        }
      ],
      "stateMutability": "view",
      "type": "function"
    },
    {
      "inputs": [
        {
          "internalType": "address",
          "name": "newOwner",
          "type": "address"
        }
      ],
      "name": "transferOwnership",
      "outputs": [],
      "stateMutability": "nonpayable",
      "type": "function"
    },
    {
      "inputs": [],
      "name": "unpause",
      "outputs": [],
      "stateMutability": "nonpayable",
      "type": "function"
    },
    {
      "inputs": [
        {
          "internalType": "address",
          "name": "",
          "type": "address"
        },
        {
          "internalType": "uint256",
          "name": "",
          "type": "uint256"
        }
      ],
      "name": "userIntents",
      "outputs": [
        {
          "internalType": "uint256",
          "name": "",
          "type": "uint256"
        }
      ],
      "stateMutability": "view",
      "type": "function"
    },
    {
      "inputs": [],
      "name": "vault",
      "outputs": [
        {
          "internalType": "contract IWikiVault",
          "name": "",
          "type": "address"
        }
      ],
      "stateMutability": "view",
      "type": "function"
    },
    {
      "inputs": [
        {
          "internalType": "address",
          "name": "to",
          "type": "address"
        }
      ],
      "name": "withdrawRevenue",
      "outputs": [],
      "stateMutability": "nonpayable",
      "type": "function"
    },
    {
      "stateMutability": "payable",
      "type": "receive"
    }
  ],
  "bytecode": "0x60c080604052346101d45760c081612509803803809161001f82856101eb565b8339810103126101d45761003281610222565b9061003f60208201610222565b61004b60408301610222565b9161005860608201610222565b61006460808301610222565b916001600160a01b039061007a9060a001610222565b169384156101d857600180546001600160a01b03199081169091555f805491821687178155604051979187916001600160a01b03909116907f8be0079c531659141344cd1fd0a4f28419497f9722a3daafe3b4186f6b6457e09080a360017f9b779b17422d0df92223018b32b4d1fa46e071723d6817e2486d003becc55f0055600f600b55600a600c556001600160a01b039081166080819052600580549683166001600160a01b031997881617905560068054938316938716939093179092556007805493821693909516929092179093551660a052803b156101d4576024835f8193819563ca5eb5e160e01b845260048401525af180156101c9576101b9575b6040516122d2908161023782396080518181816103ff015281816105e501528181610e5b015261162b015260a05181818161073d015261098d0152f35b5f6101c3916101eb565b5f61017c565b6040513d5f823e3d90fd5b5f80fd5b631e4fbdf760e01b5f525f60045260245ffd5b601f909101601f19168101906001600160401b0382119082101761020e57604052565b634e487b7160e01b5f52604160045260245ffd5b51906001600160a01b03821682036101d45756fe6080604052600436101561001a575b3615610018575f80fd5b005b5f803560e01c80630b78f9c014611e225780630cdf900814611e0557806313137d65146115b9578063248514dd1461157f5780633400288b146114e65780633772df58146113ae57806339b282cb14610be55780633f4ba83a14610b7557806346a1a09514610a5f5780634f6aa42b14610a415780635c975abb14610a1b5780635e420f4c1461093b578063715018a6146108d657806379ba50971461084f5780637af3816c146108315780637dc0d1d0146108085780637ecebe00146107cf5780638456cb591461076c57806389a302711461072757806389c9c3ae146106d05780638da5cb5b146106a9578063b3066d4914610614578063b353aaa7146105cf578063bb0b6a531461059a578063bc063e1a1461057e578063bdacb303146104fc578063bfa4c00c146104d3578063c1097769146104b5578063d33219b41461048c578063dd8d426b14610311578063e30c3978146102e8578063f2fde38b1461027b578063fa3209b2146101c65763fbfa77cf1461019b575061000e565b346101c357806003193601126101c3576005546040516001600160a01b039091168152602090f35b80fd5b50346101c35760203660031901126101c3576001600160a01b036101e8611ed9565b168152600960205260408120604051908160208254918281520190819285526020852090855b8181106102655750505082610224910383611ffd565b604051928392602084019060208552518091526040840192915b81811061024c575050500390f35b825184528594506020938401939092019160010161023e565b825484526020909301926001928301920161020e565b50346101c35760203660031901126101c357610295611ed9565b61029d612141565b600180546001600160a01b0319166001600160a01b0392831690811790915582549091167f38d16b8cac22d99fc7c124b9cd0de2d3fa1faef420bfe791d8c362d765e227008380a380f35b50346101c357806003193601126101c3576001546040516001600160a01b039091168152602090f35b50346101c35760a03660031901126101c3576103fb6040610330611eef565b63ffffffff61033d611f32565b91835192600160208501525f858501526024356060850152604435608085015260643560a0850152151560c08401525f60e08401525f6101008401525f6101208401525f6101408401525f6101608401525f61018084015261018083526103a66101a084611ffd565b1690818552600360205282852054906103bd612257565b918451936103ca85611fe2565b84526020840152838301526060820152836080820152815180938192631bb8518b60e31b83523090600484016120d3565b03817f00000000000000000000000000000000000000000000000000000000000000006001600160a01b03165afa908115610481578291610443575b60208251604051908152f35b905060403d60401161047a575b61045a8183611ffd565b8101916040828403126101c357506020916104749161201e565b5f610437565b503d610450565b6040513d84823e3d90fd5b50346101c357806003193601126101c3576002546040516001600160a01b039091168152602090f35b50346101c357806003193601126101c3576020600b54604051908152f35b50346101c357806003193601126101c3576006546040516001600160a01b039091168152602090f35b50346101c35760203660031901126101c357610516611ed9565b61051e612141565b6001600160a01b03168015610543576001600160601b0360a01b600254161760025580f35b60405162461bcd60e51b815260206004820152601360248201527257696b693a207a65726f2074696d656c6f636b60681b6044820152606490fd5b50346101c357806003193601126101c357602060405160648152f35b50346101c35760203660031901126101c357604060209163ffffffff6105be611eef565b168152600383522054604051908152f35b50346101c357806003193601126101c3576040517f00000000000000000000000000000000000000000000000000000000000000006001600160a01b03168152602090f35b50346101c35760603660031901126101c35761062e611ed9565b6024356001600160a01b038116908190036106a5576044356001600160a01b03811692908390036106a557610661612141565b60018060a01b03166001600160601b0360a01b60055416176005556001600160601b0360a01b60065416176006556001600160601b0360a01b600754161760075580f35b5f80fd5b50346101c357806003193601126101c357546040516001600160a01b039091168152602090f35b50346101c35760403660031901126101c3576106ea611ed9565b6001600160a01b03168152600960205260408120805460243592908310156101c35760206107188484611f7e565b90549060031b1c604051908152f35b50346101c357806003193601126101c3576040517f00000000000000000000000000000000000000000000000000000000000000006001600160a01b03168152602090f35b50346101c357806003193601126101c357610785612141565b61078d612214565b6001805460ff60a01b1916600160a01b1790556040513381527f62e78cea01bee320cd4e420270b5ea74000d11b0c9f74754ebdbfc544b05a25890602090a180f35b50346101c35760203660031901126101c3576020906040906001600160a01b036107f7611ed9565b168152600a83522054604051908152f35b50346101c357806003193601126101c3576007546040516001600160a01b039091168152602090f35b50346101c357806003193601126101c3576020600d54604051908152f35b50346101c357806003193601126101c357600154336001600160a01b03909116036108c357600180546001600160a01b03199081169091555f805433928116831782556001600160a01b0316907f8be0079c531659141344cd1fd0a4f28419497f9722a3daafe3b4186f6b6457e09080a380f35b63118cdaa760e01b815233600452602490fd5b50346101c357806003193601126101c3576108ef612141565b600180546001600160a01b03199081169091555f80549182168155906001600160a01b03167f8be0079c531659141344cd1fd0a4f28419497f9722a3daafe3b4186f6b6457e08280a380f35b50346101c35760203660031901126101c357610955611ed9565b61095d612141565b610965612167565b600d80549083905560405163a9059cbb60e01b84526001600160a01b039092166004526024527f00000000000000000000000000000000000000000000000000000000000000009060208360448180865af19060018451148216156109fb575b50156109e0575060015f8051602061227d8339815191525580f35b635274afe760e01b82526001600160a01b0316600452602490fd5b6001821516610a135750813b15153d1516165f6109c5565b3d84823e3d90fd5b50346101c357806003193601126101c357602060ff60015460a01c166040519015158152f35b50346101c357806003193601126101c3576020600c54604051908152f35b50346101c35760203660031901126101c357600435600854811015610b7157610a8790611f4e565b50805460018201549160028101546003820154600483015460ff16600584015460068501546007860154600887015491600988015493600a89015495600b8a015497600c8b015460ff1699600d8c01549b600e01549c6040519e8f91600160a01b600190038116835260a01c63ffffffff16602083015260408201526060015260808d0152151560a08c015260c08b015260e08a01526101008901526101208801526101408701526101608601526101808501526004811015610b5d5761020094506101a08401526101c08301526101e0820152f35b634e487b7160e01b85526021600452602485fd5b5080fd5b50346101c357806003193601126101c357610b8e612141565b60015460ff8160a01c1615610bd65760ff60a01b19166001556040513381527f5db9ee0a495bf2e6ff9c91a7834c1ba4fdd244a5e8aa4e537bd38aeae4b073aa90602090a180f35b638dfc202b60e01b8252600482fd5b506101403660031901126101c357610bfb611eef565b90610c04611f32565b9160a4359060c435610c14612167565b610c1c612214565b63ffffffff82168452600460205260ff604085205416156113695760443515611324576001606435101580611316575b156112d15760055460405163d8102dd360e01b81523360048201526001600160a01b039091169390602081602481885afa9081156112c6578691611294575b506044351161124f57610ca3600b54600c5490611f93565b9081604435029160443583040361123b5760405163d8102dd360e01b8152336004820152602081602481895afa9081156111b5578791611209575b50610cef6127108404604435611f93565b116111c45760085494610d086127108404604435611f93565b813b156111c05760405163a5bce37960e01b815233600482015260248101919091529087908290604490829084905af180156111b557879061119a575b5050610d576127108304600d54611f93565b600d55338652600a60205260408620805497905f19891461118657886080916001610e5698999a9b019055604051906001602083015233604083015260243560608301526044358383015260643560a083015283151560c08301528460e08301528661010083015260e43561012083015261010435610140830152610124356101608301526101808201526101808152610df36101a082611ffd565b63ffffffff88168a52600360205260408a205490610e0f612257565b9060405192610e1d84611fe2565b63ffffffff8b1684526020840152604083015260608201528982820152604051809781926302637a4560e41b83523390600484016120d3565b0381347f00000000000000000000000000000000000000000000000000000000000000006001600160a01b03165af194851561117b57889561114a575b5084519360405193846102008101106001600160401b0361020087011117611136576102008501604052338552602085019563ffffffff8916875260408601906024358252612710606088019360443585526080890195606435875260a08a01971515885260c08a0198895260e08a015260e4356101008a0152610104356101208a0152610124356101408a015204610160880152426101808801528b6101a08801528b6101c08801526101e0870152600854600160401b81101561112257806001610f629201600855611f4e565b97909761110e5786518854915163ffffffff60a01b60a09190911b166001600160a01b039091166001600160c01b0319909216919091171787555160018701555160028601555160038501555160048401805460ff191691151560ff1691909117905551600583015560e08101516006830155610100810151600783015561012081015160088301556101408101516009830155610160810151600a830155610180810151600b830155600c82016101a082015160048110156110fa57916101e091600e9360ff801983541691161790556101c0810151600d8501550151910155338452600960205260408420805494600160401b8610156110e6575084611071916001602097018155611f7e565b81549060031b9085821b915f19901b19161790555163ffffffff604051921682526024358483015260443560408301526060820152817fe6df3633e80207c17c0eb3584474543407f972141606d3e62328e636b416021360803393a360015f8051602061227d83398151915255604051908152f35b634e487b7160e01b81526041600452602490fd5b634e487b7160e01b88526021600452602488fd5b634e487b7160e01b8c5260048c905260248cfd5b634e487b7160e01b8c52604160045260248cfd5b634e487b7160e01b5f52604160045260245ffd5b61116d91955060803d608011611174575b6111658183611ffd565b810190612056565b935f610e93565b503d61115b565b6040513d8a823e3d90fd5b634e487b7160e01b88526011600452602488fd5b6111a391611ffd565b855f126111b1575f86610d45565b8580fd5b6040513d89823e3d90fd5b8780fd5b60405162461bcd60e51b815260206004820152601c60248201527f526f757465723a20696e73756666696369656e7420666f7220666565000000006044820152606490fd5b90506020813d602011611233575b8161122460209383611ffd565b810103126106a557515f610cde565b3d9150611217565b634e487b7160e01b86526011600452602486fd5b60405162461bcd60e51b815260206004820152601b60248201527f526f757465723a20696e73756666696369656e74206d617267696e00000000006044820152606490fd5b90506020813d6020116112be575b816112af60209383611ffd565b810103126106a557515f610c8b565b3d91506112a2565b6040513d88823e3d90fd5b60405162461bcd60e51b815260206004820152601d60248201527f526f757465723a206d6178206c657665726167652069732032303030780000006044820152606490fd5b506107d06064351115610c4c565b60405162461bcd60e51b815260206004820152601760248201527f526f757465723a207a65726f20636f6c6c61746572616c0000000000000000006044820152606490fd5b60405162461bcd60e51b815260206004820152601b60248201527f526f757465723a20636861696e206e6f7420737570706f7274656400000000006044820152606490fd5b50346101c35760403660031901126101c3576004356001600160401b038111610b71576113df903690600401611f02565b6024356001600160401b0381116114e2576113fe903690600401611f02565b9091611408612141565b845b818110611415578580f35b806114236001928587611fd2565b3563ffffffff61143c61143784878b611fd2565b611fb3565b1688526003602052604088205561148a611457828688611fd2565b35151563ffffffff61146d61143785888c611fd2565b1689526004602052604089209060ff801983541691151516179055565b7f238399d427b947898edb290f5ff0f9109849b1c3ba196a42e35f00c50a54b98b6114b961143783868a611fd2565b6114c4838789611fd2565b6040805163ffffffff9390931683529035602083015290a10161140a565b8380fd5b50346101c35760403660031901126101c3577f238399d427b947898edb290f5ff0f9109849b1c3ba196a42e35f00c50a54b98b611521611eef565b6024359061152d612141565b63ffffffff8116808552600360205282604086205584526004602052611564821515604086209060ff801983541691151516179055565b6040805163ffffffff9290921682526020820192909252a180f35b50346101c35760203660031901126101c35760ff604060209263ffffffff6115a5611eef565b168152600484522054166040519015158152f35b346106a557366003190160e081126106a5576060136106a5576064356084356001600160401b0381116106a5576115f4903690600401611e96565b6115ff929192611ec3565b5060c4356001600160401b0381116106a55761161f903690600401611e96565b5050611629612167565b7f00000000000000000000000000000000000000000000000000000000000000006001600160a01b03169233849003611dc05763ffffffff611669611fa0565b165f52600360205260405f205460243503611d8457816020116106a5576020810160ff61169583611fc4565b16600181036119635750610180826116ab611fa0565b94810103126106a5576116bd82611fc4565b50356001600160a01b038116908190036106a5576020906101446116e360a08501611f41565b915f60018060a01b036006541661014060405197889687956381c27c6b60e01b875260048701526040820135602487015260608201356044870152608082013560648701521515608486015260c081013560a486015260e081013560c486015261010081013560e486015261012081013561010486015201356101248401525af15f918161192f575b506118bc57506001925f60033d116118ac575b6308c379a0146117b0575b5050506117a5575b60015f8051602061227d83398151915255005b6040513d5f823e3d90fd5b6117b861219f565b806117c4575b5061178a565b60809293945090611876916118125f966118046040519384926003602085015260408401525f60608401525f8884015260a08084015260c08301906120af565b03601f198101835282611ffd565b63ffffffff4760011c951690815f52600360205260405f205490611834612232565b916040519361184285611fe2565b84526020840152604083015260608201525f848201526040519485809481936302637a4560e41b83523090600484016120d3565b03925af180156117a55761188d575b8080806117be565b6118a59060803d608011611174576111658183611ffd565b5081611885565b5060045f803e5f5160e01c61177f565b926080926118fb929460405191600360208401526040830152606082015260018482015260a0808201525f60c082015260c0815261181260e082611ffd565b03925af180156117a557611910575b50611792565b6119289060803d608011611174576111658183611ffd565b508061190a565b9091506020813d60201161195b575b8161194b60209383611ffd565b810103126106a55751908561176c565b3d915061193e565b90945090925060038103611bb1575081019160a0828403126106a55761198882611fc4565b50359160408201359161199d60608201611f41565b906080810135906001600160401b0382116106a5570182601f820112156106a5578035906001600160401b03821161113657604051936119e7601f8401601f191660200186611ffd565b828552602083830101116106a557815f92602080930183870137840101525f5b600854811015611ba75784600e611a1d83611f4e565b5001541480611b72575b611a3357600101611a07565b935015611a92575060207f9735ea1e74c454e43df41f8bc858af065629bb8ce8fdfc4f378422a2e4781c2891600c611a6a85611f4e565b5001805460ff1916600117905580600d611a8386611f4e565b500155604051908152a2611792565b9050600c611a9f83611f4e565b5001805460ff191660031790556005546001600160a01b031690611ac283611f4e565b50546001600160a01b03166002611ad885611f4e565b500154833b156106a557604051639101e5b360e01b81526001600160a01b039290921660048301526024820152915f908390604490829084905af19081156117a5577f7c4fb5d28096453690d940d480898de087affc214a211f83e9a3eb79a47e34f792611b5a92611b62575b506040519182916020835260208301906120af565b0390a2611792565b5f611b6c91611ffd565b84611b45565b5060ff600c611b8083611f4e565b500154166004811015611b935715611a27565b634e487b7160e01b5f52602160045260245ffd5b5050505050611792565b919291600414611bc4575b505050611792565b82608091611bd0611fa0565b50810103126106a557611be282611fc4565b5035611bf5606060408401359301611f41565b5f5b600854811015611d7b5782600e611c0d83611f4e565b50015414611c1d57600101611bf7565b915015611cb9576005546001600160a01b031691611c5c906002611c54611c4385611f4e565b50546001600160a01b031694611f4e565b500154611f93565b823b156106a557604051639101e5b360e01b81526001600160a01b039290921660048301526024820152905f908290604490829084905af180156117a557611ca9575b505b808080611bbc565b5f611cb391611ffd565b80611c9f565b6002611cc482611f4e565b5001548210611cd5575b5050611ca1565b6005546001600160a01b0316916002611d01611cf084611f4e565b50546001600160a01b031693611f4e565b500154908103908111611d6757823b156106a557604051639101e5b360e01b81526001600160a01b039290921660048301526024820152905f908290604490829084905af180156117a557611d57575b80611cce565b5f611d6191611ffd565b80611d51565b634e487b7160e01b5f52601160045260245ffd5b50505050611ca1565b60405162461bcd60e51b81526020600482015260146024820152732937baba32b91d103ab735b737bbb7103832b2b960611b6044820152606490fd5b60405162461bcd60e51b815260206004820152601760248201527f526f757465723a206e6f74204c5a20656e64706f696e740000000000000000006044820152606490fd5b346106a5575f3660031901126106a5576020600854604051908152f35b346106a55760403660031901126106a557602435600435611e41612141565b6064611e4d8383611f93565b11611e5a57600b55600c55005b60405162461bcd60e51b81526020600482015260146024820152730a4deeae8cae47440cccaca40e8dede40d0d2ced60631b6044820152606490fd5b9181601f840112156106a5578235916001600160401b0383116106a557602083818601950101116106a557565b60a435906001600160a01b03821682036106a557565b600435906001600160a01b03821682036106a557565b6004359063ffffffff821682036106a557565b9181601f840112156106a5578235916001600160401b0383116106a5576020808501948460051b0101116106a557565b6084359081151582036106a557565b359081151582036106a557565b600854811015611f6a5760085f52600f60205f20910201905f90565b634e487b7160e01b5f52603260045260245ffd5b8054821015611f6a575f5260205f2001905f90565b91908201809211611d6757565b60043563ffffffff811681036106a55790565b3563ffffffff811681036106a55790565b359060ff821682036106a557565b9190811015611f6a5760051b0190565b60a081019081106001600160401b0382111761113657604052565b90601f801991011681019081106001600160401b0382111761113657604052565b91908260409103126106a557604051604081018181106001600160401b03821117611136576040526020808294805184520151910152565b6080818303126106a55760405191606083018381106001600160401b03821117611136576040528151835260208201516001600160401b03811681036106a55760208401526120a79160400161201e565b604082015290565b805180835260209291819084018484015e5f828201840152601f01601f1916010190565b906020909392936040835263ffffffff81511660408401528181015160608401526080612127612111604084015160a08488015260e08701906120af565b6060840151868203603f190160a08801526120af565b910151151560c08401526001600160a01b03909416910152565b5f546001600160a01b0316330361215457565b63118cdaa760e01b5f523360045260245ffd5b60025f8051602061227d83398151915254146121905760025f8051602061227d83398151915255565b633ee5aeb560e01b5f5260045ffd5b5f60443d10612203576040513d600319016004823e8051913d60248401116001600160401b0384111761220e57828201928351916001600160401b038311612206573d84016003190185840160200111612206575061220392910160200190611ffd565b90565b949350505050565b92915050565b60ff60015460a01c1661222357565b63d93c066560e01b5f5260045ffd5b604051600160f01b6020820152620186a0602282015260228152612203604282611ffd565b604051600160f01b6020820152620493e0602282015260228152612203604282611ffd56fe9b779b17422d0df92223018b32b4d1fa46e071723d6817e2486d003becc55f00a2646970667358221220e70be1f170fe6c7b0022390a069229ac8aea4b683928ad595cea89e98b3f05ee64736f6c634300081a0033",
  "linkReferences": {},
  "deployedLinkReferences": {}
}