{
  "_format": "hh-sol-artifact-1",
  "contractName": "WikiIndexPerp",
  "sourceName": "src/WikiIndexPerp.sol",
  "abi": [
    {
      "inputs": [
        {
          "internalType": "address",
          "name": "_oracle",
          "type": "address"
        },
        {
          "internalType": "address",
          "name": "_owner",
          "type": "address"
        }
      ],
      "stateMutability": "nonpayable",
      "type": "constructor"
    },
    {
      "inputs": [
        {
          "internalType": "address",
          "name": "owner",
          "type": "address"
        }
      ],
      "name": "OwnableInvalidOwner",
      "type": "error"
    },
    {
      "inputs": [
        {
          "internalType": "address",
          "name": "account",
          "type": "address"
        }
      ],
      "name": "OwnableUnauthorizedAccount",
      "type": "error"
    },
    {
      "inputs": [],
      "name": "ReentrancyGuardReentrantCall",
      "type": "error"
    },
    {
      "anonymous": false,
      "inputs": [
        {
          "indexed": true,
          "internalType": "uint256",
          "name": "id",
          "type": "uint256"
        },
        {
          "indexed": false,
          "internalType": "uint256",
          "name": "componentIdx",
          "type": "uint256"
        },
        {
          "indexed": false,
          "internalType": "uint256",
          "name": "newWeight",
          "type": "uint256"
        }
      ],
      "name": "ComponentUpdated",
      "type": "event"
    },
    {
      "anonymous": false,
      "inputs": [
        {
          "indexed": true,
          "internalType": "uint256",
          "name": "id",
          "type": "uint256"
        },
        {
          "indexed": false,
          "internalType": "string",
          "name": "symbol",
          "type": "string"
        },
        {
          "indexed": false,
          "internalType": "bytes32",
          "name": "marketId",
          "type": "bytes32"
        }
      ],
      "name": "IndexCreated",
      "type": "event"
    },
    {
      "anonymous": false,
      "inputs": [
        {
          "indexed": true,
          "internalType": "uint256",
          "name": "id",
          "type": "uint256"
        },
        {
          "indexed": false,
          "internalType": "uint256",
          "name": "price",
          "type": "uint256"
        },
        {
          "indexed": false,
          "internalType": "uint256",
          "name": "timestamp",
          "type": "uint256"
        }
      ],
      "name": "IndexPriceUpdated",
      "type": "event"
    },
    {
      "anonymous": false,
      "inputs": [
        {
          "indexed": true,
          "internalType": "address",
          "name": "previousOwner",
          "type": "address"
        },
        {
          "indexed": true,
          "internalType": "address",
          "name": "newOwner",
          "type": "address"
        }
      ],
      "name": "OwnershipTransferStarted",
      "type": "event"
    },
    {
      "anonymous": false,
      "inputs": [
        {
          "indexed": true,
          "internalType": "address",
          "name": "previousOwner",
          "type": "address"
        },
        {
          "indexed": true,
          "internalType": "address",
          "name": "newOwner",
          "type": "address"
        }
      ],
      "name": "OwnershipTransferred",
      "type": "event"
    },
    {
      "inputs": [],
      "name": "BPS",
      "outputs": [
        {
          "internalType": "uint256",
          "name": "",
          "type": "uint256"
        }
      ],
      "stateMutability": "view",
      "type": "function"
    },
    {
      "inputs": [],
      "name": "MAX_COMPONENTS",
      "outputs": [
        {
          "internalType": "uint256",
          "name": "",
          "type": "uint256"
        }
      ],
      "stateMutability": "view",
      "type": "function"
    },
    {
      "inputs": [],
      "name": "PRECISION",
      "outputs": [
        {
          "internalType": "uint256",
          "name": "",
          "type": "uint256"
        }
      ],
      "stateMutability": "view",
      "type": "function"
    },
    {
      "inputs": [],
      "name": "acceptOwnership",
      "outputs": [],
      "stateMutability": "nonpayable",
      "type": "function"
    },
    {
      "inputs": [
        {
          "internalType": "uint256",
          "name": "id",
          "type": "uint256"
        }
      ],
      "name": "computeIndexPrice",
      "outputs": [
        {
          "internalType": "uint256",
          "name": "price",
          "type": "uint256"
        }
      ],
      "stateMutability": "view",
      "type": "function"
    },
    {
      "inputs": [
        {
          "internalType": "string",
          "name": "name",
          "type": "string"
        },
        {
          "internalType": "string",
          "name": "symbol",
          "type": "string"
        },
        {
          "internalType": "string[]",
          "name": "componentSymbols",
          "type": "string[]"
        },
        {
          "internalType": "bytes32[]",
          "name": "oracleIds",
          "type": "bytes32[]"
        },
        {
          "internalType": "uint256[]",
          "name": "weightsBps",
          "type": "uint256[]"
        },
        {
          "internalType": "uint256",
          "name": "maxLeverage",
          "type": "uint256"
        },
        {
          "internalType": "uint256",
          "name": "takerFeeBps",
          "type": "uint256"
        }
      ],
      "name": "createIndex",
      "outputs": [
        {
          "internalType": "uint256",
          "name": "id",
          "type": "uint256"
        }
      ],
      "stateMutability": "nonpayable",
      "type": "function"
    },
    {
      "inputs": [
        {
          "internalType": "uint256",
          "name": "id",
          "type": "uint256"
        }
      ],
      "name": "getComponents",
      "outputs": [
        {
          "components": [
            {
              "internalType": "bytes32",
              "name": "oracleId",
              "type": "bytes32"
            },
            {
              "internalType": "string",
              "name": "symbol",
              "type": "string"
            },
            {
              "internalType": "uint256",
              "name": "weightBps",
              "type": "uint256"
            }
          ],
          "internalType": "struct WikiIndexPerp.Component[]",
          "name": "",
          "type": "tuple[]"
        }
      ],
      "stateMutability": "view",
      "type": "function"
    },
    {
      "inputs": [
        {
          "internalType": "uint256",
          "name": "id",
          "type": "uint256"
        }
      ],
      "name": "getIndex",
      "outputs": [
        {
          "internalType": "string",
          "name": "name",
          "type": "string"
        },
        {
          "internalType": "string",
          "name": "symbol",
          "type": "string"
        },
        {
          "internalType": "bytes32",
          "name": "marketId",
          "type": "bytes32"
        },
        {
          "internalType": "uint256",
          "name": "lastPrice",
          "type": "uint256"
        },
        {
          "internalType": "uint256",
          "name": "lastUpdate",
          "type": "uint256"
        },
        {
          "internalType": "bool",
          "name": "active",
          "type": "bool"
        }
      ],
      "stateMutability": "view",
      "type": "function"
    },
    {
      "inputs": [
        {
          "internalType": "bytes32",
          "name": "marketId",
          "type": "bytes32"
        }
      ],
      "name": "getIndexPrice",
      "outputs": [
        {
          "internalType": "uint256",
          "name": "price",
          "type": "uint256"
        },
        {
          "internalType": "uint256",
          "name": "updatedAt",
          "type": "uint256"
        }
      ],
      "stateMutability": "view",
      "type": "function"
    },
    {
      "inputs": [],
      "name": "indexCount",
      "outputs": [
        {
          "internalType": "uint256",
          "name": "",
          "type": "uint256"
        }
      ],
      "stateMutability": "view",
      "type": "function"
    },
    {
      "inputs": [
        {
          "internalType": "uint256",
          "name": "",
          "type": "uint256"
        }
      ],
      "name": "indices",
      "outputs": [
        {
          "internalType": "string",
          "name": "name",
          "type": "string"
        },
        {
          "internalType": "string",
          "name": "symbol",
          "type": "string"
        },
        {
          "internalType": "bytes32",
          "name": "marketId",
          "type": "bytes32"
        },
        {
          "internalType": "uint256",
          "name": "lastPrice",
          "type": "uint256"
        },
        {
          "internalType": "uint256",
          "name": "lastUpdate",
          "type": "uint256"
        },
        {
          "internalType": "uint256",
          "name": "maxLeverage",
          "type": "uint256"
        },
        {
          "internalType": "uint256",
          "name": "makerFeeBps",
          "type": "uint256"
        },
        {
          "internalType": "uint256",
          "name": "takerFeeBps",
          "type": "uint256"
        },
        {
          "internalType": "bool",
          "name": "active",
          "type": "bool"
        }
      ],
      "stateMutability": "view",
      "type": "function"
    },
    {
      "inputs": [
        {
          "internalType": "bytes32",
          "name": "",
          "type": "bytes32"
        }
      ],
      "name": "marketIdToIndex",
      "outputs": [
        {
          "internalType": "uint256",
          "name": "",
          "type": "uint256"
        }
      ],
      "stateMutability": "view",
      "type": "function"
    },
    {
      "inputs": [],
      "name": "oracle",
      "outputs": [
        {
          "internalType": "address",
          "name": "",
          "type": "address"
        }
      ],
      "stateMutability": "view",
      "type": "function"
    },
    {
      "inputs": [],
      "name": "owner",
      "outputs": [
        {
          "internalType": "address",
          "name": "",
          "type": "address"
        }
      ],
      "stateMutability": "view",
      "type": "function"
    },
    {
      "inputs": [],
      "name": "pendingOwner",
      "outputs": [
        {
          "internalType": "address",
          "name": "",
          "type": "address"
        }
      ],
      "stateMutability": "view",
      "type": "function"
    },
    {
      "inputs": [],
      "name": "perpRegistry",
      "outputs": [
        {
          "internalType": "address",
          "name": "",
          "type": "address"
        }
      ],
      "stateMutability": "view",
      "type": "function"
    },
    {
      "inputs": [],
      "name": "renounceOwnership",
      "outputs": [],
      "stateMutability": "nonpayable",
      "type": "function"
    },
    {
      "inputs": [
        {
          "internalType": "uint256",
          "name": "id",
          "type": "uint256"
        },
        {
          "internalType": "bool",
          "name": "active",
          "type": "bool"
        }
      ],
      "name": "setIndexActive",
      "outputs": [],
      "stateMutability": "nonpayable",
      "type": "function"
    },
    {
      "inputs": [
        {
          "internalType": "address",
          "name": "_oracle",
          "type": "address"
        }
      ],
      "name": "setOracle",
      "outputs": [],
      "stateMutability": "nonpayable",
      "type": "function"
    },
    {
      "inputs": [
        {
          "internalType": "address",
          "name": "newOwner",
          "type": "address"
        }
      ],
      "name": "transferOwnership",
      "outputs": [],
      "stateMutability": "nonpayable",
      "type": "function"
    },
    {
      "inputs": [
        {
          "internalType": "uint256",
          "name": "id",
          "type": "uint256"
        }
      ],
      "name": "updatePrice",
      "outputs": [
        {
          "internalType": "uint256",
          "name": "price",
          "type": "uint256"
        }
      ],
      "stateMutability": "nonpayable",
      "type": "function"
    }
  ],
  "bytecode": "0x60806040523461099757611ead6040813803918261001c816109ce565b93849283398101031261099757610032816109f3565b906001600160a01b0390610048906020016109f3565b1690811561098457600180546001600160a01b03199081169091555f80549182168417815560405193916001600160a01b0316907f8be0079c531659141344cd1fd0a4f28419497f9722a3daafe3b4186f6b6457e09080a360017f9b779b17422d0df92223018b32b4d1fa46e071723d6817e2486d003becc55f00556001600160a01b031690811561094d5750600380546001600160a01b0319169190911790556100f1610a07565b5050600254156108d95760025f525f80516020611e6d833981519152805461011890610a3e565b601f811161092d575b50601469088ca8cd24092dcc8caf60b31b0181556001810161014c6101468254610a3e565b82610a8c565b600a64574445464960d81b01905561036c600360028301927f675c7a958d6ca1faa865df501a96b08de71bcc92fda14cd9bc27eb4c0998c6898455603260068201556006600882015560098101600160ff19825416179055016102046101b061099b565b7f9e6266a76df39a05a79ea6566fb4780787a70d8bd92ac5e8d5227ee526d2055481526101dd60406109ce565b60078152661553925554d11560ca1b602082015260208201526109c4604082015282610ab4565b61026461020f61099b565b7f029ff4e5b838907c663ddd7b03d9a7f56b1d8cb32cfc0662c37f2632c64b52a4815261023c60406109ce565b6008815267105055915554d11560c21b602082015260208201526107d0604082015282610ab4565b6102c461026f61099b565b7f694cad6038bcbefcc30e11862e412bb58f9c4ac3c9e0f9ed02d3e38b16829263815261029c60406109ce565b600881526713125392d554d11560c21b602082015260208201526107d0604082015282610ab4565b6103236102cf61099b565b7fc00099e38e178a7a4e6b93e7d56c71d98b62edf2793151c14035f7e0a583c3d981526102fc60406109ce565b600781526611d3561554d11560ca1b602082015260208201526105dc604082015282610ab4565b61032b61099b565b905f80516020611e8d833981519152825261034660406109ce565b60078152661054909554d11560ca1b602082015260208301526107d06040830152610ab4565b80545f526005602052600160405f2055610384610a07565b5050600254600110156108d95760025f527f405787fa12a823e0f2b7631cc41b3ba8828b3321ca811111fa75cd3aa3bb5ad880545f80516020611e6d8339815191529291906103d290610a3e565b601f811161090d575b507f4c61796572203220496e6465780000000000000000000000000000000000001a9055600b8201805461040e90610a3e565b601f81116108ed575b506006622ba61960e91b0190557ff6f3e575fdb9dab79a319d470932b81f5db0cb8b237a5af7870280e516e26b8e600c8301908155603260108401556006601284015560138301805460ff191660011790559161057990600d016104bd61047c61099b565b5f80516020611e8d833981519152815261049660406109ce565b60078152661054909554d11560ca1b60208201526020820152610fa0604082015282610ab4565b61051b6104c861099b565b7f2316c275dd635566dd979f717711dcb9fef72e5b70bb46b28ed03958eb7a0e8581526104f560406109ce565b600681526513d41554d11560d21b60208201526020820152610bb8604082015282610ab4565b61052361099b565b907fd5b67be12fa25da57dfa9e287e2288a1e4be5e5f7d85e09178ea507d602485c4825261055160406109ce565b60098152681350551250d554d11560ba1b60208201526020830152610bb86040830152610ab4565b81545f526005602052600260405f2055610591610a07565b5050600254600210156108d95760807ff9414eb6b3fc29c1f48f44c75c8d5c1801f504118fa999dd3fed8d2902ad4a3f9160018383600296875f525f83836020832097601489016105e28154610a3e565b601f81116108ba575b5060186b546f7020352043727970746f60a01b019055601589016106126101468254610a3e565b600a6457544f503560d81b0190557f472448f340c4072ef62bc06a78ec3dc30ecfa2aaaac226cf4814b67518f3458b60168a019081556064601a8b01556005601c8b0155601d8a01805460ff19168a17905598610831906017016106cb61067761099b565b7f7404e3d104ea7841c3d9e6fd20adfe99b4ad586bc08d8f3bd3afef894cf184de81526106a460406109ce565b6007815266109510d554d11560ca1b60208201526020820152610fa0604082015282610ab4565b61072a6106d661099b565b7f59102b37de83bdda9f38ac8254e596f0d9ac61d2035c07936675e87342817160815261070360406109ce565b60078152661155121554d11560ca1b60208201526020820152610bb8604082015282610ab4565b61078961073561099b565b7f1bc6d6279e196b1fa7b94a792d57a47433858940c1b3500f2a5e69640cd12ef4815261076260406109ce565b60078152661093909554d11560ca1b602082015260208201526105dc604082015282610ab4565b6107e861079461099b565b7f1dcd89dfded9e8a9b0fa1745a8ebbacbb7c81e33d5abc81616633206d932e83781526107c160406109ce565b600781526614d3d31554d11560ca1b602082015260208201526103e8604082015282610ab4565b6107f061099b565b905f80516020611e8d833981519152825261080b60406109ce565b60078152661054909554d11560ca1b602082015260208301526101f46040830152610ab4565b885484526005602052600360408520555460405190604082526005604083015264574445464960d81b60608301526020820152a254604051906040825260036040830152622ba61960e91b60608301526020820152a2546040519060408252600560408301526457544f503560d81b60608301526020820152a26040516112709081610bfd8239f35b818652602086206108d391601f0160051c810190610a76565b5f6105eb565b634e487b7160e01b5f52603260045260245ffd5b61090790825f52601f60205f20910160051c810190610a76565b5f610417565b61092790825f52601f60205f20910160051c810190610a76565b5f6103db565b61094790825f52601f60205f20910160051c810190610a76565b5f610121565b62461bcd60e51b815260206004820152601260248201527157696b693a207a65726f205f6f7261636c6560701b6044820152606490fd5b631e4fbdf760e01b5f525f60045260245ffd5b5f80fd5b60405190606082016001600160401b038111838210176109ba57604052565b634e487b7160e01b5f52604160045260245ffd5b6040519190601f01601f191682016001600160401b038111838210176109ba57604052565b51906001600160a01b038216820361099757565b600254680100000000000000008110156109ba57600181016002556002548110156108d95760025f52600a60205f20910201905f90565b90600182811c92168015610a6c575b6020831014610a5857565b634e487b7160e01b5f52602260045260245ffd5b91607f1691610a4d565b818110610a81575050565b5f8155600101610a76565b90601f8111610a99575050565b610ab2915f52601f60205f20910160051c810190610a76565b565b805490680100000000000000008210156109ba57600182018082558210156108d9575f52600360205f20910201908051825560018201602082015180519060018060401b0382116109ba57610b098354610a3e565b601f8111610bc1575b50602090601f8311600114610b5857918060409492600296945f92610b4d575b50508160011b915f199060031b1c19161790555b0151910155565b015190505f80610b32565b90601f19831691845f52815f20925f5b818110610ba95750926001928592600298966040989610610b91575b505050811b019055610b46565b01515f1960f88460031b161c191690555f8080610b84565b92936020600181928786015181550195019301610b68565b610bec90845f5260205f20601f850160051c81019160208610610bf2575b601f0160051c0190610a76565b5f610b12565b9091508190610bdf56fe60a0806040526004361015610012575f80fd5b5f3560e01c9081630ab50a6a14610e675750806319a0bc4a14610e4a578063249d39e914610e2e5780632b526fc514610e065780633c1b6ec014610ddc57806365312f1814610d3257806365b649f514610d0c578063715018a614610ca957806379ba509714610c245780637adbf97314610bda5780637dc0d1d014610bb25780637dcf585714610a935780638d6cc56d1461099d5780638da5cb5b146109765780638e7cb6e1146108e95780639ef928c4146102c7578063a1a953fd1461020a578063aaf5eb68146101e8578063e30c3978146101c0578063f2fde38b1461014d5763fd9a795214610103575f80fd5b346101495760403660031901126101495760243580151580910361014957610129611227565b6009610136600435610f01565b50019060ff801983541691161790555f80f35b5f80fd5b34610149576020366003190112610149576004356001600160a01b038116908190036101495761017b611227565b600180546001600160a01b031916821790555f80546001600160a01b0316907f38d16b8cac22d99fc7c124b9cd0de2d3fa1faef420bfe791d8c362d765e227009080a3005b34610149575f366003190112610149576001546040516001600160a01b039091168152602090f35b34610149575f366003190112610149576020604051670de0b6b3a76400008152f35b34610149576020366003190112610149576004356002548110156101495761023461028e91610f01565b5061023e81610fa5565b9061024b60018201610fa5565b6002820154916004810154600582015460068301549060078401549261029c60ff6009600888015497015416966040519a8b9a6101208c526101208c0190610e80565b908a820360208c0152610e80565b9660408901526060880152608087015260a086015260c085015260e084015215156101008301520390f35b346101495760e0366003190112610149576004356001600160401b038111610149576102f7903690600401610ea4565b906024356001600160401b03811161014957610317903690600401610ea4565b6044939193356001600160401b03811161014957610339903690600401610ed1565b9190926064356001600160401b0381116101495761035b903690600401610ed1565b9290916084356001600160401b0381116101495761037d903690600401610ed1565b906080529761038a611227565b610395858714611186565b6103a0898714611186565b600a86116108a4575f805b8a808310610882575061271091500361083d57600254916040516020810190858483376103eb6020828881015f838201520301601f198101835282610f84565b51902093600160401b8410156106b05760018401918260025561040d85610f01565b505061041885610f01565b509a6001600160401b0382116106b05761043d828d6104378154610f31565b906111d8565b5f90601f83116001146107d95761046b92915f91836107ce575b50508160011b915f199060031b1c19161790565b8a555b60018a016001600160401b0382116106b0576104948261048e8354610f31565b836111d8565b5f82601f811160011461076857806104c0925f9161075d575b508160011b915f199060031b1c19161790565b90559896985b84600289015560a43560068901555f600789015560c435600889015560098801600160ff1982541617905560035f9801975b8a8110156106d75761050b8189896111c8565b358160051b8b0135601e198c360301811215610149578b018035906001600160401b0382116101495760208101918036038313610149578f85610550916080516111c8565b35926040519461055f86610f69565b855260405192610579601f8401601f191660200185610f84565b828452602083369201011161014957815f92602092838601378301015260208301908152604083019182528b54600160401b8110156106b057600181018d556105c2908d611045565b9390936106c45751835551805160018401916001600160401b0382116106b0576105f6826105f08554610f31565b856111d8565b602090601f831160011461064557826001979695936002959361062d935f9261063a5750508160011b915f199060031b1c19161790565b90555b51910155016104f8565b015190505f80610457565b90601f19831691845f52815f20925f5b81811061069857509260019897969491928993836002989610610680575b505050811b019055610630565b01515f1960f88460031b161c191690555f8080610673565b92936020600181928786015181550195019301610655565b634e487b7160e01b5f52604160045260245ffd5b634e487b7160e01b5f525f60045260245ffd5b50818411610749576060849382877ff9414eb6b3fc29c1f48f44c75c8d5c1801f504118fa999dd3fed8d2902ad4a3f956020995f5260058a5260405f205560405194859360408552816040860152858501375f83830185015288830152601f01601f19168101030190a2604051908152f35b634e487b7160e01b5f52601160045260245ffd5b90508601358f6104ad565b50601f19831690825f528360205f20925f5b8181106107b357501061079a575b5050600182811b0190559896986104c6565b8501355f19600385901b60f8161c191690558c80610788565b8884013585556001909401936020938401938793500161077a565b013590508e80610457565b601f198316918d5f5260205f20925f5b818110610825575090846001959493921061080c575b505050811b018a5561046e565b01355f19600384901b60f8161c191690558d80806107ff565b919360206001819287870135815501950192016107e9565b60405162461bcd60e51b815260206004820152601d60248201527f49583a2077656967687473206d7573742073756d20746f2031303030300000006044820152606490fd5b6001916108958461089c936080516111c8565b359061105e565b9101906103ab565b60405162461bcd60e51b815260206004820152601760248201527f49583a20746f6f206d616e7920636f6d706f6e656e74730000000000000000006044820152606490fd5b346101495760203660031901126101495761094d610908600435610f01565b5060028101546004820154600583015460ff6009850154169161095b610939600161093288610fa5565b9701610fa5565b60405197889760c0895260c0890190610e80565b908782036020890152610e80565b93604086015260608501526080840152151560a08301520390f35b34610149575f366003190112610149575f546040516001600160a01b039091168152602090f35b346101495760203660031901126101495760043560027f9b779b17422d0df92223018b32b4d1fa46e071723d6817e2486d003becc55f005414610a845760209060027f9b779b17422d0df92223018b32b4d1fa46e071723d6817e2486d003becc55f0055610a0a8161106b565b90816004610a1783610f01565b500155610a2381610f01565b506005429101557f5e89a115d4dcb38f5794a2781d782b6e7c44201ef8081441b0cf6a3623514125604080518481524286820152a260017f9b779b17422d0df92223018b32b4d1fa46e071723d6817e2486d003becc55f0055604051908152f35b633ee5aeb560e01b5f5260045ffd5b34610149576020366003190112610149576003610ab1600435610f01565b50018054906001600160401b0382116106b05760405191610ad860208260051b0184610f84565b8083526020830180925f5260205f205f915b838310610b7457848660405191829160208301906020845251809152604083019060408160051b85010192915f905b828210610b2857505050500390f35b919360019193955060208091603f1989820301855287519081518152604080610b5e858501516060878601526060850190610e80565b9301519101529601920192018594939192610b19565b60036020600192604051610b8781610f69565b85548152610b96858701610fa5565b8382015260028601546040820152815201920192019190610aea565b34610149575f366003190112610149576003546040516001600160a01b039091168152602090f35b34610149576020366003190112610149576004356001600160a01b0381169081900361014957610c08611227565b6bffffffffffffffffffffffff60a01b60035416176003555f80f35b34610149575f36600319011261014957600154336001600160a01b0390911603610c9657600180546001600160a01b03199081169091555f805433928116831782556001600160a01b0316907f8be0079c531659141344cd1fd0a4f28419497f9722a3daafe3b4186f6b6457e09080a3005b63118cdaa760e01b5f523360045260245ffd5b34610149575f36600319011261014957610cc1611227565b600180546001600160a01b03199081169091555f80549182168155906001600160a01b03167f8be0079c531659141344cd1fd0a4f28419497f9722a3daafe3b4186f6b6457e08280a3005b34610149576020366003190112610149576020610d2a60043561106b565b604051908152f35b34610149576020366003190112610149576004355f52600560205260405f20548015610da0575f19810190811161074957806005610d71604093610f01565b50600481015490928115610d905750915b015482519182526020820152f35b610d9a915061106b565b91610d82565b60405162461bcd60e51b815260206004820152601460248201527312560e881b585c9ad95d081b9bdd08199bdd5b9960621b6044820152606490fd5b34610149576020366003190112610149576004355f526005602052602060405f2054604051908152f35b34610149575f366003190112610149576004546040516001600160a01b039091168152602090f35b34610149575f3660031901126101495760206040516127108152f35b34610149575f366003190112610149576020600254604051908152f35b34610149575f3660031901126101495780600a60209252f35b805180835260209291819084018484015e5f828201840152601f01601f1916010190565b9181601f84011215610149578235916001600160401b038311610149576020838186019501011161014957565b9181601f84011215610149578235916001600160401b038311610149576020808501948460051b01011161014957565b600254811015610f1d5760025f52600a60205f20910201905f90565b634e487b7160e01b5f52603260045260245ffd5b90600182811c92168015610f5f575b6020831014610f4b57565b634e487b7160e01b5f52602260045260245ffd5b91607f1691610f40565b606081019081106001600160401b038211176106b057604052565b90601f801991011681019081106001600160401b038211176106b057604052565b9060405191825f825492610fb884610f31565b80845293600181169081156110235750600114610fdf575b50610fdd92500383610f84565b565b90505f9291925260205f20905f915b818310611007575050906020610fdd928201015f610fd0565b6020919350806001915483858901015201910190918492610fee565b905060209250610fdd94915060ff191682840152151560051b8201015f610fd0565b8054821015610f1d575f52600360205f20910201905f90565b9190820180921161074957565b906110765f92610f01565b5060ff600982015416156111525760018060a01b036003541660035f9201908154915b8284106110a65750505050565b909192946110b48683611045565b50805490604051916331d98b3f60e01b83526004830152604082602481885afa918215611147575f92611113575b5060020154908181029181830414901517156107495760019161271061110992049061105e565b9501929190611099565b9091506040813d821161113f575b8161112e60409383610f84565b8101031261014957519060026110e2565b3d9150611121565b6040513d5f823e3d90fd5b60405162461bcd60e51b815260206004820152600c60248201526b49583a20696e61637469766560a01b6044820152606490fd5b1561118d57565b60405162461bcd60e51b8152602060048201526013602482015272092b07440d8cadccee8d040dad2e6dac2e8c6d606b1b6044820152606490fd5b9190811015610f1d5760051b0190565b601f82116111e557505050565b5f5260205f20906020601f840160051c8301931061121d575b601f0160051c01905b818110611212575050565b5f8155600101611207565b90915081906111fe565b5f546001600160a01b03163303610c965756fea2646970667358221220b083d33093f6b873b9cbc445bf4f2fab47a1aeaf2c8ec1545fdd043cf5f0fce364736f6c634300081a0033405787fa12a823e0f2b7631cc41b3ba8828b3321ca811111fa75cd3aa3bb5ace365f8b30df22d80f2e0b406679ef53f75e49d6cad9c1c9e6bc1df7b092658a20",
  "linkReferences": {},
  "deployedLinkReferences": {}
}