{
  "_format": "hh-sol-artifact-1",
  "contractName": "WikiConcentratedLP",
  "sourceName": "src/WikiConcentratedLP.sol",
  "abi": [
    {
      "inputs": [
        {
          "internalType": "address",
          "name": "_owner",
          "type": "address"
        },
        {
          "internalType": "address",
          "name": "_usdc",
          "type": "address"
        }
      ],
      "stateMutability": "nonpayable",
      "type": "constructor"
    },
    {
      "inputs": [
        {
          "internalType": "address",
          "name": "owner",
          "type": "address"
        }
      ],
      "name": "OwnableInvalidOwner",
      "type": "error"
    },
    {
      "inputs": [
        {
          "internalType": "address",
          "name": "account",
          "type": "address"
        }
      ],
      "name": "OwnableUnauthorizedAccount",
      "type": "error"
    },
    {
      "inputs": [],
      "name": "ReentrancyGuardReentrantCall",
      "type": "error"
    },
    {
      "inputs": [
        {
          "internalType": "address",
          "name": "token",
          "type": "address"
        }
      ],
      "name": "SafeERC20FailedOperation",
      "type": "error"
    },
    {
      "anonymous": false,
      "inputs": [
        {
          "indexed": false,
          "internalType": "uint256",
          "name": "positionId",
          "type": "uint256"
        },
        {
          "indexed": false,
          "internalType": "address",
          "name": "owner",
          "type": "address"
        },
        {
          "indexed": false,
          "internalType": "uint256",
          "name": "fees0",
          "type": "uint256"
        },
        {
          "indexed": false,
          "internalType": "uint256",
          "name": "fees1",
          "type": "uint256"
        }
      ],
      "name": "FeesCollected",
      "type": "event"
    },
    {
      "anonymous": false,
      "inputs": [
        {
          "indexed": false,
          "internalType": "uint256",
          "name": "positionId",
          "type": "uint256"
        },
        {
          "indexed": false,
          "internalType": "uint256",
          "name": "addedLiquidity",
          "type": "uint256"
        },
        {
          "indexed": false,
          "internalType": "uint256",
          "name": "amount0",
          "type": "uint256"
        },
        {
          "indexed": false,
          "internalType": "uint256",
          "name": "amount1",
          "type": "uint256"
        }
      ],
      "name": "LiquidityAdded",
      "type": "event"
    },
    {
      "anonymous": false,
      "inputs": [
        {
          "indexed": true,
          "internalType": "address",
          "name": "previousOwner",
          "type": "address"
        },
        {
          "indexed": true,
          "internalType": "address",
          "name": "newOwner",
          "type": "address"
        }
      ],
      "name": "OwnershipTransferStarted",
      "type": "event"
    },
    {
      "anonymous": false,
      "inputs": [
        {
          "indexed": true,
          "internalType": "address",
          "name": "previousOwner",
          "type": "address"
        },
        {
          "indexed": true,
          "internalType": "address",
          "name": "newOwner",
          "type": "address"
        }
      ],
      "name": "OwnershipTransferred",
      "type": "event"
    },
    {
      "anonymous": false,
      "inputs": [
        {
          "indexed": false,
          "internalType": "uint256",
          "name": "positionId",
          "type": "uint256"
        },
        {
          "indexed": false,
          "internalType": "address",
          "name": "owner",
          "type": "address"
        },
        {
          "indexed": false,
          "internalType": "uint256",
          "name": "amount0",
          "type": "uint256"
        },
        {
          "indexed": false,
          "internalType": "uint256",
          "name": "amount1",
          "type": "uint256"
        }
      ],
      "name": "PositionBurned",
      "type": "event"
    },
    {
      "anonymous": false,
      "inputs": [
        {
          "indexed": false,
          "internalType": "uint256",
          "name": "positionId",
          "type": "uint256"
        },
        {
          "indexed": false,
          "internalType": "address",
          "name": "owner",
          "type": "address"
        },
        {
          "indexed": false,
          "internalType": "uint256",
          "name": "marketId",
          "type": "uint256"
        },
        {
          "indexed": false,
          "internalType": "uint256",
          "name": "tickLower",
          "type": "uint256"
        },
        {
          "indexed": false,
          "internalType": "uint256",
          "name": "tickUpper",
          "type": "uint256"
        },
        {
          "indexed": false,
          "internalType": "uint256",
          "name": "liquidity",
          "type": "uint256"
        }
      ],
      "name": "PositionMinted",
      "type": "event"
    },
    {
      "inputs": [],
      "name": "Q96",
      "outputs": [
        {
          "internalType": "uint256",
          "name": "",
          "type": "uint256"
        }
      ],
      "stateMutability": "view",
      "type": "function"
    },
    {
      "inputs": [],
      "name": "TICK_BASE_BPS",
      "outputs": [
        {
          "internalType": "uint256",
          "name": "",
          "type": "uint256"
        }
      ],
      "stateMutability": "view",
      "type": "function"
    },
    {
      "inputs": [],
      "name": "USDC",
      "outputs": [
        {
          "internalType": "contract IERC20",
          "name": "",
          "type": "address"
        }
      ],
      "stateMutability": "view",
      "type": "function"
    },
    {
      "inputs": [],
      "name": "acceptOwnership",
      "outputs": [],
      "stateMutability": "nonpayable",
      "type": "function"
    },
    {
      "inputs": [
        {
          "internalType": "uint256",
          "name": "positionId",
          "type": "uint256"
        }
      ],
      "name": "burnPosition",
      "outputs": [
        {
          "internalType": "uint256",
          "name": "amount0",
          "type": "uint256"
        },
        {
          "internalType": "uint256",
          "name": "fees",
          "type": "uint256"
        }
      ],
      "stateMutability": "nonpayable",
      "type": "function"
    },
    {
      "inputs": [
        {
          "internalType": "uint256",
          "name": "positionId",
          "type": "uint256"
        }
      ],
      "name": "collectFees",
      "outputs": [
        {
          "internalType": "uint256",
          "name": "fees",
          "type": "uint256"
        }
      ],
      "stateMutability": "nonpayable",
      "type": "function"
    },
    {
      "inputs": [
        {
          "internalType": "uint256",
          "name": "tickLower",
          "type": "uint256"
        },
        {
          "internalType": "uint256",
          "name": "tickUpper",
          "type": "uint256"
        }
      ],
      "name": "getCapitalEfficiency",
      "outputs": [
        {
          "internalType": "uint256",
          "name": "efficiencyX",
          "type": "uint256"
        }
      ],
      "stateMutability": "pure",
      "type": "function"
    },
    {
      "inputs": [
        {
          "internalType": "uint256",
          "name": "marketId",
          "type": "uint256"
        },
        {
          "internalType": "uint256",
          "name": "tickLower",
          "type": "uint256"
        },
        {
          "internalType": "uint256",
          "name": "tickUpper",
          "type": "uint256"
        }
      ],
      "name": "getLiquidityAtRange",
      "outputs": [
        {
          "internalType": "uint256",
          "name": "totalLiquidity",
          "type": "uint256"
        }
      ],
      "stateMutability": "view",
      "type": "function"
    },
    {
      "inputs": [
        {
          "internalType": "uint256",
          "name": "positionId",
          "type": "uint256"
        }
      ],
      "name": "getPosition",
      "outputs": [
        {
          "components": [
            {
              "internalType": "address",
              "name": "owner",
              "type": "address"
            },
            {
              "internalType": "uint256",
              "name": "marketId",
              "type": "uint256"
            },
            {
              "internalType": "uint256",
              "name": "tickLower",
              "type": "uint256"
            },
            {
              "internalType": "uint256",
              "name": "tickUpper",
              "type": "uint256"
            },
            {
              "internalType": "uint256",
              "name": "liquidity",
              "type": "uint256"
            },
            {
              "internalType": "uint256",
              "name": "amount0",
              "type": "uint256"
            },
            {
              "internalType": "uint256",
              "name": "amount1",
              "type": "uint256"
            },
            {
              "internalType": "uint256",
              "name": "feeGrowthInside0Last",
              "type": "uint256"
            },
            {
              "internalType": "uint256",
              "name": "feeGrowthInside1Last",
              "type": "uint256"
            },
            {
              "internalType": "uint256",
              "name": "tokensOwed0",
              "type": "uint256"
            },
            {
              "internalType": "uint256",
              "name": "tokensOwed1",
              "type": "uint256"
            },
            {
              "internalType": "uint256",
              "name": "createdAt",
              "type": "uint256"
            },
            {
              "internalType": "bool",
              "name": "active",
              "type": "bool"
            }
          ],
          "internalType": "struct WikiConcentratedLP.Position",
          "name": "",
          "type": "tuple"
        }
      ],
      "stateMutability": "view",
      "type": "function"
    },
    {
      "inputs": [
        {
          "internalType": "uint256",
          "name": "marketId",
          "type": "uint256"
        },
        {
          "internalType": "uint256",
          "name": "initialSqrtPrice",
          "type": "uint256"
        },
        {
          "internalType": "uint256",
          "name": "feeTierBps",
          "type": "uint256"
        }
      ],
      "name": "initializePool",
      "outputs": [],
      "stateMutability": "nonpayable",
      "type": "function"
    },
    {
      "inputs": [
        {
          "internalType": "uint256",
          "name": "",
          "type": "uint256"
        },
        {
          "internalType": "uint256",
          "name": "",
          "type": "uint256"
        }
      ],
      "name": "marketPositions",
      "outputs": [
        {
          "internalType": "uint256",
          "name": "",
          "type": "uint256"
        }
      ],
      "stateMutability": "view",
      "type": "function"
    },
    {
      "inputs": [
        {
          "internalType": "uint256",
          "name": "marketId",
          "type": "uint256"
        },
        {
          "internalType": "uint256",
          "name": "tickLower",
          "type": "uint256"
        },
        {
          "internalType": "uint256",
          "name": "tickUpper",
          "type": "uint256"
        },
        {
          "internalType": "uint256",
          "name": "amount0Desired",
          "type": "uint256"
        },
        {
          "internalType": "uint256",
          "name": "amount0Min",
          "type": "uint256"
        }
      ],
      "name": "mintPosition",
      "outputs": [
        {
          "internalType": "uint256",
          "name": "positionId",
          "type": "uint256"
        },
        {
          "internalType": "uint256",
          "name": "liquidity",
          "type": "uint256"
        },
        {
          "internalType": "uint256",
          "name": "amount0",
          "type": "uint256"
        }
      ],
      "stateMutability": "nonpayable",
      "type": "function"
    },
    {
      "inputs": [],
      "name": "nextPositionId",
      "outputs": [
        {
          "internalType": "uint256",
          "name": "",
          "type": "uint256"
        }
      ],
      "stateMutability": "view",
      "type": "function"
    },
    {
      "inputs": [],
      "name": "owner",
      "outputs": [
        {
          "internalType": "address",
          "name": "",
          "type": "address"
        }
      ],
      "stateMutability": "view",
      "type": "function"
    },
    {
      "inputs": [],
      "name": "pendingOwner",
      "outputs": [
        {
          "internalType": "address",
          "name": "",
          "type": "address"
        }
      ],
      "stateMutability": "view",
      "type": "function"
    },
    {
      "inputs": [
        {
          "internalType": "uint256",
          "name": "",
          "type": "uint256"
        }
      ],
      "name": "pools",
      "outputs": [
        {
          "internalType": "uint256",
          "name": "marketId",
          "type": "uint256"
        },
        {
          "internalType": "uint256",
          "name": "currentTick",
          "type": "uint256"
        },
        {
          "internalType": "uint256",
          "name": "sqrtPriceX96",
          "type": "uint256"
        },
        {
          "internalType": "uint256",
          "name": "liquidity",
          "type": "uint256"
        },
        {
          "internalType": "uint256",
          "name": "feeGrowthGlobal0",
          "type": "uint256"
        },
        {
          "internalType": "uint256",
          "name": "feeGrowthGlobal1",
          "type": "uint256"
        },
        {
          "internalType": "uint256",
          "name": "feeTierBps",
          "type": "uint256"
        },
        {
          "internalType": "uint256",
          "name": "totalPositions",
          "type": "uint256"
        },
        {
          "internalType": "bool",
          "name": "active",
          "type": "bool"
        }
      ],
      "stateMutability": "view",
      "type": "function"
    },
    {
      "inputs": [
        {
          "internalType": "uint256",
          "name": "",
          "type": "uint256"
        }
      ],
      "name": "positions",
      "outputs": [
        {
          "internalType": "address",
          "name": "owner",
          "type": "address"
        },
        {
          "internalType": "uint256",
          "name": "marketId",
          "type": "uint256"
        },
        {
          "internalType": "uint256",
          "name": "tickLower",
          "type": "uint256"
        },
        {
          "internalType": "uint256",
          "name": "tickUpper",
          "type": "uint256"
        },
        {
          "internalType": "uint256",
          "name": "liquidity",
          "type": "uint256"
        },
        {
          "internalType": "uint256",
          "name": "amount0",
          "type": "uint256"
        },
        {
          "internalType": "uint256",
          "name": "amount1",
          "type": "uint256"
        },
        {
          "internalType": "uint256",
          "name": "feeGrowthInside0Last",
          "type": "uint256"
        },
        {
          "internalType": "uint256",
          "name": "feeGrowthInside1Last",
          "type": "uint256"
        },
        {
          "internalType": "uint256",
          "name": "tokensOwed0",
          "type": "uint256"
        },
        {
          "internalType": "uint256",
          "name": "tokensOwed1",
          "type": "uint256"
        },
        {
          "internalType": "uint256",
          "name": "createdAt",
          "type": "uint256"
        },
        {
          "internalType": "bool",
          "name": "active",
          "type": "bool"
        }
      ],
      "stateMutability": "view",
      "type": "function"
    },
    {
      "inputs": [
        {
          "internalType": "uint256",
          "name": "marketId",
          "type": "uint256"
        },
        {
          "internalType": "uint256",
          "name": "feeAmount",
          "type": "uint256"
        }
      ],
      "name": "recordTradeFees",
      "outputs": [],
      "stateMutability": "nonpayable",
      "type": "function"
    },
    {
      "inputs": [],
      "name": "renounceOwnership",
      "outputs": [],
      "stateMutability": "nonpayable",
      "type": "function"
    },
    {
      "inputs": [
        {
          "internalType": "address",
          "name": "newOwner",
          "type": "address"
        }
      ],
      "name": "transferOwnership",
      "outputs": [],
      "stateMutability": "nonpayable",
      "type": "function"
    },
    {
      "inputs": [
        {
          "internalType": "uint256",
          "name": "marketId",
          "type": "uint256"
        },
        {
          "internalType": "uint256",
          "name": "newSqrtPriceX96",
          "type": "uint256"
        }
      ],
      "name": "updatePrice",
      "outputs": [],
      "stateMutability": "nonpayable",
      "type": "function"
    },
    {
      "inputs": [
        {
          "internalType": "address",
          "name": "",
          "type": "address"
        },
        {
          "internalType": "uint256",
          "name": "",
          "type": "uint256"
        }
      ],
      "name": "userPositions",
      "outputs": [
        {
          "internalType": "uint256",
          "name": "",
          "type": "uint256"
        }
      ],
      "stateMutability": "view",
      "type": "function"
    }
  ],
  "bytecode": "0x60a03461012157601f61150638819003918201601f19168301916001600160401b0383118484101761012557808492604094855283398101031261012157610052602061004b83610139565b9201610139565b6001600160a01b0390911690811561010e57600180546001600160a01b03199081169091555f80549182168417815560405193916001600160a01b0316907f8be0079c531659141344cd1fd0a4f28419497f9722a3daafe3b4186f6b6457e09080a360017f9b779b17422d0df92223018b32b4d1fa46e071723d6817e2486d003becc55f00556001600160a01b03166080526113b8908161014e82396080518181816103da015281816105fe01528181610b5f0152610c450152f35b631e4fbdf760e01b5f525f60045260245ffd5b5f80fd5b634e487b7160e01b5f52604160045260245ffd5b51906001600160a01b03821682036101215756fe60806040526004361015610011575f80fd5b5f3560e01c80631d70a50714610bc357806338ca63bc14610a585780634079246514610a395780634998c3b014610a1857806355a1a8dc146109e95780635e1b4d9914610991578063656898b71461082a578063695877e814610784578063715018a61461072157806379ba50971461069c5780637a7703cc1461068357806382367b2d1461064a578063899346c71461062d57806389a30271146105e95780638da5cb5b146105c257806399fbab8814610505578063a60e5fe5146104ea578063ac4afa3814610463578063b17acdcd1461032f578063e30c397814610307578063eb02c301146101815763f2fde38b1461010b575f80fd5b3461017d57602036600319011261017d57610124611033565b61012c611336565b60018060a01b0316806bffffffffffffffffffffffff60a01b600154161760015560018060a01b035f54167f38d16b8cac22d99fc7c124b9cd0de2d3fa1faef420bfe791d8c362d765e227005f80a3005b5f80fd5b3461017d57602036600319011261017d575f61018061019e611085565b8281528260208201528260408201528260608201528260808201528260a08201528260c08201528260e08201528261010082015282610120820152826101408201528261016082015201526004355f5260026020526101a060405f20610202611085565b80808060018060a01b038554169485825260018101546020830190815260028201546040840190815260038301546060850190815260048401546080860190815260058501549160a0870192835260068601549360c0880194855260078701549560e0890196875261018060ff600c60088b01549a6101008d019b8c5261012060098201549d019c8d52610140600a8201549e019d8e52610160600b8201549f019e8f520154169c019b15158c526040519c8d525160208d01525160408c01525160608b01525160808a01525160a08901525160c08801525160e087015251610100860152516101208501525161014084015251610160830152511515610180820152f35b3461017d575f36600319011261017d576001546040516001600160a01b039091168152602090f35b3461017d57602036600319011261017d5760043561034b61121f565b805f52600260205260405f2061036b60018060a01b0382541633146110ec565b61037b60ff600c83015416611129565b60018101545f52600360205260405f2090610396828461128d565b91821561042f576020935f60097f1df95d0058852523ea13aa1809224af942bd446ce86d3e431bf193c2bec269f19460046080950154600782015501556103fe84337f00000000000000000000000000000000000000000000000000000000000000006112de565b60405190815233858201528360408201525f6060820152a160015f8051602061136383398151915255604051908152f35b60405162461bcd60e51b815260206004820152600c60248201526b434c503a206e6f206665657360a01b6044820152606490fd5b3461017d57602036600319011261017d576004355f52600360205261012060405f2080549060018101549060028101546003820154600483015460058401549160068501549360ff600860078801549701541696604051988952602089015260408801526060870152608086015260a085015260c084015260e08301521515610100820152f35b3461017d575f36600319011261017d57602060405160018152f35b3461017d57602036600319011261017d576004355f5260026020526101a060405f2060018060a01b038154169060018101549060028101546003820154600483015460058401546006850154600786015491600887015493600988015495600a8901549760ff600c600b8c01549b0154169a6040519c8d5260208d015260408c015260608b015260808a015260a089015260c088015260e08701526101008601526101208501526101408401526101608301521515610180820152f35b3461017d575f36600319011261017d575f546040516001600160a01b039091168152602090f35b3461017d575f36600319011261017d576040517f00000000000000000000000000000000000000000000000000000000000000006001600160a01b03168152602090f35b3461017d575f36600319011261017d576020600654604051908152f35b3461017d5761065836610ff4565b90610661611336565b5f526003602052600160405f2061067783611349565b92600282015501555f80f35b3461017d5761069a61069436610ff4565b906111d0565b005b3461017d575f36600319011261017d57600154336001600160a01b039091160361070e57600180546001600160a01b03199081169091555f805433928116831782556001600160a01b0316907f8be0079c531659141344cd1fd0a4f28419497f9722a3daafe3b4186f6b6457e09080a3005b63118cdaa760e01b5f523360045260245ffd5b3461017d575f36600319011261017d57610739611336565b600180546001600160a01b03199081169091555f80549182168155906001600160a01b03167f8be0079c531659141344cd1fd0a4f28419497f9722a3daafe3b4186f6b6457e08280a3005b3461017d5761079236611049565b5f92835260056020526040832080549290845b8481106107b757602086604051908152f35b6107c1818361100a565b90549060031b1c5f52600260205260405f2060ff600c820154168061081c575b8061080e575b6107f5575b506001016107a5565b600191966004610807920154906110a6565b95906107ec565b5084600382015410156107e7565b5083600282015411156107e1565b3461017d5761083836611049565b610843929192611336565b600181148015610987575b801561097d575b8015610973575b156109365761086a83611349565b916040519261012084019284841067ffffffffffffffff8511176109225761069a956008946040528386526020860192835260408601908152606086015f815260808701905f825260a08801925f845260c0890194855260e08901955f87526101008a0197600189525f52600360205260405f2099518a555160018a015551600289015551600388015551600487015551600586015551600685015551600784015551151591019060ff801983541691151516179055565b634e487b7160e01b5f52604160045260245ffd5b60405162461bcd60e51b815260206004820152601560248201527421a6281d1034b73b30b634b2103332b2903a34b2b960591b6044820152606490fd5b506064811461085c565b50601e8114610855565b506005811461084e565b3461017d57604036600319011261017d576109aa611033565b6001600160a01b03165f9081526004602052604090208054602435919082101561017d576020916109da9161100a565b90549060031b1c604051908152f35b3461017d576109f736610ff4565b905f52600560205260405f20805482101561017d576020916109da9161100a565b3461017d576020610a31610a2b36610ff4565b90611192565b604051908152f35b3461017d575f36600319011261017d57604051600160601b8152602090f35b3461017d57602036600319011261017d576040600435610a7661121f565b805f526002602052815f2090610a9660018060a01b0383541633146110ec565b7ffb233a30394c607c1ae6377e8d607fba7cc732b658f41a2c9e48f0a46b8a38fb6080600c840192610acb60ff855416611129565b60018501545f5260036020525f60048782209660028101546001890154809111159081610bb5575b50610b89575b610b086005820154988561128d565b875460ff19169097550155610b1d84866110a6565b80610b58575b5085519081523360208201528486820152836060820152a160015f805160206113638339815191525582519182526020820152f35b610b8390337f00000000000000000000000000000000000000000000000000000000000000006112de565b86610b23565b81810154610ba860038a01918254908181118714610baf575080611167565b9055610af9565b90611167565b90506003820154118a610af3565b3461017d5760a036600319011261017d57600435606435602435604435610be861121f565b835f52600360205260405f209260ff60088501541615610fb85781831015610f7e578015610f4657610c1b908284611257565b908115610f0b576103e8610c38610c328584611167565b846111bd565b04926084358410610ed6577f00000000000000000000000000000000000000000000000000000000000000006040516323b872dd60e01b5f5233600452306024528560445260205f60648180865af19060015f5114821615610eb5575b6040525f60605215610e9557506060957fdc1e9f85bd571c6a5b8eb8c615f2cf1ad3a7b5600d309cc5b205e13e8f2ccfc89260c092600760065498610cd98a611063565b600655610de185600c8c8b8d896004880154600589015490610cf9611085565b943386526020860198895260408601948d8652606087019485526080870191825260a0870190815260c08701915f835260e0880193845261010088019485526101208801955f87526101408901975f89526101608a0199428b5261018081019b60018d525f526002602052600160405f209e8f92828060a01b039051166bffffffffffffffffffffffff60a01b845416178355519101555160028d01555160038c01555160048b01555160058a0155516006890155518a88015551600887015551600986015551600a85015551600b84015551151591019060ff801983541691151516179055565b600181015484818511159182610e8b575b5050610e75575b01610e048154611063565b9055335f526004602052610e1b8860405f206110b3565b825f526005602052610e308860405f206110b3565b6040519288845233602085015260408401528883015260808201528360a0820152a160015f805160206113638339815191525560405192835260208301526040820152f35b60038101610e848982546110a6565b9055610df9565b109050848d610df2565b635274afe760e01b5f9081526001600160a01b0391909116600452602490fd5b906001811516610ecd57823b15153d15161690610c95565b503d5f823e3d90fd5b60405162461bcd60e51b815260206004820152600d60248201526c434c503a20736c69707061676560981b6044820152606490fd5b60405162461bcd60e51b8152602060048201526013602482015272434c503a207a65726f206c697175696469747960681b6044820152606490fd5b60405162461bcd60e51b815260206004820152601060248201526f10d3140e881e995c9bc8185b5bdd5b9d60821b6044820152606490fd5b60405162461bcd60e51b8152602060048201526012602482015271434c503a20696e76616c69642072616e676560701b6044820152606490fd5b60405162461bcd60e51b8152602060048201526014602482015273434c503a20706f6f6c206e6f742061637469766560601b6044820152606490fd5b604090600319011261017d576004359060243590565b805482101561101f575f5260205f2001905f90565b634e487b7160e01b5f52603260045260245ffd5b600435906001600160a01b038216820361017d57565b606090600319011261017d57600435906024359060443590565b5f1981146110715760010190565b634e487b7160e01b5f52601160045260245ffd5b604051906101a0820182811067ffffffffffffffff82111761092257604052565b9190820180921161107157565b805468010000000000000000811015610922576110d59160018201815561100a565b819291549060031b91821b915f19901b1916179055565b156110f357565b60405162461bcd60e51b815260206004820152600e60248201526d21a6281d103737ba1037bbb732b960911b6044820152606490fd5b1561113057565b60405162461bcd60e51b815260206004820152600f60248201526e434c503a206e6f742061637469766560881b6044820152606490fd5b9190820391821161107157565b811561117e570490565b634e487b7160e01b5f52601260045260245ffd5b61119b91611167565b80156111b6576127100490600182106111b057565b60019150565b506103e890565b8181029291811591840414171561107157565b5f52600360205260405f20906003820154801561121a578160601b91808304600160601b14901517156110715761120c60049161121693611174565b92019182546110a6565b9055565b505050565b60025f8051602061136383398151915254146112485760025f8051602061136383398151915255565b633ee5aeb560e01b5f5260045ffd5b61126091611167565b8015611287576103e88202918083046103e814901517156110715761128491611174565b90565b50505f90565b5f526002602052600460405f2091015490600781015491828111156112d4576112bc611284936112cb92611167565b600460098401549301546111bd565b60601c906110a6565b5060099150015490565b916040519163a9059cbb60e01b5f5260018060a01b031660045260245260205f60448180865af19060015f511482161561131e575b60405215610e955750565b906001811516610ecd57823b15153d15161690611313565b5f546001600160a01b0316330361070e57565b60601c606481029080820460641490151715611071579056fe9b779b17422d0df92223018b32b4d1fa46e071723d6817e2486d003becc55f00a2646970667358221220325dec3af3495a5f6ffdbcf82c9c3e1ab95217d21a943f1e21e34456274edfd264736f6c634300081a0033",
  "linkReferences": {},
  "deployedLinkReferences": {}
}