{
  "_format": "hh-sol-artifact-1",
  "contractName": "WikiMultisigGuard",
  "sourceName": "src/WikiMultisigGuard.sol",
  "abi": [
    {
      "inputs": [
        {
          "internalType": "address[]",
          "name": "_signers",
          "type": "address[]"
        },
        {
          "internalType": "uint256",
          "name": "_threshold",
          "type": "uint256"
        }
      ],
      "stateMutability": "nonpayable",
      "type": "constructor"
    },
    {
      "inputs": [],
      "name": "ReentrancyGuardReentrantCall",
      "type": "error"
    },
    {
      "anonymous": false,
      "inputs": [
        {
          "indexed": true,
          "internalType": "uint256",
          "name": "id",
          "type": "uint256"
        },
        {
          "indexed": false,
          "internalType": "address",
          "name": "approver",
          "type": "address"
        },
        {
          "indexed": false,
          "internalType": "uint256",
          "name": "approvalsCount",
          "type": "uint256"
        }
      ],
      "name": "ProposalApproved",
      "type": "event"
    },
    {
      "anonymous": false,
      "inputs": [
        {
          "indexed": true,
          "internalType": "uint256",
          "name": "id",
          "type": "uint256"
        },
        {
          "indexed": false,
          "internalType": "address",
          "name": "canceller",
          "type": "address"
        }
      ],
      "name": "ProposalCancelled",
      "type": "event"
    },
    {
      "anonymous": false,
      "inputs": [
        {
          "indexed": true,
          "internalType": "uint256",
          "name": "id",
          "type": "uint256"
        },
        {
          "indexed": false,
          "internalType": "enum WikiMultisigGuard.ActionType",
          "name": "actionType",
          "type": "uint8"
        },
        {
          "indexed": false,
          "internalType": "address",
          "name": "proposer",
          "type": "address"
        },
        {
          "indexed": false,
          "internalType": "string",
          "name": "description",
          "type": "string"
        }
      ],
      "name": "ProposalCreated",
      "type": "event"
    },
    {
      "anonymous": false,
      "inputs": [
        {
          "indexed": true,
          "internalType": "uint256",
          "name": "id",
          "type": "uint256"
        },
        {
          "indexed": false,
          "internalType": "address",
          "name": "executor",
          "type": "address"
        }
      ],
      "name": "ProposalExecuted",
      "type": "event"
    },
    {
      "anonymous": false,
      "inputs": [
        {
          "indexed": true,
          "internalType": "address",
          "name": "signer",
          "type": "address"
        }
      ],
      "name": "SignerAdded",
      "type": "event"
    },
    {
      "anonymous": false,
      "inputs": [
        {
          "indexed": true,
          "internalType": "address",
          "name": "signer",
          "type": "address"
        }
      ],
      "name": "SignerRemoved",
      "type": "event"
    },
    {
      "anonymous": false,
      "inputs": [
        {
          "indexed": false,
          "internalType": "uint256",
          "name": "oldThreshold",
          "type": "uint256"
        },
        {
          "indexed": false,
          "internalType": "uint256",
          "name": "newThreshold",
          "type": "uint256"
        }
      ],
      "name": "ThresholdChanged",
      "type": "event"
    },
    {
      "inputs": [],
      "name": "MAX_SIGNERS",
      "outputs": [
        {
          "internalType": "uint256",
          "name": "",
          "type": "uint256"
        }
      ],
      "stateMutability": "view",
      "type": "function"
    },
    {
      "inputs": [],
      "name": "MIN_THRESHOLD",
      "outputs": [
        {
          "internalType": "uint256",
          "name": "",
          "type": "uint256"
        }
      ],
      "stateMutability": "view",
      "type": "function"
    },
    {
      "inputs": [],
      "name": "TIMELOCK_DELAY",
      "outputs": [
        {
          "internalType": "uint256",
          "name": "",
          "type": "uint256"
        }
      ],
      "stateMutability": "view",
      "type": "function"
    },
    {
      "inputs": [
        {
          "internalType": "address",
          "name": "signer",
          "type": "address"
        }
      ],
      "name": "addSigner",
      "outputs": [],
      "stateMutability": "nonpayable",
      "type": "function"
    },
    {
      "inputs": [
        {
          "internalType": "uint256",
          "name": "id",
          "type": "uint256"
        }
      ],
      "name": "approve",
      "outputs": [],
      "stateMutability": "nonpayable",
      "type": "function"
    },
    {
      "inputs": [
        {
          "internalType": "uint256",
          "name": "id",
          "type": "uint256"
        }
      ],
      "name": "cancel",
      "outputs": [],
      "stateMutability": "nonpayable",
      "type": "function"
    },
    {
      "inputs": [
        {
          "internalType": "uint256",
          "name": "newThreshold",
          "type": "uint256"
        }
      ],
      "name": "changeThreshold",
      "outputs": [],
      "stateMutability": "nonpayable",
      "type": "function"
    },
    {
      "inputs": [
        {
          "internalType": "uint256",
          "name": "id",
          "type": "uint256"
        }
      ],
      "name": "execute",
      "outputs": [],
      "stateMutability": "nonpayable",
      "type": "function"
    },
    {
      "inputs": [
        {
          "internalType": "uint256",
          "name": "id",
          "type": "uint256"
        }
      ],
      "name": "getApprovalCount",
      "outputs": [
        {
          "internalType": "uint256",
          "name": "",
          "type": "uint256"
        }
      ],
      "stateMutability": "view",
      "type": "function"
    },
    {
      "inputs": [
        {
          "internalType": "uint256",
          "name": "id",
          "type": "uint256"
        }
      ],
      "name": "getApprovals",
      "outputs": [
        {
          "internalType": "address[]",
          "name": "",
          "type": "address[]"
        }
      ],
      "stateMutability": "view",
      "type": "function"
    },
    {
      "inputs": [],
      "name": "getSigners",
      "outputs": [
        {
          "internalType": "address[]",
          "name": "",
          "type": "address[]"
        }
      ],
      "stateMutability": "view",
      "type": "function"
    },
    {
      "inputs": [
        {
          "internalType": "uint256",
          "name": "id",
          "type": "uint256"
        },
        {
          "internalType": "address",
          "name": "s",
          "type": "address"
        }
      ],
      "name": "isApproved",
      "outputs": [
        {
          "internalType": "bool",
          "name": "",
          "type": "bool"
        }
      ],
      "stateMutability": "view",
      "type": "function"
    },
    {
      "inputs": [
        {
          "internalType": "uint256",
          "name": "id",
          "type": "uint256"
        }
      ],
      "name": "isExecutable",
      "outputs": [
        {
          "internalType": "bool",
          "name": "",
          "type": "bool"
        }
      ],
      "stateMutability": "view",
      "type": "function"
    },
    {
      "inputs": [
        {
          "internalType": "address",
          "name": "",
          "type": "address"
        }
      ],
      "name": "isSigner",
      "outputs": [
        {
          "internalType": "bool",
          "name": "",
          "type": "bool"
        }
      ],
      "stateMutability": "view",
      "type": "function"
    },
    {
      "inputs": [],
      "name": "nonce",
      "outputs": [
        {
          "internalType": "uint256",
          "name": "",
          "type": "uint256"
        }
      ],
      "stateMutability": "view",
      "type": "function"
    },
    {
      "inputs": [
        {
          "internalType": "uint256",
          "name": "",
          "type": "uint256"
        }
      ],
      "name": "proposals",
      "outputs": [
        {
          "internalType": "uint256",
          "name": "id",
          "type": "uint256"
        },
        {
          "internalType": "enum WikiMultisigGuard.ActionType",
          "name": "actionType",
          "type": "uint8"
        },
        {
          "internalType": "address",
          "name": "target",
          "type": "address"
        },
        {
          "internalType": "bytes",
          "name": "callData",
          "type": "bytes"
        },
        {
          "internalType": "uint256",
          "name": "value",
          "type": "uint256"
        },
        {
          "internalType": "string",
          "name": "description",
          "type": "string"
        },
        {
          "internalType": "uint256",
          "name": "proposedAt",
          "type": "uint256"
        },
        {
          "internalType": "uint256",
          "name": "executableAt",
          "type": "uint256"
        },
        {
          "internalType": "bool",
          "name": "executed",
          "type": "bool"
        },
        {
          "internalType": "bool",
          "name": "cancelled",
          "type": "bool"
        }
      ],
      "stateMutability": "view",
      "type": "function"
    },
    {
      "inputs": [
        {
          "internalType": "enum WikiMultisigGuard.ActionType",
          "name": "actionType",
          "type": "uint8"
        },
        {
          "internalType": "address",
          "name": "target",
          "type": "address"
        },
        {
          "internalType": "bytes",
          "name": "callData",
          "type": "bytes"
        },
        {
          "internalType": "uint256",
          "name": "value",
          "type": "uint256"
        },
        {
          "internalType": "string",
          "name": "description",
          "type": "string"
        }
      ],
      "name": "propose",
      "outputs": [
        {
          "internalType": "uint256",
          "name": "id",
          "type": "uint256"
        }
      ],
      "stateMutability": "nonpayable",
      "type": "function"
    },
    {
      "inputs": [
        {
          "internalType": "address",
          "name": "signer",
          "type": "address"
        }
      ],
      "name": "removeSigner",
      "outputs": [],
      "stateMutability": "nonpayable",
      "type": "function"
    },
    {
      "inputs": [
        {
          "internalType": "uint256",
          "name": "",
          "type": "uint256"
        }
      ],
      "name": "signers",
      "outputs": [
        {
          "internalType": "address",
          "name": "",
          "type": "address"
        }
      ],
      "stateMutability": "view",
      "type": "function"
    },
    {
      "inputs": [],
      "name": "threshold",
      "outputs": [
        {
          "internalType": "uint256",
          "name": "",
          "type": "uint256"
        }
      ],
      "stateMutability": "view",
      "type": "function"
    },
    {
      "stateMutability": "payable",
      "type": "receive"
    }
  ],
  "bytecode": "0x6080604052346103ee57611c6d80380380610019816103f2565b9283398101906040818303126103ee5780516001600160401b0381116103ee57810182601f820112156103ee578051926001600160401b038411610209578360051b9160208061006a8186016103f2565b8097815201938201019182116103ee57602001915b8183106103ce5784602085015160017f9b779b17422d0df92223018b32b4d1fa46e071723d6817e2486d003becc55f0055600182511061038957600a82511161034457600181106102ff57815181116102ba575f5b82518110156102a7576001600160a01b036100ef8285610417565b511615610262576001600160a01b036101088285610417565b51165f52600460205260ff60405f20541661021d576001600160a01b0361012f8285610417565b5116905f5491680100000000000000008310156102095760018301805f558310156101f5575f80527f290decd9548b62a8d60345a988386fc84ba6bc95484008f6362f93160ef3e56390920180546001600160a01b0319169092179091556001906001600160a01b036101a28286610417565b51165f52600460205260405f208260ff19825416179055818060a01b036101c98286610417565b51167f47d1c22a25bb3a5d4e481b9b1e6944c2eade3181a0a20b495ed61d35b5323f245f80a2016100d4565b634e487b7160e01b5f52603260045260245ffd5b634e487b7160e01b5f52604160045260245ffd5b60405162461bcd60e51b815260206004820152601a60248201527f4d756c74697369673a206475706c6963617465207369676e65720000000000006044820152606490fd5b60405162461bcd60e51b815260206004820152601560248201527f4d756c74697369673a207a65726f207369676e657200000000000000000000006044820152606490fd5b50600155604051611841908161042c8239f35b60405162461bcd60e51b815260206004820152601d60248201527f4d756c74697369673a207468726573686f6c64203e207369676e6572730000006044820152606490fd5b60405162461bcd60e51b815260206004820152601b60248201527f4d756c74697369673a207468726573686f6c6420746f6f206c6f7700000000006044820152606490fd5b60405162461bcd60e51b815260206004820152601a60248201527f4d756c74697369673a20746f6f206d616e79207369676e6572730000000000006044820152606490fd5b60405162461bcd60e51b815260206004820152601960248201527f4d756c74697369673a20746f6f20666577207369676e657273000000000000006044820152606490fd5b82516001600160a01b03811681036103ee5781526020928301920161007f565b5f80fd5b6040519190601f01601f191682016001600160401b0381118382101761020957604052565b80518210156101f55760209160051b01019056fe6080604052600436101561001a575b3615610018575f80fd5b005b5f3560e01c8063013cf08b146101595780630e316ab7146101545780632079fb9a1461014f57806340e58ee51461014a57806342cde4e8146101455780634e395e2a1461014057806356c316371461013b57806359ecd657146101365780635ba1c1a914610131578063694e80c31461012c5780637df73e271461012757806394cf795e14610122578063a4e360c81461011d578063affed0e014610118578063b759f95414610113578063ba7e7cab1461010e578063bd11c4c014610109578063eb12d61e14610104578063ef6472d6146100ff5763fe0d94c10361000e57610cc7565b610c36565b610b59565b610b3e565b610b11565b6109f8565b6109db565b61096c565b6108e5565b610866565b6107bc565b61079f565b610784565b610732565b6106af565b610692565b6105d2565b61057a565b6103f8565b610313565b90600182811c9216801561018c575b602083101461017857565b634e487b7160e01b5f52602260045260245ffd5b91607f169161016d565b5f92918154916101a58361015e565b80835292600181169081156101fa57506001146101c157505050565b5f9081526020812093945091925b8383106101e0575060209250010190565b6001816020929493945483858701015201910191906101cf565b915050602093945060ff929192191683830152151560051b010190565b634e487b7160e01b5f52604160045260245ffd5b90601f8019910116810190811067ffffffffffffffff82111761024d57604052565b610217565b600b111561025c57565b634e487b7160e01b5f52602160045260245ffd5b90600b82101561025c5752565b805180835260209291819084018484015e5f828201840152601f01601f1916010190565b989591936101209895936102c66102f9966102e6949e9d9a9e8d5260208d0190610270565b6001600160a01b031660408b015261014060608b018190528a019061027d565b91608089015287820360a089015261027d565b9660c086015260e085015215156101008401521515910152565b346103c85760203660031901126103c8576004355f52600360205260405f2080546103c460018301549260405190610359826103528160028501610196565b038361022b565b60038101549060405161037a816103738160048601610196565b038261022b565b60058201549060076006840154930154936103a26103988660ff1690565b9560081c60ff1690565b604051998a99919791600882901c6001600160a01b03169160ff16908b6102a1565b0390f35b5f80fd5b600435906001600160a01b03821682036103c857565b602435906001600160a01b03821682036103c857565b346103c85760203660031901126103c8576104116103cc565b61041c303314610e42565b6001600160a01b0381165f90815260046020526040902061044890610443905b5460ff1690565b610e87565b61045f6104555f54610ede565b6001541115610ef1565b6001600160a01b03165f818152600460205260408120805460ff191690555b5f54908181101561054457826104ad6104968361055f565b90546001600160a01b039260039290921b1c821690565b16146104bd57600191500161047e565b6104f26104ec6104d76104d261051695610ede565b61055f565b905460039190911b1c6001600160a01b031690565b9161055f565b81546001600160a01b0393841660039290921b91821b9390911b1916919091179055565b61051e610f3d565b7f3525e22824a8a7df2c9a6029941c824cf95b6447f1e13d5128fd3826d35afe8b5f80a2005b505061051e565b634e487b7160e01b5f52603260045260245ffd5b5f54811015610575575f805260205f2001905f90565b61054b565b346103c85760203660031901126103c8576004355f548110156103c8575f80527f290decd9548b62a8d60345a988386fc84ba6bc95484008f6362f93160ef3e56301546040516001600160a01b039091168152602090f35b346103c85760203660031901126103c857600435335f5260046020526105fe60ff60405f205416610e87565b805f52600360205261065f60405f206106506008600783019261063360ff855461062a82821615610fa0565b841c1615610fec565b015461064961064460015460011c90565b611038565b1115611056565b805461ff001916610100179055565b6040513381527f74c34a008ce735d9fcf0bd03a9b238d212ad4c441c020661f4ffbb6442645b859080602081015b0390a2005b346103c8575f3660031901126103c8576020600154604051908152f35b346103c85760203660031901126103c8576004355f5260036020526103c460405f2060078101549060ff8216159182610723575b5081610712575b81610703575b5060405190151581529081906020820190565b6006915001544210155f6106f0565b6008810154600154111591506106ea565b60081c60ff161591505f6106e3565b346103c85760403660031901126103c857602060ff6107786004356107556103e2565b905f5260038452600960405f20019060018060a01b03165f5260205260405f2090565b54166040519015158152f35b346103c8575f3660031901126103c8576020604051600a8152f35b346103c8575f3660031901126103c85760206040516202a3008152f35b346103c85760203660031901126103c8576004356107db303314610e42565b6001811061082d57610018906107f45f548211156110ac565b60015460408051918252602082018390527f3164947cf0f49f08dd0cd80e671535b1e11590d347c55dcaa97ba3c24a96b33a91a1600155565b60405162461bcd60e51b81526020600482015260116024820152704d756c74697369673a20746f6f206c6f7760781b6044820152606490fd5b346103c85760203660031901126103c8576001600160a01b036108876103cc565b165f526004602052602060ff60405f2054166040519015158152f35b60206040818301928281528451809452019201905f5b8181106108c65750505090565b82516001600160a01b03168452602093840193909201916001016108b9565b346103c8575f3660031901126103c8576040515f805480835281805260208301917f290decd9548b62a8d60345a988386fc84ba6bc95484008f6362f93160ef3e56391905b81811061094d576103c4856109418187038261022b565b604051918291826108a3565b82546001600160a01b031684526020909301926001928301920161092a565b346103c85760203660031901126103c8576004355f526003602052600860405f200160405190805480835260208301915f5260205f20905f5b8181106109bc576103c4856109418187038261022b565b82546001600160a01b03168452602090930192600192830192016109a5565b346103c8575f3660031901126103c8576020600254604051908152f35b346103c85760203660031901126103c857600435335f526004602052610a2460ff60405f205416610e87565b805f5260036020527f2f0f51d2f12c71357e60d575d47e93e081dbaf32072245ab1e01540f0aadbf1a61068d60405f20610a89610a84610a806007840154610a77610a7260ff831615151590565b610fa0565b60081c60ff1690565b1590565b6110ee565b610af8610aeb60086009840193610abe610ab9610a8061043c33899060018060a01b03165f5260205260405f2090565b611130565b610acd6005820154151561117c565b0192610ad9338561122c565b335f9081526020919091526040902090565b805460ff19166001179055565b5460408051338152602081019290925290918291820190565b346103c85760203660031901126103c8576004355f5260036020526020600860405f200154604051908152f35b346103c8575f3660031901126103c857602060405160018152f35b346103c85760203660031901126103c857610b726103cc565b610b7d303314610e42565b610be2610aeb60018060a01b03831692835f526004602052610ba860ff60405f205416151515611274565b610bb5600a5f54106112c0565b610bc084151561130c565b610bc9816111c8565b6001600160a01b03165f90815260046020526040902090565b7f47d1c22a25bb3a5d4e481b9b1e6944c2eade3181a0a20b495ed61d35b5323f245f80a2005b9181601f840112156103c85782359167ffffffffffffffff83116103c857602083818601950101116103c857565b346103c85760a03660031901126103c857600435600b8110156103c857610c5b6103e2565b60443567ffffffffffffffff81116103c857610c7b903690600401610c08565b919092610c8760643590565b6084359367ffffffffffffffff85116103c8576103c495610caf610cb7963690600401610c08565b959094611351565b6040519081529081906020820190565b346103c85760203660031901126103c85760043560027f9b779b17422d0df92223018b32b4d1fa46e071723d6817e2486d003becc55f005414610e335760027f9b779b17422d0df92223018b32b4d1fa46e071723d6817e2486d003becc55f0055335f526004602052610d4060ff60405f205416610e87565b5f80610d54835f52600360205260405f2090565b610d9860078201610d76610a84610a808354610a77610a72610a808360ff1690565b610d88600884015460015411156116cb565b610aeb6006840154421015611716565b600181015460029060081c6001600160a01b031691600381015490610dc36040518094819301611762565b03925af1610dcf6117cc565b9015610e2b57506040513381527f9c85b616f29fca57a17eafe71cf9ff82ffef41766e2cf01ea7f8f7878dd3ec2490602090a261001860017f9b779b17422d0df92223018b32b4d1fa46e071723d6817e2486d003becc55f0055565b602081519101fd5b633ee5aeb560e01b5f5260045ffd5b15610e4957565b60405162461bcd60e51b815260206004820152601660248201527526bab63a34b9b4b39d1036bab9ba1031329039b2b63360511b6044820152606490fd5b15610e8e57565b60405162461bcd60e51b815260206004820152601460248201527326bab63a34b9b4b39d103737ba1039b4b3b732b960611b6044820152606490fd5b634e487b7160e01b5f52601160045260245ffd5b5f19810191908211610eec57565b610eca565b15610ef857565b60405162461bcd60e51b815260206004820152601f60248201527f4d756c74697369673a20776f756c6420627265616b207468726573686f6c64006044820152606490fd5b5f548015610f8c575f198101905f54821015610575575f8080527f290decd9548b62a8d60345a988386fc84ba6bc95484008f6362f93160ef3e56290910180546001600160a01b031916905555565b634e487b7160e01b5f52603160045260245ffd5b15610fa757565b60405162461bcd60e51b815260206004820152601a60248201527f4d756c74697369673a20616c72656164792065786563757465640000000000006044820152606490fd5b15610ff357565b60405162461bcd60e51b815260206004820152601b60248201527f4d756c74697369673a20616c72656164792063616e63656c6c656400000000006044820152606490fd5b9060018201809211610eec57565b906202a3008201809211610eec57565b1561105d57565b60405162461bcd60e51b815260206004820152602160248201527f4d756c74697369673a206e656564206d616a6f7269747920746f2063616e63656044820152601b60fa1b6064820152608490fd5b156110b357565b60405162461bcd60e51b81526020600482015260136024820152724d756c74697369673a203e207369676e65727360681b6044820152606490fd5b156110f557565b60405162461bcd60e51b8152602060048201526013602482015272135d5b1d1a5cda59ce8818d85b98d95b1b1959606a1b6044820152606490fd5b1561113757565b60405162461bcd60e51b815260206004820152601a60248201527f4d756c74697369673a20616c726561647920617070726f7665640000000000006044820152606490fd5b1561118357565b60405162461bcd60e51b815260206004820152601c60248201527f4d756c74697369673a2070726f706f73616c206e6f7420666f756e64000000006044820152606490fd5b5f5490600160401b82101561024d57600182015f555f54821015610575575f80527f290decd9548b62a8d60345a988386fc84ba6bc95484008f6362f93160ef3e56390910180546001600160a01b0319166001600160a01b03909216919091179055565b90815491600160401b83101561024d5760018301808255831015610575575f9081526020902090910180546001600160a01b0319166001600160a01b03909216919091179055565b1561127b57565b60405162461bcd60e51b815260206004820152601860248201527f4d756c74697369673a20616c7265616479207369676e657200000000000000006044820152606490fd5b156112c757565b60405162461bcd60e51b815260206004820152601a60248201527f4d756c74697369673a20746f6f206d616e79207369676e6572730000000000006044820152606490fd5b1561131357565b60405162461bcd60e51b81526020600482015260166024820152754d756c74697369673a207a65726f206164647265737360501b6044820152606490fd5b9195611481610aeb7f2fa4d1bc9ff8794eac01702cd7a1e2321b00783a0bfd55d3e40e25bd3448b72f96979561148f94335f52600460205261139960ff60405f205416610e87565b6113ad6001600160a01b0382161515611506565b6113b860025461154a565b9a8b9a8b936113c685600255565b6113cf8a610252565b89159283156114f1575b83156114d6575b61143161143a9394956113fb885f52600360205260405f2090565b9788556001880161140c8e82611558565b8054610100600160a81b03191660089290921b610100600160a81b0316919091179055565b600286016115bf565b600383015561144d8589600485016115bf565b426005830155156114c857425b600682015561146c336008830161122c565b335f9081526009919091016020526040902090565b604051938493339085611688565b0390a2604080513381526001602082015282917f2f0f51d2f12c71357e60d575d47e93e081dbaf32072245ab1e01540f0aadbf1a91a290565b6114d142611046565b61145a565b61143a9293506114e58b610252565b60028b149392506113e0565b92506114fc8a610252565b60018a14926113d9565b1561150d57565b60405162461bcd60e51b8152602060048201526015602482015274135d5b1d1a5cda59ce881e995c9bc81d185c99d95d605a1b6044820152606490fd5b5f198114610eec5760010190565b90600b81101561025c5760ff80198354169116179055565b601f821161157d57505050565b5f5260205f20906020601f840160051c830193106115b5575b601f0160051c01905b8181106115aa575050565b5f815560010161159f565b9091508190611596565b90929167ffffffffffffffff811161024d576115e5816115df845461015e565b84611570565b5f601f82116001146116235781906116149394955f92611618575b50508160011b915f199060031b1c19161790565b9055565b013590505f80611600565b601f19821694611636845f5260205f2090565b915f5b878110611670575083600195969710611657575b505050811b019055565b01355f19600384901b60f8161c191690555f808061164d565b90926020600181928686013581550194019101611639565b9284926116988560809794610270565b6001600160a01b031660208501526060604085018190528401829052848401375f828201840152601f01601f1916010190565b156116d257565b606460405162461bcd60e51b815260206004820152602060248201527f4d756c74697369673a20696e73756666696369656e7420617070726f76616c736044820152fd5b1561171d57565b60405162461bcd60e51b815260206004820152601e60248201527f4d756c74697369673a2074696d656c6f636b206e6f74206578706972656400006044820152606490fd5b5f92918154916117718361015e565b92600181169081156117b9575060011461178a57505050565b90919293505f5260205f205f905b8382106117a55750500190565b600181602092548486015201910190611798565b60ff191683525050811515909102019150565b3d15611806573d9067ffffffffffffffff821161024d57604051916117fb601f8201601f19166020018461022b565b82523d5f602084013e565b60609056fea264697066735822122062ca3c6525ad37c155557ba43b907c7602fb59d76d7ed4e88d725fc49d03bb3364736f6c634300081a0033",
  "linkReferences": {},
  "deployedLinkReferences": {}
}