{
  "_format": "hh-sol-artifact-1",
  "contractName": "WikiTelegramGateway",
  "sourceName": "src/WikiTelegramGateway.sol",
  "abi": [
    {
      "inputs": [
        {
          "internalType": "address",
          "name": "_owner",
          "type": "address"
        },
        {
          "internalType": "address",
          "name": "_botExecutor",
          "type": "address"
        }
      ],
      "stateMutability": "nonpayable",
      "type": "constructor"
    },
    {
      "inputs": [
        {
          "internalType": "address",
          "name": "owner",
          "type": "address"
        }
      ],
      "name": "OwnableInvalidOwner",
      "type": "error"
    },
    {
      "inputs": [
        {
          "internalType": "address",
          "name": "account",
          "type": "address"
        }
      ],
      "name": "OwnableUnauthorizedAccount",
      "type": "error"
    },
    {
      "inputs": [],
      "name": "ReentrancyGuardReentrantCall",
      "type": "error"
    },
    {
      "anonymous": false,
      "inputs": [
        {
          "indexed": true,
          "internalType": "address",
          "name": "wallet",
          "type": "address"
        },
        {
          "indexed": false,
          "internalType": "uint256",
          "name": "marketId",
          "type": "uint256"
        },
        {
          "indexed": false,
          "internalType": "bool",
          "name": "isLong",
          "type": "bool"
        },
        {
          "indexed": false,
          "internalType": "uint256",
          "name": "size",
          "type": "uint256"
        },
        {
          "indexed": false,
          "internalType": "uint256",
          "name": "leverage",
          "type": "uint256"
        }
      ],
      "name": "OrderPlacedViaTelegram",
      "type": "event"
    },
    {
      "anonymous": false,
      "inputs": [
        {
          "indexed": true,
          "internalType": "address",
          "name": "previousOwner",
          "type": "address"
        },
        {
          "indexed": true,
          "internalType": "address",
          "name": "newOwner",
          "type": "address"
        }
      ],
      "name": "OwnershipTransferStarted",
      "type": "event"
    },
    {
      "anonymous": false,
      "inputs": [
        {
          "indexed": true,
          "internalType": "address",
          "name": "previousOwner",
          "type": "address"
        },
        {
          "indexed": true,
          "internalType": "address",
          "name": "newOwner",
          "type": "address"
        }
      ],
      "name": "OwnershipTransferred",
      "type": "event"
    },
    {
      "anonymous": false,
      "inputs": [
        {
          "indexed": false,
          "internalType": "uint256",
          "name": "alertId",
          "type": "uint256"
        },
        {
          "indexed": false,
          "internalType": "address",
          "name": "wallet",
          "type": "address"
        },
        {
          "indexed": false,
          "internalType": "uint256",
          "name": "marketId",
          "type": "uint256"
        },
        {
          "indexed": false,
          "internalType": "uint256",
          "name": "price",
          "type": "uint256"
        },
        {
          "indexed": false,
          "internalType": "bool",
          "name": "isAbove",
          "type": "bool"
        }
      ],
      "name": "PriceAlertSet",
      "type": "event"
    },
    {
      "anonymous": false,
      "inputs": [
        {
          "indexed": false,
          "internalType": "uint256",
          "name": "alertId",
          "type": "uint256"
        },
        {
          "indexed": false,
          "internalType": "address",
          "name": "wallet",
          "type": "address"
        },
        {
          "indexed": false,
          "internalType": "uint256",
          "name": "marketId",
          "type": "uint256"
        },
        {
          "indexed": false,
          "internalType": "uint256",
          "name": "currentPrice",
          "type": "uint256"
        }
      ],
      "name": "PriceAlertTriggered",
      "type": "event"
    },
    {
      "anonymous": false,
      "inputs": [
        {
          "indexed": true,
          "internalType": "address",
          "name": "wallet",
          "type": "address"
        },
        {
          "indexed": false,
          "internalType": "uint256",
          "name": "telegramUserId",
          "type": "uint256"
        }
      ],
      "name": "WalletLinked",
      "type": "event"
    },
    {
      "anonymous": false,
      "inputs": [
        {
          "indexed": true,
          "internalType": "address",
          "name": "wallet",
          "type": "address"
        }
      ],
      "name": "WalletUnlinked",
      "type": "event"
    },
    {
      "inputs": [],
      "name": "acceptOwnership",
      "outputs": [],
      "stateMutability": "nonpayable",
      "type": "function"
    },
    {
      "inputs": [
        {
          "internalType": "uint256",
          "name": "",
          "type": "uint256"
        }
      ],
      "name": "alerts",
      "outputs": [
        {
          "internalType": "address",
          "name": "wallet",
          "type": "address"
        },
        {
          "internalType": "uint256",
          "name": "marketId",
          "type": "uint256"
        },
        {
          "internalType": "uint256",
          "name": "targetPrice",
          "type": "uint256"
        },
        {
          "internalType": "bool",
          "name": "isAbove",
          "type": "bool"
        },
        {
          "internalType": "bool",
          "name": "triggered",
          "type": "bool"
        },
        {
          "internalType": "bool",
          "name": "active",
          "type": "bool"
        }
      ],
      "stateMutability": "view",
      "type": "function"
    },
    {
      "inputs": [],
      "name": "botExecutor",
      "outputs": [
        {
          "internalType": "address",
          "name": "",
          "type": "address"
        }
      ],
      "stateMutability": "view",
      "type": "function"
    },
    {
      "inputs": [
        {
          "internalType": "address",
          "name": "wallet",
          "type": "address"
        }
      ],
      "name": "getSession",
      "outputs": [
        {
          "components": [
            {
              "internalType": "address",
              "name": "wallet",
              "type": "address"
            },
            {
              "internalType": "uint256",
              "name": "telegramUserId",
              "type": "uint256"
            },
            {
              "internalType": "uint256",
              "name": "linkedAt",
              "type": "uint256"
            },
            {
              "internalType": "uint256",
              "name": "maxOrderUsdc",
              "type": "uint256"
            },
            {
              "internalType": "uint256",
              "name": "dailyVolumeLimit",
              "type": "uint256"
            },
            {
              "internalType": "uint256",
              "name": "volumeToday",
              "type": "uint256"
            },
            {
              "internalType": "uint256",
              "name": "lastResetDay",
              "type": "uint256"
            },
            {
              "internalType": "bool",
              "name": "active",
              "type": "bool"
            },
            {
              "internalType": "bool",
              "name": "canTrade",
              "type": "bool"
            },
            {
              "internalType": "bool",
              "name": "tradingEnabled",
              "type": "bool"
            }
          ],
          "internalType": "struct WikiTelegramGateway.TelegramSession",
          "name": "",
          "type": "tuple"
        }
      ],
      "stateMutability": "view",
      "type": "function"
    },
    {
      "inputs": [
        {
          "internalType": "uint256",
          "name": "telegramUserId",
          "type": "uint256"
        }
      ],
      "name": "getWalletByTelegram",
      "outputs": [
        {
          "internalType": "address",
          "name": "",
          "type": "address"
        }
      ],
      "stateMutability": "view",
      "type": "function"
    },
    {
      "inputs": [
        {
          "internalType": "address",
          "name": "wallet",
          "type": "address"
        }
      ],
      "name": "isLinked",
      "outputs": [
        {
          "internalType": "bool",
          "name": "",
          "type": "bool"
        }
      ],
      "stateMutability": "view",
      "type": "function"
    },
    {
      "inputs": [
        {
          "internalType": "bytes32",
          "name": "linkCode",
          "type": "bytes32"
        },
        {
          "internalType": "uint256",
          "name": "telegramUserId",
          "type": "uint256"
        },
        {
          "internalType": "uint256",
          "name": "maxOrderUsdc",
          "type": "uint256"
        },
        {
          "internalType": "uint256",
          "name": "dailyVolumeLimit",
          "type": "uint256"
        }
      ],
      "name": "linkTelegram",
      "outputs": [],
      "stateMutability": "nonpayable",
      "type": "function"
    },
    {
      "inputs": [],
      "name": "nextAlertId",
      "outputs": [
        {
          "internalType": "uint256",
          "name": "",
          "type": "uint256"
        }
      ],
      "stateMutability": "view",
      "type": "function"
    },
    {
      "inputs": [],
      "name": "owner",
      "outputs": [
        {
          "internalType": "address",
          "name": "",
          "type": "address"
        }
      ],
      "stateMutability": "view",
      "type": "function"
    },
    {
      "inputs": [],
      "name": "pendingOwner",
      "outputs": [
        {
          "internalType": "address",
          "name": "",
          "type": "address"
        }
      ],
      "stateMutability": "view",
      "type": "function"
    },
    {
      "inputs": [],
      "name": "renounceOwnership",
      "outputs": [],
      "stateMutability": "nonpayable",
      "type": "function"
    },
    {
      "inputs": [
        {
          "internalType": "address",
          "name": "",
          "type": "address"
        }
      ],
      "name": "sessions",
      "outputs": [
        {
          "internalType": "address",
          "name": "wallet",
          "type": "address"
        },
        {
          "internalType": "uint256",
          "name": "telegramUserId",
          "type": "uint256"
        },
        {
          "internalType": "uint256",
          "name": "linkedAt",
          "type": "uint256"
        },
        {
          "internalType": "uint256",
          "name": "maxOrderUsdc",
          "type": "uint256"
        },
        {
          "internalType": "uint256",
          "name": "dailyVolumeLimit",
          "type": "uint256"
        },
        {
          "internalType": "uint256",
          "name": "volumeToday",
          "type": "uint256"
        },
        {
          "internalType": "uint256",
          "name": "lastResetDay",
          "type": "uint256"
        },
        {
          "internalType": "bool",
          "name": "active",
          "type": "bool"
        },
        {
          "internalType": "bool",
          "name": "canTrade",
          "type": "bool"
        },
        {
          "internalType": "bool",
          "name": "tradingEnabled",
          "type": "bool"
        }
      ],
      "stateMutability": "view",
      "type": "function"
    },
    {
      "inputs": [
        {
          "internalType": "uint256",
          "name": "marketId",
          "type": "uint256"
        },
        {
          "internalType": "uint256",
          "name": "targetPrice",
          "type": "uint256"
        },
        {
          "internalType": "bool",
          "name": "isAbove",
          "type": "bool"
        }
      ],
      "name": "setAlert",
      "outputs": [
        {
          "internalType": "uint256",
          "name": "alertId",
          "type": "uint256"
        }
      ],
      "stateMutability": "nonpayable",
      "type": "function"
    },
    {
      "inputs": [
        {
          "internalType": "address",
          "name": "bot",
          "type": "address"
        }
      ],
      "name": "setBotExecutor",
      "outputs": [],
      "stateMutability": "nonpayable",
      "type": "function"
    },
    {
      "inputs": [
        {
          "internalType": "uint256",
          "name": "",
          "type": "uint256"
        }
      ],
      "name": "telegramToWallet",
      "outputs": [
        {
          "internalType": "address",
          "name": "",
          "type": "address"
        }
      ],
      "stateMutability": "view",
      "type": "function"
    },
    {
      "inputs": [
        {
          "internalType": "bool",
          "name": "enabled",
          "type": "bool"
        }
      ],
      "name": "toggleTrading",
      "outputs": [],
      "stateMutability": "nonpayable",
      "type": "function"
    },
    {
      "inputs": [
        {
          "internalType": "address",
          "name": "newOwner",
          "type": "address"
        }
      ],
      "name": "transferOwnership",
      "outputs": [],
      "stateMutability": "nonpayable",
      "type": "function"
    },
    {
      "inputs": [
        {
          "internalType": "uint256",
          "name": "alertId",
          "type": "uint256"
        },
        {
          "internalType": "uint256",
          "name": "currentPrice",
          "type": "uint256"
        }
      ],
      "name": "triggerAlert",
      "outputs": [],
      "stateMutability": "nonpayable",
      "type": "function"
    },
    {
      "inputs": [],
      "name": "unlinkTelegram",
      "outputs": [],
      "stateMutability": "nonpayable",
      "type": "function"
    },
    {
      "inputs": [
        {
          "internalType": "uint256",
          "name": "maxOrder",
          "type": "uint256"
        },
        {
          "internalType": "uint256",
          "name": "dailyVol",
          "type": "uint256"
        }
      ],
      "name": "updateLimits",
      "outputs": [],
      "stateMutability": "nonpayable",
      "type": "function"
    },
    {
      "inputs": [
        {
          "internalType": "bytes32",
          "name": "",
          "type": "bytes32"
        }
      ],
      "name": "usedLinkCodes",
      "outputs": [
        {
          "internalType": "bool",
          "name": "",
          "type": "bool"
        }
      ],
      "stateMutability": "view",
      "type": "function"
    },
    {
      "inputs": [
        {
          "internalType": "address",
          "name": "",
          "type": "address"
        },
        {
          "internalType": "uint256",
          "name": "",
          "type": "uint256"
        }
      ],
      "name": "userAlerts",
      "outputs": [
        {
          "internalType": "uint256",
          "name": "",
          "type": "uint256"
        }
      ],
      "stateMutability": "view",
      "type": "function"
    },
    {
      "inputs": [
        {
          "internalType": "address",
          "name": "wallet",
          "type": "address"
        },
        {
          "internalType": "uint256",
          "name": "orderSize",
          "type": "uint256"
        }
      ],
      "name": "validateTelegramOrder",
      "outputs": [
        {
          "internalType": "bool",
          "name": "valid",
          "type": "bool"
        },
        {
          "internalType": "string",
          "name": "reason",
          "type": "string"
        }
      ],
      "stateMutability": "nonpayable",
      "type": "function"
    }
  ],
  "bytecode": "0x60803461011757601f61121a38819003918201601f19168301916001600160401b0383118484101761011b57808492604094855283398101031261011757610052602061004b8361012f565b920161012f565b6001600160a01b0390911690811561010457600180546001600160a01b03199081169091555f80549182168417815560405193916001600160a01b0316907f8be0079c531659141344cd1fd0a4f28419497f9722a3daafe3b4186f6b6457e09080a360017f9b779b17422d0df92223018b32b4d1fa46e071723d6817e2486d003becc55f0055600780546001600160a01b0319166001600160a01b03929092169190911790556110d690816101448239f35b631e4fbdf760e01b5f525f60045260245ffd5b5f80fd5b634e487b7160e01b5f52604160045260245ffd5b51906001600160a01b03821682036101175756fe60806040526004361015610011575f80fd5b5f3560e01c806305abe17014610d69578063171d073a14610cf6578063260be2a214610cd957806326560be714610c725780633478006d14610abf578063348f3c3b14610a90578063431a1b97146109e257806344f995d8146109645780636db5e0c61461090c578063715018a6146108a957806371cf464b146105d1578063778f65431461036357806379ba50971461054c5780638c8e13b9146104025780638da5cb5b146103db578063a2240e1914610395578063b694a74814610363578063bec559221461025a578063e30c397814610232578063e73b487b1461020a578063ed9cc833146101c7578063f2fde38b1461015a5763fb1afbd714610116575f80fd5b34610156576020366003190112610156576001600160a01b03610137610dc9565b165f526002602052602060ff600760405f200154166040519015158152f35b5f80fd5b3461015657602036600319011261015657610173610dc9565b61017b61108d565b60018060a01b0316806001600160601b0360a01b600154161760015560018060a01b035f54167f38d16b8cac22d99fc7c124b9cd0de2d3fa1faef420bfe791d8c362d765e227005f80a3005b34610156576020366003190112610156576101e0610dc9565b6101e861108d565b600780546001600160a01b0319166001600160a01b0392909216919091179055005b34610156575f366003190112610156576007546040516001600160a01b039091168152602090f35b34610156575f366003190112610156576001546040516001600160a01b039091168152602090f35b346101565761026836610e08565b9060018060a01b036007541633148015610350575b61028690610e1e565b805f52600560205260405f2090600382019283549260ff8460101c1680610342575b15610305577fa036853c09327e16ff9ad1462ee31abfdd945ce5be335683b547744539cb0eab9461010060809562ffff0019161790556001808060a01b0382541691015490604051938452602084015260408301526060820152a1005b60405162461bcd60e51b81526020600482015260156024820152741511ce88185b1c9958591e481d1c9a59d9d95c9959605a1b6044820152606490fd5b5060ff8460081c16156102a8565b505f546001600160a01b0316331461027d565b34610156576020366003190112610156576004355f526003602052602060018060a01b0360405f205416604051908152f35b34610156576103a336610e08565b90335f5260026020526103bf60ff600760405f20015416611050565b335f908152600260205260409020600381019190915560040155005b34610156575f366003190112610156575f546040516001600160a01b039091168152602090f35b346101565760203660031901126101565761041b610dc9565b5f610120610427610e58565b8281528260208201528260408201528260608201528260808201528260a08201528260c08201528260e082015282610100820152015260018060a01b03165f52600260205261014060405f2061047b610e58565b9060018060a01b03815416918281526001820154602082019081526002830154926040830193845260038101546060840190815260048201546080850190815260058301549160a08601928352600760068501549460c0880195865201549660e087019560ff89161515875260ff6101206101008a0199828c60081c1615158b52019960101c1615158952604051998a525160208a01525160408901525160608801525160808701525160a08601525160c085015251151560e0840152511515610100830152511515610120820152f35b34610156575f36600319011261015657600154336001600160a01b03909116036105be57600180546001600160a01b03199081169091555f805433928116831782556001600160a01b0316907f8be0079c531659141344cd1fd0a4f28419497f9722a3daafe3b4186f6b6457e09080a3005b63118cdaa760e01b5f523360045260245ffd5b34610156576080366003190112610156576004356024359060443560643590825f52600460205260ff60405f20541661086c57335f908152600260205260409020546001600160a01b0316158015610852575b15610818575f848152600360205260409020546001600160a01b03166107d3575f928352600460209081526040808520805460ff19166001179055858552600390915290922080546001600160a01b0319163317905561078c9180156107c657905b80156107ba575b610773610698610e58565b9133835261075c600760208501948886526040810193428552606082019788526080820190815260a082015f815260c0830191620151804204835260e084019960018b526101008501976001895261012086019a60018c52335f52600260205260405f209660018060a01b039060018060a01b03905116166001600160601b0360a01b8854161787555160018701555160028601555160038501555160048401555160058301555160068201550194511515859060ff801983541691151516179055565b51835461ff00191690151560081b61ff0016178355565b51815462ff0000191690151560101b62ff000016179055565b6040519081527f5a1d2c99b2cff4691ef1d66d55e4b5031450d6050e9f7ef344c7cbfacc642ced60203392a2005b5064174876e80061068d565b506402540be40090610686565b60405162461bcd60e51b815260206004820152601e60248201527f54473a2054656c656772616d20494420616c7265616479206c696e6b656400006044820152606490fd5b60405162461bcd60e51b81526020600482015260126024820152711511ce88185b1c9958591e481b1a5b9ad95960721b6044820152606490fd5b50335f52600260205260ff600760405f2001541615610624565b60405162461bcd60e51b81526020600482015260156024820152741511ce8818dbd91948185b1c9958591e481d5cd959605a1b6044820152606490fd5b34610156575f366003190112610156576108c161108d565b600180546001600160a01b03199081169091555f80549182168155906001600160a01b03167f8be0079c531659141344cd1fd0a4f28419497f9722a3daafe3b4186f6b6457e08280a3005b3461015657604036600319011261015657610925610dc9565b6001600160a01b03165f908152600660205260409020805460243591908210156101565760209161095591610ddf565b90549060031b1c604051908152f35b34610156575f36600319011261015657335f52600260205260405f206001600782019161099460ff845416611050565b01545f52600360205260405f206001600160601b0360a01b815416905562ff00ff198154169055337f7d961c60ec9f47d076e48ea95a044038b43ed07c7d0d58f62c8974ad03f645295f80a2005b34610156576020366003190112610156576001600160a01b03610a03610dc9565b165f52600260205261014060405f2060ff60018060a01b0382541691600181015490600281015460038201546004830154906005840154926007600686015495015495604051988952602089015260408801526060870152608086015260a085015260c0840152818116151560e0840152818160081c16151561010084015260101c161515610120820152f35b34610156576020366003190112610156576004355f526004602052602060ff60405f2054166040519015158152f35b3461015657606036600319011261015657600435602435906044359081151580920361015657335f526002602052610b0060ff600760405f20015416611050565b600854915f198314610c5e576001830160085560405160c081019080821067ffffffffffffffff831117610c4a57610bbb91604052338152602081018481526107736040830188815261075c6003606086019588875260808101935f855260a0820196600188528c5f52600560205260405f209260018060a01b039060018060a01b03905116166001600160601b0360a01b8454161783555160018301555160028201550194511515859060ff801983541691151516179055565b335f52600660205260405f209182549168010000000000000000831015610c4a57602095610c12847f7b50f7fa3b856dc993e2329fd5848cc88bd43a4134c35ec4a7d08a8f97f5ee6296600160a097018155610ddf565b81549060031b9088821b915f19901b1916179055604051928684523388850152604084015260608301526080820152a1604051908152f35b634e487b7160e01b5f52604160045260245ffd5b634e487b7160e01b5f52601160045260245ffd5b3461015657602036600319011261015657600435801515810361015657610cd790335f526002602052610cae60ff600760405f20015416611050565b335f526002602052600760405f20019062ff0000825491151560101b169062ff00001916179055565b005b34610156575f366003190112610156576020600854604051908152f35b34610156576020366003190112610156576004355f52600560205260c060405f2060ff60018060a01b038254169160018101549060036002820154910154916040519485526020850152604084015281811615156060840152818160081c161515608084015260101c16151560a0820152f35b34610156576040366003190112610156576060610d90610d87610dc9565b60243590610eac565b91906020604051938492151583526040828401528051918291826040860152018484015e5f828201840152601f01601f19168101030190f35b600435906001600160a01b038216820361015657565b8054821015610df4575f5260205f2001905f90565b634e487b7160e01b5f52603260045260245ffd5b6040906003190112610156576004359060243590565b15610e2557565b60405162461bcd60e51b815260206004820152600b60248201526a1511ce881b9bdd08189bdd60aa1b6044820152606490fd5b60405190610140820182811067ffffffffffffffff821117610c4a57604052565b6040519190601f01601f1916820167ffffffffffffffff811183821017610c4a57604052565b91908201809211610c5e57565b6007546001600160a01b03163314801561103d575b610eca90610e1e565b6001600160a01b03165f908152600260205260409020600781015460ff8116156110095760101c60ff1615610fce5760038101548211610f93576201518042046006820180548211610f85575b505060058101918254916004610f2d8385610e9f565b91015410610f5357610f3e91610e9f565b9055600190610f4d6020610e79565b5f815290565b5050505f90610f626040610e79565b60138152721511ce8819185a5b1e481b1a5b5a5d081a1a5d606a1b602082015290565b5f6005840155555f80610f17565b50505f90610fa16040610e79565b601b81527f54473a2065786365656473207065722d6f72646572206c696d69740000000000602082015290565b50505f90610fdc6040610e79565b601a81527f54473a2074726164696e67207061757365642062792075736572000000000000602082015290565b5050505f906110186040610e79565b60158152741511ce881dd85b1b195d081b9bdd081b1a5b9ad959605a1b602082015290565b505f546001600160a01b03163314610ec1565b1561105757565b60405162461bcd60e51b815260206004820152600e60248201526d1511ce881b9bdd081b1a5b9ad95960921b6044820152606490fd5b5f546001600160a01b031633036105be5756fea2646970667358221220997d0d0cf6bd90671d4fd08e99ead1427a110d57c51e9ec1c2f519ecdc62217564736f6c634300081a0033",
  "linkReferences": {},
  "deployedLinkReferences": {}
}