{
  "_format": "hh-sol-artifact-1",
  "contractName": "WikiStakingFeeDiscount",
  "sourceName": "src/WikiStakingFeeDiscount.sol",
  "abi": [
    {
      "inputs": [
        {
          "internalType": "address",
          "name": "_owner",
          "type": "address"
        },
        {
          "internalType": "address",
          "name": "_veWIK",
          "type": "address"
        }
      ],
      "stateMutability": "nonpayable",
      "type": "constructor"
    },
    {
      "inputs": [
        {
          "internalType": "address",
          "name": "owner",
          "type": "address"
        }
      ],
      "name": "OwnableInvalidOwner",
      "type": "error"
    },
    {
      "inputs": [
        {
          "internalType": "address",
          "name": "account",
          "type": "address"
        }
      ],
      "name": "OwnableUnauthorizedAccount",
      "type": "error"
    },
    {
      "anonymous": false,
      "inputs": [
        {
          "indexed": true,
          "internalType": "address",
          "name": "trader",
          "type": "address"
        },
        {
          "indexed": false,
          "internalType": "uint256",
          "name": "discountBps",
          "type": "uint256"
        },
        {
          "indexed": false,
          "internalType": "uint256",
          "name": "savedUsdc",
          "type": "uint256"
        }
      ],
      "name": "FeeDiscountApplied",
      "type": "event"
    },
    {
      "anonymous": false,
      "inputs": [
        {
          "indexed": true,
          "internalType": "address",
          "name": "previousOwner",
          "type": "address"
        },
        {
          "indexed": true,
          "internalType": "address",
          "name": "newOwner",
          "type": "address"
        }
      ],
      "name": "OwnershipTransferStarted",
      "type": "event"
    },
    {
      "anonymous": false,
      "inputs": [
        {
          "indexed": true,
          "internalType": "address",
          "name": "previousOwner",
          "type": "address"
        },
        {
          "indexed": true,
          "internalType": "address",
          "name": "newOwner",
          "type": "address"
        }
      ],
      "name": "OwnershipTransferred",
      "type": "event"
    },
    {
      "inputs": [],
      "name": "BPS",
      "outputs": [
        {
          "internalType": "uint256",
          "name": "",
          "type": "uint256"
        }
      ],
      "stateMutability": "view",
      "type": "function"
    },
    {
      "inputs": [],
      "name": "MAX_DISCOUNT_BPS",
      "outputs": [
        {
          "internalType": "uint256",
          "name": "",
          "type": "uint256"
        }
      ],
      "stateMutability": "view",
      "type": "function"
    },
    {
      "inputs": [],
      "name": "acceptOwnership",
      "outputs": [],
      "stateMutability": "nonpayable",
      "type": "function"
    },
    {
      "inputs": [
        {
          "internalType": "address",
          "name": "trader",
          "type": "address"
        },
        {
          "internalType": "uint256",
          "name": "baseFee",
          "type": "uint256"
        }
      ],
      "name": "applyDiscount",
      "outputs": [
        {
          "internalType": "uint256",
          "name": "discountedFee",
          "type": "uint256"
        },
        {
          "internalType": "uint256",
          "name": "saved",
          "type": "uint256"
        }
      ],
      "stateMutability": "nonpayable",
      "type": "function"
    },
    {
      "inputs": [
        {
          "internalType": "address",
          "name": "trader",
          "type": "address"
        },
        {
          "internalType": "uint256",
          "name": "monthlyFeeUsdc",
          "type": "uint256"
        }
      ],
      "name": "estimateMonthlySavings",
      "outputs": [
        {
          "internalType": "uint256",
          "name": "savingsUsdc",
          "type": "uint256"
        },
        {
          "internalType": "uint256",
          "name": "paybackMonthsAt1USD",
          "type": "uint256"
        }
      ],
      "stateMutability": "view",
      "type": "function"
    },
    {
      "inputs": [],
      "name": "getAllTiers",
      "outputs": [
        {
          "components": [
            {
              "internalType": "uint256",
              "name": "minVeWIK",
              "type": "uint256"
            },
            {
              "internalType": "uint256",
              "name": "discountBps",
              "type": "uint256"
            },
            {
              "internalType": "string",
              "name": "tierName",
              "type": "string"
            }
          ],
          "internalType": "struct WikiStakingFeeDiscount.DiscountTier[]",
          "name": "",
          "type": "tuple[]"
        }
      ],
      "stateMutability": "view",
      "type": "function"
    },
    {
      "inputs": [
        {
          "internalType": "address",
          "name": "trader",
          "type": "address"
        }
      ],
      "name": "getDiscountBps",
      "outputs": [
        {
          "internalType": "uint256",
          "name": "discountBps",
          "type": "uint256"
        },
        {
          "internalType": "string",
          "name": "tierName",
          "type": "string"
        }
      ],
      "stateMutability": "view",
      "type": "function"
    },
    {
      "inputs": [
        {
          "internalType": "address",
          "name": "trader",
          "type": "address"
        }
      ],
      "name": "getTraderStatus",
      "outputs": [
        {
          "internalType": "uint256",
          "name": "veWIKBalance",
          "type": "uint256"
        },
        {
          "internalType": "uint256",
          "name": "discountBps",
          "type": "uint256"
        },
        {
          "internalType": "string",
          "name": "tierName",
          "type": "string"
        },
        {
          "internalType": "uint256",
          "name": "nextTierMinVeWIK",
          "type": "uint256"
        },
        {
          "internalType": "uint256",
          "name": "nextTierDiscountBps",
          "type": "uint256"
        },
        {
          "internalType": "uint256",
          "name": "lifetimeSaved",
          "type": "uint256"
        }
      ],
      "stateMutability": "view",
      "type": "function"
    },
    {
      "inputs": [
        {
          "internalType": "address",
          "name": "",
          "type": "address"
        }
      ],
      "name": "lifetimeFeesSaved",
      "outputs": [
        {
          "internalType": "uint256",
          "name": "",
          "type": "uint256"
        }
      ],
      "stateMutability": "view",
      "type": "function"
    },
    {
      "inputs": [],
      "name": "owner",
      "outputs": [
        {
          "internalType": "address",
          "name": "",
          "type": "address"
        }
      ],
      "stateMutability": "view",
      "type": "function"
    },
    {
      "inputs": [],
      "name": "pendingOwner",
      "outputs": [
        {
          "internalType": "address",
          "name": "",
          "type": "address"
        }
      ],
      "stateMutability": "view",
      "type": "function"
    },
    {
      "inputs": [
        {
          "internalType": "address",
          "name": "",
          "type": "address"
        }
      ],
      "name": "recorders",
      "outputs": [
        {
          "internalType": "bool",
          "name": "",
          "type": "bool"
        }
      ],
      "stateMutability": "view",
      "type": "function"
    },
    {
      "inputs": [],
      "name": "renounceOwnership",
      "outputs": [],
      "stateMutability": "nonpayable",
      "type": "function"
    },
    {
      "inputs": [
        {
          "internalType": "address",
          "name": "r",
          "type": "address"
        },
        {
          "internalType": "bool",
          "name": "on",
          "type": "bool"
        }
      ],
      "name": "setRecorder",
      "outputs": [],
      "stateMutability": "nonpayable",
      "type": "function"
    },
    {
      "inputs": [
        {
          "internalType": "uint256",
          "name": "idx",
          "type": "uint256"
        },
        {
          "internalType": "uint256",
          "name": "minVeWIK",
          "type": "uint256"
        },
        {
          "internalType": "uint256",
          "name": "discBps",
          "type": "uint256"
        },
        {
          "internalType": "string",
          "name": "name",
          "type": "string"
        }
      ],
      "name": "setTier",
      "outputs": [],
      "stateMutability": "nonpayable",
      "type": "function"
    },
    {
      "inputs": [
        {
          "internalType": "uint256",
          "name": "",
          "type": "uint256"
        }
      ],
      "name": "tiers",
      "outputs": [
        {
          "internalType": "uint256",
          "name": "minVeWIK",
          "type": "uint256"
        },
        {
          "internalType": "uint256",
          "name": "discountBps",
          "type": "uint256"
        },
        {
          "internalType": "string",
          "name": "tierName",
          "type": "string"
        }
      ],
      "stateMutability": "view",
      "type": "function"
    },
    {
      "inputs": [
        {
          "internalType": "address",
          "name": "newOwner",
          "type": "address"
        }
      ],
      "name": "transferOwnership",
      "outputs": [],
      "stateMutability": "nonpayable",
      "type": "function"
    },
    {
      "inputs": [],
      "name": "veWIK",
      "outputs": [
        {
          "internalType": "contract IERC20",
          "name": "",
          "type": "address"
        }
      ],
      "stateMutability": "view",
      "type": "function"
    }
  ],
  "bytecode": "0x60a060405234610256576113446040813803918261001c8161028d565b9384928339810103126102565761003e6020610037836102b2565b92016102b2565b6001600160a01b0390911690811561024357600180546001600160a01b03199081169091555f80549182168417815583916001600160a01b0316907f8be0079c531659141344cd1fd0a4f28419497f9722a3daafe3b4186f6b6457e09080a36001600160a01b03166080525f908152600460205260409020805460ff191660011790556100fe6100cc61025a565b5f81525f60208201526100df604061028d565b600881526714dd185b99185c9960c21b602082015260408201526102c6565b61014461010961025a565b68056bc75e2d6310000081526103e86020820152610127604061028d565b600681526542726f6e7a6560d01b602082015260408201526102c6565b61018a61014f61025a565b683635c9adc5dea0000081526107d0602082015261016d604061028d565b600681526529b4b63b32b960d11b602082015260408201526102c6565b6101cf61019561025a565b69021e19e0c9bab24000008152610bb860208201526101b4604061028d565b600481526311dbdb1960e21b602082015260408201526102c6565b6102176101da61025a565b69152d02c7e14af68000008152610fa060208201526101f9604061028d565b6007815266111a585b5bdb9960ca1b602082015260408201526102c6565b604051610ef6908161044e823960805181818160f401528181610652015281816108d20152610b530152f35b631e4fbdf760e01b5f525f60045260245ffd5b5f80fd5b60405190606082016001600160401b0381118382101761027957604052565b634e487b7160e01b5f52604160045260245ffd5b6040519190601f01601f191682016001600160401b0381118382101761027957604052565b51906001600160a01b038216820361025657565b9060025468010000000000000000811015610279576001810180600255811015610439576002604091815f52600360205f2091020184518155602085015160018201550192015191825160018060401b038111610279578154600181811c9116801561042f575b602082101461041b57601f81116103d6575b506020601f821160011461037857819293945f9261036d575b50508160011b915f199060031b1c1916179055565b015190505f80610358565b601f19821690835f52805f20915f5b8181106103be575095836001959697106103a6575b505050811b019055565b01515f1960f88460031b161c191690555f808061039c565b9192602060018192868b015181550194019201610387565b825f5260205f20601f830160051c81019160208410610411575b601f0160051c01905b818110610406575061033f565b5f81556001016103f9565b90915081906103f0565b634e487b7160e01b5f52602260045260245ffd5b90607f169061032d565b634e487b7160e01b5f52603260045260245ffdfe60806040526004361015610011575f80fd5b5f3560e01c8063020b77b514610873578063039af9eb146108175780630fcb33c8146107df578063249d39e9146107c357806331acf4d914610781578063390947cf146107655780635ce9c326146106085780636471af83146104db578063686d09f5146103935780636a2b171a146103605780636b39349f1461030d578063715018a6146102aa57806379ba50971461022557806381fabe97146101e85780638da5cb5b146101c1578063e30c397814610199578063f2fde38b146101275763ff3c26b9146100df575f80fd5b34610123575f366003190112610123576040517f00000000000000000000000000000000000000000000000000000000000000006001600160a01b03168152602090f35b5f80fd5b3461012357602036600319011261012357610140610981565b610148610ead565b60018060a01b0316806bffffffffffffffffffffffff60a01b600154161760015560018060a01b035f54167f38d16b8cac22d99fc7c124b9cd0de2d3fa1faef420bfe791d8c362d765e227005f80a3005b34610123575f366003190112610123576001546040516001600160a01b039091168152602090f35b34610123575f366003190112610123575f546040516001600160a01b039091168152602090f35b34610123576020366003190112610123576001600160a01b03610209610981565b165f526004602052602060ff60405f2054166040519015158152f35b34610123575f36600319011261012357600154336001600160a01b039091160361029757600180546001600160a01b03199081169091555f805433928116831782556001600160a01b0316907f8be0079c531659141344cd1fd0a4f28419497f9722a3daafe3b4186f6b6457e09080a3005b63118cdaa760e01b5f523360045260245ffd5b34610123575f366003190112610123576102c2610ead565b600180546001600160a01b03199081169091555f80549182168155906001600160a01b03167f8be0079c531659141344cd1fd0a4f28419497f9722a3daafe3b4186f6b6457e08280a3005b3461012357604036600319011261012357610326610981565b602435908115158092036101235761033c610ead565b60018060a01b03165f52600460205260405f209060ff801983541691161790555f80f35b3461012357604036600319011261012357604061038761037e610981565b60243590610dd4565b82519182526020820152f35b346101235760803660031901126101235760443560243560043560643567ffffffffffffffff8111610123573660238201121561012357806004013567ffffffffffffffff81116101235760248201916024823692010111610123576103f7610ead565b610fa085116104a45760025480841015610446575061043e9291610434916104449660405196610426886109ff565b875260208701523691610c5b565b6040840152610997565b90610ca1565b005b94610467935060405194610459866109ff565b855260208501523691610c5b565b6040820152680100000000000000008210156104905761043e8260016104449401600255610997565b634e487b7160e01b5f52604160045260245ffd5b60405162461bcd60e51b815260206004820152600f60248201526e08c887440caf0c6cacac8e640dac2f608b1b6044820152606490fd5b34610123575f3660031901126101235760025467ffffffffffffffff8111610490576040519061051160208260051b0183610a1b565b80825260208201908160025f527f405787fa12a823e0f2b7631cc41b3ba8828b3321ca811111fa75cd3aa3bb5ace5f915b8383106105ca57848660405191829160208301906020845251809152604083019060408160051b85010192915f905b82821061058057505050500390f35b919360019193955060206105ba8192603f198a8203018652606060408a518051845285810151868501520151918160408201520190610add565b9601920192018594939192610571565b600360206001926040516105dd816109ff565b8554815284860154838201526105f560028701610a3d565b6040820152815201920192019190610542565b3461012357602036600319011261012357610621610981565b6040516370a0823160e01b81526001600160a01b0382811660048301819052925f91829190602090859060249082907f0000000000000000000000000000000000000000000000000000000000000000165afa93841561075a575f94610724575b5061068c90610b28565b9190945f52600360205260405f2054915f600254905b8181106106e2575b50506106ce906040519687968752602087015260c0604087015260c0860190610add565b926060850152608084015260a08301520390f35b866106ec82610997565b5054116106fb576001016106a2565b94505090506106ce600161071961071186610997565b505495610997565b5001549190876106aa565b9093506020813d602011610752575b8161074060209383610a1b565b8101031261012357519261068c610682565b3d9150610733565b6040513d5f823e3d90fd5b34610123575f366003190112610123576020604051610fa08152f35b34610123576020366003190112610123576107a261079d610981565b610b28565b906107bf6040519283928352604060208401526040830190610add565b0390f35b34610123575f3660031901126101235760206040516127108152f35b34610123576020366003190112610123576001600160a01b03610800610981565b165f526003602052602060405f2054604051908152f35b34610123576020366003190112610123576004356002548110156101235761083e90610997565b5080546107bf610855600260018501549401610a3d565b60405193849384526020840152606060408401526060830190610add565b346101235760403660031901126101235761088c610981565b6127106108a461089b83610b28565b50602435610b01565b6040516370a0823160e01b81526001600160a01b0393841660048201529291900490602090839060249082907f0000000000000000000000000000000000000000000000000000000000000000165afa91821561075a575f9261094d575b50801561094357620f42408104801561092f57670de0b6b3a7640000604093040482519182526020820152f35b634e487b7160e01b5f52601260045260245ffd5b604091505f610387565b9091506020813d602011610979575b8161096960209383610a1b565b8101031261012357519082610902565b3d915061095c565b600435906001600160a01b038216820361012357565b6002548110156109b35760025f52600360205f20910201905f90565b634e487b7160e01b5f52603260045260245ffd5b90600182811c921680156109f5575b60208310146109e157565b634e487b7160e01b5f52602260045260245ffd5b91607f16916109d6565b6060810190811067ffffffffffffffff82111761049057604052565b90601f8019910116810190811067ffffffffffffffff82111761049057604052565b9060405191825f825492610a50846109c7565b8084529360018116908115610abb5750600114610a77575b50610a7592500383610a1b565b565b90505f9291925260205f20905f915b818310610a9f575050906020610a75928201015f610a68565b6020919350806001915483858901015201910190918492610a86565b905060209250610a7594915060ff191682840152151560051b8201015f610a68565b805180835260209291819084018484015e5f828201840152601f01601f1916010190565b81810292918115918404141715610b1457565b634e487b7160e01b5f52601160045260245ffd5b6040516370a0823160e01b81526001600160a01b0391821660048201529190602090839060249082907f0000000000000000000000000000000000000000000000000000000000000000165afa91821561075a575f92610c27575b505f604051610b93604082610a1b565b600881526714dd185b99185c9960c21b602082015260025490935f5b828110610bbd575050509190565b610bc681610997565b505482101580610c10575b610bde575b600101610baf565b945091506001610bed85610997565b500154916001610c086002610c0188610997565b5001610a3d565b959050610bd6565b50836001610c1d83610997565b5001541015610bd1565b9091506020813d602011610c53575b81610c4360209383610a1b565b810103126101235751905f610b83565b3d9150610c36565b92919267ffffffffffffffff82116104905760405191610c85601f8201601f191660200184610a1b565b829481845281830111610123578281602093845f960137010152565b90929192610dc157600260409184518155602085015160018201550192015191825167ffffffffffffffff811161049057610cdc82546109c7565b601f8111610d7c575b506020601f8211600114610d1e57819293945f92610d13575b50508160011b915f199060031b1c1916179055565b015190505f80610cfe565b601f19821690835f52805f20915f5b818110610d6457509583600195969710610d4c575b505050811b019055565b01515f1960f88460031b161c191690555f8080610d42565b9192602060018192868b015181550194019201610d2d565b825f5260205f20601f830160051c81019160208410610db7575b601f0160051c01905b818110610dac5750610ce5565b5f8155600101610d9f565b9091508190610d96565b634e487b7160e01b5f525f60045260245ffd5b91335f52600460205260ff60405f20541615610e7557610df383610b28565b508015610e6d57612710610e078285610b01565b0492838103908111610b14576001600160a01b039094165f81815260036020526040902080549192858301928310610b14577fc97a58a171644628b0afc0977dfe01bfad952a9d614eaa108bf7857c5453541c92604092558151908152856020820152a2565b509150905f90565b60405162461bcd60e51b815260206004820152601060248201526f23221d103737ba103932b1b7b93232b960811b6044820152606490fd5b5f546001600160a01b031633036102975756fea26469706673582212207dc7e63e5ebfc345871e564b87471777f2750a488059dd8e55ab0e1aa538db5a64736f6c634300081a0033",
  "linkReferences": {},
  "deployedLinkReferences": {}
}