{
  "_format": "hh-sol-artifact-1",
  "contractName": "WikiVolumeTiers",
  "sourceName": "src/WikiVolumeTiers.sol",
  "abi": [
    {
      "inputs": [
        {
          "internalType": "address",
          "name": "_owner",
          "type": "address"
        }
      ],
      "stateMutability": "nonpayable",
      "type": "constructor"
    },
    {
      "inputs": [
        {
          "internalType": "address",
          "name": "owner",
          "type": "address"
        }
      ],
      "name": "OwnableInvalidOwner",
      "type": "error"
    },
    {
      "inputs": [
        {
          "internalType": "address",
          "name": "account",
          "type": "address"
        }
      ],
      "name": "OwnableUnauthorizedAccount",
      "type": "error"
    },
    {
      "inputs": [],
      "name": "ReentrancyGuardReentrantCall",
      "type": "error"
    },
    {
      "anonymous": false,
      "inputs": [
        {
          "indexed": true,
          "internalType": "address",
          "name": "previousOwner",
          "type": "address"
        },
        {
          "indexed": true,
          "internalType": "address",
          "name": "newOwner",
          "type": "address"
        }
      ],
      "name": "OwnershipTransferStarted",
      "type": "event"
    },
    {
      "anonymous": false,
      "inputs": [
        {
          "indexed": true,
          "internalType": "address",
          "name": "previousOwner",
          "type": "address"
        },
        {
          "indexed": true,
          "internalType": "address",
          "name": "newOwner",
          "type": "address"
        }
      ],
      "name": "OwnershipTransferred",
      "type": "event"
    },
    {
      "anonymous": false,
      "inputs": [
        {
          "indexed": true,
          "internalType": "address",
          "name": "recorder",
          "type": "address"
        },
        {
          "indexed": false,
          "internalType": "bool",
          "name": "enabled",
          "type": "bool"
        }
      ],
      "name": "RecorderSet",
      "type": "event"
    },
    {
      "anonymous": false,
      "inputs": [
        {
          "indexed": false,
          "internalType": "uint8",
          "name": "tier",
          "type": "uint8"
        },
        {
          "indexed": false,
          "internalType": "uint256",
          "name": "minVolume",
          "type": "uint256"
        },
        {
          "indexed": false,
          "internalType": "uint256",
          "name": "discountBps",
          "type": "uint256"
        }
      ],
      "name": "TierUpdated",
      "type": "event"
    },
    {
      "anonymous": false,
      "inputs": [
        {
          "indexed": true,
          "internalType": "address",
          "name": "trader",
          "type": "address"
        },
        {
          "indexed": false,
          "internalType": "uint256",
          "name": "amount",
          "type": "uint256"
        },
        {
          "indexed": false,
          "internalType": "uint256",
          "name": "newTotal30d",
          "type": "uint256"
        },
        {
          "indexed": false,
          "internalType": "uint8",
          "name": "tier",
          "type": "uint8"
        }
      ],
      "name": "VolumeRecorded",
      "type": "event"
    },
    {
      "inputs": [],
      "name": "BPS",
      "outputs": [
        {
          "internalType": "uint256",
          "name": "",
          "type": "uint256"
        }
      ],
      "stateMutability": "view",
      "type": "function"
    },
    {
      "inputs": [],
      "name": "MAX_BUCKETS",
      "outputs": [
        {
          "internalType": "uint256",
          "name": "",
          "type": "uint256"
        }
      ],
      "stateMutability": "view",
      "type": "function"
    },
    {
      "inputs": [],
      "name": "WINDOW",
      "outputs": [
        {
          "internalType": "uint256",
          "name": "",
          "type": "uint256"
        }
      ],
      "stateMutability": "view",
      "type": "function"
    },
    {
      "inputs": [],
      "name": "acceptOwnership",
      "outputs": [],
      "stateMutability": "nonpayable",
      "type": "function"
    },
    {
      "inputs": [
        {
          "internalType": "uint256",
          "name": "baseTakerBps",
          "type": "uint256"
        },
        {
          "internalType": "address",
          "name": "trader",
          "type": "address"
        }
      ],
      "name": "effectiveFee",
      "outputs": [
        {
          "internalType": "uint256",
          "name": "effectiveBps",
          "type": "uint256"
        }
      ],
      "stateMutability": "view",
      "type": "function"
    },
    {
      "inputs": [
        {
          "internalType": "address",
          "name": "trader",
          "type": "address"
        }
      ],
      "name": "get30dVolume",
      "outputs": [
        {
          "internalType": "uint256",
          "name": "total",
          "type": "uint256"
        }
      ],
      "stateMutability": "view",
      "type": "function"
    },
    {
      "inputs": [],
      "name": "getAllTiers",
      "outputs": [
        {
          "components": [
            {
              "internalType": "uint256",
              "name": "minVolume",
              "type": "uint256"
            },
            {
              "internalType": "uint256",
              "name": "discountBps",
              "type": "uint256"
            },
            {
              "internalType": "string",
              "name": "name",
              "type": "string"
            }
          ],
          "internalType": "struct WikiVolumeTiers.TierConfig[5]",
          "name": "",
          "type": "tuple[5]"
        }
      ],
      "stateMutability": "view",
      "type": "function"
    },
    {
      "inputs": [
        {
          "internalType": "address",
          "name": "trader",
          "type": "address"
        }
      ],
      "name": "getDiscount",
      "outputs": [
        {
          "internalType": "uint256",
          "name": "discountBps",
          "type": "uint256"
        },
        {
          "internalType": "uint8",
          "name": "tier",
          "type": "uint8"
        }
      ],
      "stateMutability": "view",
      "type": "function"
    },
    {
      "inputs": [
        {
          "internalType": "address",
          "name": "trader",
          "type": "address"
        }
      ],
      "name": "getTierInfo",
      "outputs": [
        {
          "internalType": "uint8",
          "name": "tier",
          "type": "uint8"
        },
        {
          "internalType": "string",
          "name": "tierName",
          "type": "string"
        },
        {
          "internalType": "uint256",
          "name": "volume30d",
          "type": "uint256"
        },
        {
          "internalType": "uint256",
          "name": "discountBps",
          "type": "uint256"
        },
        {
          "internalType": "uint256",
          "name": "nextTierVolume",
          "type": "uint256"
        },
        {
          "internalType": "uint256",
          "name": "volumeToNextTier",
          "type": "uint256"
        }
      ],
      "stateMutability": "view",
      "type": "function"
    },
    {
      "inputs": [],
      "name": "owner",
      "outputs": [
        {
          "internalType": "address",
          "name": "",
          "type": "address"
        }
      ],
      "stateMutability": "view",
      "type": "function"
    },
    {
      "inputs": [],
      "name": "pendingOwner",
      "outputs": [
        {
          "internalType": "address",
          "name": "",
          "type": "address"
        }
      ],
      "stateMutability": "view",
      "type": "function"
    },
    {
      "inputs": [
        {
          "internalType": "address",
          "name": "trader",
          "type": "address"
        },
        {
          "internalType": "uint256",
          "name": "amount",
          "type": "uint256"
        }
      ],
      "name": "recordVolume",
      "outputs": [
        {
          "internalType": "uint8",
          "name": "currentTier",
          "type": "uint8"
        }
      ],
      "stateMutability": "nonpayable",
      "type": "function"
    },
    {
      "inputs": [
        {
          "internalType": "address",
          "name": "",
          "type": "address"
        }
      ],
      "name": "recorders",
      "outputs": [
        {
          "internalType": "bool",
          "name": "",
          "type": "bool"
        }
      ],
      "stateMutability": "view",
      "type": "function"
    },
    {
      "inputs": [],
      "name": "renounceOwnership",
      "outputs": [],
      "stateMutability": "nonpayable",
      "type": "function"
    },
    {
      "inputs": [
        {
          "internalType": "address",
          "name": "recorder",
          "type": "address"
        },
        {
          "internalType": "bool",
          "name": "enabled",
          "type": "bool"
        }
      ],
      "name": "setRecorder",
      "outputs": [],
      "stateMutability": "nonpayable",
      "type": "function"
    },
    {
      "inputs": [
        {
          "internalType": "uint256",
          "name": "",
          "type": "uint256"
        }
      ],
      "name": "tiers",
      "outputs": [
        {
          "internalType": "uint256",
          "name": "minVolume",
          "type": "uint256"
        },
        {
          "internalType": "uint256",
          "name": "discountBps",
          "type": "uint256"
        },
        {
          "internalType": "string",
          "name": "name",
          "type": "string"
        }
      ],
      "stateMutability": "view",
      "type": "function"
    },
    {
      "inputs": [],
      "name": "totalVolumeRecorded",
      "outputs": [
        {
          "internalType": "uint256",
          "name": "",
          "type": "uint256"
        }
      ],
      "stateMutability": "view",
      "type": "function"
    },
    {
      "inputs": [
        {
          "internalType": "address",
          "name": "newOwner",
          "type": "address"
        }
      ],
      "name": "transferOwnership",
      "outputs": [],
      "stateMutability": "nonpayable",
      "type": "function"
    },
    {
      "inputs": [
        {
          "internalType": "uint8",
          "name": "tier",
          "type": "uint8"
        },
        {
          "internalType": "uint256",
          "name": "minVolume",
          "type": "uint256"
        },
        {
          "internalType": "uint256",
          "name": "discountBps",
          "type": "uint256"
        },
        {
          "internalType": "string",
          "name": "name",
          "type": "string"
        }
      ],
      "name": "updateTier",
      "outputs": [],
      "stateMutability": "nonpayable",
      "type": "function"
    }
  ],
  "bytecode": "0x60806040523461086c5761183c6020813803918261001c8161088f565b93849283398101031261086c57516001600160a01b0381169081900361086c57801561085957600180546001600160a01b03199081169091555f8054918216831781556001600160a01b03909116907f8be0079c531659141344cd1fd0a4f28419497f9722a3daafe3b4186f6b6457e09080a360017f9b779b17422d0df92223018b32b4d1fa46e071723d6817e2486d003becc55f00556100bb610870565b5f8152602081015f81526100cf604061088f565b600881526714dd185b99185c9960c21b60208201526040830181905291516002555160035580516001600160401b0381116104e557600454600181811c9116801561084f575b60208210146104c757601f81116107ec575b50602091601f821160011461078c579181925f92610781575b50508160011b915f199060031b1c1916176004555b61015d610870565b64174876e800815260208101600a8152610177604061088f565b600881526710591d985b98d95960c21b60208201526040830181905291516005555160065580516001600160401b0381116104e557600754600181811c91168015610777575b60208210146104c757601f8111610714575b50602091601f82116001146106b4579181925f926106a9575b50508160011b915f199060031b1c1916176007555b610205610870565b64e8d4a510008152602081016014815261021f604061088f565b600381526250726f60e81b60208201526040830181905291516008555160095580516001600160401b0381116104e557600a54600181811c9116801561069f575b60208210146104c757601f811161063c575b50602091601f82116001146105dc579181925f926105d1575b50508160011b915f199060031b1c191617600a555b6102a8610870565b6509184e72a000815260208101601e81526102c3604061088f565b6005815264456c69746560d81b6020820152604083018190529151600b5551600c5580516001600160401b0381116104e557600d54600181811c911680156105c7575b60208210146104c757601f8111610564575b50602091601f8211600114610504579181925f926104f9575b50508160011b915f199060031b1c191617600d555b61034e610870565b652d79883d200081526020810160288152610369604061088f565b600381526205649560ec1b6020820152604083018190529151600e5551600f5580516001600160401b0381116104e557601054600181811c911680156104db575b60208210146104c757601f8111610464575b50602091601f8211600114610404579181925f926103f9575b50508160011b915f199060031b1c1916176010555b604051610f8790816108b58239f35b015190505f806103d5565b601f1982169260105f52805f20915f5b85811061044c57508360019510610434575b505050811b016010556103ea565b01515f1960f88460031b161c191690555f8080610426565b91926020600181928685015181550194019201610414565b60105f527f1b6847dc741a1b0cd08d278845f9d819d87b734759afb55fe2de5cb82a9ae672601f830160051c810191602084106104bd575b601f0160051c01905b8181106104b257506103bc565b5f81556001016104a5565b909150819061049c565b634e487b7160e01b5f52602260045260245ffd5b90607f16906103aa565b634e487b7160e01b5f52604160045260245ffd5b015190505f80610331565b601f19821692600d5f52805f20915f5b85811061054c57508360019510610534575b505050811b01600d55610346565b01515f1960f88460031b161c191690555f8080610526565b91926020600181928685015181550194019201610514565b600d5f527fd7b6990105719101dabeb77144f2a3385c8033acd3af97e9423a695e81ad1eb5601f830160051c810191602084106105bd575b601f0160051c01905b8181106105b25750610318565b5f81556001016105a5565b909150819061059c565b90607f1690610306565b015190505f8061028b565b601f19821692600a5f52805f20915f5b8581106106245750836001951061060c575b505050811b01600a556102a0565b01515f1960f88460031b161c191690555f80806105fe565b919260206001819286850151815501940192016105ec565b600a5f527fc65a7bb8d6351c1cf70c95a316cc6a92839c986682d98bc35f958f4883f9d2a8601f830160051c81019160208410610695575b601f0160051c01905b81811061068a5750610272565b5f815560010161067d565b9091508190610674565b90607f1690610260565b015190505f806101e8565b601f1982169260075f52805f20915f5b8581106106fc575083600195106106e4575b505050811b016007556101fd565b01515f1960f88460031b161c191690555f80806106d6565b919260206001819286850151815501940192016106c4565b60075f527fa66cc928b5edb82af9bd49922954155ab7b0942694bea4ce44661d9a8736c688601f830160051c8101916020841061076d575b601f0160051c01905b81811061076257506101cf565b5f8155600101610755565b909150819061074c565b90607f16906101bd565b015190505f80610140565b601f1982169260045f52805f20915f5b8581106107d4575083600195106107bc575b505050811b01600455610155565b01515f1960f88460031b161c191690555f80806107ae565b9192602060018192868501518155019401920161079c565b60045f527f8a35acfbc15ff81a39ae7d344fd709f28e8600b4aa8c65c6b64bfe7fe36bd19b601f830160051c81019160208410610845575b601f0160051c01905b81811061083a5750610127565b5f815560010161082d565b9091508190610824565b90607f1690610115565b631e4fbdf760e01b5f525f60045260245ffd5b5f80fd5b60405190606082016001600160401b038111838210176104e557604052565b6040519190601f01601f191682016001600160401b038111838210176104e55760405256fe60806040526004361015610011575f80fd5b5f3560e01c8063039af9eb14610a9457806306f2791a14610a4d57806315aaea1714610a32578063249d39e914610a165780636471af83146108f15780636b39349f14610874578063715018a61461081157806379ba50971461078c5780637fa2e5ba146106a957806381fabe971461066c57806383608cf9146105ab57806383b1701c146105805780638bf8158e146105635780638da5cb5b1461053c578063a53e54121461051f578063c9c04fcf1461046c578063cb929e7914610188578063e30c3978146101605763f2fde38b146100ea575f80fd5b3461015c57602036600319011261015c57610103610c29565b61010b610e8d565b60018060a01b0316806bffffffffffffffffffffffff60a01b600154161760015560018060a01b035f54167f38d16b8cac22d99fc7c124b9cd0de2d3fa1faef420bfe791d8c362d765e227005f80a3005b5f80fd5b3461015c575f36600319011261015c576001546040516001600160a01b039091168152602090f35b3461015c57608036600319011261015c5760043560ff81169081810361015c57602435604435916064359067ffffffffffffffff821161015c573660238301121561015c57816004013567ffffffffffffffff811161015c57366024828501011161015c576101f5610e8d565b600586101561043857603285116103fb576040519061021382610b27565b8482525f6020808401928884528060246040519861023a85601f19601f860116018b610b43565b828a520183890137860101526040820193845260058310156103e7576003600493029151826002015551600382015501905180519067ffffffffffffffff82116103d3576102888354610aef565b601f811161038e575b50602090601f831160011461030457918060609694927f52411122af13cde1f5bb4cd1735d2d3de551b3e1516262dfb8a18c730246b98c9896945f926102f9575b50508160011b915f199060031b1c19161790555b60405192835260208301526040820152a1005b0151905088806102d2565b90601f19831691845f52815f20925f5b81811061037657509260019285927f52411122af13cde1f5bb4cd1735d2d3de551b3e1516262dfb8a18c730246b98c9a989660609a98961061035e575b505050811b0190556102e6565b01515f1960f88460031b161c19169055888080610351565b92936020600181928786015181550195019301610314565b835f5260205f20601f840160051c810191602085106103c9575b601f0160051c01905b8181106103be5750610291565b5f81556001016103b1565b90915081906103a8565b634e487b7160e01b5f52604160045260245ffd5b634e487b7160e01b5f52603260045260245ffd5b60405162461bcd60e51b81526020600482015260156024820152740aca87440c8d2e6c6deeadce840e8dede40d0d2ced605b1b6044820152606490fd5b60405162461bcd60e51b815260206004820152600c60248201526b2b2a1d103130b2103a34b2b960a11b6044820152606490fd5b3461015c57604036600319011261015c57610485610c29565b60027f9b779b17422d0df92223018b32b4d1fa46e071723d6817e2486d003becc55f005414610510576104e160209160027f9b779b17422d0df92223018b32b4d1fa46e071723d6817e2486d003becc55f005560243590610d05565b60017f9b779b17422d0df92223018b32b4d1fa46e071723d6817e2486d003becc55f005560ff60405191168152f35b633ee5aeb560e01b5f5260045ffd5b3461015c575f36600319011261015c57602060405162278d008152f35b3461015c575f36600319011261015c575f546040516001600160a01b039091168152602090f35b3461015c575f36600319011261015c576020601354604051908152f35b3461015c57602036600319011261015c5760206105a361059e610c29565b610c76565b604051908152f35b3461015c57604036600319011261015c576024356001600160a01b038116906004359082900361015c57604051916303793c8d60e11b83526004830152604082602481305afa918215610661575f9261061e575b5081811115610614576020916105a391610c3f565b505060205f6105a3565b9091506040813d604011610659575b8161063a60409383610b43565b8101031261015c576020815191015160ff81160361015c5790826105ff565b3d915061062d565b6040513d5f823e3d90fd5b3461015c57602036600319011261015c576001600160a01b0361068d610c29565b165f526012602052602060ff60405f2054166040519015158152f35b3461015c57602036600319011261015c576106c2610c29565b5f906106ce5f91610c76565b6106d781610e4e565b9160058310156103e757600383029360ff60036106f660048801610b65565b9601549416936004851061073a575b610721604051968796875260c0602088015260c0870190610c05565b9360408601526060850152608084015260a08301520390f35b9150506001830160ff81116107785760058110156103e757600302600201548281115f146107725761076c8382610c3f565b91610705565b5f61076c565b634e487b7160e01b5f52601160045260245ffd5b3461015c575f36600319011261015c57600154336001600160a01b03909116036107fe57600180546001600160a01b03199081169091555f805433928116831782556001600160a01b0316907f8be0079c531659141344cd1fd0a4f28419497f9722a3daafe3b4186f6b6457e09080a3005b63118cdaa760e01b5f523360045260245ffd5b3461015c575f36600319011261015c57610829610e8d565b600180546001600160a01b03199081169091555f80549182168155906001600160a01b03167f8be0079c531659141344cd1fd0a4f28419497f9722a3daafe3b4186f6b6457e08280a3005b3461015c57604036600319011261015c5761088d610c29565b6024359081151580920361015c5760207ff36785c4cc49b452cea097975e887a69971f39688674af50cb3b1cb7e18c3482916108c7610e8d565b60018060a01b031692835f526012825260405f2060ff1981541660ff8316179055604051908152a2005b3461015c575f36600319011261015c5760405160a06109108183610b43565b5f5b8181106109ee5760405160a0810181811067ffffffffffffffff8211176103d35760405260025f825b600582106109b057836040518091602082016020835260c0830191905f5b60058110610968575050500390f35b919350916020806109a0600193601f198982030187526060604089518051845285810151868501520151918160408201520190610c05565b9501930191019084939291610959565b600360206001926040516109c381610b27565b8654815284870154838201526109db60028801610b65565b604082015281520193019101909161093b565b6020906040516109fd81610b27565b5f81525f83820152606060408201528185015201610912565b3461015c575f36600319011261015c5760206040516127108152f35b3461015c575f36600319011261015c576020604051601e8152f35b3461015c57602036600319011261015c57610a71610a6c61059e610c29565b610e4e565b60058110156103e7578060ff600380604094020154918351928352166020820152f35b3461015c57602036600319011261015c57600435600581101561015c576003028060020154610aeb610acd600460038501549401610b65565b60405193849384526020840152606060408401526060830190610c05565b0390f35b90600182811c92168015610b1d575b6020831014610b0957565b634e487b7160e01b5f52602260045260245ffd5b91607f1691610afe565b6060810190811067ffffffffffffffff8211176103d357604052565b90601f8019910116810190811067ffffffffffffffff8211176103d357604052565b9060405191825f825492610b7884610aef565b8084529360018116908115610be35750600114610b9f575b50610b9d92500383610b43565b565b90505f9291925260205f20905f915b818310610bc7575050906020610b9d928201015f610b90565b6020919350806001915483858901015201910190918492610bae565b905060209250610b9d94915060ff191682840152151560051b8201015f610b90565b805180835260209291819084018484015e5f828201840152601f01601f1916010190565b600435906001600160a01b038216820361015c57565b9190820391821161077857565b5f1981146107785760010190565b601e8210156103e75701905f90565b9190820180921161077857565b6001600160a01b03165f908152601160205260408120601e81015491929115610cff5762015180420490601e8210610cf857601c198201828111610778579190915b915b81831115610cc757505050565b909193610ceb610cf191610cde601e880685610c5a565b90549060031b1c90610c69565b94610c4c565b9190610cba565b905f610cb8565b505f9150565b919091335f52601260205260ff60405f2054168015610e3b575b15610e035782158015610df2575b610cff576001600160a01b03165f8181526011602052604090207f8b802cb63abef577927e75dbdfadd415f4c3ce93ad6cb22bbf81816f1b0e244a90606090620151804204610d7c8183610ea0565b610d89601e820683610c5a565b610d9b8983549260031b92831c610c69565b825490821b915f19901b1916179055601e601f830192610dbc898554610c69565b84550155610dcc86601354610c69565b6013555494610dda86610e4e565b95604051918252602082015260ff86166040820152a2565b506001600160a01b03811615610d2d565b60405162461bcd60e51b815260206004820152601060248201526f2b2a1d103737ba103932b1b7b93232b960811b6044820152606490fd5b505f546001600160a01b03163314610d1f565b60045b60ff8116610e5f5750505f90565b60058110156103e7576003810260020154821015610e885760ff168015610778575f1901610e51565b905090565b5f546001600160a01b031633036107fe57565b601e81019182548015610f4b5780821115610f4357610ebe91610c3f565b8015610f3e57601e811015610f3557915b60015b83811115610ee05750505050565b80610f1d601e610ef4610f30948654610c69565b06610eff8187610c5a565b90549060031b1c610f15601f8801918254610c3f565b905585610c5a565b8154905f199060031b1b19169055610c4c565b610ed2565b50601e91610ecf565b505050565b50505f610ebe565b5050505056fea264697066735822122010c88ac76763d9860dcf28f197c0ab6bc43eefea850c5e6aff6b25ec5085663c64736f6c634300081a0033",
  "linkReferences": {},
  "deployedLinkReferences": {}
}