{
  "_format": "hh-sol-artifact-1",
  "contractName": "WikiDynamicLeverage",
  "sourceName": "src/WikiDynamicLeverage.sol",
  "abi": [
    {
      "inputs": [
        {
          "internalType": "address",
          "name": "_owner",
          "type": "address"
        },
        {
          "internalType": "address",
          "name": "_vault",
          "type": "address"
        },
        {
          "internalType": "address",
          "name": "_vamm",
          "type": "address"
        },
        {
          "internalType": "address",
          "name": "_perp",
          "type": "address"
        }
      ],
      "stateMutability": "nonpayable",
      "type": "constructor"
    },
    {
      "inputs": [],
      "name": "EnforcedPause",
      "type": "error"
    },
    {
      "inputs": [],
      "name": "ExpectedPause",
      "type": "error"
    },
    {
      "inputs": [
        {
          "internalType": "address",
          "name": "owner",
          "type": "address"
        }
      ],
      "name": "OwnableInvalidOwner",
      "type": "error"
    },
    {
      "inputs": [
        {
          "internalType": "address",
          "name": "account",
          "type": "address"
        }
      ],
      "name": "OwnableUnauthorizedAccount",
      "type": "error"
    },
    {
      "anonymous": false,
      "inputs": [
        {
          "indexed": false,
          "internalType": "uint256",
          "name": "maxLeverage",
          "type": "uint256"
        },
        {
          "indexed": false,
          "internalType": "uint256",
          "name": "maxPositionUsdc",
          "type": "uint256"
        },
        {
          "indexed": false,
          "internalType": "uint256",
          "name": "maxOIPerMarket",
          "type": "uint256"
        },
        {
          "indexed": false,
          "internalType": "uint256",
          "name": "insuranceFund",
          "type": "uint256"
        },
        {
          "indexed": false,
          "internalType": "address",
          "name": "caller",
          "type": "address"
        }
      ],
      "name": "CapsUpdated",
      "type": "event"
    },
    {
      "anonymous": false,
      "inputs": [
        {
          "indexed": false,
          "internalType": "address",
          "name": "vault",
          "type": "address"
        },
        {
          "indexed": false,
          "internalType": "address",
          "name": "vamm",
          "type": "address"
        },
        {
          "indexed": false,
          "internalType": "address",
          "name": "perp",
          "type": "address"
        }
      ],
      "name": "ContractsUpdated",
      "type": "event"
    },
    {
      "anonymous": false,
      "inputs": [
        {
          "indexed": true,
          "internalType": "address",
          "name": "previousOwner",
          "type": "address"
        },
        {
          "indexed": true,
          "internalType": "address",
          "name": "newOwner",
          "type": "address"
        }
      ],
      "name": "OwnershipTransferStarted",
      "type": "event"
    },
    {
      "anonymous": false,
      "inputs": [
        {
          "indexed": true,
          "internalType": "address",
          "name": "previousOwner",
          "type": "address"
        },
        {
          "indexed": true,
          "internalType": "address",
          "name": "newOwner",
          "type": "address"
        }
      ],
      "name": "OwnershipTransferred",
      "type": "event"
    },
    {
      "anonymous": false,
      "inputs": [
        {
          "indexed": false,
          "internalType": "address",
          "name": "account",
          "type": "address"
        }
      ],
      "name": "Paused",
      "type": "event"
    },
    {
      "anonymous": false,
      "inputs": [
        {
          "indexed": true,
          "internalType": "uint256",
          "name": "newTierIdx",
          "type": "uint256"
        },
        {
          "indexed": false,
          "internalType": "string",
          "name": "tierName",
          "type": "string"
        },
        {
          "indexed": false,
          "internalType": "uint256",
          "name": "maxLeverage",
          "type": "uint256"
        },
        {
          "indexed": false,
          "internalType": "uint256",
          "name": "maxPosition",
          "type": "uint256"
        },
        {
          "indexed": false,
          "internalType": "uint256",
          "name": "insuranceFund",
          "type": "uint256"
        }
      ],
      "name": "TierAdvanced",
      "type": "event"
    },
    {
      "anonymous": false,
      "inputs": [
        {
          "indexed": true,
          "internalType": "uint256",
          "name": "newTierIdx",
          "type": "uint256"
        },
        {
          "indexed": false,
          "internalType": "string",
          "name": "tierName",
          "type": "string"
        },
        {
          "indexed": false,
          "internalType": "uint256",
          "name": "maxLeverage",
          "type": "uint256"
        },
        {
          "indexed": false,
          "internalType": "uint256",
          "name": "reason",
          "type": "uint256"
        }
      ],
      "name": "TierReduced",
      "type": "event"
    },
    {
      "anonymous": false,
      "inputs": [
        {
          "indexed": false,
          "internalType": "uint256",
          "name": "tiersCount",
          "type": "uint256"
        }
      ],
      "name": "TierScheduleUpdated",
      "type": "event"
    },
    {
      "anonymous": false,
      "inputs": [
        {
          "indexed": false,
          "internalType": "address",
          "name": "account",
          "type": "address"
        }
      ],
      "name": "Unpaused",
      "type": "event"
    },
    {
      "inputs": [],
      "name": "acceptOwnership",
      "outputs": [],
      "stateMutability": "nonpayable",
      "type": "function"
    },
    {
      "inputs": [],
      "name": "autoUpdateEnabled",
      "outputs": [
        {
          "internalType": "bool",
          "name": "",
          "type": "bool"
        }
      ],
      "stateMutability": "view",
      "type": "function"
    },
    {
      "inputs": [],
      "name": "currentCaps",
      "outputs": [
        {
          "internalType": "uint256",
          "name": "maxLeverage",
          "type": "uint256"
        },
        {
          "internalType": "uint256",
          "name": "maxPositionUsdc",
          "type": "uint256"
        },
        {
          "internalType": "uint256",
          "name": "maxOIPerMarket",
          "type": "uint256"
        },
        {
          "internalType": "uint256",
          "name": "insuranceFund",
          "type": "uint256"
        },
        {
          "internalType": "uint256",
          "name": "tierIdx",
          "type": "uint256"
        },
        {
          "internalType": "string",
          "name": "tierName",
          "type": "string"
        }
      ],
      "stateMutability": "view",
      "type": "function"
    },
    {
      "inputs": [],
      "name": "currentTierIdx",
      "outputs": [
        {
          "internalType": "uint256",
          "name": "",
          "type": "uint256"
        }
      ],
      "stateMutability": "view",
      "type": "function"
    },
    {
      "inputs": [],
      "name": "forceUpdate",
      "outputs": [],
      "stateMutability": "nonpayable",
      "type": "function"
    },
    {
      "inputs": [],
      "name": "fundNeededForNextTier",
      "outputs": [
        {
          "internalType": "uint256",
          "name": "needed",
          "type": "uint256"
        },
        {
          "internalType": "string",
          "name": "nextTierName",
          "type": "string"
        },
        {
          "internalType": "uint256",
          "name": "nextMaxLeverage",
          "type": "uint256"
        }
      ],
      "stateMutability": "view",
      "type": "function"
    },
    {
      "inputs": [],
      "name": "getAllTiers",
      "outputs": [
        {
          "components": [
            {
              "internalType": "uint256",
              "name": "minInsuranceFund",
              "type": "uint256"
            },
            {
              "internalType": "uint256",
              "name": "maxLeverage",
              "type": "uint256"
            },
            {
              "internalType": "uint256",
              "name": "maxPositionUsdc",
              "type": "uint256"
            },
            {
              "internalType": "uint256",
              "name": "maxOIPerMarket",
              "type": "uint256"
            },
            {
              "internalType": "string",
              "name": "name",
              "type": "string"
            }
          ],
          "internalType": "struct WikiDynamicLeverage.LeverageTier[]",
          "name": "",
          "type": "tuple[]"
        }
      ],
      "stateMutability": "view",
      "type": "function"
    },
    {
      "inputs": [
        {
          "internalType": "uint256",
          "name": "idx",
          "type": "uint256"
        }
      ],
      "name": "getTier",
      "outputs": [
        {
          "components": [
            {
              "internalType": "uint256",
              "name": "minInsuranceFund",
              "type": "uint256"
            },
            {
              "internalType": "uint256",
              "name": "maxLeverage",
              "type": "uint256"
            },
            {
              "internalType": "uint256",
              "name": "maxPositionUsdc",
              "type": "uint256"
            },
            {
              "internalType": "uint256",
              "name": "maxOIPerMarket",
              "type": "uint256"
            },
            {
              "internalType": "string",
              "name": "name",
              "type": "string"
            }
          ],
          "internalType": "struct WikiDynamicLeverage.LeverageTier",
          "name": "",
          "type": "tuple"
        }
      ],
      "stateMutability": "view",
      "type": "function"
    },
    {
      "inputs": [],
      "name": "lastPushedLeverage",
      "outputs": [
        {
          "internalType": "uint256",
          "name": "",
          "type": "uint256"
        }
      ],
      "stateMutability": "view",
      "type": "function"
    },
    {
      "inputs": [],
      "name": "lastPushedMaxOI",
      "outputs": [
        {
          "internalType": "uint256",
          "name": "",
          "type": "uint256"
        }
      ],
      "stateMutability": "view",
      "type": "function"
    },
    {
      "inputs": [],
      "name": "lastPushedMaxPos",
      "outputs": [
        {
          "internalType": "uint256",
          "name": "",
          "type": "uint256"
        }
      ],
      "stateMutability": "view",
      "type": "function"
    },
    {
      "inputs": [],
      "name": "lastUpdateTime",
      "outputs": [
        {
          "internalType": "uint256",
          "name": "",
          "type": "uint256"
        }
      ],
      "stateMutability": "view",
      "type": "function"
    },
    {
      "inputs": [
        {
          "internalType": "address",
          "name": "",
          "type": "address"
        }
      ],
      "name": "maxLeverageFor",
      "outputs": [
        {
          "internalType": "uint256",
          "name": "",
          "type": "uint256"
        }
      ],
      "stateMutability": "view",
      "type": "function"
    },
    {
      "inputs": [],
      "name": "owner",
      "outputs": [
        {
          "internalType": "address",
          "name": "",
          "type": "address"
        }
      ],
      "stateMutability": "view",
      "type": "function"
    },
    {
      "inputs": [],
      "name": "pause",
      "outputs": [],
      "stateMutability": "nonpayable",
      "type": "function"
    },
    {
      "inputs": [],
      "name": "paused",
      "outputs": [
        {
          "internalType": "bool",
          "name": "",
          "type": "bool"
        }
      ],
      "stateMutability": "view",
      "type": "function"
    },
    {
      "inputs": [],
      "name": "pendingOwner",
      "outputs": [
        {
          "internalType": "address",
          "name": "",
          "type": "address"
        }
      ],
      "stateMutability": "view",
      "type": "function"
    },
    {
      "inputs": [],
      "name": "perp",
      "outputs": [
        {
          "internalType": "contract IWikiPerp",
          "name": "",
          "type": "address"
        }
      ],
      "stateMutability": "view",
      "type": "function"
    },
    {
      "inputs": [],
      "name": "renounceOwnership",
      "outputs": [],
      "stateMutability": "nonpayable",
      "type": "function"
    },
    {
      "inputs": [
        {
          "internalType": "bool",
          "name": "enabled",
          "type": "bool"
        }
      ],
      "name": "setAutoUpdateEnabled",
      "outputs": [],
      "stateMutability": "nonpayable",
      "type": "function"
    },
    {
      "inputs": [
        {
          "internalType": "address",
          "name": "_vault",
          "type": "address"
        },
        {
          "internalType": "address",
          "name": "_vamm",
          "type": "address"
        },
        {
          "internalType": "address",
          "name": "_perp",
          "type": "address"
        }
      ],
      "name": "setContracts",
      "outputs": [],
      "stateMutability": "nonpayable",
      "type": "function"
    },
    {
      "inputs": [
        {
          "internalType": "uint256[]",
          "name": "minFunds",
          "type": "uint256[]"
        },
        {
          "internalType": "uint256[]",
          "name": "maxLeverages",
          "type": "uint256[]"
        },
        {
          "internalType": "uint256[]",
          "name": "maxPositions",
          "type": "uint256[]"
        },
        {
          "internalType": "uint256[]",
          "name": "maxOIs",
          "type": "uint256[]"
        },
        {
          "internalType": "string[]",
          "name": "names",
          "type": "string[]"
        }
      ],
      "name": "setTierSchedule",
      "outputs": [],
      "stateMutability": "nonpayable",
      "type": "function"
    },
    {
      "inputs": [
        {
          "internalType": "uint256",
          "name": "secs",
          "type": "uint256"
        }
      ],
      "name": "setUpdateCooldown",
      "outputs": [],
      "stateMutability": "nonpayable",
      "type": "function"
    },
    {
      "inputs": [],
      "name": "status",
      "outputs": [
        {
          "internalType": "uint256",
          "name": "fund",
          "type": "uint256"
        },
        {
          "internalType": "uint256",
          "name": "tier",
          "type": "uint256"
        },
        {
          "internalType": "string",
          "name": "tierName",
          "type": "string"
        },
        {
          "internalType": "uint256",
          "name": "maxLev",
          "type": "uint256"
        },
        {
          "internalType": "uint256",
          "name": "maxPos",
          "type": "uint256"
        },
        {
          "internalType": "uint256",
          "name": "maxOI",
          "type": "uint256"
        },
        {
          "internalType": "uint256",
          "name": "nextTierFundNeeded",
          "type": "uint256"
        },
        {
          "internalType": "uint256",
          "name": "nextMaxLev",
          "type": "uint256"
        },
        {
          "internalType": "uint256",
          "name": "nextUpdateAllowed",
          "type": "uint256"
        }
      ],
      "stateMutability": "view",
      "type": "function"
    },
    {
      "inputs": [
        {
          "internalType": "uint256",
          "name": "",
          "type": "uint256"
        }
      ],
      "name": "tiers",
      "outputs": [
        {
          "internalType": "uint256",
          "name": "minInsuranceFund",
          "type": "uint256"
        },
        {
          "internalType": "uint256",
          "name": "maxLeverage",
          "type": "uint256"
        },
        {
          "internalType": "uint256",
          "name": "maxPositionUsdc",
          "type": "uint256"
        },
        {
          "internalType": "uint256",
          "name": "maxOIPerMarket",
          "type": "uint256"
        },
        {
          "internalType": "string",
          "name": "name",
          "type": "string"
        }
      ],
      "stateMutability": "view",
      "type": "function"
    },
    {
      "inputs": [],
      "name": "tiersLength",
      "outputs": [
        {
          "internalType": "uint256",
          "name": "",
          "type": "uint256"
        }
      ],
      "stateMutability": "view",
      "type": "function"
    },
    {
      "inputs": [
        {
          "internalType": "address",
          "name": "newOwner",
          "type": "address"
        }
      ],
      "name": "transferOwnership",
      "outputs": [],
      "stateMutability": "nonpayable",
      "type": "function"
    },
    {
      "inputs": [],
      "name": "unpause",
      "outputs": [],
      "stateMutability": "nonpayable",
      "type": "function"
    },
    {
      "inputs": [],
      "name": "updateCooldown",
      "outputs": [
        {
          "internalType": "uint256",
          "name": "",
          "type": "uint256"
        }
      ],
      "stateMutability": "view",
      "type": "function"
    },
    {
      "inputs": [],
      "name": "updateLeverageCaps",
      "outputs": [],
      "stateMutability": "nonpayable",
      "type": "function"
    },
    {
      "inputs": [],
      "name": "vamm",
      "outputs": [
        {
          "internalType": "contract IWikiVirtualAMM",
          "name": "",
          "type": "address"
        }
      ],
      "stateMutability": "view",
      "type": "function"
    },
    {
      "inputs": [],
      "name": "vault",
      "outputs": [
        {
          "internalType": "contract IWikiVault",
          "name": "",
          "type": "address"
        }
      ],
      "stateMutability": "view",
      "type": "function"
    }
  ],
  "bytecode": "0x608060405234610696576125c26080813803918261001c816106cd565b93849283398101031261069657610032816106f2565b9061003f602082016106f2565b6100576060610050604085016106f2565b93016106f2565b926001600160a01b0316801561068357600180546001600160a01b03199081169091555f8054918216831781556001600160a01b03909116907f8be0079c531659141344cd1fd0a4f28419497f9722a3daafe3b4186f6b6457e09080a361012c6008556009805460ff191660011790556001600160a01b0316801561064957600380546001600160a01b0319169190911790556001600160a01b03168061062f575b506001600160a01b031680610615575b61016461011461069a565b5f8152600560208201526305f5e100604082015264012a05f200606082015261013d60406106cd565b601081526f4c41554e434820286e6f20736565642960801b60208201526080820152610706565b6101c361016f61069a565b6305f5e1008152600a6020820152631dcd650060408201526405d21dba00606082015261019c60406106cd565b601081526f534545442028243130302066756e642960801b60208201526080820152610706565b6102236101ce61069a565b631dcd65008152601460208201526377359400604082015264174876e80060608201526101fb60406106cd565b60118152704541524c592028243530302066756e642960781b60208201526080820152610706565b61028561022e61069a565b637735940081526019602082015264012a05f2006040820152643a35294400606082015261025c60406106cd565b601281527147524f57494e47202824324b2066756e642960701b60208201526080820152610706565b6102f361029061069a565b64012a05f2008152603260208201526404a817c800604082015264e8d4a5100060608201526102bf60406106cd565b601681527f45535441424c4953484544202824354b2066756e64290000000000000000000060208201526080820152610706565b6103576102fe61069a565b6404a817c8008152604b6020820152640ba43b7400604082015265048c27395000606082015261032e60406106cd565b60128152714d415455524520282432304b2066756e642960701b60208201526080820152610706565b6103c661036261069a565b640ba43b740081526064602082015264174876e80060408201526512309ce54000606082015261039260406106cd565b601581527f46554c4c203130307820282435304b2066756e6429000000000000000000000060208201526080820152610706565b61042a6103d161069a565b64746a52880081526064602082015264746a5288006040820152655af3107a4000606082015261040160406106cd565b60128152715343414c452028243530304b2066756e642960701b60208201526080820152610706565b61049961043561069a565b6501d1a94a2000815260c860208201526377359400604082015265b5e620f48000606082015261046560406106cd565b601881527f414456414e4345442032303078202824324d2066756e6429000000000000000060208201526080820152610706565b61050a6104a461069a565b6509184e72a00081526101f46020820152633b9aca0060408201526601c6bf5263400060608201526104d660406106cd565b601781527f455850455254203530307820282431304d2066756e642900000000000000000060208201526080820152610706565b61057b61051561069a565b652d79883d200081526103e86020820152631dcd6500604082015266038d7ea4c68000606082015261054760406106cd565b601781527f554c54524120313030307820282435304d2066756e642900000000000000000060208201526080820152610706565b6105ec61058661069a565b65b5e620f4800081526107d06020820152630ee6b280604082015266071afd498d000060608201526105b860406106cd565b601881527f464f5245582032303030782028243230304d2066756e6429000000000000000060208201526080820152610706565b5f6006556005600a556305f5e100600b5564012a05f200600c55604051611d1f90816108a38239f35b600580546001600160a01b0319169190911790555f610109565b600480546001600160a01b0319169190911790555f6100f9565b60405162461bcd60e51b8152602060048201526012602482015271111e5b93195d8e881e995c9bc81d985d5b1d60721b6044820152606490fd5b631e4fbdf760e01b5f525f60045260245ffd5b5f80fd5b6040519060a082016001600160401b038111838210176106b957604052565b634e487b7160e01b5f52604160045260245ffd5b6040519190601f01601f191682016001600160401b038111838210176106b957604052565b51906001600160a01b038216820361069657565b90600254680100000000000000008110156106b957600181018060025581101561088e57600460809160025f52600560205f20910201845181556020850151600182015560408501516002820155606085015160038201550192015191825160018060401b0381116106b9578154600181811c91168015610884575b602082101461087057601f811161082b575b506020601f82116001146107cd57819293945f926107c2575b50508160011b915f199060031b1c1916179055565b015190505f806107ad565b601f19821690835f52805f20915f5b818110610813575095836001959697106107fb575b505050811b019055565b01515f1960f88460031b161c191690555f80806107f1565b9192602060018192868b0151815501940192016107dc565b825f5260205f20601f830160051c81019160208410610866575b601f0160051c01905b81811061085b5750610794565b5f815560010161084e565b9091508190610845565b634e487b7160e01b5f52602260045260245ffd5b90607f1690610782565b634e487b7160e01b5f52603260045260245ffdfe60806040526004361015610011575f80fd5b5f803560e01c8063039af9eb146112ef57806319998e7e146112b05780631f73bcc114611293578063200d2ed214611128578063356ce56a146110b95780633586cd14146110975780633acaa0d7146110365780633f4ba83a14610fc65780634f062c5a14610f395780635c975abb14610f135780636471af8314610e0f578063715018a614610daa57806379ba509714610d255780637bb184b514610d0757806382ee173e14610ccf5780638456cb5914610c6c5780638b88c5a714610b8b5780638da5cb5b14610b64578063abc0b40e14610b40578063adce613014610476578063b3066d4914610353578063bfa4c00c1461032a578063c82f4ce9146102fa578063c8f33c91146102dc578063cff375e8146102be578063e098372c14610295578063e30c39781461026c578063ebf4dbc11461024e578063edde864f14610230578063f2fde38b146101c3578063fbfa77cf1461019a5763fd4c7a291461017a575f80fd5b346101975780600319360112610197576020600254604051908152f35b80fd5b50346101975780600319360112610197576003546040516001600160a01b039091168152602090f35b5034610197576020366003190112610197576101dd61154f565b6101e5611a4d565b600180546001600160a01b0319166001600160a01b0392831690811790915582549091167f38d16b8cac22d99fc7c124b9cd0de2d3fa1faef420bfe791d8c362d765e227008380a380f35b50346101975780600319360112610197576020600c54604051908152f35b50346101975780600319360112610197576020600b54604051908152f35b50346101975780600319360112610197576001546040516001600160a01b039091168152602090f35b50346101975780600319360112610197576004546040516001600160a01b039091168152602090f35b50346101975780600319360112610197576020600854604051908152f35b50346101975780600319360112610197576020600754604051908152f35b50346101975760203660031901126101975761031461154f565b50602080610320611a73565b0151604051908152f35b50346101975780600319360112610197576005546040516001600160a01b039091168152602090f35b50346101975760603660031901126101975761036d61154f565b6024356001600160a01b03811690819003610472576044356001600160a01b038116929083900361046e576103a0611a4d565b6001600160a01b0316801561043457600380546001600160a01b031916821790557fe008bc55cceb8bb7dc36a3bbaa95481f36a3537e2b4cdc39770a19cf94e754a5926060928061041d575b81610406575b60405192835260208301526040820152a180f35b600580546001600160a01b031916831790556103f2565b600480546001600160a01b031916821790556103ec565b60405162461bcd60e51b8152602060048201526012602482015271111e5b93195d8e881e995c9bc81d985d5b1d60721b6044820152606490fd5b8380fd5b8280fd5b50346101975760a03660031901126101975760043567ffffffffffffffff811161084c576104a890369060040161151e565b60243567ffffffffffffffff811161046e576104c890369060040161151e565b929060443567ffffffffffffffff8111610b3c576104ea90369060040161151e565b93909260643567ffffffffffffffff8111610b385761050d90369060040161151e565b95909260843567ffffffffffffffff8111610b345761053090369060040161151e565b97909361053b611a4d565b6105468a841461199a565b61055184841461199a565b60028310610aef578215610adb578035610a965760015b8381106109a657506002548b600255806108b8575b508a5b8381106105b8578b7f95079a212424aa3b35d7d81f72a50d7f6d506d2bb83a2256399b04771e423a9f6020600254604051908152a180f35b60016105c5828d8b6119e6565b351015806108a1575b15610865576105de8185846119e6565b356105ea828d8b6119e6565b356105f683888d6119e6565b359161060384878c6119e6565b35928d851015610850578f8560051b8b013594601e198c36030186121561084c5767ffffffffffffffff868d01351161084c578b6020878083013536039201011361084c5760405193610655856113ca565b84526020840194855260408401928352606084015260208b601f8781199201350116019461068660405196876113fa565b8b810180358088523691016020011161084c576020908c81018035908301888401378c0135860101526080820193845260025468010000000000000000811015610836578060016106da9201600255611362565b939093610820579160609160049493825185555160018501555160028401550151600382015501905180519067ffffffffffffffff821161080c578e906107218454611392565b601f81116107d1575b50602090601f841160011461076d5760019594939291829184610762575b5050505f19600383901b1c191690841b1790555b01610580565b015191505f80610748565b601f198416858452828420935b8181106107b95750916001969594929183889593106107a1575b505050811b01905561075c565b01515f1960f88460031b161c191690555f8080610794565b9293602060018192878601518155019501930161077a565b6107fc9085845260208420601f860160051c81019160208710610802575b601f0160051c01906119f6565b5f61072a565b90915081906107ef565b634e487b7160e01b8f52604160045260248ffd5b5050634e487b7160e01b8f5260048f905260248ffd5b5050634e487b7160e01b8f52604160045260248ffd5b5080fd5b50634e487b7160e01b8f52603260045260248ffd5b60405162461bcd60e51b8152602060048201526014602482015273088f2dc98caec7440dac2f040d2e64064606060f60631b6044820152606490fd5b506107d06108b0828d8b6119e6565b3511156105ce565b806005029060058204036109925760028c527f405787fa12a823e0f2b7631cc41b3ba8828b3321ca811111fa75cd3aa3bb5ace017f405787fa12a823e0f2b7631cc41b3ba8828b3321ca811111fa75cd3aa3bb5ace5b81811061091b575061057d565b808d600592558d60018201558d60028201558d60038201558d600482016109428154611392565b80610951575b5050500161090e565b601f81116001146109675750555b8d5f80610948565b8183526020832061098291601f01861c8101906001016119f6565b808252816020812091555561095f565b634e487b7160e01b8c52601160045260248cfd5b6109b18185846119e6565b5f1982019035828211610a82576109c98287866119e6565b351015610a3d576109ea8d916109e0848f8d6119e6565b3592508d8b6119e6565b35116109f857600101610568565b60405162461bcd60e51b815260206004820152601960248201527f44796e4c65763a206e6f6e2d617363656e64696e67206c6576000000000000006044820152606490fd5b60405162461bcd60e51b815260206004820152601a60248201527f44796e4c65763a206e6f6e2d617363656e64696e672066756e640000000000006044820152606490fd5b634e487b7160e01b8e52601160045260248efd5b60405162461bcd60e51b815260206004820152601b60248201527f44796e4c65763a20746965722030206d757374206e65656420243000000000006044820152606490fd5b634e487b7160e01b8b52603260045260248bfd5b60405162461bcd60e51b815260206004820152601760248201527f44796e4c65763a206e656564203e3d20322074696572730000000000000000006044820152606490fd5b8980fd5b8780fd5b8580fd5b5034610197578060031936011261019757610b59611af9565b610b616116ff565b80f35b5034610197578060031936011261019757546040516001600160a01b039091168152602090f35b5034610197578060031936011261019757610ba4611a73565b60035460405163b790230360e01b815291929190602090829060049082906001600160a01b03165afa918215610c605791610c2a575b50610c266020830151916040840151936060810151916080600654920151926040519687968752602087015260408601526060850152608084015260c060a084015260c08301906114bc565b0390f35b90506020813d602011610c58575b81610c45602093836113fa565b81010312610c5457515f610bda565b5f80fd5b3d9150610c38565b604051903d90823e3d90fd5b5034610197578060031936011261019757610c85611a4d565b610c8d611af9565b6001805460ff60a01b1916600160a01b1790556040513381527f62e78cea01bee320cd4e420270b5ea74000d11b0c9f74754ebdbfc544b05a25890602090a180f35b50346101975760203660031901126101975760043580151580910361084c57610cf6611a4d565b60ff80196009541691161760095580f35b50346101975780600319360112610197576020600a54604051908152f35b5034610197578060031936011261019757600154336001600160a01b0390911603610d9757600180546001600160a01b0319908116909155815433918116821783556001600160a01b03167f8be0079c531659141344cd1fd0a4f28419497f9722a3daafe3b4186f6b6457e08380a380f35b63118cdaa760e01b815233600452602490fd5b5034610197578060031936011261019757610dc3611a4d565b600180546001600160a01b03199081169091558154908116825581906001600160a01b03167f8be0079c531659141344cd1fd0a4f28419497f9722a3daafe3b4186f6b6457e08280a380f35b503461019757806003193601126101975760025467ffffffffffffffff8111610eff57604051610e4560208360051b01826113fa565b818152600283526020810191837f405787fa12a823e0f2b7631cc41b3ba8828b3321ca811111fa75cd3aa3bb5ace845b838310610ee157868587604051928392602084019060208552518091526040840160408260051b8601019392905b828210610eb257505050500390f35b91936001919395506020610ed18192603f198a820301865288516114e0565b9601920192018594939192610ea3565b60056020600192610ef18561157f565b815201920192019190610e75565b634e487b7160e01b82526041600452602482fd5b5034610197578060031936011261019757602060ff60015460a01c166040519015158152f35b503461019757602036600319011261019757600435610f566116d5565b50600254811015610f8a57610f76610f70610c2692611362565b5061157f565b6040519182916020835260208301906114e0565b60405162461bcd60e51b815260206004820152601460248201527344796e4c65763a206f7574206f662072616e676560601b6044820152606490fd5b5034610197578060031936011261019757610fdf611a4d565b60015460ff8160a01c16156110275760ff60a01b19166001556040513381527f5db9ee0a495bf2e6ff9c91a7834c1ba4fdd244a5e8aa4e537bd38aeae4b073aa90602090a180f35b638dfc202b60e01b8252600482fd5b5034610c54575f366003190112610c545761104f611a4d565b5f600755303b15610c54576040516355e05a0760e11b81525f8160048183305af1801561108c5761107e575080f35b61108a91505f906113fa565b005b6040513d5f823e3d90fd5b34610c54575f366003190112610c5457602060ff600954166040519015158152f35b34610c54576020366003190112610c54576004356110d5611a4d565b610e1081116110e357600855005b60405162461bcd60e51b815260206004820152601960248201527f44796e4c65763a20636f6f6c646f776e20746f6f206c6f6e67000000000000006044820152606490fd5b34610c54575f366003190112610c545760035460405163b790230360e01b81525f918290602090839060049082906001600160a01b03165afa91821561108c575f9261125f575b5061117982611a0c565b92611186610f7085611362565b9160808301519160208401519360606040820151910151906001880180891161124b57600254811061120b575b506111e76111c660075460085490611565565b95604051998a998a5260208a015261012060408a01526101208901906114bc565b956060880152608087015260a086015260c085015260e08401526101008301520390f35b610f7091945061121c929350611362565b90858251808210155f1461123a57505060205f5b92015192886111b3565b60209161124691611572565b611230565b634e487b7160e01b5f52601160045260245ffd5b9091506020813d60201161128b575b8161127b602093836113fa565b81010312610c545751908361116f565b3d915061126e565b34610c54575f366003190112610c54576020600654604051908152f35b34610c54575f366003190112610c54576112c86115c2565b60405192835260606020840181905283926112e5918401906114bc565b9060408301520390f35b34610c54576020366003190112610c5457600435600254811015610c545761131690611362565b508054610c2660018301549260028101549061133960046003830154920161141c565b91604051958695865260208601526040850152606084015260a0608084015260a08301906114bc565b60025481101561137e5760025f52600560205f20910201905f90565b634e487b7160e01b5f52603260045260245ffd5b90600182811c921680156113c0575b60208310146113ac57565b634e487b7160e01b5f52602260045260245ffd5b91607f16916113a1565b60a0810190811067ffffffffffffffff8211176113e657604052565b634e487b7160e01b5f52604160045260245ffd5b90601f8019910116810190811067ffffffffffffffff8211176113e657604052565b9060405191825f82549261142f84611392565b808452936001811690811561149a5750600114611456575b50611454925003836113fa565b565b90505f9291925260205f20905f915b81831061147e575050906020611454928201015f611447565b6020919350806001915483858901015201910190918492611465565b90506020925061145494915060ff191682840152151560051b8201015f611447565b805180835260209291819084018484015e5f828201840152601f01601f1916010190565b9060a0608061151b938051845260208101516020850152604081015160408501526060810151606085015201519181608082015201906114bc565b90565b9181601f84011215610c545782359167ffffffffffffffff8311610c54576020808501948460051b010111610c5457565b600435906001600160a01b0382168203610c5457565b9190820180921161124b57565b9190820391821161124b57565b9060405161158c816113ca565b60806115bd60048395805485526001810154602086015260028101546040860152600381015460608601520161141c565b910152565b60035460405163b790230360e01b81529190602090839060049082906001600160a01b03165afa91821561108c575f926116a1575b5061160182611a0c565b6001810180911161124b57600254808210156116535750610f7061162491611362565b805190928181106116445750505f905b6020608084015193015191929190565b61164d91611572565b90611634565b919250505f19810190811161124b5761166d600191611362565b5001545f916040516116806040826113fa565b601081526f13505608151251548814915050d2115160821b60208201529190565b9091506020813d6020116116cd575b816116bd602093836113fa565b81010312610c545751905f6115f7565b3d91506116b0565b604051906116e2826113ca565b60606080835f81525f60208201525f60408201525f838201520152565b60ff60095416156119555761171960075460085490611565565b421061191d5760035460405163b790230360e01b815290602090829060049082906001600160a01b03165afa90811561108c575f916118eb575b5061175d81611a0c565b9061176a610f7083611362565b600654916020820192835193600a5485148015906118db575b4260075515806118d2575b6118ca578560a0957fc5e6a64b67f42b2e2dfbcc9af519cff35751a675bd2509e436145220f771b71497600655600a5560408501948551600b5560608101938451600c556117db82611b17565b6117e482611bf5565b80831115611867575061182e60807fd12205a76cccac3e60fec5b853fa6569cacf953cd589c3d43c6e915bf4c24f14920151845188516040519384936080855260808501906114bc565b91602084015260408301528760608301520390a25b519251905190604051938452602084015260408301526060820152336080820152a1565b8210611875575b5050611843565b6118b460807fe628d8f566c70ad4e4e06a0c0063aba0cf1da2d622ab9b6fdf7e1795e4bd687892015184516040519283926060845260608401906114bc565b9060208301525f60408301520390a25f8061186e565b505050505050565b5081861461178e565b506040840151600b541415611783565b90506020813d602011611915575b81611906602093836113fa565b81010312610c5457515f611753565b3d91506118f9565b60405162461bcd60e51b815260206004820152601060248201526f223cb72632bb1d1031b7b7b63237bbb760811b6044820152606490fd5b60405162461bcd60e51b815260206004820152601c60248201527f44796e4c65763a206175746f2d7570646174652064697361626c6564000000006044820152606490fd5b156119a157565b60405162461bcd60e51b815260206004820152601760248201527f44796e4c65763a206c656e677468206d69736d617463680000000000000000006044820152606490fd5b919081101561137e5760051b0190565b818110611a01575050565b5f81556001016119f6565b905f91600190600254905b818310611a2357505050565b90929193611a3085611362565b50548210611a45575060018401919290611a17565b935090915050565b5f546001600160a01b03163303611a6057565b63118cdaa760e01b5f523360045260245ffd5b611a7b6116d5565b5060035460405163b790230360e01b815290602090829060049082906001600160a01b03165afa90811561108c575f91611ac5575b50610f70611ac061151b92611a0c565b611362565b90506020813d602011611af1575b81611ae0602093836113fa565b81010312610c545751610f70611ab0565b3d9150611ad3565b60ff60015460a01c16611b0857565b63d93c066560e01b5f5260045ffd5b6004546001600160a01b03168015611bf157602060049160405192838092632950095160e21b82525afa5f9181611bbd575b50611b52575050565b5f5b818110611b6057505050565b600454602084015191906001600160a01b0316803b15610c54575f80916044600195604051948593849263ec15dfbd60e01b845288600485015260248401525af1611bad575b5001611b54565b5f611bb7916113fa565b5f611ba6565b9091506020813d602011611be9575b81611bd9602093836113fa565b81010312610c545751905f611b49565b3d9150611bcc565b5050565b6005546001600160a01b03168015611bf157602060049160405192838092632950095160e21b82525afa5f9181611cb5575b50611c30575050565b5f5b818110611c3e57505050565b60018060a01b0360055416906020840151604085015190606086015191843b15610c545760a45f928360019760405196879586946328bb52c360e01b86528a60048701526024860152604485015280606485015260848401525af1611ca5575b5001611c32565b5f611caf916113fa565b5f611c9e565b9091506020813d602011611ce1575b81611cd1602093836113fa565b81010312610c545751905f611c27565b3d9150611cc456fea26469706673582212204177e6ceec43287bbc1297be2338104f9e7957c61f589cd84262dfcaa259b9ba64736f6c634300081a0033",
  "linkReferences": {},
  "deployedLinkReferences": {}
}