{
  "_format": "hh-sol-artifact-1",
  "contractName": "WikiLiqProtection",
  "sourceName": "src/WikiLiqProtection.sol",
  "abi": [
    {
      "inputs": [
        {
          "internalType": "address",
          "name": "_owner",
          "type": "address"
        },
        {
          "internalType": "address",
          "name": "_usdc",
          "type": "address"
        },
        {
          "internalType": "address",
          "name": "_revenueSplitter",
          "type": "address"
        }
      ],
      "stateMutability": "nonpayable",
      "type": "constructor"
    },
    {
      "inputs": [
        {
          "internalType": "address",
          "name": "owner",
          "type": "address"
        }
      ],
      "name": "OwnableInvalidOwner",
      "type": "error"
    },
    {
      "inputs": [
        {
          "internalType": "address",
          "name": "account",
          "type": "address"
        }
      ],
      "name": "OwnableUnauthorizedAccount",
      "type": "error"
    },
    {
      "inputs": [],
      "name": "ReentrancyGuardReentrantCall",
      "type": "error"
    },
    {
      "inputs": [
        {
          "internalType": "address",
          "name": "token",
          "type": "address"
        }
      ],
      "name": "SafeERC20FailedOperation",
      "type": "error"
    },
    {
      "anonymous": false,
      "inputs": [
        {
          "indexed": false,
          "internalType": "address",
          "name": "trader",
          "type": "address"
        },
        {
          "indexed": false,
          "internalType": "uint256",
          "name": "amount",
          "type": "uint256"
        },
        {
          "indexed": false,
          "internalType": "uint256",
          "name": "healthBefore",
          "type": "uint256"
        },
        {
          "indexed": false,
          "internalType": "uint256",
          "name": "healthAfter",
          "type": "uint256"
        }
      ],
      "name": "MarginAutoAdded",
      "type": "event"
    },
    {
      "anonymous": false,
      "inputs": [
        {
          "indexed": true,
          "internalType": "address",
          "name": "previousOwner",
          "type": "address"
        },
        {
          "indexed": true,
          "internalType": "address",
          "name": "newOwner",
          "type": "address"
        }
      ],
      "name": "OwnershipTransferStarted",
      "type": "event"
    },
    {
      "anonymous": false,
      "inputs": [
        {
          "indexed": true,
          "internalType": "address",
          "name": "previousOwner",
          "type": "address"
        },
        {
          "indexed": true,
          "internalType": "address",
          "name": "newOwner",
          "type": "address"
        }
      ],
      "name": "OwnershipTransferred",
      "type": "event"
    },
    {
      "anonymous": false,
      "inputs": [
        {
          "indexed": false,
          "internalType": "address",
          "name": "trader",
          "type": "address"
        },
        {
          "indexed": false,
          "internalType": "uint256",
          "name": "amount",
          "type": "uint256"
        }
      ],
      "name": "ReserveDeposited",
      "type": "event"
    },
    {
      "anonymous": false,
      "inputs": [
        {
          "indexed": false,
          "internalType": "address",
          "name": "trader",
          "type": "address"
        },
        {
          "indexed": false,
          "internalType": "enum WikiLiqProtection.SubTier",
          "name": "tier",
          "type": "uint8"
        },
        {
          "indexed": false,
          "internalType": "uint256",
          "name": "expiresAt",
          "type": "uint256"
        }
      ],
      "name": "Subscribed",
      "type": "event"
    },
    {
      "anonymous": false,
      "inputs": [
        {
          "indexed": false,
          "internalType": "address",
          "name": "trader",
          "type": "address"
        }
      ],
      "name": "SubscriptionExpired",
      "type": "event"
    },
    {
      "inputs": [],
      "name": "BPS",
      "outputs": [
        {
          "internalType": "uint256",
          "name": "",
          "type": "uint256"
        }
      ],
      "stateMutability": "view",
      "type": "function"
    },
    {
      "inputs": [],
      "name": "MIN_RESERVE_REFILL",
      "outputs": [
        {
          "internalType": "uint256",
          "name": "",
          "type": "uint256"
        }
      ],
      "stateMutability": "view",
      "type": "function"
    },
    {
      "inputs": [],
      "name": "USDC",
      "outputs": [
        {
          "internalType": "contract IERC20",
          "name": "",
          "type": "address"
        }
      ],
      "stateMutability": "view",
      "type": "function"
    },
    {
      "inputs": [],
      "name": "acceptOwnership",
      "outputs": [],
      "stateMutability": "nonpayable",
      "type": "function"
    },
    {
      "inputs": [
        {
          "internalType": "address",
          "name": "trader",
          "type": "address"
        },
        {
          "internalType": "uint256",
          "name": "currentHealthBps",
          "type": "uint256"
        },
        {
          "internalType": "uint256",
          "name": "addAmount",
          "type": "uint256"
        },
        {
          "internalType": "address",
          "name": "perpContract",
          "type": "address"
        }
      ],
      "name": "autoAddMargin",
      "outputs": [],
      "stateMutability": "nonpayable",
      "type": "function"
    },
    {
      "inputs": [
        {
          "internalType": "uint256",
          "name": "amount",
          "type": "uint256"
        }
      ],
      "name": "deployIdle",
      "outputs": [],
      "stateMutability": "nonpayable",
      "type": "function"
    },
    {
      "inputs": [
        {
          "internalType": "uint256",
          "name": "amount",
          "type": "uint256"
        }
      ],
      "name": "depositReserve",
      "outputs": [],
      "stateMutability": "nonpayable",
      "type": "function"
    },
    {
      "inputs": [],
      "name": "getMonthlyRevenue",
      "outputs": [
        {
          "internalType": "uint256",
          "name": "annualised",
          "type": "uint256"
        }
      ],
      "stateMutability": "view",
      "type": "function"
    },
    {
      "inputs": [
        {
          "internalType": "address",
          "name": "trader",
          "type": "address"
        }
      ],
      "name": "getSubscription",
      "outputs": [
        {
          "internalType": "bool",
          "name": "active",
          "type": "bool"
        },
        {
          "internalType": "enum WikiLiqProtection.SubTier",
          "name": "tier",
          "type": "uint8"
        },
        {
          "internalType": "uint256",
          "name": "expiresAt",
          "type": "uint256"
        },
        {
          "internalType": "uint256",
          "name": "reserve",
          "type": "uint256"
        },
        {
          "internalType": "uint256",
          "name": "daysLeft",
          "type": "uint256"
        },
        {
          "internalType": "uint256",
          "name": "totalAdded",
          "type": "uint256"
        },
        {
          "internalType": "bool",
          "name": "paused",
          "type": "bool"
        }
      ],
      "stateMutability": "view",
      "type": "function"
    },
    {
      "inputs": [],
      "name": "idleYieldRouter",
      "outputs": [
        {
          "internalType": "contract IIdleYieldRouter",
          "name": "",
          "type": "address"
        }
      ],
      "stateMutability": "view",
      "type": "function"
    },
    {
      "inputs": [],
      "name": "keeperFeeBps",
      "outputs": [
        {
          "internalType": "uint256",
          "name": "",
          "type": "uint256"
        }
      ],
      "stateMutability": "view",
      "type": "function"
    },
    {
      "inputs": [
        {
          "internalType": "address",
          "name": "",
          "type": "address"
        }
      ],
      "name": "keepers",
      "outputs": [
        {
          "internalType": "bool",
          "name": "",
          "type": "bool"
        }
      ],
      "stateMutability": "view",
      "type": "function"
    },
    {
      "inputs": [],
      "name": "owner",
      "outputs": [
        {
          "internalType": "address",
          "name": "",
          "type": "address"
        }
      ],
      "stateMutability": "view",
      "type": "function"
    },
    {
      "inputs": [],
      "name": "pendingOwner",
      "outputs": [
        {
          "internalType": "address",
          "name": "",
          "type": "address"
        }
      ],
      "stateMutability": "view",
      "type": "function"
    },
    {
      "inputs": [
        {
          "internalType": "uint256",
          "name": "amount",
          "type": "uint256"
        },
        {
          "internalType": "string",
          "name": "reason",
          "type": "string"
        }
      ],
      "name": "recallIdle",
      "outputs": [],
      "stateMutability": "nonpayable",
      "type": "function"
    },
    {
      "inputs": [
        {
          "internalType": "uint256",
          "name": "months",
          "type": "uint256"
        }
      ],
      "name": "renewSubscription",
      "outputs": [],
      "stateMutability": "nonpayable",
      "type": "function"
    },
    {
      "inputs": [],
      "name": "renounceOwnership",
      "outputs": [],
      "stateMutability": "nonpayable",
      "type": "function"
    },
    {
      "inputs": [],
      "name": "revenueSplitter",
      "outputs": [
        {
          "internalType": "address",
          "name": "",
          "type": "address"
        }
      ],
      "stateMutability": "view",
      "type": "function"
    },
    {
      "inputs": [
        {
          "internalType": "address",
          "name": "router",
          "type": "address"
        }
      ],
      "name": "setIdleYieldRouter",
      "outputs": [],
      "stateMutability": "nonpayable",
      "type": "function"
    },
    {
      "inputs": [
        {
          "internalType": "address",
          "name": "k",
          "type": "address"
        },
        {
          "internalType": "bool",
          "name": "on",
          "type": "bool"
        }
      ],
      "name": "setKeeper",
      "outputs": [],
      "stateMutability": "nonpayable",
      "type": "function"
    },
    {
      "inputs": [
        {
          "internalType": "uint256",
          "name": "bps",
          "type": "uint256"
        }
      ],
      "name": "setKeeperFee",
      "outputs": [],
      "stateMutability": "nonpayable",
      "type": "function"
    },
    {
      "inputs": [
        {
          "internalType": "enum WikiLiqProtection.SubTier",
          "name": "tier",
          "type": "uint8"
        },
        {
          "internalType": "uint256",
          "name": "fee",
          "type": "uint256"
        }
      ],
      "name": "setTierFee",
      "outputs": [],
      "stateMutability": "nonpayable",
      "type": "function"
    },
    {
      "inputs": [
        {
          "internalType": "address",
          "name": "",
          "type": "address"
        }
      ],
      "name": "subs",
      "outputs": [
        {
          "internalType": "address",
          "name": "trader",
          "type": "address"
        },
        {
          "internalType": "enum WikiLiqProtection.SubTier",
          "name": "tier",
          "type": "uint8"
        },
        {
          "internalType": "uint256",
          "name": "expiresAt",
          "type": "uint256"
        },
        {
          "internalType": "uint256",
          "name": "reserveBalance",
          "type": "uint256"
        },
        {
          "internalType": "uint256",
          "name": "totalAdded",
          "type": "uint256"
        },
        {
          "internalType": "uint256",
          "name": "addCount",
          "type": "uint256"
        },
        {
          "internalType": "uint256",
          "name": "lastAddTs",
          "type": "uint256"
        },
        {
          "internalType": "bool",
          "name": "active",
          "type": "bool"
        },
        {
          "internalType": "bool",
          "name": "paused",
          "type": "bool"
        }
      ],
      "stateMutability": "view",
      "type": "function"
    },
    {
      "inputs": [
        {
          "internalType": "enum WikiLiqProtection.SubTier",
          "name": "tier",
          "type": "uint8"
        },
        {
          "internalType": "uint256",
          "name": "months",
          "type": "uint256"
        },
        {
          "internalType": "uint256",
          "name": "reserveAmount",
          "type": "uint256"
        }
      ],
      "name": "subscribe",
      "outputs": [],
      "stateMutability": "nonpayable",
      "type": "function"
    },
    {
      "inputs": [
        {
          "internalType": "enum WikiLiqProtection.SubTier",
          "name": "",
          "type": "uint8"
        }
      ],
      "name": "tiers",
      "outputs": [
        {
          "internalType": "uint256",
          "name": "monthlyFee",
          "type": "uint256"
        },
        {
          "internalType": "uint256",
          "name": "maxPositionUsdc",
          "type": "uint256"
        },
        {
          "internalType": "uint256",
          "name": "maxAddPerTx",
          "type": "uint256"
        },
        {
          "internalType": "uint256",
          "name": "healthThreshold",
          "type": "uint256"
        },
        {
          "internalType": "bool",
          "name": "priorityKeeper",
          "type": "bool"
        }
      ],
      "stateMutability": "view",
      "type": "function"
    },
    {
      "inputs": [],
      "name": "togglePause",
      "outputs": [],
      "stateMutability": "nonpayable",
      "type": "function"
    },
    {
      "inputs": [
        {
          "internalType": "address",
          "name": "newOwner",
          "type": "address"
        }
      ],
      "name": "transferOwnership",
      "outputs": [],
      "stateMutability": "nonpayable",
      "type": "function"
    },
    {
      "inputs": [
        {
          "internalType": "uint256",
          "name": "amount",
          "type": "uint256"
        }
      ],
      "name": "withdrawReserve",
      "outputs": [],
      "stateMutability": "nonpayable",
      "type": "function"
    }
  ],
  "bytecode": "0x60a0604052346102e257604051601f611a2f38819003918201601f19168301916001600160401b038311848410176102e6578084926060946040528339810103126102e25761004d81610319565b610065604061005e60208501610319565b9301610319565b6001600160a01b039091169182156102cf57600180546001600160a01b03199081169091555f80549182168517815584916001600160a01b0316907f8be0079c531659141344cd1fd0a4f28419497f9722a3daafe3b4186f6b6457e09080a360017f9b779b17422d0df92223018b32b4d1fa46e071723d6817e2486d003becc55f0055600a60065560018060a01b031660805260018060a01b031660018060a01b031960055416176005555f52600460205260405f20600160ff1982541617905561019b6101316102fa565b6301312d0081526004602082016402540be400815260408301631dcd6500815260608401906105dc825260808501925f84525f8052600360205260405f209551865551600186015551600285015551600384015551151591019060ff801983541691151516179055565b6102126101a66102fa565b6302faf080815260046020820164174876e80081526040830164012a05f200815260608401906105dc825260808501925f845260015f52600360205260405f209551865551600186015551600285015551600384015551151591019060ff801983541691151516179055565b61028661021d6102fa565b6305f5e10081526004602082015f19815260408301640ba43b7400815260608401906107d0825260808501926001845260025f52600360205260405f209551865551600186015551600285015551600384015551151591019060ff801983541691151516179055565b604051611701908161032e82396080518181816101bd0152818161049001528181610756015281816109dc01528181610c6001528181610eaa0152818161108801526112360152f35b631e4fbdf760e01b5f525f60045260245ffd5b5f80fd5b634e487b7160e01b5f52604160045260245ffd5b6040519060a082016001600160401b038111838210176102e657604052565b51906001600160a01b03821682036102e25756fe60806040526004361015610011575f80fd5b5f803560e01c80630bfde0da146113c75780630cbebc24146113015780630eab7d63146112e4578063249d39e9146112c85780632573075e146112aa5780633bbd64bc1461126d5780633e696f38146111ec5780636d1d8b441461102c578063715018a614610fc957806379ba509714610f445780637be613ca14610f015780637e3fef0214610ed957806389a3027114610e955780638da5cb5b14610e6e57806398dfca7f14610e455780639d2b86f614610e1d578063a5e4802514610d75578063b58e431614610bec578063c0ed13a714610b9d578063c418dd341461061d578063c4ae3168146105cf578063d1b9e85314610578578063d1d7997414610514578063d71bb37b1461042b578063e30c397814610402578063e6bc01a2146102e1578063f2fde38b146102745763f42d48a11461014e575f80fd5b346102715760203660031901126102715760043561016a611589565b6302faf080811061022c576102157fcea2aa568570e239e616fd2e9bcf2301307aa1c1c1f355305a87e5cdd46bbc799133845260026020526101b560ff600660408720015416611535565b6101e18130337f0000000000000000000000000000000000000000000000000000000000000000611642565b3384526002602052600260408520016101fb8282546114b5565b905560408051338152602081019290925290918291820190565b0390a160015f805160206116ac8339815191525580f35b60405162461bcd60e51b815260206004820152601860248201527f4c503a2062656c6f77206d696e696d756d20726566696c6c00000000000000006044820152606490fd5b80fd5b50346102715760203660031901126102715761028e6113fb565b610296611576565b600180546001600160a01b0319166001600160a01b0392831690811790915582549091167f38d16b8cac22d99fc7c124b9cd0de2d3fa1faef420bfe791d8c362d765e227008380a380f35b5034610271576040366003190112610271578060243567ffffffffffffffff81116103ff57366023820112156103ff5780600401359067ffffffffffffffff82116103fb5736602483830101116103fb5782546001600160a01b0316331480156103e7575b61034f906114c2565b6007546001600160a01b0316908161036657505050f35b813b156103e257839160248360648694604051978896879586936338d44ad560e01b8552600435600486015260408286015282604486015201848401378181018301849052601f01601f191681010301925af180156103d7576103c65750f35b816103d0916114ff565b6102715780f35b6040513d84823e3d90fd5b505050fd5b506007546001600160a01b03163314610346565b5050fd5b50fd5b50346102715780600319360112610271576001546040516001600160a01b039091168152602090f35b503461027157602036600319011261027157600435610448611589565b338252600260205260016040832061046660ff600683015416611535565b6104b46104838461047d60ff855460a01c16611432565b546114a2565b838060a01b0360055416337f0000000000000000000000000000000000000000000000000000000000000000611642565b019081544281115f1461050d575b62278d0082029180830462278d0014901517156104f957906104e3916114b5565b905560015f805160206116ac8339815191525580f35b634e487b7160e01b84526011600452602484fd5b50426104c2565b5034610271576020366003190112610271576004359060038210156102715760a061053e83611432565b805490600181015490600281015460ff60046003840154930154169260405194855260208501526040840152606083015215156080820152f35b5034610271576040366003190112610271576105926113fb565b602435908115158092036105cb576105a8611576565b60018060a01b031682526004602052604082209060ff8019835416911617905580f35b8280fd5b5034610271578060031936011261027157338152600260205260ff600660408320015460081c16153382526002602052600660408320019061ff0082549160081b169061ff00191617905580f35b5034610271576080366003190112610271576106376113fb565b60243590604435906064356001600160a01b03811691828203610b995761065c611589565b338652600460205260ff60408720541615610b635760018060a01b0381169283875260026020526040872094600686015460ff81169081610b54575b5015610b165760018601544211610ae3576106b960ff875460a01c16611432565b956003870154881015610a9e576002810160028154986106db858b1015611456565b01548311610a62576005820191825461012c8101809111610a4e574210610a1a57600491610723612710610711600654886114a2565b049561071d8782611449565b9b611449565b9055600381016107348a82546114b5565b90550180545f198114610a0657600101905542905587929190806109d5575b507f00000000000000000000000000000000000000000000000000000000000000009060405163095ea7b360e01b8552816004528760245260208560448180875af19060018651148216156109c6575b604052156108d6575b50506040516350280ecf60e01b602082019081526001600160a01b03929092166024820152604480820187905281529192839290919083906107ef6064826114ff565b51925af13d156108d1573d67ffffffffffffffff81116108bd5760405190610821601f8201601f1916602001836114ff565b81528560203d92013e5b15610880577fb73ef04e089fa22ab2cb1eb7c2ec1e5791e08f09817a83784ffb73fb4db600fe9260809260405192835260208301526040820152836060820152a160015f805160206116ac8339815191525580f35b60405162461bcd60e51b815260206004820152601560248201527413140e88185919081b585c99da5b8819985a5b1959605a1b6044820152606490fd5b634e487b7160e01b86526041600452602486fd5b61082b565b9091925060405163095ea7b360e01b8952816004528860245260208960448180875af19060018a51148216156109a5575b60405215610989576040519063095ea7b360e01b89526004528560245260208860448180865af1906001895114821615610968575b6040521561094d57908187926107ac565b635274afe760e01b87526001600160a01b0316600452602486fd5b90600181151661098057823b15153d1516169061093c565b503d88823e3d90fd5b635274afe760e01b88526001600160a01b038216600452602488fd5b9060018115166109bd57833b15153d15161690610907565b503d89823e3d90fd5b90833b15153d151616906107a3565b610a0090337f00000000000000000000000000000000000000000000000000000000000000006115c1565b5f610753565b634e487b7160e01b8b52601160045260248bfd5b60405162461bcd60e51b815260206004820152600c60248201526b26281d103a37b79039b7b7b760a11b6044820152606490fd5b634e487b7160e01b8c52601160045260248cfd5b60405162461bcd60e51b8152602060048201526014602482015273098a07440caf0c6cacac8e640e8d2cae440dac2f60631b6044820152606490fd5b60405162461bcd60e51b815260206004820152601f60248201527f4c503a206865616c7468204f4b2c206e6f20616374696f6e206e6565646564006044820152606490fd5b60405162461bcd60e51b815260206004820152600b60248201526a13140e88195e1c1a5c995960aa1b6044820152606490fd5b60405162461bcd60e51b815260206004820152601660248201527513140e881a5b9858dd1a5d99481bdc881c185d5cd95960521b6044820152606490fd5b60ff915060081c16155f610698565b60405162461bcd60e51b815260206004820152600e60248201526d26281d103737ba1035b2b2b832b960911b6044820152606490fd5b8580fd5b5034610271578060031936011261027157600181526003602052604081205490816101f402916101f4830403610bd857602082604051908152f35b634e487b7160e01b81526011600452602490fd5b5034610cf0576020366003190112610cf05760043560018060a01b035f541633148015610d61575b610c1d906114c2565b6007546001600160a01b03168015610d2b5760405163095ea7b360e01b81526001600160a01b03909116600482015260248101829052602081806044810103815f7f00000000000000000000000000000000000000000000000000000000000000006001600160a01b03165af18015610ce557610cf4575b506007546001600160a01b031690813b15610cf0575f91602483926040519485938492630f6baa0f60e21b845260048401525af18015610ce557610cd7575080f35b610ce391505f906114ff565b005b6040513d5f823e3d90fd5b5f80fd5b6020813d602011610d23575b81610d0d602093836114ff565b81010312610cf057518015158114610c95575f80fd5b3d9150610d00565b60405162461bcd60e51b815260206004820152600e60248201526d149bdd5d195c881b9bdd081cd95d60921b6044820152606490fd5b506007546001600160a01b03163314610c14565b34610cf0576020366003190112610cf0576001600160a01b03610d966113fb565b165f52600260205261012060405f2060ff815491600181015490600281015460038201546004830154916006600585015494015494610dec6040519860018060a01b0381168a528860208b019160a01c16611411565b60408801526060870152608086015260a085015260c0840152818116151560e084015260081c161515610100820152f35b34610cf0575f366003190112610cf0576005546040516001600160a01b039091168152602090f35b34610cf0576020366003190112610cf057600435610e61611576565b60648111610cf057600655005b34610cf0575f366003190112610cf0575f546040516001600160a01b039091168152602090f35b34610cf0575f366003190112610cf0576040517f00000000000000000000000000000000000000000000000000000000000000006001600160a01b03168152602090f35b34610cf0575f366003190112610cf0576007546040516001600160a01b039091168152602090f35b34610cf0576020366003190112610cf057610f1a6113fb565b610f22611576565b600780546001600160a01b0319166001600160a01b0392909216919091179055005b34610cf0575f366003190112610cf057600154336001600160a01b0390911603610fb657600180546001600160a01b03199081169091555f805433928116831782556001600160a01b0316907f8be0079c531659141344cd1fd0a4f28419497f9722a3daafe3b4186f6b6457e09080a3005b63118cdaa760e01b5f523360045260245ffd5b34610cf0575f366003190112610cf057610fe1611576565b600180546001600160a01b03199081169091555f80549182168155906001600160a01b03167f8be0079c531659141344cd1fd0a4f28419497f9722a3daafe3b4186f6b6457e08280a3005b34610cf0576060366003190112610cf0576004356003811015610cf0576024359060443590611059611589565b6001831015806111e1575b156111aa576110c26110798461047d84611432565b61108384826114b5565b6110b07f000000000000000000000000000000000000000000000000000000000000000091303384611642565b6005546001600160a01b0316906115c1565b335f52600260205260405f2091336bffffffffffffffffffffffff60a01b845416178355825460ff60a01b8360a01b169060ff60a01b191617835562278d0084029380850462278d0014901517156111965760066060936111447f044f95a2d17727b5b87e4f23d70278b59a2b0b285289cc9021cac8cdba4797b796426114b5565b9283600183015561115a600283019182546114b5565b905501600161ffff1982541617905561117d604051923384526020840190611411565b6040820152a160015f805160206116ac83398151915255005b634e487b7160e01b5f52601160045260245ffd5b60405162461bcd60e51b815260206004820152600f60248201526e4c503a20312d3132206d6f6e74687360881b6044820152606490fd5b50600c831115611064565b34610cf0576020366003190112610cf05761125a60043561120b611589565b335f526002602052600260405f200161123182825461122c82821015611456565b611449565b9055337f00000000000000000000000000000000000000000000000000000000000000006115c1565b60015f805160206116ac83398151915255005b34610cf0576020366003190112610cf0576001600160a01b0361128e6113fb565b165f526004602052602060ff60405f2054166040519015158152f35b34610cf0575f366003190112610cf05760206040516302faf0808152f35b34610cf0575f366003190112610cf05760206040516127108152f35b34610cf0575f366003190112610cf0576020600654604051908152f35b34610cf0576020366003190112610cf0576001600160a01b036113226113fb565b165f52600260205260e060405f20600681015460ff811690816113b8575b8260ff8093945460a01c169060018101546002820154904281115f146113ac5761138b6003620151806113734285611449565b04945b01549460405198151589526020890190611411565b60408701526060860152608085015260a084015260081c16151560c0820152f35b61138b60035f94611376565b60018301544211159150611340565b34610cf0576040366003190112610cf0576004356003811015610cf0576113ec611576565b6113f860243591611432565b55005b600435906001600160a01b0382168203610cf057565b90600382101561141e5752565b634e487b7160e01b5f52602160045260245ffd5b600381101561141e575f52600360205260405f2090565b9190820391821161119657565b1561145d57565b60405162461bcd60e51b815260206004820152601860248201527f4c503a20696e73756666696369656e74207265736572766500000000000000006044820152606490fd5b8181029291811591840414171561119657565b9190820180921161119657565b156114c957565b60405162461bcd60e51b815260206004820152600e60248201526d139bdd08185d5d1a1bdc9a5e995960921b6044820152606490fd5b90601f8019910116810190811067ffffffffffffffff82111761152157604052565b634e487b7160e01b5f52604160045260245ffd5b1561153c57565b60405162461bcd60e51b815260206004820152601260248201527113140e881b9bdd081cdd589cd8dc9a58995960721b6044820152606490fd5b5f546001600160a01b03163303610fb657565b60025f805160206116ac83398151915254146115b25760025f805160206116ac83398151915255565b633ee5aeb560e01b5f5260045ffd5b916040519163a9059cbb60e01b5f5260018060a01b031660045260245260205f60448180865af19060015f5114821615611621575b604052156116015750565b635274afe760e01b5f9081526001600160a01b0391909116600452602490fd5b90600181151661163957823b15153d151616906115f6565b503d5f823e3d90fd5b6040516323b872dd60e01b5f9081526001600160a01b039384166004529290931660245260449390935260209060648180865af19060015f5114821615611693575b6040525f606052156116015750565b90600181151661163957823b15153d1516169061168456fe9b779b17422d0df92223018b32b4d1fa46e071723d6817e2486d003becc55f00a2646970667358221220e4cd40cafcaae7bc925b52fce3d00dbb2b5679e879b3b30840662e5d588f7d3764736f6c634300081a0033",
  "linkReferences": {},
  "deployedLinkReferences": {}
}