{
  "_format": "hh-sol-artifact-1",
  "contractName": "WikiLiquidRestaking",
  "sourceName": "src/WikiLiquidRestaking.sol",
  "abi": [
    {
      "inputs": [
        {
          "internalType": "address",
          "name": "_stETH",
          "type": "address"
        },
        {
          "internalType": "address",
          "name": "_rETH",
          "type": "address"
        },
        {
          "internalType": "address",
          "name": "_wstETH",
          "type": "address"
        },
        {
          "internalType": "address",
          "name": "_treasury",
          "type": "address"
        },
        {
          "internalType": "address",
          "name": "_eigenStrategyManager",
          "type": "address"
        },
        {
          "internalType": "address",
          "name": "_owner",
          "type": "address"
        }
      ],
      "stateMutability": "nonpayable",
      "type": "constructor"
    },
    {
      "inputs": [
        {
          "internalType": "address",
          "name": "spender",
          "type": "address"
        },
        {
          "internalType": "uint256",
          "name": "allowance",
          "type": "uint256"
        },
        {
          "internalType": "uint256",
          "name": "needed",
          "type": "uint256"
        }
      ],
      "name": "ERC20InsufficientAllowance",
      "type": "error"
    },
    {
      "inputs": [
        {
          "internalType": "address",
          "name": "sender",
          "type": "address"
        },
        {
          "internalType": "uint256",
          "name": "balance",
          "type": "uint256"
        },
        {
          "internalType": "uint256",
          "name": "needed",
          "type": "uint256"
        }
      ],
      "name": "ERC20InsufficientBalance",
      "type": "error"
    },
    {
      "inputs": [
        {
          "internalType": "address",
          "name": "approver",
          "type": "address"
        }
      ],
      "name": "ERC20InvalidApprover",
      "type": "error"
    },
    {
      "inputs": [
        {
          "internalType": "address",
          "name": "receiver",
          "type": "address"
        }
      ],
      "name": "ERC20InvalidReceiver",
      "type": "error"
    },
    {
      "inputs": [
        {
          "internalType": "address",
          "name": "sender",
          "type": "address"
        }
      ],
      "name": "ERC20InvalidSender",
      "type": "error"
    },
    {
      "inputs": [
        {
          "internalType": "address",
          "name": "spender",
          "type": "address"
        }
      ],
      "name": "ERC20InvalidSpender",
      "type": "error"
    },
    {
      "inputs": [
        {
          "internalType": "address",
          "name": "owner",
          "type": "address"
        }
      ],
      "name": "OwnableInvalidOwner",
      "type": "error"
    },
    {
      "inputs": [
        {
          "internalType": "address",
          "name": "account",
          "type": "address"
        }
      ],
      "name": "OwnableUnauthorizedAccount",
      "type": "error"
    },
    {
      "inputs": [],
      "name": "ReentrancyGuardReentrantCall",
      "type": "error"
    },
    {
      "inputs": [
        {
          "internalType": "address",
          "name": "token",
          "type": "address"
        }
      ],
      "name": "SafeERC20FailedOperation",
      "type": "error"
    },
    {
      "anonymous": false,
      "inputs": [
        {
          "indexed": true,
          "internalType": "address",
          "name": "owner",
          "type": "address"
        },
        {
          "indexed": true,
          "internalType": "address",
          "name": "spender",
          "type": "address"
        },
        {
          "indexed": false,
          "internalType": "uint256",
          "name": "value",
          "type": "uint256"
        }
      ],
      "name": "Approval",
      "type": "event"
    },
    {
      "anonymous": false,
      "inputs": [
        {
          "indexed": true,
          "internalType": "address",
          "name": "user",
          "type": "address"
        },
        {
          "indexed": true,
          "internalType": "address",
          "name": "token",
          "type": "address"
        },
        {
          "indexed": false,
          "internalType": "uint256",
          "name": "amount",
          "type": "uint256"
        },
        {
          "indexed": false,
          "internalType": "uint256",
          "name": "wLRTMinted",
          "type": "uint256"
        }
      ],
      "name": "Deposited",
      "type": "event"
    },
    {
      "anonymous": false,
      "inputs": [
        {
          "indexed": true,
          "internalType": "address",
          "name": "previousOwner",
          "type": "address"
        },
        {
          "indexed": true,
          "internalType": "address",
          "name": "newOwner",
          "type": "address"
        }
      ],
      "name": "OwnershipTransferStarted",
      "type": "event"
    },
    {
      "anonymous": false,
      "inputs": [
        {
          "indexed": true,
          "internalType": "address",
          "name": "previousOwner",
          "type": "address"
        },
        {
          "indexed": true,
          "internalType": "address",
          "name": "newOwner",
          "type": "address"
        }
      ],
      "name": "OwnershipTransferred",
      "type": "event"
    },
    {
      "anonymous": false,
      "inputs": [
        {
          "indexed": false,
          "internalType": "uint256",
          "name": "amount",
          "type": "uint256"
        },
        {
          "indexed": false,
          "internalType": "address",
          "name": "strategy",
          "type": "address"
        }
      ],
      "name": "Restaked",
      "type": "event"
    },
    {
      "anonymous": false,
      "inputs": [
        {
          "indexed": false,
          "internalType": "uint256",
          "name": "total",
          "type": "uint256"
        },
        {
          "indexed": false,
          "internalType": "uint256",
          "name": "toUsers",
          "type": "uint256"
        },
        {
          "indexed": false,
          "internalType": "uint256",
          "name": "toProtocol",
          "type": "uint256"
        }
      ],
      "name": "RewardsHarvested",
      "type": "event"
    },
    {
      "anonymous": false,
      "inputs": [
        {
          "indexed": true,
          "internalType": "address",
          "name": "from",
          "type": "address"
        },
        {
          "indexed": true,
          "internalType": "address",
          "name": "to",
          "type": "address"
        },
        {
          "indexed": false,
          "internalType": "uint256",
          "name": "value",
          "type": "uint256"
        }
      ],
      "name": "Transfer",
      "type": "event"
    },
    {
      "anonymous": false,
      "inputs": [
        {
          "indexed": true,
          "internalType": "address",
          "name": "user",
          "type": "address"
        },
        {
          "indexed": true,
          "internalType": "address",
          "name": "token",
          "type": "address"
        },
        {
          "indexed": false,
          "internalType": "uint256",
          "name": "tokenAmount",
          "type": "uint256"
        },
        {
          "indexed": false,
          "internalType": "uint256",
          "name": "burnedShares",
          "type": "uint256"
        }
      ],
      "name": "Withdrawn",
      "type": "event"
    },
    {
      "inputs": [],
      "name": "BPS",
      "outputs": [
        {
          "internalType": "uint256",
          "name": "",
          "type": "uint256"
        }
      ],
      "stateMutability": "view",
      "type": "function"
    },
    {
      "inputs": [],
      "name": "COMMISSION_BPS",
      "outputs": [
        {
          "internalType": "uint256",
          "name": "",
          "type": "uint256"
        }
      ],
      "stateMutability": "view",
      "type": "function"
    },
    {
      "inputs": [],
      "name": "MIN_DEPOSIT",
      "outputs": [
        {
          "internalType": "uint256",
          "name": "",
          "type": "uint256"
        }
      ],
      "stateMutability": "view",
      "type": "function"
    },
    {
      "inputs": [],
      "name": "accRewardPerShare",
      "outputs": [
        {
          "internalType": "uint256",
          "name": "",
          "type": "uint256"
        }
      ],
      "stateMutability": "view",
      "type": "function"
    },
    {
      "inputs": [],
      "name": "acceptOwnership",
      "outputs": [],
      "stateMutability": "nonpayable",
      "type": "function"
    },
    {
      "inputs": [
        {
          "internalType": "address",
          "name": "owner",
          "type": "address"
        },
        {
          "internalType": "address",
          "name": "spender",
          "type": "address"
        }
      ],
      "name": "allowance",
      "outputs": [
        {
          "internalType": "uint256",
          "name": "",
          "type": "uint256"
        }
      ],
      "stateMutability": "view",
      "type": "function"
    },
    {
      "inputs": [
        {
          "internalType": "address",
          "name": "spender",
          "type": "address"
        },
        {
          "internalType": "uint256",
          "name": "value",
          "type": "uint256"
        }
      ],
      "name": "approve",
      "outputs": [
        {
          "internalType": "bool",
          "name": "",
          "type": "bool"
        }
      ],
      "stateMutability": "nonpayable",
      "type": "function"
    },
    {
      "inputs": [
        {
          "internalType": "address",
          "name": "account",
          "type": "address"
        }
      ],
      "name": "balanceOf",
      "outputs": [
        {
          "internalType": "uint256",
          "name": "",
          "type": "uint256"
        }
      ],
      "stateMutability": "view",
      "type": "function"
    },
    {
      "inputs": [],
      "name": "decimals",
      "outputs": [
        {
          "internalType": "uint8",
          "name": "",
          "type": "uint8"
        }
      ],
      "stateMutability": "view",
      "type": "function"
    },
    {
      "inputs": [
        {
          "internalType": "address",
          "name": "token",
          "type": "address"
        },
        {
          "internalType": "uint256",
          "name": "amount",
          "type": "uint256"
        }
      ],
      "name": "deposit",
      "outputs": [
        {
          "internalType": "uint256",
          "name": "wLRTMinted",
          "type": "uint256"
        }
      ],
      "stateMutability": "nonpayable",
      "type": "function"
    },
    {
      "inputs": [],
      "name": "eigenStrategyManager",
      "outputs": [
        {
          "internalType": "address",
          "name": "",
          "type": "address"
        }
      ],
      "stateMutability": "view",
      "type": "function"
    },
    {
      "inputs": [],
      "name": "getAPY",
      "outputs": [
        {
          "internalType": "uint256",
          "name": "apyBps",
          "type": "uint256"
        }
      ],
      "stateMutability": "view",
      "type": "function"
    },
    {
      "inputs": [
        {
          "internalType": "uint256",
          "name": "rewardAmount",
          "type": "uint256"
        },
        {
          "internalType": "address",
          "name": "rewardToken",
          "type": "address"
        }
      ],
      "name": "harvestRewards",
      "outputs": [],
      "stateMutability": "nonpayable",
      "type": "function"
    },
    {
      "inputs": [],
      "name": "lastRewardUpdate",
      "outputs": [
        {
          "internalType": "uint256",
          "name": "",
          "type": "uint256"
        }
      ],
      "stateMutability": "view",
      "type": "function"
    },
    {
      "inputs": [],
      "name": "name",
      "outputs": [
        {
          "internalType": "string",
          "name": "",
          "type": "string"
        }
      ],
      "stateMutability": "view",
      "type": "function"
    },
    {
      "inputs": [],
      "name": "owner",
      "outputs": [
        {
          "internalType": "address",
          "name": "",
          "type": "address"
        }
      ],
      "stateMutability": "view",
      "type": "function"
    },
    {
      "inputs": [],
      "name": "pendingOwner",
      "outputs": [
        {
          "internalType": "address",
          "name": "",
          "type": "address"
        }
      ],
      "stateMutability": "view",
      "type": "function"
    },
    {
      "inputs": [],
      "name": "pendingRewards",
      "outputs": [
        {
          "internalType": "uint256",
          "name": "",
          "type": "uint256"
        }
      ],
      "stateMutability": "view",
      "type": "function"
    },
    {
      "inputs": [
        {
          "internalType": "address",
          "name": "user",
          "type": "address"
        }
      ],
      "name": "pendingUserRewards",
      "outputs": [
        {
          "internalType": "uint256",
          "name": "",
          "type": "uint256"
        }
      ],
      "stateMutability": "view",
      "type": "function"
    },
    {
      "inputs": [],
      "name": "protocolRevenue",
      "outputs": [
        {
          "internalType": "uint256",
          "name": "",
          "type": "uint256"
        }
      ],
      "stateMutability": "view",
      "type": "function"
    },
    {
      "inputs": [],
      "name": "rETH",
      "outputs": [
        {
          "internalType": "contract IERC20",
          "name": "",
          "type": "address"
        }
      ],
      "stateMutability": "view",
      "type": "function"
    },
    {
      "inputs": [],
      "name": "renounceOwnership",
      "outputs": [],
      "stateMutability": "nonpayable",
      "type": "function"
    },
    {
      "inputs": [
        {
          "internalType": "address",
          "name": "s",
          "type": "address"
        }
      ],
      "name": "setEigenStrategy",
      "outputs": [],
      "stateMutability": "nonpayable",
      "type": "function"
    },
    {
      "inputs": [
        {
          "internalType": "address",
          "name": "t",
          "type": "address"
        }
      ],
      "name": "setTreasury",
      "outputs": [],
      "stateMutability": "nonpayable",
      "type": "function"
    },
    {
      "inputs": [],
      "name": "stETH",
      "outputs": [
        {
          "internalType": "contract IERC20",
          "name": "",
          "type": "address"
        }
      ],
      "stateMutability": "view",
      "type": "function"
    },
    {
      "inputs": [],
      "name": "symbol",
      "outputs": [
        {
          "internalType": "string",
          "name": "",
          "type": "string"
        }
      ],
      "stateMutability": "view",
      "type": "function"
    },
    {
      "inputs": [],
      "name": "totalRestaked",
      "outputs": [
        {
          "internalType": "uint256",
          "name": "",
          "type": "uint256"
        }
      ],
      "stateMutability": "view",
      "type": "function"
    },
    {
      "inputs": [],
      "name": "totalRewardsHarvested",
      "outputs": [
        {
          "internalType": "uint256",
          "name": "",
          "type": "uint256"
        }
      ],
      "stateMutability": "view",
      "type": "function"
    },
    {
      "inputs": [],
      "name": "totalSupply",
      "outputs": [
        {
          "internalType": "uint256",
          "name": "",
          "type": "uint256"
        }
      ],
      "stateMutability": "view",
      "type": "function"
    },
    {
      "inputs": [
        {
          "internalType": "address",
          "name": "to",
          "type": "address"
        },
        {
          "internalType": "uint256",
          "name": "value",
          "type": "uint256"
        }
      ],
      "name": "transfer",
      "outputs": [
        {
          "internalType": "bool",
          "name": "",
          "type": "bool"
        }
      ],
      "stateMutability": "nonpayable",
      "type": "function"
    },
    {
      "inputs": [
        {
          "internalType": "address",
          "name": "from",
          "type": "address"
        },
        {
          "internalType": "address",
          "name": "to",
          "type": "address"
        },
        {
          "internalType": "uint256",
          "name": "value",
          "type": "uint256"
        }
      ],
      "name": "transferFrom",
      "outputs": [
        {
          "internalType": "bool",
          "name": "",
          "type": "bool"
        }
      ],
      "stateMutability": "nonpayable",
      "type": "function"
    },
    {
      "inputs": [
        {
          "internalType": "address",
          "name": "newOwner",
          "type": "address"
        }
      ],
      "name": "transferOwnership",
      "outputs": [],
      "stateMutability": "nonpayable",
      "type": "function"
    },
    {
      "inputs": [],
      "name": "treasury",
      "outputs": [
        {
          "internalType": "address",
          "name": "",
          "type": "address"
        }
      ],
      "stateMutability": "view",
      "type": "function"
    },
    {
      "inputs": [
        {
          "internalType": "address",
          "name": "",
          "type": "address"
        }
      ],
      "name": "userRestaked",
      "outputs": [
        {
          "internalType": "uint256",
          "name": "",
          "type": "uint256"
        }
      ],
      "stateMutability": "view",
      "type": "function"
    },
    {
      "inputs": [
        {
          "internalType": "address",
          "name": "",
          "type": "address"
        }
      ],
      "name": "userRewardDebt",
      "outputs": [
        {
          "internalType": "uint256",
          "name": "",
          "type": "uint256"
        }
      ],
      "stateMutability": "view",
      "type": "function"
    },
    {
      "inputs": [
        {
          "internalType": "uint256",
          "name": "wLRTAmount",
          "type": "uint256"
        }
      ],
      "name": "wLRTtoUnderlying",
      "outputs": [
        {
          "internalType": "uint256",
          "name": "",
          "type": "uint256"
        }
      ],
      "stateMutability": "view",
      "type": "function"
    },
    {
      "inputs": [
        {
          "internalType": "address",
          "name": "token",
          "type": "address"
        },
        {
          "internalType": "uint256",
          "name": "wLRTAmount",
          "type": "uint256"
        }
      ],
      "name": "withdraw",
      "outputs": [
        {
          "internalType": "uint256",
          "name": "tokenAmount",
          "type": "uint256"
        }
      ],
      "stateMutability": "nonpayable",
      "type": "function"
    },
    {
      "inputs": [],
      "name": "wstETH",
      "outputs": [
        {
          "internalType": "contract IERC20",
          "name": "",
          "type": "address"
        }
      ],
      "stateMutability": "view",
      "type": "function"
    },
    {
      "stateMutability": "payable",
      "type": "receive"
    }
  ],
  "bytecode": "0x60e06040523461056557611c8d60c0813803918261001c81610569565b938492833981010312610565576100328161058e565b61003e6020830161058e565b9061004b6040840161058e565b6100576060850161058e565b9261007060a06100696080880161058e565b960161058e565b61007a6040610569565b601b81527f57696b69204c69717569642052657374616b696e6720546f6b656e000000000060208201526100ae6040610569565b60048152631dd3149560e21b6020820152815190916001600160401b0382116104685760035490600182811c9216801561055b575b602083101461044a5781601f8493116104ed575b50602090601f8311600114610487575f9261047c575b50508160011b915f199060031b1c1916176003555b8051906001600160401b0382116104685760045490600182811c9216801561045e575b602083101461044a5781601f8493116103dc575b50602090601f8311600114610376575f9261036b575b50508160011b915f199060031b1c1916176004555b6001600160a01b031692831561035857600680546001600160a01b0319908116909155600580549182168617905560405194906001600160a01b03167f8be0079c531659141344cd1fd0a4f28419497f9722a3daafe3b4186f6b6457e05f80a360017f9b779b17422d0df92223018b32b4d1fa46e071723d6817e2486d003becc55f00556001600160a01b031692831561032257506001600160a01b03169081156102ea576001600160a01b03169182156102b05760805260a05260c052600780546001600160a01b039283166001600160a01b031991821617909155600880549390921692169190911790556040516116ea90816105a382396080518181816108840152610d66015260a0518181816106550152610f56015260c051818181610cbf0152610f240152f35b60405162461bcd60e51b81526020600482015260126024820152710aed2d6d27440f4cae4de40beeee6e88aa8960731b6044820152606490fd5b60405162461bcd60e51b815260206004820152601060248201526f0aed2d6d27440f4cae4de40bee48aa8960831b6044820152606490fd5b62461bcd60e51b81526020600482015260116024820152700aed2d6d27440f4cae4de40bee6e88aa89607b1b6044820152606490fd5b631e4fbdf760e01b5f525f60045260245ffd5b015190505f8061016f565b60045f9081528281209350601f198516905b8181106103c457509084600195949392106103ac575b505050811b01600455610184565b01515f1960f88460031b161c191690555f808061039e565b92936020600181928786015181550195019301610388565b60045f529091507f8a35acfbc15ff81a39ae7d344fd709f28e8600b4aa8c65c6b64bfe7fe36bd19b601f840160051c81019160208510610440575b90601f859493920160051c01905b8181106104325750610159565b5f8155849350600101610425565b9091508190610417565b634e487b7160e01b5f52602260045260245ffd5b91607f1691610145565b634e487b7160e01b5f52604160045260245ffd5b015190505f8061010d565b60035f9081528281209350601f198516905b8181106104d557509084600195949392106104bd575b505050811b01600355610122565b01515f1960f88460031b161c191690555f80806104af565b92936020600181928786015181550195019301610499565b60035f529091507fc2575a0e9e593c00f959f8c92f12db2869c3395a3b0502d05e2516446f71f85b601f840160051c81019160208510610551575b90601f859493920160051c01905b81811061054357506100f7565b5f8155849350600101610536565b9091508190610528565b91607f16916100e3565b5f80fd5b6040519190601f01601f191682016001600160401b0381118382101761046857604052565b51906001600160a01b03821682036105655756fe608080604052600436101561001c575b50361561001a575f80fd5b005b5f3560e01c90816306fdde03146111b357508063095ea7b31461113157806310a1dd49146110f257806318160ddd146110d557806323b872dd14610ff6578063249d39e914610fda578063313ce56714610fbf57806347e7ef2414610d265780634953280f14610cee5780634aa07e6414610caa5780634bf6f9e714610c7257806361d027b314610c4a5780636eac61dd14610c2d57806370a0823114610bf6578063715018a614610b915780637548bb2a14610b7457806379ba509714610aee5780637af3816c14610ad1578063843e160b14610aa95780638da5cb5b14610a815780638f9d3c0e14610a65578063939d623714610a4857806395d89b41146109445780639ffcb65314610901578063a3c2710d146108e4578063a9059cbb146108b3578063c1fe3e481461086f578063c6b74c5014610684578063ca8aa0e414610640578063d2cbf7ad14610626578063dd62ed3e146105d6578063e1e158a5146105b5578063e30c39781461058d578063e8e0944514610562578063eded3fda14610545578063f0f4426014610502578063f2fde38b146104965763f3fef3a3146101ca575f61000f565b346103d15760403660031901126103d1576101e3611295565b602435906101ef611493565b335f525f6020528160405f205410610458574260105561020e33611388565b80610414575b50600254906102396102326009549361022d85876112f7565b61130a565b8093611335565b600955335f52600d60205260405f20610253838254611335565b9055331561040157335f525f6020528260405f20548181106103e857335f525f6020520360405f205582600254036002555f6040518481527fddf252ad1be2c89b69c2b068fc378daa952ba7f163c4a11628f55a4df523b3ef60203392a36040516370a0823160e01b81523060048201526001600160a01b039190911690602081602481855afa80156103dd5783915f916103a4575b5010610347576020926102fd83338461163c565b60405190838252848201527f91fb9d98b786c57d74c099ccd2beca1739e9f6a81fb49001ca465c4b7591bbe260403392a360015f8051602061169583398151915255604051908152f35b60405162461bcd60e51b815260206004820152602f60248201527f4c52543a20696e73756666696369656e74206c6971756964697479202870656e60448201526e64696e6720756e626f6e64696e672960881b6064820152608490fd5b9150506020813d6020116103d5575b816103c0602093836112c1565b810103126103d1578290515f6102e9565b5f80fd5b3d91506103b3565b6040513d5f823e3d90fd5b63391434e360e21b5f523360045260245260445260645ffd5b634b637e8f60e11b5f525f60045260245ffd5b61044f90670de0b6b3a7640000610439600f54335f525f60205260405f2054906112f7565b04335f52600e60205260405f2055600b54611335565b600b555f610214565b60405162461bcd60e51b81526020600482015260166024820152751314950e881a5b9cdd59999a58da595b9d081dd3149560521b6044820152606490fd5b346103d15760203660031901126103d1576104af611295565b6104b7611628565b600680546001600160a01b0319166001600160a01b039283169081179091556005549091167f38d16b8cac22d99fc7c124b9cd0de2d3fa1faef420bfe791d8c362d765e227005f80a3005b346103d15760203660031901126103d15761051b611295565b610523611628565b600780546001600160a01b0319166001600160a01b0392909216919091179055005b346103d1575f3660031901126103d1576020600b54604051908152f35b346103d15760203660031901126103d1576020610585610580611295565b611388565b604051908152f35b346103d1575f3660031901126103d1576006546040516001600160a01b039091168152602090f35b346103d1575f3660031901126103d1576020604051662386f26fc100008152f35b346103d15760403660031901126103d1576105ef611295565b6105f76112ab565b6001600160a01b039182165f908152600160209081526040808320949093168252928352819020549051908152f35b346103d1575f3660031901126103d1576020610585611342565b346103d1575f3660031901126103d1576040517f00000000000000000000000000000000000000000000000000000000000000006001600160a01b03168152602090f35b346103d15760403660031901126103d1576004356106a06112ab565b6106a8611493565b6005546001600160a01b03163314801561085b575b1561082457600954156107df576001600160a01b0316906106e0813033856114cb565b6103e881028181046103e814821517156107cb5761271090049061071a826107088184611335565b9460018060a01b03600754169061163c565b61072682600c54611328565b600c5561073581600a54611328565b600a55670de0b6b3a7640000830291838304670de0b6b3a764000014841517156107cb577f14bc48d99642f79b21501de7b5df46cbc75f742fd64ea188e914521b00ebc35c9361079561078d6060956002549061130a565b600f54611328565b600f556107a481600b54611328565b600b5560405192835260208301526040820152a160015f8051602061169583398151915255005b634e487b7160e01b5f52601160045260245ffd5b60405162461bcd60e51b815260206004820152601760248201527f4c52543a206e6f2072657374616b6564206173736574730000000000000000006044820152606490fd5b60405162461bcd60e51b815260206004820152600f60248201526e26292a1d103737ba1035b2b2b832b960891b6044820152606490fd5b506007546001600160a01b031633146106bd565b346103d1575f3660031901126103d1576040517f00000000000000000000000000000000000000000000000000000000000000006001600160a01b03168152602090f35b346103d15760403660031901126103d1576108d96108cf611295565b60243590336113fc565b602060405160018152f35b346103d1575f3660031901126103d1576020601054604051908152f35b346103d15760203660031901126103d15761091a611295565b610922611628565b600880546001600160a01b0319166001600160a01b0392909216919091179055005b346103d1575f3660031901126103d1576040515f6004548060011c90600181168015610a3e575b602083108114610a2a57828552908115610a0657506001146109a8575b6109a483610998818503826112c1565b6040519182918261126b565b0390f35b91905060045f527f8a35acfbc15ff81a39ae7d344fd709f28e8600b4aa8c65c6b64bfe7fe36bd19b915f905b8082106109ec57509091508101602001610998610988565b9192600181602092548385880101520191019092916109d4565b60ff191660208086019190915291151560051b840190910191506109989050610988565b634e487b7160e01b5f52602260045260245ffd5b91607f169161096b565b346103d1575f3660031901126103d1576020600f54604051908152f35b346103d1575f3660031901126103d15760206040516103e88152f35b346103d1575f3660031901126103d1576005546040516001600160a01b039091168152602090f35b346103d1575f3660031901126103d1576008546040516001600160a01b039091168152602090f35b346103d1575f3660031901126103d1576020600c54604051908152f35b346103d1575f3660031901126103d157600654336001600160a01b0390911603610b6157600680546001600160a01b0319908116909155600580543392811683179091556001600160a01b03167f8be0079c531659141344cd1fd0a4f28419497f9722a3daafe3b4186f6b6457e05f80a3005b63118cdaa760e01b5f523360045260245ffd5b346103d1575f3660031901126103d1576020600954604051908152f35b346103d1575f3660031901126103d157610ba9611628565b600680546001600160a01b03199081169091556005805491821690555f906001600160a01b03167f8be0079c531659141344cd1fd0a4f28419497f9722a3daafe3b4186f6b6457e08280a3005b346103d15760203660031901126103d1576001600160a01b03610c17611295565b165f525f602052602060405f2054604051908152f35b346103d1575f3660031901126103d1576020600a54604051908152f35b346103d1575f3660031901126103d1576007546040516001600160a01b039091168152602090f35b346103d15760203660031901126103d1576001600160a01b03610c93611295565b165f52600e602052602060405f2054604051908152f35b346103d1575f3660031901126103d1576040517f00000000000000000000000000000000000000000000000000000000000000006001600160a01b03168152602090f35b346103d15760203660031901126103d1576001600160a01b03610d0f611295565b165f52600d602052602060405f2054604051908152f35b346103d15760403660031901126103d157610d3f611295565b602435610d4a611493565b662386f26fc100008110610f85576001600160a01b03828116907f00000000000000000000000000000000000000000000000000000000000000001681148015610f53575b8015610f21575b15610ee35742601055610dab823033846114cb565b60025480610ec75750815b610dc281600954611328565b600955335f52600d60205260405f20610ddc828254611328565b9055670de0b6b3a7640000610dff600f54335f525f60205260405f2054906112f7565b04335f52600e60205260405f20553315610eb457610e6a81602095610e2686600254611328565b600255335f525f875260405f208681540190556040518681525f7fddf252ad1be2c89b69c2b068fc378daa952ba7f163c4a11628f55a4df523b3ef893393a361155d565b60405190815282848201527ff5681f9d0db1b911ac18ee83d515a1cf1051853a9eae418316a2fdf7dea427c560403392a360015f8051602061169583398151915255604051908152f35b63ec442f0560e01b5f525f60045260245ffd5b610ed4610edd91846112f7565b6009549061130a565b91610db6565b60405162461bcd60e51b815260206004820152601660248201527526292a1d103ab739bab83837b93a32b2103a37b5b2b760511b6044820152606490fd5b507f00000000000000000000000000000000000000000000000000000000000000006001600160a01b03168114610d96565b507f00000000000000000000000000000000000000000000000000000000000000006001600160a01b03168114610d8f565b60405162461bcd60e51b81526020600482015260126024820152714c52543a2062656c6f77206d696e696d756d60701b6044820152606490fd5b346103d1575f3660031901126103d157602060405160128152f35b346103d1575f3660031901126103d15760206040516127108152f35b346103d15760603660031901126103d15761100f611295565b6110176112ab565b6001600160a01b0382165f818152600160209081526040808320338452909152902054909260443592915f198110611055575b506108d993506113fc565b8381106110ba5784156110a7573315611094576108d9945f52600160205260405f2060018060a01b0333165f526020528360405f20910390558461104a565b634a1406b160e11b5f525f60045260245ffd5b63e602df0560e01b5f525f60045260245ffd5b8390637dc7a0d960e11b5f523360045260245260445260645ffd5b346103d1575f3660031901126103d1576020600254604051908152f35b346103d15760203660031901126103d157602060043560025480155f1461111c5750604051908152f35b61022d61112c92600954906112f7565b610585565b346103d15760403660031901126103d15761114a611295565b6024359033156110a7576001600160a01b031690811561109457335f52600160205260405f20825f526020528060405f20556040519081527f8c5be1e5ebec7d5bd14f71427d1e84f3dd0314c0f7b2291e5b200ac8c7c3b92560203392a3602060405160018152f35b346103d1575f3660031901126103d1575f6003548060011c90600181168015611261575b602083108114610a2a57828552908115610a065750600114611203576109a483610998818503826112c1565b91905060035f527fc2575a0e9e593c00f959f8c92f12db2869c3395a3b0502d05e2516446f71f85b915f905b80821061124757509091508101602001610998610988565b91926001816020925483858801015201910190929161122f565b91607f16916111d7565b602060409281835280519182918282860152018484015e5f828201840152601f01601f1916010190565b600435906001600160a01b03821682036103d157565b602435906001600160a01b03821682036103d157565b90601f8019910116810190811067ffffffffffffffff8211176112e357604052565b634e487b7160e01b5f52604160045260245ffd5b818102929181159184041417156107cb57565b8115611314570490565b634e487b7160e01b5f52601260045260245ffd5b919082018092116107cb57565b919082039182116107cb57565b6009548015801561137e575b61137757600a549061271082029180830461271014901517156107cb576113749161130a565b90565b5061019090565b50600a541561134e565b6001600160a01b03165f81815260208190526040902054156113f757670de0b6b3a76400006113c5600f54835f525f60205260405f2054906112f7565b04815f52600e60205260405f205481115f146113f157611374915f52600e60205260405f205490611335565b50505f90565b505f90565b6001600160a01b0316908115610401576001600160a01b0316918215610eb457815f525f60205260405f205481811061147a57817fddf252ad1be2c89b69c2b068fc378daa952ba7f163c4a11628f55a4df523b3ef92602092855f525f84520360405f2055845f525f825260405f20818154019055604051908152a3565b8263391434e360e21b5f5260045260245260445260645ffd5b60025f8051602061169583398151915254146114bc5760025f8051602061169583398151915255565b633ee5aeb560e01b5f5260045ffd5b6040516323b872dd60e01b5f9081526001600160a01b039384166004529290931660245260449390935260209060648180865af19060015f511482161561153c575b6040525f6060521561151c5750565b635274afe760e01b5f9081526001600160a01b0391909116600452602490fd5b90600181151661155457823b15153d1516169061150d565b503d5f823e3d90fd5b6008546001600160a01b031680156116235760405163095ea7b360e01b815260048101919091526024810183905290602090829060449082905f906001600160a01b03165af16115e8575b50600854604080519283526001600160a01b0390911660208301527fd24f08d802184f5b2f33868d0678703fcba72c98ede9558a4562db66b4bf09c291a1565b6020813d60201161161b575b81611601602093836112c1565b810103126103d1575180151581036103d1575060406115a8565b3d91506115f4565b505050565b6005546001600160a01b03163303610b6157565b916040519163a9059cbb60e01b5f5260018060a01b031660045260245260205f60448180865af19060015f511482161561167c575b6040521561151c5750565b90600181151661155457823b15153d1516169061167156fe9b779b17422d0df92223018b32b4d1fa46e071723d6817e2486d003becc55f00a26469706673582212201f4dbc5e0aa731028e075e3a0bd625c7f5c630ecb6f38aa65dee480e7b080aa564736f6c634300081a0033",
  "linkReferences": {},
  "deployedLinkReferences": {}
}