{
  "_format": "hh-sol-artifact-1",
  "contractName": "WikiGuaranteedStop",
  "sourceName": "src/WikiGuaranteedStop.sol",
  "abi": [
    {
      "inputs": [
        {
          "internalType": "address",
          "name": "_owner",
          "type": "address"
        },
        {
          "internalType": "address",
          "name": "_usdc",
          "type": "address"
        },
        {
          "internalType": "address",
          "name": "_perp",
          "type": "address"
        }
      ],
      "stateMutability": "nonpayable",
      "type": "constructor"
    },
    {
      "inputs": [
        {
          "internalType": "address",
          "name": "owner",
          "type": "address"
        }
      ],
      "name": "OwnableInvalidOwner",
      "type": "error"
    },
    {
      "inputs": [
        {
          "internalType": "address",
          "name": "account",
          "type": "address"
        }
      ],
      "name": "OwnableUnauthorizedAccount",
      "type": "error"
    },
    {
      "inputs": [],
      "name": "ReentrancyGuardReentrantCall",
      "type": "error"
    },
    {
      "inputs": [
        {
          "internalType": "address",
          "name": "token",
          "type": "address"
        }
      ],
      "name": "SafeERC20FailedOperation",
      "type": "error"
    },
    {
      "anonymous": false,
      "inputs": [
        {
          "indexed": true,
          "internalType": "uint256",
          "name": "orderId",
          "type": "uint256"
        },
        {
          "indexed": true,
          "internalType": "address",
          "name": "trader",
          "type": "address"
        },
        {
          "indexed": false,
          "internalType": "uint256",
          "name": "guaranteedPrice",
          "type": "uint256"
        },
        {
          "indexed": false,
          "internalType": "uint256",
          "name": "marketPrice",
          "type": "uint256"
        },
        {
          "indexed": false,
          "internalType": "uint256",
          "name": "gapCovered",
          "type": "uint256"
        },
        {
          "indexed": false,
          "internalType": "uint256",
          "name": "proceedsToTrader",
          "type": "uint256"
        }
      ],
      "name": "GuaranteedStopExecuted",
      "type": "event"
    },
    {
      "anonymous": false,
      "inputs": [
        {
          "indexed": true,
          "internalType": "uint256",
          "name": "orderId",
          "type": "uint256"
        },
        {
          "indexed": false,
          "internalType": "address",
          "name": "trader",
          "type": "address"
        },
        {
          "indexed": false,
          "internalType": "uint256",
          "name": "premiumRefunded",
          "type": "uint256"
        }
      ],
      "name": "GuaranteedStopExpired",
      "type": "event"
    },
    {
      "anonymous": false,
      "inputs": [
        {
          "indexed": true,
          "internalType": "uint256",
          "name": "orderId",
          "type": "uint256"
        },
        {
          "indexed": true,
          "internalType": "address",
          "name": "trader",
          "type": "address"
        },
        {
          "indexed": false,
          "internalType": "uint256",
          "name": "positionId",
          "type": "uint256"
        },
        {
          "indexed": false,
          "internalType": "uint256",
          "name": "guaranteedPrice",
          "type": "uint256"
        },
        {
          "indexed": false,
          "internalType": "uint256",
          "name": "premium",
          "type": "uint256"
        },
        {
          "indexed": false,
          "internalType": "uint256",
          "name": "expiresAt",
          "type": "uint256"
        }
      ],
      "name": "GuaranteedStopPlaced",
      "type": "event"
    },
    {
      "anonymous": false,
      "inputs": [
        {
          "indexed": true,
          "internalType": "address",
          "name": "previousOwner",
          "type": "address"
        },
        {
          "indexed": true,
          "internalType": "address",
          "name": "newOwner",
          "type": "address"
        }
      ],
      "name": "OwnershipTransferStarted",
      "type": "event"
    },
    {
      "anonymous": false,
      "inputs": [
        {
          "indexed": true,
          "internalType": "address",
          "name": "previousOwner",
          "type": "address"
        },
        {
          "indexed": true,
          "internalType": "address",
          "name": "newOwner",
          "type": "address"
        }
      ],
      "name": "OwnershipTransferred",
      "type": "event"
    },
    {
      "anonymous": false,
      "inputs": [
        {
          "indexed": false,
          "internalType": "uint256",
          "name": "total",
          "type": "uint256"
        },
        {
          "indexed": false,
          "internalType": "uint256",
          "name": "toBackstop",
          "type": "uint256"
        },
        {
          "indexed": false,
          "internalType": "uint256",
          "name": "toOps",
          "type": "uint256"
        },
        {
          "indexed": false,
          "internalType": "uint256",
          "name": "toInsurance",
          "type": "uint256"
        }
      ],
      "name": "PremiumRouted",
      "type": "event"
    },
    {
      "inputs": [],
      "name": "BPS",
      "outputs": [
        {
          "internalType": "uint256",
          "name": "",
          "type": "uint256"
        }
      ],
      "stateMutability": "view",
      "type": "function"
    },
    {
      "inputs": [],
      "name": "USDC",
      "outputs": [
        {
          "internalType": "contract IERC20",
          "name": "",
          "type": "address"
        }
      ],
      "stateMutability": "view",
      "type": "function"
    },
    {
      "inputs": [],
      "name": "acceptOwnership",
      "outputs": [],
      "stateMutability": "nonpayable",
      "type": "function"
    },
    {
      "inputs": [],
      "name": "backstop",
      "outputs": [
        {
          "internalType": "contract IBackstop",
          "name": "",
          "type": "address"
        }
      ],
      "stateMutability": "view",
      "type": "function"
    },
    {
      "inputs": [],
      "name": "backstopShareBps",
      "outputs": [
        {
          "internalType": "uint256",
          "name": "",
          "type": "uint256"
        }
      ],
      "stateMutability": "view",
      "type": "function"
    },
    {
      "inputs": [],
      "name": "basePremiumBps",
      "outputs": [
        {
          "internalType": "uint256",
          "name": "",
          "type": "uint256"
        }
      ],
      "stateMutability": "view",
      "type": "function"
    },
    {
      "inputs": [
        {
          "internalType": "uint256",
          "name": "orderId",
          "type": "uint256"
        }
      ],
      "name": "executeGuaranteedStop",
      "outputs": [],
      "stateMutability": "nonpayable",
      "type": "function"
    },
    {
      "inputs": [
        {
          "internalType": "uint256",
          "name": "orderId",
          "type": "uint256"
        }
      ],
      "name": "expireOrder",
      "outputs": [],
      "stateMutability": "nonpayable",
      "type": "function"
    },
    {
      "inputs": [],
      "name": "insurance",
      "outputs": [
        {
          "internalType": "contract IInsurance",
          "name": "",
          "type": "address"
        }
      ],
      "stateMutability": "view",
      "type": "function"
    },
    {
      "inputs": [],
      "name": "insuranceShareBps",
      "outputs": [
        {
          "internalType": "uint256",
          "name": "",
          "type": "uint256"
        }
      ],
      "stateMutability": "view",
      "type": "function"
    },
    {
      "inputs": [],
      "name": "keeper",
      "outputs": [
        {
          "internalType": "address",
          "name": "",
          "type": "address"
        }
      ],
      "stateMutability": "view",
      "type": "function"
    },
    {
      "inputs": [],
      "name": "maxGapCoverageBps",
      "outputs": [
        {
          "internalType": "uint256",
          "name": "",
          "type": "uint256"
        }
      ],
      "stateMutability": "view",
      "type": "function"
    },
    {
      "inputs": [],
      "name": "nextOrderId",
      "outputs": [
        {
          "internalType": "uint256",
          "name": "",
          "type": "uint256"
        }
      ],
      "stateMutability": "view",
      "type": "function"
    },
    {
      "inputs": [],
      "name": "opsShareBps",
      "outputs": [
        {
          "internalType": "uint256",
          "name": "",
          "type": "uint256"
        }
      ],
      "stateMutability": "view",
      "type": "function"
    },
    {
      "inputs": [],
      "name": "opsVault",
      "outputs": [
        {
          "internalType": "contract IOpsVault",
          "name": "",
          "type": "address"
        }
      ],
      "stateMutability": "view",
      "type": "function"
    },
    {
      "inputs": [],
      "name": "orderExpiry",
      "outputs": [
        {
          "internalType": "uint256",
          "name": "",
          "type": "uint256"
        }
      ],
      "stateMutability": "view",
      "type": "function"
    },
    {
      "inputs": [
        {
          "internalType": "uint256",
          "name": "",
          "type": "uint256"
        }
      ],
      "name": "orders",
      "outputs": [
        {
          "internalType": "address",
          "name": "trader",
          "type": "address"
        },
        {
          "internalType": "uint256",
          "name": "positionId",
          "type": "uint256"
        },
        {
          "internalType": "uint256",
          "name": "marketId",
          "type": "uint256"
        },
        {
          "internalType": "uint256",
          "name": "guaranteedPrice",
          "type": "uint256"
        },
        {
          "internalType": "uint256",
          "name": "premiumPaid",
          "type": "uint256"
        },
        {
          "internalType": "uint256",
          "name": "maxCoverageGap",
          "type": "uint256"
        },
        {
          "internalType": "uint256",
          "name": "createdAt",
          "type": "uint256"
        },
        {
          "internalType": "uint256",
          "name": "expiresAt",
          "type": "uint256"
        },
        {
          "internalType": "bool",
          "name": "executed",
          "type": "bool"
        },
        {
          "internalType": "bool",
          "name": "expired",
          "type": "bool"
        }
      ],
      "stateMutability": "view",
      "type": "function"
    },
    {
      "inputs": [],
      "name": "owner",
      "outputs": [
        {
          "internalType": "address",
          "name": "",
          "type": "address"
        }
      ],
      "stateMutability": "view",
      "type": "function"
    },
    {
      "inputs": [],
      "name": "pendingOwner",
      "outputs": [
        {
          "internalType": "address",
          "name": "",
          "type": "address"
        }
      ],
      "stateMutability": "view",
      "type": "function"
    },
    {
      "inputs": [],
      "name": "perp",
      "outputs": [
        {
          "internalType": "contract IWikiPerp",
          "name": "",
          "type": "address"
        }
      ],
      "stateMutability": "view",
      "type": "function"
    },
    {
      "inputs": [
        {
          "internalType": "uint256",
          "name": "positionId",
          "type": "uint256"
        },
        {
          "internalType": "uint256",
          "name": "guaranteedPrice",
          "type": "uint256"
        }
      ],
      "name": "placeGuaranteedStop",
      "outputs": [
        {
          "internalType": "uint256",
          "name": "orderId",
          "type": "uint256"
        }
      ],
      "stateMutability": "nonpayable",
      "type": "function"
    },
    {
      "inputs": [
        {
          "internalType": "uint256",
          "name": "",
          "type": "uint256"
        }
      ],
      "name": "positionToOrder",
      "outputs": [
        {
          "internalType": "uint256",
          "name": "",
          "type": "uint256"
        }
      ],
      "stateMutability": "view",
      "type": "function"
    },
    {
      "inputs": [
        {
          "internalType": "uint256",
          "name": "positionId",
          "type": "uint256"
        },
        {
          "internalType": "uint256",
          "name": "guaranteedPrice",
          "type": "uint256"
        }
      ],
      "name": "quotePremium",
      "outputs": [
        {
          "internalType": "uint256",
          "name": "premium",
          "type": "uint256"
        },
        {
          "internalType": "uint256",
          "name": "premiumBps",
          "type": "uint256"
        },
        {
          "internalType": "uint256",
          "name": "volMultiplier",
          "type": "uint256"
        },
        {
          "internalType": "string",
          "name": "tierName",
          "type": "string"
        }
      ],
      "stateMutability": "view",
      "type": "function"
    },
    {
      "inputs": [],
      "name": "renounceOwnership",
      "outputs": [],
      "stateMutability": "nonpayable",
      "type": "function"
    },
    {
      "inputs": [
        {
          "internalType": "uint256",
          "name": "bps",
          "type": "uint256"
        }
      ],
      "name": "setBasePremium",
      "outputs": [],
      "stateMutability": "nonpayable",
      "type": "function"
    },
    {
      "inputs": [
        {
          "internalType": "address",
          "name": "_perp",
          "type": "address"
        },
        {
          "internalType": "address",
          "name": "_vol",
          "type": "address"
        },
        {
          "internalType": "address",
          "name": "_backstop",
          "type": "address"
        },
        {
          "internalType": "address",
          "name": "_ops",
          "type": "address"
        },
        {
          "internalType": "address",
          "name": "_ins",
          "type": "address"
        }
      ],
      "name": "setContracts",
      "outputs": [],
      "stateMutability": "nonpayable",
      "type": "function"
    },
    {
      "inputs": [
        {
          "internalType": "uint256",
          "name": "secs",
          "type": "uint256"
        }
      ],
      "name": "setExpiry",
      "outputs": [],
      "stateMutability": "nonpayable",
      "type": "function"
    },
    {
      "inputs": [
        {
          "internalType": "address",
          "name": "_k",
          "type": "address"
        }
      ],
      "name": "setKeeper",
      "outputs": [],
      "stateMutability": "nonpayable",
      "type": "function"
    },
    {
      "inputs": [
        {
          "internalType": "uint256",
          "name": "bps",
          "type": "uint256"
        }
      ],
      "name": "setMaxGap",
      "outputs": [],
      "stateMutability": "nonpayable",
      "type": "function"
    },
    {
      "inputs": [],
      "name": "totalGapsCovered",
      "outputs": [
        {
          "internalType": "uint256",
          "name": "",
          "type": "uint256"
        }
      ],
      "stateMutability": "view",
      "type": "function"
    },
    {
      "inputs": [],
      "name": "totalOrdersExecuted",
      "outputs": [
        {
          "internalType": "uint256",
          "name": "",
          "type": "uint256"
        }
      ],
      "stateMutability": "view",
      "type": "function"
    },
    {
      "inputs": [],
      "name": "totalPremiumsCollected",
      "outputs": [
        {
          "internalType": "uint256",
          "name": "",
          "type": "uint256"
        }
      ],
      "stateMutability": "view",
      "type": "function"
    },
    {
      "inputs": [
        {
          "internalType": "address",
          "name": "newOwner",
          "type": "address"
        }
      ],
      "name": "transferOwnership",
      "outputs": [],
      "stateMutability": "nonpayable",
      "type": "function"
    },
    {
      "inputs": [],
      "name": "volMargin",
      "outputs": [
        {
          "internalType": "contract IWikiVolatilityMargin",
          "name": "",
          "type": "address"
        }
      ],
      "stateMutability": "view",
      "type": "function"
    }
  ],
  "bytecode": "0x60a03461017b57601f611f7938819003918201601f19168301916001600160401b0383118484101761017f5780849260609460405283398101031261017b5761004781610193565b61005f604061005860208501610193565b9301610193565b6001600160a01b0390911690811561016857600180546001600160a01b03199081169091555f805491821684178155604051949184916001600160a01b03909116907f8be0079c531659141344cd1fd0a4f28419497f9722a3daafe3b4186f6b6457e09080a360017f9b779b17422d0df92223018b32b4d1fa46e071723d6817e2486d003becc55f00556032600b556105dc600c81905562278d00600d55611f40600e55600f556101f46010556001600160a01b0390811660805260028054929091166001600160a01b031992831617905560078054909116919091179055611dd190816101a882396080518181816105f4015281816107e40152818161134801526113e00152f35b631e4fbdf760e01b5f525f60045260245ffd5b5f80fd5b634e487b7160e01b5f52604160045260245ffd5b51906001600160a01b038216820361017b5756fe6080806040526004361015610012575f80fd5b5f905f3560e01c908163012e09a3146118435750806301cceb3814611803578063102d6146146115b65780631179778b146115795780631391cd9f1461155c578063249d39e9146115405780632a58b330146115235780633dadde201461150657806343d9332d1461125d57806352a4b25914610f0d578063715018a614610eaa57806371a1c22f1461072f578063748747e6146106ef57806379ba50971461066a5780637dea18171461064157806384eea2631461062357806389a30271146105de57806389cf3204146105b55780638da5cb5b1461058e57806391a36da314610570578063945d8e6314610552578063a85c38ef146104b4578063aced16611461048b578063ad75186a1461046d578063bca1ce491461044f578063bfa4c00c14610426578063c7a9cc66146103fd578063d2c817bf146103d3578063de71dafa146103a3578063e30c39781461037a578063f2fde38b1461030d578063f60b9726146102e4578063f63bf8bd146101b45763fe85d10d14610194575f80fd5b346101b157806003193601126101b1576020600d54604051908152f35b80fd5b50346101b15760a03660031901126101b1576101ce611873565b6024356001600160a01b038116908190036102e0576044356001600160a01b038116908190036102dc576064356001600160a01b03811692908390036102d8576084356001600160a01b03811694908590036102d45761022c611a28565b6001600160a01b0316806102bb575b50806102a2575b5080610289575b5080610270575b508061025a575080f35b6001600160601b0360a01b600654161760065580f35b6001600160601b0360a01b60055416176005555f610250565b6001600160601b0360a01b60045416176004555f610249565b6001600160601b0360a01b60035416176003555f610242565b6001600160601b0360a01b60025416176002555f61023b565b8580fd5b8480fd5b8380fd5b8280fd5b50346101b157806003193601126101b1576005546040516001600160a01b039091168152602090f35b50346101b15760203660031901126101b157610327611873565b61032f611a28565b600180546001600160a01b0319166001600160a01b0392831690811790915582549091167f38d16b8cac22d99fc7c124b9cd0de2d3fa1faef420bfe791d8c362d765e227008380a380f35b50346101b157806003193601126101b1576001546040516001600160a01b039091168152602090f35b50346101b15760203660031901126101b1576004356103c0611a28565b610bb881116103cf57600c5580f35b5080fd5b50346101b15760203660031901126101b15760406020916004358152600983522054604051908152f35b50346101b157806003193601126101b1576003546040516001600160a01b039091168152602090f35b50346101b157806003193601126101b1576002546040516001600160a01b039091168152602090f35b50346101b157806003193601126101b1576020600b54604051908152f35b50346101b157806003193601126101b1576020600c54604051908152f35b50346101b157806003193601126101b1576007546040516001600160a01b039091168152602090f35b50346101b15760203660031901126101b157604061014091600435815260086020522060ff60018060a01b03825416916001810154906002810154600382015460048301546005840154916006850154936008600787015496015496604051998a5260208a015260408901526060880152608087015260a086015260c085015260e0840152818116151561010084015260081c161515610120820152f35b50346101b157806003193601126101b1576020601054604051908152f35b50346101b157806003193601126101b1576020600e54604051908152f35b50346101b157806003193601126101b157546040516001600160a01b039091168152602090f35b50346101b157806003193601126101b1576006546040516001600160a01b039091168152602090f35b50346101b157806003193601126101b1576040517f00000000000000000000000000000000000000000000000000000000000000006001600160a01b03168152602090f35b50346101b157806003193601126101b1576020600f54604051908152f35b50346101b157806003193601126101b1576004546040516001600160a01b039091168152602090f35b50346101b157806003193601126101b157600154336001600160a01b03909116036106dc57600180546001600160a01b0319908116909155815433918116821783556001600160a01b03167f8be0079c531659141344cd1fd0a4f28419497f9722a3daafe3b4186f6b6457e08380a380f35b63118cdaa760e01b815233600452602490fd5b50346101b15760203660031901126101b157610709611873565b610711611a28565b60018060a01b03166001600160601b0360a01b600754161760075580f35b5034610c2a5761073e3661185d565b90610747611c35565b805f52600960205260405f2054610e72578115610e3c5760025460405163eb02c30160e01b8152600481018390529060c090829060249082906001600160a01b03165afa928315610e31575f915f925f915f96610df7575b50336001600160a01b0390911603610dba578415610d7c576107c083611a4e565b9015610d135780821015610cbe5784826107db925b85611abd565b918215610c83577f00000000000000000000000000000000000000000000000000000000000000006040516323b872dd60e01b5f5233600452306024528460445260205f60648180865af19060015f5114821615610c62575b6040525f60605215610c425761084c84601154611a1b565b60115561271061085e600e5486611911565b0461271061086e600f5487611911565b04906108838261087e8389611a0e565b611a0e565b9281151580610c2e575b610bc1575b82151580610bad575b610b3d575b83151580610b29575b610aba575b506108f87f9ece8d6bd1e4428756265d443aab91ea6d6a148fd0fc04c7a6cc7a3517ddd1e59360405193849389859094939260609260808301968352602083015260408201520152565b0390a1600a545f198114610aa65761091e600161271092019687600a55600c5490611911565b0461092b600d5442611a1b565b60405190610140820182811067ffffffffffffffff821117610a9257988896947f8561b72d55fb5b833f6e27849c88c5e9a4b218e35addb2b791afd6634e12039096946008899560409560209e87523382528e8201938d855287830195865260608301908a8252608084018c815260a0850191825260c085019242845260e086019485526101008601988a8a526101208701988b8a528d8c5260208990528c8c209760018060a01b039051166001600160601b0360a01b895416178855516001880155516002870155516003860155516004850155516005840155516006830155516007820155019151151560ff8019845416911617825551151561ff0082549160081b169061ff00191617905587815260098a522055610a76610a51600d5442611a1b565b6040519384933398859094939260609260808301968352602083015260408201520152565b0390a360015f80516020611d7c83398151915255604051908152f35b634e487b7160e01b8a52604160045260248afd5b634e487b7160e01b87526011600452602487fd5b600654610ad29185916001600160a01b031690611c6d565b60065489906001600160a01b0316803b156103cf5781809160246040518094819363211e242d60e11b83528a60048401525af1610b10575b506108ae565b81610b1a91611889565b610b2557885f610b0a565b8880fd5b506006546001600160a01b031615156108a9565b600554610b559084906001600160a01b031683611c6d565b6005548a906001600160a01b0316803b156103cf578180916024604051809481936356cde0bf60e11b83528a60048401525af1610b94575b50506108a0565b81610b9e91611889565b610ba957895f610b8d565b8980fd5b506005546001600160a01b0316151561089b565b600454610bd99083906001600160a01b031683611c6d565b6004546001600160a01b0316803b15610c2a575f809160246040518094819363211e242d60e11b83528860048401525af1610c15575b50610892565b610c22919a505f90611889565b5f985f610c0f565b5f80fd5b506004546001600160a01b0316151561088d565b635274afe760e01b5f9081526001600160a01b0391909116600452602490fd5b906001811516610c7a57823b15153d15161690610834565b503d5f823e3d90fd5b60405162461bcd60e51b815260206004820152601360248201527247533a207072656d69756d206973207a65726f60681b6044820152606490fd5b60405162461bcd60e51b815260206004820152602760248201527f47533a2073746f70206d7573742062652062656c6f77206d61726b657420666f60448201526672206c6f6e677360c81b6064820152608490fd5b80821115610d265784826107db926107d5565b60405162461bcd60e51b815260206004820152602860248201527f47533a2073746f70206d7573742062652061626f7665206d61726b657420666f604482015267722073686f72747360c01b6064820152608490fd5b60405162461bcd60e51b815260206004820152601660248201527511d4ce881c1bdcda5d1a5bdb881b9bdd08199bdd5b9960521b6044820152606490fd5b60405162461bcd60e51b815260206004820152601560248201527423a99d103737ba103cb7bab9103837b9b4ba34b7b760591b6044820152606490fd5b9295505050610e1e915060c03d60c011610e2a575b610e168183611889565b8101906118cc565b5095929390505f61079f565b503d610e0c565b6040513d5f823e3d90fd5b60405162461bcd60e51b815260206004820152600e60248201526d47533a207a65726f20707269636560901b6044820152606490fd5b60405162461bcd60e51b815260206004820152601060248201526f47533a206f726465722065786973747360801b6044820152606490fd5b34610c2a575f366003190112610c2a57610ec2611a28565b600180546001600160a01b03199081169091555f80549182168155906001600160a01b03167f8be0079c531659141344cd1fd0a4f28419497f9722a3daafe3b4186f6b6457e08280a3005b34610c2a576020366003190112610c2a57600435610f29611c35565b6007546001600160a01b03163314801561124a575b1561121457805f52600860205260405f2090600882019160ff8354610f6582821615611986565b60081c166111e15760078101544210156111aa57610f866002820154611a4e565b60025460018301805460405163eb02c30160e01b8152600481018290529096919491926001600160a01b03169060c081602481855afa908115610e31575f91611185575b50801561117057610fe160038401548611156119c9565b6040600384019860448a54915f8451968794859363878a9e3960e01b8552600485015260248401525af1918215610e31575f92611139575b505f90808061112f575b15611108575050611035848854611a0e565b600583015490818111156111005750925b600160ff1982541617905561105d83601254611a1b565b60125560135491600183018093116110ec577fd19572a015db36cdff01d2b0104ee6582f63c74395b3cd2ba61d24f903a5340d956110d693601355545f5260096020525f604081205560018060a01b03905416965492604051948594859094939260609260808301968352602083015260408201520152565b0390a360015f80516020611d7c83398151915255005b634e487b7160e01b5f52601160045260245ffd5b905092611046565b1580611125575b156110355750611120875485611a0e565b611035565b508754851161110f565b5085895411611023565b9091506040813d604011611168575b8161115560409383611889565b81010312610c2a57602001519088611019565b3d9150611148565b61118060038401548610156119c9565b610fe1565b61119e915060c03d60c011610e2a57610e168183611889565b50505091505088610fca565b60405162461bcd60e51b815260206004820152600f60248201526e47533a20706173742065787069727960881b6044820152606490fd5b60405162461bcd60e51b815260206004820152600b60248201526a11d4ce88195e1c1a5c995960aa1b6044820152606490fd5b60405162461bcd60e51b815260206004820152600e60248201526d23a99d103737ba1035b2b2b832b960911b6044820152606490fd5b505f546001600160a01b03163314610f3e565b34610c2a576020366003190112610c2a57600435611279611c35565b5f81815260086020526040902080546001600160a01b031633036114cc576008810180546112aa60ff821615611986565b60ff8160081c166114915760078301544210611456576101009061ff00191617905560018101545f5260096020525f6040812055600481015460011c90811515806113c4575b611346575b54604080516001600160a01b03909216825260208201929092527fe54557729f3e23e6c8e1093817193ffdad7730c13cbb96bbb54324a52bfd2f299190a260015f80516020611d7c83398151915255005b7f000000000000000000000000000000000000000000000000000000000000000060018060a01b038254166040519063a9059cbb60e01b5f526004528360245260205f60448180865af19060015f51148216156113ac575b60405215610c4257506112f5565b906001811516610c7a57823b15153d1516169061139e565b506040516370a0823160e01b81523060048201526020816024817f00000000000000000000000000000000000000000000000000000000000000006001600160a01b03165afa8015610e315783915f91611421575b5010156112f0565b9150506020813d60201161144e575b8161143d60209383611889565b81010312610c2a5782905185611419565b3d9150611430565b60405162461bcd60e51b815260206004820152601360248201527211d4ce881b9bdd08195e1c1a5c9959081e595d606a1b6044820152606490fd5b60405162461bcd60e51b815260206004820152601360248201527211d4ce88185b1c9958591e48195e1c1a5c9959606a1b6044820152606490fd5b60405162461bcd60e51b815260206004820152601260248201527123a99d103737ba103cb7bab91037b93232b960711b6044820152606490fd5b34610c2a575f366003190112610c2a576020601154604051908152f35b34610c2a575f366003190112610c2a576020600a54604051908152f35b34610c2a575f366003190112610c2a5760206040516127108152f35b34610c2a575f366003190112610c2a576020601254604051908152f35b34610c2a576020366003190112610c2a57600435611595611a28565b600a811015806115aa575b15610c2a57600b55005b506101f48111156115a0565b34610c2a576115c43661185d565b9060c060018060a01b03600254169160246040518094819363eb02c30160e01b835260048301525afa918215610e31575f915f936117d6575b50826116129161160c84611a4e565b84611abd565b9180156117ce5761271083029083820461271014841517156110ec5761163791611924565b915b6003546001600160a01b031691821561179f5760e090602460405180958193632f01254b861b835260048301525afa918215610e315760a0926020915f91611769575b50806101f481106116e95750604051611696604082611889565b600781526645585452454d4560c81b838201525b905b6040519586948552838501526040840152608060608401528051918291826080860152018484015e5f828201840152601f01601f19168101030190f35b61015e81106117165750604051611701604082611889565b6004815263090928e960e31b838201526116aa565b60c8116117445760405161172b604082611889565b6008815267115311559055115160c21b838201526116aa565b604051611752604082611889565b60068152651393d493505360d21b838201526116aa565b61178b915060e03d60e011611798575b6117838183611889565b810190611942565b505050509150508561167c565b503d611779565b5060a09150602060646040516117b6604082611889565b60068152651393d493505360d21b83820152906116ac565b505f91611639565b6117f5919350611612925060c03d60c011610e2a57610e168183611889565b5094935050509192906115fd565b34610c2a576020366003190112610c2a5760043561181f611a28565b6201518081101580611836575b15610c2a57600d55005b506276a70081111561182c565b34610c2a575f366003190112610c2a576020906013548152f35b6040906003190112610c2a576004359060243590565b600435906001600160a01b0382168203610c2a57565b90601f8019910116810190811067ffffffffffffffff8211176118ab57604052565b634e487b7160e01b5f52604160045260245ffd5b51908115158203610c2a57565b91908260c0910312610c2a5781516001600160a01b0381168103610c2a57916020810151916118fd604083016118bf565b9160608101519160a0608083015192015190565b818102929181159184041417156110ec57565b811561192e570490565b634e487b7160e01b5f52601260045260245ffd5b908160e0910312610c2a57805160ff81168103610c2a579160208201519160408101519160608201519160808101519161198360c060a084015193016118bf565b90565b1561198d57565b60405162461bcd60e51b815260206004820152601460248201527311d4ce88185b1c9958591e48195e1958dd5d195960621b6044820152606490fd5b156119d057565b60405162461bcd60e51b815260206004820152601660248201527511d4ce881c1c9a58d9481b9bdd08189c995858da195960521b6044820152606490fd5b919082039182116110ec57565b919082018092116110ec57565b5f546001600160a01b03163303611a3b57565b63118cdaa760e01b5f523360045260245ffd5b6003546001600160a01b0316908115611ab75760e090602460405180948193632f01254b861b835260048301525afa5f9181611a8f575b5061198357505f90565b611aa991925060e03d60e011611798576117838183611889565b50509350505050905f611a85565b50505f90565b918115611c2d578181811115611bfa5790611ad791611a0e565b9161271083029280840461271014901517156110ec57611afc611b3692606494611924565b60035484926001600160a01b039091169081611b9a575b50508015611b8c57611b30612710915b82611b30600b5489611911565b04611911565b0490600a810290801591818104600a148317156110ec576127109004916101f482029182046101f41417156110ec57612710900490808310611b84575b50808211611b7f575090565b905090565b91505f611b73565b50612710611b306001611b23565b60e090602460405180948193632f01254b861b835260048301525afa5f9181611bd2575b50611bca575b80611b13565b91505f611bc4565b611bec91925060e03d60e011611798576117838183611889565b50505050915050905f611bbe565b611c0391611a0e565b9161271083029280840461271014901517156110ec57611c28611b3692606494611924565b611afc565b505050505f90565b60025f80516020611d7c8339815191525414611c5e5760025f80516020611d7c83398151915255565b633ee5aeb560e01b5f5260045ffd5b916040519163095ea7b360e01b5f5260018060a01b031691826004528160245260205f60448180885af19060015f5114821615611d6c575b60405215611cb257505050565b60405163095ea7b360e01b5f52826004525f60245260205f60448180885af19060015f5114821615611d54575b60405215611d36576040519163095ea7b360e01b5f5260045260245260205f60448180865af19060015f5114821615611d1e575b60405215610c425750565b906001811516610c7a57823b15153d15161690611d13565b635274afe760e01b5f9081526001600160a01b038416600452602490fd5b906001811516610c7a57843b15153d15161690611cdf565b90843b15153d15161690611ca556fe9b779b17422d0df92223018b32b4d1fa46e071723d6817e2486d003becc55f00a26469706673582212209ab1e84356f85da0fd13d2b0e99a80025e4f486bb2fefe095a56f04dee90023764736f6c634300081a0033",
  "linkReferences": {},
  "deployedLinkReferences": {}
}