{
  "_format": "hh-sol-artifact-1",
  "contractName": "WikiLiqAuctionUI",
  "sourceName": "src/WikiLiqAuctionUI.sol",
  "abi": [
    {
      "inputs": [
        {
          "internalType": "address",
          "name": "_owner",
          "type": "address"
        },
        {
          "internalType": "address",
          "name": "_liqMarket",
          "type": "address"
        }
      ],
      "stateMutability": "nonpayable",
      "type": "constructor"
    },
    {
      "inputs": [
        {
          "internalType": "address",
          "name": "owner",
          "type": "address"
        }
      ],
      "name": "OwnableInvalidOwner",
      "type": "error"
    },
    {
      "inputs": [
        {
          "internalType": "address",
          "name": "account",
          "type": "address"
        }
      ],
      "name": "OwnableUnauthorizedAccount",
      "type": "error"
    },
    {
      "anonymous": false,
      "inputs": [
        {
          "indexed": false,
          "internalType": "uint256",
          "name": "auctionId",
          "type": "uint256"
        }
      ],
      "name": "AuctionTracked",
      "type": "event"
    },
    {
      "anonymous": false,
      "inputs": [
        {
          "indexed": false,
          "internalType": "address",
          "name": "liquidator",
          "type": "address"
        },
        {
          "indexed": false,
          "internalType": "uint256",
          "name": "auctionId",
          "type": "uint256"
        },
        {
          "indexed": false,
          "internalType": "uint256",
          "name": "profit",
          "type": "uint256"
        }
      ],
      "name": "LiquidationProfit",
      "type": "event"
    },
    {
      "anonymous": false,
      "inputs": [
        {
          "indexed": true,
          "internalType": "address",
          "name": "previousOwner",
          "type": "address"
        },
        {
          "indexed": true,
          "internalType": "address",
          "name": "newOwner",
          "type": "address"
        }
      ],
      "name": "OwnershipTransferStarted",
      "type": "event"
    },
    {
      "anonymous": false,
      "inputs": [
        {
          "indexed": true,
          "internalType": "address",
          "name": "previousOwner",
          "type": "address"
        },
        {
          "indexed": true,
          "internalType": "address",
          "name": "newOwner",
          "type": "address"
        }
      ],
      "name": "OwnershipTransferred",
      "type": "event"
    },
    {
      "inputs": [],
      "name": "acceptOwnership",
      "outputs": [],
      "stateMutability": "nonpayable",
      "type": "function"
    },
    {
      "inputs": [],
      "name": "gasEstimateUsdc",
      "outputs": [
        {
          "internalType": "uint256",
          "name": "",
          "type": "uint256"
        }
      ],
      "stateMutability": "view",
      "type": "function"
    },
    {
      "inputs": [],
      "name": "getActiveAuctions",
      "outputs": [
        {
          "components": [
            {
              "internalType": "uint256",
              "name": "auctionId",
              "type": "uint256"
            },
            {
              "internalType": "address",
              "name": "trader",
              "type": "address"
            },
            {
              "internalType": "uint256",
              "name": "collateralUsdc",
              "type": "uint256"
            },
            {
              "internalType": "uint256",
              "name": "debtUsdc",
              "type": "uint256"
            },
            {
              "internalType": "uint256",
              "name": "currentDiscount",
              "type": "uint256"
            },
            {
              "internalType": "uint256",
              "name": "estimatedProfit",
              "type": "uint256"
            },
            {
              "internalType": "uint256",
              "name": "timeRemainingSeconds",
              "type": "uint256"
            },
            {
              "internalType": "bool",
              "name": "profitable",
              "type": "bool"
            }
          ],
          "internalType": "struct WikiLiqAuctionUI.AuctionView[]",
          "name": "views",
          "type": "tuple[]"
        }
      ],
      "stateMutability": "view",
      "type": "function"
    },
    {
      "inputs": [
        {
          "internalType": "uint256",
          "name": "auctionId",
          "type": "uint256"
        }
      ],
      "name": "getAuctionDetail",
      "outputs": [
        {
          "components": [
            {
              "internalType": "uint256",
              "name": "auctionId",
              "type": "uint256"
            },
            {
              "internalType": "address",
              "name": "trader",
              "type": "address"
            },
            {
              "internalType": "uint256",
              "name": "collateralUsdc",
              "type": "uint256"
            },
            {
              "internalType": "uint256",
              "name": "debtUsdc",
              "type": "uint256"
            },
            {
              "internalType": "uint256",
              "name": "currentDiscount",
              "type": "uint256"
            },
            {
              "internalType": "uint256",
              "name": "estimatedProfit",
              "type": "uint256"
            },
            {
              "internalType": "uint256",
              "name": "timeRemainingSeconds",
              "type": "uint256"
            },
            {
              "internalType": "bool",
              "name": "profitable",
              "type": "bool"
            }
          ],
          "internalType": "struct WikiLiqAuctionUI.AuctionView",
          "name": "",
          "type": "tuple"
        }
      ],
      "stateMutability": "view",
      "type": "function"
    },
    {
      "inputs": [
        {
          "internalType": "address",
          "name": "liq",
          "type": "address"
        }
      ],
      "name": "getLiquidatorProfile",
      "outputs": [
        {
          "internalType": "uint256",
          "name": "totalProfit",
          "type": "uint256"
        },
        {
          "internalType": "uint256",
          "name": "totalBids",
          "type": "uint256"
        },
        {
          "internalType": "uint256",
          "name": "avgProfit",
          "type": "uint256"
        }
      ],
      "stateMutability": "view",
      "type": "function"
    },
    {
      "inputs": [
        {
          "internalType": "uint256",
          "name": "minProfitUsdc",
          "type": "uint256"
        }
      ],
      "name": "getProfitableAuctions",
      "outputs": [
        {
          "components": [
            {
              "internalType": "uint256",
              "name": "auctionId",
              "type": "uint256"
            },
            {
              "internalType": "address",
              "name": "trader",
              "type": "address"
            },
            {
              "internalType": "uint256",
              "name": "collateralUsdc",
              "type": "uint256"
            },
            {
              "internalType": "uint256",
              "name": "debtUsdc",
              "type": "uint256"
            },
            {
              "internalType": "uint256",
              "name": "currentDiscount",
              "type": "uint256"
            },
            {
              "internalType": "uint256",
              "name": "estimatedProfit",
              "type": "uint256"
            },
            {
              "internalType": "uint256",
              "name": "timeRemainingSeconds",
              "type": "uint256"
            },
            {
              "internalType": "bool",
              "name": "profitable",
              "type": "bool"
            }
          ],
          "internalType": "struct WikiLiqAuctionUI.AuctionView[]",
          "name": "profitable",
          "type": "tuple[]"
        }
      ],
      "stateMutability": "view",
      "type": "function"
    },
    {
      "inputs": [],
      "name": "getSortedByDiscount",
      "outputs": [
        {
          "components": [
            {
              "internalType": "uint256",
              "name": "auctionId",
              "type": "uint256"
            },
            {
              "internalType": "address",
              "name": "trader",
              "type": "address"
            },
            {
              "internalType": "uint256",
              "name": "collateralUsdc",
              "type": "uint256"
            },
            {
              "internalType": "uint256",
              "name": "debtUsdc",
              "type": "uint256"
            },
            {
              "internalType": "uint256",
              "name": "currentDiscount",
              "type": "uint256"
            },
            {
              "internalType": "uint256",
              "name": "estimatedProfit",
              "type": "uint256"
            },
            {
              "internalType": "uint256",
              "name": "timeRemainingSeconds",
              "type": "uint256"
            },
            {
              "internalType": "bool",
              "name": "profitable",
              "type": "bool"
            }
          ],
          "internalType": "struct WikiLiqAuctionUI.AuctionView[]",
          "name": "sorted",
          "type": "tuple[]"
        }
      ],
      "stateMutability": "view",
      "type": "function"
    },
    {
      "inputs": [],
      "name": "liqMarket",
      "outputs": [
        {
          "internalType": "address",
          "name": "",
          "type": "address"
        }
      ],
      "stateMutability": "view",
      "type": "function"
    },
    {
      "inputs": [
        {
          "internalType": "address",
          "name": "",
          "type": "address"
        }
      ],
      "name": "liquidatorCount",
      "outputs": [
        {
          "internalType": "uint256",
          "name": "",
          "type": "uint256"
        }
      ],
      "stateMutability": "view",
      "type": "function"
    },
    {
      "inputs": [
        {
          "internalType": "address",
          "name": "",
          "type": "address"
        }
      ],
      "name": "liquidatorStats",
      "outputs": [
        {
          "internalType": "uint256",
          "name": "",
          "type": "uint256"
        }
      ],
      "stateMutability": "view",
      "type": "function"
    },
    {
      "inputs": [],
      "name": "owner",
      "outputs": [
        {
          "internalType": "address",
          "name": "",
          "type": "address"
        }
      ],
      "stateMutability": "view",
      "type": "function"
    },
    {
      "inputs": [],
      "name": "pendingOwner",
      "outputs": [
        {
          "internalType": "address",
          "name": "",
          "type": "address"
        }
      ],
      "stateMutability": "view",
      "type": "function"
    },
    {
      "inputs": [
        {
          "internalType": "address",
          "name": "liquidator",
          "type": "address"
        },
        {
          "internalType": "uint256",
          "name": "auctionId",
          "type": "uint256"
        },
        {
          "internalType": "uint256",
          "name": "profit",
          "type": "uint256"
        }
      ],
      "name": "recordLiquidation",
      "outputs": [],
      "stateMutability": "nonpayable",
      "type": "function"
    },
    {
      "inputs": [],
      "name": "renounceOwnership",
      "outputs": [],
      "stateMutability": "nonpayable",
      "type": "function"
    },
    {
      "inputs": [
        {
          "internalType": "uint256",
          "name": "g",
          "type": "uint256"
        }
      ],
      "name": "setGasEstimate",
      "outputs": [],
      "stateMutability": "nonpayable",
      "type": "function"
    },
    {
      "inputs": [
        {
          "internalType": "address",
          "name": "m",
          "type": "address"
        }
      ],
      "name": "setLiqMarket",
      "outputs": [],
      "stateMutability": "nonpayable",
      "type": "function"
    },
    {
      "inputs": [
        {
          "internalType": "uint256",
          "name": "",
          "type": "uint256"
        }
      ],
      "name": "trackedAuctions",
      "outputs": [
        {
          "internalType": "bool",
          "name": "",
          "type": "bool"
        }
      ],
      "stateMutability": "view",
      "type": "function"
    },
    {
      "inputs": [
        {
          "internalType": "address",
          "name": "newOwner",
          "type": "address"
        }
      ],
      "name": "transferOwnership",
      "outputs": [],
      "stateMutability": "nonpayable",
      "type": "function"
    }
  ],
  "bytecode": "0x6080346100fa57601f610e5038819003918201601f19168301916001600160401b038311848410176100fe5780849260409485528339810103126100fa57610052602061004b83610112565b9201610112565b6001600160a01b039091169081156100e757600180546001600160a01b03199081169091555f80549182168417815560405193916001600160a01b0316907f8be0079c531659141344cd1fd0a4f28419497f9722a3daafe3b4186f6b6457e09080a3621e8480600355600280546001600160a01b0319166001600160a01b0392909216919091179055610d2990816101278239f35b631e4fbdf760e01b5f525f60045260245ffd5b5f80fd5b634e487b7160e01b5f52604160045260245ffd5b51906001600160a01b03821682036100fa5756fe60806040526004361015610011575f80fd5b5f3560e01c80630564a6eb1461051f57806316d1cdfd146105025780631c66e5c8146104ca57806332a565f01461048757806334184da11461044f57806346a0fd4c146104205780636e0f1c08146103ff578063715018a61461039c57806379ba5097146103175780638da5cb5b146102f0578063a87b978a14610241578063ab5cc16f1461020a578063c488997f146101e2578063cf44b5d5146101c7578063e30c39781461019f578063eb61e44014610184578063ecd4c14d146101555763f2fde38b146100df575f80fd5b34610151576020366003190112610151576100f8610588565b610100610b3e565b60018060a01b0316806bffffffffffffffffffffffff60a01b600154161760015560018060a01b035f54167f38d16b8cac22d99fc7c124b9cd0de2d3fa1faef420bfe791d8c362d765e227005f80a3005b5f80fd5b3461015157602036600319011261015157610180610174600435610a25565b604051918291826105f3565b0390f35b34610151575f366003190112610151576101806101746108e5565b34610151575f366003190112610151576001546040516001600160a01b039091168152602090f35b34610151575f36600319011261015157610180610174610829565b34610151575f366003190112610151576002546040516001600160a01b039091168152602090f35b3461015157602036600319011261015157610223610699565b50610100610232600435610b72565b61023f604051809261059e565bf35b346101515760603660031901126101515761025a610588565b60443590610266610b3e565b60018060a01b0316805f52600560205260405f20908154928084018094116102dc577f8028f6ee3b1f869c93feae151e2fc981a0adbc3738e4a570575f34d5fc992d5c9360609355815f52600660205260405f206102c48154610655565b905560405191825260243560208301526040820152a1005b634e487b7160e01b5f52601160045260245ffd5b34610151575f366003190112610151575f546040516001600160a01b039091168152602090f35b34610151575f36600319011261015157600154336001600160a01b039091160361038957600180546001600160a01b03199081169091555f805433928116831782556001600160a01b0316907f8be0079c531659141344cd1fd0a4f28419497f9722a3daafe3b4186f6b6457e09080a3005b63118cdaa760e01b5f523360045260245ffd5b34610151575f366003190112610151576103b4610b3e565b600180546001600160a01b03199081169091555f80549182168155906001600160a01b03167f8be0079c531659141344cd1fd0a4f28419497f9722a3daafe3b4186f6b6457e08280a3005b3461015157602036600319011261015157610418610b3e565b600435600355005b34610151576020366003190112610151576004355f526004602052602060ff60405f2054166040519015158152f35b34610151576020366003190112610151576001600160a01b03610470610588565b165f526006602052602060405f2054604051908152f35b34610151576020366003190112610151576104a0610588565b6104a8610b3e565b600280546001600160a01b0319166001600160a01b0392909216919091179055005b34610151576020366003190112610151576001600160a01b036104eb610588565b165f526005602052602060405f2054604051908152f35b34610151575f366003190112610151576020600354604051908152f35b346101515760203660031901126101515760606001600160a01b03610542610588565b165f9081526005602090815260408083205460069092529091205480156105815761056d8183610637565b905b60405192835260208301526040820152f35b5f9061056f565b600435906001600160a01b038216820361015157565b60e080918051845260018060a01b03602082015116602085015260408101516040850152606081015160608501526080810151608085015260a081015160a085015260c081015160c085015201511515910152565b60206040818301928281528451809452019201905f5b8181106106165750505090565b90919260206101008261062c600194885161059e565b019401929101610609565b8115610641570490565b634e487b7160e01b5f52601260045260245ffd5b5f1981146102dc5760010190565b90601f8019910116810190811067ffffffffffffffff82111761068557604052565b634e487b7160e01b5f52604160045260245ffd5b60405190610100820182811067ffffffffffffffff821117610685576040525f60e0838281528260208201528260408201528260608201528260808201528260a08201528260c08201520152565b67ffffffffffffffff81116106855760051b60200190565b6040519061070e602083610663565b5f80835282815b82811061072157505050565b60209061072c610699565b82828501015201610715565b90610742826106e7565b61074f6040519182610663565b8281528092610760601f19916106e7565b01905f5b82811061077057505050565b60209061077b610699565b82828501015201610764565b6020818303126101515780519067ffffffffffffffff821161015157019080601f830112156101515781516107bb816106e7565b926107c96040519485610663565b81845260208085019260051b82010192831161015157602001905b8282106107f15750505090565b81518152602091820191016107e4565b80518210156108155760209160051b010190565b634e487b7160e01b5f52603260045260245ffd5b6002546001600160a01b031680156108dc575f60049160405192838092632848686360e11b82525afa5f91816108b8575b5061086b57506108686106ff565b90565b906108768251610738565b915f5b81518110156108b4578061089861089260019385610801565b51610b72565b6108a28287610801565b526108ad8186610801565b5001610879565b5050565b6108d59192503d805f833e6108cd8183610663565b810190610787565b905f61085a565b506108686106ff565b6002546001600160a01b031680156108dc575f60049160405192838092632848686360e11b82525afa5f9181610a09575b5061092457506108686106ff565b61092e8151610738565b905f5b8151811015610966578061094a61089260019385610801565b6109548286610801565b5261095f8185610801565b5001610931565b50505f5b8151811015610a0557600181018082116102dc575b82518110156109fc5780608061099760019386610801565b51015160806109a68587610801565b510151106109b5575b0161097f565b6109bf8385610801565b516109ca8286610801565b516109d58587610801565b526109e08486610801565b506109eb8286610801565b526109f68185610801565b506109af565b5060010161096a565b5090565b610a1e9192503d805f833e6108cd8183610663565b905f610916565b6002546001600160a01b031691908215610b33575f60049360405194858092632848686360e11b82525afa5f9381610b17575b50610a68575090506108686106ff565b5f905f5b8451811015610aaa578160a0610a856108928489610801565b01511015610a96575b600101610a6c565b91610aa2600191610655565b929050610a8e565b5090610ab590610738565b925f905f5b8151811015610b1157610ad06108928284610801565b8460a08201511015610ae6575b50600101610aba565b9290610b0a82610af860019491610655565b95610b03828b610801565b5288610801565b5090610add565b50505050565b610b2c9194503d805f833e6108cd8183610663565b925f610a58565b5090506108686106ff565b5f546001600160a01b0316330361038957565b51906001600160a01b038216820361015157565b919082039182116102dc57565b90610b7b610699565b9180835261012060018060a01b0360025416916024604051809481936378bd793560e01b835260048301525afa5f915f80935f93805f945f92610c78575b50610bc7575b505050505050565b610c71576001600160a01b0316602087015260408601526060850183905242811115610c6a57610bf8904290610b65565b60c085015281151580610c61575b610c14575b80808080610bbf565b610c1e8183610b65565b9161271083029280840461271014901517156102dc57610c4181610c4b94610637565b6080860152610b65565b8060a08401526003541060e08301525f80610c0b565b50818110610c06565b505f610bf8565b5050505050565b9550955050505050610120813d8211610ceb575b81610c9a6101209383610663565b8101031261015157610cab81610b51565b90604081015160608201519060808301519460a08401519460c08501519485151586036101515760e0610cde9101610b51565b509192959493905f610bb9565b3d9150610c8c56fea2646970667358221220123a1d17b728c9dee5b120d73d0f9b93c2928c056647f561da8e9f71526ffc9d64736f6c634300081a0033",
  "linkReferences": {},
  "deployedLinkReferences": {}
}