{
  "_format": "hh-sol-artifact-1",
  "contractName": "WikiPositionInsurance",
  "sourceName": "src/WikiPositionInsurance.sol",
  "abi": [
    {
      "inputs": [
        {
          "internalType": "address",
          "name": "_owner",
          "type": "address"
        },
        {
          "internalType": "address",
          "name": "_usdc",
          "type": "address"
        },
        {
          "internalType": "address",
          "name": "_revenueSplitter",
          "type": "address"
        },
        {
          "internalType": "address",
          "name": "_keeper",
          "type": "address"
        }
      ],
      "stateMutability": "nonpayable",
      "type": "constructor"
    },
    {
      "inputs": [
        {
          "internalType": "address",
          "name": "owner",
          "type": "address"
        }
      ],
      "name": "OwnableInvalidOwner",
      "type": "error"
    },
    {
      "inputs": [
        {
          "internalType": "address",
          "name": "account",
          "type": "address"
        }
      ],
      "name": "OwnableUnauthorizedAccount",
      "type": "error"
    },
    {
      "inputs": [],
      "name": "ReentrancyGuardReentrantCall",
      "type": "error"
    },
    {
      "inputs": [
        {
          "internalType": "address",
          "name": "token",
          "type": "address"
        }
      ],
      "name": "SafeERC20FailedOperation",
      "type": "error"
    },
    {
      "anonymous": false,
      "inputs": [
        {
          "indexed": true,
          "internalType": "address",
          "name": "previousOwner",
          "type": "address"
        },
        {
          "indexed": true,
          "internalType": "address",
          "name": "newOwner",
          "type": "address"
        }
      ],
      "name": "OwnershipTransferStarted",
      "type": "event"
    },
    {
      "anonymous": false,
      "inputs": [
        {
          "indexed": true,
          "internalType": "address",
          "name": "previousOwner",
          "type": "address"
        },
        {
          "indexed": true,
          "internalType": "address",
          "name": "newOwner",
          "type": "address"
        }
      ],
      "name": "OwnershipTransferred",
      "type": "event"
    },
    {
      "anonymous": false,
      "inputs": [
        {
          "indexed": false,
          "internalType": "uint256",
          "name": "policyId",
          "type": "uint256"
        },
        {
          "indexed": false,
          "internalType": "address",
          "name": "trader",
          "type": "address"
        },
        {
          "indexed": false,
          "internalType": "uint256",
          "name": "payout",
          "type": "uint256"
        }
      ],
      "name": "PolicyClaimed",
      "type": "event"
    },
    {
      "anonymous": false,
      "inputs": [
        {
          "indexed": false,
          "internalType": "uint256",
          "name": "policyId",
          "type": "uint256"
        }
      ],
      "name": "PolicyExpired",
      "type": "event"
    },
    {
      "anonymous": false,
      "inputs": [
        {
          "indexed": false,
          "internalType": "uint256",
          "name": "policyId",
          "type": "uint256"
        },
        {
          "indexed": false,
          "internalType": "address",
          "name": "trader",
          "type": "address"
        },
        {
          "indexed": false,
          "internalType": "uint256",
          "name": "coverage",
          "type": "uint256"
        },
        {
          "indexed": false,
          "internalType": "uint256",
          "name": "premium",
          "type": "uint256"
        }
      ],
      "name": "PolicyPurchased",
      "type": "event"
    },
    {
      "anonymous": false,
      "inputs": [
        {
          "indexed": false,
          "internalType": "uint256",
          "name": "poolId",
          "type": "uint256"
        },
        {
          "indexed": false,
          "internalType": "address",
          "name": "underwriter",
          "type": "address"
        },
        {
          "indexed": false,
          "internalType": "uint256",
          "name": "capital",
          "type": "uint256"
        }
      ],
      "name": "PoolCreated",
      "type": "event"
    },
    {
      "anonymous": false,
      "inputs": [
        {
          "indexed": false,
          "internalType": "uint256",
          "name": "poolId",
          "type": "uint256"
        },
        {
          "indexed": false,
          "internalType": "uint256",
          "name": "premium",
          "type": "uint256"
        }
      ],
      "name": "UnderwriterEarned",
      "type": "event"
    },
    {
      "inputs": [],
      "name": "BPS",
      "outputs": [
        {
          "internalType": "uint256",
          "name": "",
          "type": "uint256"
        }
      ],
      "stateMutability": "view",
      "type": "function"
    },
    {
      "inputs": [],
      "name": "USDC",
      "outputs": [
        {
          "internalType": "contract IERC20",
          "name": "",
          "type": "address"
        }
      ],
      "stateMutability": "view",
      "type": "function"
    },
    {
      "inputs": [],
      "name": "acceptOwnership",
      "outputs": [],
      "stateMutability": "nonpayable",
      "type": "function"
    },
    {
      "inputs": [
        {
          "internalType": "uint256",
          "name": "poolId",
          "type": "uint256"
        },
        {
          "internalType": "uint256",
          "name": "amount",
          "type": "uint256"
        }
      ],
      "name": "addCapital",
      "outputs": [],
      "stateMutability": "nonpayable",
      "type": "function"
    },
    {
      "inputs": [
        {
          "internalType": "uint256",
          "name": "positionId",
          "type": "uint256"
        },
        {
          "internalType": "uint256",
          "name": "marketId",
          "type": "uint256"
        },
        {
          "internalType": "enum WikiPositionInsurance.CoverageType",
          "name": "coverageType",
          "type": "uint8"
        },
        {
          "internalType": "uint256",
          "name": "coverageAmount",
          "type": "uint256"
        },
        {
          "internalType": "uint256",
          "name": "poolId",
          "type": "uint256"
        },
        {
          "internalType": "uint256",
          "name": "durationDays",
          "type": "uint256"
        }
      ],
      "name": "buyPolicy",
      "outputs": [
        {
          "internalType": "uint256",
          "name": "policyId",
          "type": "uint256"
        }
      ],
      "stateMutability": "nonpayable",
      "type": "function"
    },
    {
      "inputs": [
        {
          "internalType": "uint256",
          "name": "policyId",
          "type": "uint256"
        },
        {
          "internalType": "uint256",
          "name": "actualLoss",
          "type": "uint256"
        }
      ],
      "name": "claimPolicy",
      "outputs": [],
      "stateMutability": "nonpayable",
      "type": "function"
    },
    {
      "inputs": [
        {
          "internalType": "uint256",
          "name": "capital",
          "type": "uint256"
        },
        {
          "internalType": "uint256",
          "name": "coverageMultiplier",
          "type": "uint256"
        }
      ],
      "name": "createPool",
      "outputs": [
        {
          "internalType": "uint256",
          "name": "poolId",
          "type": "uint256"
        }
      ],
      "stateMutability": "nonpayable",
      "type": "function"
    },
    {
      "inputs": [
        {
          "internalType": "uint256",
          "name": "amount",
          "type": "uint256"
        }
      ],
      "name": "deployIdle",
      "outputs": [],
      "stateMutability": "nonpayable",
      "type": "function"
    },
    {
      "inputs": [
        {
          "internalType": "uint256",
          "name": "policyId",
          "type": "uint256"
        }
      ],
      "name": "expirePolicy",
      "outputs": [],
      "stateMutability": "nonpayable",
      "type": "function"
    },
    {
      "inputs": [
        {
          "internalType": "uint256",
          "name": "poolId",
          "type": "uint256"
        }
      ],
      "name": "getPoolStats",
      "outputs": [
        {
          "internalType": "uint256",
          "name": "totalCapital",
          "type": "uint256"
        },
        {
          "internalType": "uint256",
          "name": "availableCapacity",
          "type": "uint256"
        },
        {
          "internalType": "uint256",
          "name": "totalEarned",
          "type": "uint256"
        },
        {
          "internalType": "uint256",
          "name": "totalClaims",
          "type": "uint256"
        },
        {
          "internalType": "uint256",
          "name": "netPnl",
          "type": "uint256"
        },
        {
          "internalType": "uint256",
          "name": "utilizationBps",
          "type": "uint256"
        }
      ],
      "stateMutability": "view",
      "type": "function"
    },
    {
      "inputs": [
        {
          "internalType": "uint256",
          "name": "coverageAmount",
          "type": "uint256"
        },
        {
          "internalType": "uint256",
          "name": "marketId",
          "type": "uint256"
        },
        {
          "internalType": "uint256",
          "name": "durationDays",
          "type": "uint256"
        }
      ],
      "name": "getQuote",
      "outputs": [
        {
          "internalType": "uint256",
          "name": "premium",
          "type": "uint256"
        },
        {
          "internalType": "uint256",
          "name": "weeklyRateBps",
          "type": "uint256"
        }
      ],
      "stateMutability": "pure",
      "type": "function"
    },
    {
      "inputs": [],
      "name": "idleYieldRouter",
      "outputs": [
        {
          "internalType": "contract IIdleYieldRouter",
          "name": "",
          "type": "address"
        }
      ],
      "stateMutability": "view",
      "type": "function"
    },
    {
      "inputs": [],
      "name": "keeper",
      "outputs": [
        {
          "internalType": "address",
          "name": "",
          "type": "address"
        }
      ],
      "stateMutability": "view",
      "type": "function"
    },
    {
      "inputs": [],
      "name": "nextPolicyId",
      "outputs": [
        {
          "internalType": "uint256",
          "name": "",
          "type": "uint256"
        }
      ],
      "stateMutability": "view",
      "type": "function"
    },
    {
      "inputs": [],
      "name": "nextPoolId",
      "outputs": [
        {
          "internalType": "uint256",
          "name": "",
          "type": "uint256"
        }
      ],
      "stateMutability": "view",
      "type": "function"
    },
    {
      "inputs": [],
      "name": "oracle",
      "outputs": [
        {
          "internalType": "address",
          "name": "",
          "type": "address"
        }
      ],
      "stateMutability": "view",
      "type": "function"
    },
    {
      "inputs": [],
      "name": "owner",
      "outputs": [
        {
          "internalType": "address",
          "name": "",
          "type": "address"
        }
      ],
      "stateMutability": "view",
      "type": "function"
    },
    {
      "inputs": [],
      "name": "pendingOwner",
      "outputs": [
        {
          "internalType": "address",
          "name": "",
          "type": "address"
        }
      ],
      "stateMutability": "view",
      "type": "function"
    },
    {
      "inputs": [
        {
          "internalType": "uint256",
          "name": "",
          "type": "uint256"
        }
      ],
      "name": "policies",
      "outputs": [
        {
          "internalType": "address",
          "name": "trader",
          "type": "address"
        },
        {
          "internalType": "uint256",
          "name": "positionId",
          "type": "uint256"
        },
        {
          "internalType": "uint256",
          "name": "marketId",
          "type": "uint256"
        },
        {
          "internalType": "enum WikiPositionInsurance.CoverageType",
          "name": "coverageType",
          "type": "uint8"
        },
        {
          "internalType": "enum WikiPositionInsurance.PolicyStatus",
          "name": "status",
          "type": "uint8"
        },
        {
          "internalType": "uint256",
          "name": "coverageAmount",
          "type": "uint256"
        },
        {
          "internalType": "uint256",
          "name": "premiumPaid",
          "type": "uint256"
        },
        {
          "internalType": "uint256",
          "name": "startTs",
          "type": "uint256"
        },
        {
          "internalType": "uint256",
          "name": "expiryTs",
          "type": "uint256"
        },
        {
          "internalType": "uint256",
          "name": "underwriterPool",
          "type": "uint256"
        }
      ],
      "stateMutability": "view",
      "type": "function"
    },
    {
      "inputs": [
        {
          "internalType": "uint256",
          "name": "",
          "type": "uint256"
        }
      ],
      "name": "pools",
      "outputs": [
        {
          "internalType": "address",
          "name": "underwriter",
          "type": "address"
        },
        {
          "internalType": "uint256",
          "name": "totalCapital",
          "type": "uint256"
        },
        {
          "internalType": "uint256",
          "name": "deployedCapital",
          "type": "uint256"
        },
        {
          "internalType": "uint256",
          "name": "totalPremiumEarned",
          "type": "uint256"
        },
        {
          "internalType": "uint256",
          "name": "totalClaimsPaid",
          "type": "uint256"
        },
        {
          "internalType": "uint256",
          "name": "coverageMultiplier",
          "type": "uint256"
        },
        {
          "internalType": "bool",
          "name": "active",
          "type": "bool"
        }
      ],
      "stateMutability": "view",
      "type": "function"
    },
    {
      "inputs": [],
      "name": "protocolFeeBps",
      "outputs": [
        {
          "internalType": "uint256",
          "name": "",
          "type": "uint256"
        }
      ],
      "stateMutability": "view",
      "type": "function"
    },
    {
      "inputs": [
        {
          "internalType": "uint256",
          "name": "amount",
          "type": "uint256"
        },
        {
          "internalType": "string",
          "name": "reason",
          "type": "string"
        }
      ],
      "name": "recallIdle",
      "outputs": [],
      "stateMutability": "nonpayable",
      "type": "function"
    },
    {
      "inputs": [],
      "name": "renounceOwnership",
      "outputs": [],
      "stateMutability": "nonpayable",
      "type": "function"
    },
    {
      "inputs": [],
      "name": "revenueSplitter",
      "outputs": [
        {
          "internalType": "address",
          "name": "",
          "type": "address"
        }
      ],
      "stateMutability": "view",
      "type": "function"
    },
    {
      "inputs": [
        {
          "internalType": "address",
          "name": "router",
          "type": "address"
        }
      ],
      "name": "setIdleYieldRouter",
      "outputs": [],
      "stateMutability": "nonpayable",
      "type": "function"
    },
    {
      "inputs": [
        {
          "internalType": "address",
          "name": "k",
          "type": "address"
        }
      ],
      "name": "setKeeper",
      "outputs": [],
      "stateMutability": "nonpayable",
      "type": "function"
    },
    {
      "inputs": [
        {
          "internalType": "uint256",
          "name": "bps",
          "type": "uint256"
        }
      ],
      "name": "setProtocolFee",
      "outputs": [],
      "stateMutability": "nonpayable",
      "type": "function"
    },
    {
      "inputs": [
        {
          "internalType": "address",
          "name": "",
          "type": "address"
        },
        {
          "internalType": "uint256",
          "name": "",
          "type": "uint256"
        }
      ],
      "name": "traderPolicies",
      "outputs": [
        {
          "internalType": "uint256",
          "name": "",
          "type": "uint256"
        }
      ],
      "stateMutability": "view",
      "type": "function"
    },
    {
      "inputs": [
        {
          "internalType": "address",
          "name": "newOwner",
          "type": "address"
        }
      ],
      "name": "transferOwnership",
      "outputs": [],
      "stateMutability": "nonpayable",
      "type": "function"
    },
    {
      "inputs": [
        {
          "internalType": "address",
          "name": "",
          "type": "address"
        }
      ],
      "name": "underwriterPoolId",
      "outputs": [
        {
          "internalType": "uint256",
          "name": "",
          "type": "uint256"
        }
      ],
      "stateMutability": "view",
      "type": "function"
    },
    {
      "inputs": [
        {
          "internalType": "uint256",
          "name": "poolId",
          "type": "uint256"
        },
        {
          "internalType": "uint256",
          "name": "amount",
          "type": "uint256"
        }
      ],
      "name": "withdrawCapital",
      "outputs": [],
      "stateMutability": "nonpayable",
      "type": "function"
    }
  ],
  "bytecode": "0x60a03461018057601f611a7838819003918201601f19168301916001600160401b03831184841017610184578084926080946040528339810103126101805761004781610198565b61005360208301610198565b9161006c606061006560408401610198565b9201610198565b6001600160a01b0390921692831561016d57600180546001600160a01b03199081169091555f80549182168617815560405195916001600160a01b0316907f8be0079c531659141344cd1fd0a4f28419497f9722a3daafe3b4186f6b6457e09080a360017f9b779b17422d0df92223018b32b4d1fa46e071723d6817e2486d003becc55f00556103e8600b556001600160a01b03908116608052600680546001600160a01b03199081169383169390931790556007805490921692169190911790556118cb90816101ad823960805181818161052f015281816106c2015281816107f601528181610a8b01528181610e980152818161104301526115800152f35b631e4fbdf760e01b5f525f60045260245ffd5b5f80fd5b634e487b7160e01b5f52604160045260245ffd5b51906001600160a01b03821682036101805756fe60806040526004361015610011575f80fd5b5f803560e01c806223b2321461154257806318e5613114611525578063249d39e9146115095780633037e4cd1461142657806335659fb8146114095780636791799d1461132b578063715018a6146112c85780637363fad914611273578063748747e61461123057806374a110c214611009578063787dce3d14610fdf57806379ba509714610f5a5780637be613ca14610f175780637dc0d1d014610eef5780637e3fef0214610ec757806389a3027114610e835780638da5cb5b14610e5c57806396c629e3146109d35780639d2b86f6146109ab578063ac4afa3814610933578063aced16611461090b578063b58e43161461078e578063b9e284ea14610737578063bcee2d421461065e578063cad0b8db14610640578063ce81967d14610438578063d3e8948314610360578063e30c397814610337578063e6bc01a214610216578063f2fde38b146101a95763fc527ade1461016e575f80fd5b346101a65760203660031901126101a6576020906040906001600160a01b036101956115e8565b168152600583522054604051908152f35b80fd5b50346101a65760203660031901126101a6576101c36115e8565b6101cb61180a565b600180546001600160a01b0319166001600160a01b0392831690811790915582549091167f38d16b8cac22d99fc7c124b9cd0de2d3fa1faef420bfe791d8c362d765e227008380a380f35b50346101a65760403660031901126101a6578060243567ffffffffffffffff811161033457366023820112156103345780600401359067ffffffffffffffff82116103305736602483830101116103305782546001600160a01b03163314801561031c575b61028490611703565b600c546001600160a01b0316908161029b57505050f35b813b1561031757839160248360648694604051978896879586936338d44ad560e01b8552600435600486015260408286015282604486015201848401378181018301849052601f01601f191681010301925af1801561030c576102fb5750f35b81610305916116e1565b6101a65780f35b6040513d84823e3d90fd5b505050fd5b50600c546001600160a01b0316331461027b565b5050fd5b50fd5b50346101a657806003193601126101a6576001546040516001600160a01b039091168152602090f35b50346101a65760203660031901126101a657600435815260026020526040812060018060a01b03815416906001810154906002810154600382015460ff8082169160081c166004840154906005850154926006860154946008600788015497015497604051998a5260208a0152604089015260038110156104245760608801526004811015610410576101409750608087015260a086015260c085015260e0840152610100830152610120820152f35b634e487b7160e01b88526021600452602488fd5b634e487b7160e01b89526021600452602489fd5b50346101a657610447366115d2565b90610450611740565b80835260026020526040832080549091906001600160a01b0316330361060457600382019260ff845460081c1660048110156105f0576104909015611675565b600783015442116105bc578015610586577f5f2564c1ad353e58b81e7bd6cd0e6b1a3f52f46ab4c59c2cadfbaacc4b2e571693600191600860048601918254908181115f1461057e5750955b015487526003602052604087209161010061ff001982541617905554610507600283019182546116b3565b905560048101610518858254611668565b9055016105268382546116b3565b905561055382337f000000000000000000000000000000000000000000000000000000000000000061181d565b60408051918252336020830152810191909152606090a160015f805160206118768339815191525580f35b9050956104dc565b60405162461bcd60e51b815260206004820152600e60248201526d496e733a207a65726f206c6f737360901b6044820152606490fd5b60405162461bcd60e51b815260206004820152600c60248201526b125b9cce88195e1c1a5c995960a21b6044820152606490fd5b634e487b7160e01b86526021600452602486fd5b60405162461bcd60e51b8152602060048201526014602482015273496e733a206e6f7420796f757220706f6c69637960601b6044820152606490fd5b50346101a657806003193601126101a6576020600954604051908152f35b50346101a65761066d366115d2565b90610676611740565b82526003602052604082209061069660018060a01b038354163314611627565b60018201816106ab60028354950154856116b3565b106106fa576106bd826106e6946116b3565b9055337f000000000000000000000000000000000000000000000000000000000000000061181d565b60015f805160206118768339815191525580f35b60405162461bcd60e51b8152602060048201526015602482015274125b9cce8818d85c1a5d185b0819195c1b1bde5959605a1b6044820152606490fd5b50346101a65760403660031901126101a6576107516115e8565b6001600160a01b03168152600460205260408120805460243592908310156101a657602061077f84846115fe565b90549060031b1c604051908152f35b50346108865760203660031901126108865760043560018060a01b035f5416331480156108f7575b6107bf90611703565b600c546001600160a01b031680156108c15760405163095ea7b360e01b81526004810191909152602481018290526020816044815f7f00000000000000000000000000000000000000000000000000000000000000006001600160a01b03165af1801561087b5761088a575b50600c546001600160a01b031690813b15610886575f91602483926040519485938492630f6baa0f60e21b845260048401525af1801561087b5761086d575080f35b61087991505f906116e1565b005b6040513d5f823e3d90fd5b5f80fd5b6020813d6020116108b9575b816108a3602093836116e1565b810103126108865751801515811461082b575f80fd5b3d9150610896565b60405162461bcd60e51b815260206004820152600e60248201526d149bdd5d195c881b9bdd081cd95d60921b6044820152606490fd5b50600c546001600160a01b031633146107b6565b34610886575f366003190112610886576007546040516001600160a01b039091168152602090f35b34610886576020366003190112610886576004355f52600360205260e060405f2060018060a01b03815416906001810154906002810154600382015460048301549160ff600660058601549501541694604051968752602087015260408601526060850152608084015260a0830152151560c0820152f35b34610886575f366003190112610886576006546040516001600160a01b039091168152602090f35b346108865760c0366003190112610886576024356044356003811015610886576064356084359160a43592610a06611740565b600184101580610e51575b15610e1b57805f52600360205260405f209460ff60068701541615610de157610a4360018701546005880154906116c0565b92610a5460028801948554906116b3565b8511610d9c576064821015610d87576127106007610a8088610a7b60ff60325b168a6116c0565b6116c0565b0404938415610d4e577f000000000000000000000000000000000000000000000000000000000000000090610ab786303385611778565b612710610ac6600b54886116c0565b04906003610ad483896116b3565b9a01610ae18b8254611668565b9055610aee888254611668565b905580610d2f575b505060095495610b05876116d3565b60095562015180810290808204620151801490151715610d1b57610b299042611668565b9160405192610140840184811067ffffffffffffffff821117610cf357604052338452602084019160043583526040850190815260608501938452608085015f815260a0860189815260c087019189835260e088019342855261010089019586526101208901968a88528d5f52600260205260405f209960018060a01b039060018060a01b03905116166bffffffffffffffffffffffff60a01b8b5416178a555160018a01555160028901556003880196516003811015610d075760ff8019895416911617875551956004871015610d075760089661ff00825491891b169061ff00191617905551600487015551600586015551600685015551600784015551910155335f52600460205260405f209485549568010000000000000000871015610cf35760807f3f7cf472affeaace14ddb4688422c1469424ecb7159f23af0c0cdbabe594acd495604095610ca78a7f86175db98187e6ddfe37c7302752dae1b1287aa583f43b5b6c7038d991c8dc5795600160209d0181556115fe565b81549060031b908b821b915f19901b1916179055865191898352338b840152878301526060820152a1825191825285820152a160015f8051602061187683398151915255604051908152f35b634e487b7160e01b5f52604160045260245ffd5b634e487b7160e01b5f52602160045260245ffd5b634e487b7160e01b5f52601160045260245ffd5b600654610d47926001600160a01b039091169061181d565b8780610af6565b60405162461bcd60e51b8152602060048201526011602482015270496e733a207a65726f207072656d69756d60781b6044820152606490fd5b6127106007610a8088610a7b60ff6096610a74565b60405162461bcd60e51b815260206004820152601f60248201527f496e733a20696e73756666696369656e7420706f6f6c206361706163697479006044820152606490fd5b60405162461bcd60e51b8152602060048201526012602482015271496e733a20706f6f6c20696e61637469766560701b6044820152606490fd5b60405162461bcd60e51b815260206004820152600e60248201526d496e733a20312d3330206461797360901b6044820152606490fd5b50601e841115610a11565b34610886575f366003190112610886575f546040516001600160a01b039091168152602090f35b34610886575f366003190112610886576040517f00000000000000000000000000000000000000000000000000000000000000006001600160a01b03168152602090f35b34610886575f36600319011261088657600c546040516001600160a01b039091168152602090f35b34610886575f366003190112610886576008546040516001600160a01b039091168152602090f35b3461088657602036600319011261088657610f306115e8565b610f3861180a565b600c80546001600160a01b0319166001600160a01b0392909216919091179055005b34610886575f36600319011261088657600154336001600160a01b0390911603610fcc57600180546001600160a01b03199081169091555f805433928116831782556001600160a01b0316907f8be0079c531659141344cd1fd0a4f28419497f9722a3daafe3b4186f6b6457e09080a3005b63118cdaa760e01b5f523360045260245ffd5b3461088657602036600319011261088657600435610ffb61180a565b6107d0811161088657600b55005b3461088657611017366115d2565b90611020611740565b633b9aca0081106111eb576002821015806111e0575b156111a4576110678130337f0000000000000000000000000000000000000000000000000000000000000000611778565b600a5490611074826116d3565b600a5560405160e081019181831067ffffffffffffffff841117610cf3576020946006611188937f8ea7f11ad0ca1b5ddc29b74323cc33342a10c8e5a15b76bd73bd8db01ea449ef9560405233815287810192848452604082015f8152606083015f815260808401915f835260a0850193845260c0850196600188528b5f5260038d5260405f209560018060a01b039060018060a01b03905116166bffffffffffffffffffffffff60a01b875416178655516001860155516002850155516003840155516004830155516005820155019051151560ff80198354169116179055335f52600585528360405f20556040519182913386846040919493926060820195825260018060a01b031660208201520152565b0390a160015f8051602061187683398151915255604051908152f35b60405162461bcd60e51b81526020600482015260146024820152730496e733a206d756c7469706c69657220322d31360641b6044820152606490fd5b50600a821115611036565b60405162461bcd60e51b815260206004820152601760248201527f496e733a206d696e2024312c303030206361706974616c0000000000000000006044820152606490fd5b34610886576020366003190112610886576112496115e8565b61125161180a565b600780546001600160a01b0319166001600160a01b0392909216919091179055005b3461088657606036600319011261088657606460243510156112bd57604060ff60325b1661271060076112ae604435610a7b856004356116c0565b04049082519182526020820152f35b604060ff6096611296565b34610886575f366003190112610886576112e061180a565b600180546001600160a01b03199081169091555f80549182168155906001600160a01b03167f8be0079c531659141344cd1fd0a4f28419497f9722a3daafe3b4186f6b6457e08280a3005b34610886576020366003190112610886576004355f52600360205260405f20600181015460058201549161135f83836116c0565b9261136f600283015480956116b3565b9160046003820154910154908181115f146114025761138e82826116b3565b925b85156113f6576127108702968088046127101490151715610d1b576113b590866116c0565b80156113e25760c09604935b604051958652602086015260408501526060840152608083015260a0820152f35b634e487b7160e01b5f52601260045260245ffd5b5060c095505f936113c1565b5f92611390565b34610886575f366003190112610886576020600b54604051908152f35b3461088657602036600319011261088657600435805f52600260205260405f2060078101544211156114d157600381019160ff835460081c16916004831015610d07577fb22aa541487fc93d989bb5b17d1e3a967f649c4979cfd658c0849e070ae0dca09361149760209415611675565b61020061ff0019825416179055600860048201549101545f52600383526114c6600260405f20019182546116b3565b9055604051908152a1005b60405162461bcd60e51b815260206004820152601060248201526f125b9cce881b9bdd08195e1c1a5c995960821b6044820152606490fd5b34610886575f3660031901126108865760206040516127108152f35b34610886575f366003190112610886576020600a54604051908152f35b3461088657611550366115d2565b90611559611740565b805f52600360205261157860018060a01b0360405f2054163314611627565b6115a48230337f0000000000000000000000000000000000000000000000000000000000000000611778565b5f5260036020526115bd600160405f2001918254611668565b905560015f8051602061187683398151915255005b6040906003190112610886576004359060243590565b600435906001600160a01b038216820361088657565b8054821015611613575f5260205f2001905f90565b634e487b7160e01b5f52603260045260245ffd5b1561162e57565b60405162461bcd60e51b8152602060048201526012602482015271125b9cce881b9bdd081e5bdd5c881c1bdbdb60721b6044820152606490fd5b91908201809211610d1b57565b1561167c57565b60405162461bcd60e51b815260206004820152600f60248201526e496e733a206e6f742061637469766560881b6044820152606490fd5b91908203918211610d1b57565b81810292918115918404141715610d1b57565b5f198114610d1b5760010190565b90601f8019910116810190811067ffffffffffffffff821117610cf357604052565b1561170a57565b60405162461bcd60e51b815260206004820152600e60248201526d139bdd08185d5d1a1bdc9a5e995960921b6044820152606490fd5b60025f8051602061187683398151915254146117695760025f8051602061187683398151915255565b633ee5aeb560e01b5f5260045ffd5b6040516323b872dd60e01b5f9081526001600160a01b039384166004529290931660245260449390935260209060648180865af19060015f51148216156117e9575b6040525f606052156117c95750565b635274afe760e01b5f9081526001600160a01b0391909116600452602490fd5b90600181151661180157823b15153d151616906117ba565b503d5f823e3d90fd5b5f546001600160a01b03163303610fcc57565b916040519163a9059cbb60e01b5f5260018060a01b031660045260245260205f60448180865af19060015f511482161561185d575b604052156117c95750565b90600181151661180157823b15153d1516169061185256fe9b779b17422d0df92223018b32b4d1fa46e071723d6817e2486d003becc55f00a26469706673582212204274db38d228aa80ccce4f293ce89a98d9a8c181f116a3dc91998fdee3d973bb64736f6c634300081a0033",
  "linkReferences": {},
  "deployedLinkReferences": {}
}