{
  "_format": "hh-sol-artifact-1",
  "contractName": "RadiantAdapter",
  "sourceName": "src/RadiantAdapter.sol",
  "abi": [
    {
      "inputs": [
        {
          "internalType": "address",
          "name": "_aggregator",
          "type": "address"
        },
        {
          "internalType": "address",
          "name": "_owner",
          "type": "address"
        }
      ],
      "stateMutability": "nonpayable",
      "type": "constructor"
    },
    {
      "inputs": [
        {
          "internalType": "address",
          "name": "owner",
          "type": "address"
        }
      ],
      "name": "OwnableInvalidOwner",
      "type": "error"
    },
    {
      "inputs": [
        {
          "internalType": "address",
          "name": "account",
          "type": "address"
        }
      ],
      "name": "OwnableUnauthorizedAccount",
      "type": "error"
    },
    {
      "inputs": [],
      "name": "ReentrancyGuardReentrantCall",
      "type": "error"
    },
    {
      "inputs": [
        {
          "internalType": "address",
          "name": "token",
          "type": "address"
        }
      ],
      "name": "SafeERC20FailedOperation",
      "type": "error"
    },
    {
      "anonymous": false,
      "inputs": [
        {
          "indexed": true,
          "internalType": "address",
          "name": "previousOwner",
          "type": "address"
        },
        {
          "indexed": true,
          "internalType": "address",
          "name": "newOwner",
          "type": "address"
        }
      ],
      "name": "OwnershipTransferStarted",
      "type": "event"
    },
    {
      "anonymous": false,
      "inputs": [
        {
          "indexed": true,
          "internalType": "address",
          "name": "previousOwner",
          "type": "address"
        },
        {
          "indexed": true,
          "internalType": "address",
          "name": "newOwner",
          "type": "address"
        }
      ],
      "name": "OwnershipTransferred",
      "type": "event"
    },
    {
      "anonymous": false,
      "inputs": [
        {
          "indexed": true,
          "internalType": "address",
          "name": "user",
          "type": "address"
        },
        {
          "indexed": false,
          "internalType": "address",
          "name": "token",
          "type": "address"
        },
        {
          "indexed": false,
          "internalType": "uint256",
          "name": "amount",
          "type": "uint256"
        }
      ],
      "name": "RadiantWithdraw",
      "type": "event"
    },
    {
      "inputs": [],
      "name": "RADIANT_POOL",
      "outputs": [
        {
          "internalType": "contract IRadiantPool",
          "name": "",
          "type": "address"
        }
      ],
      "stateMutability": "view",
      "type": "function"
    },
    {
      "inputs": [],
      "name": "RAY",
      "outputs": [
        {
          "internalType": "uint256",
          "name": "",
          "type": "uint256"
        }
      ],
      "stateMutability": "view",
      "type": "function"
    },
    {
      "inputs": [],
      "name": "R_USDC",
      "outputs": [
        {
          "internalType": "address",
          "name": "",
          "type": "address"
        }
      ],
      "stateMutability": "view",
      "type": "function"
    },
    {
      "inputs": [],
      "name": "USDC",
      "outputs": [
        {
          "internalType": "address",
          "name": "",
          "type": "address"
        }
      ],
      "stateMutability": "view",
      "type": "function"
    },
    {
      "inputs": [],
      "name": "acceptOwnership",
      "outputs": [],
      "stateMutability": "nonpayable",
      "type": "function"
    },
    {
      "inputs": [],
      "name": "aggregator",
      "outputs": [
        {
          "internalType": "address",
          "name": "",
          "type": "address"
        }
      ],
      "stateMutability": "view",
      "type": "function"
    },
    {
      "inputs": [],
      "name": "emergencyWithdraw",
      "outputs": [],
      "stateMutability": "nonpayable",
      "type": "function"
    },
    {
      "inputs": [],
      "name": "getAPY",
      "outputs": [
        {
          "internalType": "uint256",
          "name": "apyBps",
          "type": "uint256"
        }
      ],
      "stateMutability": "view",
      "type": "function"
    },
    {
      "inputs": [
        {
          "internalType": "address",
          "name": "",
          "type": "address"
        }
      ],
      "name": "getBalance",
      "outputs": [
        {
          "internalType": "uint256",
          "name": "",
          "type": "uint256"
        }
      ],
      "stateMutability": "view",
      "type": "function"
    },
    {
      "inputs": [],
      "name": "owner",
      "outputs": [
        {
          "internalType": "address",
          "name": "",
          "type": "address"
        }
      ],
      "stateMutability": "view",
      "type": "function"
    },
    {
      "inputs": [],
      "name": "pendingOwner",
      "outputs": [
        {
          "internalType": "address",
          "name": "",
          "type": "address"
        }
      ],
      "stateMutability": "view",
      "type": "function"
    },
    {
      "inputs": [],
      "name": "renounceOwnership",
      "outputs": [],
      "stateMutability": "nonpayable",
      "type": "function"
    },
    {
      "inputs": [
        {
          "internalType": "address",
          "name": "a",
          "type": "address"
        }
      ],
      "name": "setAggregator",
      "outputs": [],
      "stateMutability": "nonpayable",
      "type": "function"
    },
    {
      "inputs": [
        {
          "internalType": "address",
          "name": "asset",
          "type": "address"
        },
        {
          "internalType": "uint256",
          "name": "amount",
          "type": "uint256"
        },
        {
          "internalType": "address",
          "name": "onBehalfOf",
          "type": "address"
        },
        {
          "internalType": "uint16",
          "name": "referralCode",
          "type": "uint16"
        }
      ],
      "name": "supply",
      "outputs": [],
      "stateMutability": "nonpayable",
      "type": "function"
    },
    {
      "inputs": [
        {
          "internalType": "address",
          "name": "newOwner",
          "type": "address"
        }
      ],
      "name": "transferOwnership",
      "outputs": [],
      "stateMutability": "nonpayable",
      "type": "function"
    },
    {
      "inputs": [
        {
          "internalType": "address",
          "name": "asset",
          "type": "address"
        },
        {
          "internalType": "uint256",
          "name": "amount",
          "type": "uint256"
        },
        {
          "internalType": "address",
          "name": "to",
          "type": "address"
        }
      ],
      "name": "withdraw",
      "outputs": [
        {
          "internalType": "uint256",
          "name": "",
          "type": "uint256"
        }
      ],
      "stateMutability": "nonpayable",
      "type": "function"
    }
  ],
  "bytecode": "0x60803461011757601f610cb338819003918201601f19168301916001600160401b0383118484101761011b578084926040948552833981010312610117576100468161012f565b906001600160a01b039061005c9060200161012f565b1690811561010457600180546001600160a01b03199081169091555f80549182168417815560405193916001600160a01b0316907f8be0079c531659141344cd1fd0a4f28419497f9722a3daafe3b4186f6b6457e09080a360017f9b779b17422d0df92223018b32b4d1fa46e071723d6817e2486d003becc55f0055600280546001600160a01b0319166001600160a01b0392909216919091179055610b6f90816101448239f35b631e4fbdf760e01b5f525f60045260245ffd5b5f80fd5b634e487b7160e01b5f52604160045260245ffd5b51906001600160a01b03821682036101175756fe6080806040526004361015610012575f80fd5b5f905f3560e01c908163245a7bfc146109c257508063552033c41461099c578063617ba0371461079a57806369328dec14610698578063715018a61461063357806379ba5097146105ae57806389a302711461057f5780638da5cb5b14610558578063c99e395c14610529578063d2cbf7ad1461033d578063da07911f1461030e578063db2e21bc14610252578063e30c397814610229578063f2fde38b146101bc578063f8b2cb4f146101155763f9120af6146100ce575f80fd5b34610112576020366003190112610112576100e76109e5565b6100ef610af3565b60018060a01b03166bffffffffffffffffffffffff60a01b600254161760025580f35b80fd5b50346101125760203660031901126101125761012f6109e5565b506040516370a0823160e01b815230600482015290602082602481730d914606f3424804fa1bbbe56ccc3416733acec65afa9081156101b05790610179575b602090604051908152f35b506020813d6020116101a8575b8161019360209383610a4e565b810103126101a4576020905161016e565b5f80fd5b3d9150610186565b604051903d90823e3d90fd5b5034610112576020366003190112610112576101d66109e5565b6101de610af3565b600180546001600160a01b0319166001600160a01b0392831690811790915582549091167f38d16b8cac22d99fc7c124b9cd0de2d3fa1faef420bfe791d8c362d765e227008380a380f35b50346101125780600319360112610112576001546040516001600160a01b039091168152602090f35b503461011257806003193601126101125761026b610af3565b8054604051631a4ca37b60e21b815273af88d065e77c8cc2239327c5edb3a432268e583160048201525f1960248201526001600160a01b0390911660448201526020816064818573f4b1486dd74d07706052a33d31d7c0aafd0659e15af18015610303576102d7575080f35b6102f89060203d6020116102fc575b6102f08183610a4e565b810190610a84565b5080f35b503d6102e6565b6040513d84823e3d90fd5b5034610112578060031936011261011257602060405173f4b1486dd74d07706052a33d31d7c0aafd0659e18152f35b50346101125780600319360112610112576040516335ea6a7560e01b815273af88d065e77c8cc2239327c5edb3a432268e583160048201526101e08160248173f4b1486dd74d07706052a33d31d7c0aafd0659e15afa829181610429575b506103b0575050602061015e5b604051908152f35b6001600160801b0316906301e133808202918083046301e1338014811517156104155764496cebb8000291808304612710149015171561040157506b033b2e3c9fd0803ce8000000602091046103a8565b634e487b7160e01b81526011600452602490fd5b634e487b7160e01b82526011600452602482fd5b9091506101e0813d8211610521575b816104466101e09383610a4e565b8101031261051d5761045a60208201610a93565b5061046760408201610a93565b9061047460608201610a93565b5061048160808201610a93565b5061048e60a08201610a93565b5060c081015164ffffffffff8116036105195760e081015161ffff811603610519576101c0816104c46101006105119401610aa7565b506104d26101208201610aa7565b506104e06101408201610aa7565b506104ee6101608201610aa7565b506104fc6101808201610a93565b5061050a6101a08201610a93565b5001610a93565b50905f61039b565b8380fd5b8280fd5b3d9150610438565b50346101125780600319360112610112576020604051730d914606f3424804fa1bbbe56ccc3416733acec68152f35b5034610112578060031936011261011257546040516001600160a01b039091168152602090f35b5034610112578060031936011261011257602060405173af88d065e77c8cc2239327c5edb3a432268e58318152f35b5034610112578060031936011261011257600154336001600160a01b039091160361062057600180546001600160a01b0319908116909155815433918116821783556001600160a01b03167f8be0079c531659141344cd1fd0a4f28419497f9722a3daafe3b4186f6b6457e08380a380f35b63118cdaa760e01b815233600452602490fd5b503461011257806003193601126101125761064c610af3565b600180546001600160a01b03199081169091558154908116825581906001600160a01b03167f8be0079c531659141344cd1fd0a4f28419497f9722a3daafe3b4186f6b6457e08280a380f35b5034610112576060366003190112610112576106b26109e5565b906106bb6109fb565b6106c3610abb565b6002546001600160a01b031633148015610787575b6106e190610a11565b604051631a4ca37b60e21b81526001600160a01b0393841660048201526024803590820152921660448301526020826064818473f4b1486dd74d07706052a33d31d7c0aafd0659e15af19081156101b05790610754575b60209060015f80516020610b1a83398151915255604051908152f35b506020813d60201161077f575b8161076e60209383610a4e565b810103126101a45760209051610738565b3d9150610761565b5081546001600160a01b031633146106d8565b50346101a45760803660031901126101a4576107b46109e5565b602435906107c06109fb565b6064359161ffff83168093036101a4576107d8610abb565b6002546001600160a01b031633148015610989575b6107f690610a11565b60018060a01b0316926040516323b872dd60e01b5f5233600452306024528160445260205f60648180895af160015f511481161561096a575b816040525f606052156109575763095ea7b360e01b815273f4b1486dd74d07706052a33d31d7c0aafd0659e16004820152602481018290526020816044815f895af1801561091557610920575b5073f4b1486dd74d07706052a33d31d7c0aafd0659e13b156101a45760405163e8eda9df60e01b8152600481019490945260248401526001600160a01b0316604483015260648201525f816084818373f4b1486dd74d07706052a33d31d7c0aafd0659e15af1801561091557610902575b5060015f80516020610b1a8339815191525580f35b61090e91505f90610a4e565b5f806108ed565b6040513d5f823e3d90fd5b6020813d60201161094f575b8161093960209383610a4e565b810103126101a45751801515811461087c575f80fd5b3d915061092c565b84635274afe760e01b5f5260045260245ffd5b600181151661098057853b15153d15161661082f565b503d5f823e3d90fd5b505f546001600160a01b031633146107ed565b346101a4575f3660031901126101a45760206040516b033b2e3c9fd0803ce80000008152f35b346101a4575f3660031901126101a4576002546001600160a01b03168152602090f35b600435906001600160a01b03821682036101a457565b604435906001600160a01b03821682036101a457565b15610a1857565b60405162461bcd60e51b815260206004820152600e60248201526d3737ba1030b3b3b932b3b0ba37b960911b6044820152606490fd5b90601f8019910116810190811067ffffffffffffffff821117610a7057604052565b634e487b7160e01b5f52604160045260245ffd5b908160209103126101a4575190565b51906001600160801b03821682036101a457565b51906001600160a01b03821682036101a457565b60025f80516020610b1a8339815191525414610ae45760025f80516020610b1a83398151915255565b633ee5aeb560e01b5f5260045ffd5b5f546001600160a01b03163303610b0657565b63118cdaa760e01b5f523360045260245ffdfe9b779b17422d0df92223018b32b4d1fa46e071723d6817e2486d003becc55f00a2646970667358221220a0cdf28ee8a8a2a2a254f240af56bada90f0c9b6c93f566d9157c2c5c9c5655864736f6c634300081a0033",
  "linkReferences": {},
  "deployedLinkReferences": {}
}