{
  "_format": "hh-sol-artifact-1",
  "contractName": "WikiZap",
  "sourceName": "src/WikiZap.sol",
  "abi": [
    {
      "inputs": [
        {
          "internalType": "address",
          "name": "_spot",
          "type": "address"
        },
        {
          "internalType": "address",
          "name": "_treasury",
          "type": "address"
        },
        {
          "internalType": "address",
          "name": "_owner",
          "type": "address"
        }
      ],
      "stateMutability": "nonpayable",
      "type": "constructor"
    },
    {
      "inputs": [],
      "name": "EnforcedPause",
      "type": "error"
    },
    {
      "inputs": [],
      "name": "ExpectedPause",
      "type": "error"
    },
    {
      "inputs": [
        {
          "internalType": "address",
          "name": "owner",
          "type": "address"
        }
      ],
      "name": "OwnableInvalidOwner",
      "type": "error"
    },
    {
      "inputs": [
        {
          "internalType": "address",
          "name": "account",
          "type": "address"
        }
      ],
      "name": "OwnableUnauthorizedAccount",
      "type": "error"
    },
    {
      "inputs": [],
      "name": "ReentrancyGuardReentrantCall",
      "type": "error"
    },
    {
      "inputs": [
        {
          "internalType": "address",
          "name": "token",
          "type": "address"
        }
      ],
      "name": "SafeERC20FailedOperation",
      "type": "error"
    },
    {
      "anonymous": false,
      "inputs": [
        {
          "indexed": true,
          "internalType": "address",
          "name": "previousOwner",
          "type": "address"
        },
        {
          "indexed": true,
          "internalType": "address",
          "name": "newOwner",
          "type": "address"
        }
      ],
      "name": "OwnershipTransferStarted",
      "type": "event"
    },
    {
      "anonymous": false,
      "inputs": [
        {
          "indexed": true,
          "internalType": "address",
          "name": "previousOwner",
          "type": "address"
        },
        {
          "indexed": true,
          "internalType": "address",
          "name": "newOwner",
          "type": "address"
        }
      ],
      "name": "OwnershipTransferred",
      "type": "event"
    },
    {
      "anonymous": false,
      "inputs": [
        {
          "indexed": false,
          "internalType": "address",
          "name": "account",
          "type": "address"
        }
      ],
      "name": "Paused",
      "type": "event"
    },
    {
      "anonymous": false,
      "inputs": [
        {
          "indexed": false,
          "internalType": "address",
          "name": "account",
          "type": "address"
        }
      ],
      "name": "Unpaused",
      "type": "event"
    },
    {
      "anonymous": false,
      "inputs": [
        {
          "indexed": true,
          "internalType": "address",
          "name": "user",
          "type": "address"
        },
        {
          "indexed": false,
          "internalType": "address",
          "name": "tokenIn",
          "type": "address"
        },
        {
          "indexed": false,
          "internalType": "uint256",
          "name": "amountIn",
          "type": "uint256"
        },
        {
          "indexed": false,
          "internalType": "uint256",
          "name": "poolId",
          "type": "uint256"
        },
        {
          "indexed": false,
          "internalType": "uint256",
          "name": "amountOut",
          "type": "uint256"
        },
        {
          "indexed": false,
          "internalType": "uint256",
          "name": "fee",
          "type": "uint256"
        }
      ],
      "name": "Zapped",
      "type": "event"
    },
    {
      "anonymous": false,
      "inputs": [
        {
          "indexed": true,
          "internalType": "address",
          "name": "user",
          "type": "address"
        },
        {
          "indexed": false,
          "internalType": "address",
          "name": "tokenIn",
          "type": "address"
        },
        {
          "indexed": false,
          "internalType": "uint256",
          "name": "amountIn",
          "type": "uint256"
        },
        {
          "indexed": false,
          "internalType": "uint256",
          "name": "shares",
          "type": "uint256"
        },
        {
          "indexed": false,
          "internalType": "uint256",
          "name": "fee",
          "type": "uint256"
        }
      ],
      "name": "ZappedToVault",
      "type": "event"
    },
    {
      "inputs": [],
      "name": "BPS",
      "outputs": [
        {
          "internalType": "uint256",
          "name": "",
          "type": "uint256"
        }
      ],
      "stateMutability": "view",
      "type": "function"
    },
    {
      "inputs": [],
      "name": "UNI_ROUTER",
      "outputs": [
        {
          "internalType": "contract IUniswapV3Router",
          "name": "",
          "type": "address"
        }
      ],
      "stateMutability": "view",
      "type": "function"
    },
    {
      "inputs": [],
      "name": "USDC",
      "outputs": [
        {
          "internalType": "address",
          "name": "",
          "type": "address"
        }
      ],
      "stateMutability": "view",
      "type": "function"
    },
    {
      "inputs": [],
      "name": "WETH",
      "outputs": [
        {
          "internalType": "contract IWETH",
          "name": "",
          "type": "address"
        }
      ],
      "stateMutability": "view",
      "type": "function"
    },
    {
      "inputs": [],
      "name": "ZAP_FEE_BPS",
      "outputs": [
        {
          "internalType": "uint256",
          "name": "",
          "type": "uint256"
        }
      ],
      "stateMutability": "view",
      "type": "function"
    },
    {
      "inputs": [],
      "name": "acceptOwnership",
      "outputs": [],
      "stateMutability": "nonpayable",
      "type": "function"
    },
    {
      "inputs": [],
      "name": "owner",
      "outputs": [
        {
          "internalType": "address",
          "name": "",
          "type": "address"
        }
      ],
      "stateMutability": "view",
      "type": "function"
    },
    {
      "inputs": [],
      "name": "pause",
      "outputs": [],
      "stateMutability": "nonpayable",
      "type": "function"
    },
    {
      "inputs": [],
      "name": "paused",
      "outputs": [
        {
          "internalType": "bool",
          "name": "",
          "type": "bool"
        }
      ],
      "stateMutability": "view",
      "type": "function"
    },
    {
      "inputs": [],
      "name": "pendingOwner",
      "outputs": [
        {
          "internalType": "address",
          "name": "",
          "type": "address"
        }
      ],
      "stateMutability": "view",
      "type": "function"
    },
    {
      "inputs": [
        {
          "internalType": "uint256",
          "name": "amountIn",
          "type": "uint256"
        }
      ],
      "name": "quoteZapFee",
      "outputs": [
        {
          "internalType": "uint256",
          "name": "fee",
          "type": "uint256"
        },
        {
          "internalType": "uint256",
          "name": "net",
          "type": "uint256"
        }
      ],
      "stateMutability": "pure",
      "type": "function"
    },
    {
      "inputs": [],
      "name": "renounceOwnership",
      "outputs": [],
      "stateMutability": "nonpayable",
      "type": "function"
    },
    {
      "inputs": [
        {
          "internalType": "address",
          "name": "_spot",
          "type": "address"
        }
      ],
      "name": "setSpot",
      "outputs": [],
      "stateMutability": "nonpayable",
      "type": "function"
    },
    {
      "inputs": [
        {
          "internalType": "address",
          "name": "_treasury",
          "type": "address"
        }
      ],
      "name": "setTreasury",
      "outputs": [],
      "stateMutability": "nonpayable",
      "type": "function"
    },
    {
      "inputs": [],
      "name": "spot",
      "outputs": [
        {
          "internalType": "contract IWikiSpot",
          "name": "",
          "type": "address"
        }
      ],
      "stateMutability": "view",
      "type": "function"
    },
    {
      "inputs": [],
      "name": "strategyVault",
      "outputs": [
        {
          "internalType": "address",
          "name": "",
          "type": "address"
        }
      ],
      "stateMutability": "view",
      "type": "function"
    },
    {
      "inputs": [],
      "name": "totalFeesCollected",
      "outputs": [
        {
          "internalType": "uint256",
          "name": "",
          "type": "uint256"
        }
      ],
      "stateMutability": "view",
      "type": "function"
    },
    {
      "inputs": [],
      "name": "totalZaps",
      "outputs": [
        {
          "internalType": "uint256",
          "name": "",
          "type": "uint256"
        }
      ],
      "stateMutability": "view",
      "type": "function"
    },
    {
      "inputs": [
        {
          "internalType": "address",
          "name": "newOwner",
          "type": "address"
        }
      ],
      "name": "transferOwnership",
      "outputs": [],
      "stateMutability": "nonpayable",
      "type": "function"
    },
    {
      "inputs": [],
      "name": "treasury",
      "outputs": [
        {
          "internalType": "address",
          "name": "",
          "type": "address"
        }
      ],
      "stateMutability": "view",
      "type": "function"
    },
    {
      "inputs": [],
      "name": "unpause",
      "outputs": [],
      "stateMutability": "nonpayable",
      "type": "function"
    },
    {
      "inputs": [
        {
          "internalType": "uint256",
          "name": "poolId",
          "type": "uint256"
        },
        {
          "internalType": "uint256",
          "name": "minLP",
          "type": "uint256"
        }
      ],
      "name": "zapETHToLP",
      "outputs": [
        {
          "internalType": "uint256",
          "name": "lpReceived",
          "type": "uint256"
        }
      ],
      "stateMutability": "payable",
      "type": "function"
    },
    {
      "inputs": [
        {
          "components": [
            {
              "internalType": "address",
              "name": "tokenIn",
              "type": "address"
            },
            {
              "internalType": "uint256",
              "name": "amountIn",
              "type": "uint256"
            },
            {
              "internalType": "uint256",
              "name": "poolId",
              "type": "uint256"
            },
            {
              "internalType": "uint256",
              "name": "minLP",
              "type": "uint256"
            },
            {
              "internalType": "uint24",
              "name": "swapFeeTier",
              "type": "uint24"
            },
            {
              "internalType": "uint256",
              "name": "deadline",
              "type": "uint256"
            }
          ],
          "internalType": "struct WikiZap.ZapParams",
          "name": "p",
          "type": "tuple"
        }
      ],
      "name": "zapTokenToLP",
      "outputs": [
        {
          "internalType": "uint256",
          "name": "lpReceived",
          "type": "uint256"
        }
      ],
      "stateMutability": "nonpayable",
      "type": "function"
    },
    {
      "inputs": [
        {
          "internalType": "address",
          "name": "tokenIn",
          "type": "address"
        },
        {
          "internalType": "uint256",
          "name": "amountIn",
          "type": "uint256"
        },
        {
          "internalType": "address",
          "name": "vault",
          "type": "address"
        },
        {
          "internalType": "uint256",
          "name": "minShares",
          "type": "uint256"
        }
      ],
      "name": "zapTokenToVault",
      "outputs": [
        {
          "internalType": "uint256",
          "name": "shares",
          "type": "uint256"
        }
      ],
      "stateMutability": "nonpayable",
      "type": "function"
    },
    {
      "stateMutability": "payable",
      "type": "receive"
    }
  ],
  "bytecode": "0x6080346101c357601f611a4938819003918201601f19168301916001600160401b038311848410176101c7578084926060946040528339810103126101c357610047816101db565b90610054602082016101db565b906001600160a01b039061006a906040016101db565b169182156101b057600180546001600160a01b03199081169091555f80549182168517815560405194916001600160a01b0316907f8be0079c531659141344cd1fd0a4f28419497f9722a3daafe3b4186f6b6457e09080a360017f9b779b17422d0df92223018b32b4d1fa46e071723d6817e2486d003becc55f00556001600160a01b031691821561017b57506001600160a01b03169081156101365760018060a01b0319600254161760025560018060a01b0319600454161760045560405161185990816101f08239f35b60405162461bcd60e51b815260206004820152601460248201527f57696b693a207a65726f205f74726561737572790000000000000000000000006044820152606490fd5b62461bcd60e51b815260206004820152601060248201526f15da5ada4e881e995c9bc817dcdc1bdd60821b6044820152606490fd5b631e4fbdf760e01b5f525f60045260245ffd5b5f80fd5b634e487b7160e01b5f52604160045260245ffd5b51906001600160a01b03821682036101c35756fe6080604052600436101561001a575b3615610018575f80fd5b005b5f803560e01c806313649d6d14610fab578063249d39e914610f8e5780633f4ba83a14610f1e5780634009909814610ef557806349f5359514610e9b5780635c975abb14610e7557806360c6d8ae14610e5757806361d027b314610e2e5780636f265b9314610e05578063715018a614610da057806379ba509714610d1b5780638456cb5914610cb857806389a3027114610c895780638da5cb5b14610c62578063a28116eb14610c1d578063aafbcbfd14610c01578063ad5c464814610bd2578063c6a52e0014610680578063ccce455714610662578063e30c397814610639578063e9a0d91514610210578063ee0ab465146101e1578063f0f442601461019c5763f2fde38b1461012d575061000e565b3461019957602036600319011261019957610146611513565b61014e6116f3565b600180546001600160a01b0319166001600160a01b0392831690811790915582549091167f38d16b8cac22d99fc7c124b9cd0de2d3fa1faef420bfe791d8c362d765e227008380a380f35b80fd5b5034610199576020366003190112610199576101b6611513565b6101be6116f3565b60018060a01b03166bffffffffffffffffffffffff60a01b600454161760045580f35b5034610199578060031936011261019957602060405173e592427a0aece92de3edee1f18e0157c058615648152f35b50346101995760803660031901126101995761022a611513565b60243591906044356001600160a01b038116918282036106355761024c61169d565b6102546116d5565b6001600160a01b03169161026a85303386611719565b60098502858104600914861517156106215761271090049161028c8387611529565b6004546102a49085906001600160a01b0316876117ab565b60405163c89039c560e01b815291602083600481875afa92831561059a5787936105e1575b5090916001600160a01b03169082828703610484575b5060405163095ea7b360e01b81526001600160a01b03909116600482015260248101839052906020908290818981604481015b03925af180156104795760209287949260449261044e575b506040519485938492636e553f6560e01b845260048401523360248401525af1938415610442579361040a575b5060643583106103d55760209361036f60055461168f565b60055561037e82600654611536565b6006556040519283528483015282604083015260608201527f5a19ec964f25cd7765493132ebca4ca1f82913cca60c3cfe705888539572811e60803392a260015f8051602061180483398151915255604051908152f35b60405162461bcd60e51b815260206004820152600d60248201526c5a61703a20736c69707061676560981b6044820152606490fd5b9092506020813d60201161043a575b8161042660209383611574565b810103126104365751915f610357565b5f80fd5b3d9150610419565b604051903d90823e3d90fd5b61046d90853d8711610472575b6104658183611574565b8101906115fc565b61032a565b503d61045b565b6040513d88823e3d90fd5b60405163095ea7b360e01b815273e592427a0aece92de3edee1f18e0157c0586156460048201526024810182905292935090916020816044818b8b5af180156105d6576105b9575b50603c4201908142116105a55761053491602091604051916104ed83611543565b8983528684840152610bb86040840152306060840152608083015260a0820152600160c08201528860e08201526040518093819263414bf38960e01b835260048301611626565b03818a73e592427a0aece92de3edee1f18e0157c058615645af190811561059a578791610566575b50919060206102df565b90506020813d602011610592575b8161058160209383611574565b81010312610436575161031261055c565b3d9150610574565b6040513d89823e3d90fd5b634e487b7160e01b88526011600452602488fd5b6105d19060203d602011610472576104658183611574565b6104cc565b6040513d8a823e3d90fd5b9092506020813d602011610619575b816105fd60209383611574565b810103126106155761060e906115ac565b915f6102c9565b8680fd5b3d91506105f0565b634e487b7160e01b85526011600452602485fd5b8380fd5b50346101995780600319360112610199576001546040516001600160a01b039091168152602090f35b50346101995780600319360112610199576020600554604051908152f35b50346101995760c03660031901126101995761069a61169d565b6106a26116d5565b6001600160a01b036106b2611596565b166106c4602435809230903390611719565b6009810281810460091482151715610bbe576127109004916106e68383611529565b9261070e816001600160a01b036106fb611596565b6004546001600160a01b031691166117ab565b61071a81600654611536565b60065560025460405163068bcd8d60e01b8152604435600482018190529160c090829060249082906001600160a01b03165afa958615610bb35784918597610b7c575b5061076c8160011c8092611529565b96610775611596565b6001600160a01b038085169491168403610b775750805b610794611596565b6001600160a01b0390811693911690838214610b685760405163095ea7b360e01b815273e592427a0aece92de3edee1f18e0157c058615646004820152602481018290526020816044818c895af18015610b5d57610b40575b5062ffffff6107fa611614565b1615610b3857610808611614565b60a4358015610b055791610871939162ffffff602094915b6040519461082d86611543565b89865286860152166040840152306060840152608083015260a0820152600160c08201528860e08201526040518093819263414bf38960e01b835260048301611626565b03818a73e592427a0aece92de3edee1f18e0157c058615645af190811561059a578791610ad1575b506108fc91602091995b848603610ac957809a8b925b6001600160a01b0316958603610ac15750945b60025460405163095ea7b360e01b81526001600160a01b0390911660048201526024810192909252909283919082908a9082906044820190565b03925af180156104795761094f926020928592610aa6575b5060025460405163095ea7b360e01b81526001600160a01b039091166004820152602481019290925290928391908290899082906044820190565b03925af18015610a9b57916109b29791602093610a80575b5060025460405163aebf3e4160e01b815260048101869052602481019390935260448301919091526064803590830152909687916001600160a01b0316908290879082906084820190565b03925af1938415610a75578394610a40575b602095506109d360055461168f565b6005556109de611596565b604051945060018060a01b0316845285840152604083015282606083015260808201527f8f5b0ae0136953209442ffcfb5f44eacb1c0a8374d6e2ef31b025c5e97e6407060a03392a260015f8051602061180483398151915255604051908152f35b93506020853d602011610a6d575b81610a5b60209383611574565b810103126104365760209451936109c4565b3d9150610a4e565b6040513d85823e3d90fd5b610a9690843d8611610472576104658183611574565b610967565b6040513d87823e3d90fd5b610abc90843d8611610472576104658183611574565b610914565b9050946108c2565b8a8b926108af565b90506020813d602011610afd575b81610aec60209383611574565b8101031261043657516108fc610899565b3d9150610adf565b50603c4201804211610b245791610871939162ffffff60209491610820565b634e487b7160e01b8a52601160045260248afd5b610bb8610808565b610b589060203d602011610472576104658183611574565b6107ed565b6040513d8b823e3d90fd5b60209150916108fc92996108a3565b61078c565b909650610ba1915060c03d60c011610bac575b610b998183611574565b8101906115c0565b50505050955f61075d565b503d610b8f565b6040513d86823e3d90fd5b634e487b7160e01b83526011600452602483fd5b503461019957806003193601126101995760206040517382af49447d8a07e3bd95bd0d56f35241523fbab18152f35b5034610199578060031936011261019957602060405160098152f35b503461019957602036600319011261019957610c37611513565b610c3f6116f3565b60018060a01b03166bffffffffffffffffffffffff60a01b600254161760025580f35b5034610199578060031936011261019957546040516001600160a01b039091168152602090f35b5034610199578060031936011261019957602060405173af88d065e77c8cc2239327c5edb3a432268e58318152f35b5034610199578060031936011261019957610cd16116f3565b610cd96116d5565b6001805460ff60a01b1916600160a01b1790556040513381527f62e78cea01bee320cd4e420270b5ea74000d11b0c9f74754ebdbfc544b05a25890602090a180f35b5034610199578060031936011261019957600154336001600160a01b0390911603610d8d57600180546001600160a01b0319908116909155815433918116821783556001600160a01b03167f8be0079c531659141344cd1fd0a4f28419497f9722a3daafe3b4186f6b6457e08380a380f35b63118cdaa760e01b815233600452602490fd5b5034610199578060031936011261019957610db96116f3565b600180546001600160a01b03199081169091558154908116825581906001600160a01b03167f8be0079c531659141344cd1fd0a4f28419497f9722a3daafe3b4186f6b6457e08280a380f35b50346101995780600319360112610199576002546040516001600160a01b039091168152602090f35b50346101995780600319360112610199576004546040516001600160a01b039091168152602090f35b50346101995780600319360112610199576020600654604051908152f35b5034610199578060031936011261019957602060ff60015460a01c166040519015158152f35b503461019957602036600319011261019957600435600981029181830460091482151715610ee15750610ed5612710604093048092611529565b82519182526020820152f35b634e487b7160e01b81526011600452602490fd5b50346101995780600319360112610199576003546040516001600160a01b039091168152602090f35b5034610199578060031936011261019957610f376116f3565b60015460ff8160a01c1615610f7f5760ff60a01b19166001556040513381527f5db9ee0a495bf2e6ff9c91a7834c1ba4fdd244a5e8aa4e537bd38aeae4b073aa90602090a180f35b638dfc202b60e01b8252600482fd5b503461019957806003193601126101995760206040516127108152f35b50604036600319011261043657600435610fc361169d565b610fcb6116d5565b34156114de57600934023481046009036114ca57612710900491610fef8334611529565b925f8080808460018060a01b03600454168282156114c1575bf1156114b65761101a81600654611536565b6006557382af49447d8a07e3bd95bd0d56f35241523fbab13b1561043657604051630d0e30db60e41b8152935f85600481847382af49447d8a07e3bd95bd0d56f35241523fbab15af19485156114b6576024956114a1575b5060025460405163068bcd8d60e01b8152600481018690529560c09187919082906001600160a01b03165afa908115610a755783958492611477575b506001600160a01b0386167382af49447d8a07e3bd95bd0d56f35241523fbab18114969092908715611471575080965b60405163095ea7b360e01b815273e592427a0aece92de3edee1f18e0157c058615646004820152600184901c6024820181905298906020816044818b7382af49447d8a07e3bd95bd0d56f35241523fbab15af180156105d657611454575b50603c42018042116105a5576111c092916020916040519161115d83611543565b7382af49447d8a07e3bd95bd0d56f35241523fbab1835260018060a01b031683830152610bb8604083015230606083015260808201528a60a0820152600160c08201528860e08201526040518094819263414bf38960e01b835260048301611626565b03818a73e592427a0aece92de3edee1f18e0157c058615645af191821561059a57879261141c575b5091602091611270935f14611413576112018a86611529565b998a925b6001600160a01b0316957382af49447d8a07e3bd95bd0d56f35241523fbab1870361140b576112349250611529565b945b60025460405163095ea7b360e01b81526001600160a01b039091166004820152602481019290925290928391908290899082906044820190565b03925af18015610a9b576112c39260209285926113f0575b5060025460405163095ea7b360e01b81526001600160a01b039091166004820152602481019290925290928391908290889082906044820190565b03925af18015610bb3579161132596916020936113d5575b5060025460405163aebf3e4160e01b8152600481018890526024808201949094526044810192909252913560648201529586916001600160a01b0316908290869082906084820190565b03925af19283156113ca578293611395575b602094506040519283523485840152604083015282606083015260808201527f8f5b0ae0136953209442ffcfb5f44eacb1c0a8374d6e2ef31b025c5e97e6407060a03392a260015f8051602061180483398151915255604051908152f35b92506020843d6020116113c2575b816113b060209383611574565b81010312610436576020935192611337565b3d91506113a3565b6040513d84823e3d90fd5b6113eb90843d8611610472576104658183611574565b6112db565b61140690843d8611610472576104658183611574565b611288565b505094611236565b80998a92611205565b9150916020823d60201161144c575b8161143860209383611574565b8101031261043657905190916112706111e8565b3d915061142b565b61146c9060203d602011610472576104658183611574565b61113c565b966110de565b909550611493915060c03d60c011610bac57610b998183611574565b50505050949094905f6110ae565b6114ae9193505f90611574565b5f915f611072565b6040513d5f823e3d90fd5b506108fc611008565b634e487b7160e01b5f52601160045260245ffd5b60405162461bcd60e51b815260206004820152600d60248201526c0b4c2e07440f4cae4de408aa89609b1b6044820152606490fd5b600435906001600160a01b038216820361043657565b919082039182116114ca57565b919082018092116114ca57565b610100810190811067ffffffffffffffff82111761156057604052565b634e487b7160e01b5f52604160045260245ffd5b90601f8019910116810190811067ffffffffffffffff82111761156057604052565b6004356001600160a01b03811681036104365790565b51906001600160a01b038216820361043657565b91908260c0910312610436576115d5826115ac565b916115e2602082016115ac565b9160408201519160608101519160a0608083015192015190565b90816020910312610436575180151581036104365790565b60843562ffffff811681036104365790565b81516001600160a01b03908116825260208084015182169083015260408084015162ffffff16908301526060808401518216908301526080808401519083015260a0808401519083015260c0808401519083015260e09283015116918101919091526101000190565b5f1981146114ca5760010190565b60025f8051602061180483398151915254146116c65760025f8051602061180483398151915255565b633ee5aeb560e01b5f5260045ffd5b60ff60015460a01c166116e457565b63d93c066560e01b5f5260045ffd5b5f546001600160a01b0316330361170657565b63118cdaa760e01b5f523360045260245ffd5b6040516323b872dd60e01b5f9081526001600160a01b039384166004529290931660245260449390935260209060648180865af19060015f511482161561178a575b6040525f6060521561176a5750565b635274afe760e01b5f9081526001600160a01b0391909116600452602490fd5b9060018115166117a257823b15153d1516169061175b565b503d5f823e3d90fd5b916040519163a9059cbb60e01b5f5260018060a01b031660045260245260205f60448180865af19060015f51148216156117eb575b6040521561176a5750565b9060018115166117a257823b15153d151616906117e056fe9b779b17422d0df92223018b32b4d1fa46e071723d6817e2486d003becc55f00a26469706673582212206583043f838abac3cc6ee1932ea7a88050241b607acd01d37b16f40dd7319f5464736f6c634300081a0033",
  "linkReferences": {},
  "deployedLinkReferences": {}
}