{
  "_format": "hh-sol-artifact-1",
  "contractName": "WikiSubAccount",
  "sourceName": "src/WikiSubAccount.sol",
  "abi": [
    {
      "inputs": [
        {
          "internalType": "address",
          "name": "_owner",
          "type": "address"
        },
        {
          "internalType": "address",
          "name": "_usdc",
          "type": "address"
        }
      ],
      "stateMutability": "nonpayable",
      "type": "constructor"
    },
    {
      "inputs": [
        {
          "internalType": "address",
          "name": "owner",
          "type": "address"
        }
      ],
      "name": "OwnableInvalidOwner",
      "type": "error"
    },
    {
      "inputs": [
        {
          "internalType": "address",
          "name": "account",
          "type": "address"
        }
      ],
      "name": "OwnableUnauthorizedAccount",
      "type": "error"
    },
    {
      "inputs": [],
      "name": "ReentrancyGuardReentrantCall",
      "type": "error"
    },
    {
      "inputs": [
        {
          "internalType": "address",
          "name": "token",
          "type": "address"
        }
      ],
      "name": "SafeERC20FailedOperation",
      "type": "error"
    },
    {
      "anonymous": false,
      "inputs": [
        {
          "indexed": true,
          "internalType": "address",
          "name": "previousOwner",
          "type": "address"
        },
        {
          "indexed": true,
          "internalType": "address",
          "name": "newOwner",
          "type": "address"
        }
      ],
      "name": "OwnershipTransferStarted",
      "type": "event"
    },
    {
      "anonymous": false,
      "inputs": [
        {
          "indexed": true,
          "internalType": "address",
          "name": "previousOwner",
          "type": "address"
        },
        {
          "indexed": true,
          "internalType": "address",
          "name": "newOwner",
          "type": "address"
        }
      ],
      "name": "OwnershipTransferred",
      "type": "event"
    },
    {
      "anonymous": false,
      "inputs": [
        {
          "indexed": true,
          "internalType": "address",
          "name": "master",
          "type": "address"
        },
        {
          "indexed": false,
          "internalType": "uint256",
          "name": "index",
          "type": "uint256"
        },
        {
          "indexed": false,
          "internalType": "string",
          "name": "label",
          "type": "string"
        }
      ],
      "name": "SubAccountCreated",
      "type": "event"
    },
    {
      "anonymous": false,
      "inputs": [
        {
          "indexed": true,
          "internalType": "address",
          "name": "master",
          "type": "address"
        },
        {
          "indexed": false,
          "internalType": "uint256",
          "name": "index",
          "type": "uint256"
        },
        {
          "indexed": false,
          "internalType": "uint256",
          "name": "amount",
          "type": "uint256"
        }
      ],
      "name": "SubAccountFunded",
      "type": "event"
    },
    {
      "anonymous": false,
      "inputs": [
        {
          "indexed": true,
          "internalType": "address",
          "name": "master",
          "type": "address"
        },
        {
          "indexed": false,
          "internalType": "uint256",
          "name": "index",
          "type": "uint256"
        },
        {
          "indexed": false,
          "internalType": "bool",
          "name": "paused",
          "type": "bool"
        }
      ],
      "name": "SubAccountPaused",
      "type": "event"
    },
    {
      "anonymous": false,
      "inputs": [
        {
          "indexed": true,
          "internalType": "address",
          "name": "master",
          "type": "address"
        },
        {
          "indexed": false,
          "internalType": "uint256",
          "name": "index",
          "type": "uint256"
        },
        {
          "indexed": false,
          "internalType": "uint256",
          "name": "amount",
          "type": "uint256"
        }
      ],
      "name": "SubAccountWithdrawn",
      "type": "event"
    },
    {
      "anonymous": false,
      "inputs": [
        {
          "indexed": true,
          "internalType": "address",
          "name": "master",
          "type": "address"
        },
        {
          "indexed": false,
          "internalType": "uint256",
          "name": "from",
          "type": "uint256"
        },
        {
          "indexed": false,
          "internalType": "uint256",
          "name": "to",
          "type": "uint256"
        },
        {
          "indexed": false,
          "internalType": "uint256",
          "name": "amount",
          "type": "uint256"
        }
      ],
      "name": "TransferBetweenSubs",
      "type": "event"
    },
    {
      "inputs": [],
      "name": "MAX_SUBS",
      "outputs": [
        {
          "internalType": "uint256",
          "name": "",
          "type": "uint256"
        }
      ],
      "stateMutability": "view",
      "type": "function"
    },
    {
      "inputs": [],
      "name": "USDC",
      "outputs": [
        {
          "internalType": "contract IERC20",
          "name": "",
          "type": "address"
        }
      ],
      "stateMutability": "view",
      "type": "function"
    },
    {
      "inputs": [],
      "name": "acceptOwnership",
      "outputs": [],
      "stateMutability": "nonpayable",
      "type": "function"
    },
    {
      "inputs": [
        {
          "internalType": "address",
          "name": "",
          "type": "address"
        }
      ],
      "name": "activeSubIndex",
      "outputs": [
        {
          "internalType": "uint256",
          "name": "",
          "type": "uint256"
        }
      ],
      "stateMutability": "view",
      "type": "function"
    },
    {
      "inputs": [
        {
          "internalType": "address",
          "name": "master",
          "type": "address"
        },
        {
          "internalType": "uint256",
          "name": "subIndex",
          "type": "uint256"
        },
        {
          "internalType": "uint256",
          "name": "positionSize",
          "type": "uint256"
        },
        {
          "internalType": "uint256",
          "name": "leverage",
          "type": "uint256"
        }
      ],
      "name": "checkAndDeductRisk",
      "outputs": [
        {
          "internalType": "bool",
          "name": "allowed",
          "type": "bool"
        }
      ],
      "stateMutability": "nonpayable",
      "type": "function"
    },
    {
      "inputs": [
        {
          "internalType": "string",
          "name": "label",
          "type": "string"
        },
        {
          "internalType": "uint256",
          "name": "maxLeverage",
          "type": "uint256"
        },
        {
          "internalType": "uint256",
          "name": "maxPositionUsdc",
          "type": "uint256"
        },
        {
          "internalType": "uint256",
          "name": "dailyLossLimit",
          "type": "uint256"
        }
      ],
      "name": "createSubAccount",
      "outputs": [
        {
          "internalType": "uint256",
          "name": "index",
          "type": "uint256"
        }
      ],
      "stateMutability": "nonpayable",
      "type": "function"
    },
    {
      "inputs": [
        {
          "internalType": "uint256",
          "name": "subIndex",
          "type": "uint256"
        },
        {
          "internalType": "uint256",
          "name": "amount",
          "type": "uint256"
        }
      ],
      "name": "depositToSub",
      "outputs": [],
      "stateMutability": "nonpayable",
      "type": "function"
    },
    {
      "inputs": [
        {
          "internalType": "address",
          "name": "master",
          "type": "address"
        }
      ],
      "name": "getAllSubAccounts",
      "outputs": [
        {
          "components": [
            {
              "internalType": "address",
              "name": "master",
              "type": "address"
            },
            {
              "internalType": "uint256",
              "name": "index",
              "type": "uint256"
            },
            {
              "internalType": "string",
              "name": "label",
              "type": "string"
            },
            {
              "internalType": "uint256",
              "name": "balance",
              "type": "uint256"
            },
            {
              "internalType": "uint256",
              "name": "maxLeverage",
              "type": "uint256"
            },
            {
              "internalType": "uint256",
              "name": "maxPositionUsdc",
              "type": "uint256"
            },
            {
              "internalType": "uint256",
              "name": "dailyLossLimit",
              "type": "uint256"
            },
            {
              "internalType": "uint256",
              "name": "dailyLossUsed",
              "type": "uint256"
            },
            {
              "internalType": "uint256",
              "name": "lastDayReset",
              "type": "uint256"
            },
            {
              "internalType": "bool",
              "name": "active",
              "type": "bool"
            },
            {
              "internalType": "bool",
              "name": "tradingPaused",
              "type": "bool"
            }
          ],
          "internalType": "struct WikiSubAccount.SubAccount[]",
          "name": "subs",
          "type": "tuple[]"
        }
      ],
      "stateMutability": "view",
      "type": "function"
    },
    {
      "inputs": [
        {
          "internalType": "address",
          "name": "master",
          "type": "address"
        },
        {
          "internalType": "uint256",
          "name": "subIndex",
          "type": "uint256"
        }
      ],
      "name": "getSubBalance",
      "outputs": [
        {
          "internalType": "uint256",
          "name": "",
          "type": "uint256"
        }
      ],
      "stateMutability": "view",
      "type": "function"
    },
    {
      "inputs": [],
      "name": "owner",
      "outputs": [
        {
          "internalType": "address",
          "name": "",
          "type": "address"
        }
      ],
      "stateMutability": "view",
      "type": "function"
    },
    {
      "inputs": [
        {
          "internalType": "uint256",
          "name": "subIndex",
          "type": "uint256"
        },
        {
          "internalType": "bool",
          "name": "paused",
          "type": "bool"
        }
      ],
      "name": "pauseSub",
      "outputs": [],
      "stateMutability": "nonpayable",
      "type": "function"
    },
    {
      "inputs": [],
      "name": "pendingOwner",
      "outputs": [
        {
          "internalType": "address",
          "name": "",
          "type": "address"
        }
      ],
      "stateMutability": "view",
      "type": "function"
    },
    {
      "inputs": [
        {
          "internalType": "address",
          "name": "master",
          "type": "address"
        },
        {
          "internalType": "uint256",
          "name": "subIndex",
          "type": "uint256"
        },
        {
          "internalType": "uint256",
          "name": "lossUsdc",
          "type": "uint256"
        }
      ],
      "name": "recordSubLoss",
      "outputs": [],
      "stateMutability": "nonpayable",
      "type": "function"
    },
    {
      "inputs": [
        {
          "internalType": "address",
          "name": "master",
          "type": "address"
        },
        {
          "internalType": "uint256",
          "name": "subIndex",
          "type": "uint256"
        },
        {
          "internalType": "uint256",
          "name": "profitUsdc",
          "type": "uint256"
        }
      ],
      "name": "recordSubProfit",
      "outputs": [],
      "stateMutability": "nonpayable",
      "type": "function"
    },
    {
      "inputs": [],
      "name": "renounceOwnership",
      "outputs": [],
      "stateMutability": "nonpayable",
      "type": "function"
    },
    {
      "inputs": [
        {
          "internalType": "uint256",
          "name": "subIndex",
          "type": "uint256"
        }
      ],
      "name": "setActiveSubAccount",
      "outputs": [],
      "stateMutability": "nonpayable",
      "type": "function"
    },
    {
      "inputs": [
        {
          "internalType": "address",
          "name": "",
          "type": "address"
        },
        {
          "internalType": "uint256",
          "name": "",
          "type": "uint256"
        }
      ],
      "name": "subAccounts",
      "outputs": [
        {
          "internalType": "address",
          "name": "master",
          "type": "address"
        },
        {
          "internalType": "uint256",
          "name": "index",
          "type": "uint256"
        },
        {
          "internalType": "string",
          "name": "label",
          "type": "string"
        },
        {
          "internalType": "uint256",
          "name": "balance",
          "type": "uint256"
        },
        {
          "internalType": "uint256",
          "name": "maxLeverage",
          "type": "uint256"
        },
        {
          "internalType": "uint256",
          "name": "maxPositionUsdc",
          "type": "uint256"
        },
        {
          "internalType": "uint256",
          "name": "dailyLossLimit",
          "type": "uint256"
        },
        {
          "internalType": "uint256",
          "name": "dailyLossUsed",
          "type": "uint256"
        },
        {
          "internalType": "uint256",
          "name": "lastDayReset",
          "type": "uint256"
        },
        {
          "internalType": "bool",
          "name": "active",
          "type": "bool"
        },
        {
          "internalType": "bool",
          "name": "tradingPaused",
          "type": "bool"
        }
      ],
      "stateMutability": "view",
      "type": "function"
    },
    {
      "inputs": [
        {
          "internalType": "address",
          "name": "",
          "type": "address"
        }
      ],
      "name": "subCount",
      "outputs": [
        {
          "internalType": "uint256",
          "name": "",
          "type": "uint256"
        }
      ],
      "stateMutability": "view",
      "type": "function"
    },
    {
      "inputs": [
        {
          "internalType": "uint256",
          "name": "fromIdx",
          "type": "uint256"
        },
        {
          "internalType": "uint256",
          "name": "toIdx",
          "type": "uint256"
        },
        {
          "internalType": "uint256",
          "name": "amount",
          "type": "uint256"
        }
      ],
      "name": "transferBetweenSubs",
      "outputs": [],
      "stateMutability": "nonpayable",
      "type": "function"
    },
    {
      "inputs": [
        {
          "internalType": "address",
          "name": "newOwner",
          "type": "address"
        }
      ],
      "name": "transferOwnership",
      "outputs": [],
      "stateMutability": "nonpayable",
      "type": "function"
    },
    {
      "inputs": [
        {
          "internalType": "uint256",
          "name": "subIndex",
          "type": "uint256"
        },
        {
          "internalType": "uint256",
          "name": "maxLev",
          "type": "uint256"
        },
        {
          "internalType": "uint256",
          "name": "maxPos",
          "type": "uint256"
        },
        {
          "internalType": "uint256",
          "name": "dailyLimit",
          "type": "uint256"
        }
      ],
      "name": "updateSubLimits",
      "outputs": [],
      "stateMutability": "nonpayable",
      "type": "function"
    },
    {
      "inputs": [
        {
          "internalType": "uint256",
          "name": "subIndex",
          "type": "uint256"
        },
        {
          "internalType": "uint256",
          "name": "amount",
          "type": "uint256"
        }
      ],
      "name": "withdrawFromSub",
      "outputs": [],
      "stateMutability": "nonpayable",
      "type": "function"
    }
  ],
  "bytecode": "0x60a03461011a57601f61166238819003918201601f19168301916001600160401b0383118484101761011e57808492604094855283398101031261011a57610052602061004b83610132565b9201610132565b6001600160a01b0390911690811561010757600180546001600160a01b03199081169091555f80549182168417815560405193916001600160a01b0316907f8be0079c531659141344cd1fd0a4f28419497f9722a3daafe3b4186f6b6457e09080a360017f9b779b17422d0df92223018b32b4d1fa46e071723d6817e2486d003becc55f00556001600160a01b031660805261151b90816101478239608051818181610747015281816108b10152610fc50152f35b631e4fbdf760e01b5f525f60045260245ffd5b5f80fd5b634e487b7160e01b5f52604160045260245ffd5b51906001600160a01b038216820361011a5756fe6080806040526004361015610012575f80fd5b5f3560e01c9081630514d854146110ad57508063129324f414610f88578063160bf57714610d1a57806325bbaa8314610cd35780632d281add14610c065780633255b34914610bcd57806334d573f314610af157806347009ba314610ab3578063715018a614610a5057806379ba5097146109cb578063803c89621461091857806385cd0d97146108e057806389a302711461089c5780638da5cb5b1461087557806392d0b3f61461081d57806393273498146107025780639b2a70cb14610321578063a149db4714610211578063bbb3997e146101f6578063c08c627d146101ac578063e30c3978146101845763f2fde38b1461010e575f80fd5b34610180576020366003190112610180576101276110e1565b61012f6114b2565b60018060a01b0316806bffffffffffffffffffffffff60a01b600154161760015560018060a01b035f54167f38d16b8cac22d99fc7c124b9cd0de2d3fa1faef420bfe791d8c362d765e227005f80a3005b5f80fd5b34610180575f366003190112610180576001546040516001600160a01b039091168152602090f35b3461018057602036600319011261018057600435335f52600260205260405f20815f526020526101e560ff600960405f20015416611272565b335f52600460205260405f20555f80f35b34610180575f366003190112610180576020604051600a8152f35b346101805760603660031901126101805760043560443560243561023361147a565b335f9081526002602090815260408083208684529091528082208383529120600982015460ff1680610313575b156102da57600380920161028185825461027c8282101561142e565b6112fd565b90550161028f8382546112b0565b9055604051928352602083015260408201527f3a3993996454b4fe67f68306ff85abfc40f8862766d53396a9b03ae451ef1db560603392a260015f805160206114c683398151915255005b60405162461bcd60e51b815260206004820152601160248201527029bab11d1034b730b1ba34bb329039bab160791b6044820152606490fd5b5060ff600982015416610260565b346101805760803660031901126101805760043567ffffffffffffffff811161018057366023820112156101805767ffffffffffffffff8160040135116101805736602482600401358301011161018057335f526003602052600a60405f205410156106bd57335f52600360205260405f208054905f1982146106a9576001820190556040516103b081611193565b3381526020810192828452601f19601f82600401350116916040516103d860208501826111b0565b60048301358082526024840160208301375f6020846004013583010152604082019081525f6060830152602435608083015260443560a083015260643560c08301525f60e08301524261010083015260016101208301525f610140830152335f52600260205260405f20855f5260205260405f209560018060a01b038351166bffffffffffffffffffffffff60a01b8854161787555160018701555194855167ffffffffffffffff811161069557610493600283015461115b565b96601f881161064d575b602097508790601f83116001146105b75761056a93837f502b126cb85fa84b6476d5022b97c84ccbb6b7f21a8376e2a306b9d7c6830277979694610140946009945f926105ac575b50508160011b915f199060031b1c19161760028201555b606084015160038201556080840151600482015560a0840151600582015560c0840151600682015560e0840151600782015561010084015160088201550191610120810151151560ff801985541691161783550151151561ff00825491151560081b169061ff001916179055565b5f6060604051928684526040888501528060040135604085015280600401356024820183860137600401358301015260608133948101030190a2604051908152f35b015190508c806104e5565b90600284015f52805f20915f5b601f19851681106106365750936001846101409460099461056a987f502b126cb85fa84b6476d5022b97c84ccbb6b7f21a8376e2a306b9d7c68302779b9a98601f1981161061061e575b505050811b0160028201556104fc565b01515f1960f88460031b161c191690558c808061060e565b91928a6001819286850151815501940192016105c4565b600283015f5260205f20601f830160051c8101986020841061068b575b601f0160051c01975b888110610680575061049d565b5f8155600101610673565b909850889061066a565b634e487b7160e01b5f52604160045260245ffd5b634e487b7160e01b5f52601160045260245ffd5b60405162461bcd60e51b815260206004820152601860248201527f5375623a206d6178203130207375622d6163636f756e747300000000000000006044820152606490fd5b3461018057610710366110f7565b61071861147a565b335f52600260205260405f20825f52602052600360405f200161074382825461027c8282101561142e565b90557f0000000000000000000000000000000000000000000000000000000000000000916040519263a9059cbb60e01b5f52336004528260245260205f60448180855af160015f51148116156107fe575b84604052156107de5750825260208201527ffb91594bb40d286ab9de6933e2f77f5e46d503b3fbf64e77c0d092aa3d68c4ba60403392a260015f805160206114c683398151915255005b635274afe760e01b5f9081526001600160a01b0391909116600452602490fd5b600181151661081457813b15153d151616610794565b843d5f823e3d90fd5b3461018057608036600319011261018057335f52600260205260405f206004355f5260205260405f2061085a3360018060a01b03835416146113f0565b60243560048201556044356005820155606435600690910155005b34610180575f366003190112610180575f546040516001600160a01b039091168152602090f35b34610180575f366003190112610180576040517f00000000000000000000000000000000000000000000000000000000000000006001600160a01b03168152602090f35b34610180576020366003190112610180576001600160a01b036109016110e1565b165f526003602052602060405f2054604051908152f35b3461018057604036600319011261018057600435602435801515908181036101805761099890335f52600260205260405f20845f526020526109673360018060a01b0360405f205416146113f0565b335f52600260205260405f20845f52602052600960405f20019061ff00825491151560081b169061ff001916179055565b60405191825260208201527f61702771b5ba6c6670cda92de04a673a3e37ff47393e11cbae610c2a1eb6f13260403392a2005b34610180575f36600319011261018057600154336001600160a01b0390911603610a3d57600180546001600160a01b03199081169091555f805433928116831782556001600160a01b0316907f8be0079c531659141344cd1fd0a4f28419497f9722a3daafe3b4186f6b6457e09080a3005b63118cdaa760e01b5f523360045260245ffd5b34610180575f36600319011261018057610a686114b2565b600180546001600160a01b03199081169091555f80549182168155906001600160a01b03167f8be0079c531659141344cd1fd0a4f28419497f9722a3daafe3b4186f6b6457e08280a3005b3461018057610ac136611131565b9160018060a01b03165f52600260205260405f20905f52602052610aed600360405f20019182546112b0565b9055005b34610180576040366003190112610180576001600160a01b03610b126110e1565b165f52600260205260405f206024355f5260205260405f2060018060a01b0381541660018201549160ff610b48600283016111d2565b60038301549260048101546005820154600683015490600784015492610b9260096008870154960154966040519b8c9b8c5260208c015261016060408c01526101608b019061110d565b9760608a0152608089015260a088015260c087015260e0860152610100850152818116151561012085015260081c1615156101408301520390f35b34610180576080366003190112610180576020610bfc610beb6110e1565b60643590604435906024359061130a565b6040519015158152f35b3461018057610c1436611131565b9160018060a01b031691825f52600260205260405f20825f5260205260405f20906007820190610c458183546112b0565b82556003830190808254115f14610cca57610c619082546112fd565b90555b60068201548015159182610cbe575b5050610c7b57005b600901805461ff00191661010017905560408051918252600160208301527f61702771b5ba6c6670cda92de04a673a3e37ff47393e11cbae610c2a1eb6f13291a2005b54101590508480610c73565b505f9055610c64565b34610180576040366003190112610180576001600160a01b03610cf46110e1565b165f52600260205260405f206024355f526020526020600360405f200154604051908152f35b34610180576020366003190112610180576001600160a01b03610d3b6110e1565b16805f52600360205260405f2054610d52816112bd565b91610d6060405193846111b0565b818352601f19610d6f836112bd565b015f5b818110610f2b5750505f5b828110610e6a57836040518091602082016020835281518091526040830190602060408260051b8601019301915f905b828210610dbc57505050500390f35b919360019193955060208091603f19898203018552875190848060a01b038251168152828201518382015261014080610e066040850151610160604086015261016085019061110d565b93606081015160608501526080810151608085015260a081015160a085015260c081015160c085015260e081015160e08501526101008101516101008501526101208101511515610120850152015115159101529601920192018594939192610dad565b600190825f52600260205260405f20815f5260205260405f2060ff600960405192610e9484611193565b858060a01b038154168452858101546020850152610eb4600282016111d2565b60408501526003810154606085015260048101546080850152600581015460a0850152600681015460c0850152600781015460e085015260088101546101008501520154818116151561012084015260081c161515610140820152610f1982876112d5565b52610f2481866112d5565b5001610d7d565b602090604051610f3a81611193565b5f81525f83820152606060408201525f60608201525f60808201525f60a08201525f60c08201525f60e08201525f6101008201525f6101208201525f61014082015282828801015201610d72565b3461018057610f96366110f7565b610f9e61147a565b335f52600260205260405f20825f52602052610fc360ff600960405f20015416611272565b7f00000000000000000000000000000000000000000000000000000000000000006040516323b872dd60e01b5f5233600452306024528260445260205f60648180865af19060015f511482161561108c575b6040525f606052156107de5750335f52600260205260405f20825f52602052600360405f20016110468282546112b0565b905560405191825260208201527f615a4d63aff11729be1ec70bce374eca777c606644b6135011fa1ea8fd10a26b60403392a260015f805160206114c683398151915255005b9060018115166110a457823b15153d15161690611015565b503d5f823e3d90fd5b34610180576020366003190112610180576020906001600160a01b036110d16110e1565b165f526004825260405f20548152f35b600435906001600160a01b038216820361018057565b6040906003190112610180576004359060243590565b805180835260209291819084018484015e5f828201840152601f01601f1916010190565b6060906003190112610180576004356001600160a01b038116810361018057906024359060443590565b90600182811c92168015611189575b602083101461117557565b634e487b7160e01b5f52602260045260245ffd5b91607f169161116a565b610160810190811067ffffffffffffffff82111761069557604052565b90601f8019910116810190811067ffffffffffffffff82111761069557604052565b9060405191825f8254926111e58461115b565b8084529360018116908115611250575060011461120c575b5061120a925003836111b0565b565b90505f9291925260205f20905f915b81831061123457505090602061120a928201015f6111fd565b602091935080600191548385890101520191019091849261121b565b90506020925061120a94915060ff191682840152151560051b8201015f6111fd565b1561127957565b60405162461bcd60e51b815260206004820152600f60248201526e5375623a206e6f742061637469766560881b6044820152606490fd5b919082018092116106a957565b67ffffffffffffffff81116106955760051b60200190565b80518210156112e95760209160051b010190565b634e487b7160e01b5f52603260045260245ffd5b919082039182116106a957565b60018060a01b03165f52600260205260405f20905f5260205260405f2091600983015460ff8116159081156113e2575b506113db576008830180546201518081018091116106a9574210156113cc575b50600483015480151591826113c2575b50506113bc57600582015480151591826113b2575b50506113ad5760068101549081611398575b5050600190565b6007015410156113a9575f80611391565b5f90565b505f90565b1190505f8061137f565b50505f90565b1190505f8061136a565b5f60078501554290555f61135a565b5050505f90565b60ff915060081c165f61133a565b156113f757565b60405162461bcd60e51b815260206004820152600f60248201526e29bab11d103737ba1036b0b9ba32b960891b6044820152606490fd5b1561143557565b60405162461bcd60e51b815260206004820152601960248201527f5375623a20696e73756666696369656e742062616c616e6365000000000000006044820152606490fd5b60025f805160206114c683398151915254146114a35760025f805160206114c683398151915255565b633ee5aeb560e01b5f5260045ffd5b5f546001600160a01b03163303610a3d5756fe9b779b17422d0df92223018b32b4d1fa46e071723d6817e2486d003becc55f00a26469706673582212208f85752ec1635cb3c6e4514cedaee5a49256abd7c5714509d7bf02eea261b46564736f6c634300081a0033",
  "linkReferences": {},
  "deployedLinkReferences": {}
}