{
  "_format": "hh-sol-artifact-1",
  "contractName": "WikiVestingMarket",
  "sourceName": "src/WikiVestingMarket.sol",
  "abi": [
    {
      "inputs": [
        {
          "internalType": "address",
          "name": "_owner",
          "type": "address"
        },
        {
          "internalType": "address",
          "name": "_usdc",
          "type": "address"
        },
        {
          "internalType": "address",
          "name": "_wik",
          "type": "address"
        },
        {
          "internalType": "address",
          "name": "_vesting",
          "type": "address"
        },
        {
          "internalType": "address",
          "name": "_treasury",
          "type": "address"
        }
      ],
      "stateMutability": "nonpayable",
      "type": "constructor"
    },
    {
      "inputs": [
        {
          "internalType": "address",
          "name": "owner",
          "type": "address"
        }
      ],
      "name": "OwnableInvalidOwner",
      "type": "error"
    },
    {
      "inputs": [
        {
          "internalType": "address",
          "name": "account",
          "type": "address"
        }
      ],
      "name": "OwnableUnauthorizedAccount",
      "type": "error"
    },
    {
      "inputs": [],
      "name": "ReentrancyGuardReentrantCall",
      "type": "error"
    },
    {
      "inputs": [
        {
          "internalType": "address",
          "name": "token",
          "type": "address"
        }
      ],
      "name": "SafeERC20FailedOperation",
      "type": "error"
    },
    {
      "anonymous": false,
      "inputs": [
        {
          "indexed": false,
          "internalType": "uint256",
          "name": "listingId",
          "type": "uint256"
        },
        {
          "indexed": false,
          "internalType": "address",
          "name": "seller",
          "type": "address"
        },
        {
          "indexed": false,
          "internalType": "uint256",
          "name": "wikAmount",
          "type": "uint256"
        },
        {
          "indexed": false,
          "internalType": "uint256",
          "name": "askPrice",
          "type": "uint256"
        },
        {
          "indexed": false,
          "internalType": "uint256",
          "name": "discount",
          "type": "uint256"
        }
      ],
      "name": "Listed",
      "type": "event"
    },
    {
      "anonymous": false,
      "inputs": [
        {
          "indexed": false,
          "internalType": "uint256",
          "name": "listingId",
          "type": "uint256"
        },
        {
          "indexed": false,
          "internalType": "address",
          "name": "seller",
          "type": "address"
        }
      ],
      "name": "ListingCancelled",
      "type": "event"
    },
    {
      "anonymous": false,
      "inputs": [
        {
          "indexed": true,
          "internalType": "address",
          "name": "previousOwner",
          "type": "address"
        },
        {
          "indexed": true,
          "internalType": "address",
          "name": "newOwner",
          "type": "address"
        }
      ],
      "name": "OwnershipTransferStarted",
      "type": "event"
    },
    {
      "anonymous": false,
      "inputs": [
        {
          "indexed": true,
          "internalType": "address",
          "name": "previousOwner",
          "type": "address"
        },
        {
          "indexed": true,
          "internalType": "address",
          "name": "newOwner",
          "type": "address"
        }
      ],
      "name": "OwnershipTransferred",
      "type": "event"
    },
    {
      "anonymous": false,
      "inputs": [
        {
          "indexed": false,
          "internalType": "uint256",
          "name": "listingId",
          "type": "uint256"
        },
        {
          "indexed": false,
          "internalType": "address",
          "name": "buyer",
          "type": "address"
        },
        {
          "indexed": false,
          "internalType": "uint256",
          "name": "wikAmount",
          "type": "uint256"
        },
        {
          "indexed": false,
          "internalType": "uint256",
          "name": "pricePaid",
          "type": "uint256"
        },
        {
          "indexed": false,
          "internalType": "uint256",
          "name": "fee",
          "type": "uint256"
        }
      ],
      "name": "Sold",
      "type": "event"
    },
    {
      "inputs": [],
      "name": "BPS",
      "outputs": [
        {
          "internalType": "uint256",
          "name": "",
          "type": "uint256"
        }
      ],
      "stateMutability": "view",
      "type": "function"
    },
    {
      "inputs": [],
      "name": "USDC",
      "outputs": [
        {
          "internalType": "contract IERC20",
          "name": "",
          "type": "address"
        }
      ],
      "stateMutability": "view",
      "type": "function"
    },
    {
      "inputs": [],
      "name": "WIK",
      "outputs": [
        {
          "internalType": "contract IERC20",
          "name": "",
          "type": "address"
        }
      ],
      "stateMutability": "view",
      "type": "function"
    },
    {
      "inputs": [],
      "name": "acceptOwnership",
      "outputs": [],
      "stateMutability": "nonpayable",
      "type": "function"
    },
    {
      "inputs": [
        {
          "internalType": "uint256",
          "name": "listingId",
          "type": "uint256"
        }
      ],
      "name": "buyListing",
      "outputs": [],
      "stateMutability": "nonpayable",
      "type": "function"
    },
    {
      "inputs": [
        {
          "internalType": "address",
          "name": "",
          "type": "address"
        },
        {
          "internalType": "uint256",
          "name": "",
          "type": "uint256"
        }
      ],
      "name": "buyerPurchases",
      "outputs": [
        {
          "internalType": "uint256",
          "name": "",
          "type": "uint256"
        }
      ],
      "stateMutability": "view",
      "type": "function"
    },
    {
      "inputs": [
        {
          "internalType": "uint256",
          "name": "listingId",
          "type": "uint256"
        }
      ],
      "name": "cancelListing",
      "outputs": [],
      "stateMutability": "nonpayable",
      "type": "function"
    },
    {
      "inputs": [],
      "name": "feeTreasury",
      "outputs": [
        {
          "internalType": "address",
          "name": "",
          "type": "address"
        }
      ],
      "stateMutability": "view",
      "type": "function"
    },
    {
      "inputs": [
        {
          "internalType": "uint256",
          "name": "offset",
          "type": "uint256"
        },
        {
          "internalType": "uint256",
          "name": "limit",
          "type": "uint256"
        }
      ],
      "name": "getActiveListings",
      "outputs": [
        {
          "components": [
            {
              "internalType": "address",
              "name": "seller",
              "type": "address"
            },
            {
              "internalType": "uint256",
              "name": "vestingScheduleId",
              "type": "uint256"
            },
            {
              "internalType": "uint256",
              "name": "wikAmount",
              "type": "uint256"
            },
            {
              "internalType": "uint256",
              "name": "remainingWIK",
              "type": "uint256"
            },
            {
              "internalType": "uint256",
              "name": "askPriceUsdc",
              "type": "uint256"
            },
            {
              "internalType": "uint256",
              "name": "discountBps",
              "type": "uint256"
            },
            {
              "internalType": "uint256",
              "name": "unlockTimestamp",
              "type": "uint256"
            },
            {
              "internalType": "bool",
              "name": "active",
              "type": "bool"
            },
            {
              "internalType": "uint256",
              "name": "createdAt",
              "type": "uint256"
            },
            {
              "internalType": "uint256",
              "name": "expiresAt",
              "type": "uint256"
            }
          ],
          "internalType": "struct WikiVestingMarket.Listing[]",
          "name": "result",
          "type": "tuple[]"
        }
      ],
      "stateMutability": "view",
      "type": "function"
    },
    {
      "inputs": [
        {
          "internalType": "uint256",
          "name": "listingId",
          "type": "uint256"
        }
      ],
      "name": "getImpliedWIKPrice",
      "outputs": [
        {
          "internalType": "uint256",
          "name": "pricePerWIK",
          "type": "uint256"
        }
      ],
      "stateMutability": "view",
      "type": "function"
    },
    {
      "inputs": [
        {
          "internalType": "address",
          "name": "seller",
          "type": "address"
        }
      ],
      "name": "getMyListings",
      "outputs": [
        {
          "internalType": "uint256[]",
          "name": "",
          "type": "uint256[]"
        }
      ],
      "stateMutability": "view",
      "type": "function"
    },
    {
      "inputs": [
        {
          "internalType": "address",
          "name": "buyer",
          "type": "address"
        }
      ],
      "name": "getMyPurchases",
      "outputs": [
        {
          "internalType": "uint256[]",
          "name": "",
          "type": "uint256[]"
        }
      ],
      "stateMutability": "view",
      "type": "function"
    },
    {
      "inputs": [
        {
          "internalType": "uint256",
          "name": "scheduleId",
          "type": "uint256"
        },
        {
          "internalType": "uint256",
          "name": "askPriceUsdc",
          "type": "uint256"
        },
        {
          "internalType": "uint256",
          "name": "discountBps",
          "type": "uint256"
        },
        {
          "internalType": "uint256",
          "name": "expiryDays",
          "type": "uint256"
        }
      ],
      "name": "listVestingSchedule",
      "outputs": [
        {
          "internalType": "uint256",
          "name": "listingId",
          "type": "uint256"
        }
      ],
      "stateMutability": "nonpayable",
      "type": "function"
    },
    {
      "inputs": [
        {
          "internalType": "uint256",
          "name": "",
          "type": "uint256"
        }
      ],
      "name": "listings",
      "outputs": [
        {
          "internalType": "address",
          "name": "seller",
          "type": "address"
        },
        {
          "internalType": "uint256",
          "name": "vestingScheduleId",
          "type": "uint256"
        },
        {
          "internalType": "uint256",
          "name": "wikAmount",
          "type": "uint256"
        },
        {
          "internalType": "uint256",
          "name": "remainingWIK",
          "type": "uint256"
        },
        {
          "internalType": "uint256",
          "name": "askPriceUsdc",
          "type": "uint256"
        },
        {
          "internalType": "uint256",
          "name": "discountBps",
          "type": "uint256"
        },
        {
          "internalType": "uint256",
          "name": "unlockTimestamp",
          "type": "uint256"
        },
        {
          "internalType": "bool",
          "name": "active",
          "type": "bool"
        },
        {
          "internalType": "uint256",
          "name": "createdAt",
          "type": "uint256"
        },
        {
          "internalType": "uint256",
          "name": "expiresAt",
          "type": "uint256"
        }
      ],
      "stateMutability": "view",
      "type": "function"
    },
    {
      "inputs": [],
      "name": "nextListingId",
      "outputs": [
        {
          "internalType": "uint256",
          "name": "",
          "type": "uint256"
        }
      ],
      "stateMutability": "view",
      "type": "function"
    },
    {
      "inputs": [],
      "name": "owner",
      "outputs": [
        {
          "internalType": "address",
          "name": "",
          "type": "address"
        }
      ],
      "stateMutability": "view",
      "type": "function"
    },
    {
      "inputs": [],
      "name": "pendingOwner",
      "outputs": [
        {
          "internalType": "address",
          "name": "",
          "type": "address"
        }
      ],
      "stateMutability": "view",
      "type": "function"
    },
    {
      "inputs": [],
      "name": "protocolFeeBps",
      "outputs": [
        {
          "internalType": "uint256",
          "name": "",
          "type": "uint256"
        }
      ],
      "stateMutability": "view",
      "type": "function"
    },
    {
      "inputs": [],
      "name": "renounceOwnership",
      "outputs": [],
      "stateMutability": "nonpayable",
      "type": "function"
    },
    {
      "inputs": [
        {
          "internalType": "address",
          "name": "",
          "type": "address"
        },
        {
          "internalType": "uint256",
          "name": "",
          "type": "uint256"
        }
      ],
      "name": "sellerListings",
      "outputs": [
        {
          "internalType": "uint256",
          "name": "",
          "type": "uint256"
        }
      ],
      "stateMutability": "view",
      "type": "function"
    },
    {
      "inputs": [
        {
          "internalType": "uint256",
          "name": "bps",
          "type": "uint256"
        }
      ],
      "name": "setProtocolFee",
      "outputs": [],
      "stateMutability": "nonpayable",
      "type": "function"
    },
    {
      "inputs": [
        {
          "internalType": "address",
          "name": "t",
          "type": "address"
        }
      ],
      "name": "setTreasury",
      "outputs": [],
      "stateMutability": "nonpayable",
      "type": "function"
    },
    {
      "inputs": [
        {
          "internalType": "address",
          "name": "newOwner",
          "type": "address"
        }
      ],
      "name": "transferOwnership",
      "outputs": [],
      "stateMutability": "nonpayable",
      "type": "function"
    },
    {
      "inputs": [],
      "name": "vestingContract",
      "outputs": [
        {
          "internalType": "contract IWikiTokenVesting",
          "name": "",
          "type": "address"
        }
      ],
      "stateMutability": "view",
      "type": "function"
    }
  ],
  "bytecode": "0x60c03461017757601f61150938819003918201601f19168301916001600160401b0383118484101761017b5780849260a094604052833981010312610177576100478161018f565b6100536020830161018f565b916100606040820161018f565b61007860806100716060850161018f565b930161018f565b6001600160a01b0390931693841561016457600180546001600160a01b03199081169091555f80549182168717815560405196916001600160a01b0316907f8be0079c531659141344cd1fd0a4f28419497f9722a3daafe3b4186f6b6457e09080a360017f9b779b17422d0df92223018b32b4d1fa46e071723d6817e2486d003becc55f005560c86007556001600160a01b0390811660805290811660a052600280546001600160a01b031990811693831693909317905560088054909216921691909117905561136590816101a482396080518181816106750152610c6e015260a05181610e6f0152f35b631e4fbdf760e01b5f525f60045260245ffd5b5f80fd5b634e487b7160e01b5f52604160045260245ffd5b51906001600160a01b03821682036101775756fe60806040526004361015610011575f80fd5b5f803560e01c8063054564f014611008578063249d39e914610fec578063305a67a814610f1357806334b7bfef14610ebb57806335659fb814610e9e57806340b0229e14610e5a5780634884f45914610be3578063536a2a58146108825780635e6f60451461085957806360dc234014610830578063715018a6146107cb578063787dce3d1461079b578063796fa9b21461072957806379ba5097146106a457806389a302711461065f5780638da5cb5b14610638578063aaccf1ec1461061a578063c128b23114610344578063c3ca324f146102c2578063c61f1dcd1461029b578063de74e57b146101ff578063e30c3978146101d6578063f0f44260146101915763f2fde38b14610122575f80fd5b3461018e57602036600319011261018e5761013b611051565b6101436112e9565b600180546001600160a01b0319166001600160a01b0392831690811790915582549091167f38d16b8cac22d99fc7c124b9cd0de2d3fa1faef420bfe791d8c362d765e227008380a380f35b80fd5b503461018e57602036600319011261018e576101ab611051565b6101b36112e9565b60018060a01b03166bffffffffffffffffffffffff60a01b600854161760085580f35b503461018e578060031936011261018e576001546040516001600160a01b039091168152602090f35b503461018e57602036600319011261018e57604061014091600435815260036020522060018060a01b038154169060018101549060028101546003820154600483015460058401549060068501549260ff600787015416946009600888015497015497604051998a5260208a015260408901526060880152608087015260a086015260c0850152151560e0840152610100830152610120820152f35b503461018e57602036600319011261018e5760206102ba6004356111d9565b604051908152f35b503461018e57602036600319011261018e576001600160a01b036102e4611051565b168152600560205260408120604051918260208354918281520192825260208220915b81811061032e5761032a8561031e81870382611144565b60405191829182611090565b0390f35b8254845260209093019260019283019201610307565b503461018e57604036600319011261018e57600654602435908290600435805b82811080610611575b156103cc57808452600360205260ff600760408620015416806103b3575b61039e575b6103999061119f565b610364565b946103ab6103999161119f565b959050610390565b508084526003602052600960408520015442111561038b565b509092506103d9846111ad565b936103e76040519586611144565b808552601f196103f6826111ad565b01835b8181106105bc57505082915b848110806105b3575b156105025780610439918552600360205260ff600760408720015416806104e9575b61043e5761119f565b610405565b80855260036020526104e360408620946104578161119f565b9560096040519161046783611113565b80546001600160a01b0316835260018101546020840152600281015460408401526003810154606084015260048101546080840152600581015460a0840152600681015460c0840152600781015460ff16151560e0840152600881015461010084015201546101208201526104dc828b6111c5565b52886111c5565b5061119f565b5080855260036020526009604086200154421115610430565b8584604051918291602083016020845282518091526020604085019301915b81811061052f575050500390f35b9193509160206101406001926101208751858060a01b038151168352848101518584015260408101516040840152606081015160608401526080810151608084015260a081015160a084015260c081015160c084015260e0810151151560e08401526101008101516101008401520151610120820152019401910191849392610521565b5081831061040e565b6020906040516105cb81611113565b86815286838201528660408201528660608201528660808201528660a08201528660c08201528660e0820152866101008201528661012082015282828a010152016103f9565b5084861061036d565b503461018e578060031936011261018e576020600654604051908152f35b503461018e578060031936011261018e57546040516001600160a01b039091168152602090f35b503461018e578060031936011261018e576040517f00000000000000000000000000000000000000000000000000000000000000006001600160a01b03168152602090f35b503461018e578060031936011261018e57600154336001600160a01b039091160361071657600180546001600160a01b0319908116909155815433918116821783556001600160a01b03167f8be0079c531659141344cd1fd0a4f28419497f9722a3daafe3b4186f6b6457e08380a380f35b63118cdaa760e01b815233600452602490fd5b503461018e57602036600319011261018e576001600160a01b0361074b611051565b168152600460205260408120604051918260208354918281520192825260208220915b8181106107855761032a8561031e81870382611144565b825484526020909301926001928301920161076e565b503461018e57602036600319011261018e576004356107b86112e9565b6101f481116107c75760075580f35b5080fd5b503461018e578060031936011261018e576107e46112e9565b600180546001600160a01b03199081169091558154908116825581906001600160a01b03167f8be0079c531659141344cd1fd0a4f28419497f9722a3daafe3b4186f6b6457e08280a380f35b503461018e578060031936011261018e576008546040516001600160a01b039091168152602090f35b503461018e578060031936011261018e576002546040516001600160a01b039091168152602090f35b503461018e57608036600319011261018e576064356024356004356044356108a861121f565b6101f481101580610bd7575b15610b9d5760025460405163c5ca93a760e01b815260048101849052929060e090849060249082906001600160a01b03165afa908115610b92578693879488918994610b2e575b50336001600160a01b0390911603610af1576109179085611106565b938415610ab4576006549661092b8861119f565b60065562015180810290808204620151801490151715610aa057420192834211610aa0576040602099886009610a84978a9997610a56978e977fd0e2632082726e989c9a9cac6d495b05080e0d6836ee21e07618b32d5719a4049e9d88519661099388611113565b33885260208801948552898801938452606088019182526080880190815260a08801918d835260c0890193845260e0890194600186526101008a01964288526101208b019889528d8c526020600390528c8c209a60018060a01b039051166bffffffffffffffffffffffff60a01b8c5416178b555160018b01555160028a0155516003890155516004880155516005870155516006860155600785019051151560ff801983541691161790555160088401555191015533815260048b5220611166565b60408051878152336020820152908101939093526060830193909352608082019290925290819060a0820190565b0390a160015f8051602061131083398151915255604051908152f35b634e487b7160e01b89526011600452602489fd5b60405162461bcd60e51b8152602060048201526015602482015274564d3a206e6f7468696e672072656d61696e696e6760581b6044820152606490fd5b60405162461bcd60e51b8152602060048201526015602482015274564d3a206e6f7420796f7572207363686564756c6560581b6044820152606490fd5b95505050905060e0833d60e011610b8a575b81610b4d60e09383611144565b81010312610b86578251906001600160a01b0382168203610b82576020840151606085015160c090950151909490925f6108fb565b8680fd5b8580fd5b3d9150610b40565b6040513d88823e3d90fd5b60405162461bcd60e51b8152602060048201526012602482015271564d3a20646973636f756e7420352d35302560701b6044820152606490fd5b506113888111156108b4565b5034610dca576020366003190112610dca5760043590610c0161121f565b815f52600360205260405f206007810192610c1f60ff8554166110c9565b60098201544211610e275781546001600160a01b0316338114610de257600483015492600754808502908582041485151715610dce57612710610ca991048093610c95610c6c8389611106565b7f0000000000000000000000000000000000000000000000000000000000000000923384611257565b6008546001600160a01b0316903390611257565b6002546001820154906001600160a01b0316803b15610dca57604051630d6dd34360e01b815260048101929092523360248301525f908290604490829084905af18015610dbf57610d80575b50906003610d69927f47c2f180f415c943169b11c4bd61c71dbd5f15ed83b496b3a65a47a3a21d63b4969760ff1981541690553388526005602052610d3d8560408a20611166565b0154604080519485523360208601528401526060830193909352608082019290925290819060a0820190565b0390a160015f805160206113108339815191525580f35b7f47c2f180f415c943169b11c4bd61c71dbd5f15ed83b496b3a65a47a3a21d63b49550610d699291610db45f600393611144565b5f9650919250610cf5565b6040513d5f823e3d90fd5b5f80fd5b634e487b7160e01b5f52601160045260245ffd5b60405162461bcd60e51b815260206004820152601a60248201527f564d3a2063616e6e6f7420627579206f776e206c697374696e670000000000006044820152606490fd5b60405162461bcd60e51b815260206004820152600b60248201526a15934e88195e1c1a5c995960aa1b6044820152606490fd5b34610dca575f366003190112610dca576040517f00000000000000000000000000000000000000000000000000000000000000006001600160a01b03168152602090f35b34610dca575f366003190112610dca576020600754604051908152f35b34610dca576040366003190112610dca57610ed4611051565b6001600160a01b03165f90815260056020526040902080546024359190821015610dca57602091610f0491611067565b90549060031b1c604051908152f35b34610dca576020366003190112610dca57600435610f2f61121f565b5f81815260036020526040902080546001600160a01b03163303610fb6577f8e25282255ab31897df2b0456bb993ac7f84d376861aefd84901d2d63a7428a2916007610fa092018054610f8460ff82166110c9565b60ff191690556040805191825233602083015290918291820190565b0390a160015f8051602061131083398151915255005b60405162461bcd60e51b815260206004820152600e60248201526d2b269d103737ba1039b2b63632b960911b6044820152606490fd5b34610dca575f366003190112610dca5760206040516127108152f35b34610dca576040366003190112610dca57611021611051565b6001600160a01b03165f90815260046020526040902080546024359190821015610dca57602091610f0491611067565b600435906001600160a01b0382168203610dca57565b805482101561107c575f5260205f2001905f90565b634e487b7160e01b5f52603260045260245ffd5b60206040818301928281528451809452019201905f5b8181106110b35750505090565b82518452602093840193909201916001016110a6565b156110d057565b60405162461bcd60e51b815260206004820152600e60248201526d564d3a206e6f742061637469766560901b6044820152606490fd5b91908203918211610dce57565b610140810190811067ffffffffffffffff82111761113057604052565b634e487b7160e01b5f52604160045260245ffd5b90601f8019910116810190811067ffffffffffffffff82111761113057604052565b8054680100000000000000008110156111305761118891600182018155611067565b819291549060031b91821b915f19901b1916179055565b5f198114610dce5760010190565b67ffffffffffffffff81116111305760051b60200190565b805182101561107c5760209160051b010190565b5f52600360205260405f2060038101549081156112195760040154670de0b6b3a7640000810290808204670de0b6b3a76400001490151715610dce570490565b50505f90565b60025f8051602061131083398151915254146112485760025f8051602061131083398151915255565b633ee5aeb560e01b5f5260045ffd5b6040516323b872dd60e01b5f9081526001600160a01b039384166004529290931660245260449390935260209060648180865af19060015f51148216156112c8575b6040525f606052156112a85750565b635274afe760e01b5f9081526001600160a01b0391909116600452602490fd5b9060018115166112e057823b15153d15161690611299565b503d5f823e3d90fd5b5f546001600160a01b031633036112fc57565b63118cdaa760e01b5f523360045260245ffdfe9b779b17422d0df92223018b32b4d1fa46e071723d6817e2486d003becc55f00a26469706673582212202c8479499796faa26acb50eea4deacb557886e0cd63e8912274cb185685b153f64736f6c634300081a0033",
  "linkReferences": {},
  "deployedLinkReferences": {}
}