{
  "_format": "hh-sol-artifact-1",
  "contractName": "WikiRealYieldLP",
  "sourceName": "src/WikiRealYieldLP.sol",
  "abi": [
    {
      "inputs": [
        {
          "internalType": "address",
          "name": "_owner",
          "type": "address"
        },
        {
          "internalType": "address",
          "name": "_usdc",
          "type": "address"
        },
        {
          "internalType": "address",
          "name": "_revenueSplitter",
          "type": "address"
        }
      ],
      "stateMutability": "nonpayable",
      "type": "constructor"
    },
    {
      "inputs": [
        {
          "internalType": "address",
          "name": "owner",
          "type": "address"
        }
      ],
      "name": "OwnableInvalidOwner",
      "type": "error"
    },
    {
      "inputs": [
        {
          "internalType": "address",
          "name": "account",
          "type": "address"
        }
      ],
      "name": "OwnableUnauthorizedAccount",
      "type": "error"
    },
    {
      "inputs": [],
      "name": "ReentrancyGuardReentrantCall",
      "type": "error"
    },
    {
      "inputs": [
        {
          "internalType": "address",
          "name": "token",
          "type": "address"
        }
      ],
      "name": "SafeERC20FailedOperation",
      "type": "error"
    },
    {
      "anonymous": false,
      "inputs": [
        {
          "indexed": true,
          "internalType": "address",
          "name": "lp",
          "type": "address"
        },
        {
          "indexed": false,
          "internalType": "uint256",
          "name": "usdc",
          "type": "uint256"
        },
        {
          "indexed": false,
          "internalType": "uint256",
          "name": "shares",
          "type": "uint256"
        }
      ],
      "name": "Deposited",
      "type": "event"
    },
    {
      "anonymous": false,
      "inputs": [
        {
          "indexed": true,
          "internalType": "address",
          "name": "lp",
          "type": "address"
        },
        {
          "indexed": false,
          "internalType": "uint256",
          "name": "usdc",
          "type": "uint256"
        }
      ],
      "name": "FeesClaimed",
      "type": "event"
    },
    {
      "anonymous": false,
      "inputs": [
        {
          "indexed": false,
          "internalType": "uint256",
          "name": "amount",
          "type": "uint256"
        },
        {
          "indexed": false,
          "internalType": "uint256",
          "name": "newAccPerShare",
          "type": "uint256"
        }
      ],
      "name": "FeesReceived",
      "type": "event"
    },
    {
      "anonymous": false,
      "inputs": [
        {
          "indexed": true,
          "internalType": "address",
          "name": "previousOwner",
          "type": "address"
        },
        {
          "indexed": true,
          "internalType": "address",
          "name": "newOwner",
          "type": "address"
        }
      ],
      "name": "OwnershipTransferStarted",
      "type": "event"
    },
    {
      "anonymous": false,
      "inputs": [
        {
          "indexed": true,
          "internalType": "address",
          "name": "previousOwner",
          "type": "address"
        },
        {
          "indexed": true,
          "internalType": "address",
          "name": "newOwner",
          "type": "address"
        }
      ],
      "name": "OwnershipTransferred",
      "type": "event"
    },
    {
      "anonymous": false,
      "inputs": [
        {
          "indexed": true,
          "internalType": "address",
          "name": "lp",
          "type": "address"
        },
        {
          "indexed": false,
          "internalType": "uint256",
          "name": "usdc",
          "type": "uint256"
        },
        {
          "indexed": false,
          "internalType": "uint256",
          "name": "shares",
          "type": "uint256"
        }
      ],
      "name": "Withdrawn",
      "type": "event"
    },
    {
      "inputs": [],
      "name": "MIN_DEPOSIT",
      "outputs": [
        {
          "internalType": "uint256",
          "name": "",
          "type": "uint256"
        }
      ],
      "stateMutability": "view",
      "type": "function"
    },
    {
      "inputs": [],
      "name": "PRECISION",
      "outputs": [
        {
          "internalType": "uint256",
          "name": "",
          "type": "uint256"
        }
      ],
      "stateMutability": "view",
      "type": "function"
    },
    {
      "inputs": [],
      "name": "USDC",
      "outputs": [
        {
          "internalType": "contract IERC20",
          "name": "",
          "type": "address"
        }
      ],
      "stateMutability": "view",
      "type": "function"
    },
    {
      "inputs": [],
      "name": "acceptOwnership",
      "outputs": [],
      "stateMutability": "nonpayable",
      "type": "function"
    },
    {
      "inputs": [],
      "name": "claimFees",
      "outputs": [
        {
          "internalType": "uint256",
          "name": "claimed",
          "type": "uint256"
        }
      ],
      "stateMutability": "nonpayable",
      "type": "function"
    },
    {
      "inputs": [
        {
          "internalType": "uint256",
          "name": "usdcAmount",
          "type": "uint256"
        }
      ],
      "name": "deposit",
      "outputs": [
        {
          "internalType": "uint256",
          "name": "shares",
          "type": "uint256"
        }
      ],
      "stateMutability": "nonpayable",
      "type": "function"
    },
    {
      "inputs": [],
      "name": "feeSplitBps",
      "outputs": [
        {
          "internalType": "uint256",
          "name": "",
          "type": "uint256"
        }
      ],
      "stateMutability": "view",
      "type": "function"
    },
    {
      "inputs": [
        {
          "internalType": "address",
          "name": "lp",
          "type": "address"
        }
      ],
      "name": "getLPPosition",
      "outputs": [
        {
          "internalType": "uint256",
          "name": "shares",
          "type": "uint256"
        },
        {
          "internalType": "uint256",
          "name": "usdcValue",
          "type": "uint256"
        },
        {
          "internalType": "uint256",
          "name": "pendingFees",
          "type": "uint256"
        },
        {
          "internalType": "uint256",
          "name": "totalClaimed",
          "type": "uint256"
        },
        {
          "internalType": "uint256",
          "name": "shareOfPool",
          "type": "uint256"
        },
        {
          "internalType": "uint256",
          "name": "estimatedAPY",
          "type": "uint256"
        }
      ],
      "stateMutability": "view",
      "type": "function"
    },
    {
      "inputs": [],
      "name": "getVaultStats",
      "outputs": [
        {
          "internalType": "uint256",
          "name": "totalAssets",
          "type": "uint256"
        },
        {
          "internalType": "uint256",
          "name": "totalShares",
          "type": "uint256"
        },
        {
          "internalType": "uint256",
          "name": "totalFeesReceived",
          "type": "uint256"
        },
        {
          "internalType": "uint256",
          "name": "totalFeesPaid",
          "type": "uint256"
        },
        {
          "internalType": "uint256",
          "name": "utilizationBps",
          "type": "uint256"
        },
        {
          "internalType": "uint256",
          "name": "estimatedAPYBps",
          "type": "uint256"
        }
      ],
      "stateMutability": "view",
      "type": "function"
    },
    {
      "inputs": [
        {
          "internalType": "address",
          "name": "",
          "type": "address"
        }
      ],
      "name": "isLP",
      "outputs": [
        {
          "internalType": "bool",
          "name": "",
          "type": "bool"
        }
      ],
      "stateMutability": "view",
      "type": "function"
    },
    {
      "inputs": [
        {
          "internalType": "uint256",
          "name": "",
          "type": "uint256"
        }
      ],
      "name": "lps",
      "outputs": [
        {
          "internalType": "address",
          "name": "",
          "type": "address"
        }
      ],
      "stateMutability": "view",
      "type": "function"
    },
    {
      "inputs": [],
      "name": "owner",
      "outputs": [
        {
          "internalType": "address",
          "name": "",
          "type": "address"
        }
      ],
      "stateMutability": "view",
      "type": "function"
    },
    {
      "inputs": [],
      "name": "pendingOwner",
      "outputs": [
        {
          "internalType": "address",
          "name": "",
          "type": "address"
        }
      ],
      "stateMutability": "view",
      "type": "function"
    },
    {
      "inputs": [],
      "name": "perpContract",
      "outputs": [
        {
          "internalType": "address",
          "name": "",
          "type": "address"
        }
      ],
      "stateMutability": "view",
      "type": "function"
    },
    {
      "inputs": [
        {
          "internalType": "address",
          "name": "",
          "type": "address"
        }
      ],
      "name": "positions",
      "outputs": [
        {
          "internalType": "uint256",
          "name": "shares",
          "type": "uint256"
        },
        {
          "internalType": "uint256",
          "name": "feeDebt",
          "type": "uint256"
        },
        {
          "internalType": "uint256",
          "name": "pendingFees",
          "type": "uint256"
        },
        {
          "internalType": "uint256",
          "name": "totalClaimed",
          "type": "uint256"
        },
        {
          "internalType": "uint256",
          "name": "depositTime",
          "type": "uint256"
        }
      ],
      "stateMutability": "view",
      "type": "function"
    },
    {
      "inputs": [
        {
          "internalType": "uint256",
          "name": "amount",
          "type": "uint256"
        }
      ],
      "name": "receiveFees",
      "outputs": [],
      "stateMutability": "nonpayable",
      "type": "function"
    },
    {
      "inputs": [],
      "name": "renounceOwnership",
      "outputs": [],
      "stateMutability": "nonpayable",
      "type": "function"
    },
    {
      "inputs": [],
      "name": "revenueSplitter",
      "outputs": [
        {
          "internalType": "address",
          "name": "",
          "type": "address"
        }
      ],
      "stateMutability": "view",
      "type": "function"
    },
    {
      "inputs": [
        {
          "internalType": "uint256",
          "name": "bps",
          "type": "uint256"
        }
      ],
      "name": "setFeeSplitBps",
      "outputs": [],
      "stateMutability": "nonpayable",
      "type": "function"
    },
    {
      "inputs": [
        {
          "internalType": "address",
          "name": "r",
          "type": "address"
        }
      ],
      "name": "setRevenueSplitter",
      "outputs": [],
      "stateMutability": "nonpayable",
      "type": "function"
    },
    {
      "inputs": [
        {
          "internalType": "address",
          "name": "newOwner",
          "type": "address"
        }
      ],
      "name": "transferOwnership",
      "outputs": [],
      "stateMutability": "nonpayable",
      "type": "function"
    },
    {
      "inputs": [],
      "name": "vault",
      "outputs": [
        {
          "internalType": "uint256",
          "name": "totalAssets",
          "type": "uint256"
        },
        {
          "internalType": "uint256",
          "name": "totalShares",
          "type": "uint256"
        },
        {
          "internalType": "uint256",
          "name": "accFeePerShare",
          "type": "uint256"
        },
        {
          "internalType": "uint256",
          "name": "lastFeeUpdate",
          "type": "uint256"
        },
        {
          "internalType": "uint256",
          "name": "totalFeesReceived",
          "type": "uint256"
        },
        {
          "internalType": "uint256",
          "name": "totalFeesPaid",
          "type": "uint256"
        },
        {
          "internalType": "uint256",
          "name": "utilizationBps",
          "type": "uint256"
        }
      ],
      "stateMutability": "view",
      "type": "function"
    },
    {
      "inputs": [
        {
          "internalType": "uint256",
          "name": "shares",
          "type": "uint256"
        }
      ],
      "name": "withdraw",
      "outputs": [],
      "stateMutability": "nonpayable",
      "type": "function"
    }
  ],
  "bytecode": "0x60a03461015557601f6111dc38819003918201601f19168301916001600160401b0383118484101761015957808492606094604052833981010312610155576100478161016d565b61005f60406100586020850161016d565b930161016d565b6001600160a01b0390911691821561014257600180546001600160a01b03199081169091555f80549182168517815560405194916001600160a01b0316907f8be0079c531659141344cd1fd0a4f28419497f9722a3daafe3b4186f6b6457e09080a360017f9b779b17422d0df92223018b32b4d1fa46e071723d6817e2486d003becc55f0055611388600e556001600160a01b03908116608052600c80546001600160a01b0319169290911691909117905561105a908161018282396080518181816102cb015281816103f1015281816108c701528181610b7a0152610c880152f35b631e4fbdf760e01b5f525f60045260245ffd5b5f80fd5b634e487b7160e01b5f52604160045260245ffd5b51906001600160a01b03821682036101555756fe60806040526004361015610011575f80fd5b5f3560e01c80630420592e14610c4457806309a4fce414610c275780632e1a7d4d14610ad9578063513f04c414610aaf57806355f5751014610a475780636b9cbd7a14610a1f578063715018a6146109bc57806379ba5097146109375780637df0f767146108f657806389a30271146108b25780638da5cb5b1461088b5780639d2b86f614610863578063a59aa5a614610790578063a84b3aaa146105ce578063aaf5eb68146105ac578063b6b55f25146103b9578063c785d4e71461036f578063d294f09314610265578063dcc1514714610223578063e1e158a514610205578063e30c3978146101dd578063f2fde38b1461016a5763fbfa77cf14610116575f80fd5b34610166575f3660031901126101665760e0600254600354600454600554600654906007549260085494604051968752602087015260408601526060850152608084015260a083015260c0820152f35b5f80fd5b34610166576020366003190112610166576004356001600160a01b0381169081900361016657610198610ff1565b600180546001600160a01b031916821790555f80546001600160a01b0316907f38d16b8cac22d99fc7c124b9cd0de2d3fa1faef420bfe791d8c362d765e227009080a3005b34610166575f366003190112610166576001546040516001600160a01b039091168152602090f35b34610166575f3660031901126101665760206040516305f5e1008152f35b3461016657602036600319011261016657600435600a548110156101665761024c602091610ded565b905460405160039290921b1c6001600160a01b03168152f35b34610166575f3660031901126101665761027d610e64565b61028633610f2e565b335f52600960205260405f20600281018054908115610333576020925f60039255016102b3828254610e4a565b90556102c181600754610e4a565b6007556102ef81337f0000000000000000000000000000000000000000000000000000000000000000610f99565b6040518181527f9493e5bbe4e8e0ac67284469a2d677403d0378a85a59e341d3abc433d0d9a209833392a260015f8051602061100583398151915255604051908152f35b60405162461bcd60e51b815260206004820152601460248201527352593a206e6f206665657320746f20636c61696d60601b6044820152606490fd5b34610166576020366003190112610166576004356001600160a01b038116908190036101665761039d610ff1565b6bffffffffffffffffffffffff60a01b600c541617600c555f80f35b34610166576020366003190112610166576004356103d5610e64565b6305f5e100811061056e576103e933610f2e565b6104158130337f0000000000000000000000000000000000000000000000000000000000000000610e9c565b6003548061054e576104388280925b61043085600254610e4a565b600255610e4a565b600355335f52600960205260405f20670de0b6b3a764000061046a61045e848454610e4a565b80845560045490610e19565b046001820155600442910155335f52600b60205260ff60405f205416156104d9575b60209160405190815281838201527f73a19dd210f1a7f902193214c0ee91dd35ee5b4d920cba8d519eca65a7b488ca60403392a260015f8051602061100583398151915255604051908152f35b335f52600b60205260405f20600160ff19825416179055600a54916801000000000000000083101561053a5761051783600160209501600a55610ded565b81546001600160a01b0360039290921b91821b19163390911b179055915061048c565b634e487b7160e01b5f52604160045260245ffd5b61043861056761055e8385610e19565b60025490610e2c565b8092610424565b60405162461bcd60e51b8152602060048201526016602482015275052593a2062656c6f77206d696e696d756d20243130360541b6044820152606490fd5b34610166575f366003190112610166576020604051670de0b6b3a76400008152f35b34610166576020366003190112610166576004356001600160a01b03811690819003610166575f905f52600960205260405f208054906003549283151593845f14610789576106288161062360025487610e19565b610e2c565b945b156107825761271084029084820461271014851517156107515761064d91610e2c565b600361068b670de0b6b3a764000061066760045488610e19565b0460028601549060018701548082115f146107795761068591610e57565b90610e4a565b93015461069a60055442610e57565b938415158061076e575b80610765575b6106e7575b6106e39450604051968796879260a094919796959260c0850198855260208501526040840152606083015260808201520152565b0390f35b9250926006546201518081029080820462015180149015171561075157600182018092116107515761071c9161055e91610e2c565b9261016d84029380850461016d1481151715610751576237b1d002938085046127101490151715610751576106e393926106af565b634e487b7160e01b5f52601160045260245ffd5b508515156106aa565b5060025415156106a4565b50505f90610e4a565b505f61064d565b5f9461062a565b34610166575f3660031901126101665760025460035490600654600754906008546107bd60055442610e57565b600181018091116107515762015180830290838204620151801484151715610751576107e891610e2c565b9284156108575761016d84029380850461016d1481151715610751576237b1d00293808504612710149015171561075157610826856106e395610e2c565b925b604051968796879260a094919796959260c0850198855260208501526040840152606083015260808201520152565b6106e393505f92610828565b34610166575f36600319011261016657600c546040516001600160a01b039091168152602090f35b34610166575f366003190112610166575f546040516001600160a01b039091168152602090f35b34610166575f366003190112610166576040517f00000000000000000000000000000000000000000000000000000000000000006001600160a01b03168152602090f35b34610166576020366003190112610166576004356001600160a01b03811690819003610166575f52600b602052602060ff60405f2054166040519015158152f35b34610166575f36600319011261016657600154336001600160a01b03909116036109a957600180546001600160a01b03199081169091555f805433928116831782556001600160a01b0316907f8be0079c531659141344cd1fd0a4f28419497f9722a3daafe3b4186f6b6457e09080a3005b63118cdaa760e01b5f523360045260245ffd5b34610166575f366003190112610166576109d4610ff1565b600180546001600160a01b03199081169091555f80549182168155906001600160a01b03167f8be0079c531659141344cd1fd0a4f28419497f9722a3daafe3b4186f6b6457e08280a3005b34610166575f36600319011261016657600d546040516001600160a01b039091168152602090f35b34610166576020366003190112610166576004356001600160a01b03811690819003610166575f52600960205260a060405f20805490600181015490600281015460046003830154920154926040519485526020850152604084015260608301526080820152f35b3461016657602036600319011261016657600435610acb610ff1565b612710811161016657600e55005b3461016657602036600319011261016657600435610af5610e64565b335f52600960205260405f209080825410610be257610b1333610f2e565b610b2b610b2260025483610e19565b60035490610e2c565b916001670de0b6b3a7640000610b51610b45858554610e57565b80855560045490610e19565b04910155610b6181600354610e57565b600355610b7082600254610e57565b600255610b9e82337f0000000000000000000000000000000000000000000000000000000000000000610f99565b60405191825260208201527f92ccf450a286a957af52509bc1c9939d1a6a481783e142e41e2499f0bb66ebc660403392a260015f8051602061100583398151915255005b60405162461bcd60e51b815260206004820152601760248201527f52593a20696e73756666696369656e74207368617265730000000000000000006044820152606490fd5b34610166575f366003190112610166576020600e54604051908152f35b3461016657602036600319011261016657600435610c60610e64565b600c546001600160a01b031633148015610dda575b15610da2578015610d6d57610cac8130337f0000000000000000000000000000000000000000000000000000000000000000610e9c565b60035480610d0d575b7f0299314386021feac38b734d748626da8e75d6abb4e6a897c0f9c8f23ff42715604083610ce581600654610e4a565b6006554260055560045482519182526020820152a160015f8051602061100583398151915255005b90670de0b6b3a7640000810290808204670de0b6b3a76400000361075157610d63610d5b7f0299314386021feac38b734d748626da8e75d6abb4e6a897c0f9c8f23ff4271594604094610e2c565b600454610e4a565b6004559150610cb5565b60405162461bcd60e51b815260206004820152600d60248201526c52593a207a65726f206665657360981b6044820152606490fd5b60405162461bcd60e51b815260206004820152601060248201526f292c9d103737ba1039b83634ba3a32b960811b6044820152606490fd5b505f546001600160a01b03163314610c75565b600a54811015610e0557600a5f5260205f2001905f90565b634e487b7160e01b5f52603260045260245ffd5b8181029291811591840414171561075157565b8115610e36570490565b634e487b7160e01b5f52601260045260245ffd5b9190820180921161075157565b9190820391821161075157565b60025f805160206110058339815191525414610e8d5760025f8051602061100583398151915255565b633ee5aeb560e01b5f5260045ffd5b6040516323b872dd60e01b5f9081526001600160a01b039384166004529290931660245260449390935260209060648180865af19060015f5114821615610f0d575b6040525f60605215610eed5750565b635274afe760e01b5f9081526001600160a01b0391909116600452602490fd5b906001811516610f2557823b15153d15161690610ede565b503d5f823e3d90fd5b6001600160a01b03165f90815260096020526040902080548015610f9557610f62670de0b6b3a76400009160045490610e19565b049060018101908154808411610f7757505055565b6002610f86610f909286610e57565b9201918254610e4a565b905555565b5050565b916040519163a9059cbb60e01b5f5260018060a01b031660045260245260205f60448180865af19060015f5114821615610fd9575b60405215610eed5750565b906001811516610f2557823b15153d15161690610fce565b5f546001600160a01b031633036109a95756fe9b779b17422d0df92223018b32b4d1fa46e071723d6817e2486d003becc55f00a26469706673582212208b84211e8859d9fd7e0bbd48b61ab43ee6ed5f76d47d3a8692a208d6868e195064736f6c634300081a0033",
  "linkReferences": {},
  "deployedLinkReferences": {}
}