{
  "_format": "hh-sol-artifact-1",
  "contractName": "WikiOnChainAnalytics",
  "sourceName": "src/WikiOnChainAnalytics.sol",
  "abi": [
    {
      "inputs": [
        {
          "internalType": "address",
          "name": "_owner",
          "type": "address"
        }
      ],
      "stateMutability": "nonpayable",
      "type": "constructor"
    },
    {
      "inputs": [
        {
          "internalType": "address",
          "name": "owner",
          "type": "address"
        }
      ],
      "name": "OwnableInvalidOwner",
      "type": "error"
    },
    {
      "inputs": [
        {
          "internalType": "address",
          "name": "account",
          "type": "address"
        }
      ],
      "name": "OwnableUnauthorizedAccount",
      "type": "error"
    },
    {
      "anonymous": false,
      "inputs": [
        {
          "indexed": false,
          "internalType": "uint256",
          "name": "day",
          "type": "uint256"
        },
        {
          "indexed": false,
          "internalType": "uint256",
          "name": "volume",
          "type": "uint256"
        },
        {
          "indexed": false,
          "internalType": "uint256",
          "name": "fees",
          "type": "uint256"
        }
      ],
      "name": "DailySnapshotSaved",
      "type": "event"
    },
    {
      "anonymous": false,
      "inputs": [
        {
          "indexed": true,
          "internalType": "address",
          "name": "previousOwner",
          "type": "address"
        },
        {
          "indexed": true,
          "internalType": "address",
          "name": "newOwner",
          "type": "address"
        }
      ],
      "name": "OwnershipTransferStarted",
      "type": "event"
    },
    {
      "anonymous": false,
      "inputs": [
        {
          "indexed": true,
          "internalType": "address",
          "name": "previousOwner",
          "type": "address"
        },
        {
          "indexed": true,
          "internalType": "address",
          "name": "newOwner",
          "type": "address"
        }
      ],
      "name": "OwnershipTransferred",
      "type": "event"
    },
    {
      "anonymous": false,
      "inputs": [
        {
          "indexed": false,
          "internalType": "uint256",
          "name": "marketId",
          "type": "uint256"
        },
        {
          "indexed": false,
          "internalType": "uint256",
          "name": "volume",
          "type": "uint256"
        },
        {
          "indexed": false,
          "internalType": "uint256",
          "name": "fees",
          "type": "uint256"
        }
      ],
      "name": "VolumeRecorded",
      "type": "event"
    },
    {
      "inputs": [],
      "name": "acceptOwnership",
      "outputs": [],
      "stateMutability": "nonpayable",
      "type": "function"
    },
    {
      "inputs": [
        {
          "internalType": "uint256",
          "name": "",
          "type": "uint256"
        }
      ],
      "name": "dailyHistory",
      "outputs": [
        {
          "internalType": "uint256",
          "name": "day",
          "type": "uint256"
        },
        {
          "internalType": "uint256",
          "name": "volume",
          "type": "uint256"
        },
        {
          "internalType": "uint256",
          "name": "fees",
          "type": "uint256"
        },
        {
          "internalType": "uint256",
          "name": "trades",
          "type": "uint256"
        },
        {
          "internalType": "uint256",
          "name": "newTraders",
          "type": "uint256"
        },
        {
          "internalType": "uint256",
          "name": "liquidations",
          "type": "uint256"
        },
        {
          "internalType": "uint256",
          "name": "propChallenges",
          "type": "uint256"
        },
        {
          "internalType": "uint256",
          "name": "propPassed",
          "type": "uint256"
        }
      ],
      "stateMutability": "view",
      "type": "function"
    },
    {
      "inputs": [],
      "name": "fees24h",
      "outputs": [
        {
          "internalType": "uint256",
          "name": "",
          "type": "uint256"
        }
      ],
      "stateMutability": "view",
      "type": "function"
    },
    {
      "inputs": [],
      "name": "get24hFees",
      "outputs": [
        {
          "internalType": "uint256",
          "name": "",
          "type": "uint256"
        }
      ],
      "stateMutability": "view",
      "type": "function"
    },
    {
      "inputs": [],
      "name": "get24hVolume",
      "outputs": [
        {
          "internalType": "uint256",
          "name": "",
          "type": "uint256"
        }
      ],
      "stateMutability": "view",
      "type": "function"
    },
    {
      "inputs": [],
      "name": "getAnnualisedFeeRunRate",
      "outputs": [
        {
          "internalType": "uint256",
          "name": "",
          "type": "uint256"
        }
      ],
      "stateMutability": "view",
      "type": "function"
    },
    {
      "inputs": [],
      "name": "getCumulativeFees",
      "outputs": [
        {
          "internalType": "uint256",
          "name": "",
          "type": "uint256"
        }
      ],
      "stateMutability": "view",
      "type": "function"
    },
    {
      "inputs": [],
      "name": "getCumulativeVolume",
      "outputs": [
        {
          "internalType": "uint256",
          "name": "",
          "type": "uint256"
        }
      ],
      "stateMutability": "view",
      "type": "function"
    },
    {
      "inputs": [
        {
          "internalType": "uint256",
          "name": "numDays",
          "type": "uint256"
        }
      ],
      "name": "getDailyHistory",
      "outputs": [
        {
          "components": [
            {
              "internalType": "uint256",
              "name": "day",
              "type": "uint256"
            },
            {
              "internalType": "uint256",
              "name": "volume",
              "type": "uint256"
            },
            {
              "internalType": "uint256",
              "name": "fees",
              "type": "uint256"
            },
            {
              "internalType": "uint256",
              "name": "trades",
              "type": "uint256"
            },
            {
              "internalType": "uint256",
              "name": "newTraders",
              "type": "uint256"
            },
            {
              "internalType": "uint256",
              "name": "liquidations",
              "type": "uint256"
            },
            {
              "internalType": "uint256",
              "name": "propChallenges",
              "type": "uint256"
            },
            {
              "internalType": "uint256",
              "name": "propPassed",
              "type": "uint256"
            }
          ],
          "internalType": "struct WikiOnChainAnalytics.DailyStats[]",
          "name": "history",
          "type": "tuple[]"
        }
      ],
      "stateMutability": "view",
      "type": "function"
    },
    {
      "inputs": [
        {
          "internalType": "uint256",
          "name": "marketId",
          "type": "uint256"
        }
      ],
      "name": "getMarketStats",
      "outputs": [
        {
          "components": [
            {
              "internalType": "uint256",
              "name": "volume24h",
              "type": "uint256"
            },
            {
              "internalType": "uint256",
              "name": "volumeAllTime",
              "type": "uint256"
            },
            {
              "internalType": "uint256",
              "name": "openInterest",
              "type": "uint256"
            },
            {
              "internalType": "int256",
              "name": "fundingRate8h",
              "type": "int256"
            },
            {
              "internalType": "uint256",
              "name": "liquidations24h",
              "type": "uint256"
            },
            {
              "internalType": "uint256",
              "name": "liquidationsAllTime",
              "type": "uint256"
            },
            {
              "internalType": "uint256",
              "name": "uniqueTraders24h",
              "type": "uint256"
            },
            {
              "internalType": "uint256",
              "name": "lastUpdate",
              "type": "uint256"
            }
          ],
          "internalType": "struct WikiOnChainAnalytics.MarketStats",
          "name": "",
          "type": "tuple"
        }
      ],
      "stateMutability": "view",
      "type": "function"
    },
    {
      "inputs": [],
      "name": "getProtocolSummary",
      "outputs": [
        {
          "internalType": "uint256",
          "name": "vol24h",
          "type": "uint256"
        },
        {
          "internalType": "uint256",
          "name": "fees24hOut",
          "type": "uint256"
        },
        {
          "internalType": "uint256",
          "name": "volAllTime",
          "type": "uint256"
        },
        {
          "internalType": "uint256",
          "name": "feesAllTime",
          "type": "uint256"
        },
        {
          "internalType": "uint256",
          "name": "totalTrades",
          "type": "uint256"
        },
        {
          "internalType": "uint256",
          "name": "uniqueTraders",
          "type": "uint256"
        },
        {
          "internalType": "uint256",
          "name": "totalLiqs",
          "type": "uint256"
        }
      ],
      "stateMutability": "view",
      "type": "function"
    },
    {
      "inputs": [
        {
          "internalType": "address",
          "name": "",
          "type": "address"
        }
      ],
      "name": "isKnownTrader",
      "outputs": [
        {
          "internalType": "bool",
          "name": "",
          "type": "bool"
        }
      ],
      "stateMutability": "view",
      "type": "function"
    },
    {
      "inputs": [
        {
          "internalType": "uint256",
          "name": "",
          "type": "uint256"
        }
      ],
      "name": "marketStats",
      "outputs": [
        {
          "internalType": "uint256",
          "name": "volume24h",
          "type": "uint256"
        },
        {
          "internalType": "uint256",
          "name": "volumeAllTime",
          "type": "uint256"
        },
        {
          "internalType": "uint256",
          "name": "openInterest",
          "type": "uint256"
        },
        {
          "internalType": "int256",
          "name": "fundingRate8h",
          "type": "int256"
        },
        {
          "internalType": "uint256",
          "name": "liquidations24h",
          "type": "uint256"
        },
        {
          "internalType": "uint256",
          "name": "liquidationsAllTime",
          "type": "uint256"
        },
        {
          "internalType": "uint256",
          "name": "uniqueTraders24h",
          "type": "uint256"
        },
        {
          "internalType": "uint256",
          "name": "lastUpdate",
          "type": "uint256"
        }
      ],
      "stateMutability": "view",
      "type": "function"
    },
    {
      "inputs": [],
      "name": "owner",
      "outputs": [
        {
          "internalType": "address",
          "name": "",
          "type": "address"
        }
      ],
      "stateMutability": "view",
      "type": "function"
    },
    {
      "inputs": [],
      "name": "pendingOwner",
      "outputs": [
        {
          "internalType": "address",
          "name": "",
          "type": "address"
        }
      ],
      "stateMutability": "view",
      "type": "function"
    },
    {
      "inputs": [
        {
          "internalType": "address",
          "name": "trader",
          "type": "address"
        },
        {
          "internalType": "uint256",
          "name": "marketId",
          "type": "uint256"
        },
        {
          "internalType": "uint256",
          "name": "notional",
          "type": "uint256"
        },
        {
          "internalType": "uint256",
          "name": "fee",
          "type": "uint256"
        },
        {
          "internalType": "bool",
          "name": "isLiquidation",
          "type": "bool"
        }
      ],
      "name": "recordTrade",
      "outputs": [],
      "stateMutability": "nonpayable",
      "type": "function"
    },
    {
      "inputs": [
        {
          "internalType": "uint256",
          "name": "",
          "type": "uint256"
        }
      ],
      "name": "recordedDays",
      "outputs": [
        {
          "internalType": "uint256",
          "name": "",
          "type": "uint256"
        }
      ],
      "stateMutability": "view",
      "type": "function"
    },
    {
      "inputs": [
        {
          "internalType": "address",
          "name": "",
          "type": "address"
        }
      ],
      "name": "recorders",
      "outputs": [
        {
          "internalType": "bool",
          "name": "",
          "type": "bool"
        }
      ],
      "stateMutability": "view",
      "type": "function"
    },
    {
      "inputs": [],
      "name": "renounceOwnership",
      "outputs": [],
      "stateMutability": "nonpayable",
      "type": "function"
    },
    {
      "inputs": [
        {
          "internalType": "address",
          "name": "r",
          "type": "address"
        },
        {
          "internalType": "bool",
          "name": "on",
          "type": "bool"
        }
      ],
      "name": "setRecorder",
      "outputs": [],
      "stateMutability": "nonpayable",
      "type": "function"
    },
    {
      "inputs": [],
      "name": "totalFeesAllTime",
      "outputs": [
        {
          "internalType": "uint256",
          "name": "",
          "type": "uint256"
        }
      ],
      "stateMutability": "view",
      "type": "function"
    },
    {
      "inputs": [],
      "name": "totalLiquidationsAllTime",
      "outputs": [
        {
          "internalType": "uint256",
          "name": "",
          "type": "uint256"
        }
      ],
      "stateMutability": "view",
      "type": "function"
    },
    {
      "inputs": [],
      "name": "totalTradesAllTime",
      "outputs": [
        {
          "internalType": "uint256",
          "name": "",
          "type": "uint256"
        }
      ],
      "stateMutability": "view",
      "type": "function"
    },
    {
      "inputs": [],
      "name": "totalUniqueTraders",
      "outputs": [
        {
          "internalType": "uint256",
          "name": "",
          "type": "uint256"
        }
      ],
      "stateMutability": "view",
      "type": "function"
    },
    {
      "inputs": [],
      "name": "totalVolumeAllTime",
      "outputs": [
        {
          "internalType": "uint256",
          "name": "",
          "type": "uint256"
        }
      ],
      "stateMutability": "view",
      "type": "function"
    },
    {
      "inputs": [
        {
          "internalType": "address",
          "name": "",
          "type": "address"
        }
      ],
      "name": "traderFirstSeen",
      "outputs": [
        {
          "internalType": "uint256",
          "name": "",
          "type": "uint256"
        }
      ],
      "stateMutability": "view",
      "type": "function"
    },
    {
      "inputs": [],
      "name": "trades24h",
      "outputs": [
        {
          "internalType": "uint256",
          "name": "",
          "type": "uint256"
        }
      ],
      "stateMutability": "view",
      "type": "function"
    },
    {
      "inputs": [
        {
          "internalType": "address",
          "name": "newOwner",
          "type": "address"
        }
      ],
      "name": "transferOwnership",
      "outputs": [],
      "stateMutability": "nonpayable",
      "type": "function"
    },
    {
      "inputs": [
        {
          "internalType": "uint256",
          "name": "marketId",
          "type": "uint256"
        },
        {
          "internalType": "int256",
          "name": "rate8h",
          "type": "int256"
        }
      ],
      "name": "updateFundingRate",
      "outputs": [],
      "stateMutability": "nonpayable",
      "type": "function"
    },
    {
      "inputs": [
        {
          "internalType": "uint256",
          "name": "marketId",
          "type": "uint256"
        },
        {
          "internalType": "uint256",
          "name": "oi",
          "type": "uint256"
        }
      ],
      "name": "updateOpenInterest",
      "outputs": [],
      "stateMutability": "nonpayable",
      "type": "function"
    },
    {
      "inputs": [],
      "name": "volume24h",
      "outputs": [
        {
          "internalType": "uint256",
          "name": "",
          "type": "uint256"
        }
      ],
      "stateMutability": "view",
      "type": "function"
    },
    {
      "inputs": [],
      "name": "windowStartTs",
      "outputs": [
        {
          "internalType": "uint256",
          "name": "",
          "type": "uint256"
        }
      ],
      "stateMutability": "view",
      "type": "function"
    }
  ],
  "bytecode": "0x6080346100e457601f61108e38819003918201601f19168301916001600160401b038311848410176100e8578084926020946040528339810103126100e457516001600160a01b038116908190036100e45780156100d157600180546001600160a01b03199081169091555f805491821683178155604051929182916001600160a01b03909116907f8be0079c531659141344cd1fd0a4f28419497f9722a3daafe3b4186f6b6457e09080a35f52601060205260405f20600160ff1982541617905542600a55610f9190816100fd8239f35b631e4fbdf760e01b5f525f60045260245ffd5b5f80fd5b634e487b7160e01b5f52604160045260245ffdfe6080806040526004361015610012575f80fd5b5f3560e01c908163062ccecf14610cd657508063140b9d8414610afa57806325baaae214610c8c57806337dac441146106855780634b669c0914610c15578063509542f614610bd85780635183f101146105cf57806358057fe514610b17578063613e0f5914610afa5780636b39349f14610aa75780636c5143f814610a57578063701ba2aa14610a3a578063715018a6146109d757806379ba50971461095257806381fabe97146109155780638698d38b146108f85780638da5cb5b146108d157806397762b9e1461089957806397a522fa146106da5780639f03529d146106a2578063a548c07914610685578063b74c6ef814610668578063b9c0e1bb14610626578063bc5a8573146105ec578063c23a630c14610609578063c393800a146105ec578063d01ba6a3146105cf578063e30c3978146105a7578063e84ae7991461058a578063f2fde38b14610518578063fad9ed3c146104f65763fc0cb9e51461017c575f80fd5b346104f25760a03660031901126104f257610195610d49565b602435604435906064356084359384151585036104f257335f5260106020526101c460ff60405f205416610d8b565b6001600160a01b03165f818152600e602052604090205460ff16156104ba575b506101f183600254610e69565b60025561020081600354610e69565b6003558361020f600454610f3a565b6004556104a7575b600a5462015180810180821161049357421015610301575b506102d6907f781ba4817afcaa38d6f8630f43d02cadd63e54ff37cede8606142233f48b88e29461026285600754610e69565b60075561027182600854610e69565b60085561027f600954610f3a565b600955835f52600b60205260405f209061029a868354610e69565b8255600182016102ab878254610e69565b90554260078301556102db575b50604051938493846040919493926060820195825260208201520152565b0390a1005b806004600592016102ec8154610f3a565b9055016102f98154610f3a565b90555f6102b8565b620151809004805f52600c60205260405f2054156103f4575b907f781ba4817afcaa38d6f8630f43d02cadd63e54ff37cede8606142233f48b88e2947fabce52f49b47feca330f34d22751212b433047c43360a32be19ab336a5b71e736102d693600754815f52600c60205261037f600160405f2001918254610e69565b9055600854815f52600c60205261039e600260405f2001918254610e69565b9055600954815f52600c6020526103bd600360405f2001918254610e69565b905560075460085460408051938452602084019290925290820152606090a15f6007555f6008555f60095542600a5594509061022f565b90600d54946801000000000000000086101561047f577fabce52f49b47feca330f34d22751212b433047c43360a32be19ab336a5b71e736102d6936104608860017f781ba4817afcaa38d6f8630f43d02cadd63e54ff37cede8606142233f48b88e29a01600d55610d5f565b81549060031b9083821b915f19901b191617905592935050945061031a565b634e487b7160e01b5f52604160045260245ffd5b634e487b7160e01b5f52601160045260245ffd5b6104b2600554610f3a565b600555610217565b805f52600e60205260405f20600160ff198254161790555f52600f6020524260405f20556104e9600654610f3a565b6006555f6101e4565b5f80fd5b346104f2575f3660031901126104f2576020610510610e76565b604051908152f35b346104f25760203660031901126104f257610531610d49565b610539610f48565b60018060a01b0316806bffffffffffffffffffffffff60a01b600154161760015560018060a01b035f54167f38d16b8cac22d99fc7c124b9cd0de2d3fa1faef420bfe791d8c362d765e227005f80a3005b346104f2575f3660031901126104f2576020600454604051908152f35b346104f2575f3660031901126104f2576001546040516001600160a01b039091168152602090f35b346104f2575f3660031901126104f2576020600854604051908152f35b346104f2575f3660031901126104f2576020600254604051908152f35b346104f2575f3660031901126104f2576020600a54604051908152f35b346104f25760403660031901126104f257335f52601060205261064f60ff60405f205416610d8b565b6004355f52600b602052602435600260405f2001555f80f35b346104f2575f3660031901126104f2576020600554604051908152f35b346104f2575f3660031901126104f2576020600354604051908152f35b346104f25760203660031901126104f257600435600d548110156104f2576106cb602091610d5f565b90549060031b1c604051908152f35b346104f25760203660031901126104f257600d546004358181101561089257905b61070482610e30565b6040519290601f01601f1916830167ffffffffffffffff81118482101761047f57604052808352601f1961073782610e30565b015f5b81811061087b5750505f1982019182115f5b8281106107e257846040518091602082016020835281518091526020604084019201905f5b81811061077f575050500390f35b91935091602061010060019260e0875180518352848101518584015260408101516040840152606081015160608401526080810151608084015260a081015160a084015260c081015160c0840152015160e0820152019401910191849392610771565b8161049357806107fc6107f760019387610e48565b610d5f565b90549060031b1c5f52600c60205260405f206007610818610dd7565b9180548352848101546020840152600281015460408401526003810154606084015260048101546080840152600581015460a0840152600681015460c0840152015460e08201526108698288610e55565b526108748187610e55565b500161074c565b602090610886610df8565b8282880101520161073a565b50806106fb565b346104f25760203660031901126104f2576001600160a01b036108ba610d49565b165f52600f602052602060405f2054604051908152f35b346104f2575f3660031901126104f2575f546040516001600160a01b039091168152602090f35b346104f2575f3660031901126104f2576020600654604051908152f35b346104f25760203660031901126104f2576001600160a01b03610936610d49565b165f526010602052602060ff60405f2054166040519015158152f35b346104f2575f3660031901126104f257600154336001600160a01b03909116036109c457600180546001600160a01b03199081169091555f805433928116831782556001600160a01b0316907f8be0079c531659141344cd1fd0a4f28419497f9722a3daafe3b4186f6b6457e09080a3005b63118cdaa760e01b5f523360045260245ffd5b346104f2575f3660031901126104f2576109ef610f48565b600180546001600160a01b03199081169091555f80549182168155906001600160a01b03167f8be0079c531659141344cd1fd0a4f28419497f9722a3daafe3b4186f6b6457e08280a3005b346104f2575f3660031901126104f2576020600954604051908152f35b346104f2575f3660031901126104f25760e0600754600854600254600354600454906006549260055494604051968752602087015260408601526060850152608084015260a083015260c0820152f35b346104f25760403660031901126104f257610ac0610d49565b602435908115158092036104f257610ad6610f48565b60018060a01b03165f52601060205260405f209060ff801983541691161790555f80f35b346104f2575f3660031901126104f2576020600754604051908152f35b346104f25760203660031901126104f257610b30610df8565b506004355f52600b60205261010060405f20610b4a610dd7565b8154918282526001810154602083019081526002820154604084019081526003830154606085019081526004840154916080860192835260058501549360a0870194855260e0600760068801549760c08a01988952015497019687526040519788525160208801525160408701525160608601525160808501525160a08401525160c08301525160e0820152f35b346104f25760203660031901126104f2576001600160a01b03610bf9610d49565b165f52600e602052602060ff60405f2054166040519015158152f35b346104f25760203660031901126104f2576004355f52600b60205261010060405f20805490600181015490600281015460038201546004830154906005840154926007600686015495015495604051978852602088015260408701526060860152608085015260a084015260c083015260e0820152f35b346104f25760403660031901126104f257600435335f526010602052610cb860ff60405f205416610d8b565b5f908152600b60205260409020602435600382015542600790910155005b346104f25760203660031901126104f257610100906004355f52600c60205260405f2080549060018101546002820154600383015460048401549160058501549360076006870154960154968852602088015260408701526060860152608085015260a084015260c083015260e0820152f35b600435906001600160a01b03821682036104f257565b600d54811015610d7757600d5f5260205f2001905f90565b634e487b7160e01b5f52603260045260245ffd5b15610d9257565b60405162461bcd60e51b815260206004820152601760248201527f416e616c79746963733a206e6f74207265636f726465720000000000000000006044820152606490fd5b60405190610100820182811067ffffffffffffffff82111761047f57604052565b610e00610dd7565b905f82525f60208301525f60408301525f60608301525f60808301525f60a08301525f60c08301525f60e0830152565b67ffffffffffffffff811161047f5760051b60200190565b9190820391821161049357565b8051821015610d775760209160051b010190565b9190820180921161049357565b600d5460078110610f1e57601e811015610f1657805b5f9081905f198101908111905b848310610ed65750505061016d81029080820461016d1490151715610493578115610ec2570490565b634e487b7160e01b5f52601260045260245ffd5b9091928261049357610f0d600191610ef16107f78786610e48565b90549060031b1c5f52600c602052600260405f20015490610e69565b93019190610e99565b601e90610e8c565b5060085461016d81029080820461016d14901517156104935790565b5f1981146104935760010190565b5f546001600160a01b031633036109c45756fea2646970667358221220b4e996e1405d52e62b0856eaceb98d0a57e632b59361f5ef3634cf96b86850b764736f6c634300081a0033",
  "linkReferences": {},
  "deployedLinkReferences": {}
}