{
  "_format": "hh-sol-artifact-1",
  "contractName": "WikiCircuitBreaker",
  "sourceName": "src/WikiCircuitBreaker.sol",
  "abi": [
    {
      "inputs": [
        {
          "internalType": "address",
          "name": "_owner",
          "type": "address"
        }
      ],
      "stateMutability": "nonpayable",
      "type": "constructor"
    },
    {
      "inputs": [
        {
          "internalType": "address",
          "name": "owner",
          "type": "address"
        }
      ],
      "name": "OwnableInvalidOwner",
      "type": "error"
    },
    {
      "inputs": [
        {
          "internalType": "address",
          "name": "account",
          "type": "address"
        }
      ],
      "name": "OwnableUnauthorizedAccount",
      "type": "error"
    },
    {
      "inputs": [],
      "name": "ReentrancyGuardReentrantCall",
      "type": "error"
    },
    {
      "anonymous": false,
      "inputs": [
        {
          "indexed": true,
          "internalType": "address",
          "name": "resetter",
          "type": "address"
        },
        {
          "indexed": false,
          "internalType": "uint256",
          "name": "timestamp",
          "type": "uint256"
        }
      ],
      "name": "CircuitReset",
      "type": "event"
    },
    {
      "anonymous": false,
      "inputs": [
        {
          "indexed": true,
          "internalType": "enum WikiCircuitBreaker.TripReason",
          "name": "reason",
          "type": "uint8"
        },
        {
          "indexed": false,
          "internalType": "uint256",
          "name": "timestamp",
          "type": "uint256"
        },
        {
          "indexed": false,
          "internalType": "string",
          "name": "detail",
          "type": "string"
        }
      ],
      "name": "CircuitTripped",
      "type": "event"
    },
    {
      "anonymous": false,
      "inputs": [
        {
          "indexed": false,
          "internalType": "uint256",
          "name": "hourlyTotal",
          "type": "uint256"
        }
      ],
      "name": "LiquidationRecorded",
      "type": "event"
    },
    {
      "anonymous": false,
      "inputs": [
        {
          "indexed": true,
          "internalType": "address",
          "name": "caller",
          "type": "address"
        },
        {
          "indexed": false,
          "internalType": "string",
          "name": "reason",
          "type": "string"
        }
      ],
      "name": "ManualTrip",
      "type": "event"
    },
    {
      "anonymous": false,
      "inputs": [
        {
          "indexed": true,
          "internalType": "bytes32",
          "name": "marketId",
          "type": "bytes32"
        },
        {
          "indexed": false,
          "internalType": "string",
          "name": "reason",
          "type": "string"
        }
      ],
      "name": "MarketHalted",
      "type": "event"
    },
    {
      "anonymous": false,
      "inputs": [
        {
          "indexed": true,
          "internalType": "bytes32",
          "name": "marketId",
          "type": "bytes32"
        }
      ],
      "name": "MarketResumed",
      "type": "event"
    },
    {
      "anonymous": false,
      "inputs": [
        {
          "indexed": true,
          "internalType": "address",
          "name": "monitor",
          "type": "address"
        },
        {
          "indexed": false,
          "internalType": "bool",
          "name": "enabled",
          "type": "bool"
        }
      ],
      "name": "MonitorSet",
      "type": "event"
    },
    {
      "anonymous": false,
      "inputs": [
        {
          "indexed": false,
          "internalType": "uint256",
          "name": "amount",
          "type": "uint256"
        },
        {
          "indexed": false,
          "internalType": "uint256",
          "name": "hourlyTotal",
          "type": "uint256"
        }
      ],
      "name": "OutflowRecorded",
      "type": "event"
    },
    {
      "anonymous": false,
      "inputs": [
        {
          "indexed": true,
          "internalType": "address",
          "name": "previousOwner",
          "type": "address"
        },
        {
          "indexed": true,
          "internalType": "address",
          "name": "newOwner",
          "type": "address"
        }
      ],
      "name": "OwnershipTransferStarted",
      "type": "event"
    },
    {
      "anonymous": false,
      "inputs": [
        {
          "indexed": true,
          "internalType": "address",
          "name": "previousOwner",
          "type": "address"
        },
        {
          "indexed": true,
          "internalType": "address",
          "name": "newOwner",
          "type": "address"
        }
      ],
      "name": "OwnershipTransferred",
      "type": "event"
    },
    {
      "inputs": [],
      "name": "MAX_HOURLY_OUTFLOW",
      "outputs": [
        {
          "internalType": "uint256",
          "name": "",
          "type": "uint256"
        }
      ],
      "stateMutability": "view",
      "type": "function"
    },
    {
      "inputs": [],
      "name": "MAX_KEEPER_PER_BLOCK",
      "outputs": [
        {
          "internalType": "uint256",
          "name": "",
          "type": "uint256"
        }
      ],
      "stateMutability": "view",
      "type": "function"
    },
    {
      "inputs": [],
      "name": "MAX_LIQS_PER_HOUR",
      "outputs": [
        {
          "internalType": "uint256",
          "name": "",
          "type": "uint256"
        }
      ],
      "stateMutability": "view",
      "type": "function"
    },
    {
      "inputs": [],
      "name": "MAX_PRICE_DEVIATION",
      "outputs": [
        {
          "internalType": "uint256",
          "name": "",
          "type": "uint256"
        }
      ],
      "stateMutability": "view",
      "type": "function"
    },
    {
      "inputs": [],
      "name": "MIN_COOL_DOWN",
      "outputs": [
        {
          "internalType": "uint256",
          "name": "",
          "type": "uint256"
        }
      ],
      "stateMutability": "view",
      "type": "function"
    },
    {
      "inputs": [],
      "name": "acceptOwnership",
      "outputs": [],
      "stateMutability": "nonpayable",
      "type": "function"
    },
    {
      "inputs": [],
      "name": "blockKeeperCount",
      "outputs": [
        {
          "internalType": "uint256",
          "name": "",
          "type": "uint256"
        }
      ],
      "stateMutability": "view",
      "type": "function"
    },
    {
      "inputs": [],
      "name": "canReset",
      "outputs": [
        {
          "internalType": "bool",
          "name": "",
          "type": "bool"
        }
      ],
      "stateMutability": "view",
      "type": "function"
    },
    {
      "inputs": [
        {
          "internalType": "uint256",
          "name": "",
          "type": "uint256"
        }
      ],
      "name": "dailyFeeHistory",
      "outputs": [
        {
          "internalType": "uint256",
          "name": "",
          "type": "uint256"
        }
      ],
      "stateMutability": "view",
      "type": "function"
    },
    {
      "inputs": [],
      "name": "feeHistoryIndex",
      "outputs": [
        {
          "internalType": "uint256",
          "name": "",
          "type": "uint256"
        }
      ],
      "stateMutability": "view",
      "type": "function"
    },
    {
      "inputs": [],
      "name": "feeWindowStart",
      "outputs": [
        {
          "internalType": "uint256",
          "name": "",
          "type": "uint256"
        }
      ],
      "stateMutability": "view",
      "type": "function"
    },
    {
      "inputs": [
        {
          "internalType": "bytes32",
          "name": "marketId",
          "type": "bytes32"
        },
        {
          "internalType": "string",
          "name": "reason",
          "type": "string"
        }
      ],
      "name": "haltMarket",
      "outputs": [],
      "stateMutability": "nonpayable",
      "type": "function"
    },
    {
      "inputs": [],
      "name": "hourlyLiqCount",
      "outputs": [
        {
          "internalType": "uint256",
          "name": "",
          "type": "uint256"
        }
      ],
      "stateMutability": "view",
      "type": "function"
    },
    {
      "inputs": [],
      "name": "hourlyOutflow",
      "outputs": [
        {
          "internalType": "uint256",
          "name": "",
          "type": "uint256"
        }
      ],
      "stateMutability": "view",
      "type": "function"
    },
    {
      "inputs": [
        {
          "internalType": "bytes32",
          "name": "marketId",
          "type": "bytes32"
        }
      ],
      "name": "isMarketHalted",
      "outputs": [
        {
          "internalType": "bool",
          "name": "",
          "type": "bool"
        }
      ],
      "stateMutability": "view",
      "type": "function"
    },
    {
      "inputs": [],
      "name": "isTripped",
      "outputs": [
        {
          "internalType": "bool",
          "name": "",
          "type": "bool"
        }
      ],
      "stateMutability": "view",
      "type": "function"
    },
    {
      "inputs": [],
      "name": "lastKeeperBlock",
      "outputs": [
        {
          "internalType": "uint256",
          "name": "",
          "type": "uint256"
        }
      ],
      "stateMutability": "view",
      "type": "function"
    },
    {
      "inputs": [],
      "name": "lastTripDetail",
      "outputs": [
        {
          "internalType": "string",
          "name": "",
          "type": "string"
        }
      ],
      "stateMutability": "view",
      "type": "function"
    },
    {
      "inputs": [
        {
          "internalType": "bytes32",
          "name": "",
          "type": "bytes32"
        }
      ],
      "name": "marketHalted",
      "outputs": [
        {
          "internalType": "bool",
          "name": "",
          "type": "bool"
        }
      ],
      "stateMutability": "view",
      "type": "function"
    },
    {
      "inputs": [
        {
          "internalType": "address",
          "name": "",
          "type": "address"
        }
      ],
      "name": "monitors",
      "outputs": [
        {
          "internalType": "bool",
          "name": "",
          "type": "bool"
        }
      ],
      "stateMutability": "view",
      "type": "function"
    },
    {
      "inputs": [],
      "name": "owner",
      "outputs": [
        {
          "internalType": "address",
          "name": "",
          "type": "address"
        }
      ],
      "stateMutability": "view",
      "type": "function"
    },
    {
      "inputs": [],
      "name": "pendingOwner",
      "outputs": [
        {
          "internalType": "address",
          "name": "",
          "type": "address"
        }
      ],
      "stateMutability": "view",
      "type": "function"
    },
    {
      "inputs": [
        {
          "internalType": "uint256",
          "name": "feeAmount",
          "type": "uint256"
        }
      ],
      "name": "recordFeeCollection",
      "outputs": [],
      "stateMutability": "nonpayable",
      "type": "function"
    },
    {
      "inputs": [],
      "name": "recordKeeperExecution",
      "outputs": [],
      "stateMutability": "nonpayable",
      "type": "function"
    },
    {
      "inputs": [],
      "name": "recordLiquidation",
      "outputs": [],
      "stateMutability": "nonpayable",
      "type": "function"
    },
    {
      "inputs": [
        {
          "internalType": "bytes32",
          "name": "marketId",
          "type": "bytes32"
        },
        {
          "internalType": "uint256",
          "name": "prevPrice",
          "type": "uint256"
        },
        {
          "internalType": "uint256",
          "name": "newPrice",
          "type": "uint256"
        }
      ],
      "name": "recordPriceUpdate",
      "outputs": [],
      "stateMutability": "nonpayable",
      "type": "function"
    },
    {
      "inputs": [
        {
          "internalType": "uint256",
          "name": "amount",
          "type": "uint256"
        }
      ],
      "name": "recordWithdrawal",
      "outputs": [],
      "stateMutability": "nonpayable",
      "type": "function"
    },
    {
      "inputs": [],
      "name": "renounceOwnership",
      "outputs": [],
      "stateMutability": "nonpayable",
      "type": "function"
    },
    {
      "inputs": [],
      "name": "reset",
      "outputs": [],
      "stateMutability": "nonpayable",
      "type": "function"
    },
    {
      "inputs": [
        {
          "internalType": "address",
          "name": "",
          "type": "address"
        }
      ],
      "name": "resetters",
      "outputs": [
        {
          "internalType": "bool",
          "name": "",
          "type": "bool"
        }
      ],
      "stateMutability": "view",
      "type": "function"
    },
    {
      "inputs": [
        {
          "internalType": "bytes32",
          "name": "marketId",
          "type": "bytes32"
        }
      ],
      "name": "resumeMarket",
      "outputs": [],
      "stateMutability": "nonpayable",
      "type": "function"
    },
    {
      "inputs": [
        {
          "internalType": "address",
          "name": "m",
          "type": "address"
        },
        {
          "internalType": "bool",
          "name": "enabled",
          "type": "bool"
        }
      ],
      "name": "setMonitor",
      "outputs": [],
      "stateMutability": "nonpayable",
      "type": "function"
    },
    {
      "inputs": [
        {
          "internalType": "address",
          "name": "r",
          "type": "address"
        },
        {
          "internalType": "bool",
          "name": "enabled",
          "type": "bool"
        }
      ],
      "name": "setResetter",
      "outputs": [],
      "stateMutability": "nonpayable",
      "type": "function"
    },
    {
      "inputs": [],
      "name": "status",
      "outputs": [
        {
          "internalType": "bool",
          "name": "_tripped",
          "type": "bool"
        },
        {
          "internalType": "enum WikiCircuitBreaker.TripReason",
          "name": "_reason",
          "type": "uint8"
        },
        {
          "internalType": "uint256",
          "name": "_trippedAt",
          "type": "uint256"
        },
        {
          "internalType": "string",
          "name": "_detail",
          "type": "string"
        },
        {
          "internalType": "uint256",
          "name": "_tripCount",
          "type": "uint256"
        },
        {
          "internalType": "uint256",
          "name": "_hourlyOutflow",
          "type": "uint256"
        },
        {
          "internalType": "uint256",
          "name": "_hourlyLiqCount",
          "type": "uint256"
        },
        {
          "internalType": "uint256",
          "name": "_cooldownRemaining",
          "type": "uint256"
        }
      ],
      "stateMutability": "view",
      "type": "function"
    },
    {
      "inputs": [],
      "name": "todayFees",
      "outputs": [
        {
          "internalType": "uint256",
          "name": "",
          "type": "uint256"
        }
      ],
      "stateMutability": "view",
      "type": "function"
    },
    {
      "inputs": [
        {
          "internalType": "address",
          "name": "newOwner",
          "type": "address"
        }
      ],
      "name": "transferOwnership",
      "outputs": [],
      "stateMutability": "nonpayable",
      "type": "function"
    },
    {
      "inputs": [],
      "name": "tripCount",
      "outputs": [
        {
          "internalType": "uint256",
          "name": "",
          "type": "uint256"
        }
      ],
      "stateMutability": "view",
      "type": "function"
    },
    {
      "inputs": [
        {
          "internalType": "string",
          "name": "reason",
          "type": "string"
        }
      ],
      "name": "tripManual",
      "outputs": [],
      "stateMutability": "nonpayable",
      "type": "function"
    },
    {
      "inputs": [],
      "name": "tripReason",
      "outputs": [
        {
          "internalType": "enum WikiCircuitBreaker.TripReason",
          "name": "",
          "type": "uint8"
        }
      ],
      "stateMutability": "view",
      "type": "function"
    },
    {
      "inputs": [],
      "name": "trippedAt",
      "outputs": [
        {
          "internalType": "uint256",
          "name": "",
          "type": "uint256"
        }
      ],
      "stateMutability": "view",
      "type": "function"
    },
    {
      "inputs": [
        {
          "internalType": "uint256",
          "name": "maxHourlyOutflow",
          "type": "uint256"
        },
        {
          "internalType": "uint256",
          "name": "maxLiqsPerHour",
          "type": "uint256"
        },
        {
          "internalType": "uint256",
          "name": "maxPriceDeviationBps",
          "type": "uint256"
        },
        {
          "internalType": "uint256",
          "name": "maxKeeperPerBlock",
          "type": "uint256"
        }
      ],
      "name": "updateLimits",
      "outputs": [],
      "stateMutability": "nonpayable",
      "type": "function"
    },
    {
      "inputs": [],
      "name": "windowStart",
      "outputs": [
        {
          "internalType": "uint256",
          "name": "",
          "type": "uint256"
        }
      ],
      "stateMutability": "view",
      "type": "function"
    }
  ],
  "bytecode": "0x6080346100f257601f61213c38819003918201601f19168301916001600160401b038311848410176100f6578084926020946040528339810103126100f257516001600160a01b038116908190036100f25780156100df57600180546001600160a01b03199081169091555f8054918216831781556001600160a01b03909116907f8be0079c531659141344cd1fd0a4f28419497f9722a3daafe3b4186f6b6457e09080a360017f9b779b17422d0df92223018b32b4d1fa46e071723d6817e2486d003becc55f00554260075542601655604051612031908161010b8239f35b631e4fbdf760e01b5f525f60045260245ffd5b5f80fd5b634e487b7160e01b5f52604160045260245ffdfe6080806040526004361015610012575f80fd5b5f3560e01c90816304d7a1f61461116f5750806308134a481461114057806309fee7e9146110ee5780630ab20d3f14610fea5780631315746214610fcd57806317421b9514610fad5780631763219314610f7a578063200d2ed214610eb35780632536eee014610e6e57806326eb0f4a14610e0357806328b58e1a14610dc6578063313cdfa614610d895780634e1eef0714610d6c5780635ce9506b14610d4f5780635e129c8514610d0b57806369fc6cbe14610cee578063715018a614610c8b578063776db0bf14610c6e57806379ba509714610be9578063801dd09314610bce57806383e910c814610bb1578063865ec35e14610afe5780638c5c8a6314610a2d5780638da5cb5b14610a065780638e63306b146109dc57806396f277b7146109c057806396ff4276146109945780639fdb62bd14610977578063ad0ce304146108a9578063b0c2783a1461088c578063cd46c1a1146107a4578063d2d74f1914610766578063d53ff2b7146106b2578063d73fd13914610695578063d826f88f146104be578063dcd43f2314610301578063e1e6ae12146102dc578063e30c3978146102b4578063e7b00d7714610298578063f2fde38b14610226578063fb07bba1146102095763fbb55ed2146101ea575f80fd5b3461020557608036600319011261020557610203611f4f565b005b5f80fd5b34610205575f366003190112610205576020601654604051908152f35b346102055760203660031901126102055761023f6112e0565b610247611f4f565b60018060a01b0316806bffffffffffffffffffffffff60a01b600154161760015560018060a01b035f54167f38d16b8cac22d99fc7c124b9cd0de2d3fa1faef420bfe791d8c362d765e227005f80a3005b34610205575f366003190112610205576020604051610e108152f35b34610205575f366003190112610205576001546040516001600160a01b039091168152602090f35b34610205575f36600319011261020557602060ff60015460a01c166040519015158152f35b3461020557602036600319011261020557335f52600a60205260ff60405f20541680156104ab575b61033290611353565b60165462015180810180911161044557421015610466575b610358600435601554611493565b80601555610364611f62565b801591821580610459575b61037557005b61271081029080820461271014901517156104455761039660165442611391565b60018101809111610445576103aa9161139e565b916127108202918204612710141715610445576201518090049081159182159283610424575b5050506103d957005b6102036040516103ea6060826111c1565b602281527f46656520726174652064726f70706564203e38302520767320372d6461792061602082015261766760f01b6040820152611beb565b909192506014820291820460141417156104455760649004118180806103d0565b634e487b7160e01b5f52601160045260245ffd5b506007601454101561036f565b601554600760145406600781101561049757600d01556104876014546114e3565b6014555f6015554260165561034a565b634e487b7160e01b5f52603260045260245ffd5b505f546001600160a01b03163314610329565b34610205575f3660031901126102055760027f9b779b17422d0df92223018b32b4d1fa46e071723d6817e2486d003becc55f0054146106865760027f9b779b17422d0df92223018b32b4d1fa46e071723d6817e2486d003becc55f0055335f52600c60205260ff60405f2054168015610673575b1561063b5760015460ff8160a01c161561060457600254610e1081018091116104455742106105c95761ffff60a01b19166001555f600581905560065542600781905560405190815233907f31f5e56fabdd4e503f84b64be0386122e82e1f55748c8749bf996a2f2e8a6f5790602090a260017f9b779b17422d0df92223018b32b4d1fa46e071723d6817e2486d003becc55f0055005b60405162461bcd60e51b815260206004820152601360248201527243423a20636f6f6c646f776e2061637469766560681b6044820152606490fd5b60405162461bcd60e51b815260206004820152600f60248201526e10d08e881b9bdd081d1c9a5c1c1959608a1b6044820152606490fd5b60405162461bcd60e51b815260206004820152601060248201526f21a11d103737ba103932b9b2ba3a32b960811b6044820152606490fd5b505f546001600160a01b03163314610532565b633ee5aeb560e01b5f5260045ffd5b34610205575f366003190112610205576020600254604051908152f35b346102055760403660031901126102055760043560243567ffffffffffffffff8111610205576107077f2dad278628e2ae397f06db35c0d2b2a201dc2744bef880ac3022efe140cc7078913690600401611325565b90335f52600a60205260ff60405f2054168015610753575b61072890611353565b835f52600b60205260405f20600160ff1982541617905561074e604051928392836114bc565b0390a2005b505f546001600160a01b0316331461071f565b3461020557610203610777366112f6565b90610780611f4f565b60018060a01b03165f52600c60205260405f209060ff801983541691151516179055565b34610205575f36600319011261020557335f52600a60205260ff60405f2054168015610879575b6107d490611353565b6107dc611f29565b6107e76006546114e3565b806006557f149c04fbca4dbd4f00ffa7cfdbd1fd9700a8cd5ded18a38b893eb3ad579926a36020604051838152a16101f4811161082057005b6020610874603361083361020394611519565b6040519384917202634b8bab4b230ba34b7b73997b437bab91d1606d1b828401528051918291018484015e81015f838201520301601f1981018352826111c1565b611a7d565b505f546001600160a01b031633146107cb565b34610205575f366003190112610205576020600754604051908152f35b34610205575f36600319011261020557335f52600a60205260ff60405f2054168015610964575b6108d990611353565b6009544303610957575b6108ee6008546114e3565b80600855603281116108fc57005b6020610952603561090f61020394611519565b60405193849174025b2b2b832b9103a3c399034b710313637b1b59d1605d1b828401528051918291018484015e81015f838201520301601f1981018352826111c1565b61190f565b5f600855436009556108e3565b505f546001600160a01b031633146108d0565b34610205575f366003190112610205576020600854604051908152f35b3461020557602036600319011261020557600435600781101561020557602090600d0154604051908152f35b34610205575f3660031901126102055760206040516105dc8152f35b34610205575f36600319011261020557602060ff60015460a81c16610a0460405180926112bf565bf35b34610205575f366003190112610205575f546040516001600160a01b039091168152602090f35b346102055760203660031901126102055760043567ffffffffffffffff811161020557610a5e903690600401611325565b335f52600a60205260ff60405f2054168015610aeb575b610a7e90611353565b610a87816114a0565b610a9460405191826111c1565b81815236828401116102055781610add827fcbf3540d2bcec3213e30cd2ef0cfb3f93fe10bee2bfa91f24af167af73e65da69486602061074e9601375f60208483010152611795565b6040519182913395836114bc565b505f546001600160a01b03163314610a75565b3461020557602036600319011261020557600435335f52600c60205260ff60405f2054168015610b9e575b15610b6857805f52600b60205260405f2060ff1981541690557ffe0d685e89854bb0d9fdeb643c390dadd54f1aee21e57d0538b3d48821d279ad5f80a2005b60405162461bcd60e51b815260206004820152600e60248201526d139bdd08185d5d1a1bdc9a5e995960921b6044820152606490fd5b505f546001600160a01b03163314610b29565b34610205575f366003190112610205576020601454604051908152f35b34610205575f36600319011261020557602060405160328152f35b34610205575f36600319011261020557600154336001600160a01b0390911603610c5b57600180546001600160a01b03199081169091555f805433928116831782556001600160a01b0316907f8be0079c531659141344cd1fd0a4f28419497f9722a3daafe3b4186f6b6457e09080a3005b63118cdaa760e01b5f523360045260245ffd5b34610205575f366003190112610205576020600654604051908152f35b34610205575f36600319011261020557610ca3611f4f565b600180546001600160a01b03199081169091555f80549182168155906001600160a01b03167f8be0079c531659141344cd1fd0a4f28419497f9722a3daafe3b4186f6b6457e08280a3005b34610205575f366003190112610205576020600354604051908152f35b34610205575f3660031901126102055760ff60015460a01c1680610d37575b6020906040519015158152f35b50600254610e10810180911161044557421015610d2a565b34610205575f366003190112610205576020601554604051908152f35b34610205575f366003190112610205576020600954604051908152f35b34610205576020366003190112610205576001600160a01b03610daa6112e0565b165f52600c602052602060ff60405f2054166040519015158152f35b34610205576020366003190112610205576001600160a01b03610de76112e0565b165f52600a602052602060ff60405f2054166040519015158152f35b346102055760207fb7c2923b16660bec8b238cf9b08db60260168ce0dc0bedc37ae4306c6f5942c7610e34366112f6565b9290610e3e611f4f565b6001600160a01b03165f818152600a835260409020805460ff191660ff86151516179055926040519015158152a2005b34610205576020366003190112610205576004355f52600b60205260ff60405f2054168015610ea4576020906040519015158152f35b5060015460a01c60ff16610d2a565b34610205575f3660031901126102055760015460ff8160a01c16808091610f63575b15610f5d57600254610e10810180911161044557610ef4904290611391565b6002549060035491600554610f4460065492610f0e6111f7565b90610f2c604051998a9915158a5260ff60208b019160a81c166112bf565b6040880152610100606088015261010087019061129b565b93608086015260a085015260c084015260e08301520390f35b5f610ef4565b50600254610e108101809111610445574210610ed5565b34610205575f36600319011261020557610fa9610f956111f7565b60405191829160208352602083019061129b565b0390f35b34610205575f36600319011261020557602060405165048c273950008152f35b34610205575f366003190112610205576020600554604051908152f35b3461020557602036600319011261020557600435335f52600a60205260ff60405f20541680156110db575b61101e90611353565b611026611f29565b7f33c291a18736a710b750c9b65e385e69e17b21671e014c1149e0603bf826c7f3604061105583600554611493565b92836005558151908152836020820152a165048c27395000811161107557005b60206110d66005603061108f620f42406102039604611519565b6040519485916f02437bab9363c9037baba333637bb9d160851b828401528051918291018484015e810164205553444360d81b838201520301601a198101845201826111c1565b6115db565b505f546001600160a01b03163314611015565b3461020557606036600319011261020557335f52600a60205260ff60405f205416801561112d575b61111f90611353565b6102036044356024356113bc565b505f546001600160a01b03163314611116565b34610205576020366003190112610205576004355f52600b602052602060ff60405f2054166040519015158152f35b34610205575f36600319011261020557806101f460209252f35b90600182811c921680156111b7575b60208310146111a357565b634e487b7160e01b5f52602260045260245ffd5b91607f1691611198565b90601f8019910116810190811067ffffffffffffffff8211176111e357604052565b634e487b7160e01b5f52604160045260245ffd5b604051905f826004549161120a83611189565b808352926001811690811561127c5750600114611230575b61122e925003836111c1565b565b5060045f90815290915f80516020611fdc8339815191525b81831061126057505090602061122e92820101611222565b6020919350806001915483858901015201910190918492611248565b6020925061122e94915060ff191682840152151560051b820101611222565b805180835260209291819084018484015e5f828201840152601f01601f1916010190565b9060078210156112cc5752565b634e487b7160e01b5f52602160045260245ffd5b600435906001600160a01b038216820361020557565b6040906003190112610205576004356001600160a01b0381168103610205579060243580151581036102055790565b9181601f840112156102055782359167ffffffffffffffff8311610205576020838186019501011161020557565b1561135a57565b60405162461bcd60e51b815260206004820152600f60248201526e21a11d103737ba1036b7b734ba37b960891b6044820152606490fd5b9190820391821161044557565b81156113a8570490565b634e487b7160e01b5f52601260045260245ffd5b90811561148f57818181111561146257906113d691611391565b906127108202918083046127101490151715610445576113f59161139e565b6105dc81116114015750565b602061145d60016031611419606461122e9604611519565b604051948591700283934b1b2903232bb34b0ba34b7b71d1607d1b828401528051918291018484015e8101602560f81b838201520301601e198101845201826111c1565b611d7c565b61146b91611391565b9061271082029180830461271014901517156104455761148a9161139e565b6113f5565b5050565b9190820180921161044557565b67ffffffffffffffff81116111e357601f01601f191660200190565b90918060409360208452816020850152848401375f828201840152601f01601f1916010190565b5f1981146104455760010190565b60078110156112cc576001805460ff60a81b191660a89290921b60ff60a81b16919091179055565b80156115bb575f81805b6115a75750611531816114a0565b9061153f60405192836111c1565b808252601f1961154e826114a0565b013660208401375b8083156115a0578015610445575f190192600a8106603001918260301161044557835185101561049757600a9260f81b6001600160f81b0319165f1a908401601f01530491611556565b5050905090565b906115b3600a916114e3565b910480611523565b506040516115ca6040826111c1565b60018152600360fc1b602082015290565b9060015460ff8160a01c166117905760ff60a01b1916600160a01b176001908155611605906114f1565b4260025581519167ffffffffffffffff83116111e357611626600454611189565b601f8111611728575b50602092601f81116001146116a8575f80516020611fbc833981519152918161169892600195965f9161169d575b505f19600383901b1c191690851b176004555b61167b6003546114e3565b60035560405191829142835260406020840152604083019061129b565b0390a2565b90508201515f61165d565b601f19811660045f525f80516020611fdc833981519152905f5b8181106117105750825f80516020611fbc833981519152949260019697611698958894106116f8575b5050811b01600455611670565b8401515f1960f88460031b161c191690555f806116eb565b848701518355602096870196600190930192016116c2565b60045f52601f840160051c5f80516020611fdc83398151915201906020851061177b575b601f0160051c5f80516020611fdc83398151915201905b818110611770575061162f565b5f8155600101611763565b5f80516020611fdc833981519152915061174c565b509050565b9060015460ff8160a01c166117905760ff60a01b1916600160a01b176001556117be60066114f1565b4260025581519167ffffffffffffffff83116111e3576117df600454611189565b601f81116118a7575b50602092601f811160011461183f575f80516020611fbc833981519152918161169892600695965f91611834575b508160011b915f199060031b1c19161760045561167b6003546114e3565b90508201515f611816565b601f19811660045f525f80516020611fdc833981519152905f5b81811061188f5750825f80516020611fbc83398151915294926006969761169895600194106116f8575050811b01600455611670565b84870151835560209687019660019093019201611859565b60045f52601f840160051c5f80516020611fdc8339815191520190602085106118fa575b601f0160051c5f80516020611fdc83398151915201905b8181106118ef57506117e8565b5f81556001016118e2565b5f80516020611fdc83398151915291506118cb565b9060015460ff8160a01c166117905760ff60a01b1916600160a01b1760015561193860056114f1565b4260025581519167ffffffffffffffff83116111e357611959600454611189565b601f8111611a15575b50602092601f81116001146119ad575f80516020611fbc833981519152918161169892600595965f9161183457508160011b915f199060031b1c19161760045561167b6003546114e3565b601f19811660045f525f80516020611fdc833981519152905f5b8181106119fd5750825f80516020611fbc83398151915294926005969761169895600194106116f8575050811b01600455611670565b848701518355602096870196600190930192016119c7565b60045f52601f840160051c5f80516020611fdc833981519152019060208510611a68575b601f0160051c5f80516020611fdc83398151915201905b818110611a5d5750611962565b5f8155600101611a50565b5f80516020611fdc8339815191529150611a39565b9060015460ff8160a01c166117905760ff60a01b1916600160a01b17600155611aa660026114f1565b4260025581519167ffffffffffffffff83116111e357611ac7600454611189565b601f8111611b83575b50602092601f8111600114611b1b575f80516020611fbc833981519152918161169892600295965f9161183457508160011b915f199060031b1c19161760045561167b6003546114e3565b601f19811660045f525f80516020611fdc833981519152905f5b818110611b6b5750825f80516020611fbc83398151915294926002969761169895600194106116f8575050811b01600455611670565b84870151835560209687019660019093019201611b35565b60045f52601f840160051c5f80516020611fdc833981519152019060208510611bd6575b601f0160051c5f80516020611fdc83398151915201905b818110611bcb5750611ad0565b5f8155600101611bbe565b5f80516020611fdc8339815191529150611ba7565b9060015460ff8160a01c166117905760ff60a01b1916600160a01b17600155611c1460046114f1565b4260025581519167ffffffffffffffff83116111e357611c35600454611189565b601f8111611d14575b50602092601f8111600114611c94575f80516020611fbc833981519152918161169892600495965f91611c89575b508160011b915f199060031b1c191617845561167b6003546114e3565b90508201515f611c6c565b601f19811660045f525f80516020611fdc833981519152905f5b818110611cfc5750825f80516020611fbc8339815191529492600496976116989560019410611ce4575b5050811b018455611670565b8401515f1960f88460031b161c191690555f80611cd8565b84870151835560209687019660019093019201611cae565b60045f52601f840160051c5f80516020611fdc833981519152019060208510611d67575b601f0160051c5f80516020611fdc83398151915201905b818110611d5c5750611c3e565b5f8155600101611d4f565b5f80516020611fdc8339815191529150611d38565b9060015460ff8160a01c166117905760ff60a01b1916600160a01b17600155611da560036114f1565b4260025581519167ffffffffffffffff83116111e357611dc6600454611189565b601f8111611ec1575b50602092601f8111600114611e41575f80516020611fbc833981519152918161169892600395965f91611e36575b508160011b915f1990871b1c1916176004555b611e1a84546114e3565b845560405191829142835260406020840152604083019061129b565b90508201515f611dfd565b601f19811660045f525f80516020611fdc833981519152905f5b818110611ea95750825f80516020611fbc8339815191529492600396976116989560019410611e92575b5050811b01600455611e10565b8401515f1983891b60f8161c191690555f80611e85565b84870151835560209687019660019093019201611e5b565b60045f52601f840160051c5f80516020611fdc833981519152019060208510611f14575b601f0160051c5f80516020611fdc83398151915201905b818110611f095750611dcf565b5f8155600101611efc565b5f80516020611fdc8339815191529150611ee5565b600754610e10810180911161044557421015611f4157565b5f6005555f60065542600755565b5f546001600160a01b03163303610c5b57565b5f805f5b6007811015611fa15780600d015480611f83575b50600101611f66565b611f94611f9a916001939594611493565b926114e3565b9290611f7a565b50908015611fb557611fb29161139e565b90565b50505f9056fedc5749a683778e19e27d7f0f6f0ba3344ac7749a46b9a7bb206cdf4099ec7da48a35acfbc15ff81a39ae7d344fd709f28e8600b4aa8c65c6b64bfe7fe36bd19ba2646970667358221220b082ad889bc77bd0a48dca02456b315805ad2ee9a0045102c16bcbdbd18ce12b64736f6c634300081a0033",
  "linkReferences": {},
  "deployedLinkReferences": {}
}