{
  "_format": "hh-sol-artifact-1",
  "contractName": "WikiLiquidationMarket",
  "sourceName": "src/WikiLiquidationMarket.sol",
  "abi": [
    {
      "inputs": [
        {
          "internalType": "address",
          "name": "_owner",
          "type": "address"
        },
        {
          "internalType": "address",
          "name": "_perp",
          "type": "address"
        },
        {
          "internalType": "address",
          "name": "_vault",
          "type": "address"
        },
        {
          "internalType": "address",
          "name": "_splitter",
          "type": "address"
        },
        {
          "internalType": "address",
          "name": "_usdc",
          "type": "address"
        }
      ],
      "stateMutability": "nonpayable",
      "type": "constructor"
    },
    {
      "inputs": [],
      "name": "EnforcedPause",
      "type": "error"
    },
    {
      "inputs": [],
      "name": "ExpectedPause",
      "type": "error"
    },
    {
      "inputs": [
        {
          "internalType": "address",
          "name": "owner",
          "type": "address"
        }
      ],
      "name": "OwnableInvalidOwner",
      "type": "error"
    },
    {
      "inputs": [
        {
          "internalType": "address",
          "name": "account",
          "type": "address"
        }
      ],
      "name": "OwnableUnauthorizedAccount",
      "type": "error"
    },
    {
      "inputs": [],
      "name": "ReentrancyGuardReentrantCall",
      "type": "error"
    },
    {
      "inputs": [
        {
          "internalType": "address",
          "name": "token",
          "type": "address"
        }
      ],
      "name": "SafeERC20FailedOperation",
      "type": "error"
    },
    {
      "anonymous": false,
      "inputs": [
        {
          "indexed": true,
          "internalType": "uint256",
          "name": "auctionId",
          "type": "uint256"
        },
        {
          "indexed": false,
          "internalType": "uint256",
          "name": "posId",
          "type": "uint256"
        }
      ],
      "name": "AuctionExpired",
      "type": "event"
    },
    {
      "anonymous": false,
      "inputs": [
        {
          "indexed": true,
          "internalType": "uint256",
          "name": "auctionId",
          "type": "uint256"
        },
        {
          "indexed": true,
          "internalType": "uint256",
          "name": "posId",
          "type": "uint256"
        },
        {
          "indexed": false,
          "internalType": "address",
          "name": "opener",
          "type": "address"
        },
        {
          "indexed": false,
          "internalType": "uint256",
          "name": "startDiscBps",
          "type": "uint256"
        }
      ],
      "name": "AuctionOpened",
      "type": "event"
    },
    {
      "anonymous": false,
      "inputs": [
        {
          "indexed": true,
          "internalType": "uint256",
          "name": "auctionId",
          "type": "uint256"
        },
        {
          "indexed": true,
          "internalType": "address",
          "name": "winner",
          "type": "address"
        },
        {
          "indexed": false,
          "internalType": "uint256",
          "name": "discountBps",
          "type": "uint256"
        },
        {
          "indexed": false,
          "internalType": "uint256",
          "name": "toProtocol",
          "type": "uint256"
        },
        {
          "indexed": false,
          "internalType": "uint256",
          "name": "toWinner",
          "type": "uint256"
        }
      ],
      "name": "AuctionWon",
      "type": "event"
    },
    {
      "anonymous": false,
      "inputs": [
        {
          "indexed": true,
          "internalType": "address",
          "name": "previousOwner",
          "type": "address"
        },
        {
          "indexed": true,
          "internalType": "address",
          "name": "newOwner",
          "type": "address"
        }
      ],
      "name": "OwnershipTransferStarted",
      "type": "event"
    },
    {
      "anonymous": false,
      "inputs": [
        {
          "indexed": true,
          "internalType": "address",
          "name": "previousOwner",
          "type": "address"
        },
        {
          "indexed": true,
          "internalType": "address",
          "name": "newOwner",
          "type": "address"
        }
      ],
      "name": "OwnershipTransferred",
      "type": "event"
    },
    {
      "anonymous": false,
      "inputs": [
        {
          "indexed": false,
          "internalType": "address",
          "name": "account",
          "type": "address"
        }
      ],
      "name": "Paused",
      "type": "event"
    },
    {
      "anonymous": false,
      "inputs": [
        {
          "indexed": false,
          "internalType": "address",
          "name": "account",
          "type": "address"
        }
      ],
      "name": "Unpaused",
      "type": "event"
    },
    {
      "inputs": [],
      "name": "BPS",
      "outputs": [
        {
          "internalType": "uint256",
          "name": "",
          "type": "uint256"
        }
      ],
      "stateMutability": "view",
      "type": "function"
    },
    {
      "inputs": [],
      "name": "MAX_BLOCKS",
      "outputs": [
        {
          "internalType": "uint256",
          "name": "",
          "type": "uint256"
        }
      ],
      "stateMutability": "view",
      "type": "function"
    },
    {
      "inputs": [],
      "name": "MAX_DISC_BPS",
      "outputs": [
        {
          "internalType": "uint256",
          "name": "",
          "type": "uint256"
        }
      ],
      "stateMutability": "view",
      "type": "function"
    },
    {
      "inputs": [],
      "name": "MIN_COLLATERAL",
      "outputs": [
        {
          "internalType": "uint256",
          "name": "",
          "type": "uint256"
        }
      ],
      "stateMutability": "view",
      "type": "function"
    },
    {
      "inputs": [],
      "name": "OPENER_SHARE",
      "outputs": [
        {
          "internalType": "uint256",
          "name": "",
          "type": "uint256"
        }
      ],
      "stateMutability": "view",
      "type": "function"
    },
    {
      "inputs": [],
      "name": "PROTOCOL_SHARE",
      "outputs": [
        {
          "internalType": "uint256",
          "name": "",
          "type": "uint256"
        }
      ],
      "stateMutability": "view",
      "type": "function"
    },
    {
      "inputs": [],
      "name": "START_DISC_BPS",
      "outputs": [
        {
          "internalType": "uint256",
          "name": "",
          "type": "uint256"
        }
      ],
      "stateMutability": "view",
      "type": "function"
    },
    {
      "inputs": [],
      "name": "USDC",
      "outputs": [
        {
          "internalType": "contract IERC20",
          "name": "",
          "type": "address"
        }
      ],
      "stateMutability": "view",
      "type": "function"
    },
    {
      "inputs": [],
      "name": "acceptOwnership",
      "outputs": [],
      "stateMutability": "nonpayable",
      "type": "function"
    },
    {
      "inputs": [],
      "name": "auctionCount",
      "outputs": [
        {
          "internalType": "uint256",
          "name": "",
          "type": "uint256"
        }
      ],
      "stateMutability": "view",
      "type": "function"
    },
    {
      "inputs": [
        {
          "internalType": "uint256",
          "name": "",
          "type": "uint256"
        }
      ],
      "name": "auctions",
      "outputs": [
        {
          "internalType": "uint256",
          "name": "posId",
          "type": "uint256"
        },
        {
          "internalType": "address",
          "name": "opener",
          "type": "address"
        },
        {
          "internalType": "uint256",
          "name": "openBlock",
          "type": "uint256"
        },
        {
          "internalType": "uint256",
          "name": "startDiscBps",
          "type": "uint256"
        },
        {
          "internalType": "bool",
          "name": "settled",
          "type": "bool"
        },
        {
          "internalType": "address",
          "name": "winner",
          "type": "address"
        },
        {
          "internalType": "uint256",
          "name": "discountPaid",
          "type": "uint256"
        },
        {
          "internalType": "uint256",
          "name": "toProtocol",
          "type": "uint256"
        },
        {
          "internalType": "uint256",
          "name": "toWinner",
          "type": "uint256"
        }
      ],
      "stateMutability": "view",
      "type": "function"
    },
    {
      "inputs": [
        {
          "internalType": "uint256",
          "name": "auctionId",
          "type": "uint256"
        }
      ],
      "name": "bid",
      "outputs": [],
      "stateMutability": "nonpayable",
      "type": "function"
    },
    {
      "inputs": [
        {
          "internalType": "uint256",
          "name": "auctionId",
          "type": "uint256"
        }
      ],
      "name": "currentDiscount",
      "outputs": [
        {
          "internalType": "uint256",
          "name": "discBps",
          "type": "uint256"
        },
        {
          "internalType": "bool",
          "name": "active",
          "type": "bool"
        }
      ],
      "stateMutability": "view",
      "type": "function"
    },
    {
      "inputs": [
        {
          "internalType": "uint256",
          "name": "posId",
          "type": "uint256"
        }
      ],
      "name": "openAuction",
      "outputs": [],
      "stateMutability": "nonpayable",
      "type": "function"
    },
    {
      "inputs": [],
      "name": "owner",
      "outputs": [
        {
          "internalType": "address",
          "name": "",
          "type": "address"
        }
      ],
      "stateMutability": "view",
      "type": "function"
    },
    {
      "inputs": [],
      "name": "pause",
      "outputs": [],
      "stateMutability": "nonpayable",
      "type": "function"
    },
    {
      "inputs": [],
      "name": "paused",
      "outputs": [
        {
          "internalType": "bool",
          "name": "",
          "type": "bool"
        }
      ],
      "stateMutability": "view",
      "type": "function"
    },
    {
      "inputs": [],
      "name": "pendingOwner",
      "outputs": [
        {
          "internalType": "address",
          "name": "",
          "type": "address"
        }
      ],
      "stateMutability": "view",
      "type": "function"
    },
    {
      "inputs": [],
      "name": "perp",
      "outputs": [
        {
          "internalType": "contract IWikiPerp",
          "name": "",
          "type": "address"
        }
      ],
      "stateMutability": "view",
      "type": "function"
    },
    {
      "inputs": [
        {
          "internalType": "uint256",
          "name": "",
          "type": "uint256"
        }
      ],
      "name": "posHasAuction",
      "outputs": [
        {
          "internalType": "bool",
          "name": "",
          "type": "bool"
        }
      ],
      "stateMutability": "view",
      "type": "function"
    },
    {
      "inputs": [
        {
          "internalType": "uint256",
          "name": "",
          "type": "uint256"
        }
      ],
      "name": "posToAuction",
      "outputs": [
        {
          "internalType": "uint256",
          "name": "",
          "type": "uint256"
        }
      ],
      "stateMutability": "view",
      "type": "function"
    },
    {
      "inputs": [],
      "name": "renounceOwnership",
      "outputs": [],
      "stateMutability": "nonpayable",
      "type": "function"
    },
    {
      "inputs": [
        {
          "internalType": "address",
          "name": "_perp",
          "type": "address"
        },
        {
          "internalType": "address",
          "name": "_vault",
          "type": "address"
        },
        {
          "internalType": "address",
          "name": "_splitter",
          "type": "address"
        }
      ],
      "name": "setContracts",
      "outputs": [],
      "stateMutability": "nonpayable",
      "type": "function"
    },
    {
      "inputs": [
        {
          "internalType": "address",
          "name": "_tl",
          "type": "address"
        }
      ],
      "name": "setTimelock",
      "outputs": [],
      "stateMutability": "nonpayable",
      "type": "function"
    },
    {
      "inputs": [
        {
          "internalType": "uint256",
          "name": "auctionId",
          "type": "uint256"
        }
      ],
      "name": "settleExpired",
      "outputs": [],
      "stateMutability": "nonpayable",
      "type": "function"
    },
    {
      "inputs": [],
      "name": "splitter",
      "outputs": [
        {
          "internalType": "contract IWikiRevenueSplitter",
          "name": "",
          "type": "address"
        }
      ],
      "stateMutability": "view",
      "type": "function"
    },
    {
      "inputs": [],
      "name": "timelock",
      "outputs": [
        {
          "internalType": "address",
          "name": "",
          "type": "address"
        }
      ],
      "stateMutability": "view",
      "type": "function"
    },
    {
      "inputs": [],
      "name": "totalLiquidations",
      "outputs": [
        {
          "internalType": "uint256",
          "name": "",
          "type": "uint256"
        }
      ],
      "stateMutability": "view",
      "type": "function"
    },
    {
      "inputs": [],
      "name": "totalProtocolRevenue",
      "outputs": [
        {
          "internalType": "uint256",
          "name": "",
          "type": "uint256"
        }
      ],
      "stateMutability": "view",
      "type": "function"
    },
    {
      "inputs": [
        {
          "internalType": "address",
          "name": "newOwner",
          "type": "address"
        }
      ],
      "name": "transferOwnership",
      "outputs": [],
      "stateMutability": "nonpayable",
      "type": "function"
    },
    {
      "inputs": [],
      "name": "unpause",
      "outputs": [],
      "stateMutability": "nonpayable",
      "type": "function"
    },
    {
      "inputs": [],
      "name": "vault",
      "outputs": [
        {
          "internalType": "contract IWikiVault",
          "name": "",
          "type": "address"
        }
      ],
      "stateMutability": "view",
      "type": "function"
    }
  ],
  "bytecode": "0x60a0346101b657601f6119e638819003918201601f19168301916001600160401b038311848410176101ba5780849260a0946040528339810103126101b657610047816101ce565b90610054602082016101ce565b610060604083016101ce565b906100796080610072606086016101ce565b94016101ce565b936001600160a01b03169081156101a357600180546001600160a01b03199081169091555f80549182168417815560405193916001600160a01b0316907f8be0079c531659141344cd1fd0a4f28419497f9722a3daafe3b4186f6b6457e09080a360017f9b779b17422d0df92223018b32b4d1fa46e071723d6817e2486d003becc55f00556001600160a01b031690811561016d5750600380546001600160a01b03199081169290921790556004805482166001600160a01b0393841617905560058054909116928216929092179091551660805260405161180390816101e3823960805181818161049e0152610b2e0152f35b62461bcd60e51b815260206004820152601160248201527004c69714d6b743a207a65726f207065727607c1b6044820152606490fd5b631e4fbdf760e01b5f525f60045260245ffd5b5f80fd5b634e487b7160e01b5f52604160045260245ffd5b51906001600160a01b03821682036101b65756fe6080806040526004361015610012575f80fd5b5f905f3560e01c908163130ae03e14611496575080631edc8f911461112c578063249d39e91461111057806326833dcc146110f55780632ad71573146110d85780633cd8045e146110b05780633f4ba83a14611042578063454a2ab31461098e57806351adc7611461097157806354df424914610955578063571a26a0146108b35780635c975abb1461088d5780635ed2df6e14610863578063715018a6146107fe57806379ba5097146107795780638456cb591461071657806387641eb2146104cd57806389a30271146104885780638c37f11d1461046a5780638da5cb5b14610443578063954806d714610425578063b3066d4914610368578063bdacb30314610328578063bfa4c00c146102ff578063d33219b4146102d6578063e30c3978146102ad578063e4bf40de14610280578063f2fde38b14610213578063f5d737bc146101e4578063f8aa620d146101c7578063fa779648146101a95763fbfa77cf1461017e575f80fd5b346101a657806003193601126101a6576004546040516001600160a01b039091168152602090f35b80fd5b50346101a657806003193601126101a6576020604051629896808152f35b50346101a657806003193601126101a65760206040516103208152f35b50346101a65760203660031901126101a65760ff60406020926004358152600884522054166040519015158152f35b50346101a65760203660031901126101a65761022d6114e0565b61023561170f565b600180546001600160a01b0319166001600160a01b0392831690811790915582549091167f38d16b8cac22d99fc7c124b9cd0de2d3fa1faef420bfe791d8c362d765e227008380a380f35b50346101a65760203660031901126101a657604061029f600435611644565b825191825215156020820152f35b50346101a657806003193601126101a6576001546040516001600160a01b039091168152602090f35b50346101a657806003193601126101a6576002546040516001600160a01b039091168152602090f35b50346101a657806003193601126101a6576003546040516001600160a01b039091168152602090f35b50346101a65760203660031901126101a6576103426114e0565b61034a61170f565b60018060a01b03166001600160601b0360a01b600254161760025580f35b50346101a65760603660031901126101a6576103826114e0565b6024356001600160a01b03811690819003610421576044356001600160a01b038116929083900361041d576103b561170f565b6001600160a01b031680610404575b50806103eb575b50806103d5575080f35b6001600160601b0360a01b600554161760055580f35b6001600160601b0360a01b60045416176004555f6103cb565b6001600160601b0360a01b60035416176003555f6103c4565b8380fd5b8280fd5b50346101a657806003193601126101a6576020600a54604051908152f35b50346101a657806003193601126101a657546040516001600160a01b039091168152602090f35b50346101a657806003193601126101a6576020600954604051908152f35b50346101a657806003193601126101a6576040517f00000000000000000000000000000000000000000000000000000000000000006001600160a01b03168152602090f35b50346101a65760203660031901126101a6576004356104ea6116b9565b6104f26116f1565b6104fb816114b0565b5060048101805460ff81166106d1576002830154600a81018091116106bd5743111561068357600354835460405163211a444360e01b81526004810182905287949192602090829060249082906001600160a01b03165afa90811561067857859161062f575b50602093610570600192611542565b60ff19161790556003546040516301057c4960e61b815260048101929092529092839160249183916001600160a01b03165af18015610624576105ef575b5060207f950a642d06233282e1edc7e9c69674237dbdb34648d0e4d677890b913e0d8bc89154604051908152a260015f805160206117ae8339815191525580f35b6020813d60201161061c575b8161060860209383611513565b81010312610618575060206105ae565b5f80fd5b3d91506105fb565b6040513d86823e3d90fd5b90506020813d602011610670575b8161064a60209383611513565b8101031261066c57602093610570610663600193611535565b92505093610561565b8480fd5b3d915061063d565b6040513d87823e3d90fd5b60405162461bcd60e51b81526020600482015260126024820152712634b8a6b5ba1d1039ba34b6361037b832b760711b6044820152606490fd5b634e487b7160e01b86526011600452602486fd5b60405162461bcd60e51b815260206004820152601760248201527f4c69714d6b743a20616c726561647920736574746c65640000000000000000006044820152606490fd5b50346101a657806003193601126101a65761072f61170f565b6107376116f1565b6001805460ff60a01b1916600160a01b1790556040513381527f62e78cea01bee320cd4e420270b5ea74000d11b0c9f74754ebdbfc544b05a25890602090a180f35b50346101a657806003193601126101a657600154336001600160a01b03909116036107eb57600180546001600160a01b0319908116909155815433918116821783556001600160a01b03167f8be0079c531659141344cd1fd0a4f28419497f9722a3daafe3b4186f6b6457e08380a380f35b63118cdaa760e01b815233600452602490fd5b50346101a657806003193601126101a65761081761170f565b600180546001600160a01b03199081169091558154908116825581906001600160a01b03167f8be0079c531659141344cd1fd0a4f28419497f9722a3daafe3b4186f6b6457e08280a380f35b50346101a65760203660031901126101a65760406020916004358152600783522054604051908152f35b50346101a657806003193601126101a657602060ff60015460a01c166040519015158152f35b50346101a65760203660031901126101a657600435906006548210156101a6576101206108df836114b0565b5080549060018060a01b036001820154169060028101546003820154600483015490600584015492600760068601549501549560405197885260208801526040870152606086015260ff81161515608086015260018060a01b039060081c1660a085015260c084015260e0830152610100820152f35b50346101a657806003193601126101a657602060405160c88152f35b50346101a657806003193601126101a65760206040516113888152f35b5034610618576020366003190112610618576004356109ab6116b9565b6109b36116f1565b6109bc816114b0565b50906004820180549060ff821661100b57600284015493600a8501808611610ed1574311610fd457600354815460405163eb02c30160e01b81526004810182905296916001600160a01b031661012088602481845afa978815610e89575f98610fa3575b5060e088015115159182610f34575b505015610eef57610a4a610a45600a924361161f565b61162c565b0460c801948560c811610ed1576103208611610ee5575b6040015190858202828104871483151715610ed15761271090049261138884029380159481810461138814861715610ed1576127109004946101f48202908282046101f4141715610ed157612710610afa9104926001610aca85610ac58a8761161f565b61161f565b610100600160a81b03199091166001600160a81b0319909916989098173360081b610100600160a81b0316179055565b6005830155836006830155846007830155600954848101809111610ed157600955600a545f198114610ed157600101600a557f000000000000000000000000000000000000000000000000000000000000000092604051906323b872dd60e01b5f52336004523060245260445260205f60648180885af160015f5114811615610eb2575b816040525f60605215610e945760035483546301057c4960e61b83526004830152602090829060249082905f906001600160a01b03165af18015610e8957610e5a575b50878460011c610bd1818761161f565b9080610e00575b5080610c6f575b505080610c4e575b50508280610c3c575b5050604051938452602084015260408301527fbc55e16d530ba4a131231329a1f25df2739c1d85f3a5841c9a9636f5ebfda36460603393a360015f805160206117ae8339815191525580f35b610c47913390611735565b5f82610bf0565b600190910154610c6891906001600160a01b031683611735565b5f80610be7565b60018060a01b036005541660405163095ea7b360e01b84528160045282602452602084604481808b5af1906001855114821615610df1575b60405215610d02575b506005546001600160a01b031690813b156104215782916024839260405194859384926302102c9760e11b845260048401525af115610bdf5781610cf391611513565b610cfe57875f610bdf565b8780fd5b90915060405163095ea7b360e01b8b52816004528a60245260208b604481808a5af19060018c5114821615610dd0575b60405215610db4576040519063095ea7b360e01b8b526004528160245260208a60448180895af19060018b5114821615610d93575b60405215610d775788905f610cb0565b635274afe760e01b89526001600160a01b038416600452602489fd5b906001811516610dab57853b15153d15161690610d67565b503d8a823e3d90fd5b635274afe760e01b8a526001600160a01b03851660045260248afd5b906001811516610de857863b15153d15161690610d32565b503d8b823e3d90fd5b90873b15153d15161690610ca7565b6004549192506001600160a01b0390911690813b15610618575f916024839260405194859384926352ac183b60e01b845260048401525af1610e45575b908991610bd8565b610e529199505f90611513565b5f975f610e3d565b6020813d602011610e81575b81610e7360209383611513565b810103126106185751610bc1565b3d9150610e66565b6040513d5f823e3d90fd5b635274afe760e01b5f9081526001600160a01b038516600452602490fd5b6001811516610ec857843b15153d151616610b7e565b503d5f823e3d90fd5b634e487b7160e01b5f52601160045260245ffd5b6103209550610a61565b60405162461bcd60e51b815260206004820152601760248201527f4c69714d6b743a206e6f74206c697120616e796d6f72650000000000000000006044820152606490fd5b602091925060246040518094819363211a444360e01b835260048301525afa908115610e89575f91610f69575b505f80610a2f565b90506020813d602011610f9b575b81610f8460209383611513565b8101031261061857610f9590611535565b5f610f61565b3d9150610f77565b610fc69198506101203d8111610fcd575b610fbe8183611513565b81019061158e565b965f610a20565b503d610fb4565b60405162461bcd60e51b815260206004820152600f60248201526e131a5c535add0e88195e1c1a5c9959608a1b6044820152606490fd5b60405162461bcd60e51b815260206004820152600f60248201526e131a5c535add0e881cd95d1d1b1959608a1b6044820152606490fd5b34610618575f3660031901126106185761105a61170f565b60015460ff8160a01c16156110a15760ff60a01b19166001556040513381527f5db9ee0a495bf2e6ff9c91a7834c1ba4fdd244a5e8aa4e537bd38aeae4b073aa90602090a1005b638dfc202b60e01b5f5260045ffd5b34610618575f366003190112610618576005546040516001600160a01b039091168152602090f35b34610618575f366003190112610618576020600654604051908152f35b34610618575f366003190112610618576020604051600a8152f35b34610618575f3660031901126106185760206040516127108152f35b34610618576020366003190112610618576004356111486116b9565b6111506116f1565b805f52600860205260ff60405f2054166114585760035460405163211a444360e01b8152600481018390526001600160a01b0390911690602081602481855afa908115610e89575f91611412575b506024916111ae61012092611542565b6040519283809263eb02c30160e01b82528660048301525afa908115610e89575f916113f3575b5060e0810151156113ae5760406298968091015110611375576006546040516111fd816114f6565b828152602081013381526040820191438352606081019060c88252608081015f815260a08201915f835260c08101915f835260e08201935f85526101008301955f8752680100000000000000008a10156113615760018a016006556112618a6114b0565b99909961134e579351895596516001890180546001600160a01b039092166001600160a01b0319909216919091179055915160028801559451600387015593516004860180549551610100600160a81b0360089190911b1691151560ff166001600160a81b0319909616959095171790935560079251600585015551600684015551910155815f5260076020528060405f2055815f52600860205260405f20600160ff198254161790557f90dfe73337c90fa63431fec44e21c409a61828025f73f497c3076a4533f688f36040805133815260c86020820152a360015f805160206117ae83398151915255005b634e487b7160e01b5f525f60045260245ffd5b634e487b7160e01b5f52604160045260245ffd5b60405162461bcd60e51b8152602060048201526011602482015270131a5c535add0e881d1bdbc81cdb585b1b607a1b6044820152606490fd5b60405162461bcd60e51b815260206004820152601760248201527f4c69714d6b743a20706f736974696f6e20636c6f7365640000000000000000006044820152606490fd5b61140c91506101203d8111610fcd57610fbe8183611513565b826111d5565b90506020813d602011611450575b8161142d60209383611513565b81010312610618576024916111ae61144761012093611535565b9250509161119e565b3d9150611420565b60405162461bcd60e51b81526020600482015260166024820152754c69714d6b743a2061756374696f6e2065786973747360501b6044820152606490fd5b34610618575f36600319011261061857806101f460209252f35b6006548110156114cc5760065f5260205f209060031b01905f90565b634e487b7160e01b5f52603260045260245ffd5b600435906001600160a01b038216820361061857565b610120810190811067ffffffffffffffff82111761136157604052565b90601f8019910116810190811067ffffffffffffffff82111761136157604052565b5190811515820361061857565b1561154957565b60405162461bcd60e51b815260206004820152601860248201527f4c69714d6b743a206e6f74206c6971756964617461626c6500000000000000006044820152606490fd5b908161012091031261061857604051906115a7826114f6565b8051906001600160a01b0382168203610618576101009183526020810151602084015260408101516040840152606081015160608401526080810151608084015260a081015160a08401526115fe60c08201611535565b60c084015261160f60e08201611535565b60e0840152015161010082015290565b91908203918211610ed157565b906102588202918083046102581490151715610ed157565b61164d906114b0565b5060ff60048201541680156116a1575b61169a57611674610a456002600a9301544361161f565b0460c8018060c811610ed15761032081111561169557506103205b90600190565b61168f565b505f905f90565b506002810154600a8101809111610ed157431161165d565b60025f805160206117ae83398151915254146116e25760025f805160206117ae83398151915255565b633ee5aeb560e01b5f5260045ffd5b60ff60015460a01c1661170057565b63d93c066560e01b5f5260045ffd5b5f546001600160a01b0316330361172257565b63118cdaa760e01b5f523360045260245ffd5b916040519163a9059cbb60e01b5f5260018060a01b031660045260245260205f60448180865af19060015f5114821615611795575b604052156117755750565b635274afe760e01b5f9081526001600160a01b0391909116600452602490fd5b906001811516610ec857823b15153d1516169061176a56fe9b779b17422d0df92223018b32b4d1fa46e071723d6817e2486d003becc55f00a264697066735822122078358097d0ae395e541c81e24112ce54fd1a285417f8a2d88e4b3ac9b7b3384e64736f6c634300081a0033",
  "linkReferences": {},
  "deployedLinkReferences": {}
}