{
  "_format": "hh-sol-artifact-1",
  "contractName": "WikiRevenueDashboard",
  "sourceName": "src/WikiRevenueDashboard.sol",
  "abi": [
    {
      "inputs": [
        {
          "internalType": "address",
          "name": "_owner",
          "type": "address"
        },
        {
          "internalType": "address",
          "name": "_analytics",
          "type": "address"
        },
        {
          "internalType": "address",
          "name": "_opsVault",
          "type": "address"
        }
      ],
      "stateMutability": "nonpayable",
      "type": "constructor"
    },
    {
      "inputs": [
        {
          "internalType": "address",
          "name": "owner",
          "type": "address"
        }
      ],
      "name": "OwnableInvalidOwner",
      "type": "error"
    },
    {
      "inputs": [
        {
          "internalType": "address",
          "name": "account",
          "type": "address"
        }
      ],
      "name": "OwnableUnauthorizedAccount",
      "type": "error"
    },
    {
      "anonymous": false,
      "inputs": [
        {
          "indexed": false,
          "internalType": "uint256",
          "name": "tvl",
          "type": "uint256"
        },
        {
          "indexed": false,
          "internalType": "uint256",
          "name": "propFees",
          "type": "uint256"
        },
        {
          "indexed": false,
          "internalType": "uint256",
          "name": "botFees",
          "type": "uint256"
        }
      ],
      "name": "ManualMetricsUpdated",
      "type": "event"
    },
    {
      "anonymous": false,
      "inputs": [
        {
          "indexed": true,
          "internalType": "address",
          "name": "previousOwner",
          "type": "address"
        },
        {
          "indexed": true,
          "internalType": "address",
          "name": "newOwner",
          "type": "address"
        }
      ],
      "name": "OwnershipTransferStarted",
      "type": "event"
    },
    {
      "anonymous": false,
      "inputs": [
        {
          "indexed": true,
          "internalType": "address",
          "name": "previousOwner",
          "type": "address"
        },
        {
          "indexed": true,
          "internalType": "address",
          "name": "newOwner",
          "type": "address"
        }
      ],
      "name": "OwnershipTransferred",
      "type": "event"
    },
    {
      "inputs": [],
      "name": "acceptOwnership",
      "outputs": [],
      "stateMutability": "nonpayable",
      "type": "function"
    },
    {
      "inputs": [],
      "name": "analytics",
      "outputs": [
        {
          "internalType": "address",
          "name": "",
          "type": "address"
        }
      ],
      "stateMutability": "view",
      "type": "function"
    },
    {
      "inputs": [],
      "name": "backstop",
      "outputs": [
        {
          "internalType": "address",
          "name": "",
          "type": "address"
        }
      ],
      "stateMutability": "view",
      "type": "function"
    },
    {
      "inputs": [
        {
          "internalType": "uint256",
          "name": "",
          "type": "uint256"
        }
      ],
      "name": "dailyRevenue",
      "outputs": [
        {
          "internalType": "uint256",
          "name": "",
          "type": "uint256"
        }
      ],
      "stateMutability": "view",
      "type": "function"
    },
    {
      "inputs": [],
      "name": "get24hFees",
      "outputs": [
        {
          "internalType": "uint256",
          "name": "",
          "type": "uint256"
        }
      ],
      "stateMutability": "view",
      "type": "function"
    },
    {
      "inputs": [],
      "name": "get24hRevenue",
      "outputs": [
        {
          "internalType": "uint256",
          "name": "",
          "type": "uint256"
        }
      ],
      "stateMutability": "view",
      "type": "function"
    },
    {
      "inputs": [],
      "name": "getAnnualisedRevenue",
      "outputs": [
        {
          "internalType": "uint256",
          "name": "",
          "type": "uint256"
        }
      ],
      "stateMutability": "view",
      "type": "function"
    },
    {
      "inputs": [],
      "name": "getFullDashboard",
      "outputs": [
        {
          "internalType": "uint256",
          "name": "tvl",
          "type": "uint256"
        },
        {
          "internalType": "uint256",
          "name": "fees24h",
          "type": "uint256"
        },
        {
          "internalType": "uint256",
          "name": "revenue24h",
          "type": "uint256"
        },
        {
          "internalType": "uint256",
          "name": "feesAllTime",
          "type": "uint256"
        },
        {
          "internalType": "uint256",
          "name": "volumeAllTime",
          "type": "uint256"
        },
        {
          "internalType": "uint256",
          "name": "volume24h",
          "type": "uint256"
        },
        {
          "internalType": "uint256",
          "name": "annualisedRevenue",
          "type": "uint256"
        },
        {
          "internalType": "uint256",
          "name": "opsVaultBalance",
          "type": "uint256"
        },
        {
          "internalType": "uint256",
          "name": "opsVaultYieldEarned",
          "type": "uint256"
        }
      ],
      "stateMutability": "view",
      "type": "function"
    },
    {
      "inputs": [
        {
          "internalType": "uint256",
          "name": "periodDays",
          "type": "uint256"
        }
      ],
      "name": "getProtocolRevenue",
      "outputs": [
        {
          "internalType": "uint256",
          "name": "revenue",
          "type": "uint256"
        }
      ],
      "stateMutability": "view",
      "type": "function"
    },
    {
      "inputs": [],
      "name": "getTVL",
      "outputs": [
        {
          "internalType": "uint256",
          "name": "",
          "type": "uint256"
        }
      ],
      "stateMutability": "view",
      "type": "function"
    },
    {
      "inputs": [],
      "name": "lastManualUpdate",
      "outputs": [
        {
          "internalType": "uint256",
          "name": "",
          "type": "uint256"
        }
      ],
      "stateMutability": "view",
      "type": "function"
    },
    {
      "inputs": [],
      "name": "lending",
      "outputs": [
        {
          "internalType": "address",
          "name": "",
          "type": "address"
        }
      ],
      "stateMutability": "view",
      "type": "function"
    },
    {
      "inputs": [],
      "name": "manualBotFees24h",
      "outputs": [
        {
          "internalType": "uint256",
          "name": "",
          "type": "uint256"
        }
      ],
      "stateMutability": "view",
      "type": "function"
    },
    {
      "inputs": [],
      "name": "manualPropFees24h",
      "outputs": [
        {
          "internalType": "uint256",
          "name": "",
          "type": "uint256"
        }
      ],
      "stateMutability": "view",
      "type": "function"
    },
    {
      "inputs": [],
      "name": "manualTVL",
      "outputs": [
        {
          "internalType": "uint256",
          "name": "",
          "type": "uint256"
        }
      ],
      "stateMutability": "view",
      "type": "function"
    },
    {
      "inputs": [],
      "name": "opsVault",
      "outputs": [
        {
          "internalType": "address",
          "name": "",
          "type": "address"
        }
      ],
      "stateMutability": "view",
      "type": "function"
    },
    {
      "inputs": [],
      "name": "owner",
      "outputs": [
        {
          "internalType": "address",
          "name": "",
          "type": "address"
        }
      ],
      "stateMutability": "view",
      "type": "function"
    },
    {
      "inputs": [],
      "name": "pendingOwner",
      "outputs": [
        {
          "internalType": "address",
          "name": "",
          "type": "address"
        }
      ],
      "stateMutability": "view",
      "type": "function"
    },
    {
      "inputs": [],
      "name": "renounceOwnership",
      "outputs": [],
      "stateMutability": "nonpayable",
      "type": "function"
    },
    {
      "inputs": [
        {
          "internalType": "uint256",
          "name": "",
          "type": "uint256"
        }
      ],
      "name": "revenueHistory",
      "outputs": [
        {
          "internalType": "uint256",
          "name": "",
          "type": "uint256"
        }
      ],
      "stateMutability": "view",
      "type": "function"
    },
    {
      "inputs": [
        {
          "internalType": "address",
          "name": "_analytics",
          "type": "address"
        },
        {
          "internalType": "address",
          "name": "_opsVault",
          "type": "address"
        },
        {
          "internalType": "address",
          "name": "_backstop",
          "type": "address"
        },
        {
          "internalType": "address",
          "name": "_lending",
          "type": "address"
        }
      ],
      "name": "setContracts",
      "outputs": [],
      "stateMutability": "nonpayable",
      "type": "function"
    },
    {
      "inputs": [
        {
          "internalType": "address",
          "name": "newOwner",
          "type": "address"
        }
      ],
      "name": "transferOwnership",
      "outputs": [],
      "stateMutability": "nonpayable",
      "type": "function"
    },
    {
      "inputs": [
        {
          "internalType": "uint256",
          "name": "tvl",
          "type": "uint256"
        },
        {
          "internalType": "uint256",
          "name": "propFees24h",
          "type": "uint256"
        },
        {
          "internalType": "uint256",
          "name": "botFees24h",
          "type": "uint256"
        }
      ],
      "name": "updateManualMetrics",
      "outputs": [],
      "stateMutability": "nonpayable",
      "type": "function"
    }
  ],
  "bytecode": "0x60803461010f57601f610eff38819003918201601f19168301916001600160401b038311848410176101135780849260609460405283398101031261010f5761004781610127565b61005f604061005860208501610127565b9301610127565b6001600160a01b039091169182156100fc57600180546001600160a01b03199081169091555f80549182168517815560405194916001600160a01b0316907f8be0079c531659141344cd1fd0a4f28419497f9722a3daafe3b4186f6b6457e09080a3600280546001600160a01b039283166001600160a01b03199182161790915560038054939092169216919091179055610dc3908161013c8239f35b631e4fbdf760e01b5f525f60045260245ffd5b5f80fd5b634e487b7160e01b5f52604160045260245ffd5b51906001600160a01b038216820361010f5756fe6080806040526004361015610012575f80fd5b5f3560e01c908163023f910c14610cef5750806320a3babc14610cc557806328abcccc14610c3d5780633db2b7a114610c205780634d0772e514610be857806356c96754146108f55780636743358b14610791578063715018a61461072e57806379ba5097146106a95780637dea18171461068157806380d5ac8a1461065957806384c377fa146105c7578063887c9295146105295780638da5cb5b1461050257806395e97eee146104da57806397b3fcaa146103bb578063bf989b6e146102d2578063d01ba6a314610214578063e30c3978146101ec578063e673ea10146101cf578063e6fad31b146101b2578063f2fde38b146101455763f60b972614610119575f80fd5b34610141575f366003190112610141576003546040516001600160a01b039091168152602090f35b5f80fd5b346101415760203660031901126101415761015e610d35565b610166610d7a565b60018060a01b0316806001600160601b0360a01b600154161760015560018060a01b035f54167f38d16b8cac22d99fc7c124b9cd0de2d3fa1faef420bfe791d8c362d765e227005f80a3005b34610141575f366003190112610141576020600954604051908152f35b34610141575f366003190112610141576020600654604051908152f35b34610141575f366003190112610141576001546040516001600160a01b039091168152602090f35b34610141575f366003190112610141576002545f906001600160a01b03168061025b575b602061025361024a8460075490610d6d565b60085490610d6d565b604051908152f35b60206004916040519283809263d01ba6a360e01b82525afa5f918161029d575b506020926102539261024a92610295575b50925050610238565b90508461028c565b9091506020813d6020116102ca575b816102b960209383610d4b565b81010312610141575190602061027b565b3d91506102ac565b34610141576080366003190112610141576102eb610d35565b6024356001600160a01b03811690819003610141576044356001600160a01b0381169190829003610141576064356001600160a01b038116939084900361014157610334610d7a565b6001600160a01b0316806103a2575b5080610389575b5080610370575b508061035957005b6001600160601b0360a01b60055416176005555f80f35b6001600160601b0360a01b600454161760045581610351565b6001600160601b0360a01b60035416176003558261034a565b6001600160601b0360a01b600254161760025583610343565b34610141575f366003190112610141576006546003546001600160a01b031680610471575b506004546001600160a01b031690816103ff575b602090604051908152f35b6020600492604051938480926278744560e21b82525afa805f9161043c575b6020935061042d575b506103f4565b61043691610d6d565b82610427565b90506020833d602011610469575b8161045760209383610d4b565b8101031261014157602092519061041e565b3d915061044a565b6020600491604051928380926306a61f7560e51b82525afa5f91816104a6575b50156103e0576104a091610d6d565b816103e0565b9091506020813d6020116104d2575b816104c260209383610d4b565b8101031261014157519083610491565b3d91506104b5565b34610141575f366003190112610141576005546040516001600160a01b039091168152602090f35b34610141575f366003190112610141575f546040516001600160a01b039091168152602090f35b34610141576020366003190112610141576004356201518042045f805b838210806105bc575b1561059b578183039083821161058757610575915f52600a60205260405f205490610d6d565b905f1981146105875760010190610546565b634e487b7160e01b5f52601160045260245ffd5b601e810290808204601e149015171561058757602090606460405191048152f35b50600b54821061054f565b34610141575f36600319011261014157604051630a2af33360e21b8152602081600481305afa90811561064e575f9161061c575b5061016d81029080820461016d149015171561058757602090604051908152f35b90506020813d602011610646575b8161063760209383610d4b565b810103126101415751816105fb565b3d915061062a565b6040513d5f823e3d90fd5b34610141575f366003190112610141576002546040516001600160a01b039091168152602090f35b34610141575f366003190112610141576004546040516001600160a01b039091168152602090f35b34610141575f36600319011261014157600154336001600160a01b039091160361071b57600180546001600160a01b03199081169091555f805433928116831782556001600160a01b0316907f8be0079c531659141344cd1fd0a4f28419497f9722a3daafe3b4186f6b6457e09080a3005b63118cdaa760e01b5f523360045260245ffd5b34610141575f36600319011261014157610746610d7a565b600180546001600160a01b03199081169091555f80549182168155906001600160a01b03167f8be0079c531659141344cd1fd0a4f28419497f9722a3daafe3b4186f6b6457e08280a3005b34610141576060366003190112610141576004356044356024356107b3610d7a565b82600655806007558160085542600955620151804204805f52600a60205260405f2054156108a4575b60405163d01ba6a360e01b815290602082600481305afa91821561064e575f92610848575b7fa5c1928931fcac283e0c9bc05bd4de6278a367bc568a931f31502323d9954045606087878787875f52600a60205260405f205560405192835260208301526040820152a1005b93915093916020843d60201161089c575b8161086660209383610d4b565b810103126101415792519193909291907fa5c1928931fcac283e0c9bc05bd4de6278a367bc568a931f31502323d9954045610801565b3d9150610859565b600b54680100000000000000008110156108e1578060016108c89201600b55610d09565b81549060031b9083821b915f19901b19161790556107dc565b634e487b7160e01b5f52604160045260245ffd5b34610141575f36600319011261014157604051634bd9fe5560e11b81525f9081808080602085600481305afa94851561064e575f95610bb4575b5060405163d01ba6a360e01b815295602087600481305afa96871561064e575f97610b80575b50601e8702878104601e148815171561058757606490049261016d84029380850461016d1481151715610587576002546001600160a01b031680610a5b575b506003546001600160a01b031698896109de575b6101209950604051988952602089015260408801526060870152608086015260a085015260c084015260e0830152610100820152f35b61014060049a6040519b8c809263a2c9409960e01b82525afa5f815f92610a1d575b6101209c50610a11575b50506109a8565b90985096508a80610a0a565b9150506101408b3d8211610a53575b81610a3a6101409383610d4b565b81010312610141578a60806101209c5191015191610a00565b3d9150610a2c565b6040516337dac44160e01b8152602081600481855afa5f9181610b4c575b50610b44575b506040516361c9c00560e11b8152602081600481855afa5f9181610b10575b50610b07575b5060206004916040519283809263613e0f5960e01b82525afa5f9181610ad3575b501561099457935089610994565b9091506020813d602011610aff575b81610aef60209383610d4b565b810103126101415751908b610ac5565b3d9150610ae2565b93506020610aa4565b9091506020813d602011610b3c575b81610b2c60209383610d4b565b810103126101415751908c610a9e565b3d9150610b1f565b92508a610a7f565b9091506020813d602011610b78575b81610b6860209383610d4b565b810103126101415751908c610a79565b3d9150610b5b565b9096506020813d602011610bac575b81610b9c60209383610d4b565b8101031261014157519587610955565b3d9150610b8f565b9094506020813d602011610be0575b81610bd060209383610d4b565b810103126101415751938661092f565b3d9150610bc3565b3461014157602036600319011261014157600435600b5481101561014157610c11602091610d09565b90549060031b1c604051908152f35b34610141575f366003190112610141576020600754604051908152f35b34610141575f3660031901126101415760405163d01ba6a360e01b8152602081600481305afa90811561064e575f91610c93575b50601e810290808204601e149015171561058757602090606460405191048152f35b90506020813d602011610cbd575b81610cae60209383610d4b565b81010312610141575181610c71565b3d9150610ca1565b34610141576020366003190112610141576004355f52600a602052602060405f2054604051908152f35b34610141575f366003190112610141576020906008548152f35b600b54811015610d2157600b5f5260205f2001905f90565b634e487b7160e01b5f52603260045260245ffd5b600435906001600160a01b038216820361014157565b90601f8019910116810190811067ffffffffffffffff8211176108e157604052565b9190820180921161058757565b5f546001600160a01b0316330361071b5756fea2646970667358221220a341fc9d510ed3c77f62208e1bb3db816646ff512ef87d591b015ca75d285d8864736f6c634300081a0033",
  "linkReferences": {},
  "deployedLinkReferences": {}
}