{
  "_format": "hh-sol-artifact-1",
  "contractName": "WIKToken",
  "sourceName": "src/WIKToken.sol",
  "abi": [
    {
      "inputs": [
        {
          "internalType": "address",
          "name": "_multisig",
          "type": "address"
        },
        {
          "internalType": "address",
          "name": "_communityEmitter",
          "type": "address"
        },
        {
          "internalType": "address",
          "name": "_polVault",
          "type": "address"
        },
        {
          "internalType": "address",
          "name": "_teamVesting",
          "type": "address"
        },
        {
          "internalType": "address",
          "name": "_investorVesting",
          "type": "address"
        },
        {
          "internalType": "address",
          "name": "_treasury",
          "type": "address"
        },
        {
          "internalType": "address",
          "name": "_publicSale",
          "type": "address"
        },
        {
          "internalType": "address",
          "name": "_reserve",
          "type": "address"
        }
      ],
      "stateMutability": "nonpayable",
      "type": "constructor"
    },
    {
      "inputs": [],
      "name": "CheckpointUnorderedInsertion",
      "type": "error"
    },
    {
      "inputs": [],
      "name": "ECDSAInvalidSignature",
      "type": "error"
    },
    {
      "inputs": [
        {
          "internalType": "uint256",
          "name": "length",
          "type": "uint256"
        }
      ],
      "name": "ECDSAInvalidSignatureLength",
      "type": "error"
    },
    {
      "inputs": [
        {
          "internalType": "bytes32",
          "name": "s",
          "type": "bytes32"
        }
      ],
      "name": "ECDSAInvalidSignatureS",
      "type": "error"
    },
    {
      "inputs": [
        {
          "internalType": "uint256",
          "name": "increasedSupply",
          "type": "uint256"
        },
        {
          "internalType": "uint256",
          "name": "cap",
          "type": "uint256"
        }
      ],
      "name": "ERC20ExceededSafeSupply",
      "type": "error"
    },
    {
      "inputs": [
        {
          "internalType": "address",
          "name": "spender",
          "type": "address"
        },
        {
          "internalType": "uint256",
          "name": "allowance",
          "type": "uint256"
        },
        {
          "internalType": "uint256",
          "name": "needed",
          "type": "uint256"
        }
      ],
      "name": "ERC20InsufficientAllowance",
      "type": "error"
    },
    {
      "inputs": [
        {
          "internalType": "address",
          "name": "sender",
          "type": "address"
        },
        {
          "internalType": "uint256",
          "name": "balance",
          "type": "uint256"
        },
        {
          "internalType": "uint256",
          "name": "needed",
          "type": "uint256"
        }
      ],
      "name": "ERC20InsufficientBalance",
      "type": "error"
    },
    {
      "inputs": [
        {
          "internalType": "address",
          "name": "approver",
          "type": "address"
        }
      ],
      "name": "ERC20InvalidApprover",
      "type": "error"
    },
    {
      "inputs": [
        {
          "internalType": "address",
          "name": "receiver",
          "type": "address"
        }
      ],
      "name": "ERC20InvalidReceiver",
      "type": "error"
    },
    {
      "inputs": [
        {
          "internalType": "address",
          "name": "sender",
          "type": "address"
        }
      ],
      "name": "ERC20InvalidSender",
      "type": "error"
    },
    {
      "inputs": [
        {
          "internalType": "address",
          "name": "spender",
          "type": "address"
        }
      ],
      "name": "ERC20InvalidSpender",
      "type": "error"
    },
    {
      "inputs": [
        {
          "internalType": "uint256",
          "name": "deadline",
          "type": "uint256"
        }
      ],
      "name": "ERC2612ExpiredSignature",
      "type": "error"
    },
    {
      "inputs": [
        {
          "internalType": "address",
          "name": "signer",
          "type": "address"
        },
        {
          "internalType": "address",
          "name": "owner",
          "type": "address"
        }
      ],
      "name": "ERC2612InvalidSigner",
      "type": "error"
    },
    {
      "inputs": [
        {
          "internalType": "uint256",
          "name": "timepoint",
          "type": "uint256"
        },
        {
          "internalType": "uint48",
          "name": "clock",
          "type": "uint48"
        }
      ],
      "name": "ERC5805FutureLookup",
      "type": "error"
    },
    {
      "inputs": [],
      "name": "ERC6372InconsistentClock",
      "type": "error"
    },
    {
      "inputs": [
        {
          "internalType": "address",
          "name": "account",
          "type": "address"
        },
        {
          "internalType": "uint256",
          "name": "currentNonce",
          "type": "uint256"
        }
      ],
      "name": "InvalidAccountNonce",
      "type": "error"
    },
    {
      "inputs": [],
      "name": "InvalidShortString",
      "type": "error"
    },
    {
      "inputs": [
        {
          "internalType": "address",
          "name": "owner",
          "type": "address"
        }
      ],
      "name": "OwnableInvalidOwner",
      "type": "error"
    },
    {
      "inputs": [
        {
          "internalType": "address",
          "name": "account",
          "type": "address"
        }
      ],
      "name": "OwnableUnauthorizedAccount",
      "type": "error"
    },
    {
      "inputs": [
        {
          "internalType": "uint8",
          "name": "bits",
          "type": "uint8"
        },
        {
          "internalType": "uint256",
          "name": "value",
          "type": "uint256"
        }
      ],
      "name": "SafeCastOverflowedUintDowncast",
      "type": "error"
    },
    {
      "inputs": [
        {
          "internalType": "string",
          "name": "str",
          "type": "string"
        }
      ],
      "name": "StringTooLong",
      "type": "error"
    },
    {
      "inputs": [
        {
          "internalType": "uint256",
          "name": "expiry",
          "type": "uint256"
        }
      ],
      "name": "VotesExpiredSignature",
      "type": "error"
    },
    {
      "anonymous": false,
      "inputs": [
        {
          "indexed": true,
          "internalType": "string",
          "name": "name",
          "type": "string"
        },
        {
          "indexed": true,
          "internalType": "address",
          "name": "to",
          "type": "address"
        },
        {
          "indexed": false,
          "internalType": "uint256",
          "name": "amount",
          "type": "uint256"
        }
      ],
      "name": "AllocationMinted",
      "type": "event"
    },
    {
      "anonymous": false,
      "inputs": [
        {
          "indexed": true,
          "internalType": "address",
          "name": "owner",
          "type": "address"
        },
        {
          "indexed": true,
          "internalType": "address",
          "name": "spender",
          "type": "address"
        },
        {
          "indexed": false,
          "internalType": "uint256",
          "name": "value",
          "type": "uint256"
        }
      ],
      "name": "Approval",
      "type": "event"
    },
    {
      "anonymous": false,
      "inputs": [
        {
          "indexed": true,
          "internalType": "address",
          "name": "delegator",
          "type": "address"
        },
        {
          "indexed": true,
          "internalType": "address",
          "name": "fromDelegate",
          "type": "address"
        },
        {
          "indexed": true,
          "internalType": "address",
          "name": "toDelegate",
          "type": "address"
        }
      ],
      "name": "DelegateChanged",
      "type": "event"
    },
    {
      "anonymous": false,
      "inputs": [
        {
          "indexed": true,
          "internalType": "address",
          "name": "delegate",
          "type": "address"
        },
        {
          "indexed": false,
          "internalType": "uint256",
          "name": "previousVotes",
          "type": "uint256"
        },
        {
          "indexed": false,
          "internalType": "uint256",
          "name": "newVotes",
          "type": "uint256"
        }
      ],
      "name": "DelegateVotesChanged",
      "type": "event"
    },
    {
      "anonymous": false,
      "inputs": [],
      "name": "EIP712DomainChanged",
      "type": "event"
    },
    {
      "anonymous": false,
      "inputs": [
        {
          "indexed": true,
          "internalType": "address",
          "name": "minter",
          "type": "address"
        },
        {
          "indexed": false,
          "internalType": "bool",
          "name": "enabled",
          "type": "bool"
        }
      ],
      "name": "MinterSet",
      "type": "event"
    },
    {
      "anonymous": false,
      "inputs": [
        {
          "indexed": true,
          "internalType": "address",
          "name": "previousOwner",
          "type": "address"
        },
        {
          "indexed": true,
          "internalType": "address",
          "name": "newOwner",
          "type": "address"
        }
      ],
      "name": "OwnershipTransferStarted",
      "type": "event"
    },
    {
      "anonymous": false,
      "inputs": [
        {
          "indexed": true,
          "internalType": "address",
          "name": "previousOwner",
          "type": "address"
        },
        {
          "indexed": true,
          "internalType": "address",
          "name": "newOwner",
          "type": "address"
        }
      ],
      "name": "OwnershipTransferred",
      "type": "event"
    },
    {
      "anonymous": false,
      "inputs": [
        {
          "indexed": true,
          "internalType": "address",
          "name": "from",
          "type": "address"
        },
        {
          "indexed": true,
          "internalType": "address",
          "name": "to",
          "type": "address"
        },
        {
          "indexed": false,
          "internalType": "uint256",
          "name": "value",
          "type": "uint256"
        }
      ],
      "name": "Transfer",
      "type": "event"
    },
    {
      "inputs": [],
      "name": "CLOCK_MODE",
      "outputs": [
        {
          "internalType": "string",
          "name": "",
          "type": "string"
        }
      ],
      "stateMutability": "view",
      "type": "function"
    },
    {
      "inputs": [],
      "name": "COMMUNITY_ALLOC",
      "outputs": [
        {
          "internalType": "uint256",
          "name": "",
          "type": "uint256"
        }
      ],
      "stateMutability": "view",
      "type": "function"
    },
    {
      "inputs": [],
      "name": "DOMAIN_SEPARATOR",
      "outputs": [
        {
          "internalType": "bytes32",
          "name": "",
          "type": "bytes32"
        }
      ],
      "stateMutability": "view",
      "type": "function"
    },
    {
      "inputs": [],
      "name": "INVESTOR_ALLOC",
      "outputs": [
        {
          "internalType": "uint256",
          "name": "",
          "type": "uint256"
        }
      ],
      "stateMutability": "view",
      "type": "function"
    },
    {
      "inputs": [],
      "name": "MAX_SUPPLY",
      "outputs": [
        {
          "internalType": "uint256",
          "name": "",
          "type": "uint256"
        }
      ],
      "stateMutability": "view",
      "type": "function"
    },
    {
      "inputs": [],
      "name": "POL_ALLOC",
      "outputs": [
        {
          "internalType": "uint256",
          "name": "",
          "type": "uint256"
        }
      ],
      "stateMutability": "view",
      "type": "function"
    },
    {
      "inputs": [],
      "name": "PUBLIC_ALLOC",
      "outputs": [
        {
          "internalType": "uint256",
          "name": "",
          "type": "uint256"
        }
      ],
      "stateMutability": "view",
      "type": "function"
    },
    {
      "inputs": [],
      "name": "RESERVE_ALLOC",
      "outputs": [
        {
          "internalType": "uint256",
          "name": "",
          "type": "uint256"
        }
      ],
      "stateMutability": "view",
      "type": "function"
    },
    {
      "inputs": [],
      "name": "TEAM_ALLOC",
      "outputs": [
        {
          "internalType": "uint256",
          "name": "",
          "type": "uint256"
        }
      ],
      "stateMutability": "view",
      "type": "function"
    },
    {
      "inputs": [],
      "name": "TREASURY_ALLOC",
      "outputs": [
        {
          "internalType": "uint256",
          "name": "",
          "type": "uint256"
        }
      ],
      "stateMutability": "view",
      "type": "function"
    },
    {
      "inputs": [],
      "name": "acceptOwnership",
      "outputs": [],
      "stateMutability": "nonpayable",
      "type": "function"
    },
    {
      "inputs": [],
      "name": "allocationSchedule",
      "outputs": [
        {
          "internalType": "string",
          "name": "note",
          "type": "string"
        },
        {
          "internalType": "uint256",
          "name": "totalSupply_",
          "type": "uint256"
        },
        {
          "components": [
            {
              "internalType": "string",
              "name": "name",
              "type": "string"
            },
            {
              "internalType": "uint256",
              "name": "pct",
              "type": "uint256"
            },
            {
              "internalType": "uint256",
              "name": "amount",
              "type": "uint256"
            },
            {
              "internalType": "address",
              "name": "destination",
              "type": "address"
            },
            {
              "internalType": "string",
              "name": "vestingNote",
              "type": "string"
            }
          ],
          "internalType": "struct WIKToken.AllocationInfo[]",
          "name": "allocations",
          "type": "tuple[]"
        }
      ],
      "stateMutability": "view",
      "type": "function"
    },
    {
      "inputs": [
        {
          "internalType": "address",
          "name": "owner",
          "type": "address"
        },
        {
          "internalType": "address",
          "name": "spender",
          "type": "address"
        }
      ],
      "name": "allowance",
      "outputs": [
        {
          "internalType": "uint256",
          "name": "",
          "type": "uint256"
        }
      ],
      "stateMutability": "view",
      "type": "function"
    },
    {
      "inputs": [
        {
          "internalType": "address",
          "name": "spender",
          "type": "address"
        },
        {
          "internalType": "uint256",
          "name": "value",
          "type": "uint256"
        }
      ],
      "name": "approve",
      "outputs": [
        {
          "internalType": "bool",
          "name": "",
          "type": "bool"
        }
      ],
      "stateMutability": "nonpayable",
      "type": "function"
    },
    {
      "inputs": [
        {
          "internalType": "address",
          "name": "account",
          "type": "address"
        }
      ],
      "name": "balanceOf",
      "outputs": [
        {
          "internalType": "uint256",
          "name": "",
          "type": "uint256"
        }
      ],
      "stateMutability": "view",
      "type": "function"
    },
    {
      "inputs": [
        {
          "internalType": "uint256",
          "name": "value",
          "type": "uint256"
        }
      ],
      "name": "burn",
      "outputs": [],
      "stateMutability": "nonpayable",
      "type": "function"
    },
    {
      "inputs": [
        {
          "internalType": "address",
          "name": "account",
          "type": "address"
        },
        {
          "internalType": "uint256",
          "name": "value",
          "type": "uint256"
        }
      ],
      "name": "burnFrom",
      "outputs": [],
      "stateMutability": "nonpayable",
      "type": "function"
    },
    {
      "inputs": [
        {
          "internalType": "address",
          "name": "account",
          "type": "address"
        },
        {
          "internalType": "uint32",
          "name": "pos",
          "type": "uint32"
        }
      ],
      "name": "checkpoints",
      "outputs": [
        {
          "components": [
            {
              "internalType": "uint48",
              "name": "_key",
              "type": "uint48"
            },
            {
              "internalType": "uint208",
              "name": "_value",
              "type": "uint208"
            }
          ],
          "internalType": "struct Checkpoints.Checkpoint208",
          "name": "",
          "type": "tuple"
        }
      ],
      "stateMutability": "view",
      "type": "function"
    },
    {
      "inputs": [],
      "name": "clock",
      "outputs": [
        {
          "internalType": "uint48",
          "name": "",
          "type": "uint48"
        }
      ],
      "stateMutability": "view",
      "type": "function"
    },
    {
      "inputs": [],
      "name": "communityEmitter",
      "outputs": [
        {
          "internalType": "address",
          "name": "",
          "type": "address"
        }
      ],
      "stateMutability": "view",
      "type": "function"
    },
    {
      "inputs": [],
      "name": "decimals",
      "outputs": [
        {
          "internalType": "uint8",
          "name": "",
          "type": "uint8"
        }
      ],
      "stateMutability": "view",
      "type": "function"
    },
    {
      "inputs": [
        {
          "internalType": "address",
          "name": "delegatee",
          "type": "address"
        }
      ],
      "name": "delegate",
      "outputs": [],
      "stateMutability": "nonpayable",
      "type": "function"
    },
    {
      "inputs": [
        {
          "internalType": "address",
          "name": "delegatee",
          "type": "address"
        },
        {
          "internalType": "uint256",
          "name": "nonce",
          "type": "uint256"
        },
        {
          "internalType": "uint256",
          "name": "expiry",
          "type": "uint256"
        },
        {
          "internalType": "uint8",
          "name": "v",
          "type": "uint8"
        },
        {
          "internalType": "bytes32",
          "name": "r",
          "type": "bytes32"
        },
        {
          "internalType": "bytes32",
          "name": "s",
          "type": "bytes32"
        }
      ],
      "name": "delegateBySig",
      "outputs": [],
      "stateMutability": "nonpayable",
      "type": "function"
    },
    {
      "inputs": [
        {
          "internalType": "address",
          "name": "account",
          "type": "address"
        }
      ],
      "name": "delegates",
      "outputs": [
        {
          "internalType": "address",
          "name": "",
          "type": "address"
        }
      ],
      "stateMutability": "view",
      "type": "function"
    },
    {
      "inputs": [],
      "name": "eip712Domain",
      "outputs": [
        {
          "internalType": "bytes1",
          "name": "fields",
          "type": "bytes1"
        },
        {
          "internalType": "string",
          "name": "name",
          "type": "string"
        },
        {
          "internalType": "string",
          "name": "version",
          "type": "string"
        },
        {
          "internalType": "uint256",
          "name": "chainId",
          "type": "uint256"
        },
        {
          "internalType": "address",
          "name": "verifyingContract",
          "type": "address"
        },
        {
          "internalType": "bytes32",
          "name": "salt",
          "type": "bytes32"
        },
        {
          "internalType": "uint256[]",
          "name": "extensions",
          "type": "uint256[]"
        }
      ],
      "stateMutability": "view",
      "type": "function"
    },
    {
      "inputs": [
        {
          "internalType": "address",
          "name": "user",
          "type": "address"
        }
      ],
      "name": "getDiscount",
      "outputs": [
        {
          "internalType": "uint256",
          "name": "makerDiscount",
          "type": "uint256"
        },
        {
          "internalType": "uint256",
          "name": "takerDiscount",
          "type": "uint256"
        }
      ],
      "stateMutability": "view",
      "type": "function"
    },
    {
      "inputs": [
        {
          "internalType": "uint256",
          "name": "timepoint",
          "type": "uint256"
        }
      ],
      "name": "getPastTotalSupply",
      "outputs": [
        {
          "internalType": "uint256",
          "name": "",
          "type": "uint256"
        }
      ],
      "stateMutability": "view",
      "type": "function"
    },
    {
      "inputs": [
        {
          "internalType": "address",
          "name": "account",
          "type": "address"
        },
        {
          "internalType": "uint256",
          "name": "timepoint",
          "type": "uint256"
        }
      ],
      "name": "getPastVotes",
      "outputs": [
        {
          "internalType": "uint256",
          "name": "",
          "type": "uint256"
        }
      ],
      "stateMutability": "view",
      "type": "function"
    },
    {
      "inputs": [
        {
          "internalType": "address",
          "name": "account",
          "type": "address"
        }
      ],
      "name": "getVotes",
      "outputs": [
        {
          "internalType": "uint256",
          "name": "",
          "type": "uint256"
        }
      ],
      "stateMutability": "view",
      "type": "function"
    },
    {
      "inputs": [],
      "name": "investorVesting",
      "outputs": [
        {
          "internalType": "address",
          "name": "",
          "type": "address"
        }
      ],
      "stateMutability": "view",
      "type": "function"
    },
    {
      "inputs": [
        {
          "internalType": "address",
          "name": "to",
          "type": "address"
        },
        {
          "internalType": "uint256",
          "name": "amount",
          "type": "uint256"
        }
      ],
      "name": "mint",
      "outputs": [],
      "stateMutability": "nonpayable",
      "type": "function"
    },
    {
      "inputs": [
        {
          "internalType": "address",
          "name": "",
          "type": "address"
        }
      ],
      "name": "minters",
      "outputs": [
        {
          "internalType": "bool",
          "name": "",
          "type": "bool"
        }
      ],
      "stateMutability": "view",
      "type": "function"
    },
    {
      "inputs": [],
      "name": "name",
      "outputs": [
        {
          "internalType": "string",
          "name": "",
          "type": "string"
        }
      ],
      "stateMutability": "view",
      "type": "function"
    },
    {
      "inputs": [
        {
          "internalType": "address",
          "name": "owner",
          "type": "address"
        }
      ],
      "name": "nonces",
      "outputs": [
        {
          "internalType": "uint256",
          "name": "",
          "type": "uint256"
        }
      ],
      "stateMutability": "view",
      "type": "function"
    },
    {
      "inputs": [
        {
          "internalType": "address",
          "name": "account",
          "type": "address"
        }
      ],
      "name": "numCheckpoints",
      "outputs": [
        {
          "internalType": "uint32",
          "name": "",
          "type": "uint32"
        }
      ],
      "stateMutability": "view",
      "type": "function"
    },
    {
      "inputs": [],
      "name": "owner",
      "outputs": [
        {
          "internalType": "address",
          "name": "",
          "type": "address"
        }
      ],
      "stateMutability": "view",
      "type": "function"
    },
    {
      "inputs": [],
      "name": "pendingOwner",
      "outputs": [
        {
          "internalType": "address",
          "name": "",
          "type": "address"
        }
      ],
      "stateMutability": "view",
      "type": "function"
    },
    {
      "inputs": [
        {
          "internalType": "address",
          "name": "owner",
          "type": "address"
        },
        {
          "internalType": "address",
          "name": "spender",
          "type": "address"
        },
        {
          "internalType": "uint256",
          "name": "value",
          "type": "uint256"
        },
        {
          "internalType": "uint256",
          "name": "deadline",
          "type": "uint256"
        },
        {
          "internalType": "uint8",
          "name": "v",
          "type": "uint8"
        },
        {
          "internalType": "bytes32",
          "name": "r",
          "type": "bytes32"
        },
        {
          "internalType": "bytes32",
          "name": "s",
          "type": "bytes32"
        }
      ],
      "name": "permit",
      "outputs": [],
      "stateMutability": "nonpayable",
      "type": "function"
    },
    {
      "inputs": [],
      "name": "polVault",
      "outputs": [
        {
          "internalType": "address",
          "name": "",
          "type": "address"
        }
      ],
      "stateMutability": "view",
      "type": "function"
    },
    {
      "inputs": [],
      "name": "publicSale",
      "outputs": [
        {
          "internalType": "address",
          "name": "",
          "type": "address"
        }
      ],
      "stateMutability": "view",
      "type": "function"
    },
    {
      "inputs": [],
      "name": "renounceOwnership",
      "outputs": [],
      "stateMutability": "nonpayable",
      "type": "function"
    },
    {
      "inputs": [],
      "name": "reserve",
      "outputs": [
        {
          "internalType": "address",
          "name": "",
          "type": "address"
        }
      ],
      "stateMutability": "view",
      "type": "function"
    },
    {
      "inputs": [
        {
          "internalType": "address",
          "name": "minter",
          "type": "address"
        },
        {
          "internalType": "bool",
          "name": "enabled",
          "type": "bool"
        }
      ],
      "name": "setMinter",
      "outputs": [],
      "stateMutability": "nonpayable",
      "type": "function"
    },
    {
      "inputs": [],
      "name": "symbol",
      "outputs": [
        {
          "internalType": "string",
          "name": "",
          "type": "string"
        }
      ],
      "stateMutability": "view",
      "type": "function"
    },
    {
      "inputs": [],
      "name": "teamVesting",
      "outputs": [
        {
          "internalType": "address",
          "name": "",
          "type": "address"
        }
      ],
      "stateMutability": "view",
      "type": "function"
    },
    {
      "inputs": [
        {
          "internalType": "uint256",
          "name": "",
          "type": "uint256"
        }
      ],
      "name": "tiers",
      "outputs": [
        {
          "internalType": "uint256",
          "name": "minWIK",
          "type": "uint256"
        },
        {
          "internalType": "uint256",
          "name": "makerDiscount",
          "type": "uint256"
        },
        {
          "internalType": "uint256",
          "name": "takerDiscount",
          "type": "uint256"
        }
      ],
      "stateMutability": "view",
      "type": "function"
    },
    {
      "inputs": [],
      "name": "totalSupply",
      "outputs": [
        {
          "internalType": "uint256",
          "name": "",
          "type": "uint256"
        }
      ],
      "stateMutability": "view",
      "type": "function"
    },
    {
      "inputs": [
        {
          "internalType": "address",
          "name": "to",
          "type": "address"
        },
        {
          "internalType": "uint256",
          "name": "value",
          "type": "uint256"
        }
      ],
      "name": "transfer",
      "outputs": [
        {
          "internalType": "bool",
          "name": "",
          "type": "bool"
        }
      ],
      "stateMutability": "nonpayable",
      "type": "function"
    },
    {
      "inputs": [
        {
          "internalType": "address",
          "name": "from",
          "type": "address"
        },
        {
          "internalType": "address",
          "name": "to",
          "type": "address"
        },
        {
          "internalType": "uint256",
          "name": "value",
          "type": "uint256"
        }
      ],
      "name": "transferFrom",
      "outputs": [
        {
          "internalType": "bool",
          "name": "",
          "type": "bool"
        }
      ],
      "stateMutability": "nonpayable",
      "type": "function"
    },
    {
      "inputs": [
        {
          "internalType": "address",
          "name": "newOwner",
          "type": "address"
        }
      ],
      "name": "transferOwnership",
      "outputs": [],
      "stateMutability": "nonpayable",
      "type": "function"
    },
    {
      "inputs": [],
      "name": "treasury",
      "outputs": [
        {
          "internalType": "address",
          "name": "",
          "type": "address"
        }
      ],
      "stateMutability": "view",
      "type": "function"
    }
  ],
  "bytecode": "0x610240604052346100ec57610024610015610160565b969590959491949392936104fe565b604051612f4990816117c2823960805181612299015260a05181612356015260c05181612263015260e051816122e80152610100518161230e01526101205181610bfb01526101405181610c24015261016051818181610ffd0152611369015261018051818181611077015261159d01526101a05181818161098301526110f101526101c05181818161116b01526118df01526101e0518181816109c701526111e5015261020051818181610648015261125f0152610220518181816112d901526114dc0152f35b5f80fd5b634e487b7160e01b5f52604160045260245ffd5b601f909101601f19168101906001600160401b0382119082101761012757604052565b6100f0565b6040519061013b606083610104565b565b6040519061013b604083610104565b51906001600160a01b03821682036100ec57565b61478b90610100823803928360405194859261017c8285610104565b8339810103126100ec5761018f8261014c565b9161019c6020820161014c565b926101a96040830161014c565b926101b66060840161014c565b926101c36080820161014c565b926101d060a0830161014c565b926101e960e06101e260c0860161014c565b940161014c565b919796959493929190565b60405190610203604083610104565b60018252565b60405190610218604083610104565b600982526857696b6963696f757360b81b6020830152565b6040519061023f604083610104565b600382526257494b60e81b6020830152565b1561025857565b60405162461bcd60e51b815260206004820152601260248201527157494b3a207a65726f206d756c746973696760701b6044820152606490fd5b1561029957565b60405162461bcd60e51b815260206004820152601360248201527f57494b3a207a65726f20636f6d6d756e697479000000000000000000000000006044820152606490fd5b156102e557565b60405162461bcd60e51b815260206004820152600d60248201526c15d252ce881e995c9bc81413d3609a1b6044820152606490fd5b1561032157565b60405162461bcd60e51b815260206004820152601560248201527f57494b3a207a65726f207465616d56657374696e6700000000000000000000006044820152606490fd5b1561036d57565b60405162461bcd60e51b815260206004820152601960248201527f57494b3a207a65726f20696e766573746f7256657374696e67000000000000006044820152606490fd5b156103b957565b60405162461bcd60e51b815260206004820152601260248201527157494b3a207a65726f20747265617375727960701b6044820152606490fd5b156103fa57565b60405162461bcd60e51b815260206004820152601460248201527f57494b3a207a65726f207075626c696353616c650000000000000000000000006044820152606490fd5b1561044657565b60405162461bcd60e51b815260206004820152601160248201527057494b3a207a65726f207265736572766560781b6044820152606490fd5b1561048657565b60405162461bcd60e51b815260206004820152601460248201527f57494b3a20737570706c79206d69736d617463680000000000000000000000006044820152606490fd5b91906104eb57604081600292518455602081015160018501550151910155565b634e487b7160e01b5f525f60045260245ffd5b969593949192909661050e610209565b610516610209565b61051e610230565b9061052992846109cd565b61053d906001600160a01b03161515610251565b6001600160a01b03871694610553861515610292565b6001600160a01b038416916105698315156102de565b6001600160a01b0381169061057f82151561031a565b6001600160a01b03831693610595851515610366565b6001600160a01b038616966105ab8815156103b2565b6001600160a01b038916996105c18b15156103f3565b6001600160a01b038c169c6105d78e151561043f565b80610160528261018052846101a052866101c052886101e0528a610200528c6102205261060390610cf4565b604080517f436f6d6d756e6974792f45636f73797374656d000000000000000000000000009052516b014adf4b7320334b9000000081527f53b80bc8002e96b90060e7c5a6e1c7200f5a1b88752a565cf2248cfc85176648905f8051602061472b83398151915290602090a361067890610dd2565b604080517f50726f746f636f6c2d4f776e6564204c697175696469747900000000000000009052516a7c13bc4b2c133c5600000081527f0e630acf59da074f0d40823baaa0c1cee3ddaed937328bbccd7a9a3c7fd16b55905f8051602061472b83398151915290602090a36106ec90610dd2565b604080516e5465616d20262041647669736f727360881b9052516a7c13bc4b2c133c5600000081527fd42001e78c224f808555f2d39a0d6b5a8d1c8901f70bd3b29d3754e5aa2080a6905f8051602061472b83398151915290602090a361075290610e7f565b604080516d125b9d995cdd1bdc9ccbd4d9595960921b9052516a52b7d2dcc80cd2e400000081527f9f5e7ffcc78e5eaf72d52e735e7e65fa2230183f18c49979fa49ee3fecac82e5905f8051602061472b83398151915290602090a36107b790610e7f565b6040805167547265617375727960c01b9052516a52b7d2dcc80cd2e400000081527f6efca2866b731ee4984990bacad4cde10f1ef764fb54a5206bdfd291695b1a9b905f8051602061472b83398151915290602090a361081690610f2c565b60408051705075626c69632053616c65202849454f2960781b9052516a295be96e6406697200000081527ff7104bb6447296945d630ed81589f3c32b819274f24e1f2c431d4bc10e1b1e56905f8051602061472b83398151915290602090a361087e90610f2c565b60408051665265736572766560c81b9052516a295be96e6406697200000081527faab74a77d8ce26d227789a153a9097d216f9d5859be6b3918f997a8823e92984905f8051602061472b83398151915290602090a36002546b033b2e3c9fd0803ce8000000146108ed9061047f565b6108f561012c565b5f8152602081015f9052604081015f9052610912905f600d6104cb565b61091a61012c565b683635c9adc5dea000008152600a602082015260056040820152610940905f60106104cb565b61094861012c565b69021e19e0c9bab2400000815260146020820152600a604082015261096f905f60136104cb565b61097761012c565b690a968163f0a57b4000008152601e60208201526014604082015261099e905f60166104cb565b6109a661012c565b69152d02c7e14af6800000815260326020820152601e604082015261013b905f60196104cb565b92906109d76101f4565b603160f81b60208201908152845190949193916001600160401b03821161012757610a0c82610a07600354610b44565b610b7c565b602090601f8311600114610abd579180610a4092610a4895945f92610ab2575b50508160011b915f199060031b1c19161790565b600355610c1b565b610a518161102c565b61012052610a5e82611121565b610140526020815191012060e052519020610100524660a052610a7f611213565b6080523060c0526001600160a01b03811615610a9e5761013b90610fd9565b631e4fbdf760e01b5f90815260045260245ffd5b015190505f80610a2c565b60035f52601f19831691907fc2575a0e9e593c00f959f8c92f12db2869c3395a3b0502d05e2516446f71f85b925f5b818110610b2c5750916001939185610a4897969410610b14575b505050811b01600355610c1b565b01515f1960f88460031b161c191690555f8080610b06565b92936020600181928786015181550195019301610aec565b90600182811c92168015610b72575b6020831014610b5e57565b634e487b7160e01b5f52602260045260245ffd5b91607f1691610b53565b601f8111610b88575050565b60035f5260205f20906020601f840160051c83019310610bc2575b601f0160051c01905b818110610bb7575050565b5f8155600101610bac565b9091508190610ba3565b601f8211610bd957505050565b5f5260205f20906020601f840160051c83019310610c11575b601f0160051c01905b818110610c06575050565b5f8155600101610bfb565b9091508190610bf2565b80519091906001600160401b03811161012757610c4481610c3d600454610b44565b6004610bcc565b602092601f8211600114610c7857610c73929382915f92610ab25750508160011b915f199060031b1c19161790565b600455565b60045f52601f198216937f8a35acfbc15ff81a39ae7d344fd709f28e8600b4aa8c65c6b64bfe7fe36bd19b915f5b868110610cdc5750836001959610610cc4575b505050811b01600455565b01515f1960f88460031b161c191690555f8080610cb9565b91926020600181928685015181550194019201610ca6565b6001600160a01b0381168015610dbf576002546b014adf4b7320334b900000008101809111610dba576002556001600160a01b0382165f9081526020819052604090206b014adf4b7320334b9000000081540190555f5f8051602061474b83398151915260405180610d776b014adf4b7320334b90000000829190602083019252565b0390a36002546001600160d01b0390818111610da55750506b014adf4b7320334b9000000061013b916112f0565b630e58ae9360e11b5f5260045260245260445ffd5b6112dc565b63ec442f0560e01b5f525f60045260245ffd5b6001600160a01b0381168015610dbf576002546a7c13bc4b2c133c560000008101809111610dba576002556001600160a01b0382165f9081526020819052604090206a7c13bc4b2c133c5600000081540190555f5f8051602061474b83398151915260405180610e526a7c13bc4b2c133c56000000829190602083019252565b0390a36002546001600160d01b0390818111610da55750506a7c13bc4b2c133c5600000061013b916112f0565b6001600160a01b0381168015610dbf576002546a52b7d2dcc80cd2e40000008101809111610dba576002556001600160a01b0382165f9081526020819052604090206a52b7d2dcc80cd2e400000081540190555f5f8051602061474b83398151915260405180610eff6a52b7d2dcc80cd2e4000000829190602083019252565b0390a36002546001600160d01b0390818111610da55750506a52b7d2dcc80cd2e400000061013b916112f0565b6001600160a01b0381168015610dbf576002546a295be96e640669720000008101809111610dba576002556001600160a01b0382165f9081526020819052604090206a295be96e6406697200000081540190555f5f8051602061474b83398151915260405180610fac6a295be96e64066972000000829190602083019252565b0390a36002546001600160d01b0390818111610da55750506a295be96e6406697200000061013b916112f0565b600c80546001600160a01b0319908116909155600b80549182166001600160a01b0393841690811790915591167f8be0079c531659141344cd1fd0a4f28419497f9722a3daafe3b4186f6b6457e05f80a3565b908151602081105f1461104757509061104490611271565b90565b6001600160401b0381116101275761106b81611064600554610b44565b6005610bcc565b602092601f82116001146110a25761109a929382915f92610ab25750508160011b915f199060031b1c19161790565b60055560ff90565b60055f52601f198216937f036b6384b5eca791c62761152d0c79bb0604c104a5fb6f4eb0703f3154bb3db0915f5b86811061110957508360019596106110f1575b505050811b0160055560ff90565b01515f1960f88460031b161c191690555f80806110e3565b919260206001819286850151815501940192016110d0565b908151602081105f1461113957509061104490611271565b6001600160401b0381116101275761115d81611156600654610b44565b6006610bcc565b602092601f82116001146111945761118c929382915f92610ab25750508160011b915f199060031b1c19161790565b60065560ff90565b60065f52601f198216937ff652222313e28459528d920b65115c16c04f3efc82aaedc97be59f3f377c0d3f915f5b8681106111fb57508360019596106111e3575b505050811b0160065560ff90565b01515f1960f88460031b161c191690555f80806111d5565b919260206001819286850151815501940192016111c2565b60e051610100516040519060208201927f8b73c3c69bb8fe3d512ecc4cf759cc79239f7b179b0ffacaa9a75d522b39400f8452604083015260608201524660808201523060a082015260a0815261126b60c082610104565b51902090565b601f81511161129c57602081519101516020821061128d571790565b5f198260200360031b1b161790565b604460209160405192839163305a27a960e01b83528160048401528051918291826024860152018484015e5f828201840152601f01601f19168101030190fd5b634e487b7160e01b5f52601160045260245ffd5b906112fa816113ef565b9165ffffffffffff43116113d757600a54806113a1575061133461132461013b945f5b6001611765565b65ffffffffffff4316600a61168f565b50506001600160a01b03168015611389575b60086020527f5eff886ea0ce6ca488a3d6e336d6c0f75f46d19b42c06ce5ee98e42c96d256c7545f9182526040909120546001600160a01b03908116911661151e565b61139a611395836113ef565b611420565b5050611346565b92835f19810111610dba57600a5f525f8051602061470b8339815191529093015461013b9361133491611324919060301c61131d565b6306dfcc6560e41b5f5260306004524360245260445ffd5b6001600160d01b038111611409576001600160d01b031690565b6306dfcc6560e41b5f5260d060045260245260445ffd5b65ffffffffffff43116113d757600a548061144a5750611324611446915f5b6002611765565b9091565b805f19810111610dba57600a5f525f8051602061470b8339815191520154611446916113249160301c61143f565b65ffffffffffff43116113d7578054806114ac575061149c611446925f6002611765565b9065ffffffffffff43169061168f565b805f19810111610dba575f82815260209020015f1901546114469261149c9160301c61143f565b65ffffffffffff43116113d7578054806114f7575061149c611446925f6001611765565b805f19810111610dba575f82815260209020015f1901546114469261149c9160301c61131d565b6001600160a01b03808316939291908116908185141580611611575b611546575b5050505050565b816115b7575b50508261155b575b808061153f565b6001600160a01b03165f9081526009602052604090205f8051602061476b833981519152916115949161158e90916113ef565b906114d3565b604080516001600160d01b039384168152919092166020820152a25f8080611554565b6001600160a01b03165f9081526009602052604090205f8051602061476b833981519152906115ef906115e9866113ef565b90611478565b604080516001600160d01b039384168152919092166020820152a25f8061154c565b5083151561153a565b5f19810191908211610dba57565b90815468010000000000000000811015610127576001810180845581101561167b575f9283526020928390208251929093015160301b65ffffffffffff191665ffffffffffff9290921691909117910155565b634e487b7160e01b5f52603260045260245ffd5b8054929392801561173b576116a66116b19161161a565b825f5260205f200190565b8054603081901c9365ffffffffffff9182169291811680841161172c578793036116f857506116f492509065ffffffffffff82549181199060301b169116179055565b9190565b9150506116f49161171861170a61013d565b65ffffffffffff9093168352565b6001600160d01b0386166020830152611628565b632520601d60e01b5f5260045ffd5b50906117609161174c61170a61013d565b6001600160d01b0385166020830152611628565b5f9190565b919091806001146117a75760021461178b57634e487b7160e01b5f52605160045260245ffd5b6001600160d01b0390811691811691909103908111610dba5790565b506001600160d01b0391821690821601908111610dba579056fe60806040526004361015610011575f80fd5b5f3560e01c8063039af9eb1461033557806306f2791a1461033057806306fdde031461032b578063095ea7b31461032657806318160ddd1461032157806323b872dd1461031c578063256dfdbc146102ef5780632e04691d14610317578063303b9a3e14610317578063313ce5671461031257806332cb6b0c1461030d57806333bc1c5c146103085780633644e5151461030357806336afc088146102865780633a46b1a8146102fe57806340c10f19146102f957806342966c68146102f45780634589ec17146102ef5780634bf5d7e9146102ea57806353aad362146102e5578063587cde1e146102e05780635c19a95c146102db578063619f3d6c146102d657806361d027b3146102d15780636fcfff45146102cc57806370a08231146102c7578063715018a6146102c257806379ba5097146102bd57806379cc6790146102b85780637ecebe00146102b357806384b0196e146102ae5780638da5cb5b146102a95780638e539e8c146102a457806391ddadf41461029f57806395d89b411461029a5780639ab24eb0146102955780639ccd8fc214610290578063a9059cbb1461028b578063acd7849014610286578063bbbc763714610281578063c3cda5201461027c578063cd3293de14610277578063cf456ae714610272578063d36d42c91461026d578063d505accf14610268578063dd62ed3e14610263578063e30c39781461025e578063f1127ed814610259578063f2fde38b14610254578063f46eccc41461024f5763f64585c01461024a575f80fd5b6118ca565b61188d565b611821565b61176f565b611747565b6116f0565b6115cc565b611588565b61150b565b6114c7565b6113b8565b611354565b610699565b61132e565b610fa7565b610e97565b610df2565b610dc7565b610d08565b610ce0565b610be3565b610bab565b610b7b565b610af5565b610a90565b610a58565b6109f6565b6109b2565b61096e565b61094c565b61090c565b6108e6565b610856565b6105a8565b610839565b6107a3565b6106be565b610677565b610633565b61060d565b6105f2565b6105cd565b610570565b610553565b610522565b61044c565b6103dd565b610367565b634e487b7160e01b5f52603260045260245ffd5b600581101561036257600302600d01905f90565b61033a565b346103ad5760203660031901126103ad5760043560058110156103ad5760036060910280600d015490600f600e8201549101549060405192835260208301526040820152f35b5f80fd5b600435906001600160a01b03821682036103ad57565b602435906001600160a01b03821682036103ad57565b346103ad5760203660031901126103ad576103fe6103f96103b1565b611922565b60408051928352602083019190915290f35b0390f35b805180835260209291819084018484015e5f828201840152601f01601f1916010190565b906020610449928181520190610414565b90565b346103ad575f3660031901126103ad576040515f60035461046c81611994565b80845290600181169081156104fe57506001146104a0575b6104108361049481850382611a9e565b60405191829182610438565b60035f9081527fc2575a0e9e593c00f959f8c92f12db2869c3395a3b0502d05e2516446f71f85b939250905b8082106104e457509091508101602001610494610484565b9192600181602092548385880101520191019092916104cc565b60ff191660208086019190915291151560051b840190910191506104949050610484565b346103ad5760403660031901126103ad5761054861053e6103b1565b602435903361267e565b602060405160018152f35b346103ad575f3660031901126103ad576020600254604051908152f35b346103ad5760603660031901126103ad5761054861058c6103b1565b6105946103c7565b604435916105a3833383612093565b612161565b346103ad575f3660031901126103ad5760206040516a52b7d2dcc80cd2e40000008152f35b346103ad575f3660031901126103ad5760206040516a295be96e640669720000008152f35b346103ad575f3660031901126103ad57602060405160128152f35b346103ad575f3660031901126103ad5760206040516b033b2e3c9fd0803ce80000008152f35b346103ad575f3660031901126103ad576040517f00000000000000000000000000000000000000000000000000000000000000006001600160a01b03168152602090f35b346103ad575f3660031901126103ad576020610691612260565b604051908152f35b346103ad575f3660031901126103ad5760206040516a7c13bc4b2c133c560000008152f35b346103ad5760403660031901126103ad576106d76103b1565b6001600160a01b03165f9081526009602052604090206106f860243561237c565b8154905f82916005841161074b575b61071293508461289e565b908161073057505060205f5b6040516001600160d01b039091168152f35b61073b6020926123b5565b905f52815f20015460301c61071e565b919261075681612740565b810390811161079e5761071293855f5265ffffffffffff8260205f2001541665ffffffffffff8516105f1461078c575091610707565b92915061079890611ac0565b90610707565b61190e565b346103ad5760403660031901126103ad576107bc6103b1565b602435335f52601c60205260ff60405f2054161561080257610800916107fb6b033b2e3c9fd0803ce80000006107f484600254611ace565b1115611adb565b6123c3565b005b60405162461bcd60e51b815260206004820152600f60248201526e2ba4a59d103737ba1036b4b73a32b960891b6044820152606490fd5b346103ad5760203660031901126103ad5761080060043533612462565b346103ad575f3660031901126103ad5761086f436126f3565b65ffffffffffff80610880436126f3565b169116036108d757610410604051610899604082611a9e565b601d81527f6d6f64653d626c6f636b6e756d6265722666726f6d3d64656661756c740000006020820152604051918291602083526020830190610414565b6301bfc1c560e61b5f5260045ffd5b346103ad575f3660031901126103ad5760206040516b014adf4b7320334b900000008152f35b346103ad5760203660031901126103ad576001600160a01b0361092d6103b1565b165f526008602052602060018060a01b0360405f205416604051908152f35b346103ad5760203660031901126103ad576108006109686103b1565b3361258a565b346103ad575f3660031901126103ad576040517f00000000000000000000000000000000000000000000000000000000000000006001600160a01b03168152602090f35b346103ad575f3660031901126103ad576040517f00000000000000000000000000000000000000000000000000000000000000006001600160a01b03168152602090f35b346103ad5760203660031901126103ad576001600160a01b03610a176103b1565b165f52600960205260405f205463ffffffff8111610a415760405163ffffffff9091168152602090f35b6306dfcc6560e41b5f52602060045260245260445ffd5b346103ad5760203660031901126103ad576020610691610a766103b1565b6001600160a01b03165f9081526020819052604090205490565b346103ad575f3660031901126103ad57610aa861260b565b600c80546001600160a01b0319908116909155600b805491821690555f906001600160a01b03167f8be0079c531659141344cd1fd0a4f28419497f9722a3daafe3b4186f6b6457e08280a3005b346103ad575f3660031901126103ad57600c54336001600160a01b0390911603610b6857600c80546001600160a01b0319908116909155600b80543392811683179091556001600160a01b03167f8be0079c531659141344cd1fd0a4f28419497f9722a3daafe3b4186f6b6457e05f80a3005b63118cdaa760e01b5f523360045260245ffd5b346103ad5760403660031901126103ad57610800610b976103b1565b60243590610ba6823383612093565b612462565b346103ad5760203660031901126103ad576001600160a01b03610bcc6103b1565b165f526007602052602060405f2054604051908152f35b346103ad575f3660031901126103ad57610c87610c1f7f0000000000000000000000000000000000000000000000000000000000000000612a19565b610c487f0000000000000000000000000000000000000000000000000000000000000000612a79565b6020604051610c578282611a9e565b5f815281610c9581830194601f198301368737604051978897600f60f81b895260e0858a015260e0890190610414565b908782036040890152610414565b914660608701523060808701525f60a087015285830360c087015251918281520192915f5b828110610cc957505050500390f35b835185528695509381019392810192600101610cba565b346103ad575f3660031901126103ad57600b546040516001600160a01b039091168152602090f35b346103ad5760203660031901126103ad57610d2460043561237c565b600a54905f829160058411610d73575b610d409350600a61289e565b80610d5157506040515f8152602090f35b610d6e610d5f6020926123b5565b600a5f52825f20015460301c90565b61071e565b9192610d7e81612740565b810390811161079e57610d4093600a5f5265ffffffffffff8260205f2001541665ffffffffffff8516105f14610db5575091610d34565b929150610dc190611ac0565b90610d34565b346103ad575f3660031901126103ad576020610de2436126f3565b65ffffffffffff60405191168152f35b346103ad575f3660031901126103ad576040515f600454610e1281611994565b80845290600181169081156104fe5750600114610e39576104108361049481850382611a9e565b60045f9081527f8a35acfbc15ff81a39ae7d344fd709f28e8600b4aa8c65c6b64bfe7fe36bd19b939250905b808210610e7d57509091508101602001610494610484565b919260018160209254838588010152019101909291610e65565b346103ad5760203660031901126103ad576001600160a01b03610eb86103b1565b165f526009602052602060018060d01b03610ed560405f2061261f565b16604051908152f35b90610ef190606083526060830190610414565b906b033b2e3c9fd0803ce800000060208201526040818303910152815180825260208201916020808360051b8301019401925f915b838310610f3557505050505090565b9091929394602080610f98600193601f198682030187528951906080610f64835160a0845260a0840190610414565b92858101518684015260408101516040840152878060a01b0360608201511660608401520151906080818403910152610414565b97019301930191939290610f26565b346103ad575f3660031901126103ad57610fbf611b5f565b610fc7611bde565b90610fd0611b27565b610fd8611c47565b8152602860208201526b014adf4b7320334b9000000060408201526001600160a01b037f000000000000000000000000000000000000000000000000000000000000000016606082015261102a611c78565b608082015261103883611ccd565b5261104282611ccd565b5061104b611b27565b611053611d3a565b8152600f60208201526a7c13bc4b2c133c5600000060408201526001600160a01b037f00000000000000000000000000000000000000000000000000000000000000001660608201526110a4611d75565b60808201526110b283611cda565b526110bc82611cda565b506110c5611b27565b6110cd611dd6565b8152600f60208201526a7c13bc4b2c133c5600000060408201526001600160a01b037f000000000000000000000000000000000000000000000000000000000000000016606082015261111e611e03565b608082015261112c83611cea565b5261113682611cea565b5061113f611b27565b611147611e64565b8152600a60208201526a52b7d2dcc80cd2e400000060408201526001600160a01b037f0000000000000000000000000000000000000000000000000000000000000000166060820152611198611e90565b60808201526111a683611cfa565b526111b082611cfa565b506111b9611b27565b6111c1611ef1565b8152600a60208201526a52b7d2dcc80cd2e400000060408201526001600160a01b037f0000000000000000000000000000000000000000000000000000000000000000166060820152611212611f1d565b608082015261122083611d0a565b5261122a82611d0a565b50611233611b27565b61123b611f7e565b8152600560208201526a295be96e6406697200000060408201526001600160a01b037f000000000000000000000000000000000000000000000000000000000000000016606082015261128c611fad565b608082015261129a83611d1a565b526112a482611d1a565b506112ad611b27565b6112b5612005565b8152600560208201526a295be96e6406697200000060408201526001600160a01b037f000000000000000000000000000000000000000000000000000000000000000016606082015261130661202a565b608082015261131483611d2a565b5261131e82611d2a565b5061041060405192839283610ede565b346103ad5760403660031901126103ad5761054861134a6103b1565b6024359033612161565b346103ad575f3660031901126103ad576040517f00000000000000000000000000000000000000000000000000000000000000006001600160a01b03168152602090f35b6064359060ff821682036103ad57565b6084359060ff821682036103ad57565b346103ad5760c03660031901126103ad576113d16103b1565b602435906044356113e0611398565b6084359060a435928042116114b55791611465939161145761145c9460405160208101917fe48329057bfd03d55e49b547132e39cffd9c1820ad7b9d4c5307691425d15adf835260018060a01b038a1660408301528a606083015260808201526080815261144f60a082611a9e565b519020612649565b612ab0565b90929192612b5b565b6001600160a01b0381165f90815260076020526040902080546001810190915580930361149657610800925061258a565b90506301d4b62360e61b5f5260018060a01b031660045260245260445ffd5b632341d78760e11b5f5260045260245ffd5b346103ad575f3660031901126103ad576040517f00000000000000000000000000000000000000000000000000000000000000006001600160a01b03168152602090f35b346103ad5760403660031901126103ad576115246103b1565b602435908115158092036103ad5760207f583b0aa0e528532caf4b907c11d7a8158a122fe2a6fb80cd9b09776ebea8d92d9161155e61260b565b60018060a01b031692835f52601c825260405f2060ff1981541660ff8316179055604051908152a2005b346103ad575f3660031901126103ad576040517f00000000000000000000000000000000000000000000000000000000000000006001600160a01b03168152602090f35b346103ad5760e03660031901126103ad576115e56103b1565b6115ed6103c7565b60443590606435926115fd6113a8565b60a43560c435908642116116dd576001600160a01b0384165f9081526007602052604090208054600181019091556116a2939061169d909860405160208101917f6e71edae12b1b97f4d1f60370fef10105fa2faae0126114a169c64845d6126c9835260018060a01b0389169b8c604084015260018060a01b038b1660608401528b608084015260a083015260c082015260c0815261144f60e082611a9e565b61266f565b936001600160a01b038516036116bc57610800935061267e565b6325c0072360e11b5f526001600160a01b038085166004521660245260445ffd5b8663313c898160e11b5f5260045260245ffd5b346103ad5760403660031901126103ad57602061173e61170e6103b1565b6117166103c7565b6001600160a01b039182165f9081526001855260408082209290931681526020919091522090565b54604051908152f35b346103ad575f3660031901126103ad57600c546040516001600160a01b039091168152602090f35b346103ad5760403660031901126103ad576117886103b1565b6024359063ffffffff821682036103ad57610410916117d7916117a961207b565b506117b261207b565b506001600160a01b03165f9081526009602052604090206117d161207b565b50612bd7565b50604051906117e582611a61565b5465ffffffffffff811680835260309190911c60209283019081526040805192835290516001600160d01b031692820192909252918291820190565b346103ad5760203660031901126103ad5761183a6103b1565b61184261260b565b600c80546001600160a01b0319166001600160a01b03928316908117909155600b549091167f38d16b8cac22d99fc7c124b9cd0de2d3fa1faef420bfe791d8c362d765e227005f80a3005b346103ad5760203660031901126103ad576001600160a01b036118ae6103b1565b165f52601c602052602060ff60405f2054166040519015158152f35b346103ad575f3660031901126103ad576040517f00000000000000000000000000000000000000000000000000000000000000006001600160a01b03168152602090f35b634e487b7160e01b5f52601160045260245ffd5b6001600160a01b03165f90815260208190526040812054909182916004805b611949575050565b60058110156103625760038102600d015482101561197057801561079e575f190180611941565b9350509050600261198e60016119858561034e565b5001549361034e565b50015490565b90600182811c921680156119c2575b60208310146119ae57565b634e487b7160e01b5f52602260045260245ffd5b91607f16916119a3565b5f92918154916119db83611994565b8083529260018116908115611a3057506001146119f757505050565b5f9081526020812093945091925b838310611a16575060209250010190565b600181602092949394548385870101520191019190611a05565b915050602093945060ff929192191683830152151560051b010190565b634e487b7160e01b5f52604160045260245ffd5b6040810190811067ffffffffffffffff821117611a7d57604052565b611a4d565b60a0810190811067ffffffffffffffff821117611a7d57604052565b90601f8019910116810190811067ffffffffffffffff821117611a7d57604052565b906001820180921161079e57565b9190820180921161079e57565b15611ae257565b60405162461bcd60e51b815260206004820152601860248201527f57494b3a206d617820737570706c7920657863656564656400000000000000006044820152606490fd5b60405190611b3660a083611a9e565b565b60405190611b36604083611a9e565b67ffffffffffffffff8111611a7d5760051b60200190565b60405190611b6e608083611a9e565b605582527432ba103932b1b2b4bb32b21018103a37b5b2b7399760591b6060837f416c6c20616c6c6f636174696f6e73206d696e74656420746f206c6f636b656460208201527f20636f6e747261637473206174206465706c6f792e204f776e65722077616c6c60408201520152565b60405190611bee61010083611a9e565b6007825281601f19611c006007611b47565b01905f5b828110611c1057505050565b602090604051611c1f81611a82565b606081525f838201525f60408201525f60608201526060608082015282828501015201611c04565b60405190611c56604083611a9e565b6013825272436f6d6d756e6974792f45636f73797374656d60681b6020830152565b60405190611c87606083611a9e565b60318252702b2057696b694761756765566f74696e6760781b6040837f342d7965617220656d697373696f6e207669612057696b695374616b696e672060208201520152565b8051156103625760200190565b8051600110156103625760400190565b8051600210156103625760600190565b8051600310156103625760800190565b8051600410156103625760a00190565b8051600510156103625760c00190565b8051600610156103625760e00190565b60405190611d49604083611a9e565b601882527f50726f746f636f6c2d4f776e6564204c697175696469747900000000000000006020830152565b60405190611d84606083611a9e565b603982527f204c5020666565732e2043616e6e6f7420626520736f6c642e000000000000006040837f4c6f636b656420666f726576657220696e2057696b69504f4c2e204561726e7360208201520152565b60405190611de5604083611a9e565b600f82526e5465616d20262041647669736f727360881b6020830152565b60405190611e12606083611a9e565b603982527f61696d207669612057696b69546f6b656e56657374696e672e000000000000006040837f312d7965617220636c696666202b20332d79656172206c696e6561722e20436c60208201520152565b60405190611e73604083611a9e565b600e82526d125b9d995cdd1bdc9ccbd4d9595960921b6020830152565b60405190611e9f606083611a9e565b603a82527f6c61696d207669612057696b69546f6b656e56657374696e672e0000000000006040837f362d6d6f6e746820636c696666202b20322d79656172206c696e6561722e204360208201520152565b60405190611f00604083611a9e565b600e82526d5472656173757279202844414f2960901b6020830152565b60405190611f2c606083611a9e565b603c82527f72616e74732c206175646974732e203438682074696d656c6f636b2e000000006040837f44414f2d636f6e74726f6c6c65642e20506179732073616c61726965732c206760208201520152565b60405190611f8d604083611a9e565b60118252705075626c69632053616c65202849454f2960781b6020830152565b60405190611fbc606083611a9e565b60348252733ab6363c903ab73637b1b5b2b2103230bc90189760611b6040837f536f6c6420617420544745207669612057696b694c61756e63687061642e204660208201520152565b60405190612014604083611a9e565b60078252665265736572766560c81b6020830152565b60405190612039606083611a9e565b602d82526c32b2103a37903ab73637b1b59760991b6040837f322d796561722074696d656c6f636b2e2044414f20766f74652072657175697260208201520152565b6040519061208882611a61565b5f6020838281520152565b6001600160a01b039081165f81815260016020908152604080832094861683529390529190912091929091545f1981106120ce575b50505050565b81811061214057821561212d576001600160a01b0384161561211a57612110925f526001602052039160405f209060018060a01b03165f5260205260405f2090565b555f8080806120c8565b634a1406b160e11b5f525f60045260245ffd5b63e602df0560e01b5f525f60045260245ffd5b83637dc7a0d960e11b5f5260018060a01b031660045260245260445260645ffd5b6001600160a01b03811693929190841561224d576001600160a01b038216801561223a576001600160a01b0382165f90815260208190526040902054958487106122145784611b369697036121c58460018060a01b03165f525f60205260405f2090565b556001600160a01b0384165f9081526020819052604090208054860190556040518581527fddf252ad1be2c89b69c2b068fc378daa952ba7f163c4a11628f55a4df523b3ef90602090a3612d6c565b63391434e360e21b5f526001600160a01b0383166004526024879052604485905260645ffd5b63ec442f0560e01b5f525f60045260245ffd5b634b637e8f60e11b5f525f60045260245ffd5b307f00000000000000000000000000000000000000000000000000000000000000006001600160a01b03161480612353575b156122bb577f000000000000000000000000000000000000000000000000000000000000000090565b60405160208101907f8b73c3c69bb8fe3d512ecc4cf759cc79239f7b179b0ffacaa9a75d522b39400f82527f000000000000000000000000000000000000000000000000000000000000000060408201527f000000000000000000000000000000000000000000000000000000000000000060608201524660808201523060a082015260a0815261234d60c082611a9e565b51902090565b507f00000000000000000000000000000000000000000000000000000000000000004614612292565b65ffffffffffff61238c436126f3565b168082101561239f5750610449906126f3565b90637669fc0f60e11b5f5260045260245260445ffd5b5f1981019190821161079e57565b91906001600160a01b038316801561223a5760025482810180911161079e576002556001600160a01b0384165f90815260208181526040808320805486019055518481527fddf252ad1be2c89b69c2b068fc378daa952ba7f163c4a11628f55a4df523b3ef9190a36002546001600160d01b03939084811161244b5750611b36929350612cf3565b8490630e58ae9360e11b5f5260045260245260445ffd5b6001600160a01b03811690811561224d576001600160a01b0381165f9081526020819052604090205483811061256557906124b484611b36959493039160018060a01b03165f525f60205260405f2090565b5581600254036002555f817fddf252ad1be2c89b69c2b068fc378daa952ba7f163c4a11628f55a4df523b3ef60405180602081018782520390a3801561254d575b61250661250183612bec565b612cbe565b50505f908152600860205260408120549080527f5eff886ea0ce6ca488a3d6e336d6c0f75f46d19b42c06ce5ee98e42c96d256c7546001600160a01b0390811691166128f7565b61255e61255983612bec565b612c89565b50506124f5565b63391434e360e21b5f526001600160a01b03909116600452602452604482905260645ffd5b6001600160a01b038181165f81815260086020526040812080548685166001600160a01b031982168117909255611b36969416946126059390928691907f3134e8a2e6d97e929a7e54011ea5485d7d196dd5f0ba4d4ef95803e8e3fc257f9080a46001600160a01b03165f9081526020819052604090205490565b916128f7565b600b546001600160a01b03163303610b6857565b8054908161262d5750505f90565b815f1981011161079e575f525f199060205f2001015460301c90565b604290612654612260565b906040519161190160f01b8352600283015260228201522090565b91610449939161145c93612ab0565b6001600160a01b031690811561212d576001600160a01b03811692831561211a57806126e67f8c5be1e5ebec7d5bd14f71427d1e84f3dd0314c0f7b2291e5b200ac8c7c3b92593855f52600160205260405f209060018060a01b03165f5260205260405f2090565b55604051908152602090a3565b65ffffffffffff811161270b5765ffffffffffff1690565b6306dfcc6560e41b5f52603060045260245260445ffd5b811561272c570490565b634e487b7160e01b5f52601260045260245ffd5b600181111561044957806001600160801b821015612861575b6128076127fd6127f36127e96127df6127d56127c461280e9760048a600160401b6128139c1015612854575b640100000000811015612847575b6201000081101561283a575b61010081101561282d575b6010811015612820575b1015612818575b60030260011c90565b6127ce818b612722565b0160011c90565b6127ce818a612722565b6127ce8189612722565b6127ce8188612722565b6127ce8187612722565b6127ce8186612722565b8093612722565b821190565b900390565b60011b6127bb565b60041c9160021b916127b4565b60081c9160041b916127aa565b60101c9160081b9161279f565b60201c9160101b91612793565b60401c9160201b91612785565b505061281361280e6128076127fd6127f36127e96127df6127d56127c46128888a60801c90565b9850600160401b97506127599650505050505050565b905b8383106128ad5750505090565b90919280841860011c8185160190835f5265ffffffffffff8260205f2001541665ffffffffffff8416105f146128e75750925b91906128a0565b93506128f290611ac0565b6128e0565b6001600160a01b03808316939291908116908185141580612a10575b61291f575b5050505050565b816129a3575b505082612934575b8080612918565b6001600160a01b03165f9081526009602052604090207fdec2bacdd2f05b59de34da9b523dff8be42e5e38e818c82fdb0bae774387a724916129809161297a9091612bec565b90612c55565b604080516001600160d01b039384168152919092166020820152a25f808061292d565b6001600160a01b03165f9081526009602052604090207fdec2bacdd2f05b59de34da9b523dff8be42e5e38e818c82fdb0bae774387a724906129ee906129e886612bec565b90612c1d565b604080516001600160d01b039384168152919092166020820152a25f80612925565b50831515612913565b60ff8114612a5f5760ff811690601f8211612a505760405191612a3d604084611a9e565b6020808452838101919036833783525290565b632cd44ac360e21b5f5260045ffd5b5060405161044981612a728160056119cc565b0382611a9e565b60ff8114612a9d5760ff811690601f8211612a505760405191612a3d604084611a9e565b5060405161044981612a728160066119cc565b91907f7fffffffffffffffffffffffffffffff5d576e7357a4501ddfe92f46681b20a08411612b32579160209360809260ff5f9560405194855216868401526040830152606082015282805260015afa15612b27575f516001600160a01b03811615612b1d57905f905f90565b505f906001905f90565b6040513d5f823e3d90fd5b5050505f9160039190565b60041115612b4757565b634e487b7160e01b5f52602160045260245ffd5b612b6481612b3d565b80612b6d575050565b612b7681612b3d565b60018103612b8d5763f645eedf60e01b5f5260045ffd5b612b9681612b3d565b60028103612bb1575063fce698f760e01b5f5260045260245ffd5b80612bbd600392612b3d565b14612bc55750565b6335e2f38360e21b5f5260045260245ffd5b8054821015610362575f5260205f2001905f90565b6001600160d01b038111612c06576001600160d01b031690565b6306dfcc6560e41b5f5260d060045260245260445ffd5b90612c27436126f3565b90612c318361261f565b6001600160d01b03918216908216039190821161079e57612c5192612e3d565b9091565b90612c5f436126f3565b90612c698361261f565b6001600160d01b03918216908216019190821161079e57612c5192612e3d565b612c92436126f3565b90612c9d600a61261f565b6001600160d01b039182169082160190811161079e57612c5191600a612e3d565b612cc7436126f3565b90612cd2600a61261f565b6001600160d01b039182169082160390811161079e57612c5191600a612e3d565b90611b3691612d0461255983612bec565b50506001600160a01b03168015612d59575b60086020527f5eff886ea0ce6ca488a3d6e336d6c0f75f46d19b42c06ce5ee98e42c96d256c7545f9182526040909120546001600160a01b0390811691166128f7565b612d6561250183612bec565b5050612d16565b611b3692916001600160a01b03909116908115612dcf575b6001600160a01b0316908115612dbc575b5f90815260086020526040808220549282529020546001600160a01b0390811691166128f7565b612dc861250184612bec565b5050612d95565b612ddb61255984612bec565b5050612d84565b8054600160401b811015611a7d57612dff91600182018155612bd7565b612e2a57815160209092015160301b65ffffffffffff191665ffffffffffff92909216919091179055565b634e487b7160e01b5f525f60045260245ffd5b80549293928015612ee957612e54612e5f916123b5565b825f5260205f200190565b8054603081901c9365ffffffffffff91821692918116808411612eda57879303612ea65750612ea292509065ffffffffffff82549181199060301b169116179055565b9190565b915050612ea291612ec6612eb8611b38565b65ffffffffffff9093168352565b6001600160d01b0386166020830152612de2565b632520601d60e01b5f5260045ffd5b5090612f0e91612efa612eb8611b38565b6001600160d01b0385166020830152612de2565b5f919056fea2646970667358221220d642f85ceaf2d38575ed5998369f93ba2e6e1c24dd8bd447236e0c88649622cf64736f6c634300081a0033c65a7bb8d6351c1cf70c95a316cc6a92839c986682d98bc35f958f4883f9d2a700b9efd5ab0446905d6e90d28b0fab5a870033585c358ff23b0d381508c01090ddf252ad1be2c89b69c2b068fc378daa952ba7f163c4a11628f55a4df523b3efdec2bacdd2f05b59de34da9b523dff8be42e5e38e818c82fdb0bae774387a724",
  "linkReferences": {},
  "deployedLinkReferences": {}
}