{
  "_format": "hh-sol-artifact-1",
  "contractName": "WikiPropPool",
  "sourceName": "src/WikiPropPool.sol",
  "abi": [
    {
      "inputs": [
        {
          "internalType": "address",
          "name": "usdc",
          "type": "address"
        },
        {
          "internalType": "address",
          "name": "owner",
          "type": "address"
        }
      ],
      "stateMutability": "nonpayable",
      "type": "constructor"
    },
    {
      "inputs": [
        {
          "internalType": "address",
          "name": "spender",
          "type": "address"
        },
        {
          "internalType": "uint256",
          "name": "allowance",
          "type": "uint256"
        },
        {
          "internalType": "uint256",
          "name": "needed",
          "type": "uint256"
        }
      ],
      "name": "ERC20InsufficientAllowance",
      "type": "error"
    },
    {
      "inputs": [
        {
          "internalType": "address",
          "name": "sender",
          "type": "address"
        },
        {
          "internalType": "uint256",
          "name": "balance",
          "type": "uint256"
        },
        {
          "internalType": "uint256",
          "name": "needed",
          "type": "uint256"
        }
      ],
      "name": "ERC20InsufficientBalance",
      "type": "error"
    },
    {
      "inputs": [
        {
          "internalType": "address",
          "name": "approver",
          "type": "address"
        }
      ],
      "name": "ERC20InvalidApprover",
      "type": "error"
    },
    {
      "inputs": [
        {
          "internalType": "address",
          "name": "receiver",
          "type": "address"
        }
      ],
      "name": "ERC20InvalidReceiver",
      "type": "error"
    },
    {
      "inputs": [
        {
          "internalType": "address",
          "name": "sender",
          "type": "address"
        }
      ],
      "name": "ERC20InvalidSender",
      "type": "error"
    },
    {
      "inputs": [
        {
          "internalType": "address",
          "name": "spender",
          "type": "address"
        }
      ],
      "name": "ERC20InvalidSpender",
      "type": "error"
    },
    {
      "inputs": [],
      "name": "EnforcedPause",
      "type": "error"
    },
    {
      "inputs": [],
      "name": "ExpectedPause",
      "type": "error"
    },
    {
      "inputs": [
        {
          "internalType": "address",
          "name": "owner",
          "type": "address"
        }
      ],
      "name": "OwnableInvalidOwner",
      "type": "error"
    },
    {
      "inputs": [
        {
          "internalType": "address",
          "name": "account",
          "type": "address"
        }
      ],
      "name": "OwnableUnauthorizedAccount",
      "type": "error"
    },
    {
      "inputs": [],
      "name": "ReentrancyGuardReentrantCall",
      "type": "error"
    },
    {
      "inputs": [
        {
          "internalType": "address",
          "name": "token",
          "type": "address"
        }
      ],
      "name": "SafeERC20FailedOperation",
      "type": "error"
    },
    {
      "anonymous": false,
      "inputs": [
        {
          "indexed": true,
          "internalType": "address",
          "name": "owner",
          "type": "address"
        },
        {
          "indexed": true,
          "internalType": "address",
          "name": "spender",
          "type": "address"
        },
        {
          "indexed": false,
          "internalType": "uint256",
          "name": "value",
          "type": "uint256"
        }
      ],
      "name": "Approval",
      "type": "event"
    },
    {
      "anonymous": false,
      "inputs": [
        {
          "indexed": true,
          "internalType": "address",
          "name": "fundedAccount",
          "type": "address"
        },
        {
          "indexed": false,
          "internalType": "uint256",
          "name": "amount",
          "type": "uint256"
        }
      ],
      "name": "CapitalAllocated",
      "type": "event"
    },
    {
      "anonymous": false,
      "inputs": [
        {
          "indexed": true,
          "internalType": "address",
          "name": "fundedAccount",
          "type": "address"
        },
        {
          "indexed": false,
          "internalType": "uint256",
          "name": "amount",
          "type": "uint256"
        },
        {
          "indexed": false,
          "internalType": "int256",
          "name": "pnl",
          "type": "int256"
        }
      ],
      "name": "CapitalReturned",
      "type": "event"
    },
    {
      "anonymous": false,
      "inputs": [
        {
          "indexed": true,
          "internalType": "address",
          "name": "lp",
          "type": "address"
        },
        {
          "indexed": false,
          "internalType": "uint256",
          "name": "usdc",
          "type": "uint256"
        },
        {
          "indexed": false,
          "internalType": "uint256",
          "name": "wpl",
          "type": "uint256"
        }
      ],
      "name": "Deposited",
      "type": "event"
    },
    {
      "anonymous": false,
      "inputs": [
        {
          "indexed": true,
          "internalType": "address",
          "name": "fundedAccount",
          "type": "address"
        },
        {
          "indexed": false,
          "internalType": "uint256",
          "name": "loss",
          "type": "uint256"
        }
      ],
      "name": "LossAbsorbed",
      "type": "event"
    },
    {
      "anonymous": false,
      "inputs": [
        {
          "indexed": true,
          "internalType": "address",
          "name": "previousOwner",
          "type": "address"
        },
        {
          "indexed": true,
          "internalType": "address",
          "name": "newOwner",
          "type": "address"
        }
      ],
      "name": "OwnershipTransferStarted",
      "type": "event"
    },
    {
      "anonymous": false,
      "inputs": [
        {
          "indexed": true,
          "internalType": "address",
          "name": "previousOwner",
          "type": "address"
        },
        {
          "indexed": true,
          "internalType": "address",
          "name": "newOwner",
          "type": "address"
        }
      ],
      "name": "OwnershipTransferred",
      "type": "event"
    },
    {
      "anonymous": false,
      "inputs": [
        {
          "indexed": false,
          "internalType": "address",
          "name": "account",
          "type": "address"
        }
      ],
      "name": "Paused",
      "type": "event"
    },
    {
      "anonymous": false,
      "inputs": [
        {
          "indexed": true,
          "internalType": "address",
          "name": "from",
          "type": "address"
        },
        {
          "indexed": true,
          "internalType": "address",
          "name": "to",
          "type": "address"
        },
        {
          "indexed": false,
          "internalType": "uint256",
          "name": "value",
          "type": "uint256"
        }
      ],
      "name": "Transfer",
      "type": "event"
    },
    {
      "anonymous": false,
      "inputs": [
        {
          "indexed": false,
          "internalType": "address",
          "name": "account",
          "type": "address"
        }
      ],
      "name": "Unpaused",
      "type": "event"
    },
    {
      "anonymous": false,
      "inputs": [
        {
          "indexed": true,
          "internalType": "address",
          "name": "lp",
          "type": "address"
        },
        {
          "indexed": false,
          "internalType": "uint256",
          "name": "usdc",
          "type": "uint256"
        },
        {
          "indexed": false,
          "internalType": "uint256",
          "name": "wpl",
          "type": "uint256"
        }
      ],
      "name": "Withdrawn",
      "type": "event"
    },
    {
      "anonymous": false,
      "inputs": [
        {
          "indexed": false,
          "internalType": "uint256",
          "name": "amount",
          "type": "uint256"
        },
        {
          "indexed": false,
          "internalType": "string",
          "name": "source",
          "type": "string"
        }
      ],
      "name": "YieldAdded",
      "type": "event"
    },
    {
      "anonymous": false,
      "inputs": [
        {
          "indexed": true,
          "internalType": "address",
          "name": "lp",
          "type": "address"
        },
        {
          "indexed": false,
          "internalType": "uint256",
          "name": "amount",
          "type": "uint256"
        }
      ],
      "name": "YieldClaimed",
      "type": "event"
    },
    {
      "anonymous": false,
      "inputs": [
        {
          "indexed": false,
          "internalType": "uint256",
          "name": "amount",
          "type": "uint256"
        },
        {
          "indexed": false,
          "internalType": "string",
          "name": "source",
          "type": "string"
        }
      ],
      "name": "YieldReceived",
      "type": "event"
    },
    {
      "inputs": [],
      "name": "BPS",
      "outputs": [
        {
          "internalType": "uint256",
          "name": "",
          "type": "uint256"
        }
      ],
      "stateMutability": "view",
      "type": "function"
    },
    {
      "inputs": [],
      "name": "INSURANCE_BPS",
      "outputs": [
        {
          "internalType": "uint256",
          "name": "",
          "type": "uint256"
        }
      ],
      "stateMutability": "view",
      "type": "function"
    },
    {
      "inputs": [],
      "name": "USDC",
      "outputs": [
        {
          "internalType": "contract IERC20",
          "name": "",
          "type": "address"
        }
      ],
      "stateMutability": "view",
      "type": "function"
    },
    {
      "inputs": [],
      "name": "acceptOwnership",
      "outputs": [],
      "stateMutability": "nonpayable",
      "type": "function"
    },
    {
      "inputs": [],
      "name": "accruedYield",
      "outputs": [
        {
          "internalType": "uint256",
          "name": "",
          "type": "uint256"
        }
      ],
      "stateMutability": "view",
      "type": "function"
    },
    {
      "inputs": [
        {
          "internalType": "address",
          "name": "trader",
          "type": "address"
        },
        {
          "internalType": "uint256",
          "name": "amount",
          "type": "uint256"
        }
      ],
      "name": "allocateCapital",
      "outputs": [],
      "stateMutability": "nonpayable",
      "type": "function"
    },
    {
      "inputs": [
        {
          "internalType": "address",
          "name": "owner",
          "type": "address"
        },
        {
          "internalType": "address",
          "name": "spender",
          "type": "address"
        }
      ],
      "name": "allowance",
      "outputs": [
        {
          "internalType": "uint256",
          "name": "",
          "type": "uint256"
        }
      ],
      "stateMutability": "view",
      "type": "function"
    },
    {
      "inputs": [
        {
          "internalType": "address",
          "name": "spender",
          "type": "address"
        },
        {
          "internalType": "uint256",
          "name": "value",
          "type": "uint256"
        }
      ],
      "name": "approve",
      "outputs": [
        {
          "internalType": "bool",
          "name": "",
          "type": "bool"
        }
      ],
      "stateMutability": "nonpayable",
      "type": "function"
    },
    {
      "inputs": [],
      "name": "availableCapital",
      "outputs": [
        {
          "internalType": "uint256",
          "name": "",
          "type": "uint256"
        }
      ],
      "stateMutability": "view",
      "type": "function"
    },
    {
      "inputs": [
        {
          "internalType": "address",
          "name": "account",
          "type": "address"
        }
      ],
      "name": "balanceOf",
      "outputs": [
        {
          "internalType": "uint256",
          "name": "",
          "type": "uint256"
        }
      ],
      "stateMutability": "view",
      "type": "function"
    },
    {
      "inputs": [],
      "name": "claimYield",
      "outputs": [],
      "stateMutability": "nonpayable",
      "type": "function"
    },
    {
      "inputs": [],
      "name": "decimals",
      "outputs": [
        {
          "internalType": "uint8",
          "name": "",
          "type": "uint8"
        }
      ],
      "stateMutability": "view",
      "type": "function"
    },
    {
      "inputs": [
        {
          "internalType": "uint256",
          "name": "amount",
          "type": "uint256"
        }
      ],
      "name": "deposit",
      "outputs": [
        {
          "internalType": "uint256",
          "name": "wplMinted",
          "type": "uint256"
        }
      ],
      "stateMutability": "nonpayable",
      "type": "function"
    },
    {
      "inputs": [],
      "name": "insuranceReserve",
      "outputs": [
        {
          "internalType": "uint256",
          "name": "",
          "type": "uint256"
        }
      ],
      "stateMutability": "view",
      "type": "function"
    },
    {
      "inputs": [
        {
          "internalType": "address",
          "name": "",
          "type": "address"
        }
      ],
      "name": "lastDepositTime",
      "outputs": [
        {
          "internalType": "uint256",
          "name": "",
          "type": "uint256"
        }
      ],
      "stateMutability": "view",
      "type": "function"
    },
    {
      "inputs": [],
      "name": "maxUtilizationBps",
      "outputs": [
        {
          "internalType": "uint256",
          "name": "",
          "type": "uint256"
        }
      ],
      "stateMutability": "view",
      "type": "function"
    },
    {
      "inputs": [],
      "name": "minDeposit",
      "outputs": [
        {
          "internalType": "uint256",
          "name": "",
          "type": "uint256"
        }
      ],
      "stateMutability": "view",
      "type": "function"
    },
    {
      "inputs": [],
      "name": "name",
      "outputs": [
        {
          "internalType": "string",
          "name": "",
          "type": "string"
        }
      ],
      "stateMutability": "view",
      "type": "function"
    },
    {
      "inputs": [],
      "name": "owner",
      "outputs": [
        {
          "internalType": "address",
          "name": "",
          "type": "address"
        }
      ],
      "stateMutability": "view",
      "type": "function"
    },
    {
      "inputs": [],
      "name": "pause",
      "outputs": [],
      "stateMutability": "nonpayable",
      "type": "function"
    },
    {
      "inputs": [],
      "name": "paused",
      "outputs": [
        {
          "internalType": "bool",
          "name": "",
          "type": "bool"
        }
      ],
      "stateMutability": "view",
      "type": "function"
    },
    {
      "inputs": [],
      "name": "pendingOwner",
      "outputs": [
        {
          "internalType": "address",
          "name": "",
          "type": "address"
        }
      ],
      "stateMutability": "view",
      "type": "function"
    },
    {
      "inputs": [
        {
          "internalType": "address",
          "name": "lp",
          "type": "address"
        }
      ],
      "name": "pendingYield",
      "outputs": [
        {
          "internalType": "uint256",
          "name": "",
          "type": "uint256"
        }
      ],
      "stateMutability": "view",
      "type": "function"
    },
    {
      "inputs": [],
      "name": "poolStats",
      "outputs": [
        {
          "internalType": "uint256",
          "name": "tvl",
          "type": "uint256"
        },
        {
          "internalType": "uint256",
          "name": "utilized",
          "type": "uint256"
        },
        {
          "internalType": "uint256",
          "name": "insurance",
          "type": "uint256"
        },
        {
          "internalType": "uint256",
          "name": "apy",
          "type": "uint256"
        },
        {
          "internalType": "uint256",
          "name": "utilRate",
          "type": "uint256"
        },
        {
          "internalType": "uint256",
          "name": "lpCount",
          "type": "uint256"
        }
      ],
      "stateMutability": "view",
      "type": "function"
    },
    {
      "inputs": [
        {
          "internalType": "address",
          "name": "",
          "type": "address"
        }
      ],
      "name": "propContracts",
      "outputs": [
        {
          "internalType": "bool",
          "name": "",
          "type": "bool"
        }
      ],
      "stateMutability": "view",
      "type": "function"
    },
    {
      "inputs": [
        {
          "internalType": "uint256",
          "name": "amount",
          "type": "uint256"
        }
      ],
      "name": "receiveEvalFee",
      "outputs": [],
      "stateMutability": "nonpayable",
      "type": "function"
    },
    {
      "inputs": [
        {
          "internalType": "uint256",
          "name": "amount",
          "type": "uint256"
        }
      ],
      "name": "receiveProfitSplit",
      "outputs": [],
      "stateMutability": "nonpayable",
      "type": "function"
    },
    {
      "inputs": [
        {
          "internalType": "uint256",
          "name": "amount",
          "type": "uint256"
        },
        {
          "internalType": "string",
          "name": "source",
          "type": "string"
        }
      ],
      "name": "receiveYield",
      "outputs": [],
      "stateMutability": "nonpayable",
      "type": "function"
    },
    {
      "inputs": [],
      "name": "renounceOwnership",
      "outputs": [],
      "stateMutability": "nonpayable",
      "type": "function"
    },
    {
      "inputs": [
        {
          "internalType": "address",
          "name": "trader",
          "type": "address"
        },
        {
          "internalType": "uint256",
          "name": "amount",
          "type": "uint256"
        },
        {
          "internalType": "uint256",
          "name": "profit",
          "type": "uint256"
        },
        {
          "internalType": "uint256",
          "name": "loss",
          "type": "uint256"
        }
      ],
      "name": "returnCapital",
      "outputs": [],
      "stateMutability": "nonpayable",
      "type": "function"
    },
    {
      "inputs": [
        {
          "internalType": "uint256",
          "name": "bps",
          "type": "uint256"
        }
      ],
      "name": "setMaxUtilization",
      "outputs": [],
      "stateMutability": "nonpayable",
      "type": "function"
    },
    {
      "inputs": [
        {
          "internalType": "address",
          "name": "c",
          "type": "address"
        },
        {
          "internalType": "bool",
          "name": "ok",
          "type": "bool"
        }
      ],
      "name": "setPropContract",
      "outputs": [],
      "stateMutability": "nonpayable",
      "type": "function"
    },
    {
      "inputs": [
        {
          "internalType": "address",
          "name": "_tl",
          "type": "address"
        }
      ],
      "name": "setTimelock",
      "outputs": [],
      "stateMutability": "nonpayable",
      "type": "function"
    },
    {
      "inputs": [
        {
          "internalType": "uint256",
          "name": "t",
          "type": "uint256"
        }
      ],
      "name": "setWithdrawalCooldown",
      "outputs": [],
      "stateMutability": "nonpayable",
      "type": "function"
    },
    {
      "inputs": [],
      "name": "symbol",
      "outputs": [
        {
          "internalType": "string",
          "name": "",
          "type": "string"
        }
      ],
      "stateMutability": "view",
      "type": "function"
    },
    {
      "inputs": [],
      "name": "timelock",
      "outputs": [
        {
          "internalType": "address",
          "name": "",
          "type": "address"
        }
      ],
      "stateMutability": "view",
      "type": "function"
    },
    {
      "inputs": [],
      "name": "totalDeposited",
      "outputs": [
        {
          "internalType": "uint256",
          "name": "",
          "type": "uint256"
        }
      ],
      "stateMutability": "view",
      "type": "function"
    },
    {
      "inputs": [],
      "name": "totalEvalFeesReceived",
      "outputs": [
        {
          "internalType": "uint256",
          "name": "",
          "type": "uint256"
        }
      ],
      "stateMutability": "view",
      "type": "function"
    },
    {
      "inputs": [],
      "name": "totalLossesAbsorbed",
      "outputs": [
        {
          "internalType": "uint256",
          "name": "",
          "type": "uint256"
        }
      ],
      "stateMutability": "view",
      "type": "function"
    },
    {
      "inputs": [],
      "name": "totalProfitSplitsReceived",
      "outputs": [
        {
          "internalType": "uint256",
          "name": "",
          "type": "uint256"
        }
      ],
      "stateMutability": "view",
      "type": "function"
    },
    {
      "inputs": [],
      "name": "totalSupply",
      "outputs": [
        {
          "internalType": "uint256",
          "name": "",
          "type": "uint256"
        }
      ],
      "stateMutability": "view",
      "type": "function"
    },
    {
      "inputs": [],
      "name": "totalUtilized",
      "outputs": [
        {
          "internalType": "uint256",
          "name": "",
          "type": "uint256"
        }
      ],
      "stateMutability": "view",
      "type": "function"
    },
    {
      "inputs": [],
      "name": "totalYieldPaid",
      "outputs": [
        {
          "internalType": "uint256",
          "name": "",
          "type": "uint256"
        }
      ],
      "stateMutability": "view",
      "type": "function"
    },
    {
      "inputs": [
        {
          "internalType": "address",
          "name": "to",
          "type": "address"
        },
        {
          "internalType": "uint256",
          "name": "value",
          "type": "uint256"
        }
      ],
      "name": "transfer",
      "outputs": [
        {
          "internalType": "bool",
          "name": "",
          "type": "bool"
        }
      ],
      "stateMutability": "nonpayable",
      "type": "function"
    },
    {
      "inputs": [
        {
          "internalType": "address",
          "name": "from",
          "type": "address"
        },
        {
          "internalType": "address",
          "name": "to",
          "type": "address"
        },
        {
          "internalType": "uint256",
          "name": "value",
          "type": "uint256"
        }
      ],
      "name": "transferFrom",
      "outputs": [
        {
          "internalType": "bool",
          "name": "",
          "type": "bool"
        }
      ],
      "stateMutability": "nonpayable",
      "type": "function"
    },
    {
      "inputs": [
        {
          "internalType": "address",
          "name": "newOwner",
          "type": "address"
        }
      ],
      "name": "transferOwnership",
      "outputs": [],
      "stateMutability": "nonpayable",
      "type": "function"
    },
    {
      "inputs": [],
      "name": "unpause",
      "outputs": [],
      "stateMutability": "nonpayable",
      "type": "function"
    },
    {
      "inputs": [],
      "name": "utilizationRate",
      "outputs": [
        {
          "internalType": "uint256",
          "name": "",
          "type": "uint256"
        }
      ],
      "stateMutability": "view",
      "type": "function"
    },
    {
      "inputs": [
        {
          "internalType": "uint256",
          "name": "wplAmount",
          "type": "uint256"
        }
      ],
      "name": "withdraw",
      "outputs": [
        {
          "internalType": "uint256",
          "name": "usdcOut",
          "type": "uint256"
        }
      ],
      "stateMutability": "nonpayable",
      "type": "function"
    },
    {
      "inputs": [],
      "name": "withdrawalCooldown",
      "outputs": [
        {
          "internalType": "uint256",
          "name": "",
          "type": "uint256"
        }
      ],
      "stateMutability": "view",
      "type": "function"
    },
    {
      "inputs": [],
      "name": "wplPrice",
      "outputs": [
        {
          "internalType": "uint256",
          "name": "",
          "type": "uint256"
        }
      ],
      "stateMutability": "view",
      "type": "function"
    },
    {
      "inputs": [
        {
          "internalType": "address",
          "name": "",
          "type": "address"
        }
      ],
      "name": "yieldDebt",
      "outputs": [
        {
          "internalType": "uint256",
          "name": "",
          "type": "uint256"
        }
      ],
      "stateMutability": "view",
      "type": "function"
    },
    {
      "inputs": [],
      "name": "yieldPerShare",
      "outputs": [
        {
          "internalType": "uint256",
          "name": "",
          "type": "uint256"
        }
      ],
      "stateMutability": "view",
      "type": "function"
    }
  ],
  "bytecode": "0x60a060405234610481576128656040813803918261001c81610485565b9384928339810103126104815761003e6020610037836104aa565b92016104aa565b6100486040610485565b91601283527157696b6950726f70204c697175696469747960701b60208401526100726040610485565b600381526215d41360ea1b602082015283519092906001600160401b03811161039257600354600181811c91168015610477575b602082101461037457601f8111610414575b50602094601f82116001146103b1579481929394955f926103a6575b50508160011b915f199060031b1c1916176003555b82516001600160401b03811161039257600454600181811c91168015610388575b602082101461037457601f8111610311575b506020601f82116001146102ae57819293945f926102a3575b50508160011b915f199060031b1c1916176004555b6001600160a01b031690811561029057600680546001600160a01b0319908116909155600580549182168417905560405192906001600160a01b03167f8be0079c531659141344cd1fd0a4f28419497f9722a3daafe3b4186f6b6457e05f80a360017f9b779b17422d0df92223018b32b4d1fa46e071723d6817e2486d003becc55f0055611f40600f556305f5e10060105562093a806011556001600160a01b031690811561025c57506080526040516123a690816104bf82396080518181816103a601528181610a1801528181610d3701528181610df401528181610f3f01528181610f9f0152818161112901528181611365015281816115eb0152818161197901528181611e50015261201f0152f35b62461bcd60e51b815260206004820152600f60248201526e57696b693a207a65726f207573646360881b6044820152606490fd5b631e4fbdf760e01b5f525f60045260245ffd5b015190505f80610135565b601f1982169060045f52805f20915f5b8181106102f9575095836001959697106102e1575b505050811b0160045561014a565b01515f1960f88460031b161c191690555f80806102d3565b9192602060018192868b0151815501940192016102be565b60045f527f8a35acfbc15ff81a39ae7d344fd709f28e8600b4aa8c65c6b64bfe7fe36bd19b601f830160051c8101916020841061036a575b601f0160051c01905b81811061035f575061011c565b5f8155600101610352565b9091508190610349565b634e487b7160e01b5f52602260045260245ffd5b90607f169061010a565b634e487b7160e01b5f52604160045260245ffd5b015190505f806100d4565b601f1982169560035f52805f20915f5b8881106103fc575083600195969798106103e4575b505050811b016003556100e9565b01515f1960f88460031b161c191690555f80806103d6565b919260206001819286850151815501940192016103c1565b60035f527fc2575a0e9e593c00f959f8c92f12db2869c3395a3b0502d05e2516446f71f85b601f830160051c8101916020841061046d575b601f0160051c01905b81811061046257506100b8565b5f8155600101610455565b909150819061044c565b90607f16906100a6565b5f80fd5b6040519190601f01601f191682016001600160401b0381118382101761039257604052565b51906001600160a01b03821682036104815756fe6080806040526004361015610012575f80fd5b5f3560e01c9081630252775314611c0d5750806306fdde0314611b52578063095ea7b314611ad057806318160ddd14611ab3578063199cb7d81461195457806323b872dd14611875578063249d39e9146118595780632ad1689a1461183c5780632e1a7d4d146115635780632e774669146115475780632eff9bc31461150a578063304ea9cb146114ed578063313ce567146114d25780633f4ba83a146114645780634019fb3314611447578063406cf2291461142657806341b3d185146114095780634d9a90f9146113295780635041dbd91461130f578063571414cf146112f25780635c975abb146112cd57806364d4fbbf146112b05780636c321c8a1461129657806370a082311461125f578063715018a6146111fa57806375e267521461119b57806378ae5b9f146110ea57806379ba5097146110645780637b1c671e146110475780638456cb5914610fe65780638955b7a414610d6657806389a3027114610d225780638c242ea414610d055780638da5cb5b14610cdd57806395d89b4114610bd157806396a2d5b014610b99578063981372e114610b78578063a9059cbb14610b47578063b6b55f2514610967578063bdacb303146108e0578063be5c5e9b146108c3578063c082d8b31461070c578063c5c11988146106b9578063c7bf19801461068e578063d33219b414610666578063d6c89c6014610649578063dd62ed3e146105f9578063e30c3978146105d1578063f1015737146105b4578063f2fde38b14610548578063f462cbd914610354578063f540a21f146102845763ff50abdc14610263575f80fd5b34610280575f366003190112610280576020600854604051908152f35b5f80fd5b34610280575f3660031901126102805761029c611e35565b600954600a54919081158015919061034d576127108102818104612710148215171561032f57836102cc91611ce7565b915b1561034357600c5493600c850294808604600c148115171561032f576201d4c00294808604612710149015171561032f5761030b8460c096611ce7565b915b60405194855260208501526040840152606083015260808201525f60a0820152f35b634e487b7160e01b5f52601160045260245ffd5b60c0935f9161030d565b5f916102ce565b346102805760403660031901126102805761036d611c41565b60243590610379611f60565b335f52601360205261039160ff60405f205416611d12565b6040516370a0823160e01b81523060048201527f000000000000000000000000000000000000000000000000000000000000000091906020816024816001600160a01b0387165afa801561053d575f90610509575b6103f49150600a5490611cc7565b9061271061040c610403611e35565b600f5490611cd4565b04916009549261041c8685611d05565b116104cc57841161048757610463847f37a48a97a42bcba69a091a5e01d5a2d850cfde1c87b3ab0f7688093342368a899461045982602096611d05565b600955339061217c565b6040519384526001600160a01b031692a260015f8051602061235183398151915255005b60405162461bcd60e51b815260206004820152601c60248201527f506f6f6c3a20696e73756666696369656e74206c6971756964697479000000006044820152606490fd5b60405162461bcd60e51b81526020600482015260156024820152740506f6f6c3a207574696c697a6174696f6e2063617605c1b6044820152606490fd5b506020813d602011610535575b8161052360209383611c91565b81010312610280576103f490516103e6565b3d9150610516565b6040513d5f823e3d90fd5b3461028057602036600319011261028057610561611c41565b6105696121fd565b600680546001600160a01b0319166001600160a01b039283169081179091556005549091167f38d16b8cac22d99fc7c124b9cd0de2d3fa1faef420bfe791d8c362d765e227005f80a3005b34610280575f366003190112610280576020601654604051908152f35b34610280575f366003190112610280576006546040516001600160a01b039091168152602090f35b3461028057604036600319011261028057610612611c41565b61061a611c57565b6001600160a01b039182165f908152600160209081526040808320949093168252928352819020549051908152f35b34610280575f366003190112610280576020601154604051908152f35b34610280575f366003190112610280576007546040516001600160a01b039091168152602090f35b346102805760203660031901126102805760206106b16106ac611c41565b611dd1565b604051908152f35b34610280576040366003190112610280576106d2611c41565b60243590811515809203610280576106e86121fd565b60018060a01b03165f52601360205260405f209060ff801983541691161790555f80f35b346102805760403660031901126102805760043560243567ffffffffffffffff8111610280573660238201121561028057806004013567ffffffffffffffff811161028057602482019160248236920101116102805761076a611f60565b335f52601360205260ff60405f20541680156108af575b1561086a57821561082e57826060916107bd7fceac8d832d8dd72f1e2abefb263be667ad221bcb9cdb51fc724f6c8979f0e95895600854611d05565b6008555f83601f19601f840116926107f7602085016107df6040519182611c91565b8281528289602083013784602084830101528661227a565b8060405197889687526040602088015281604088015283870137840101528101030190a160015f8051602061235183398151915255005b60405162461bcd60e51b8152602060048201526014602482015273141c9bdc141bdbdb0e881e995c9bc81e5a595b1960621b6044820152606490fd5b60405162461bcd60e51b815260206004820152601860248201527f50726f70506f6f6c3a206e6f7420617574686f72697a656400000000000000006044820152606490fd5b506005546001600160a01b03163314610781565b34610280575f366003190112610280576020601554604051908152f35b34610280576020366003190112610280576108f9611c41565b6109016121fd565b6001600160a01b0316801561092c576bffffffffffffffffffffffff60a01b60075416176007555f80f35b60405162461bcd60e51b815260206004820152601360248201527257696b693a207a65726f2074696d656c6f636b60681b6044820152606490fd5b3461028057602036600319011261028057600435610983611f60565b61098b612332565b6010548110610b0c5761099d33611f98565b6109a5611e35565b6002549081158015610b04575b15610aed575050805b6109c782600854611d05565b600855335f5260126020524260405f2055670de0b6b3a7640000610a02600d54335f525f6020526109fc8460405f2054611d05565b90611cd4565b04335f52600e60205260405f2055610a3c8230337f0000000000000000000000000000000000000000000000000000000000000000612211565b3315610ada57602091610a5182600254611d05565b600255335f525f835260405f208281540190556040518281525f7fddf252ad1be2c89b69c2b068fc378daa952ba7f163c4a11628f55a4df523b3ef853393a360405190815281838201527f73a19dd210f1a7f902193214c0ee91dd35ee5b4d920cba8d519eca65a7b488ca60403392a260015f8051602061235183398151915255604051908152f35b63ec442f0560e01b5f525f60045260245ffd5b610afa610aff9284611cd4565b611ce7565b6109bb565b5080156109b2565b60405162461bcd60e51b8152602060048201526013602482015272506f6f6c3a2062656c6f77206d696e696d756d60681b6044820152606490fd5b3461028057604036600319011261028057610b6d610b63611c41565b6024359033611ec9565b602060405160018152f35b3461028057602036600319011261028057610b916121fd565b600435601155005b34610280576020366003190112610280576001600160a01b03610bba611c41565b165f52600e602052602060405f2054604051908152f35b34610280575f366003190112610280576040515f6004548060011c90600181168015610cd3575b602083108114610cbf57828552908115610c9b5750600114610c3d575b610c3983610c2581850382611c91565b604051918291602083526020830190611c6d565b0390f35b91905060045f527f8a35acfbc15ff81a39ae7d344fd709f28e8600b4aa8c65c6b64bfe7fe36bd19b915f905b808210610c8157509091508101602001610c25610c15565b919260018160209254838588010152019101909291610c69565b60ff191660208086019190915291151560051b84019091019150610c259050610c15565b634e487b7160e01b5f52602260045260245ffd5b91607f1691610bf8565b34610280575f366003190112610280576005546040516001600160a01b039091168152602090f35b34610280575f366003190112610280576020600c54604051908152f35b34610280575f366003190112610280576040517f00000000000000000000000000000000000000000000000000000000000000006001600160a01b03168152602090f35b3461028057608036600319011261028057610d7f611c41565b60243590604435606435610d91611f60565b335f526013602052610da960ff60405f205416611d12565b60095484808210610fde57610dbd91611cc7565b6009558115610e4157507f1c54f7cfd42871df6af9a16c6e2dd0f7d12bb3c96599ffac447ed55a3695983a91604091610e188530337f0000000000000000000000000000000000000000000000000000000000000000612211565b825194855260208501526001600160a01b031692a25b60015f8051602061235183398151915255005b9290508215610f71578280821115610f6857610e5c91611cc7565b905b81610f37575b600a54808411610f045750610e7b83600a54611cc7565b600a555b610e8b83601654611d05565b60165560018060a01b031691827f4fed6e066d3703b1a18201f5e13d8fb5fe76783129a5ba90693f09c158399f6a6020604051848152a2600160ff1b811461032f577f1c54f7cfd42871df6af9a16c6e2dd0f7d12bb3c96599ffac447ed55a3695983a9160409182519182525f036020820152a2610e2e565b610f0e9084611cc7565b5f600a556008549080821115610f2f57610f2791611cc7565b600855610e7f565b50505f610f27565b610f638230337f0000000000000000000000000000000000000000000000000000000000000000612211565b610e64565b50505f90610e5e565b915060407f1c54f7cfd42871df6af9a16c6e2dd0f7d12bb3c96599ffac447ed55a3695983a91610fc38430337f0000000000000000000000000000000000000000000000000000000000000000612211565b81519384525f60208501526001600160a01b031692a2610e2e565b50505f610dbd565b34610280575f36600319011261028057610ffe6121fd565b611006612332565b6006805460ff60a01b1916600160a01b1790556040513381527f62e78cea01bee320cd4e420270b5ea74000d11b0c9f74754ebdbfc544b05a25890602090a1005b34610280575f366003190112610280576020601454604051908152f35b34610280575f36600319011261028057600654336001600160a01b03909116036110d757600680546001600160a01b0319908116909155600580543392811683179091556001600160a01b03167f8be0079c531659141344cd1fd0a4f28419497f9722a3daafe3b4186f6b6457e05f80a3005b63118cdaa760e01b5f523360045260245ffd5b3461028057602036600319011261028057611185600435611109611f60565b335f52601360205261112160ff60405f205416611d12565b61114d8130337f0000000000000000000000000000000000000000000000000000000000000000612211565b61117d60405161115e604082611c91565b600c81526b1c1c9bd99a5d17dcdc1b1a5d60a21b60208201528261227a565b601554611d05565b60155560015f8051602061235183398151915255005b34610280576020366003190112610280576004356111b76121fd565b61232881116111c557600f55005b60405162461bcd60e51b815260206004820152600d60248201526c506f6f6c3a206d61782039302560981b6044820152606490fd5b34610280575f366003190112610280576112126121fd565b600680546001600160a01b03199081169091556005805491821690555f906001600160a01b03167f8be0079c531659141344cd1fd0a4f28419497f9722a3daafe3b4186f6b6457e08280a3005b34610280576020366003190112610280576001600160a01b03611280611c41565b165f525f602052602060405f2054604051908152f35b34610280575f3660031901126102805760206106b1611d9c565b34610280575f366003190112610280576020600954604051908152f35b34610280575f36600319011261028057602060ff60065460a01c166040519015158152f35b34610280575f366003190112610280576020600a54604051908152f35b34610280575f3660031901126102805760206106b1611d55565b3461028057602036600319011261028057600435611345611f60565b335f52601360205261135d60ff60405f205416611d12565b6113898130337f0000000000000000000000000000000000000000000000000000000000000000612211565b6103e88102908082046103e8148115171561032f576113eb6127106113f393046113bf6113b68285611cc7565b91600a54611d05565b600a55604051906113d1604083611c91565b60088252676576616c5f66656560c01b602083015261227a565b601454611d05565b60145560015f8051602061235183398151915255005b34610280575f366003190112610280576020601054604051908152f35b34610280575f3660031901126102805761143e611f60565b610e2e33611f98565b34610280575f366003190112610280576020600b54604051908152f35b34610280575f3660031901126102805761147c6121fd565b60065460ff8160a01c16156114c35760ff60a01b19166006556040513381527f5db9ee0a495bf2e6ff9c91a7834c1ba4fdd244a5e8aa4e537bd38aeae4b073aa90602090a1005b638dfc202b60e01b5f5260045ffd5b34610280575f36600319011261028057602060405160128152f35b34610280575f366003190112610280576020600f54604051908152f35b34610280576020366003190112610280576001600160a01b0361152b611c41565b165f526013602052602060ff60405f2054166040519015158152f35b34610280575f3660031901126102805760206040516103e88152f35b346102805760203660031901126102805760043561157f611f60565b335f525f6020528060405f2054106117fe57335f5260126020526115aa60405f205460115490611d05565b42106117c8576115b933611f98565b6115d66115cd6115c7611e35565b83611cd4565b60025490611ce7565b6040516370a0823160e01b81523060048201527f0000000000000000000000000000000000000000000000000000000000000000906020816024816001600160a01b0386165afa801561053d575f90611794575b6116389150600a5490611cc7565b82116117405760085482808211156117385761165391611cc7565b600855331561172557335f525f60205260405f205483811061170a578284926020956116c093335f525f88520360405f205583600254036002555f6040518581527fddf252ad1be2c89b69c2b068fc378daa952ba7f163c4a11628f55a4df523b3ef883392a3339061217c565b60405190828252838201527f92ccf450a286a957af52509bc1c9939d1a6a481783e142e41e2499f0bb66ebc660403392a260015f8051602061235183398151915255604051908152f35b839063391434e360e21b5f523360045260245260445260645ffd5b634b637e8f60e11b5f525f60045260245ffd5b50505f611653565b60405162461bcd60e51b815260206004820152602660248201527f506f6f6c3a20696e73756666696369656e7420617661696c61626c65206c697160448201526575696469747960d01b6064820152608490fd5b506020813d6020116117c0575b816117ae60209383611c91565b8101031261028057611638905161162a565b3d91506117a1565b60405162461bcd60e51b815260206004820152600e60248201526d2837b7b61d1031b7b7b63237bbb760911b6044820152606490fd5b60405162461bcd60e51b8152602060048201526016602482015275141bdbdb0e881a5b9cdd59999a58da595b9d0815d41360521b6044820152606490fd5b34610280575f366003190112610280576020600d54604051908152f35b34610280575f3660031901126102805760206040516127108152f35b346102805760603660031901126102805761188e611c41565b611896611c57565b6001600160a01b0382165f818152600160209081526040808320338452909152902054909260443592915f1981106118d4575b50610b6d9350611ec9565b83811061193957841561192657331561191357610b6d945f52600160205260405f2060018060a01b0333165f526020528360405f2091039055846118c9565b634a1406b160e11b5f525f60045260245ffd5b63e602df0560e01b5f525f60045260245ffd5b8390637dc7a0d960e11b5f523360045260245260445260645ffd5b34610280575f366003190112610280576040516370a0823160e01b81523060048201527f00000000000000000000000000000000000000000000000000000000000000006001600160a01b0316602082602481845afa91821561053d575f92611a7f575b50600a548092115f14611a75576020602491604051928380926370a0823160e01b82523060048301525afa90811561053d575f91611a42575b506020916119fe91611cc7565b612710611a0c610403611e35565b046009548082115f14611a3a57611a2291611cc7565b80821015611a335750604051908152f35b90506106b1565b50505f611a22565b90506020813d602011611a6d575b81611a5d60209383611c91565b81010312610280575160206119f1565b3d9150611a50565b505060205f6119fe565b9091506020813d602011611aab575b81611a9b60209383611c91565b81010312610280575190826119b8565b3d9150611a8e565b34610280575f366003190112610280576020600254604051908152f35b3461028057604036600319011261028057611ae9611c41565b602435903315611926576001600160a01b031690811561191357335f52600160205260405f20825f526020528060405f20556040519081527f8c5be1e5ebec7d5bd14f71427d1e84f3dd0314c0f7b2291e5b200ac8c7c3b92560203392a3602060405160018152f35b34610280575f366003190112610280576040515f6003548060011c90600181168015611c03575b602083108114610cbf57828552908115610c9b5750600114611ba557610c3983610c2581850382611c91565b91905060035f527fc2575a0e9e593c00f959f8c92f12db2869c3395a3b0502d05e2516446f71f85b915f905b808210611be957509091508101602001610c25610c15565b919260018160209254838588010152019101909291611bd1565b91607f1691611b79565b34610280576020366003190112610280576020906001600160a01b03611c31611c41565b165f526012825260405f20548152f35b600435906001600160a01b038216820361028057565b602435906001600160a01b038216820361028057565b805180835260209291819084018484015e5f828201840152601f01601f1916010190565b90601f8019910116810190811067ffffffffffffffff821117611cb357604052565b634e487b7160e01b5f52604160045260245ffd5b9190820391821161032f57565b8181029291811591840414171561032f57565b8115611cf1570490565b634e487b7160e01b5f52601260045260245ffd5b9190820180921161032f57565b15611d1957565b60405162461bcd60e51b8152602060048201526014602482015273141bdbdb0e881b9bdd08185d5d1a1bdc9a5e995960621b6044820152606490fd5b6002548015611d9457611d66611e35565b90670de0b6b3a7640000820291808304670de0b6b3a7640000149015171561032f57611d9191611ce7565b90565b50620f424090565b611da4611e35565b8015611dcc5760095490612710820291808304612710149015171561032f57611d9191611ce7565b505f90565b6001600160a01b03165f818152602081905260409020548015611e2f57611e03670de0b6b3a764000091600d54611cd4565b04815f52600e60205260405f205481115f14611e2f57611d91915f52600e60205260405f205490611cc7565b50505f90565b6040516370a0823160e01b81523060048201526020816024817f00000000000000000000000000000000000000000000000000000000000000006001600160a01b03165afa801561053d575f90611e95575b611d91915060095490611d05565b506020813d602011611ec1575b81611eaf60209383611c91565b8101031261028057611d919051611e87565b3d9150611ea2565b6001600160a01b0316908115611725576001600160a01b0316918215610ada57815f525f60205260405f2054818110611f4757817fddf252ad1be2c89b69c2b068fc378daa952ba7f163c4a11628f55a4df523b3ef92602092855f525f84520360405f2055845f525f825260405f20818154019055604051908152a3565b8263391434e360e21b5f5260045260245260445260645ffd5b60025f805160206123518339815191525414611f895760025f8051602061235183398151915255565b633ee5aeb560e01b5f5260045ffd5b60018060a01b03811690815f525f60205260405f2054801561217057611fc9670de0b6b3a764000091600d54611cd4565b04825f52600e60205260405f205481115f1461217557825f52600e602052611ff560405f205482611cc7565b905b835f52600e60205260405f20558015612170576040516370a0823160e01b81523060048201527f000000000000000000000000000000000000000000000000000000000000000091906001600160a01b03831690602081602481855afa90811561053d575f9161213e575b50600a548091115f14612135576020602492604051938480926370a0823160e01b82523060048301525afa801561053d575f90612101575b6120a49250611cc7565b905b818111156120fa57505b806120bc575b50505050565b6120ea817fc04825ba3f383b602255d2a13065a68e325c65c9e0ed5d031ea2b06f641873af9460209461217c565b604051908152a25f8080806120b6565b90506120b0565b506020823d60201161212d575b8161211b60209383611c91565b81010312610280576120a4915161209a565b3d915061210e565b50505f906120a6565b90506020813d602011612168575b8161215960209383611c91565b8101031261028057515f612062565b3d915061214c565b505050565b5f90611ff7565b916040519163a9059cbb60e01b5f5260018060a01b031660045260245260205f60448180865af19060015f51148216156121dc575b604052156121bc5750565b635274afe760e01b5f9081526001600160a01b0391909116600452602490fd5b9060018115166121f457823b15153d151616906121b1565b503d5f823e3d90fd5b6005546001600160a01b031633036110d757565b6040516323b872dd60e01b5f9081526001600160a01b039384166004529290931660245260449390935260209060648180865af19060015f5114821615612262575b6040525f606052156121bc5750565b9060018115166121f457823b15153d15161690612253565b90600254918215801561232a575b61231657670de0b6b3a7640000810292818404670de0b6b3a7640000148215171561032f576122db6122e3917fb826c41bdb9eede4671a2ab3815a91755df8fb152d49bb561a178b1044c22b7395611ce7565b600d54611d05565b600d556122f281600c54611d05565b600c556123116040519283928352604060208401526040830190611c6d565b0390a1565b90506123259150600b54611d05565b600b55565b508015612288565b60ff60065460a01c1661234157565b63d93c066560e01b5f5260045ffdfe9b779b17422d0df92223018b32b4d1fa46e071723d6817e2486d003becc55f00a264697066735822122007e1dc4f373199d95e70cc8431ed85733076be9cc073568530409527dc9cf0bc64736f6c634300081a0033",
  "linkReferences": {},
  "deployedLinkReferences": {}
}