{
  "_format": "hh-sol-artifact-1",
  "contractName": "WikiDynamicFeeHook",
  "sourceName": "src/WikiDynamicFeeHook.sol",
  "abi": [
    {
      "inputs": [
        {
          "internalType": "address",
          "name": "owner",
          "type": "address"
        }
      ],
      "stateMutability": "nonpayable",
      "type": "constructor"
    },
    {
      "inputs": [
        {
          "internalType": "address",
          "name": "owner",
          "type": "address"
        }
      ],
      "name": "OwnableInvalidOwner",
      "type": "error"
    },
    {
      "inputs": [
        {
          "internalType": "address",
          "name": "account",
          "type": "address"
        }
      ],
      "name": "OwnableUnauthorizedAccount",
      "type": "error"
    },
    {
      "anonymous": false,
      "inputs": [
        {
          "indexed": true,
          "internalType": "bytes32",
          "name": "market",
          "type": "bytes32"
        },
        {
          "indexed": false,
          "internalType": "uint256",
          "name": "feeBps",
          "type": "uint256"
        },
        {
          "indexed": false,
          "internalType": "uint256",
          "name": "volatility",
          "type": "uint256"
        },
        {
          "indexed": false,
          "internalType": "uint256",
          "name": "imbalancePct",
          "type": "uint256"
        }
      ],
      "name": "FeeComputed",
      "type": "event"
    },
    {
      "anonymous": false,
      "inputs": [
        {
          "indexed": true,
          "internalType": "address",
          "name": "previousOwner",
          "type": "address"
        },
        {
          "indexed": true,
          "internalType": "address",
          "name": "newOwner",
          "type": "address"
        }
      ],
      "name": "OwnershipTransferStarted",
      "type": "event"
    },
    {
      "anonymous": false,
      "inputs": [
        {
          "indexed": true,
          "internalType": "address",
          "name": "previousOwner",
          "type": "address"
        },
        {
          "indexed": true,
          "internalType": "address",
          "name": "newOwner",
          "type": "address"
        }
      ],
      "name": "OwnershipTransferred",
      "type": "event"
    },
    {
      "anonymous": false,
      "inputs": [
        {
          "indexed": true,
          "internalType": "bytes32",
          "name": "market",
          "type": "bytes32"
        },
        {
          "indexed": false,
          "internalType": "uint256",
          "name": "newEWMA",
          "type": "uint256"
        }
      ],
      "name": "VolatilityUpdated",
      "type": "event"
    },
    {
      "inputs": [],
      "name": "ALPHA_BPS",
      "outputs": [
        {
          "internalType": "uint256",
          "name": "",
          "type": "uint256"
        }
      ],
      "stateMutability": "view",
      "type": "function"
    },
    {
      "inputs": [],
      "name": "BPS",
      "outputs": [
        {
          "internalType": "uint256",
          "name": "",
          "type": "uint256"
        }
      ],
      "stateMutability": "view",
      "type": "function"
    },
    {
      "inputs": [],
      "name": "FEE_EXTREME",
      "outputs": [
        {
          "internalType": "uint256",
          "name": "",
          "type": "uint256"
        }
      ],
      "stateMutability": "view",
      "type": "function"
    },
    {
      "inputs": [],
      "name": "FEE_HIGH",
      "outputs": [
        {
          "internalType": "uint256",
          "name": "",
          "type": "uint256"
        }
      ],
      "stateMutability": "view",
      "type": "function"
    },
    {
      "inputs": [],
      "name": "FEE_LOW_VOL",
      "outputs": [
        {
          "internalType": "uint256",
          "name": "",
          "type": "uint256"
        }
      ],
      "stateMutability": "view",
      "type": "function"
    },
    {
      "inputs": [],
      "name": "FEE_NORMAL",
      "outputs": [
        {
          "internalType": "uint256",
          "name": "",
          "type": "uint256"
        }
      ],
      "stateMutability": "view",
      "type": "function"
    },
    {
      "inputs": [],
      "name": "IMBALANCE_SURCHARGE",
      "outputs": [
        {
          "internalType": "uint256",
          "name": "",
          "type": "uint256"
        }
      ],
      "stateMutability": "view",
      "type": "function"
    },
    {
      "inputs": [],
      "name": "VOL_EXTREME_BPS",
      "outputs": [
        {
          "internalType": "uint256",
          "name": "",
          "type": "uint256"
        }
      ],
      "stateMutability": "view",
      "type": "function"
    },
    {
      "inputs": [],
      "name": "VOL_HIGH_BPS",
      "outputs": [
        {
          "internalType": "uint256",
          "name": "",
          "type": "uint256"
        }
      ],
      "stateMutability": "view",
      "type": "function"
    },
    {
      "inputs": [],
      "name": "acceptOwnership",
      "outputs": [],
      "stateMutability": "nonpayable",
      "type": "function"
    },
    {
      "inputs": [
        {
          "internalType": "bytes32",
          "name": "marketId",
          "type": "bytes32"
        },
        {
          "internalType": "bool",
          "name": "isLong",
          "type": "bool"
        },
        {
          "internalType": "uint256",
          "name": "size",
          "type": "uint256"
        },
        {
          "internalType": "bool",
          "name": "isOpen",
          "type": "bool"
        }
      ],
      "name": "afterSwap",
      "outputs": [],
      "stateMutability": "nonpayable",
      "type": "function"
    },
    {
      "inputs": [
        {
          "internalType": "bytes32",
          "name": "marketId",
          "type": "bytes32"
        },
        {
          "internalType": "uint256",
          "name": "currentPrice",
          "type": "uint256"
        },
        {
          "internalType": "uint256",
          "name": "",
          "type": "uint256"
        },
        {
          "internalType": "bool",
          "name": "isLong",
          "type": "bool"
        }
      ],
      "name": "beforeSwap",
      "outputs": [
        {
          "internalType": "uint256",
          "name": "feeBps",
          "type": "uint256"
        }
      ],
      "stateMutability": "nonpayable",
      "type": "function"
    },
    {
      "inputs": [
        {
          "internalType": "bytes32",
          "name": "market",
          "type": "bytes32"
        }
      ],
      "name": "getCurrentFee",
      "outputs": [
        {
          "internalType": "uint256",
          "name": "feeBps",
          "type": "uint256"
        }
      ],
      "stateMutability": "view",
      "type": "function"
    },
    {
      "inputs": [
        {
          "internalType": "bytes32",
          "name": "market",
          "type": "bytes32"
        }
      ],
      "name": "getVolatility",
      "outputs": [
        {
          "internalType": "uint256",
          "name": "",
          "type": "uint256"
        }
      ],
      "stateMutability": "view",
      "type": "function"
    },
    {
      "inputs": [
        {
          "internalType": "bytes32",
          "name": "",
          "type": "bytes32"
        }
      ],
      "name": "marketStates",
      "outputs": [
        {
          "internalType": "uint256",
          "name": "lastPrice",
          "type": "uint256"
        },
        {
          "internalType": "uint256",
          "name": "lastUpdateBlock",
          "type": "uint256"
        },
        {
          "internalType": "uint256",
          "name": "ewmaVolatility",
          "type": "uint256"
        },
        {
          "internalType": "uint256",
          "name": "longOI",
          "type": "uint256"
        },
        {
          "internalType": "uint256",
          "name": "shortOI",
          "type": "uint256"
        }
      ],
      "stateMutability": "view",
      "type": "function"
    },
    {
      "inputs": [],
      "name": "owner",
      "outputs": [
        {
          "internalType": "address",
          "name": "",
          "type": "address"
        }
      ],
      "stateMutability": "view",
      "type": "function"
    },
    {
      "inputs": [],
      "name": "pendingOwner",
      "outputs": [
        {
          "internalType": "address",
          "name": "",
          "type": "address"
        }
      ],
      "stateMutability": "view",
      "type": "function"
    },
    {
      "inputs": [
        {
          "internalType": "address",
          "name": "amm",
          "type": "address"
        },
        {
          "internalType": "bool",
          "name": "enabled",
          "type": "bool"
        }
      ],
      "name": "registerAMM",
      "outputs": [],
      "stateMutability": "nonpayable",
      "type": "function"
    },
    {
      "inputs": [
        {
          "internalType": "address",
          "name": "",
          "type": "address"
        }
      ],
      "name": "registeredAmms",
      "outputs": [
        {
          "internalType": "bool",
          "name": "",
          "type": "bool"
        }
      ],
      "stateMutability": "view",
      "type": "function"
    },
    {
      "inputs": [],
      "name": "renounceOwnership",
      "outputs": [],
      "stateMutability": "nonpayable",
      "type": "function"
    },
    {
      "inputs": [
        {
          "internalType": "address",
          "name": "newOwner",
          "type": "address"
        }
      ],
      "name": "transferOwnership",
      "outputs": [],
      "stateMutability": "nonpayable",
      "type": "function"
    }
  ],
  "bytecode": "0x60803460c157601f610ae738819003918201601f19168301916001600160401b0383118484101760c55780849260209460405283398101031260c157516001600160a01b0381169081900360c157801560ae57600180546001600160a01b03199081169091555f80549182168317815560405192916001600160a01b0316907f8be0079c531659141344cd1fd0a4f28419497f9722a3daafe3b4186f6b6457e09080a3610a0d90816100da8239f35b631e4fbdf760e01b5f525f60045260245ffd5b5f80fd5b634e487b7160e01b5f52604160045260245ffdfe6080806040526004361015610012575f80fd5b5f3560e01c90816302a16f6b1461084457508063043ed4db1461082857806308b40b2c1461080d57806317f58ccc146107e0578063249d39e9146107c457806328f83255146104bc578063412fadb4146104a057806363075eb91461048557806369e8fea21461046a5780636be77c041461044f578063715018a6146103ec57806379ba5097146103675780638da5cb5b146103405780638fa9ef88146102f05780639c1f9c03146102ca578063b368ab2314610214578063b5c95ad3146101f9578063be57d07a146101de578063e30c3978146101b6578063f2fde38b146101445763f537392814610103575f80fd5b34610140576020366003190112610140576001600160a01b036101246108b5565b165f526003602052602060ff60405f2054166040519015158152f35b5f80fd5b346101405760203660031901126101405761015d6108b5565b610165610984565b60018060a01b0316806bffffffffffffffffffffffff60a01b600154161760015560018060a01b035f54167f38d16b8cac22d99fc7c124b9cd0de2d3fa1faef420bfe791d8c362d765e227005f80a3005b34610140575f366003190112610140576001546040516001600160a01b039091168152602090f35b34610140575f36600319011261014057602060405160068152f35b34610140575f36600319011261014057602060405160c88152f35b346101405760803660031901126101405761022d6108a6565b60443590610239610897565b90335f52600360205261025260ff60405f2054166108cb565b6004355f52600260205260405f20915f1461028e571561027f57600361027b9101918254610939565b9055005b600461027b9101918254610939565b156102b25760030180549091808211156102ab5761027b9161090e565b50505f9055005b60040180549091808211156102ab5761027b9161090e565b346101405760203660031901126101405760206102e8600435610946565b604051908152f35b34610140576040366003190112610140576103096108b5565b6103116108a6565b9061031a610984565b60018060a01b03165f52600360205260405f209060ff8019835416911515161790555f80f35b34610140575f366003190112610140575f546040516001600160a01b039091168152602090f35b34610140575f36600319011261014057600154336001600160a01b03909116036103d957600180546001600160a01b03199081169091555f805433928116831782556001600160a01b0316907f8be0079c531659141344cd1fd0a4f28419497f9722a3daafe3b4186f6b6457e09080a3005b63118cdaa760e01b5f523360045260245ffd5b34610140575f36600319011261014057610404610984565b600180546001600160a01b03199081169091555f80549182168155906001600160a01b03167f8be0079c531659141344cd1fd0a4f28419497f9722a3daafe3b4186f6b6457e08280a3005b34610140575f366003190112610140576020604051600a8152f35b34610140575f36600319011261014057602060405160648152f35b34610140575f36600319011261014057602060405160148152f35b34610140575f3660031901126101405760206040516103e88152f35b34610140576080366003190112610140576004356024356104db610897565b91335f5260036020526104f460ff60405f2054166108cb565b805f52600260205260405f20918254801515806107b7575b610713575b50825543600183015560028201549260648410156106e7576001925b60046003820154910154906105428282610939565b908161056c575b602086865f80516020610998833981519152838b604051908152a2604051908152f35b808361058b92989597981193845f146106e057505b8260011c9061090e565b90612710820291808304612710149015171561060d576105aa9161091b565b931515146107d08411908180926106d9575b15610621575050600a840180941161060d5760205f8051602061099883398151915291835f805160206109b883398151915260608498975b6040519089825285878301526040820152a29486610549565b634e487b7160e01b5f52601160045260245ffd5b91949391816106d0575b5061065a575b60208094835f805160206109b883398151915260605f80516020610998833981519152956105f4565b919260028411156106a457600119840193841161060d5760205f8051602061099883398151915291835f805160206109b8833981519152606084985b979550505050945050610631565b60208094505f8051602061099883398151915291835f805160206109b883398151915260606001610696565b9050158561062b565b50806105bc565b9050610581565b61012c8410156106f95760069261052d565b6103e884101561070b5760149261052d565b60649261052d565b8082111561078957610725818361090e565b90612710820291808304612710149015171561060d576107449161091b565b60028401908154612648810290808204612648149015171561060d5760c882029180830460c8149015171561060d576127109161078091610939565b04905584610511565b610793828261090e565b90612710820291808304612710149015171561060d576107b29161091b565b610744565b506001840154431161050c565b34610140575f3660031901126101405760206040516127108152f35b34610140576020366003190112610140576004355f5260026020526020600260405f200154604051908152f35b34610140575f36600319011261014057602060405160018152f35b34610140575f36600319011261014057602060405161012c8152f35b346101405760203660031901126101405760a0906004355f52600260205260405f208054906001810154600282015490600460038401549301549385526020850152604084015260608301526080820152f35b60643590811515820361014057565b60243590811515820361014057565b600435906001600160a01b038216820361014057565b156108d257565b60405162461bcd60e51b8152602060048201526014602482015273121bdbdace881b9bdd081c9959da5cdd195c995960621b6044820152606490fd5b9190820391821161060d57565b8115610925570490565b634e487b7160e01b5f52601260045260245ffd5b9190820180921161060d57565b5f526002602052600260405f2001546064811061097e5761012c8110610978576103e81161097357606490565b601490565b50600690565b50600190565b5f546001600160a01b031633036103d95756fee54def7ef260bdd665d25c3d57696a4892a09c435dd81a84f8fb24d7942eea7f2d3e81c488f15fafc3fda2be47b591ea0559ed3197271c4653020943cbcab5e5a26469706673582212206a3134b329e9e5c25e5c8920e99956207523fff19f94f51c6165eada412552a464736f6c634300081a0033",
  "linkReferences": {},
  "deployedLinkReferences": {}
}