{
  "_format": "hh-sol-artifact-1",
  "contractName": "WikiLeverageScaler",
  "sourceName": "src/WikiLeverageScaler.sol",
  "abi": [
    {
      "inputs": [
        {
          "internalType": "address",
          "name": "_owner",
          "type": "address"
        }
      ],
      "stateMutability": "nonpayable",
      "type": "constructor"
    },
    {
      "inputs": [
        {
          "internalType": "address",
          "name": "owner",
          "type": "address"
        }
      ],
      "name": "OwnableInvalidOwner",
      "type": "error"
    },
    {
      "inputs": [
        {
          "internalType": "address",
          "name": "account",
          "type": "address"
        }
      ],
      "name": "OwnableUnauthorizedAccount",
      "type": "error"
    },
    {
      "anonymous": false,
      "inputs": [
        {
          "indexed": false,
          "internalType": "enum WikiLeverageScaler.MarketClass",
          "name": "class_",
          "type": "uint8"
        },
        {
          "indexed": false,
          "internalType": "uint256",
          "name": "maxLev",
          "type": "uint256"
        },
        {
          "indexed": false,
          "internalType": "uint256",
          "name": "baseNotional",
          "type": "uint256"
        }
      ],
      "name": "ClassConfigUpdated",
      "type": "event"
    },
    {
      "anonymous": false,
      "inputs": [
        {
          "indexed": true,
          "internalType": "bytes32",
          "name": "marketId",
          "type": "bytes32"
        },
        {
          "indexed": false,
          "internalType": "enum WikiLeverageScaler.MarketClass",
          "name": "class_",
          "type": "uint8"
        },
        {
          "indexed": false,
          "internalType": "string",
          "name": "className",
          "type": "string"
        }
      ],
      "name": "MarketClassSet",
      "type": "event"
    },
    {
      "anonymous": false,
      "inputs": [
        {
          "indexed": true,
          "internalType": "address",
          "name": "previousOwner",
          "type": "address"
        },
        {
          "indexed": true,
          "internalType": "address",
          "name": "newOwner",
          "type": "address"
        }
      ],
      "name": "OwnershipTransferStarted",
      "type": "event"
    },
    {
      "anonymous": false,
      "inputs": [
        {
          "indexed": true,
          "internalType": "address",
          "name": "previousOwner",
          "type": "address"
        },
        {
          "indexed": true,
          "internalType": "address",
          "name": "newOwner",
          "type": "address"
        }
      ],
      "name": "OwnershipTransferred",
      "type": "event"
    },
    {
      "inputs": [],
      "name": "BPS",
      "outputs": [
        {
          "internalType": "uint256",
          "name": "",
          "type": "uint256"
        }
      ],
      "stateMutability": "view",
      "type": "function"
    },
    {
      "inputs": [],
      "name": "PRECISION",
      "outputs": [
        {
          "internalType": "uint256",
          "name": "",
          "type": "uint256"
        }
      ],
      "stateMutability": "view",
      "type": "function"
    },
    {
      "inputs": [],
      "name": "acceptOwnership",
      "outputs": [],
      "stateMutability": "nonpayable",
      "type": "function"
    },
    {
      "inputs": [
        {
          "internalType": "uint256",
          "name": "",
          "type": "uint256"
        }
      ],
      "name": "classConfigs",
      "outputs": [
        {
          "internalType": "uint256",
          "name": "maxLeverage",
          "type": "uint256"
        },
        {
          "internalType": "uint256",
          "name": "baseNotionalUsdc",
          "type": "uint256"
        },
        {
          "internalType": "uint256",
          "name": "maxGapBps",
          "type": "uint256"
        },
        {
          "internalType": "string",
          "name": "name",
          "type": "string"
        }
      ],
      "stateMutability": "view",
      "type": "function"
    },
    {
      "inputs": [
        {
          "internalType": "bytes32",
          "name": "",
          "type": "bytes32"
        }
      ],
      "name": "classSet",
      "outputs": [
        {
          "internalType": "bool",
          "name": "",
          "type": "bool"
        }
      ],
      "stateMutability": "view",
      "type": "function"
    },
    {
      "inputs": [
        {
          "internalType": "bytes32",
          "name": "marketId",
          "type": "bytes32"
        }
      ],
      "name": "getLeverageTable",
      "outputs": [
        {
          "internalType": "uint256[8]",
          "name": "leverages",
          "type": "uint256[8]"
        },
        {
          "internalType": "uint256[8]",
          "name": "maxCollaterals",
          "type": "uint256[8]"
        },
        {
          "internalType": "uint256[8]",
          "name": "maxNotionals",
          "type": "uint256[8]"
        }
      ],
      "stateMutability": "view",
      "type": "function"
    },
    {
      "inputs": [
        {
          "internalType": "bytes32",
          "name": "marketId",
          "type": "bytes32"
        },
        {
          "internalType": "uint256",
          "name": "leverage",
          "type": "uint256"
        }
      ],
      "name": "getLimits",
      "outputs": [
        {
          "components": [
            {
              "internalType": "uint256",
              "name": "maxLeverage",
              "type": "uint256"
            },
            {
              "internalType": "uint256",
              "name": "maxCollateral",
              "type": "uint256"
            },
            {
              "internalType": "uint256",
              "name": "maxNotional",
              "type": "uint256"
            },
            {
              "internalType": "uint256",
              "name": "worstCaseShortfall",
              "type": "uint256"
            },
            {
              "internalType": "string",
              "name": "marketClass",
              "type": "string"
            }
          ],
          "internalType": "struct WikiLeverageScaler.PositionLimits",
          "name": "limits",
          "type": "tuple"
        }
      ],
      "stateMutability": "view",
      "type": "function"
    },
    {
      "inputs": [
        {
          "internalType": "bytes32",
          "name": "",
          "type": "bytes32"
        }
      ],
      "name": "marketClass",
      "outputs": [
        {
          "internalType": "enum WikiLeverageScaler.MarketClass",
          "name": "",
          "type": "uint8"
        }
      ],
      "stateMutability": "view",
      "type": "function"
    },
    {
      "inputs": [
        {
          "internalType": "bytes32",
          "name": "marketId",
          "type": "bytes32"
        }
      ],
      "name": "maxShortfallPerPosition",
      "outputs": [
        {
          "internalType": "uint256",
          "name": "",
          "type": "uint256"
        }
      ],
      "stateMutability": "view",
      "type": "function"
    },
    {
      "inputs": [],
      "name": "owner",
      "outputs": [
        {
          "internalType": "address",
          "name": "",
          "type": "address"
        }
      ],
      "stateMutability": "view",
      "type": "function"
    },
    {
      "inputs": [],
      "name": "pendingOwner",
      "outputs": [
        {
          "internalType": "address",
          "name": "",
          "type": "address"
        }
      ],
      "stateMutability": "view",
      "type": "function"
    },
    {
      "inputs": [],
      "name": "renounceOwnership",
      "outputs": [],
      "stateMutability": "nonpayable",
      "type": "function"
    },
    {
      "inputs": [
        {
          "internalType": "bytes32",
          "name": "marketId",
          "type": "bytes32"
        },
        {
          "internalType": "uint256",
          "name": "numSimultaneous",
          "type": "uint256"
        }
      ],
      "name": "requiredInsuranceFund",
      "outputs": [
        {
          "internalType": "uint256",
          "name": "",
          "type": "uint256"
        }
      ],
      "stateMutability": "view",
      "type": "function"
    },
    {
      "inputs": [
        {
          "internalType": "bytes32",
          "name": "marketId",
          "type": "bytes32"
        },
        {
          "internalType": "enum WikiLeverageScaler.MarketClass",
          "name": "class_",
          "type": "uint8"
        }
      ],
      "name": "setMarketClass",
      "outputs": [],
      "stateMutability": "nonpayable",
      "type": "function"
    },
    {
      "inputs": [
        {
          "internalType": "bytes32[]",
          "name": "marketIds",
          "type": "bytes32[]"
        },
        {
          "internalType": "enum WikiLeverageScaler.MarketClass[]",
          "name": "classes",
          "type": "uint8[]"
        }
      ],
      "name": "setMarketClasses",
      "outputs": [],
      "stateMutability": "nonpayable",
      "type": "function"
    },
    {
      "inputs": [
        {
          "internalType": "address",
          "name": "newOwner",
          "type": "address"
        }
      ],
      "name": "transferOwnership",
      "outputs": [],
      "stateMutability": "nonpayable",
      "type": "function"
    },
    {
      "inputs": [
        {
          "internalType": "enum WikiLeverageScaler.MarketClass",
          "name": "class_",
          "type": "uint8"
        },
        {
          "internalType": "uint256",
          "name": "maxLeverage",
          "type": "uint256"
        },
        {
          "internalType": "uint256",
          "name": "baseNotionalUsdc",
          "type": "uint256"
        },
        {
          "internalType": "uint256",
          "name": "maxGapBps",
          "type": "uint256"
        }
      ],
      "name": "updateClassConfig",
      "outputs": [],
      "stateMutability": "nonpayable",
      "type": "function"
    },
    {
      "inputs": [
        {
          "internalType": "bytes32",
          "name": "marketId",
          "type": "bytes32"
        },
        {
          "internalType": "uint256",
          "name": "leverage",
          "type": "uint256"
        },
        {
          "internalType": "uint256",
          "name": "collateral",
          "type": "uint256"
        },
        {
          "internalType": "uint256",
          "name": "notional",
          "type": "uint256"
        }
      ],
      "name": "validatePosition",
      "outputs": [],
      "stateMutability": "view",
      "type": "function"
    }
  ],
  "bytecode": "0x608060405234610d3a57611c266020813803918261001c81610d5d565b938492833981010312610d3a57516001600160a01b03811690819003610d3a578015610d2757600180546001600160a01b03199081169091555f8054918216831781556001600160a01b03909116907f8be0079c531659141344cd1fd0a4f28419497f9722a3daafe3b4186f6b6457e09080a3610097610d3e565b6064815260208101633b9aca008152604082019060c882526100b96040610d5d565b60078152661111519055531560ca1b6020820152606084018190529251600255516003555160045580516001600160401b03811161074857600554600181811c91168015610d1d575b602082101461072a57601f8111610cd7575b50602091601f8211600114610c77579181925f92610c6c575b50508160011b915f199060031b1c1916176005555b61014a610d3e565b6103e881526020810164012a05f200815260408201906101f4825261016f6040610d5d565b600c81526b21a92ca82a27afa6a0a527a960a11b6020820152606084018190529251600655516007555160085580516001600160401b03811161074857600954600181811c91168015610c62575b602082101461072a57601f8111610bff575b50602091601f8211600114610b9f579181925f92610b94575b50508160011b915f199060031b1c1916176009555b610205610d3e565b6101f481526020810163773594008152604082019061032082526102296040610d5d565b600a8082526910d496541513d7d0531560b21b602083015260608501829052935190935551600b5551600c5580516001600160401b03811161074857600d54600181811c91168015610b8a575b602082101461072a57601f8111610b27575b50602091601f8211600114610ac7579181925f92610abc575b50508160011b915f199060031b1c191617600d555b6102be610d3e565b6107d0815260208101640ba43b740081526040820190603282526102e26040610d5d565b600b81526a2327a922ac2fa6a0a527a960a91b6020820152606084018190529251600e5551600f555160105580516001600160401b03811161074857601154600181811c91168015610ab2575b602082101461072a57601f8111610a4f575b50602091601f82116001146109ef579181925f926109e4575b50508160011b915f199060031b1c1916176011555b610377610d3e565b6101f481526020810164012a05f2008152604082019061012c825261039c6040610d5d565b600c81526b464f5245585f45584f54494360a01b6020820152606084018190529251601255516013555160145580516001600160401b03811161074857601554600181811c911680156109da575b602082101461072a57601f8111610977575b50602091601f8211600114610917579181925f9261090c575b50508160011b915f199060031b1c1916176015555b610432610d3e565b6103e88152602081016402540be4008152604082019060c882526104566040610d5d565b60068152654d4554414c5360d01b6020820152606084018190529251601655516017555160185580516001600160401b03811161074857601954600181811c91168015610902575b602082101461072a57601f811161089f575b50602091601f821160011461083f579181925f92610834575b50508160011b915f199060031b1c1916176019555b6104e6610d3e565b6101f481526020810164012a05f2008152604082019061012c825261050b6040610d5d565b600b81526a434f4d4d4f44495449455360a81b6020820152606084018190529251601a5551601b5551601c5580516001600160401b03811161074857601d54600181811c9116801561082a575b602082101461072a57601f81116107c7575b50602091601f8211600114610767579181925f9261075c575b50508160011b915f199060031b1c191617601d555b6105a0610d3e565b6101f48152602081016402540be4008152604082019060c882526105c46040610d5d565b926007845266494e444943455360c81b60208501526060810193845251601e5551601f555160205551805160018060401b03811161074857602154600181811c9116801561073e575b602082101461072a57601f81116106c7575b50602091601f8211600114610667579181925f9261065c575b50508160011b915f199060031b1c1916176021555b604051610ea39081610d838239f35b015190505f80610638565b601f1982169260215f52805f20915f5b8581106106af57508360019510610697575b505050811b0160215561064d565b01515f1960f88460031b161c191690555f8080610689565b91926020600181928685015181550194019201610677565b60215f527f3a6357012c1a3ae0a17d304c9920310382d968ebcc4b1771f41c6b304205b570601f830160051c81019160208410610720575b601f0160051c01905b818110610715575061061f565b5f8155600101610708565b90915081906106ff565b634e487b7160e01b5f52602260045260245ffd5b90607f169061060d565b634e487b7160e01b5f52604160045260245ffd5b015190505f80610583565b601f19821692601d5f52805f20915f5b8581106107af57508360019510610797575b505050811b01601d55610598565b01515f1960f88460031b161c191690555f8080610789565b91926020600181928685015181550194019201610777565b601d5f527f6d4407e7be21f808e6509aa9fa9143369579dd7d760fe20a2c09680fc146134f601f830160051c81019160208410610820575b601f0160051c01905b818110610815575061056a565b5f8155600101610808565b90915081906107ff565b90607f1690610558565b015190505f806104c9565b601f1982169260195f52805f20915f5b8581106108875750836001951061086f575b505050811b016019556104de565b01515f1960f88460031b161c191690555f8080610861565b9192602060018192868501518155019401920161084f565b60195f527f944998273e477b495144fb8794c914197f3ccb46be2900f4698fd0ef743c9695601f830160051c810191602084106108f8575b601f0160051c01905b8181106108ed57506104b0565b5f81556001016108e0565b90915081906108d7565b90607f169061049e565b015190505f80610415565b601f1982169260155f52805f20915f5b85811061095f57508360019510610947575b505050811b0160155561042a565b01515f1960f88460031b161c191690555f8080610939565b91926020600181928685015181550194019201610927565b60155f527f55f448fdea98c4d29eb340757ef0a66cd03dbb9538908a6a81d96026b71ec475601f830160051c810191602084106109d0575b601f0160051c01905b8181106109c557506103fc565b5f81556001016109b8565b90915081906109af565b90607f16906103ea565b015190505f8061035a565b601f1982169260115f52805f20915f5b858110610a3757508360019510610a1f575b505050811b0160115561036f565b01515f1960f88460031b161c191690555f8080610a11565b919260206001819286850151815501940192016109ff565b60115f527f31ecc21a745e3968a04e9570e4425bc18fa8019c68028196b546d1669c200c68601f830160051c81019160208410610aa8575b601f0160051c01905b818110610a9d5750610341565b5f8155600101610a90565b9091508190610a87565b90607f169061032f565b015190505f806102a1565b601f19821692600d5f52805f20915f5b858110610b0f57508360019510610af7575b505050811b01600d556102b6565b01515f1960f88460031b161c191690555f8080610ae9565b91926020600181928685015181550194019201610ad7565b600d5f527fd7b6990105719101dabeb77144f2a3385c8033acd3af97e9423a695e81ad1eb5601f830160051c81019160208410610b80575b601f0160051c01905b818110610b755750610288565b5f8155600101610b68565b9091508190610b5f565b90607f1690610276565b015190505f806101e8565b601f1982169260095f52805f20915f5b858110610be757508360019510610bcf575b505050811b016009556101fd565b01515f1960f88460031b161c191690555f8080610bc1565b91926020600181928685015181550194019201610baf565b60095f527f6e1540171b6c0c960b71a7020d9f60077f6af931a8bbf590da0223dacf75c7af601f830160051c81019160208410610c58575b601f0160051c01905b818110610c4d57506101cf565b5f8155600101610c40565b9091508190610c37565b90607f16906101bd565b015190505f8061012d565b601f1982169260055f52805f20915f5b858110610cbf57508360019510610ca7575b505050811b01600555610142565b01515f1960f88460031b161c191690555f8080610c99565b91926020600181928685015181550194019201610c87565b60055f5260205f20601f830160051c81019160208410610d13575b601f0160051c01905b818110610d085750610114565b5f8155600101610cfb565b9091508190610cf2565b90607f1690610102565b631e4fbdf760e01b5f525f60045260245ffd5b5f80fd5b60405190608082016001600160401b0381118382101761074857604052565b6040519190601f01601f191682016001600160401b038111838210176107485760405256fe60806040526004361015610011575f80fd5b5f3560e01c806318474a1614610b0857806322a5c3e114610ad6578063249d39e914610aba5780632e8e8fc914610a8b57806332ef38f31461099e578063715018a61461093b57806375205d72146107d4578063771747351461079457806379ba50971461070f5780638585b41c146105b4578063864b7311146104515780638da5cb5b1461042a5780639439612c146103ee578063aaf5eb68146103cc578063ca67d23914610291578063e30c397814610269578063f2fde38b146101f65763f6e3ad0d146100df575f80fd5b346101ad5760403660031901126101ad5760043567ffffffffffffffff81116101ad57610110903690600401610d03565b9060243567ffffffffffffffff81116101ad57610131903690600401610d03565b61013c929192610e5a565b8084036101b1575f5b84811061014e57005b610159818386610db6565b359060088210156101ad57610186600192610175838988610db6565b355f52602260205260405f20610d9e565b610191818786610db6565b355f52602360205260405f208260ff1982541617905501610145565b5f80fd5b60405162461bcd60e51b815260206004820152601760248201527f5363616c65723a206c656e677468206d69736d617463680000000000000000006044820152606490fd5b346101ad5760203660031901126101ad576004356001600160a01b038116908190036101ad57610224610e5a565b600180546001600160a01b031916821790555f80546001600160a01b0316907f38d16b8cac22d99fc7c124b9cd0de2d3fa1faef420bfe791d8c362d765e227009080a3005b346101ad575f3660031901126101ad576001546040516001600160a01b039091168152602090f35b346101ad5760803660031901126101ad576024356102b0600435610dc6565b8051821161038757602001908151606435116103425790516102d89180156103395790610d34565b604435116102e257005b60405162461bcd60e51b815260206004820152602960248201527f5363616c65723a20636f6c6c61746572616c20746f6f206c6172676520666f72604482015268206c6576657261676560b81b6064820152608490fd5b50600190610d34565b60405162461bcd60e51b815260206004820152601a60248201527f5363616c65723a206e6f74696f6e616c20746f6f206c617267650000000000006044820152606490fd5b60405162461bcd60e51b815260206004820152601960248201527f5363616c65723a206c6576657261676520746f6f2068696768000000000000006044820152606490fd5b346101ad575f3660031901126101ad576020604051670de0b6b3a76400008152f35b346101ad5760203660031901126101ad576020612710610421610412600435610dc6565b60408482015191015190610d52565b04604051908152f35b346101ad575f3660031901126101ad575f546040516001600160a01b039091168152602090f35b346101ad5760403660031901126101ad5760043560243560088110156101ad57610479610e5a565b815f52602260205261048e8160405f20610d9e565b815f52602360205260405f20600160ff1982541617905560058160021b016104b96040518093610ca5565b6040602083015280545f916104cd82610b6b565b918260408601526001811690815f146105715750600114610512575b847f77e7262a180f81b79fe28249d05d27ce86cad6b56d6bb11819de18dea6ed0ec585850386a2005b5f90815260208120939250905b80821061055657509091508101606001817f77e7262a180f81b79fe28249d05d27ce86cad6b56d6bb11819de18dea6ed0ec56104e9565b9192600181602092546060858801015201910190929161051f565b859450606092507f77e7262a180f81b79fe28249d05d27ce86cad6b56d6bb11819de18dea6ed0ec59593915060ff191682840152151560051b82010191926104e9565b346101ad5760203660031901126101ad576101006040516105d58282610bbf565b813682376040516105e68382610bbf565b82368237604051926105f88185610bbf565b80368537610607600435610dc6565b6040519082820182811067ffffffffffffffff8211176106fb57604052600182526002602083015260056040830152600a606083015260326080830152606460a08301526101f460c08301526103e860e08301525f5b60088110610694576103008661069289610687898961067f6040518097610cdc565b850190610cdc565b610200830190610cdc565bf35b806106a160019285610d79565b51806106ad838a610d79565b52835181116106f55760208401515b6106c6838b610d79565b52835181116106ee576106dd906020850151610d34565b6106e78288610d79565b520161065d565b505f6106dd565b5f6106bc565b634e487b7160e01b5f52604160045260245ffd5b346101ad575f3660031901126101ad57600154336001600160a01b039091160361078157600180546001600160a01b03199081169091555f805433928116831782556001600160a01b0316907f8be0079c531659141344cd1fd0a4f28419497f9722a3daafe3b4186f6b6457e09080a3005b63118cdaa760e01b5f523360045260245ffd5b346101ad5760206107cc6107b76127106107c66107b036610cc6565b9390610dc6565b60408682015191015190610d52565b04610d52565b604051908152f35b346101ad5760803660031901126101ad5760043560088110156101ad576024356044359160643592610804610e5a565b8160021b926107d081116108f65764e8d4a5100082116108b1576107d08511610876577fe22c892c4a0c397bbd067d6940e1886adae00e030405016175f537a949b205c094600485836060976002015584600382015501556108696040518094610ca5565b60208301526040820152a1005b60405162461bcd60e51b81526020600482015260136024820152725363616c65723a20676170206361702032302560681b6044820152606490fd5b60405162461bcd60e51b815260206004820152601860248201527f5363616c65723a206e6f74696f6e616c206361702024314d00000000000000006044820152606490fd5b60405162461bcd60e51b815260206004820152601960248201527f5363616c65723a206c65766572616765206361702032303030000000000000006044820152606490fd5b346101ad575f3660031901126101ad57610953610e5a565b600180546001600160a01b03199081169091555f80549182168155906001600160a01b03167f8be0079c531659141344cd1fd0a4f28419497f9722a3daafe3b4186f6b6457e08280a3005b346101ad576109ac36610cc6565b906040519060a082019082821067ffffffffffffffff8311176106fb57610a71916040525f835260208301935f8552604084015f81526060808601925f84526109fb6080880195838752610dc6565b908015610a7d57610a37612710915b8351808211610a75575b8a52610a296020850191825188528251610d34565b8b5251604084015190610d52565b04845201518352604051958695602087525160208701525160408601525160608501525160808401525160a08084015260c0830190610c81565b0390f35b905080610a14565b50612710610a376001610a0a565b346101ad5760203660031901126101ad576004355f526023602052602060ff60405f2054166040519015158152f35b346101ad575f3660031901126101ad5760206040516127108152f35b346101ad5760203660031901126101ad576004355f526022602052602060ff60405f2054166106926040518092610ca5565b346101ad5760203660031901126101ad5760043560088110156101ad5760021b8060020154610a71600383015492610b47600560048301549201610be1565b90604051948594855260208501526040840152608060608401526080830190610c81565b90600182811c92168015610b99575b6020831014610b8557565b634e487b7160e01b5f52602260045260245ffd5b91607f1691610b7a565b6080810190811067ffffffffffffffff8211176106fb57604052565b90601f8019910116810190811067ffffffffffffffff8211176106fb57604052565b9060405191825f825492610bf484610b6b565b8084529360018116908115610c5f5750600114610c1b575b50610c1992500383610bbf565b565b90505f9291925260205f20905f915b818310610c43575050906020610c19928201015f610c0c565b6020919350806001915483858901015201910190918492610c2a565b905060209250610c1994915060ff191682840152151560051b8201015f610c0c565b805180835260209291819084018484015e5f828201840152601f01601f1916010190565b906008821015610cb25752565b634e487b7160e01b5f52602160045260245ffd5b60409060031901126101ad576004359060243590565b905f905b60088210610ced57505050565b6020806001928551815201930191019091610ce0565b9181601f840112156101ad5782359167ffffffffffffffff83116101ad576020808501948460051b0101116101ad57565b8115610d3e570490565b634e487b7160e01b5f52601260045260245ffd5b81810292918115918404141715610d6557565b634e487b7160e01b5f52601160045260245ffd5b906008811015610d8a5760051b0190565b634e487b7160e01b5f52603260045260245ffd5b906008811015610cb25760ff80198354169116179055565b9190811015610d8a5760051b0190565b606080604051610dd581610ba3565b5f81525f60208201525f60408201520152805f52602360205260ff60405f2054165f14610e53575f52602260205260ff60405f2054165b6008811015610cb25760021b610e4b600560405192610e2a84610ba3565b80600201548452600381015460208501526004810154604085015201610be1565b606082015290565b505f610e0c565b5f546001600160a01b031633036107815756fea2646970667358221220655fac6b9c70446663b2c62d50f0d456b9a2e9d454091cdea320feea0a83332664736f6c634300081a0033",
  "linkReferences": {},
  "deployedLinkReferences": {}
}