{
  "_format": "hh-sol-artifact-1",
  "contractName": "WikiMEVHook",
  "sourceName": "src/WikiMEVHook.sol",
  "abi": [
    {
      "inputs": [
        {
          "internalType": "address",
          "name": "_staking",
          "type": "address"
        },
        {
          "internalType": "address",
          "name": "_vault",
          "type": "address"
        },
        {
          "internalType": "address",
          "name": "_oracle",
          "type": "address"
        },
        {
          "internalType": "address",
          "name": "_usdc",
          "type": "address"
        },
        {
          "internalType": "address",
          "name": "_owner",
          "type": "address"
        }
      ],
      "stateMutability": "nonpayable",
      "type": "constructor"
    },
    {
      "inputs": [
        {
          "internalType": "address",
          "name": "owner",
          "type": "address"
        }
      ],
      "name": "OwnableInvalidOwner",
      "type": "error"
    },
    {
      "inputs": [
        {
          "internalType": "address",
          "name": "account",
          "type": "address"
        }
      ],
      "name": "OwnableUnauthorizedAccount",
      "type": "error"
    },
    {
      "inputs": [],
      "name": "ReentrancyGuardReentrantCall",
      "type": "error"
    },
    {
      "inputs": [
        {
          "internalType": "address",
          "name": "token",
          "type": "address"
        }
      ],
      "name": "SafeERC20FailedOperation",
      "type": "error"
    },
    {
      "anonymous": false,
      "inputs": [
        {
          "indexed": true,
          "internalType": "uint256",
          "name": "oppId",
          "type": "uint256"
        },
        {
          "indexed": true,
          "internalType": "address",
          "name": "keeper",
          "type": "address"
        },
        {
          "indexed": false,
          "internalType": "uint256",
          "name": "profitCaptured",
          "type": "uint256"
        },
        {
          "indexed": false,
          "internalType": "uint256",
          "name": "toStakers",
          "type": "uint256"
        },
        {
          "indexed": false,
          "internalType": "uint256",
          "name": "toInsurance",
          "type": "uint256"
        },
        {
          "indexed": false,
          "internalType": "uint256",
          "name": "toTrigger",
          "type": "uint256"
        },
        {
          "indexed": false,
          "internalType": "uint256",
          "name": "toKeeper",
          "type": "uint256"
        }
      ],
      "name": "BackrunFulfilled",
      "type": "event"
    },
    {
      "anonymous": false,
      "inputs": [
        {
          "indexed": true,
          "internalType": "uint256",
          "name": "oppId",
          "type": "uint256"
        },
        {
          "indexed": true,
          "internalType": "bytes32",
          "name": "marketId",
          "type": "bytes32"
        },
        {
          "indexed": true,
          "internalType": "address",
          "name": "triggerTrader",
          "type": "address"
        },
        {
          "indexed": false,
          "internalType": "uint256",
          "name": "priceAtTrigger",
          "type": "uint256"
        },
        {
          "indexed": false,
          "internalType": "uint256",
          "name": "ammPrice",
          "type": "uint256"
        },
        {
          "indexed": false,
          "internalType": "uint256",
          "name": "triggerSize",
          "type": "uint256"
        },
        {
          "indexed": false,
          "internalType": "uint256",
          "name": "dislocBps",
          "type": "uint256"
        }
      ],
      "name": "BackrunOpportunityCreated",
      "type": "event"
    },
    {
      "anonymous": false,
      "inputs": [
        {
          "indexed": false,
          "internalType": "address",
          "name": "caller",
          "type": "address"
        },
        {
          "indexed": false,
          "internalType": "bool",
          "name": "enabled",
          "type": "bool"
        }
      ],
      "name": "HookCallerSet",
      "type": "event"
    },
    {
      "anonymous": false,
      "inputs": [
        {
          "indexed": true,
          "internalType": "address",
          "name": "lp",
          "type": "address"
        },
        {
          "indexed": false,
          "internalType": "uint256",
          "name": "penalty",
          "type": "uint256"
        }
      ],
      "name": "JITPenaltyCharged",
      "type": "event"
    },
    {
      "anonymous": false,
      "inputs": [
        {
          "indexed": true,
          "internalType": "address",
          "name": "recipient",
          "type": "address"
        },
        {
          "indexed": false,
          "internalType": "uint256",
          "name": "amount",
          "type": "uint256"
        },
        {
          "indexed": false,
          "internalType": "string",
          "name": "role",
          "type": "string"
        }
      ],
      "name": "MEVSharePaid",
      "type": "event"
    },
    {
      "anonymous": false,
      "inputs": [
        {
          "indexed": true,
          "internalType": "address",
          "name": "previousOwner",
          "type": "address"
        },
        {
          "indexed": true,
          "internalType": "address",
          "name": "newOwner",
          "type": "address"
        }
      ],
      "name": "OwnershipTransferStarted",
      "type": "event"
    },
    {
      "anonymous": false,
      "inputs": [
        {
          "indexed": true,
          "internalType": "address",
          "name": "previousOwner",
          "type": "address"
        },
        {
          "indexed": true,
          "internalType": "address",
          "name": "newOwner",
          "type": "address"
        }
      ],
      "name": "OwnershipTransferred",
      "type": "event"
    },
    {
      "anonymous": false,
      "inputs": [
        {
          "indexed": true,
          "internalType": "bytes32",
          "name": "marketId",
          "type": "bytes32"
        },
        {
          "indexed": false,
          "internalType": "address",
          "name": "pool",
          "type": "address"
        }
      ],
      "name": "PoolRegistered",
      "type": "event"
    },
    {
      "anonymous": false,
      "inputs": [
        {
          "indexed": true,
          "internalType": "address",
          "name": "user",
          "type": "address"
        },
        {
          "indexed": false,
          "internalType": "bytes32",
          "name": "marketId",
          "type": "bytes32"
        },
        {
          "indexed": false,
          "internalType": "uint256",
          "name": "refund",
          "type": "uint256"
        }
      ],
      "name": "SandwichRefund",
      "type": "event"
    },
    {
      "inputs": [],
      "name": "ARB_THRESHOLD_BPS",
      "outputs": [
        {
          "internalType": "uint256",
          "name": "",
          "type": "uint256"
        }
      ],
      "stateMutability": "view",
      "type": "function"
    },
    {
      "inputs": [],
      "name": "BACKRUN_THRESHOLD",
      "outputs": [
        {
          "internalType": "uint256",
          "name": "",
          "type": "uint256"
        }
      ],
      "stateMutability": "view",
      "type": "function"
    },
    {
      "inputs": [],
      "name": "BPS",
      "outputs": [
        {
          "internalType": "uint256",
          "name": "",
          "type": "uint256"
        }
      ],
      "stateMutability": "view",
      "type": "function"
    },
    {
      "inputs": [],
      "name": "INSURANCE_SHARE",
      "outputs": [
        {
          "internalType": "uint256",
          "name": "",
          "type": "uint256"
        }
      ],
      "stateMutability": "view",
      "type": "function"
    },
    {
      "inputs": [],
      "name": "JIT_PENALTY_BPS",
      "outputs": [
        {
          "internalType": "uint256",
          "name": "",
          "type": "uint256"
        }
      ],
      "stateMutability": "view",
      "type": "function"
    },
    {
      "inputs": [],
      "name": "KEEPER_SHARE",
      "outputs": [
        {
          "internalType": "uint256",
          "name": "",
          "type": "uint256"
        }
      ],
      "stateMutability": "view",
      "type": "function"
    },
    {
      "inputs": [],
      "name": "MAX_BACKRUN_WINDOW",
      "outputs": [
        {
          "internalType": "uint256",
          "name": "",
          "type": "uint256"
        }
      ],
      "stateMutability": "view",
      "type": "function"
    },
    {
      "inputs": [],
      "name": "STAKERS_SHARE",
      "outputs": [
        {
          "internalType": "uint256",
          "name": "",
          "type": "uint256"
        }
      ],
      "stateMutability": "view",
      "type": "function"
    },
    {
      "inputs": [],
      "name": "TRIGGER_SHARE",
      "outputs": [
        {
          "internalType": "uint256",
          "name": "",
          "type": "uint256"
        }
      ],
      "stateMutability": "view",
      "type": "function"
    },
    {
      "inputs": [],
      "name": "USDC",
      "outputs": [
        {
          "internalType": "contract IERC20",
          "name": "",
          "type": "address"
        }
      ],
      "stateMutability": "view",
      "type": "function"
    },
    {
      "inputs": [],
      "name": "acceptOwnership",
      "outputs": [],
      "stateMutability": "nonpayable",
      "type": "function"
    },
    {
      "inputs": [
        {
          "internalType": "bytes32",
          "name": "marketId",
          "type": "bytes32"
        },
        {
          "internalType": "address",
          "name": "trader",
          "type": "address"
        },
        {
          "internalType": "uint256",
          "name": "notional",
          "type": "uint256"
        },
        {
          "internalType": "uint256",
          "name": "fillPrice",
          "type": "uint256"
        },
        {
          "internalType": "bool",
          "name": "isLong",
          "type": "bool"
        }
      ],
      "name": "afterTrade",
      "outputs": [],
      "stateMutability": "nonpayable",
      "type": "function"
    },
    {
      "inputs": [
        {
          "internalType": "address",
          "name": "user",
          "type": "address"
        },
        {
          "internalType": "bytes32",
          "name": "marketId",
          "type": "bytes32"
        },
        {
          "internalType": "bool",
          "name": "isLong",
          "type": "bool"
        },
        {
          "internalType": "uint256",
          "name": "fillPrice",
          "type": "uint256"
        }
      ],
      "name": "checkAndCompensate",
      "outputs": [],
      "stateMutability": "nonpayable",
      "type": "function"
    },
    {
      "inputs": [
        {
          "internalType": "bytes32",
          "name": "marketId",
          "type": "bytes32"
        },
        {
          "internalType": "uint256",
          "name": "price",
          "type": "uint256"
        }
      ],
      "name": "commitPrice",
      "outputs": [],
      "stateMutability": "nonpayable",
      "type": "function"
    },
    {
      "inputs": [
        {
          "internalType": "address",
          "name": "",
          "type": "address"
        }
      ],
      "name": "committedMarket",
      "outputs": [
        {
          "internalType": "bytes32",
          "name": "",
          "type": "bytes32"
        }
      ],
      "stateMutability": "view",
      "type": "function"
    },
    {
      "inputs": [
        {
          "internalType": "address",
          "name": "",
          "type": "address"
        }
      ],
      "name": "committedPrice",
      "outputs": [
        {
          "internalType": "uint256",
          "name": "",
          "type": "uint256"
        }
      ],
      "stateMutability": "view",
      "type": "function"
    },
    {
      "inputs": [
        {
          "internalType": "bytes32",
          "name": "marketId",
          "type": "bytes32"
        }
      ],
      "name": "getOpenOpportunity",
      "outputs": [
        {
          "internalType": "bool",
          "name": "exists",
          "type": "bool"
        },
        {
          "internalType": "uint256",
          "name": "oppId",
          "type": "uint256"
        },
        {
          "internalType": "uint256",
          "name": "dislocBps",
          "type": "uint256"
        },
        {
          "internalType": "uint256",
          "name": "expiresAtBlock",
          "type": "uint256"
        }
      ],
      "stateMutability": "view",
      "type": "function"
    },
    {
      "inputs": [
        {
          "internalType": "uint256",
          "name": "id",
          "type": "uint256"
        }
      ],
      "name": "getOpportunity",
      "outputs": [
        {
          "components": [
            {
              "internalType": "bytes32",
              "name": "marketId",
              "type": "bytes32"
            },
            {
              "internalType": "address",
              "name": "triggerTrader",
              "type": "address"
            },
            {
              "internalType": "uint256",
              "name": "triggerBlock",
              "type": "uint256"
            },
            {
              "internalType": "uint256",
              "name": "priceAtTrigger",
              "type": "uint256"
            },
            {
              "internalType": "uint256",
              "name": "ammPriceAtTrigger",
              "type": "uint256"
            },
            {
              "internalType": "uint256",
              "name": "triggerSize",
              "type": "uint256"
            },
            {
              "internalType": "bool",
              "name": "fulfilled",
              "type": "bool"
            },
            {
              "internalType": "address",
              "name": "fulfiller",
              "type": "address"
            },
            {
              "internalType": "uint256",
              "name": "profitCaptured",
              "type": "uint256"
            },
            {
              "internalType": "uint256",
              "name": "createdAt",
              "type": "uint256"
            }
          ],
          "internalType": "struct WikiMEVHook.BackrunOpportunity",
          "name": "",
          "type": "tuple"
        }
      ],
      "stateMutability": "view",
      "type": "function"
    },
    {
      "inputs": [
        {
          "internalType": "bytes32",
          "name": "",
          "type": "bytes32"
        }
      ],
      "name": "hasOpenOpportunity",
      "outputs": [
        {
          "internalType": "bool",
          "name": "",
          "type": "bool"
        }
      ],
      "stateMutability": "view",
      "type": "function"
    },
    {
      "inputs": [
        {
          "internalType": "address",
          "name": "",
          "type": "address"
        }
      ],
      "name": "hookCallers",
      "outputs": [
        {
          "internalType": "bool",
          "name": "",
          "type": "bool"
        }
      ],
      "stateMutability": "view",
      "type": "function"
    },
    {
      "inputs": [
        {
          "internalType": "uint256",
          "name": "",
          "type": "uint256"
        }
      ],
      "name": "jitEvents",
      "outputs": [
        {
          "internalType": "address",
          "name": "lp",
          "type": "address"
        },
        {
          "internalType": "uint256",
          "name": "blockNumber",
          "type": "uint256"
        },
        {
          "internalType": "uint256",
          "name": "amount",
          "type": "uint256"
        },
        {
          "internalType": "uint256",
          "name": "penalty",
          "type": "uint256"
        },
        {
          "internalType": "bool",
          "name": "penaltyApplied",
          "type": "bool"
        }
      ],
      "stateMutability": "view",
      "type": "function"
    },
    {
      "inputs": [
        {
          "internalType": "address",
          "name": "",
          "type": "address"
        }
      ],
      "name": "keepers",
      "outputs": [
        {
          "internalType": "bool",
          "name": "",
          "type": "bool"
        }
      ],
      "stateMutability": "view",
      "type": "function"
    },
    {
      "inputs": [
        {
          "internalType": "bytes32",
          "name": "",
          "type": "bytes32"
        }
      ],
      "name": "latestOpportunity",
      "outputs": [
        {
          "internalType": "uint256",
          "name": "",
          "type": "uint256"
        }
      ],
      "stateMutability": "view",
      "type": "function"
    },
    {
      "inputs": [
        {
          "internalType": "bytes32",
          "name": "",
          "type": "bytes32"
        }
      ],
      "name": "marketPools",
      "outputs": [
        {
          "internalType": "address",
          "name": "",
          "type": "address"
        }
      ],
      "stateMutability": "view",
      "type": "function"
    },
    {
      "inputs": [
        {
          "internalType": "address",
          "name": "lp",
          "type": "address"
        },
        {
          "internalType": "uint256",
          "name": "amount",
          "type": "uint256"
        },
        {
          "internalType": "uint256",
          "name": "tradeBlock",
          "type": "uint256"
        }
      ],
      "name": "onLPDeposit",
      "outputs": [],
      "stateMutability": "nonpayable",
      "type": "function"
    },
    {
      "inputs": [
        {
          "internalType": "uint256",
          "name": "",
          "type": "uint256"
        }
      ],
      "name": "opportunities",
      "outputs": [
        {
          "internalType": "bytes32",
          "name": "marketId",
          "type": "bytes32"
        },
        {
          "internalType": "address",
          "name": "triggerTrader",
          "type": "address"
        },
        {
          "internalType": "uint256",
          "name": "triggerBlock",
          "type": "uint256"
        },
        {
          "internalType": "uint256",
          "name": "priceAtTrigger",
          "type": "uint256"
        },
        {
          "internalType": "uint256",
          "name": "ammPriceAtTrigger",
          "type": "uint256"
        },
        {
          "internalType": "uint256",
          "name": "triggerSize",
          "type": "uint256"
        },
        {
          "internalType": "bool",
          "name": "fulfilled",
          "type": "bool"
        },
        {
          "internalType": "address",
          "name": "fulfiller",
          "type": "address"
        },
        {
          "internalType": "uint256",
          "name": "profitCaptured",
          "type": "uint256"
        },
        {
          "internalType": "uint256",
          "name": "createdAt",
          "type": "uint256"
        }
      ],
      "stateMutability": "view",
      "type": "function"
    },
    {
      "inputs": [],
      "name": "opportunityCount",
      "outputs": [
        {
          "internalType": "uint256",
          "name": "",
          "type": "uint256"
        }
      ],
      "stateMutability": "view",
      "type": "function"
    },
    {
      "inputs": [
        {
          "internalType": "uint256",
          "name": "",
          "type": "uint256"
        }
      ],
      "name": "opportunityFulfilled",
      "outputs": [
        {
          "internalType": "bool",
          "name": "",
          "type": "bool"
        }
      ],
      "stateMutability": "view",
      "type": "function"
    },
    {
      "inputs": [],
      "name": "oracle",
      "outputs": [
        {
          "internalType": "contract IWikiOracle",
          "name": "",
          "type": "address"
        }
      ],
      "stateMutability": "view",
      "type": "function"
    },
    {
      "inputs": [],
      "name": "owner",
      "outputs": [
        {
          "internalType": "address",
          "name": "",
          "type": "address"
        }
      ],
      "stateMutability": "view",
      "type": "function"
    },
    {
      "inputs": [],
      "name": "pendingOwner",
      "outputs": [
        {
          "internalType": "address",
          "name": "",
          "type": "address"
        }
      ],
      "stateMutability": "view",
      "type": "function"
    },
    {
      "inputs": [
        {
          "internalType": "bytes32",
          "name": "marketId",
          "type": "bytes32"
        },
        {
          "internalType": "address",
          "name": "pool",
          "type": "address"
        }
      ],
      "name": "registerPool",
      "outputs": [],
      "stateMutability": "nonpayable",
      "type": "function"
    },
    {
      "inputs": [],
      "name": "renounceOwnership",
      "outputs": [],
      "stateMutability": "nonpayable",
      "type": "function"
    },
    {
      "inputs": [],
      "name": "revenueStats",
      "outputs": [
        {
          "internalType": "uint256",
          "name": "captured",
          "type": "uint256"
        },
        {
          "internalType": "uint256",
          "name": "toStakers",
          "type": "uint256"
        },
        {
          "internalType": "uint256",
          "name": "toInsurance",
          "type": "uint256"
        },
        {
          "internalType": "uint256",
          "name": "toTriggers",
          "type": "uint256"
        },
        {
          "internalType": "uint256",
          "name": "toKeepers",
          "type": "uint256"
        }
      ],
      "stateMutability": "view",
      "type": "function"
    },
    {
      "inputs": [
        {
          "internalType": "address",
          "name": "_staking",
          "type": "address"
        },
        {
          "internalType": "address",
          "name": "_vault",
          "type": "address"
        },
        {
          "internalType": "address",
          "name": "_oracle",
          "type": "address"
        }
      ],
      "name": "setContracts",
      "outputs": [],
      "stateMutability": "nonpayable",
      "type": "function"
    },
    {
      "inputs": [
        {
          "internalType": "address",
          "name": "caller",
          "type": "address"
        },
        {
          "internalType": "bool",
          "name": "enabled",
          "type": "bool"
        }
      ],
      "name": "setHookCaller",
      "outputs": [],
      "stateMutability": "nonpayable",
      "type": "function"
    },
    {
      "inputs": [
        {
          "internalType": "address",
          "name": "keeper",
          "type": "address"
        },
        {
          "internalType": "bool",
          "name": "enabled",
          "type": "bool"
        }
      ],
      "name": "setKeeper",
      "outputs": [],
      "stateMutability": "nonpayable",
      "type": "function"
    },
    {
      "inputs": [
        {
          "internalType": "address",
          "name": "_tl",
          "type": "address"
        }
      ],
      "name": "setTimelock",
      "outputs": [],
      "stateMutability": "nonpayable",
      "type": "function"
    },
    {
      "inputs": [],
      "name": "staking",
      "outputs": [
        {
          "internalType": "contract IWikiStaking",
          "name": "",
          "type": "address"
        }
      ],
      "stateMutability": "view",
      "type": "function"
    },
    {
      "inputs": [
        {
          "internalType": "uint256",
          "name": "oppId",
          "type": "uint256"
        },
        {
          "internalType": "uint256",
          "name": "profitUsdc",
          "type": "uint256"
        }
      ],
      "name": "submitBackrun",
      "outputs": [],
      "stateMutability": "nonpayable",
      "type": "function"
    },
    {
      "inputs": [],
      "name": "timelock",
      "outputs": [
        {
          "internalType": "address",
          "name": "",
          "type": "address"
        }
      ],
      "stateMutability": "view",
      "type": "function"
    },
    {
      "inputs": [],
      "name": "totalMEVCaptured",
      "outputs": [
        {
          "internalType": "uint256",
          "name": "",
          "type": "uint256"
        }
      ],
      "stateMutability": "view",
      "type": "function"
    },
    {
      "inputs": [],
      "name": "totalPaidToInsurance",
      "outputs": [
        {
          "internalType": "uint256",
          "name": "",
          "type": "uint256"
        }
      ],
      "stateMutability": "view",
      "type": "function"
    },
    {
      "inputs": [],
      "name": "totalPaidToKeepers",
      "outputs": [
        {
          "internalType": "uint256",
          "name": "",
          "type": "uint256"
        }
      ],
      "stateMutability": "view",
      "type": "function"
    },
    {
      "inputs": [],
      "name": "totalPaidToStakers",
      "outputs": [
        {
          "internalType": "uint256",
          "name": "",
          "type": "uint256"
        }
      ],
      "stateMutability": "view",
      "type": "function"
    },
    {
      "inputs": [],
      "name": "totalPaidToTriggers",
      "outputs": [
        {
          "internalType": "uint256",
          "name": "",
          "type": "uint256"
        }
      ],
      "stateMutability": "view",
      "type": "function"
    },
    {
      "inputs": [
        {
          "internalType": "address",
          "name": "newOwner",
          "type": "address"
        }
      ],
      "name": "transferOwnership",
      "outputs": [],
      "stateMutability": "nonpayable",
      "type": "function"
    },
    {
      "inputs": [],
      "name": "vault",
      "outputs": [
        {
          "internalType": "contract IWikiVault",
          "name": "",
          "type": "address"
        }
      ],
      "stateMutability": "view",
      "type": "function"
    }
  ],
  "bytecode": "0x60a03461025957601f61215b38819003918201601f19168301916001600160401b0383118484101761025d5780849260a0946040528339810103126102595761004781610271565b61005360208301610271565b61005f60408401610271565b9061006c60608501610271565b936001600160a01b039061008290608001610271565b1692831561024657600180546001600160a01b03199081169091555f80549182168617815560405195916001600160a01b0316907f8be0079c531659141344cd1fd0a4f28419497f9722a3daafe3b4186f6b6457e09080a360017f9b779b17422d0df92223018b32b4d1fa46e071723d6817e2486d003becc55f00556001600160a01b031692831561020457506001600160a01b03169081156101cb576001600160a01b031691821561019157600380546001600160a01b031990811692909217905560048054821692909217909155600580549091169190911790556001600160a01b0316608052604051611ed59081610286823960805181818161099b01528181610d5a0152611a2e0152f35b60405162461bcd60e51b815260206004820152601260248201527157696b693a207a65726f205f6f7261636c6560701b6044820152606490fd5b60405162461bcd60e51b815260206004820152601160248201527015da5ada4e881e995c9bc817dd985d5b1d607a1b6044820152606490fd5b62461bcd60e51b815260206004820152601360248201527f57696b693a207a65726f205f7374616b696e67000000000000000000000000006044820152606490fd5b631e4fbdf760e01b5f525f60045260245ffd5b5f80fd5b634e487b7160e01b5f52604160045260245ffd5b51906001600160a01b03821682036102595756fe60806040526004361015610011575f80fd5b5f803560e01c8063036a7ca7146114b75780630ed6ef051461147a578063248902451461145d578063249d39e91461144157806338f234831461142257806339df8a51146113a95780633bbd64bc1461136c5780634170afc214610c5f57806341b613bd14611328578063433d89c014610c6457806343de39f614610c5f5780634cf088d914610c3657806356b3070314610c19578063608d5dc714610be357806363b6ebf514610bc657806365c8283214610ba8578063687ffb4314610b8a578063715018a614610b2557806379ba509714610aa05780637dc0d1d014610a775780637df4f56b14610a3e5780637f9ee38614610a2257806385250434146109ca57806389a30271146109855780638a8f048b146109685780638da5cb5b146109415780638f5c90a31461090c5780639ce39059146107ba5780639dca2043146107815780639f62fca514610752578063acd6c98f146106a5578063aefcb44e14610689578063b258c5ff1461065f578063b3066d49146105cf578063b45f5a1714610562578063b7b146d31461052f578063ba49057d146104f6578063bdacb30314610474578063d148ff5b14610445578063d1b9e853146103f0578063d33219b4146103c7578063e30c39781461039e578063e50181f41461031c578063e813d6fc146102fe578063f2fde38b14610291578063f7cff87314610273578063fbfa77cf1461024a5763ff65172b1461022a575f80fd5b346102475780600319360112610247576020601154604051908152f35b80fd5b50346102475780600319360112610247576004546040516001600160a01b039091168152602090f35b50346102475780600319360112610247576020600654604051908152f35b5034610247576020366003190112610247576102ab6114e2565b6102b3611bff565b600180546001600160a01b0319166001600160a01b0392831690811790915582549091167f38d16b8cac22d99fc7c124b9cd0de2d3fa1faef420bfe791d8c362d765e227008380a380f35b50346102475780600319360112610247576020601254604051908152f35b5034610247576040366003190112610247577f8142ef93d4fedfd2b131aa05f60168df489ef96582b57e0f80dd649ddf10008a60406103596114e2565b610361611539565b9061036a611bff565b6001600160a01b0316808552600f602052828520805460ff191660ff8415151617905590825191825215156020820152a180f35b50346102475780600319360112610247576001546040516001600160a01b039091168152602090f35b50346102475780600319360112610247576002546040516001600160a01b039091168152602090f35b50346102475760403660031901126102475761044261040d6114e2565b610415611539565b9061041e611bff565b60018060a01b03168352600b602052604083209060ff801983541691151516179055565b80f35b50346102475760203660031901126102475760ff60406020926004358152600c84522054166040519015158152f35b50346102475760203660031901126102475761048e6114e2565b610496611bff565b6001600160a01b031680156104bb576001600160601b0360a01b600254161760025580f35b60405162461bcd60e51b815260206004820152601360248201527257696b693a207a65726f2074696d656c6f636b60681b6044820152606490fd5b5034610247576020366003190112610247576020906040906001600160a01b0361051e6114e2565b168152600e83522054604051908152f35b5034610247576020366003190112610247576020906004358152600a8252604060018060a01b0391205416604051908152f35b503461024757602036600319011261024757600435906007548210156102475760a061058d83611578565b50600180831b0381541690600181015490600281015460ff60046003840154930154169260405194855260208501526040840152606083015215156080820152f35b5034610247576060366003190112610247576105e96114e2565b6105f16114f8565b6044356001600160a01b038116929083900361065b5761060f611bff565b60018060a01b03166001600160601b0360a01b600354161760035560018060a01b03166001600160601b0360a01b60045416176004556001600160601b0360a01b600554161760055580f35b8380fd5b50346102475760203660031901126102475760406020916004358152600883522054604051908152f35b5034610247578060031936011261024757602060405160148152f35b50346102475760203660031901126102475760043590600654821015610247576101406106d183611548565b5080549060018060a01b03600182015416906002810154600382015460048301546005840154916006850154936008600787015496015496604051988952602089015260408801526060870152608086015260a085015260ff8116151560c085015260018060a01b039060081c1660e0840152610100830152610120820152f35b50346102475760203660031901126102475760ff60406020926004358152600984522054166040519015158152f35b50346102475760203660031901126102475760806107a0600435611b9d565b916040519315158452602084015260408301526060820152f35b5034610247576020366003190112610247576101206040516107db816115f5565b8281528260208201528260408201528260608201528260808201528260a08201528260c08201528260e082015282610100820152015261014061081f600435611548565b5060405161082c816115f5565b81549182825260018060a01b03600182015416602083019081526002820154906040840191825260038301546060850190815260048401546080860190815260058501549160a0870192835260068601549460c088019460ff87161515865260e089019660018060a01b039060081c168752610120600860078a0154996101008c019a8b5201549901988952604051998a5260018060a01b0390511660208a01525160408901525160608801525160808701525160a086015251151560c085015260018060a01b0390511660e08401525161010083015251610120820152f35b503461024757604036600319011261024757338152600d6020526024356040822055338152600e602052600435604082205580f35b5034610247578060031936011261024757546040516001600160a01b039091168152602090f35b503461024757806003193601126102475760206040516117708152f35b50346102475780600319360112610247576040517f00000000000000000000000000000000000000000000000000000000000000006001600160a01b03168152602090f35b5034610247576080366003190112610247576109e46114e2565b604435908115158203610a1e57610a0a916109fd611c25565b606435916024359061196d565b60015f80516020611e808339815191525580f35b8280fd5b5034610247578060031936011261024757602060405160028152f35b5034610247576020366003190112610247576020906040906001600160a01b03610a666114e2565b168152600d83522054604051908152f35b50346102475780600319360112610247576005546040516001600160a01b039091168152602090f35b5034610247578060031936011261024757600154336001600160a01b0390911603610b1257600180546001600160a01b0319908116909155815433918116821783556001600160a01b03167f8be0079c531659141344cd1fd0a4f28419497f9722a3daafe3b4186f6b6457e08380a380f35b63118cdaa760e01b815233600452602490fd5b5034610247578060031936011261024757610b3e611bff565b600180546001600160a01b03199081169091558154908116825581906001600160a01b03167f8be0079c531659141344cd1fd0a4f28419497f9722a3daafe3b4186f6b6457e08280a380f35b50346102475780600319360112610247576020601054604051908152f35b50346102475780600319360112610247576020601454604051908152f35b5034610247578060031936011261024757602060405161012c8152f35b50346102475760a036600319011261024757610442610c006114f8565b610c0861152a565b50606435906044359060043561178f565b503461024757806003193601126102475760206040516107d08152f35b50346102475780600319360112610247576003546040516001600160a01b039091168152602090f35b61150e565b503461111c57604036600319011261111c57602435610c81611c25565b335f52600b60205260ff60405f205416156112f157610ca1600435611548565b50600681019081549060ff82166112b35760028101546002810180911161116257431161127857600181018054909290600882901c6001600160a01b0390811691161461123f57841561120957600582015460648102908082046064149015171561116257612710900485116111b5576001600160a81b0319163360081b610100600160a81b0316176001178355836007820155545f52600960205260405f2060ff198154169055610d5583601054611782565b6010557f0000000000000000000000000000000000000000000000000000000000000000926040516323b872dd60e01b5f5233600452306024528160445260205f60648180895af19060015f5114821615611194575b6040525f6060521561117657611770810281810461177003611162576127109004916107d082028281046107d003611162576127109004946103e883028381046103e80361116257612710900490610e1082610e0b89610e0b8989611960565b611960565b92610e1d86601154611782565b601155610e2c88601254611782565b601255610e3b83601354611782565b601355610e4a84601454611782565b60145585611081575b87610ffa575b82151580610fe7575b610f78575b508280610f02575b50506006545f19810195908611610eee5754604080519485526020850195909552938301959095526060820194909452608081019390935260081c6001600160a01b0316917fd6bc4cf57bef0d8730b6f5d5dc406d811e82880f3e2fa836907c5950da0dba9e9060a090a360015f80516020611e808339815191525580f35b634e487b7160e01b88526011600452602488fd5b8654610f1d9260089190911c6001600160a01b031690611e07565b60018060a01b03855460081c167f2e0e60244729654a9348fc72ac83b23d0d704ab1629177c36cbe662bfefc4540608060405185815260406020820152600660408201526535b2b2b832b960d11b6060820152a25f82610e6f565b8054610f8f9084906001600160a01b031684611e07565b60018060a01b039054167f2e0e60244729654a9348fc72ac83b23d0d704ab1629177c36cbe662bfefc454060806040518581526040602082015260076040820152663a3934b3b3b2b960c91b6060820152a25f610e67565b5080546001600160a01b03161515610e62565b6004805460405163a9059cbb60e01b81526001600160a01b039091169181019190915260248101899052602081806044810103818d6001600160a01b0388165af1611046575b50610e59565b6020813d602011611079575b8161105f60209383611626565b810103126110755761107090611c5d565b611040565b8980fd5b3d9150611052565b60035460405163095ea7b360e01b81526001600160a01b03909116600482015260248101879052602081806044810103815f6001600160a01b0388165af1801561115757611120575b506003546001600160a01b0316803b1561111c575f8091602460405180948193636029bf9f60e01b83528c60048401525af1611107575b50610e53565b6111149199505f90611626565b5f975f611101565b5f80fd5b6020813d60201161114f575b8161113960209383611626565b8101031261111c5761114a90611c5d565b6110ca565b3d915061112c565b6040513d5f823e3d90fd5b634e487b7160e01b5f52601160045260245ffd5b635274afe760e01b5f9081526001600160a01b038516600452602490fd5b9060018115166111ac57853b15153d15161690610dab565b503d5f823e3d90fd5b60405162461bcd60e51b815260206004820152602660248201527f4d45563a2070726f66697420746f6f206869676820286f7261636c65206d69736044820152656d617463682960d01b6064820152608490fd5b60405162461bcd60e51b815260206004820152600e60248201526d1351558e881b9bc81c1c9bd99a5d60921b6044820152606490fd5b60405162461bcd60e51b815260206004820152601160248201527026a2ab1d1039b2b63316b130b1b5b93ab760791b6044820152606490fd5b60405162461bcd60e51b81526020600482015260136024820152721351558e881dda5b991bddc8195e1c1a5c9959606a1b6044820152606490fd5b60405162461bcd60e51b81526020600482015260166024820152751351558e88185b1c9958591e48199d5b199a5b1b195960521b6044820152606490fd5b60405162461bcd60e51b815260206004820152600f60248201526e26a2ab1d103737ba1035b2b2b832b960891b6044820152606490fd5b3461111c575f36600319011261111c57601054601154601254601354601454604080519586526020860194909452928401919091526060830152608082015260a090f35b3461111c57602036600319011261111c576001600160a01b0361138d6114e2565b165f52600b602052602060ff60405f2054166040519015158152f35b3461111c57604036600319011261111c576004357f946e67eaf397721464cb56b8b0ac3a2314899a244844b0bcd6d229daecde172160206113e86114f8565b6113f0611bff565b5f848152600a835260409081902080546001600160a01b0319166001600160a01b0393909316928317905551908152a2005b3461111c575f36600319011261111c576020604051640ba43b74008152f35b3461111c575f36600319011261111c5760206040516127108152f35b3461111c575f36600319011261111c576020601354604051908152f35b3461111c57602036600319011261111c576001600160a01b0361149b6114e2565b165f52600f602052602060ff60405f2054166040519015158152f35b3461111c57606036600319011261111c576114e06114d36114e2565b6044359060243590611648565b005b600435906001600160a01b038216820361111c57565b602435906001600160a01b038216820361111c57565b3461111c575f36600319011261111c5760206040516103e88152f35b60843590811515820361111c57565b60243590811515820361111c57565b6006548110156115645760065f52600960205f20910201905f90565b634e487b7160e01b5f52603260045260245ffd5b6007548110156115645760075f52600560205f20910201905f90565b1561159b57565b60405162461bcd60e51b815260206004820152601460248201527326a2ab1d103737ba103437b7b59031b0b63632b960611b6044820152606490fd5b81156115e1570490565b634e487b7160e01b5f52601260045260245ffd5b610140810190811067ffffffffffffffff82111761161257604052565b634e487b7160e01b5f52604160045260245ffd5b90601f8019910116810190811067ffffffffffffffff82111761161257604052565b9091335f52600f60205261166260ff60405f205416611594565b430361177e5761012c820282810461012c1483151715611162576127109004916040519160a0830183811067ffffffffffffffff8211176116125760405260018060a01b03169283835260208301438152604084019283526060840193828552608081019060018252600754600160401b811015611612578060016116ea9201600755611578565b92909261176b57905182546001600160a01b039091166001600160a01b031990911617825591516001820155925160028401559251600383015591516004909101805460ff191691151560ff169190911790557f1777e5b0f108b28dda7366be1ffeca82474df8e18cb0aa6eebc62d2cc9aaf4b690602090604051908152a2565b634e487b7160e01b5f525f60045260245ffd5b5050565b9190820180921161116257565b919290335f52600f6020526117aa60ff60405f205416611594565b640ba43b7400841061195a576117c08284611c79565b936117cb8584611d9a565b92601484106119525760065493604051926117e5846115f5565b868452602084019460018060a01b0316978886526040850194438652606081019685885288608083019284845260a081019086825260c081015f815260e082015f81526101008301935f8552600160401b6101208501964288521015611612576118558f60018101600655611548565b98909861176b577fa800c2db8d0fba55db1abdf0124027ad960ba07d5fbb15f64627e0fadac375fb9e60809e60089961190b97518c5560018060a01b0390511660018c019060018060a01b03166001600160601b0360a01b8254161790555160028b01555160038a01555160048901555160058801556118e86006880192511515839060ff801983541691151516179055565b518154610100600160a81b03191660089190911b610100600160a81b0316179055565b51600784015551910155875f5260086020528660405f2055875f52600960205260405f20600160ff19825416179055604051938452602084015260408301526060820152a4565b505050505050565b50505050565b9190820391821161116257565b91335f52600f60205261198660ff60405f205416611594565b60018060a01b03831693845f52600e6020528260405f205403611af457845f52600d60205260405f205491821561195257855f52600d6020525f6040812055855f52600e6020525f60408120555f80918080611b94575b15611b3757505050816119ef91611960565b90612710820291808304612710149015171561116257611a0e916115d7565b90600582115b1561195a576040516370a0823160e01b81523060048201527f0000000000000000000000000000000000000000000000000000000000000000926020826024816001600160a01b0388165afa918215611157575f92611b03575b508115611952576103e88102908082046103e8148115171561116257633b9aca000290808204620f4240149015171561116257612710900460011c90808211611afb575b508015611af457611ae7817f2edfe9deff1cd92ae8819c9d2aafadf3e40199c2fc1ef7f1e02253935f1b729c95604095611e07565b82519182526020820152a2565b5050505050565b90505f611ab2565b9091506020813d602011611b2f575b81611b1f60209383611626565b8101031261111c5751905f611a6e565b3d9150611b12565b949391949290921580611b8b575b611b51575b5050611a14565b9080939450611b609250611960565b90612710820291808304612710149015171561116257611b7f916115d7565b90600582115f80611b4a565b50818110611b45565b508484116119dd565b90815f52600960205260ff60405f205416918215611bf3575f52600860205260405f205490611bcb82611548565b50906002611be26003840154600485015490611d9a565b920154600281018091116111625790565b505f9150819081908190565b5f546001600160a01b03163303611c1257565b63118cdaa760e01b5f523360045260245ffd5b60025f80516020611e808339815191525414611c4e5760025f80516020611e8083398151915255565b633ee5aeb560e01b5f5260045ffd5b5190811515820361111c57565b519061ffff8216820361111c57565b5f908152600a60205260409020546001600160a01b03168015611d965760e060049160405192838092633850c7bd851b82525afa5f9181611d00575b50611cbe575090565b6001600160a01b0316808002915080820481149015171561116257670de0b6b3a7640000810290808204670de0b6b3a764000014901517156111625760c01c90565b90915060e0813d60e011611d8e575b81611d1c60e09383611626565b8101031261111c578051906001600160a01b038216820361111c5760208101518060020b0361111c57611d5160408201611c6a565b50611d5e60608201611c6a565b50611d6b60808201611c6a565b5060a081015160ff81160361111c5760c0611d869101611c5d565b50905f611cb5565b3d9150611d0f565b5090565b9081158015611dff575b611df95780611dc791831192835f14611df25780935b15611de957508092611960565b90612710820291808304612710149015171561116257611de6916115d7565b90565b90508092611960565b8193611dba565b50505f90565b508015611da4565b916040519163a9059cbb60e01b5f5260018060a01b031660045260245260205f60448180865af19060015f5114821615611e67575b60405215611e475750565b635274afe760e01b5f9081526001600160a01b0391909116600452602490fd5b9060018115166111ac57823b15153d15161690611e3c56fe9b779b17422d0df92223018b32b4d1fa46e071723d6817e2486d003becc55f00a2646970667358221220e9ac457e1a3006c3717b149f06e7ea9983802ede9bdecd1bc104b80a63726dc764736f6c634300081a0033",
  "linkReferences": {},
  "deployedLinkReferences": {}
}