{
  "_format": "hh-sol-artifact-1",
  "contractName": "WikiTradeHistory",
  "sourceName": "src/WikiTradeHistory.sol",
  "abi": [
    {
      "inputs": [
        {
          "internalType": "address",
          "name": "_owner",
          "type": "address"
        }
      ],
      "stateMutability": "nonpayable",
      "type": "constructor"
    },
    {
      "inputs": [
        {
          "internalType": "address",
          "name": "owner",
          "type": "address"
        }
      ],
      "name": "OwnableInvalidOwner",
      "type": "error"
    },
    {
      "inputs": [
        {
          "internalType": "address",
          "name": "account",
          "type": "address"
        }
      ],
      "name": "OwnableUnauthorizedAccount",
      "type": "error"
    },
    {
      "anonymous": false,
      "inputs": [
        {
          "indexed": true,
          "internalType": "address",
          "name": "previousOwner",
          "type": "address"
        },
        {
          "indexed": true,
          "internalType": "address",
          "name": "newOwner",
          "type": "address"
        }
      ],
      "name": "OwnershipTransferStarted",
      "type": "event"
    },
    {
      "anonymous": false,
      "inputs": [
        {
          "indexed": true,
          "internalType": "address",
          "name": "previousOwner",
          "type": "address"
        },
        {
          "indexed": true,
          "internalType": "address",
          "name": "newOwner",
          "type": "address"
        }
      ],
      "name": "OwnershipTransferred",
      "type": "event"
    },
    {
      "anonymous": false,
      "inputs": [
        {
          "indexed": true,
          "internalType": "address",
          "name": "trader",
          "type": "address"
        },
        {
          "indexed": false,
          "internalType": "uint256",
          "name": "tradeId",
          "type": "uint256"
        },
        {
          "indexed": false,
          "internalType": "int256",
          "name": "pnl",
          "type": "int256"
        }
      ],
      "name": "TradeRecorded",
      "type": "event"
    },
    {
      "inputs": [],
      "name": "MAX_HISTORY",
      "outputs": [
        {
          "internalType": "uint256",
          "name": "",
          "type": "uint256"
        }
      ],
      "stateMutability": "view",
      "type": "function"
    },
    {
      "inputs": [],
      "name": "acceptOwnership",
      "outputs": [],
      "stateMutability": "nonpayable",
      "type": "function"
    },
    {
      "inputs": [
        {
          "internalType": "address",
          "name": "trader",
          "type": "address"
        }
      ],
      "name": "getTaxSummary",
      "outputs": [
        {
          "components": [
            {
              "internalType": "int256",
              "name": "totalPnl",
              "type": "int256"
            },
            {
              "internalType": "uint256",
              "name": "totalFees",
              "type": "uint256"
            },
            {
              "internalType": "uint256",
              "name": "totalFunding",
              "type": "uint256"
            },
            {
              "internalType": "uint256",
              "name": "totalTrades",
              "type": "uint256"
            },
            {
              "internalType": "uint256",
              "name": "winCount",
              "type": "uint256"
            },
            {
              "internalType": "uint256",
              "name": "lossCount",
              "type": "uint256"
            },
            {
              "internalType": "int256",
              "name": "shortTermGains",
              "type": "int256"
            },
            {
              "internalType": "int256",
              "name": "longTermGains",
              "type": "int256"
            }
          ],
          "internalType": "struct WikiTradeHistory.TaxSummary",
          "name": "",
          "type": "tuple"
        }
      ],
      "stateMutability": "view",
      "type": "function"
    },
    {
      "inputs": [
        {
          "internalType": "address",
          "name": "trader",
          "type": "address"
        }
      ],
      "name": "getTotalTrades",
      "outputs": [
        {
          "internalType": "uint256",
          "name": "",
          "type": "uint256"
        }
      ],
      "stateMutability": "view",
      "type": "function"
    },
    {
      "inputs": [
        {
          "internalType": "address",
          "name": "trader",
          "type": "address"
        },
        {
          "internalType": "uint256",
          "name": "offset",
          "type": "uint256"
        },
        {
          "internalType": "uint256",
          "name": "limit",
          "type": "uint256"
        }
      ],
      "name": "getTradeHistory",
      "outputs": [
        {
          "components": [
            {
              "internalType": "uint256",
              "name": "id",
              "type": "uint256"
            },
            {
              "internalType": "address",
              "name": "trader",
              "type": "address"
            },
            {
              "internalType": "uint256",
              "name": "timestamp",
              "type": "uint256"
            },
            {
              "internalType": "uint256",
              "name": "marketId",
              "type": "uint256"
            },
            {
              "internalType": "string",
              "name": "marketSymbol",
              "type": "string"
            },
            {
              "internalType": "bool",
              "name": "isLong",
              "type": "bool"
            },
            {
              "internalType": "uint256",
              "name": "entryPrice",
              "type": "uint256"
            },
            {
              "internalType": "uint256",
              "name": "exitPrice",
              "type": "uint256"
            },
            {
              "internalType": "uint256",
              "name": "size",
              "type": "uint256"
            },
            {
              "internalType": "uint256",
              "name": "leverage",
              "type": "uint256"
            },
            {
              "internalType": "int256",
              "name": "pnl",
              "type": "int256"
            },
            {
              "internalType": "uint256",
              "name": "fee",
              "type": "uint256"
            },
            {
              "internalType": "uint256",
              "name": "fundingPaid",
              "type": "uint256"
            },
            {
              "internalType": "string",
              "name": "tradeType",
              "type": "string"
            },
            {
              "internalType": "bool",
              "name": "isLiquidation",
              "type": "bool"
            }
          ],
          "internalType": "struct WikiTradeHistory.TradeRecord[]",
          "name": "records",
          "type": "tuple[]"
        }
      ],
      "stateMutability": "view",
      "type": "function"
    },
    {
      "inputs": [
        {
          "internalType": "address",
          "name": "trader",
          "type": "address"
        },
        {
          "internalType": "uint256",
          "name": "yearStart",
          "type": "uint256"
        },
        {
          "internalType": "uint256",
          "name": "yearEnd",
          "type": "uint256"
        }
      ],
      "name": "getTradesForTaxExport",
      "outputs": [
        {
          "components": [
            {
              "internalType": "uint256",
              "name": "id",
              "type": "uint256"
            },
            {
              "internalType": "address",
              "name": "trader",
              "type": "address"
            },
            {
              "internalType": "uint256",
              "name": "timestamp",
              "type": "uint256"
            },
            {
              "internalType": "uint256",
              "name": "marketId",
              "type": "uint256"
            },
            {
              "internalType": "string",
              "name": "marketSymbol",
              "type": "string"
            },
            {
              "internalType": "bool",
              "name": "isLong",
              "type": "bool"
            },
            {
              "internalType": "uint256",
              "name": "entryPrice",
              "type": "uint256"
            },
            {
              "internalType": "uint256",
              "name": "exitPrice",
              "type": "uint256"
            },
            {
              "internalType": "uint256",
              "name": "size",
              "type": "uint256"
            },
            {
              "internalType": "uint256",
              "name": "leverage",
              "type": "uint256"
            },
            {
              "internalType": "int256",
              "name": "pnl",
              "type": "int256"
            },
            {
              "internalType": "uint256",
              "name": "fee",
              "type": "uint256"
            },
            {
              "internalType": "uint256",
              "name": "fundingPaid",
              "type": "uint256"
            },
            {
              "internalType": "string",
              "name": "tradeType",
              "type": "string"
            },
            {
              "internalType": "bool",
              "name": "isLiquidation",
              "type": "bool"
            }
          ],
          "internalType": "struct WikiTradeHistory.TradeRecord[]",
          "name": "records",
          "type": "tuple[]"
        }
      ],
      "stateMutability": "view",
      "type": "function"
    },
    {
      "inputs": [],
      "name": "nextTradeId",
      "outputs": [
        {
          "internalType": "uint256",
          "name": "",
          "type": "uint256"
        }
      ],
      "stateMutability": "view",
      "type": "function"
    },
    {
      "inputs": [],
      "name": "owner",
      "outputs": [
        {
          "internalType": "address",
          "name": "",
          "type": "address"
        }
      ],
      "stateMutability": "view",
      "type": "function"
    },
    {
      "inputs": [],
      "name": "pendingOwner",
      "outputs": [
        {
          "internalType": "address",
          "name": "",
          "type": "address"
        }
      ],
      "stateMutability": "view",
      "type": "function"
    },
    {
      "inputs": [
        {
          "internalType": "address",
          "name": "trader",
          "type": "address"
        },
        {
          "internalType": "uint256",
          "name": "marketId",
          "type": "uint256"
        },
        {
          "internalType": "string",
          "name": "symbol",
          "type": "string"
        },
        {
          "internalType": "bool",
          "name": "isLong",
          "type": "bool"
        },
        {
          "internalType": "uint256",
          "name": "entryPrice",
          "type": "uint256"
        },
        {
          "internalType": "uint256",
          "name": "exitPrice",
          "type": "uint256"
        },
        {
          "internalType": "uint256",
          "name": "size",
          "type": "uint256"
        },
        {
          "internalType": "uint256",
          "name": "leverage",
          "type": "uint256"
        },
        {
          "internalType": "int256",
          "name": "pnl",
          "type": "int256"
        },
        {
          "internalType": "uint256",
          "name": "fee",
          "type": "uint256"
        },
        {
          "internalType": "uint256",
          "name": "fundingPaid",
          "type": "uint256"
        },
        {
          "internalType": "string",
          "name": "tradeType",
          "type": "string"
        },
        {
          "internalType": "bool",
          "name": "isLiquidation",
          "type": "bool"
        }
      ],
      "name": "recordTrade",
      "outputs": [
        {
          "internalType": "uint256",
          "name": "tradeId",
          "type": "uint256"
        }
      ],
      "stateMutability": "nonpayable",
      "type": "function"
    },
    {
      "inputs": [
        {
          "internalType": "address",
          "name": "",
          "type": "address"
        }
      ],
      "name": "recorders",
      "outputs": [
        {
          "internalType": "bool",
          "name": "",
          "type": "bool"
        }
      ],
      "stateMutability": "view",
      "type": "function"
    },
    {
      "inputs": [],
      "name": "renounceOwnership",
      "outputs": [],
      "stateMutability": "nonpayable",
      "type": "function"
    },
    {
      "inputs": [
        {
          "internalType": "address",
          "name": "r",
          "type": "address"
        },
        {
          "internalType": "bool",
          "name": "on",
          "type": "bool"
        }
      ],
      "name": "setRecorder",
      "outputs": [],
      "stateMutability": "nonpayable",
      "type": "function"
    },
    {
      "inputs": [
        {
          "internalType": "address",
          "name": "",
          "type": "address"
        }
      ],
      "name": "taxSummary",
      "outputs": [
        {
          "internalType": "int256",
          "name": "totalPnl",
          "type": "int256"
        },
        {
          "internalType": "uint256",
          "name": "totalFees",
          "type": "uint256"
        },
        {
          "internalType": "uint256",
          "name": "totalFunding",
          "type": "uint256"
        },
        {
          "internalType": "uint256",
          "name": "totalTrades",
          "type": "uint256"
        },
        {
          "internalType": "uint256",
          "name": "winCount",
          "type": "uint256"
        },
        {
          "internalType": "uint256",
          "name": "lossCount",
          "type": "uint256"
        },
        {
          "internalType": "int256",
          "name": "shortTermGains",
          "type": "int256"
        },
        {
          "internalType": "int256",
          "name": "longTermGains",
          "type": "int256"
        }
      ],
      "stateMutability": "view",
      "type": "function"
    },
    {
      "inputs": [
        {
          "internalType": "address",
          "name": "",
          "type": "address"
        },
        {
          "internalType": "uint256",
          "name": "",
          "type": "uint256"
        }
      ],
      "name": "tradeHistory",
      "outputs": [
        {
          "internalType": "uint256",
          "name": "id",
          "type": "uint256"
        },
        {
          "internalType": "address",
          "name": "trader",
          "type": "address"
        },
        {
          "internalType": "uint256",
          "name": "timestamp",
          "type": "uint256"
        },
        {
          "internalType": "uint256",
          "name": "marketId",
          "type": "uint256"
        },
        {
          "internalType": "string",
          "name": "marketSymbol",
          "type": "string"
        },
        {
          "internalType": "bool",
          "name": "isLong",
          "type": "bool"
        },
        {
          "internalType": "uint256",
          "name": "entryPrice",
          "type": "uint256"
        },
        {
          "internalType": "uint256",
          "name": "exitPrice",
          "type": "uint256"
        },
        {
          "internalType": "uint256",
          "name": "size",
          "type": "uint256"
        },
        {
          "internalType": "uint256",
          "name": "leverage",
          "type": "uint256"
        },
        {
          "internalType": "int256",
          "name": "pnl",
          "type": "int256"
        },
        {
          "internalType": "uint256",
          "name": "fee",
          "type": "uint256"
        },
        {
          "internalType": "uint256",
          "name": "fundingPaid",
          "type": "uint256"
        },
        {
          "internalType": "string",
          "name": "tradeType",
          "type": "string"
        },
        {
          "internalType": "bool",
          "name": "isLiquidation",
          "type": "bool"
        }
      ],
      "stateMutability": "view",
      "type": "function"
    },
    {
      "inputs": [
        {
          "internalType": "address",
          "name": "newOwner",
          "type": "address"
        }
      ],
      "name": "transferOwnership",
      "outputs": [],
      "stateMutability": "nonpayable",
      "type": "function"
    }
  ],
  "bytecode": "0x6080346100e057601f61151438819003918201601f19168301916001600160401b038311848410176100e4578084926020946040528339810103126100e057516001600160a01b038116908190036100e05780156100cd57600180546001600160a01b03199081169091555f805491821683178155604051929182916001600160a01b03909116907f8be0079c531659141344cd1fd0a4f28419497f9722a3daafe3b4186f6b6457e09080a35f52600460205260405f20600160ff1982541617905561141b90816100f98239f35b631e4fbdf760e01b5f525f60045260245ffd5b5f80fd5b634e487b7160e01b5f52604160045260245ffdfe6080806040526004361015610012575f80fd5b5f3560e01c90816313545a0214610a3a5750806313af89851461093957806356eb088b146108035780635b95230114610530578063632eab9e1461050a5780636b39349f146104b3578063715018a61461045057806379ba5097146103cb578063813ad083146103ae57806381fabe97146103715780638da5cb5b1461034a57806397886c4b146102c5578063cebb452c1461028d578063d7eca4681461016a578063e30c3978146101425763f2fde38b146100cc575f80fd5b3461013e57602036600319011261013e576100e5610a54565b6100ed6113d2565b60018060a01b0316806bffffffffffffffffffffffff60a01b600154161760015560018060a01b035f54167f38d16b8cac22d99fc7c124b9cd0de2d3fa1faef420bfe791d8c362d765e227005f80a3005b5f80fd5b3461013e575f36600319011261013e576001546040516001600160a01b039091168152602090f35b3461013e5761017836610c1d565b6001600160a01b039092165f9081526002602052604081208054929091805b84811061023c57506101a8906110f0565b935f915f5b8581106101c657604051806101c28982610c47565b0390f35b808260026101d660019489610a6a565b500154101580610224575b6101ec575b016101ad565b61021e6101f98288610a6a565b509561020d61020782610d60565b976111c3565b610217828c6111af565b52896111af565b506101e6565b508360026102328389610a6a565b50015411156101e1565b8260026102498387610a6a565b500154101580610275575b610261575b600101610197565b9061026d600191610d60565b919050610259565b508560026102838387610a6a565b5001541115610254565b3461013e57602036600319011261013e576001600160a01b036102ae610a54565b165f526002602052602060405f2054604051908152f35b3461013e57602036600319011261013e576001600160a01b036102e6610a54565b165f52600360205261010060405f20805490600181015490600281015460038201546004830154906005840154926007600686015495015495604051978852602088015260408701526060860152608085015260a084015260c083015260e0820152f35b3461013e575f36600319011261013e575f546040516001600160a01b039091168152602090f35b3461013e57602036600319011261013e576001600160a01b03610392610a54565b165f526004602052602060ff60405f2054166040519015158152f35b3461013e575f36600319011261013e576020600554604051908152f35b3461013e575f36600319011261013e57600154336001600160a01b039091160361043d57600180546001600160a01b03199081169091555f805433928116831782556001600160a01b0316907f8be0079c531659141344cd1fd0a4f28419497f9722a3daafe3b4186f6b6457e09080a3005b63118cdaa760e01b5f523360045260245ffd5b3461013e575f36600319011261013e576104686113d2565b600180546001600160a01b03199081169091555f80549182168155906001600160a01b03167f8be0079c531659141344cd1fd0a4f28419497f9722a3daafe3b4186f6b6457e08280a3005b3461013e57604036600319011261013e576104cc610a54565b602435801515810361013e57610508916104e46113d2565b60018060a01b03165f52600460205260405f209060ff801983541691151516179055565b005b3461013e576101c261052461051e36610c1d565b91611289565b60405191829182610c47565b3461013e576101a036600319011261013e5761054a610a54565b60443567ffffffffffffffff811161013e5761056a903690600401610bef565b6064359283151580940361013e5761010435610124359161014435956101643567ffffffffffffffff811161013e576105a7903690600401610bef565b9190610184359283151580940361013e57335f52600460205260ff60405f205416156107cb576106629261061a6005549a6105e18c610d60565b600555604051976105f189610aec565b8c89526001600160a01b0316602089018190524260408a015260243560608a01529a3691610d6e565b608087015260a086015260843560c086015260a43560e086015260c43561010086015260e4356101208601528561014086015286610160860152896101808601523691610d6e565b6101a08301526101c0820152835f52600260205261271060405f2054105f146107a957835f52600260205260405f20908154916801000000000000000083101561079557826106b99160016106bf95018155610a6a565b90610db4565b825f52600360205260405f2090815491818301925f8385129112908015821691151617610781576020967f125717343d9d10f0a9678728ef287eb695c9f05e7fa024ed30dc8a7a21172afa94604094835561071f600184019182546110cb565b9055610730600283019182546110cb565b9055600381016107408154610d60565b90555f82131561076d576004016107578154610d60565b90555b81519085825286820152a2604051908152f35b60050161077a8154610d60565b905561075a565b634e487b7160e01b5f52601160045260245ffd5b634e487b7160e01b5f52604160045260245ffd5b6107c690845f5260026020526106b9612710870660405f20610a6a565b6106bf565b60405162461bcd60e51b815260206004820152601060248201526f2a241d103737ba103932b1b7b93232b960811b6044820152606490fd5b3461013e57604036600319011261013e5761081c610a54565b6001600160a01b03165f90815260026020526040902080546024359081101561013e5761084891610a6a565b50805490600160a01b600190036001820154169060028101549060038101546004820161087490610b2b565b90600583015460ff1691600684015460078501546008860154600987015491600a88015493600b89015495600c8a015497600d8b016108b290610b2b565b9a600e015460ff169b6040519e8f9e8f91825260208201526040015260608d015260808c016101e090526101e08c016108ea91610bcb565b97151560a08c015260c08b015260e08a01526101008901526101208801526101408701526101608601526101808501528381036101a085015261092c91610bcb565b9015156101c08301520390f35b3461013e57602036600319011261013e57610952610a54565b5f60e060405161096181610acf565b8281528260208201528260408201528260608201528260808201528260a08201528260c0820152015260018060a01b03165f52600360205261010060405f206040516109ac81610acf565b8154918282526001810154602083019081526002820154604084019081526003830154606085019081526004840154916080860192835260058501549360a0870194855260e0600760068801549760c08a01988952015497019687526040519788525160208801525160408701525160608601525160808501525160a08401525160c08301525160e0820152f35b3461013e575f36600319011261013e578061271060209252f35b600435906001600160a01b038216820361013e57565b8054821015610a83575f52600f60205f20910201905f90565b634e487b7160e01b5f52603260045260245ffd5b90600182811c92168015610ac5575b6020831014610ab157565b634e487b7160e01b5f52602260045260245ffd5b91607f1691610aa6565b610100810190811067ffffffffffffffff82111761079557604052565b6101e0810190811067ffffffffffffffff82111761079557604052565b90601f8019910116810190811067ffffffffffffffff82111761079557604052565b9060405191825f825492610b3e84610a97565b8084529360018116908115610ba95750600114610b65575b50610b6392500383610b09565b565b90505f9291925260205f20905f915b818310610b8d575050906020610b63928201015f610b56565b6020919350806001915483858901015201910190918492610b74565b905060209250610b6394915060ff191682840152151560051b8201015f610b56565b805180835260209291819084018484015e5f828201840152601f01601f1916010190565b9181601f8401121561013e5782359167ffffffffffffffff831161013e576020838186019501011161013e57565b606090600319011261013e576004356001600160a01b038116810361013e57906024359060443590565b602081016020825282518091526040820191602060408360051b8301019401925f915b838310610c7957505050505090565b9091929394602080600192603f1985820301865288519081518152848060a01b0383830151168382015260408201516040820152606082015160608201526101c080610d49610cd960808601516101e060808701526101e0860190610bcb565b60a0860151151560a086015260c086015160c086015260e086015160e08601526101008601516101008601526101208601516101208601526101408601516101408601526101608601516101608601526101808601516101808601526101a08601518582036101a0870152610bcb565b930151151591015297019301930191939290610c6a565b5f1981146107815760010190565b92919267ffffffffffffffff82116107955760405191610d98601f8201601f191660200184610b09565b82948184528183011161013e578281602093845f960137010152565b91906110b857805182556001820160018060a01b036020830151166bffffffffffffffffffffffff60a01b825416179055604081015160028301556060810151600383015560048201608082015180519067ffffffffffffffff8211610795578190610e208454610a97565b601f8111611068575b50602090601f8311600114611005575f92610ffa575b50508160011b915f199060031b1c19161790555b610e7260a08201511515600584019060ff801983541691151516179055565b60c0810151600683015560e0810151600783015561010081015160088301556101208101516009830155610140810151600a830155610160810151600b830155610180810151600c830155600d82016101a082015180519067ffffffffffffffff821161079557610ee38354610a97565b601f8111610fb5575b50602090601f8311600114610f475792826101c093610b63979693600e965f92610f3c575b50508160011b915f199060031b1c19161790555b0151151591019060ff801983541691151516179055565b015190505f80610f11565b90601f19831691845f52815f20925f5b818110610f9d575093610b63979693600e9693600193836101c09810610f85575b505050811b019055610f25565b01515f1960f88460031b161c191690555f8080610f78565b92936020600181928786015181550195019301610f57565b835f5260205f20601f840160051c81019160208510610ff0575b601f0160051c01905b818110610fe55750610eec565b5f8155600101610fd8565b9091508190610fcf565b015190505f80610e3f565b5f8581528281209350601f198516905b8181106110505750908460019594939210611038575b505050811b019055610e53565b01515f1960f88460031b161c191690555f808061102b565b92936020600181928786015181550195019301611015565b909150835f5260205f20601f840160051c810191602085106110ae575b90601f859493920160051c01905b8181106110a05750610e29565b5f8155849350600101611093565b9091508190611085565b634e487b7160e01b5f525f60045260245ffd5b9190820180921161078157565b67ffffffffffffffff81116107955760051b60200190565b906110fa826110d8565b6111076040519182610b09565b8281528092611118601f19916110d8565b01905f5b82811061112857505050565b60209060405161113781610aec565b5f81525f838201525f60408201525f6060820152606060808201525f60a08201525f60c08201525f60e08201525f6101008201525f6101208201525f6101408201525f6101608201525f61018082015260606101a08201525f6101c08201528282850101520161111c565b9190820391821161078157565b8051821015610a835760209160051b010190565b906040516111d081610aec565b6101c060ff600e83958054855260018060a01b036001820154166020860152600281015460408601526003810154606086015261120f60048201610b2b565b608086015282600582015416151560a0860152600681015460c0860152600781015460e086015260088101546101008601526009810154610120860152600a810154610140860152600b810154610160860152600c810154610180860152611279600d8201610b2b565b6101a08601520154161515910152565b6001600160a01b03165f90815260026020526040902080549093926060828410156113325750816112ba82856110cb565b11156113215750905b6112d56112d082846111a2565b6110f0565b93815b8381106112e55750505050565b8061131a6112f560019385610a6a565b5061130961130387856111a2565b916111c3565b611313828b6111af565b52886111af565b50016112d8565b61132c9150826110cb565b906112c3565b93945050505060405190611347602083610b09565b5f82525f90815b82811061135b5750505090565b60209060405161136a81610aec565b5f81525f838201525f60408201525f848201528360808201525f60a08201525f60c08201525f60e08201525f6101008201525f6101208201525f6101408201525f6101608201525f610180820152836101a08201525f6101c08201528282870101520161134e565b5f546001600160a01b0316330361043d5756fea26469706673582212208ee923d0d666d67591d275dab7d21a7eddee5f35b3e69b97bd96a19ca2363ee064736f6c634300081a0033",
  "linkReferences": {},
  "deployedLinkReferences": {}
}