{
  "_format": "hh-sol-artifact-1",
  "contractName": "WikiRevenueSplitter",
  "sourceName": "src/WikiRevenueSplitter.sol",
  "abi": [
    {
      "inputs": [
        {
          "internalType": "address",
          "name": "_owner",
          "type": "address"
        },
        {
          "internalType": "address",
          "name": "_usdc",
          "type": "address"
        },
        {
          "internalType": "address",
          "name": "_staking",
          "type": "address"
        },
        {
          "internalType": "address",
          "name": "_pol",
          "type": "address"
        },
        {
          "internalType": "address",
          "name": "_insurance",
          "type": "address"
        },
        {
          "internalType": "address",
          "name": "_opsWallet",
          "type": "address"
        },
        {
          "internalType": "address",
          "name": "_reserveWallet",
          "type": "address"
        }
      ],
      "stateMutability": "nonpayable",
      "type": "constructor"
    },
    {
      "inputs": [
        {
          "internalType": "address",
          "name": "owner",
          "type": "address"
        }
      ],
      "name": "OwnableInvalidOwner",
      "type": "error"
    },
    {
      "inputs": [
        {
          "internalType": "address",
          "name": "account",
          "type": "address"
        }
      ],
      "name": "OwnableUnauthorizedAccount",
      "type": "error"
    },
    {
      "inputs": [],
      "name": "ReentrancyGuardReentrantCall",
      "type": "error"
    },
    {
      "inputs": [
        {
          "internalType": "address",
          "name": "token",
          "type": "address"
        }
      ],
      "name": "SafeERC20FailedOperation",
      "type": "error"
    },
    {
      "anonymous": false,
      "inputs": [
        {
          "indexed": false,
          "internalType": "uint256",
          "name": "toStakers",
          "type": "uint256"
        },
        {
          "indexed": false,
          "internalType": "uint256",
          "name": "toOps",
          "type": "uint256"
        },
        {
          "indexed": false,
          "internalType": "uint256",
          "name": "toPOL",
          "type": "uint256"
        },
        {
          "indexed": false,
          "internalType": "uint256",
          "name": "toSafety",
          "type": "uint256"
        },
        {
          "indexed": false,
          "internalType": "uint256",
          "name": "toReserve",
          "type": "uint256"
        },
        {
          "indexed": false,
          "internalType": "uint256",
          "name": "total",
          "type": "uint256"
        }
      ],
      "name": "FeesDistributed",
      "type": "event"
    },
    {
      "anonymous": false,
      "inputs": [
        {
          "indexed": true,
          "internalType": "address",
          "name": "newWallet",
          "type": "address"
        }
      ],
      "name": "OpsWalletUpdated",
      "type": "event"
    },
    {
      "anonymous": false,
      "inputs": [
        {
          "indexed": true,
          "internalType": "address",
          "name": "previousOwner",
          "type": "address"
        },
        {
          "indexed": true,
          "internalType": "address",
          "name": "newOwner",
          "type": "address"
        }
      ],
      "name": "OwnershipTransferStarted",
      "type": "event"
    },
    {
      "anonymous": false,
      "inputs": [
        {
          "indexed": true,
          "internalType": "address",
          "name": "previousOwner",
          "type": "address"
        },
        {
          "indexed": true,
          "internalType": "address",
          "name": "newOwner",
          "type": "address"
        }
      ],
      "name": "OwnershipTransferred",
      "type": "event"
    },
    {
      "anonymous": false,
      "inputs": [
        {
          "indexed": true,
          "internalType": "address",
          "name": "newWallet",
          "type": "address"
        }
      ],
      "name": "ReserveWalletUpdated",
      "type": "event"
    },
    {
      "anonymous": false,
      "inputs": [
        {
          "indexed": false,
          "internalType": "uint256",
          "name": "amount",
          "type": "uint256"
        }
      ],
      "name": "RetryDistributed",
      "type": "event"
    },
    {
      "anonymous": false,
      "inputs": [
        {
          "indexed": false,
          "internalType": "uint256",
          "name": "stakers",
          "type": "uint256"
        },
        {
          "indexed": false,
          "internalType": "uint256",
          "name": "ops",
          "type": "uint256"
        },
        {
          "indexed": false,
          "internalType": "uint256",
          "name": "pol",
          "type": "uint256"
        },
        {
          "indexed": false,
          "internalType": "uint256",
          "name": "safety",
          "type": "uint256"
        },
        {
          "indexed": false,
          "internalType": "uint256",
          "name": "reserve",
          "type": "uint256"
        }
      ],
      "name": "SplitUpdated",
      "type": "event"
    },
    {
      "inputs": [],
      "name": "BPS",
      "outputs": [
        {
          "internalType": "uint256",
          "name": "",
          "type": "uint256"
        }
      ],
      "stateMutability": "view",
      "type": "function"
    },
    {
      "inputs": [],
      "name": "MAX_BPS_OPS",
      "outputs": [
        {
          "internalType": "uint256",
          "name": "",
          "type": "uint256"
        }
      ],
      "stateMutability": "view",
      "type": "function"
    },
    {
      "inputs": [],
      "name": "MAX_BPS_POL",
      "outputs": [
        {
          "internalType": "uint256",
          "name": "",
          "type": "uint256"
        }
      ],
      "stateMutability": "view",
      "type": "function"
    },
    {
      "inputs": [],
      "name": "MAX_BPS_RESERVE",
      "outputs": [
        {
          "internalType": "uint256",
          "name": "",
          "type": "uint256"
        }
      ],
      "stateMutability": "view",
      "type": "function"
    },
    {
      "inputs": [],
      "name": "MAX_BPS_SAFETY",
      "outputs": [
        {
          "internalType": "uint256",
          "name": "",
          "type": "uint256"
        }
      ],
      "stateMutability": "view",
      "type": "function"
    },
    {
      "inputs": [],
      "name": "MAX_BPS_STAKERS",
      "outputs": [
        {
          "internalType": "uint256",
          "name": "",
          "type": "uint256"
        }
      ],
      "stateMutability": "view",
      "type": "function"
    },
    {
      "inputs": [],
      "name": "MIN_BPS_PER_BUCKET",
      "outputs": [
        {
          "internalType": "uint256",
          "name": "",
          "type": "uint256"
        }
      ],
      "stateMutability": "view",
      "type": "function"
    },
    {
      "inputs": [],
      "name": "USDC",
      "outputs": [
        {
          "internalType": "contract IERC20",
          "name": "",
          "type": "address"
        }
      ],
      "stateMutability": "view",
      "type": "function"
    },
    {
      "inputs": [],
      "name": "acceptOwnership",
      "outputs": [],
      "stateMutability": "nonpayable",
      "type": "function"
    },
    {
      "inputs": [],
      "name": "currentMonthFees",
      "outputs": [
        {
          "internalType": "uint256",
          "name": "",
          "type": "uint256"
        }
      ],
      "stateMutability": "view",
      "type": "function"
    },
    {
      "inputs": [],
      "name": "currentMonthStart",
      "outputs": [
        {
          "internalType": "uint256",
          "name": "",
          "type": "uint256"
        }
      ],
      "stateMutability": "view",
      "type": "function"
    },
    {
      "inputs": [],
      "name": "distributeHeld",
      "outputs": [],
      "stateMutability": "nonpayable",
      "type": "function"
    },
    {
      "inputs": [
        {
          "internalType": "address",
          "name": "",
          "type": "address"
        }
      ],
      "name": "feeCallers",
      "outputs": [
        {
          "internalType": "bool",
          "name": "",
          "type": "bool"
        }
      ],
      "stateMutability": "view",
      "type": "function"
    },
    {
      "inputs": [],
      "name": "insurance",
      "outputs": [
        {
          "internalType": "contract IWikiInsurance",
          "name": "",
          "type": "address"
        }
      ],
      "stateMutability": "view",
      "type": "function"
    },
    {
      "inputs": [],
      "name": "lastMonthFees",
      "outputs": [
        {
          "internalType": "uint256",
          "name": "",
          "type": "uint256"
        }
      ],
      "stateMutability": "view",
      "type": "function"
    },
    {
      "inputs": [],
      "name": "opsBps",
      "outputs": [
        {
          "internalType": "uint256",
          "name": "",
          "type": "uint256"
        }
      ],
      "stateMutability": "view",
      "type": "function"
    },
    {
      "inputs": [],
      "name": "opsVault",
      "outputs": [
        {
          "internalType": "contract IWikiOpsVault",
          "name": "",
          "type": "address"
        }
      ],
      "stateMutability": "view",
      "type": "function"
    },
    {
      "inputs": [],
      "name": "opsWallet",
      "outputs": [
        {
          "internalType": "address",
          "name": "",
          "type": "address"
        }
      ],
      "stateMutability": "view",
      "type": "function"
    },
    {
      "inputs": [],
      "name": "owner",
      "outputs": [
        {
          "internalType": "address",
          "name": "",
          "type": "address"
        }
      ],
      "stateMutability": "view",
      "type": "function"
    },
    {
      "inputs": [],
      "name": "pendingOwner",
      "outputs": [
        {
          "internalType": "address",
          "name": "",
          "type": "address"
        }
      ],
      "stateMutability": "view",
      "type": "function"
    },
    {
      "inputs": [],
      "name": "pendingRetry",
      "outputs": [
        {
          "internalType": "uint256",
          "name": "",
          "type": "uint256"
        }
      ],
      "stateMutability": "view",
      "type": "function"
    },
    {
      "inputs": [],
      "name": "pol",
      "outputs": [
        {
          "internalType": "contract IWikiPOL",
          "name": "",
          "type": "address"
        }
      ],
      "stateMutability": "view",
      "type": "function"
    },
    {
      "inputs": [],
      "name": "polBps",
      "outputs": [
        {
          "internalType": "uint256",
          "name": "",
          "type": "uint256"
        }
      ],
      "stateMutability": "view",
      "type": "function"
    },
    {
      "inputs": [],
      "name": "projectOpsIncome",
      "outputs": [
        {
          "internalType": "uint256[5]",
          "name": "dailyVolumes",
          "type": "uint256[5]"
        },
        {
          "internalType": "uint256[5]",
          "name": "monthlyFees",
          "type": "uint256[5]"
        },
        {
          "internalType": "uint256[5]",
          "name": "monthlyToOps",
          "type": "uint256[5]"
        }
      ],
      "stateMutability": "view",
      "type": "function"
    },
    {
      "inputs": [
        {
          "internalType": "uint256",
          "name": "amount",
          "type": "uint256"
        }
      ],
      "name": "receiveFees",
      "outputs": [],
      "stateMutability": "nonpayable",
      "type": "function"
    },
    {
      "inputs": [],
      "name": "renounceOwnership",
      "outputs": [],
      "stateMutability": "nonpayable",
      "type": "function"
    },
    {
      "inputs": [],
      "name": "reserveBps",
      "outputs": [
        {
          "internalType": "uint256",
          "name": "",
          "type": "uint256"
        }
      ],
      "stateMutability": "view",
      "type": "function"
    },
    {
      "inputs": [],
      "name": "reserveWallet",
      "outputs": [
        {
          "internalType": "address",
          "name": "",
          "type": "address"
        }
      ],
      "stateMutability": "view",
      "type": "function"
    },
    {
      "inputs": [],
      "name": "revenueDashboard",
      "outputs": [
        {
          "internalType": "uint256",
          "name": "stakersPct",
          "type": "uint256"
        },
        {
          "internalType": "uint256",
          "name": "opsPct",
          "type": "uint256"
        },
        {
          "internalType": "uint256",
          "name": "polPct",
          "type": "uint256"
        },
        {
          "internalType": "uint256",
          "name": "safetyPct",
          "type": "uint256"
        },
        {
          "internalType": "uint256",
          "name": "reservePct",
          "type": "uint256"
        },
        {
          "internalType": "uint256",
          "name": "monthlyTotal",
          "type": "uint256"
        },
        {
          "internalType": "uint256",
          "name": "monthlyToOps",
          "type": "uint256"
        },
        {
          "internalType": "uint256",
          "name": "annualRunRateTotal",
          "type": "uint256"
        },
        {
          "internalType": "uint256",
          "name": "annualRunRateOps",
          "type": "uint256"
        },
        {
          "internalType": "uint256",
          "name": "lifetimeTotal",
          "type": "uint256"
        },
        {
          "internalType": "uint256",
          "name": "lifetimeToOps",
          "type": "uint256"
        }
      ],
      "stateMutability": "view",
      "type": "function"
    },
    {
      "inputs": [],
      "name": "safetyBps",
      "outputs": [
        {
          "internalType": "uint256",
          "name": "",
          "type": "uint256"
        }
      ],
      "stateMutability": "view",
      "type": "function"
    },
    {
      "inputs": [
        {
          "internalType": "address",
          "name": "_staking",
          "type": "address"
        },
        {
          "internalType": "address",
          "name": "_pol",
          "type": "address"
        },
        {
          "internalType": "address",
          "name": "_insurance",
          "type": "address"
        }
      ],
      "name": "setContracts",
      "outputs": [],
      "stateMutability": "nonpayable",
      "type": "function"
    },
    {
      "inputs": [
        {
          "internalType": "address",
          "name": "caller",
          "type": "address"
        },
        {
          "internalType": "bool",
          "name": "enabled",
          "type": "bool"
        }
      ],
      "name": "setFeeCaller",
      "outputs": [],
      "stateMutability": "nonpayable",
      "type": "function"
    },
    {
      "inputs": [
        {
          "internalType": "address",
          "name": "vault",
          "type": "address"
        }
      ],
      "name": "setOpsVault",
      "outputs": [],
      "stateMutability": "nonpayable",
      "type": "function"
    },
    {
      "inputs": [
        {
          "internalType": "address",
          "name": "newWallet",
          "type": "address"
        }
      ],
      "name": "setOpsWallet",
      "outputs": [],
      "stateMutability": "nonpayable",
      "type": "function"
    },
    {
      "inputs": [
        {
          "internalType": "address",
          "name": "newWallet",
          "type": "address"
        }
      ],
      "name": "setReserveWallet",
      "outputs": [],
      "stateMutability": "nonpayable",
      "type": "function"
    },
    {
      "inputs": [
        {
          "internalType": "address",
          "name": "_tl",
          "type": "address"
        }
      ],
      "name": "setTimelock",
      "outputs": [],
      "stateMutability": "nonpayable",
      "type": "function"
    },
    {
      "inputs": [],
      "name": "stakersBps",
      "outputs": [
        {
          "internalType": "uint256",
          "name": "",
          "type": "uint256"
        }
      ],
      "stateMutability": "view",
      "type": "function"
    },
    {
      "inputs": [],
      "name": "staking",
      "outputs": [
        {
          "internalType": "contract IWikiStaking",
          "name": "",
          "type": "address"
        }
      ],
      "stateMutability": "view",
      "type": "function"
    },
    {
      "inputs": [],
      "name": "timelock",
      "outputs": [
        {
          "internalType": "address",
          "name": "",
          "type": "address"
        }
      ],
      "stateMutability": "view",
      "type": "function"
    },
    {
      "inputs": [],
      "name": "totalFeesReceived",
      "outputs": [
        {
          "internalType": "uint256",
          "name": "",
          "type": "uint256"
        }
      ],
      "stateMutability": "view",
      "type": "function"
    },
    {
      "inputs": [],
      "name": "totalToOps",
      "outputs": [
        {
          "internalType": "uint256",
          "name": "",
          "type": "uint256"
        }
      ],
      "stateMutability": "view",
      "type": "function"
    },
    {
      "inputs": [],
      "name": "totalToPOL",
      "outputs": [
        {
          "internalType": "uint256",
          "name": "",
          "type": "uint256"
        }
      ],
      "stateMutability": "view",
      "type": "function"
    },
    {
      "inputs": [],
      "name": "totalToReserve",
      "outputs": [
        {
          "internalType": "uint256",
          "name": "",
          "type": "uint256"
        }
      ],
      "stateMutability": "view",
      "type": "function"
    },
    {
      "inputs": [],
      "name": "totalToSafety",
      "outputs": [
        {
          "internalType": "uint256",
          "name": "",
          "type": "uint256"
        }
      ],
      "stateMutability": "view",
      "type": "function"
    },
    {
      "inputs": [],
      "name": "totalToStakers",
      "outputs": [
        {
          "internalType": "uint256",
          "name": "",
          "type": "uint256"
        }
      ],
      "stateMutability": "view",
      "type": "function"
    },
    {
      "inputs": [
        {
          "internalType": "address",
          "name": "newOwner",
          "type": "address"
        }
      ],
      "name": "transferOwnership",
      "outputs": [],
      "stateMutability": "nonpayable",
      "type": "function"
    },
    {
      "inputs": [
        {
          "internalType": "uint256",
          "name": "newStakers",
          "type": "uint256"
        },
        {
          "internalType": "uint256",
          "name": "newOps",
          "type": "uint256"
        },
        {
          "internalType": "uint256",
          "name": "newPol",
          "type": "uint256"
        },
        {
          "internalType": "uint256",
          "name": "newSafety",
          "type": "uint256"
        },
        {
          "internalType": "uint256",
          "name": "newReserve",
          "type": "uint256"
        }
      ],
      "name": "updateSplit",
      "outputs": [],
      "stateMutability": "nonpayable",
      "type": "function"
    }
  ],
  "bytecode": "0x60a03461031057601f611e7538819003918201601f19168301916001600160401b038311848410176103145780849260e0946040528339810103126103105761004781610328565b61005360208301610328565b9161006060408201610328565b61006c60608301610328565b9061007960808401610328565b9261009260c061008b60a08401610328565b9201610328565b6001600160a01b039095169586156102fd57600180546001600160a01b03199081169091555f80549182168917815560405198916001600160a01b0316907f8be0079c531659141344cd1fd0a4f28419497f9722a3daafe3b4186f6b6457e09080a360017f9b779b17422d0df92223018b32b4d1fa46e071723d6817e2486d003becc55f0055610c80600955610bb8600a556108fc600b556103e8600c556101f4600d556001600160a01b03169586156102ca57506001600160a01b0316938415610295576001600160a01b031694851561025c576080526001600160a01b031680610242575b506001600160a01b031680610228575b506001600160a01b03168061020e575b5060018060a01b0319600654161760065560018060a01b0319600754161760075542601555604051611b38908161033d82396080518181816103e001528181610c18015281816110bc01528181611482015281816114ce015281816115c2015281816116c101528181611817015261184f0152f35b600580546001600160a01b0319169190911790555f610199565b600480546001600160a01b0319169190911790555f610189565b600380546001600160a01b0319169190911790555f610179565b60405162461bcd60e51b81526020600482015260116024820152705265763a207a65726f207265736572766560781b6044820152606490fd5b60405162461bcd60e51b815260206004820152600d60248201526c5265763a207a65726f206f707360981b6044820152606490fd5b62461bcd60e51b815260206004820152600e60248201526d5265763a207a65726f205553444360901b6044820152606490fd5b631e4fbdf760e01b5f525f60045260245ffd5b5f80fd5b634e487b7160e01b5f52604160045260245ffd5b51906001600160a01b03821682036103105756fe60806040526004361015610011575f80fd5b5f3560e01c80630420592e1461107c578063096ad1ce1461105f5780630b429f5a1461101c578063241958f9146104e8578063249d39e9146110005780633892544914610fe3578063392d4ed014610eba5780633eb74be114610e9d578063457f9efc14610e805780634cf088d914610e585780635323e57f14610e3b578063689ac10c14610e1e57806368db925a14610df65780636df4ffd114610da3578063715018a614610d405780637315bcb914610d235780637734a65114610d065780637973818c14610ce957806379ba509714610c645780637ad8128c14610c4757806389a3027114610c0357806389cf320414610bdb5780638c16e19a14610bbe5780638da5cb5b14610b9757806391c2a24514610b7b5780639ac73e6a146108b35780639fbaf3de14610896578063a84160c41461087a578063b2ea33e114610733578063b3066d4914610680578063b3199cad14610664578063b9a1426614610647578063ba8f63c9146105da578063bcba62bf1461059d578063bdacb3031461055a578063bdad1ffc1461053d578063d33219b414610515578063d72b11bd146104ed578063d8b074e9146104e8578063dbe43aad146103ad578063dda4fa8f14610340578063e30c397814610318578063e46761c4146102f0578063f2fde38b14610283578063f59a760e14610266578063f60b97261461023e5763f734765f1461021e575f80fd5b3461023a575f36600319011261023a5760206040516107d08152f35b5f80fd5b3461023a575f36600319011261023a576008546040516001600160a01b039091168152602090f35b3461023a575f36600319011261023a576020600c54604051908152f35b3461023a57602036600319011261023a5761029c6111fd565b6102a4611914565b60018060a01b0316806001600160601b0360a01b600154161760015560018060a01b035f54167f38d16b8cac22d99fc7c124b9cd0de2d3fa1faef420bfe791d8c362d765e227005f80a3005b3461023a575f36600319011261023a576004546040516001600160a01b039091168152602090f35b3461023a575f36600319011261023a576001546040516001600160a01b039091168152602090f35b3461023a57602036600319011261023a576103596111fd565b610361611914565b6001600160a01b03166103758115156112c4565b600780546001600160a01b031916821790557fb6682970c3624ff1f1130c7910f4f5a7619c2356dc365283eb44e7806dc1a86f5f80a2005b3461023a575f36600319011261023a576103c5611303565b6040516370a0823160e01b81523060048201526020816024817f00000000000000000000000000000000000000000000000000000000000000006001600160a01b03165afa9081156104dd575f916104ab575b5080156104665760208161044c7f2e2b806001901379b7675c403ccabb2bf2771cf7392ac3283294ca8058eb4b3493611355565b604051908152a160015f80516020611ae383398151915255005b60405162461bcd60e51b815260206004820152601a60248201527f5265763a206e6f7468696e6720746f20646973747269627574650000000000006044820152606490fd5b90506020813d6020116104d5575b816104c660209383611256565b8101031261023a575181610418565b3d91506104b9565b6040513d5f823e3d90fd5b611213565b3461023a575f36600319011261023a576007546040516001600160a01b039091168152602090f35b3461023a575f36600319011261023a576002546040516001600160a01b039091168152602090f35b3461023a575f36600319011261023a576020601054604051908152f35b3461023a57602036600319011261023a576105736111fd565b61057b611914565b600280546001600160a01b0319166001600160a01b0392909216919091179055005b3461023a57602036600319011261023a576001600160a01b036105be6111fd565b165f526018602052602060ff60405f2054166040519015158152f35b3461023a57602036600319011261023a576105f36111fd565b6105fb611914565b6001600160a01b031661060f8115156112c4565b600680546001600160a01b031916821790557f272db2050c4be65ac2a61ffece982efc98fe5c0dde59bc9db9170fd81424f3ee5f80a2005b3461023a575f36600319011261023a576020600b54604051908152f35b3461023a575f36600319011261023a5760206040516101f48152f35b3461023a57606036600319011261023a576106996111fd565b6024356001600160a01b0381169081900361023a576044356001600160a01b038116929083900361023a576106cc611914565b6001600160a01b03168061071a575b5080610701575b50806106ea57005b6001600160601b0360a01b60055416176005555f80f35b6001600160601b0360a01b6004541617600455816106e2565b6001600160601b0360a01b6003541617600355826106db565b3461023a575f36600319011261023a5760095460648102908082046064149015171561085657600a5460648102908082046064148115171561085657600b549060648202918083046064149015171561085657600c549060648202918083046064149015171561085657600d549060648202918083046064149015171561085657601754801561086a576107cc61271091925b836112b1565b0490600c810292818404600c148215171561085657600c830294838604600c148415171561085657600e5496601054986040519a61271090048b52612710900460208b0152612710900460408a0152612710900460608901526127109004608088015260a087015260c086015260e085015261010084015261012083015261014082015261016090f35b634e487b7160e01b5f52601160045260245ffd5b506127106107cc601654926107c6565b3461023a575f36600319011261023a576020604051610bb88152f35b3461023a575f36600319011261023a576020600e54604051908152f35b3461023a5760a036600319011261023a576044356024356004356084356064356108db611914565b6101f483101580610b6f575b15610b2a576101f484101580610b1e575b15610ad9576101f485101580610acd575b15610a90576101f481101580610a84575b15610a3f576101f482101580610a33575b156109ee5761271061094e83610949846109498a6109498b8b61133b565b61133b565b036109a9577f138dd11792dcb523dd33c99a1658ddd9ee20d8de675d8ab87f088ef6921556f59460a0948460095580600a5581600b5582600c5583600d556040519485526020850152604084015260608301526080820152a1005b60405162461bcd60e51b815260206004820152601a60248201527f5265763a2073706c6974206d75737420657175616c20313030250000000000006044820152606490fd5b60405162461bcd60e51b815260206004820152601960248201527f5265763a2072657365727665206f7574206f662072616e6765000000000000006044820152606490fd5b506107d082111561092b565b60405162461bcd60e51b815260206004820152601860248201527f5265763a20736166657479206f7574206f662072616e676500000000000000006044820152606490fd5b50610bb881111561091a565b60405162461bcd60e51b81526020600482015260156024820152745265763a20706f6c206f7574206f662072616e676560581b6044820152606490fd5b50611770851115610909565b60405162461bcd60e51b815260206004820152601f60248201527f5265763a206f7073206f7574206f662072616e676520286d61782033352529006044820152606490fd5b50610fa08411156108f8565b60405162461bcd60e51b815260206004820152601960248201527f5265763a207374616b657273206f7574206f662072616e6765000000000000006044820152606490fd5b506117708311156108e7565b3461023a575f36600319011261023a576020604051610fa08152f35b3461023a575f36600319011261023a575f546040516001600160a01b039091168152602090f35b3461023a575f36600319011261023a576020601254604051908152f35b3461023a575f36600319011261023a576005546040516001600160a01b039091168152602090f35b3461023a575f36600319011261023a576040517f00000000000000000000000000000000000000000000000000000000000000006001600160a01b03168152602090f35b3461023a575f36600319011261023a576020600f54604051908152f35b3461023a575f36600319011261023a57600154336001600160a01b0390911603610cd657600180546001600160a01b03199081169091555f805433928116831782556001600160a01b0316907f8be0079c531659141344cd1fd0a4f28419497f9722a3daafe3b4186f6b6457e09080a3005b63118cdaa760e01b5f523360045260245ffd5b3461023a575f36600319011261023a576020601754604051908152f35b3461023a575f36600319011261023a576020601554604051908152f35b3461023a575f36600319011261023a576020601154604051908152f35b3461023a575f36600319011261023a57610d58611914565b600180546001600160a01b03199081169091555f80549182168155906001600160a01b03167f8be0079c531659141344cd1fd0a4f28419497f9722a3daafe3b4186f6b6457e08280a3005b3461023a57604036600319011261023a57610dbc6111fd565b6024359081151580920361023a57610dd2611914565b60018060a01b03165f52601860205260405f209060ff801983541691161790555f80f35b3461023a575f36600319011261023a576006546040516001600160a01b039091168152602090f35b3461023a575f36600319011261023a576020600a54604051908152f35b3461023a575f36600319011261023a576020601354604051908152f35b3461023a575f36600319011261023a576003546040516001600160a01b039091168152602090f35b3461023a575f36600319011261023a576020600954604051908152f35b3461023a575f36600319011261023a576020601454604051908152f35b3461023a575f36600319011261023a5760a0604051610ed98282611256565b8136823760405191610eeb8184611256565b8036843760405190610efd8183611256565b8036833764e8d4a51000835265048c2739500060208401526509184e72a0006040840152652d79883d20006060840152655af3107a40006080840152600a545f5b60058110610f75576101e085610f7386610f688a88610f60604051809761122f565b85019061122f565b61014083019061122f565bf35b610f7f818661128c565b5160068102908082046006149015171561085657612710900490601e820291808304601e149015171561085657600191610fb9828961128c565b52612710610fd184610fcb848b61128c565b516112b1565b04610fdc828761128c565b5201610f3e565b3461023a575f36600319011261023a576020600d54604051908152f35b3461023a575f36600319011261023a5760206040516127108152f35b3461023a57602036600319011261023a576110356111fd565b61103d611914565b600880546001600160a01b0319166001600160a01b0392909216919091179055005b3461023a575f36600319011261023a576020601654604051908152f35b3461023a57602036600319011261023a57600435611098611303565b335f52601860205260ff60405f20541680156111ea575b156111af578015611177577f0000000000000000000000000000000000000000000000000000000000000000906040516323b872dd60e01b5f5233600452306024528160445260205f60648180875af19060015f5114821615611156575b6040525f606052156111355761112290611355565b60015f80516020611ae383398151915255005b50635274afe760e01b5f9081526001600160a01b0391909116600452602490fd5b90600181151661116e57833b15153d1516169061110d565b503d5f823e3d90fd5b60405162461bcd60e51b815260206004820152601060248201526f14995d8e881e995c9bc8185b5bdd5b9d60821b6044820152606490fd5b60405162461bcd60e51b815260206004820152601360248201527214995d8e881b9bdd08185d5d1a1bdc9a5cd959606a1b6044820152606490fd5b505f546001600160a01b031633146110af565b600435906001600160a01b038216820361023a57565b3461023a575f36600319011261023a5760206040516117708152f35b905f905b6005821061124057505050565b6020806001928551815201930191019091611233565b90601f8019910116810190811067ffffffffffffffff82111761127857604052565b634e487b7160e01b5f52604160045260245ffd5b90600581101561129d5760051b0190565b634e487b7160e01b5f52603260045260245ffd5b8181029291811591840414171561085657565b156112cb57565b60405162461bcd60e51b815260206004820152601060248201526f14995d8e881e995c9bc81dd85b1b195d60821b6044820152606490fd5b60025f80516020611ae3833981519152541461132c5760025f80516020611ae383398151915255565b633ee5aeb560e01b5f5260045ffd5b9190820180921161085657565b9190820391821161085657565b601554905f9162278d00810180911161085657421015611901575b61137c8160165461133b565b60165561138b81600e5461133b565b600e5561271061139d600954836112b1565b04916127106113ae600a54846112b1565b046127106113be600b54856112b1565b046127106113ce600c54866112b1565b04916113eb836113e6846113e6856113e68c8c611348565b611348565b93861515806118ed575b61183b575b816116ab575b82151580611697575b6115bd575b831515806115a9575b6114ba575b5091839160c095937f38d88191b63cf68a195fd4227b1927ec70d40961b7713eb5f8e0576aadc77ece979561146e575b604051958652602086015260408501526060840152608083015260a0820152a1565b6007546114a69085906001600160a01b03167f000000000000000000000000000000000000000000000000000000000000000061199e565b6114b28460135461133b565b60135561144c565b6005546114f29085906001600160a01b03167f0000000000000000000000000000000000000000000000000000000000000000611927565b6005546001600160a01b0316803b156115a557818091602460405180958193637cf4c01b60e01b83528a60048401525af1918261158d575b50509160c09593917f38d88191b63cf68a195fd4227b1927ec70d40961b7713eb5f8e0576aadc77ece979593155f14611579576115698360145461133b565b6014555b9193955091939561141c565b6115858360125461133b565b60125561156d565b611598828092611256565b6115a2578061152a565b80fd5b5080fd5b506005546001600160a01b03161515611417565b6004547f0000000000000000000000000000000000000000000000000000000000000000906115f79085906001600160a01b031683611927565b6004546001600160a01b0316803b1561169357828080879360246040518095819363107e9cf160e01b83528860048401525af19182611678575b50506116635760065461164f926001600160a01b039091169061199e565b61165b8360105461133b565b60105561140e565b611670915060115461133b565b60115561140e565b819293509061168691611256565b611693578490835f611631565b8280fd5b506004546001600160a01b03161515611409565b6008546001600160a01b031615611803576008547f0000000000000000000000000000000000000000000000000000000000000000906116f69084906001600160a01b031683611927565b6008546001600160a01b0316803b1561169357828080926024604051809581936356cde0bf60e11b83528a60048401525af191826117ee575b50506117e15760085483906001600160a01b031661174e8482856119f6565b15611781575b5060065461176d926001600160a01b039091169061199e565b6117798260105461133b565b601055611400565b905061178d8183611a43565b156117c5578261179d9183611aa7565b156117a957825f611754565b635274afe760e01b82526001600160a01b031660045260249150fd5b635274afe760e01b83526001600160a01b038216600452602483fd5b506117798260105461133b565b816117f891611256565b61169357825f61172f565b60065461176d9083906001600160a01b03167f000000000000000000000000000000000000000000000000000000000000000061199e565b6003546118739088906001600160a01b03167f0000000000000000000000000000000000000000000000000000000000000000611927565b6003546001600160a01b0316803b1561023a575f8091602460405180948193636029bf9f60e01b83528d60048401525af190816118d8575b506118c4576118bc8760145461133b565b6014556113fa565b6118d087600f5461133b565b600f556113fa565b6118e59192505f90611256565b5f905f6118ab565b506003546001600160a01b031615156113f5565b6016546017555f60165542601555611370565b5f546001600160a01b03163303610cd657565b91906119348282856119f6565b1561193e57505050565b6119488184611a43565b1561198057906119589183611aa7565b156119605750565b635274afe760e01b5f9081526001600160a01b0391909116600452602490fd5b635274afe760e01b5f9081526001600160a01b038416600452602490fd5b916040519163a9059cbb60e01b5f5260018060a01b031660045260245260205f60448180865af19060015f51148216156119de575b604052156119605750565b90600181151661116e57823b15153d151616906119d3565b92916040519163095ea7b360e01b5f5260018060a01b031660045260245260205f60448180875af19260015f5114841615611a32575b50604052565b3d15903b151516909216915f611a2c565b60405163095ea7b360e01b5f9081526001600160a01b03909316600452602483905290929160209060448180875af19260015f5114841615611a855750604052565b60018492941516611a9e573b15153d151616915f611a2c565b833d5f823e3d90fd5b92916040519163095ea7b360e01b5f5260018060a01b031660045260245260205f60448180875af19260015f5114841615611a85575060405256fe9b779b17422d0df92223018b32b4d1fa46e071723d6817e2486d003becc55f00a2646970667358221220bef980a5695749ee316062c9fa4e752e65c41dac0defdc11c6bdeeee4a86c37164736f6c634300081a0033",
  "linkReferences": {},
  "deployedLinkReferences": {}
}