{
  "_format": "hh-sol-artifact-1",
  "contractName": "WikiLP",
  "sourceName": "src/WikiLP.sol",
  "abi": [
    {
      "inputs": [
        {
          "internalType": "address",
          "name": "usdc",
          "type": "address"
        },
        {
          "internalType": "address",
          "name": "wik",
          "type": "address"
        },
        {
          "internalType": "address",
          "name": "owner",
          "type": "address"
        }
      ],
      "stateMutability": "nonpayable",
      "type": "constructor"
    },
    {
      "inputs": [
        {
          "internalType": "address",
          "name": "owner",
          "type": "address"
        }
      ],
      "name": "OwnableInvalidOwner",
      "type": "error"
    },
    {
      "inputs": [
        {
          "internalType": "address",
          "name": "account",
          "type": "address"
        }
      ],
      "name": "OwnableUnauthorizedAccount",
      "type": "error"
    },
    {
      "inputs": [],
      "name": "ReentrancyGuardReentrantCall",
      "type": "error"
    },
    {
      "inputs": [
        {
          "internalType": "address",
          "name": "token",
          "type": "address"
        }
      ],
      "name": "SafeERC20FailedOperation",
      "type": "error"
    },
    {
      "anonymous": false,
      "inputs": [
        {
          "indexed": true,
          "internalType": "uint256",
          "name": "pid",
          "type": "uint256"
        },
        {
          "indexed": true,
          "internalType": "address",
          "name": "lp",
          "type": "address"
        },
        {
          "indexed": false,
          "internalType": "uint256",
          "name": "feeA",
          "type": "uint256"
        },
        {
          "indexed": false,
          "internalType": "uint256",
          "name": "feeB",
          "type": "uint256"
        }
      ],
      "name": "FeesClaimed",
      "type": "event"
    },
    {
      "anonymous": false,
      "inputs": [
        {
          "indexed": true,
          "internalType": "uint256",
          "name": "pid",
          "type": "uint256"
        },
        {
          "indexed": true,
          "internalType": "address",
          "name": "borrower",
          "type": "address"
        },
        {
          "indexed": false,
          "internalType": "address",
          "name": "token",
          "type": "address"
        },
        {
          "indexed": false,
          "internalType": "uint256",
          "name": "amount",
          "type": "uint256"
        },
        {
          "indexed": false,
          "internalType": "uint256",
          "name": "fee",
          "type": "uint256"
        }
      ],
      "name": "FlashLoan",
      "type": "event"
    },
    {
      "anonymous": false,
      "inputs": [
        {
          "indexed": true,
          "internalType": "uint256",
          "name": "pid",
          "type": "uint256"
        },
        {
          "indexed": true,
          "internalType": "address",
          "name": "lp",
          "type": "address"
        },
        {
          "indexed": false,
          "internalType": "uint256",
          "name": "amtA",
          "type": "uint256"
        },
        {
          "indexed": false,
          "internalType": "uint256",
          "name": "amtB",
          "type": "uint256"
        },
        {
          "indexed": false,
          "internalType": "uint256",
          "name": "lpMinted",
          "type": "uint256"
        }
      ],
      "name": "LiquidityAdded",
      "type": "event"
    },
    {
      "anonymous": false,
      "inputs": [
        {
          "indexed": true,
          "internalType": "uint256",
          "name": "pid",
          "type": "uint256"
        },
        {
          "indexed": true,
          "internalType": "address",
          "name": "lp",
          "type": "address"
        },
        {
          "indexed": false,
          "internalType": "uint256",
          "name": "amtA",
          "type": "uint256"
        },
        {
          "indexed": false,
          "internalType": "uint256",
          "name": "amtB",
          "type": "uint256"
        },
        {
          "indexed": false,
          "internalType": "uint256",
          "name": "lpBurned",
          "type": "uint256"
        }
      ],
      "name": "LiquidityRemoved",
      "type": "event"
    },
    {
      "anonymous": false,
      "inputs": [
        {
          "indexed": true,
          "internalType": "address",
          "name": "previousOwner",
          "type": "address"
        },
        {
          "indexed": true,
          "internalType": "address",
          "name": "newOwner",
          "type": "address"
        }
      ],
      "name": "OwnershipTransferStarted",
      "type": "event"
    },
    {
      "anonymous": false,
      "inputs": [
        {
          "indexed": true,
          "internalType": "address",
          "name": "previousOwner",
          "type": "address"
        },
        {
          "indexed": true,
          "internalType": "address",
          "name": "newOwner",
          "type": "address"
        }
      ],
      "name": "OwnershipTransferred",
      "type": "event"
    },
    {
      "anonymous": false,
      "inputs": [
        {
          "indexed": true,
          "internalType": "uint256",
          "name": "pid",
          "type": "uint256"
        },
        {
          "indexed": false,
          "internalType": "address",
          "name": "tokenA",
          "type": "address"
        },
        {
          "indexed": false,
          "internalType": "address",
          "name": "tokenB",
          "type": "address"
        },
        {
          "indexed": false,
          "internalType": "uint256",
          "name": "feeBps",
          "type": "uint256"
        }
      ],
      "name": "PoolCreated",
      "type": "event"
    },
    {
      "anonymous": false,
      "inputs": [
        {
          "indexed": true,
          "internalType": "uint256",
          "name": "pid",
          "type": "uint256"
        },
        {
          "indexed": true,
          "internalType": "address",
          "name": "trader",
          "type": "address"
        },
        {
          "indexed": false,
          "internalType": "address",
          "name": "tokenIn",
          "type": "address"
        },
        {
          "indexed": false,
          "internalType": "uint256",
          "name": "amtIn",
          "type": "uint256"
        },
        {
          "indexed": false,
          "internalType": "address",
          "name": "tokenOut",
          "type": "address"
        },
        {
          "indexed": false,
          "internalType": "uint256",
          "name": "amtOut",
          "type": "uint256"
        },
        {
          "indexed": false,
          "internalType": "uint256",
          "name": "fee",
          "type": "uint256"
        }
      ],
      "name": "Swap",
      "type": "event"
    },
    {
      "anonymous": false,
      "inputs": [
        {
          "indexed": true,
          "internalType": "uint256",
          "name": "pid",
          "type": "uint256"
        },
        {
          "indexed": true,
          "internalType": "address",
          "name": "lp",
          "type": "address"
        },
        {
          "indexed": false,
          "internalType": "uint256",
          "name": "amount",
          "type": "uint256"
        }
      ],
      "name": "WIKHarvested",
      "type": "event"
    },
    {
      "inputs": [],
      "name": "BPS",
      "outputs": [
        {
          "internalType": "uint256",
          "name": "",
          "type": "uint256"
        }
      ],
      "stateMutability": "view",
      "type": "function"
    },
    {
      "inputs": [],
      "name": "CREATE_FEE_USDC",
      "outputs": [
        {
          "internalType": "uint256",
          "name": "",
          "type": "uint256"
        }
      ],
      "stateMutability": "view",
      "type": "function"
    },
    {
      "inputs": [],
      "name": "FLASH_FEE_BPS",
      "outputs": [
        {
          "internalType": "uint256",
          "name": "",
          "type": "uint256"
        }
      ],
      "stateMutability": "view",
      "type": "function"
    },
    {
      "inputs": [],
      "name": "MIN_LP",
      "outputs": [
        {
          "internalType": "uint256",
          "name": "",
          "type": "uint256"
        }
      ],
      "stateMutability": "view",
      "type": "function"
    },
    {
      "inputs": [],
      "name": "PRECISION",
      "outputs": [
        {
          "internalType": "uint256",
          "name": "",
          "type": "uint256"
        }
      ],
      "stateMutability": "view",
      "type": "function"
    },
    {
      "inputs": [],
      "name": "PROTOCOL_SHARE",
      "outputs": [
        {
          "internalType": "uint256",
          "name": "",
          "type": "uint256"
        }
      ],
      "stateMutability": "view",
      "type": "function"
    },
    {
      "inputs": [],
      "name": "TIER_HIGH",
      "outputs": [
        {
          "internalType": "uint256",
          "name": "",
          "type": "uint256"
        }
      ],
      "stateMutability": "view",
      "type": "function"
    },
    {
      "inputs": [],
      "name": "TIER_LOW",
      "outputs": [
        {
          "internalType": "uint256",
          "name": "",
          "type": "uint256"
        }
      ],
      "stateMutability": "view",
      "type": "function"
    },
    {
      "inputs": [],
      "name": "TIER_MID",
      "outputs": [
        {
          "internalType": "uint256",
          "name": "",
          "type": "uint256"
        }
      ],
      "stateMutability": "view",
      "type": "function"
    },
    {
      "inputs": [],
      "name": "USDC",
      "outputs": [
        {
          "internalType": "contract IERC20",
          "name": "",
          "type": "address"
        }
      ],
      "stateMutability": "view",
      "type": "function"
    },
    {
      "inputs": [],
      "name": "WIK",
      "outputs": [
        {
          "internalType": "contract IERC20",
          "name": "",
          "type": "address"
        }
      ],
      "stateMutability": "view",
      "type": "function"
    },
    {
      "inputs": [],
      "name": "acceptOwnership",
      "outputs": [],
      "stateMutability": "nonpayable",
      "type": "function"
    },
    {
      "inputs": [
        {
          "internalType": "uint256",
          "name": "pid",
          "type": "uint256"
        },
        {
          "internalType": "uint256",
          "name": "amtA",
          "type": "uint256"
        },
        {
          "internalType": "uint256",
          "name": "amtB",
          "type": "uint256"
        },
        {
          "internalType": "uint256",
          "name": "minLP",
          "type": "uint256"
        }
      ],
      "name": "addLiquidity",
      "outputs": [
        {
          "internalType": "uint256",
          "name": "lpMinted",
          "type": "uint256"
        }
      ],
      "stateMutability": "nonpayable",
      "type": "function"
    },
    {
      "inputs": [
        {
          "internalType": "uint256",
          "name": "pid",
          "type": "uint256"
        }
      ],
      "name": "claimFees",
      "outputs": [],
      "stateMutability": "nonpayable",
      "type": "function"
    },
    {
      "inputs": [
        {
          "internalType": "uint256",
          "name": "pid",
          "type": "uint256"
        }
      ],
      "name": "claimWIK",
      "outputs": [],
      "stateMutability": "nonpayable",
      "type": "function"
    },
    {
      "inputs": [
        {
          "internalType": "address",
          "name": "tokenA",
          "type": "address"
        },
        {
          "internalType": "address",
          "name": "tokenB",
          "type": "address"
        },
        {
          "internalType": "uint256",
          "name": "feeBps",
          "type": "uint256"
        }
      ],
      "name": "createPool",
      "outputs": [
        {
          "internalType": "uint256",
          "name": "pid",
          "type": "uint256"
        }
      ],
      "stateMutability": "nonpayable",
      "type": "function"
    },
    {
      "inputs": [
        {
          "internalType": "uint256",
          "name": "pid",
          "type": "uint256"
        },
        {
          "internalType": "address",
          "name": "token",
          "type": "address"
        },
        {
          "internalType": "uint256",
          "name": "amount",
          "type": "uint256"
        },
        {
          "internalType": "bytes",
          "name": "data",
          "type": "bytes"
        }
      ],
      "name": "flashLoan",
      "outputs": [],
      "stateMutability": "nonpayable",
      "type": "function"
    },
    {
      "inputs": [
        {
          "internalType": "uint256",
          "name": "pid",
          "type": "uint256"
        },
        {
          "internalType": "address",
          "name": "tokenIn",
          "type": "address"
        },
        {
          "internalType": "uint256",
          "name": "amtIn",
          "type": "uint256"
        }
      ],
      "name": "getAmountOut",
      "outputs": [
        {
          "internalType": "uint256",
          "name": "amtOut",
          "type": "uint256"
        }
      ],
      "stateMutability": "view",
      "type": "function"
    },
    {
      "inputs": [
        {
          "internalType": "uint256",
          "name": "pid",
          "type": "uint256"
        }
      ],
      "name": "getPool",
      "outputs": [
        {
          "components": [
            {
              "internalType": "address",
              "name": "tokenA",
              "type": "address"
            },
            {
              "internalType": "address",
              "name": "tokenB",
              "type": "address"
            },
            {
              "internalType": "uint256",
              "name": "feeBps",
              "type": "uint256"
            },
            {
              "internalType": "uint256",
              "name": "reserveA",
              "type": "uint256"
            },
            {
              "internalType": "uint256",
              "name": "reserveB",
              "type": "uint256"
            },
            {
              "internalType": "uint256",
              "name": "totalLP",
              "type": "uint256"
            },
            {
              "internalType": "uint256",
              "name": "feeGrowthA",
              "type": "uint256"
            },
            {
              "internalType": "uint256",
              "name": "feeGrowthB",
              "type": "uint256"
            },
            {
              "internalType": "uint256",
              "name": "protocolFeeA",
              "type": "uint256"
            },
            {
              "internalType": "uint256",
              "name": "protocolFeeB",
              "type": "uint256"
            },
            {
              "internalType": "uint256",
              "name": "totalVolumeA",
              "type": "uint256"
            },
            {
              "internalType": "uint256",
              "name": "wikPerSecond",
              "type": "uint256"
            },
            {
              "internalType": "uint256",
              "name": "accWIKPerLP",
              "type": "uint256"
            },
            {
              "internalType": "uint256",
              "name": "lastWIKTime",
              "type": "uint256"
            },
            {
              "internalType": "bool",
              "name": "active",
              "type": "bool"
            }
          ],
          "internalType": "struct WikiLP.Pool",
          "name": "",
          "type": "tuple"
        }
      ],
      "stateMutability": "view",
      "type": "function"
    },
    {
      "inputs": [
        {
          "internalType": "uint256",
          "name": "pid",
          "type": "uint256"
        },
        {
          "internalType": "address",
          "name": "lp",
          "type": "address"
        }
      ],
      "name": "getPosition",
      "outputs": [
        {
          "components": [
            {
              "internalType": "uint256",
              "name": "lpBalance",
              "type": "uint256"
            },
            {
              "internalType": "uint256",
              "name": "feeDebtA",
              "type": "uint256"
            },
            {
              "internalType": "uint256",
              "name": "feeDebtB",
              "type": "uint256"
            },
            {
              "internalType": "uint256",
              "name": "wikDebt",
              "type": "uint256"
            }
          ],
          "internalType": "struct WikiLP.LPPosition",
          "name": "",
          "type": "tuple"
        }
      ],
      "stateMutability": "view",
      "type": "function"
    },
    {
      "inputs": [],
      "name": "owner",
      "outputs": [
        {
          "internalType": "address",
          "name": "",
          "type": "address"
        }
      ],
      "stateMutability": "view",
      "type": "function"
    },
    {
      "inputs": [
        {
          "internalType": "bytes32",
          "name": "",
          "type": "bytes32"
        }
      ],
      "name": "pairToPool",
      "outputs": [
        {
          "internalType": "uint256",
          "name": "",
          "type": "uint256"
        }
      ],
      "stateMutability": "view",
      "type": "function"
    },
    {
      "inputs": [
        {
          "internalType": "uint256",
          "name": "pid",
          "type": "uint256"
        },
        {
          "internalType": "address",
          "name": "lp",
          "type": "address"
        }
      ],
      "name": "pendingFees",
      "outputs": [
        {
          "internalType": "uint256",
          "name": "feeA",
          "type": "uint256"
        },
        {
          "internalType": "uint256",
          "name": "feeB",
          "type": "uint256"
        }
      ],
      "stateMutability": "view",
      "type": "function"
    },
    {
      "inputs": [],
      "name": "pendingOwner",
      "outputs": [
        {
          "internalType": "address",
          "name": "",
          "type": "address"
        }
      ],
      "stateMutability": "view",
      "type": "function"
    },
    {
      "inputs": [],
      "name": "poolCount",
      "outputs": [
        {
          "internalType": "uint256",
          "name": "",
          "type": "uint256"
        }
      ],
      "stateMutability": "view",
      "type": "function"
    },
    {
      "inputs": [
        {
          "internalType": "uint256",
          "name": "",
          "type": "uint256"
        }
      ],
      "name": "pools",
      "outputs": [
        {
          "internalType": "address",
          "name": "tokenA",
          "type": "address"
        },
        {
          "internalType": "address",
          "name": "tokenB",
          "type": "address"
        },
        {
          "internalType": "uint256",
          "name": "feeBps",
          "type": "uint256"
        },
        {
          "internalType": "uint256",
          "name": "reserveA",
          "type": "uint256"
        },
        {
          "internalType": "uint256",
          "name": "reserveB",
          "type": "uint256"
        },
        {
          "internalType": "uint256",
          "name": "totalLP",
          "type": "uint256"
        },
        {
          "internalType": "uint256",
          "name": "feeGrowthA",
          "type": "uint256"
        },
        {
          "internalType": "uint256",
          "name": "feeGrowthB",
          "type": "uint256"
        },
        {
          "internalType": "uint256",
          "name": "protocolFeeA",
          "type": "uint256"
        },
        {
          "internalType": "uint256",
          "name": "protocolFeeB",
          "type": "uint256"
        },
        {
          "internalType": "uint256",
          "name": "totalVolumeA",
          "type": "uint256"
        },
        {
          "internalType": "uint256",
          "name": "wikPerSecond",
          "type": "uint256"
        },
        {
          "internalType": "uint256",
          "name": "accWIKPerLP",
          "type": "uint256"
        },
        {
          "internalType": "uint256",
          "name": "lastWIKTime",
          "type": "uint256"
        },
        {
          "internalType": "bool",
          "name": "active",
          "type": "bool"
        }
      ],
      "stateMutability": "view",
      "type": "function"
    },
    {
      "inputs": [
        {
          "internalType": "uint256",
          "name": "",
          "type": "uint256"
        },
        {
          "internalType": "address",
          "name": "",
          "type": "address"
        }
      ],
      "name": "positions",
      "outputs": [
        {
          "internalType": "uint256",
          "name": "lpBalance",
          "type": "uint256"
        },
        {
          "internalType": "uint256",
          "name": "feeDebtA",
          "type": "uint256"
        },
        {
          "internalType": "uint256",
          "name": "feeDebtB",
          "type": "uint256"
        },
        {
          "internalType": "uint256",
          "name": "wikDebt",
          "type": "uint256"
        }
      ],
      "stateMutability": "view",
      "type": "function"
    },
    {
      "inputs": [
        {
          "internalType": "uint256",
          "name": "pid",
          "type": "uint256"
        }
      ],
      "name": "price",
      "outputs": [
        {
          "internalType": "uint256",
          "name": "",
          "type": "uint256"
        }
      ],
      "stateMutability": "view",
      "type": "function"
    },
    {
      "inputs": [],
      "name": "protocolRevenue",
      "outputs": [
        {
          "internalType": "uint256",
          "name": "",
          "type": "uint256"
        }
      ],
      "stateMutability": "view",
      "type": "function"
    },
    {
      "inputs": [
        {
          "internalType": "uint256",
          "name": "pid",
          "type": "uint256"
        },
        {
          "internalType": "uint256",
          "name": "lpAmount",
          "type": "uint256"
        },
        {
          "internalType": "uint256",
          "name": "minA",
          "type": "uint256"
        },
        {
          "internalType": "uint256",
          "name": "minB",
          "type": "uint256"
        }
      ],
      "name": "removeLiquidity",
      "outputs": [
        {
          "internalType": "uint256",
          "name": "amtA",
          "type": "uint256"
        },
        {
          "internalType": "uint256",
          "name": "amtB",
          "type": "uint256"
        }
      ],
      "stateMutability": "nonpayable",
      "type": "function"
    },
    {
      "inputs": [],
      "name": "renounceOwnership",
      "outputs": [],
      "stateMutability": "nonpayable",
      "type": "function"
    },
    {
      "inputs": [
        {
          "internalType": "address",
          "name": "_tl",
          "type": "address"
        }
      ],
      "name": "setTimelock",
      "outputs": [],
      "stateMutability": "nonpayable",
      "type": "function"
    },
    {
      "inputs": [
        {
          "internalType": "uint256",
          "name": "pid",
          "type": "uint256"
        },
        {
          "internalType": "uint256",
          "name": "wps",
          "type": "uint256"
        }
      ],
      "name": "setWIKIncentive",
      "outputs": [],
      "stateMutability": "nonpayable",
      "type": "function"
    },
    {
      "inputs": [
        {
          "internalType": "uint256",
          "name": "pid",
          "type": "uint256"
        },
        {
          "internalType": "address",
          "name": "tokenIn",
          "type": "address"
        },
        {
          "internalType": "uint256",
          "name": "amtIn",
          "type": "uint256"
        },
        {
          "internalType": "uint256",
          "name": "amtOutMin",
          "type": "uint256"
        }
      ],
      "name": "swap",
      "outputs": [
        {
          "internalType": "uint256",
          "name": "amtOut",
          "type": "uint256"
        }
      ],
      "stateMutability": "nonpayable",
      "type": "function"
    },
    {
      "inputs": [],
      "name": "timelock",
      "outputs": [
        {
          "internalType": "address",
          "name": "",
          "type": "address"
        }
      ],
      "stateMutability": "view",
      "type": "function"
    },
    {
      "inputs": [],
      "name": "totalProtocolFeeA",
      "outputs": [
        {
          "internalType": "uint256",
          "name": "",
          "type": "uint256"
        }
      ],
      "stateMutability": "view",
      "type": "function"
    },
    {
      "inputs": [
        {
          "internalType": "address",
          "name": "newOwner",
          "type": "address"
        }
      ],
      "name": "transferOwnership",
      "outputs": [],
      "stateMutability": "nonpayable",
      "type": "function"
    },
    {
      "inputs": [
        {
          "internalType": "uint256",
          "name": "pid",
          "type": "uint256"
        },
        {
          "internalType": "address",
          "name": "to",
          "type": "address"
        }
      ],
      "name": "withdrawProtocolFees",
      "outputs": [],
      "stateMutability": "nonpayable",
      "type": "function"
    },
    {
      "inputs": [
        {
          "internalType": "address",
          "name": "to",
          "type": "address"
        }
      ],
      "name": "withdrawRevenue",
      "outputs": [],
      "stateMutability": "nonpayable",
      "type": "function"
    }
  ],
  "bytecode": "0x60c0346101c057601f61296b38819003918201601f19168301916001600160401b038311848410176101c4578084926060946040528339810103126101c057610047816101d8565b90610054602082016101d8565b906001600160a01b039061006a906040016101d8565b169182156101ad57600180546001600160a01b03199081169091555f80549182168517815560405194916001600160a01b0316907f8be0079c531659141344cd1fd0a4f28419497f9722a3daafe3b4186f6b6457e09080a360017f9b779b17422d0df92223018b32b4d1fa46e071723d6817e2486d003becc55f00556001600160a01b031691821561017957506001600160a01b03169081156101435760805260a05260405161277e90816101ed823960805181818161121c0152818161155001526116d2015260a0518181816113900152611a7a0152f35b60405162461bcd60e51b815260206004820152600e60248201526d57696b693a207a65726f2077696b60901b6044820152606490fd5b62461bcd60e51b815260206004820152600f60248201526e57696b693a207a65726f207573646360881b6044820152606490fd5b631e4fbdf760e01b5f525f60045260245ffd5b5f80fd5b634e487b7160e01b5f52604160045260245ffd5b51906001600160a01b03821682036101c05756fe60806040526004361015610011575f80fd5b5f803560e01c8062af038d1461210a578063050fedb81461150e57806305ce10c6146120ec578063068bcd8d14611efd57806319acec1814611ee25780631de23c0714611ae5578063249d39e914611ac857806326a49e3714611aa957806340b0229e14611a6457806351810fb5146115f957806351adc761146115dc57806356c60278146115be5780635e420f4c14611513578063642de4ab1461150e578063715018a6146114a95780637411f7d1146112ee57806379ba5097146112695780637af3816c1461124b57806389a30271146112065780638da5cb5b146111df57806398fdaed0146111b55780639c8957b114611199578063a7f199f71461115f578063aaf5eb681461113c578063ac4afa381461104d578063ac68a74814610ece578063aebf3e4114610b79578063b33daea9146107db578063bdacb30314610759578063d29f541d146106af578063d33219b414610686578063d8a8d901146105d2578063e30c3978146105a9578063e684d71814610542578063f0365efb14610525578063f2fde38b146104b8578063f525cb681461049a578063f88bf15a1461028b5763fc0072e8146101c6575f80fd5b3461028857604036600319011261028857604090600435906101e66121ce565b6101ef83612215565b5092825260056020528382209060018060a01b03165f52602052825f2091670de0b6b3a7640000610236845460078361022c6006870154846123d3565b04940154906123d3565b04906001840154908181115f1461027d5760029161025391612404565b935b015490818111156102765761026a9250612404565b82519182526020820152f35b505061026a565b505060028293610255565b80fd5b50346102885761029a36612245565b9190926102a56124cd565b60406102b082612215565b509582815260056020522060018060a01b0333165f5260205260405f20938285541061045f576102df826125ef565b6102e93383612676565b6003860154906102f982856123d3565b966005810154978861030a916123e6565b9687938660048401549a8061031f8d846123d3565b90610329916123e6565b998a80978910159d61035860409f9a61036c976103538d610362976103f29f610454575b5061246c565b612404565b6003890155612404565b6004860155612404565b60058301556003670de0b6b3a76400006103c261038a898554612404565b8085558261039c6006880154836123d3565b046001860155826103b16007880154836123d3565b046002860155600c860154906123d3565b0491015580546103de90889033906001600160a01b0316612505565b6001015433906001600160a01b0316612505565b7f9c27aedc1d1fccd4271dc15980dab26a907cdb41ed08aef747c6d0a9680f55ce85518061043433958789846040919493926060820195825260208201520152565b0390a360015f805160206127298339815191525582519182526020820152f35b90508610155f61034d565b60405162461bcd60e51b815260206004820152601360248201527204c503a20696e73756666696369656e74204c5606c1b6044820152606490fd5b50346102885780600319360112610288576020600354604051908152f35b5034610288576020366003190112610288576104d26121e4565b6104da6124a7565b600180546001600160a01b0319166001600160a01b0392831690811790915582549091167f38d16b8cac22d99fc7c124b9cd0de2d3fa1faef420bfe791d8c362d765e227008380a380f35b503461028857806003193601126102885760206040516103e88152f35b503461028857604036600319011261028857604061055e6121ce565b9160043581526005602052209060018060a01b03165f52602052608060405f208054906001810154906003600282015491015491604051938452602084015260408301526060820152f35b50346102885780600319360112610288576001546040516001600160a01b039091168152602090f35b50346102885760603660031901126102885761066060209161065a6105f56121ce565b61065461064d604435610609600435612215565b50805490946001600160a01b03908116911614801561067b576003850154965b50156106685761271061064660026004870154965b0154836123d3565b0490612404565b91826123d3565b92612411565b906123e6565b604051908152f35b612710610646600260038701549661063e565b600485015496610629565b50346102885780600319360112610288576002546040516001600160a01b039091168152602090f35b50346102885760403660031901126102885760406106cb6121ce565b9180606083516106da816122ce565b8281528260208201528285820152015260043581526005602052209060018060a01b03165f52602052608060405f20604051610715816122ce565b815491828252600181015460208301908152606060036002840154936040860194855201549301928352604051938452516020840152516040830152516060820152f35b5034610288576020366003190112610288576107736121e4565b61077b6124a7565b6001600160a01b031680156107a0576001600160601b0360a01b600254161760025580f35b60405162461bcd60e51b815260206004820152601360248201527257696b693a207a65726f2074696d656c6f636b60681b6044820152606490fd5b5034610288576080366003190112610288576004356107f86121ce565b604435916108046124cd565b61080d81612215565b5061081e60ff600e8301541661230c565b80546001600160a01b03938416931683148015610b63575b61083f90612347565b8315610b2d5761084e826125ef565b80546001600160a01b03168314938415610b22576003820154915b8515610b17576004810154955b6108a361271061088a6002850154866123d3565b049461065a6108998787612404565b6106548b826123d3565b966064358810610ad2576108b8908810612387565b6107d084028481046107d01485151715610abe5761271090046108db8186612404565b908215610a2f57600384016108f1868254612411565b9055600484016109028a8254612404565b905561091360088501918254612411565b9055600a8301610924858254612411565b9055600583015490816109d5575b50506020975b50156109c657600101546001600160a01b03165b61095882303388612586565b6001600160a01b03169061096d863384612505565b60405194855286850152604084015283606084015260808301527f1dc1318e510be635ca54a6e403d4b147c1f0b99ca49c820dffb52ff63564f4ed60a03393a360015f8051602061272983398151915255604051908152f35b546001600160a01b031661094c565b670de0b6b3a7640000810290808204670de0b6b3a76400001490151715610a1b5760209991610a03916123e6565b610a1260068501918254612411565b9055975f610932565b634e487b7160e01b8a52601160045260248afd5b60048401610a3e868254612411565b905560038401610a4f8a8254612404565b9055610a6060098501918254612411565b905560058301549081610a78575b5050602097610938565b670de0b6b3a7640000810290808204670de0b6b3a76400001490151715610a1b5760209991610aa6916123e6565b610ab560078501918254612411565b9055975f610a6e565b634e487b7160e01b89526011600452602489fd5b60405162461bcd60e51b815260206004820152601760248201527f4c503a20696e73756666696369656e74206f75747075740000000000000000006044820152606490fd5b600381015495610876565b600482015491610869565b60405162461bcd60e51b815260206004820152600e60248201526d13140e881e995c9bc81a5b9c1d5d60921b6044820152606490fd5b5060018101546001600160a01b03168314610836565b503461028857610b8836612245565b610b94939192936124cd565b610b9d82612215565b509460ff600e8701541615610e955784151580610e8c575b15610e5457610bc3836125ef565b610bcd3384612676565b600586018054959490818688610d5c57610bef91610bea916123d3565b6126e2565b6103e719810197908811610d48578715610d035760209860408995610cd294610c6a888896610c427f089607a52cca0d390ff7d0ad4e97545804dcc41418e1daee9ec3948596fec9449c5b83101561246c565b8d610c5260038901918254612411565b905560048701610c63898254612411565b9055612411565b905588815260058c522060018060a01b0333165f528a5260405f206003670de0b6b3a7640000610c9e61038a898554612411565b049101558054610cbc908990309033906001600160a01b0316612586565b60010154309033906001600160a01b0316612586565b6040805195865260208601919091528401523392606090a360015f8051602061272983398151915255604051908152f35b60405162461bcd60e51b815260206004820152601b60248201527f4c503a206669727374206465706f73697420746f6f20736d616c6c00000000006044820152606490fd5b634e487b7160e01b84526011600452602484fd5b88610d6d919a92939694959a6123d3565b610d8689610d80600385015480946123e6565b946123d3565b94610d96600484015480976123e6565b9081851015610df65750505087908298610db28a9687956123d3565b90610dbc916123e6565b9360209a7f089607a52cca0d390ff7d0ad4e97545804dcc41418e1daee9ec3948596fec94497610c6a610cd2968896610c42604096610c3a565b9490859392979b99508096508a945099610e128b9889986123d3565b90610e1c916123e6565b9860209b610c6a7f089607a52cca0d390ff7d0ad4e97545804dcc41418e1daee9ec3948596fec94499610cd297610c42604096610c3a565b60405162461bcd60e51b815260206004820152601060248201526f4c503a207a65726f20616d6f756e747360801b6044820152606490fd5b50831515610bb5565b60405162461bcd60e51b81526020600482015260116024820152704c503a20706f6f6c20696e61637469766560781b6044820152606490fd5b503461028857602036600319011261028857600435610eeb6124cd565b610ef4816125ef565b610efe3382612676565b610f0781612215565b509080835260056020526040832060018060a01b0333165f5260205260405f2091825490670de0b6b3a7640000610f5381610f466006850154866123d3565b04936007840154906123d3565b04600185019081548085115f1461104357610f7060029186612404565b965b0180548083111561103b57610f879083612404565b945b87159384158095611032575b610f9e90612263565b5555611015575b8180610ff3575b505060405192835260208301527fa12703c615016494fb33f9be7dc02fea09b362fc0f730b0d1094cf0a61284bc960403393a360015f805160206127298339815191525580f35b60019091015461100e919033906001600160a01b0316612505565b5f81610fac565b805461102d90859033906001600160a01b0316612505565b610fa5565b50861515610f95565b508794610f89565b5060028796610f72565b5034610288576020366003190112610288576004356003548110156111385761107590612215565b50600160a01b60019003815416600160a01b6001900360018301541691600281015460038201546004830154600584015460068501546007860154600887015491600988015493600a89015495600b8a015497600c8b015499600d8c01549b600e015460ff169c6040519e8f91825260208201526040015260608d015260808c015260a08b015260c08a015260e08901526101008801526101208701526101408601526101608501526101808401526101a083015215156101c08201526101e090f35b5080fd5b50346102885780600319360112610288576020604051670de0b6b3a76400008152f35b50346102885760403660031901126102885761118d60043561117f6124a7565b611188816125ef565b612215565b50600b60243591015580f35b50346102885780600319360112610288576020604051601e8152f35b50346102885760203660031901126102885760406020916004358152600483522054604051908152f35b5034610288578060031936011261028857546040516001600160a01b039091168152602090f35b50346102885780600319360112610288576040517f00000000000000000000000000000000000000000000000000000000000000006001600160a01b03168152602090f35b50346102885780600319360112610288576020600754604051908152f35b5034610288578060031936011261028857600154336001600160a01b03909116036112db57600180546001600160a01b0319908116909155815433918116821783556001600160a01b03167f8be0079c531659141344cd1fd0a4f28419497f9722a3daafe3b4186f6b6457e08380a380f35b63118cdaa760e01b815233600452602490fd5b50346102885760203660031901126102885760043561130b6124cd565b611314816125ef565b61131d81612215565b509080835260056020526040832060018060a01b0333165f526020526003670de0b6b3a764000061135960405f2094600c8654910154906123d3565b0492019182548082115f146114a1576113729082612404565b925b831561146f57556040516370a0823160e01b81523060048201527f00000000000000000000000000000000000000000000000000000000000000006020826024816001600160a01b0385165afa801561146457859061142c575b6113e492508085111561142457905b3390612505565b6040519182527f039613977950d0716ba20fee8e86cdc81f028b53f87d901b26f8faf5071b7b6c60203393a360015f805160206127298339815191525580f35b5083906113dd565b506020823d60201161145c575b81611446602093836122ea565b81010312611458576113e491516113ce565b5f80fd5b3d9150611439565b6040513d87823e3d90fd5b60405162461bcd60e51b815260206004820152600a6024820152694c503a206e6f2057494b60b01b6044820152606490fd5b508392611374565b50346102885780600319360112610288576114c26124a7565b600180546001600160a01b03199081169091558154908116825581906001600160a01b03167f8be0079c531659141344cd1fd0a4f28419497f9722a3daafe3b4186f6b6457e08280a380f35b6121fa565b50346102885760203660031901126102885761152d6121e4565b6115356124a7565b61153d6124cd565b60075480156115885761157491836007557f0000000000000000000000000000000000000000000000000000000000000000612505565b60015f805160206127298339815191525580f35b60405162461bcd60e51b815260206004820152600e60248201526d4c503a206e6f20726576656e756560901b6044820152606490fd5b50346102885780600319360112610288576020600654604051908152f35b503461028857806003193601126102885760206040516107d08152f35b5034610288576060366003190112610288576116136121e4565b61161b6121ce565b906116246124cd565b81816001600160a01b03808316908216808214611a2e576005604435148015611a22575b8015611a16575b156119da57116119cf575b505060405160208101906001600160601b03198360601b1682526001600160601b03198460601b16603482015260443560488201526048815261169e6068826122ea565b5190209182845260046020526040842054611998576040516323b872dd60e01b85523360045230602452631dcd65006044527f00000000000000000000000000000000000000000000000000000000000000009060208660648180865af1906001875114821615611977575b604052856060521561195c5750600754631dcd65008101809111611920576007556003549260405161173b8161229d565b60018060a01b038416815260018060a01b038316602082015260443560408201528560608201528560808201528560a08201528560c08201528560e08201528561010082015285610120820152856101408201528561016082015285610180820152426101a082015260016101c08201526801000000000000000085101561194857600185016003556117cd85612215565b61193457815181546001600160a01b039182166001600160a01b031991821617835560208401516001808501805492909416919092161790915560408301516002830155606083015160038301556080830151600483015560a0830151600583015560c0830151600683015560e0830151600783015561010083015160088301556101208301516009830155610140830151600a830155610160830151600b830155610180830151600c8301556101a0830151600d8301556101c090920151600e909101805460ff191691151560ff16919091179055840184116119205783927ff756876565d755443228c555dcee8573d6405d9be751ac121eb5e386ed86913a928660609360209852600488526040600187019120556040519160018060a01b0316825260018060a01b0316868201526044356040820152a260015f8051602061272983398151915255604051908152f35b634e487b7160e01b85526011600452602485fd5b634e487b7160e01b87526004879052602487fd5b634e487b7160e01b86526041600452602486fd5b635274afe760e01b85526001600160a01b0316600452602484fd5b90600181151661198f57823b15153d1516169061170a565b503d86823e3d90fd5b60405162461bcd60e51b815260206004820152600f60248201526e4c503a20706f6f6c2065786973747360881b6044820152606490fd5b925090505f8061165a565b60405162461bcd60e51b815260206004820152601460248201527326281d1034b73b30b634b2103332b2903a34b2b960611b6044820152606490fd5b5060646044351461164f565b50601e60443514611648565b60405162461bcd60e51b815260206004820152600e60248201526d26281d1039b0b6b2903a37b5b2b760911b6044820152606490fd5b50346102885780600319360112610288576040517f00000000000000000000000000000000000000000000000000000000000000006001600160a01b03168152602090f35b503461028857602036600319011261028857602061066060043561241e565b503461028857806003193601126102885760206040516127108152f35b503461145857608036600319011261145857600435611b026121ce565b9060643560443567ffffffffffffffff8211611458573660238301121561145857816004013567ffffffffffffffff811161145857366024828501011161145857611b4b6124cd565b611b5484612215565b5090611b6660ff600e8401541661230c565b81546001600160a01b03968716961686148015611ecc575b611b8790612347565b6040516370a0823160e01b8152306004820152936020856024818a5afa948515611e79575f95611e98575b50611bbf84861015612387565b6005840284810460051485151715611e84576127109004946107d086028681046107d01487151715611e8457612710900491611bfb8388612404565b93611c0787338c612505565b333b15611458578660a48b835f9460248d976040519889978896639caee11360e01b885260048801528387015260448601526080606486015282608486015201848401378181018301859052601f01601f1916810103018183335af18015611e7957611e64575b506040516370a0823160e01b81523060048201526020816024818c5afa908115611e595787908b92611e23575b50611ca69192612411565b11611dde5782546001600160a01b03168703611d7f57611ccb60088401918254612411565b905560058201549081611d27575b5050505b604051938452602084015260408301527f87c524b52f5f291b751e3cc567f37e3c423b48770a3827e589e48a4a17728ec460603393a360015f805160206127298339815191525580f35b670de0b6b3a7640000810290808204670de0b6b3a76400001490151715611d6b57611d57611d61926006926123e6565b9201918254612411565b90555f8080611cd9565b634e487b7160e01b88526011600452602488fd5b611d8e60098401918254612411565b905560058201549081611da4575b505050611cdd565b670de0b6b3a7640000810290808204670de0b6b3a76400001490151715611d6b57611d57611dd4926007926123e6565b90555f8080611d9c565b60405162461bcd60e51b815260206004820152601960248201527f4c503a20666c617368206c6f616e206e6f7420726570616964000000000000006044820152606490fd5b9150506020813d602011611e51575b81611e3f602093836122ea565b81010312611458575186611ca6611c9b565b3d9150611e32565b6040513d8c823e3d90fd5b611e719199505f906122ea565b5f975f611c6e565b6040513d5f823e3d90fd5b634e487b7160e01b5f52601160045260245ffd5b9094506020813d602011611ec4575b81611eb4602093836122ea565b810103126114585751935f611bb2565b3d9150611ea7565b5060018201546001600160a01b03168614611b7e565b34611458575f36600319011261145857602060405160648152f35b3461145857602036600319011261145857604051611f1a8161229d565b5f8152602081015f9052604081015f9052606081015f9052608081015f905260a081015f905260c081015f905260e081015f905261010081015f905261012081015f905261014081015f905261016081015f905261018081015f90526101a081015f90526101c0015f9052600435611f9190612215565b50604051611f9e8161229d565b8080600160a01b6001900384541693848252600160a01b60019003600182015416946020830195865260028201549060408401918252600383015460608501908152600484015460808601908152600585015460a0870190815260068601549060c0880191825260078701549260e089019384526008880154946101008a019586526009890154966101208b01978852600a8a0154986101408c01998a52600b8b01549a6101608d019b8c52600c8101549c610180019c8d52600d8101549d6101a0019d8e52600e015460ff169d6101c001809e151590526040519e8f928352600160a01b6001900390511660208301525190604001525160608d01525160808c01525160a08b01525160c08a01525160e08901525161010088015251610120870152516101408601525161016085015251610180840152516101a08301525115156101c08201526101e090f35b34611458575f366003190112611458576020604051631dcd65008152f35b34611458576040366003190112611458576121236121ce565b61212b6124a7565b6121336124cd565b61213e600435612215565b50906008820190815460098401925f84549481841593841580956121c5575b61216690612263565b55556121a8575b5081612187575b60015f8051602061272983398151915255005b6001909201546121a092906001600160a01b0316612505565b808080612174565b83546121bf919083906001600160a01b0316612505565b8361216d565b5087151561215d565b602435906001600160a01b038216820361145857565b600435906001600160a01b038216820361145857565b34611458575f36600319011261145857602060405160058152f35b6003548110156122315760035f52600f60205f20910201905f90565b634e487b7160e01b5f52603260045260245ffd5b60809060031901126114585760043590602435906044359060643590565b1561226a57565b60405162461bcd60e51b815260206004820152600b60248201526a4c503a206e6f206665657360a81b6044820152606490fd5b6101e0810190811067ffffffffffffffff8211176122ba57604052565b634e487b7160e01b5f52604160045260245ffd5b6080810190811067ffffffffffffffff8211176122ba57604052565b90601f8019910116810190811067ffffffffffffffff8211176122ba57604052565b1561231357565b60405162461bcd60e51b815260206004820152600c60248201526b4c503a20696e61637469766560a01b6044820152606490fd5b1561234e57565b60405162461bcd60e51b815260206004820152601160248201527026281d1034b73b30b634b2103a37b5b2b760791b6044820152606490fd5b1561238e57565b60405162461bcd60e51b815260206004820152601a60248201527f4c503a20696e73756666696369656e74206c69717569646974790000000000006044820152606490fd5b81810292918115918404141715611e8457565b81156123f0570490565b634e487b7160e01b5f52601260045260245ffd5b91908203918211611e8457565b91908201809211611e8457565b61242790612215565b506003810154908115612466576004015490670de0b6b3a7640000820291808304670de0b6b3a76400001490151715611e8457612463916123e6565b90565b50505f90565b1561247357565b60405162461bcd60e51b815260206004820152600c60248201526b4c503a20736c69707061676560a01b6044820152606490fd5b5f546001600160a01b031633036124ba57565b63118cdaa760e01b5f523360045260245ffd5b60025f8051602061272983398151915254146124f65760025f8051602061272983398151915255565b633ee5aeb560e01b5f5260045ffd5b916040519163a9059cbb60e01b5f5260018060a01b031660045260245260205f60448180865af19060015f5114821615612565575b604052156125455750565b635274afe760e01b5f9081526001600160a01b0391909116600452602490fd5b90600181151661257d57823b15153d1516169061253a565b503d5f823e3d90fd5b6040516323b872dd60e01b5f9081526001600160a01b039384166004529290931660245260449390935260209060648180865af19060015f51148216156125d7575b6040525f606052156125455750565b90600181151661257d57823b15153d151616906125c8565b6125f890612215565b50600b810154908115801561266a575b61266057612624600d82019261261f845442612404565b6123d3565b670de0b6b3a7640000810290808204670de0b6b3a76400001490151715611e8457600c611d57612659926005850154906123e6565b9055429055565b9050600d42910155565b50600581015415612608565b9061268082612215565b50915f52600560205260405f209060018060a01b03165f5260205260405f2090815480156126dd576126d7670de0b6b3a764000091600784846126c960066002980154856123d3565b0460018801550154906123d3565b04910155565b505050565b9081156127235760018201808311611e845760011c825b838210612704575050565b90925061271a8361271581846123e6565b612411565b60011c906126f9565b5f915056fe9b779b17422d0df92223018b32b4d1fa46e071723d6817e2486d003becc55f00a2646970667358221220ec086c9ea13f62757fb5021c656d3e5216e9a8507e93b7489c68c7b83f5158b864736f6c634300081a0033",
  "linkReferences": {},
  "deployedLinkReferences": {}
}