{
  "_format": "hh-sol-artifact-1",
  "contractName": "WikiCrossChainLending",
  "sourceName": "src/WikiCrossChainLending.sol",
  "abi": [
    {
      "inputs": [
        {
          "internalType": "address",
          "name": "_lzEndpoint",
          "type": "address"
        },
        {
          "internalType": "address",
          "name": "_oracle",
          "type": "address"
        },
        {
          "internalType": "address",
          "name": "_usdc",
          "type": "address"
        },
        {
          "internalType": "address",
          "name": "_owner",
          "type": "address"
        }
      ],
      "stateMutability": "nonpayable",
      "type": "constructor"
    },
    {
      "inputs": [],
      "name": "EnforcedPause",
      "type": "error"
    },
    {
      "inputs": [],
      "name": "ExpectedPause",
      "type": "error"
    },
    {
      "inputs": [
        {
          "internalType": "address",
          "name": "owner",
          "type": "address"
        }
      ],
      "name": "OwnableInvalidOwner",
      "type": "error"
    },
    {
      "inputs": [
        {
          "internalType": "address",
          "name": "account",
          "type": "address"
        }
      ],
      "name": "OwnableUnauthorizedAccount",
      "type": "error"
    },
    {
      "inputs": [],
      "name": "ReentrancyGuardReentrantCall",
      "type": "error"
    },
    {
      "inputs": [
        {
          "internalType": "address",
          "name": "token",
          "type": "address"
        }
      ],
      "name": "SafeERC20FailedOperation",
      "type": "error"
    },
    {
      "anonymous": false,
      "inputs": [
        {
          "indexed": true,
          "internalType": "address",
          "name": "user",
          "type": "address"
        },
        {
          "indexed": false,
          "internalType": "uint256",
          "name": "supplyId",
          "type": "uint256"
        },
        {
          "indexed": false,
          "internalType": "uint256",
          "name": "amount",
          "type": "uint256"
        },
        {
          "indexed": false,
          "internalType": "uint256",
          "name": "borrowId",
          "type": "uint256"
        }
      ],
      "name": "Borrowed",
      "type": "event"
    },
    {
      "anonymous": false,
      "inputs": [
        {
          "indexed": true,
          "internalType": "uint256",
          "name": "borrowId",
          "type": "uint256"
        },
        {
          "indexed": false,
          "internalType": "address",
          "name": "liquidator",
          "type": "address"
        },
        {
          "indexed": false,
          "internalType": "uint256",
          "name": "seized",
          "type": "uint256"
        }
      ],
      "name": "Liquidated",
      "type": "event"
    },
    {
      "anonymous": false,
      "inputs": [
        {
          "indexed": true,
          "internalType": "address",
          "name": "previousOwner",
          "type": "address"
        },
        {
          "indexed": true,
          "internalType": "address",
          "name": "newOwner",
          "type": "address"
        }
      ],
      "name": "OwnershipTransferStarted",
      "type": "event"
    },
    {
      "anonymous": false,
      "inputs": [
        {
          "indexed": true,
          "internalType": "address",
          "name": "previousOwner",
          "type": "address"
        },
        {
          "indexed": true,
          "internalType": "address",
          "name": "newOwner",
          "type": "address"
        }
      ],
      "name": "OwnershipTransferred",
      "type": "event"
    },
    {
      "anonymous": false,
      "inputs": [
        {
          "indexed": false,
          "internalType": "address",
          "name": "account",
          "type": "address"
        }
      ],
      "name": "Paused",
      "type": "event"
    },
    {
      "anonymous": false,
      "inputs": [
        {
          "indexed": false,
          "internalType": "uint32",
          "name": "eid",
          "type": "uint32"
        },
        {
          "indexed": false,
          "internalType": "bytes32",
          "name": "peer",
          "type": "bytes32"
        }
      ],
      "name": "PeerSet",
      "type": "event"
    },
    {
      "anonymous": false,
      "inputs": [
        {
          "indexed": true,
          "internalType": "uint256",
          "name": "borrowId",
          "type": "uint256"
        },
        {
          "indexed": false,
          "internalType": "address",
          "name": "user",
          "type": "address"
        },
        {
          "indexed": false,
          "internalType": "uint256",
          "name": "amount",
          "type": "uint256"
        }
      ],
      "name": "Repaid",
      "type": "event"
    },
    {
      "anonymous": false,
      "inputs": [
        {
          "indexed": true,
          "internalType": "address",
          "name": "user",
          "type": "address"
        },
        {
          "indexed": false,
          "internalType": "uint32",
          "name": "srcEid",
          "type": "uint32"
        },
        {
          "indexed": false,
          "internalType": "uint256",
          "name": "amount",
          "type": "uint256"
        },
        {
          "indexed": false,
          "internalType": "uint256",
          "name": "supplyId",
          "type": "uint256"
        }
      ],
      "name": "Supplied",
      "type": "event"
    },
    {
      "anonymous": false,
      "inputs": [
        {
          "indexed": false,
          "internalType": "address",
          "name": "account",
          "type": "address"
        }
      ],
      "name": "Unpaused",
      "type": "event"
    },
    {
      "inputs": [],
      "name": "BASE_LTV_BPS",
      "outputs": [
        {
          "internalType": "uint256",
          "name": "",
          "type": "uint256"
        }
      ],
      "stateMutability": "view",
      "type": "function"
    },
    {
      "inputs": [],
      "name": "BORROW_RATE_BPS",
      "outputs": [
        {
          "internalType": "uint256",
          "name": "",
          "type": "uint256"
        }
      ],
      "stateMutability": "view",
      "type": "function"
    },
    {
      "inputs": [],
      "name": "BPS",
      "outputs": [
        {
          "internalType": "uint256",
          "name": "",
          "type": "uint256"
        }
      ],
      "stateMutability": "view",
      "type": "function"
    },
    {
      "inputs": [],
      "name": "BRIDGE_FEE_BPS",
      "outputs": [
        {
          "internalType": "uint256",
          "name": "",
          "type": "uint256"
        }
      ],
      "stateMutability": "view",
      "type": "function"
    },
    {
      "inputs": [],
      "name": "LIQ_BONUS_BPS",
      "outputs": [
        {
          "internalType": "uint256",
          "name": "",
          "type": "uint256"
        }
      ],
      "stateMutability": "view",
      "type": "function"
    },
    {
      "inputs": [],
      "name": "LIQ_THRESHOLD_BPS",
      "outputs": [
        {
          "internalType": "uint256",
          "name": "",
          "type": "uint256"
        }
      ],
      "stateMutability": "view",
      "type": "function"
    },
    {
      "inputs": [],
      "name": "PRECISION",
      "outputs": [
        {
          "internalType": "uint256",
          "name": "",
          "type": "uint256"
        }
      ],
      "stateMutability": "view",
      "type": "function"
    },
    {
      "inputs": [],
      "name": "USDC",
      "outputs": [
        {
          "internalType": "contract IERC20",
          "name": "",
          "type": "address"
        }
      ],
      "stateMutability": "view",
      "type": "function"
    },
    {
      "inputs": [],
      "name": "acceptOwnership",
      "outputs": [],
      "stateMutability": "nonpayable",
      "type": "function"
    },
    {
      "inputs": [
        {
          "internalType": "uint256",
          "name": "supplyId",
          "type": "uint256"
        },
        {
          "internalType": "uint256",
          "name": "amount",
          "type": "uint256"
        }
      ],
      "name": "borrow",
      "outputs": [
        {
          "internalType": "uint256",
          "name": "borrowId",
          "type": "uint256"
        }
      ],
      "stateMutability": "nonpayable",
      "type": "function"
    },
    {
      "inputs": [
        {
          "internalType": "uint256",
          "name": "",
          "type": "uint256"
        }
      ],
      "name": "borrows",
      "outputs": [
        {
          "internalType": "address",
          "name": "user",
          "type": "address"
        },
        {
          "internalType": "address",
          "name": "asset",
          "type": "address"
        },
        {
          "internalType": "uint256",
          "name": "principal",
          "type": "uint256"
        },
        {
          "internalType": "uint256",
          "name": "interestIndex",
          "type": "uint256"
        },
        {
          "internalType": "uint256",
          "name": "openedAt",
          "type": "uint256"
        },
        {
          "internalType": "uint256",
          "name": "supplyId",
          "type": "uint256"
        },
        {
          "internalType": "bool",
          "name": "active",
          "type": "bool"
        }
      ],
      "stateMutability": "view",
      "type": "function"
    },
    {
      "inputs": [],
      "name": "globalInterestIndex",
      "outputs": [
        {
          "internalType": "uint256",
          "name": "",
          "type": "uint256"
        }
      ],
      "stateMutability": "view",
      "type": "function"
    },
    {
      "inputs": [],
      "name": "lastGlobalAccrue",
      "outputs": [
        {
          "internalType": "uint256",
          "name": "",
          "type": "uint256"
        }
      ],
      "stateMutability": "view",
      "type": "function"
    },
    {
      "inputs": [
        {
          "internalType": "uint256",
          "name": "borrowId",
          "type": "uint256"
        }
      ],
      "name": "liquidate",
      "outputs": [],
      "stateMutability": "nonpayable",
      "type": "function"
    },
    {
      "inputs": [],
      "name": "lzEndpoint",
      "outputs": [
        {
          "internalType": "contract ILayerZeroEndpointV5",
          "name": "",
          "type": "address"
        }
      ],
      "stateMutability": "view",
      "type": "function"
    },
    {
      "inputs": [
        {
          "components": [
            {
              "internalType": "uint32",
              "name": "srcEid",
              "type": "uint32"
            },
            {
              "internalType": "bytes32",
              "name": "sender",
              "type": "bytes32"
            },
            {
              "internalType": "uint64",
              "name": "nonce",
              "type": "uint64"
            }
          ],
          "internalType": "struct Origin",
          "name": "origin",
          "type": "tuple"
        },
        {
          "internalType": "bytes32",
          "name": "",
          "type": "bytes32"
        },
        {
          "internalType": "bytes",
          "name": "payload",
          "type": "bytes"
        },
        {
          "internalType": "address",
          "name": "",
          "type": "address"
        },
        {
          "internalType": "bytes",
          "name": "",
          "type": "bytes"
        }
      ],
      "name": "lzReceive",
      "outputs": [],
      "stateMutability": "nonpayable",
      "type": "function"
    },
    {
      "inputs": [],
      "name": "oracle",
      "outputs": [
        {
          "internalType": "contract IOracle",
          "name": "",
          "type": "address"
        }
      ],
      "stateMutability": "view",
      "type": "function"
    },
    {
      "inputs": [],
      "name": "owner",
      "outputs": [
        {
          "internalType": "address",
          "name": "",
          "type": "address"
        }
      ],
      "stateMutability": "view",
      "type": "function"
    },
    {
      "inputs": [],
      "name": "pause",
      "outputs": [],
      "stateMutability": "nonpayable",
      "type": "function"
    },
    {
      "inputs": [],
      "name": "paused",
      "outputs": [
        {
          "internalType": "bool",
          "name": "",
          "type": "bool"
        }
      ],
      "stateMutability": "view",
      "type": "function"
    },
    {
      "inputs": [
        {
          "internalType": "uint32",
          "name": "",
          "type": "uint32"
        }
      ],
      "name": "peers",
      "outputs": [
        {
          "internalType": "bytes32",
          "name": "",
          "type": "bytes32"
        }
      ],
      "stateMutability": "view",
      "type": "function"
    },
    {
      "inputs": [],
      "name": "pendingOwner",
      "outputs": [
        {
          "internalType": "address",
          "name": "",
          "type": "address"
        }
      ],
      "stateMutability": "view",
      "type": "function"
    },
    {
      "inputs": [],
      "name": "protocolFees",
      "outputs": [
        {
          "internalType": "uint256",
          "name": "",
          "type": "uint256"
        }
      ],
      "stateMutability": "view",
      "type": "function"
    },
    {
      "inputs": [],
      "name": "renounceOwnership",
      "outputs": [],
      "stateMutability": "nonpayable",
      "type": "function"
    },
    {
      "inputs": [
        {
          "internalType": "uint256",
          "name": "borrowId",
          "type": "uint256"
        }
      ],
      "name": "repay",
      "outputs": [],
      "stateMutability": "nonpayable",
      "type": "function"
    },
    {
      "inputs": [
        {
          "internalType": "address",
          "name": "_oracle",
          "type": "address"
        }
      ],
      "name": "setOracle",
      "outputs": [],
      "stateMutability": "nonpayable",
      "type": "function"
    },
    {
      "inputs": [
        {
          "internalType": "uint32",
          "name": "eid",
          "type": "uint32"
        },
        {
          "internalType": "bytes32",
          "name": "peer",
          "type": "bytes32"
        }
      ],
      "name": "setPeer",
      "outputs": [],
      "stateMutability": "nonpayable",
      "type": "function"
    },
    {
      "inputs": [
        {
          "internalType": "uint32[]",
          "name": "eids",
          "type": "uint32[]"
        },
        {
          "internalType": "bytes32[]",
          "name": "_peers",
          "type": "bytes32[]"
        }
      ],
      "name": "setPeers",
      "outputs": [],
      "stateMutability": "nonpayable",
      "type": "function"
    },
    {
      "inputs": [
        {
          "internalType": "address",
          "name": "_tl",
          "type": "address"
        }
      ],
      "name": "setTimelock",
      "outputs": [],
      "stateMutability": "nonpayable",
      "type": "function"
    },
    {
      "inputs": [
        {
          "internalType": "uint256",
          "name": "",
          "type": "uint256"
        }
      ],
      "name": "supplies",
      "outputs": [
        {
          "internalType": "address",
          "name": "user",
          "type": "address"
        },
        {
          "internalType": "uint32",
          "name": "srcEid",
          "type": "uint32"
        },
        {
          "internalType": "address",
          "name": "asset",
          "type": "address"
        },
        {
          "internalType": "uint256",
          "name": "amount",
          "type": "uint256"
        },
        {
          "internalType": "uint256",
          "name": "borrowedUSD",
          "type": "uint256"
        },
        {
          "internalType": "uint256",
          "name": "lastAccrue",
          "type": "uint256"
        },
        {
          "internalType": "bool",
          "name": "active",
          "type": "bool"
        }
      ],
      "stateMutability": "view",
      "type": "function"
    },
    {
      "inputs": [
        {
          "internalType": "address",
          "name": "asset",
          "type": "address"
        },
        {
          "internalType": "uint256",
          "name": "amount",
          "type": "uint256"
        },
        {
          "internalType": "uint32",
          "name": "destEid",
          "type": "uint32"
        }
      ],
      "name": "supply",
      "outputs": [
        {
          "internalType": "uint256",
          "name": "supplyId",
          "type": "uint256"
        }
      ],
      "stateMutability": "payable",
      "type": "function"
    },
    {
      "inputs": [],
      "name": "timelock",
      "outputs": [
        {
          "internalType": "address",
          "name": "",
          "type": "address"
        }
      ],
      "stateMutability": "view",
      "type": "function"
    },
    {
      "inputs": [],
      "name": "totalBorrowedUSD",
      "outputs": [
        {
          "internalType": "uint256",
          "name": "",
          "type": "uint256"
        }
      ],
      "stateMutability": "view",
      "type": "function"
    },
    {
      "inputs": [],
      "name": "totalSuppliedUSD",
      "outputs": [
        {
          "internalType": "uint256",
          "name": "",
          "type": "uint256"
        }
      ],
      "stateMutability": "view",
      "type": "function"
    },
    {
      "inputs": [
        {
          "internalType": "address",
          "name": "newOwner",
          "type": "address"
        }
      ],
      "name": "transferOwnership",
      "outputs": [],
      "stateMutability": "nonpayable",
      "type": "function"
    },
    {
      "inputs": [],
      "name": "unpause",
      "outputs": [],
      "stateMutability": "nonpayable",
      "type": "function"
    },
    {
      "inputs": [
        {
          "internalType": "address",
          "name": "",
          "type": "address"
        },
        {
          "internalType": "uint256",
          "name": "",
          "type": "uint256"
        }
      ],
      "name": "userBorrows",
      "outputs": [
        {
          "internalType": "uint256",
          "name": "",
          "type": "uint256"
        }
      ],
      "stateMutability": "view",
      "type": "function"
    },
    {
      "inputs": [
        {
          "internalType": "address",
          "name": "",
          "type": "address"
        },
        {
          "internalType": "uint256",
          "name": "",
          "type": "uint256"
        }
      ],
      "name": "userSupplies",
      "outputs": [
        {
          "internalType": "uint256",
          "name": "",
          "type": "uint256"
        }
      ],
      "stateMutability": "view",
      "type": "function"
    },
    {
      "inputs": [
        {
          "internalType": "address",
          "name": "to",
          "type": "address"
        }
      ],
      "name": "withdrawFees",
      "outputs": [],
      "stateMutability": "nonpayable",
      "type": "function"
    },
    {
      "stateMutability": "payable",
      "type": "receive"
    }
  ],
  "bytecode": "0x60c080604052346101b157608081612196803803809161001f82856101c8565b8339810103126101b157610032816101ff565b9061003f602082016101ff565b61004b604083016101ff565b916001600160a01b0390610061906060016101ff565b169182156101b557600180546001600160a01b03199081169091555f805491821685178155604051959185916001600160a01b03909116907f8be0079c531659141344cd1fd0a4f28419497f9722a3daafe3b4186f6b6457e09080a360017f9b779b17422d0df92223018b32b4d1fa46e071723d6817e2486d003becc55f0055670de0b6b3a7640000600b556001600160a01b039081166080819052600380546001600160a01b031916948316949094179093551660a052803b156101b1576024835f8193819563ca5eb5e160e01b845260048401525af180156101a657610196575b604051611f82908161021482396080518181816103f80152818161098a01528181610fb7015261127b015260a0518181816104a20152818161080301528181610ca7015281816111d6015261158f0152f35b5f6101a0916101c8565b5f610144565b6040513d5f823e3d90fd5b5f80fd5b631e4fbdf760e01b5f525f60045260245ffd5b601f909101601f19168101906001600160401b038211908210176101eb57604052565b634e487b7160e01b5f52604160045260245ffd5b51906001600160a01b03821682036101b15756fe6080604052600436101561001a575b3615610018575f80fd5b005b5f3560e01c80630ecbcdab146114e457806313137d651461120d578063164e68de146111a0578063191e9d7c146111165780631ad8b03b146110f95780631daa153d1461025d57806322e9d5bf146110dd578063242747b014610e3c578063249d39e914610e2057806326f1a1fd14610d925780633400288b14610d11578063371fd8e614610c135780633772df5814610b215780633d8df49214610b045780633f4ba83a14610a96578063415f12401461072b5780634ef17a67146106e25780635b65966b146106c75780635c975abb146106a25780635e61639314610685578063715018a61461062257806379ba50971461059d5780637adbf9731461055a5780637dc0d1d0146105325780638456cb59146104d157806389a302711461048d5780638da5cb5b14610466578063a83066b214610449578063aaf5eb6814610427578063b353aaa7146103e3578063b696bdf91461038b578063bb0b6a5314610356578063bdacb303146102cf578063caaf91c9146102b2578063d33219b41461028a578063e30c397814610262578063e35135311461025d578063e3cd32d6146102415763f2fde38b0361000e573461023d57602036600319011261023d576101e46118f7565b6101ec611e8d565b60018060a01b0316806bffffffffffffffffffffffff60a01b600154161760015560018060a01b035f54167f38d16b8cac22d99fc7c124b9cd0de2d3fa1faef420bfe791d8c362d765e227005f80a3005b5f80fd5b3461023d575f36600319011261023d576020604051611f408152f35b611929565b3461023d575f36600319011261023d576001546040516001600160a01b039091168152602090f35b3461023d575f36600319011261023d576002546040516001600160a01b039091168152602090f35b3461023d575f36600319011261023d576020600954604051908152f35b3461023d57602036600319011261023d576102e86118f7565b6102f0611e8d565b6001600160a01b0316801561031b576bffffffffffffffffffffffff60a01b60025416176002555f80f35b60405162461bcd60e51b815260206004820152601360248201527257696b693a207a65726f2074696d656c6f636b60681b6044820152606490fd5b3461023d57602036600319011261023d5763ffffffff610374611945565b165f526004602052602060405f2054604051908152f35b3461023d57604036600319011261023d576103a46118f7565b6001600160a01b03165f9081526008602052604090208054602435919082101561023d576020916103d4916119a5565b90549060031b1c604051908152f35b3461023d575f36600319011261023d576040517f00000000000000000000000000000000000000000000000000000000000000006001600160a01b03168152602090f35b3461023d575f36600319011261023d576020604051670de0b6b3a76400008152f35b3461023d575f36600319011261023d576020600a54604051908152f35b3461023d575f36600319011261023d575f546040516001600160a01b039091168152602090f35b3461023d575f36600319011261023d576040517f00000000000000000000000000000000000000000000000000000000000000006001600160a01b03168152602090f35b3461023d575f36600319011261023d576104e9611e8d565b6104f1611d95565b6001805460ff60a01b1916600160a01b1790556040513381527f62e78cea01bee320cd4e420270b5ea74000d11b0c9f74754ebdbfc544b05a25890602090a1005b3461023d575f36600319011261023d576003546040516001600160a01b039091168152602090f35b3461023d57602036600319011261023d576105736118f7565b61057b611e8d565b600380546001600160a01b0319166001600160a01b0392909216919091179055005b3461023d575f36600319011261023d57600154336001600160a01b039091160361060f57600180546001600160a01b03199081169091555f805433928116831782556001600160a01b0316907f8be0079c531659141344cd1fd0a4f28419497f9722a3daafe3b4186f6b6457e09080a3005b63118cdaa760e01b5f523360045260245ffd5b3461023d575f36600319011261023d5761063a611e8d565b600180546001600160a01b03199081169091555f80549182168155906001600160a01b03167f8be0079c531659141344cd1fd0a4f28419497f9722a3daafe3b4186f6b6457e08280a3005b3461023d575f36600319011261023d576020600c54604051908152f35b3461023d575f36600319011261023d57602060ff60015460a01c166040519015158152f35b3461023d575f36600319011261023d57602060405160058152f35b3461023d57604036600319011261023d576106fb6118f7565b6001600160a01b03165f9081526007602052604090208054602435919082101561023d576020916103d4916119a5565b3461023d57602036600319011261023d57600435610747611d5d565b61074f611d95565b6107588161190d565b50600681019061076b60ff835416611d11565b600581019061077a8254611958565b5090610784611db3565b61078d81611f09565b91600281018054906127108202908282046127101483151715610a4557611f406107c6600386019384548015155f14610a8d5790611a0a565b1015610a595761290486028681046129041487151715610a455763ffffffff9561086394612710600293048181115f14610a3d5750995b6108358b7f000000000000000000000000000000000000000000000000000000000000000061082e8c303384611ea0565b3390611e0c565b60ff198154169055019161084b83548254611a28565b9055610858888254611a28565b905554600a54611a28565b600a5561087285600954611a28565b6009555460a01c169161759e83141580610a28575b6108da575b604080513381526020810186905286917ff4c6cbfcc96248be8ecbaf76de0fee34f71f2fadd9af537dd38c2657621930d69190819081015b0390a260015f80516020611f2d83398151915255005b9160809161098694935490604051916003602084015260408301526060820152338382015282815261090d60a082611a6d565b4760011c90825f52600460205260405f20549060405191600160f01b6020840152620249f0602284015260228352610946604284611a6d565b6040519461095386611a51565b85526020850152604084015260608301525f8383015260405180809681946302637a4560e41b8352309060048401611ca3565b03917f00000000000000000000000000000000000000000000000000000000000000006001600160a01b03165af1908115610a1d577ff4c6cbfcc96248be8ecbaf76de0fee34f71f2fadd9af537dd38c2657621930d6926108c4926109ee575b81935061088c565b610a0f9060803d608011610a16575b610a078183611a6d565b810190611bf1565b50846109e6565b503d6109fd565b6040513d5f823e3d90fd5b50825f52600460205260405f20541515610887565b9050996107fd565b634e487b7160e01b5f52601160045260245ffd5b60405162461bcd60e51b815260206004820152600c60248201526b43434c3a206865616c74687960a01b6044820152606490fd5b50600190611a0a565b3461023d575f36600319011261023d57610aae611e8d565b60015460ff8160a01c1615610af55760ff60a01b19166001556040513381527f5db9ee0a495bf2e6ff9c91a7834c1ba4fdd244a5e8aa4e537bd38aeae4b073aa90602090a1005b638dfc202b60e01b5f5260045ffd5b3461023d575f36600319011261023d576020600b54604051908152f35b3461023d57604036600319011261023d5760043567ffffffffffffffff811161023d57610b52903690600401611974565b9060243567ffffffffffffffff811161023d57610b73903690600401611974565b90610b7c611e8d565b5f5b848110610b8757005b80610b956001928585611d4d565b3563ffffffff610bae610ba9848a8a611d4d565b611ae3565b165f52600460205260405f20557f238399d427b947898edb290f5ff0f9109849b1c3ba196a42e35f00c50a54b98b610bea610ba9838989611d4d565b610bf5838787611d4d565b6040805163ffffffff9390931683529035602083015290a101610b7e565b3461023d57602036600319011261023d57600435610c2f611d5d565b610c37611d95565b7fd7e0ec76b1d4528064c83f86d869783dfd06db26b2b5624bde17d4b99f80dd976108c4610c648361190d565b50610c7960018060a01b0382541633146119ba565b60068101610c8a60ff825416611d11565b610c92611db3565b610cee610c9e83611f09565b92610ccb8430337f0000000000000000000000000000000000000000000000000000000000000000611ea0565b60028101906108586003610ce460058554940154611958565b5001918254611a28565b600a55805460ff1916905560408051338152602081019290925290918291820190565b3461023d57604036600319011261023d577f238399d427b947898edb290f5ff0f9109849b1c3ba196a42e35f00c50a54b98b610d4b611945565b60243590610d57611e8d565b63ffffffff81165f5260046020528160405f2055610d8d604051928392836020909392919363ffffffff60408201951681520152565b0390a1005b3461023d57602036600319011261023d5760043560055481101561023d57610dbb60e091611958565b5080549060018060a01b0360018201541690600281015460038201549060ff60056004850154940154169363ffffffff6040519660018060a01b038116885260a01c16602087015260408601526060850152608084015260a0830152151560c0820152f35b3461023d575f36600319011261023d5760206040516127108152f35b606036600319011261023d57610e506118f7565b6024356044359063ffffffff821680920361023d57610e6d611d5d565b610e75611d95565b815f52600460205260405f20541561109857801561106057610fb2926001600160a01b031691608090610eaa83303387611ea0565b60055493610eeb604051610ebd81611a35565b33815261759e60208201528260408201528560608201525f858201524260a0820152600160c0820152611b16565b335f526007602052610f008560405f20611a8f565b610f0c84600954611ac3565b6009556040519060016020830152336040830152606082015283838201528460a082015260a08152610f3f60c082611a6d565b815f52600460205260405f20549060405191600160f01b602084015262030d40602284015260228352610f73604284611a6d565b60405193610f8085611a51565b84526020840152604083015260608201525f82820152604051809581926302637a4560e41b8352339060048401611ca3565b0381347f00000000000000000000000000000000000000000000000000000000000000006001600160a01b03165af1928315610a1d57602093611043575b506040519061759e8252838201528160408201527f3e07f1ab598a7c8c0e730902a4410b84acd1c95c96378fcba440294fb86f2bac60603392a260015f80516020611f2d83398151915255604051908152f35b61105b9060803d608011610a1657610a078183611a6d565b610ff0565b60405162461bcd60e51b815260206004820152601060248201526f10d0d30e881e995c9bc8185b5bdd5b9d60821b6044820152606490fd5b60405162461bcd60e51b815260206004820152601760248201527f43434c3a2064657374206e6f7420737570706f727465640000000000000000006044820152606490fd5b3461023d575f36600319011261023d576020604051611d4c8152f35b3461023d575f36600319011261023d576020600d54604051908152f35b3461023d57602036600319011261023d5760043560065481101561023d5761113f60e09161190d565b50805460018201546002830154600384015460048501546005860154600690960154604080516001600160a01b039788168152959096166020860152948401929092526060830152608082015260a081019290925260ff16151560c0820152f35b3461023d57602036600319011261023d576111fa6111bc6118f7565b6111c4611e8d565b6111cc611d5d565b600d54905f600d557f0000000000000000000000000000000000000000000000000000000000000000611e0c565b60015f80516020611f2d83398151915255005b3461023d57366003190160e0811261023d5760601361023d5760843567ffffffffffffffff811161023d576112469036906004016118b3565b61124e6118e1565b5060c43567ffffffffffffffff811161023d5761126f9036906004016118b3565b5050611279611d5d565b7f00000000000000000000000000000000000000000000000000000000000000006001600160a01b031633036114ab5763ffffffff6112b6611ad0565b165f52600460205260405f2054602435036114725780601f101561145e5781601f81013560f81c600181036113af575060a0918101031261023d57806112fe61139992611af4565b5061139161130e60208301611b02565b91606061131d60408301611b02565b9101359260018060a01b031661138160055492611338611ad0565b9063ffffffff6040519261134b84611a35565b8584521660208301526001600160a01b03166040820152606081018690525f60808201524260a0820152600160c0820152611b16565b5f52600760205260405f20611a8f565b600954611ac3565b60095560015f80516020611f2d83398151915255005b60039150146113c0575b50506111fa565b816080918101031261023d576060816113db6113e293611af4565b5001611b02565b505f5b6005548110156114585763ffffffff6113fd82611958565b505460a01c1663ffffffff611410611ad0565b161480611441575b611424576001016113e5565b61142f600591611958565b5001805460ff191690555b80806113b9565b5060ff600561144f83611958565b50015416611418565b5061143a565b634e487b7160e01b5f52603260045260245ffd5b60405162461bcd60e51b815260206004820152601160248201527021a1a61d103ab735b737bbb7103832b2b960791b6044820152606490fd5b60405162461bcd60e51b815260206004820152601160248201527010d0d30e881b9bdd08195b991c1bda5b9d607a1b6044820152606490fd5b3461023d57604036600319011261023d57600435602435611503611d5d565b61150b611d95565b61151482611958565b509161152a60018060a01b0384541633146119ba565b60ff6005840154161561187757811561183f57611545611db3565b600283015492611d4c840293808504611d4c1490151715610a4557600361157491019361271085549104611a28565b8211611807576040516370a0823160e01b81523060048201527f00000000000000000000000000000000000000000000000000000000000000006001600160a01b03811694909391602081602481895afa8015610a1d5783915f916117d2575b50106117995760058202828104600503610a4557612710900493600654946115fc8185611a28565b90600b54936040519861160e8a611a35565b338a5260208a0190815260408a0193845260608a0195865260808a0199428b5260a081019089825260c0810160018152600160401b8c10156117855760018c0160065561165a8c61190d565b93909361177257915183546001600160a01b039182166001600160a01b03199182161785559451600185018054919092169516949094179093559451600282015595516003870155985160048601559151600585015596516006909301805460ff191693151560ff16939093179092556020956117239261171b9190335f52600889526116ea8860405f20611a8f565b6116f5868254611ac3565b905561170385600a54611ac3565b600a5561171281600d54611ac3565b600d5584611a28565b903390611e0c565b604051918252838201528160408201527fc4381c9c7b508979896c55381c1cb8c2aef28d753cff7661f9cd87b9a14584f860603392a260015f80516020611f2d83398151915255604051908152f35b634e487b7160e01b5f525f60045260245ffd5b634e487b7160e01b5f52604160045260245ffd5b60405162461bcd60e51b815260206004820152601160248201527043434c3a206e6f206c697175696469747960781b6044820152606490fd5b9150506020813d6020116117ff575b816117ee60209383611a6d565b8101031261023d57829051876115d4565b3d91506117e1565b60405162461bcd60e51b815260206004820152601060248201526f21a1a61d1032bc31b2b2b23990262a2b60811b6044820152606490fd5b60405162461bcd60e51b815260206004820152601060248201526f43434c3a207a65726f20626f72726f7760801b6044820152606490fd5b60405162461bcd60e51b815260206004820152601460248201527343434c3a20737570706c7920696e61637469766560601b6044820152606490fd5b9181601f8401121561023d5782359167ffffffffffffffff831161023d576020838186019501011161023d57565b60a435906001600160a01b038216820361023d57565b600435906001600160a01b038216820361023d57565b60065481101561145e5760065f52600760205f20910201905f90565b3461023d575f36600319011261023d5760206040516101f48152f35b6004359063ffffffff8216820361023d57565b60055481101561145e5760055f52600660205f20910201905f90565b9181601f8401121561023d5782359167ffffffffffffffff831161023d576020808501948460051b01011161023d57565b805482101561145e575f5260205f2001905f90565b156119c157565b60405162461bcd60e51b815260206004820152600e60248201526d43434c3a206e6f7420796f75727360901b6044820152606490fd5b81810292918115918404141715610a4557565b8115611a14570490565b634e487b7160e01b5f52601260045260245ffd5b91908203918211610a4557565b60e0810190811067ffffffffffffffff82111761178557604052565b60a0810190811067ffffffffffffffff82111761178557604052565b90601f8019910116810190811067ffffffffffffffff82111761178557604052565b8054600160401b81101561178557611aac916001820181556119a5565b819291549060031b91821b915f19901b1916179055565b91908201809211610a4557565b60043563ffffffff8116810361023d5790565b3563ffffffff8116810361023d5790565b359060ff8216820361023d57565b35906001600160a01b038216820361023d57565b600554600160401b811015611785576001810160055560055481101561145e5760055f526006027f036b6384b5eca791c62761152d0c79bb0604c104a5fb6f4eb0703f3154bb3db0018151815460208401516001600160c01b03199091166001600160a01b039283161760a091821b63ffffffff60a01b1617835560408401516001840180546001600160a01b03191691909316179091556060830151600283015560808301516003830155820151600482015560c09190910151600591909101805460ff9215159290921660ff1992909216919091179055565b809103906080821261023d57604051916060830183811067ffffffffffffffff821117611785576040528151835260208201519067ffffffffffffffff8216820361023d576040916020850152603f19011261023d5760405190604082019082821067ffffffffffffffff831117611785576060916040526040810151835201516020820152604082015290565b805180835260209291819084018484015e5f828201840152601f01601f1916010190565b906020909392936040835263ffffffff81511660408401528181015160608401526080611cf7611ce1604084015160a08488015260e0870190611c7f565b6060840151868203603f190160a0880152611c7f565b910151151560c08401526001600160a01b03909416910152565b15611d1857565b60405162461bcd60e51b815260206004820152600d60248201526c43434c3a20696e61637469766560981b6044820152606490fd5b919081101561145e5760051b0190565b60025f80516020611f2d8339815191525414611d865760025f80516020611f2d83398151915255565b633ee5aeb560e01b5f5260045ffd5b60ff60015460a01c16611da457565b63d93c066560e01b5f5260045ffd5b600c54804214611e0957611dc79042611a28565b600b54635e80a6bf810291818304635e80a6bf1482151715610a4557611df9670de0b6b3a764000091611e00946119f7565b0490611ac3565b600b5542600c55565b50565b916040519163a9059cbb60e01b5f5260018060a01b031660045260245260205f60448180865af19060015f5114821615611e6c575b60405215611e4c5750565b635274afe760e01b5f9081526001600160a01b0391909116600452602490fd5b906001811516611e8457823b15153d15161690611e41565b503d5f823e3d90fd5b5f546001600160a01b0316330361060f57565b6040516323b872dd60e01b5f9081526001600160a01b039384166004529290931660245260449390935260209060648180865af19060015f5114821615611ef1575b6040525f60605215611e4c5750565b906001811516611e8457823b15153d15161690611ee2565b611f29906003611f206002830154600b54906119f7565b91015490611a0a565b9056fe9b779b17422d0df92223018b32b4d1fa46e071723d6817e2486d003becc55f00a26469706673582212202f670a855695c593908278f39867a502b984655bffc9809aae7bcc4c2b81a9f364736f6c634300081a0033",
  "linkReferences": {},
  "deployedLinkReferences": {}
}