{
  "_format": "hh-sol-artifact-1",
  "contractName": "WikiPartialLiquidation",
  "sourceName": "src/WikiPartialLiquidation.sol",
  "abi": [
    {
      "inputs": [
        {
          "internalType": "address",
          "name": "_owner",
          "type": "address"
        },
        {
          "internalType": "address",
          "name": "_usdc",
          "type": "address"
        },
        {
          "internalType": "address",
          "name": "_perp",
          "type": "address"
        },
        {
          "internalType": "address",
          "name": "_volMargin",
          "type": "address"
        },
        {
          "internalType": "address",
          "name": "_insuranceFund",
          "type": "address"
        }
      ],
      "stateMutability": "nonpayable",
      "type": "constructor"
    },
    {
      "inputs": [
        {
          "internalType": "address",
          "name": "owner",
          "type": "address"
        }
      ],
      "name": "OwnableInvalidOwner",
      "type": "error"
    },
    {
      "inputs": [
        {
          "internalType": "address",
          "name": "account",
          "type": "address"
        }
      ],
      "name": "OwnableUnauthorizedAccount",
      "type": "error"
    },
    {
      "inputs": [],
      "name": "ReentrancyGuardReentrantCall",
      "type": "error"
    },
    {
      "inputs": [
        {
          "internalType": "address",
          "name": "token",
          "type": "address"
        }
      ],
      "name": "SafeERC20FailedOperation",
      "type": "error"
    },
    {
      "anonymous": false,
      "inputs": [
        {
          "indexed": true,
          "internalType": "uint256",
          "name": "positionId",
          "type": "uint256"
        },
        {
          "indexed": false,
          "internalType": "address",
          "name": "trader",
          "type": "address"
        },
        {
          "indexed": false,
          "internalType": "uint256",
          "name": "step",
          "type": "uint256"
        }
      ],
      "name": "FullLiquidationEscalated",
      "type": "event"
    },
    {
      "anonymous": false,
      "inputs": [
        {
          "indexed": true,
          "internalType": "uint256",
          "name": "positionId",
          "type": "uint256"
        },
        {
          "indexed": false,
          "internalType": "uint256",
          "name": "newHealthBps",
          "type": "uint256"
        }
      ],
      "name": "HealthRestored",
      "type": "event"
    },
    {
      "anonymous": false,
      "inputs": [
        {
          "indexed": true,
          "internalType": "address",
          "name": "previousOwner",
          "type": "address"
        },
        {
          "indexed": true,
          "internalType": "address",
          "name": "newOwner",
          "type": "address"
        }
      ],
      "name": "OwnershipTransferStarted",
      "type": "event"
    },
    {
      "anonymous": false,
      "inputs": [
        {
          "indexed": true,
          "internalType": "address",
          "name": "previousOwner",
          "type": "address"
        },
        {
          "indexed": true,
          "internalType": "address",
          "name": "newOwner",
          "type": "address"
        }
      ],
      "name": "OwnershipTransferred",
      "type": "event"
    },
    {
      "anonymous": false,
      "inputs": [
        {
          "indexed": true,
          "internalType": "uint256",
          "name": "positionId",
          "type": "uint256"
        },
        {
          "indexed": true,
          "internalType": "address",
          "name": "trader",
          "type": "address"
        },
        {
          "indexed": false,
          "internalType": "uint256",
          "name": "fractionClosedBps",
          "type": "uint256"
        },
        {
          "indexed": false,
          "internalType": "uint256",
          "name": "notionalClosed",
          "type": "uint256"
        },
        {
          "indexed": false,
          "internalType": "int256",
          "name": "pnl",
          "type": "int256"
        },
        {
          "indexed": false,
          "internalType": "uint256",
          "name": "newHealthScoreBps",
          "type": "uint256"
        },
        {
          "indexed": false,
          "internalType": "uint256",
          "name": "step",
          "type": "uint256"
        },
        {
          "indexed": false,
          "internalType": "address",
          "name": "liquidator",
          "type": "address"
        },
        {
          "indexed": false,
          "internalType": "uint256",
          "name": "liquidatorFee",
          "type": "uint256"
        }
      ],
      "name": "PartialLiquidation",
      "type": "event"
    },
    {
      "inputs": [],
      "name": "USDC",
      "outputs": [
        {
          "internalType": "contract IERC20",
          "name": "",
          "type": "address"
        }
      ],
      "stateMutability": "view",
      "type": "function"
    },
    {
      "inputs": [],
      "name": "acceptOwnership",
      "outputs": [],
      "stateMutability": "nonpayable",
      "type": "function"
    },
    {
      "inputs": [
        {
          "internalType": "address",
          "name": "",
          "type": "address"
        }
      ],
      "name": "authorisedLiquidators",
      "outputs": [
        {
          "internalType": "bool",
          "name": "",
          "type": "bool"
        }
      ],
      "stateMutability": "view",
      "type": "function"
    },
    {
      "inputs": [
        {
          "internalType": "uint256",
          "name": "positionId",
          "type": "uint256"
        }
      ],
      "name": "getLiquidationQuote",
      "outputs": [
        {
          "internalType": "bool",
          "name": "eligible",
          "type": "bool"
        },
        {
          "internalType": "uint256",
          "name": "healthScoreBps",
          "type": "uint256"
        },
        {
          "internalType": "uint256",
          "name": "recommendedFractionBps",
          "type": "uint256"
        },
        {
          "internalType": "uint256",
          "name": "estimatedLiquidatorFee",
          "type": "uint256"
        },
        {
          "internalType": "uint8",
          "name": "currentStep",
          "type": "uint8"
        }
      ],
      "stateMutability": "view",
      "type": "function"
    },
    {
      "inputs": [],
      "name": "insuranceFund",
      "outputs": [
        {
          "internalType": "contract IInsuranceFund",
          "name": "",
          "type": "address"
        }
      ],
      "stateMutability": "view",
      "type": "function"
    },
    {
      "inputs": [],
      "name": "insuranceShareBps",
      "outputs": [
        {
          "internalType": "uint256",
          "name": "",
          "type": "uint256"
        }
      ],
      "stateMutability": "view",
      "type": "function"
    },
    {
      "inputs": [
        {
          "internalType": "uint256",
          "name": "",
          "type": "uint256"
        }
      ],
      "name": "lastPartialLiqTime",
      "outputs": [
        {
          "internalType": "uint256",
          "name": "",
          "type": "uint256"
        }
      ],
      "stateMutability": "view",
      "type": "function"
    },
    {
      "inputs": [
        {
          "internalType": "uint256",
          "name": "",
          "type": "uint256"
        }
      ],
      "name": "liquidationStep",
      "outputs": [
        {
          "internalType": "uint8",
          "name": "",
          "type": "uint8"
        }
      ],
      "stateMutability": "view",
      "type": "function"
    },
    {
      "inputs": [],
      "name": "liquidatorShareBps",
      "outputs": [
        {
          "internalType": "uint256",
          "name": "",
          "type": "uint256"
        }
      ],
      "stateMutability": "view",
      "type": "function"
    },
    {
      "inputs": [],
      "name": "maxPartialBps",
      "outputs": [
        {
          "internalType": "uint256",
          "name": "",
          "type": "uint256"
        }
      ],
      "stateMutability": "view",
      "type": "function"
    },
    {
      "inputs": [],
      "name": "minHealthBps",
      "outputs": [
        {
          "internalType": "uint256",
          "name": "",
          "type": "uint256"
        }
      ],
      "stateMutability": "view",
      "type": "function"
    },
    {
      "inputs": [],
      "name": "owner",
      "outputs": [
        {
          "internalType": "address",
          "name": "",
          "type": "address"
        }
      ],
      "stateMutability": "view",
      "type": "function"
    },
    {
      "inputs": [],
      "name": "partialLiqFeeBps",
      "outputs": [
        {
          "internalType": "uint256",
          "name": "",
          "type": "uint256"
        }
      ],
      "stateMutability": "view",
      "type": "function"
    },
    {
      "inputs": [
        {
          "internalType": "uint256",
          "name": "positionId",
          "type": "uint256"
        }
      ],
      "name": "partialLiquidate",
      "outputs": [
        {
          "internalType": "uint256",
          "name": "fractionClosedBps",
          "type": "uint256"
        },
        {
          "internalType": "uint256",
          "name": "newHealthBps",
          "type": "uint256"
        },
        {
          "internalType": "bool",
          "name": "fullyLiquidated",
          "type": "bool"
        }
      ],
      "stateMutability": "nonpayable",
      "type": "function"
    },
    {
      "inputs": [],
      "name": "pendingOwner",
      "outputs": [
        {
          "internalType": "address",
          "name": "",
          "type": "address"
        }
      ],
      "stateMutability": "view",
      "type": "function"
    },
    {
      "inputs": [],
      "name": "perp",
      "outputs": [
        {
          "internalType": "contract IWikiPerp",
          "name": "",
          "type": "address"
        }
      ],
      "stateMutability": "view",
      "type": "function"
    },
    {
      "inputs": [],
      "name": "renounceOwnership",
      "outputs": [],
      "stateMutability": "nonpayable",
      "type": "function"
    },
    {
      "inputs": [
        {
          "internalType": "address",
          "name": "_perp",
          "type": "address"
        },
        {
          "internalType": "address",
          "name": "_vol",
          "type": "address"
        },
        {
          "internalType": "address",
          "name": "_ins",
          "type": "address"
        }
      ],
      "name": "setContracts",
      "outputs": [],
      "stateMutability": "nonpayable",
      "type": "function"
    },
    {
      "inputs": [
        {
          "internalType": "address",
          "name": "liq",
          "type": "address"
        },
        {
          "internalType": "bool",
          "name": "enabled",
          "type": "bool"
        }
      ],
      "name": "setLiquidator",
      "outputs": [],
      "stateMutability": "nonpayable",
      "type": "function"
    },
    {
      "inputs": [
        {
          "internalType": "uint256",
          "name": "bps",
          "type": "uint256"
        }
      ],
      "name": "setMaxPartial",
      "outputs": [],
      "stateMutability": "nonpayable",
      "type": "function"
    },
    {
      "inputs": [
        {
          "internalType": "uint256",
          "name": "bps",
          "type": "uint256"
        }
      ],
      "name": "setMinHealth",
      "outputs": [],
      "stateMutability": "nonpayable",
      "type": "function"
    },
    {
      "inputs": [
        {
          "internalType": "uint256",
          "name": "secs",
          "type": "uint256"
        }
      ],
      "name": "setStepDelay",
      "outputs": [],
      "stateMutability": "nonpayable",
      "type": "function"
    },
    {
      "inputs": [
        {
          "internalType": "uint256",
          "name": "bps",
          "type": "uint256"
        }
      ],
      "name": "setTargetHealth",
      "outputs": [],
      "stateMutability": "nonpayable",
      "type": "function"
    },
    {
      "inputs": [],
      "name": "stepDelaySeconds",
      "outputs": [
        {
          "internalType": "uint256",
          "name": "",
          "type": "uint256"
        }
      ],
      "stateMutability": "view",
      "type": "function"
    },
    {
      "inputs": [],
      "name": "targetHealthBps",
      "outputs": [
        {
          "internalType": "uint256",
          "name": "",
          "type": "uint256"
        }
      ],
      "stateMutability": "view",
      "type": "function"
    },
    {
      "inputs": [
        {
          "internalType": "address",
          "name": "newOwner",
          "type": "address"
        }
      ],
      "name": "transferOwnership",
      "outputs": [],
      "stateMutability": "nonpayable",
      "type": "function"
    },
    {
      "inputs": [],
      "name": "volMargin",
      "outputs": [
        {
          "internalType": "contract IWikiVolatilityMargin",
          "name": "",
          "type": "address"
        }
      ],
      "stateMutability": "view",
      "type": "function"
    }
  ],
  "bytecode": "0x60a0346101e757601f6114a638819003918201601f19168301916001600160401b038311848410176101eb5780849260a0946040528339810103126101e757610047816101ff565b90610054602082016101ff565b91610061604083016101ff565b9161007a6080610073606084016101ff565b92016101ff565b6001600160a01b039092169283156101d457600180546001600160a01b03199081169091555f805491821686178155604051969186916001600160a01b03909116907f8be0079c531659141344cd1fd0a4f28419497f9722a3daafe3b4186f6b6457e09080a360017f9b779b17422d0df92223018b32b4d1fa46e071723d6817e2486d003becc55f005561138860058190556101f4600655600755601e60088190556032600955600a556014600b556001600160a01b03908116608052600280546001600160a01b0319169282169290921790915516806101ba575b506001600160a01b0316806101a0575b505f52600c60205260405f20600160ff19825416179055611292908161021482396080518181816104270152818161114a01526111e60152f35b600480546001600160a01b0319169190911790555f610166565b600380546001600160a01b0319169190911790555f610156565b631e4fbdf760e01b5f525f60045260245ffd5b5f80fd5b634e487b7160e01b5f52604160045260245ffd5b51906001600160a01b03821682036101e75756fe6080806040526004361015610012575f80fd5b5f3560e01c90816302573e1f146107cd57508063036e00e6146107b057806306bf1a3f146107935780630abc64a0146107695780631c17c138146106b65780631f0fc23614610678578063236f6bb91461064e5780633c70d4b9146106315780634453a374146105de57806344848132146105c157806357e522911461057b5780635991bb9c1461053e578063715018a6146104db57806379ba50971461045657806389a30271146104125780638da5cb5b146103eb578063945d8e63146103ce578063b032708314610390578063b3066d49146102dd578063b7902303146102b5578063b98686b614610278578063bfa4c00c14610250578063c7a9cc6614610228578063d1bca352146101fb578063e30c3978146101d3578063e9ac0348146101b65763f2fde38b14610145575f80fd5b346101b25760203660031901126101b25761015e6107e7565b610166610f1a565b60018060a01b0316806001600160601b0360a01b600154161760015560018060a01b035f54167f38d16b8cac22d99fc7c124b9cd0de2d3fa1faef420bfe791d8c362d765e227005f80a3005b5f80fd5b346101b2575f3660031901126101b2576020600754604051908152f35b346101b2575f3660031901126101b2576001546040516001600160a01b039091168152602090f35b346101b25760203660031901126101b2576004355f52600e602052602060ff60405f205416604051908152f35b346101b2575f3660031901126101b2576003546040516001600160a01b039091168152602090f35b346101b2575f3660031901126101b2576002546040516001600160a01b039091168152602090f35b346101b25760203660031901126101b257600435610294610f1a565b6064811015806102a9575b156101b257600655005b506107d081111561029f565b346101b2575f3660031901126101b2576004546040516001600160a01b039091168152602090f35b346101b25760603660031901126101b2576102f66107e7565b6024356001600160a01b038116908190036101b2576044356001600160a01b03811692908390036101b257610329610f1a565b6001600160a01b031680610377575b508061035e575b508061034757005b6001600160601b0360a01b60045416176004555f80f35b6001600160601b0360a01b60035416176003558161033f565b6001600160601b0360a01b600254161760025582610338565b346101b25760203660031901126101b2576004356103ac610f1a565b6107d0811015806103c2575b156101b257600555005b50611f408111156103b8565b346101b2575f3660031901126101b2576020600b54604051908152f35b346101b2575f3660031901126101b2575f546040516001600160a01b039091168152602090f35b346101b2575f3660031901126101b2576040517f00000000000000000000000000000000000000000000000000000000000000006001600160a01b03168152602090f35b346101b2575f3660031901126101b257600154336001600160a01b03909116036104c857600180546001600160a01b03199081169091555f805433928116831782556001600160a01b0316907f8be0079c531659141344cd1fd0a4f28419497f9722a3daafe3b4186f6b6457e09080a3005b63118cdaa760e01b5f523360045260245ffd5b346101b2575f3660031901126101b2576104f3610f1a565b600180546001600160a01b03199081169091555f80549182168155906001600160a01b03167f8be0079c531659141344cd1fd0a4f28419497f9722a3daafe3b4186f6b6457e08280a3005b346101b25760203660031901126101b2576001600160a01b0361055f6107e7565b165f52600c602052602060ff60405f2054166040519015158152f35b346101b25760203660031901126101b25760a060ff61059b600435610e01565b926040959495929192519515158652602086015260408501526060840152166080820152f35b346101b2575f3660031901126101b2576020600654604051908152f35b346101b25760403660031901126101b2576105f76107e7565b602435908115158092036101b25761060d610f1a565b60018060a01b03165f52600c60205260405f209060ff801983541691161790555f80f35b346101b2575f3660031901126101b2576020600954604051908152f35b346101b25760203660031901126101b2576004355f52600d602052602060405f2054604051908152f35b346101b25760203660031901126101b257600435610694610f1a565b6103e8811015806106aa575b156101b257600755005b50611f408111156106a0565b346101b25760203660031901126101b25760027f9b779b17422d0df92223018b32b4d1fa46e071723d6817e2486d003becc55f00541461075a5760027f9b779b17422d0df92223018b32b4d1fa46e071723d6817e2486d003becc55f00556060610721600435610909565b9060017f9b779b17422d0df92223018b32b4d1fa46e071723d6817e2486d003becc55f0055604051928352602083015215156040820152f35b633ee5aeb560e01b5f5260045ffd5b346101b25760203660031901126101b257600435610785610f1a565b61012c81116101b257600855005b346101b2575f3660031901126101b2576020600554604051908152f35b346101b2575f3660031901126101b2576020600a54604051908152f35b346101b2575f3660031901126101b2576020906008548152f35b600435906001600160a01b03821682036101b257565b90601f8019910116810190811067ffffffffffffffff82111761081f57604052565b634e487b7160e01b5f52604160045260245ffd5b519081151582036101b257565b908160e09103126101b2576040519060e0820182811067ffffffffffffffff82111761081f576040528051906001600160a01b03821682036101b25760c09183526020810151602084015261089760408201610833565b6040840152606081015160608401526080810151608084015260a081015160a0840152015160c082015290565b818102929181159184041417156108d757565b634e487b7160e01b5f52601160045260245ffd5b81156108f5570490565b634e487b7160e01b5f52601260045260245ffd5b905f335f52600c60205260ff60405f20541615610dc757825f52600d60205260405f2054610d62575b60025460405163eb02c30160e01b815260048101859052936001600160a01b03909116929060e085602481875afa948515610b70575f95610d41575b5084516001600160a01b031615610d035761098885610f2d565b92919690961580610ce5575b15610ca057815f52600e60205260ff60405f205416956109bd6060830151946080840195611036565b97600754808a11610c98575b50158015610c8d575b610bb4575060025460408051633aa9861760e21b815260048101859052602481018a905291829060449082905f906001600160a01b03165af1938415610b705788915f95610b7b575b5061271091610a2a91516108c4565b04610a35338261108b565b90602460e060018060a01b03600254166040519283809263eb02c301851b82528960048301525afa8015610b7057610a74915f91610b41575b50610f2d565b5098600181019391508960ff85116108d7577f18bacbb3850f9032688d174ed90f5a90a1bb6e3b49257761b33f00c10ca6eb789560e095885f52600e60205260ff60405f20911660ff19825416179055875f52600d6020524260405f2055600554821015610b11575b60018060a01b0390511697604051948d865260208601526040850152606084015260808301523360a083015260c0820152a3565b877f6b3523eb37ca74cd9e1c56a59e274841ac1b0ab8a5e45b225529dd3e8bf5c4916020604051858152a2610add565b610b63915060e03d60e011610b69575b610b5b81836107fd565b810190610840565b5f610a6e565b503d610b51565b6040513d5f823e3d90fd5b915093506040813d604011610bac575b81610b98604093836107fd565b810103126101b25751928790612710610a1b565b3d9150610b8b565b91956020939497505f955060407f9c55ac006e2e620f0e0bf36165a588effe350db1f8b27e59a94719a8fe02ce6991889360018060a01b0390511690825191825286820152a2602460405180958193632755a13b60e01b83528860048401525af18015610b7057610c5a575b610c2d915033905161108b565b50805f52600e60205260405f2060ff1981541690555f52600d6020525f6040812055612710905f90600190565b6020823d602011610c85575b81610c73602093836107fd565b810103126101b257610c2d9150610c20565b3d9150610c66565b5060038710156109d2565b98505f6109c9565b60405162461bcd60e51b815260206004820152601760248201527f504c3a20706f736974696f6e206973206865616c7468790000000000000000006044820152606490fd5b506006548060011b90808204600214901517156108d7578710610994565b60405162461bcd60e51b815260206004820152601660248201527514130e881c1bdcda5d1a5bdb881b9bdd08199bdd5b9960521b6044820152606490fd5b610d5b91955060e03d60e011610b6957610b5b81836107fd565b935f61096e565b825f52600d60205260405f205460085481018091116108d7574210156109325760405162461bcd60e51b815260206004820152601a60248201527f504c3a20737465702064656c6179206e6f7420656c61707365640000000000006044820152606490fd5b60405162461bcd60e51b815260206004820152601260248201527114130e881b9bdd08185d5d1a1bdc9a5cd95960721b6044820152606490fd5b60025460405163eb02c30160e01b8152600481018390529060e090829060249082906001600160a01b03165afa908115610b70575f91610efb575b5080516001600160a01b031615610eed57610e5681610f2d565b9391949094159384610ecd575b8495945f14610ec557610e7a906060850151611036565b925b600754808511610ebb575b50610ea7612710610e9d866080839501516108c4565b04600a54906108c4565b04915f52600e60205260ff60405f20541690565b9350610ea7610e87565b505f92610e7c565b93506006548060011b90808204600214901517156108d757851093610e63565b50505f905f905f905f905f90565b610f14915060e03d60e011610b6957610b5b81836107fd565b5f610e3c565b5f546001600160a01b031633036104c857565b6003549091906001600160a01b031680610f9b575060808201516032810290808204603214901517156108d7576060929092015161271090920480831015928115610f945761271081029080820461271014901517156108d75781610f91916108eb565b91565b5061271091565b9180606460206060930151608084840151930151956040519687948593634a165e2560e11b85526004850152602484015260448301525afa908115610b70575f80935f93610fea575b50929190565b92505091506060813d60601161102e575b81611008606093836107fd565b810103126101b25761101981610833565b9160406020830151920151929192915f610fe4565b3d9150610ffb565b90808210156110855761104e612710916005546108c4565b04808210156110855761271082029180830461271014901517156108d757611075916108eb565b6127100361271081116108d75790565b50505f90565b91906127106110ab816110a0600a54876108c4565b0494600b54906108c4565b0490831515806111ca575b611126575b5080151580611112575b6110cc5750565b6004546001600160a01b031690813b156101b2575f9160248392604051948593849263211e242d60e11b845260048401525af16111065750565b5f611110916107fd565b565b506004546001600160a01b031615156110c5565b60405163a9059cbb60e01b5f9081526001600160a01b0390921660045260248590527f00000000000000000000000000000000000000000000000000000000000000009160209060448180865af19060015f51148216156111a9575b6040526110bb57635274afe760e01b5f9081526001600160a01b0391909116600452602490fd5b9060018115166111c157823b15153d15161690611182565b503d5f823e3d90fd5b506040516370a0823160e01b81523060048201526020816024817f00000000000000000000000000000000000000000000000000000000000000006001600160a01b03165afa8015610b705785915f91611227575b5010156110b6565b9150506020813d602011611254575b81611243602093836107fd565b810103126101b2578490515f61121f565b3d915061123656fea26469706673582212200f4bef55d199bf0fbf41bd182e2849450248b64e1b05e1821d1d4f001336477664736f6c634300081a0033",
  "linkReferences": {},
  "deployedLinkReferences": {}
}