{
  "_format": "hh-sol-artifact-1",
  "contractName": "WikiTraderPass",
  "sourceName": "src/WikiTraderPass.sol",
  "abi": [
    {
      "inputs": [
        {
          "internalType": "address",
          "name": "_usdc",
          "type": "address"
        },
        {
          "internalType": "address",
          "name": "_treasury",
          "type": "address"
        },
        {
          "internalType": "address",
          "name": "_owner",
          "type": "address"
        }
      ],
      "stateMutability": "nonpayable",
      "type": "constructor"
    },
    {
      "inputs": [
        {
          "internalType": "address",
          "name": "sender",
          "type": "address"
        },
        {
          "internalType": "uint256",
          "name": "tokenId",
          "type": "uint256"
        },
        {
          "internalType": "address",
          "name": "owner",
          "type": "address"
        }
      ],
      "name": "ERC721IncorrectOwner",
      "type": "error"
    },
    {
      "inputs": [
        {
          "internalType": "address",
          "name": "operator",
          "type": "address"
        },
        {
          "internalType": "uint256",
          "name": "tokenId",
          "type": "uint256"
        }
      ],
      "name": "ERC721InsufficientApproval",
      "type": "error"
    },
    {
      "inputs": [
        {
          "internalType": "address",
          "name": "approver",
          "type": "address"
        }
      ],
      "name": "ERC721InvalidApprover",
      "type": "error"
    },
    {
      "inputs": [
        {
          "internalType": "address",
          "name": "operator",
          "type": "address"
        }
      ],
      "name": "ERC721InvalidOperator",
      "type": "error"
    },
    {
      "inputs": [
        {
          "internalType": "address",
          "name": "owner",
          "type": "address"
        }
      ],
      "name": "ERC721InvalidOwner",
      "type": "error"
    },
    {
      "inputs": [
        {
          "internalType": "address",
          "name": "receiver",
          "type": "address"
        }
      ],
      "name": "ERC721InvalidReceiver",
      "type": "error"
    },
    {
      "inputs": [
        {
          "internalType": "address",
          "name": "sender",
          "type": "address"
        }
      ],
      "name": "ERC721InvalidSender",
      "type": "error"
    },
    {
      "inputs": [
        {
          "internalType": "uint256",
          "name": "tokenId",
          "type": "uint256"
        }
      ],
      "name": "ERC721NonexistentToken",
      "type": "error"
    },
    {
      "inputs": [
        {
          "internalType": "address",
          "name": "owner",
          "type": "address"
        }
      ],
      "name": "OwnableInvalidOwner",
      "type": "error"
    },
    {
      "inputs": [
        {
          "internalType": "address",
          "name": "account",
          "type": "address"
        }
      ],
      "name": "OwnableUnauthorizedAccount",
      "type": "error"
    },
    {
      "inputs": [],
      "name": "ReentrancyGuardReentrantCall",
      "type": "error"
    },
    {
      "inputs": [
        {
          "internalType": "address",
          "name": "token",
          "type": "address"
        }
      ],
      "name": "SafeERC20FailedOperation",
      "type": "error"
    },
    {
      "anonymous": false,
      "inputs": [
        {
          "indexed": true,
          "internalType": "address",
          "name": "owner",
          "type": "address"
        },
        {
          "indexed": true,
          "internalType": "address",
          "name": "approved",
          "type": "address"
        },
        {
          "indexed": true,
          "internalType": "uint256",
          "name": "tokenId",
          "type": "uint256"
        }
      ],
      "name": "Approval",
      "type": "event"
    },
    {
      "anonymous": false,
      "inputs": [
        {
          "indexed": true,
          "internalType": "address",
          "name": "owner",
          "type": "address"
        },
        {
          "indexed": true,
          "internalType": "address",
          "name": "operator",
          "type": "address"
        },
        {
          "indexed": false,
          "internalType": "bool",
          "name": "approved",
          "type": "bool"
        }
      ],
      "name": "ApprovalForAll",
      "type": "event"
    },
    {
      "anonymous": false,
      "inputs": [
        {
          "indexed": true,
          "internalType": "address",
          "name": "previousOwner",
          "type": "address"
        },
        {
          "indexed": true,
          "internalType": "address",
          "name": "newOwner",
          "type": "address"
        }
      ],
      "name": "OwnershipTransferStarted",
      "type": "event"
    },
    {
      "anonymous": false,
      "inputs": [
        {
          "indexed": true,
          "internalType": "address",
          "name": "previousOwner",
          "type": "address"
        },
        {
          "indexed": true,
          "internalType": "address",
          "name": "newOwner",
          "type": "address"
        }
      ],
      "name": "OwnershipTransferred",
      "type": "event"
    },
    {
      "anonymous": false,
      "inputs": [
        {
          "indexed": true,
          "internalType": "uint256",
          "name": "tokenId",
          "type": "uint256"
        },
        {
          "indexed": true,
          "internalType": "address",
          "name": "buyer",
          "type": "address"
        },
        {
          "indexed": false,
          "internalType": "enum WikiTraderPass.Tier",
          "name": "tier",
          "type": "uint8"
        },
        {
          "indexed": false,
          "internalType": "uint256",
          "name": "price",
          "type": "uint256"
        }
      ],
      "name": "PassMinted",
      "type": "event"
    },
    {
      "anonymous": false,
      "inputs": [
        {
          "indexed": true,
          "internalType": "uint256",
          "name": "tokenId",
          "type": "uint256"
        },
        {
          "indexed": false,
          "internalType": "enum WikiTraderPass.Tier",
          "name": "from",
          "type": "uint8"
        },
        {
          "indexed": false,
          "internalType": "enum WikiTraderPass.Tier",
          "name": "to",
          "type": "uint8"
        },
        {
          "indexed": false,
          "internalType": "uint256",
          "name": "additionalCost",
          "type": "uint256"
        }
      ],
      "name": "PassUpgraded",
      "type": "event"
    },
    {
      "anonymous": false,
      "inputs": [
        {
          "indexed": false,
          "internalType": "enum WikiTraderPass.Tier",
          "name": "tier",
          "type": "uint8"
        },
        {
          "indexed": false,
          "internalType": "uint256",
          "name": "newPrice",
          "type": "uint256"
        }
      ],
      "name": "TierPriceUpdated",
      "type": "event"
    },
    {
      "anonymous": false,
      "inputs": [
        {
          "indexed": true,
          "internalType": "address",
          "name": "from",
          "type": "address"
        },
        {
          "indexed": true,
          "internalType": "address",
          "name": "to",
          "type": "address"
        },
        {
          "indexed": true,
          "internalType": "uint256",
          "name": "tokenId",
          "type": "uint256"
        }
      ],
      "name": "Transfer",
      "type": "event"
    },
    {
      "inputs": [],
      "name": "BPS",
      "outputs": [
        {
          "internalType": "uint256",
          "name": "",
          "type": "uint256"
        }
      ],
      "stateMutability": "view",
      "type": "function"
    },
    {
      "inputs": [],
      "name": "MAX_SUPPLY",
      "outputs": [
        {
          "internalType": "uint256",
          "name": "",
          "type": "uint256"
        }
      ],
      "stateMutability": "view",
      "type": "function"
    },
    {
      "inputs": [],
      "name": "ROYALTY_BPS",
      "outputs": [
        {
          "internalType": "uint256",
          "name": "",
          "type": "uint256"
        }
      ],
      "stateMutability": "view",
      "type": "function"
    },
    {
      "inputs": [],
      "name": "USDC",
      "outputs": [
        {
          "internalType": "contract IERC20",
          "name": "",
          "type": "address"
        }
      ],
      "stateMutability": "view",
      "type": "function"
    },
    {
      "inputs": [],
      "name": "acceptOwnership",
      "outputs": [],
      "stateMutability": "nonpayable",
      "type": "function"
    },
    {
      "inputs": [
        {
          "internalType": "address",
          "name": "to",
          "type": "address"
        },
        {
          "internalType": "uint256",
          "name": "tokenId",
          "type": "uint256"
        }
      ],
      "name": "approve",
      "outputs": [],
      "stateMutability": "nonpayable",
      "type": "function"
    },
    {
      "inputs": [
        {
          "internalType": "address",
          "name": "owner",
          "type": "address"
        }
      ],
      "name": "balanceOf",
      "outputs": [
        {
          "internalType": "uint256",
          "name": "",
          "type": "uint256"
        }
      ],
      "stateMutability": "view",
      "type": "function"
    },
    {
      "inputs": [],
      "name": "baseTokenURI",
      "outputs": [
        {
          "internalType": "string",
          "name": "",
          "type": "string"
        }
      ],
      "stateMutability": "view",
      "type": "function"
    },
    {
      "inputs": [
        {
          "internalType": "uint256",
          "name": "tokenId",
          "type": "uint256"
        }
      ],
      "name": "getApproved",
      "outputs": [
        {
          "internalType": "address",
          "name": "",
          "type": "address"
        }
      ],
      "stateMutability": "view",
      "type": "function"
    },
    {
      "inputs": [
        {
          "internalType": "address",
          "name": "trader",
          "type": "address"
        }
      ],
      "name": "getDiscount",
      "outputs": [
        {
          "internalType": "uint256",
          "name": "discountBps",
          "type": "uint256"
        }
      ],
      "stateMutability": "view",
      "type": "function"
    },
    {
      "inputs": [
        {
          "internalType": "address",
          "name": "trader",
          "type": "address"
        }
      ],
      "name": "getFarmBoost",
      "outputs": [
        {
          "internalType": "uint256",
          "name": "boostBps",
          "type": "uint256"
        }
      ],
      "stateMutability": "view",
      "type": "function"
    },
    {
      "inputs": [
        {
          "internalType": "address",
          "name": "holder",
          "type": "address"
        }
      ],
      "name": "getHolderPass",
      "outputs": [
        {
          "internalType": "uint256",
          "name": "tokenId",
          "type": "uint256"
        },
        {
          "components": [
            {
              "internalType": "enum WikiTraderPass.Tier",
              "name": "tier",
              "type": "uint8"
            },
            {
              "internalType": "uint256",
              "name": "purchasedAt",
              "type": "uint256"
            },
            {
              "internalType": "uint256",
              "name": "purchasePrice",
              "type": "uint256"
            }
          ],
          "internalType": "struct WikiTraderPass.PassData",
          "name": "data",
          "type": "tuple"
        }
      ],
      "stateMutability": "view",
      "type": "function"
    },
    {
      "inputs": [
        {
          "internalType": "uint256",
          "name": "tokenId",
          "type": "uint256"
        }
      ],
      "name": "getPass",
      "outputs": [
        {
          "components": [
            {
              "internalType": "enum WikiTraderPass.Tier",
              "name": "tier",
              "type": "uint8"
            },
            {
              "internalType": "uint256",
              "name": "purchasedAt",
              "type": "uint256"
            },
            {
              "internalType": "uint256",
              "name": "purchasePrice",
              "type": "uint256"
            }
          ],
          "internalType": "struct WikiTraderPass.PassData",
          "name": "",
          "type": "tuple"
        }
      ],
      "stateMutability": "view",
      "type": "function"
    },
    {
      "inputs": [
        {
          "internalType": "address",
          "name": "trader",
          "type": "address"
        }
      ],
      "name": "hasOTCAccess",
      "outputs": [
        {
          "internalType": "bool",
          "name": "",
          "type": "bool"
        }
      ],
      "stateMutability": "view",
      "type": "function"
    },
    {
      "inputs": [
        {
          "internalType": "address",
          "name": "trader",
          "type": "address"
        }
      ],
      "name": "hasPriorityLiq",
      "outputs": [
        {
          "internalType": "bool",
          "name": "",
          "type": "bool"
        }
      ],
      "stateMutability": "view",
      "type": "function"
    },
    {
      "inputs": [
        {
          "internalType": "address",
          "name": "",
          "type": "address"
        }
      ],
      "name": "holderPass",
      "outputs": [
        {
          "internalType": "uint256",
          "name": "",
          "type": "uint256"
        }
      ],
      "stateMutability": "view",
      "type": "function"
    },
    {
      "inputs": [
        {
          "internalType": "address",
          "name": "owner",
          "type": "address"
        },
        {
          "internalType": "address",
          "name": "operator",
          "type": "address"
        }
      ],
      "name": "isApprovedForAll",
      "outputs": [
        {
          "internalType": "bool",
          "name": "",
          "type": "bool"
        }
      ],
      "stateMutability": "view",
      "type": "function"
    },
    {
      "inputs": [
        {
          "internalType": "enum WikiTraderPass.Tier",
          "name": "tier",
          "type": "uint8"
        }
      ],
      "name": "mint",
      "outputs": [
        {
          "internalType": "uint256",
          "name": "tokenId",
          "type": "uint256"
        }
      ],
      "stateMutability": "nonpayable",
      "type": "function"
    },
    {
      "inputs": [],
      "name": "name",
      "outputs": [
        {
          "internalType": "string",
          "name": "",
          "type": "string"
        }
      ],
      "stateMutability": "view",
      "type": "function"
    },
    {
      "inputs": [],
      "name": "nextTokenId",
      "outputs": [
        {
          "internalType": "uint256",
          "name": "",
          "type": "uint256"
        }
      ],
      "stateMutability": "view",
      "type": "function"
    },
    {
      "inputs": [],
      "name": "owner",
      "outputs": [
        {
          "internalType": "address",
          "name": "",
          "type": "address"
        }
      ],
      "stateMutability": "view",
      "type": "function"
    },
    {
      "inputs": [
        {
          "internalType": "uint256",
          "name": "tokenId",
          "type": "uint256"
        }
      ],
      "name": "ownerOf",
      "outputs": [
        {
          "internalType": "address",
          "name": "",
          "type": "address"
        }
      ],
      "stateMutability": "view",
      "type": "function"
    },
    {
      "inputs": [
        {
          "internalType": "uint256",
          "name": "",
          "type": "uint256"
        }
      ],
      "name": "passes",
      "outputs": [
        {
          "internalType": "enum WikiTraderPass.Tier",
          "name": "tier",
          "type": "uint8"
        },
        {
          "internalType": "uint256",
          "name": "purchasedAt",
          "type": "uint256"
        },
        {
          "internalType": "uint256",
          "name": "purchasePrice",
          "type": "uint256"
        }
      ],
      "stateMutability": "view",
      "type": "function"
    },
    {
      "inputs": [],
      "name": "pendingOwner",
      "outputs": [
        {
          "internalType": "address",
          "name": "",
          "type": "address"
        }
      ],
      "stateMutability": "view",
      "type": "function"
    },
    {
      "inputs": [],
      "name": "renounceOwnership",
      "outputs": [],
      "stateMutability": "nonpayable",
      "type": "function"
    },
    {
      "inputs": [
        {
          "internalType": "address",
          "name": "from",
          "type": "address"
        },
        {
          "internalType": "address",
          "name": "to",
          "type": "address"
        },
        {
          "internalType": "uint256",
          "name": "tokenId",
          "type": "uint256"
        }
      ],
      "name": "safeTransferFrom",
      "outputs": [],
      "stateMutability": "nonpayable",
      "type": "function"
    },
    {
      "inputs": [
        {
          "internalType": "address",
          "name": "from",
          "type": "address"
        },
        {
          "internalType": "address",
          "name": "to",
          "type": "address"
        },
        {
          "internalType": "uint256",
          "name": "tokenId",
          "type": "uint256"
        },
        {
          "internalType": "bytes",
          "name": "data",
          "type": "bytes"
        }
      ],
      "name": "safeTransferFrom",
      "outputs": [],
      "stateMutability": "nonpayable",
      "type": "function"
    },
    {
      "inputs": [
        {
          "internalType": "address",
          "name": "operator",
          "type": "address"
        },
        {
          "internalType": "bool",
          "name": "approved",
          "type": "bool"
        }
      ],
      "name": "setApprovalForAll",
      "outputs": [],
      "stateMutability": "nonpayable",
      "type": "function"
    },
    {
      "inputs": [
        {
          "internalType": "string",
          "name": "uri",
          "type": "string"
        }
      ],
      "name": "setBaseURI",
      "outputs": [],
      "stateMutability": "nonpayable",
      "type": "function"
    },
    {
      "inputs": [
        {
          "internalType": "enum WikiTraderPass.Tier",
          "name": "tier",
          "type": "uint8"
        },
        {
          "internalType": "uint256",
          "name": "newPrice",
          "type": "uint256"
        }
      ],
      "name": "setTierPrice",
      "outputs": [],
      "stateMutability": "nonpayable",
      "type": "function"
    },
    {
      "inputs": [
        {
          "internalType": "address",
          "name": "_tl",
          "type": "address"
        }
      ],
      "name": "setTimelock",
      "outputs": [],
      "stateMutability": "nonpayable",
      "type": "function"
    },
    {
      "inputs": [
        {
          "internalType": "address",
          "name": "t",
          "type": "address"
        }
      ],
      "name": "setTreasury",
      "outputs": [],
      "stateMutability": "nonpayable",
      "type": "function"
    },
    {
      "inputs": [
        {
          "internalType": "bytes4",
          "name": "interfaceId",
          "type": "bytes4"
        }
      ],
      "name": "supportsInterface",
      "outputs": [
        {
          "internalType": "bool",
          "name": "",
          "type": "bool"
        }
      ],
      "stateMutability": "view",
      "type": "function"
    },
    {
      "inputs": [],
      "name": "symbol",
      "outputs": [
        {
          "internalType": "string",
          "name": "",
          "type": "string"
        }
      ],
      "stateMutability": "view",
      "type": "function"
    },
    {
      "inputs": [
        {
          "internalType": "uint256",
          "name": "",
          "type": "uint256"
        }
      ],
      "name": "tiers",
      "outputs": [
        {
          "internalType": "uint256",
          "name": "price",
          "type": "uint256"
        },
        {
          "internalType": "uint256",
          "name": "discountBps",
          "type": "uint256"
        },
        {
          "internalType": "uint256",
          "name": "farmBoostBps",
          "type": "uint256"
        },
        {
          "internalType": "uint256",
          "name": "maxSupply",
          "type": "uint256"
        },
        {
          "internalType": "uint256",
          "name": "minted",
          "type": "uint256"
        },
        {
          "internalType": "bool",
          "name": "otcAccess",
          "type": "bool"
        },
        {
          "internalType": "bool",
          "name": "priorityLiq",
          "type": "bool"
        },
        {
          "internalType": "string",
          "name": "name",
          "type": "string"
        }
      ],
      "stateMutability": "view",
      "type": "function"
    },
    {
      "inputs": [],
      "name": "timelock",
      "outputs": [
        {
          "internalType": "address",
          "name": "",
          "type": "address"
        }
      ],
      "stateMutability": "view",
      "type": "function"
    },
    {
      "inputs": [
        {
          "internalType": "uint256",
          "name": "tokenId",
          "type": "uint256"
        }
      ],
      "name": "tokenURI",
      "outputs": [
        {
          "internalType": "string",
          "name": "",
          "type": "string"
        }
      ],
      "stateMutability": "view",
      "type": "function"
    },
    {
      "inputs": [],
      "name": "totalRevenue",
      "outputs": [
        {
          "internalType": "uint256",
          "name": "",
          "type": "uint256"
        }
      ],
      "stateMutability": "view",
      "type": "function"
    },
    {
      "inputs": [],
      "name": "totalSupply",
      "outputs": [
        {
          "internalType": "uint256",
          "name": "",
          "type": "uint256"
        }
      ],
      "stateMutability": "view",
      "type": "function"
    },
    {
      "inputs": [
        {
          "internalType": "address",
          "name": "from",
          "type": "address"
        },
        {
          "internalType": "address",
          "name": "to",
          "type": "address"
        },
        {
          "internalType": "uint256",
          "name": "tokenId",
          "type": "uint256"
        }
      ],
      "name": "transferFrom",
      "outputs": [],
      "stateMutability": "nonpayable",
      "type": "function"
    },
    {
      "inputs": [
        {
          "internalType": "address",
          "name": "newOwner",
          "type": "address"
        }
      ],
      "name": "transferOwnership",
      "outputs": [],
      "stateMutability": "nonpayable",
      "type": "function"
    },
    {
      "inputs": [],
      "name": "treasury",
      "outputs": [
        {
          "internalType": "address",
          "name": "",
          "type": "address"
        }
      ],
      "stateMutability": "view",
      "type": "function"
    },
    {
      "inputs": [
        {
          "internalType": "uint256",
          "name": "tokenId",
          "type": "uint256"
        },
        {
          "internalType": "enum WikiTraderPass.Tier",
          "name": "newTier",
          "type": "uint8"
        }
      ],
      "name": "upgradePass",
      "outputs": [],
      "stateMutability": "nonpayable",
      "type": "function"
    },
    {
      "inputs": [
        {
          "internalType": "address",
          "name": "token",
          "type": "address"
        },
        {
          "internalType": "uint256",
          "name": "amount",
          "type": "uint256"
        },
        {
          "internalType": "address",
          "name": "to",
          "type": "address"
        }
      ],
      "name": "withdrawStuck",
      "outputs": [],
      "stateMutability": "nonpayable",
      "type": "function"
    }
  ],
  "bytecode": "0x60a060405234610c0d57612d636060813803918261001c81610c31565b938492833981010312610c0d5761003281610c56565b61004a604061004360208501610c56565b9301610c56565b916100556040610c31565b92601584527f57696b6963696f75732054726164657220506173730000000000000000000000602085015261008a6040610c31565b600381526205754560ec1b6020820152845190946001600160401b038211610724575f5490600182811c92168015610c03575b60208310146107065781601f849311610b96575b50602090601f8311600114610b33575f92610b28575b50508160011b915f199060031b1c1916175f555b83516001600160401b03811161072457600154600181811c91168015610b1e575b602082101461070657601f8111610abb575b50602094601f8211600114610a58579481929394955f92610a4d575b50508160011b915f199060031b1c1916176001555b6001600160a01b0316918215610a3a57600780546001600160a01b0319908116909155600680549182168517905560405193906001600160a01b03167f8be0079c531659141344cd1fd0a4f28419497f9722a3daafe3b4186f6b6457e05f80a360017f9b779b17422d0df92223018b32b4d1fa46e071723d6817e2486d003becc55f00556001600160a01b0316918215610a0557506001600160a01b03169081156109c057608052602980546001600160a01b031916919091179055610223610c11565b631dcd65008152602081016109c4815260408201612710815260608301611388815260808401905f825260a08501925f845260c08601945f86526102676040610c31565b96600688526542726f6e7a6560d01b602089015260e081019788525160095551600a5551600b5551600c5551600d555115159060ff61ff00600e549251151560081b1692169061ffff19161717600e5551805160018060401b03811161072457600f54600181811c911680156109b6575b602082101461070657601f8111610953575b50602091601f82116001146108f3579181925f926108e8575b50508160011b915f199060031b1c191617600f555b610320610c11565b633b9aca00815260208101610fa0815260408201614e20815260608301610bb8815260808401905f825260a08501925f845260c08601945f86526103646040610c31565b96600688526529b4b63b32b960d11b602089015260e0810197885251601055516011555160125551601355516014555115159060ff61ff006015549251151560081b1692169061ffff1916171760155551805160018060401b03811161072457601654600181811c911680156108de575b602082101461070657601f811161087b575b50602091601f821160011461081b579181925f92610810575b50508160011b915f199060031b1c1916176016555b61041d610c11565b63773594008152602081016117708152604082016175308152606083016105dc815260808401905f825260a08501925f845260c0860194600186526104626040610c31565b96600488526311dbdb1960e21b602089015260e0810197885251601755516018555160195551601a5551601b555115159060ff61ff00601c549251151560081b1692169061ffff19161717601c5551805160018060401b03811161072457601d54600181811c91168015610806575b602082101461070657601f81116107a3575b50602091601f8211600114610743579181925f92610738575b50508160011b915f199060031b1c191617601d555b610519610c11565b64012a05f200815260208101611d4c81526040820161c3508152606083016101f4815260808401905f825260a08501926001845260c0860194600186526105606040610c31565b966007885266111a585b5bdb9960ca1b602089015260e0810197885251601e5551601f555160205551602155516022555115159060ff61ff006023549251151560081b1692169061ffff1916171760235551805160018060401b03811161072457602454600181811c9116801561071a575b602082101461070657601f81116106a3575b50602091601f8211600114610643579181925f92610638575b50508160011b915f199060031b1c1916176024555b6040516120f89081610c6b82396080518181816104ff01528181610c120152610e8a0152f35b015190505f806105fd565b601f1982169260245f52805f20915f5b85811061068b57508360019510610673575b505050811b01602455610612565b01515f1960f88460031b161c191690555f8080610665565b91926020600181928685015181550194019201610653565b60245f527f7cd332d19b93bcabe3cce7ca0c18a052f57e5fd03b4758a09f30f5ddc4b22ec4601f830160051c810191602084106106fc575b601f0160051c01905b8181106106f157506105e4565b5f81556001016106e4565b90915081906106db565b634e487b7160e01b5f52602260045260245ffd5b90607f16906105d2565b634e487b7160e01b5f52604160045260245ffd5b015190505f806104fc565b601f19821692601d5f52805f20915f5b85811061078b57508360019510610773575b505050811b01601d55610511565b01515f1960f88460031b161c191690555f8080610765565b91926020600181928685015181550194019201610753565b601d5f527f6d4407e7be21f808e6509aa9fa9143369579dd7d760fe20a2c09680fc146134f601f830160051c810191602084106107fc575b601f0160051c01905b8181106107f157506104e3565b5f81556001016107e4565b90915081906107db565b90607f16906104d1565b015190505f80610400565b601f1982169260165f52805f20915f5b8581106108635750836001951061084b575b505050811b01601655610415565b01515f1960f88460031b161c191690555f808061083d565b9192602060018192868501518155019401920161082b565b60165f527fd833147d7dc355ba459fc788f669e58cfaf9dc25ddcd0702e87d69c7b5124289601f830160051c810191602084106108d4575b601f0160051c01905b8181106108c957506103e7565b5f81556001016108bc565b90915081906108b3565b90607f16906103d5565b015190505f80610303565b601f19821692600f5f52805f20915f5b85811061093b57508360019510610923575b505050811b01600f55610318565b01515f1960f88460031b161c191690555f8080610915565b91926020600181928685015181550194019201610903565b600f5f527f8d1108e10bcb7c27dddfc02ed9d693a074039d026cf4ea4240b40f7d581ac802601f830160051c810191602084106109ac575b601f0160051c01905b8181106109a157506102ea565b5f8155600101610994565b909150819061098b565b90607f16906102d8565b60405162461bcd60e51b815260206004820152601460248201527f57696b693a207a65726f205f74726561737572790000000000000000000000006044820152606490fd5b62461bcd60e51b815260206004820152601060248201526f57696b693a207a65726f205f7573646360801b6044820152606490fd5b631e4fbdf760e01b5f525f60045260245ffd5b015190505f8061014a565b601f1982169560015f52805f20915f5b888110610aa357508360019596979810610a8b575b505050811b0160015561015f565b01515f1960f88460031b161c191690555f8080610a7d565b91926020600181928685015181550194019201610a68565b60015f527fb10e2d527612073b26eecdfd717e6a320cf44b4afac2b0732d9fcbe2b7fa0cf6601f830160051c81019160208410610b14575b601f0160051c01905b818110610b09575061012e565b5f8155600101610afc565b9091508190610af3565b90607f169061011c565b015190505f806100e7565b5f8080528281209350601f198516905b818110610b7e5750908460019594939210610b66575b505050811b015f556100fb565b01515f1960f88460031b161c191690555f8080610b59565b92936020600181928786015181550195019301610b43565b5f80529091507f290decd9548b62a8d60345a988386fc84ba6bc95484008f6362f93160ef3e563601f840160051c81019160208510610bf9575b90601f859493920160051c01905b818110610beb57506100d1565b5f8155849350600101610bde565b9091508190610bd0565b91607f16916100bd565b5f80fd5b6040519061010082016001600160401b0381118382101761072457604052565b6040519190601f01601f191682016001600160401b0381118382101761072457604052565b51906001600160a01b0382168203610c0d5756fe6080806040526004361015610012575f80fd5b5f3560e01c90816301ffc9a7146116e957508063039af9eb146115b957806306f2791a1461159657806306fdde03146114f45780630788d4fb146114bc578063081812fc14611480578063095ea7b31461139657806318160ddd14610cc757806323b872dd1461137f578063249d39e91461137a57806332cb6b0c1461137a57806342842e0e1461135157806349c657db146113365780634a5c6f8c146112cd57806355a6f86f1461126857806355f804b3146110f357806361d027b3146110cb5780636352211e1461109b5780636e321ce4146110505780636ecd230614610d9a57806370a0823114610d49578063715018a614610ce457806375794a3c14610cc757806379ba509714610c4157806389a3027114610bfd5780638da5cb5b14610bd557806395d89b4114610b0b578063a22cb46514610a57578063ae33a70f14610988578063b88d4fde14610900578063bdacb30314610879578063bf2d9e0b1461085c578063c6dc04631461080f578063c87b56dd14610619578063d1539ccb14610408578063d33219b4146103e0578063d547cfb7146103ad578063e30c397814610385578063e43f47a014610362578063e985e9c51461030b578063ef749d4d146102de578063f0665487146102b3578063f0f44260146102705763f2fde38b14610200575f80fd5b3461026c57602036600319011261026c576102196118a6565b610221611f4c565b600780546001600160a01b0319166001600160a01b039283169081179091556006549091167f38d16b8cac22d99fc7c124b9cd0de2d3fa1faef420bfe791d8c362d765e227005f80a3005b5f80fd5b3461026c57602036600319011261026c576102896118a6565b610291611f4c565b602980546001600160a01b0319166001600160a01b0392909216919091179055005b3461026c57602036600319011261026c5760206102d66102d16118a6565b611ea7565b604051908152f35b3461026c57602036600319011261026c5760206103016102fc6118a6565b611e5a565b6040519015158152f35b3461026c57604036600319011261026c576103246118a6565b61032c6118bc565b9060018060a01b03165f52600560205260405f209060018060a01b03165f52602052602060ff60405f2054166040519015158152f35b3461026c57602036600319011261026c5760206103016103806118a6565b611e0a565b3461026c575f36600319011261026c576007546040516001600160a01b039091168152602090f35b3461026c575f36600319011261026c576103dc6103c86117de565b604051918291602083526020830190611882565b0390f35b3461026c575f36600319011261026c576008546040516001600160a01b039091168152602090f35b3461026c57604036600319011261026c57600435602435600481101561026c57610430611f60565b61043982611f18565b336001600160a01b03909116036105e457815f52602560205260405f2060ff81541660048110156105d0578083111561059657600783026007820290600d81019061048a8254600c83015411611c28565b60090154918060090154830392831161058257600d019485549586156105825781606096610558946104fd937f932fe8b9083c2ea24c041227c931a0ab06dd7efcff874742e5ad4266ab4b1caa9a5f190190556104e78154611c63565b90556104f586602854611a2a565b602855611c71565b7f000000000000000000000000000000000000000000000000000000000000000061052a84303384611f98565b60295484906001600160a01b031680610571575b50505061054e6040518095611928565b6020840190611928565b6040820152a260015f805160206120a383398151915255005b61057a9261202a565b87838161053e565b634e487b7160e01b5f52601160045260245ffd5b60405162461bcd60e51b815260206004820152601260248201527154503a206e6f7420616e207570677261646560701b6044820152606490fd5b634e487b7160e01b5f52602160045260245ffd5b60405162461bcd60e51b815260206004820152600d60248201526c2a281d103737ba1037bbb732b960991b6044820152606490fd5b3461026c57602036600319011261026c5760043561063681611f18565b5061063f6117de565b8051909190156107f4575f818072184f03e93ff9f4daa797ed6e38ed64bf6a1f0160401b8110156107ce575b50806d04ee2d6d415b85acef8100000000600a9210156107b3575b662386f26fc1000081101561079f575b6305f5e10081101561078e575b61271081101561077f575b6064811015610771575b1015610769575b6001810191600a60216106ea6106d486611955565b956106e260405197886117bc565b808752611955565b602086019490601f19013686378501015b5f1901916f181899199a1a9b1b9c1cb0b131b232b360811b8282061a83530490811561072957600a906106fb565b50506103dc9260206103c89281946040519584879551918291018587015e840190838201905f8252519283915e01015f815203601f1981018352826117bc565b6001016106bf565b6064600291049201916106b8565b612710600491049201916106ae565b6305f5e100600891049201916106a3565b662386f26fc1000060109104920191610696565b6d04ee2d6d415b85acef810000000060209104920191610686565b6040925072184f03e93ff9f4daa797ed6e38ed64bf6a1f0160401b90049050600a61066b565b50506103dc6040516108076020826117bc565b5f81526103c8565b3461026c57606036600319011261026c576108286118a6565b604435906001600160a01b038216820361026c5761085a91610848611f4c565b602435916001600160a01b031661202a565b005b3461026c575f36600319011261026c576020602854604051908152f35b3461026c57602036600319011261026c576108926118a6565b61089a611f4c565b6001600160a01b031680156108c5576bffffffffffffffffffffffff60a01b60085416176008555f80f35b60405162461bcd60e51b815260206004820152601360248201527257696b693a207a65726f2074696d656c6f636b60681b6044820152606490fd5b3461026c57608036600319011261026c576109196118a6565b6109216118bc565b6064359167ffffffffffffffff831161026c573660238401121561026c5782600401359161094e83611955565b9261095c60405194856117bc565b808452366024828701011161026c576020815f92602461085a9801838801378501015260443591611c89565b3461026c57602036600319011261026c576109a16118a6565b6109a9611bfe565b506001600160a01b03165f908152602660205260409020548015610a24575f19810190811161058257806080915f526025602052610a2260405f206002604051916109f38361178c565b610a0160ff82541684611c1c565b60018101546020840152015460408201526040519283526020830190611935565bf35b60405162461bcd60e51b815260206004820152600b60248201526a54503a206e6f207061737360a81b6044820152606490fd5b3461026c57604036600319011261026c57610a706118a6565b6024359081151580920361026c573315610af8576001600160a01b0316908115610ae557335f52600560205260405f20825f5260205260405f2060ff1981541660ff83161790556040519081527f17307eab39ab6107e8899845ad3d59bd9653f200f220920489ca2b5937696c3160203392a3005b50630b61174360e31b5f5260045260245ffd5b63a9fbf51f60e01b5f525f60045260245ffd5b3461026c575f36600319011261026c576040515f600154610b2b81611754565b8084529060018116908115610bb15750600114610b53575b6103dc836103c8818503826117bc565b60015f9081527fb10e2d527612073b26eecdfd717e6a320cf44b4afac2b0732d9fcbe2b7fa0cf6939250905b808210610b97575090915081016020016103c8610b43565b919260018160209254838588010152019101909291610b7f565b60ff191660208086019190915291151560051b840190910191506103c89050610b43565b3461026c575f36600319011261026c576006546040516001600160a01b039091168152602090f35b3461026c575f36600319011261026c576040517f00000000000000000000000000000000000000000000000000000000000000006001600160a01b03168152602090f35b3461026c575f36600319011261026c57600754336001600160a01b0390911603610cb457600780546001600160a01b0319908116909155600680543392811683179091556001600160a01b03167f8be0079c531659141344cd1fd0a4f28419497f9722a3daafe3b4186f6b6457e05f80a3005b63118cdaa760e01b5f523360045260245ffd5b3461026c575f36600319011261026c576020602754604051908152f35b3461026c575f36600319011261026c57610cfc611f4c565b600780546001600160a01b03199081169091556006805491821690555f906001600160a01b03167f8be0079c531659141344cd1fd0a4f28419497f9722a3daafe3b4186f6b6457e08280a3005b3461026c57602036600319011261026c576001600160a01b03610d6a6118a6565b168015610d87575f526003602052602060405f2054604051908152f35b6322718ad960e21b5f525f60045260245ffd5b3461026c57602036600319011261026c57600435600481101561026c57610dbf611f60565b335f52602660205260405f205461101357600781028060090191610dee600d830192600c845491015411611c28565b60275491610dfb83611c63565b602755610e088154611c63565b90556001820180831161058257335f52602660205260405f2055610e2f8354602854611a2a565b602855825460405190610e418261178c565b610e4b8383611c1c565b602082019042825260408301908152845f52602560205260405f2092519160048310156105d057610e7e60029385611c71565b516001840155519101557f0000000000000000000000000000000000000000000000000000000000000000610eb68454303384611f98565b6029546001600160a01b03169081611000575b50503315610fed575f828152600260205260409020546001600160a01b03168015159081610fba575b335f818152600360209081526040808320805460010190558783526002909152812080546001600160a01b0319168317905585919083907fddf252ad1be2c89b69c2b068fc378daa952ba7f163c4a11628f55a4df523b3ef9080a450610fa75760209254610f636040518093611928565b83820152817f631821f0d3c8313190323dbd6722d55dae0094af429cb1bfd7ce7dbcd731ea9f60403393a360015f805160206120a383398151915255604051908152f35b6339e3563760e11b5f525f60045260245ffd5b5f84815260046020526040902080546001600160a01b0319169055805f52600360205260405f205f198154019055610ef2565b633250574960e11b5f525f60045260245ffd5b61100c9185549161202a565b8380610ec9565b60405162461bcd60e51b815260206004820152601560248201527454503a20616c72656164792068617665207061737360581b6044820152606490fd5b3461026c57602036600319011261026c576004355f526025602052606060405f2060ff81541690600260018201549101549061108f6040518094611928565b60208301526040820152f35b3461026c57602036600319011261026c5760206110b9600435611f18565b6040516001600160a01b039091168152f35b3461026c575f36600319011261026c576029546040516001600160a01b039091168152602090f35b3461026c57602036600319011261026c5760043567ffffffffffffffff811161026c573660238201121561026c57806004013567ffffffffffffffff811161026c57366024828401011161026c57611149611f4c565b611154602a54611754565b601f8111611204575b505f601f82116001146111995781925f9261118b575b50505f19600383901b1c191660019190911b17602a55005b602492500101358280611173565b601f198216925f80516020612083833981519152915f5b8581106111e9575083600195106111cd575b505050811b01602a55005b01602401355f19600384901b60f8161c191690558280806111c2565b909260206001819260248787010135815501940191016111b0565b601f820160051c5f80516020612083833981519152019060208310611253575b601f0160051c5f8051602061208383398151915201905b818110611248575061115d565b5f815560010161123b565b5f805160206120838339815191529150611224565b3461026c57602036600319011261026c57611281611bfe565b506004355f526025602052606060405f206002604051916112a18361178c565b6112af60ff82541684611c1c565b6001810154602084015201546040820152610a226040518092611935565b3461026c57604036600319011261026c57600435600481101561026c5760407f9b2aeac57e3bc4cc557619887fe04fb4a5d6a7198dc9d52d71c288115f3bf7c791602435611319611f4c565b80600783026009015561132e83518093611928565b6020820152a1005b3461026c575f36600319011261026c57602060405160fa8152f35b3461026c5761085a611362366118d2565b90604051926113726020856117bc565b5f8452611c89565b61190c565b3461026c5761085a611390366118d2565b91611a37565b3461026c57604036600319011261026c576113af6118a6565b6024356113bb81611f18565b3315158061146d575b80611440575b61142d5781906001600160a01b0384811691167f8c5be1e5ebec7d5bd14f71427d1e84f3dd0314c0f7b2291e5b200ac8c7c3b9255f80a45f90815260046020526040902080546001600160a01b0319166001600160a01b03909216919091179055005b63a9fbf51f60e01b5f523360045260245ffd5b506001600160a01b0381165f90815260056020908152604080832033845290915290205460ff16156113ca565b506001600160a01b0381163314156113c4565b3461026c57602036600319011261026c5760043561149d81611f18565b505f526004602052602060018060a01b0360405f205416604051908152f35b3461026c57602036600319011261026c576001600160a01b036114dd6118a6565b165f526026602052602060405f2054604051908152f35b3461026c575f36600319011261026c576040515f805461151381611754565b8084529060018116908115610bb1575060011461153a576103dc836103c8818503826117bc565b5f8080527f290decd9548b62a8d60345a988386fc84ba6bc95484008f6362f93160ef3e563939250905b80821061157c575090915081016020016103c8610b43565b919260018160209254838588010152019101909291611564565b3461026c57602036600319011261026c5760206102d66115b46118a6565b611971565b3461026c57602036600319011261026c57600435600481101561026c576007028060090154600a82015491600b81015490600c810154600d82015490600f600e840154930193604051945f9080549061161182611754565b80895291600181169081156116c25750600114611685575b50509160ff9391611641876103dc98979503876117bc565b60405198899889526020890152604088015260608701526080860152818116151560a086015260081c16151560c084015261010060e0840152610100830190611882565b5f908152602081209092505b8183106116a8575050850160200181611641611629565b6001816020929493945483858c0101520191019190611691565b60ff19166020808b019190915292151560051b890190920192508391506116419050611629565b3461026c57602036600319011261026c576004359063ffffffff60e01b821680920361026c576020916380ac58cd60e01b8114908115611743575b8115611732575b5015158152f35b6301ffc9a760e01b1490508361172b565b635b5e139f60e01b81149150611724565b90600182811c92168015611782575b602083101461176e57565b634e487b7160e01b5f52602260045260245ffd5b91607f1691611763565b6060810190811067ffffffffffffffff8211176117a857604052565b634e487b7160e01b5f52604160045260245ffd5b90601f8019910116810190811067ffffffffffffffff8211176117a857604052565b604051905f82602a54916117f183611754565b80835292600181169081156118635750600114611817575b611815925003836117bc565b565b50602a5f90815290915f805160206120838339815191525b81831061184757505090602061181592820101611809565b602091935080600191548385890101520191019091849261182f565b6020925061181594915060ff191682840152151560051b820101611809565b805180835260209291819084018484015e5f828201840152601f01601f1916010190565b600435906001600160a01b038216820361026c57565b602435906001600160a01b038216820361026c57565b606090600319011261026c576004356001600160a01b038116810361026c57906024356001600160a01b038116810361026c579060443590565b3461026c575f36600319011261026c5760206040516127108152f35b9060048210156105d05752565b60408091611944848251611928565b602081015160208501520151910152565b67ffffffffffffffff81116117a857601f01601f191660200190565b6001600160a01b03165f818152602660205260409020549081156119d8575f198201918211610582576001600160a01b036119ab83611f18565b16036119d3575f52602560205260ff60405f20541660048110156105d057600702600a015490565b505f90565b50505f90565b156119e557565b60405162461bcd60e51b815260206004820152601e60248201527f54503a20726563697069656e7420616c726561647920686173207061737300006044820152606490fd5b9190820180921161058257565b919060018060a01b031691825f526026602052611a5860405f2054156119de565b6001600160a01b03165f818152602660205260408120556001820180831161058257835f52602660205260405f20558215610fed575f828152600260205260409020546001600160a01b031692829033151580611b69575b5084611b36575b805f52600360205260405f2060018154019055815f52600260205260405f20816bffffffffffffffffffffffff60a01b825416179055847fddf252ad1be2c89b69c2b068fc378daa952ba7f163c4a11628f55a4df523b3ef5f80a4808303611b1e57505050565b6364283d7b60e01b5f5260045260245260445260645ffd5b5f82815260046020526040902080546001600160a01b0319169055845f52600360205260405f205f198154019055611ab7565b90915080611bad575b15611b7f5782905f611ab0565b8284611b9757637e27328960e01b5f5260045260245ffd5b63177e802f60e01b5f523360045260245260445ffd5b503384148015611bdc575b80611b7257505f838152600460205260409020546001600160a01b03163314611b72565b505f84815260056020908152604080832033845290915290205460ff16611bb8565b60405190611c0b8261178c565b5f6040838281528260208201520152565b60048210156105d05752565b15611c2f57565b60405162461bcd60e51b815260206004820152600c60248201526b15140e881cdbdb19081bdd5d60a21b6044820152606490fd5b5f1981146105825760010190565b9060048110156105d05760ff80198354169116179055565b90929160018060a01b03841693845f526026602052611cac60405f2054156119de565b6001600160a01b0383165f8181526026602052604081205592600183019081841161058257828491611cea93895f52602660205260405f2055611a37565b3b611cf6575b50505050565b602091611d2f6040519485938493630a85bd0160e11b855233600486015260248501526044840152608060648401526084830190611882565b03815f865af15f9181611dc5575b50611d9257503d15611d8b573d611d5381611955565b90611d6160405192836117bc565b81523d5f602083013e5b80519081611d865782633250574960e11b5f5260045260245ffd5b602001fd5b6060611d6b565b6001600160e01b03191663757a42ff60e11b01611db357505f808080611cf0565b633250574960e11b5f5260045260245ffd5b9091506020813d602011611e02575b81611de1602093836117bc565b8101031261026c57516001600160e01b03198116810361026c57905f611d3d565b3d9150611dd4565b6001600160a01b03165f9081526026602052604090205480156119d3575f198101908111610582575f52602560205260ff60405f20541660048110156105d057600702600e015460081c60ff1690565b6001600160a01b03165f9081526026602052604090205480156119d3575f198101908111610582575f52602560205260ff60405f20541660048110156105d057600702600e015460ff1690565b6001600160a01b03165f81815260266020526040902054908115611f10575f198201918211610582576001600160a01b03611ee183611f18565b1603611f09575f52602560205260ff60405f20541660048110156105d057600702600b015490565b5061271090565b505061271090565b5f818152600260205260409020546001600160a01b0316908115611f3a575090565b637e27328960e01b5f5260045260245ffd5b6006546001600160a01b03163303610cb457565b60025f805160206120a38339815191525414611f895760025f805160206120a383398151915255565b633ee5aeb560e01b5f5260045ffd5b6040516323b872dd60e01b5f9081526001600160a01b039384166004529290931660245260449390935260209060648180865af19060015f5114821615612009575b6040525f60605215611fe95750565b635274afe760e01b5f9081526001600160a01b0391909116600452602490fd5b90600181151661202157823b15153d15161690611fda565b503d5f823e3d90fd5b916040519163a9059cbb60e01b5f5260018060a01b031660045260245260205f60448180865af19060015f511482161561206a575b60405215611fe95750565b90600181151661202157823b15153d1516169061205f56febeced09521047d05b8960b7e7bcc1d1292cf3e4b2a6b63f48335cbde5f7545d29b779b17422d0df92223018b32b4d1fa46e071723d6817e2486d003becc55f00a2646970667358221220dd8bf755e3377649da443f3888cb19d8915329e5a017e98a5f5b54342630ef2964736f6c634300081a0033",
  "linkReferences": {},
  "deployedLinkReferences": {}
}