{
  "_format": "hh-sol-artifact-1",
  "contractName": "WikiExternalInsurance",
  "sourceName": "src/WikiExternalInsurance.sol",
  "abi": [
    {
      "inputs": [
        {
          "internalType": "address",
          "name": "_usdc",
          "type": "address"
        },
        {
          "internalType": "address",
          "name": "_owner",
          "type": "address"
        }
      ],
      "stateMutability": "nonpayable",
      "type": "constructor"
    },
    {
      "inputs": [
        {
          "internalType": "address",
          "name": "owner",
          "type": "address"
        }
      ],
      "name": "OwnableInvalidOwner",
      "type": "error"
    },
    {
      "inputs": [
        {
          "internalType": "address",
          "name": "account",
          "type": "address"
        }
      ],
      "name": "OwnableUnauthorizedAccount",
      "type": "error"
    },
    {
      "inputs": [],
      "name": "ReentrancyGuardReentrantCall",
      "type": "error"
    },
    {
      "inputs": [
        {
          "internalType": "address",
          "name": "token",
          "type": "address"
        }
      ],
      "name": "SafeERC20FailedOperation",
      "type": "error"
    },
    {
      "anonymous": false,
      "inputs": [
        {
          "indexed": true,
          "internalType": "uint256",
          "name": "id",
          "type": "uint256"
        },
        {
          "indexed": false,
          "internalType": "address",
          "name": "protocol",
          "type": "address"
        },
        {
          "indexed": false,
          "internalType": "uint256",
          "name": "amount",
          "type": "uint256"
        }
      ],
      "name": "ClaimPaid",
      "type": "event"
    },
    {
      "anonymous": false,
      "inputs": [
        {
          "indexed": true,
          "internalType": "uint256",
          "name": "id",
          "type": "uint256"
        },
        {
          "indexed": false,
          "internalType": "address",
          "name": "protocol",
          "type": "address"
        },
        {
          "indexed": false,
          "internalType": "uint256",
          "name": "tvl",
          "type": "uint256"
        },
        {
          "indexed": false,
          "internalType": "uint256",
          "name": "premiumBps",
          "type": "uint256"
        }
      ],
      "name": "ClientRegistered",
      "type": "event"
    },
    {
      "anonymous": false,
      "inputs": [
        {
          "indexed": true,
          "internalType": "address",
          "name": "previousOwner",
          "type": "address"
        },
        {
          "indexed": true,
          "internalType": "address",
          "name": "newOwner",
          "type": "address"
        }
      ],
      "name": "OwnershipTransferStarted",
      "type": "event"
    },
    {
      "anonymous": false,
      "inputs": [
        {
          "indexed": true,
          "internalType": "address",
          "name": "previousOwner",
          "type": "address"
        },
        {
          "indexed": true,
          "internalType": "address",
          "name": "newOwner",
          "type": "address"
        }
      ],
      "name": "OwnershipTransferred",
      "type": "event"
    },
    {
      "anonymous": false,
      "inputs": [
        {
          "indexed": true,
          "internalType": "uint256",
          "name": "id",
          "type": "uint256"
        },
        {
          "indexed": false,
          "internalType": "uint256",
          "name": "amount",
          "type": "uint256"
        },
        {
          "indexed": false,
          "internalType": "uint256",
          "name": "newExpiry",
          "type": "uint256"
        }
      ],
      "name": "PremiumPaid",
      "type": "event"
    },
    {
      "anonymous": false,
      "inputs": [
        {
          "indexed": false,
          "internalType": "uint256",
          "name": "amount",
          "type": "uint256"
        }
      ],
      "name": "ReserveFunded",
      "type": "event"
    },
    {
      "inputs": [],
      "name": "BPS",
      "outputs": [
        {
          "internalType": "uint256",
          "name": "",
          "type": "uint256"
        }
      ],
      "stateMutability": "view",
      "type": "function"
    },
    {
      "inputs": [],
      "name": "MAX_PREMIUM_BPS",
      "outputs": [
        {
          "internalType": "uint256",
          "name": "",
          "type": "uint256"
        }
      ],
      "stateMutability": "view",
      "type": "function"
    },
    {
      "inputs": [],
      "name": "USDC",
      "outputs": [
        {
          "internalType": "contract IERC20",
          "name": "",
          "type": "address"
        }
      ],
      "stateMutability": "view",
      "type": "function"
    },
    {
      "inputs": [],
      "name": "acceptOwnership",
      "outputs": [],
      "stateMutability": "nonpayable",
      "type": "function"
    },
    {
      "inputs": [],
      "name": "clientCount",
      "outputs": [
        {
          "internalType": "uint256",
          "name": "",
          "type": "uint256"
        }
      ],
      "stateMutability": "view",
      "type": "function"
    },
    {
      "inputs": [
        {
          "internalType": "uint256",
          "name": "",
          "type": "uint256"
        }
      ],
      "name": "clients",
      "outputs": [
        {
          "internalType": "address",
          "name": "protocol",
          "type": "address"
        },
        {
          "internalType": "string",
          "name": "name",
          "type": "string"
        },
        {
          "internalType": "uint256",
          "name": "coveredTVL",
          "type": "uint256"
        },
        {
          "internalType": "uint256",
          "name": "annualPremiumBps",
          "type": "uint256"
        },
        {
          "internalType": "uint256",
          "name": "subscriptionEnd",
          "type": "uint256"
        },
        {
          "internalType": "uint256",
          "name": "maxPayout",
          "type": "uint256"
        },
        {
          "internalType": "uint256",
          "name": "totalPremiumPaid",
          "type": "uint256"
        },
        {
          "internalType": "uint256",
          "name": "totalClaimsPaid",
          "type": "uint256"
        },
        {
          "internalType": "bool",
          "name": "active",
          "type": "bool"
        }
      ],
      "stateMutability": "view",
      "type": "function"
    },
    {
      "inputs": [
        {
          "internalType": "uint256",
          "name": "amount",
          "type": "uint256"
        }
      ],
      "name": "deployIdle",
      "outputs": [],
      "stateMutability": "nonpayable",
      "type": "function"
    },
    {
      "inputs": [
        {
          "internalType": "uint256",
          "name": "amount",
          "type": "uint256"
        }
      ],
      "name": "fundReserve",
      "outputs": [],
      "stateMutability": "nonpayable",
      "type": "function"
    },
    {
      "inputs": [
        {
          "internalType": "uint256",
          "name": "id",
          "type": "uint256"
        }
      ],
      "name": "getClient",
      "outputs": [
        {
          "components": [
            {
              "internalType": "address",
              "name": "protocol",
              "type": "address"
            },
            {
              "internalType": "string",
              "name": "name",
              "type": "string"
            },
            {
              "internalType": "uint256",
              "name": "coveredTVL",
              "type": "uint256"
            },
            {
              "internalType": "uint256",
              "name": "annualPremiumBps",
              "type": "uint256"
            },
            {
              "internalType": "uint256",
              "name": "subscriptionEnd",
              "type": "uint256"
            },
            {
              "internalType": "uint256",
              "name": "maxPayout",
              "type": "uint256"
            },
            {
              "internalType": "uint256",
              "name": "totalPremiumPaid",
              "type": "uint256"
            },
            {
              "internalType": "uint256",
              "name": "totalClaimsPaid",
              "type": "uint256"
            },
            {
              "internalType": "bool",
              "name": "active",
              "type": "bool"
            }
          ],
          "internalType": "struct WikiExternalInsurance.Client",
          "name": "",
          "type": "tuple"
        }
      ],
      "stateMutability": "view",
      "type": "function"
    },
    {
      "inputs": [],
      "name": "idleYieldRouter",
      "outputs": [
        {
          "internalType": "contract IIdleYieldRouter",
          "name": "",
          "type": "address"
        }
      ],
      "stateMutability": "view",
      "type": "function"
    },
    {
      "inputs": [],
      "name": "monthlyRunRate",
      "outputs": [
        {
          "internalType": "uint256",
          "name": "",
          "type": "uint256"
        }
      ],
      "stateMutability": "view",
      "type": "function"
    },
    {
      "inputs": [],
      "name": "owner",
      "outputs": [
        {
          "internalType": "address",
          "name": "",
          "type": "address"
        }
      ],
      "stateMutability": "view",
      "type": "function"
    },
    {
      "inputs": [
        {
          "internalType": "uint256",
          "name": "id",
          "type": "uint256"
        }
      ],
      "name": "payPremium",
      "outputs": [],
      "stateMutability": "nonpayable",
      "type": "function"
    },
    {
      "inputs": [],
      "name": "pendingOwner",
      "outputs": [
        {
          "internalType": "address",
          "name": "",
          "type": "address"
        }
      ],
      "stateMutability": "view",
      "type": "function"
    },
    {
      "inputs": [
        {
          "internalType": "uint256",
          "name": "id",
          "type": "uint256"
        },
        {
          "internalType": "uint256",
          "name": "amount",
          "type": "uint256"
        },
        {
          "internalType": "address",
          "name": "recipient",
          "type": "address"
        }
      ],
      "name": "processClaim",
      "outputs": [],
      "stateMutability": "nonpayable",
      "type": "function"
    },
    {
      "inputs": [],
      "name": "protocolRevenue",
      "outputs": [
        {
          "internalType": "uint256",
          "name": "",
          "type": "uint256"
        }
      ],
      "stateMutability": "view",
      "type": "function"
    },
    {
      "inputs": [
        {
          "internalType": "address",
          "name": "",
          "type": "address"
        }
      ],
      "name": "protocolToClient",
      "outputs": [
        {
          "internalType": "uint256",
          "name": "",
          "type": "uint256"
        }
      ],
      "stateMutability": "view",
      "type": "function"
    },
    {
      "inputs": [
        {
          "internalType": "uint256",
          "name": "amount",
          "type": "uint256"
        },
        {
          "internalType": "string",
          "name": "reason",
          "type": "string"
        }
      ],
      "name": "recallIdle",
      "outputs": [],
      "stateMutability": "nonpayable",
      "type": "function"
    },
    {
      "inputs": [
        {
          "internalType": "address",
          "name": "protocol",
          "type": "address"
        },
        {
          "internalType": "string",
          "name": "name",
          "type": "string"
        },
        {
          "internalType": "uint256",
          "name": "coveredTVL",
          "type": "uint256"
        },
        {
          "internalType": "uint256",
          "name": "annualPremiumBps",
          "type": "uint256"
        },
        {
          "internalType": "uint256",
          "name": "maxPayout",
          "type": "uint256"
        }
      ],
      "name": "registerClient",
      "outputs": [
        {
          "internalType": "uint256",
          "name": "id",
          "type": "uint256"
        }
      ],
      "stateMutability": "nonpayable",
      "type": "function"
    },
    {
      "inputs": [],
      "name": "renounceOwnership",
      "outputs": [],
      "stateMutability": "nonpayable",
      "type": "function"
    },
    {
      "inputs": [],
      "name": "reserveFund",
      "outputs": [
        {
          "internalType": "uint256",
          "name": "",
          "type": "uint256"
        }
      ],
      "stateMutability": "view",
      "type": "function"
    },
    {
      "inputs": [
        {
          "internalType": "address",
          "name": "router",
          "type": "address"
        }
      ],
      "name": "setIdleYieldRouter",
      "outputs": [],
      "stateMutability": "nonpayable",
      "type": "function"
    },
    {
      "inputs": [
        {
          "internalType": "address",
          "name": "_tl",
          "type": "address"
        }
      ],
      "name": "setTimelock",
      "outputs": [],
      "stateMutability": "nonpayable",
      "type": "function"
    },
    {
      "inputs": [],
      "name": "timelock",
      "outputs": [
        {
          "internalType": "address",
          "name": "",
          "type": "address"
        }
      ],
      "stateMutability": "view",
      "type": "function"
    },
    {
      "inputs": [],
      "name": "totalCovered",
      "outputs": [
        {
          "internalType": "uint256",
          "name": "",
          "type": "uint256"
        }
      ],
      "stateMutability": "view",
      "type": "function"
    },
    {
      "inputs": [
        {
          "internalType": "address",
          "name": "newOwner",
          "type": "address"
        }
      ],
      "name": "transferOwnership",
      "outputs": [],
      "stateMutability": "nonpayable",
      "type": "function"
    },
    {
      "inputs": [
        {
          "internalType": "address",
          "name": "to",
          "type": "address"
        }
      ],
      "name": "withdrawRevenue",
      "outputs": [],
      "stateMutability": "nonpayable",
      "type": "function"
    }
  ],
  "bytecode": "0x60a03461016f57601f61176438819003918201601f19168301916001600160401b0383118484101761017357808492604094855283398101031261016f5761004681610187565b906001600160a01b039061005c90602001610187565b1690811561015c57600180546001600160a01b03199081169091555f80549182168417815560405193916001600160a01b0316907f8be0079c531659141344cd1fd0a4f28419497f9722a3daafe3b4186f6b6457e09080a360017f9b779b17422d0df92223018b32b4d1fa46e071723d6817e2486d003becc55f00556001600160a01b031690811561012757506080526040516115c8908161019c82396080518181816107350152818161088601528181610d7801528181610e6f01528181610efe01526111000152f35b62461bcd60e51b815260206004820152601060248201526f57696b693a207a65726f205f7573646360801b6044820152606490fd5b631e4fbdf760e01b5f525f60045260245ffd5b5f80fd5b634e487b7160e01b5f52604160045260245ffd5b51906001600160a01b038216820361016f5756fe60806040526004361015610011575f80fd5b5f803560e01c80630a80373f1461104a578063249d39e91461102e5780634364b26e14610ea65780635e420f4c14610e33578063711b7a0c14610e17578063715018a614610db457806375c5422414610d3957806379ba509714610cb45780637af3816c14610c975780637be613ca14610c545780637e3fef0214610c2c57806386b7234a146108b557806389a30271146108715780638da5cb5b1461084a578063b58e4316146106c1578063b7f92b71146106a3578063bdacb3031461061c578063cc91dc1314610578578063d0068f801461042d578063d33219b414610404578063dc0bfcb5146103e6578063e05a6e06146103ad578063e30c397814610384578063e541c71e14610366578063e6bc01a21461026a578063f2fde38b146101fd5763f88af21d14610143575f80fd5b346101fa5760203660031901126101fa576004356003548110156101f65761016a90611240565b5080546001600160a01b0316610182600183016112e7565b916002810154906003810154906004810154600582015460068301549160ff6008600786015495015416946101cb604051998a998a5261012060208b01526101208a019061121c565b9660408901526060880152608087015260a086015260c085015260e084015215156101008301520390f35b5080fd5b80fd5b50346101fa5760203660031901126101fa576102176111d8565b61021f61143d565b600180546001600160a01b0319166001600160a01b0392831690811790915582549091167f38d16b8cac22d99fc7c124b9cd0de2d3fa1faef420bfe791d8c362d765e227008380a380f35b50346101fa5760403660031901126101fa578060243567ffffffffffffffff81116103635761029d9036906004016111ee565b9060018060a01b038354163314801561034f575b6102ba90611400565b6008546001600160a01b031690816102d157505050f35b813b1561034a57839183918360646040518097819682956338d44ad560e01b8452600435600485015260406024850152816044850152848401378181018301849052601f01601f191681010301925af1801561033f5761032e5750f35b81610338916112c5565b6101fa5780f35b6040513d84823e3d90fd5b505050fd5b506008546001600160a01b031633146102b1565b50fd5b50346101fa57806003193601126101fa576020600354604051908152f35b50346101fa57806003193601126101fa576001546040516001600160a01b039091168152602090f35b50346101fa5760203660031901126101fa576020906040906001600160a01b036103d56111d8565b168152600483522054604051908152f35b50346101fa57806003193601126101fa576020600754604051908152f35b50346101fa57806003193601126101fa576002546040516001600160a01b039091168152602090f35b50346101fa5760203660031901126101fa5761010060405161044e816112a8565b828152606060208201528260408201528260608201528260808201528260a08201528260c08201528260e08201520152610489600435611240565b50604051610496816112a8565b81546001600160a01b031681526104af600183016112e7565b91602082019283526002810154906040830191825260038101549060608401918252600481015460808501908152600582015460a0860190815260068301549160c0870192835260ff600860078601549560e08a019687520154169461010088019515158652610545604051998a9960208b5260018060a01b0390511660208b01525161012060408b01526101408a019061121c565b965160608901525160808801525160a08701525160c08601525160e0850152516101008401525115156101208301520390f35b50346101fa57806003193601126101fa57600354815b8181106105a057602083604051908152f35b60ff60086105ad83611240565b5001541680610605575b6105c4575b60010161058e565b916105fd600191600c6127106105f560026105de89611240565b50015460036105ec8a611240565b500154906113ed565b0404906113e0565b9290506105bc565b50600461061182611240565b5001544211156105b7565b50346101fa5760203660031901126101fa576106366111d8565b61063e61143d565b6001600160a01b03168015610668576bffffffffffffffffffffffff60a01b600254161760025580f35b60405162461bcd60e51b815260206004820152601360248201527257696b693a207a65726f2074696d656c6f636b60681b6044820152606490fd5b50346101fa57806003193601126101fa576020600554604051908152f35b50346107c55760203660031901126107c55760043560018060a01b035f541633148015610836575b6106f290611400565b6008546001600160a01b031680156108005760405163095ea7b360e01b81526001600160a01b03909116600482015260248101829052602081806044810103815f7f00000000000000000000000000000000000000000000000000000000000000006001600160a01b03165af180156107ba576107c9575b506008546001600160a01b031690813b156107c5575f91602483926040519485938492630f6baa0f60e21b845260048401525af180156107ba576107ac575080f35b6107b891505f906112c5565b005b6040513d5f823e3d90fd5b5f80fd5b6020813d6020116107f8575b816107e2602093836112c5565b810103126107c55751801515811461076a575f80fd5b3d91506107d5565b60405162461bcd60e51b815260206004820152600e60248201526d149bdd5d195c881b9bdd081cd95d60921b6044820152606490fd5b506008546001600160a01b031633146106e9565b346107c5575f3660031901126107c5575f546040516001600160a01b039091168152602090f35b346107c5575f3660031901126107c5576040517f00000000000000000000000000000000000000000000000000000000000000006001600160a01b03168152602090f35b346107c55760a03660031901126107c5576108ce6111d8565b60243567ffffffffffffffff81116107c5576108ee9036906004016111ee565b91906044356064359160843561090261143d565b6101f48411610bf057610919816005541015611387565b600354946040519061092a826112a8565b6001600160a01b03168082529667ffffffffffffffff8111610bc9576040519361095e601f8301601f1916602001866112c5565b81855236828201116107c557815f926020928388013785010152602081019283526040810191848352606082019086825260808301905f825260a0840190815260c08401915f835260e08501935f855261010086019660018852680100000000000000008c1015610bc95760018c0198896003556109db8d611240565b989098610bdd575188546001600160a01b0319166001600160a01b0391909116178855518051600189019167ffffffffffffffff8211610bc957610a1f8354611270565b601f8111610b84575b50602090601f8311600114610b175760089a9998979695949392915f9183610b0c575b50508160011b915f199060031b1c19161790555b516002870155516003860155516004850155516005840155516006830155516007820155019051151560ff80198354169116179055808411610af8578484937f733f80c117776453e3c11424d254ffd357cec5e333356c953544a28653b79895936060936020985f526004895260405f2055610add816007546113e0565b600755604051928352878301526040820152a2604051908152f35b634e487b7160e01b5f52601160045260245ffd5b015190505f80610a4b565b90601f19831691845f52815f20925f5b818110610b6c575091600193918560089e9d9c9b9a999897969410610b54575b505050811b019055610a5f565b01515f1960f88460031b161c191690555f8080610b47565b92936020600181928786015181550195019301610b27565b835f5260205f20601f840160051c81019160208510610bbf575b601f0160051c01905b818110610bb45750610a28565b5f8155600101610ba7565b9091508190610b9e565b634e487b7160e01b5f52604160045260245ffd5b634e487b7160e01b5f525f60045260245ffd5b60405162461bcd60e51b815260206004820152601460248201527308a927440e0e4cadad2eada40e8dede40d0d2ced60631b6044820152606490fd5b346107c5575f3660031901126107c5576008546040516001600160a01b039091168152602090f35b346107c55760203660031901126107c557610c6d6111d8565b610c7561143d565b600880546001600160a01b0319166001600160a01b0392909216919091179055005b346107c5575f3660031901126107c5576020600654604051908152f35b346107c5575f3660031901126107c557600154336001600160a01b0390911603610d2657600180546001600160a01b03199081169091555f805433928116831782556001600160a01b0316907f8be0079c531659141344cd1fd0a4f28419497f9722a3daafe3b4186f6b6457e09080a3005b63118cdaa760e01b5f523360045260245ffd5b346107c55760203660031901126107c5577f509d2bd1e6158bdd988a15a714c39e9ed37e18519f1cc56bd8b260967964a5e96020600435610d9c8130337f0000000000000000000000000000000000000000000000000000000000000000611509565b610da8816005546113e0565b600555604051908152a1005b346107c5575f3660031901126107c557610dcc61143d565b600180546001600160a01b03199081169091555f80549182168155906001600160a01b03167f8be0079c531659141344cd1fd0a4f28419497f9722a3daafe3b4186f6b6457e08280a3005b346107c5575f3660031901126107c55760206040516101f48152f35b346107c55760203660031901126107c557610e4c6111d8565b610e5461143d565b610e5c611450565b60065480156107c557610e93915f6006557f0000000000000000000000000000000000000000000000000000000000000000611488565b60015f8051602061157383398151915255005b346107c55760203660031901126107c557600435610ec2611450565b610ecb81611240565b5060ff60088201541615610ffa576004600c612710610ef360028501546003860154906113ed565b040491610f228330337f0000000000000000000000000000000000000000000000000000000000000000611509565b610f49610f418460011c610f38816005546113e0565b600555856113d3565b6006546113e0565b60065560068101610f5b8482546113e0565b9055019081548042115f14610fc0575062278d00420190814211610af8577f6536289ac4b6210a38c0221448df668e1a60ce83e7642815d4a3642187de26e59260409280915b5582519182526020820152a260015f8051602061157383398151915255005b9062278d008201809211610af8577f6536289ac4b6210a38c0221448df668e1a60ce83e7642815d4a3642187de26e5926040928091610fa1565b60405162461bcd60e51b815260206004820152600c60248201526b45493a20696e61637469766560a01b6044820152606490fd5b346107c5575f3660031901126107c55760206040516127108152f35b346107c55760603660031901126107c5576004356044356024356001600160a01b03821682036107c55761107c61143d565b611084611450565b61108d83611240565b5060ff600882015416806111ca575b15611190576005810154821161115257611124827faf3c8fdd75d667f71d36d7840b8ef9086c516c9b047ad6a83a5a66151342123a946110ea826005546110e582821015611387565b6113d3565b600555600784016110fc8382546113e0565b90557f0000000000000000000000000000000000000000000000000000000000000000611488565b54604080516001600160a01b0390921682526020820192909252a260015f8051602061157383398151915255005b60405162461bcd60e51b815260206004820152601660248201527511524e88195e18d959591cc81b585e081c185e5bdd5d60521b6044820152606490fd5b60405162461bcd60e51b815260206004820152601260248201527111524e881b9bdd081cdd589cd8dc9a58995960721b6044820152606490fd5b50600481015442111561109c565b600435906001600160a01b03821682036107c557565b9181601f840112156107c55782359167ffffffffffffffff83116107c557602083818601950101116107c557565b805180835260209291819084018484015e5f828201840152601f01601f1916010190565b60035481101561125c5760035f52600960205f20910201905f90565b634e487b7160e01b5f52603260045260245ffd5b90600182811c9216801561129e575b602083101461128a57565b634e487b7160e01b5f52602260045260245ffd5b91607f169161127f565b610120810190811067ffffffffffffffff821117610bc957604052565b90601f8019910116810190811067ffffffffffffffff821117610bc957604052565b9060405191825f8254926112fa84611270565b80845293600181169081156113655750600114611321575b5061131f925003836112c5565b565b90505f9291925260205f20905f915b81831061134957505090602061131f928201015f611312565b6020919350806001915483858901015201910190918492611330565b90506020925061131f94915060ff191682840152151560051b8201015f611312565b1561138e57565b60405162461bcd60e51b815260206004820152601860248201527f45493a20696e73756666696369656e74207265736572766500000000000000006044820152606490fd5b91908203918211610af857565b91908201809211610af857565b81810292918115918404141715610af857565b1561140757565b60405162461bcd60e51b815260206004820152600e60248201526d139bdd08185d5d1a1bdc9a5e995960921b6044820152606490fd5b5f546001600160a01b03163303610d2657565b60025f8051602061157383398151915254146114795760025f8051602061157383398151915255565b633ee5aeb560e01b5f5260045ffd5b916040519163a9059cbb60e01b5f5260018060a01b031660045260245260205f60448180865af19060015f51148216156114e8575b604052156114c85750565b635274afe760e01b5f9081526001600160a01b0391909116600452602490fd5b90600181151661150057823b15153d151616906114bd565b503d5f823e3d90fd5b6040516323b872dd60e01b5f9081526001600160a01b039384166004529290931660245260449390935260209060648180865af19060015f511482161561155a575b6040525f606052156114c85750565b90600181151661150057823b15153d1516169061154b56fe9b779b17422d0df92223018b32b4d1fa46e071723d6817e2486d003becc55f00a2646970667358221220c5381dbe9676d55c406e336a13a57be84adb8186ad5064da739c2b9126861f3864736f6c634300081a0033",
  "linkReferences": {},
  "deployedLinkReferences": {}
}