{
  "_format": "hh-sol-artifact-1",
  "contractName": "WikiTokenVesting",
  "sourceName": "src/WikiTokenVesting.sol",
  "abi": [
    {
      "inputs": [
        {
          "internalType": "address",
          "name": "_owner",
          "type": "address"
        },
        {
          "internalType": "address",
          "name": "_wik",
          "type": "address"
        }
      ],
      "stateMutability": "nonpayable",
      "type": "constructor"
    },
    {
      "inputs": [
        {
          "internalType": "address",
          "name": "owner",
          "type": "address"
        }
      ],
      "name": "OwnableInvalidOwner",
      "type": "error"
    },
    {
      "inputs": [
        {
          "internalType": "address",
          "name": "account",
          "type": "address"
        }
      ],
      "name": "OwnableUnauthorizedAccount",
      "type": "error"
    },
    {
      "inputs": [],
      "name": "ReentrancyGuardReentrantCall",
      "type": "error"
    },
    {
      "inputs": [
        {
          "internalType": "address",
          "name": "token",
          "type": "address"
        }
      ],
      "name": "SafeERC20FailedOperation",
      "type": "error"
    },
    {
      "anonymous": false,
      "inputs": [
        {
          "indexed": true,
          "internalType": "uint256",
          "name": "id",
          "type": "uint256"
        },
        {
          "indexed": true,
          "internalType": "address",
          "name": "beneficiary",
          "type": "address"
        },
        {
          "indexed": false,
          "internalType": "uint256",
          "name": "amount",
          "type": "uint256"
        },
        {
          "indexed": false,
          "internalType": "uint256",
          "name": "remaining",
          "type": "uint256"
        }
      ],
      "name": "Claimed",
      "type": "event"
    },
    {
      "anonymous": false,
      "inputs": [
        {
          "indexed": true,
          "internalType": "address",
          "name": "previousOwner",
          "type": "address"
        },
        {
          "indexed": true,
          "internalType": "address",
          "name": "newOwner",
          "type": "address"
        }
      ],
      "name": "OwnershipTransferStarted",
      "type": "event"
    },
    {
      "anonymous": false,
      "inputs": [
        {
          "indexed": true,
          "internalType": "address",
          "name": "previousOwner",
          "type": "address"
        },
        {
          "indexed": true,
          "internalType": "address",
          "name": "newOwner",
          "type": "address"
        }
      ],
      "name": "OwnershipTransferred",
      "type": "event"
    },
    {
      "anonymous": false,
      "inputs": [
        {
          "indexed": true,
          "internalType": "uint256",
          "name": "id",
          "type": "uint256"
        },
        {
          "indexed": true,
          "internalType": "address",
          "name": "beneficiary",
          "type": "address"
        },
        {
          "indexed": false,
          "internalType": "uint256",
          "name": "unvestedReturned",
          "type": "uint256"
        }
      ],
      "name": "Revoked",
      "type": "event"
    },
    {
      "anonymous": false,
      "inputs": [
        {
          "indexed": true,
          "internalType": "uint256",
          "name": "id",
          "type": "uint256"
        },
        {
          "indexed": true,
          "internalType": "address",
          "name": "beneficiary",
          "type": "address"
        },
        {
          "indexed": false,
          "internalType": "string",
          "name": "name",
          "type": "string"
        },
        {
          "indexed": false,
          "internalType": "uint256",
          "name": "amount",
          "type": "uint256"
        },
        {
          "indexed": false,
          "internalType": "enum WikiTokenVesting.VestingType",
          "name": "vestType",
          "type": "uint8"
        }
      ],
      "name": "ScheduleAdded",
      "type": "event"
    },
    {
      "inputs": [],
      "name": "WIK",
      "outputs": [
        {
          "internalType": "contract IERC20",
          "name": "",
          "type": "address"
        }
      ],
      "stateMutability": "view",
      "type": "function"
    },
    {
      "inputs": [],
      "name": "acceptOwnership",
      "outputs": [],
      "stateMutability": "nonpayable",
      "type": "function"
    },
    {
      "inputs": [
        {
          "internalType": "address",
          "name": "beneficiary",
          "type": "address"
        },
        {
          "internalType": "string",
          "name": "name",
          "type": "string"
        },
        {
          "internalType": "uint256",
          "name": "totalAmount",
          "type": "uint256"
        },
        {
          "internalType": "enum WikiTokenVesting.VestingType",
          "name": "vestType",
          "type": "uint8"
        },
        {
          "internalType": "uint256",
          "name": "cliffDays",
          "type": "uint256"
        },
        {
          "internalType": "uint256",
          "name": "vestingDays",
          "type": "uint256"
        }
      ],
      "name": "addBeneficiary",
      "outputs": [
        {
          "internalType": "uint256",
          "name": "scheduleId",
          "type": "uint256"
        }
      ],
      "stateMutability": "nonpayable",
      "type": "function"
    },
    {
      "inputs": [
        {
          "internalType": "address",
          "name": "beneficiary",
          "type": "address"
        },
        {
          "internalType": "string",
          "name": "name",
          "type": "string"
        },
        {
          "internalType": "uint256",
          "name": "totalWIK",
          "type": "uint256"
        }
      ],
      "name": "addInvestor",
      "outputs": [
        {
          "internalType": "uint256",
          "name": "",
          "type": "uint256"
        }
      ],
      "stateMutability": "nonpayable",
      "type": "function"
    },
    {
      "inputs": [
        {
          "internalType": "address",
          "name": "beneficiary",
          "type": "address"
        },
        {
          "internalType": "string",
          "name": "name",
          "type": "string"
        },
        {
          "internalType": "uint256",
          "name": "totalWIK",
          "type": "uint256"
        }
      ],
      "name": "addTeamMember",
      "outputs": [
        {
          "internalType": "uint256",
          "name": "",
          "type": "uint256"
        }
      ],
      "stateMutability": "nonpayable",
      "type": "function"
    },
    {
      "inputs": [],
      "name": "allSchedules",
      "outputs": [
        {
          "components": [
            {
              "internalType": "address",
              "name": "beneficiary",
              "type": "address"
            },
            {
              "internalType": "string",
              "name": "name",
              "type": "string"
            },
            {
              "internalType": "uint256",
              "name": "totalAmount",
              "type": "uint256"
            },
            {
              "internalType": "uint256",
              "name": "claimedAmount",
              "type": "uint256"
            },
            {
              "internalType": "uint256",
              "name": "startTime",
              "type": "uint256"
            },
            {
              "internalType": "uint256",
              "name": "cliffDuration",
              "type": "uint256"
            },
            {
              "internalType": "uint256",
              "name": "vestingDuration",
              "type": "uint256"
            },
            {
              "internalType": "enum WikiTokenVesting.VestingType",
              "name": "vestingType",
              "type": "uint8"
            },
            {
              "internalType": "bool",
              "name": "revoked",
              "type": "bool"
            },
            {
              "internalType": "bool",
              "name": "active",
              "type": "bool"
            }
          ],
          "internalType": "struct WikiTokenVesting.Schedule[]",
          "name": "",
          "type": "tuple[]"
        }
      ],
      "stateMutability": "view",
      "type": "function"
    },
    {
      "inputs": [
        {
          "internalType": "address",
          "name": "",
          "type": "address"
        },
        {
          "internalType": "uint256",
          "name": "",
          "type": "uint256"
        }
      ],
      "name": "beneficiarySchedules",
      "outputs": [
        {
          "internalType": "uint256",
          "name": "",
          "type": "uint256"
        }
      ],
      "stateMutability": "view",
      "type": "function"
    },
    {
      "inputs": [],
      "name": "claim",
      "outputs": [
        {
          "internalType": "uint256",
          "name": "totalClaimed",
          "type": "uint256"
        }
      ],
      "stateMutability": "nonpayable",
      "type": "function"
    },
    {
      "inputs": [
        {
          "internalType": "uint256",
          "name": "scheduleId",
          "type": "uint256"
        }
      ],
      "name": "claimSchedule",
      "outputs": [
        {
          "internalType": "uint256",
          "name": "claimable",
          "type": "uint256"
        }
      ],
      "stateMutability": "nonpayable",
      "type": "function"
    },
    {
      "inputs": [
        {
          "internalType": "address",
          "name": "wallet",
          "type": "address"
        }
      ],
      "name": "claimableNow",
      "outputs": [
        {
          "internalType": "uint256",
          "name": "totalClaimable",
          "type": "uint256"
        },
        {
          "internalType": "uint256[]",
          "name": "ids",
          "type": "uint256[]"
        },
        {
          "internalType": "uint256[]",
          "name": "amounts",
          "type": "uint256[]"
        }
      ],
      "stateMutability": "view",
      "type": "function"
    },
    {
      "inputs": [],
      "name": "owner",
      "outputs": [
        {
          "internalType": "address",
          "name": "",
          "type": "address"
        }
      ],
      "stateMutability": "view",
      "type": "function"
    },
    {
      "inputs": [],
      "name": "pendingOwner",
      "outputs": [
        {
          "internalType": "address",
          "name": "",
          "type": "address"
        }
      ],
      "stateMutability": "view",
      "type": "function"
    },
    {
      "inputs": [],
      "name": "renounceOwnership",
      "outputs": [],
      "stateMutability": "nonpayable",
      "type": "function"
    },
    {
      "inputs": [
        {
          "internalType": "uint256",
          "name": "scheduleId",
          "type": "uint256"
        },
        {
          "internalType": "address",
          "name": "returnTo",
          "type": "address"
        }
      ],
      "name": "revoke",
      "outputs": [],
      "stateMutability": "nonpayable",
      "type": "function"
    },
    {
      "inputs": [
        {
          "internalType": "uint256",
          "name": "",
          "type": "uint256"
        }
      ],
      "name": "schedules",
      "outputs": [
        {
          "internalType": "address",
          "name": "beneficiary",
          "type": "address"
        },
        {
          "internalType": "string",
          "name": "name",
          "type": "string"
        },
        {
          "internalType": "uint256",
          "name": "totalAmount",
          "type": "uint256"
        },
        {
          "internalType": "uint256",
          "name": "claimedAmount",
          "type": "uint256"
        },
        {
          "internalType": "uint256",
          "name": "startTime",
          "type": "uint256"
        },
        {
          "internalType": "uint256",
          "name": "cliffDuration",
          "type": "uint256"
        },
        {
          "internalType": "uint256",
          "name": "vestingDuration",
          "type": "uint256"
        },
        {
          "internalType": "enum WikiTokenVesting.VestingType",
          "name": "vestingType",
          "type": "uint8"
        },
        {
          "internalType": "bool",
          "name": "revoked",
          "type": "bool"
        },
        {
          "internalType": "bool",
          "name": "active",
          "type": "bool"
        }
      ],
      "stateMutability": "view",
      "type": "function"
    },
    {
      "inputs": [
        {
          "internalType": "address",
          "name": "wallet",
          "type": "address"
        }
      ],
      "name": "schedulesFor",
      "outputs": [
        {
          "components": [
            {
              "internalType": "address",
              "name": "beneficiary",
              "type": "address"
            },
            {
              "internalType": "string",
              "name": "name",
              "type": "string"
            },
            {
              "internalType": "uint256",
              "name": "totalAmount",
              "type": "uint256"
            },
            {
              "internalType": "uint256",
              "name": "claimedAmount",
              "type": "uint256"
            },
            {
              "internalType": "uint256",
              "name": "startTime",
              "type": "uint256"
            },
            {
              "internalType": "uint256",
              "name": "cliffDuration",
              "type": "uint256"
            },
            {
              "internalType": "uint256",
              "name": "vestingDuration",
              "type": "uint256"
            },
            {
              "internalType": "enum WikiTokenVesting.VestingType",
              "name": "vestingType",
              "type": "uint8"
            },
            {
              "internalType": "bool",
              "name": "revoked",
              "type": "bool"
            },
            {
              "internalType": "bool",
              "name": "active",
              "type": "bool"
            }
          ],
          "internalType": "struct WikiTokenVesting.Schedule[]",
          "name": "",
          "type": "tuple[]"
        }
      ],
      "stateMutability": "view",
      "type": "function"
    },
    {
      "inputs": [
        {
          "internalType": "address",
          "name": "newOwner",
          "type": "address"
        }
      ],
      "name": "transferOwnership",
      "outputs": [],
      "stateMutability": "nonpayable",
      "type": "function"
    },
    {
      "inputs": [
        {
          "internalType": "address",
          "name": "wallet",
          "type": "address"
        }
      ],
      "name": "vestingStatus",
      "outputs": [
        {
          "internalType": "uint256",
          "name": "totalAllocated",
          "type": "uint256"
        },
        {
          "internalType": "uint256",
          "name": "totalVested",
          "type": "uint256"
        },
        {
          "internalType": "uint256",
          "name": "totalClaimed_",
          "type": "uint256"
        },
        {
          "internalType": "uint256",
          "name": "totalClaimableNow",
          "type": "uint256"
        },
        {
          "internalType": "uint256",
          "name": "cliffEndsAt",
          "type": "uint256"
        },
        {
          "internalType": "uint256",
          "name": "fullyVestedAt",
          "type": "uint256"
        },
        {
          "internalType": "uint256",
          "name": "monthlyUnlockRate",
          "type": "uint256"
        },
        {
          "internalType": "bool",
          "name": "cliffPassed",
          "type": "bool"
        }
      ],
      "stateMutability": "view",
      "type": "function"
    }
  ],
  "bytecode": "0x60a03461016657601f611d6038819003918201601f19168301916001600160401b0383118484101761016a57808492604094855283398101031261016657610052602061004b8361017e565b920161017e565b6001600160a01b0390911690811561015357600180546001600160a01b03199081169091555f80549182168417815560405193916001600160a01b0316907f8be0079c531659141344cd1fd0a4f28419497f9722a3daafe3b4186f6b6457e09080a360017f9b779b17422d0df92223018b32b4d1fa46e071723d6817e2486d003becc55f00556001600160a01b03169081156101205750608052604051611bcd908161019382396080518181816101ea015281816104ca015281816111e901528181611397015261149f0152f35b62461bcd60e51b815260206004820152600e60248201526d566573743a207a65726f2057494b60901b6044820152606490fd5b631e4fbdf760e01b5f525f60045260245ffd5b5f80fd5b634e487b7160e01b5f52604160045260245ffd5b51906001600160a01b03821682036101665756fe60806040526004361015610011575f80fd5b5f3560e01c80631494ea381461155757806320d154da146113c657806340b0229e1461138257806346ca42411461132a5780634e709d091461129e5780634e71d92d146110af578063715018a61461104c57806379ba509714610fc75780638b6f408014610df45780638da5cb5b14610dcd5780639a78ea4a14610c7a578063bdc6d9ab14610bb1578063c4ed41fb14610a5a578063cc6f383314610422578063e30c3978146103fa578063e8cf0cd71461032c578063f20b36d6146101555763f2fde38b146100df575f80fd5b34610151576020366003190112610151576100f86115e6565b610100611a2b565b60018060a01b0316806bffffffffffffffffffffffff60a01b600154161760015560018060a01b035f54167f38d16b8cac22d99fc7c124b9cd0de2d3fa1faef420bfe791d8c362d765e227005f80a3005b5f80fd5b3461015157602036600319011261015157600435610171611b3f565b61017a816117d9565b5080546001600160a01b031633036102ef57600781015460ff8160101c1690816102e0575b50156102a8576101b66101b182611938565b611a3e565b9160038201916101c8835480956119c7565b928315610263576002610218926101e1866020986119ec565b835561020e86337f0000000000000000000000000000000000000000000000000000000000000000611abe565b01549054906119c7565b9060405191838352848301527fd9cb1e2714d65a111c0f20f060176ad657496bd47a3de04ec7c3d4ca232112ac60403393a360015f80516020611b7883398151915255604051908152f35b60405162461bcd60e51b815260206004820152601760248201527f566573743a206e6f7468696e6720636c61696d61626c650000000000000000006044820152606490fd5b60405162461bcd60e51b815260206004820152601060248201526f566573743a206e6f742061637469766560801b6044820152606490fd5b60ff915060081c16158361019f565b60405162461bcd60e51b8152602060048201526015602482015274566573743a206e6f742062656e656669636961727960581b6044820152606490fd5b3461015157602061033c3661162a565b6103499493919294611a2b565b60405163cc6f383360e01b81526001600160a01b03909216600483015260c06024830152909384928392916103829160c485019161190c565b9060448301525f606483015261016d608483015261044760a483015203815f305af180156103ef575f906103bc575b602090604051908152f35b506020813d6020116103e7575b816103d66020938361184a565b8101031261015157602090516103b1565b3d91506103c9565b6040513d5f823e3d90fd5b34610151575f366003190112610151576001546040516001600160a01b039091168152602090f35b346101515760c03660031901126101515761043b6115e6565b60243567ffffffffffffffff81116101515761045b9036906004016115fc565b919060443592606435906004821015610151576084359260a4359461047e611a2b565b6001600160a01b0316938415610a205786156109e75785156109ad57821561097557600254955f805b8881106108f957506040516370a0823160e01b81523060048201526020816024817f00000000000000000000000000000000000000000000000000000000000000006001600160a01b03165afa9081156103ef578a905f926108c3575b5061050f91926119ec565b1161087e576201518082029180830462015180149015171561086a57620151808102908104620151800361086a576040516105498161182d565b86815267ffffffffffffffff85116107735760405190610573601f8701601f19166020018361184a565b8582523686860111610151578892868660208501375f602088850101526020820192835260408201948b8652606083015f8152608084019042825260a0850192835260c0850193845260e08501976105cb8c8a61192c565b6101008601965f8852600160401b61012088019960018b521015610773576105f98f600181016002556117d9565b979097610857575187546001600160a01b0319166001600160a01b0391909116178755518051600188019167ffffffffffffffff82116107735761063d83546117f5565b601f8111610812575b50602090601f83116001146107a65760079998979695949392915f918361079b575b50508160011b915f199060031b1c19161790555b51600286015551600385015551600484015551600583015551600682015501925160048110156107875783549151925162ffffff1990921660ff919091161791151560081b61ff00169190911790151560101b62ff0000161790555f848152600360205260409020805496909290600160401b88101561077357610768879561072e8a7f20f8a210c3fa0c941dc39f8162e82bc17b8edd0dc6f8249096d72d9bb58a606897600160209d018155611672565b81549060031b9089821b915f19901b191617905561075960405195869560608752606087019161190c565b928a85015260408401906116bf565b0390a3604051908152f35b634e487b7160e01b5f52604160045260245ffd5b634e487b7160e01b5f52602160045260245ffd5b015190505f80610668565b90601f19831691845f52815f20925f5b8181106107fa575091600193918560079d9c9b9a9998979694106107e2575b505050811b01905561067c565b01515f1960f88460031b161c191690555f80806107d5565b929360206001819287860151815501950193016107b6565b835f5260205f20601f840160051c8101916020851061084d575b601f0160051c01905b8181106108425750610646565b5f8155600101610835565b909150819061082c565b634e487b7160e01b5f525f60045260245ffd5b634e487b7160e01b5f52601160045260245ffd5b60405162461bcd60e51b815260206004820152601e60248201527f566573743a20696e73756666696369656e742057494b2062616c616e636500006044820152606490fd5b9150506020813d6020116108f1575b816108df6020938361184a565b8101031261015157518961050f610504565b3d91506108d2565b60ff6007610906836117d9565b50015460101c168061095a575b610920575b6001016104a7565b9061095260019161094c6002610935866117d9565b5001546003610943876117d9565b500154906119c7565b906119ec565b919050610918565b5060ff6007610968836117d9565b50015460081c1615610913565b60405162461bcd60e51b815260206004820152601060248201526f566573743a20656d707479206e616d6560801b6044820152606490fd5b60405162461bcd60e51b8152602060048201526012602482015271566573743a207a65726f2076657374696e6760701b6044820152606490fd5b60405162461bcd60e51b815260206004820152601160248201527015995cdd0e881e995c9bc8185b5bdd5b9d607a1b6044820152606490fd5b60405162461bcd60e51b8152602060048201526012602482015271566573743a207a65726f206164647265737360701b6044820152606490fd5b34610151576020366003190112610151576001600160a01b03610a7b6115e6565b165f52600360205260405f20604051808260208294549384815201905f5260205f20925f5b818110610b98575050610ab59250038261184a565b805190610ac1826119d4565b91610acf604051938461184a565b808352610ade601f19916119d4565b015f5b818110610b425750505f5b8151811015610b305780610b14610b0e610b08600194866119f9565b516117d9565b50611938565b610b1e82866119f9565b52610b2981856119f9565b5001610aec565b60405180610b3e85826116cc565b0390f35b602090604051610b518161182d565b5f81526060838201525f60408201525f60608201525f60808201525f60a08201525f60c08201525f60e08201525f6101008201525f61012082015282828701015201610ae1565b8454835260019485019486945060209093019201610aa0565b346101515760203660031901126101515760043560025481101561015157610bd8906117d9565b5080546001600160a01b0316610bf06001830161186c565b9160ff60028201549160038101549060048101546005820154906007600684015493015493610c33604051998a998a5261014060208b01526101408a019061169b565b9660408901526060880152608087015260a086015260c0850152610c5c60e085018383166116bf565b818160081c16151561010085015260101c1615156101208301520390f35b3461015157602036600319011261015157610c936115e6565b5f9060018060a01b03165f52600360205260405f2090604051808360208295549384815201905f5260205f20925f5b818110610db4575050610cd79250038361184a565b8151610ce2816119d4565b90610cf0604051928361184a565b808252610cff601f19916119d4565b013660208301375f915b8351831015610d8557610d22610b0e610b0885876119f9565b610120810151158015610d77575b610d6d57600191610d52826060610d49610d6495611a3e565b910151906119c7565b9081610d5e87876119f9565b526119ec565b925b0191610d09565b5091600190610d66565b506101008101511515610d30565b610b3e8492610da660405194859485526060602086015260608501906117a6565b9083820360408501526117a6565b8454835260019485019487945060209093019201610cc2565b34610151575f366003190112610151575f546040516001600160a01b039091168152602090f35b3461015157602036600319011261015157610e0d6115e6565b5f905f80915f80945f955f9360018060a01b03165f52600360205260405f209660405180988991602082549182815201915f5260205f20905f5b818110610fae5750505090610e5d91038961184a565b5f5b8851811015610f7657610e78610b0e610b08838c6119f9565b9361012085015115610f6a57610eca610ea4610e9a60408801938451906119ec565b9961094c88611a3e565b9661094c610eb8606089019c8d51906119ec565b9b610ec289611a3e565b9051906119c7565b9460c0610ee0608083015160a0840151906119ec565b910190610eee8251826119ec565b9086158015610f61575b610f59575b5084158015610f50575b610f45575b5062278d009051049081610f2b575b50506001905b0195929395610e5f565b9661094c610f3d926001949951611a0d565b95908a610f1b565b935062278d00610f0c565b50848111610f07565b95508c610efd565b50868110610ef8565b96949350600190610f21565b50849061010094888860405196875260208701526040860152606085015282608085015260a084015260c083015242101560e0820152f35b825484528c945060209093019260019283019201610e47565b34610151575f36600319011261015157600154336001600160a01b039091160361103957600180546001600160a01b03199081169091555f805433928116831782556001600160a01b0316907f8be0079c531659141344cd1fd0a4f28419497f9722a3daafe3b4186f6b6457e09080a3005b63118cdaa760e01b5f523360045260245ffd5b34610151575f36600319011261015157611064611a2b565b600180546001600160a01b03199081169091555f80549182168155906001600160a01b03167f8be0079c531659141344cd1fd0a4f28419497f9722a3daafe3b4186f6b6457e08280a3005b34610151575f366003190112610151576110c7611b3f565b5f335f52600360205260405f20805415611264575f905b80548210156111d8576111006110f48383611672565b90549060031b1c6117d9565b5091600783015460ff8160101c16159081156111ca575b506111c0576111286101b184611938565b6003840193611139855480936119c7565b9182156111b35761115e8360019697986111568261117a956119ec565b809a556119ec565b96600261116b8689611672565b90549060031b1c9301546119c7565b60405192835260208301527fd9cb1e2714d65a111c0f20f060176ad657496bd47a3de04ec7c3d4ca232112ac60403393a35b01906110de565b50505060019192506111ac565b60019192506111ac565b60ff915060081c1685611117565b828015611226578061120d602092337f0000000000000000000000000000000000000000000000000000000000000000611abe565b60015f80516020611b7883398151915255604051908152f35b60405162461bcd60e51b8152602060048201526016602482015275566573743a206e6f7468696e6720746f20636c61696d60501b6044820152606490fd5b60405162461bcd60e51b8152602060048201526012602482015271566573743a206e6f207363686564756c657360701b6044820152606490fd5b34610151575f366003190112610151576002546112ba816119d4565b906112c8604051928361184a565b8082526020820160025f527f405787fa12a823e0f2b7631cc41b3ba8828b3321ca811111fa75cd3aa3bb5ace5f915b83831061130c5760405180610b3e87826116cc565b6008602060019261131c85611938565b8152019201920191906112f7565b34610151576040366003190112610151576113436115e6565b6001600160a01b03165f908152600360205260409020805460243591908210156101515760209161137391611672565b90549060031b1c604051908152f35b34610151575f366003190112610151576040517f00000000000000000000000000000000000000000000000000000000000000006001600160a01b03168152602090f35b34610151576040366003190112610151576024356001600160a01b0381169060043590828103610151576113f8611a2b565b611401826117d9565b50600781019081549260ff8460101c1680611549575b1561150e576114286101b183611938565b9360028301946114398187546119c7565b978815918215926114d4577f4025a5dcc86ffd530bfef0aeaef0726a91c3a3055d04df0cc9630331ac402d62976020976101008c9661ff00191617905555816114ca575b50611499575b5050546040519485526001600160a01b031693a3005b6114c3917f0000000000000000000000000000000000000000000000000000000000000000611abe565b8585611483565b905015158861147d565b60405162461bcd60e51b815260206004820152601260248201527115995cdd0e88199d5b1b1e481d995cdd195960721b6044820152606490fd5b60405162461bcd60e51b8152602060048201526013602482015272566573743a206e6f74207265766f6361626c6560681b6044820152606490fd5b5060ff8460081c1615611417565b346101515760206115673661162a565b6115749493919294611a2b565b60405163cc6f383360e01b81526001600160a01b03909216600483015260c06024830152909384928392916115ad9160c485019161190c565b9060448301526001606483015260b460848301526102da60a483015203815f305af180156103ef575f906103bc57602090604051908152f35b600435906001600160a01b038216820361015157565b9181601f840112156101515782359167ffffffffffffffff8311610151576020838186019501011161015157565b906060600319830112610151576004356001600160a01b038116810361015157916024359067ffffffffffffffff82116101515761166a916004016115fc565b909160443590565b8054821015611687575f5260205f2001905f90565b634e487b7160e01b5f52603260045260245ffd5b805180835260209291819084018484015e5f828201840152601f01601f1916010190565b9060048210156107875752565b602081016020825282518091526040820191602060408360051b8301019401925f915b8383106116fe57505050505090565b9091929394602080600192603f19858203018652885190848060a01b0382511681526101208061173d858501516101408786015261014085019061169b565b9360408101516040850152606081015160608501526080810151608085015260a081015160a085015260c081015160c085015261178260e082015160e08601906116bf565b610100810151151561010085015201511515910152970193019301919392906116ef565b90602080835192838152019201905f5b8181106117c35750505090565b82518452602093840193909201916001016117b6565b6002548110156116875760025f5260205f209060031b01905f90565b90600182811c92168015611823575b602083101461180f57565b634e487b7160e01b5f52602260045260245ffd5b91607f1691611804565b610140810190811067ffffffffffffffff82111761077357604052565b90601f8019910116810190811067ffffffffffffffff82111761077357604052565b9060405191825f82549261187f846117f5565b80845293600181169081156118ea57506001146118a6575b506118a49250038361184a565b565b90505f9291925260205f20905f915b8183106118ce5750509060206118a4928201015f611897565b60209193508060019154838589010152019101909184926118b5565b9050602092506118a494915060ff191682840152151560051b8201015f611897565b908060209392818452848401375f828201840152601f01601f1916010190565b60048210156107875752565b906040516119458161182d565b61012060ff6007839560018060a01b0381541685526119666001820161186c565b6020860152600281015460408601526003810154606086015260048101546080860152600581015460a0860152600681015460c086015201546119ae82821660e0860161192c565b818160081c16151561010085015260101c161515910152565b9190820391821161086a57565b67ffffffffffffffff81116107735760051b60200190565b9190820180921161086a57565b80518210156116875760209160051b010190565b8115611a17570490565b634e487b7160e01b5f52601260045260245ffd5b5f546001600160a01b0316330361103957565b610100810151611ab757611a5b608082015160a0830151906119ec565b90814210611ab15760c0810191611a738351826119ec565b421015611aa757611a86604091426119c7565b91015181810291818304149015171561086a57611aa4915190611a0d565b90565b5060409150015190565b50505f90565b6040015190565b916040519163a9059cbb60e01b5f5260018060a01b031660045260245260205f60448180865af19060015f5114821615611b1e575b60405215611afe5750565b635274afe760e01b5f9081526001600160a01b0391909116600452602490fd5b906001811516611b3657823b15153d15161690611af3565b503d5f823e3d90fd5b60025f80516020611b788339815191525414611b685760025f80516020611b7883398151915255565b633ee5aeb560e01b5f5260045ffdfe9b779b17422d0df92223018b32b4d1fa46e071723d6817e2486d003becc55f00a2646970667358221220f506fa99b4847dcc58218efd52b8e5e99352e8e88d6d6b3c379c67c06209e31064736f6c634300081a0033",
  "linkReferences": {},
  "deployedLinkReferences": {}
}