{
  "_format": "hh-sol-artifact-1",
  "contractName": "WikiPushNotification",
  "sourceName": "src/WikiPushNotification.sol",
  "abi": [
    {
      "inputs": [
        {
          "internalType": "address",
          "name": "_owner",
          "type": "address"
        }
      ],
      "stateMutability": "nonpayable",
      "type": "constructor"
    },
    {
      "inputs": [
        {
          "internalType": "address",
          "name": "owner",
          "type": "address"
        }
      ],
      "name": "OwnableInvalidOwner",
      "type": "error"
    },
    {
      "inputs": [
        {
          "internalType": "address",
          "name": "account",
          "type": "address"
        }
      ],
      "name": "OwnableUnauthorizedAccount",
      "type": "error"
    },
    {
      "anonymous": false,
      "inputs": [
        {
          "indexed": true,
          "internalType": "address",
          "name": "user",
          "type": "address"
        },
        {
          "indexed": false,
          "internalType": "uint256",
          "name": "timestamp",
          "type": "uint256"
        }
      ],
      "name": "DeviceRegistered",
      "type": "event"
    },
    {
      "anonymous": false,
      "inputs": [
        {
          "indexed": true,
          "internalType": "address",
          "name": "user",
          "type": "address"
        },
        {
          "indexed": false,
          "internalType": "enum WikiPushNotification.NotifType",
          "name": "notifType",
          "type": "uint8"
        },
        {
          "indexed": false,
          "internalType": "string",
          "name": "payload",
          "type": "string"
        },
        {
          "indexed": false,
          "internalType": "uint256",
          "name": "timestamp",
          "type": "uint256"
        }
      ],
      "name": "NotificationRequested",
      "type": "event"
    },
    {
      "anonymous": false,
      "inputs": [
        {
          "indexed": true,
          "internalType": "address",
          "name": "previousOwner",
          "type": "address"
        },
        {
          "indexed": true,
          "internalType": "address",
          "name": "newOwner",
          "type": "address"
        }
      ],
      "name": "OwnershipTransferStarted",
      "type": "event"
    },
    {
      "anonymous": false,
      "inputs": [
        {
          "indexed": true,
          "internalType": "address",
          "name": "previousOwner",
          "type": "address"
        },
        {
          "indexed": true,
          "internalType": "address",
          "name": "newOwner",
          "type": "address"
        }
      ],
      "name": "OwnershipTransferred",
      "type": "event"
    },
    {
      "anonymous": false,
      "inputs": [
        {
          "indexed": true,
          "internalType": "address",
          "name": "user",
          "type": "address"
        }
      ],
      "name": "PreferencesUpdated",
      "type": "event"
    },
    {
      "inputs": [],
      "name": "acceptOwnership",
      "outputs": [],
      "stateMutability": "nonpayable",
      "type": "function"
    },
    {
      "inputs": [
        {
          "internalType": "address[]",
          "name": "users",
          "type": "address[]"
        },
        {
          "internalType": "enum WikiPushNotification.NotifType",
          "name": "notifType",
          "type": "uint8"
        },
        {
          "internalType": "string",
          "name": "payload",
          "type": "string"
        }
      ],
      "name": "batchNotify",
      "outputs": [],
      "stateMutability": "nonpayable",
      "type": "function"
    },
    {
      "inputs": [
        {
          "internalType": "address",
          "name": "user",
          "type": "address"
        }
      ],
      "name": "getPreferences",
      "outputs": [
        {
          "components": [
            {
              "internalType": "bool",
              "name": "enabled",
              "type": "bool"
            },
            {
              "internalType": "bool[11]",
              "name": "types",
              "type": "bool[11]"
            },
            {
              "internalType": "uint256",
              "name": "healthThreshold",
              "type": "uint256"
            },
            {
              "internalType": "uint256",
              "name": "registeredAt",
              "type": "uint256"
            },
            {
              "internalType": "uint256",
              "name": "lastNotifTs",
              "type": "uint256"
            }
          ],
          "internalType": "struct WikiPushNotification.NotifPreferences",
          "name": "",
          "type": "tuple"
        }
      ],
      "stateMutability": "view",
      "type": "function"
    },
    {
      "inputs": [
        {
          "internalType": "address",
          "name": "user",
          "type": "address"
        }
      ],
      "name": "isRegistered",
      "outputs": [
        {
          "internalType": "bool",
          "name": "",
          "type": "bool"
        }
      ],
      "stateMutability": "view",
      "type": "function"
    },
    {
      "inputs": [
        {
          "internalType": "address",
          "name": "user",
          "type": "address"
        },
        {
          "internalType": "enum WikiPushNotification.NotifType",
          "name": "notifType",
          "type": "uint8"
        },
        {
          "internalType": "string",
          "name": "payload",
          "type": "string"
        }
      ],
      "name": "notify",
      "outputs": [],
      "stateMutability": "nonpayable",
      "type": "function"
    },
    {
      "inputs": [],
      "name": "owner",
      "outputs": [
        {
          "internalType": "address",
          "name": "",
          "type": "address"
        }
      ],
      "stateMutability": "view",
      "type": "function"
    },
    {
      "inputs": [],
      "name": "pendingOwner",
      "outputs": [
        {
          "internalType": "address",
          "name": "",
          "type": "address"
        }
      ],
      "stateMutability": "view",
      "type": "function"
    },
    {
      "inputs": [
        {
          "internalType": "address",
          "name": "",
          "type": "address"
        }
      ],
      "name": "preferences",
      "outputs": [
        {
          "internalType": "bool",
          "name": "enabled",
          "type": "bool"
        },
        {
          "internalType": "uint256",
          "name": "healthThreshold",
          "type": "uint256"
        },
        {
          "internalType": "uint256",
          "name": "registeredAt",
          "type": "uint256"
        },
        {
          "internalType": "uint256",
          "name": "lastNotifTs",
          "type": "uint256"
        }
      ],
      "stateMutability": "view",
      "type": "function"
    },
    {
      "inputs": [
        {
          "internalType": "address",
          "name": "",
          "type": "address"
        }
      ],
      "name": "recorders",
      "outputs": [
        {
          "internalType": "bool",
          "name": "",
          "type": "bool"
        }
      ],
      "stateMutability": "view",
      "type": "function"
    },
    {
      "inputs": [
        {
          "internalType": "uint256",
          "name": "healthThreshold",
          "type": "uint256"
        },
        {
          "internalType": "bool[11]",
          "name": "enabledTypes",
          "type": "bool[11]"
        }
      ],
      "name": "register",
      "outputs": [],
      "stateMutability": "nonpayable",
      "type": "function"
    },
    {
      "inputs": [],
      "name": "renounceOwnership",
      "outputs": [],
      "stateMutability": "nonpayable",
      "type": "function"
    },
    {
      "inputs": [
        {
          "internalType": "address",
          "name": "r",
          "type": "address"
        },
        {
          "internalType": "bool",
          "name": "on",
          "type": "bool"
        }
      ],
      "name": "setRecorder",
      "outputs": [],
      "stateMutability": "nonpayable",
      "type": "function"
    },
    {
      "inputs": [
        {
          "internalType": "address",
          "name": "newOwner",
          "type": "address"
        }
      ],
      "name": "transferOwnership",
      "outputs": [],
      "stateMutability": "nonpayable",
      "type": "function"
    },
    {
      "inputs": [],
      "name": "unregister",
      "outputs": [],
      "stateMutability": "nonpayable",
      "type": "function"
    },
    {
      "inputs": [
        {
          "internalType": "bool",
          "name": "enabled",
          "type": "bool"
        },
        {
          "internalType": "bool[11]",
          "name": "types",
          "type": "bool[11]"
        },
        {
          "internalType": "uint256",
          "name": "threshold",
          "type": "uint256"
        }
      ],
      "name": "updatePreferences",
      "outputs": [],
      "stateMutability": "nonpayable",
      "type": "function"
    },
    {
      "inputs": [
        {
          "internalType": "address",
          "name": "user",
          "type": "address"
        },
        {
          "internalType": "enum WikiPushNotification.NotifType",
          "name": "t",
          "type": "uint8"
        }
      ],
      "name": "wantsNotif",
      "outputs": [
        {
          "internalType": "bool",
          "name": "",
          "type": "bool"
        }
      ],
      "stateMutability": "view",
      "type": "function"
    }
  ],
  "bytecode": "0x6080346100e057601f610d3138819003918201601f19168301916001600160401b038311848410176100e4578084926020946040528339810103126100e057516001600160a01b038116908190036100e05780156100cd57600180546001600160a01b03199081169091555f805491821683178155604051929182916001600160a01b03909116907f8be0079c531659141344cd1fd0a4f28419497f9722a3daafe3b4186f6b6457e09080a35f52600360205260405f20600160ff19825416179055610c3890816100f98239f35b631e4fbdf760e01b5f525f60045260245ffd5b5f80fd5b634e487b7160e01b5f52604160045260245ffdfe6080806040526004361015610012575f80fd5b5f3560e01c90816306c7a2361461083857508063348b9a8e1461068b57806335663cf11461063a5780636a1a2215146105005780636b39349f146104a9578063715018a614610446578063743b57db146103d357806379ba50971461034e57806381fabe971461031157806383da9712146102555780638da5cb5b1461022e578063a00af1ea146101cf578063c3c5a54714610192578063e30c39781461016a578063e79a198f146101425763f2fde38b146100cc575f80fd5b3461013e57602036600319011261013e576100e56109cd565b6100ed610bef565b60018060a01b0316806bffffffffffffffffffffffff60a01b600154161760015560018060a01b035f54167f38d16b8cac22d99fc7c124b9cd0de2d3fa1faef420bfe791d8c362d765e227005f80a3005b5f80fd5b3461013e575f36600319011261013e57335f908152600260205260409020805460ff19169055005b3461013e575f36600319011261013e576001546040516001600160a01b039091168152602090f35b3461013e57602036600319011261013e576001600160a01b036101b36109cd565b165f526002602052602060ff60405f2054166040519015158152f35b3461013e57602036600319011261013e576001600160a01b036101f06109cd565b165f526002602052608060405f2060ff8154169060028101549060046003820154910154916040519315158452602084015260408301526060820152f35b3461013e575f36600319011261013e575f546040516001600160a01b039091168152602090f35b3461013e576101a036600319011261013e57600435801515810361013e57366101841161013e57335f52600260205261029e60405f2091829060ff801983541691151516179055565b5f6024815b600b81106102e25750506001820155600261018435910155337fd8cc1df82fdc2d52697dbbacba0314a7fcf6dde2888f83ecea95bc6ce897dfaa5f80a2005b90918235801515810361013e5760ff908116600384901b90811b91901b199091161791602001906001016102a3565b3461013e57602036600319011261013e576001600160a01b036103326109cd565b165f526003602052602060ff60405f2054166040519015158152f35b3461013e575f36600319011261013e57600154336001600160a01b03909116036103c057600180546001600160a01b03199081169091555f805433928116831782556001600160a01b0316907f8be0079c531659141344cd1fd0a4f28419497f9722a3daafe3b4186f6b6457e09080a3005b63118cdaa760e01b5f523360045260245ffd5b3461013e57604036600319011261013e576103ec6109cd565b602435600b81101561013e5760209160018060a01b03165f526002825260405f209060ff8254169182610426575b50506040519015158152f35b60ff92509060016104379201610ada565b90549060031b1c16828061041a565b3461013e575f36600319011261013e5761045e610bef565b600180546001600160a01b03199081169091555f80549182168155906001600160a01b03167f8be0079c531659141344cd1fd0a4f28419497f9722a3daafe3b4186f6b6457e08280a3005b3461013e57604036600319011261013e576104c26109cd565b602435801515810361013e576104fe916104da610bef565b60018060a01b03165f52600360205260405f209060ff801983541691151516179055565b005b3461013e5761018036600319011261013e57600435366101841161013e578015610631575b60405161053181610a11565b6001815260405161054461016082610a41565b6024815b610184821061061857505060208201908152604082019283526060820142815260808301915f8352335f52600260205261059560405f2094511515859060ff801983541691151516179055565b51935f805b600b81106105eb575084955060016004950155516002850155516003840155519101556040514281527f0ec66eac7cc2b6555e1742961a9ee17e918d7ff81b635fac9cc6833245d279d660203392a2005b90602061060e600192848a511515919060ff809160031b9316831b921b19161790565b970196910161059a565b8135801515810361013e57815260209182019101610548565b506107d0610525565b3461013e57606036600319011261013e576106536109cd565b602435600b81101561013e576044359167ffffffffffffffff831161013e576106836104fe9336906004016109e3565b929091610b32565b3461013e57606036600319011261013e5760043567ffffffffffffffff811161013e573660238201121561013e5780600401359067ffffffffffffffff821161013e576024810190602436918460051b01011161013e57602435600b811015918261013e5760443567ffffffffffffffff811161013e576107109036906004016109e3565b90335f52600360205261072960ff60405f205416610a63565b5f5b86811061073457005b6001600160a01b0361074f61074a838a88610aa2565b610ac6565b165f52600260205260405f2060ff81541615878115610800575b506107f75760040190815491603c83018093116107e35760019242106107dd57429055818060a01b036107a061074a838b89610aa2565b167ff793d91a17dba4d55af0d29981cee6a221521417c9a56bfa691847899014ccb1604051806107d34289898d85610af3565b0390a25b0161072b565b506107d7565b634e487b7160e01b5f52601160045260245ffd5b506001906107d7565b90506108245760ff6108158760018401610ada565b90549060031b1c161587610769565b634e487b7160e01b5f52602160045260245ffd5b3461013e57602036600319011261013e576108516109cd565b61085a82610a11565b5f82525f6080610160936040516108718682610a41565b853682376020820152826040820152826060820152015260018060a01b03165f52600260205260405f2090604051906108a982610a11565b60ff835416151582526109506040519160ff600186015481811615158552818160081c1615156020860152818160101c1615156040860152818160181c1615156060860152818160201c1615156080860152818160281c16151560a0860152818160301c16151560c0860152818160381c16151560e0860152818160401c161515610100860152818160481c16151561012086015260501c16151561014084015282610a41565b6020820190815260028301549260408301938452600460038201549160608501928352015491608084019283526040519351151584525193602084015f905b600b82106109b55750506101e0945051610180840152516101a0830152516101c0820152f35b6020806001928951151581520197019101909561098f565b600435906001600160a01b038216820361013e57565b9181601f8401121561013e5782359167ffffffffffffffff831161013e576020838186019501011161013e57565b60a0810190811067ffffffffffffffff821117610a2d57604052565b634e487b7160e01b5f52604160045260245ffd5b90601f8019910116810190811067ffffffffffffffff821117610a2d57604052565b15610a6a57565b60405162461bcd60e51b815260206004820152601060248201526f28271d103737ba103932b1b7b93232b960811b6044820152606490fd5b9190811015610ab25760051b0190565b634e487b7160e01b5f52603260045260245ffd5b356001600160a01b038116810361013e5790565b919091600b831015610ab257601f908360051c01921690565b949392919091600b8310156108245780608092604094885260606020890152816060890152838801375f828288010152601f8019910116850101930152565b92909192335f526003602052610b4e60ff60405f205416610a63565b6001600160a01b03165f818152600260205260409020805491949160ff1615610be857600b8410156108245760ff610b898560018401610ada565b90549060031b1c1615610be8576004018054603c81018091116107e3574210610be8577ff793d91a17dba4d55af0d29981cee6a221521417c9a56bfa691847899014ccb193610be391429055604051938493429285610af3565b0390a2565b5050505050565b5f546001600160a01b031633036103c05756fea2646970667358221220ed7f95498d5d6c77a59770360e627bd9c041d66267943c5a9ef551d849bbddad64736f6c634300081a0033",
  "linkReferences": {},
  "deployedLinkReferences": {}
}