{
  "_format": "hh-sol-artifact-1",
  "contractName": "WikiPOL",
  "sourceName": "src/WikiPOL.sol",
  "abi": [
    {
      "inputs": [
        {
          "internalType": "address",
          "name": "_usdc",
          "type": "address"
        },
        {
          "internalType": "address",
          "name": "_wik",
          "type": "address"
        },
        {
          "internalType": "address",
          "name": "_amm",
          "type": "address"
        },
        {
          "internalType": "address",
          "name": "_lp",
          "type": "address"
        },
        {
          "internalType": "address",
          "name": "_owner",
          "type": "address"
        }
      ],
      "stateMutability": "nonpayable",
      "type": "constructor"
    },
    {
      "inputs": [
        {
          "internalType": "address",
          "name": "owner",
          "type": "address"
        }
      ],
      "name": "OwnableInvalidOwner",
      "type": "error"
    },
    {
      "inputs": [
        {
          "internalType": "address",
          "name": "account",
          "type": "address"
        }
      ],
      "name": "OwnableUnauthorizedAccount",
      "type": "error"
    },
    {
      "inputs": [],
      "name": "ReentrancyGuardReentrantCall",
      "type": "error"
    },
    {
      "inputs": [
        {
          "internalType": "address",
          "name": "token",
          "type": "address"
        }
      ],
      "name": "SafeERC20FailedOperation",
      "type": "error"
    },
    {
      "anonymous": false,
      "inputs": [
        {
          "indexed": false,
          "internalType": "uint256",
          "name": "usdc",
          "type": "uint256"
        },
        {
          "indexed": false,
          "internalType": "uint256",
          "name": "wik",
          "type": "uint256"
        },
        {
          "indexed": false,
          "internalType": "uint256",
          "name": "newLP",
          "type": "uint256"
        }
      ],
      "name": "FeesCompounded",
      "type": "event"
    },
    {
      "anonymous": false,
      "inputs": [
        {
          "indexed": false,
          "internalType": "uint256",
          "name": "usdc",
          "type": "uint256"
        }
      ],
      "name": "FundingReceived",
      "type": "event"
    },
    {
      "anonymous": false,
      "inputs": [
        {
          "indexed": false,
          "internalType": "uint256",
          "name": "usdcAmount",
          "type": "uint256"
        },
        {
          "indexed": false,
          "internalType": "uint256",
          "name": "wikAmount",
          "type": "uint256"
        },
        {
          "indexed": false,
          "internalType": "uint256",
          "name": "lpReceived",
          "type": "uint256"
        }
      ],
      "name": "LiquidityAdded",
      "type": "event"
    },
    {
      "anonymous": false,
      "inputs": [
        {
          "indexed": false,
          "internalType": "uint256",
          "name": "usdcOut",
          "type": "uint256"
        },
        {
          "indexed": false,
          "internalType": "uint256",
          "name": "wikOut",
          "type": "uint256"
        },
        {
          "indexed": false,
          "internalType": "uint256",
          "name": "lpBurned",
          "type": "uint256"
        }
      ],
      "name": "LiquidityRemoved",
      "type": "event"
    },
    {
      "anonymous": false,
      "inputs": [
        {
          "indexed": true,
          "internalType": "address",
          "name": "previousOwner",
          "type": "address"
        },
        {
          "indexed": true,
          "internalType": "address",
          "name": "newOwner",
          "type": "address"
        }
      ],
      "name": "OwnershipTransferStarted",
      "type": "event"
    },
    {
      "anonymous": false,
      "inputs": [
        {
          "indexed": true,
          "internalType": "address",
          "name": "previousOwner",
          "type": "address"
        },
        {
          "indexed": true,
          "internalType": "address",
          "name": "newOwner",
          "type": "address"
        }
      ],
      "name": "OwnershipTransferred",
      "type": "event"
    },
    {
      "inputs": [],
      "name": "USDC",
      "outputs": [
        {
          "internalType": "contract IERC20",
          "name": "",
          "type": "address"
        }
      ],
      "stateMutability": "view",
      "type": "function"
    },
    {
      "inputs": [],
      "name": "WIK",
      "outputs": [
        {
          "internalType": "contract IERC20",
          "name": "",
          "type": "address"
        }
      ],
      "stateMutability": "view",
      "type": "function"
    },
    {
      "inputs": [],
      "name": "acceptOwnership",
      "outputs": [],
      "stateMutability": "nonpayable",
      "type": "function"
    },
    {
      "inputs": [
        {
          "internalType": "uint256",
          "name": "usdcAmount",
          "type": "uint256"
        },
        {
          "internalType": "uint256",
          "name": "wikAmount",
          "type": "uint256"
        },
        {
          "internalType": "uint256",
          "name": "slippageBps",
          "type": "uint256"
        }
      ],
      "name": "addLiquidity",
      "outputs": [
        {
          "internalType": "uint256",
          "name": "lpReceived",
          "type": "uint256"
        }
      ],
      "stateMutability": "nonpayable",
      "type": "function"
    },
    {
      "inputs": [],
      "name": "amm",
      "outputs": [
        {
          "internalType": "contract IWikiAMM",
          "name": "",
          "type": "address"
        }
      ],
      "stateMutability": "view",
      "type": "function"
    },
    {
      "inputs": [
        {
          "internalType": "uint256",
          "name": "slippageBps",
          "type": "uint256"
        }
      ],
      "name": "compound",
      "outputs": [],
      "stateMutability": "nonpayable",
      "type": "function"
    },
    {
      "inputs": [],
      "name": "lastCompoundTime",
      "outputs": [
        {
          "internalType": "uint256",
          "name": "",
          "type": "uint256"
        }
      ],
      "stateMutability": "view",
      "type": "function"
    },
    {
      "inputs": [],
      "name": "lpToken",
      "outputs": [
        {
          "internalType": "contract IWikiLP",
          "name": "",
          "type": "address"
        }
      ],
      "stateMutability": "view",
      "type": "function"
    },
    {
      "inputs": [],
      "name": "owner",
      "outputs": [
        {
          "internalType": "address",
          "name": "",
          "type": "address"
        }
      ],
      "stateMutability": "view",
      "type": "function"
    },
    {
      "inputs": [],
      "name": "pendingOwner",
      "outputs": [
        {
          "internalType": "address",
          "name": "",
          "type": "address"
        }
      ],
      "stateMutability": "view",
      "type": "function"
    },
    {
      "inputs": [],
      "name": "pendingUSDC",
      "outputs": [
        {
          "internalType": "uint256",
          "name": "",
          "type": "uint256"
        }
      ],
      "stateMutability": "view",
      "type": "function"
    },
    {
      "inputs": [],
      "name": "pendingWIK",
      "outputs": [
        {
          "internalType": "uint256",
          "name": "",
          "type": "uint256"
        }
      ],
      "stateMutability": "view",
      "type": "function"
    },
    {
      "inputs": [],
      "name": "positionValue",
      "outputs": [
        {
          "internalType": "uint256",
          "name": "usdcValue",
          "type": "uint256"
        },
        {
          "internalType": "uint256",
          "name": "wikValue",
          "type": "uint256"
        }
      ],
      "stateMutability": "view",
      "type": "function"
    },
    {
      "inputs": [
        {
          "internalType": "uint256",
          "name": "usdcAmount",
          "type": "uint256"
        }
      ],
      "name": "receiveFunding",
      "outputs": [],
      "stateMutability": "nonpayable",
      "type": "function"
    },
    {
      "inputs": [
        {
          "internalType": "uint256",
          "name": "lpAmount",
          "type": "uint256"
        },
        {
          "internalType": "uint256",
          "name": "slippageBps",
          "type": "uint256"
        }
      ],
      "name": "removeLiquidity",
      "outputs": [],
      "stateMutability": "nonpayable",
      "type": "function"
    },
    {
      "inputs": [],
      "name": "renounceOwnership",
      "outputs": [],
      "stateMutability": "nonpayable",
      "type": "function"
    },
    {
      "inputs": [],
      "name": "stats",
      "outputs": [
        {
          "internalType": "uint256",
          "name": "lpHeld",
          "type": "uint256"
        },
        {
          "internalType": "uint256",
          "name": "usdcDeployed",
          "type": "uint256"
        },
        {
          "internalType": "uint256",
          "name": "wikDeployed",
          "type": "uint256"
        },
        {
          "internalType": "uint256",
          "name": "feesEarned",
          "type": "uint256"
        },
        {
          "internalType": "uint256",
          "name": "pending",
          "type": "uint256"
        }
      ],
      "stateMutability": "view",
      "type": "function"
    },
    {
      "inputs": [],
      "name": "totalFeesEarned",
      "outputs": [
        {
          "internalType": "uint256",
          "name": "",
          "type": "uint256"
        }
      ],
      "stateMutability": "view",
      "type": "function"
    },
    {
      "inputs": [],
      "name": "totalLPHeld",
      "outputs": [
        {
          "internalType": "uint256",
          "name": "",
          "type": "uint256"
        }
      ],
      "stateMutability": "view",
      "type": "function"
    },
    {
      "inputs": [],
      "name": "totalUSDCDeployed",
      "outputs": [
        {
          "internalType": "uint256",
          "name": "",
          "type": "uint256"
        }
      ],
      "stateMutability": "view",
      "type": "function"
    },
    {
      "inputs": [],
      "name": "totalWIKDeployed",
      "outputs": [
        {
          "internalType": "uint256",
          "name": "",
          "type": "uint256"
        }
      ],
      "stateMutability": "view",
      "type": "function"
    },
    {
      "inputs": [
        {
          "internalType": "address",
          "name": "newOwner",
          "type": "address"
        }
      ],
      "name": "transferOwnership",
      "outputs": [],
      "stateMutability": "nonpayable",
      "type": "function"
    }
  ],
  "bytecode": "0x6101003461029e57601f61182e38819003918201601f19168301916001600160401b038311848410176102a25780849260a09460405283398101031261029e57610048816102b6565b610054602083016102b6565b610060604084016102b6565b9061006d606085016102b6565b936001600160a01b0390610083906080016102b6565b1692831561028b57600180546001600160a01b03199081169091555f80549182168617815560405195916001600160a01b0316907f8be0079c531659141344cd1fd0a4f28419497f9722a3daafe3b4186f6b6457e09080a360017f9b779b17422d0df92223018b32b4d1fa46e071723d6817e2486d003becc55f00556001600160a01b031692831561025657506001600160a01b031690811561021f576001600160a01b03169182156101e85760805260a05260c0526001600160a01b031660e05260405161156390816102cb82396080518181816102c9015281816103dc015281816106de0152818161088d01528181610d470152610fd3015260a051818181610406015281816108bb01528181610b6801528181610d6f0152610ffd015260c05181818161035a015281816108fe01528181610c0c01528181610da0015261102a015260e05181818161038b0152818161082701528181610ce70152610f740152f35b60405162461bcd60e51b815260206004820152600f60248201526e57696b693a207a65726f205f616d6d60881b6044820152606490fd5b60405162461bcd60e51b815260206004820152600f60248201526e57696b693a207a65726f205f77696b60881b6044820152606490fd5b62461bcd60e51b815260206004820152601060248201526f57696b693a207a65726f205f7573646360801b6044820152606490fd5b631e4fbdf760e01b5f525f60045260245ffd5b5f80fd5b634e487b7160e01b5f52604160045260245ffd5b51906001600160a01b038216820361029e5756fe6080806040526004361015610012575f80fd5b5f3560e01c9081631ab9550a14610c3b575080632a94394514610bf75780632e4ff52514610bda5780633853258e14610bbd5780633eef076214610b9757806340b0229e14610b53578063422f1043146108565780635fcbd28514610812578063715018a6146107af57806376b2a2851461079257806379ba50971461070d57806389a30271146106c95780638da5cb5b146106a25780639d7de6b314610316578063a334a92514610282578063aa5f7e2614610243578063b6c46ffa14610226578063bf56c33614610209578063d80528ae146101ca578063dd7d4670146101ad578063e30c3978146101855763f2fde38b1461010e575f80fd5b34610181576020366003190112610181576004356001600160a01b038116908190036101815761013c611430565b600180546001600160a01b031916821790555f80546001600160a01b0316907f38d16b8cac22d99fc7c124b9cd0de2d3fa1faef420bfe791d8c362d765e227009080a3005b5f80fd5b34610181575f366003190112610181576001546040516001600160a01b039091168152602090f35b34610181575f366003190112610181576020600654604051908152f35b34610181575f3660031901126101815760a060045460025460035460055490600754926040519485526020850152604084015260608301526080820152f35b34610181575f366003190112610181576020600454604051908152f35b34610181575f366003190112610181576020600854604051908152f35b346101815760203660031901126101815761025c611430565b610264611443565b61026f600435610f49565b60015f8051602061150e83398151915255005b34610181576020366003190112610181577fe455499c2acd509bdadebaf5a8fd54c083da31dbe98e785f2a72cdff04e32e0060206004356102c1611443565b6102ed8130337f000000000000000000000000000000000000000000000000000000000000000061147b565b6102f981600754610ed5565b600755604051908152a160015f8051602061150e83398151915255005b3461018157604036600319011261018157600435610332611430565b61033a611443565b60045481116106695760405163095ea7b360e01b81526001600160a01b037f0000000000000000000000000000000000000000000000000000000000000000811660048301819052602483018490527f0000000000000000000000000000000000000000000000000000000000000000909116916020816044815f875af180156105cc5761063c575b506040805163354aedbd60e21b81526001600160a01b037f00000000000000000000000000000000000000000000000000000000000000008116600483018190527f0000000000000000000000000000000000000000000000000000000000000000909116602483018190529290919081604481875afa9485156105cc575f915f96610610575b506020600491604051928380926318160ddd60e01b82525afa9182156105cc5787915f936105d7575b50610482610487928492610ca1565b610cb4565b90602435612710036127108111610586576104b86104bd926104828a6127106104b1868299610ca1565b049a610ca1565b610ca1565b049061012c4201918242116105865760409460e4935f9287519889978896635d5155ef60e11b8852600488015260248701528a6044870152606486015260848501523060a485015260c48401525af19081156105cc575f905f9261059a575b50600454838103908111610586577f0bb89aa54ed6940a7e7167bd262b2400d63945045ceff1a52a05f2601ed215f19361057091600455604051938493846040919493926060820195825260208201520152565b0390a160015f8051602061150e83398151915255005b634e487b7160e01b5f52601160045260245ffd5b90506105be915060403d6040116105c5575b6105b68183610c55565b810190610c8b565b908361051c565b503d6105ac565b6040513d5f823e3d90fd5b915091506020813d602011610608575b816105f460209383610c55565b810103126101815751908690610482610473565b3d91506105e7565b6004919650602092506106319060403d6040116105c5576105b68183610c55565b92909296915061044a565b61065d9060203d602011610662575b6106558183610c55565b810190610ebd565b6103c3565b503d61064b565b60405162461bcd60e51b81526020600482015260116024820152701413d30e88195e18d959591cc81a195b19607a1b6044820152606490fd5b34610181575f366003190112610181575f546040516001600160a01b039091168152602090f35b34610181575f366003190112610181576040517f00000000000000000000000000000000000000000000000000000000000000006001600160a01b03168152602090f35b34610181575f36600319011261018157600154336001600160a01b039091160361077f57600180546001600160a01b03199081169091555f805433928116831782556001600160a01b0316907f8be0079c531659141344cd1fd0a4f28419497f9722a3daafe3b4186f6b6457e09080a3005b63118cdaa760e01b5f523360045260245ffd5b34610181575f366003190112610181576020600754604051908152f35b34610181575f366003190112610181576107c7611430565b600180546001600160a01b03199081169091555f80549182168155906001600160a01b03167f8be0079c531659141344cd1fd0a4f28419497f9722a3daafe3b4186f6b6457e08280a3005b34610181575f366003190112610181576040517f00000000000000000000000000000000000000000000000000000000000000006001600160a01b03168152602090f35b3461018157606036600319011261018157602435600435610875611430565b61087d611443565b80151580610b4a575b15610b11577f0000000000000000000000000000000000000000000000000000000000000000916108b98230338661147b565b7f0000000000000000000000000000000000000000000000000000000000000000926108e78230338761147b565b60405163095ea7b360e01b81526001600160a01b037f00000000000000000000000000000000000000000000000000000000000000008116600483018190526024830186905295921691906020816044815f875af180156105cc57610af4575b5060405163095ea7b360e01b81526001600160a01b038681166004830152602482018590529190911691906020816044815f875af180156105cc57610ad7575b5060443561271003946127108611610586576127106109b2816109aa8989610ca1565b049786610ca1565b049161012c420190814211610586576060946109eb88935f9389976040519c8d998a98899762e8e33760e81b8952309560048a01610efd565b03925af19081156105cc576020935f92610a83575b5082610a307fd7f28048575eead8851d024ead087913957dfb4fd1a02b4d1573f5352a5a2be39394600254610ed5565b600255610a3f82600354610ed5565b600355610a4e84600454610ed5565b600455604080519182526020820192909252908101839052606090a160015f8051602061150e83398151915255604051908152f35b7fd7f28048575eead8851d024ead087913957dfb4fd1a02b4d1573f5352a5a2be39250610ac79060603d606011610ad0575b610abf8183610c55565b810190610ee2565b91505091610a00565b503d610ab5565b610aef9060203d602011610662576106558183610c55565b610987565b610b0c9060203d602011610662576106558183610c55565b610947565b60405162461bcd60e51b8152602060048201526011602482015270504f4c3a207a65726f20616d6f756e747360781b6044820152606490fd5b50811515610886565b34610181575f366003190112610181576040517f00000000000000000000000000000000000000000000000000000000000000006001600160a01b03168152602090f35b34610181575f366003190112610181576040610bb1610cd2565b82519182526020820152f35b34610181575f366003190112610181576020600354604051908152f35b34610181575f366003190112610181576020600254604051908152f35b34610181575f366003190112610181576040517f00000000000000000000000000000000000000000000000000000000000000006001600160a01b03168152602090f35b34610181575f366003190112610181576020906005548152f35b90601f8019910116810190811067ffffffffffffffff821117610c7757604052565b634e487b7160e01b5f52604160045260245ffd5b9190826040910312610181576020825192015190565b8181029291811591840414171561058657565b8115610cbe570490565b634e487b7160e01b5f52601260045260245ffd5b6040516370a0823160e01b81523060048201527f00000000000000000000000000000000000000000000000000000000000000006001600160a01b03169190602081602481865afa9081156105cc575f91610e8b575b508015610e83576040805163354aedbd60e21b81526001600160a01b037f0000000000000000000000000000000000000000000000000000000000000000811660048301527f0000000000000000000000000000000000000000000000000000000000000000166024820152919082806044810103817f00000000000000000000000000000000000000000000000000000000000000006001600160a01b03165afa9384156105cc575f925f95610e55575b50906020600492604051938480926318160ddd60e01b82525afa9182156105cc575f92610e21575b5080610e188361048261048294610e1e97610ca1565b95610ca1565b90565b9091506020813d602011610e4d575b81610e3d60209383610c55565b8101031261018157519080610e02565b3d9150610e30565b60049291955060209350610e779060403d6040116105c5576105b68183610c55565b93909395919250610dda565b505f91508190565b90506020813d602011610eb5575b81610ea660209383610c55565b8101031261018157515f610d28565b3d9150610e99565b90816020910312610181575180151581036101815790565b9190820180921161058657565b90816060910312610181578051916040602083015192015190565b6001600160a01b039182168152918116602083015260408201929092526060810192909252608082019290925260a081019290925290911660c082015260e08101919091526101000190565b60065462093a8081018091116105865742106113fb576040516370a0823160e01b81523060048201527f00000000000000000000000000000000000000000000000000000000000000006001600160a01b03169190602081602481865afa9081156105cc575f916113c9575b50156113c5576040805163354aedbd60e21b81526001600160a01b037f00000000000000000000000000000000000000000000000000000000000000008116600483018190527f00000000000000000000000000000000000000000000000000000000000000008216602484018190529590937f0000000000000000000000000000000000000000000000000000000000000000909216929182604481865afa9081156105cc576004926020926113a7575b506040516318160ddd60e01b815292839182905afa9081156105cc575f91611375575b501561136f57600754935f600755846110a5575b5050505050565b8460011c9260405194635e1e632560e01b8652846004870152816024870152826044870152602086606481875afa9586156105cc575f9661133b575b5060405163095ea7b360e01b81526001600160a01b0385166004820152602481018690526020816044815f875af180156105cc5761131e575b506126ac8602958087046126ac149015171561058657603c42018042116105865761271060405197630c76695b60e21b89525f60048a01528460248a01528760448a015204606488015230608488015260a487015260208660c4815f885af19586156105cc575f966112ea575b5060405163095ea7b360e01b81526001600160a01b0385166004820152602481018790526020816044815f885af180156105cc576112cd575b5061271003926127108411610586576127106111e8816111e08789610ca1565b049588610ca1565b049161012c4201908142116105865760609461122188935f938b976040519a8b998a98899762e8e33760e81b8952309560048a01610efd565b03925af180156105cc577f93a9c9911698fe52aef8574edfbe2844529e54f8cd29b3d04d82b26b1301fbbe94611298925f926112a5575b506112749061126983600454610ed5565b600455600554610ed5565b60055542600655604051938493846040919493926060820195825260208201520152565b0390a15f8080808061109e565b6112749192506112c39060603d606011610ad057610abf8183610c55565b9150509190611258565b6112e59060203d602011610662576106558183610c55565b6111c0565b9095506020813d602011611316575b8161130660209383610c55565b810103126101815751945f611187565b3d91506112f9565b6113369060203d602011610662576106558183610c55565b61111a565b9095506020813d602011611367575b8161135760209383610c55565b810103126101815751945f6110e1565b3d915061134a565b50505050565b90506020813d60201161139f575b8161139060209383610c55565b8101031261018157515f61108a565b3d9150611383565b6113bf9060403d6040116105c5576105b68183610c55565b50611067565b5050565b90506020813d6020116113f3575b816113e460209383610c55565b8101031261018157515f610fb5565b3d91506113d7565b60405162461bcd60e51b815260206004820152600d60248201526c2827a61d103a37b79039b7b7b760991b6044820152606490fd5b5f546001600160a01b0316330361077f57565b60025f8051602061150e833981519152541461146c5760025f8051602061150e83398151915255565b633ee5aeb560e01b5f5260045ffd5b6040516323b872dd60e01b5f9081526001600160a01b039384166004529290931660245260449390935260209060648180865af19060015f51148216156114ec575b6040525f606052156114cc5750565b635274afe760e01b5f9081526001600160a01b0391909116600452602490fd5b90600181151661150457823b15153d151616906114bd565b503d5f823e3d90fdfe9b779b17422d0df92223018b32b4d1fa46e071723d6817e2486d003becc55f00a264697066735822122009c6c217c30736bd96d3e91a2527722ff2f3bc2f64b164bd3bf4eaacf06b86ec64736f6c634300081a0033",
  "linkReferences": {},
  "deployedLinkReferences": {}
}