{
  "_format": "hh-sol-artifact-1",
  "contractName": "WikiCopyTrading",
  "sourceName": "src/WikiCopyTrading.sol",
  "abi": [
    {
      "inputs": [
        {
          "internalType": "address",
          "name": "_owner",
          "type": "address"
        },
        {
          "internalType": "address",
          "name": "_usdc",
          "type": "address"
        },
        {
          "internalType": "address",
          "name": "_perp",
          "type": "address"
        }
      ],
      "stateMutability": "nonpayable",
      "type": "constructor"
    },
    {
      "inputs": [
        {
          "internalType": "address",
          "name": "owner",
          "type": "address"
        }
      ],
      "name": "OwnableInvalidOwner",
      "type": "error"
    },
    {
      "inputs": [
        {
          "internalType": "address",
          "name": "account",
          "type": "address"
        }
      ],
      "name": "OwnableUnauthorizedAccount",
      "type": "error"
    },
    {
      "inputs": [],
      "name": "ReentrancyGuardReentrantCall",
      "type": "error"
    },
    {
      "inputs": [
        {
          "internalType": "address",
          "name": "token",
          "type": "address"
        }
      ],
      "name": "SafeERC20FailedOperation",
      "type": "error"
    },
    {
      "anonymous": false,
      "inputs": [
        {
          "indexed": true,
          "internalType": "uint256",
          "name": "vaultId",
          "type": "uint256"
        },
        {
          "indexed": true,
          "internalType": "address",
          "name": "follower",
          "type": "address"
        },
        {
          "indexed": false,
          "internalType": "uint256",
          "name": "usdc",
          "type": "uint256"
        },
        {
          "indexed": false,
          "internalType": "uint256",
          "name": "shares",
          "type": "uint256"
        }
      ],
      "name": "Deposited",
      "type": "event"
    },
    {
      "anonymous": false,
      "inputs": [
        {
          "indexed": true,
          "internalType": "address",
          "name": "previousOwner",
          "type": "address"
        },
        {
          "indexed": true,
          "internalType": "address",
          "name": "newOwner",
          "type": "address"
        }
      ],
      "name": "OwnershipTransferStarted",
      "type": "event"
    },
    {
      "anonymous": false,
      "inputs": [
        {
          "indexed": true,
          "internalType": "address",
          "name": "previousOwner",
          "type": "address"
        },
        {
          "indexed": true,
          "internalType": "address",
          "name": "newOwner",
          "type": "address"
        }
      ],
      "name": "OwnershipTransferred",
      "type": "event"
    },
    {
      "anonymous": false,
      "inputs": [
        {
          "indexed": true,
          "internalType": "uint256",
          "name": "vaultId",
          "type": "uint256"
        },
        {
          "indexed": false,
          "internalType": "address",
          "name": "leader",
          "type": "address"
        },
        {
          "indexed": false,
          "internalType": "uint256",
          "name": "amount",
          "type": "uint256"
        }
      ],
      "name": "PerformanceFeeCollected",
      "type": "event"
    },
    {
      "anonymous": false,
      "inputs": [
        {
          "indexed": false,
          "internalType": "uint256",
          "name": "vaultId",
          "type": "uint256"
        },
        {
          "indexed": false,
          "internalType": "address",
          "name": "follower",
          "type": "address"
        },
        {
          "indexed": false,
          "internalType": "uint256",
          "name": "amount",
          "type": "uint256"
        }
      ],
      "name": "SocialFollowerExited",
      "type": "event"
    },
    {
      "anonymous": false,
      "inputs": [
        {
          "indexed": false,
          "internalType": "uint256",
          "name": "vaultId",
          "type": "uint256"
        },
        {
          "indexed": false,
          "internalType": "address",
          "name": "follower",
          "type": "address"
        },
        {
          "indexed": false,
          "internalType": "uint256",
          "name": "amount",
          "type": "uint256"
        }
      ],
      "name": "SocialFollowerJoined",
      "type": "event"
    },
    {
      "anonymous": false,
      "inputs": [
        {
          "indexed": false,
          "internalType": "uint256",
          "name": "vaultId",
          "type": "uint256"
        },
        {
          "indexed": false,
          "internalType": "address",
          "name": "leader",
          "type": "address"
        },
        {
          "indexed": false,
          "internalType": "bool",
          "name": "isLong",
          "type": "bool"
        },
        {
          "indexed": false,
          "internalType": "uint256",
          "name": "notional",
          "type": "uint256"
        }
      ],
      "name": "SocialTradeMirrored",
      "type": "event"
    },
    {
      "anonymous": false,
      "inputs": [
        {
          "indexed": false,
          "internalType": "uint256",
          "name": "vaultId",
          "type": "uint256"
        },
        {
          "indexed": false,
          "internalType": "address",
          "name": "leadTrader",
          "type": "address"
        },
        {
          "indexed": false,
          "internalType": "string",
          "name": "name",
          "type": "string"
        }
      ],
      "name": "SocialVaultCreated",
      "type": "event"
    },
    {
      "anonymous": false,
      "inputs": [
        {
          "indexed": true,
          "internalType": "uint256",
          "name": "vaultId",
          "type": "uint256"
        },
        {
          "indexed": false,
          "internalType": "bytes32",
          "name": "marketId",
          "type": "bytes32"
        },
        {
          "indexed": false,
          "internalType": "bool",
          "name": "isLong",
          "type": "bool"
        },
        {
          "indexed": false,
          "internalType": "uint256",
          "name": "margin",
          "type": "uint256"
        },
        {
          "indexed": false,
          "internalType": "uint256",
          "name": "leverage",
          "type": "uint256"
        }
      ],
      "name": "TradeMirrored",
      "type": "event"
    },
    {
      "anonymous": false,
      "inputs": [
        {
          "indexed": true,
          "internalType": "uint256",
          "name": "vaultId",
          "type": "uint256"
        },
        {
          "indexed": true,
          "internalType": "address",
          "name": "leader",
          "type": "address"
        },
        {
          "indexed": false,
          "internalType": "string",
          "name": "name",
          "type": "string"
        }
      ],
      "name": "VaultCreated",
      "type": "event"
    },
    {
      "anonymous": false,
      "inputs": [
        {
          "indexed": true,
          "internalType": "uint256",
          "name": "vaultId",
          "type": "uint256"
        },
        {
          "indexed": false,
          "internalType": "uint256",
          "name": "drawdown",
          "type": "uint256"
        },
        {
          "indexed": false,
          "internalType": "string",
          "name": "reason",
          "type": "string"
        }
      ],
      "name": "VaultPaused",
      "type": "event"
    },
    {
      "anonymous": false,
      "inputs": [
        {
          "indexed": true,
          "internalType": "uint256",
          "name": "vaultId",
          "type": "uint256"
        },
        {
          "indexed": true,
          "internalType": "address",
          "name": "follower",
          "type": "address"
        },
        {
          "indexed": false,
          "internalType": "uint256",
          "name": "usdc",
          "type": "uint256"
        },
        {
          "indexed": false,
          "internalType": "uint256",
          "name": "perfFee",
          "type": "uint256"
        }
      ],
      "name": "Withdrawn",
      "type": "event"
    },
    {
      "inputs": [],
      "name": "BPS",
      "outputs": [
        {
          "internalType": "uint256",
          "name": "",
          "type": "uint256"
        }
      ],
      "stateMutability": "view",
      "type": "function"
    },
    {
      "inputs": [],
      "name": "MAX_DRAWDOWN_BPS",
      "outputs": [
        {
          "internalType": "uint256",
          "name": "",
          "type": "uint256"
        }
      ],
      "stateMutability": "view",
      "type": "function"
    },
    {
      "inputs": [],
      "name": "MAX_MGMT_FEE",
      "outputs": [
        {
          "internalType": "uint256",
          "name": "",
          "type": "uint256"
        }
      ],
      "stateMutability": "view",
      "type": "function"
    },
    {
      "inputs": [],
      "name": "MAX_PERF_FEE",
      "outputs": [
        {
          "internalType": "uint256",
          "name": "",
          "type": "uint256"
        }
      ],
      "stateMutability": "view",
      "type": "function"
    },
    {
      "inputs": [],
      "name": "MIN_LEADER_STAKE",
      "outputs": [
        {
          "internalType": "uint256",
          "name": "",
          "type": "uint256"
        }
      ],
      "stateMutability": "view",
      "type": "function"
    },
    {
      "inputs": [],
      "name": "PROTOCOL_CUT_BPS",
      "outputs": [
        {
          "internalType": "uint256",
          "name": "",
          "type": "uint256"
        }
      ],
      "stateMutability": "view",
      "type": "function"
    },
    {
      "inputs": [],
      "name": "USDC",
      "outputs": [
        {
          "internalType": "contract IERC20",
          "name": "",
          "type": "address"
        }
      ],
      "stateMutability": "view",
      "type": "function"
    },
    {
      "inputs": [],
      "name": "WITHDRAWAL_COOL",
      "outputs": [
        {
          "internalType": "uint256",
          "name": "",
          "type": "uint256"
        }
      ],
      "stateMutability": "view",
      "type": "function"
    },
    {
      "inputs": [],
      "name": "acceptOwnership",
      "outputs": [],
      "stateMutability": "nonpayable",
      "type": "function"
    },
    {
      "inputs": [
        {
          "internalType": "address",
          "name": "",
          "type": "address"
        }
      ],
      "name": "approvedLeaders",
      "outputs": [
        {
          "internalType": "bool",
          "name": "",
          "type": "bool"
        }
      ],
      "stateMutability": "view",
      "type": "function"
    },
    {
      "inputs": [
        {
          "internalType": "uint256",
          "name": "vaultId",
          "type": "uint256"
        },
        {
          "internalType": "uint256",
          "name": "positionIndex",
          "type": "uint256"
        }
      ],
      "name": "closePosition",
      "outputs": [],
      "stateMutability": "nonpayable",
      "type": "function"
    },
    {
      "inputs": [
        {
          "internalType": "uint256",
          "name": "mgmtFeeBps",
          "type": "uint256"
        },
        {
          "internalType": "uint256",
          "name": "perfFeeBps",
          "type": "uint256"
        },
        {
          "internalType": "string",
          "name": "name",
          "type": "string"
        },
        {
          "internalType": "string",
          "name": "strategy",
          "type": "string"
        }
      ],
      "name": "createSocialVault",
      "outputs": [
        {
          "internalType": "uint256",
          "name": "vaultId",
          "type": "uint256"
        }
      ],
      "stateMutability": "nonpayable",
      "type": "function"
    },
    {
      "inputs": [
        {
          "internalType": "string",
          "name": "name",
          "type": "string"
        },
        {
          "internalType": "string",
          "name": "description",
          "type": "string"
        },
        {
          "internalType": "uint256",
          "name": "initialStake",
          "type": "uint256"
        },
        {
          "internalType": "uint256",
          "name": "managementFeeBps",
          "type": "uint256"
        },
        {
          "internalType": "uint256",
          "name": "performanceFeeBps",
          "type": "uint256"
        },
        {
          "internalType": "uint256",
          "name": "maxDrawdownBps_",
          "type": "uint256"
        }
      ],
      "name": "createVault",
      "outputs": [
        {
          "internalType": "uint256",
          "name": "vaultId",
          "type": "uint256"
        }
      ],
      "stateMutability": "nonpayable",
      "type": "function"
    },
    {
      "inputs": [
        {
          "internalType": "uint256",
          "name": "vaultId",
          "type": "uint256"
        },
        {
          "internalType": "uint256",
          "name": "amount",
          "type": "uint256"
        }
      ],
      "name": "deposit",
      "outputs": [],
      "stateMutability": "nonpayable",
      "type": "function"
    },
    {
      "inputs": [
        {
          "internalType": "uint256",
          "name": "vaultId",
          "type": "uint256"
        }
      ],
      "name": "exitVault",
      "outputs": [],
      "stateMutability": "nonpayable",
      "type": "function"
    },
    {
      "inputs": [
        {
          "internalType": "uint256",
          "name": "vaultId",
          "type": "uint256"
        },
        {
          "internalType": "uint256",
          "name": "amount",
          "type": "uint256"
        }
      ],
      "name": "followVault",
      "outputs": [],
      "stateMutability": "nonpayable",
      "type": "function"
    },
    {
      "inputs": [
        {
          "internalType": "uint256",
          "name": "vaultId",
          "type": "uint256"
        },
        {
          "internalType": "address",
          "name": "follower",
          "type": "address"
        }
      ],
      "name": "followerStats",
      "outputs": [
        {
          "internalType": "uint256",
          "name": "shares",
          "type": "uint256"
        },
        {
          "internalType": "uint256",
          "name": "currentValue",
          "type": "uint256"
        },
        {
          "internalType": "int256",
          "name": "pnl",
          "type": "int256"
        },
        {
          "internalType": "uint256",
          "name": "shareOfVault",
          "type": "uint256"
        }
      ],
      "stateMutability": "view",
      "type": "function"
    },
    {
      "inputs": [
        {
          "internalType": "uint256",
          "name": "",
          "type": "uint256"
        },
        {
          "internalType": "address",
          "name": "",
          "type": "address"
        }
      ],
      "name": "followers",
      "outputs": [
        {
          "internalType": "uint256",
          "name": "shares",
          "type": "uint256"
        },
        {
          "internalType": "uint256",
          "name": "depositedUsdc",
          "type": "uint256"
        },
        {
          "internalType": "uint256",
          "name": "entryNavPerShare",
          "type": "uint256"
        },
        {
          "internalType": "uint256",
          "name": "lastWithdrawRequest",
          "type": "uint256"
        },
        {
          "internalType": "uint256",
          "name": "accruedPerfFee",
          "type": "uint256"
        }
      ],
      "stateMutability": "view",
      "type": "function"
    },
    {
      "inputs": [
        {
          "internalType": "address",
          "name": "",
          "type": "address"
        }
      ],
      "name": "followingVault",
      "outputs": [
        {
          "internalType": "uint256",
          "name": "",
          "type": "uint256"
        }
      ],
      "stateMutability": "view",
      "type": "function"
    },
    {
      "inputs": [
        {
          "internalType": "address",
          "name": "",
          "type": "address"
        }
      ],
      "name": "leadTrader",
      "outputs": [
        {
          "internalType": "uint256",
          "name": "",
          "type": "uint256"
        }
      ],
      "stateMutability": "view",
      "type": "function"
    },
    {
      "inputs": [
        {
          "internalType": "uint256",
          "name": "vaultId",
          "type": "uint256"
        },
        {
          "internalType": "bytes32",
          "name": "marketId",
          "type": "bytes32"
        },
        {
          "internalType": "bool",
          "name": "isLong",
          "type": "bool"
        },
        {
          "internalType": "uint256",
          "name": "allocationBps",
          "type": "uint256"
        },
        {
          "internalType": "uint256",
          "name": "leverage",
          "type": "uint256"
        }
      ],
      "name": "mirrorTrade",
      "outputs": [],
      "stateMutability": "nonpayable",
      "type": "function"
    },
    {
      "inputs": [
        {
          "internalType": "uint256",
          "name": "vaultId",
          "type": "uint256"
        },
        {
          "internalType": "bool",
          "name": "isLong",
          "type": "bool"
        },
        {
          "internalType": "uint256",
          "name": "notional",
          "type": "uint256"
        },
        {
          "internalType": "uint256",
          "name": "",
          "type": "uint256"
        }
      ],
      "name": "mirrorTrade",
      "outputs": [],
      "stateMutability": "nonpayable",
      "type": "function"
    },
    {
      "inputs": [],
      "name": "nextVaultId",
      "outputs": [
        {
          "internalType": "uint256",
          "name": "",
          "type": "uint256"
        }
      ],
      "stateMutability": "view",
      "type": "function"
    },
    {
      "inputs": [],
      "name": "owner",
      "outputs": [
        {
          "internalType": "address",
          "name": "",
          "type": "address"
        }
      ],
      "stateMutability": "view",
      "type": "function"
    },
    {
      "inputs": [],
      "name": "pendingOwner",
      "outputs": [
        {
          "internalType": "address",
          "name": "",
          "type": "address"
        }
      ],
      "stateMutability": "view",
      "type": "function"
    },
    {
      "inputs": [],
      "name": "perp",
      "outputs": [
        {
          "internalType": "contract IWikiPerp",
          "name": "",
          "type": "address"
        }
      ],
      "stateMutability": "view",
      "type": "function"
    },
    {
      "inputs": [],
      "name": "renounceOwnership",
      "outputs": [],
      "stateMutability": "nonpayable",
      "type": "function"
    },
    {
      "inputs": [
        {
          "internalType": "address",
          "name": "_perp",
          "type": "address"
        }
      ],
      "name": "setPerp",
      "outputs": [],
      "stateMutability": "nonpayable",
      "type": "function"
    },
    {
      "inputs": [
        {
          "internalType": "uint256",
          "name": "",
          "type": "uint256"
        }
      ],
      "name": "socialVaults",
      "outputs": [
        {
          "internalType": "address",
          "name": "leadTrader",
          "type": "address"
        },
        {
          "internalType": "uint256",
          "name": "managementFeeBps",
          "type": "uint256"
        },
        {
          "internalType": "uint256",
          "name": "performanceFeeBps",
          "type": "uint256"
        },
        {
          "internalType": "uint256",
          "name": "totalFollowers",
          "type": "uint256"
        },
        {
          "internalType": "uint256",
          "name": "totalAUM",
          "type": "uint256"
        },
        {
          "internalType": "bool",
          "name": "open",
          "type": "bool"
        },
        {
          "internalType": "string",
          "name": "name",
          "type": "string"
        },
        {
          "internalType": "string",
          "name": "strategyDescription",
          "type": "string"
        }
      ],
      "stateMutability": "view",
      "type": "function"
    },
    {
      "inputs": [],
      "name": "totalProtocolFees",
      "outputs": [
        {
          "internalType": "uint256",
          "name": "",
          "type": "uint256"
        }
      ],
      "stateMutability": "view",
      "type": "function"
    },
    {
      "inputs": [
        {
          "internalType": "address",
          "name": "newOwner",
          "type": "address"
        }
      ],
      "name": "transferOwnership",
      "outputs": [],
      "stateMutability": "nonpayable",
      "type": "function"
    },
    {
      "inputs": [
        {
          "internalType": "uint256",
          "name": "vaultId",
          "type": "uint256"
        }
      ],
      "name": "unpauseVault",
      "outputs": [],
      "stateMutability": "nonpayable",
      "type": "function"
    },
    {
      "inputs": [
        {
          "internalType": "uint256",
          "name": "",
          "type": "uint256"
        },
        {
          "internalType": "uint256",
          "name": "",
          "type": "uint256"
        }
      ],
      "name": "vaultPositions",
      "outputs": [
        {
          "internalType": "uint256",
          "name": "",
          "type": "uint256"
        }
      ],
      "stateMutability": "view",
      "type": "function"
    },
    {
      "inputs": [
        {
          "internalType": "uint256",
          "name": "vaultId",
          "type": "uint256"
        }
      ],
      "name": "vaultStats",
      "outputs": [
        {
          "internalType": "uint256",
          "name": "aum",
          "type": "uint256"
        },
        {
          "internalType": "uint256",
          "name": "nav",
          "type": "uint256"
        },
        {
          "internalType": "uint256",
          "name": "followers_",
          "type": "uint256"
        },
        {
          "internalType": "uint256",
          "name": "returnBps",
          "type": "uint256"
        },
        {
          "internalType": "bool",
          "name": "paused_",
          "type": "bool"
        }
      ],
      "stateMutability": "view",
      "type": "function"
    },
    {
      "inputs": [
        {
          "internalType": "uint256",
          "name": "",
          "type": "uint256"
        }
      ],
      "name": "vaults",
      "outputs": [
        {
          "internalType": "address",
          "name": "leader",
          "type": "address"
        },
        {
          "internalType": "string",
          "name": "name",
          "type": "string"
        },
        {
          "internalType": "string",
          "name": "description",
          "type": "string"
        },
        {
          "internalType": "uint256",
          "name": "totalAUM",
          "type": "uint256"
        },
        {
          "internalType": "uint256",
          "name": "leaderStake",
          "type": "uint256"
        },
        {
          "internalType": "uint256",
          "name": "highWaterMark",
          "type": "uint256"
        },
        {
          "internalType": "uint256",
          "name": "navPerShare",
          "type": "uint256"
        },
        {
          "internalType": "uint256",
          "name": "totalShares",
          "type": "uint256"
        },
        {
          "internalType": "uint256",
          "name": "managementFeeBps",
          "type": "uint256"
        },
        {
          "internalType": "uint256",
          "name": "performanceFeeBps",
          "type": "uint256"
        },
        {
          "internalType": "uint256",
          "name": "maxDrawdownBps",
          "type": "uint256"
        },
        {
          "internalType": "uint256",
          "name": "createdAt",
          "type": "uint256"
        },
        {
          "internalType": "uint256",
          "name": "lastFeeCollection",
          "type": "uint256"
        },
        {
          "internalType": "bool",
          "name": "active",
          "type": "bool"
        },
        {
          "internalType": "bool",
          "name": "paused",
          "type": "bool"
        },
        {
          "internalType": "uint64",
          "name": "totalFollowers",
          "type": "uint64"
        },
        {
          "internalType": "uint256",
          "name": "allTimeReturn",
          "type": "uint256"
        }
      ],
      "stateMutability": "view",
      "type": "function"
    },
    {
      "inputs": [
        {
          "internalType": "uint256",
          "name": "vaultId",
          "type": "uint256"
        },
        {
          "internalType": "uint256",
          "name": "shareAmount",
          "type": "uint256"
        }
      ],
      "name": "withdraw",
      "outputs": [],
      "stateMutability": "nonpayable",
      "type": "function"
    },
    {
      "inputs": [
        {
          "internalType": "address",
          "name": "to",
          "type": "address"
        }
      ],
      "name": "withdrawProtocolFees",
      "outputs": [],
      "stateMutability": "nonpayable",
      "type": "function"
    }
  ],
  "bytecode": "0x60a03461017a57601f612ed338819003918201601f19168301916001600160401b0383118484101761017e5780849260609460405283398101031261017a5761004781610192565b61005f604061005860208501610192565b9301610192565b6001600160a01b0390911691821561016757600180546001600160a01b03199081169091555f80549182168517815560405194916001600160a01b0316907f8be0079c531659141344cd1fd0a4f28419497f9722a3daafe3b4186f6b6457e09080a360017f9b779b17422d0df92223018b32b4d1fa46e071723d6817e2486d003becc55f008190556007556001600160a01b03908116608052168061014d575b50612d2c90816101a7823960805181818161049b01528181610dc501528181610fd30152818161179a015281816118ab0152818161198501528181612326015281816125f00152612c060152f35b600280546001600160a01b0319169190911790555f6100ff565b631e4fbdf760e01b5f525f60045260245ffd5b5f80fd5b634e487b7160e01b5f52604160045260245ffd5b51906001600160a01b038216820361017a5756fe60806040526004361015610011575f80fd5b5f3560e01c8062c941df1461228057806312ac1763146122635780631ab69eb21461222c578063232271ff146120b1578063249d39e91461209557806324d0caea14611c185780632d6ce61d146119ab5780632d80caa5146119575780633903df351461193b578063441a3e70146116655780634a31c546146116465780634c17b55e1461162a57806359c73ad614610f355780636e97cedd14610ef8578063715018a614610e9557806379ba509714610e105780637ac7fa5014610df457806389a3027114610db05780638b7f764114610d405780638ba7b6ee14610d085780638c64ea4a14610bde5780638da5cb5b14610bb75780638e1edacf14610afb578063aece50891461094b578063b87e206314610908578063b8e601511461071f578063bfa4c00c146106f7578063c87f4552146106bf578063cf125939146106a2578063d40e361814610664578063e2bbb15814610411578063e30c3978146103e9578063ee40b9b51461033a578063f2fde38b146102c8578063f526e39a146102ab578063f5f505991461028f5763fb513b21146101af575f80fd5b3461028b57602036600319011261028b57600435335f52600b6020528060405f20540361025057805f526009602052600360405f200190815490811561023c577f25975c73e70678be7a5a8b1bdc9c243145886c3e63aaeb96d2b00a5a724891b5926060925f19019055335f52600b6020525f60408120556040519081523360208201525f6040820152a1005b634e487b7160e01b5f52601160045260245ffd5b60405162461bcd60e51b8152602060048201526013602482015272436f70793a206e6f7420666f6c6c6f77696e6760681b6044820152606490fd5b5f80fd5b3461028b575f36600319011261028b5760206040516101f48152f35b3461028b575f36600319011261028b576020600854604051908152f35b3461028b57602036600319011261028b576102e1612777565b6102e9612a63565b60018060a01b0316806bffffffffffffffffffffffff60a01b600154161760015560018060a01b035f54167f38d16b8cac22d99fc7c124b9cd0de2d3fa1faef420bfe791d8c362d765e227005f80a3005b3461028b57602036600319011261028b576004355f52600960205260405f2060018060a01b038154166103e56001830154926103d76002820154916003810154600482015460ff600584015416916103a0600761039960068701612833565b9501612833565b95604051998a998a5260208a0152604089015260608801526080870152151560a086015261010060c08601526101008501906128d3565b9083820360e08501526128d3565b0390f35b3461028b575f36600319011261028b576001546040516001600160a01b039091168152602090f35b3461028b5761041f36612761565b90610428612a2b565b805f52600360205260405f20600d8101805460ff81169081610655575b5015610619576305f5e10084106105e55761045f83612aee565b670de0b6b3a7640000840290848204670de0b6b3a7640000148515171561023c5760076104926006850193845490612970565b936104bf8730337f0000000000000000000000000000000000000000000000000000000000000000612c6d565b600381016104ce888254612a1e565b9055016104dc848254612a1e565b90556001600160401b03815460101c1690811580156105c5575b610584575b5050825f52600460205260405f2060018060a01b0333165f52602052600260405f2091610529848454612a1e565b83556001830161053a878254612a1e565b90555491015560405192835260208301527fad5b4075b97dbf75ad5c78f7afac948e4ae611c4fdf2825e2ce3c6c96925bf3b60403393a360015f80516020612cd783398151915255005b6001600160401b03821461023c5760016105be920169ffffffffffffffff000082549160101b169069ffffffffffffffff00001916179055565b84806104fb565b505f858152600460209081526040808320338452909152902054156104f6565b60405162461bcd60e51b815260206004820152600c60248201526b043543a206d696e20243130360a41b6044820152606490fd5b60405162461bcd60e51b815260206004820152601460248201527343543a207661756c74206e6f742061637469766560601b6044820152606490fd5b60ff915060081c161585610445565b3461028b5761067236612761565b905f52600660205260405f20805482101561028b57602091610693916128f7565b90549060031b1c604051908152f35b3461028b575f36600319011261028b576020604051620151808152f35b3461028b57602036600319011261028b576001600160a01b036106e0612777565b165f52600a602052602060405f2054604051908152f35b3461028b575f36600319011261028b576002546040516001600160a01b039091168152602090f35b3461028b57604036600319011261028b5760043561073b61278d565b90805f52600360205260405f209160405191610756836127db565b83546001600160a01b0316835261076f60018501612833565b602084015261078060028501612833565b60408401526003840154606084015260048401546080840152600584015460a084015260068401549260c08101938452610200600e60078701549660e0840197885260088101546101008501526009810154610120850152600a810154610140850152600b810154610160850152600c8101546101808501526001600160401b03600d82015460ff811615156101a087015260ff8160081c1615156101c087015260101c166101e085015201549101525f52600460205260405f209060018060a01b03165f5260205260405f20604051610859816127f7565b670de0b6b3a764000061089c835494858452600460018601549560208601968752600281015460408701526003810154606087015201546080850152518561295d565b049151905f82840392128383128116908484139015161761023c578451156108fc575193612710850294808604612710149015171561023c576080946108e3915190612970565b915b604051938452602084015260408301526060820152f35b50608093505f916108e5565b3461028b57602036600319011261028b57610921612777565b610929612a63565b600280546001600160a01b0319166001600160a01b0392909216919091179055005b3461028b5761095936612761565b90805f52600960205260405f209060ff60058301541615610ac15781546001600160a01b031615610a8657335f52600b60205260405f2054610a41576305f5e1008310610a07577fe6567f56df3ac87084d48d83d7d2d6991de0cd6a91ad851730927a3bfb36a8c1926004606093335f52600b6020528360405f2055600381016109e3815461299b565b9055016109f1828254612a1e565b90556040519182523360208301526040820152a1005b60405162461bcd60e51b81526020600482015260126024820152710436f70793a206d696e696d756d20243130360741b6044820152606490fd5b60405162461bcd60e51b815260206004820152601760248201527f436f70793a20616c726561647920666f6c6c6f77696e670000000000000000006044820152606490fd5b60405162461bcd60e51b815260206004820152601360248201527210dbdc1e4e881a5b9d985b1a59081d985d5b1d606a1b6044820152606490fd5b60405162461bcd60e51b815260206004820152601260248201527110dbdc1e4e881d985d5b1d0818db1bdcd95960721b6044820152606490fd5b3461028b57608036600319011261028b5760043560243580151580910361028b575f828152600960205260409020546001600160a01b03163303610b7a577f9da48e89dae39c6e37b4b6888eadae2113992320ae635bd9385f99e56dcd097a9160809160405191825233602083015260408201526044356060820152a1005b60405162461bcd60e51b815260206004820152601560248201527421b7b83c9d103737ba103632b0b2103a3930b232b960591b6044820152606490fd5b3461028b575f36600319011261028b575f546040516001600160a01b039091168152602090f35b3461028b57602036600319011261028b576004355f90815260036020526040902080546001600160a01b0316610c1660018301612833565b610c2260028401612833565b9260038101549060048101546005820154600683015460078401546008850154600986015491600a87015493600b88015495600c89015497600d8a015499600e01549a6040519e8f9e8f9e8f9182526020820161022090526102208201610c88916128d3565b908082039060400152610c9a916128d3565b9c6060015260808d015260a08c015260c08b015260e08a015261010089015261012088015261014087015261016086015261018085015260ff811615156101a08501528060081c60ff1615156101c085015260101c6001600160401b03166101e08401526102008301520390f35b3461028b57602036600319011261028b576001600160a01b03610d29612777565b165f52600b602052602060405f2054604051908152f35b3461028b57604036600319011261028b57610d5961278d565b6004355f52600460205260405f209060018060a01b03165f5260205260a060405f20805490600181015490600281015460046003830154920154926040519485526020850152604084015260608301526080820152f35b3461028b575f36600319011261028b576040517f00000000000000000000000000000000000000000000000000000000000000006001600160a01b03168152602090f35b3461028b575f36600319011261028b57602060405161012c8152f35b3461028b575f36600319011261028b57600154336001600160a01b0390911603610e8257600180546001600160a01b03199081169091555f805433928116831782556001600160a01b0316907f8be0079c531659141344cd1fd0a4f28419497f9722a3daafe3b4186f6b6457e09080a3005b63118cdaa760e01b5f523360045260245ffd5b3461028b575f36600319011261028b57610ead612a63565b600180546001600160a01b03199081169091555f80549182168155906001600160a01b03167f8be0079c531659141344cd1fd0a4f28419497f9722a3daafe3b4186f6b6457e08280a3005b3461028b57602036600319011261028b576001600160a01b03610f19612777565b165f526005602052602060ff60405f2054166040519015158152f35b3461028b5760c036600319011261028b576004356001600160401b03811161028b57610f65903690600401612734565b6024356001600160401b03811161028b57610f84903690600401612734565b60643592919060a435608435610f98612a2b565b6402540be400604435106115f05761012c86116115b557610bb88111611579576101f48210158061156d575b1561153357610ff760443530337f0000000000000000000000000000000000000000000000000000000000000000612c6d565b600754956110048761299b565b600755670de0b6b3a764000060443502946044358604670de0b6b3a76400001460443515171561023c57611059906040519561103f876127db565b33875261104d368a8d6129a9565b602088015236916129a9565b604085015260443560608501526044356080850152670de0b6b3a764000060a0850152670de0b6b3a764000060c0850152620f4240850460e0850152610100840152610120830152610140820152426101608201524261018082015260016101a08201525f6101c08201525f6101e08201525f610200820152835f52600360205260405f209060018060a01b0360018060a01b03825116166bffffffffffffffffffffffff60a01b83541617825560208101518051906001600160401b03821161145757819061112c60018601546127a3565b601f81116114e3575b50602090601f8311600114611476575f9261146b575b50508160011b915f199060031b1c19161760018301555b60408101518051906001600160401b0382116114575761118560028501546127a3565b601f811161140f575b509160209793918795938990601f83116001146113755761134e9593837f6cda1fe49e022cf08f0f3e367bd8c6abb3c3a01a260273f23c8e432a4166a048989694600e94610200945f9261136a575b50508160011b915f199060031b1c19161760028501555b606081015160038501556080810151600485015560a0810151600585015560c0810151600685015560e0810151600785015561010081015160088501556101208101516009850155610140810151600a850155610160810151600b850155610180810151600c8501556112c3600d85016112816101a08401511515829060ff801983541691151516179055565b6101c083015181546101e085015169ffffffffffffffffff001990911691151560081b61ff00169190911760109190911b69ffffffffffffffff000016179055565b0151910155620f4240604051916112d9836127f7565b0481526004888201604435815260408301670de0b6b3a7640000815260608401905f825260808501925f8452895f52848d5260405f2060018060a01b0333165f528d5260405f2095518655516001860155516002850155516003840155519101556040519182918883523396898401916129ee565b0390a360015f80516020612cd783398151915255604051908152f35b015190508e806111dd565b90600285015f52805f20915f5b601f19851681106113f5575093600184600e946102009461134e9a987f6cda1fe49e022cf08f0f3e367bd8c6abb3c3a01a260273f23c8e432a4166a0489c9a98601f198116106113dd575b505050811b0160028501556111f4565b01515f1960f88460031b161c191690558e80806113cd565b8183015184558b9950600190930192918c01918c01611382565b600285015f5260205f20601f840160051c8101916020851061144d575b601f0160051c01905b818110611442575061118e565b5f8155600101611435565b909150819061142c565b634e487b7160e01b5f52604160045260245ffd5b01519050888061114b565b9250600185015f52805f20905f935b601f19841685106114c8576001945083601f198116106114b0575b505050811b016001830155611162565b01515f1960f88460031b161c191690558880806114a0565b81810151835560209485019460019093019290910190611485565b909150600185015f5260205f20601f840160051c81016020851061152c575b90849392915b601f830160051c8201811061151e575050611135565b5f8155859450600101611508565b5080611502565b60405162461bcd60e51b815260206004820152601260248201527143543a2064726177646f776e20352d32302560701b6044820152606490fd5b506107d0821115610fc4565b60405162461bcd60e51b815260206004820152601460248201527343543a207065726620666565206d61782033302560601b6044820152606490fd5b60405162461bcd60e51b815260206004820152601360248201527243543a206d676d7420666565206d617820332560681b6044820152606490fd5b60405162461bcd60e51b815260206004820152601260248201527143543a206d696e207374616b65202431304b60701b6044820152606490fd5b3461028b575f36600319011261028b576020604051610bb88152f35b3461028b575f36600319011261028b5760206040516402540be4008152f35b3461028b5761167336612761565b9061167c612a2b565b5f81815260036020908152604080832060048352818420338552909252909120805490919084111580611932575b156118ed576116b883612aee565b600681015491670de0b6b3a76400006116d1848761295d565b0494600182018054826116e4818361295d565b6116f086548092612970565b8a11156118e45761170761170c926117129461295d565b612970565b8861298e565b5f95600285015410806118db575b61184c575b5061175d61173483855461298e565b8085556117578354916117518661174b818661295d565b92612a1e565b90612970565b9061298e565b905561176e6007840191825461298e565b905561177a8386612a1e565b6117896003840191825461298e565b90555415611802575b506117be83337f0000000000000000000000000000000000000000000000000000000000000000612a76565b60405192835260208301527f1c84cc0f96161bdafea718a9094dd21c21d1fb2f9ca2ebb9bd4e39918efbaace60403393a360015f80516020612cd783398151915255005b600d016001600160401b03815460101c1690811561023c57611846915f190169ffffffffffffffff000082549160101b169069ffffffffffffffff00001916179055565b83611792565b612710919795506118629060098601549061295d565b04936101f485028581046101f4148615171561023c576118d4916118cf61271088930461189b611892828661298e565b91600854612a1e565b60085587546001600160a01b03167f0000000000000000000000000000000000000000000000000000000000000000612a76565b61298e565b9587611725565b50801515611720565b5050505f611712565b60405162461bcd60e51b815260206004820152601760248201527f43543a20696e73756666696369656e74207368617265730000000000000000006044820152606490fd5b508315156116aa565b3461028b575f36600319011261028b5760206040516107d08152f35b3461028b57602036600319011261028b576119a9611973612777565b61197b612a63565b600854905f6008557f0000000000000000000000000000000000000000000000000000000000000000612a76565b005b3461028b576119b936612761565b906119c2612a2b565b805f5260036020525f6020611a01604083209460018060a01b0386541633148015611c05575b6119f190612920565b84845260068352604084206128f7565b90549060031b1c604460018060a01b0360025416916040519485938492632d783b2b60e21b845260048401523060248401525af1908115611bfa575f91611bc8575b505f811315611b7f57611a5b60038401918254612a1e565b90555b6003820154670de0b6b3a7640000810290808204670de0b6b3a7640000149015171561023c576007830154611a9291612970565b918260068201556005810191825491600a81015461271003612710811161023c57611ac0612710918561295d565b048510611aec575b50508211611ae4575b60015f80516020612cd783398151915255005b558080611ad1565b600d01805461ff001916610100179055611b06848361298e565b612710810290808204612710149015171561023c576080611b48847fc2a3f29012107530a6c7cc19dbbf3af867bc4885897ceb0ffe41e62c8fbd210793612970565b604051908152604060208201526012604082015271111c985dd91bdddb881b1a5b5a5d081a1a5d60721b6060820152a28380611ac8565b5f811280611bb3575b611b93575b50611a5e565b611b9c90612a0e565b611bab6003840191825461298e565b905582611b8d565b50611bbd81612a0e565b600384015411611b88565b90506020813d602011611bf2575b81611be360209383612812565b8101031261028b575183611a43565b3d9150611bd6565b6040513d5f823e3d90fd5b5083546001600160a01b031633146119e8565b3461028b57608036600319011261028b576024356004356044356001600160401b03811161028b57611c4e903690600401612734565b92906064356001600160401b03811161028b57611c6f903690600401612734565b335f52600a60205260405f2054612050576101f485111580612044575b156120095760075493611c9e8561299b565b600755604051926101008401918483106001600160401b0384111761145757611d6f926040523385526020850197885260408501908152606085015f815260808601915f8352611d0b60a088019460018652611cfc8d36908c6129a9565b9760c08a0198895236916129a9565b60e088019081525f8a8152600960205260409020975188546001600160a01b039091166001600160a01b0319909116178855995160018801555160028701555160038601555160048501555160058401805460ff191691151560ff16919091179055565b51805160068301916001600160401b03821161145757611d8f83546127a3565b601f8111611fc4575b50602090601f8311600114611f5d576007949392915f9183611f52575b50508160011b915f199060031b1c19161790555b019251938451936001600160401b03851161145757611de881546127a3565b95601f8711611f0d575b602096508690601f8711600114611e89579580917f59df918908addf38d56258368d62fb163ff4b7e5538048ca69f564833491dc2796975f92611e7e575b50508160011b915f199060031b1c19161790555b335f52600a85528360405f2055611e7360405192839286845233888501526060604085015260608401916129ee565b0390a1604051908152f35b015190508880611e30565b90601f19871691835f52815f20925f5b818110611ef657509160019391897f59df918908addf38d56258368d62fb163ff4b7e5538048ca69f564833491dc27999a9410611ede575b505050811b019055611e44565b01515f1960f88460031b161c19169055888080611ed1565b92938a600181928786015181550195019301611e99565b815f5260205f20601f870160051c81019760208810611f48575b601f0160051c01965b878110611f3d5750611df2565b5f8155600101611f30565b9097508790611f27565b015190508980611db5565b90601f19831691845f52815f20925f5b818110611fac575091600193918560079897969410611f94575b505050811b019055611dc9565b01515f1960f88460031b161c19169055898080611f87565b92936020600181928786015181550195019301611f6d565b835f5260205f20601f840160051c81019160208510611fff575b601f0160051c01905b818110611ff45750611d98565b5f8155600101611fe7565b9091508190611fde565b60405162461bcd60e51b8152602060048201526013602482015272086dee0f27440cccacae640e8dede40d0d2ced606b1b6044820152606490fd5b50611388841115611c8c565b60405162461bcd60e51b815260206004820152601d60248201527f436f70793a20616c7265616479206c656164696e672061207661756c740000006044820152606490fd5b3461028b575f36600319011261028b5760206040516127108152f35b3461028b57602036600319011261028b576004355f52600360205260405f206040516120dc816127db565b81546001600160a01b031681526120f560018301612833565b602082015261210660028301612833565b604082015260038201549081606082015260048301546080820152600583015460a08201526006830154908160c0820152600784015460e082015260088401546101008201526009840154610120820152600a840154610140820152600b840154610160820152600c840154610180820152600d8401549060ff821615156101a0820152610200600e6001600160401b036101c084019460ff8160081c161515865260101c1696876101e08501520154910152670de0b6b3a764000082115f1461222257670de0b6b3a763ffff1982019382851161023c57612710850294808604612710149015171561023c57670de0b6b3a764000060a09504915b511515926040519485526020850152604084015260608301526080820152f35b60a0935f91612202565b3461028b57602036600319011261028b57612245612a63565b6004355f908152600360205260409020600d01805461ff0019169055005b3461028b575f36600319011261028b576020600754604051908152f35b3461028b5760a036600319011261028b576004356024359060443580151580910361028b57608435926064356122b4612a2b565b835f52600360205260405f206122d460018060a01b038254163314612920565b600d81015460ff81169081612725575b50156126ed57610bb882116126b0576064861015806126a4575b156126665761271091600361231492015461295d565b0493841515806125d4575b15612596577f00000000000000000000000000000000000000000000000000000000000000009460018060a01b036002541660405163095ea7b360e01b5f52816004528260245260205f604481808c5af19060015f5114821615612587575b604052156124a2575b505f93949550602060018060a01b036002541660a46040518097819363d5332eb560e01b83528860048401528a60248401528660448401528760648401523060848401525af1938415611bfa575f9461246e575b50855f52600660205260405f20948554946801000000000000000086101561145757612430867f2098878f857cfbefac21a14cd770b3aade71c6cad4f6381cee56af387c2bf46c9860016080990181556128f7565b819291549060031b91821b915f19901b1916179055604051938452602084015260408301526060820152a260015f80516020612cd783398151915255005b9093506020813d60201161249a575b8161248a60209383612812565b8101031261028b575192866123db565b3d915061247d565b60405163095ea7b360e01b5f52816004525f60245260205f604481808c5af19060015f511482161561256f575b60405215612551576040519063095ea7b360e01b5f526004528160245260205f604481808b5af19060015f5114821615612530575b604052156125125785612387565b635274afe760e01b5f9081526001600160a01b038716600452602490fd5b90600181151661254857873b15153d15161690612504565b503d5f823e3d90fd5b635274afe760e01b5f9081526001600160a01b038816600452602490fd5b90600181151661254857883b15153d151616906124cf565b90883b15153d1516169061237e565b60405162461bcd60e51b815260206004820152601660248201527543543a20696e73756666696369656e742066756e647360501b6044820152606490fd5b506040516370a0823160e01b81523060048201526020816024817f00000000000000000000000000000000000000000000000000000000000000006001600160a01b03165afa8015611bfa5786915f91612631575b50101561231f565b9150506020813d60201161265e575b8161264d60209383612812565b8101031261028b5785905187612629565b3d9150612640565b60405162461bcd60e51b815260206004820152601660248201527543543a206c657665726167652031c3972d313030c39760501b6044820152606490fd5b506127108611156122fe565b60405162461bcd60e51b815260206004820152601560248201527443543a206d6178203330252070657220747261646560581b6044820152606490fd5b60405162461bcd60e51b815260206004820152601060248201526f10d50e881d985d5b1d081c185d5cd95960821b6044820152606490fd5b60ff915060081c1615876122e4565b9181601f8401121561028b578235916001600160401b03831161028b576020838186019501011161028b57565b604090600319011261028b576004359060243590565b600435906001600160a01b038216820361028b57565b602435906001600160a01b038216820361028b57565b90600182811c921680156127d1575b60208310146127bd57565b634e487b7160e01b5f52602260045260245ffd5b91607f16916127b2565b61022081019081106001600160401b0382111761145757604052565b60a081019081106001600160401b0382111761145757604052565b90601f801991011681019081106001600160401b0382111761145757604052565b9060405191825f825492612846846127a3565b80845293600181169081156128b1575060011461286d575b5061286b92500383612812565b565b90505f9291925260205f20905f915b81831061289557505090602061286b928201015f61285e565b602091935080600191548385890101520191019091849261287c565b90506020925061286b94915060ff191682840152151560051b8201015f61285e565b805180835260209291819084018484015e5f828201840152601f01601f1916010190565b805482101561290c575f5260205f2001905f90565b634e487b7160e01b5f52603260045260245ffd5b1561292757565b60405162461bcd60e51b815260206004820152600e60248201526d21aa1d103737ba103632b0b232b960911b6044820152606490fd5b8181029291811591840414171561023c57565b811561297a570490565b634e487b7160e01b5f52601260045260245ffd5b9190820391821161023c57565b5f19811461023c5760010190565b9291926001600160401b03821161145757604051916129d2601f8201601f191660200184612812565b82948184528183011161028b578281602093845f960137010152565b908060209392818452848401375f828201840152601f01601f1916010190565b600160ff1b811461023c575f0390565b9190820180921161023c57565b60025f80516020612cd78339815191525414612a545760025f80516020612cd783398151915255565b633ee5aeb560e01b5f5260045ffd5b5f546001600160a01b03163303610e8257565b916040519163a9059cbb60e01b5f5260018060a01b031660045260245260205f60448180865af19060015f5114821615612ad6575b60405215612ab65750565b635274afe760e01b5f9081526001600160a01b0391909116600452602490fd5b90600181151661254857823b15153d15161690612aab565b805f52600360205260405f20600c810190612b0a82544261298e565b6201518081108015612c61575b612c5b57600382019164496cebb800612b3f845493612b3a60088501548661295d565b61295d565b049182159081159081612c51575b50612b5b575b505050505050565b6101f48302908382046101f414171561023c57612710612b97910492612b8d612b84858361298e565b94600854612a1e565b600855845461298e565b809355670de0b6b3a7640000830292808404670de0b6b3a7640000149015171561023c577fabcf0fb98a979bfe16de458f8e0cc32ed2d00cabdad1066dc4945496ffae389f93612bee604094600784015490612970565b60068301558154612c2a9084906001600160a01b03167f0000000000000000000000000000000000000000000000000000000000000000612a76565b4290555482516001600160a01b0390911681526020810191909152a25f8080808080612b53565b905083105f612b4d565b50505050565b50600882015415612b17565b6040516323b872dd60e01b5f9081526001600160a01b039384166004529290931660245260449390935260209060648180865af19060015f5114821615612cbe575b6040525f60605215612ab65750565b90600181151661254857823b15153d15161690612caf56fe9b779b17422d0df92223018b32b4d1fa46e071723d6817e2486d003becc55f00a264697066735822122011411f5bd57e2b8f83364ea809cd00f6a0e802ee55f3a4ce3dcd3241b847afe064736f6c634300081a0033",
  "linkReferences": {},
  "deployedLinkReferences": {}
}