{
  "_format": "hh-sol-artifact-1",
  "contractName": "WikiCopyTrading",
  "sourceName": "src/WikiCopyTrading.sol",
  "abi": [
    {
      "inputs": [
        {
          "internalType": "address",
          "name": "_owner",
          "type": "address"
        },
        {
          "internalType": "address",
          "name": "_usdc",
          "type": "address"
        },
        {
          "internalType": "address",
          "name": "_perp",
          "type": "address"
        }
      ],
      "stateMutability": "nonpayable",
      "type": "constructor"
    },
    {
      "inputs": [
        {
          "internalType": "address",
          "name": "owner",
          "type": "address"
        }
      ],
      "name": "OwnableInvalidOwner",
      "type": "error"
    },
    {
      "inputs": [
        {
          "internalType": "address",
          "name": "account",
          "type": "address"
        }
      ],
      "name": "OwnableUnauthorizedAccount",
      "type": "error"
    },
    {
      "inputs": [],
      "name": "ReentrancyGuardReentrantCall",
      "type": "error"
    },
    {
      "inputs": [
        {
          "internalType": "address",
          "name": "token",
          "type": "address"
        }
      ],
      "name": "SafeERC20FailedOperation",
      "type": "error"
    },
    {
      "anonymous": false,
      "inputs": [
        {
          "indexed": true,
          "internalType": "uint256",
          "name": "vaultId",
          "type": "uint256"
        },
        {
          "indexed": true,
          "internalType": "address",
          "name": "follower",
          "type": "address"
        },
        {
          "indexed": false,
          "internalType": "uint256",
          "name": "usdc",
          "type": "uint256"
        },
        {
          "indexed": false,
          "internalType": "uint256",
          "name": "shares",
          "type": "uint256"
        }
      ],
      "name": "Deposited",
      "type": "event"
    },
    {
      "anonymous": false,
      "inputs": [
        {
          "indexed": true,
          "internalType": "address",
          "name": "previousOwner",
          "type": "address"
        },
        {
          "indexed": true,
          "internalType": "address",
          "name": "newOwner",
          "type": "address"
        }
      ],
      "name": "OwnershipTransferStarted",
      "type": "event"
    },
    {
      "anonymous": false,
      "inputs": [
        {
          "indexed": true,
          "internalType": "address",
          "name": "previousOwner",
          "type": "address"
        },
        {
          "indexed": true,
          "internalType": "address",
          "name": "newOwner",
          "type": "address"
        }
      ],
      "name": "OwnershipTransferred",
      "type": "event"
    },
    {
      "anonymous": false,
      "inputs": [
        {
          "indexed": true,
          "internalType": "uint256",
          "name": "vaultId",
          "type": "uint256"
        },
        {
          "indexed": false,
          "internalType": "address",
          "name": "leader",
          "type": "address"
        },
        {
          "indexed": false,
          "internalType": "uint256",
          "name": "amount",
          "type": "uint256"
        }
      ],
      "name": "PerformanceFeeCollected",
      "type": "event"
    },
    {
      "anonymous": false,
      "inputs": [
        {
          "indexed": false,
          "internalType": "uint256",
          "name": "vaultId",
          "type": "uint256"
        },
        {
          "indexed": false,
          "internalType": "address",
          "name": "follower",
          "type": "address"
        },
        {
          "indexed": false,
          "internalType": "uint256",
          "name": "amount",
          "type": "uint256"
        }
      ],
      "name": "SocialFollowerExited",
      "type": "event"
    },
    {
      "anonymous": false,
      "inputs": [
        {
          "indexed": false,
          "internalType": "uint256",
          "name": "vaultId",
          "type": "uint256"
        },
        {
          "indexed": false,
          "internalType": "address",
          "name": "follower",
          "type": "address"
        },
        {
          "indexed": false,
          "internalType": "uint256",
          "name": "amount",
          "type": "uint256"
        }
      ],
      "name": "SocialFollowerJoined",
      "type": "event"
    },
    {
      "anonymous": false,
      "inputs": [
        {
          "indexed": false,
          "internalType": "uint256",
          "name": "vaultId",
          "type": "uint256"
        },
        {
          "indexed": false,
          "internalType": "address",
          "name": "leader",
          "type": "address"
        },
        {
          "indexed": false,
          "internalType": "bool",
          "name": "isLong",
          "type": "bool"
        },
        {
          "indexed": false,
          "internalType": "uint256",
          "name": "notional",
          "type": "uint256"
        }
      ],
      "name": "SocialTradeMirrored",
      "type": "event"
    },
    {
      "anonymous": false,
      "inputs": [
        {
          "indexed": false,
          "internalType": "uint256",
          "name": "vaultId",
          "type": "uint256"
        },
        {
          "indexed": false,
          "internalType": "address",
          "name": "leadTrader",
          "type": "address"
        },
        {
          "indexed": false,
          "internalType": "string",
          "name": "name",
          "type": "string"
        }
      ],
      "name": "SocialVaultCreated",
      "type": "event"
    },
    {
      "anonymous": false,
      "inputs": [
        {
          "indexed": true,
          "internalType": "uint256",
          "name": "vaultId",
          "type": "uint256"
        },
        {
          "indexed": false,
          "internalType": "bytes32",
          "name": "marketId",
          "type": "bytes32"
        },
        {
          "indexed": false,
          "internalType": "bool",
          "name": "isLong",
          "type": "bool"
        },
        {
          "indexed": false,
          "internalType": "uint256",
          "name": "margin",
          "type": "uint256"
        },
        {
          "indexed": false,
          "internalType": "uint256",
          "name": "leverage",
          "type": "uint256"
        }
      ],
      "name": "TradeMirrored",
      "type": "event"
    },
    {
      "anonymous": false,
      "inputs": [
        {
          "indexed": true,
          "internalType": "uint256",
          "name": "vaultId",
          "type": "uint256"
        },
        {
          "indexed": true,
          "internalType": "address",
          "name": "leader",
          "type": "address"
        },
        {
          "indexed": false,
          "internalType": "string",
          "name": "name",
          "type": "string"
        }
      ],
      "name": "VaultCreated",
      "type": "event"
    },
    {
      "anonymous": false,
      "inputs": [
        {
          "indexed": true,
          "internalType": "uint256",
          "name": "vaultId",
          "type": "uint256"
        },
        {
          "indexed": false,
          "internalType": "uint256",
          "name": "drawdown",
          "type": "uint256"
        },
        {
          "indexed": false,
          "internalType": "string",
          "name": "reason",
          "type": "string"
        }
      ],
      "name": "VaultPaused",
      "type": "event"
    },
    {
      "anonymous": false,
      "inputs": [
        {
          "indexed": true,
          "internalType": "uint256",
          "name": "vaultId",
          "type": "uint256"
        },
        {
          "indexed": true,
          "internalType": "address",
          "name": "follower",
          "type": "address"
        },
        {
          "indexed": false,
          "internalType": "uint256",
          "name": "usdc",
          "type": "uint256"
        },
        {
          "indexed": false,
          "internalType": "uint256",
          "name": "perfFee",
          "type": "uint256"
        }
      ],
      "name": "Withdrawn",
      "type": "event"
    },
    {
      "inputs": [],
      "name": "BPS",
      "outputs": [
        {
          "internalType": "uint256",
          "name": "",
          "type": "uint256"
        }
      ],
      "stateMutability": "view",
      "type": "function"
    },
    {
      "inputs": [],
      "name": "MAX_DRAWDOWN_BPS",
      "outputs": [
        {
          "internalType": "uint256",
          "name": "",
          "type": "uint256"
        }
      ],
      "stateMutability": "view",
      "type": "function"
    },
    {
      "inputs": [],
      "name": "MAX_MGMT_FEE",
      "outputs": [
        {
          "internalType": "uint256",
          "name": "",
          "type": "uint256"
        }
      ],
      "stateMutability": "view",
      "type": "function"
    },
    {
      "inputs": [],
      "name": "MAX_PERF_FEE",
      "outputs": [
        {
          "internalType": "uint256",
          "name": "",
          "type": "uint256"
        }
      ],
      "stateMutability": "view",
      "type": "function"
    },
    {
      "inputs": [],
      "name": "MIN_LEADER_STAKE",
      "outputs": [
        {
          "internalType": "uint256",
          "name": "",
          "type": "uint256"
        }
      ],
      "stateMutability": "view",
      "type": "function"
    },
    {
      "inputs": [],
      "name": "PROTOCOL_CUT_BPS",
      "outputs": [
        {
          "internalType": "uint256",
          "name": "",
          "type": "uint256"
        }
      ],
      "stateMutability": "view",
      "type": "function"
    },
    {
      "inputs": [],
      "name": "USDC",
      "outputs": [
        {
          "internalType": "contract IERC20",
          "name": "",
          "type": "address"
        }
      ],
      "stateMutability": "view",
      "type": "function"
    },
    {
      "inputs": [],
      "name": "WITHDRAWAL_COOL",
      "outputs": [
        {
          "internalType": "uint256",
          "name": "",
          "type": "uint256"
        }
      ],
      "stateMutability": "view",
      "type": "function"
    },
    {
      "inputs": [],
      "name": "acceptOwnership",
      "outputs": [],
      "stateMutability": "nonpayable",
      "type": "function"
    },
    {
      "inputs": [
        {
          "internalType": "address",
          "name": "",
          "type": "address"
        }
      ],
      "name": "approvedLeaders",
      "outputs": [
        {
          "internalType": "bool",
          "name": "",
          "type": "bool"
        }
      ],
      "stateMutability": "view",
      "type": "function"
    },
    {
      "inputs": [
        {
          "internalType": "uint256",
          "name": "vaultId",
          "type": "uint256"
        },
        {
          "internalType": "uint256",
          "name": "positionIndex",
          "type": "uint256"
        }
      ],
      "name": "closePosition",
      "outputs": [],
      "stateMutability": "nonpayable",
      "type": "function"
    },
    {
      "inputs": [
        {
          "internalType": "uint256",
          "name": "mgmtFeeBps",
          "type": "uint256"
        },
        {
          "internalType": "uint256",
          "name": "perfFeeBps",
          "type": "uint256"
        },
        {
          "internalType": "string",
          "name": "name",
          "type": "string"
        },
        {
          "internalType": "string",
          "name": "strategy",
          "type": "string"
        }
      ],
      "name": "createSocialVault",
      "outputs": [
        {
          "internalType": "uint256",
          "name": "vaultId",
          "type": "uint256"
        }
      ],
      "stateMutability": "nonpayable",
      "type": "function"
    },
    {
      "inputs": [
        {
          "internalType": "string",
          "name": "name",
          "type": "string"
        },
        {
          "internalType": "string",
          "name": "description",
          "type": "string"
        },
        {
          "internalType": "uint256",
          "name": "initialStake",
          "type": "uint256"
        },
        {
          "internalType": "uint256",
          "name": "managementFeeBps",
          "type": "uint256"
        },
        {
          "internalType": "uint256",
          "name": "performanceFeeBps",
          "type": "uint256"
        },
        {
          "internalType": "uint256",
          "name": "maxDrawdownBps_",
          "type": "uint256"
        }
      ],
      "name": "createVault",
      "outputs": [
        {
          "internalType": "uint256",
          "name": "vaultId",
          "type": "uint256"
        }
      ],
      "stateMutability": "nonpayable",
      "type": "function"
    },
    {
      "inputs": [
        {
          "internalType": "uint256",
          "name": "vaultId",
          "type": "uint256"
        },
        {
          "internalType": "uint256",
          "name": "amount",
          "type": "uint256"
        }
      ],
      "name": "deposit",
      "outputs": [],
      "stateMutability": "nonpayable",
      "type": "function"
    },
    {
      "inputs": [
        {
          "internalType": "uint256",
          "name": "vaultId",
          "type": "uint256"
        }
      ],
      "name": "exitVault",
      "outputs": [],
      "stateMutability": "nonpayable",
      "type": "function"
    },
    {
      "inputs": [
        {
          "internalType": "uint256",
          "name": "vaultId",
          "type": "uint256"
        },
        {
          "internalType": "uint256",
          "name": "amount",
          "type": "uint256"
        }
      ],
      "name": "followVault",
      "outputs": [],
      "stateMutability": "nonpayable",
      "type": "function"
    },
    {
      "inputs": [
        {
          "internalType": "uint256",
          "name": "vaultId",
          "type": "uint256"
        },
        {
          "internalType": "address",
          "name": "follower",
          "type": "address"
        }
      ],
      "name": "followerStats",
      "outputs": [
        {
          "internalType": "uint256",
          "name": "shares",
          "type": "uint256"
        },
        {
          "internalType": "uint256",
          "name": "currentValue",
          "type": "uint256"
        },
        {
          "internalType": "int256",
          "name": "pnl",
          "type": "int256"
        },
        {
          "internalType": "uint256",
          "name": "shareOfVault",
          "type": "uint256"
        }
      ],
      "stateMutability": "view",
      "type": "function"
    },
    {
      "inputs": [
        {
          "internalType": "uint256",
          "name": "",
          "type": "uint256"
        },
        {
          "internalType": "address",
          "name": "",
          "type": "address"
        }
      ],
      "name": "followers",
      "outputs": [
        {
          "internalType": "uint256",
          "name": "shares",
          "type": "uint256"
        },
        {
          "internalType": "uint256",
          "name": "depositedUsdc",
          "type": "uint256"
        },
        {
          "internalType": "uint256",
          "name": "entryNavPerShare",
          "type": "uint256"
        },
        {
          "internalType": "uint256",
          "name": "lastWithdrawRequest",
          "type": "uint256"
        },
        {
          "internalType": "uint256",
          "name": "accruedPerfFee",
          "type": "uint256"
        }
      ],
      "stateMutability": "view",
      "type": "function"
    },
    {
      "inputs": [
        {
          "internalType": "address",
          "name": "",
          "type": "address"
        }
      ],
      "name": "followingVault",
      "outputs": [
        {
          "internalType": "uint256",
          "name": "",
          "type": "uint256"
        }
      ],
      "stateMutability": "view",
      "type": "function"
    },
    {
      "inputs": [
        {
          "internalType": "address",
          "name": "",
          "type": "address"
        }
      ],
      "name": "leadTrader",
      "outputs": [
        {
          "internalType": "uint256",
          "name": "",
          "type": "uint256"
        }
      ],
      "stateMutability": "view",
      "type": "function"
    },
    {
      "inputs": [
        {
          "internalType": "uint256",
          "name": "vaultId",
          "type": "uint256"
        },
        {
          "internalType": "bytes32",
          "name": "marketId",
          "type": "bytes32"
        },
        {
          "internalType": "bool",
          "name": "isLong",
          "type": "bool"
        },
        {
          "internalType": "uint256",
          "name": "allocationBps",
          "type": "uint256"
        },
        {
          "internalType": "uint256",
          "name": "leverage",
          "type": "uint256"
        }
      ],
      "name": "mirrorTrade",
      "outputs": [],
      "stateMutability": "nonpayable",
      "type": "function"
    },
    {
      "inputs": [
        {
          "internalType": "uint256",
          "name": "vaultId",
          "type": "uint256"
        },
        {
          "internalType": "bool",
          "name": "isLong",
          "type": "bool"
        },
        {
          "internalType": "uint256",
          "name": "notional",
          "type": "uint256"
        },
        {
          "internalType": "uint256",
          "name": "",
          "type": "uint256"
        }
      ],
      "name": "mirrorTrade",
      "outputs": [],
      "stateMutability": "nonpayable",
      "type": "function"
    },
    {
      "inputs": [],
      "name": "nextVaultId",
      "outputs": [
        {
          "internalType": "uint256",
          "name": "",
          "type": "uint256"
        }
      ],
      "stateMutability": "view",
      "type": "function"
    },
    {
      "inputs": [],
      "name": "owner",
      "outputs": [
        {
          "internalType": "address",
          "name": "",
          "type": "address"
        }
      ],
      "stateMutability": "view",
      "type": "function"
    },
    {
      "inputs": [],
      "name": "pendingOwner",
      "outputs": [
        {
          "internalType": "address",
          "name": "",
          "type": "address"
        }
      ],
      "stateMutability": "view",
      "type": "function"
    },
    {
      "inputs": [],
      "name": "perp",
      "outputs": [
        {
          "internalType": "contract IWikiPerp",
          "name": "",
          "type": "address"
        }
      ],
      "stateMutability": "view",
      "type": "function"
    },
    {
      "inputs": [],
      "name": "renounceOwnership",
      "outputs": [],
      "stateMutability": "nonpayable",
      "type": "function"
    },
    {
      "inputs": [
        {
          "internalType": "address",
          "name": "_perp",
          "type": "address"
        }
      ],
      "name": "setPerp",
      "outputs": [],
      "stateMutability": "nonpayable",
      "type": "function"
    },
    {
      "inputs": [
        {
          "internalType": "uint256",
          "name": "",
          "type": "uint256"
        }
      ],
      "name": "socialVaults",
      "outputs": [
        {
          "internalType": "address",
          "name": "leadTrader",
          "type": "address"
        },
        {
          "internalType": "uint256",
          "name": "managementFeeBps",
          "type": "uint256"
        },
        {
          "internalType": "uint256",
          "name": "performanceFeeBps",
          "type": "uint256"
        },
        {
          "internalType": "uint256",
          "name": "totalFollowers",
          "type": "uint256"
        },
        {
          "internalType": "uint256",
          "name": "totalAUM",
          "type": "uint256"
        },
        {
          "internalType": "bool",
          "name": "open",
          "type": "bool"
        },
        {
          "internalType": "string",
          "name": "name",
          "type": "string"
        },
        {
          "internalType": "string",
          "name": "strategyDescription",
          "type": "string"
        }
      ],
      "stateMutability": "view",
      "type": "function"
    },
    {
      "inputs": [],
      "name": "totalProtocolFees",
      "outputs": [
        {
          "internalType": "uint256",
          "name": "",
          "type": "uint256"
        }
      ],
      "stateMutability": "view",
      "type": "function"
    },
    {
      "inputs": [
        {
          "internalType": "address",
          "name": "newOwner",
          "type": "address"
        }
      ],
      "name": "transferOwnership",
      "outputs": [],
      "stateMutability": "nonpayable",
      "type": "function"
    },
    {
      "inputs": [
        {
          "internalType": "uint256",
          "name": "vaultId",
          "type": "uint256"
        }
      ],
      "name": "unpauseVault",
      "outputs": [],
      "stateMutability": "nonpayable",
      "type": "function"
    },
    {
      "inputs": [
        {
          "internalType": "uint256",
          "name": "",
          "type": "uint256"
        },
        {
          "internalType": "uint256",
          "name": "",
          "type": "uint256"
        }
      ],
      "name": "vaultPositions",
      "outputs": [
        {
          "internalType": "uint256",
          "name": "",
          "type": "uint256"
        }
      ],
      "stateMutability": "view",
      "type": "function"
    },
    {
      "inputs": [
        {
          "internalType": "uint256",
          "name": "vaultId",
          "type": "uint256"
        }
      ],
      "name": "vaultStats",
      "outputs": [
        {
          "internalType": "uint256",
          "name": "aum",
          "type": "uint256"
        },
        {
          "internalType": "uint256",
          "name": "nav",
          "type": "uint256"
        },
        {
          "internalType": "uint256",
          "name": "followers_",
          "type": "uint256"
        },
        {
          "internalType": "uint256",
          "name": "returnBps",
          "type": "uint256"
        },
        {
          "internalType": "bool",
          "name": "paused_",
          "type": "bool"
        }
      ],
      "stateMutability": "view",
      "type": "function"
    },
    {
      "inputs": [
        {
          "internalType": "uint256",
          "name": "",
          "type": "uint256"
        }
      ],
      "name": "vaults",
      "outputs": [
        {
          "internalType": "address",
          "name": "leader",
          "type": "address"
        },
        {
          "internalType": "string",
          "name": "name",
          "type": "string"
        },
        {
          "internalType": "string",
          "name": "description",
          "type": "string"
        },
        {
          "internalType": "uint256",
          "name": "totalAUM",
          "type": "uint256"
        },
        {
          "internalType": "uint256",
          "name": "leaderStake",
          "type": "uint256"
        },
        {
          "internalType": "uint256",
          "name": "highWaterMark",
          "type": "uint256"
        },
        {
          "internalType": "uint256",
          "name": "navPerShare",
          "type": "uint256"
        },
        {
          "internalType": "uint256",
          "name": "totalShares",
          "type": "uint256"
        },
        {
          "internalType": "uint256",
          "name": "managementFeeBps",
          "type": "uint256"
        },
        {
          "internalType": "uint256",
          "name": "performanceFeeBps",
          "type": "uint256"
        },
        {
          "internalType": "uint256",
          "name": "maxDrawdownBps",
          "type": "uint256"
        },
        {
          "internalType": "uint256",
          "name": "createdAt",
          "type": "uint256"
        },
        {
          "internalType": "uint256",
          "name": "lastFeeCollection",
          "type": "uint256"
        },
        {
          "internalType": "bool",
          "name": "active",
          "type": "bool"
        },
        {
          "internalType": "bool",
          "name": "paused",
          "type": "bool"
        },
        {
          "internalType": "uint64",
          "name": "totalFollowers",
          "type": "uint64"
        },
        {
          "internalType": "uint256",
          "name": "allTimeReturn",
          "type": "uint256"
        }
      ],
      "stateMutability": "view",
      "type": "function"
    },
    {
      "inputs": [
        {
          "internalType": "uint256",
          "name": "vaultId",
          "type": "uint256"
        },
        {
          "internalType": "uint256",
          "name": "shareAmount",
          "type": "uint256"
        }
      ],
      "name": "withdraw",
      "outputs": [],
      "stateMutability": "nonpayable",
      "type": "function"
    },
    {
      "inputs": [
        {
          "internalType": "address",
          "name": "to",
          "type": "address"
        }
      ],
      "name": "withdrawProtocolFees",
      "outputs": [],
      "stateMutability": "nonpayable",
      "type": "function"
    }
  ],
  "bytecode": "0x60a03461017a57601f612e9738819003918201601f19168301916001600160401b0383118484101761017e5780849260609460405283398101031261017a5761004781610192565b61005f604061005860208501610192565b9301610192565b6001600160a01b0390911691821561016757600180546001600160a01b03199081169091555f80549182168517815560405194916001600160a01b0316907f8be0079c531659141344cd1fd0a4f28419497f9722a3daafe3b4186f6b6457e09080a360017f9b779b17422d0df92223018b32b4d1fa46e071723d6817e2486d003becc55f008190556007556001600160a01b03908116608052168061014d575b50612cf090816101a7823960805181818161049b01528181610dc501528181610fd40152818161175a0152818161186b01528181611945015281816122b00152818161257a0152612baa0152f35b600280546001600160a01b0319169190911790555f6100ff565b631e4fbdf760e01b5f525f60045260245ffd5b5f80fd5b634e487b7160e01b5f52604160045260245ffd5b51906001600160a01b038216820361017a5756fe60806040526004361015610011575f80fd5b5f3560e01c8062c941df1461220a57806312ac1763146121ed5780631ab69eb2146121b6578063232271ff1461203b578063249d39e91461201f57806324d0caea14611bd85780632d6ce61d1461196b5780632d80caa5146119175780633903df35146118fb578063441a3e70146116255780634a31c546146116065780634c17b55e146115ea57806359c73ad614610f355780636e97cedd14610ef8578063715018a614610e9557806379ba509714610e105780637ac7fa5014610df457806389a3027114610db05780638b7f764114610d405780638ba7b6ee14610d085780638c64ea4a14610bde5780638da5cb5b14610bb75780638e1edacf14610afb578063aece50891461094b578063b87e206314610908578063b8e601511461071f578063bfa4c00c146106f7578063c87f4552146106bf578063cf125939146106a2578063d40e361814610664578063e2bbb15814610411578063e30c3978146103e9578063ee40b9b51461033a578063f2fde38b146102c8578063f526e39a146102ab578063f5f505991461028f5763fb513b21146101af575f80fd5b3461028b57602036600319011261028b57600435335f52600b6020528060405f20540361025057805f526009602052600360405f200190815490811561023c577f25975c73e70678be7a5a8b1bdc9c243145886c3e63aaeb96d2b00a5a724891b5926060925f19019055335f52600b6020525f60408120556040519081523360208201525f6040820152a1005b634e487b7160e01b5f52601160045260245ffd5b60405162461bcd60e51b8152602060048201526013602482015272436f70793a206e6f7420666f6c6c6f77696e6760681b6044820152606490fd5b5f80fd5b3461028b575f36600319011261028b5760206040516101f48152f35b3461028b575f36600319011261028b576020600854604051908152f35b3461028b57602036600319011261028b576102e1612701565b6102e9612a07565b60018060a01b0316806bffffffffffffffffffffffff60a01b600154161760015560018060a01b035f54167f38d16b8cac22d99fc7c124b9cd0de2d3fa1faef420bfe791d8c362d765e227005f80a3005b3461028b57602036600319011261028b576004355f52600960205260405f2060018060a01b038154166103e56001830154926103d76002820154916003810154600482015460ff600584015416916103a06007610399600687016127bd565b95016127bd565b95604051998a998a5260208a0152604089015260608801526080870152151560a086015261010060c086015261010085019061285d565b9083820360e085015261285d565b0390f35b3461028b575f36600319011261028b576001546040516001600160a01b039091168152602090f35b3461028b5761041f366126eb565b906104286129cf565b805f52600360205260405f20600d8101805460ff81169081610655575b5015610619576305f5e10084106105e55761045f83612a92565b670de0b6b3a7640000840290848204670de0b6b3a7640000148515171561023c57600761049260068501938454906128fa565b936104bf8730337f0000000000000000000000000000000000000000000000000000000000000000612c11565b600381016104ce8882546129c2565b9055016104dc8482546129c2565b90556001600160401b03815460101c1690811580156105c5575b610584575b5050825f52600460205260405f2060018060a01b0333165f52602052600260405f20916105298484546129c2565b83556001830161053a8782546129c2565b90555491015560405192835260208301527fad5b4075b97dbf75ad5c78f7afac948e4ae611c4fdf2825e2ce3c6c96925bf3b60403393a360015f80516020612c7b83398151915255005b6001600160401b03821461023c5760016105be920169ffffffffffffffff000082549160101b169069ffffffffffffffff00001916179055565b84806104fb565b505f858152600460209081526040808320338452909152902054156104f6565b60405162461bcd60e51b815260206004820152600c60248201526b043543a206d696e20243130360a41b6044820152606490fd5b60405162461bcd60e51b815260206004820152601460248201527343543a207661756c74206e6f742061637469766560601b6044820152606490fd5b60ff915060081c161585610445565b3461028b57610672366126eb565b905f52600660205260405f20805482101561028b5760209161069391612881565b90549060031b1c604051908152f35b3461028b575f36600319011261028b576020604051620151808152f35b3461028b57602036600319011261028b576001600160a01b036106e0612701565b165f52600a602052602060405f2054604051908152f35b3461028b575f36600319011261028b576002546040516001600160a01b039091168152602090f35b3461028b57604036600319011261028b5760043561073b612717565b90805f52600360205260405f20916040519161075683612765565b83546001600160a01b0316835261076f600185016127bd565b6020840152610780600285016127bd565b60408401526003840154606084015260048401546080840152600584015460a084015260068401549260c08101938452610200600e60078701549660e0840197885260088101546101008501526009810154610120850152600a810154610140850152600b810154610160850152600c8101546101808501526001600160401b03600d82015460ff811615156101a087015260ff8160081c1615156101c087015260101c166101e085015201549101525f52600460205260405f209060018060a01b03165f5260205260405f2060405161085981612781565b670de0b6b3a764000061089c83549485845260046001860154956020860196875260028101546040870152600381015460608701520154608085015251856128e7565b049151905f82840392128383128116908484139015161761023c578451156108fc575193612710850294808604612710149015171561023c576080946108e39151906128fa565b915b604051938452602084015260408301526060820152f35b50608093505f916108e5565b3461028b57602036600319011261028b57610921612701565b610929612a07565b600280546001600160a01b0319166001600160a01b0392909216919091179055005b3461028b57610959366126eb565b90805f52600960205260405f209060ff60058301541615610ac15781546001600160a01b031615610a8657335f52600b60205260405f2054610a41576305f5e1008310610a07577fe6567f56df3ac87084d48d83d7d2d6991de0cd6a91ad851730927a3bfb36a8c1926004606093335f52600b6020528360405f2055600381016109e38154612925565b9055016109f18282546129c2565b90556040519182523360208301526040820152a1005b60405162461bcd60e51b81526020600482015260126024820152710436f70793a206d696e696d756d20243130360741b6044820152606490fd5b60405162461bcd60e51b815260206004820152601760248201527f436f70793a20616c726561647920666f6c6c6f77696e670000000000000000006044820152606490fd5b60405162461bcd60e51b815260206004820152601360248201527210dbdc1e4e881a5b9d985b1a59081d985d5b1d606a1b6044820152606490fd5b60405162461bcd60e51b815260206004820152601260248201527110dbdc1e4e881d985d5b1d0818db1bdcd95960721b6044820152606490fd5b3461028b57608036600319011261028b5760043560243580151580910361028b575f828152600960205260409020546001600160a01b03163303610b7a577f9da48e89dae39c6e37b4b6888eadae2113992320ae635bd9385f99e56dcd097a9160809160405191825233602083015260408201526044356060820152a1005b60405162461bcd60e51b815260206004820152601560248201527421b7b83c9d103737ba103632b0b2103a3930b232b960591b6044820152606490fd5b3461028b575f36600319011261028b575f546040516001600160a01b039091168152602090f35b3461028b57602036600319011261028b576004355f90815260036020526040902080546001600160a01b0316610c16600183016127bd565b610c22600284016127bd565b9260038101549060048101546005820154600683015460078401546008850154600986015491600a87015493600b88015495600c89015497600d8a015499600e01549a6040519e8f9e8f9e8f9182526020820161022090526102208201610c889161285d565b908082039060400152610c9a9161285d565b9c6060015260808d015260a08c015260c08b015260e08a015261010089015261012088015261014087015261016086015261018085015260ff811615156101a08501528060081c60ff1615156101c085015260101c6001600160401b03166101e08401526102008301520390f35b3461028b57602036600319011261028b576001600160a01b03610d29612701565b165f52600b602052602060405f2054604051908152f35b3461028b57604036600319011261028b57610d59612717565b6004355f52600460205260405f209060018060a01b03165f5260205260a060405f20805490600181015490600281015460046003830154920154926040519485526020850152604084015260608301526080820152f35b3461028b575f36600319011261028b576040517f00000000000000000000000000000000000000000000000000000000000000006001600160a01b03168152602090f35b3461028b575f36600319011261028b57602060405161012c8152f35b3461028b575f36600319011261028b57600154336001600160a01b0390911603610e8257600180546001600160a01b03199081169091555f805433928116831782556001600160a01b0316907f8be0079c531659141344cd1fd0a4f28419497f9722a3daafe3b4186f6b6457e09080a3005b63118cdaa760e01b5f523360045260245ffd5b3461028b575f36600319011261028b57610ead612a07565b600180546001600160a01b03199081169091555f80549182168155906001600160a01b03167f8be0079c531659141344cd1fd0a4f28419497f9722a3daafe3b4186f6b6457e08280a3005b3461028b57602036600319011261028b576001600160a01b03610f19612701565b165f526005602052602060ff60405f2054166040519015158152f35b3461028b5760c036600319011261028b576004356001600160401b03811161028b57610f659036906004016126be565b6024356001600160401b03811161028b57610f849036906004016126be565b9290916084359160643560a435610f996129cf565b6402540be400604435106115b05761012c821161157557610bb88511611539576101f48110158061152d575b156114f357610ff860443530337f0000000000000000000000000000000000000000000000000000000000000000612c11565b6007549461100586612925565b600755670de0b6b3a764000060443502926044358404670de0b6b3a76400001460443515171561023c5761105c6040519861103f8a612765565b338a5261104d368989612933565b9a60208b019b8c523691612933565b604089015260443560608901526044356080890152670de0b6b3a764000060a0890152670de0b6b3a764000060c0890152620f4240840460e0890152610100880152610120870152610140860152426101608601524261018086015260016101a08601525f6101c08601525f6101e08601525f610200860152835f52600360205260405f209560018060a01b0360018060a01b03875116166bffffffffffffffffffffffff60a01b885416178755518051906001600160401b03821161141757819061112b60018a015461272d565b601f81116114a3575b50602090601f8311600114611436575f9261142b575b50508160011b915f199060031b1c19161760018701555b60408501519586516001600160401b03811161141757611184600283015461272d565b97601f89116113d3575b602098508890601f8311600114611354579782600e93610200935f80516020612c9b8339815191529a9b5f92611349575b50508160011b915f199060031b1c19161760028501555b606081015160038501556080810151600485015560a0810151600585015560c0810151600685015560e0810151600785015561010081015160088501556101208101516009850155610140810151600a850155610160810151600b850155610180810151600c8501556112a5600d85016112636101a08401511515829060ff801983541691151516179055565b6101c083015181546101e085015169ffffffffffffffffff001990911691151560081b61ff00169190911760109190911b69ffffffffffffffff000016179055565b0151910155620f4240604051916112bb83612781565b0481526004868201604435815260408301670de0b6b3a7640000815260608401905f825260808501925f8452895f52848b5260405f2060018060a01b0333165f528b5260405f20955186555160018601555160028501555160038401555191015561132d604051928392338785612978565b0390a160015f80516020612c7b83398151915255604051908152f35b015190508c806111bf565b90600284015f52805f20915f5b601f19851681106113bc575083610200935f80516020612c9b8339815191529a9b93600193600e97601f198116106113a4575b505050811b0160028501556111d6565b01515f1960f88460031b161c191690558c8080611394565b91928b600181928685015181550194019201611361565b600283015f5260205f20601f830160051c810160208410611410575b601f8b0160051c8201811061140557505061118e565b5f81556001016113ef565b50806113ef565b634e487b7160e01b5f52604160045260245ffd5b01519050888061114a565b9250600189015f52805f20905f935b601f1984168510611488576001945083601f19811610611470575b505050811b016001870155611161565b01515f1960f88460031b161c19169055888080611460565b81810151835560209485019460019093019290910190611445565b909150600189015f5260205f20601f840160051c8101602085106114ec575b90849392915b601f830160051c820181106114de575050611134565b5f81558594506001016114c8565b50806114c2565b60405162461bcd60e51b815260206004820152601260248201527143543a2064726177646f776e20352d32302560701b6044820152606490fd5b506107d0811115610fc5565b60405162461bcd60e51b815260206004820152601460248201527343543a207065726620666565206d61782033302560601b6044820152606490fd5b60405162461bcd60e51b815260206004820152601360248201527243543a206d676d7420666565206d617820332560681b6044820152606490fd5b60405162461bcd60e51b815260206004820152601260248201527143543a206d696e207374616b65202431304b60701b6044820152606490fd5b3461028b575f36600319011261028b576020604051610bb88152f35b3461028b575f36600319011261028b5760206040516402540be4008152f35b3461028b57611633366126eb565b9061163c6129cf565b5f818152600360209081526040808320600483528184203385529092529091208054909190841115806118f2575b156118ad5761167883612a92565b600681015491670de0b6b3a764000061169184876128e7565b0494600182018054826116a481836128e7565b6116b0865480926128fa565b8a11156118a4576116c76116cc926116d2946128e7565b6128fa565b88612918565b5f956002850154108061189b575b61180c575b5061171d6116f4838554612918565b8085556117178354916117118661170b81866128e7565b926129c2565b906128fa565b90612918565b905561172e60078401918254612918565b905561173a83866129c2565b61174960038401918254612918565b905554156117c2575b5061177e83337f0000000000000000000000000000000000000000000000000000000000000000612a1a565b60405192835260208301527f1c84cc0f96161bdafea718a9094dd21c21d1fb2f9ca2ebb9bd4e39918efbaace60403393a360015f80516020612c7b83398151915255005b600d016001600160401b03815460101c1690811561023c57611806915f190169ffffffffffffffff000082549160101b169069ffffffffffffffff00001916179055565b83611752565b61271091979550611822906009860154906128e7565b04936101f485028581046101f4148615171561023c576118949161188f61271088930461185b6118528286612918565b916008546129c2565b60085587546001600160a01b03167f0000000000000000000000000000000000000000000000000000000000000000612a1a565b612918565b95876116e5565b508015156116e0565b5050505f6116d2565b60405162461bcd60e51b815260206004820152601760248201527f43543a20696e73756666696369656e74207368617265730000000000000000006044820152606490fd5b5083151561166a565b3461028b575f36600319011261028b5760206040516107d08152f35b3461028b57602036600319011261028b57611969611933612701565b61193b612a07565b600854905f6008557f0000000000000000000000000000000000000000000000000000000000000000612a1a565b005b3461028b57611979366126eb565b906119826129cf565b805f5260036020525f60206119c1604083209460018060a01b0386541633148015611bc5575b6119b1906128aa565b8484526006835260408420612881565b90549060031b1c604460018060a01b0360025416916040519485938492632d783b2b60e21b845260048401523060248401525af1908115611bba575f91611b88575b505f811315611b3f57611a1b600384019182546129c2565b90555b6003820154670de0b6b3a7640000810290808204670de0b6b3a7640000149015171561023c576007830154611a52916128fa565b918260068201556005810191825491600a81015461271003612710811161023c57611a8061271091856128e7565b048510611aac575b50508211611aa4575b60015f80516020612c7b83398151915255005b558080611a91565b600d01805461ff001916610100179055611ac68483612918565b612710810290808204612710149015171561023c576080611b08847fc2a3f29012107530a6c7cc19dbbf3af867bc4885897ceb0ffe41e62c8fbd2107936128fa565b604051908152604060208201526012604082015271111c985dd91bdddb881b1a5b5a5d081a1a5d60721b6060820152a28380611a88565b5f811280611b73575b611b53575b50611a1e565b611b5c906129b2565b611b6b60038401918254612918565b905582611b4d565b50611b7d816129b2565b600384015411611b48565b90506020813d602011611bb2575b81611ba36020938361279c565b8101031261028b575183611a03565b3d9150611b96565b6040513d5f823e3d90fd5b5083546001600160a01b031633146119a8565b3461028b57608036600319011261028b576024356004356044356001600160401b03811161028b57611c0e9036906004016126be565b6064939193356001600160401b03811161028b57611c309036906004016126be565b335f52600a60205260405f2054611fda576101f485111580611fce575b15611f935760075493611c5f85612925565b600755604051926101008401918483106001600160401b0384111761141757611d30926040523385526020850197885260408501908152606085015f815260808601915f8352611ccc60a088019460018652611cbd8d8b3691612933565b9760c08a019889523691612933565b60e088019081525f8a8152600960205260409020975188546001600160a01b039091166001600160a01b0319909116178855995160018801555160028701555160038601555160048501555160058401805460ff191691151560ff16919091179055565b51805160068301916001600160401b03821161141757611d50835461272d565b601f8111611f4e575b50602090601f8311600114611ee7576007949392915f9183611edc575b50508160011b915f199060031b1c19161790555b019251938451936001600160401b03851161141757611da9815461272d565b95601f8711611e97575b602096508690601f8711600114611e26579580915f80516020612c9b83398151915296975f92611e1b575b50508160011b915f199060031b1c19161790555b335f52600a85528360405f2055611e10604051928392338785612978565b0390a1604051908152f35b015190508880611dde565b90601f19871691835f52815f20925f5b818110611e8057509160019391895f80516020612c9b833981519152999a9410611e68575b505050811b019055611df2565b01515f1960f88460031b161c19169055888080611e5b565b92938a600181928786015181550195019301611e36565b815f5260205f20601f870160051c81019760208810611ed2575b601f0160051c01965b878110611ec75750611db3565b5f8155600101611eba565b9097508790611eb1565b015190508980611d76565b90601f19831691845f52815f20925f5b818110611f36575091600193918560079897969410611f1e575b505050811b019055611d8a565b01515f1960f88460031b161c19169055898080611f11565b92936020600181928786015181550195019301611ef7565b835f5260205f20601f840160051c81019160208510611f89575b601f0160051c01905b818110611f7e5750611d59565b5f8155600101611f71565b9091508190611f68565b60405162461bcd60e51b8152602060048201526013602482015272086dee0f27440cccacae640e8dede40d0d2ced606b1b6044820152606490fd5b50611388841115611c4d565b60405162461bcd60e51b815260206004820152601d60248201527f436f70793a20616c7265616479206c656164696e672061207661756c740000006044820152606490fd5b3461028b575f36600319011261028b5760206040516127108152f35b3461028b57602036600319011261028b576004355f52600360205260405f2060405161206681612765565b81546001600160a01b0316815261207f600183016127bd565b6020820152612090600283016127bd565b604082015260038201549081606082015260048301546080820152600583015460a08201526006830154908160c0820152600784015460e082015260088401546101008201526009840154610120820152600a840154610140820152600b840154610160820152600c840154610180820152600d8401549060ff821615156101a0820152610200600e6001600160401b036101c084019460ff8160081c161515865260101c1696876101e08501520154910152670de0b6b3a764000082115f146121ac57670de0b6b3a763ffff1982019382851161023c57612710850294808604612710149015171561023c57670de0b6b3a764000060a09504915b511515926040519485526020850152604084015260608301526080820152f35b60a0935f9161218c565b3461028b57602036600319011261028b576121cf612a07565b6004355f908152600360205260409020600d01805461ff0019169055005b3461028b575f36600319011261028b576020600754604051908152f35b3461028b5760a036600319011261028b576004356024359060443580151580910361028b576084359260643561223e6129cf565b835f52600360205260405f2061225e60018060a01b0382541633146128aa565b600d81015460ff811690816126af575b501561267757610bb8821161263a5760648610158061262e575b156125f05761271091600361229e9201546128e7565b04938415158061255e575b15612520577f00000000000000000000000000000000000000000000000000000000000000009460018060a01b036002541660405163095ea7b360e01b5f52816004528260245260205f604481808c5af19060015f5114821615612511575b6040521561242c575b505f93949550602060018060a01b036002541660a46040518097819363d5332eb560e01b83528860048401528a60248401528660448401528760648401523060848401525af1938415611bba575f946123f8575b50855f52600660205260405f209485549468010000000000000000861015611417576123ba867f2098878f857cfbefac21a14cd770b3aade71c6cad4f6381cee56af387c2bf46c986001608099018155612881565b819291549060031b91821b915f19901b1916179055604051938452602084015260408301526060820152a260015f80516020612c7b83398151915255005b9093506020813d602011612424575b816124146020938361279c565b8101031261028b57519286612365565b3d9150612407565b60405163095ea7b360e01b5f52816004525f60245260205f604481808c5af19060015f51148216156124f9575b604052156124db576040519063095ea7b360e01b5f526004528160245260205f604481808b5af19060015f51148216156124ba575b6040521561249c5785612311565b635274afe760e01b5f9081526001600160a01b038716600452602490fd5b9060018115166124d257873b15153d1516169061248e565b503d5f823e3d90fd5b635274afe760e01b5f9081526001600160a01b038816600452602490fd5b9060018115166124d257883b15153d15161690612459565b90883b15153d15161690612308565b60405162461bcd60e51b815260206004820152601660248201527543543a20696e73756666696369656e742066756e647360501b6044820152606490fd5b506040516370a0823160e01b81523060048201526020816024817f00000000000000000000000000000000000000000000000000000000000000006001600160a01b03165afa8015611bba5786915f916125bb575b5010156122a9565b9150506020813d6020116125e8575b816125d76020938361279c565b8101031261028b57859051876125b3565b3d91506125ca565b60405162461bcd60e51b815260206004820152601660248201527543543a206c657665726167652031c3972d313030c39760501b6044820152606490fd5b50612710861115612288565b60405162461bcd60e51b815260206004820152601560248201527443543a206d6178203330252070657220747261646560581b6044820152606490fd5b60405162461bcd60e51b815260206004820152601060248201526f10d50e881d985d5b1d081c185d5cd95960821b6044820152606490fd5b60ff915060081c16158761226e565b9181601f8401121561028b578235916001600160401b03831161028b576020838186019501011161028b57565b604090600319011261028b576004359060243590565b600435906001600160a01b038216820361028b57565b602435906001600160a01b038216820361028b57565b90600182811c9216801561275b575b602083101461274757565b634e487b7160e01b5f52602260045260245ffd5b91607f169161273c565b61022081019081106001600160401b0382111761141757604052565b60a081019081106001600160401b0382111761141757604052565b90601f801991011681019081106001600160401b0382111761141757604052565b9060405191825f8254926127d08461272d565b808452936001811690811561283b57506001146127f7575b506127f59250038361279c565b565b90505f9291925260205f20905f915b81831061281f5750509060206127f5928201015f6127e8565b6020919350806001915483858901015201910190918492612806565b9050602092506127f594915060ff191682840152151560051b8201015f6127e8565b805180835260209291819084018484015e5f828201840152601f01601f1916010190565b8054821015612896575f5260205f2001905f90565b634e487b7160e01b5f52603260045260245ffd5b156128b157565b60405162461bcd60e51b815260206004820152600e60248201526d21aa1d103737ba103632b0b232b960911b6044820152606490fd5b8181029291811591840414171561023c57565b8115612904570490565b634e487b7160e01b5f52601260045260245ffd5b9190820391821161023c57565b5f19811461023c5760010190565b9291926001600160401b038211611417576040519161295c601f8201601f19166020018461279c565b82948184528183011161028b578281602093845f960137010152565b92849260809592855260018060a01b0316602085015260606040850152816060850152848401375f828201840152601f01601f1916010190565b600160ff1b811461023c575f0390565b9190820180921161023c57565b60025f80516020612c7b83398151915254146129f85760025f80516020612c7b83398151915255565b633ee5aeb560e01b5f5260045ffd5b5f546001600160a01b03163303610e8257565b916040519163a9059cbb60e01b5f5260018060a01b031660045260245260205f60448180865af19060015f5114821615612a7a575b60405215612a5a5750565b635274afe760e01b5f9081526001600160a01b0391909116600452602490fd5b9060018115166124d257823b15153d15161690612a4f565b805f52600360205260405f20600c810190612aae825442612918565b6201518081108015612c05575b612bff57600382019164496cebb800612ae3845493612ade6008850154866128e7565b6128e7565b049182159081159081612bf5575b50612aff575b505050505050565b6101f48302908382046101f414171561023c57612710612b3b910492612b31612b288583612918565b946008546129c2565b6008558454612918565b809355670de0b6b3a7640000830292808404670de0b6b3a7640000149015171561023c577fabcf0fb98a979bfe16de458f8e0cc32ed2d00cabdad1066dc4945496ffae389f93612b926040946007840154906128fa565b60068301558154612bce9084906001600160a01b03167f0000000000000000000000000000000000000000000000000000000000000000612a1a565b4290555482516001600160a01b0390911681526020810191909152a25f8080808080612af7565b905083105f612af1565b50505050565b50600882015415612abb565b6040516323b872dd60e01b5f9081526001600160a01b039384166004529290931660245260449390935260209060648180865af19060015f5114821615612c62575b6040525f60605215612a5a5750565b9060018115166124d257823b15153d15161690612c5356fe9b779b17422d0df92223018b32b4d1fa46e071723d6817e2486d003becc55f0059df918908addf38d56258368d62fb163ff4b7e5538048ca69f564833491dc27a26469706673582212202474c8d16262ec3d4a12211aeeea663d96053aae368c5e5254bdc9059396ff2464736f6c634300081a0033",
  "linkReferences": {},
  "deployedLinkReferences": {}
}