{
  "_format": "hh-sol-artifact-1",
  "contractName": "WikiInstitutionalPool",
  "sourceName": "src/WikiInstitutionalPool.sol",
  "abi": [
    {
      "inputs": [
        {
          "internalType": "address",
          "name": "_usdc",
          "type": "address"
        },
        {
          "internalType": "address",
          "name": "_treasury",
          "type": "address"
        },
        {
          "internalType": "address",
          "name": "_owner",
          "type": "address"
        }
      ],
      "stateMutability": "nonpayable",
      "type": "constructor"
    },
    {
      "inputs": [],
      "name": "EnforcedPause",
      "type": "error"
    },
    {
      "inputs": [],
      "name": "ExpectedPause",
      "type": "error"
    },
    {
      "inputs": [
        {
          "internalType": "address",
          "name": "owner",
          "type": "address"
        }
      ],
      "name": "OwnableInvalidOwner",
      "type": "error"
    },
    {
      "inputs": [
        {
          "internalType": "address",
          "name": "account",
          "type": "address"
        }
      ],
      "name": "OwnableUnauthorizedAccount",
      "type": "error"
    },
    {
      "inputs": [],
      "name": "ReentrancyGuardReentrantCall",
      "type": "error"
    },
    {
      "inputs": [
        {
          "internalType": "address",
          "name": "token",
          "type": "address"
        }
      ],
      "name": "SafeERC20FailedOperation",
      "type": "error"
    },
    {
      "anonymous": false,
      "inputs": [
        {
          "indexed": true,
          "internalType": "address",
          "name": "wallet",
          "type": "address"
        },
        {
          "indexed": false,
          "internalType": "string",
          "name": "name",
          "type": "string"
        },
        {
          "indexed": false,
          "internalType": "enum WikiInstitutionalPool.KYBTier",
          "name": "tier",
          "type": "uint8"
        }
      ],
      "name": "InstitutionRegistered",
      "type": "event"
    },
    {
      "anonymous": false,
      "inputs": [
        {
          "indexed": true,
          "internalType": "address",
          "name": "institution",
          "type": "address"
        },
        {
          "indexed": false,
          "internalType": "uint256",
          "name": "poolId",
          "type": "uint256"
        },
        {
          "indexed": false,
          "internalType": "uint256",
          "name": "amtIn",
          "type": "uint256"
        },
        {
          "indexed": false,
          "internalType": "uint256",
          "name": "amtOut",
          "type": "uint256"
        },
        {
          "indexed": false,
          "internalType": "uint256",
          "name": "fee",
          "type": "uint256"
        }
      ],
      "name": "InstitutionalSwap",
      "type": "event"
    },
    {
      "anonymous": false,
      "inputs": [
        {
          "indexed": true,
          "internalType": "address",
          "name": "wallet",
          "type": "address"
        },
        {
          "indexed": false,
          "internalType": "enum WikiInstitutionalPool.KYBTier",
          "name": "oldTier",
          "type": "uint8"
        },
        {
          "indexed": false,
          "internalType": "enum WikiInstitutionalPool.KYBTier",
          "name": "newTier",
          "type": "uint8"
        }
      ],
      "name": "KYBUpdated",
      "type": "event"
    },
    {
      "anonymous": false,
      "inputs": [
        {
          "indexed": true,
          "internalType": "address",
          "name": "institution",
          "type": "address"
        },
        {
          "indexed": false,
          "internalType": "uint256",
          "name": "poolId",
          "type": "uint256"
        },
        {
          "indexed": false,
          "internalType": "uint256",
          "name": "amtA",
          "type": "uint256"
        },
        {
          "indexed": false,
          "internalType": "uint256",
          "name": "amtB",
          "type": "uint256"
        },
        {
          "indexed": false,
          "internalType": "uint256",
          "name": "lpMinted",
          "type": "uint256"
        }
      ],
      "name": "LiquidityAdded",
      "type": "event"
    },
    {
      "anonymous": false,
      "inputs": [
        {
          "indexed": true,
          "internalType": "address",
          "name": "previousOwner",
          "type": "address"
        },
        {
          "indexed": true,
          "internalType": "address",
          "name": "newOwner",
          "type": "address"
        }
      ],
      "name": "OwnershipTransferStarted",
      "type": "event"
    },
    {
      "anonymous": false,
      "inputs": [
        {
          "indexed": true,
          "internalType": "address",
          "name": "previousOwner",
          "type": "address"
        },
        {
          "indexed": true,
          "internalType": "address",
          "name": "newOwner",
          "type": "address"
        }
      ],
      "name": "OwnershipTransferred",
      "type": "event"
    },
    {
      "anonymous": false,
      "inputs": [
        {
          "indexed": false,
          "internalType": "address",
          "name": "account",
          "type": "address"
        }
      ],
      "name": "Paused",
      "type": "event"
    },
    {
      "anonymous": false,
      "inputs": [
        {
          "indexed": true,
          "internalType": "uint256",
          "name": "poolId",
          "type": "uint256"
        },
        {
          "indexed": false,
          "internalType": "address",
          "name": "tokenA",
          "type": "address"
        },
        {
          "indexed": false,
          "internalType": "address",
          "name": "tokenB",
          "type": "address"
        }
      ],
      "name": "PoolCreated",
      "type": "event"
    },
    {
      "anonymous": false,
      "inputs": [
        {
          "indexed": true,
          "internalType": "address",
          "name": "institution",
          "type": "address"
        },
        {
          "indexed": false,
          "internalType": "enum WikiInstitutionalPool.SubscriptionTier",
          "name": "tier",
          "type": "uint8"
        },
        {
          "indexed": false,
          "internalType": "uint256",
          "name": "amount",
          "type": "uint256"
        },
        {
          "indexed": false,
          "internalType": "uint256",
          "name": "expiry",
          "type": "uint256"
        }
      ],
      "name": "SubscriptionPaid",
      "type": "event"
    },
    {
      "anonymous": false,
      "inputs": [
        {
          "indexed": false,
          "internalType": "address",
          "name": "account",
          "type": "address"
        }
      ],
      "name": "Unpaused",
      "type": "event"
    },
    {
      "inputs": [],
      "name": "BPS",
      "outputs": [
        {
          "internalType": "uint256",
          "name": "",
          "type": "uint256"
        }
      ],
      "stateMutability": "view",
      "type": "function"
    },
    {
      "inputs": [],
      "name": "MIN_LP_DEPOSIT_USD",
      "outputs": [
        {
          "internalType": "uint256",
          "name": "",
          "type": "uint256"
        }
      ],
      "stateMutability": "view",
      "type": "function"
    },
    {
      "inputs": [],
      "name": "SUBSCRIPTION_BASIC",
      "outputs": [
        {
          "internalType": "uint256",
          "name": "",
          "type": "uint256"
        }
      ],
      "stateMutability": "view",
      "type": "function"
    },
    {
      "inputs": [],
      "name": "SUBSCRIPTION_ENTERPRISE",
      "outputs": [
        {
          "internalType": "uint256",
          "name": "",
          "type": "uint256"
        }
      ],
      "stateMutability": "view",
      "type": "function"
    },
    {
      "inputs": [],
      "name": "SUBSCRIPTION_PRO",
      "outputs": [
        {
          "internalType": "uint256",
          "name": "",
          "type": "uint256"
        }
      ],
      "stateMutability": "view",
      "type": "function"
    },
    {
      "inputs": [],
      "name": "USDC",
      "outputs": [
        {
          "internalType": "contract IERC20",
          "name": "",
          "type": "address"
        }
      ],
      "stateMutability": "view",
      "type": "function"
    },
    {
      "inputs": [],
      "name": "acceptOwnership",
      "outputs": [],
      "stateMutability": "nonpayable",
      "type": "function"
    },
    {
      "inputs": [
        {
          "internalType": "uint256",
          "name": "poolId",
          "type": "uint256"
        },
        {
          "internalType": "uint256",
          "name": "amtA",
          "type": "uint256"
        },
        {
          "internalType": "uint256",
          "name": "amtB",
          "type": "uint256"
        },
        {
          "internalType": "uint256",
          "name": "minLP",
          "type": "uint256"
        }
      ],
      "name": "addLiquidity",
      "outputs": [
        {
          "internalType": "uint256",
          "name": "lpMinted",
          "type": "uint256"
        }
      ],
      "stateMutability": "nonpayable",
      "type": "function"
    },
    {
      "inputs": [
        {
          "internalType": "address",
          "name": "institution",
          "type": "address"
        },
        {
          "internalType": "enum WikiInstitutionalPool.KYBTier",
          "name": "tier",
          "type": "uint8"
        }
      ],
      "name": "approveKYB",
      "outputs": [],
      "stateMutability": "nonpayable",
      "type": "function"
    },
    {
      "inputs": [
        {
          "internalType": "address",
          "name": "tokenA",
          "type": "address"
        },
        {
          "internalType": "address",
          "name": "tokenB",
          "type": "address"
        },
        {
          "internalType": "uint256",
          "name": "swapFeeBps",
          "type": "uint256"
        },
        {
          "internalType": "uint256",
          "name": "lpFeeBps",
          "type": "uint256"
        },
        {
          "internalType": "uint256",
          "name": "minTradeSize",
          "type": "uint256"
        }
      ],
      "name": "createPool",
      "outputs": [
        {
          "internalType": "uint256",
          "name": "poolId",
          "type": "uint256"
        }
      ],
      "stateMutability": "nonpayable",
      "type": "function"
    },
    {
      "inputs": [
        {
          "internalType": "uint256",
          "name": "amount",
          "type": "uint256"
        }
      ],
      "name": "deployIdle",
      "outputs": [],
      "stateMutability": "nonpayable",
      "type": "function"
    },
    {
      "inputs": [
        {
          "internalType": "address",
          "name": "w",
          "type": "address"
        }
      ],
      "name": "getInstitution",
      "outputs": [
        {
          "components": [
            {
              "internalType": "string",
              "name": "name",
              "type": "string"
            },
            {
              "internalType": "string",
              "name": "jurisdiction",
              "type": "string"
            },
            {
              "internalType": "address",
              "name": "wallet",
              "type": "address"
            },
            {
              "internalType": "enum WikiInstitutionalPool.KYBTier",
              "name": "kyb",
              "type": "uint8"
            },
            {
              "internalType": "enum WikiInstitutionalPool.SubscriptionTier",
              "name": "sub",
              "type": "uint8"
            },
            {
              "internalType": "uint256",
              "name": "subExpiry",
              "type": "uint256"
            },
            {
              "internalType": "uint256",
              "name": "minDeposit",
              "type": "uint256"
            },
            {
              "internalType": "uint256",
              "name": "totalDeposited",
              "type": "uint256"
            },
            {
              "internalType": "uint256",
              "name": "totalVolume",
              "type": "uint256"
            },
            {
              "internalType": "bool",
              "name": "isLP",
              "type": "bool"
            },
            {
              "internalType": "bool",
              "name": "active",
              "type": "bool"
            }
          ],
          "internalType": "struct WikiInstitutionalPool.Institution",
          "name": "",
          "type": "tuple"
        }
      ],
      "stateMutability": "view",
      "type": "function"
    },
    {
      "inputs": [
        {
          "internalType": "uint256",
          "name": "id",
          "type": "uint256"
        }
      ],
      "name": "getPool",
      "outputs": [
        {
          "components": [
            {
              "internalType": "address",
              "name": "tokenA",
              "type": "address"
            },
            {
              "internalType": "address",
              "name": "tokenB",
              "type": "address"
            },
            {
              "internalType": "uint256",
              "name": "swapFeeBps",
              "type": "uint256"
            },
            {
              "internalType": "uint256",
              "name": "lpFeeBps",
              "type": "uint256"
            },
            {
              "internalType": "uint256",
              "name": "minTradeSize",
              "type": "uint256"
            },
            {
              "internalType": "bool",
              "name": "active",
              "type": "bool"
            }
          ],
          "internalType": "struct WikiInstitutionalPool.PoolConfig",
          "name": "",
          "type": "tuple"
        },
        {
          "components": [
            {
              "internalType": "uint256",
              "name": "reserveA",
              "type": "uint256"
            },
            {
              "internalType": "uint256",
              "name": "reserveB",
              "type": "uint256"
            },
            {
              "internalType": "uint256",
              "name": "totalLP",
              "type": "uint256"
            },
            {
              "internalType": "uint256",
              "name": "totalVolumeUSD",
              "type": "uint256"
            },
            {
              "internalType": "uint256",
              "name": "totalFeesUSD",
              "type": "uint256"
            }
          ],
          "internalType": "struct WikiInstitutionalPool.PoolState",
          "name": "",
          "type": "tuple"
        }
      ],
      "stateMutability": "view",
      "type": "function"
    },
    {
      "inputs": [],
      "name": "idleYieldRouter",
      "outputs": [
        {
          "internalType": "contract IIdleYieldRouter",
          "name": "",
          "type": "address"
        }
      ],
      "stateMutability": "view",
      "type": "function"
    },
    {
      "inputs": [
        {
          "internalType": "uint256",
          "name": "",
          "type": "uint256"
        }
      ],
      "name": "institutionList",
      "outputs": [
        {
          "internalType": "address",
          "name": "",
          "type": "address"
        }
      ],
      "stateMutability": "view",
      "type": "function"
    },
    {
      "inputs": [
        {
          "internalType": "address",
          "name": "",
          "type": "address"
        }
      ],
      "name": "institutions",
      "outputs": [
        {
          "internalType": "string",
          "name": "name",
          "type": "string"
        },
        {
          "internalType": "string",
          "name": "jurisdiction",
          "type": "string"
        },
        {
          "internalType": "address",
          "name": "wallet",
          "type": "address"
        },
        {
          "internalType": "enum WikiInstitutionalPool.KYBTier",
          "name": "kyb",
          "type": "uint8"
        },
        {
          "internalType": "enum WikiInstitutionalPool.SubscriptionTier",
          "name": "sub",
          "type": "uint8"
        },
        {
          "internalType": "uint256",
          "name": "subExpiry",
          "type": "uint256"
        },
        {
          "internalType": "uint256",
          "name": "minDeposit",
          "type": "uint256"
        },
        {
          "internalType": "uint256",
          "name": "totalDeposited",
          "type": "uint256"
        },
        {
          "internalType": "uint256",
          "name": "totalVolume",
          "type": "uint256"
        },
        {
          "internalType": "bool",
          "name": "isLP",
          "type": "bool"
        },
        {
          "internalType": "bool",
          "name": "active",
          "type": "bool"
        }
      ],
      "stateMutability": "view",
      "type": "function"
    },
    {
      "inputs": [
        {
          "internalType": "address",
          "name": "w",
          "type": "address"
        }
      ],
      "name": "isEligible",
      "outputs": [
        {
          "internalType": "bool",
          "name": "",
          "type": "bool"
        }
      ],
      "stateMutability": "view",
      "type": "function"
    },
    {
      "inputs": [
        {
          "internalType": "uint256",
          "name": "",
          "type": "uint256"
        },
        {
          "internalType": "address",
          "name": "",
          "type": "address"
        }
      ],
      "name": "lpBalances",
      "outputs": [
        {
          "internalType": "uint256",
          "name": "",
          "type": "uint256"
        }
      ],
      "stateMutability": "view",
      "type": "function"
    },
    {
      "inputs": [],
      "name": "owner",
      "outputs": [
        {
          "internalType": "address",
          "name": "",
          "type": "address"
        }
      ],
      "stateMutability": "view",
      "type": "function"
    },
    {
      "inputs": [],
      "name": "pause",
      "outputs": [],
      "stateMutability": "nonpayable",
      "type": "function"
    },
    {
      "inputs": [],
      "name": "paused",
      "outputs": [
        {
          "internalType": "bool",
          "name": "",
          "type": "bool"
        }
      ],
      "stateMutability": "view",
      "type": "function"
    },
    {
      "inputs": [],
      "name": "pendingOwner",
      "outputs": [
        {
          "internalType": "address",
          "name": "",
          "type": "address"
        }
      ],
      "stateMutability": "view",
      "type": "function"
    },
    {
      "inputs": [
        {
          "internalType": "uint256",
          "name": "",
          "type": "uint256"
        }
      ],
      "name": "poolConfigs",
      "outputs": [
        {
          "internalType": "address",
          "name": "tokenA",
          "type": "address"
        },
        {
          "internalType": "address",
          "name": "tokenB",
          "type": "address"
        },
        {
          "internalType": "uint256",
          "name": "swapFeeBps",
          "type": "uint256"
        },
        {
          "internalType": "uint256",
          "name": "lpFeeBps",
          "type": "uint256"
        },
        {
          "internalType": "uint256",
          "name": "minTradeSize",
          "type": "uint256"
        },
        {
          "internalType": "bool",
          "name": "active",
          "type": "bool"
        }
      ],
      "stateMutability": "view",
      "type": "function"
    },
    {
      "inputs": [],
      "name": "poolCount",
      "outputs": [
        {
          "internalType": "uint256",
          "name": "",
          "type": "uint256"
        }
      ],
      "stateMutability": "view",
      "type": "function"
    },
    {
      "inputs": [
        {
          "internalType": "uint256",
          "name": "",
          "type": "uint256"
        }
      ],
      "name": "poolStates",
      "outputs": [
        {
          "internalType": "uint256",
          "name": "reserveA",
          "type": "uint256"
        },
        {
          "internalType": "uint256",
          "name": "reserveB",
          "type": "uint256"
        },
        {
          "internalType": "uint256",
          "name": "totalLP",
          "type": "uint256"
        },
        {
          "internalType": "uint256",
          "name": "totalVolumeUSD",
          "type": "uint256"
        },
        {
          "internalType": "uint256",
          "name": "totalFeesUSD",
          "type": "uint256"
        }
      ],
      "stateMutability": "view",
      "type": "function"
    },
    {
      "inputs": [
        {
          "internalType": "uint256",
          "name": "amount",
          "type": "uint256"
        },
        {
          "internalType": "string",
          "name": "reason",
          "type": "string"
        }
      ],
      "name": "recallIdle",
      "outputs": [],
      "stateMutability": "nonpayable",
      "type": "function"
    },
    {
      "inputs": [
        {
          "internalType": "string",
          "name": "name",
          "type": "string"
        },
        {
          "internalType": "string",
          "name": "jurisdiction",
          "type": "string"
        }
      ],
      "name": "register",
      "outputs": [],
      "stateMutability": "nonpayable",
      "type": "function"
    },
    {
      "inputs": [
        {
          "internalType": "uint256",
          "name": "poolId",
          "type": "uint256"
        },
        {
          "internalType": "uint256",
          "name": "lpAmount",
          "type": "uint256"
        }
      ],
      "name": "removeLiquidity",
      "outputs": [],
      "stateMutability": "nonpayable",
      "type": "function"
    },
    {
      "inputs": [],
      "name": "renounceOwnership",
      "outputs": [],
      "stateMutability": "nonpayable",
      "type": "function"
    },
    {
      "inputs": [
        {
          "internalType": "address",
          "name": "router",
          "type": "address"
        }
      ],
      "name": "setIdleYieldRouter",
      "outputs": [],
      "stateMutability": "nonpayable",
      "type": "function"
    },
    {
      "inputs": [
        {
          "internalType": "address",
          "name": "_tl",
          "type": "address"
        }
      ],
      "name": "setTimelock",
      "outputs": [],
      "stateMutability": "nonpayable",
      "type": "function"
    },
    {
      "inputs": [
        {
          "internalType": "address",
          "name": "t",
          "type": "address"
        }
      ],
      "name": "setTreasury",
      "outputs": [],
      "stateMutability": "nonpayable",
      "type": "function"
    },
    {
      "inputs": [
        {
          "internalType": "enum WikiInstitutionalPool.SubscriptionTier",
          "name": "tier",
          "type": "uint8"
        }
      ],
      "name": "subscribe",
      "outputs": [],
      "stateMutability": "nonpayable",
      "type": "function"
    },
    {
      "inputs": [
        {
          "internalType": "uint256",
          "name": "poolId",
          "type": "uint256"
        },
        {
          "internalType": "address",
          "name": "tokenIn",
          "type": "address"
        },
        {
          "internalType": "uint256",
          "name": "amountIn",
          "type": "uint256"
        },
        {
          "internalType": "uint256",
          "name": "minOut",
          "type": "uint256"
        }
      ],
      "name": "swap",
      "outputs": [
        {
          "internalType": "uint256",
          "name": "amountOut",
          "type": "uint256"
        }
      ],
      "stateMutability": "nonpayable",
      "type": "function"
    },
    {
      "inputs": [],
      "name": "timelock",
      "outputs": [
        {
          "internalType": "address",
          "name": "",
          "type": "address"
        }
      ],
      "stateMutability": "view",
      "type": "function"
    },
    {
      "inputs": [],
      "name": "totalSubscriptionRevenue",
      "outputs": [
        {
          "internalType": "uint256",
          "name": "",
          "type": "uint256"
        }
      ],
      "stateMutability": "view",
      "type": "function"
    },
    {
      "inputs": [],
      "name": "totalSwapRevenue",
      "outputs": [
        {
          "internalType": "uint256",
          "name": "",
          "type": "uint256"
        }
      ],
      "stateMutability": "view",
      "type": "function"
    },
    {
      "inputs": [
        {
          "internalType": "address",
          "name": "newOwner",
          "type": "address"
        }
      ],
      "name": "transferOwnership",
      "outputs": [],
      "stateMutability": "nonpayable",
      "type": "function"
    },
    {
      "inputs": [],
      "name": "treasury",
      "outputs": [
        {
          "internalType": "address",
          "name": "",
          "type": "address"
        }
      ],
      "stateMutability": "view",
      "type": "function"
    },
    {
      "inputs": [],
      "name": "unpause",
      "outputs": [],
      "stateMutability": "nonpayable",
      "type": "function"
    }
  ],
  "bytecode": "0x60a0346101d157601f6127aa38819003918201601f19168301916001600160401b038311848410176101d5578084926060946040528339810103126101d157610047816101e9565b90610054602082016101e9565b906001600160a01b039061006a906040016101e9565b169182156101be57600180546001600160a01b03199081169091555f80549182168517815560405194916001600160a01b0316907f8be0079c531659141344cd1fd0a4f28419497f9722a3daafe3b4186f6b6457e09080a360017f9b779b17422d0df92223018b32b4d1fa46e071723d6817e2486d003becc55f00556001600160a01b031691821561018957506001600160a01b031690811561014457608052600a80546001600160a01b0319169190911790556040516125ac90816101fe823960805181818161054b0152818161105d01526117770152f35b60405162461bcd60e51b815260206004820152601460248201527f57696b693a207a65726f205f74726561737572790000000000000000000000006044820152606490fd5b62461bcd60e51b815260206004820152601060248201526f57696b693a207a65726f205f7573646360801b6044820152606490fd5b631e4fbdf760e01b5f525f60045260245ffd5b5f80fd5b634e487b7160e01b5f52604160045260245ffd5b51906001600160a01b03821682036101d15756fe6080806040526004361015610012575f80fd5b5f905f3560e01c908163068bcd8d14611e9c575080630f5ba21714611e26578063249d39e914611e0a5780633c28592914611dc65780633f4ba83a14611d585780633ffbd47f146118c657806349c7e639146116f95780634ca2a9e3146116da5780634d6216c3146116845780634ee50b161461166757806359e141a9146116485780635c975abb1461162357806361d027b3146115fb57806366e305fd1461157f578063711992361461139c578063715018a61461133957806379ba5097146112b45780637be613ca146112715780637e3fef02146112495780638456cb59146111e857806385ac165a1461108c57806389a30271146110485780638b6d0d7c14610fa85780638da5cb5b14610f815780639d7de6b314610da5578063ad8e2dce14610d86578063aebf3e4114610ae6578063b2d9767f146109f1578063b33daea914610660578063b58e4316146104e3578063b61ac768146104c3578063bdacb30314610441578063d33219b414610418578063e30c3978146103ef578063e6bc01a214610305578063ebc26ac8146102c1578063f0f4426014610281578063f2fde38b14610214578063f525cb68146101f65763fa36e369146101d6575f80fd5b346101f357806003193601126101f3576020600c54604051908152f35b80fd5b50346101f357806003193601126101f3576020600854604051908152f35b50346101f35760203660031901126101f35761022e612038565b610236612403565b600180546001600160a01b0319166001600160a01b0392831690811790915582549091167f38d16b8cac22d99fc7c124b9cd0de2d3fa1faef420bfe791d8c362d765e227008380a380f35b50346101f35760203660031901126101f35761029b612038565b6102a3612403565b60018060a01b03166001600160601b0360a01b600a541617600a5580f35b50346101f35760203660031901126101f357600435906007548210156101f35760206102ec83612209565b905460405160039290921b1c6001600160a01b03168152f35b50346101f35760403660031901126101f3578060243567ffffffffffffffff81116103ec5761033890369060040161204e565b82546001600160a01b0316331480156103d8575b610355906123c6565b6009546001600160a01b0316918261036c57505050f35b823b156103d3576103a6928492836040518096819582946338d44ad560e01b845260043560048501526040602485015260448401916122c3565b03925af180156103c8576103b75750f35b816103c191612147565b6101f35780f35b6040513d84823e3d90fd5b505050fd5b506009546001600160a01b0316331461034c565b50fd5b50346101f357806003193601126101f3576001546040516001600160a01b039091168152602090f35b50346101f357806003193601126101f3576002546040516001600160a01b039091168152602090f35b50346101f35760203660031901126101f35761045b612038565b610463612403565b6001600160a01b03168015610488576001600160601b0360a01b600254161760025580f35b60405162461bcd60e51b815260206004820152601360248201527257696b693a207a65726f2074696d656c6f636b60681b6044820152606490fd5b50346101f357806003193601126101f357602060405164037e11d6008152f35b50346105db5760203660031901126105db5760043560018060a01b035f54163314801561064c575b610514906123c6565b6009546001600160a01b031680156106165760405163095ea7b360e01b81526004810191909152602481018290526020816044815f7f00000000000000000000000000000000000000000000000000000000000000006001600160a01b03165af180156105d0576105df575b506009546001600160a01b031690813b156105db575f91602483926040519485938492630f6baa0f60e21b845260048401525af180156105d0576105c2575080f35b6105ce91505f90612147565b005b6040513d5f823e3d90fd5b5f80fd5b6020813d60201161060e575b816105f860209383612147565b810103126105db57518015158114610580575f80fd5b3d91506105eb565b60405162461bcd60e51b815260206004820152600e60248201526d149bdd5d195c881b9bdd081cd95d60921b6044820152606490fd5b506009546001600160a01b0316331461050b565b346105db5760803660031901126105db5760043561067c612022565b60443591610688612416565b335f52600360205260ff600260405f20015460a01c1660058110156109dd5760021480156109b5575b6106ba906122f0565b335f5260036020526106d5600360405f20015442111561233c565b6106dd612538565b805f52600460205260405f2060ff60058201541615610970576004810154841061092b575f828152600560205260409020815490946001600160a01b039485169190941681811494908515610926575060018301546001600160a01b03165b851561091c5786545b86156109115761078b6001890154915b61078561271061076960028a015488612388565b049361077f61077886896123b9565b9182612388565b926122e3565b9061239b565b9660643588106108d75788610849899661084161082b61271061082460209f7f350275ff0a1eaa29fa1fe6f0adbd2897ecf884e0c0a9a4626318259ba4032c389d61081c8e61089a9d8f61080c90600160049f976003985f146108b6576107f38382546122e3565b8155016108018582546123b9565b90555b30338d61244e565b33906001600160a01b03166124e0565b01548b612388565b04876123b9565b600a54909283916001600160a01b0316906124e0565b600c546122e3565b600c55016108588282546122e3565b9055335f5260038852600660405f20016108738482546122e3565b90556040519384933397859094939260609260808301968352602083015260408201520152565b0390a260015f8051602061255783398151915255604051908152f35b016108c28282546122e3565b90558d6108d08582546123b9565b9055610804565b60405162461bcd60e51b8152602060048201526012602482015271496e7374506f6f6c3a20736c69707061676560701b6044820152606490fd5b61078b885491610755565b6001870154610745565b61073c565b60405162461bcd60e51b815260206004820152601960248201527f496e7374506f6f6c3a2062656c6f77206d696e207472616465000000000000006044820152606490fd5b60405162461bcd60e51b815260206004820152601760248201527f496e7374506f6f6c3a20706f6f6c20696e6163746976650000000000000000006044820152606490fd5b50335f52600360205260ff600260405f20015460a01c1660058110156109dd576003146106b1565b634e487b7160e01b5f52602160045260245ffd5b346105db5760203660031901126105db576001600160a01b03610a12612038565b165f526003602052610a7660405f20610a2a81612169565b9060ff610a3960018301612169565b60028301549260038101546004820154600583015491610ab6610a8460076006870154960154966040519b8c9b6101608d526101608d019061207c565b908b820360208d015261207c565b6001600160a01b03891660408b015297610aa760608b0160a083901c8a166120a0565b8760808b019160a81c166120ad565b60a088015260c087015260e0860152610100850152818116151561012085015260081c1615156101408301520390f35b346105db5760803660031901126105db57602435604435600435610b08612416565b335f52600360205260ff600260405f20015460a01c1660058110156109dd576002148015610d5e575b610b3a906122f0565b335f526003602052610b55600360405f20015442111561233c565b64174876e800610b6583856122e3565b10610d1957805f52600460205260405f20815f526005602052610bb48360405f2092610b9e8760018060a01b038354163090339061244e565b60010154309033906001600160a01b031661244e565b600281019283549485155f14610ced57610bce82826122e3565b945b6064358610610cb057610c2486602098600187610c0f877f08d7621a09a86934f387f650007fa17f2413759ca5f2ae0681161b371583a5f59a546122e3565b815501610c1d8782546122e3565b90556122e3565b90555f848152600687526040808220338352885290208054610c479087906122e3565b9055610c5382826122e3565b335f5260038752610c6c600560405f20019182546122e3565b9055335f5260038652600760405f2001600160ff1982541617905561089a856040519384933397859094939260609260808301968352602083015260408201520152565b60405162461bcd60e51b8152602060048201526015602482015274496e7374506f6f6c3a204c5020736c69707061676560581b6044820152606490fd5b610d13610d0387610cfe85856122e3565b612388565b61078585546001870154906122e3565b94610bd0565b60405162461bcd60e51b815260206004820152601b60248201527f496e7374506f6f6c3a2062656c6f77206d696e206465706f73697400000000006044820152606490fd5b50335f52600360205260ff600260405f20015460a01c1660058110156109dd57600314610b31565b346105db575f3660031901126105db576020604051640ba43b74008152f35b346105db5760403660031901126105db57602435600435610dc4612416565b335f52600360205260ff600260405f20015460a01c1660058110156109dd576002148015610f59575b610df6906122f0565b335f526003602052610e11600360405f20015442111561233c565b5f81815260056020908152604080832060068352818420338552909252909120548311610f1457815f52600460205260405f2092815492610e528483612388565b60028401908382549182610e659161239b565b9560018101908782549185610e7a8487612388565b90610e849161239b565b9a8b92610e90916123b9565b9055610e9b916123b9565b9055610ea6916123b9565b90555f908152600660209081526040808320338452909152902080549091610ecd916123b9565b90558254610ee6919033906001600160a01b03166124e0565b600190910154610f01919033906001600160a01b03166124e0565b60015f8051602061255783398151915255005b60405162461bcd60e51b815260206004820152601960248201527f496e7374506f6f6c3a20696e73756666696369656e74204c50000000000000006044820152606490fd5b50335f52600360205260ff600260405f20015460a01c1660058110156109dd57600314610ded565b346105db575f3660031901126105db575f546040516001600160a01b039091168152602090f35b346105db5760403660031901126105db57610fc1612038565b6024359060058210156105db5760407fdaa94b3a23bbf8f849464cfd47241d54f45aaa6aadf9eebab33d8251fd24ce4591610ffa612403565b6001600160a01b03165f81815260036020528290206002018054919460a09290921c60ff16916110459161102f90829061227b565b61103b845180946120a0565b60208301906120a0565ba2005b346105db575f3660031901126105db576040517f00000000000000000000000000000000000000000000000000000000000000006001600160a01b03168152602090f35b346105db5760a03660031901126105db576110a5612038565b6110ad612022565b906110b6612403565b600854915f1983146111d4577f1a7a1d16c3ec9167827a7be3534be26288720a0bdd3de56d290f415db3d3e0a66040600160209501938493846008556111c2835192611101846120f2565b60018060a01b03169283815260058982019360018060a01b03169384815286830160443581526060840160643581526080850191608435835260a0860193600185528c5f5260048f528a5f209660018060a01b039060018060a01b03905116166001600160601b0360a01b88541617875560018060a01b03905116600187019060018060a01b03166001600160601b0360a01b82541617905551600286015551600385015551600484015551151591019060ff801983541691151516179055565b825191825286820152a2604051908152f35b634e487b7160e01b5f52601160045260245ffd5b346105db575f3660031901126105db57611200612403565b611208612538565b6001805460ff60a01b1916600160a01b1790556040513381527f62e78cea01bee320cd4e420270b5ea74000d11b0c9f74754ebdbfc544b05a25890602090a1005b346105db575f3660031901126105db576009546040516001600160a01b039091168152602090f35b346105db5760203660031901126105db5761128a612038565b611292612403565b600980546001600160a01b0319166001600160a01b0392909216919091179055005b346105db575f3660031901126105db57600154336001600160a01b039091160361132657600180546001600160a01b03199081169091555f805433928116831782556001600160a01b0316907f8be0079c531659141344cd1fd0a4f28419497f9722a3daafe3b4186f6b6457e09080a3005b63118cdaa760e01b5f523360045260245ffd5b346105db575f3660031901126105db57611351612403565b600180546001600160a01b03199081169091555f80549182168155906001600160a01b03167f8be0079c531659141344cd1fd0a4f28419497f9722a3daafe3b4186f6b6457e08280a3005b346105db5760203660031901126105db576113b5612038565b5f6101406040516113c58161212a565b60608152606060208201528260408201528260608201528260808201528260a08201528260c08201528260e08201528261010082015282610120820152015260018060a01b03165f52600360205260405f20604051906114248261212a565b61142d81612169565b825261143b60018201612169565b6020830190815260028201546001600160a01b038116604085019081529190606085019060a081901c60ff169060058210156109dd5760ff91835260a81c16608086019060048110156109dd5761151595879461154f8461154460ff9789979688975261152960038701549560a089019687528a610140600760048b01549a60c08d019b8c5260e060058201549d019c8d5261010060068201549e019d8e5201549d8e61012082019e8f911615159052019c60081c1615158c526040519e8f9e8f916020835251610160602084015261018083019061207c565b9151906040601f198285030191015261207c565b9a516001600160a01b031660608d01525160808c01906120a0565b5160a08a01906120ad565b5160c08801525160e087015251610100860152516101208501525115156101408401525115156101608301520390f35b346105db5760203660031901126105db576001600160a01b036115a0612038565b165f52600360205260405f2060ff600282015460a01c1660058110156109dd57602091600282149182156115f0575b50816115e1575b506040519015158152f35b600391500154421115826115d6565b6003149150836115cf565b346105db575f3660031901126105db57600a546040516001600160a01b039091168152602090f35b346105db575f3660031901126105db57602060ff60015460a01c166040519015158152f35b346105db575f3660031901126105db57602060405164012a05f2008152f35b346105db575f3660031901126105db576020600b54604051908152f35b346105db5760203660031901126105db576004355f52600560205260a060405f20805490600181015490600281015460046003830154920154926040519485526020850152604084015260608301526080820152f35b346105db575f3660031901126105db57602060405164174876e8008152f35b346105db5760203660031901126105db5760043560048110156105db5761171e612416565b335f52600360205260ff600260405f20015460a01c1660058110156109dd57600214801561189e575b1561186057600181036118335764012a05f2006117e262278d005b600a5461179b9084906001600160a01b0316337f000000000000000000000000000000000000000000000000000000000000000061244e565b335f5260036020526117b384600260405f200161229f565b6117bd81426122e3565b335f526003602052600360405f2001556117d983600b546122e3565b600b55426122e3565b906117f060405180946120ad565b602083015260408201527fef8852a320a1167126e897867d6ef563151c82acebecb6448446b82cc29c791e60603392a260015f8051602061255783398151915255005b6002810361184d5764037e11d6006117e262278d00611762565b640ba43b74006117e26301e13380611762565b60405162461bcd60e51b8152602060048201526016602482015275125b9cdd141bdbdb0e881b9bdd081d995c9a599a595960521b6044820152606490fd5b50335f52600360205260ff600260405f20015460a01c1660058110156109dd57600314611747565b346105db5760403660031901126105db5760043567ffffffffffffffff81116105db576118f790369060040161204e565b9060243567ffffffffffffffff81116105db5761191890369060040161204e565b90335f52600360205260018060a01b03600260405f20015416611d135761195a90604051926119468461212a565b611951368787612235565b84523691612235565b602082019081526040820133815260608301926001845260808101905f825260a08101915f835260c0820164174876e800815260e08301905f82526101008401925f84526101208501985f8a5261014086019860018a52335f52600360205260405f20965180519067ffffffffffffffff8211611b835781906119dd8a546120ba565b601f8111611cc3575b50602090601f8311600114611c60575f92611c55575b50508160011b915f199060031b1c19161787555b518051600188019167ffffffffffffffff8211611b83578190611a3384546120ba565b601f8111611c05575b50602090601f8311600114611ba2575f92611b97575b50508160011b915f199060031b1c19161790555b96516002860180546001600160a01b0319166001600160a01b0392909216919091178155965160058110156109dd57611a9f908861227b565b519460048610156109dd57611ab9600796611ae89861229f565b5160038501555160048401555160058301555160068201550192511515839060ff801983541691151516179055565b51815461ff00191690151560081b61ff001617905560075468010000000000000000811015611b83577fc23b6db5e82a570213dd1f0f5887a708d8f35973bdf883b46a91d2d06480c3ea91611b46826001611b739401600755612209565b81546001600160a01b0360039290921b91821b19163390911b1790556040805181815294908501916122c3565b91600160208201528033930390a2005b634e487b7160e01b5f52604160045260245ffd5b015190508f80611a52565b5f8581528281209350601f198516905b818110611bed5750908460019594939210611bd5575b505050811b019055611a66565b01515f1960f88460031b161c191690558f8080611bc8565b92936020600181928786015181550195019301611bb2565b909150835f5260205f20601f840160051c81019160208510611c4b575b90601f859493920160051c01905b818110611c3d5750611a3c565b5f8155849350600101611c30565b9091508190611c22565b015190508f806119fc565b5f8b81528281209350601f198516905b818110611cab5750908460019594939210611c93575b505050811b018755611a10565b01515f1960f88460031b161c191690558f8080611c86565b92936020600181928786015181550195019301611c70565b909150895f5260205f20601f840160051c81019160208510611d09575b90601f859493920160051c01905b818110611cfb57506119e6565b5f8155849350600101611cee565b9091508190611ce0565b60405162461bcd60e51b815260206004820152601c60248201527f496e7374506f6f6c3a20616c72656164792072656769737465726564000000006044820152606490fd5b346105db575f3660031901126105db57611d70612403565b60015460ff8160a01c1615611db75760ff60a01b19166001556040513381527f5db9ee0a495bf2e6ff9c91a7834c1ba4fdd244a5e8aa4e537bd38aeae4b073aa90602090a1005b638dfc202b60e01b5f5260045ffd5b346105db5760403660031901126105db57611ddf612022565b6004355f52600660205260405f209060018060a01b03165f52602052602060405f2054604051908152f35b346105db575f3660031901126105db5760206040516127108152f35b346105db5760203660031901126105db576004355f52600460205260c060405f2060018060a01b038154169060018060a01b0360018201541690600281015460038201549060ff6005600485015494015416936040519586526020860152604085015260608401526080830152151560a0820152f35b346105db5760203660031901126105db57610160905f60a060043592611ec1816120f2565b82815282602082015282604082015282606082015282608082015201525f6080604051611eed8161210e565b8281528260208201528260408201528260608201520152805f52600460205260405f20905f52600560205260405f209060405191611f2a836120f2565b60018060a01b03825416835260018060a01b036001830154169160208401928352600281015490604085019182526003810154906060860191825260ff60056004830154926080890193845201541660a08701901515815260405191611f8f8361210e565b855483526001860154936020840194855260028701549560408501968752600460038901549860608701998a5201549860808601998a526040519a60018060a01b039051168b5260018060a01b0390511660208b01525160408a015251606089015251608088015251151560a08701525160c08601525160e0850152516101008401525161012083015251610140820152f35b602435906001600160a01b03821682036105db57565b600435906001600160a01b03821682036105db57565b9181601f840112156105db5782359167ffffffffffffffff83116105db57602083818601950101116105db57565b805180835260209291819084018484015e5f828201840152601f01601f1916010190565b9060058210156109dd5752565b9060048210156109dd5752565b90600182811c921680156120e8575b60208310146120d457565b634e487b7160e01b5f52602260045260245ffd5b91607f16916120c9565b60c0810190811067ffffffffffffffff821117611b8357604052565b60a0810190811067ffffffffffffffff821117611b8357604052565b610160810190811067ffffffffffffffff821117611b8357604052565b90601f8019910116810190811067ffffffffffffffff821117611b8357604052565b9060405191825f82549261217c846120ba565b80845293600181169081156121e757506001146121a3575b506121a192500383612147565b565b90505f9291925260205f20905f915b8183106121cb5750509060206121a1928201015f612194565b60209193508060019154838589010152019101909184926121b2565b9050602092506121a194915060ff191682840152151560051b8201015f612194565b6007548110156122215760075f5260205f2001905f90565b634e487b7160e01b5f52603260045260245ffd5b92919267ffffffffffffffff8211611b83576040519161225f601f8201601f191660200184612147565b8294818452818301116105db578281602093845f960137010152565b9060058110156109dd57815460ff60a01b191660a09190911b60ff60a01b16179055565b9060048110156109dd57815460ff60a81b191660a89190911b60ff60a81b16179055565b908060209392818452848401375f828201840152601f01601f1916010190565b919082018092116111d457565b156122f757565b60405162461bcd60e51b815260206004820152601a60248201527f496e7374506f6f6c3a206e6f74204b59422076657269666965640000000000006044820152606490fd5b1561234357565b60405162461bcd60e51b815260206004820152601e60248201527f496e7374506f6f6c3a20737562736372697074696f6e206578706972656400006044820152606490fd5b818102929181159184041417156111d457565b81156123a5570490565b634e487b7160e01b5f52601260045260245ffd5b919082039182116111d457565b156123cd57565b60405162461bcd60e51b815260206004820152600e60248201526d139bdd08185d5d1a1bdc9a5e995960921b6044820152606490fd5b5f546001600160a01b0316330361132657565b60025f80516020612557833981519152541461243f5760025f8051602061255783398151915255565b633ee5aeb560e01b5f5260045ffd5b6040516323b872dd60e01b5f9081526001600160a01b039384166004529290931660245260449390935260209060648180865af19060015f51148216156124bf575b6040525f6060521561249f5750565b635274afe760e01b5f9081526001600160a01b0391909116600452602490fd5b9060018115166124d757823b15153d15161690612490565b503d5f823e3d90fd5b916040519163a9059cbb60e01b5f5260018060a01b031660045260245260205f60448180865af19060015f5114821615612520575b6040521561249f5750565b9060018115166124d757823b15153d15161690612515565b60ff60015460a01c1661254757565b63d93c066560e01b5f5260045ffdfe9b779b17422d0df92223018b32b4d1fa46e071723d6817e2486d003becc55f00a2646970667358221220bb334fd904207b6a4fe528c69b69496d6c2c3bfa38e7ac68f9191a1d2d605e1164736f6c634300081a0033",
  "linkReferences": {},
  "deployedLinkReferences": {}
}