{
  "_format": "hh-sol-artifact-1",
  "contractName": "WikiFiatOnRamp",
  "sourceName": "src/WikiFiatOnRamp.sol",
  "abi": [
    {
      "inputs": [
        {
          "internalType": "address",
          "name": "_usdc",
          "type": "address"
        },
        {
          "internalType": "address",
          "name": "_revenueSplitter",
          "type": "address"
        },
        {
          "internalType": "address",
          "name": "_owner",
          "type": "address"
        }
      ],
      "stateMutability": "nonpayable",
      "type": "constructor"
    },
    {
      "inputs": [
        {
          "internalType": "address",
          "name": "owner",
          "type": "address"
        }
      ],
      "name": "OwnableInvalidOwner",
      "type": "error"
    },
    {
      "inputs": [
        {
          "internalType": "address",
          "name": "account",
          "type": "address"
        }
      ],
      "name": "OwnableUnauthorizedAccount",
      "type": "error"
    },
    {
      "inputs": [],
      "name": "ReentrancyGuardReentrantCall",
      "type": "error"
    },
    {
      "inputs": [
        {
          "internalType": "address",
          "name": "token",
          "type": "address"
        }
      ],
      "name": "SafeERC20FailedOperation",
      "type": "error"
    },
    {
      "anonymous": false,
      "inputs": [
        {
          "indexed": false,
          "internalType": "uint256",
          "name": "amount",
          "type": "uint256"
        },
        {
          "indexed": false,
          "internalType": "enum WikiFiatOnRamp.Provider",
          "name": "provider",
          "type": "uint8"
        }
      ],
      "name": "CommissionDeposited",
      "type": "event"
    },
    {
      "anonymous": false,
      "inputs": [
        {
          "indexed": true,
          "internalType": "bytes32",
          "name": "orderId",
          "type": "bytes32"
        },
        {
          "indexed": false,
          "internalType": "uint256",
          "name": "commissionUSDC",
          "type": "uint256"
        }
      ],
      "name": "OrderSettled",
      "type": "event"
    },
    {
      "anonymous": false,
      "inputs": [
        {
          "indexed": true,
          "internalType": "bytes32",
          "name": "orderId",
          "type": "bytes32"
        },
        {
          "indexed": false,
          "internalType": "address",
          "name": "user",
          "type": "address"
        },
        {
          "indexed": false,
          "internalType": "enum WikiFiatOnRamp.Provider",
          "name": "provider",
          "type": "uint8"
        },
        {
          "indexed": false,
          "internalType": "uint256",
          "name": "fiatAmount",
          "type": "uint256"
        }
      ],
      "name": "OrderTracked",
      "type": "event"
    },
    {
      "anonymous": false,
      "inputs": [
        {
          "indexed": true,
          "internalType": "address",
          "name": "previousOwner",
          "type": "address"
        },
        {
          "indexed": true,
          "internalType": "address",
          "name": "newOwner",
          "type": "address"
        }
      ],
      "name": "OwnershipTransferStarted",
      "type": "event"
    },
    {
      "anonymous": false,
      "inputs": [
        {
          "indexed": true,
          "internalType": "address",
          "name": "previousOwner",
          "type": "address"
        },
        {
          "indexed": true,
          "internalType": "address",
          "name": "newOwner",
          "type": "address"
        }
      ],
      "name": "OwnershipTransferred",
      "type": "event"
    },
    {
      "inputs": [],
      "name": "USDC",
      "outputs": [
        {
          "internalType": "contract IERC20",
          "name": "",
          "type": "address"
        }
      ],
      "stateMutability": "view",
      "type": "function"
    },
    {
      "inputs": [],
      "name": "acceptOwnership",
      "outputs": [],
      "stateMutability": "nonpayable",
      "type": "function"
    },
    {
      "inputs": [
        {
          "internalType": "uint256",
          "name": "amount",
          "type": "uint256"
        },
        {
          "internalType": "enum WikiFiatOnRamp.Provider",
          "name": "provider",
          "type": "uint8"
        }
      ],
      "name": "depositCommission",
      "outputs": [],
      "stateMutability": "nonpayable",
      "type": "function"
    },
    {
      "inputs": [
        {
          "internalType": "enum WikiFiatOnRamp.Provider",
          "name": "provider",
          "type": "uint8"
        },
        {
          "internalType": "uint256",
          "name": "fiatUSD",
          "type": "uint256"
        }
      ],
      "name": "estimateCommission",
      "outputs": [
        {
          "internalType": "uint256",
          "name": "commissionUSDC",
          "type": "uint256"
        }
      ],
      "stateMutability": "view",
      "type": "function"
    },
    {
      "inputs": [
        {
          "internalType": "bytes32",
          "name": "orderId",
          "type": "bytes32"
        }
      ],
      "name": "getOrder",
      "outputs": [
        {
          "components": [
            {
              "internalType": "bytes32",
              "name": "orderId",
              "type": "bytes32"
            },
            {
              "internalType": "address",
              "name": "user",
              "type": "address"
            },
            {
              "internalType": "enum WikiFiatOnRamp.Provider",
              "name": "provider",
              "type": "uint8"
            },
            {
              "internalType": "uint256",
              "name": "fiatAmount",
              "type": "uint256"
            },
            {
              "internalType": "uint256",
              "name": "cryptoAmount",
              "type": "uint256"
            },
            {
              "internalType": "address",
              "name": "cryptoToken",
              "type": "address"
            },
            {
              "internalType": "uint256",
              "name": "commissionBps",
              "type": "uint256"
            },
            {
              "internalType": "uint256",
              "name": "commissionUSDC",
              "type": "uint256"
            },
            {
              "internalType": "bool",
              "name": "settled",
              "type": "bool"
            },
            {
              "internalType": "uint256",
              "name": "createdAt",
              "type": "uint256"
            },
            {
              "internalType": "uint256",
              "name": "settledAt",
              "type": "uint256"
            }
          ],
          "internalType": "struct WikiFiatOnRamp.ReferralOrder",
          "name": "",
          "type": "tuple"
        }
      ],
      "stateMutability": "view",
      "type": "function"
    },
    {
      "inputs": [],
      "name": "getStats",
      "outputs": [
        {
          "internalType": "uint256",
          "name": "total",
          "type": "uint256"
        },
        {
          "internalType": "uint256",
          "name": "volume",
          "type": "uint256"
        },
        {
          "internalType": "uint256",
          "name": "commissions",
          "type": "uint256"
        },
        {
          "internalType": "uint256",
          "name": "pending",
          "type": "uint256"
        }
      ],
      "stateMutability": "view",
      "type": "function"
    },
    {
      "inputs": [
        {
          "internalType": "address",
          "name": "user",
          "type": "address"
        }
      ],
      "name": "getUserOrders",
      "outputs": [
        {
          "internalType": "bytes32[]",
          "name": "",
          "type": "bytes32[]"
        }
      ],
      "stateMutability": "view",
      "type": "function"
    },
    {
      "inputs": [
        {
          "internalType": "address",
          "name": "",
          "type": "address"
        }
      ],
      "name": "keepers",
      "outputs": [
        {
          "internalType": "bool",
          "name": "",
          "type": "bool"
        }
      ],
      "stateMutability": "view",
      "type": "function"
    },
    {
      "inputs": [
        {
          "internalType": "bytes32",
          "name": "",
          "type": "bytes32"
        }
      ],
      "name": "orders",
      "outputs": [
        {
          "internalType": "bytes32",
          "name": "orderId",
          "type": "bytes32"
        },
        {
          "internalType": "address",
          "name": "user",
          "type": "address"
        },
        {
          "internalType": "enum WikiFiatOnRamp.Provider",
          "name": "provider",
          "type": "uint8"
        },
        {
          "internalType": "uint256",
          "name": "fiatAmount",
          "type": "uint256"
        },
        {
          "internalType": "uint256",
          "name": "cryptoAmount",
          "type": "uint256"
        },
        {
          "internalType": "address",
          "name": "cryptoToken",
          "type": "address"
        },
        {
          "internalType": "uint256",
          "name": "commissionBps",
          "type": "uint256"
        },
        {
          "internalType": "uint256",
          "name": "commissionUSDC",
          "type": "uint256"
        },
        {
          "internalType": "bool",
          "name": "settled",
          "type": "bool"
        },
        {
          "internalType": "uint256",
          "name": "createdAt",
          "type": "uint256"
        },
        {
          "internalType": "uint256",
          "name": "settledAt",
          "type": "uint256"
        }
      ],
      "stateMutability": "view",
      "type": "function"
    },
    {
      "inputs": [],
      "name": "owner",
      "outputs": [
        {
          "internalType": "address",
          "name": "",
          "type": "address"
        }
      ],
      "stateMutability": "view",
      "type": "function"
    },
    {
      "inputs": [],
      "name": "pendingOwner",
      "outputs": [
        {
          "internalType": "address",
          "name": "",
          "type": "address"
        }
      ],
      "stateMutability": "view",
      "type": "function"
    },
    {
      "inputs": [],
      "name": "pendingSettlement",
      "outputs": [
        {
          "internalType": "uint256",
          "name": "",
          "type": "uint256"
        }
      ],
      "stateMutability": "view",
      "type": "function"
    },
    {
      "inputs": [
        {
          "internalType": "enum WikiFiatOnRamp.Provider",
          "name": "",
          "type": "uint8"
        }
      ],
      "name": "providers",
      "outputs": [
        {
          "internalType": "string",
          "name": "name",
          "type": "string"
        },
        {
          "internalType": "string",
          "name": "referralId",
          "type": "string"
        },
        {
          "internalType": "uint256",
          "name": "commissionBps",
          "type": "uint256"
        },
        {
          "internalType": "bool",
          "name": "active",
          "type": "bool"
        }
      ],
      "stateMutability": "view",
      "type": "function"
    },
    {
      "inputs": [],
      "name": "renounceOwnership",
      "outputs": [],
      "stateMutability": "nonpayable",
      "type": "function"
    },
    {
      "inputs": [],
      "name": "revenueSplitter",
      "outputs": [
        {
          "internalType": "address",
          "name": "",
          "type": "address"
        }
      ],
      "stateMutability": "view",
      "type": "function"
    },
    {
      "inputs": [
        {
          "internalType": "address",
          "name": "k",
          "type": "address"
        },
        {
          "internalType": "bool",
          "name": "e",
          "type": "bool"
        }
      ],
      "name": "setKeeper",
      "outputs": [],
      "stateMutability": "nonpayable",
      "type": "function"
    },
    {
      "inputs": [
        {
          "internalType": "enum WikiFiatOnRamp.Provider",
          "name": "p",
          "type": "uint8"
        },
        {
          "internalType": "uint256",
          "name": "bps",
          "type": "uint256"
        }
      ],
      "name": "setProviderCommission",
      "outputs": [],
      "stateMutability": "nonpayable",
      "type": "function"
    },
    {
      "inputs": [
        {
          "internalType": "address",
          "name": "r",
          "type": "address"
        }
      ],
      "name": "setRevenueSplitter",
      "outputs": [],
      "stateMutability": "nonpayable",
      "type": "function"
    },
    {
      "inputs": [
        {
          "internalType": "bytes32",
          "name": "orderId",
          "type": "bytes32"
        },
        {
          "internalType": "uint256",
          "name": "cryptoAmount",
          "type": "uint256"
        },
        {
          "internalType": "uint256",
          "name": "commissionUSDC",
          "type": "uint256"
        }
      ],
      "name": "settleOrder",
      "outputs": [],
      "stateMutability": "nonpayable",
      "type": "function"
    },
    {
      "inputs": [],
      "name": "totalCommissionsUSDC",
      "outputs": [
        {
          "internalType": "uint256",
          "name": "",
          "type": "uint256"
        }
      ],
      "stateMutability": "view",
      "type": "function"
    },
    {
      "inputs": [],
      "name": "totalFiatVolumeUSD",
      "outputs": [
        {
          "internalType": "uint256",
          "name": "",
          "type": "uint256"
        }
      ],
      "stateMutability": "view",
      "type": "function"
    },
    {
      "inputs": [],
      "name": "totalOrdersTracked",
      "outputs": [
        {
          "internalType": "uint256",
          "name": "",
          "type": "uint256"
        }
      ],
      "stateMutability": "view",
      "type": "function"
    },
    {
      "inputs": [
        {
          "internalType": "bytes32",
          "name": "orderId",
          "type": "bytes32"
        },
        {
          "internalType": "address",
          "name": "user",
          "type": "address"
        },
        {
          "internalType": "enum WikiFiatOnRamp.Provider",
          "name": "provider",
          "type": "uint8"
        },
        {
          "internalType": "uint256",
          "name": "fiatAmountCents",
          "type": "uint256"
        },
        {
          "internalType": "address",
          "name": "cryptoToken",
          "type": "address"
        }
      ],
      "name": "trackOrder",
      "outputs": [],
      "stateMutability": "nonpayable",
      "type": "function"
    },
    {
      "inputs": [
        {
          "internalType": "address",
          "name": "newOwner",
          "type": "address"
        }
      ],
      "name": "transferOwnership",
      "outputs": [],
      "stateMutability": "nonpayable",
      "type": "function"
    },
    {
      "inputs": [
        {
          "internalType": "address",
          "name": "",
          "type": "address"
        },
        {
          "internalType": "uint256",
          "name": "",
          "type": "uint256"
        }
      ],
      "name": "userOrders",
      "outputs": [
        {
          "internalType": "bytes32",
          "name": "",
          "type": "bytes32"
        }
      ],
      "stateMutability": "view",
      "type": "function"
    }
  ],
  "bytecode": "0x60a060405234611012576124536060813803918261001c81611035565b938492833981010312611012576100328161105a565b9061003f6020820161105a565b906001600160a01b03906100559060400161105a565b16918215610fff57600180546001600160a01b03199081169091555f80549182168517815560405194916001600160a01b0316907f8be0079c531659141344cd1fd0a4f28419497f9722a3daafe3b4186f6b6457e09080a360017f9b779b17422d0df92223018b32b4d1fa46e071723d6817e2486d003becc55f00556001600160a01b0316918215610fca57506001600160a01b0316908115610f8557608052600680546001600160a01b031916919091179055610111611016565b61011b6040611035565b60078152664d6f6f6e50617960c81b6020820152815261013b6040611035565b90600982526877696b6963696f757360b81b6020830152602081019182526040810190603282526060810191600183525f8052600460205260405f20915180519060018060401b03821161088d57835490600182811c92168015610f7b575b602083101461086f5781601f849311610f2b575b50602090601f8311600114610ec8575f92610ebd575b50508160011b915f199060031b1c19161782555b92518051939060018301906001600160401b03861161088d578154600181811c91168015610eb3575b602082101461086f57601f8111610e6e575b50602090601f8711600114610e0957958091600396975f92610dfe575b50508160011b915f1990871b1c19161790555b516002820155019051151560ff80198354169116179055610262611016565b61026c6040611035565b60078152665472616e73616b60c81b6020820152815261028c6040611035565b90600982526877696b6963696f757360b81b6020830152602081019182526040810190604b825260608101916001835260015f52600460205260405f20915180519060018060401b03821161088d57835490600182811c92168015610df4575b602083101461086f5781601f849311610da4575b50602090601f8311600114610d41575f92610d36575b50508160011b915f199060031b1c19161782555b92518051939060018301906001600160401b03861161088d578154600181811c91168015610d2c575b602082101461086f57601f8111610ce7575b50602090601f8711600114610c8257958091600396975f92610c77575b50508160011b915f1990871b1c19161790555b516002820155019051151560ff801983541691161790556103b4611016565b6103be6040611035565b600581526442616e786160d81b602082015281526103dc6040611035565b90600982526877696b6963696f757360b81b6020830152602081019182526040810190604b825260608101916001835260025f52600460205260405f20915180519060018060401b03821161088d57835490600182811c92168015610c6d575b602083101461086f5781601f849311610c1d575b50602090601f8311600114610bba575f92610baf575b50508160011b915f199060031b1c19161782555b92518051939060018301906001600160401b03861161088d578154600181811c91168015610ba5575b602082101461086f57601f8111610b60575b50602090601f8711600114610afb57958091600396975f92610af0575b50508160011b915f1990871b1c19161790555b516002820155019051151560ff80198354169116179055610504611016565b61050e6040611035565b6004815263052616d760e41b6020820152815261052b6040611035565b90600982526877696b6963696f757360b81b60208301526020810191825260408101906032825260608101916001835260035f52600460205260405f20915180519060018060401b03821161088d57835490600182811c92168015610ae6575b602083101461086f5781601f849311610a96575b50602090601f8311600114610a33575f92610a28575b50508160011b915f199060031b1c19161782555b92518051939060018301906001600160401b03861161088d578154600181811c91168015610a1e575b602082101461086f57601f81116109d9575b50602090601f871160011461097457958091600396975f92610969575b50508160011b915f1990871b1c19161790555b516002820155019051151560ff80198354169116179055610653611016565b61065d6040611035565b600581526427ba3432b960d91b6020820152815261067b6040611035565b90600982526877696b6963696f757360b81b60208301526020810191825260408101906032825260608101916001835260045f52600460205260405f20915180519060018060401b03821161088d57835490600182811c9216801561095f575b602083101461086f5781601f84931161090f575b50602090601f83116001146108ac575f926108a1575b50508160011b915f199060031b1c19161782555b92518051939060018301906001600160401b03861161088d578154600181811c91168015610883575b602082101461086f57601f811161082a575b50602090601f87116001146107c557958091600396975f926107ba575b50508160011b915f1990871b1c19161790555b516002820155019051151560ff801983541691161790556040516113e4908161106f82396080518181816102310152610ba90152f35b015190505f80610771565b90601f19871691835f52815f20925f5b81811061081257509160019391896003999a94106107fb575b505050811b019055610784565b01515f1983891b60f8161c191690555f80806107ee565b929360206001819287860151815501950193016107d5565b825f5260205f20601f880160051c81019160208910610865575b601f0160051c01905b81811061085a5750610754565b5f815560010161084d565b9091508190610844565b634e487b7160e01b5f52602260045260245ffd5b90607f1690610742565b634e487b7160e01b5f52604160045260245ffd5b015190505f80610705565b5f8681528281209350601f198516905b8181106108f757509084600195949392106108df575b505050811b018255610719565b01515f1960f88460031b161c191690555f80806108d2565b929360206001819287860151815501950193016108bc565b909150845f5260205f20601f840160051c81019160208510610955575b90601f859493920160051c01905b81811061094757506106ef565b5f815584935060010161093a565b909150819061092c565b91607f16916106db565b015190505f80610621565b90601f19871691835f52815f20925f5b8181106109c157509160019391896003999a94106109aa575b505050811b019055610634565b01515f1983891b60f8161c191690555f808061099d565b92936020600181928786015181550195019301610984565b825f5260205f20601f880160051c81019160208910610a14575b601f0160051c01905b818110610a095750610604565b5f81556001016109fc565b90915081906109f3565b90607f16906105f2565b015190505f806105b5565b5f8681528281209350601f198516905b818110610a7e5750908460019594939210610a66575b505050811b0182556105c9565b01515f1960f88460031b161c191690555f8080610a59565b92936020600181928786015181550195019301610a43565b909150845f5260205f20601f840160051c81019160208510610adc575b90601f859493920160051c01905b818110610ace575061059f565b5f8155849350600101610ac1565b9091508190610ab3565b91607f169161058b565b015190505f806104d2565b90601f19871691835f52815f20925f5b818110610b4857509160019391896003999a9410610b31575b505050811b0190556104e5565b01515f1983891b60f8161c191690555f8080610b24565b92936020600181928786015181550195019301610b0b565b825f5260205f20601f880160051c81019160208910610b9b575b601f0160051c01905b818110610b9057506104b5565b5f8155600101610b83565b9091508190610b7a565b90607f16906104a3565b015190505f80610466565b5f8681528281209350601f198516905b818110610c055750908460019594939210610bed575b505050811b01825561047a565b01515f1960f88460031b161c191690555f8080610be0565b92936020600181928786015181550195019301610bca565b909150845f5260205f20601f840160051c81019160208510610c63575b90601f859493920160051c01905b818110610c555750610450565b5f8155849350600101610c48565b9091508190610c3a565b91607f169161043c565b015190505f80610382565b90601f19871691835f52815f20925f5b818110610ccf57509160019391896003999a9410610cb8575b505050811b019055610395565b01515f1983891b60f8161c191690555f8080610cab565b92936020600181928786015181550195019301610c92565b825f5260205f20601f880160051c81019160208910610d22575b601f0160051c01905b818110610d175750610365565b5f8155600101610d0a565b9091508190610d01565b90607f1690610353565b015190505f80610316565b5f8681528281209350601f198516905b818110610d8c5750908460019594939210610d74575b505050811b01825561032a565b01515f1960f88460031b161c191690555f8080610d67565b92936020600181928786015181550195019301610d51565b909150845f5260205f20601f840160051c81019160208510610dea575b90601f859493920160051c01905b818110610ddc5750610300565b5f8155849350600101610dcf565b9091508190610dc1565b91607f16916102ec565b015190505f80610230565b90601f19871691835f52815f20925f5b818110610e5657509160019391896003999a9410610e3f575b505050811b019055610243565b01515f1983891b60f8161c191690555f8080610e32565b92936020600181928786015181550195019301610e19565b825f5260205f20601f880160051c81019160208910610ea9575b601f0160051c01905b818110610e9e5750610213565b5f8155600101610e91565b9091508190610e88565b90607f1690610201565b015190505f806101c4565b5f8681528281209350601f198516905b818110610f135750908460019594939210610efb575b505050811b0182556101d8565b01515f1960f88460031b161c191690555f8080610eee565b92936020600181928786015181550195019301610ed8565b909150845f5260205f20601f840160051c81019160208510610f71575b90601f859493920160051c01905b818110610f6357506101ae565b5f8155849350600101610f56565b9091508190610f48565b91607f169161019a565b60405162461bcd60e51b815260206004820152601b60248201527f57696b693a207a65726f205f726576656e756553706c697474657200000000006044820152606490fd5b62461bcd60e51b815260206004820152601060248201526f57696b693a207a65726f205f7573646360801b6044820152606490fd5b631e4fbdf760e01b5f525f60045260245ffd5b5f80fd5b60405190608082016001600160401b0381118382101761088d57604052565b6040519190601f01601f191682016001600160401b0381118382101761088d57604052565b51906001600160a01b03821682036110125756fe60806040526004361015610011575f80fd5b5f3560e01c80630b334568146110dc57806336ceb433146110bf5780633b4e5f8b1461104b5780633bbd64bc1461100e5780634c5a5bf714610ff15780635778472a14610e6c57806357af282914610de957806363c69f0814610d35578063715018a614610cd257806371dfa91c14610cb557806379ba509714610c30578063856652e914610bd857806389a3027114610b945780638da5cb5b14610b6d5780639c3f1e9014610ab55780639d2b86f614610a8d578063ac3f8fd014610771578063c59d484714610738578063c785d4e7146106f5578063cc15ca99146105d2578063d1b9e8531461057b578063dcf500db1461055e578063e30c397814610536578063e35a110c146101a25763f2fde38b1461012c575f80fd5b3461019e57602036600319011261019e57610145611137565b61014d611323565b60018060a01b0316806bffffffffffffffffffffffff60a01b600154161760015560018060a01b035f54167f38d16b8cac22d99fc7c124b9cd0de2d3fa1faef420bfe791d8c362d765e227005f80a3005b5f80fd5b3461019e57604036600319011261019e57600435602435600581101561019e57335f52600560205260ff60405f2054168015610523575b6101e2906112d5565b60027f9b779b17422d0df92223018b32b4d1fa46e071723d6817e2486d003becc55f0054146105145760027f9b779b17422d0df92223018b32b4d1fa46e071723d6817e2486d003becc55f00557f0000000000000000000000000000000000000000000000000000000000000000916040516323b872dd60e01b5f5233600452306024528160445260205f60648180885af19060015f51148216156104f3575b6040525f606052156104d557600a54818111156104ce578181039081116104ba575b600a556006546001600160a01b0316156104795760065460405163095ea7b360e01b81526001600160a01b0391821660048201526024810183905290602090829060449082905f9089165af1801561046e57610437575b505f8060018060a01b03600654166040518260208201916302102c9760e11b83528660248201526024815261033160448261118e565b51925af13d15610408573d9267ffffffffffffffff84116103f4577f9a2d17e3791168c2989dedfa00c7c82887c03000b45a28cc9baa261fef98afb794836103af9360409687519061038d6020601f19601f840116018361118e565b81525f60203d92013e5b156103d6575b50505b8351928352602083019061114d565ba160017f9b779b17422d0df92223018b32b4d1fa46e071723d6817e2486d003becc55f0055005b5f546103ed926001600160a01b0390911690611336565b858361039d565b634e487b7160e01b5f52604160045260245ffd5b6040927f9a2d17e3791168c2989dedfa00c7c82887c03000b45a28cc9baa261fef98afb794836103af93610397565b6020813d602011610466575b816104506020938361118e565b8101031261019e575180151581146102fb575f80fd5b3d9150610443565b6040513d5f823e3d90fd5b6103af6040926104b5837f9a2d17e3791168c2989dedfa00c7c82887c03000b45a28cc9baa261fef98afb79660018060a01b035f541690611336565b6103a0565b634e487b7160e01b5f52601160045260245ffd5b505f6102a4565b635274afe760e01b5f9081526001600160a01b038416600452602490fd5b90600181151661050b57843b15153d15161690610282565b503d5f823e3d90fd5b633ee5aeb560e01b5f5260045ffd5b505f546001600160a01b031633146101d9565b3461019e575f36600319011261019e576001546040516001600160a01b039091168152602090f35b3461019e575f36600319011261019e576020600954604051908152f35b3461019e57604036600319011261019e57610594611137565b602435801515810361019e576105d0916105ac611323565b60018060a01b03165f52600560205260405f209060ff801983541691151516179055565b005b3461019e57606036600319011261019e57600435604435335f52600560205260ff60405f20541680156106e2575b610609906112d5565b815f52600260205260405f2060088101541515806106d3575b15610696577ff8c59eb965727697413f379d9378244a62e458539865f12205707efaee49985a91602091602435600382015581600682015560078101600160ff1982541617905560094291015561067b81600954611316565b60095561068a81600a54611316565b600a55604051908152a2005b60405162461bcd60e51b815260206004820152601560248201527427b72930b6b81d1034b73b30b634b21037b93232b960591b6044820152606490fd5b5060ff60078201541615610622565b505f546001600160a01b03163314610600565b3461019e57602036600319011261019e5761070e611137565b610716611323565b600680546001600160a01b0319166001600160a01b0392909216919091179055005b3461019e575f36600319011261019e576080600754606460085404600954600a5491604051938452602084015260408301526060820152f35b3461019e5760a036600319011261019e576004356024356001600160a01b0381169081900361019e57604435600581101561019e57606435916084356001600160a01b0381169081900361019e57335f52600560205260ff60405f2054168015610a7a575b6107df906112d5565b845f526002602052600860405f200154610a3e576107fc8361115a565b60ff600382015416156109f9576002015490856040519261081c84611171565b8184526020840192858452604085019161083688846112c9565b606086019189835260808701915f835260a0880191825260c0880190815260e08801915f83526101008901935f85526101208a01964288526101408b01985f8a525f52600260205260405f209a518b5560018b019960018060a01b039060018060a01b03905116166bffffffffffffffffffffffff60a01b8b5416178a55519560058710156109e557895460ff60a01b191660a09790971b60ff60a01b1696909617909855935160028901559551600388015591516004870180546001600160a01b0319166001600160a01b039290921691909117905593516005860155516006850155915160078401805491151560ff1660ff199290921691909117905560099151600884015551910155805f52600360205260405f208054680100000000000000008110156103f457610970916001820181556112a0565b81549060031b9086821b915f19901b1916179055600754925f1984146104ba576109dd60609360017f3cb08512bc7730a56b04289b5c4e08b990eb6d7941f6786fec65ac0ae3ab398796016007556109ca83600854611316565b600855604051938452602084019061114d565b6040820152a2005b634e487b7160e01b5f52602160045260245ffd5b60405162461bcd60e51b815260206004820152601960248201527f4f6e52616d703a2070726f766964657220696e616374697665000000000000006044820152606490fd5b60405162461bcd60e51b81526020600482015260146024820152734f6e52616d703a206f726465722065786973747360601b6044820152606490fd5b505f546001600160a01b031633146107d6565b3461019e575f36600319011261019e576006546040516001600160a01b039091168152602090f35b3461019e57602036600319011261019e576004355f52600260205261016060405f208054906001810154906002810154600382015460018060a01b0360048401541660058401549060068501549260ff60078701541694610b3e60096008890154980154986040519a8b5260018060a01b03811660208c015260ff60408c019160a01c1661114d565b6060890152608088015260a087015260c086015260e08501521515610100840152610120830152610140820152f35b3461019e575f36600319011261019e575f546040516001600160a01b039091168152602090f35b3461019e575f36600319011261019e576040517f00000000000000000000000000000000000000000000000000000000000000006001600160a01b03168152602090f35b3461019e57604036600319011261019e57610bf1611137565b6001600160a01b03165f9081526003602052604090208054602435919082101561019e57602091610c21916112a0565b90549060031b1c604051908152f35b3461019e575f36600319011261019e57600154336001600160a01b0390911603610ca257600180546001600160a01b03199081169091555f805433928116831782556001600160a01b0316907f8be0079c531659141344cd1fd0a4f28419497f9722a3daafe3b4186f6b6457e09080a3005b63118cdaa760e01b5f523360045260245ffd5b3461019e575f36600319011261019e576020600754604051908152f35b3461019e575f36600319011261019e57610cea611323565b600180546001600160a01b03199081169091555f80549182168155906001600160a01b03167f8be0079c531659141344cd1fd0a4f28419497f9722a3daafe3b4186f6b6457e08280a3005b3461019e57602036600319011261019e576001600160a01b03610d56611137565b165f52600360205260405f20604051806020835491828152019081935f5260205f20905f5b818110610dd35750505081610d9191038261118e565b604051918291602083019060208452518091526040830191905f5b818110610dba575050500390f35b8251845285945060209384019390920191600101610dac565b8254845260209093019260019283019201610d7b565b3461019e57602036600319011261019e57600435600581101561019e57610e12610e4d9161115a565b610e1b816111b0565b90610e28600182016111b0565b610e5b60ff60036002850154940154169160405195869560808752608087019061127c565b90858203602087015261127c565b916040840152151560608301520390f35b3461019e57602036600319011261019e575f610140604051610e8d81611171565b8281528260208201528260408201528260608201528260808201528260a08201528260c08201528260e0820152826101008201528261012082015201526004355f52600260205261016060405f2060405190610ee882611171565b8054825260018101546001600160a01b0381166020840190815291906040840190610f199060a01c60ff16826112c9565b60028201546060850190815260038301546080860190815260018060a01b0360048501541660a0870190815260058501549160c0880192835260068601549360e08901948552610fb160ff600789015416966101008b019715158852600960088a0154996101208d019a8b520154996101408c019a8b526040519b518c5260018060a01b0390511660208c01525160408b019061114d565b516060890152516080880152516001600160a01b031660a08701525160c08601525160e08501525115156101008401525161012083015251610140820152f35b3461019e575f36600319011261019e576020600854604051908152f35b3461019e57602036600319011261019e576001600160a01b0361102f611137565b165f526005602052602060ff60405f2054166040519015158152f35b3461019e5761105936611118565b90611062611323565b6101f4821161107a5761107660029161115a565b0155005b60405162461bcd60e51b815260206004820152601b60248201527f4f6e52616d703a20636f6d6d697373696f6e20746f6f206869676800000000006044820152606490fd5b3461019e575f36600319011261019e576020600a54604051908152f35b3461019e576110f660026110ef36611118565b929061115a565b0154908181029181830414901517156104ba5760209061271060405191048152f35b604090600319011261019e57600435600581101561019e579060243590565b600435906001600160a01b038216820361019e57565b9060058210156109e55752565b60058110156109e5575f52600460205260405f2090565b610160810190811067ffffffffffffffff8211176103f457604052565b90601f8019910116810190811067ffffffffffffffff8211176103f457604052565b90604051915f8154908160011c9260018316928315611272575b60208510841461125e57848752869390811561123c57506001146111f8575b506111f69250038361118e565b565b90505f9291925260205f20905f915b8183106112205750509060206111f6928201015f6111e9565b6020919350806001915483858901015201910190918492611207565b9050602092506111f694915060ff191682840152151560051b8201015f6111e9565b634e487b7160e01b5f52602260045260245ffd5b93607f16936111ca565b805180835260209291819084018484015e5f828201840152601f01601f1916010190565b80548210156112b5575f5260205f2001905f90565b634e487b7160e01b5f52603260045260245ffd5b60058210156109e55752565b156112dc57565b60405162461bcd60e51b815260206004820152601260248201527127b72930b6b81d103737ba1035b2b2b832b960711b6044820152606490fd5b919082018092116104ba57565b5f546001600160a01b03163303610ca257565b916040519163a9059cbb60e01b5f5260018060a01b031660045260245260205f60448180865af19060015f5114821615611396575b604052156113765750565b635274afe760e01b5f9081526001600160a01b0391909116600452602490fd5b90600181151661050b57823b15153d1516169061136b56fea264697066735822122015a876f2fe14d21510f3e603e4ffec7d7135526cbc720c6f397b36c070a2bc5764736f6c634300081a0033",
  "linkReferences": {},
  "deployedLinkReferences": {}
}