{
  "_format": "hh-sol-artifact-1",
  "contractName": "WikiPropChallenge",
  "sourceName": "src/WikiPropChallenge.sol",
  "abi": [
    {
      "inputs": [
        {
          "internalType": "address",
          "name": "_usdc",
          "type": "address"
        },
        {
          "internalType": "address",
          "name": "_propEval",
          "type": "address"
        },
        {
          "internalType": "address",
          "name": "_propFunded",
          "type": "address"
        },
        {
          "internalType": "address",
          "name": "_treasury",
          "type": "address"
        },
        {
          "internalType": "address",
          "name": "_propPool",
          "type": "address"
        },
        {
          "internalType": "address",
          "name": "_owner",
          "type": "address"
        }
      ],
      "stateMutability": "nonpayable",
      "type": "constructor"
    },
    {
      "inputs": [
        {
          "internalType": "address",
          "name": "owner",
          "type": "address"
        }
      ],
      "name": "OwnableInvalidOwner",
      "type": "error"
    },
    {
      "inputs": [
        {
          "internalType": "address",
          "name": "account",
          "type": "address"
        }
      ],
      "name": "OwnableUnauthorizedAccount",
      "type": "error"
    },
    {
      "inputs": [],
      "name": "ReentrancyGuardReentrantCall",
      "type": "error"
    },
    {
      "inputs": [
        {
          "internalType": "address",
          "name": "token",
          "type": "address"
        }
      ],
      "name": "SafeERC20FailedOperation",
      "type": "error"
    },
    {
      "anonymous": false,
      "inputs": [
        {
          "indexed": true,
          "internalType": "uint256",
          "name": "id",
          "type": "uint256"
        },
        {
          "indexed": true,
          "internalType": "address",
          "name": "trader",
          "type": "address"
        },
        {
          "indexed": false,
          "internalType": "string",
          "name": "reason",
          "type": "string"
        }
      ],
      "name": "ChallengeFailed",
      "type": "event"
    },
    {
      "anonymous": false,
      "inputs": [
        {
          "indexed": true,
          "internalType": "uint256",
          "name": "id",
          "type": "uint256"
        },
        {
          "indexed": true,
          "internalType": "address",
          "name": "trader",
          "type": "address"
        },
        {
          "indexed": false,
          "internalType": "uint256",
          "name": "fundedAccountId",
          "type": "uint256"
        }
      ],
      "name": "ChallengePassed",
      "type": "event"
    },
    {
      "anonymous": false,
      "inputs": [
        {
          "indexed": true,
          "internalType": "uint256",
          "name": "id",
          "type": "uint256"
        },
        {
          "indexed": true,
          "internalType": "address",
          "name": "trader",
          "type": "address"
        },
        {
          "indexed": false,
          "internalType": "enum WikiPropChallenge.AccountTier",
          "name": "tier",
          "type": "uint8"
        },
        {
          "indexed": false,
          "internalType": "uint256",
          "name": "fee",
          "type": "uint256"
        }
      ],
      "name": "ChallengeStarted",
      "type": "event"
    },
    {
      "anonymous": false,
      "inputs": [
        {
          "indexed": true,
          "internalType": "address",
          "name": "previousOwner",
          "type": "address"
        },
        {
          "indexed": true,
          "internalType": "address",
          "name": "newOwner",
          "type": "address"
        }
      ],
      "name": "OwnershipTransferStarted",
      "type": "event"
    },
    {
      "anonymous": false,
      "inputs": [
        {
          "indexed": true,
          "internalType": "address",
          "name": "previousOwner",
          "type": "address"
        },
        {
          "indexed": true,
          "internalType": "address",
          "name": "newOwner",
          "type": "address"
        }
      ],
      "name": "OwnershipTransferred",
      "type": "event"
    },
    {
      "anonymous": false,
      "inputs": [
        {
          "indexed": true,
          "internalType": "uint256",
          "name": "id",
          "type": "uint256"
        },
        {
          "indexed": true,
          "internalType": "address",
          "name": "trader",
          "type": "address"
        },
        {
          "indexed": false,
          "internalType": "uint256",
          "name": "amount",
          "type": "uint256"
        }
      ],
      "name": "RefundClaimed",
      "type": "event"
    },
    {
      "anonymous": false,
      "inputs": [
        {
          "indexed": false,
          "internalType": "enum WikiPropChallenge.AccountTier",
          "name": "tier",
          "type": "uint8"
        },
        {
          "indexed": false,
          "internalType": "uint256",
          "name": "fee",
          "type": "uint256"
        },
        {
          "indexed": false,
          "internalType": "uint256",
          "name": "accountSize",
          "type": "uint256"
        }
      ],
      "name": "TierUpdated",
      "type": "event"
    },
    {
      "inputs": [],
      "name": "BPS",
      "outputs": [
        {
          "internalType": "uint256",
          "name": "",
          "type": "uint256"
        }
      ],
      "stateMutability": "view",
      "type": "function"
    },
    {
      "inputs": [],
      "name": "MAX_REFUND",
      "outputs": [
        {
          "internalType": "uint256",
          "name": "",
          "type": "uint256"
        }
      ],
      "stateMutability": "view",
      "type": "function"
    },
    {
      "inputs": [],
      "name": "POOL_SHARE",
      "outputs": [
        {
          "internalType": "uint256",
          "name": "",
          "type": "uint256"
        }
      ],
      "stateMutability": "view",
      "type": "function"
    },
    {
      "inputs": [],
      "name": "TREASURY_SHARE",
      "outputs": [
        {
          "internalType": "uint256",
          "name": "",
          "type": "uint256"
        }
      ],
      "stateMutability": "view",
      "type": "function"
    },
    {
      "inputs": [],
      "name": "USDC",
      "outputs": [
        {
          "internalType": "contract IERC20",
          "name": "",
          "type": "address"
        }
      ],
      "stateMutability": "view",
      "type": "function"
    },
    {
      "inputs": [],
      "name": "acceptOwnership",
      "outputs": [],
      "stateMutability": "nonpayable",
      "type": "function"
    },
    {
      "inputs": [],
      "name": "challengeCount",
      "outputs": [
        {
          "internalType": "uint256",
          "name": "",
          "type": "uint256"
        }
      ],
      "stateMutability": "view",
      "type": "function"
    },
    {
      "inputs": [
        {
          "internalType": "uint256",
          "name": "",
          "type": "uint256"
        }
      ],
      "name": "challenges",
      "outputs": [
        {
          "internalType": "address",
          "name": "trader",
          "type": "address"
        },
        {
          "internalType": "enum WikiPropChallenge.AccountTier",
          "name": "tier",
          "type": "uint8"
        },
        {
          "internalType": "uint256",
          "name": "feePaid",
          "type": "uint256"
        },
        {
          "internalType": "uint256",
          "name": "evalId",
          "type": "uint256"
        },
        {
          "internalType": "uint256",
          "name": "startTime",
          "type": "uint256"
        },
        {
          "internalType": "enum WikiPropChallenge.ChallengeStatus",
          "name": "status",
          "type": "uint8"
        },
        {
          "internalType": "bool",
          "name": "refundClaimed",
          "type": "bool"
        },
        {
          "internalType": "uint256",
          "name": "fundedAccountId",
          "type": "uint256"
        }
      ],
      "stateMutability": "view",
      "type": "function"
    },
    {
      "inputs": [
        {
          "internalType": "uint256",
          "name": "challengeId",
          "type": "uint256"
        }
      ],
      "name": "claimPassRefund",
      "outputs": [],
      "stateMutability": "nonpayable",
      "type": "function"
    },
    {
      "inputs": [
        {
          "internalType": "uint256",
          "name": "id",
          "type": "uint256"
        }
      ],
      "name": "getChallenge",
      "outputs": [
        {
          "components": [
            {
              "internalType": "address",
              "name": "trader",
              "type": "address"
            },
            {
              "internalType": "enum WikiPropChallenge.AccountTier",
              "name": "tier",
              "type": "uint8"
            },
            {
              "internalType": "uint256",
              "name": "feePaid",
              "type": "uint256"
            },
            {
              "internalType": "uint256",
              "name": "evalId",
              "type": "uint256"
            },
            {
              "internalType": "uint256",
              "name": "startTime",
              "type": "uint256"
            },
            {
              "internalType": "enum WikiPropChallenge.ChallengeStatus",
              "name": "status",
              "type": "uint8"
            },
            {
              "internalType": "bool",
              "name": "refundClaimed",
              "type": "bool"
            },
            {
              "internalType": "uint256",
              "name": "fundedAccountId",
              "type": "uint256"
            }
          ],
          "internalType": "struct WikiPropChallenge.Challenge",
          "name": "",
          "type": "tuple"
        }
      ],
      "stateMutability": "view",
      "type": "function"
    },
    {
      "inputs": [
        {
          "internalType": "enum WikiPropChallenge.AccountTier",
          "name": "tier",
          "type": "uint8"
        }
      ],
      "name": "getTier",
      "outputs": [
        {
          "components": [
            {
              "internalType": "uint256",
              "name": "accountSize",
              "type": "uint256"
            },
            {
              "internalType": "uint256",
              "name": "flatFee",
              "type": "uint256"
            },
            {
              "internalType": "uint256",
              "name": "passRefundBps",
              "type": "uint256"
            },
            {
              "internalType": "uint256",
              "name": "profitTargetBps",
              "type": "uint256"
            },
            {
              "internalType": "uint256",
              "name": "maxDailyDDBps",
              "type": "uint256"
            },
            {
              "internalType": "uint256",
              "name": "maxTotalDDBps",
              "type": "uint256"
            },
            {
              "internalType": "uint256",
              "name": "durationDays",
              "type": "uint256"
            },
            {
              "internalType": "uint8",
              "name": "evalTier",
              "type": "uint8"
            },
            {
              "internalType": "bool",
              "name": "instant",
              "type": "bool"
            }
          ],
          "internalType": "struct WikiPropChallenge.TierConfig",
          "name": "",
          "type": "tuple"
        }
      ],
      "stateMutability": "view",
      "type": "function"
    },
    {
      "inputs": [
        {
          "internalType": "address",
          "name": "trader",
          "type": "address"
        }
      ],
      "name": "getTraderChallenges",
      "outputs": [
        {
          "internalType": "uint256[]",
          "name": "",
          "type": "uint256[]"
        }
      ],
      "stateMutability": "view",
      "type": "function"
    },
    {
      "inputs": [
        {
          "internalType": "uint256",
          "name": "challengeId",
          "type": "uint256"
        },
        {
          "internalType": "string",
          "name": "reason",
          "type": "string"
        }
      ],
      "name": "markFailed",
      "outputs": [],
      "stateMutability": "nonpayable",
      "type": "function"
    },
    {
      "inputs": [
        {
          "internalType": "uint256",
          "name": "challengeId",
          "type": "uint256"
        },
        {
          "internalType": "uint256",
          "name": "fundedAccountId",
          "type": "uint256"
        }
      ],
      "name": "markPassed",
      "outputs": [],
      "stateMutability": "nonpayable",
      "type": "function"
    },
    {
      "inputs": [],
      "name": "owner",
      "outputs": [
        {
          "internalType": "address",
          "name": "",
          "type": "address"
        }
      ],
      "stateMutability": "view",
      "type": "function"
    },
    {
      "inputs": [],
      "name": "passRate",
      "outputs": [
        {
          "internalType": "uint256",
          "name": "",
          "type": "uint256"
        }
      ],
      "stateMutability": "view",
      "type": "function"
    },
    {
      "inputs": [],
      "name": "pendingOwner",
      "outputs": [
        {
          "internalType": "address",
          "name": "",
          "type": "address"
        }
      ],
      "stateMutability": "view",
      "type": "function"
    },
    {
      "inputs": [],
      "name": "projectedMonthlyRevenue",
      "outputs": [
        {
          "internalType": "uint256",
          "name": "",
          "type": "uint256"
        }
      ],
      "stateMutability": "view",
      "type": "function"
    },
    {
      "inputs": [],
      "name": "propEval",
      "outputs": [
        {
          "internalType": "contract IWikiPropEval",
          "name": "",
          "type": "address"
        }
      ],
      "stateMutability": "view",
      "type": "function"
    },
    {
      "inputs": [],
      "name": "propFunded",
      "outputs": [
        {
          "internalType": "contract IWikiPropFunded",
          "name": "",
          "type": "address"
        }
      ],
      "stateMutability": "view",
      "type": "function"
    },
    {
      "inputs": [],
      "name": "propPool",
      "outputs": [
        {
          "internalType": "address",
          "name": "",
          "type": "address"
        }
      ],
      "stateMutability": "view",
      "type": "function"
    },
    {
      "inputs": [],
      "name": "renounceOwnership",
      "outputs": [],
      "stateMutability": "nonpayable",
      "type": "function"
    },
    {
      "inputs": [
        {
          "internalType": "address",
          "name": "_eval",
          "type": "address"
        },
        {
          "internalType": "address",
          "name": "_funded",
          "type": "address"
        },
        {
          "internalType": "address",
          "name": "_treasury",
          "type": "address"
        },
        {
          "internalType": "address",
          "name": "_pool",
          "type": "address"
        }
      ],
      "name": "setContracts",
      "outputs": [],
      "stateMutability": "nonpayable",
      "type": "function"
    },
    {
      "inputs": [
        {
          "internalType": "address",
          "name": "_tl",
          "type": "address"
        }
      ],
      "name": "setTimelock",
      "outputs": [],
      "stateMutability": "nonpayable",
      "type": "function"
    },
    {
      "inputs": [
        {
          "internalType": "enum WikiPropChallenge.AccountTier",
          "name": "tier",
          "type": "uint8"
        },
        {
          "internalType": "uint256",
          "name": "instantSize",
          "type": "uint256"
        }
      ],
      "name": "startChallenge",
      "outputs": [
        {
          "internalType": "uint256",
          "name": "challengeId",
          "type": "uint256"
        }
      ],
      "stateMutability": "nonpayable",
      "type": "function"
    },
    {
      "inputs": [
        {
          "internalType": "uint256",
          "name": "",
          "type": "uint256"
        }
      ],
      "name": "tiers",
      "outputs": [
        {
          "internalType": "uint256",
          "name": "accountSize",
          "type": "uint256"
        },
        {
          "internalType": "uint256",
          "name": "flatFee",
          "type": "uint256"
        },
        {
          "internalType": "uint256",
          "name": "passRefundBps",
          "type": "uint256"
        },
        {
          "internalType": "uint256",
          "name": "profitTargetBps",
          "type": "uint256"
        },
        {
          "internalType": "uint256",
          "name": "maxDailyDDBps",
          "type": "uint256"
        },
        {
          "internalType": "uint256",
          "name": "maxTotalDDBps",
          "type": "uint256"
        },
        {
          "internalType": "uint256",
          "name": "durationDays",
          "type": "uint256"
        },
        {
          "internalType": "uint8",
          "name": "evalTier",
          "type": "uint8"
        },
        {
          "internalType": "bool",
          "name": "instant",
          "type": "bool"
        }
      ],
      "stateMutability": "view",
      "type": "function"
    },
    {
      "inputs": [],
      "name": "timelock",
      "outputs": [
        {
          "internalType": "address",
          "name": "",
          "type": "address"
        }
      ],
      "stateMutability": "view",
      "type": "function"
    },
    {
      "inputs": [],
      "name": "totalChallenges",
      "outputs": [
        {
          "internalType": "uint256",
          "name": "",
          "type": "uint256"
        }
      ],
      "stateMutability": "view",
      "type": "function"
    },
    {
      "inputs": [],
      "name": "totalFailed",
      "outputs": [
        {
          "internalType": "uint256",
          "name": "",
          "type": "uint256"
        }
      ],
      "stateMutability": "view",
      "type": "function"
    },
    {
      "inputs": [],
      "name": "totalFeesCollected",
      "outputs": [
        {
          "internalType": "uint256",
          "name": "",
          "type": "uint256"
        }
      ],
      "stateMutability": "view",
      "type": "function"
    },
    {
      "inputs": [],
      "name": "totalPassed",
      "outputs": [
        {
          "internalType": "uint256",
          "name": "",
          "type": "uint256"
        }
      ],
      "stateMutability": "view",
      "type": "function"
    },
    {
      "inputs": [],
      "name": "totalRefunded",
      "outputs": [
        {
          "internalType": "uint256",
          "name": "",
          "type": "uint256"
        }
      ],
      "stateMutability": "view",
      "type": "function"
    },
    {
      "inputs": [
        {
          "internalType": "address",
          "name": "",
          "type": "address"
        },
        {
          "internalType": "uint256",
          "name": "",
          "type": "uint256"
        }
      ],
      "name": "traderChallenges",
      "outputs": [
        {
          "internalType": "uint256",
          "name": "",
          "type": "uint256"
        }
      ],
      "stateMutability": "view",
      "type": "function"
    },
    {
      "inputs": [
        {
          "internalType": "address",
          "name": "newOwner",
          "type": "address"
        }
      ],
      "name": "transferOwnership",
      "outputs": [],
      "stateMutability": "nonpayable",
      "type": "function"
    },
    {
      "inputs": [],
      "name": "treasury",
      "outputs": [
        {
          "internalType": "address",
          "name": "",
          "type": "address"
        }
      ],
      "stateMutability": "view",
      "type": "function"
    },
    {
      "inputs": [
        {
          "internalType": "enum WikiPropChallenge.AccountTier",
          "name": "tier",
          "type": "uint8"
        },
        {
          "internalType": "uint256",
          "name": "newFee",
          "type": "uint256"
        }
      ],
      "name": "updateTierFee",
      "outputs": [],
      "stateMutability": "nonpayable",
      "type": "function"
    },
    {
      "inputs": [
        {
          "internalType": "enum WikiPropChallenge.AccountTier",
          "name": "tier",
          "type": "uint8"
        },
        {
          "internalType": "uint256",
          "name": "refundBps",
          "type": "uint256"
        }
      ],
      "name": "updateTierPassRefund",
      "outputs": [],
      "stateMutability": "nonpayable",
      "type": "function"
    },
    {
      "inputs": [
        {
          "internalType": "uint256",
          "name": "amount",
          "type": "uint256"
        },
        {
          "internalType": "address",
          "name": "to",
          "type": "address"
        }
      ],
      "name": "withdrawExcess",
      "outputs": [],
      "stateMutability": "nonpayable",
      "type": "function"
    }
  ],
  "bytecode": "0x60a06040523461055457604051601f611fbc38819003918201601f19168301916001600160401b038311848410176105585780849260c0946040528339810103126105545761004d8161058c565b6100596020830161058c565b906100666040840161058c565b6100726060850161058c565b9261007f6080860161058c565b946001600160a01b03906100959060a00161058c565b1692831561054157600180546001600160a01b03199081169091555f80549182168617815560405195916001600160a01b0316907f8be0079c531659141344cd1fd0a4f28419497f9722a3daafe3b4186f6b6457e09080a360017f9b779b17422d0df92223018b32b4d1fa46e071723d6817e2486d003becc55f00556001600160a01b031692831561050c57506001600160a01b03169081156104c7576001600160a01b031691821561048257608052600380546001600160a01b031990811692909217905560048054821692909217909155602f805482166001600160a01b03938416179055603080549091169290911691909117905561019561056c565b6402540be400815260ff602082016305e69ec0815260408301611388815260608401610320815260808501610190815260a0860191610320835260c0870193601e855260e0880195600187526101008901985f8a52516005555160065551600755516008555160095551600a5551600b55511661ff00600c549251151560081b169161ffff19161717600c5561022961056c565b6405d21dba00808252630bdc7fc06020830181905261138860408401819052610320606085018190526101f4608086018190526103e860a08701819052601e60c08801819052600260e089018190525f61010090990198909852600d96909655600e94909455600f929092556010556011556012556013556014805461ffff191690911790556102b761056c565b640ba43b74008082526311d260c06020830181905261138860408401819052610320606085018190526101f4608086018190526103e860a08701819052602d60c08801819052600260e089018190525f61010090990198909852601596909655601694909455601792909255601855601955601a55601b55601c805461ffff1916909117905561034561056c565b64174876e800815260ff60208201631dbe22c08152604083016113888152606084016103e8815260808501610190815260a0860191610320835260c0870193603c855260e0880195600287526101008901985f8a5251601d5551601e5551601f5551602055516021555160225551602355511661ff006024549251151560081b169161ffff191617176024556103d961056c565b5f8082526020820181905260408083018290526060830182905261012c6080840181905261025860a0850181905260c08501849052600360e08601526001610100909501949094526025839055602683905560278390556028839055602955602a92909255602b55602c805461ffff191661010317905551611a1b90816105a1823960805181818161031301528181610386015281816107a80152818161104101526113f70152f35b60405162461bcd60e51b815260206004820152601660248201527f57696b693a207a65726f205f70726f7046756e646564000000000000000000006044820152606490fd5b60405162461bcd60e51b815260206004820152601460248201527f57696b693a207a65726f205f70726f704576616c0000000000000000000000006044820152606490fd5b62461bcd60e51b815260206004820152601060248201526f57696b693a207a65726f205f7573646360801b6044820152606490fd5b631e4fbdf760e01b5f525f60045260245ffd5b5f80fd5b634e487b7160e01b5f52604160045260245ffd5b6040519061012082016001600160401b0381118382101761055857604052565b51906001600160a01b03821682036105545756fe6080806040526004361015610012575f80fd5b5f3560e01c908163039af9eb14611642575080631878bdab146116255780631ba19ab8146115875780631bdd4b7414611455578063249d39e914611439578063326961741461141d57806332b5a591146113cd5780633940fda4146112d45780634599791e146112ac57806360c6d8ae1461128f57806361d027b3146112675780636ac924a21461124b57806370fd2a6f1461119a578063715018a61461113757806379ba5097146110b257806380c9e4881461108a57806385108ebf1461107057806389a302711461102c5780638b1b99201461100a5780638da5cb5b14610fe35780638f1d377614610f46578063a2f0572514610f29578063b6d08b8514610e75578063b7eec32b14610e4d578063bdacb30314610dcb578063bf989b6e14610d16578063c2cc625414610ca9578063ca63605414610bdb578063cd9767d1146105dd578063d114e8ef146105c1578063d17defcb146105a4578063d33219b41461057c578063d90829621461055f578063e30c397814610537578063f2fde38b146104ca578063f607e4e614610237578063fcebcd281461021a5763fe8788b1146101be575f80fd5b34610216576040366003190112610216576101d76116fb565b6001600160a01b03165f908152602e60205260409020805460243591908210156102165760209161020791611760565b90549060031b1c604051908152f35b5f80fd5b34610216575f366003190112610216576020603454604051908152f35b346102165760203660031901126102165760043561025361198d565b61025c81611730565b5080546001600160a01b0316330361048c5760048101805460ff81166004811015610407576001036104565760ff8160081c1661041b5761ffff19166101031790558054600560ff60a083901c1610156104075761271091604060016102ce6107f86102da95609d1c166005016118aa565b92015491015190611828565b04908115158061036a575b6102fd575b60015f805160206119c683398151915255005b61030982603554611915565b60355561033782337f0000000000000000000000000000000000000000000000000000000000000000611935565b6040519182527ff3f402280ef0a7905e124aa621b65eaeb2725c343e8b36d398ed78c29daf285c60203393a380806102ea565b506040516370a0823160e01b81523060048201526020816024817f00000000000000000000000000000000000000000000000000000000000000006001600160a01b03165afa80156103fc5783915f916103c7575b5010156102e5565b9150506020813d6020116103f4575b816103e3602093836117fa565b8101031261021657829051846103bf565b3d91506103d6565b6040513d5f823e3d90fd5b634e487b7160e01b5f52602160045260245ffd5b60405162461bcd60e51b81526020600482015260136024820152721410ce88185b1c9958591e4818db185a5b5959606a1b6044820152606490fd5b60405162461bcd60e51b815260206004820152600e60248201526d1410ce881b9bdd081c185cdcd95960921b6044820152606490fd5b60405162461bcd60e51b815260206004820152601660248201527550433a206e6f7420796f7572206368616c6c656e676560501b6044820152606490fd5b34610216576020366003190112610216576104e36116fb565b6104eb611922565b60018060a01b0316806001600160601b0360a01b600154161760015560018060a01b035f54167f38d16b8cac22d99fc7c124b9cd0de2d3fa1faef420bfe791d8c362d765e227005f80a3005b34610216575f366003190112610216576001546040516001600160a01b039091168152602090f35b34610216575f366003190112610216576020603554604051908152f35b34610216575f366003190112610216576002546040516001600160a01b039091168152602090f35b34610216575f366003190112610216576020603254604051908152f35b34610216575f366003190112610216576020604051611f408152f35b34610216576105eb36611711565b6105f361198d565b60058210156104075761060b8260031b6005016118aa565b9160048114918215610bcd57633b9aca008110610b9257642e90edd0008111610b55578061012c81029080820461012c1490151715610aa5576127109004905b8115610b2157602d5493604051610661816117c0565b33815260208101610672868261181c565b6040820190858252606083015f81526080840142815260a08501915f835260c08601945f865260e08701945f8652600160401b8d1015610afa5760018d01602d556106bc8d611730565b989098610b0e575188546001600160a01b0319166001600160a01b039190911617885551600581101561040757875460ff60a01b191660a09190911b60ff60a01b161787555160018701555160028601555160038501555191600480850191908410156104075760059360ff8019845416911617825551151561ff0082549160081b169061ff00191617905551910155335f52602e60205260405f208054600160401b811015610afa5761077591600182018155611760565b81549060031b9087821b915f19901b191617905561079583603154611915565b6031556107a36032546117b2565b6032557f00000000000000000000000000000000000000000000000000000000000000006040516323b872dd60e01b5f5233600452306024528460445260205f60648180865af19060015f5114821615610ad9575b6040525f60605215610ab957611b588402848104611b5803610aa557612710900480850390858211610aa55780151580610a91575b610a74575b85141580610a60575b610a41575b505080610a2d575b1561098a57602090608460ff60e060018060a01b036004541698015116915f60405198899485936313ccf7d960e01b855233600486015260248501526044840152611f4060648401525af180156103fc575f90610957575b6020945060046108af85611730565b5001805460ff191660011790558060056108c886611730565b5001556108d66033546117b2565b603355604051908152837f9593c2c42ab212a5924f1336d6825b06896563e5b6510f218bced2e40b95c0ec863393a35b61091360405180936116cb565b83820152817fc04a8c0ae18130bb1927a416b4b278ec67c7145554d23864cddba560014aa72c60403393a360015f805160206119c683398151915255604051908152f35b506020843d602011610982575b81610971602093836117fa565b8101031261021657602093516108a0565b3d9150610964565b6003546001600160a01b031694856109a8575b505060209350610906565b90604460ff60e06020940151165f6040519889948593634abf6b3f60e11b8552600485015260248401525af180156103fc575f906109fa575b6020945060026109f085611730565b500155848061099d565b506020843d602011610a25575b81610a14602093836117fa565b8101031261021657602093516109e1565b3d9150610a07565b506004546001600160a01b03161515610848565b603054610a59926001600160a01b0390911690611935565b8680610840565b506030546001600160a01b0316151561083b565b602f54610a8c9082906001600160a01b031685611935565b610832565b50602f546001600160a01b0316151561082d565b634e487b7160e01b5f52601160045260245ffd5b635274afe760e01b5f9081526001600160a01b0391909116600452602490fd5b906001811516610af157823b15153d151616906107f8565b503d5f823e3d90fd5b634e487b7160e01b5f52604160045260245ffd5b634e487b7160e01b5f525f60045260245ffd5b60405162461bcd60e51b815260206004820152600c60248201526b50433a207a65726f2066656560a01b6044820152606490fd5b60405162461bcd60e51b81526020600482015260156024820152741410ce881b585e08090c8c0c12c81858d8dbdd5b9d605a1b6044820152606490fd5b60405162461bcd60e51b81526020600482015260136024820152721410ce881b5a5b88090c52c81858d8dbdd5b9d606a1b6044820152606490fd5b50825160208401519061064b565b3461021657602036600319011261021657600435600581101561021657610c49610120915f610100604051610c0f816117dd565b8281528260208201528260408201528260608201528260808201528260a08201528260c08201528260e0820152015260031b6005016118aa565b61010060405191805183526020810151602084015260408101516040840152606081015160608401526080810151608084015260a081015160a084015260c081015160c084015260ff60e08201511660e084015201511515610100820152f35b3461021657610cb736611711565b90610cc0611922565b611f408211610cdb5760058110156104075760031b60070155005b60405162461bcd60e51b81526020600482015260136024820152720a0867440e4cacceadcc840e8dede40d0d2ced606b1b6044820152606490fd5b3461021657608036600319011261021657610d2f6116fb565b610d376116e5565b6044356001600160a01b0381169190829003610216576064356001600160a01b038116939084900361021657610d6b611922565b60018060a01b03166001600160601b0360a01b600354161760035560018060a01b03166001600160601b0360a01b60045416176004556001600160601b0360a01b602f541617602f556001600160601b0360a01b60305416176030555f80f35b3461021657602036600319011261021657610de46116fb565b610dec611922565b6001600160a01b03168015610e12576001600160601b0360a01b60025416176002555f80f35b60405162461bcd60e51b815260206004820152601360248201527257696b693a207a65726f2074696d656c6f636b60681b6044820152606490fd5b34610216575f366003190112610216576004546040516001600160a01b039091168152602090f35b34610216576020366003190112610216576001600160a01b03610e966116fb565b165f52602e60205260405f20604051806020835491828152019081935f5260205f20905f5b818110610f135750505081610ed19103826117fa565b604051918291602083019060208452518091526040830191905f5b818110610efa575050500390f35b8251845285945060209384019390920191600101610eec565b8254845260209093019260019283019201610ebb565b34610216575f366003190112610216576020602d54604051908152f35b3461021657602036600319011261021657600435602d5481101561021657610f7061010091611730565b5080549060ff60018201549160028101546003820154906005600484015493015494610fb36040519760018060a01b03811689528660208a019160a01c166116cb565b604087015260608601526080850152610fd160a085018383166116d8565b60081c16151560c083015260e0820152f35b34610216575f366003190112610216575f546040516001600160a01b039091168152602090f35b34610216575f36600319011261021657602061102461188c565b604051908152f35b34610216575f366003190112610216576040517f00000000000000000000000000000000000000000000000000000000000000006001600160a01b03168152602090f35b34610216575f366003190112610216576020611024611859565b34610216575f366003190112610216576003546040516001600160a01b039091168152602090f35b34610216575f36600319011261021657600154336001600160a01b039091160361112457600180546001600160a01b03199081169091555f805433928116831782556001600160a01b0316907f8be0079c531659141344cd1fd0a4f28419497f9722a3daafe3b4186f6b6457e09080a3005b63118cdaa760e01b5f523360045260245ffd5b34610216575f3660031901126102165761114f611922565b600180546001600160a01b03199081169091555f80549182168155906001600160a01b03167f8be0079c531659141344cd1fd0a4f28419497f9722a3daafe3b4186f6b6457e08280a3005b34610216576111a836611711565b6111b0611922565b64012a05f2008111611213576005821015610407577f52411122af13cde1f5bb4cd1735d2d3de551b3e1516262dfb8a18c730246b98c916060918160031b816006820155600501549061120660405180946116cb565b60208301526040820152a1005b60405162461bcd60e51b815260206004820152601060248201526f0a0867440cccaca40e8dede40d0d2ced60831b6044820152606490fd5b34610216575f366003190112610216576020604051610bb88152f35b34610216575f36600319011261021657602f546040516001600160a01b039091168152602090f35b34610216575f366003190112610216576020603154604051908152f35b34610216575f366003190112610216576030546040516001600160a01b039091168152602090f35b346102165760403660031901126102165760243560043567ffffffffffffffff821161021657366023830112156102165781600401359167ffffffffffffffff83116102165736602484830101116102165761132e611922565b61133782611730565b5090600482019060ff825416906004821015610407577fc1ba9d0bc796e3982b9b576e93c2374fcad6447a045642c3bad87a5f2b3a93949360249361137e60409415611775565b600260ff198254161790556113946034546117b2565b60345560018060a01b03905416958083519485936020855282602086015201848401375f828201840152601f01601f19168101030190a3005b346102165760403660031901126102165761141b6113e96116e5565b6113f1611922565b600435907f0000000000000000000000000000000000000000000000000000000000000000611935565b005b34610216575f366003190112610216576020604051611b588152f35b34610216575f3660031901126102165760206040516127108152f35b34610216576020366003190112610216575f60e0604051611475816117c0565b8281528260208201528260408201528260608201528260808201528260a08201528260c082015201526114a9600435611730565b506040516114b6816117c0565b81546001600160a01b038116825260208201906114d99060a01c60ff168261181c565b6001830154604083019081526002840154606084019081526003850154916080850192835260048601549260ff84169260a087019260048510156104075761155a60056101009a61157797875260ff60c08c019960081c161515895201549760e08a019889526040519960018060a01b039051168a525160208a01906116cb565b5160408801525160608701525160808601525160a08501906116d8565b51151560c08301525160e0820152f35b34610216576040366003190112610216576024356004356115a6611922565b6115af81611730565b50600481019060ff825416906004821015610407577f9593c2c42ab212a5924f1336d6825b06896563e5b6510f218bced2e40b95c0ec926115f260209315611775565b600160ff1982541617905584600582015561160e6033546117b2565b603355546040519485526001600160a01b031693a3005b34610216575f366003190112610216576020603354604051908152f35b34610216576020366003190112610216576004359060058210156102165760ff6101209260031b806005015490600681015460078201546008830154600984015491600a85015493600c600b870154960154968952602089015260408801526060870152608086015260a085015260c084015281811660e084015260081c161515610100820152f35b9060058210156104075752565b9060048210156104075752565b602435906001600160a01b038216820361021657565b600435906001600160a01b038216820361021657565b6040906003190112610216576004356005811015610216579060243590565b602d5481101561174c57602d5f52600660205f20910201905f90565b634e487b7160e01b5f52603260045260245ffd5b805482101561174c575f5260205f2001905f90565b1561177c57565b60405162461bcd60e51b815260206004820152600e60248201526d50433a206e6f742061637469766560901b6044820152606490fd5b5f198114610aa55760010190565b610100810190811067ffffffffffffffff821117610afa57604052565b610120810190811067ffffffffffffffff821117610afa57604052565b90601f8019910116810190811067ffffffffffffffff821117610afa57604052565b60058210156104075752565b81810292918115918404141715610aa557565b8115611845570490565b634e487b7160e01b5f52601260045260245ffd5b603254801561188757603354906127108202918083046127101490151715610aa5576118849161183b565b90565b505f90565b603254801561188757806118a56118849260315461183b565b611828565b906040516118b7816117dd565b61010060ff600783958054855260018101546020860152600281015460408601526003810154606086015260048101546080860152600581015460a0860152600681015460c0860152015481811660e085015260081c161515910152565b91908201809211610aa557565b5f546001600160a01b0316330361112457565b916040519163a9059cbb60e01b5f5260018060a01b031660045260245260205f60448180865af19060015f5114821615611975575b60405215610ab95750565b906001811516610af157823b15153d1516169061196a565b60025f805160206119c683398151915254146119b65760025f805160206119c683398151915255565b633ee5aeb560e01b5f5260045ffdfe9b779b17422d0df92223018b32b4d1fa46e071723d6817e2486d003becc55f00a2646970667358221220f629cc6250fa790b717357520460bebb15612efe5431a8c34dd11285b562dbd764736f6c634300081a0033",
  "linkReferences": {},
  "deployedLinkReferences": {}
}