{
  "_format": "hh-sol-artifact-1",
  "contractName": "WikiSeasonPoints",
  "sourceName": "src/WikiSeasonPoints.sol",
  "abi": [
    {
      "inputs": [
        {
          "internalType": "address",
          "name": "_owner",
          "type": "address"
        },
        {
          "internalType": "address",
          "name": "_wik",
          "type": "address"
        },
        {
          "internalType": "address",
          "name": "_usdc",
          "type": "address"
        }
      ],
      "stateMutability": "nonpayable",
      "type": "constructor"
    },
    {
      "inputs": [
        {
          "internalType": "address",
          "name": "owner",
          "type": "address"
        }
      ],
      "name": "OwnableInvalidOwner",
      "type": "error"
    },
    {
      "inputs": [
        {
          "internalType": "address",
          "name": "account",
          "type": "address"
        }
      ],
      "name": "OwnableUnauthorizedAccount",
      "type": "error"
    },
    {
      "inputs": [
        {
          "internalType": "address",
          "name": "token",
          "type": "address"
        }
      ],
      "name": "SafeERC20FailedOperation",
      "type": "error"
    },
    {
      "anonymous": false,
      "inputs": [
        {
          "indexed": true,
          "internalType": "address",
          "name": "previousOwner",
          "type": "address"
        },
        {
          "indexed": true,
          "internalType": "address",
          "name": "newOwner",
          "type": "address"
        }
      ],
      "name": "OwnershipTransferStarted",
      "type": "event"
    },
    {
      "anonymous": false,
      "inputs": [
        {
          "indexed": true,
          "internalType": "address",
          "name": "previousOwner",
          "type": "address"
        },
        {
          "indexed": true,
          "internalType": "address",
          "name": "newOwner",
          "type": "address"
        }
      ],
      "name": "OwnershipTransferred",
      "type": "event"
    },
    {
      "anonymous": false,
      "inputs": [
        {
          "indexed": false,
          "internalType": "uint256",
          "name": "seasonId",
          "type": "uint256"
        },
        {
          "indexed": false,
          "internalType": "address",
          "name": "trader",
          "type": "address"
        },
        {
          "indexed": false,
          "internalType": "uint256",
          "name": "points",
          "type": "uint256"
        },
        {
          "indexed": false,
          "internalType": "string",
          "name": "reason",
          "type": "string"
        }
      ],
      "name": "PointsAwarded",
      "type": "event"
    },
    {
      "anonymous": false,
      "inputs": [
        {
          "indexed": false,
          "internalType": "uint256",
          "name": "seasonId",
          "type": "uint256"
        },
        {
          "indexed": false,
          "internalType": "address",
          "name": "trader",
          "type": "address"
        },
        {
          "indexed": false,
          "internalType": "uint256",
          "name": "wik",
          "type": "uint256"
        },
        {
          "indexed": false,
          "internalType": "uint256",
          "name": "usdc",
          "type": "uint256"
        }
      ],
      "name": "RewardClaimed",
      "type": "event"
    },
    {
      "anonymous": false,
      "inputs": [
        {
          "indexed": false,
          "internalType": "uint256",
          "name": "seasonId",
          "type": "uint256"
        },
        {
          "indexed": false,
          "internalType": "uint256",
          "name": "totalPoints",
          "type": "uint256"
        }
      ],
      "name": "SeasonFinalized",
      "type": "event"
    },
    {
      "anonymous": false,
      "inputs": [
        {
          "indexed": false,
          "internalType": "uint256",
          "name": "seasonId",
          "type": "uint256"
        },
        {
          "indexed": false,
          "internalType": "uint256",
          "name": "start",
          "type": "uint256"
        },
        {
          "indexed": false,
          "internalType": "uint256",
          "name": "end",
          "type": "uint256"
        },
        {
          "indexed": false,
          "internalType": "uint256",
          "name": "rewardPool",
          "type": "uint256"
        }
      ],
      "name": "SeasonStarted",
      "type": "event"
    },
    {
      "inputs": [],
      "name": "BPS",
      "outputs": [
        {
          "internalType": "uint256",
          "name": "",
          "type": "uint256"
        }
      ],
      "stateMutability": "view",
      "type": "function"
    },
    {
      "inputs": [],
      "name": "SEASON_DURATION",
      "outputs": [
        {
          "internalType": "uint256",
          "name": "",
          "type": "uint256"
        }
      ],
      "stateMutability": "view",
      "type": "function"
    },
    {
      "inputs": [],
      "name": "acceptOwnership",
      "outputs": [],
      "stateMutability": "nonpayable",
      "type": "function"
    },
    {
      "inputs": [
        {
          "internalType": "address",
          "name": "trader",
          "type": "address"
        },
        {
          "internalType": "bool",
          "name": "passed",
          "type": "bool"
        }
      ],
      "name": "awardPropPoints",
      "outputs": [],
      "stateMutability": "nonpayable",
      "type": "function"
    },
    {
      "inputs": [
        {
          "internalType": "address",
          "name": "referrer",
          "type": "address"
        }
      ],
      "name": "awardReferralPoints",
      "outputs": [],
      "stateMutability": "nonpayable",
      "type": "function"
    },
    {
      "inputs": [
        {
          "internalType": "address",
          "name": "trader",
          "type": "address"
        },
        {
          "internalType": "uint256",
          "name": "veWIKAmount",
          "type": "uint256"
        }
      ],
      "name": "awardStakingPoints",
      "outputs": [],
      "stateMutability": "nonpayable",
      "type": "function"
    },
    {
      "inputs": [
        {
          "internalType": "address",
          "name": "trader",
          "type": "address"
        },
        {
          "internalType": "uint256",
          "name": "notionalUsdc",
          "type": "uint256"
        }
      ],
      "name": "awardVolumePoints",
      "outputs": [],
      "stateMutability": "nonpayable",
      "type": "function"
    },
    {
      "inputs": [
        {
          "internalType": "uint256",
          "name": "seasonId",
          "type": "uint256"
        }
      ],
      "name": "claimReward",
      "outputs": [],
      "stateMutability": "nonpayable",
      "type": "function"
    },
    {
      "inputs": [],
      "name": "currentSeason",
      "outputs": [
        {
          "internalType": "uint256",
          "name": "",
          "type": "uint256"
        }
      ],
      "stateMutability": "view",
      "type": "function"
    },
    {
      "inputs": [],
      "name": "finalizeSeason",
      "outputs": [],
      "stateMutability": "nonpayable",
      "type": "function"
    },
    {
      "inputs": [
        {
          "internalType": "uint256",
          "name": "seasonId",
          "type": "uint256"
        },
        {
          "internalType": "uint256",
          "name": "topN",
          "type": "uint256"
        }
      ],
      "name": "getLeaderboard",
      "outputs": [
        {
          "internalType": "address[]",
          "name": "traders",
          "type": "address[]"
        },
        {
          "internalType": "uint256[]",
          "name": "points",
          "type": "uint256[]"
        }
      ],
      "stateMutability": "view",
      "type": "function"
    },
    {
      "inputs": [
        {
          "internalType": "address",
          "name": "trader",
          "type": "address"
        }
      ],
      "name": "getMyXP",
      "outputs": [
        {
          "internalType": "uint256",
          "name": "total",
          "type": "uint256"
        },
        {
          "internalType": "uint256",
          "name": "rank",
          "type": "uint256"
        },
        {
          "internalType": "uint256",
          "name": "streak",
          "type": "uint256"
        },
        {
          "internalType": "uint256",
          "name": "multiplier",
          "type": "uint256"
        },
        {
          "internalType": "uint256",
          "name": "daysLeft",
          "type": "uint256"
        },
        {
          "internalType": "bool",
          "name": "canClaim",
          "type": "bool"
        }
      ],
      "stateMutability": "view",
      "type": "function"
    },
    {
      "inputs": [],
      "name": "owner",
      "outputs": [
        {
          "internalType": "address",
          "name": "",
          "type": "address"
        }
      ],
      "stateMutability": "view",
      "type": "function"
    },
    {
      "inputs": [],
      "name": "pendingOwner",
      "outputs": [
        {
          "internalType": "address",
          "name": "",
          "type": "address"
        }
      ],
      "stateMutability": "view",
      "type": "function"
    },
    {
      "inputs": [
        {
          "internalType": "address",
          "name": "",
          "type": "address"
        }
      ],
      "name": "recorders",
      "outputs": [
        {
          "internalType": "bool",
          "name": "",
          "type": "bool"
        }
      ],
      "stateMutability": "view",
      "type": "function"
    },
    {
      "inputs": [
        {
          "internalType": "uint256",
          "name": "",
          "type": "uint256"
        },
        {
          "internalType": "address",
          "name": "",
          "type": "address"
        }
      ],
      "name": "registered",
      "outputs": [
        {
          "internalType": "bool",
          "name": "",
          "type": "bool"
        }
      ],
      "stateMutability": "view",
      "type": "function"
    },
    {
      "inputs": [],
      "name": "renounceOwnership",
      "outputs": [],
      "stateMutability": "nonpayable",
      "type": "function"
    },
    {
      "inputs": [
        {
          "internalType": "uint256",
          "name": "",
          "type": "uint256"
        },
        {
          "internalType": "uint256",
          "name": "",
          "type": "uint256"
        }
      ],
      "name": "seasonTraders",
      "outputs": [
        {
          "internalType": "address",
          "name": "",
          "type": "address"
        }
      ],
      "stateMutability": "view",
      "type": "function"
    },
    {
      "inputs": [
        {
          "internalType": "uint256",
          "name": "",
          "type": "uint256"
        }
      ],
      "name": "seasons",
      "outputs": [
        {
          "internalType": "uint256",
          "name": "id",
          "type": "uint256"
        },
        {
          "internalType": "uint256",
          "name": "startTs",
          "type": "uint256"
        },
        {
          "internalType": "uint256",
          "name": "endTs",
          "type": "uint256"
        },
        {
          "internalType": "uint256",
          "name": "rewardPoolWIK",
          "type": "uint256"
        },
        {
          "internalType": "uint256",
          "name": "rewardPoolUSDC",
          "type": "uint256"
        },
        {
          "internalType": "uint256",
          "name": "totalPoints",
          "type": "uint256"
        },
        {
          "internalType": "bool",
          "name": "finalized",
          "type": "bool"
        },
        {
          "internalType": "bool",
          "name": "active",
          "type": "bool"
        }
      ],
      "stateMutability": "view",
      "type": "function"
    },
    {
      "inputs": [
        {
          "internalType": "address",
          "name": "r",
          "type": "address"
        },
        {
          "internalType": "bool",
          "name": "on",
          "type": "bool"
        }
      ],
      "name": "setRecorder",
      "outputs": [],
      "stateMutability": "nonpayable",
      "type": "function"
    },
    {
      "inputs": [
        {
          "internalType": "uint256",
          "name": "vol",
          "type": "uint256"
        },
        {
          "internalType": "uint256",
          "name": "daily",
          "type": "uint256"
        },
        {
          "internalType": "uint256",
          "name": "ref",
          "type": "uint256"
        }
      ],
      "name": "setXPRates",
      "outputs": [],
      "stateMutability": "nonpayable",
      "type": "function"
    },
    {
      "inputs": [
        {
          "internalType": "uint256",
          "name": "rewardWIK",
          "type": "uint256"
        },
        {
          "internalType": "uint256",
          "name": "rewardUSDC",
          "type": "uint256"
        }
      ],
      "name": "startSeason",
      "outputs": [],
      "stateMutability": "nonpayable",
      "type": "function"
    },
    {
      "inputs": [
        {
          "internalType": "address",
          "name": "newOwner",
          "type": "address"
        }
      ],
      "name": "transferOwnership",
      "outputs": [],
      "stateMutability": "nonpayable",
      "type": "function"
    },
    {
      "inputs": [],
      "name": "usdc",
      "outputs": [
        {
          "internalType": "contract IERC20",
          "name": "",
          "type": "address"
        }
      ],
      "stateMutability": "view",
      "type": "function"
    },
    {
      "inputs": [],
      "name": "wik",
      "outputs": [
        {
          "internalType": "contract IERC20",
          "name": "",
          "type": "address"
        }
      ],
      "stateMutability": "view",
      "type": "function"
    },
    {
      "inputs": [
        {
          "internalType": "uint256",
          "name": "",
          "type": "uint256"
        },
        {
          "internalType": "address",
          "name": "",
          "type": "address"
        }
      ],
      "name": "xp",
      "outputs": [
        {
          "internalType": "uint256",
          "name": "totalPoints",
          "type": "uint256"
        },
        {
          "internalType": "uint256",
          "name": "volumePoints",
          "type": "uint256"
        },
        {
          "internalType": "uint256",
          "name": "dailyPoints",
          "type": "uint256"
        },
        {
          "internalType": "uint256",
          "name": "propPoints",
          "type": "uint256"
        },
        {
          "internalType": "uint256",
          "name": "referralPoints",
          "type": "uint256"
        },
        {
          "internalType": "uint256",
          "name": "stakingPoints",
          "type": "uint256"
        },
        {
          "internalType": "uint256",
          "name": "streak",
          "type": "uint256"
        },
        {
          "internalType": "uint256",
          "name": "lastTradeDay",
          "type": "uint256"
        },
        {
          "internalType": "uint256",
          "name": "streakMultiplierBps",
          "type": "uint256"
        },
        {
          "internalType": "uint256",
          "name": "claimed",
          "type": "uint256"
        }
      ],
      "stateMutability": "view",
      "type": "function"
    },
    {
      "inputs": [],
      "name": "xpPerDay",
      "outputs": [
        {
          "internalType": "uint256",
          "name": "",
          "type": "uint256"
        }
      ],
      "stateMutability": "view",
      "type": "function"
    },
    {
      "inputs": [],
      "name": "xpPerHundredNotional",
      "outputs": [
        {
          "internalType": "uint256",
          "name": "",
          "type": "uint256"
        }
      ],
      "stateMutability": "view",
      "type": "function"
    },
    {
      "inputs": [],
      "name": "xpPerTenVeWIK",
      "outputs": [
        {
          "internalType": "uint256",
          "name": "",
          "type": "uint256"
        }
      ],
      "stateMutability": "view",
      "type": "function"
    },
    {
      "inputs": [],
      "name": "xpPropBuy",
      "outputs": [
        {
          "internalType": "uint256",
          "name": "",
          "type": "uint256"
        }
      ],
      "stateMutability": "view",
      "type": "function"
    },
    {
      "inputs": [],
      "name": "xpPropPass",
      "outputs": [
        {
          "internalType": "uint256",
          "name": "",
          "type": "uint256"
        }
      ],
      "stateMutability": "view",
      "type": "function"
    },
    {
      "inputs": [],
      "name": "xpReferral",
      "outputs": [
        {
          "internalType": "uint256",
          "name": "",
          "type": "uint256"
        }
      ],
      "stateMutability": "view",
      "type": "function"
    }
  ],
  "bytecode": "0x60803461014a57601f6116fb38819003918201601f19168301916001600160401b0383118484101761014e5780849260609460405283398101031261014a5761004781610162565b61005f604061005860208501610162565b9301610162565b6001600160a01b0390911690811561013757600180546001600160a01b03199081169091555f805491821684178155604051949184916001600160a01b03909116907f8be0079c531659141344cd1fd0a4f28419497f9722a3daafe3b4186f6b6457e09080a36001600a55600a600b556101f4600c556107d0600d556064600e556001600f5560018060a01b031660018060a01b0319600254161760025560018060a01b031660018060a01b031960035416176003555f52600860205260405f20600160ff1982541617905561158490816101778239f35b631e4fbdf760e01b5f525f60045260245ffd5b5f80fd5b634e487b7160e01b5f52604160045260245ffd5b51906001600160a01b038216820361014a5756fe6080806040526004361015610012575f80fd5b5f3560e01c90816318dd04e014610fc8575080631bfb734114610fab5780631e37402e14610ec5578063249d39e914610ea957806325c7fcdf14610cac57806330fb8f8a14610bf95780633e413bee14610bd157806344b50a2414610bac5780636b39349f14610b6e5780636ebdb65d14610b41578063715018a614610ade57806373af16fc1461090057806379ba50971461087b5780637e263b2e1461085e57806381fabe97146108215780638c817b6e146107d85780638da5cb5b146107b1578063ac03f63914610794578063ae169a501461059b578063ae43dfa51461051b578063bcb39621146104fe578063d7b9d2f814610456578063dc185e3514610439578063e16c85981461041c578063e30c3978146103f4578063e9ea868b146103d7578063ed1aa49214610342578063f2fde38b146102d0578063f5d709a114610252578063f821275a146101f0578063fb67f982146101c85763fe159db81461017c575f80fd5b346101c45761018a3661100e565b905f52600660205260405f2080548210156101c4576020916101ab91611053565b905460405160039290921b1c6001600160a01b03168152f35b5f80fd5b346101c4575f3660031901126101c4576002546040516001600160a01b039091168152602090f35b346101c45760203660031901126101c45761025061020c610fe2565b335f52600860205261022460ff60405f2054166110cc565b600e54604051916102366040846110aa565b60088352671c9959995c9c985b60c21b602084015261124b565b005b346101c45760203660031901126101c4576004355f52600460205261010060405f2060ff815491600181015490600281015460038201546004830154916006600585015494015494604051978852602088015260408701526060860152608085015260a0840152818116151560c084015260081c16151560e0820152f35b346101c45760203660031901126101c4576102e9610fe2565b6102f16111a6565b60018060a01b0316806bffffffffffffffffffffffff60a01b600154161760015560018060a01b035f54167f38d16b8cac22d99fc7c124b9cd0de2d3fa1faef420bfe791d8c362d765e227005f80a3005b346101c45761025061035336611024565b335f52600860205261036b60ff60405f2054166110cc565b80156103ce57600d54905b156103a5576040516103896040826110aa565b600981526870726f705f7061737360b81b60208201529161124b565b6040516103b36040826110aa565b600881526770726f705f62757960c01b60208201529161124b565b600c5490610376565b346101c4575f3660031901126101c4576020600a54604051908152f35b346101c4575f3660031901126101c4576001546040516001600160a01b039091168152602090f35b346101c4575f3660031901126101c4576020600d54604051908152f35b346101c4575f3660031901126101c45760206040516276a7008152f35b346101c45760403660031901126101c45761046f610ff8565b6004355f52600560205260405f209060018060a01b03165f5260205261014060405f208054906001810154906002810154600382015460048301546005840154906006850154926007860154946009600888015497015497604051998a5260208a015260408901526060880152608087015260a086015260c085015260e0840152610100830152610120820152f35b346101c4575f3660031901126101c4576020600954604051908152f35b346101c45760403660031901126101c457610534610fe2565b335f52600860205261054c60ff60405f2054166110cc565b610567600f54600a670de0b6b3a7640000602435040461107c565b908161056f57005b61025091604051916105826040846110aa565b60078352667374616b696e6760c81b602084015261124b565b346101c45760203660031901126101c457600480355f8181526020928352604080822060058552818320338452909452902060068301549092919060ff161561074f57825492831561071a5760090180546106df57612710840292848404612710036106cb5760058101549485156106b7576127106106537ffc6ecd966b430510beae9124efe7dd517ed5286d7ed0ae258f8556c7a9765a44976080970460048361064a83600389015461107c565b0495015461107c565b04925580610699575b8161067b575b60405192835233602084015260408301526060820152a1005b60035461069490839033906001600160a01b03166114f6565b610662565b6002546106b290829033906001600160a01b03166114f6565b61065c565b634e487b7160e01b5f52601260045260245ffd5b634e487b7160e01b5f52601160045260245ffd5b60405162461bcd60e51b815260206004820152601360248201527216140e88185b1c9958591e4818db185a5b5959606a1b6044820152606490fd5b60405162461bcd60e51b815260206004820152600d60248201526c58503a206e6f20706f696e747360981b6044820152606490fd5b60405162461bcd60e51b815260206004820152601860248201527f58503a20736561736f6e206e6f742066696e616c697a656400000000000000006044820152606490fd5b346101c4575f3660031901126101c4576020600f54604051908152f35b346101c4575f3660031901126101c4575f546040516001600160a01b039091168152602090f35b346101c45760403660031901126101c4576107f1610ff8565b6004355f52600760205260405f209060018060a01b03165f52602052602060ff60405f2054166040519015158152f35b346101c45760203660031901126101c4576001600160a01b03610842610fe2565b165f526008602052602060ff60405f2054166040519015158152f35b346101c4575f3660031901126101c4576020600c54604051908152f35b346101c4575f3660031901126101c457600154336001600160a01b03909116036108ed57600180546001600160a01b03199081169091555f805433928116831782556001600160a01b0316907f8be0079c531659141344cd1fd0a4f28419497f9722a3daafe3b4186f6b6457e09080a3005b63118cdaa760e01b5f523360045260245ffd5b346101c45761090e3661100e565b90805f52600660205260405f2091604051808460208296549384815201905f5260205f20925f5b818110610abc57505061094a925003846110aa565b825180821015610ab45750905b6109608261117a565b9161096e60405193846110aa565b80835261097a8161117a565b602084019190601f19013683376109908161117a565b9461099e60405196876110aa565b8186526109aa8261117a565b602087019490601f19013686375f5b838110610a465750505050604051938493604085019060408652518091526060850192905f5b818110610a24575050506020908483038286015251918281520191905f5b818110610a0b575050500390f35b82518452859450602093840193909201916001016109fd565b82516001600160a01b03168552879650602094850194909201916001016109df565b959694959394936001906001600160a01b03610a628286611192565b5116610a6e828b611192565b52825f52600560205260405f20828060a01b03610a8b8387611192565b5116838060a01b03165f5260205260405f2054610aa88288611192565b520196959493966109b9565b905090610957565b84546001600160a01b0316835260019485019488945060209093019201610935565b346101c4575f3660031901126101c457610af66111a6565b600180546001600160a01b03199081169091555f80549182168155906001600160a01b03167f8be0079c531659141344cd1fd0a4f28419497f9722a3daafe3b4186f6b6457e08280a3005b346101c45760603660031901126101c457610b5a6111a6565b600435600a55602435600b55604435600e55005b346101c457610250610b7f36611024565b90610b886111a6565b60018060a01b03165f52600860205260405f209060ff801983541691151516179055565b346101c45760403660031901126101c457610250610bc8610fe2565b6024359061110b565b346101c4575f3660031901126101c4576003546040516001600160a01b039091168152602090f35b346101c4575f3660031901126101c457610c116111a6565b6009545f52600460205260405f2060028101544210610c735760408160067faa63f771f1d5218666dcb81933d09fce831a34e0132b5610aac03649da496b2a9301600161ffff19825416179055600560095491015482519182526020820152a1005b60405162461bcd60e51b815260206004820152601160248201527014d9585cdbdb8e881b9bdd08195b991959607a1b6044820152606490fd5b346101c457610cba3661100e565b90610cc36111a6565b60095480610e45575b5080610e25575b81610e05575b610ce460095461108f565b90816009556276a7004201908142116106cb576040519361010085019385851067ffffffffffffffff861117610df157610dbe60067f3cdd13e3901d00a665f6399db95da709594e0a886050dea8496c5be164a6dbce9760809760405283815260208101944286526040820190888252606083018881528a840191825260a08401925f845260c08501985f8a5260e086019860018a525f52600460205260405f20955186555160018601555160028501555160038401555160048301555160058201550192511515839060ff801983541691151516179055565b51151561ff0082549160081b169061ff0019161790556009549160405192835242602084015260408301526060820152a1005b634e487b7160e01b5f52604160045260245ffd5b600354610e20908390309033906001600160a01b03166111b9565b610cd9565b600254610e40908290309033906001600160a01b03166111b9565b610cd3565b5f52600460205260ff600660405f20015460081c16610e645782610ccc565b60405162461bcd60e51b815260206004820152601d60248201527f536561736f6e3a2070726576696f7573207374696c6c206163746976650000006044820152606490fd5b346101c4575f3660031901126101c45760206040516127108152f35b346101c45760203660031901126101c457610ede610fe2565b6009545f908152600460209081526040808320600583528184206001600160a01b039095168452939091529020805460088201549192612710610f21848461107c565b049260068501546002830154954287115f14610f9c574287039687116106cb5760ff60066201518060c09904955b0154169485610f92575b5084610f85575b506040519485525f6020860152604085015260608401526080830152151560a0820152f35b6009015415935086610f60565b1515945087610f59565b60c0965060ff60065f95610f4f565b346101c4575f3660031901126101c4576020600e54604051908152f35b346101c4575f3660031901126101c457602090600b548152f35b600435906001600160a01b03821682036101c457565b602435906001600160a01b03821682036101c457565b60409060031901126101c4576004359060243590565b60409060031901126101c4576004356001600160a01b03811681036101c4579060243580151581036101c45790565b8054821015611068575f5260205f2001905f90565b634e487b7160e01b5f52603260045260245ffd5b818102929181159184041417156106cb57565b5f1981146106cb5760010190565b919082018092116106cb57565b90601f8019910116810190811067ffffffffffffffff821117610df157604052565b156110d357565b60405162461bcd60e51b815260206004820152601060248201526f2c281d103737ba103932b1b7b93232b960811b6044820152606490fd5b9061113990335f52600860205261112860ff60405f2054166110cc565b6064620f4240600a5492040461107c565b9081156111765761116f61117492604051906111566040836110aa565b6006825265766f6c756d6560d01b60208301528361124b565b611417565b565b5050565b67ffffffffffffffff8111610df15760051b60200190565b80518210156110685760209160051b010190565b5f546001600160a01b031633036108ed57565b6040516323b872dd60e01b5f9081526001600160a01b039384166004529290931660245260449390935260209060648180865af19060015f511482161561122a575b6040525f6060521561120a5750565b635274afe760e01b5f9081526001600160a01b0391909116600452602490fd5b90600181151661124257823b15153d151616906111fb565b503d5f823e3d90fd5b9060095490815f52600460205260405f2060ff600682015460081c1615611410575f8381526005602090815260408083206001600160a01b0388168085529083528184208785526007845282852091855292529091205490939060ff1615611365575b50907f642a5663271acfaa4db46d1d892e597a8791398569010d4da2d35595ccd9107a9483926127106112e7600860a09701548561107c565b0492831561135c575b506005908461130385602096975461109d565b90550161131184825461109d565b9055600954926040519586948552600180871b0316838501526040840152608060608401528051918291826080860152018484015e5f828201840152601f01601f19168101030190a1565b925060056112f0565b5f9392919352600760205260405f2060018060a01b0385165f5260205260405f20600160ff198254161790556009545f52600660205260405f209485549368010000000000000000851015610df1576113e7857f642a5663271acfaa4db46d1d892e597a8791398569010d4da2d35595ccd9107a98600160a098018155611053565b81549060031b90600180891b038916821b916001808a1b03901b191617905591929350946112ae565b5050505050565b6009545f52600560205260405f209060018060a01b03165f5260205260405f206201518042046007820180548083146114f057600181018091116106cb5782036114e45760068301611469815461108f565b90555b55600b5461147f6002830191825461109d565b905561148e600b54825461109d565b8155600b546009545f5260046020526114af600560405f200191825461109d565b90556006810154601e81106114c957506008614e20910155565b6007116114da576008613a98910155565b6008612710910155565b6001600684015561146c565b50505050565b916040519163a9059cbb60e01b5f5260018060a01b031660045260245260205f60448180865af19060015f5114821615611536575b6040521561120a5750565b90600181151661124257823b15153d1516169061152b56fea2646970667358221220650e7e320a080c19315ffb0aca0d185009eeab717b45d0eecbeff4a5e6094bea64736f6c634300081a0033",
  "linkReferences": {},
  "deployedLinkReferences": {}
}