{
  "_format": "hh-sol-artifact-1",
  "contractName": "WikiADL",
  "sourceName": "src/WikiADL.sol",
  "abi": [
    {
      "inputs": [
        {
          "internalType": "address",
          "name": "_owner",
          "type": "address"
        },
        {
          "internalType": "address",
          "name": "_vamm",
          "type": "address"
        },
        {
          "internalType": "address",
          "name": "_vault",
          "type": "address"
        },
        {
          "internalType": "address",
          "name": "_usdc",
          "type": "address"
        }
      ],
      "stateMutability": "nonpayable",
      "type": "constructor"
    },
    {
      "inputs": [],
      "name": "EnforcedPause",
      "type": "error"
    },
    {
      "inputs": [],
      "name": "ExpectedPause",
      "type": "error"
    },
    {
      "inputs": [
        {
          "internalType": "address",
          "name": "owner",
          "type": "address"
        }
      ],
      "name": "OwnableInvalidOwner",
      "type": "error"
    },
    {
      "inputs": [
        {
          "internalType": "address",
          "name": "account",
          "type": "address"
        }
      ],
      "name": "OwnableUnauthorizedAccount",
      "type": "error"
    },
    {
      "inputs": [],
      "name": "ReentrancyGuardReentrantCall",
      "type": "error"
    },
    {
      "anonymous": false,
      "inputs": [
        {
          "indexed": true,
          "internalType": "uint256",
          "name": "eventId",
          "type": "uint256"
        },
        {
          "indexed": true,
          "internalType": "bytes32",
          "name": "marketId",
          "type": "bytes32"
        },
        {
          "indexed": false,
          "internalType": "uint256",
          "name": "shortfall",
          "type": "uint256"
        },
        {
          "indexed": false,
          "internalType": "uint256",
          "name": "covered",
          "type": "uint256"
        },
        {
          "indexed": false,
          "internalType": "uint256",
          "name": "positionsAdld",
          "type": "uint256"
        }
      ],
      "name": "AdlExecuted",
      "type": "event"
    },
    {
      "anonymous": false,
      "inputs": [
        {
          "indexed": true,
          "internalType": "uint256",
          "name": "posId",
          "type": "uint256"
        },
        {
          "indexed": true,
          "internalType": "address",
          "name": "trader",
          "type": "address"
        },
        {
          "indexed": false,
          "internalType": "uint256",
          "name": "sizeAdld",
          "type": "uint256"
        },
        {
          "indexed": false,
          "internalType": "uint256",
          "name": "usdcRecovered",
          "type": "uint256"
        },
        {
          "indexed": false,
          "internalType": "uint256",
          "name": "pnlBpsAtAdl",
          "type": "uint256"
        }
      ],
      "name": "AdlPositionClosed",
      "type": "event"
    },
    {
      "anonymous": false,
      "inputs": [
        {
          "indexed": false,
          "internalType": "uint256",
          "name": "shortfall",
          "type": "uint256"
        },
        {
          "indexed": false,
          "internalType": "uint256",
          "name": "covered",
          "type": "uint256"
        }
      ],
      "name": "BackstopUsed",
      "type": "event"
    },
    {
      "anonymous": false,
      "inputs": [
        {
          "indexed": true,
          "internalType": "address",
          "name": "previousOwner",
          "type": "address"
        },
        {
          "indexed": true,
          "internalType": "address",
          "name": "newOwner",
          "type": "address"
        }
      ],
      "name": "OwnershipTransferStarted",
      "type": "event"
    },
    {
      "anonymous": false,
      "inputs": [
        {
          "indexed": true,
          "internalType": "address",
          "name": "previousOwner",
          "type": "address"
        },
        {
          "indexed": true,
          "internalType": "address",
          "name": "newOwner",
          "type": "address"
        }
      ],
      "name": "OwnershipTransferred",
      "type": "event"
    },
    {
      "anonymous": false,
      "inputs": [
        {
          "indexed": false,
          "internalType": "address",
          "name": "account",
          "type": "address"
        }
      ],
      "name": "Paused",
      "type": "event"
    },
    {
      "anonymous": false,
      "inputs": [
        {
          "indexed": true,
          "internalType": "bytes32",
          "name": "marketId",
          "type": "bytes32"
        },
        {
          "indexed": false,
          "internalType": "uint256",
          "name": "entries",
          "type": "uint256"
        }
      ],
      "name": "QueueRefreshed",
      "type": "event"
    },
    {
      "anonymous": false,
      "inputs": [
        {
          "indexed": false,
          "internalType": "address",
          "name": "account",
          "type": "address"
        }
      ],
      "name": "Unpaused",
      "type": "event"
    },
    {
      "inputs": [],
      "name": "BPS",
      "outputs": [
        {
          "internalType": "uint256",
          "name": "",
          "type": "uint256"
        }
      ],
      "stateMutability": "view",
      "type": "function"
    },
    {
      "inputs": [],
      "name": "MAX_ADL_PER_EVENT",
      "outputs": [
        {
          "internalType": "uint256",
          "name": "",
          "type": "uint256"
        }
      ],
      "stateMutability": "view",
      "type": "function"
    },
    {
      "inputs": [],
      "name": "MAX_QUEUE_SIZE",
      "outputs": [
        {
          "internalType": "uint256",
          "name": "",
          "type": "uint256"
        }
      ],
      "stateMutability": "view",
      "type": "function"
    },
    {
      "inputs": [],
      "name": "MIN_SHORTFALL",
      "outputs": [
        {
          "internalType": "uint256",
          "name": "",
          "type": "uint256"
        }
      ],
      "stateMutability": "view",
      "type": "function"
    },
    {
      "inputs": [],
      "name": "PRECISION",
      "outputs": [
        {
          "internalType": "uint256",
          "name": "",
          "type": "uint256"
        }
      ],
      "stateMutability": "view",
      "type": "function"
    },
    {
      "inputs": [],
      "name": "QUEUE_REFRESH_COOLDOWN",
      "outputs": [
        {
          "internalType": "uint256",
          "name": "",
          "type": "uint256"
        }
      ],
      "stateMutability": "view",
      "type": "function"
    },
    {
      "inputs": [],
      "name": "USDC",
      "outputs": [
        {
          "internalType": "contract IERC20",
          "name": "",
          "type": "address"
        }
      ],
      "stateMutability": "view",
      "type": "function"
    },
    {
      "inputs": [],
      "name": "acceptOwnership",
      "outputs": [],
      "stateMutability": "nonpayable",
      "type": "function"
    },
    {
      "inputs": [
        {
          "internalType": "uint256",
          "name": "shortfall",
          "type": "uint256"
        },
        {
          "internalType": "bytes32",
          "name": "marketId",
          "type": "bytes32"
        },
        {
          "internalType": "bool",
          "name": "wasLong",
          "type": "bool"
        },
        {
          "internalType": "uint256",
          "name": "triggerPosId",
          "type": "uint256"
        }
      ],
      "name": "adl",
      "outputs": [
        {
          "internalType": "uint256",
          "name": "covered",
          "type": "uint256"
        }
      ],
      "stateMutability": "nonpayable",
      "type": "function"
    },
    {
      "inputs": [
        {
          "internalType": "address",
          "name": "",
          "type": "address"
        }
      ],
      "name": "adlCallers",
      "outputs": [
        {
          "internalType": "bool",
          "name": "",
          "type": "bool"
        }
      ],
      "stateMutability": "view",
      "type": "function"
    },
    {
      "inputs": [],
      "name": "adlEventCount",
      "outputs": [
        {
          "internalType": "uint256",
          "name": "",
          "type": "uint256"
        }
      ],
      "stateMutability": "view",
      "type": "function"
    },
    {
      "inputs": [
        {
          "internalType": "uint256",
          "name": "",
          "type": "uint256"
        }
      ],
      "name": "adlHistory",
      "outputs": [
        {
          "internalType": "uint256",
          "name": "triggeredBy",
          "type": "uint256"
        },
        {
          "internalType": "bytes32",
          "name": "marketId",
          "type": "bytes32"
        },
        {
          "internalType": "uint256",
          "name": "shortfall",
          "type": "uint256"
        },
        {
          "internalType": "uint256",
          "name": "covered",
          "type": "uint256"
        },
        {
          "internalType": "uint256",
          "name": "timestamp",
          "type": "uint256"
        }
      ],
      "stateMutability": "view",
      "type": "function"
    },
    {
      "inputs": [
        {
          "internalType": "uint256",
          "name": "",
          "type": "uint256"
        }
      ],
      "name": "adldThisEpoch",
      "outputs": [
        {
          "internalType": "bool",
          "name": "",
          "type": "bool"
        }
      ],
      "stateMutability": "view",
      "type": "function"
    },
    {
      "inputs": [],
      "name": "backstop",
      "outputs": [
        {
          "internalType": "contract IWikiBackstop",
          "name": "",
          "type": "address"
        }
      ],
      "stateMutability": "view",
      "type": "function"
    },
    {
      "inputs": [
        {
          "internalType": "uint256",
          "name": "id",
          "type": "uint256"
        }
      ],
      "name": "getADLRecord",
      "outputs": [
        {
          "components": [
            {
              "internalType": "uint256",
              "name": "triggeredBy",
              "type": "uint256"
            },
            {
              "internalType": "bytes32",
              "name": "marketId",
              "type": "bytes32"
            },
            {
              "internalType": "uint256",
              "name": "shortfall",
              "type": "uint256"
            },
            {
              "internalType": "uint256",
              "name": "covered",
              "type": "uint256"
            },
            {
              "internalType": "uint256[]",
              "name": "adldPositions",
              "type": "uint256[]"
            },
            {
              "internalType": "uint256[]",
              "name": "adldAmounts",
              "type": "uint256[]"
            },
            {
              "internalType": "uint256",
              "name": "timestamp",
              "type": "uint256"
            }
          ],
          "internalType": "struct WikiADL.ADLRecord",
          "name": "",
          "type": "tuple"
        }
      ],
      "stateMutability": "view",
      "type": "function"
    },
    {
      "inputs": [
        {
          "internalType": "bytes32",
          "name": "marketId",
          "type": "bytes32"
        }
      ],
      "name": "getQueue",
      "outputs": [
        {
          "components": [
            {
              "internalType": "uint256",
              "name": "posId",
              "type": "uint256"
            },
            {
              "internalType": "address",
              "name": "trader",
              "type": "address"
            },
            {
              "internalType": "uint256",
              "name": "pnlBps",
              "type": "uint256"
            },
            {
              "internalType": "uint256",
              "name": "size",
              "type": "uint256"
            },
            {
              "internalType": "bool",
              "name": "isLong",
              "type": "bool"
            }
          ],
          "internalType": "struct WikiADL.QueueEntry[]",
          "name": "",
          "type": "tuple[]"
        }
      ],
      "stateMutability": "view",
      "type": "function"
    },
    {
      "inputs": [
        {
          "internalType": "bytes32",
          "name": "",
          "type": "bytes32"
        }
      ],
      "name": "lastQueueRefresh",
      "outputs": [
        {
          "internalType": "uint256",
          "name": "",
          "type": "uint256"
        }
      ],
      "stateMutability": "view",
      "type": "function"
    },
    {
      "inputs": [],
      "name": "owner",
      "outputs": [
        {
          "internalType": "address",
          "name": "",
          "type": "address"
        }
      ],
      "stateMutability": "view",
      "type": "function"
    },
    {
      "inputs": [],
      "name": "pause",
      "outputs": [],
      "stateMutability": "nonpayable",
      "type": "function"
    },
    {
      "inputs": [],
      "name": "paused",
      "outputs": [
        {
          "internalType": "bool",
          "name": "",
          "type": "bool"
        }
      ],
      "stateMutability": "view",
      "type": "function"
    },
    {
      "inputs": [],
      "name": "pendingOwner",
      "outputs": [
        {
          "internalType": "address",
          "name": "",
          "type": "address"
        }
      ],
      "stateMutability": "view",
      "type": "function"
    },
    {
      "inputs": [
        {
          "internalType": "bytes32",
          "name": "marketId",
          "type": "bytes32"
        },
        {
          "internalType": "uint256",
          "name": "posId",
          "type": "uint256"
        }
      ],
      "name": "queuePosition",
      "outputs": [
        {
          "internalType": "uint256",
          "name": "rank",
          "type": "uint256"
        },
        {
          "internalType": "uint256",
          "name": "total",
          "type": "uint256"
        },
        {
          "internalType": "uint256",
          "name": "riskBps",
          "type": "uint256"
        }
      ],
      "stateMutability": "view",
      "type": "function"
    },
    {
      "inputs": [
        {
          "internalType": "bytes32",
          "name": "",
          "type": "bytes32"
        },
        {
          "internalType": "uint256",
          "name": "",
          "type": "uint256"
        }
      ],
      "name": "queues",
      "outputs": [
        {
          "internalType": "uint256",
          "name": "posId",
          "type": "uint256"
        },
        {
          "internalType": "address",
          "name": "trader",
          "type": "address"
        },
        {
          "internalType": "uint256",
          "name": "pnlBps",
          "type": "uint256"
        },
        {
          "internalType": "uint256",
          "name": "size",
          "type": "uint256"
        },
        {
          "internalType": "bool",
          "name": "isLong",
          "type": "bool"
        }
      ],
      "stateMutability": "view",
      "type": "function"
    },
    {
      "inputs": [
        {
          "internalType": "bytes32",
          "name": "marketId",
          "type": "bytes32"
        }
      ],
      "name": "refreshQueue",
      "outputs": [],
      "stateMutability": "nonpayable",
      "type": "function"
    },
    {
      "inputs": [],
      "name": "renounceOwnership",
      "outputs": [],
      "stateMutability": "nonpayable",
      "type": "function"
    },
    {
      "inputs": [],
      "name": "resetEpoch",
      "outputs": [],
      "stateMutability": "nonpayable",
      "type": "function"
    },
    {
      "inputs": [
        {
          "internalType": "address",
          "name": "caller",
          "type": "address"
        },
        {
          "internalType": "bool",
          "name": "enabled",
          "type": "bool"
        }
      ],
      "name": "setAdlCaller",
      "outputs": [],
      "stateMutability": "nonpayable",
      "type": "function"
    },
    {
      "inputs": [
        {
          "internalType": "address",
          "name": "_backstop",
          "type": "address"
        }
      ],
      "name": "setBackstop",
      "outputs": [],
      "stateMutability": "nonpayable",
      "type": "function"
    },
    {
      "inputs": [
        {
          "internalType": "address",
          "name": "_vamm",
          "type": "address"
        },
        {
          "internalType": "address",
          "name": "_vault",
          "type": "address"
        }
      ],
      "name": "setContracts",
      "outputs": [],
      "stateMutability": "nonpayable",
      "type": "function"
    },
    {
      "inputs": [
        {
          "internalType": "address",
          "name": "_tl",
          "type": "address"
        }
      ],
      "name": "setTimelock",
      "outputs": [],
      "stateMutability": "nonpayable",
      "type": "function"
    },
    {
      "inputs": [],
      "name": "timelock",
      "outputs": [
        {
          "internalType": "address",
          "name": "",
          "type": "address"
        }
      ],
      "stateMutability": "view",
      "type": "function"
    },
    {
      "inputs": [],
      "name": "totalAdlEvents",
      "outputs": [
        {
          "internalType": "uint256",
          "name": "",
          "type": "uint256"
        }
      ],
      "stateMutability": "view",
      "type": "function"
    },
    {
      "inputs": [],
      "name": "totalShortfallCovered",
      "outputs": [
        {
          "internalType": "uint256",
          "name": "",
          "type": "uint256"
        }
      ],
      "stateMutability": "view",
      "type": "function"
    },
    {
      "inputs": [
        {
          "internalType": "address",
          "name": "newOwner",
          "type": "address"
        }
      ],
      "name": "transferOwnership",
      "outputs": [],
      "stateMutability": "nonpayable",
      "type": "function"
    },
    {
      "inputs": [],
      "name": "unpause",
      "outputs": [],
      "stateMutability": "nonpayable",
      "type": "function"
    },
    {
      "inputs": [],
      "name": "vamm",
      "outputs": [
        {
          "internalType": "contract IWikiVAMM",
          "name": "",
          "type": "address"
        }
      ],
      "stateMutability": "view",
      "type": "function"
    },
    {
      "inputs": [],
      "name": "vault",
      "outputs": [
        {
          "internalType": "contract IWikiVault",
          "name": "",
          "type": "address"
        }
      ],
      "stateMutability": "view",
      "type": "function"
    }
  ],
  "bytecode": "0x60a03461021157601f6120a438819003918201601f19168301916001600160401b03831184841017610215578084926080946040528339810103126102115761004781610229565b61005360208301610229565b9161006c606061006560408401610229565b9201610229565b6001600160a01b039092169283156101fe57600180546001600160a01b03199081169091555f80549182168617815560405195916001600160a01b0316907f8be0079c531659141344cd1fd0a4f28419497f9722a3daafe3b4186f6b6457e09080a360017f9b779b17422d0df92223018b32b4d1fa46e071723d6817e2486d003becc55f00556001600160a01b03169283156101cb57506001600160a01b0316908115610194576001600160a01b031691821561015e5760018060a01b0319600354161760035560018060a01b03196004541617600455608052604051611e66908161023e8239608051816106f80152f35b60405162461bcd60e51b815260206004820152600e60248201526d41444c3a207a65726f207573646360901b6044820152606490fd5b60405162461bcd60e51b815260206004820152600f60248201526e1051130e881e995c9bc81d985d5b1d608a1b6044820152606490fd5b62461bcd60e51b815260206004820152600e60248201526d41444c3a207a65726f2076616d6d60901b6044820152606490fd5b631e4fbdf760e01b5f525f60045260245ffd5b5f80fd5b634e487b7160e01b5f52604160045260245ffd5b51906001600160a01b03821682036102115756fe60e06040526004361015610011575f80fd5b5f3560e01c80631a22732414610c3b5780632161ac1d14610c1e578063249d39e914610c0257806331eab48a14610bea5780633626e23514610bcf5780633f4ba83a14610b615780635696c99114610a9f5780635c8db89314610a625780635c975abb14610a3d578063715018a6146109da57806379ba5097146109555780637ac4ee8c146109385780637cba21b5146108e35780637dea1817146108bb57806380fcc7cd1461089c578063842d685a146107885780638456cb591461072757806389a30271146106e35780638da5cb5b146106bc578063916c2b8714610679578063981c05ce1461064f5780639987c6d3146105bb578063a0264dbb146105a0578063a0bfffaa14610571578063a264d6e214610554578063a34e7f27146104e3578063aaf5eb68146104c1578063bdacb3031461047e578063d33219b414610456578063d8952a49146103d8578063d94170d9146103bb578063dfdf8337146102d4578063e098372c146102ac578063e219448514610271578063e30c397814610249578063f2fde38b146101dc5763fbfa77cf146101b0575f80fd5b346101d8575f3660031901126101d8576004546040516001600160a01b039091168152602090f35b5f80fd5b346101d85760203660031901126101d8576101f5610cca565b6101fd6116f3565b60018060a01b0316806001600160601b0360a01b600154161760015560018060a01b035f54167f38d16b8cac22d99fc7c124b9cd0de2d3fa1faef420bfe791d8c362d765e227005f80a3005b346101d8575f3660031901126101d8576001546040516001600160a01b039091168152602090f35b346101d8576102a861028b61028536610d13565b90611670565b604080519384526020840192909252908201529081906060820190565b0390f35b346101d8575f3660031901126101d8576003546040516001600160a01b039091168152602090f35b346101d85760203660031901126101d8576004355f52600660205260405f208054906102ff82610dca565b9161030d6040519384610d8e565b8083526020830180925f5260205f205f915b83831061039d578486604051918291602083019060208452518091526040830191905f5b818110610351575050500390f35b91935091602060a060019260808751805183528580851b038582015116858401526040810151604084015260608101516060840152015115156080820152019401910191849392610343565b600560206001926103ad856115f5565b81520192019201919061031f565b346101d8575f3660031901126101d8576020600b54604051908152f35b346101d85760403660031901126101d8576103f1610cca565b6024356001600160a01b03811691908290036101d85761040f6116f3565b6001600160a01b03168061043d575b508061042657005b6001600160601b0360a01b60045416176004555f80f35b6001600160601b0360a01b60035416176003558161041e565b346101d8575f3660031901126101d8576002546040516001600160a01b039091168152602090f35b346101d85760203660031901126101d857610497610cca565b61049f6116f3565b600280546001600160a01b0319166001600160a01b0392909216919091179055005b346101d8575f3660031901126101d8576020604051670de0b6b3a76400008152f35b346101d8576104f136610d13565b905f52600660205260405f2080548210156101d85760a09161051291610d29565b50805490600180841b0360018201541690600281015460ff60046003840154930154169260405194855260208501526040840152606083015215156080820152f35b346101d8575f3660031901126101d8576020604051620f42408152f35b346101d85760203660031901126101d8576004355f526008602052602060ff60405f2054166040519015158152f35b346101d8575f3660031901126101d8576020604051601e8152f35b346101d85760203660031901126101d8576004356105d7611706565b805f52600760205260405f2054601e810180911161063b574210610600576105fe906118bf565b005b60405162461bcd60e51b815260206004820152601360248201527220a2261d1038bab2bab29031b7b7b63237bbb760691b6044820152606490fd5b634e487b7160e01b5f52601160045260245ffd5b346101d85760203660031901126101d8576004355f526007602052602060405f2054604051908152f35b346101d85760203660031901126101d857610692610cca565b61069a6116f3565b600580546001600160a01b0319166001600160a01b0392909216919091179055005b346101d8575f3660031901126101d8575f546040516001600160a01b039091168152602090f35b346101d8575f3660031901126101d8576040517f00000000000000000000000000000000000000000000000000000000000000006001600160a01b03168152602090f35b346101d8575f3660031901126101d85761073f6116f3565b610747611706565b6001805460ff60a01b1916600160a01b1790556040513381527f62e78cea01bee320cd4e420270b5ea74000d11b0c9f74754ebdbfc544b05a25890602090a1005b346101d85760203660031901126101d8575f60c06040516107a881610d42565b82815282602082015282604082015282606082015260606080820152606060a082015201526107d8600435610c9a565b506040516107e581610d42565b81548152600182015491602082019283526108916002820154916040840192835261087e600382015460608601908152610821600484016115ab565b90608087019182526006610837600586016115ab565b9460a0890195865201549560c0880196875260405198899860208a525160208a01525160408901525160608801525160808701525160e060a0870152610100860190610ce0565b9051848203601f190160c0860152610ce0565b905160e08301520390f35b346101d8575f3660031901126101d8576020604051640ba43b74008152f35b346101d8575f3660031901126101d8576005546040516001600160a01b039091168152602090f35b346101d85760403660031901126101d8576108fc610cca565b60243580151581036101d8576105fe916109146116f3565b60018060a01b03165f52600960205260405f209060ff801983541691151516179055565b346101d8575f3660031901126101d8576020600c54604051908152f35b346101d8575f3660031901126101d857600154336001600160a01b03909116036109c757600180546001600160a01b03199081169091555f805433928116831782556001600160a01b0316907f8be0079c531659141344cd1fd0a4f28419497f9722a3daafe3b4186f6b6457e09080a3005b63118cdaa760e01b5f523360045260245ffd5b346101d8575f3660031901126101d8576109f26116f3565b600180546001600160a01b03199081169091555f80549182168155906001600160a01b03167f8be0079c531659141344cd1fd0a4f28419497f9722a3daafe3b4186f6b6457e08280a3005b346101d8575f3660031901126101d857602060ff60015460a01c166040519015158152f35b346101d85760203660031901126101d8576001600160a01b03610a83610cca565b165f526009602052602060ff60405f2054166040519015158152f35b346101d85760803660031901126101d85760443580151581036101d85760027f9b779b17422d0df92223018b32b4d1fa46e071723d6817e2486d003becc55f005414610b5257610b2660209160027f9b779b17422d0df92223018b32b4d1fa46e071723d6817e2486d003becc55f0055610b17611706565b60643590602435600435610ef0565b60017f9b779b17422d0df92223018b32b4d1fa46e071723d6817e2486d003becc55f0055604051908152f35b633ee5aeb560e01b5f5260045ffd5b346101d8575f3660031901126101d857610b796116f3565b60015460ff8160a01c1615610bc05760ff60a01b19166001556040513381527f5db9ee0a495bf2e6ff9c91a7834c1ba4fdd244a5e8aa4e537bd38aeae4b073aa90602090a1005b638dfc202b60e01b5f5260045ffd5b346101d8575f3660031901126101d857602060405160c88152f35b346101d8575f3660031901126101d8576105fe6116f3565b346101d8575f3660031901126101d85760206040516127108152f35b346101d8575f3660031901126101d8576020600a54604051908152f35b346101d85760203660031901126101d857600435600a548110156101d857610c6460a091610c9a565b50805490600181015490600281015460066003830154920154926040519485526020850152604084015260608301526080820152f35b600a54811015610cb657600a5f52600760205f20910201905f90565b634e487b7160e01b5f52603260045260245ffd5b600435906001600160a01b03821682036101d857565b90602080835192838152019201905f5b818110610cfd5750505090565b8251845260209384019390920191600101610cf0565b60409060031901126101d8576004359060243590565b8054821015610cb6575f52600560205f20910201905f90565b60e0810190811067ffffffffffffffff821117610d5e57604052565b634e487b7160e01b5f52604160045260245ffd5b60a0810190811067ffffffffffffffff821117610d5e57604052565b90601f8019910116810190811067ffffffffffffffff821117610d5e57604052565b9190820391821161063b57565b9190820180921161063b57565b67ffffffffffffffff8111610d5e5760051b60200190565b90610dec82610dca565b610df96040519182610d8e565b8281528092610e0a601f1991610dca565b0190602036910137565b5f19811461063b5760010190565b90816101409103126101d85760405190610140820182811067ffffffffffffffff821117610d5e5760405280516001600160a01b03811681036101d85782526020810151602083015260408101519081151582036101d857610120916040840152606081015160608401526080810151608084015260a081015160a084015260c081015160c084015260e081015160e0840152610100810151610100840152015161012082015290565b600160ff1b811461063b575f0390565b8051821015610cb65760209160051b010190565b929060c0526080525f60a0525f92335f52600960205260ff60405f2054161561157057620f4240831061153a57640ba43b7400831161150457600554929384936001600160a01b0316806113d2575b5084156113875760c05160a051526006602052604060a0512094855415611377575b60405161192096610f728883610d8e565b60c88252601f19880180366020850137610f8f604051998a610d8e565b60c889523660208a013760a05194855b825481108061136e575b1561127557610fb88184610d29565b50600481015460ff1615158915151461126b5780548060a05152600860205260ff604060a0512054166112605760035460405163133f757160e31b81526004810183905291906001600160a01b031661014083602481845afa9283156112155760a0519361122f575b5060608301511561122257604051637698aa3360e01b815260c051600482015292602084602481855afa938415611215578f946111e0575b5060600151808a10156111d75750602089925b606460405180948193631aa888e560e01b8352600483015286602483015230604483015260a051905af160a051918161119b575b506110b757505050506110b290610e14565b610f9f565b60a051989a9881131561118c57985b8a8a11611184575b6110dc8a809c9b9a9b610db0565b986110e691610dbd565b98835460a05152600860205260a0516040902060ff1981541660011790558a8454938285611114828d610edc565b5261111e91610edc565b5261112890610e14565b600184015460029094015460408051938452602084019c909c529a82019a909a526001600160a01b03909216917f8ec0edbc2353f82c4e9c0a924d246bd361f1dcd0808322215e048affbe5ce94890606090a36110b290610e14565b8a99506110ce565b61119590610ecc565b986110c6565b935090506020833d82116111cf575b816111b760209383610d8e565b810103126111c9578d9251905f6110a0565b60a05180fd5b3d91506111aa565b6020909261106c565b9093506020813d821161120d575b816111fb60209383610d8e565b810103126101d857508d926060611059565b3d91506111ee565b6040513d60a051823e3d90fd5b505050506110b290610e14565b6112529193506101403d8111611259575b61124a8183610d8e565b810190610e22565b915f611021565b503d611240565b50506110b290610e14565b506110b290610e14565b5096955050905094909461128883610de2565b9061129284610de2565b60a0519093905b85811061133957505050906112b591868560c051608051611724565b6112c184600b54610dbd565b600b556112cf600c54610e14565b600c55600a545f19810191908211611321576040805160c05194815260208101879052908101919091527fad0b8a28e12eae62a18faf457c3307d1bbd646c68028a5f7ff423606d2aacf5890606090a3565b634e487b7160e01b60a051526011600452602460a051fd5b8061134660019285610edc565b516113518287610edc565b5261135c8184610edc565b516113678288610edc565b5201611299565b50841515610fa9565b61138260c0516118bf565b610f61565b604051919450926113cf92506020919084906113a38484610d8e565b60a05183525f368137604051936113ba8186610d8e565b5060a05184525f36813760c051608051611724565b90565b60405163e99ae4e760e01b8152602081600481855afa9081156114f9575f916114c7575b5080611403575b50610f3f565b5f91602091808810156114bf57506024875b60405194859384926314a1362b60e01b845260048401525af15f918161148b575b50611442575b806113fd565b809550611450915084610db0565b935f60a0527f67c462ae5f78929a30fd5bb01cbd06991e35e66907c09b0f17c36fa2fc95252d6040828151908782526020820152a15f61143c565b9091506020813d6020116114b7575b816114a760209383610d8e565b810103126101d85751905f611436565b3d915061149a565b602490611415565b90506020813d6020116114f1575b816114e260209383610d8e565b810103126101d857515f6113f6565b3d91506114d5565b6040513d5f823e3d90fd5b60405162461bcd60e51b815260206004820152600e60248201526d41444c3a20746f6f206c6172676560901b6044820152606490fd5b60405162461bcd60e51b815260206004820152600e60248201526d20a2261d103132b637bb9036b4b760911b6044820152606490fd5b60405162461bcd60e51b81526020600482015260136024820152721051130e881b9bdd08185d5d1a1bdc9a5cd959606a1b6044820152606490fd5b90604051918281549182825260208201905f5260205f20925f5b8181106115dc5750506115da92500383610d8e565b565b84548352600194850194879450602090930192016115c5565b9060405161160281610d72565b8254815260018301546001600160a01b03166020820152600283015460408201526003830154606082015260049092015460ff1615156080830152565b8181029291811591840414171561063b57565b811561165c570490565b634e487b7160e01b5f52601260045260245ffd5b9190915f52600660205260405f209081549283925f5b84811061169857505050905081905f90565b826116a38284610d29565b5054146116b257600101611686565b935050831590506116ec576116c78284610db0565b612710810290808204612710149015171561063b57836116e691611652565b91929190565b5f91929190565b5f546001600160a01b031633036109c757565b60ff60015460a01c1661171557565b63d93c066560e01b5f5260045ffd5b94929093916040519561173687610d42565b86526020860194855260408601908152606086019182526080860192835260a0860193845260c0860194428652600a54600160401b811015610d5e578060016117829201600a55610c9a565b9790976118ac5751875551600187015551600286015551600385015551805190600485019067ffffffffffffffff8311610d5e57600160401b8311610d5e578154838355808410611886575b50602001905f5260205f205f5b83811061187257505050506005830190519081519167ffffffffffffffff8311610d5e57600160401b8311610d5e57815483835580841061184c575b50602001905f5260205f205f5b838110611838575050505060069051910155565b600190602084519401938184015501611824565b825f528360205f2091820191015b8181106118675750611817565b5f815560010161185a565b6001906020845194019381840155016117db565b825f528360205f2091820191015b8181106118a157506117ce565b5f8155600101611894565b634e487b7160e01b5f525f60045260245ffd5b906024602060018060a01b036003541660405192838092637698aa3360e01b82528760048301525afa9081156114f9575f91611cda575b508015611cd557825f52600660205260405f20928354935f815584611c90575b5060035460405163e7702d0560e01b815294505f9390602090869060049082906001600160a01b03165afa9485156114f9575f95611c5c575b5060c8851115611c565760c719850185811161063b575b85811080611c40575b15611bf35760035460405163133f757160e31b8152600481018390529061014090829060249082906001600160a01b03165afa5f9181611bd2575b506119be57506119b990610e14565b611966565b936060859792970194855115611bc55784602082015103611bc5576119e38282611d0c565b5f811315611bb757612710810290808204612710149015171561063b576080820151611a0e91611652565b90604060018060a01b03825116975191015115159160405197611a3089610d72565b8a89526020890152604088015260608701526080860152835f52600660205260405f2094855490600160401b821015610d5e57611a76826001611a7c9401895588610d29565b90611dc9565b84545f19810190811161063b575b8015801580611b87575b15611b6f57611aac611aa68389610d29565b506115f5565b5f198301929081841161063b57611ace611ac6858b610d29565b50928a610d29565b9290926118ac578281611aed9403611b06575b5050611a76848a610d29565b15611a8a57634e487b7160e01b5f52601160045260245ffd5b600460ff8184611b689554855560018060a01b03600182015416600186019060018060a01b03166001600160601b0360a01b825416179055600281015460028601556003810154600386015501541691019060ff801983541691151516179055565b5f80611ae1565b505093509493611b816119b991610e14565b94610e14565b506002611b948389610d29565b5001545f19830183811161063b57611bae6002918a610d29565b50015410611a94565b50509350946119b990610e14565b509350946119b990610e14565b611bec9192506101403d81116112595761124a8183610d8e565b905f6119aa565b509350915050805f5260076020524260405f2055805f5260066020527fa5cd88b7cec2dcb284415ca43f0dc99e7e66d7b4cd5678d3933eb4b7a1316675602060405f2054604051908152a2565b50825f52600660205260c860405f20541061196f565b5f611966565b9094506020813d602011611c88575b81611c7860209383610d8e565b810103126101d85751935f61194f565b3d9150611c6b565b8460050294600586040361063b575f5260205f20938401935b8481101561191657805f600592555f60018201555f60028201555f60038201555f600482015501611ca9565b509050565b90506020813d602011611d04575b81611cf560209383610d8e565b810103126101d857515f6118f6565b3d9150611ce8565b60a0810190815180158015611dbd575b611db557604082015115611d7b5750815180841115611d5c57506113cf92611d4e6060611d5493015191845190610db0565b9061163f565b905190611652565b611d5490611d4e6113cf956060611d769695015192610db0565b610ecc565b83811115611d9b57506113cf92611d4e6060611d54930151918451610db0565b6113cf93611d4e611d54926060611d769695015192610db0565b505050505f90565b50606082015115611d1c565b906118ac5760046080836115da9451845560018060a01b03602082015116600185019060018060a01b03166001600160601b0360a01b82541617905560408101516002850155606081015160038501550151151591019060ff80198354169115151617905556fea2646970667358221220ee15333439dbe38ff72c254167c00f0e33546bcb472ac32058834438c297492e64736f6c634300081a0033",
  "linkReferences": {},
  "deployedLinkReferences": {}
}