{
  "_format": "hh-sol-artifact-1",
  "contractName": "WikiStaking",
  "sourceName": "src/WikiStaking.sol",
  "abi": [
    {
      "inputs": [
        {
          "internalType": "address",
          "name": "wik",
          "type": "address"
        },
        {
          "internalType": "address",
          "name": "usdc",
          "type": "address"
        },
        {
          "internalType": "address",
          "name": "owner",
          "type": "address"
        }
      ],
      "stateMutability": "nonpayable",
      "type": "constructor"
    },
    {
      "inputs": [
        {
          "internalType": "address",
          "name": "owner",
          "type": "address"
        }
      ],
      "name": "OwnableInvalidOwner",
      "type": "error"
    },
    {
      "inputs": [
        {
          "internalType": "address",
          "name": "account",
          "type": "address"
        }
      ],
      "name": "OwnableUnauthorizedAccount",
      "type": "error"
    },
    {
      "inputs": [],
      "name": "ReentrancyGuardReentrantCall",
      "type": "error"
    },
    {
      "inputs": [
        {
          "internalType": "address",
          "name": "token",
          "type": "address"
        }
      ],
      "name": "SafeERC20FailedOperation",
      "type": "error"
    },
    {
      "anonymous": false,
      "inputs": [
        {
          "indexed": true,
          "internalType": "address",
          "name": "user",
          "type": "address"
        },
        {
          "indexed": true,
          "internalType": "uint256",
          "name": "pid",
          "type": "uint256"
        },
        {
          "indexed": false,
          "internalType": "uint256",
          "name": "amount",
          "type": "uint256"
        }
      ],
      "name": "Deposited",
      "type": "event"
    },
    {
      "anonymous": false,
      "inputs": [
        {
          "indexed": false,
          "internalType": "uint256",
          "name": "wikPerSecond",
          "type": "uint256"
        }
      ],
      "name": "EmissionRateSet",
      "type": "event"
    },
    {
      "anonymous": false,
      "inputs": [
        {
          "indexed": true,
          "internalType": "address",
          "name": "user",
          "type": "address"
        },
        {
          "indexed": false,
          "internalType": "uint256",
          "name": "amount",
          "type": "uint256"
        }
      ],
      "name": "FeeClaimed",
      "type": "event"
    },
    {
      "anonymous": false,
      "inputs": [
        {
          "indexed": false,
          "internalType": "uint256",
          "name": "amount",
          "type": "uint256"
        },
        {
          "indexed": false,
          "internalType": "uint256",
          "name": "perVeWIK",
          "type": "uint256"
        }
      ],
      "name": "FeeDistributed",
      "type": "event"
    },
    {
      "anonymous": false,
      "inputs": [
        {
          "indexed": true,
          "internalType": "address",
          "name": "user",
          "type": "address"
        },
        {
          "indexed": true,
          "internalType": "uint256",
          "name": "pid",
          "type": "uint256"
        },
        {
          "indexed": false,
          "internalType": "uint256",
          "name": "amount",
          "type": "uint256"
        }
      ],
      "name": "Harvested",
      "type": "event"
    },
    {
      "anonymous": false,
      "inputs": [
        {
          "indexed": true,
          "internalType": "address",
          "name": "user",
          "type": "address"
        },
        {
          "indexed": false,
          "internalType": "uint256",
          "name": "newUnlock",
          "type": "uint256"
        },
        {
          "indexed": false,
          "internalType": "uint256",
          "name": "newVeWIK",
          "type": "uint256"
        }
      ],
      "name": "LockExtended",
      "type": "event"
    },
    {
      "anonymous": false,
      "inputs": [
        {
          "indexed": true,
          "internalType": "address",
          "name": "user",
          "type": "address"
        },
        {
          "indexed": false,
          "internalType": "uint256",
          "name": "amount",
          "type": "uint256"
        },
        {
          "indexed": false,
          "internalType": "uint256",
          "name": "duration",
          "type": "uint256"
        },
        {
          "indexed": false,
          "internalType": "uint256",
          "name": "unlockTime",
          "type": "uint256"
        },
        {
          "indexed": false,
          "internalType": "uint256",
          "name": "veWIK",
          "type": "uint256"
        }
      ],
      "name": "Locked",
      "type": "event"
    },
    {
      "anonymous": false,
      "inputs": [
        {
          "indexed": true,
          "internalType": "address",
          "name": "previousOwner",
          "type": "address"
        },
        {
          "indexed": true,
          "internalType": "address",
          "name": "newOwner",
          "type": "address"
        }
      ],
      "name": "OwnershipTransferStarted",
      "type": "event"
    },
    {
      "anonymous": false,
      "inputs": [
        {
          "indexed": true,
          "internalType": "address",
          "name": "previousOwner",
          "type": "address"
        },
        {
          "indexed": true,
          "internalType": "address",
          "name": "newOwner",
          "type": "address"
        }
      ],
      "name": "OwnershipTransferred",
      "type": "event"
    },
    {
      "anonymous": false,
      "inputs": [
        {
          "indexed": true,
          "internalType": "uint256",
          "name": "pid",
          "type": "uint256"
        },
        {
          "indexed": false,
          "internalType": "address",
          "name": "lpToken",
          "type": "address"
        },
        {
          "indexed": false,
          "internalType": "uint256",
          "name": "allocPoint",
          "type": "uint256"
        }
      ],
      "name": "PoolAdded",
      "type": "event"
    },
    {
      "anonymous": false,
      "inputs": [
        {
          "indexed": true,
          "internalType": "uint256",
          "name": "pid",
          "type": "uint256"
        },
        {
          "indexed": false,
          "internalType": "uint256",
          "name": "allocPoint",
          "type": "uint256"
        }
      ],
      "name": "PoolUpdated",
      "type": "event"
    },
    {
      "anonymous": false,
      "inputs": [
        {
          "indexed": true,
          "internalType": "address",
          "name": "user",
          "type": "address"
        },
        {
          "indexed": false,
          "internalType": "uint256",
          "name": "amount",
          "type": "uint256"
        },
        {
          "indexed": false,
          "internalType": "uint256",
          "name": "penalty",
          "type": "uint256"
        }
      ],
      "name": "Unlocked",
      "type": "event"
    },
    {
      "anonymous": false,
      "inputs": [
        {
          "indexed": true,
          "internalType": "address",
          "name": "user",
          "type": "address"
        },
        {
          "indexed": true,
          "internalType": "uint256",
          "name": "pid",
          "type": "uint256"
        },
        {
          "indexed": false,
          "internalType": "uint256",
          "name": "amount",
          "type": "uint256"
        }
      ],
      "name": "Withdrawn",
      "type": "event"
    },
    {
      "inputs": [],
      "name": "ACC_PRECISION",
      "outputs": [
        {
          "internalType": "uint256",
          "name": "",
          "type": "uint256"
        }
      ],
      "stateMutability": "view",
      "type": "function"
    },
    {
      "inputs": [],
      "name": "BOOST_BASE_BPS",
      "outputs": [
        {
          "internalType": "uint256",
          "name": "",
          "type": "uint256"
        }
      ],
      "stateMutability": "view",
      "type": "function"
    },
    {
      "inputs": [],
      "name": "BOOST_MAX_BPS",
      "outputs": [
        {
          "internalType": "uint256",
          "name": "",
          "type": "uint256"
        }
      ],
      "stateMutability": "view",
      "type": "function"
    },
    {
      "inputs": [],
      "name": "BPS",
      "outputs": [
        {
          "internalType": "uint256",
          "name": "",
          "type": "uint256"
        }
      ],
      "stateMutability": "view",
      "type": "function"
    },
    {
      "inputs": [],
      "name": "EARLY_EXIT_BPS",
      "outputs": [
        {
          "internalType": "uint256",
          "name": "",
          "type": "uint256"
        }
      ],
      "stateMutability": "view",
      "type": "function"
    },
    {
      "inputs": [],
      "name": "MAX_LOCK",
      "outputs": [
        {
          "internalType": "uint256",
          "name": "",
          "type": "uint256"
        }
      ],
      "stateMutability": "view",
      "type": "function"
    },
    {
      "inputs": [],
      "name": "MIN_LOCK",
      "outputs": [
        {
          "internalType": "uint256",
          "name": "",
          "type": "uint256"
        }
      ],
      "stateMutability": "view",
      "type": "function"
    },
    {
      "inputs": [],
      "name": "MIN_LOCK_AMOUNT",
      "outputs": [
        {
          "internalType": "uint256",
          "name": "",
          "type": "uint256"
        }
      ],
      "stateMutability": "view",
      "type": "function"
    },
    {
      "inputs": [],
      "name": "USDC",
      "outputs": [
        {
          "internalType": "contract IERC20",
          "name": "",
          "type": "address"
        }
      ],
      "stateMutability": "view",
      "type": "function"
    },
    {
      "inputs": [],
      "name": "WIK",
      "outputs": [
        {
          "internalType": "contract IERC20",
          "name": "",
          "type": "address"
        }
      ],
      "stateMutability": "view",
      "type": "function"
    },
    {
      "inputs": [],
      "name": "accFeePerVeWIK",
      "outputs": [
        {
          "internalType": "uint256",
          "name": "",
          "type": "uint256"
        }
      ],
      "stateMutability": "view",
      "type": "function"
    },
    {
      "inputs": [],
      "name": "acceptOwnership",
      "outputs": [],
      "stateMutability": "nonpayable",
      "type": "function"
    },
    {
      "inputs": [
        {
          "internalType": "address",
          "name": "lpToken",
          "type": "address"
        },
        {
          "internalType": "uint256",
          "name": "allocPoint",
          "type": "uint256"
        }
      ],
      "name": "addPool",
      "outputs": [],
      "stateMutability": "nonpayable",
      "type": "function"
    },
    {
      "inputs": [],
      "name": "claimFees",
      "outputs": [],
      "stateMutability": "nonpayable",
      "type": "function"
    },
    {
      "inputs": [
        {
          "internalType": "uint256",
          "name": "pid",
          "type": "uint256"
        },
        {
          "internalType": "uint256",
          "name": "amount",
          "type": "uint256"
        }
      ],
      "name": "deposit",
      "outputs": [],
      "stateMutability": "nonpayable",
      "type": "function"
    },
    {
      "inputs": [
        {
          "internalType": "uint256",
          "name": "amount",
          "type": "uint256"
        }
      ],
      "name": "distributeFees",
      "outputs": [],
      "stateMutability": "nonpayable",
      "type": "function"
    },
    {
      "inputs": [
        {
          "internalType": "address",
          "name": "",
          "type": "address"
        }
      ],
      "name": "feeDebt",
      "outputs": [
        {
          "internalType": "uint256",
          "name": "",
          "type": "uint256"
        }
      ],
      "stateMutability": "view",
      "type": "function"
    },
    {
      "inputs": [
        {
          "internalType": "address",
          "name": "user",
          "type": "address"
        }
      ],
      "name": "getCurrentVeWIK",
      "outputs": [
        {
          "internalType": "uint256",
          "name": "",
          "type": "uint256"
        }
      ],
      "stateMutability": "view",
      "type": "function"
    },
    {
      "inputs": [
        {
          "internalType": "address",
          "name": "user",
          "type": "address"
        }
      ],
      "name": "getLock",
      "outputs": [
        {
          "components": [
            {
              "internalType": "uint256",
              "name": "amount",
              "type": "uint256"
            },
            {
              "internalType": "uint256",
              "name": "unlockTime",
              "type": "uint256"
            },
            {
              "internalType": "uint256",
              "name": "veWIK",
              "type": "uint256"
            }
          ],
          "internalType": "struct WikiStaking.Lock",
          "name": "",
          "type": "tuple"
        }
      ],
      "stateMutability": "view",
      "type": "function"
    },
    {
      "inputs": [
        {
          "internalType": "uint256",
          "name": "pid",
          "type": "uint256"
        },
        {
          "internalType": "address",
          "name": "user",
          "type": "address"
        }
      ],
      "name": "getUserPool",
      "outputs": [
        {
          "components": [
            {
              "internalType": "uint256",
              "name": "lpAmount",
              "type": "uint256"
            },
            {
              "internalType": "uint256",
              "name": "boostedAmount",
              "type": "uint256"
            },
            {
              "internalType": "uint256",
              "name": "rewardDebt",
              "type": "uint256"
            }
          ],
          "internalType": "struct WikiStaking.UserPool",
          "name": "",
          "type": "tuple"
        }
      ],
      "stateMutability": "view",
      "type": "function"
    },
    {
      "inputs": [
        {
          "internalType": "uint256",
          "name": "pid",
          "type": "uint256"
        }
      ],
      "name": "harvest",
      "outputs": [],
      "stateMutability": "nonpayable",
      "type": "function"
    },
    {
      "inputs": [
        {
          "internalType": "uint256",
          "name": "amount",
          "type": "uint256"
        },
        {
          "internalType": "uint256",
          "name": "duration",
          "type": "uint256"
        }
      ],
      "name": "lock",
      "outputs": [],
      "stateMutability": "nonpayable",
      "type": "function"
    },
    {
      "inputs": [
        {
          "internalType": "address",
          "name": "",
          "type": "address"
        }
      ],
      "name": "locks",
      "outputs": [
        {
          "internalType": "uint256",
          "name": "amount",
          "type": "uint256"
        },
        {
          "internalType": "uint256",
          "name": "unlockTime",
          "type": "uint256"
        },
        {
          "internalType": "uint256",
          "name": "veWIK",
          "type": "uint256"
        }
      ],
      "stateMutability": "view",
      "type": "function"
    },
    {
      "inputs": [],
      "name": "owner",
      "outputs": [
        {
          "internalType": "address",
          "name": "",
          "type": "address"
        }
      ],
      "stateMutability": "view",
      "type": "function"
    },
    {
      "inputs": [
        {
          "internalType": "address",
          "name": "",
          "type": "address"
        }
      ],
      "name": "pendingFees",
      "outputs": [
        {
          "internalType": "uint256",
          "name": "",
          "type": "uint256"
        }
      ],
      "stateMutability": "view",
      "type": "function"
    },
    {
      "inputs": [
        {
          "internalType": "address",
          "name": "user",
          "type": "address"
        }
      ],
      "name": "pendingFeesView",
      "outputs": [
        {
          "internalType": "uint256",
          "name": "",
          "type": "uint256"
        }
      ],
      "stateMutability": "view",
      "type": "function"
    },
    {
      "inputs": [],
      "name": "pendingOwner",
      "outputs": [
        {
          "internalType": "address",
          "name": "",
          "type": "address"
        }
      ],
      "stateMutability": "view",
      "type": "function"
    },
    {
      "inputs": [
        {
          "internalType": "uint256",
          "name": "pid",
          "type": "uint256"
        },
        {
          "internalType": "address",
          "name": "user",
          "type": "address"
        }
      ],
      "name": "pendingWIK",
      "outputs": [
        {
          "internalType": "uint256",
          "name": "",
          "type": "uint256"
        }
      ],
      "stateMutability": "view",
      "type": "function"
    },
    {
      "inputs": [
        {
          "internalType": "uint256",
          "name": "pid",
          "type": "uint256"
        },
        {
          "internalType": "uint256",
          "name": "wikPriceUSD",
          "type": "uint256"
        },
        {
          "internalType": "uint256",
          "name": "lpPriceUSD",
          "type": "uint256"
        }
      ],
      "name": "poolAPR",
      "outputs": [
        {
          "internalType": "uint256",
          "name": "",
          "type": "uint256"
        }
      ],
      "stateMutability": "view",
      "type": "function"
    },
    {
      "inputs": [],
      "name": "poolCount",
      "outputs": [
        {
          "internalType": "uint256",
          "name": "",
          "type": "uint256"
        }
      ],
      "stateMutability": "view",
      "type": "function"
    },
    {
      "inputs": [
        {
          "internalType": "uint256",
          "name": "",
          "type": "uint256"
        }
      ],
      "name": "pools",
      "outputs": [
        {
          "internalType": "contract IERC20",
          "name": "lpToken",
          "type": "address"
        },
        {
          "internalType": "uint256",
          "name": "allocPoint",
          "type": "uint256"
        },
        {
          "internalType": "uint256",
          "name": "lastRewardTime",
          "type": "uint256"
        },
        {
          "internalType": "uint256",
          "name": "accWIKPerShare",
          "type": "uint256"
        },
        {
          "internalType": "uint256",
          "name": "totalBoosted",
          "type": "uint256"
        },
        {
          "internalType": "bool",
          "name": "active",
          "type": "bool"
        }
      ],
      "stateMutability": "view",
      "type": "function"
    },
    {
      "inputs": [
        {
          "internalType": "uint256",
          "name": "pid",
          "type": "uint256"
        }
      ],
      "name": "rebalance",
      "outputs": [],
      "stateMutability": "nonpayable",
      "type": "function"
    },
    {
      "inputs": [],
      "name": "renounceOwnership",
      "outputs": [],
      "stateMutability": "nonpayable",
      "type": "function"
    },
    {
      "inputs": [
        {
          "internalType": "uint256",
          "name": "_wikPerSecond",
          "type": "uint256"
        }
      ],
      "name": "setEmissionRate",
      "outputs": [],
      "stateMutability": "nonpayable",
      "type": "function"
    },
    {
      "inputs": [
        {
          "internalType": "uint256",
          "name": "pid",
          "type": "uint256"
        },
        {
          "internalType": "uint256",
          "name": "allocPoint",
          "type": "uint256"
        }
      ],
      "name": "setPool",
      "outputs": [],
      "stateMutability": "nonpayable",
      "type": "function"
    },
    {
      "inputs": [
        {
          "internalType": "address",
          "name": "_tl",
          "type": "address"
        }
      ],
      "name": "setTimelock",
      "outputs": [],
      "stateMutability": "nonpayable",
      "type": "function"
    },
    {
      "inputs": [],
      "name": "startTime",
      "outputs": [
        {
          "internalType": "uint256",
          "name": "",
          "type": "uint256"
        }
      ],
      "stateMutability": "view",
      "type": "function"
    },
    {
      "inputs": [],
      "name": "timelock",
      "outputs": [
        {
          "internalType": "address",
          "name": "",
          "type": "address"
        }
      ],
      "stateMutability": "view",
      "type": "function"
    },
    {
      "inputs": [],
      "name": "totalAllocPoint",
      "outputs": [
        {
          "internalType": "uint256",
          "name": "",
          "type": "uint256"
        }
      ],
      "stateMutability": "view",
      "type": "function"
    },
    {
      "inputs": [],
      "name": "totalLockedWIK",
      "outputs": [
        {
          "internalType": "uint256",
          "name": "",
          "type": "uint256"
        }
      ],
      "stateMutability": "view",
      "type": "function"
    },
    {
      "inputs": [],
      "name": "totalVeWIK",
      "outputs": [
        {
          "internalType": "uint256",
          "name": "",
          "type": "uint256"
        }
      ],
      "stateMutability": "view",
      "type": "function"
    },
    {
      "inputs": [
        {
          "internalType": "address",
          "name": "newOwner",
          "type": "address"
        }
      ],
      "name": "transferOwnership",
      "outputs": [],
      "stateMutability": "nonpayable",
      "type": "function"
    },
    {
      "inputs": [],
      "name": "unlock",
      "outputs": [],
      "stateMutability": "nonpayable",
      "type": "function"
    },
    {
      "inputs": [
        {
          "internalType": "uint256",
          "name": "",
          "type": "uint256"
        },
        {
          "internalType": "address",
          "name": "",
          "type": "address"
        }
      ],
      "name": "userPools",
      "outputs": [
        {
          "internalType": "uint256",
          "name": "lpAmount",
          "type": "uint256"
        },
        {
          "internalType": "uint256",
          "name": "boostedAmount",
          "type": "uint256"
        },
        {
          "internalType": "uint256",
          "name": "rewardDebt",
          "type": "uint256"
        }
      ],
      "stateMutability": "view",
      "type": "function"
    },
    {
      "inputs": [],
      "name": "wikPerSecond",
      "outputs": [
        {
          "internalType": "uint256",
          "name": "",
          "type": "uint256"
        }
      ],
      "stateMutability": "view",
      "type": "function"
    },
    {
      "inputs": [
        {
          "internalType": "uint256",
          "name": "pid",
          "type": "uint256"
        },
        {
          "internalType": "uint256",
          "name": "amount",
          "type": "uint256"
        }
      ],
      "name": "withdraw",
      "outputs": [],
      "stateMutability": "nonpayable",
      "type": "function"
    }
  ],
  "bytecode": "0x60c0346101d957601f6121b338819003918201601f19168301916001600160401b038311848410176101dd578084926060946040528339810103126101d957610047816101f1565b90610054602082016101f1565b906001600160a01b039061006a906040016101f1565b169182156101c657600180546001600160a01b03199081169091555f80549182168517815560405194916001600160a01b0316907f8be0079c531659141344cd1fd0a4f28419497f9722a3daafe3b4186f6b6457e09080a360017f9b779b17422d0df92223018b32b4d1fa46e071723d6817e2486d003becc55f00556001600160a01b031691821561019357506001600160a01b031690811561015c5760805260a05242600c55604051611fad908161020682396080518181816109330152818161099d0152818161108f015281816114120152611d5c015260a05181818161064801528181610b8501526117250152f35b60405162461bcd60e51b815260206004820152600f60248201526e57696b693a207a65726f207573646360881b6044820152606490fd5b62461bcd60e51b815260206004820152600e60248201526d57696b693a207a65726f2077696b60901b6044820152606490fd5b631e4fbdf760e01b5f525f60045260245ffd5b5f80fd5b634e487b7160e01b5f52604160045260245ffd5b51906001600160a01b03821682036101d95756fe6080806040526004361015610012575f80fd5b5f3560e01c90816309002f0e14611525575080631338736f1461131557806317caf6f1146112f857806323ae7828146112db578063249d39e914610ec357806325d2a3f3146112a35780632efb1f161461123e57806332a9caba146110e157806332fcd966146105d257806336b1df4f146110be57806340b0229e1461107a578063441a3e7014610ec85780634574683614610ec357806346430af114610e46578063470d2a7c14610e295780635de9a13714610dcc5780636029bf9f14610da857806365a5d5f014610d8a5780636aff00e814610d675780636b9db4e614610d28578063715018a614610cc557806378e9792514610ca857806379ba509714610c235780637c491b2e14610bb457806389a3027114610b705780638da5cb5b14610b495780639420cab714610b2c5780639f3bcc6b14610b10578063a1bdb15e14610abc578063a69df4b514610883578063a7b5d5391461084b578063a8d3098e1461082e578063ac4afa38146107b7578063bdacb30314610735578063c80bb1c014610711578063c8d30085146106e3578063d294f093146105ff578063d33219b4146105d7578063dd764abf146105d2578063ddc63262146104ac578063e2bbb15814610320578063e30c3978146102f8578063f2fde38b1461028b578063f499301814610254578063f525cb68146102375763f8764cec14610216575f80fd5b34610233575f36600319011261023357602060405162093a808152f35b5f80fd5b34610233575f366003190112610233576020600954604051908152f35b346102335760203660031901126102335761026d611b4f565b610278600435611a9a565b60015f80516020611f5883398151915255005b34610233576020366003190112610233576102a4611571565b6102ac611c81565b60018060a01b0316806001600160601b0360a01b600154161760015560018060a01b035f54167f38d16b8cac22d99fc7c124b9cd0de2d3fa1faef420bfe791d8c362d765e227005f80a3005b34610233575f366003190112610233576001546040516001600160a01b039091168152602090f35b346102335761032e3661153f565b610336611b4f565b61033f82611cb5565b610348826115bf565b50825f52600d60205260405f2060018060a01b0333165f5260205260405f209060ff6005820154161561046e57670de0b6b3a76400006103f860029261038f8615156116d4565b6003600186019182548061043b575b5080546103b9908990309033906001600160a01b0316611c18565b6103d16103c78989546115ef565b808955338b611e07565b8093600483016103ed836103e883548554906115fc565b6115ef565b905555015490611609565b049101556040519081527f73a19dd210f1a7f902193214c0ee91dd35ee5b4d920cba8d519eca65a7b488ca60203392a360015f80516020611f5883398151915255005b8561044d610458928585015490611609565b0487890154906115fc565b801561039e576104689033611d46565b8961039e565b60405162461bcd60e51b81526020600482015260166024820152755374616b696e673a20706f6f6c20696e61637469766560501b6044820152606490fd5b34610233576020366003190112610233576004356104c8611b4f565b6104d181611cb5565b6104da816115bf565b50815f52600d60205260405f2060018060a01b0333165f5260205260405f20600360018201549201546105276002670de0b6b3a764000061051b8487611609565b049301928354906115fc565b92831561058d57670de0b6b3a76400009161054191611609565b04905561054e8133611d46565b6040519081527f81ca9b2c230070eaa84787556b1aaf18bf1e2f07ea5d3dae4819db77a1a5b22460203392a360015f80516020611f5883398151915255005b60405162461bcd60e51b815260206004820152601b60248201527f5374616b696e673a206e6f7468696e6720746f206861727665737400000000006044820152606490fd5b61159d565b34610233575f366003190112610233576002546040516001600160a01b039091168152602090f35b34610233575f36600319011261023357610617611b4f565b61062033611b87565b335f52600860205260405f205480156106ab57335f5260086020525f604081205561066c81337f0000000000000000000000000000000000000000000000000000000000000000611eff565b6040519081527f20ca5094f3a20c321cbe4123d0f01b276b81df0fa24cd4d83d9253956035d86360203392a260015f80516020611f5883398151915255005b60405162461bcd60e51b815260206004820152601060248201526f5374616b696e673a206e6f206665657360801b6044820152606490fd5b34610233576040366003190112610233576020610709610701611587565b600435611983565b604051908152f35b346102335760603660031901126102335760206107096044356024356004356118c4565b346102335760203660031901126102335761074e611571565b610756611c81565b6001600160a01b0316801561077c576001600160601b0360a01b60025416176002555f80f35b60405162461bcd60e51b815260206004820152601360248201527257696b693a207a65726f2074696d656c6f636b60681b6044820152606490fd5b3461023357602036600319011261023357600435600954811015610233576107e060c0916115bf565b5060018060a01b0381541690600181015490600281015460038201549060ff6005600485015494015416936040519586526020860152604085015260608401526080830152151560a0820152f35b34610233575f366003190112610233576020600454604051908152f35b34610233576020366003190112610233576001600160a01b0361086c611571565b165f526007602052602060405f2054604051908152f35b34610233575f3660031901126102335761089b611b4f565b335f52600360205260405f20805415610a77576108b733611b87565b8054905f9060018101544210610a42575b6108de6108d583856115fc565b936004546115fc565b60045560055460029190910154808210610a3a576108fb916115fc565b600555335f5260076020525f6040812055335f5260036020525f60026040822082815582600182015501558061099b575b61095782337f0000000000000000000000000000000000000000000000000000000000000000611eff565b60405191825260208201527f3f2f29fa02cc34566ac167b446be0be9e0254cac18eda93b2dfe6a7a7c8affb960403392a260015f80516020611f5883398151915255005b7f000000000000000000000000000000000000000000000000000000000000000060405163a9059cbb60e01b5f5261dead6004528260245260205f60448180865af19060015f5114821615610a19575b604052156109f9575061092c565b635274afe760e01b5f9081526001600160a01b0391909116600452602490fd5b906001811516610a3157823b15153d151616906109eb565b503d5f823e3d90fd5b50505f6108fb565b905061138882028281046113881483151715610a63576127109004906108c8565b634e487b7160e01b5f52601160045260245ffd5b60405162461bcd60e51b815260206004820152601760248201527f5374616b696e673a206e6f7468696e67206c6f636b65640000000000000000006044820152606490fd5b34610233576020366003190112610233577f010a8b7cb1faab491acf8e175333e56c4bf4ad24ae1927dc38925ac085085f716020600435610afb611c81565b610b03611c94565b80600b55604051908152a1005b34610233575f3660031901126102335760206040516113888152f35b34610233575f366003190112610233576020600654604051908152f35b34610233575f366003190112610233575f546040516001600160a01b039091168152602090f35b34610233575f366003190112610233576040517f00000000000000000000000000000000000000000000000000000000000000006001600160a01b03168152602090f35b3461023357604036600319011261023357610bcd611587565b610bd561187e565b506004355f52600d60205260405f209060018060a01b03165f526020526060610c0060405f2061189c565b610c2160405180926040809180518452602081015160208501520151910152565bf35b34610233575f36600319011261023357600154336001600160a01b0390911603610c9557600180546001600160a01b03199081169091555f805433928116831782556001600160a01b0316907f8be0079c531659141344cd1fd0a4f28419497f9722a3daafe3b4186f6b6457e09080a3005b63118cdaa760e01b5f523360045260245ffd5b34610233575f366003190112610233576020600c54604051908152f35b34610233575f36600319011261023357610cdd611c81565b600180546001600160a01b03199081169091555f80549182168155906001600160a01b03167f8be0079c531659141344cd1fd0a4f28419497f9722a3daafe3b4186f6b6457e08280a3005b3461023357602036600319011261023357610d41611571565b610d4961187e565b5060018060a01b03165f5260036020526060610c0060405f2061189c565b34610233576020366003190112610233576020610709610d85611571565b6117e1565b34610233575f366003190112610233576020604051630784ce008152f35b3461023357602036600319011261023357610dc1611b4f565b610278600435611717565b34610233576020366003190112610233576001600160a01b03610ded611571565b165f52600360205260405f208054610e2560026001840154930154604051938493846040919493926060820195825260208201520152565b0390f35b34610233575f366003190112610233576020600b54604051908152f35b346102335760207f7fa9647ec1cc14e3822b46d05a2b9d4e019bde8875c0088c46b6503d71bf1722610e773661153f565b610e82939193611c81565b610e8a611c94565b610ea8816103e8600a546001610e9f896115bf565b500154906115fc565b600a55806001610eb7866115bf565b500155604051908152a2005b611555565b3461023357610ed63661153f565b610ede611b4f565b610ee782611cb5565b610ef0826115bf565b50825f52600d60205260405f2060018060a01b0333165f5260205260405f2090828254106110355782610faf610f7a94869360018601670de0b6b3a7640000610f9b82549282610f466003870195865490611609565b0493610f5860028c01958654906115fc565b9b8c15159b8d8d611025575b50610f708982546115fc565b809155338c611e07565b809260048801610f91836103e883548554906115fc565b9055555490611609565b0490555433906001600160a01b0316611eff565b6040519081527f92ccf450a286a957af52509bc1c9939d1a6a481783e142e41e2499f0bb66ebc660203392a3610ff25760015f80516020611f5883398151915255005b6040519081527f81ca9b2c230070eaa84787556b1aaf18bf1e2f07ea5d3dae4819db77a1a5b22460203392a38080610278565b61102f9033611d46565b8d610f64565b60405162461bcd60e51b815260206004820152601d60248201527f5374616b696e673a20696e73756666696369656e742062616c616e63650000006044820152606490fd5b34610233575f366003190112610233576040517f00000000000000000000000000000000000000000000000000000000000000006001600160a01b03168152602090f35b346102335760203660031901126102335760206107096110dc611571565b611678565b34610233576040366003190112610233576110fa611571565b602435611105611c81565b61110d611c94565b61111981600a546115ef565b600a5560095460405190929091906001600160a01b031660c0830167ffffffffffffffff81118482101761122a576040528083526020830191808352604084019342855260608101905f825260808101915f835260a0820192600184526801000000000000000089101561122a5760018901600955611197896115bf565b929092611217577f6c5d0ef1d0199b6de41ecbce95f59643be4d723ca363faf92d756e61e82fb13e9860409860059560018060a01b039051166001600160601b0360a01b865416178555516001850155516002840155516003830155516004820155019051151560ff8019835416911617905582519182526020820152a2005b634e487b7160e01b5f525f60045260245ffd5b634e487b7160e01b5f52604160045260245ffd5b3461023357604036600319011261023357611257611587565b6004355f52600d60205260405f209060018060a01b03165f5260205260405f208054610e2560026001840154930154604051938493846040919493926060820195825260208201520152565b34610233576020366003190112610233576001600160a01b036112c4611571565b165f526008602052602060405f2054604051908152f35b34610233575f366003190112610233576020600554604051908152f35b34610233575f366003190112610233576020600a54604051908152f35b34610233576113233661153f565b61132b611b4f565b670de0b6b3a764000082106114e75762093a80811015806114d9575b1561149c57335f52600360205260405f209061136233611b87565b81541561148c5761137381426115ef565b906001830154808310611484575b5061139260028401546005546115fc565b6005555b6113a18484546115ef565b6002630784ce006113bb6113b542876115fc565b84611609565b049485926113cb886004546115ef565b6004556113da846005546115ef565b60055581558460018201550155670de0b6b3a76400006113fc60065485611609565b04335f52600760205260405f20556114368430337f0000000000000000000000000000000000000000000000000000000000000000611c18565b6040519384526020840152604083015260608201527fc1126f780558d178a12a5cf08c087496f33400d9b431b6530eb0001f3c34fa9960803392a260015f80516020611f5883398151915255005b915084611381565b61149681426115ef565b90611396565b60405162461bcd60e51b815260206004820152601560248201527429ba30b5b4b7339d103130b210323ab930ba34b7b760591b6044820152606490fd5b50630784ce00811115611347565b60405162461bcd60e51b81526020600482015260166024820152755374616b696e673a2062656c6f77206d696e696d756d60501b6044820152606490fd5b34610233575f36600319011261023357806161a860209252f35b6040906003190112610233576004359060243590565b34610233575f3660031901126102335760206040516127108152f35b600435906001600160a01b038216820361023357565b602435906001600160a01b038216820361023357565b34610233575f366003190112610233576020604051670de0b6b3a76400008152f35b6009548110156115db5760095f52600660205f20910201905f90565b634e487b7160e01b5f52603260045260245ffd5b91908201809211610a6357565b91908203918211610a6357565b81810292918115918404141715610a6357565b8115611626570490565b634e487b7160e01b5f52601260045260245ffd5b6060810190811067ffffffffffffffff82111761122a57604052565b90601f8019910116810190811067ffffffffffffffff82111761122a57604052565b6001600160a01b03165f908152600360205260409020805490811580156116c6575b6116c057630784ce00916116b660016116bc93015442906115fc565b90611609565b0490565b50505f90565b50600181015442101561169a565b156116db57565b60405162461bcd60e51b815260206004820152601460248201527314dd185ada5b99ce881e995c9bc8185b5bdd5b9d60621b6044820152606490fd5b801561172381156116d4565b7f00000000000000000000000000000000000000000000000000000000000000009161175181303386611c18565b6005549283156117c45750670de0b6b3a7640000810291818304670de0b6b3a7640000141715610a63576117b36117ab7f61930a6c1553eab59d5766da6e1bab8eba982aec848ae7683452f4a6423b6e4a9460409461161c565b6006546115ef565b8060065582519182526020820152a1565b5f546117df94509192506001600160a01b0390911690611eff565b565b6001600160a01b0381165f818152600360205260409020549091901561186e5790670de0b6b3a764000061182361181a61186394611678565b60065490611609565b04815f52600760205260405f205481115f146118665761185090825f52600760205260405f2054906115fc565b905b5f52600860205260405f20546115ef565b90565b505f90611852565b505f52600860205260405f205490565b6040519061188b8261163a565b5f6040838281528260208201520152565b906040516118a98161163a565b60406002829480548452600181015460208501520154910152565b6118cd906115bf565b509060048201549283158015611979575b8015611971575b61196957600b546301e133808102908082046301e133801490151715610a635761193761193e93611932611929670de0b6b3a7640000979460018996015490611609565b600a549061161c565b611609565b0493611609565b04670de0b6b3a7640000820291808304670de0b6b3a76400001490151715610a63576118639161161c565b505050505f90565b5080156118e5565b50600a54156118de565b9061198d826115bf565b50915f52600d60205260405f209060018060a01b03165f5260205260405f206001810154918215611a9357600381015490600281015480421180611a86575b80611a7b575b6119fb575b5050670de0b6b3a76400006119f160029261186395611609565b04910154906115fc565b611929611a1a611a11611a2593959495426115fc565b600b5490611609565b600185015490611609565b91670de0b6b3a7640000830292808404670de0b6b3a76400001490151715610a635761186394611a72670de0b6b3a764000093611a6c60029660046119f19601549061161c565b906115ef565b935094506119d7565b50600a5415156119d2565b50600482015415156119cc565b5050505f90565b611aa381611cb5565b611aac816115bf565b50815f52600d60205260405f2060018060a01b0333165f5260205260405f2091825415611b4a576004611b3591670de0b6b3a76400009360018601611b2081549387611afe6003860196875490611609565b0498611b10600282019a8b54906115fc565b80611b3a575b5054903390611e07565b93849201610f91836103e883548554906115fc565b049055565b611b449033611d46565b5f611b16565b505050565b60025f80516020611f588339815191525414611b785760025f80516020611f5883398151915255565b633ee5aeb560e01b5f5260045ffd5b6001600160a01b0381165f8181526003602052604090205490919015611c1457611bbc61181a670de0b6b3a764000092611678565b0490805f52600760205260405f20548211611be0575b5f52600760205260405f2055565b805f526007602052611bf660405f2054836115fc565b815f526008602052611c0d60405f209182546115ef565b9055611bd2565b5050565b6040516323b872dd60e01b5f9081526001600160a01b039384166004529290931660245260449390935260209060648180865af19060015f5114821615611c69575b6040525f606052156109f95750565b906001811516610a3157823b15153d15161690611c5a565b5f546001600160a01b03163303610c9557565b5f5b600954811015611cb25780611cac600192611cb5565b01611c96565b50565b611cbe906115bf565b5060028101908154421115611c1457600481015480158015611d3c575b611d3557611cf3611929611a1a611a118654426115fc565b90670de0b6b3a7640000820291808304670de0b6b3a76400001490151715610a6357611d24600391611d2e9361161c565b92019182546115ef565b9055429055565b5050429055565b50600a5415611cdb565b6040516370a0823160e01b8152306004820152917f000000000000000000000000000000000000000000000000000000000000000091906020846024816001600160a01b0387165afa938415611dfc575f94611dc6575b50611dae6117df94600454906115fc565b9081811115611dbe575091611eff565b905091611eff565b93506020843d602011611df4575b81611de160209383611656565b8101031261023357925192611dae611d9d565b3d9150611dd4565b6040513d5f823e3d90fd5b908215611a93576020611e1b6024936115bf565b50546040516370a0823160e01b815230600482015293849182906001600160a01b03165afa918215611dfc575f92611ec9575b50611e5890611678565b600554908360021b92848404600403610a63578215611eb957611e849291611e7f91611609565b61161c565b90600682029180830460061490151715610a6357600a80611ea89304915b046115ef565b81811115611eb4575090565b905090565b505050611ea890600a5f91611ea2565b9091506020813d602011611ef7575b81611ee560209383611656565b81010312610233575190611e58611e4e565b3d9150611ed8565b916040519163a9059cbb60e01b5f5260018060a01b031660045260245260205f60448180865af19060015f5114821615611f3f575b604052156109f95750565b906001811516610a3157823b15153d15161690611f3456fe9b779b17422d0df92223018b32b4d1fa46e071723d6817e2486d003becc55f00a2646970667358221220bc4da15994710fcb39aac1c2948adcadff9bd1809be203c3ccdfb6fb85459e8564736f6c634300081a0033",
  "linkReferences": {},
  "deployedLinkReferences": {}
}